{
	"_format": "sphinx-sol-ct-artifact-1",
	"merkleRoot": "0x6fa604f0ef34ea170f42472e111e312bc3448c23815c3e218ee7d68e344bd6d4",
	"address": "0x9956b01ea8b9e0f22c32146053a4d42b8ab83d29",
	"sourceName": "src/JBCCIPSucker.sol",
	"contractName": "JBCCIPSucker",
	"chainId": "0xaa37dc",
	"abi": [
		{
			"inputs": [
				{
					"internalType": "contract JBCCIPSuckerDeployer",
					"name": "deployer",
					"type": "address"
				},
				{
					"internalType": "contract IJBDirectory",
					"name": "directory",
					"type": "address"
				},
				{
					"internalType": "contract IJBTokens",
					"name": "tokens",
					"type": "address"
				},
				{
					"internalType": "contract IJBPermissions",
					"name": "permissions",
					"type": "address"
				},
				{
					"internalType": "enum JBAddToBalanceMode",
					"name": "addToBalanceMode",
					"type": "uint8"
				},
				{
					"internalType": "address",
					"name": "trusted_forwarder",
					"type": "address"
				}
			],
			"stateMutability": "nonpayable",
			"type": "constructor"
		},
		{
			"stateMutability": "payable",
			"type": "receive"
		},
		{
			"inputs": [],
			"name": "ADD_TO_BALANCE_MODE",
			"outputs": [
				{
					"internalType": "enum JBAddToBalanceMode",
					"name": "",
					"type": "uint8"
				}
			],
			"stateMutability": "view",
			"type": "function"
		},
		{
			"inputs": [],
			"name": "CCIP_ROUTER",
			"outputs": [
				{
					"internalType": "contract ICCIPRouter",
					"name": "",
					"type": "address"
				}
			],
			"stateMutability": "view",
			"type": "function"
		},
		{
			"inputs": [],
			"name": "DEPLOYER",
			"outputs": [
				{
					"internalType": "address",
					"name": "",
					"type": "address"
				}
			],
			"stateMutability": "view",
			"type": "function"
		},
		{
			"inputs": [],
			"name": "DIRECTORY",
			"outputs": [
				{
					"internalType": "contract IJBDirectory",
					"name": "",
					"type": "address"
				}
			],
			"stateMutability": "view",
			"type": "function"
		},
		{
			"inputs": [],
			"name": "MESSENGER_BASE_GAS_LIMIT",
			"outputs": [
				{
					"internalType": "uint32",
					"name": "",
					"type": "uint32"
				}
			],
			"stateMutability": "view",
			"type": "function"
		},
		{
			"inputs": [],
			"name": "MESSENGER_ERC20_MIN_GAS_LIMIT",
			"outputs": [
				{
					"internalType": "uint32",
					"name": "",
					"type": "uint32"
				}
			],
			"stateMutability": "view",
			"type": "function"
		},
		{
			"inputs": [],
			"name": "PERMISSIONS",
			"outputs": [
				{
					"internalType": "contract IJBPermissions",
					"name": "",
					"type": "address"
				}
			],
			"stateMutability": "view",
			"type": "function"
		},
		{
			"inputs": [],
			"name": "REMOTE_CHAIN_ID",
			"outputs": [
				{
					"internalType": "uint256",
					"name": "",
					"type": "uint256"
				}
			],
			"stateMutability": "view",
			"type": "function"
		},
		{
			"inputs": [],
			"name": "REMOTE_CHAIN_SELECTOR",
			"outputs": [
				{
					"internalType": "uint64",
					"name": "",
					"type": "uint64"
				}
			],
			"stateMutability": "view",
			"type": "function"
		},
		{
			"inputs": [],
			"name": "TOKENS",
			"outputs": [
				{
					"internalType": "contract IJBTokens",
					"name": "",
					"type": "address"
				}
			],
			"stateMutability": "view",
			"type": "function"
		},
		{
			"inputs": [
				{
					"internalType": "address",
					"name": "token",
					"type": "address"
				}
			],
			"name": "addOutstandingAmountToBalance",
			"outputs": [],
			"stateMutability": "nonpayable",
			"type": "function"
		},
		{
			"inputs": [
				{
					"internalType": "address",
					"name": "token",
					"type": "address"
				}
			],
			"name": "amountToAddToBalanceOf",
			"outputs": [
				{
					"internalType": "uint256",
					"name": "",
					"type": "uint256"
				}
			],
			"stateMutability": "view",
			"type": "function"
		},
		{
			"inputs": [
				{
					"components": [
						{
							"internalType": "bytes32",
							"name": "messageId",
							"type": "bytes32"
						},
						{
							"internalType": "uint64",
							"name": "sourceChainSelector",
							"type": "uint64"
						},
						{
							"internalType": "bytes",
							"name": "sender",
							"type": "bytes"
						},
						{
							"internalType": "bytes",
							"name": "data",
							"type": "bytes"
						},
						{
							"components": [
								{
									"internalType": "address",
									"name": "token",
									"type": "address"
								},
								{
									"internalType": "uint256",
									"name": "amount",
									"type": "uint256"
								}
							],
							"internalType": "struct Client.EVMTokenAmount[]",
							"name": "destTokenAmounts",
							"type": "tuple[]"
						}
					],
					"internalType": "struct Client.Any2EVMMessage",
					"name": "any2EvmMessage",
					"type": "tuple"
				}
			],
			"name": "ccipReceive",
			"outputs": [],
			"stateMutability": "nonpayable",
			"type": "function"
		},
		{
			"inputs": [
				{
					"components": [
						{
							"internalType": "address",
							"name": "token",
							"type": "address"
						},
						{
							"components": [
								{
									"internalType": "uint256",
									"name": "index",
									"type": "uint256"
								},
								{
									"internalType": "address",
									"name": "beneficiary",
									"type": "address"
								},
								{
									"internalType": "uint256",
									"name": "projectTokenCount",
									"type": "uint256"
								},
								{
									"internalType": "uint256",
									"name": "terminalTokenAmount",
									"type": "uint256"
								}
							],
							"internalType": "struct JBLeaf",
							"name": "leaf",
							"type": "tuple"
						},
						{
							"internalType": "bytes32[32]",
							"name": "proof",
							"type": "bytes32[32]"
						}
					],
					"internalType": "struct JBClaim",
					"name": "claimData",
					"type": "tuple"
				}
			],
			"name": "claim",
			"outputs": [],
			"stateMutability": "nonpayable",
			"type": "function"
		},
		{
			"inputs": [
				{
					"components": [
						{
							"internalType": "address",
							"name": "token",
							"type": "address"
						},
						{
							"components": [
								{
									"internalType": "uint256",
									"name": "index",
									"type": "uint256"
								},
								{
									"internalType": "address",
									"name": "beneficiary",
									"type": "address"
								},
								{
									"internalType": "uint256",
									"name": "projectTokenCount",
									"type": "uint256"
								},
								{
									"internalType": "uint256",
									"name": "terminalTokenAmount",
									"type": "uint256"
								}
							],
							"internalType": "struct JBLeaf",
							"name": "leaf",
							"type": "tuple"
						},
						{
							"internalType": "bytes32[32]",
							"name": "proof",
							"type": "bytes32[32]"
						}
					],
					"internalType": "struct JBClaim[]",
					"name": "claims",
					"type": "tuple[]"
				}
			],
			"name": "claim",
			"outputs": [],
			"stateMutability": "nonpayable",
			"type": "function"
		},
		{
			"inputs": [
				{
					"internalType": "address[]",
					"name": "tokens",
					"type": "address[]"
				}
			],
			"name": "enableEmergencyHatchFor",
			"outputs": [],
			"stateMutability": "nonpayable",
			"type": "function"
		},
		{
			"inputs": [
				{
					"components": [
						{
							"internalType": "address",
							"name": "token",
							"type": "address"
						},
						{
							"components": [
								{
									"internalType": "uint256",
									"name": "index",
									"type": "uint256"
								},
								{
									"internalType": "address",
									"name": "beneficiary",
									"type": "address"
								},
								{
									"internalType": "uint256",
									"name": "projectTokenCount",
									"type": "uint256"
								},
								{
									"internalType": "uint256",
									"name": "terminalTokenAmount",
									"type": "uint256"
								}
							],
							"internalType": "struct JBLeaf",
							"name": "leaf",
							"type": "tuple"
						},
						{
							"internalType": "bytes32[32]",
							"name": "proof",
							"type": "bytes32[32]"
						}
					],
					"internalType": "struct JBClaim",
					"name": "claimData",
					"type": "tuple"
				}
			],
			"name": "exitThroughEmergencyHatch",
			"outputs": [],
			"stateMutability": "nonpayable",
			"type": "function"
		},
		{
			"inputs": [
				{
					"components": [
						{
							"internalType": "address",
							"name": "token",
							"type": "address"
						},
						{
							"internalType": "uint256",
							"name": "amount",
							"type": "uint256"
						},
						{
							"components": [
								{
									"internalType": "uint64",
									"name": "nonce",
									"type": "uint64"
								},
								{
									"internalType": "bytes32",
									"name": "root",
									"type": "bytes32"
								}
							],
							"internalType": "struct JBInboxTreeRoot",
							"name": "remoteRoot",
							"type": "tuple"
						}
					],
					"internalType": "struct JBMessageRoot",
					"name": "root",
					"type": "tuple"
				}
			],
			"name": "fromRemote",
			"outputs": [],
			"stateMutability": "payable",
			"type": "function"
		},
		{
			"inputs": [],
			"name": "getRouter",
			"outputs": [
				{
					"internalType": "address",
					"name": "",
					"type": "address"
				}
			],
			"stateMutability": "view",
			"type": "function"
		},
		{
			"inputs": [
				{
					"internalType": "address",
					"name": "token",
					"type": "address"
				}
			],
			"name": "inboxOf",
			"outputs": [
				{
					"components": [
						{
							"internalType": "uint64",
							"name": "nonce",
							"type": "uint64"
						},
						{
							"internalType": "bytes32",
							"name": "root",
							"type": "bytes32"
						}
					],
					"internalType": "struct JBInboxTreeRoot",
					"name": "",
					"type": "tuple"
				}
			],
			"stateMutability": "view",
			"type": "function"
		},
		{
			"inputs": [
				{
					"internalType": "uint256",
					"name": "__projectId",
					"type": "uint256"
				}
			],
			"name": "initialize",
			"outputs": [],
			"stateMutability": "nonpayable",
			"type": "function"
		},
		{
			"inputs": [
				{
					"internalType": "address",
					"name": "token",
					"type": "address"
				}
			],
			"name": "isMapped",
			"outputs": [
				{
					"internalType": "bool",
					"name": "",
					"type": "bool"
				}
			],
			"stateMutability": "view",
			"type": "function"
		},
		{
			"inputs": [
				{
					"internalType": "address",
					"name": "forwarder",
					"type": "address"
				}
			],
			"name": "isTrustedForwarder",
			"outputs": [
				{
					"internalType": "bool",
					"name": "",
					"type": "bool"
				}
			],
			"stateMutability": "view",
			"type": "function"
		},
		{
			"inputs": [
				{
					"components": [
						{
							"internalType": "address",
							"name": "localToken",
							"type": "address"
						},
						{
							"internalType": "uint32",
							"name": "minGas",
							"type": "uint32"
						},
						{
							"internalType": "address",
							"name": "remoteToken",
							"type": "address"
						},
						{
							"internalType": "uint256",
							"name": "minBridgeAmount",
							"type": "uint256"
						}
					],
					"internalType": "struct JBTokenMapping",
					"name": "map",
					"type": "tuple"
				}
			],
			"name": "mapToken",
			"outputs": [],
			"stateMutability": "payable",
			"type": "function"
		},
		{
			"inputs": [
				{
					"components": [
						{
							"internalType": "address",
							"name": "localToken",
							"type": "address"
						},
						{
							"internalType": "uint32",
							"name": "minGas",
							"type": "uint32"
						},
						{
							"internalType": "address",
							"name": "remoteToken",
							"type": "address"
						},
						{
							"internalType": "uint256",
							"name": "minBridgeAmount",
							"type": "uint256"
						}
					],
					"internalType": "struct JBTokenMapping[]",
					"name": "maps",
					"type": "tuple[]"
				}
			],
			"name": "mapTokens",
			"outputs": [],
			"stateMutability": "payable",
			"type": "function"
		},
		{
			"inputs": [
				{
					"internalType": "address",
					"name": "token",
					"type": "address"
				}
			],
			"name": "outboxOf",
			"outputs": [
				{
					"components": [
						{
							"internalType": "uint64",
							"name": "nonce",
							"type": "uint64"
						},
						{
							"internalType": "uint256",
							"name": "balance",
							"type": "uint256"
						},
						{
							"components": [
								{
									"internalType": "bytes32[32]",
									"name": "branch",
									"type": "bytes32[32]"
								},
								{
									"internalType": "uint256",
									"name": "count",
									"type": "uint256"
								}
							],
							"internalType": "struct MerkleLib.Tree",
							"name": "tree",
							"type": "tuple"
						},
						{
							"internalType": "uint256",
							"name": "numberOfClaimsSent",
							"type": "uint256"
						}
					],
					"internalType": "struct JBOutboxTree",
					"name": "",
					"type": "tuple"
				}
			],
			"stateMutability": "view",
			"type": "function"
		},
		{
			"inputs": [],
			"name": "peer",
			"outputs": [
				{
					"internalType": "address",
					"name": "",
					"type": "address"
				}
			],
			"stateMutability": "view",
			"type": "function"
		},
		{
			"inputs": [],
			"name": "peerChainId",
			"outputs": [
				{
					"internalType": "uint256",
					"name": "chainId",
					"type": "uint256"
				}
			],
			"stateMutability": "view",
			"type": "function"
		},
		{
			"inputs": [
				{
					"internalType": "uint256",
					"name": "projectTokenCount",
					"type": "uint256"
				},
				{
					"internalType": "address",
					"name": "beneficiary",
					"type": "address"
				},
				{
					"internalType": "uint256",
					"name": "minTokensReclaimed",
					"type": "uint256"
				},
				{
					"internalType": "address",
					"name": "token",
					"type": "address"
				}
			],
			"name": "prepare",
			"outputs": [],
			"stateMutability": "nonpayable",
			"type": "function"
		},
		{
			"inputs": [],
			"name": "projectId",
			"outputs": [
				{
					"internalType": "uint256",
					"name": "",
					"type": "uint256"
				}
			],
			"stateMutability": "view",
			"type": "function"
		},
		{
			"inputs": [
				{
					"internalType": "address",
					"name": "token",
					"type": "address"
				}
			],
			"name": "remoteTokenFor",
			"outputs": [
				{
					"components": [
						{
							"internalType": "bool",
							"name": "enabled",
							"type": "bool"
						},
						{
							"internalType": "bool",
							"name": "emergencyHatch",
							"type": "bool"
						},
						{
							"internalType": "uint32",
							"name": "minGas",
							"type": "uint32"
						},
						{
							"internalType": "address",
							"name": "addr",
							"type": "address"
						},
						{
							"internalType": "uint256",
							"name": "minBridgeAmount",
							"type": "uint256"
						}
					],
					"internalType": "struct JBRemoteToken",
					"name": "",
					"type": "tuple"
				}
			],
			"stateMutability": "view",
			"type": "function"
		},
		{
			"inputs": [
				{
					"internalType": "uint40",
					"name": "timestamp",
					"type": "uint40"
				}
			],
			"name": "setDeprecation",
			"outputs": [],
			"stateMutability": "nonpayable",
			"type": "function"
		},
		{
			"inputs": [],
			"name": "state",
			"outputs": [
				{
					"internalType": "enum JBSuckerState",
					"name": "",
					"type": "uint8"
				}
			],
			"stateMutability": "view",
			"type": "function"
		},
		{
			"inputs": [
				{
					"internalType": "bytes4",
					"name": "interfaceId",
					"type": "bytes4"
				}
			],
			"name": "supportsInterface",
			"outputs": [
				{
					"internalType": "bool",
					"name": "",
					"type": "bool"
				}
			],
			"stateMutability": "view",
			"type": "function"
		},
		{
			"inputs": [
				{
					"internalType": "address",
					"name": "token",
					"type": "address"
				}
			],
			"name": "toRemote",
			"outputs": [],
			"stateMutability": "payable",
			"type": "function"
		},
		{
			"inputs": [],
			"name": "trustedForwarder",
			"outputs": [
				{
					"internalType": "address",
					"name": "",
					"type": "address"
				}
			],
			"stateMutability": "view",
			"type": "function"
		},
		{
			"anonymous": false,
			"inputs": [
				{
					"indexed": false,
					"internalType": "address",
					"name": "beneficiary",
					"type": "address"
				},
				{
					"indexed": false,
					"internalType": "address",
					"name": "token",
					"type": "address"
				},
				{
					"indexed": false,
					"internalType": "uint256",
					"name": "projectTokenCount",
					"type": "uint256"
				},
				{
					"indexed": false,
					"internalType": "uint256",
					"name": "terminalTokenAmount",
					"type": "uint256"
				},
				{
					"indexed": false,
					"internalType": "uint256",
					"name": "index",
					"type": "uint256"
				},
				{
					"indexed": false,
					"internalType": "bool",
					"name": "autoAddedToBalance",
					"type": "bool"
				},
				{
					"indexed": false,
					"internalType": "address",
					"name": "caller",
					"type": "address"
				}
			],
			"name": "Claimed",
			"type": "event"
		},
		{
			"anonymous": false,
			"inputs": [
				{
					"indexed": false,
					"internalType": "uint40",
					"name": "timestamp",
					"type": "uint40"
				},
				{
					"indexed": false,
					"internalType": "address",
					"name": "caller",
					"type": "address"
				}
			],
			"name": "DeprecationTimeUpdated",
			"type": "event"
		},
		{
			"anonymous": false,
			"inputs": [
				{
					"indexed": false,
					"internalType": "address[]",
					"name": "tokens",
					"type": "address[]"
				},
				{
					"indexed": false,
					"internalType": "address",
					"name": "caller",
					"type": "address"
				}
			],
			"name": "EmergencyHatchOpened",
			"type": "event"
		},
		{
			"anonymous": false,
			"inputs": [
				{
					"indexed": false,
					"internalType": "uint64",
					"name": "version",
					"type": "uint64"
				}
			],
			"name": "Initialized",
			"type": "event"
		},
		{
			"anonymous": false,
			"inputs": [
				{
					"indexed": true,
					"internalType": "address",
					"name": "beneficiary",
					"type": "address"
				},
				{
					"indexed": true,
					"internalType": "address",
					"name": "token",
					"type": "address"
				},
				{
					"indexed": false,
					"internalType": "bytes32",
					"name": "hashed",
					"type": "bytes32"
				},
				{
					"indexed": false,
					"internalType": "uint256",
					"name": "index",
					"type": "uint256"
				},
				{
					"indexed": false,
					"internalType": "bytes32",
					"name": "root",
					"type": "bytes32"
				},
				{
					"indexed": false,
					"internalType": "uint256",
					"name": "projectTokenCount",
					"type": "uint256"
				},
				{
					"indexed": false,
					"internalType": "uint256",
					"name": "terminalTokenAmount",
					"type": "uint256"
				},
				{
					"indexed": false,
					"internalType": "address",
					"name": "caller",
					"type": "address"
				}
			],
			"name": "InsertToOutboxTree",
			"type": "event"
		},
		{
			"anonymous": false,
			"inputs": [
				{
					"indexed": true,
					"internalType": "address",
					"name": "token",
					"type": "address"
				},
				{
					"indexed": false,
					"internalType": "uint64",
					"name": "nonce",
					"type": "uint64"
				},
				{
					"indexed": false,
					"internalType": "bytes32",
					"name": "root",
					"type": "bytes32"
				},
				{
					"indexed": false,
					"internalType": "address",
					"name": "caller",
					"type": "address"
				}
			],
			"name": "NewInboxTreeRoot",
			"type": "event"
		},
		{
			"anonymous": false,
			"inputs": [
				{
					"indexed": true,
					"internalType": "bytes32",
					"name": "root",
					"type": "bytes32"
				},
				{
					"indexed": true,
					"internalType": "address",
					"name": "token",
					"type": "address"
				},
				{
					"indexed": false,
					"internalType": "uint256",
					"name": "index",
					"type": "uint256"
				},
				{
					"indexed": false,
					"internalType": "uint64",
					"name": "nonce",
					"type": "uint64"
				},
				{
					"indexed": false,
					"internalType": "address",
					"name": "caller",
					"type": "address"
				}
			],
			"name": "RootToRemote",
			"type": "event"
		},
		{
			"inputs": [],
			"name": "InvalidInitialization",
			"type": "error"
		},
		{
			"inputs": [],
			"name": "JBCCIPSucker_FailedToRefundFee",
			"type": "error"
		},
		{
			"inputs": [
				{
					"internalType": "address",
					"name": "router",
					"type": "address"
				}
			],
			"name": "JBCCIPSucker_InvalidRouter",
			"type": "error"
		},
		{
			"inputs": [
				{
					"internalType": "uint256",
					"name": "nOfTokens",
					"type": "uint256"
				}
			],
			"name": "JBCCIPSucker_UnexpectedAmountOfTokens",
			"type": "error"
		},
		{
			"inputs": [
				{
					"internalType": "address",
					"name": "account",
					"type": "address"
				},
				{
					"internalType": "address",
					"name": "sender",
					"type": "address"
				},
				{
					"internalType": "uint256",
					"name": "projectId",
					"type": "uint256"
				},
				{
					"internalType": "uint256",
					"name": "permissionId",
					"type": "uint256"
				}
			],
			"name": "JBPermissioned_Unauthorized",
			"type": "error"
		},
		{
			"inputs": [
				{
					"internalType": "uint256",
					"name": "minGas",
					"type": "uint256"
				},
				{
					"internalType": "uint256",
					"name": "minGasLimit",
					"type": "uint256"
				}
			],
			"name": "JBSucker_BelowMinGas",
			"type": "error"
		},
		{
			"inputs": [],
			"name": "JBSucker_Deprecated",
			"type": "error"
		},
		{
			"inputs": [
				{
					"internalType": "uint256",
					"name": "givenTime",
					"type": "uint256"
				},
				{
					"internalType": "uint256",
					"name": "minimumTime",
					"type": "uint256"
				}
			],
			"name": "JBSucker_DeprecationTimestampTooSoon",
			"type": "error"
		},
		{
			"inputs": [],
			"name": "JBSucker_ExpectedMsgValue",
			"type": "error"
		},
		{
			"inputs": [
				{
					"internalType": "uint256",
					"name": "amount",
					"type": "uint256"
				},
				{
					"internalType": "uint256",
					"name": "balance",
					"type": "uint256"
				}
			],
			"name": "JBSucker_InsufficientBalance",
			"type": "error"
		},
		{
			"inputs": [
				{
					"internalType": "uint256",
					"name": "received",
					"type": "uint256"
				},
				{
					"internalType": "uint256",
					"name": "expected",
					"type": "uint256"
				}
			],
			"name": "JBSucker_InsufficientMsgValue",
			"type": "error"
		},
		{
			"inputs": [
				{
					"internalType": "address",
					"name": "remoteToken",
					"type": "address"
				}
			],
			"name": "JBSucker_InvalidNativeRemoteAddress",
			"type": "error"
		},
		{
			"inputs": [
				{
					"internalType": "bytes32",
					"name": "root",
					"type": "bytes32"
				},
				{
					"internalType": "bytes32",
					"name": "inboxRoot",
					"type": "bytes32"
				}
			],
			"name": "JBSucker_InvalidProof",
			"type": "error"
		},
		{
			"inputs": [
				{
					"internalType": "address",
					"name": "token",
					"type": "address"
				},
				{
					"internalType": "uint256",
					"name": "index",
					"type": "uint256"
				}
			],
			"name": "JBSucker_LeafAlreadyExecuted",
			"type": "error"
		},
		{
			"inputs": [
				{
					"internalType": "enum JBAddToBalanceMode",
					"name": "mode",
					"type": "uint8"
				}
			],
			"name": "JBSucker_ManualNotAllowed",
			"type": "error"
		},
		{
			"inputs": [
				{
					"internalType": "uint256",
					"name": "projectId",
					"type": "uint256"
				},
				{
					"internalType": "address",
					"name": "token",
					"type": "address"
				}
			],
			"name": "JBSucker_NoTerminalForToken",
			"type": "error"
		},
		{
			"inputs": [
				{
					"internalType": "address",
					"name": "caller",
					"type": "address"
				}
			],
			"name": "JBSucker_NotPeer",
			"type": "error"
		},
		{
			"inputs": [
				{
					"internalType": "uint256",
					"name": "amount",
					"type": "uint256"
				},
				{
					"internalType": "uint256",
					"name": "minimumAmount",
					"type": "uint256"
				}
			],
			"name": "JBSucker_QueueInsufficientSize",
			"type": "error"
		},
		{
			"inputs": [
				{
					"internalType": "address",
					"name": "localToken",
					"type": "address"
				},
				{
					"internalType": "address",
					"name": "mappedTo",
					"type": "address"
				}
			],
			"name": "JBSucker_TokenAlreadyMapped",
			"type": "error"
		},
		{
			"inputs": [
				{
					"internalType": "address",
					"name": "token",
					"type": "address"
				}
			],
			"name": "JBSucker_TokenHasInvalidEmergencyHatchState",
			"type": "error"
		},
		{
			"inputs": [
				{
					"internalType": "address",
					"name": "token",
					"type": "address"
				}
			],
			"name": "JBSucker_TokenNotMapped",
			"type": "error"
		},
		{
			"inputs": [
				{
					"internalType": "uint256",
					"name": "value",
					"type": "uint256"
				}
			],
			"name": "JBSucker_UnexpectedMsgValue",
			"type": "error"
		},
		{
			"inputs": [],
			"name": "JBSucker_ZeroBeneficiary",
			"type": "error"
		},
		{
			"inputs": [],
			"name": "JBSucker_ZeroERC20Token",
			"type": "error"
		},
		{
			"inputs": [],
			"name": "MerkleLib__insert_treeIsFull",
			"type": "error"
		},
		{
			"inputs": [],
			"name": "NotInitializing",
			"type": "error"
		},
		{
			"inputs": [
				{
					"internalType": "address",
					"name": "token",
					"type": "address"
				}
			],
			"name": "SafeERC20FailedOperation",
			"type": "error"
		}
	],
	"args": [],
	"solcInputHash": "2132bc8e44329fb92ecedb0fd2e42b21",
	"bytecode": "0x6101a06040523480156200001257600080fd5b50604051620064fa380380620064fa833981016040819052620000359162000305565b6001600160a01b0380821660805280841660a052808616610100528416610120523360e05284838584848160018111156200007457620000746200039c565b60c08160018111156200008b576200008b6200039c565b905250620000986200023b565b5050505050856001600160a01b03166363a49dc36040518163ffffffff1660e01b8152600401602060405180830381865afa158015620000dc573d6000803e3d6000fd5b505050506040513d601f19601f82011682018060405250810190620001029190620003b2565b6101608181525050856001600160a01b031663d86161876040518163ffffffff1660e01b8152600401602060405180830381865afa15801562000149573d6000803e3d6000fd5b505050506040513d601f19601f820116820180604052508101906200016f9190620003cc565b6001600160401b0316610180816001600160401b031681525050856001600160a01b0316630de229846040518163ffffffff1660e01b8152600401602060405180830381865afa158015620001c8573d6000803e3d6000fd5b505050506040513d601f19601f82011682018060405250810190620001ee9190620003fe565b6001600160a01b03166101408190526200022f5761014051604051636e1f4ccd60e01b81526001600160a01b03909116600482015260240160405180910390fd5b5050505050506200041e565b7ff0c57e16840df040f15088dc2f81fe391c3923bec73e23a9662efc9c229c6a00805468010000000000000000900460ff16156200028c5760405163f92ee8a960e01b815260040160405180910390fd5b80546001600160401b0390811614620002ec5780546001600160401b0319166001600160401b0390811782556040519081527fc7f505b2f371ae2175ee4913f4499e1f2633a7b5936321eed1cdaeb6115181d29060200160405180910390a15b50565b6001600160a01b0381168114620002ec57600080fd5b60008060008060008060c087890312156200031f57600080fd5b86516200032c81620002ef565b60208801519096506200033f81620002ef565b60408801519095506200035281620002ef565b60608801519094506200036581620002ef565b6080880151909350600281106200037b57600080fd5b60a08801519092506200038e81620002ef565b809150509295509295509295565b634e487b7160e01b600052602160045260246000fd5b600060208284031215620003c557600080fd5b5051919050565b600060208284031215620003df57600080fd5b81516001600160401b0381168114620003f757600080fd5b9392505050565b6000602082840312156200041157600080fd5b8151620003f781620002ef565b60805160a05160c05160e0516101005161012051610140516101605161018051615fc362000537600039600081816102a60152818161156901528181614e330152614f6e01526000818161053a01526108c001526000818161075e0152818161094a015281816114c901528181614b6c01528181614e0601528181614eea0152614f3f01526000818161033c0152610bd00152600081816106f601528181610e45015281816112810152818161203401528181612230015281816126dd0152612bef0152600061084e015260008181610882015281816110160152818161104d015281816118820152611fb80152600081816108f60152612a8901526000818161040c0152818161056b01526148190152615fc36000f3fe6080604052600436106102535760003560e01c80637de6fba211610138578063bf557aee116100b0578063c6525f2c1161007f578063f434c91411610064578063f434c914146108e4578063fe4b84df14610918578063fe5f42ca1461093857600080fd5b8063c6525f2c14610870578063cdfceeba146108b157600080fd5b8063bf557aee146107b5578063c1854129146107fa578063c19d93fb1461081a578063c1b8411a1461083c57600080fd5b806392ee1ea711610107578063b0f479a1116100ec578063b0f479a11461074f578063b59ef50f14610782578063b71c1179146107a257600080fd5b806392ee1ea7146107185780639e6d7d431461072f57600080fd5b80637de6fba21461058f578063802c8fa01461069757806385572ffb146106c457806388bc2ef3146106e457600080fd5b8063551ebbf0116101cb57806369d31fdd1161019a578063754515591161017f57806375451559146105085780637d1d0c5b146105285780637da0a8771461055c57600080fd5b806369d31fdd1461047c5780636d9e384b1461048f57600080fd5b8063551ebbf0146103cf578063572b6c05146103ef5780636284386a1461043c57806369ce22331461045c57600080fd5b80631d831d5c1161022257806338eb20441161020757806338eb2044146103715780633a5de07d146103845780633fafa127146103b057600080fd5b80631d831d5c1461032a5780632241dc521461035e57600080fd5b806301ffc9a71461025f57806305696511146102945780630f648214146102e157806311cda4151461030357600080fd5b3661025a57005b600080fd5b34801561026b57600080fd5b5061027f61027a3660046154c3565b61096c565b60405190151581526020015b60405180910390f35b3480156102a057600080fd5b506102c87f000000000000000000000000000000000000000000000000000000000000000081565b60405167ffffffffffffffff909116815260200161028b565b3480156102ed57600080fd5b506103016102fc366004615505565b6109c8565b005b34801561030f57600080fd5b50305b6040516001600160a01b03909116815260200161028b565b34801561033657600080fd5b506103127f000000000000000000000000000000000000000000000000000000000000000081565b61030161036c36600461551e565b610a7f565b61030161037f3660046155a5565b610b82565b34801561039057600080fd5b5061039b62030d4081565b60405163ffffffff909116815260200161028b565b3480156103bc57600080fd5b506001545b60405190815260200161028b565b3480156103db57600080fd5b506103016103ea3660046155d6565b610b8c565b3480156103fb57600080fd5b5061027f61040a366004615620565b7f00000000000000000000000000000000000000000000000000000000000000006001600160a01b0390811691161490565b34801561044857600080fd5b5061030161045736600461563d565b610dbf565b34801561046857600080fd5b50610301610477366004615620565b611012565b61030161048a3660046155a5565b6110b1565b34801561049b57600080fd5b506104fb6104aa366004615620565b6040805180820190915260008082526020820152506001600160a01b03166000908152600360209081526040918290208251808401909352805467ffffffffffffffff168352600101549082015290565b60405161028b9190615664565b34801561051457600080fd5b50610301610523366004615685565b61126f565b34801561053457600080fd5b506103c17f000000000000000000000000000000000000000000000000000000000000000081565b34801561056857600080fd5b507f0000000000000000000000000000000000000000000000000000000000000000610312565b34801561059b57600080fd5b506106426105aa366004615620565b6040805160a0808201835260008083526020808401829052838501829052606080850183905260809485018390526001600160a01b039687168352600582529185902085519384018652805460ff8082161515865261010082041615159285019290925262010000820463ffffffff169584019590955266010000000000009004909416938101939093526001909101549082015290565b60405161028b9190600060a08201905082511515825260208301511515602083015263ffffffff60408401511660408301526001600160a01b0360608401511660608301526080830151608083015292915050565b3480156106a357600080fd5b506106b76106b2366004615620565b611427565b60405161028b91906156e8565b3480156106d057600080fd5b506103016106df36600461574f565b6114c7565b3480156106f057600080fd5b506103127f000000000000000000000000000000000000000000000000000000000000000081565b34801561072457600080fd5b5061039b620493e081565b34801561073b57600080fd5b506103c161074a366004615620565b6117c9565b34801561075b57600080fd5b507f0000000000000000000000000000000000000000000000000000000000000000610312565b34801561078e57600080fd5b5061030161079d366004615505565b6117f9565b6103016107b0366004615620565b61191f565b3480156107c157600080fd5b5061027f6107d0366004615620565b6001600160a01b039081166000908152600560205260409020546601000000000000900416151590565b34801561080657600080fd5b5061030161081536600461578a565b611a62565b34801561082657600080fd5b5061082f611a9b565b60405161028b9190615804565b34801561084857600080fd5b506103127f000000000000000000000000000000000000000000000000000000000000000081565b34801561087c57600080fd5b506108a47f000000000000000000000000000000000000000000000000000000000000000081565b60405161028b919061581e565b3480156108bd57600080fd5b507f00000000000000000000000000000000000000000000000000000000000000006103c1565b3480156108f057600080fd5b506103127f000000000000000000000000000000000000000000000000000000000000000081565b34801561092457600080fd5b50610301610933366004615832565b611ae2565b34801561094457600080fd5b506103127f000000000000000000000000000000000000000000000000000000000000000081565b60007fffffffff0000000000000000000000000000000000000000000000000000000082167f85572ffb0000000000000000000000000000000000000000000000000000000014806109c257506109c282611c5e565b92915050565b610a0060608201356109dd6020840184615620565b60808401356109f26060860160408701615620565b602086013560a08701611d8d565b608081013560046000610a166020850185615620565b6001600160a01b03166001600160a01b031681526020019081526020016000206001016000828254610a489190615861565b90915550610a7c9050610a5e6020830183615620565b608083013560608401803590610a779060408701615620565b611fb4565b50565b6000805b82811015610b2f576000848483818110610a9f57610a9f615874565b9050608002016040016020810190610ab79190615620565b6001600160a01b0316148015610b14575060046000858584818110610ade57610ade615874565b610af49260206080909202019081019150615620565b6001600160a01b0316815260208101919091526040016000206001015415155b15610b275781610b238161588a565b9250505b600101610a83565b5060005b82811015610b7c57610b74848483818110610b5057610b50615874565b90506080020160008411610b65576000612151565b610b6f84346158a4565b612151565b600101610b33565b50505050565b610a7c8134612151565b6001600160a01b038316610bcc576040517f8d3329cd00000000000000000000000000000000000000000000000000000000815260040160405180910390fd5b60007f00000000000000000000000000000000000000000000000000000000000000006001600160a01b031663ea78803f610c0660015490565b6040518263ffffffff1660e01b8152600401610c2491815260200190565b602060405180830381865afa158015610c41573d6000803e3d6000fd5b505050506040513d601f19601f82011682018060405250810190610c6591906158c6565b90506001600160a01b038116610ca7576040517fcaa06d2000000000000000000000000000000000000000000000000000000000815260040160405180910390fd5b6001600160a01b03821660009081526005602052604090205460ff16610d09576040517f04fdbe060000000000000000000000000000000000000000000000000000000081526001600160a01b03831660048201526024015b60405180910390fd5b6000610d13611a9b565b90506003816003811115610d2957610d296157ee565b1480610d4657506002816003811115610d4457610d446157ee565b145b15610d7d576040517fb10f8cca00000000000000000000000000000000000000000000000000000000815260040160405180910390fd5b610d9a610d88612601565b6001600160a01b038416903089612610565b6000610da88388868861268c565b9050610db68785838961287a565b50505050505050565b6000610dc9611a9b565b90506003816003811115610ddf57610ddf6157ee565b1480610dfc57506002816003811115610dfa57610dfa6157ee565b145b15610e33576040517fb10f8cca00000000000000000000000000000000000000000000000000000000815260040160405180910390fd5b6000610e3e60015490565b9050610f3b7f00000000000000000000000000000000000000000000000000000000000000006001600160a01b031663293c49996040518163ffffffff1660e01b8152600401602060405180830381865afa158015610ea1573d6000803e3d6000fd5b505050506040513d601f19601f82011682018060405250810190610ec591906158c6565b6001600160a01b0316636352211e836040518263ffffffff1660e01b8152600401610ef291815260200190565b602060405180830381865afa158015610f0f573d6000803e3d6000fd5b505050506040513d601f19601f82011682018060405250810190610f3391906158c6565b82601e612a04565b6000610f4a62127500426158e3565b905064ffffffffff841615801590610f685750808464ffffffffff16105b15610faf576040517f044691ac00000000000000000000000000000000000000000000000000000000815264ffffffffff8516600482015260248101829052604401610d00565b64ffffffffff84166000557f455efa76af2a8686dc0dd3041bda89ece5ba4691277d525e2161003bbca8b24584610fe4612601565b6040805164ffffffffff90931683526001600160a01b0390911660208301520160405180910390a150505050565b60007f00000000000000000000000000000000000000000000000000000000000000006001811115611046576110466157ee565b1461109f577f00000000000000000000000000000000000000000000000000000000000000006040517fb039c395000000000000000000000000000000000000000000000000000000008152600401610d00919061581e565b610a7c816110ac836117c9565b612b4e565b6110ca6110bc612601565b6001600160a01b0316301490565b611114576110d6612601565b6040517f36183c8f0000000000000000000000000000000000000000000000000000000081526001600160a01b039091166004820152602401610d00565b60006003816111266020850185615620565b6001600160a01b0316815260208101919091526040908101600020805490925067ffffffffffffffff16906111619060608501908501615913565b67ffffffffffffffff161180156111915750600361117d611a9b565b600381111561118e5761118e6157ee565b14155b1561126b576111a66060830160408401615913565b81547fffffffffffffffffffffffffffffffffffffffffffffffff00000000000000001667ffffffffffffffff91909116178155606082013560018201556111f16020830183615620565b6001600160a01b03167fc69d3412489554fb7820c4c2784cb644b6c79bfc117444b93977d3d33a9b8eac61122b6060850160408601615913565b6060850135611238612601565b6040805167ffffffffffffffff909416845260208401929092526001600160a01b03169082015260600160405180910390a25b5050565b600061127a60015490565b90506112dd7f00000000000000000000000000000000000000000000000000000000000000006001600160a01b031663293c49996040518163ffffffff1660e01b8152600401602060405180830381865afa158015610ea1573d6000803e3d6000fd5b60005b828110156113df5760006005600086868581811061130057611300615874565b90506020020160208101906113159190615620565b6001600160a01b031681526020810191909152604001600090812080547fffffffffffffffffffffffffffffffffffffffffffffffffffffffffffffff00169215159290921790915560019060059086868581811061137657611376615874565b905060200201602081019061138b9190615620565b6001600160a01b0316815260208101919091526040016000208054911515610100027fffffffffffffffffffffffffffffffffffffffffffffffffffffffffffff00ff9092169190911790556001016112e0565b507f8021bce60b20a9afb57085869a3552e0ee5b272b868df894fb30c5e90e74c072838361140b612601565b60405161141a9392919061592e565b60405180910390a1505050565b61142f615412565b6001600160a01b0382166000908152600460209081526040918290208251608081018452815467ffffffffffffffff1681526001820154818401528351610440810180865291949293858401939192600286019284929083019184919082845b81548152602001906001019080831161148f575050509183525050602091820154908201529082526023929092015491015292915050565b7f00000000000000000000000000000000000000000000000000000000000000006001600160a01b03166114f9612601565b6001600160a01b03161461150f576110d6612601565b600061151e606083018361598e565b81019061152b9190615a31565b9050600061153c604084018461598e565b8101906115499190615620565b90506001600160a01b038116301415806115a6575067ffffffffffffffff7f0000000000000000000000000000000000000000000000000000000000000000166115996040850160208601615913565b67ffffffffffffffff1614155b156115e8576040517f36183c8f0000000000000000000000000000000000000000000000000000000081526001600160a01b0382166004820152602401610d00565b6115f56080840184615aee565b90506001146116425761160b6080840184615aee565b6040517fa24a8b94000000000000000000000000000000000000000000000000000000008152610d00925060040190815260200190565b60006116516080850185615aee565b600081811061166257611662615874565b9050604002018036038101906116789190615b56565b905061eeee6001600160a01b031683600001516001600160a01b03160361175557805160006116a961eeee30612f47565b60208401516040517f2e1a7d4d0000000000000000000000000000000000000000000000000000000081529192506001600160a01b03841691632e1a7d4d916116f89160040190815260200190565b600060405180830381600087803b15801561171257600080fd5b505af1158015611726573d6000803e3d6000fd5b5050505061173661eeee30612f47565b602084015161174590836158e3565b1461175257611752615b90565b50505b6040517f69d31fdd00000000000000000000000000000000000000000000000000000000815230906369d31fdd90611791908690600401615ba6565b600060405180830381600087803b1580156117ab57600080fd5b505af11580156117bf573d6000803e3d6000fd5b5050505050505050565b6001600160a01b0381166000908152600460205260408120600101546117ef8330612f47565b6109c29190615861565b611831606082013561180e6020840184615620565b60808401356118236060860160408701615620565b602086013560a08701613014565b7faaca6f6829d340365b5e6599e0d513cbb4602b94f58ccf16ac77d8d3ae7139ef6118626060830160408401615620565b61186f6020840184615620565b60608401356080850135602086013560017f000000000000000000000000000000000000000000000000000000000000000060018111156118b2576118b26157ee565b146118be5760006118c1565b60015b6118c9612601565b604080516001600160a01b039889168152968816602088015286019490945260608501929092526080840152151560a083015290911660c082015260e00160405180910390a1610a7c610a5e6020830183615620565b6001600160a01b03808216600090815260056020908152604091829020825160a081018452815460ff808216151583526101008204161580159483019490945263ffffffff6201000082041694820194909452660100000000000090930490931660608301526001909201546080820152906119d2576040517f4bba81f00000000000000000000000000000000000000000000000000000000081526001600160a01b0383166004820152602401610d00565b60808101516001600160a01b0383166000908152600460205260409020600101541015611a57576001600160a01b03821660009081526004602081905260409182902060010154608084015192517fc3e11b79000000000000000000000000000000000000000000000000000000008152918201526024810191909152604401610d00565b61126b3483836130ea565b60005b81811015611a9657611a8e838383818110611a8257611a82615874565b90506104a002016117f9565b600101611a65565b505050565b60008054808203611aae57600091505090565b611abb6212750082615861565b421015611aca57600191505090565b80421015611ada57600291505090565b600391505090565b7ff0c57e16840df040f15088dc2f81fe391c3923bec73e23a9662efc9c229c6a00805468010000000000000000810460ff16159067ffffffffffffffff16600081158015611b2d5750825b905060008267ffffffffffffffff166001148015611b4a5750303b155b905081158015611b58575080155b15611b8f576040517ff92ee8a900000000000000000000000000000000000000000000000000000000815260040160405180910390fd5b84547fffffffffffffffffffffffffffffffffffffffffffffffff00000000000000001660011785558315611bf05784547fffffffffffffffffffffffffffffffffffffffffffffff00ffffffffffffffff16680100000000000000001785555b60018690558315611c565784547fffffffffffffffffffffffffffffffffffffffffffffff00ffffffffffffffff168555604051600181527fc7f505b2f371ae2175ee4913f4499e1f2633a7b5936321eed1cdaeb6115181d29060200160405180910390a15b505050505050565b60007fffffffff0000000000000000000000000000000000000000000000000000000082167f18a5af27000000000000000000000000000000000000000000000000000000001480611cf157507fffffffff0000000000000000000000000000000000000000000000000000000082167f4c74205e00000000000000000000000000000000000000000000000000000000145b80611d3d57507fffffffff0000000000000000000000000000000000000000000000000000000082167ff434c91400000000000000000000000000000000000000000000000000000000145b806109c257507f01ffc9a7000000000000000000000000000000000000000000000000000000007fffffffff000000000000000000000000000000000000000000000000000000008316146109c2565b6000611d97611a9b565b90506003816003811115611dad57611dad6157ee565b14158015611dcd57506002816003811115611dca57611dca6157ee565b14155b8015611df757506001600160a01b038616600090815260056020526040902054610100900460ff16155b15611e39576040517f4bba81f00000000000000000000000000000000000000000000000000000000081526001600160a01b0387166004820152602401610d00565b6001600160a01b0386166000908152600460205260409020602381015415801590611e7457508360018260230154611e719190615861565b10155b15611ebd576040517fa4e6bcec0000000000000000000000000000000000000000000000000000000081526001600160a01b038816600482015260248101859052604401610d00565b604080516001600160a01b03891660208201526000910160408051808303601f19018152918152815160209283012060601c60008181526002845282812060088a901c8252909352912054909150600160ff87161b1615611f5c576040517fa4e6bcec0000000000000000000000000000000000000000000000000000000081526001600160a01b038916600482015260248101869052604401610d00565b6001600160a01b03908116600090815260026020818152604080842060088a901c855282528084208054600160ff8c161b179055938b168352600490529190206117bf91611faa910161330a565b89888888886146c0565b60017f00000000000000000000000000000000000000000000000000000000000000006001811115611fe857611fe86157ee565b03611ff757611ff78484612b4e565b600061200260015490565b6040517f5dd8f6aa000000000000000000000000000000000000000000000000000000008152600481018290529091507f00000000000000000000000000000000000000000000000000000000000000006001600160a01b031690635dd8f6aa90602401602060405180830381865afa158015612083573d6000803e3d6000fd5b505050506040513d601f19601f820116820180604052508101906120a791906158c6565b6040517fc7fb92de00000000000000000000000000000000000000000000000000000000815260048101839052602481018590526001600160a01b03848116604483015260a06064830152600060a483018190526084830152919091169063c7fb92de9060c4016020604051808303816000875af115801561212d573d6000803e3d6000fd5b505050506040513d601f19601f82011682018060405250810190611c569190615bf2565b60006121606020840184615620565b6001600160a01b03808216600090815260056020908152604091829020825160a081018452815460ff808216151583526101008204161580159483019490945263ffffffff6201000082041694820194909452660100000000000090930490931660608301526001909201546080820152919250612215576040517f4bba81f00000000000000000000000000000000000000000000000000000000081526001600160a01b0383166004820152602401610d00565b61221e84614772565b600061222960015490565b90506123267f00000000000000000000000000000000000000000000000000000000000000006001600160a01b031663293c49996040518163ffffffff1660e01b8152600401602060405180830381865afa15801561228c573d6000803e3d6000fd5b505050506040513d601f19601f820116820180604052508101906122b091906158c6565b6001600160a01b0316636352211e836040518263ffffffff1660e01b81526004016122dd91815260200190565b602060405180830381865afa1580156122fa573d6000803e3d6000fd5b505050506040513d601f19601f8201168201806040525081019061231e91906158c6565b82601c612a04565b60608201516001600160a01b031615801590612367575061234d6060860160408701615620565b6001600160a01b031682606001516001600160a01b031614155b801561238c575060006123806060870160408801615620565b6001600160a01b031614155b80156123b257506001600160a01b03831660009081526004602052604090206022015415155b156124025760608201516040517f1460b5460000000000000000000000000000000000000000000000000000000081526001600160a01b0380861660048301529091166024820152604401610d00565b60006124146060870160408801615620565b6001600160a01b031614801561244457506001600160a01b03831660009081526004602052604090206001015415155b15612454576124548484846130ea565b6040518060a0016040528060006001600160a01b031687604001602081019061247d9190615620565b6001600160a01b03161415151581526020016000151581526020018660200160208101906124ab9190615c0b565b63ffffffff16815260200160006124c86060890160408a01615620565b6001600160a01b0316146124eb576124e66060880160408901615620565b6124f1565b83606001515b6001600160a01b039081168252606097880135602092830152948516600090815260058252604090819020835181549385015192850151998501517fffffffffffffffffffffffffffffffffffffffffffffffffffffffffffff00009094169015157fffffffffffffffffffffffffffffffffffffffffffffffffffffffffffff00ff161761010092151592909202919091177fffffffffffff000000000000000000000000000000000000000000000000ffff166201000063ffffffff909916989098027fffffffffffff0000000000000000000000000000000000000000ffffffffffff16979097176601000000000000919095160293909317855550506080015160019092019190915550565b600061260b614809565b905090565b6040516001600160a01b038481166024830152838116604483015260648201839052610b7c9186918216906323b872dd906084015b604051602081830303815290604052915060e01b6020820180517bffffffffffffffffffffffffffffffffffffffffffffffffffffffff838183161783525050505061487e565b60008061269860015490565b6040517f86202650000000000000000000000000000000000000000000000000000000008152600481018290526001600160a01b0386811660248301529192506000917f00000000000000000000000000000000000000000000000000000000000000001690638620265090604401602060405180830381865afa158015612724573d6000803e3d6000fd5b505050506040513d601f19601f8201168201806040525081019061274891906158c6565b90506001600160a01b03811661279c576040517fb61c181f000000000000000000000000000000000000000000000000000000008152600481018390526001600160a01b0386166024820152604401610d00565b60006127a88630612f47565b604080516020810182526000815290517f13da83170000000000000000000000000000000000000000000000000000000081529192506001600160a01b038416916313da83179161280791309188918d918d918d918691600401615c77565b6020604051808303816000875af1158015612826573d6000803e3d6000fd5b505050506040513d601f19601f8201168201806040525081019061284a9190615bf2565b9350806128578730612f47565b6128619190615861565b841461286f5761286f615b90565b505050949350505050565b6040805160208082018790528183018590526001600160a01b03841660608084019190915283518084039091018152608090920190925280519101206000906001600160a01b03851660009081526004602090815260408083208151610440810180845295965090946129239387936002880192849291830191849182845b8154815260200190600101908083116128f957505050918352505060209182015491015290614908565b80519091508190600284019061293c908290602061543e565b50602082015181602001559050508482600101600082825461295e91906158e3565b92505081905550856001600160a01b0316846001600160a01b03167f584a41ff082fad99bb6e50c5767c347c762057fe5726539f0a8de49d84549c2385600185602001516129ac9190615861565b6129b88760020161330a565b8c8b6129c2612601565b60408051968752602087019590955293850192909252606084015260808301526001600160a01b031660a082015260c00160405180910390a350505050505050565b6000612a0e612601565b9050836001600160a01b0316816001600160a01b031614158015612af657506040517f348b684e0000000000000000000000000000000000000000000000000000000081526001600160a01b0382811660048301528581166024830152604482018590526064820184905260016084830181905260a48301527f0000000000000000000000000000000000000000000000000000000000000000169063348b684e9060c401602060405180830381865afa158015612ad0573d6000803e3d6000fd5b505050506040513d601f19601f82011682018060405250810190612af49190615cca565b155b15610b7c576040517f264deeaa0000000000000000000000000000000000000000000000000000000081526001600160a01b038086166004830152821660248201526044810184905260648101839052608401610d00565b6000612b59836117c9565b905080821115612b9f576040517f60ec3e710000000000000000000000000000000000000000000000000000000081526004810183905260248101829052604401610d00565b6000612baa60015490565b6040517f86202650000000000000000000000000000000000000000000000000000000008152600481018290526001600160a01b0386811660248301529192506000917f00000000000000000000000000000000000000000000000000000000000000001690638620265090604401602060405180830381865afa158015612c36573d6000803e3d6000fd5b505050506040513d601f19601f82011682018060405250810190612c5a91906158c6565b90506001600160a01b038116612cae576040517fb61c181f000000000000000000000000000000000000000000000000000000008152600481018390526001600160a01b0386166024820152604401610d00565b6001600160a01b03851661eeee14612e97576040517f70a082310000000000000000000000000000000000000000000000000000000081523060048201526000906001600160a01b038716906370a0823190602401602060405180830381865afa158015612d20573d6000803e3d6000fd5b505050506040513d601f19601f82011682018060405250810190612d449190615bf2565b9050612d51868387614a40565b6040517f9e6eec05000000000000000000000000000000000000000000000000000000008152600481018490526001600160a01b0387811660248301526044820187905260006064830181905260c0608484015260c4830181905260e060a484015260e4830152831690639e6eec059061010401600060405180830381600087803b158015612ddf57600080fd5b505af1158015612df3573d6000803e3d6000fd5b505050508481612e039190615861565b6040517f70a082310000000000000000000000000000000000000000000000000000000081523060048201526001600160a01b038816906370a0823190602401602060405180830381865afa158015612e60573d6000803e3d6000fd5b505050506040513d601f19601f82011682018060405250810190612e849190615bf2565b14612e9157612e91615b90565b50612f40565b6040517f9e6eec05000000000000000000000000000000000000000000000000000000008152600481018390526001600160a01b0386811660248301526044820186905260006064830181905260c0608484015260c4830181905260e060a484015260e4830152821690639e6eec05908690610104016000604051808303818588803b158015612f2657600080fd5b505af1158015612f3a573d6000803e3d6000fd5b50505050505b5050505050565b60007fffffffffffffffffffffffffffffffffffffffffffffffffffffffffffff11126001600160a01b03841601612f8a57506001600160a01b038116316109c2565b6040517f70a082310000000000000000000000000000000000000000000000000000000081526001600160a01b0383811660048301528416906370a0823190602401602060405180830381865afa158015612fe9573d6000803e3d6000fd5b505050506040513d601f19601f8201168201806040525081019061300d9190615bf2565b9392505050565b6001600160a01b0385166000908152600260209081526040808320600886901c8452909152902054600160ff84161b161561308d576040517fa4e6bcec0000000000000000000000000000000000000000000000000000000081526001600160a01b038616600482015260248101839052604401610d00565b6001600160a01b0385166000908152600260209081526040808320600886901c845290915290208054600160ff85161b1790556001600160a01b038516600090815260036020526040902060010154611c569087868686866146c0565b60608101516001600160a01b0316613139576040517f04fdbe060000000000000000000000000000000000000000000000000000000081526001600160a01b0383166004820152602401610d00565b6000613143611a9b565b90506003816003811115613159576131596157ee565b148061317657506002816003811115613174576131746157ee565b145b156131ad576040517fb10f8cca00000000000000000000000000000000000000000000000000000000815260040160405180910390fd5b6001600160a01b038316600090815260046020526040812060018101805490839055815491929091839082906131ec9067ffffffffffffffff16615cec565b91906101000a81548167ffffffffffffffff021916908367ffffffffffffffff1602179055905060006132218460020161330a565b602285015460238601819055909150600061323d600183615861565b9050886001600160a01b0316837f47c5615513b0f669da2dd7e3362a34610ca2695d0a0e2da2160cee952eab203c8387613275612601565b6040805193845267ffffffffffffffff90921660208401526001600160a01b03169082015260600160405180910390a3600060405180606001604052808a606001516001600160a01b0316815260200187815260200160405180604001604052808867ffffffffffffffff1681526020018781525081525090506132fd8b838c898d86614afe565b5050505050505050505050565b602081015460009080820361334157507f27ae5ba08d7291c96c8cbddcc148bf48a6d68c7974b94356f53754ef6171d75792915050565b6000836001831615613363578054600052600060205260406000209350613c16565b60028316156133a85760018101546000527fad3228b676f7d3cd4284a5443f17f1962b36e491b30a40b2405849e597ba5fb56020526040600020935060019150613c16565b60048316156133ed5760028101546000527fb4c11951957c6f8f642c4af61cd6b24640fec6dc7fc607ee8206a99e92410d306020526040600020935060029150613c16565b60088316156134325760038101546000527f21ddb9a356815c3fac1026b6dec5df3124afbadb485c9ba5a3e3398a04b7ba856020526040600020935060039150613c16565b60108316156134775760048101546000527fe58769b32a1beaf1ea27375a44095a0d1fb664ce2dd358e7fcbfb78c26a193446020526040600020935060049150613c16565b60208316156134bc5760058101546000527f0eb01ebfc9ed27500cd4dfc979272d1f0913cc9f66540d7e8005811109e1cf2d6020526040600020935060059150613c16565b60408316156135015760068101546000527f887c22bd8750d34016ac3c66b5ff102dacdd73f6b014e710b51e8022af9a19686020526040600020935060069150613c16565b60808316156135465760078101546000527fffd70157e48063fc33c97a050f7f640233bf646cc98d9524c6b92bcf3ab56f836020526040600020935060079150613c16565b61010083161561358c5760088101546000527f9867cc5f7f196b93bae1e27e6320742445d290f2263827498b54fec539f756af6020526040600020935060089150613c16565b6102008316156135d25760098101546000527fcefad4e508c098b9a7e1d8feb19955fb02ba9675585078710969d3440f5054e06020526040600020935060099150613c16565b61040083161561361857600a8101546000527ff9dc3e7fe016e050eff260334f18a5d4fe391d82092319f5964f2e2eb7c1c3a560205260406000209350600a9150613c16565b61080083161561365e57600b8101546000527ff8b13a49e282f609c317a833fb8d976d11517c571d1221a265d25af778ecf89260205260406000209350600b9150613c16565b6110008316156136a457600c8101546000527f3490c6ceeb450aecdc82e28293031d10c7d73bf85e57bf041a97360aa2c5d99c60205260406000209350600c9150613c16565b6120008316156136ea57600d8101546000527fc1df82d9c4b87413eae2ef048f94b4d3554cea73d92b0f7af96e0271c691e2bb60205260406000209350600d9150613c16565b61400083161561373057600e8101546000527f5c67add7c6caf302256adedf7ab114da0acfe870d449a3a489f781d659e8becc60205260406000209350600e9150613c16565b61800083161561377657600f8101546000527fda7bce9f4e8618b6bd2f4132ce798cdc7a60e7e1460a7299e3c6342a579626d260205260406000209350600f9150613c16565b620100008316156137bd5760108101546000527f2733e50f526ec2fa19a22b31e8ed50f23cd1fdf94c9154ed3a7609a2f1ff981f6020526040600020935060109150613c16565b620200008316156138045760118101546000527fe1d3b5c807b281e4683cc6d6315cf95b9ade8641defcb32372f1c126e398ef7a6020526040600020935060119150613c16565b6204000083161561384b5760128101546000527f5a2dce0a8a7f68bb74560f8f71837c2c2ebbcbf7fffb42ae1896f13f7c7479a06020526040600020935060129150613c16565b620800008316156138925760138101546000527fb46a28b6f55540f89444f63de0378e3d121be09e06cc9ded1c20e65876d36aa06020526040600020935060139150613c16565b621000008316156138d95760148101546000527fc65e9645644786b620e2dd2ad648ddfcbf4a7e5b1a3a4ecfe7f64667a3f0b7e26020526040600020935060149150613c16565b622000008316156139205760158101546000527ff4418588ed35a2458cffeb39b93d26f18d2ab13bdce6aee58e7b99359ec2dfd96020526040600020935060159150613c16565b624000008316156139675760168101546000527f5a9c16dc00d6ef18b7933a6f8dc65ccb55667138776f7dea101070dc8796e3776020526040600020935060169150613c16565b628000008316156139ae5760178101546000527f4df84f40ae0c8229d0d6069e5c8f39a7c299677a09d367fc7b05e3bc380ee6526020526040600020935060179150613c16565b63010000008316156139f65760188101546000527fcdc72595f74c7b1043d0e1ffbab734648c838dfb0527d971b602bc216c9619ef6020526040600020935060189150613c16565b6302000000831615613a3e5760198101546000527f0abf5ac974a1ed57f4050aa510dd9c74f508277b39d7973bb2dfccc5eeb0618d6020526040600020935060199150613c16565b6304000000831615613a8657601a8101546000527fb8cd74046ff337f0a7bf2c8e03e10f642c1886798d71806ab1e888d9e5ee87d060205260406000209350601a9150613c16565b6308000000831615613ace57601b8101546000527f838c5655cb21c6cb83313b5a631175dff4963772cce9108188b34ac87c81c41e60205260406000209350601b9150613c16565b6310000000831615613b1657601c8101546000527f662ee4dd2dd7b2bc707961b1e646c4047669dcb6584f0d8d770daf5d7e7deb2e60205260406000209350601c9150613c16565b6320000000831615613b5e57601d8101546000527f388ab20e2573d171a88108e79d820e98f26c0b84aa8b2f4aa4968dbb818ea32260205260406000209350601d9150613c16565b6340000000831615613ba657601e8101546000527f93237c50ba75ee485f4c22adf2f741400bdf8d6a9cc7df7ecae576221665d73560205260406000209350601e9150613c16565b6380000000831615613bee57601f8101546000527f8448818bb4ae4562849e949e17ac16e0be16688e156b5cf15e098c627c0056a960205260406000209350601f9150613c16565b7f27ae5ba08d7291c96c8cbddcc148bf48a6d68c7974b94356f53754ef6171d7579350602091505b601e82116146b8576001821015613c7457600283168015613c4257600182015460005284602052613c6b565b846000527fad3228b676f7d3cd4284a5443f17f1962b36e491b30a40b2405849e597ba5fb56020525b50604060002093505b6002821015613cca57600483168015613c9857600282015460005284602052613cc1565b846000527fb4c11951957c6f8f642c4af61cd6b24640fec6dc7fc607ee8206a99e92410d306020525b50604060002093505b6003821015613d2057600883168015613cee57600382015460005284602052613d17565b846000527f21ddb9a356815c3fac1026b6dec5df3124afbadb485c9ba5a3e3398a04b7ba856020525b50604060002093505b6004821015613d7657601083168015613d4457600482015460005284602052613d6d565b846000527fe58769b32a1beaf1ea27375a44095a0d1fb664ce2dd358e7fcbfb78c26a193446020525b50604060002093505b6005821015613dcc57602083168015613d9a57600582015460005284602052613dc3565b846000527f0eb01ebfc9ed27500cd4dfc979272d1f0913cc9f66540d7e8005811109e1cf2d6020525b50604060002093505b6006821015613e2257604083168015613df057600682015460005284602052613e19565b846000527f887c22bd8750d34016ac3c66b5ff102dacdd73f6b014e710b51e8022af9a19686020525b50604060002093505b6007821015613e7857608083168015613e4657600782015460005284602052613e6f565b846000527fffd70157e48063fc33c97a050f7f640233bf646cc98d9524c6b92bcf3ab56f836020525b50604060002093505b6008821015613ecf5761010083168015613e9d57600882015460005284602052613ec6565b846000527f9867cc5f7f196b93bae1e27e6320742445d290f2263827498b54fec539f756af6020525b50604060002093505b6009821015613f265761020083168015613ef457600982015460005284602052613f1d565b846000527fcefad4e508c098b9a7e1d8feb19955fb02ba9675585078710969d3440f5054e06020525b50604060002093505b600a821015613f7d5761040083168015613f4b57600a82015460005284602052613f74565b846000527ff9dc3e7fe016e050eff260334f18a5d4fe391d82092319f5964f2e2eb7c1c3a56020525b50604060002093505b600b821015613fd45761080083168015613fa257600b82015460005284602052613fcb565b846000527ff8b13a49e282f609c317a833fb8d976d11517c571d1221a265d25af778ecf8926020525b50604060002093505b600c82101561402b5761100083168015613ff957600c82015460005284602052614022565b846000527f3490c6ceeb450aecdc82e28293031d10c7d73bf85e57bf041a97360aa2c5d99c6020525b50604060002093505b600d821015614082576120008316801561405057600d82015460005284602052614079565b846000527fc1df82d9c4b87413eae2ef048f94b4d3554cea73d92b0f7af96e0271c691e2bb6020525b50604060002093505b600e8210156140d957614000831680156140a757600e820154600052846020526140d0565b846000527f5c67add7c6caf302256adedf7ab114da0acfe870d449a3a489f781d659e8becc6020525b50604060002093505b600f82101561413057618000831680156140fe57600f82015460005284602052614127565b846000527fda7bce9f4e8618b6bd2f4132ce798cdc7a60e7e1460a7299e3c6342a579626d26020525b50604060002093505b60108210156141885762010000831680156141565760108201546000528460205261417f565b846000527f2733e50f526ec2fa19a22b31e8ed50f23cd1fdf94c9154ed3a7609a2f1ff981f6020525b50604060002093505b60118210156141e05762020000831680156141ae576011820154600052846020526141d7565b846000527fe1d3b5c807b281e4683cc6d6315cf95b9ade8641defcb32372f1c126e398ef7a6020525b50604060002093505b60128210156142385762040000831680156142065760128201546000528460205261422f565b846000527f5a2dce0a8a7f68bb74560f8f71837c2c2ebbcbf7fffb42ae1896f13f7c7479a06020525b50604060002093505b601382101561429057620800008316801561425e57601382015460005284602052614287565b846000527fb46a28b6f55540f89444f63de0378e3d121be09e06cc9ded1c20e65876d36aa06020525b50604060002093505b60148210156142e85762100000831680156142b6576014820154600052846020526142df565b846000527fc65e9645644786b620e2dd2ad648ddfcbf4a7e5b1a3a4ecfe7f64667a3f0b7e26020525b50604060002093505b601582101561434057622000008316801561430e57601582015460005284602052614337565b846000527ff4418588ed35a2458cffeb39b93d26f18d2ab13bdce6aee58e7b99359ec2dfd96020525b50604060002093505b60168210156143985762400000831680156143665760168201546000528460205261438f565b846000527f5a9c16dc00d6ef18b7933a6f8dc65ccb55667138776f7dea101070dc8796e3776020525b50604060002093505b60178210156143f05762800000831680156143be576017820154600052846020526143e7565b846000527f4df84f40ae0c8229d0d6069e5c8f39a7c299677a09d367fc7b05e3bc380ee6526020525b50604060002093505b60188210156144495763010000008316801561441757601882015460005284602052614440565b846000527fcdc72595f74c7b1043d0e1ffbab734648c838dfb0527d971b602bc216c9619ef6020525b50604060002093505b60198210156144a25763020000008316801561447057601982015460005284602052614499565b846000527f0abf5ac974a1ed57f4050aa510dd9c74f508277b39d7973bb2dfccc5eeb0618d6020525b50604060002093505b601a8210156144fb576304000000831680156144c957601a820154600052846020526144f2565b846000527fb8cd74046ff337f0a7bf2c8e03e10f642c1886798d71806ab1e888d9e5ee87d06020525b50604060002093505b601b8210156145545763080000008316801561452257601b8201546000528460205261454b565b846000527f838c5655cb21c6cb83313b5a631175dff4963772cce9108188b34ac87c81c41e6020525b50604060002093505b601c8210156145ad5763100000008316801561457b57601c820154600052846020526145a4565b846000527f662ee4dd2dd7b2bc707961b1e646c4047669dcb6584f0d8d770daf5d7e7deb2e6020525b50604060002093505b601d821015614606576320000000831680156145d457601d820154600052846020526145fd565b846000527f388ab20e2573d171a88108e79d820e98f26c0b84aa8b2f4aa4968dbb818ea3226020525b50604060002093505b601e82101561465f5763400000008316801561462d57601e82015460005284602052614656565b846000527f93237c50ba75ee485f4c22adf2f741400bdf8d6a9cc7df7ecae576221665d7356020525b50604060002093505b601f8210156146b85763800000008316801561468657601f820154600052846020526146af565b846000527f8448818bb4ae4562849e949e17ac16e0be16688e156b5cf15e098c627c0056a96020525b50604060002093505b505050919050565b6040805160208082018890528183018790526001600160a01b038616606080840191909152835180840390910181526080830180855281519183019190912061048090930190935260009261472e929185908282610400808284376000920191909152508791506150759050565b9050868114610db6576040517ee587d20000000000000000000000000000000000000000000000000000000081526004810182905260248101889052604401610d00565b62030d406147866040830160208401615c0b565b63ffffffff161080156147b0575061eeee6147a46020830183615620565b6001600160a01b031614155b15610a7c576147c56040820160208301615c0b565b6040517f555d0f1000000000000000000000000000000000000000000000000000000000815263ffffffff909116600482015262030d406024820152604401610d00565b6000366014336001600160a01b037f0000000000000000000000000000000000000000000000000000000000000000161480156148465750808210155b15614876576000366148588385615861565b614863928290615d13565b61486c91615d3d565b60601c9250505090565b339250505090565b600080602060008451602086016000885af1806148a1576040513d6000823e3d81fd5b50506000513d915081156148b95780600114156148c6565b6001600160a01b0384163b155b15610b7c576040517f5274afe70000000000000000000000000000000000000000000000000000000081526001600160a01b0385166004820152602401610d00565b61491061547c565b60008360200180516149219061588a565b908190529050600161493560206002615e69565b61493f9190615861565b811115614978576040517f8eab04bb00000000000000000000000000000000000000000000000000000000815260040160405180910390fd5b60005b6020811015614a0d57816001166001036149b4578451849082602081106149a4576149a4615874565b6020020152508391506109c29050565b845181602081106149c7576149c7615874565b6020020151846040516020016149e7929190918252602082015260400190565b60408051601f1981840301815291905280516020909101209350600191821c910161497b565b506040517f8eab04bb00000000000000000000000000000000000000000000000000000000815260040160405180910390fd5b604080516001600160a01b038416602482015260448082018490528251808303909101815260649091019091526020810180517bffffffffffffffffffffffffffffffffffffffffffffffffffffffff167f095ea7b300000000000000000000000000000000000000000000000000000000179052614abf84826153c3565b610b7c576040516001600160a01b03848116602483015260006044830152614af491869182169063095ea7b390606401612645565b610b7c848261487e565b85600003614b38576040517f3cb7b09b00000000000000000000000000000000000000000000000000000000815260040160405180910390fd5b7fffffffffffffffffffffffffffffffffffffffffffffffffffffffffffff11126001600160a01b03851601614c465760007f00000000000000000000000000000000000000000000000000000000000000006001600160a01b031663e861e9076040518163ffffffff1660e01b8152600401602060405180830381865afa158015614bc8573d6000803e3d6000fd5b505050506040513d601f19601f82011682018060405250810190614bec91906158c6565b9050806001600160a01b031663d0e30db0856040518263ffffffff1660e01b81526004016000604051808303818588803b158015614c2957600080fd5b505af1158015614c3d573d6000803e3d6000fd5b50939750505050505b604080516001808252818301909252600091816020015b6040805180820190915260008082526020820152815260200190600190039081614c5d5790505090506040518060400160405280866001600160a01b031681526020018581525081600081518110614cb757614cb7615874565b602002602001018190525060006040518060a00160405280614cd63090565b604080516001600160a01b03909216602083015201604051602081830303815290604052815260200184604051602001614d109190615ba6565b604051602081830303815290604052815260200183815260200160006001600160a01b03168152602001614dce60405180602001604052808860400151620493e0614d5b9190615e75565b63ffffffff16905260408051915160248084019190915281518084039091018152604490920190526020810180517bffffffffffffffffffffffffffffffffffffffffffffffffffffffff167f97a657c90000000000000000000000000000000000000000000000000000000017905290565b90526040517f20487ded0000000000000000000000000000000000000000000000000000000081529091506000906001600160a01b037f000000000000000000000000000000000000000000000000000000000000000016906320487ded90614e5d907f0000000000000000000000000000000000000000000000000000000000000000908690600401615e92565b602060405180830381865afa158015614e7a573d6000803e3d6000fd5b505050506040513d601f19601f82011682018060405250810190614e9e9190615bf2565b905088811115614ee4576040517f0ee99a47000000000000000000000000000000000000000000000000000000008152600481018a905260248101829052604401610d00565b614f0f877f000000000000000000000000000000000000000000000000000000000000000088614a40565b6040517f96f4e9f90000000000000000000000000000000000000000000000000000000081526001600160a01b037f000000000000000000000000000000000000000000000000000000000000000016906396f4e9f9908390614f98907f0000000000000000000000000000000000000000000000000000000000000000908790600401615e92565b60206040518083038185885af1158015614fb6573d6000803e3d6000fd5b50505050506040513d601f19601f82011682018060405250810190614fdb9190615bf2565b506000614fe6612601565b6001600160a01b0316614ff9838c615861565b604051600081818185875af1925050503d8060008114615035576040519150601f19603f3d011682016040523d82523d6000602084013e61503a565b606091505b5050905080612f3a576040517f97484b1000000000000000000000000000000000000000000000000000000000815260040160405180910390fd5b6020600582811b8216948552835194820394909452604060008181206002851615871b808503919091528386015190528181206004851615871b808503919091528286015190528181206008851615871b80850391909152606086015190528181206010851615871b8085039190915260808087015190915282822084861615881b8086039190915260a0870151905282822083861615881b8086039190915260c0870151905282822090851615871b8085039190915260e0860151905281812061010080861615881b80860392909252860151905281812061020080861615881b80860392909252610120870151909152828220610400861615881b808603919091526101408701519052828220610800861615881b808603919091526101608701519052828220611000861615881b808603919091526101808701519052828220612000861615881b808603919091526101a08701519052828220614000861615881b808603919091526101c08701519052828220618000861615881b808603919091526101e0870151905282822062010000861615881b8086039190915290860151905281812062020000851615871b80850391909152610220860151905281812062040000851615871b80850391909152610240860151905281812062080000851615871b80850391909152610260860151905281812062100000851615871b80850391909152610280860151905281812062200000851615871b808503919091526102a0860151905281812062400000851615871b808503919091526102c0860151905281812062800000851615871b808503919091526102e086015190528181206301000000851615871b8085039190915261030086015190528181206302000000851615871b8085039190915261032086015190528181206304000000851615871b8085039190915261034086015190528181206308000000851615871b8085039190915261036086015190528181206310000000851615871b8085039190915261038086015190528181206320000000851615871b808503919091526103a086015190528181206340000000851615871b808503919091526103c0860151905281812063800000009094161590951b91829003929092526103e090920151909152902090565b6000806000806020600086516020880160008a5af192503d91506000519050828015615408575081156153f95780600114615408565b6000866001600160a01b03163b115b9695505050505050565b604080516080810182526000808252602082015290810161543161547c565b8152602001600081525090565b826020810192821561546c579160200282015b8281111561546c578251825591602001919060010190615451565b5061547892915061548f565b5090565b60405180604001604052806154316154a4565b5b808211156154785760008155600101615490565b6040518061040001604052806020906020820280368337509192915050565b6000602082840312156154d557600080fd5b81357fffffffff000000000000000000000000000000000000000000000000000000008116811461300d57600080fd5b60006104a0828403121561551857600080fd5b50919050565b6000806020838503121561553157600080fd5b823567ffffffffffffffff8082111561554957600080fd5b818501915085601f83011261555d57600080fd5b81358181111561556c57600080fd5b8660208260071b850101111561558157600080fd5b60209290920196919550909350505050565b60006080828403121561551857600080fd5b6000608082840312156155b757600080fd5b61300d8383615593565b6001600160a01b0381168114610a7c57600080fd5b600080600080608085870312156155ec57600080fd5b8435935060208501356155fe816155c1565b9250604085013591506060850135615615816155c1565b939692955090935050565b60006020828403121561563257600080fd5b813561300d816155c1565b60006020828403121561564f57600080fd5b813564ffffffffff8116811461300d57600080fd5b815167ffffffffffffffff16815260208083015190820152604081016109c2565b6000806020838503121561569857600080fd5b823567ffffffffffffffff808211156156b057600080fd5b818501915085601f8301126156c457600080fd5b8135818111156156d357600080fd5b8660208260051b850101111561558157600080fd5b815167ffffffffffffffff1681526020808301518183015260408084015180516104808501939260009086015b84821015615733578251815291840191600191909101908401615715565b5050500151610440830152606092909201516104609091015290565b60006020828403121561576157600080fd5b813567ffffffffffffffff81111561577857600080fd5b820160a0818503121561300d57600080fd5b6000806020838503121561579d57600080fd5b823567ffffffffffffffff808211156157b557600080fd5b818501915085601f8301126157c957600080fd5b8135818111156157d857600080fd5b8660206104a08302850101111561558157600080fd5b634e487b7160e01b600052602160045260246000fd5b6020810160048310615818576158186157ee565b91905290565b6020810160028310615818576158186157ee565b60006020828403121561584457600080fd5b5035919050565b634e487b7160e01b600052601160045260246000fd5b818103818111156109c2576109c261584b565b634e487b7160e01b600052603260045260246000fd5b6000600019820361589d5761589d61584b565b5060010190565b6000826158c157634e487b7160e01b600052601260045260246000fd5b500490565b6000602082840312156158d857600080fd5b815161300d816155c1565b808201808211156109c2576109c261584b565b803567ffffffffffffffff8116811461590e57600080fd5b919050565b60006020828403121561592557600080fd5b61300d826158f6565b6040808252810183905260008460608301825b86811015615971578235615954816155c1565b6001600160a01b0316825260209283019290910190600101615941565b5080925050506001600160a01b0383166020830152949350505050565b60008083357fffffffffffffffffffffffffffffffffffffffffffffffffffffffffffffffe18436030181126159c357600080fd5b83018035915067ffffffffffffffff8211156159de57600080fd5b6020019150368190038213156159f357600080fd5b9250929050565b6040805190810167ffffffffffffffff81118282101715615a2b57634e487b7160e01b600052604160045260246000fd5b60405290565b60008183036080811215615a4457600080fd5b6040516060810181811067ffffffffffffffff82111715615a7557634e487b7160e01b600052604160045260246000fd5b6040528335615a83816155c1565b81526020848101359082015260407fffffffffffffffffffffffffffffffffffffffffffffffffffffffffffffffc083011215615abf57600080fd5b615ac76159fa565b9150615ad5604085016158f6565b8252606093909301356020820152604083015250919050565b60008083357fffffffffffffffffffffffffffffffffffffffffffffffffffffffffffffffe1843603018112615b2357600080fd5b83018035915067ffffffffffffffff821115615b3e57600080fd5b6020019150600681901b36038213156159f357600080fd5b600060408284031215615b6857600080fd5b615b706159fa565b8235615b7b816155c1565b81526020928301359281019290925250919050565b634e487b7160e01b600052600160045260246000fd5b60006080820190506001600160a01b038351168252602083015160208301526040830151615beb6040840182805167ffffffffffffffff168252602090810151910152565b5092915050565b600060208284031215615c0457600080fd5b5051919050565b600060208284031215615c1d57600080fd5b813563ffffffff8116811461300d57600080fd5b6000815180845260005b81811015615c5757602081850181015186830182015201615c3b565b506000602082860101526020601f19601f83011685010191505092915050565b60006001600160a01b03808a168352886020840152876040840152808716606084015285608084015280851660a08401525060e060c0830152615cbd60e0830184615c31565b9998505050505050505050565b600060208284031215615cdc57600080fd5b8151801515811461300d57600080fd5b600067ffffffffffffffff808316818103615d0957615d0961584b565b6001019392505050565b60008085851115615d2357600080fd5b83861115615d3057600080fd5b5050820193919092039150565b7fffffffffffffffffffffffffffffffffffffffff0000000000000000000000008135818116916014851015615d7d5780818660140360031b1b83161692505b505092915050565b600181815b80851115615dc0578160001904821115615da657615da661584b565b80851615615db357918102915b93841c9390800290615d8a565b509250929050565b600082615dd7575060016109c2565b81615de4575060006109c2565b8160018114615dfa5760028114615e0457615e20565b60019150506109c2565b60ff841115615e1557615e1561584b565b50506001821b6109c2565b5060208310610133831016604e8410600b8410161715615e43575081810a6109c2565b615e4d8383615d85565b8060001904821115615e6157615e6161584b565b029392505050565b600061300d8383615dc8565b63ffffffff818116838216019080821115615beb57615beb61584b565b6000604067ffffffffffffffff851683526020604081850152845160a06040860152615ec160e0860182615c31565b9050818601517fffffffffffffffffffffffffffffffffffffffffffffffffffffffffffffffc080878403016060880152615efc8383615c31565b6040890151888203830160808a01528051808352908601945060009350908501905b80841015615f5057845180516001600160a01b0316835286015186830152938501936001939093019290860190615f1e565b5060608901516001600160a01b031660a08901526080890151888203830160c08a01529550615f7f8187615c31565b9a995050505050505050505056fea2646970667358221220c03c9909b323f9dbe02c51f81c52d277e3f7fcf89e933086837bfd368560182864736f6c63430008170033",
	"deployedBytecode": "0x",
	"gitCommit": "f6d98baee821c21ecbe1f713c263ea602c440995"
}