{
	"format": "sphinx-sol-ct-artifact-1",
	"merkleRoot": "0xea14d6a9e0023ebdee52ff89f225fbcdab73dd659d2b605adb5e65271611064f",
	"address": "0xac0b9903a67736d361705492856ad5131d63c752",
	"sourceName": "src/JBCCIPSucker.sol",
	"contractName": "JBCCIPSucker",
	"chainId": "0xa4b1",
	"abi": [
		{
			"inputs": [
				{
					"internalType": "contract JBCCIPSuckerDeployer",
					"name": "deployer",
					"type": "address"
				},
				{
					"internalType": "contract IJBDirectory",
					"name": "directory",
					"type": "address"
				},
				{
					"internalType": "contract IJBTokens",
					"name": "tokens",
					"type": "address"
				},
				{
					"internalType": "contract IJBPermissions",
					"name": "permissions",
					"type": "address"
				},
				{
					"internalType": "enum JBAddToBalanceMode",
					"name": "addToBalanceMode",
					"type": "uint8"
				},
				{
					"internalType": "address",
					"name": "trusted_forwarder",
					"type": "address"
				}
			],
			"stateMutability": "nonpayable",
			"type": "constructor"
		},
		{
			"stateMutability": "payable",
			"type": "receive"
		},
		{
			"inputs": [],
			"name": "ADD_TO_BALANCE_MODE",
			"outputs": [
				{
					"internalType": "enum JBAddToBalanceMode",
					"name": "",
					"type": "uint8"
				}
			],
			"stateMutability": "view",
			"type": "function"
		},
		{
			"inputs": [],
			"name": "CCIP_ROUTER",
			"outputs": [
				{
					"internalType": "contract ICCIPRouter",
					"name": "",
					"type": "address"
				}
			],
			"stateMutability": "view",
			"type": "function"
		},
		{
			"inputs": [],
			"name": "DIRECTORY",
			"outputs": [
				{
					"internalType": "contract IJBDirectory",
					"name": "",
					"type": "address"
				}
			],
			"stateMutability": "view",
			"type": "function"
		},
		{
			"inputs": [],
			"name": "MESSENGER_BASE_GAS_LIMIT",
			"outputs": [
				{
					"internalType": "uint32",
					"name": "",
					"type": "uint32"
				}
			],
			"stateMutability": "view",
			"type": "function"
		},
		{
			"inputs": [],
			"name": "MESSENGER_ERC20_MIN_GAS_LIMIT",
			"outputs": [
				{
					"internalType": "uint32",
					"name": "",
					"type": "uint32"
				}
			],
			"stateMutability": "view",
			"type": "function"
		},
		{
			"inputs": [],
			"name": "PERMISSIONS",
			"outputs": [
				{
					"internalType": "contract IJBPermissions",
					"name": "",
					"type": "address"
				}
			],
			"stateMutability": "view",
			"type": "function"
		},
		{
			"inputs": [],
			"name": "REMOTE_CHAIN_ID",
			"outputs": [
				{
					"internalType": "uint256",
					"name": "",
					"type": "uint256"
				}
			],
			"stateMutability": "view",
			"type": "function"
		},
		{
			"inputs": [],
			"name": "REMOTE_CHAIN_SELECTOR",
			"outputs": [
				{
					"internalType": "uint64",
					"name": "",
					"type": "uint64"
				}
			],
			"stateMutability": "view",
			"type": "function"
		},
		{
			"inputs": [],
			"name": "TOKENS",
			"outputs": [
				{
					"internalType": "contract IJBTokens",
					"name": "",
					"type": "address"
				}
			],
			"stateMutability": "view",
			"type": "function"
		},
		{
			"inputs": [
				{
					"internalType": "address",
					"name": "token",
					"type": "address"
				}
			],
			"name": "addOutstandingAmountToBalance",
			"outputs": [],
			"stateMutability": "nonpayable",
			"type": "function"
		},
		{
			"inputs": [
				{
					"internalType": "address",
					"name": "token",
					"type": "address"
				}
			],
			"name": "amountToAddToBalanceOf",
			"outputs": [
				{
					"internalType": "uint256",
					"name": "",
					"type": "uint256"
				}
			],
			"stateMutability": "view",
			"type": "function"
		},
		{
			"inputs": [
				{
					"components": [
						{
							"internalType": "bytes32",
							"name": "messageId",
							"type": "bytes32"
						},
						{
							"internalType": "uint64",
							"name": "sourceChainSelector",
							"type": "uint64"
						},
						{
							"internalType": "bytes",
							"name": "sender",
							"type": "bytes"
						},
						{
							"internalType": "bytes",
							"name": "data",
							"type": "bytes"
						},
						{
							"components": [
								{
									"internalType": "address",
									"name": "token",
									"type": "address"
								},
								{
									"internalType": "uint256",
									"name": "amount",
									"type": "uint256"
								}
							],
							"internalType": "struct Client.EVMTokenAmount[]",
							"name": "destTokenAmounts",
							"type": "tuple[]"
						}
					],
					"internalType": "struct Client.Any2EVMMessage",
					"name": "any2EvmMessage",
					"type": "tuple"
				}
			],
			"name": "ccipReceive",
			"outputs": [],
			"stateMutability": "nonpayable",
			"type": "function"
		},
		{
			"inputs": [
				{
					"components": [
						{
							"internalType": "address",
							"name": "token",
							"type": "address"
						},
						{
							"components": [
								{
									"internalType": "uint256",
									"name": "index",
									"type": "uint256"
								},
								{
									"internalType": "address",
									"name": "beneficiary",
									"type": "address"
								},
								{
									"internalType": "uint256",
									"name": "projectTokenCount",
									"type": "uint256"
								},
								{
									"internalType": "uint256",
									"name": "terminalTokenAmount",
									"type": "uint256"
								}
							],
							"internalType": "struct JBLeaf",
							"name": "leaf",
							"type": "tuple"
						},
						{
							"internalType": "bytes32[32]",
							"name": "proof",
							"type": "bytes32[32]"
						}
					],
					"internalType": "struct JBClaim",
					"name": "claimData",
					"type": "tuple"
				}
			],
			"name": "claim",
			"outputs": [],
			"stateMutability": "nonpayable",
			"type": "function"
		},
		{
			"inputs": [
				{
					"components": [
						{
							"internalType": "address",
							"name": "token",
							"type": "address"
						},
						{
							"components": [
								{
									"internalType": "uint256",
									"name": "index",
									"type": "uint256"
								},
								{
									"internalType": "address",
									"name": "beneficiary",
									"type": "address"
								},
								{
									"internalType": "uint256",
									"name": "projectTokenCount",
									"type": "uint256"
								},
								{
									"internalType": "uint256",
									"name": "terminalTokenAmount",
									"type": "uint256"
								}
							],
							"internalType": "struct JBLeaf",
							"name": "leaf",
							"type": "tuple"
						},
						{
							"internalType": "bytes32[32]",
							"name": "proof",
							"type": "bytes32[32]"
						}
					],
					"internalType": "struct JBClaim[]",
					"name": "claims",
					"type": "tuple[]"
				}
			],
			"name": "claim",
			"outputs": [],
			"stateMutability": "nonpayable",
			"type": "function"
		},
		{
			"inputs": [],
			"name": "deployer",
			"outputs": [
				{
					"internalType": "address",
					"name": "",
					"type": "address"
				}
			],
			"stateMutability": "view",
			"type": "function"
		},
		{
			"inputs": [
				{
					"internalType": "address[]",
					"name": "tokens",
					"type": "address[]"
				}
			],
			"name": "enableEmergencyHatchFor",
			"outputs": [],
			"stateMutability": "nonpayable",
			"type": "function"
		},
		{
			"inputs": [
				{
					"components": [
						{
							"internalType": "address",
							"name": "token",
							"type": "address"
						},
						{
							"components": [
								{
									"internalType": "uint256",
									"name": "index",
									"type": "uint256"
								},
								{
									"internalType": "address",
									"name": "beneficiary",
									"type": "address"
								},
								{
									"internalType": "uint256",
									"name": "projectTokenCount",
									"type": "uint256"
								},
								{
									"internalType": "uint256",
									"name": "terminalTokenAmount",
									"type": "uint256"
								}
							],
							"internalType": "struct JBLeaf",
							"name": "leaf",
							"type": "tuple"
						},
						{
							"internalType": "bytes32[32]",
							"name": "proof",
							"type": "bytes32[32]"
						}
					],
					"internalType": "struct JBClaim",
					"name": "claimData",
					"type": "tuple"
				}
			],
			"name": "exitThroughEmergencyHatch",
			"outputs": [],
			"stateMutability": "nonpayable",
			"type": "function"
		},
		{
			"inputs": [
				{
					"components": [
						{
							"internalType": "address",
							"name": "token",
							"type": "address"
						},
						{
							"internalType": "uint256",
							"name": "amount",
							"type": "uint256"
						},
						{
							"components": [
								{
									"internalType": "uint64",
									"name": "nonce",
									"type": "uint64"
								},
								{
									"internalType": "bytes32",
									"name": "root",
									"type": "bytes32"
								}
							],
							"internalType": "struct JBInboxTreeRoot",
							"name": "remoteRoot",
							"type": "tuple"
						}
					],
					"internalType": "struct JBMessageRoot",
					"name": "root",
					"type": "tuple"
				}
			],
			"name": "fromRemote",
			"outputs": [],
			"stateMutability": "payable",
			"type": "function"
		},
		{
			"inputs": [],
			"name": "getRouter",
			"outputs": [
				{
					"internalType": "address",
					"name": "",
					"type": "address"
				}
			],
			"stateMutability": "view",
			"type": "function"
		},
		{
			"inputs": [
				{
					"internalType": "address",
					"name": "token",
					"type": "address"
				}
			],
			"name": "inboxOf",
			"outputs": [
				{
					"components": [
						{
							"internalType": "uint64",
							"name": "nonce",
							"type": "uint64"
						},
						{
							"internalType": "bytes32",
							"name": "root",
							"type": "bytes32"
						}
					],
					"internalType": "struct JBInboxTreeRoot",
					"name": "",
					"type": "tuple"
				}
			],
			"stateMutability": "view",
			"type": "function"
		},
		{
			"inputs": [
				{
					"internalType": "uint256",
					"name": "_projectId",
					"type": "uint256"
				}
			],
			"name": "initialize",
			"outputs": [],
			"stateMutability": "nonpayable",
			"type": "function"
		},
		{
			"inputs": [
				{
					"internalType": "address",
					"name": "token",
					"type": "address"
				}
			],
			"name": "isMapped",
			"outputs": [
				{
					"internalType": "bool",
					"name": "",
					"type": "bool"
				}
			],
			"stateMutability": "view",
			"type": "function"
		},
		{
			"inputs": [
				{
					"internalType": "address",
					"name": "forwarder",
					"type": "address"
				}
			],
			"name": "isTrustedForwarder",
			"outputs": [
				{
					"internalType": "bool",
					"name": "",
					"type": "bool"
				}
			],
			"stateMutability": "view",
			"type": "function"
		},
		{
			"inputs": [
				{
					"components": [
						{
							"internalType": "address",
							"name": "localToken",
							"type": "address"
						},
						{
							"internalType": "uint32",
							"name": "minGas",
							"type": "uint32"
						},
						{
							"internalType": "address",
							"name": "remoteToken",
							"type": "address"
						},
						{
							"internalType": "uint256",
							"name": "minBridgeAmount",
							"type": "uint256"
						}
					],
					"internalType": "struct JBTokenMapping",
					"name": "map",
					"type": "tuple"
				}
			],
			"name": "mapToken",
			"outputs": [],
			"stateMutability": "payable",
			"type": "function"
		},
		{
			"inputs": [
				{
					"components": [
						{
							"internalType": "address",
							"name": "localToken",
							"type": "address"
						},
						{
							"internalType": "uint32",
							"name": "minGas",
							"type": "uint32"
						},
						{
							"internalType": "address",
							"name": "remoteToken",
							"type": "address"
						},
						{
							"internalType": "uint256",
							"name": "minBridgeAmount",
							"type": "uint256"
						}
					],
					"internalType": "struct JBTokenMapping[]",
					"name": "maps",
					"type": "tuple[]"
				}
			],
			"name": "mapTokens",
			"outputs": [],
			"stateMutability": "payable",
			"type": "function"
		},
		{
			"inputs": [
				{
					"internalType": "address",
					"name": "token",
					"type": "address"
				}
			],
			"name": "outboxOf",
			"outputs": [
				{
					"components": [
						{
							"internalType": "uint64",
							"name": "nonce",
							"type": "uint64"
						},
						{
							"internalType": "uint256",
							"name": "balance",
							"type": "uint256"
						},
						{
							"components": [
								{
									"internalType": "bytes32[32]",
									"name": "branch",
									"type": "bytes32[32]"
								},
								{
									"internalType": "uint256",
									"name": "count",
									"type": "uint256"
								}
							],
							"internalType": "struct MerkleLib.Tree",
							"name": "tree",
							"type": "tuple"
						},
						{
							"internalType": "uint256",
							"name": "numberOfClaimsSent",
							"type": "uint256"
						}
					],
					"internalType": "struct JBOutboxTree",
					"name": "",
					"type": "tuple"
				}
			],
			"stateMutability": "view",
			"type": "function"
		},
		{
			"inputs": [],
			"name": "peer",
			"outputs": [
				{
					"internalType": "address",
					"name": "",
					"type": "address"
				}
			],
			"stateMutability": "view",
			"type": "function"
		},
		{
			"inputs": [],
			"name": "peerChainId",
			"outputs": [
				{
					"internalType": "uint256",
					"name": "chainId",
					"type": "uint256"
				}
			],
			"stateMutability": "view",
			"type": "function"
		},
		{
			"inputs": [
				{
					"internalType": "uint256",
					"name": "projectTokenCount",
					"type": "uint256"
				},
				{
					"internalType": "address",
					"name": "beneficiary",
					"type": "address"
				},
				{
					"internalType": "uint256",
					"name": "minTokensReclaimed",
					"type": "uint256"
				},
				{
					"internalType": "address",
					"name": "token",
					"type": "address"
				}
			],
			"name": "prepare",
			"outputs": [],
			"stateMutability": "nonpayable",
			"type": "function"
		},
		{
			"inputs": [],
			"name": "projectId",
			"outputs": [
				{
					"internalType": "uint256",
					"name": "",
					"type": "uint256"
				}
			],
			"stateMutability": "view",
			"type": "function"
		},
		{
			"inputs": [
				{
					"internalType": "address",
					"name": "token",
					"type": "address"
				}
			],
			"name": "remoteTokenFor",
			"outputs": [
				{
					"components": [
						{
							"internalType": "bool",
							"name": "enabled",
							"type": "bool"
						},
						{
							"internalType": "bool",
							"name": "emergencyHatch",
							"type": "bool"
						},
						{
							"internalType": "uint32",
							"name": "minGas",
							"type": "uint32"
						},
						{
							"internalType": "address",
							"name": "addr",
							"type": "address"
						},
						{
							"internalType": "uint256",
							"name": "minBridgeAmount",
							"type": "uint256"
						}
					],
					"internalType": "struct JBRemoteToken",
					"name": "",
					"type": "tuple"
				}
			],
			"stateMutability": "view",
			"type": "function"
		},
		{
			"inputs": [
				{
					"internalType": "uint40",
					"name": "timestamp",
					"type": "uint40"
				}
			],
			"name": "setDeprecation",
			"outputs": [],
			"stateMutability": "nonpayable",
			"type": "function"
		},
		{
			"inputs": [],
			"name": "state",
			"outputs": [
				{
					"internalType": "enum JBSuckerState",
					"name": "",
					"type": "uint8"
				}
			],
			"stateMutability": "view",
			"type": "function"
		},
		{
			"inputs": [
				{
					"internalType": "bytes4",
					"name": "interfaceId",
					"type": "bytes4"
				}
			],
			"name": "supportsInterface",
			"outputs": [
				{
					"internalType": "bool",
					"name": "",
					"type": "bool"
				}
			],
			"stateMutability": "view",
			"type": "function"
		},
		{
			"inputs": [
				{
					"internalType": "address",
					"name": "token",
					"type": "address"
				}
			],
			"name": "toRemote",
			"outputs": [],
			"stateMutability": "payable",
			"type": "function"
		},
		{
			"inputs": [],
			"name": "trustedForwarder",
			"outputs": [
				{
					"internalType": "address",
					"name": "",
					"type": "address"
				}
			],
			"stateMutability": "view",
			"type": "function"
		},
		{
			"anonymous": false,
			"inputs": [
				{
					"indexed": false,
					"internalType": "address",
					"name": "beneficiary",
					"type": "address"
				},
				{
					"indexed": false,
					"internalType": "address",
					"name": "token",
					"type": "address"
				},
				{
					"indexed": false,
					"internalType": "uint256",
					"name": "projectTokenCount",
					"type": "uint256"
				},
				{
					"indexed": false,
					"internalType": "uint256",
					"name": "terminalTokenAmount",
					"type": "uint256"
				},
				{
					"indexed": false,
					"internalType": "uint256",
					"name": "index",
					"type": "uint256"
				},
				{
					"indexed": false,
					"internalType": "bool",
					"name": "autoAddedToBalance",
					"type": "bool"
				},
				{
					"indexed": false,
					"internalType": "address",
					"name": "caller",
					"type": "address"
				}
			],
			"name": "Claimed",
			"type": "event"
		},
		{
			"anonymous": false,
			"inputs": [
				{
					"indexed": false,
					"internalType": "uint40",
					"name": "timestamp",
					"type": "uint40"
				},
				{
					"indexed": false,
					"internalType": "address",
					"name": "caller",
					"type": "address"
				}
			],
			"name": "DeprecationTimeUpdated",
			"type": "event"
		},
		{
			"anonymous": false,
			"inputs": [
				{
					"indexed": false,
					"internalType": "address[]",
					"name": "tokens",
					"type": "address[]"
				},
				{
					"indexed": false,
					"internalType": "address",
					"name": "caller",
					"type": "address"
				}
			],
			"name": "EmergencyHatchOpened",
			"type": "event"
		},
		{
			"anonymous": false,
			"inputs": [
				{
					"indexed": false,
					"internalType": "uint64",
					"name": "version",
					"type": "uint64"
				}
			],
			"name": "Initialized",
			"type": "event"
		},
		{
			"anonymous": false,
			"inputs": [
				{
					"indexed": true,
					"internalType": "address",
					"name": "beneficiary",
					"type": "address"
				},
				{
					"indexed": true,
					"internalType": "address",
					"name": "token",
					"type": "address"
				},
				{
					"indexed": false,
					"internalType": "bytes32",
					"name": "hashed",
					"type": "bytes32"
				},
				{
					"indexed": false,
					"internalType": "uint256",
					"name": "index",
					"type": "uint256"
				},
				{
					"indexed": false,
					"internalType": "bytes32",
					"name": "root",
					"type": "bytes32"
				},
				{
					"indexed": false,
					"internalType": "uint256",
					"name": "projectTokenCount",
					"type": "uint256"
				},
				{
					"indexed": false,
					"internalType": "uint256",
					"name": "terminalTokenAmount",
					"type": "uint256"
				},
				{
					"indexed": false,
					"internalType": "address",
					"name": "caller",
					"type": "address"
				}
			],
			"name": "InsertToOutboxTree",
			"type": "event"
		},
		{
			"anonymous": false,
			"inputs": [
				{
					"indexed": true,
					"internalType": "address",
					"name": "token",
					"type": "address"
				},
				{
					"indexed": false,
					"internalType": "uint64",
					"name": "nonce",
					"type": "uint64"
				},
				{
					"indexed": false,
					"internalType": "bytes32",
					"name": "root",
					"type": "bytes32"
				},
				{
					"indexed": false,
					"internalType": "address",
					"name": "caller",
					"type": "address"
				}
			],
			"name": "NewInboxTreeRoot",
			"type": "event"
		},
		{
			"anonymous": false,
			"inputs": [
				{
					"indexed": true,
					"internalType": "bytes32",
					"name": "root",
					"type": "bytes32"
				},
				{
					"indexed": true,
					"internalType": "address",
					"name": "token",
					"type": "address"
				},
				{
					"indexed": false,
					"internalType": "uint256",
					"name": "index",
					"type": "uint256"
				},
				{
					"indexed": false,
					"internalType": "uint64",
					"name": "nonce",
					"type": "uint64"
				},
				{
					"indexed": false,
					"internalType": "address",
					"name": "caller",
					"type": "address"
				}
			],
			"name": "RootToRemote",
			"type": "event"
		},
		{
			"inputs": [],
			"name": "InvalidInitialization",
			"type": "error"
		},
		{
			"inputs": [],
			"name": "JBCCIPSucker_FailedToRefundFee",
			"type": "error"
		},
		{
			"inputs": [
				{
					"internalType": "address",
					"name": "router",
					"type": "address"
				}
			],
			"name": "JBCCIPSucker_InvalidRouter",
			"type": "error"
		},
		{
			"inputs": [
				{
					"internalType": "address",
					"name": "account",
					"type": "address"
				},
				{
					"internalType": "address",
					"name": "sender",
					"type": "address"
				},
				{
					"internalType": "uint256",
					"name": "projectId",
					"type": "uint256"
				},
				{
					"internalType": "uint256",
					"name": "permissionId",
					"type": "uint256"
				}
			],
			"name": "JBPermissioned_Unauthorized",
			"type": "error"
		},
		{
			"inputs": [
				{
					"internalType": "uint256",
					"name": "minGas",
					"type": "uint256"
				},
				{
					"internalType": "uint256",
					"name": "minGasLimit",
					"type": "uint256"
				}
			],
			"name": "JBSucker_BelowMinGas",
			"type": "error"
		},
		{
			"inputs": [],
			"name": "JBSucker_Deprecated",
			"type": "error"
		},
		{
			"inputs": [
				{
					"internalType": "uint256",
					"name": "givenTime",
					"type": "uint256"
				},
				{
					"internalType": "uint256",
					"name": "minimumTime",
					"type": "uint256"
				}
			],
			"name": "JBSucker_DeprecationTimestampTooSoon",
			"type": "error"
		},
		{
			"inputs": [],
			"name": "JBSucker_ExpectedMsgValue",
			"type": "error"
		},
		{
			"inputs": [
				{
					"internalType": "uint256",
					"name": "amount",
					"type": "uint256"
				},
				{
					"internalType": "uint256",
					"name": "balance",
					"type": "uint256"
				}
			],
			"name": "JBSucker_InsufficientBalance",
			"type": "error"
		},
		{
			"inputs": [
				{
					"internalType": "uint256",
					"name": "received",
					"type": "uint256"
				},
				{
					"internalType": "uint256",
					"name": "expected",
					"type": "uint256"
				}
			],
			"name": "JBSucker_InsufficientMsgValue",
			"type": "error"
		},
		{
			"inputs": [
				{
					"internalType": "address",
					"name": "remoteToken",
					"type": "address"
				}
			],
			"name": "JBSucker_InvalidNativeRemoteAddress",
			"type": "error"
		},
		{
			"inputs": [
				{
					"internalType": "bytes32",
					"name": "root",
					"type": "bytes32"
				},
				{
					"internalType": "bytes32",
					"name": "inboxRoot",
					"type": "bytes32"
				}
			],
			"name": "JBSucker_InvalidProof",
			"type": "error"
		},
		{
			"inputs": [
				{
					"internalType": "address",
					"name": "token",
					"type": "address"
				},
				{
					"internalType": "uint256",
					"name": "index",
					"type": "uint256"
				}
			],
			"name": "JBSucker_LeafAlreadyExecuted",
			"type": "error"
		},
		{
			"inputs": [
				{
					"internalType": "enum JBAddToBalanceMode",
					"name": "mode",
					"type": "uint8"
				}
			],
			"name": "JBSucker_ManualNotAllowed",
			"type": "error"
		},
		{
			"inputs": [
				{
					"internalType": "uint256",
					"name": "projectId",
					"type": "uint256"
				},
				{
					"internalType": "address",
					"name": "token",
					"type": "address"
				}
			],
			"name": "JBSucker_NoTerminalForToken",
			"type": "error"
		},
		{
			"inputs": [
				{
					"internalType": "address",
					"name": "caller",
					"type": "address"
				}
			],
			"name": "JBSucker_NotPeer",
			"type": "error"
		},
		{
			"inputs": [
				{
					"internalType": "uint256",
					"name": "amount",
					"type": "uint256"
				},
				{
					"internalType": "uint256",
					"name": "minimumAmount",
					"type": "uint256"
				}
			],
			"name": "JBSucker_QueueInsufficientSize",
			"type": "error"
		},
		{
			"inputs": [
				{
					"internalType": "address",
					"name": "localToken",
					"type": "address"
				},
				{
					"internalType": "address",
					"name": "mappedTo",
					"type": "address"
				}
			],
			"name": "JBSucker_TokenAlreadyMapped",
			"type": "error"
		},
		{
			"inputs": [
				{
					"internalType": "address",
					"name": "token",
					"type": "address"
				}
			],
			"name": "JBSucker_TokenHasInvalidEmergencyHatchState",
			"type": "error"
		},
		{
			"inputs": [
				{
					"internalType": "address",
					"name": "token",
					"type": "address"
				}
			],
			"name": "JBSucker_TokenNotMapped",
			"type": "error"
		},
		{
			"inputs": [
				{
					"internalType": "uint256",
					"name": "value",
					"type": "uint256"
				}
			],
			"name": "JBSucker_UnexpectedMsgValue",
			"type": "error"
		},
		{
			"inputs": [],
			"name": "JBSucker_ZeroBeneficiary",
			"type": "error"
		},
		{
			"inputs": [],
			"name": "JBSucker_ZeroERC20Token",
			"type": "error"
		},
		{
			"inputs": [],
			"name": "MerkleLib__insert_treeIsFull",
			"type": "error"
		},
		{
			"inputs": [],
			"name": "NotInitializing",
			"type": "error"
		},
		{
			"inputs": [
				{
					"internalType": "address",
					"name": "token",
					"type": "address"
				}
			],
			"name": "SafeERC20FailedOperation",
			"type": "error"
		}
	],
	"args": [],
	"solcInputHash": "14ce4938174f25cdd1fbe9b98155e159",
	"bytecode": "0x6101806040523480156200001257600080fd5b50604051620063b1380380620063b1833981016040819052620000359162000300565b6001600160a01b0380821660805280841660a05280861660e05284166101005284838584848160018111156200006f576200006f62000397565b60c081600181111562000086576200008662000397565b9052506200009362000236565b5050505050856001600160a01b03166363a49dc36040518163ffffffff1660e01b8152600401602060405180830381865afa158015620000d7573d6000803e3d6000fd5b505050506040513d601f19601f82011682018060405250810190620000fd9190620003ad565b6101408181525050856001600160a01b031663d86161876040518163ffffffff1660e01b8152600401602060405180830381865afa15801562000144573d6000803e3d6000fd5b505050506040513d601f19601f820116820180604052508101906200016a9190620003c7565b6001600160401b0316610160816001600160401b031681525050856001600160a01b0316630de229846040518163ffffffff1660e01b8152600401602060405180830381865afa158015620001c3573d6000803e3d6000fd5b505050506040513d601f19601f82011682018060405250810190620001e99190620003f9565b6001600160a01b03166101208190526200022a5761012051604051636e1f4ccd60e01b81526001600160a01b03909116600482015260240160405180910390fd5b50505050505062000419565b7ff0c57e16840df040f15088dc2f81fe391c3923bec73e23a9662efc9c229c6a00805468010000000000000000900460ff1615620002875760405163f92ee8a960e01b815260040160405180910390fd5b80546001600160401b0390811614620002e75780546001600160401b0319166001600160401b0390811782556040519081527fc7f505b2f371ae2175ee4913f4499e1f2633a7b5936321eed1cdaeb6115181d29060200160405180910390a15b50565b6001600160a01b0381168114620002e757600080fd5b60008060008060008060c087890312156200031a57600080fd5b86516200032781620002ea565b60208801519096506200033a81620002ea565b60408801519095506200034d81620002ea565b60608801519094506200036081620002ea565b6080880151909350600281106200037657600080fd5b60a08801519092506200038981620002ea565b809150509295509295509295565b634e487b7160e01b600052602160045260246000fd5b600060208284031215620003c057600080fd5b5051919050565b600060208284031215620003da57600080fd5b81516001600160401b0381168114620003f257600080fd5b9392505050565b6000602082840312156200040c57600080fd5b8151620003f281620002ea565b60805160a05160c05160e05161010051610120516101405161016051615e8a62000527600039600081816102a60152818161152c01528181614dba0152614eca01526000818161053a015261088c01526000818161075e015281816109360152818161148c01528181614ae101528181614c3b01528181614d8d0152614e9b01526000818161033c0152610bc70152600081816106f601528181610e3c0152818161126101528181611fd6015281816121d2015281816126690152612b7b01526000818161084e0152818161100d01528181611044015281816117f90152611f4e0152600081816108e20152612a1501526000818161040c0152818161056b01526147880152615e8a6000f3fe6080604052600436106102535760003560e01c80637de6fba211610138578063bf557aee116100b0578063cdfceeba1161007f578063f434c91411610064578063f434c914146108d0578063fe4b84df14610904578063fe5f42ca1461092457600080fd5b8063cdfceeba1461087d578063d5f39488146108b057600080fd5b8063bf557aee146107b5578063c1854129146107fa578063c19d93fb1461081a578063c6525f2c1461083c57600080fd5b806392ee1ea711610107578063b0f479a1116100ec578063b0f479a11461074f578063b59ef50f14610782578063b71c1179146107a257600080fd5b806392ee1ea7146107185780639e6d7d431461072f57600080fd5b80637de6fba21461058f578063802c8fa01461069757806385572ffb146106c457806388bc2ef3146106e457600080fd5b8063551ebbf0116101cb57806369d31fdd1161019a578063754515591161017f57806375451559146105085780637d1d0c5b146105285780637da0a8771461055c57600080fd5b806369d31fdd1461047c5780636d9e384b1461048f57600080fd5b8063551ebbf0146103cf578063572b6c05146103ef5780636284386a1461043c57806369ce22331461045c57600080fd5b80631d831d5c1161022257806338eb20441161020757806338eb2044146103715780633a5de07d146103845780633fafa127146103b057600080fd5b80631d831d5c1461032a5780632241dc521461035e57600080fd5b806301ffc9a71461025f57806305696511146102945780630f648214146102e157806311cda4151461030357600080fd5b3661025a57005b600080fd5b34801561026b57600080fd5b5061027f61027a36600461541f565b610958565b60405190151581526020015b60405180910390f35b3480156102a057600080fd5b506102c87f000000000000000000000000000000000000000000000000000000000000000081565b60405167ffffffffffffffff909116815260200161028b565b3480156102ed57600080fd5b506103016102fc366004615461565b6109b4565b005b34801561030f57600080fd5b50305b6040516001600160a01b03909116815260200161028b565b34801561033657600080fd5b506103127f000000000000000000000000000000000000000000000000000000000000000081565b61030161036c36600461547a565b610a6b565b61030161037f366004615501565b610b79565b34801561039057600080fd5b5061039b62030d4081565b60405163ffffffff909116815260200161028b565b3480156103bc57600080fd5b506002545b60405190815260200161028b565b3480156103db57600080fd5b506103016103ea366004615532565b610b83565b3480156103fb57600080fd5b5061027f61040a36600461557c565b7f00000000000000000000000000000000000000000000000000000000000000006001600160a01b0390811691161490565b34801561044857600080fd5b50610301610457366004615599565b610db6565b34801561046857600080fd5b5061030161047736600461557c565b611009565b61030161048a366004615501565b6110a8565b34801561049b57600080fd5b506104fb6104aa36600461557c565b6040805180820190915260008082526020820152506001600160a01b03166000908152600460209081526040918290208251808401909352805467ffffffffffffffff168352600101549082015290565b60405161028b91906155c0565b34801561051457600080fd5b506103016105233660046155e1565b61124f565b34801561053457600080fd5b506103c17f000000000000000000000000000000000000000000000000000000000000000081565b34801561056857600080fd5b507f0000000000000000000000000000000000000000000000000000000000000000610312565b34801561059b57600080fd5b506106426105aa36600461557c565b6040805160a0808201835260008083526020808401829052838501829052606080850183905260809485018390526001600160a01b039687168352600682529185902085519384018652805460ff8082161515865261010082041615159285019290925262010000820463ffffffff169584019590955266010000000000009004909416938101939093526001909101549082015290565b60405161028b9190600060a08201905082511515825260208301511515602083015263ffffffff60408401511660408301526001600160a01b0360608401511660608301526080830151608083015292915050565b3480156106a357600080fd5b506106b76106b236600461557c565b6113ea565b60405161028b9190615644565b3480156106d057600080fd5b506103016106df3660046156ab565b61148a565b3480156106f057600080fd5b506103127f000000000000000000000000000000000000000000000000000000000000000081565b34801561072457600080fd5b5061039b620493e081565b34801561073b57600080fd5b506103c161074a36600461557c565b611740565b34801561075b57600080fd5b507f0000000000000000000000000000000000000000000000000000000000000000610312565b34801561078e57600080fd5b5061030161079d366004615461565b611770565b6103016107b036600461557c565b611896565b3480156107c157600080fd5b5061027f6107d036600461557c565b6001600160a01b039081166000908152600660205260409020546601000000000000900416151590565b34801561080657600080fd5b506103016108153660046156e6565b6119d9565b34801561082657600080fd5b5061082f611a12565b60405161028b9190615760565b34801561084857600080fd5b506108707f000000000000000000000000000000000000000000000000000000000000000081565b60405161028b919061577a565b34801561088957600080fd5b507f00000000000000000000000000000000000000000000000000000000000000006103c1565b3480156108bc57600080fd5b50600054610312906001600160a01b031681565b3480156108dc57600080fd5b506103127f000000000000000000000000000000000000000000000000000000000000000081565b34801561091057600080fd5b5061030161091f36600461578e565b611a5b565b34801561093057600080fd5b506103127f000000000000000000000000000000000000000000000000000000000000000081565b60007fffffffff0000000000000000000000000000000000000000000000000000000082167f85572ffb0000000000000000000000000000000000000000000000000000000014806109ae57506109ae82611bea565b92915050565b6109ec60608201356109c9602084018461557c565b60808401356109de606086016040870161557c565b602086013560a08701611d19565b608081013560056000610a02602085018561557c565b6001600160a01b03166001600160a01b031681526020019081526020016000206001016000828254610a3491906157bd565b90915550610a689050610a4a602083018361557c565b608083013560608401803590610a63906040870161557c565b611f4a565b50565b6000805b82811015610b2657600060056000868685818110610a8f57610a8f6157d0565b610aa5926020608090920201908101915061557c565b6001600160a01b03168152602081019190915260400160009081209150858584818110610ad457610ad46157d0565b9050608002016040016020810190610aec919061557c565b6001600160a01b0316148015610b0a57506022810154602382015414155b15610b1d5782610b19816157e6565b9350505b50600101610a6f565b5060005b82811015610b7357610b6b848483818110610b4757610b476157d0565b90506080020160008411610b5c5760006120f3565b610b668434615800565b6120f3565b600101610b2a565b50505050565b610a6881346120f3565b6001600160a01b038316610bc3576040517f8d3329cd00000000000000000000000000000000000000000000000000000000815260040160405180910390fd5b60007f00000000000000000000000000000000000000000000000000000000000000006001600160a01b031663ea78803f610bfd60025490565b6040518263ffffffff1660e01b8152600401610c1b91815260200190565b602060405180830381865afa158015610c38573d6000803e3d6000fd5b505050506040513d601f19601f82011682018060405250810190610c5c9190615822565b90506001600160a01b038116610c9e576040517fcaa06d2000000000000000000000000000000000000000000000000000000000815260040160405180910390fd5b6001600160a01b03821660009081526006602052604090205460ff16610d00576040517f04fdbe060000000000000000000000000000000000000000000000000000000081526001600160a01b03831660048201526024015b60405180910390fd5b6000610d0a611a12565b90506003816003811115610d2057610d2061574a565b1480610d3d57506002816003811115610d3b57610d3b61574a565b145b15610d74576040517fb10f8cca00000000000000000000000000000000000000000000000000000000815260040160405180910390fd5b610d91610d7f61258d565b6001600160a01b03841690308961259c565b6000610d9f83888688612618565b9050610dad87858389612806565b50505050505050565b6000610dc0611a12565b90506003816003811115610dd657610dd661574a565b1480610df357506002816003811115610df157610df161574a565b145b15610e2a576040517fb10f8cca00000000000000000000000000000000000000000000000000000000815260040160405180910390fd5b6000610e3560025490565b9050610f327f00000000000000000000000000000000000000000000000000000000000000006001600160a01b031663293c49996040518163ffffffff1660e01b8152600401602060405180830381865afa158015610e98573d6000803e3d6000fd5b505050506040513d601f19601f82011682018060405250810190610ebc9190615822565b6001600160a01b0316636352211e836040518263ffffffff1660e01b8152600401610ee991815260200190565b602060405180830381865afa158015610f06573d6000803e3d6000fd5b505050506040513d601f19601f82011682018060405250810190610f2a9190615822565b82601e612990565b6000610f41621275004261583f565b905064ffffffffff841615801590610f5f5750808464ffffffffff16105b15610fa6576040517f044691ac00000000000000000000000000000000000000000000000000000000815264ffffffffff8516600482015260248101829052604401610cf7565b64ffffffffff84166001557f455efa76af2a8686dc0dd3041bda89ece5ba4691277d525e2161003bbca8b24584610fdb61258d565b6040805164ffffffffff90931683526001600160a01b0390911660208301520160405180910390a150505050565b60007f0000000000000000000000000000000000000000000000000000000000000000600181111561103d5761103d61574a565b14611096577f00000000000000000000000000000000000000000000000000000000000000006040517fb039c395000000000000000000000000000000000000000000000000000000008152600401610cf7919061577a565b610a68816110a383611740565b612ada565b6110c16110b361258d565b6001600160a01b0316301490565b61110b576110cd61258d565b6040517f36183c8f0000000000000000000000000000000000000000000000000000000081526001600160a01b039091166004820152602401610cf7565b600060048161111d602085018561557c565b6001600160a01b0316815260208101919091526040908101600020805490925067ffffffffffffffff1690611158906060850190850161586f565b67ffffffffffffffff1611801561118857506003611174611a12565b60038111156111855761118561574a565b14155b1561124b5761119d606083016040840161586f565b815467ffffffffffffffff191667ffffffffffffffff91909116178155606082013560018201556111d1602083018361557c565b6001600160a01b03167fc69d3412489554fb7820c4c2784cb644b6c79bfc117444b93977d3d33a9b8eac61120b606085016040860161586f565b606085013561121861258d565b6040805167ffffffffffffffff909416845260208401929092526001600160a01b03169082015260600160405180910390a25b5050565b600061125a60025490565b90506112bd7f00000000000000000000000000000000000000000000000000000000000000006001600160a01b031663293c49996040518163ffffffff1660e01b8152600401602060405180830381865afa158015610e98573d6000803e3d6000fd5b60005b828110156113a2576000600660008686858181106112e0576112e06157d0565b90506020020160208101906112f5919061557c565b6001600160a01b031681526020810191909152604001600090812080547fffffffffffffffffffffffffffffffffffffffffffffffffffffffffffffff001692151592909217909155600190600690868685818110611356576113566157d0565b905060200201602081019061136b919061557c565b6001600160a01b03168152602081019190915260400160002080549115156101000261ff00199092169190911790556001016112c0565b507f8021bce60b20a9afb57085869a3552e0ee5b272b868df894fb30c5e90e74c07283836113ce61258d565b6040516113dd9392919061588a565b60405180910390a1505050565b6113f261536e565b6001600160a01b0382166000908152600560209081526040918290208251608081018452815467ffffffffffffffff1681526001820154818401528351610440810180865291949293858401939192600286019284929083019184919082845b815481526020019060010190808311611452575050509183525050602091820154908201529082526023929092015491015292915050565b7f00000000000000000000000000000000000000000000000000000000000000006001600160a01b03166114bc61258d565b6001600160a01b0316146114d2576110cd61258d565b60006114e160608301836158ea565b8101906114ee919061596f565b905060006114ff60408401846158ea565b81019061150c919061557c565b90506001600160a01b03811630141580611569575067ffffffffffffffff7f00000000000000000000000000000000000000000000000000000000000000001661155c604085016020860161586f565b67ffffffffffffffff1614155b156115ab576040517f36183c8f0000000000000000000000000000000000000000000000000000000081526001600160a01b0382166004820152602401610cf7565b6115b86080840184615a0e565b90506001036116d65760006115d06080850185615a0e565b60008181106115e1576115e16157d0565b9050604002018036038101906115f79190615a58565b905061eeee6001600160a01b031683600001516001600160a01b0316036116d4578051600061162861eeee30612ed3565b60208401516040517f2e1a7d4d0000000000000000000000000000000000000000000000000000000081529192506001600160a01b03841691632e1a7d4d916116779160040190815260200190565b600060405180830381600087803b15801561169157600080fd5b505af11580156116a5573d6000803e3d6000fd5b505050506116b561eeee30612ed3565b60208401516116c4908361583f565b146116d1576116d1615a92565b50505b505b6040517f69d31fdd00000000000000000000000000000000000000000000000000000000815230906369d31fdd90611712908590600401615aa8565b600060405180830381600087803b15801561172c57600080fd5b505af1158015610dad573d6000803e3d6000fd5b6001600160a01b0381166000908152600560205260408120600101546117668330612ed3565b6109ae91906157bd565b6117a86060820135611785602084018461557c565b608084013561179a606086016040870161557c565b602086013560a08701612f83565b7faaca6f6829d340365b5e6599e0d513cbb4602b94f58ccf16ac77d8d3ae7139ef6117d9606083016040840161557c565b6117e6602084018461557c565b60608401356080850135602086013560017f000000000000000000000000000000000000000000000000000000000000000060018111156118295761182961574a565b14611835576000611838565b60015b61184061258d565b604080516001600160a01b039889168152968816602088015286019490945260608501929092526080840152151560a083015290911660c082015260e00160405180910390a1610a68610a4a602083018361557c565b6001600160a01b03808216600090815260066020908152604091829020825160a081018452815460ff808216151583526101008204161580159483019490945263ffffffff620100008204169482019490945266010000000000009093049093166060830152600190920154608082015290611949576040517f4bba81f00000000000000000000000000000000000000000000000000000000081526001600160a01b0383166004820152602401610cf7565b60808101516001600160a01b03831660009081526005602052604090206001015410156119ce576001600160a01b0382166000908152600560205260409081902060010154608083015191517fc3e11b79000000000000000000000000000000000000000000000000000000008152610cf79290600401918252602082015260400190565b61124b348383613059565b60005b81811015611a0d57611a058383838181106119f9576119f96157d0565b90506104a00201611770565b6001016119dc565b505050565b600154600090808203611a2757600091505090565b611a3462127500826157bd565b421015611a4357600191505090565b80421015611a5357600291505090565b600391505090565b7ff0c57e16840df040f15088dc2f81fe391c3923bec73e23a9662efc9c229c6a00805468010000000000000000810460ff16159067ffffffffffffffff16600081158015611aa65750825b905060008267ffffffffffffffff166001148015611ac35750303b155b905081158015611ad1575080155b15611b08576040517ff92ee8a900000000000000000000000000000000000000000000000000000000815260040160405180910390fd5b845467ffffffffffffffff191660011785558315611b525784547fffffffffffffffffffffffffffffffffffffffffffffff00ffffffffffffffff16680100000000000000001785555b6002869055600080547fffffffffffffffffffffffff000000000000000000000000000000000000000016331790558315611be25784547fffffffffffffffffffffffffffffffffffffffffffffff00ffffffffffffffff168555604051600181527fc7f505b2f371ae2175ee4913f4499e1f2633a7b5936321eed1cdaeb6115181d29060200160405180910390a15b505050505050565b60007fffffffff0000000000000000000000000000000000000000000000000000000082167f18a5af27000000000000000000000000000000000000000000000000000000001480611c7d57507fffffffff0000000000000000000000000000000000000000000000000000000082167f583ff5cc00000000000000000000000000000000000000000000000000000000145b80611cc957507fffffffff0000000000000000000000000000000000000000000000000000000082167ff434c91400000000000000000000000000000000000000000000000000000000145b806109ae57507f01ffc9a7000000000000000000000000000000000000000000000000000000007fffffffff000000000000000000000000000000000000000000000000000000008316146109ae565b6000611d23611a12565b90506003816003811115611d3957611d3961574a565b14158015611d5957506002816003811115611d5657611d5661574a565b14155b8015611d8357506001600160a01b038616600090815260066020526040902054610100900460ff16155b15611dc5576040517f4bba81f00000000000000000000000000000000000000000000000000000000081526001600160a01b0387166004820152602401610cf7565b6001600160a01b0386166000908152600560205260409020602381015415801590611e0057508360018260230154611dfd91906157bd565b10155b15611e49576040517fa4e6bcec0000000000000000000000000000000000000000000000000000000081526001600160a01b038816600482015260248101859052604401610cf7565b604080516001600160a01b03891660208201526000910160408051808303601f19018152918152815160209283012060601c60008181526003845282812060088a901c8252909352912054909150600160ff87161b1615611ee8576040517fa4e6bcec0000000000000000000000000000000000000000000000000000000081526001600160a01b038916600482015260248101869052604401610cf7565b6001600160a01b039081166000908152600360209081526040808320600889901c845282528083208054600160ff8b161b179055928a1682526005905220611f4090611f3690600201613279565b898888888861462f565b5050505050505050565b60017f00000000000000000000000000000000000000000000000000000000000000006001811115611f7e57611f7e61574a565b148015611f8a57508215155b15611f9957611f998484612ada565b6000611fa460025490565b6040517f5dd8f6aa000000000000000000000000000000000000000000000000000000008152600481018290529091507f00000000000000000000000000000000000000000000000000000000000000006001600160a01b031690635dd8f6aa90602401602060405180830381865afa158015612025573d6000803e3d6000fd5b505050506040513d601f19601f820116820180604052508101906120499190615822565b6040517fc7fb92de00000000000000000000000000000000000000000000000000000000815260048101839052602481018590526001600160a01b03848116604483015260a06064830152600060a483018190526084830152919091169063c7fb92de9060c4016020604051808303816000875af11580156120cf573d6000803e3d6000fd5b505050506040513d601f19601f82011682018060405250810190611be29190615af4565b6000612102602084018461557c565b6001600160a01b03808216600090815260066020908152604091829020825160a081018452815460ff808216151583526101008204161580159483019490945263ffffffff62010000820416948201949094526601000000000000909304909316606083015260019092015460808201529192506121b7576040517f4bba81f00000000000000000000000000000000000000000000000000000000081526001600160a01b0383166004820152602401610cf7565b6121c0846146e1565b60006121cb60025490565b90506122c87f00000000000000000000000000000000000000000000000000000000000000006001600160a01b031663293c49996040518163ffffffff1660e01b8152600401602060405180830381865afa15801561222e573d6000803e3d6000fd5b505050506040513d601f19601f820116820180604052508101906122529190615822565b6001600160a01b0316636352211e836040518263ffffffff1660e01b815260040161227f91815260200190565b602060405180830381865afa15801561229c573d6000803e3d6000fd5b505050506040513d601f19601f820116820180604052508101906122c09190615822565b82601c612990565b60608201516001600160a01b03161580159061230957506122ef606086016040870161557c565b6001600160a01b031682606001516001600160a01b031614155b801561232e57506000612322606087016040880161557c565b6001600160a01b031614155b801561235457506001600160a01b03831660009081526005602052604090206022015415155b156123a45760608201516040517f1460b5460000000000000000000000000000000000000000000000000000000081526001600160a01b0380861660048301529091166024820152604401610cf7565b60006123b6606087016040880161557c565b6001600160a01b03161480156123ed57506001600160a01b0383166000908152600560205260409020602281015460239091015414155b156123fd576123fd848484613059565b6040518060a0016040528060006001600160a01b0316876040016020810190612426919061557c565b6001600160a01b03161415151581526020016000151581526020018660200160208101906124549190615b0d565b63ffffffff16815260200160006124716060890160408a0161557c565b6001600160a01b0316146124945761248f606088016040890161557c565b61249a565b83606001515b6001600160a01b039081168252606097880135602092830152948516600090815260068252604090819020835181549385015192850151998501517fffffffffffffffffffffffffffffffffffffffffffffffffffffffffffff000090941690151561ff0019161761010092151592909202919091177fffffffffffff000000000000000000000000000000000000000000000000ffff166201000063ffffffff909916989098027fffffffffffff0000000000000000000000000000000000000000ffffffffffff16979097176601000000000000919095160293909317855550506080015160019092019190915550565b6000612597614778565b905090565b6040516001600160a01b038481166024830152838116604483015260648201839052610b739186918216906323b872dd906084015b604051602081830303815290604052915060e01b6020820180517bffffffffffffffffffffffffffffffffffffffffffffffffffffffff83818316178352505050506147ed565b60008061262460025490565b6040517f86202650000000000000000000000000000000000000000000000000000000008152600481018290526001600160a01b0386811660248301529192506000917f00000000000000000000000000000000000000000000000000000000000000001690638620265090604401602060405180830381865afa1580156126b0573d6000803e3d6000fd5b505050506040513d601f19601f820116820180604052508101906126d49190615822565b90506001600160a01b038116612728576040517fb61c181f000000000000000000000000000000000000000000000000000000008152600481018390526001600160a01b0386166024820152604401610cf7565b60006127348630612ed3565b604080516020810182526000815290517f13da83170000000000000000000000000000000000000000000000000000000081529192506001600160a01b038416916313da83179161279391309188918d918d918d918691600401615b79565b6020604051808303816000875af11580156127b2573d6000803e3d6000fd5b505050506040513d601f19601f820116820180604052508101906127d69190615af4565b9350806127e38730612ed3565b6127ed91906157bd565b84146127fb576127fb615a92565b505050949350505050565b6040805160208082018790528183018590526001600160a01b03841660608084019190915283518084039091018152608090920190925280519101206000906001600160a01b03851660009081526005602090815260408083208151610440810180845295965090946128af9387936002880192849291830191849182845b81548152602001906001019080831161288557505050918352505060209182015491015290614877565b8051909150819060028401906128c8908290602061539a565b5060208201518160200155905050848260010160008282546128ea919061583f565b92505081905550856001600160a01b0316846001600160a01b03167f584a41ff082fad99bb6e50c5767c347c762057fe5726539f0a8de49d84549c23856001856020015161293891906157bd565b61294487600201613279565b8c8b61294e61258d565b60408051968752602087019590955293850192909252606084015260808301526001600160a01b031660a082015260c00160405180910390a350505050505050565b600061299a61258d565b9050836001600160a01b0316816001600160a01b031614158015612a8257506040517f348b684e0000000000000000000000000000000000000000000000000000000081526001600160a01b0382811660048301528581166024830152604482018590526064820184905260016084830181905260a48301527f0000000000000000000000000000000000000000000000000000000000000000169063348b684e9060c401602060405180830381865afa158015612a5c573d6000803e3d6000fd5b505050506040513d601f19601f82011682018060405250810190612a809190615bcc565b155b15610b73576040517f264deeaa0000000000000000000000000000000000000000000000000000000081526001600160a01b038086166004830152821660248201526044810184905260648101839052608401610cf7565b6000612ae583611740565b905080821115612b2b576040517f60ec3e710000000000000000000000000000000000000000000000000000000081526004810183905260248101829052604401610cf7565b6000612b3660025490565b6040517f86202650000000000000000000000000000000000000000000000000000000008152600481018290526001600160a01b0386811660248301529192506000917f00000000000000000000000000000000000000000000000000000000000000001690638620265090604401602060405180830381865afa158015612bc2573d6000803e3d6000fd5b505050506040513d601f19601f82011682018060405250810190612be69190615822565b90506001600160a01b038116612c3a576040517fb61c181f000000000000000000000000000000000000000000000000000000008152600481018390526001600160a01b0386166024820152604401610cf7565b6001600160a01b03851661eeee14612e23576040517f70a082310000000000000000000000000000000000000000000000000000000081523060048201526000906001600160a01b038716906370a0823190602401602060405180830381865afa158015612cac573d6000803e3d6000fd5b505050506040513d601f19601f82011682018060405250810190612cd09190615af4565b9050612cdd8683876149af565b6040517f9e6eec05000000000000000000000000000000000000000000000000000000008152600481018490526001600160a01b0387811660248301526044820187905260006064830181905260c0608484015260c4830181905260e060a484015260e4830152831690639e6eec059061010401600060405180830381600087803b158015612d6b57600080fd5b505af1158015612d7f573d6000803e3d6000fd5b505050508481612d8f91906157bd565b6040517f70a082310000000000000000000000000000000000000000000000000000000081523060048201526001600160a01b038816906370a0823190602401602060405180830381865afa158015612dec573d6000803e3d6000fd5b505050506040513d601f19601f82011682018060405250810190612e109190615af4565b14612e1d57612e1d615a92565b50612ecc565b6040517f9e6eec05000000000000000000000000000000000000000000000000000000008152600481018390526001600160a01b0386811660248301526044820186905260006064830181905260c0608484015260c4830181905260e060a484015260e4830152821690639e6eec05908690610104016000604051808303818588803b158015612eb257600080fd5b505af1158015612ec6573d6000803e3d6000fd5b50505050505b5050505050565b600061eeed196001600160a01b03841601612ef957506001600160a01b038116316109ae565b6040517f70a082310000000000000000000000000000000000000000000000000000000081526001600160a01b0383811660048301528416906370a0823190602401602060405180830381865afa158015612f58573d6000803e3d6000fd5b505050506040513d601f19601f82011682018060405250810190612f7c9190615af4565b9392505050565b6001600160a01b0385166000908152600360209081526040808320600886901c8452909152902054600160ff84161b1615612ffc576040517fa4e6bcec0000000000000000000000000000000000000000000000000000000081526001600160a01b038616600482015260248101839052604401610cf7565b6001600160a01b0385166000908152600360209081526040808320600886901c845290915290208054600160ff85161b1790556001600160a01b038516600090815260046020526040902060010154611be290878686868661462f565b60608101516001600160a01b03166130a8576040517f04fdbe060000000000000000000000000000000000000000000000000000000081526001600160a01b0383166004820152602401610cf7565b60006130b2611a12565b905060038160038111156130c8576130c861574a565b14806130e5575060028160038111156130e3576130e361574a565b145b1561311c576040517fb10f8cca00000000000000000000000000000000000000000000000000000000815260040160405180910390fd5b6001600160a01b0383166000908152600560205260408120600181018054908390558154919290918390829061315b9067ffffffffffffffff16615bee565b91906101000a81548167ffffffffffffffff021916908367ffffffffffffffff16021790559050600061319084600201613279565b60228501546023860181905590915060006131ac6001836157bd565b9050886001600160a01b0316837f47c5615513b0f669da2dd7e3362a34610ca2695d0a0e2da2160cee952eab203c83876131e461258d565b6040805193845267ffffffffffffffff90921660208401526001600160a01b03169082015260600160405180910390a3600060405180606001604052808a606001516001600160a01b0316815260200187815260200160405180604001604052808867ffffffffffffffff16815260200187815250815250905061326c8b838c898d86614a6d565b5050505050505050505050565b60208101546000908082036132b057507f27ae5ba08d7291c96c8cbddcc148bf48a6d68c7974b94356f53754ef6171d75792915050565b60008360018316156132d2578054600052600060205260406000209350613b85565b60028316156133175760018101546000527fad3228b676f7d3cd4284a5443f17f1962b36e491b30a40b2405849e597ba5fb56020526040600020935060019150613b85565b600483161561335c5760028101546000527fb4c11951957c6f8f642c4af61cd6b24640fec6dc7fc607ee8206a99e92410d306020526040600020935060029150613b85565b60088316156133a15760038101546000527f21ddb9a356815c3fac1026b6dec5df3124afbadb485c9ba5a3e3398a04b7ba856020526040600020935060039150613b85565b60108316156133e65760048101546000527fe58769b32a1beaf1ea27375a44095a0d1fb664ce2dd358e7fcbfb78c26a193446020526040600020935060049150613b85565b602083161561342b5760058101546000527f0eb01ebfc9ed27500cd4dfc979272d1f0913cc9f66540d7e8005811109e1cf2d6020526040600020935060059150613b85565b60408316156134705760068101546000527f887c22bd8750d34016ac3c66b5ff102dacdd73f6b014e710b51e8022af9a19686020526040600020935060069150613b85565b60808316156134b55760078101546000527fffd70157e48063fc33c97a050f7f640233bf646cc98d9524c6b92bcf3ab56f836020526040600020935060079150613b85565b6101008316156134fb5760088101546000527f9867cc5f7f196b93bae1e27e6320742445d290f2263827498b54fec539f756af6020526040600020935060089150613b85565b6102008316156135415760098101546000527fcefad4e508c098b9a7e1d8feb19955fb02ba9675585078710969d3440f5054e06020526040600020935060099150613b85565b61040083161561358757600a8101546000527ff9dc3e7fe016e050eff260334f18a5d4fe391d82092319f5964f2e2eb7c1c3a560205260406000209350600a9150613b85565b6108008316156135cd57600b8101546000527ff8b13a49e282f609c317a833fb8d976d11517c571d1221a265d25af778ecf89260205260406000209350600b9150613b85565b61100083161561361357600c8101546000527f3490c6ceeb450aecdc82e28293031d10c7d73bf85e57bf041a97360aa2c5d99c60205260406000209350600c9150613b85565b61200083161561365957600d8101546000527fc1df82d9c4b87413eae2ef048f94b4d3554cea73d92b0f7af96e0271c691e2bb60205260406000209350600d9150613b85565b61400083161561369f57600e8101546000527f5c67add7c6caf302256adedf7ab114da0acfe870d449a3a489f781d659e8becc60205260406000209350600e9150613b85565b6180008316156136e557600f8101546000527fda7bce9f4e8618b6bd2f4132ce798cdc7a60e7e1460a7299e3c6342a579626d260205260406000209350600f9150613b85565b6201000083161561372c5760108101546000527f2733e50f526ec2fa19a22b31e8ed50f23cd1fdf94c9154ed3a7609a2f1ff981f6020526040600020935060109150613b85565b620200008316156137735760118101546000527fe1d3b5c807b281e4683cc6d6315cf95b9ade8641defcb32372f1c126e398ef7a6020526040600020935060119150613b85565b620400008316156137ba5760128101546000527f5a2dce0a8a7f68bb74560f8f71837c2c2ebbcbf7fffb42ae1896f13f7c7479a06020526040600020935060129150613b85565b620800008316156138015760138101546000527fb46a28b6f55540f89444f63de0378e3d121be09e06cc9ded1c20e65876d36aa06020526040600020935060139150613b85565b621000008316156138485760148101546000527fc65e9645644786b620e2dd2ad648ddfcbf4a7e5b1a3a4ecfe7f64667a3f0b7e26020526040600020935060149150613b85565b6220000083161561388f5760158101546000527ff4418588ed35a2458cffeb39b93d26f18d2ab13bdce6aee58e7b99359ec2dfd96020526040600020935060159150613b85565b624000008316156138d65760168101546000527f5a9c16dc00d6ef18b7933a6f8dc65ccb55667138776f7dea101070dc8796e3776020526040600020935060169150613b85565b6280000083161561391d5760178101546000527f4df84f40ae0c8229d0d6069e5c8f39a7c299677a09d367fc7b05e3bc380ee6526020526040600020935060179150613b85565b63010000008316156139655760188101546000527fcdc72595f74c7b1043d0e1ffbab734648c838dfb0527d971b602bc216c9619ef6020526040600020935060189150613b85565b63020000008316156139ad5760198101546000527f0abf5ac974a1ed57f4050aa510dd9c74f508277b39d7973bb2dfccc5eeb0618d6020526040600020935060199150613b85565b63040000008316156139f557601a8101546000527fb8cd74046ff337f0a7bf2c8e03e10f642c1886798d71806ab1e888d9e5ee87d060205260406000209350601a9150613b85565b6308000000831615613a3d57601b8101546000527f838c5655cb21c6cb83313b5a631175dff4963772cce9108188b34ac87c81c41e60205260406000209350601b9150613b85565b6310000000831615613a8557601c8101546000527f662ee4dd2dd7b2bc707961b1e646c4047669dcb6584f0d8d770daf5d7e7deb2e60205260406000209350601c9150613b85565b6320000000831615613acd57601d8101546000527f388ab20e2573d171a88108e79d820e98f26c0b84aa8b2f4aa4968dbb818ea32260205260406000209350601d9150613b85565b6340000000831615613b1557601e8101546000527f93237c50ba75ee485f4c22adf2f741400bdf8d6a9cc7df7ecae576221665d73560205260406000209350601e9150613b85565b6380000000831615613b5d57601f8101546000527f8448818bb4ae4562849e949e17ac16e0be16688e156b5cf15e098c627c0056a960205260406000209350601f9150613b85565b7f27ae5ba08d7291c96c8cbddcc148bf48a6d68c7974b94356f53754ef6171d7579350602091505b601e8211614627576001821015613be357600283168015613bb157600182015460005284602052613bda565b846000527fad3228b676f7d3cd4284a5443f17f1962b36e491b30a40b2405849e597ba5fb56020525b50604060002093505b6002821015613c3957600483168015613c0757600282015460005284602052613c30565b846000527fb4c11951957c6f8f642c4af61cd6b24640fec6dc7fc607ee8206a99e92410d306020525b50604060002093505b6003821015613c8f57600883168015613c5d57600382015460005284602052613c86565b846000527f21ddb9a356815c3fac1026b6dec5df3124afbadb485c9ba5a3e3398a04b7ba856020525b50604060002093505b6004821015613ce557601083168015613cb357600482015460005284602052613cdc565b846000527fe58769b32a1beaf1ea27375a44095a0d1fb664ce2dd358e7fcbfb78c26a193446020525b50604060002093505b6005821015613d3b57602083168015613d0957600582015460005284602052613d32565b846000527f0eb01ebfc9ed27500cd4dfc979272d1f0913cc9f66540d7e8005811109e1cf2d6020525b50604060002093505b6006821015613d9157604083168015613d5f57600682015460005284602052613d88565b846000527f887c22bd8750d34016ac3c66b5ff102dacdd73f6b014e710b51e8022af9a19686020525b50604060002093505b6007821015613de757608083168015613db557600782015460005284602052613dde565b846000527fffd70157e48063fc33c97a050f7f640233bf646cc98d9524c6b92bcf3ab56f836020525b50604060002093505b6008821015613e3e5761010083168015613e0c57600882015460005284602052613e35565b846000527f9867cc5f7f196b93bae1e27e6320742445d290f2263827498b54fec539f756af6020525b50604060002093505b6009821015613e955761020083168015613e6357600982015460005284602052613e8c565b846000527fcefad4e508c098b9a7e1d8feb19955fb02ba9675585078710969d3440f5054e06020525b50604060002093505b600a821015613eec5761040083168015613eba57600a82015460005284602052613ee3565b846000527ff9dc3e7fe016e050eff260334f18a5d4fe391d82092319f5964f2e2eb7c1c3a56020525b50604060002093505b600b821015613f435761080083168015613f1157600b82015460005284602052613f3a565b846000527ff8b13a49e282f609c317a833fb8d976d11517c571d1221a265d25af778ecf8926020525b50604060002093505b600c821015613f9a5761100083168015613f6857600c82015460005284602052613f91565b846000527f3490c6ceeb450aecdc82e28293031d10c7d73bf85e57bf041a97360aa2c5d99c6020525b50604060002093505b600d821015613ff15761200083168015613fbf57600d82015460005284602052613fe8565b846000527fc1df82d9c4b87413eae2ef048f94b4d3554cea73d92b0f7af96e0271c691e2bb6020525b50604060002093505b600e821015614048576140008316801561401657600e8201546000528460205261403f565b846000527f5c67add7c6caf302256adedf7ab114da0acfe870d449a3a489f781d659e8becc6020525b50604060002093505b600f82101561409f576180008316801561406d57600f82015460005284602052614096565b846000527fda7bce9f4e8618b6bd2f4132ce798cdc7a60e7e1460a7299e3c6342a579626d26020525b50604060002093505b60108210156140f75762010000831680156140c5576010820154600052846020526140ee565b846000527f2733e50f526ec2fa19a22b31e8ed50f23cd1fdf94c9154ed3a7609a2f1ff981f6020525b50604060002093505b601182101561414f57620200008316801561411d57601182015460005284602052614146565b846000527fe1d3b5c807b281e4683cc6d6315cf95b9ade8641defcb32372f1c126e398ef7a6020525b50604060002093505b60128210156141a75762040000831680156141755760128201546000528460205261419e565b846000527f5a2dce0a8a7f68bb74560f8f71837c2c2ebbcbf7fffb42ae1896f13f7c7479a06020525b50604060002093505b60138210156141ff5762080000831680156141cd576013820154600052846020526141f6565b846000527fb46a28b6f55540f89444f63de0378e3d121be09e06cc9ded1c20e65876d36aa06020525b50604060002093505b60148210156142575762100000831680156142255760148201546000528460205261424e565b846000527fc65e9645644786b620e2dd2ad648ddfcbf4a7e5b1a3a4ecfe7f64667a3f0b7e26020525b50604060002093505b60158210156142af57622000008316801561427d576015820154600052846020526142a6565b846000527ff4418588ed35a2458cffeb39b93d26f18d2ab13bdce6aee58e7b99359ec2dfd96020525b50604060002093505b60168210156143075762400000831680156142d5576016820154600052846020526142fe565b846000527f5a9c16dc00d6ef18b7933a6f8dc65ccb55667138776f7dea101070dc8796e3776020525b50604060002093505b601782101561435f57628000008316801561432d57601782015460005284602052614356565b846000527f4df84f40ae0c8229d0d6069e5c8f39a7c299677a09d367fc7b05e3bc380ee6526020525b50604060002093505b60188210156143b857630100000083168015614386576018820154600052846020526143af565b846000527fcdc72595f74c7b1043d0e1ffbab734648c838dfb0527d971b602bc216c9619ef6020525b50604060002093505b6019821015614411576302000000831680156143df57601982015460005284602052614408565b846000527f0abf5ac974a1ed57f4050aa510dd9c74f508277b39d7973bb2dfccc5eeb0618d6020525b50604060002093505b601a82101561446a5763040000008316801561443857601a82015460005284602052614461565b846000527fb8cd74046ff337f0a7bf2c8e03e10f642c1886798d71806ab1e888d9e5ee87d06020525b50604060002093505b601b8210156144c35763080000008316801561449157601b820154600052846020526144ba565b846000527f838c5655cb21c6cb83313b5a631175dff4963772cce9108188b34ac87c81c41e6020525b50604060002093505b601c82101561451c576310000000831680156144ea57601c82015460005284602052614513565b846000527f662ee4dd2dd7b2bc707961b1e646c4047669dcb6584f0d8d770daf5d7e7deb2e6020525b50604060002093505b601d8210156145755763200000008316801561454357601d8201546000528460205261456c565b846000527f388ab20e2573d171a88108e79d820e98f26c0b84aa8b2f4aa4968dbb818ea3226020525b50604060002093505b601e8210156145ce5763400000008316801561459c57601e820154600052846020526145c5565b846000527f93237c50ba75ee485f4c22adf2f741400bdf8d6a9cc7df7ecae576221665d7356020525b50604060002093505b601f821015614627576380000000831680156145f557601f8201546000528460205261461e565b846000527f8448818bb4ae4562849e949e17ac16e0be16688e156b5cf15e098c627c0056a96020525b50604060002093505b505050919050565b6040805160208082018890528183018790526001600160a01b038616606080840191909152835180840390910181526080830180855281519183019190912061048090930190935260009261469d92918590828261040080828437600092019190915250879150614fd19050565b9050868114610dad576040517ee587d20000000000000000000000000000000000000000000000000000000081526004810182905260248101889052604401610cf7565b62030d406146f56040830160208401615b0d565b63ffffffff1610801561471f575061eeee614713602083018361557c565b6001600160a01b031614155b15610a68576147346040820160208301615b0d565b6040517f555d0f1000000000000000000000000000000000000000000000000000000000815263ffffffff909116600482015262030d406024820152604401610cf7565b6000366014336001600160a01b037f0000000000000000000000000000000000000000000000000000000000000000161480156147b55750808210155b156147e5576000366147c783856157bd565b6147d2928290615c15565b6147db91615c3f565b60601c9250505090565b339250505090565b600080602060008451602086016000885af180614810576040513d6000823e3d81fd5b50506000513d91508115614828578060011415614835565b6001600160a01b0384163b155b15610b73576040517f5274afe70000000000000000000000000000000000000000000000000000000081526001600160a01b0385166004820152602401610cf7565b61487f6153d8565b6000836020018051614890906157e6565b90819052905060016148a460206002615d6b565b6148ae91906157bd565b8111156148e7576040517f8eab04bb00000000000000000000000000000000000000000000000000000000815260040160405180910390fd5b60005b602081101561497c578160011660010361492357845184908260208110614913576149136157d0565b6020020152508391506109ae9050565b84518160208110614936576149366157d0565b602002015184604051602001614956929190918252602082015260400190565b60408051601f1981840301815291905280516020909101209350600191821c91016148ea565b506040517f8eab04bb00000000000000000000000000000000000000000000000000000000815260040160405180910390fd5b604080516001600160a01b038416602482015260448082018490528251808303909101815260649091019091526020810180517bffffffffffffffffffffffffffffffffffffffffffffffffffffffff167f095ea7b300000000000000000000000000000000000000000000000000000000179052614a2e848261531f565b610b73576040516001600160a01b03848116602483015260006044830152614a6391869182169063095ea7b3906064016125d1565b610b7384826147ed565b85600003614aa7576040517f3cb7b09b00000000000000000000000000000000000000000000000000000000815260040160405180910390fd5b620493e060608415614c60576040840151614ac89063ffffffff168361583f565b915061eeed196001600160a01b03871601614bbb5760007f00000000000000000000000000000000000000000000000000000000000000006001600160a01b031663e861e9076040518163ffffffff1660e01b8152600401602060405180830381865afa158015614b3d573d6000803e3d6000fd5b505050506040513d601f19601f82011682018060405250810190614b619190615822565b9050806001600160a01b031663d0e30db0876040518263ffffffff1660e01b81526004016000604051808303818588803b158015614b9e57600080fd5b505af1158015614bb2573d6000803e3d6000fd5b50939950505050505b60408051600180825281830190925290816020015b6040805180820190915260008082526020820152815260200190600190039081614bd05790505090506040518060400160405280876001600160a01b031681526020018681525081600081518110614c2a57614c2a6157d0565b6020026020010181905250614c60867f0000000000000000000000000000000000000000000000000000000000000000876149af565b60006040518060a00160405280614c743090565b604080516001600160a01b03909216602083015201604051602081830303815290604052815260200185604051602001614cae9190615aa8565b604051602081830303815290604052815260200183815260200160006001600160a01b03168152602001614d5560405180602001604052808781525060408051915160248084019190915281518084039091018152604490920190526020810180517bffffffffffffffffffffffffffffffffffffffffffffffffffffffff167f97a657c90000000000000000000000000000000000000000000000000000000017905290565b90526040517f20487ded0000000000000000000000000000000000000000000000000000000081529091506000906001600160a01b037f000000000000000000000000000000000000000000000000000000000000000016906320487ded90614de4907f0000000000000000000000000000000000000000000000000000000000000000908690600401615d77565b602060405180830381865afa158015614e01573d6000803e3d6000fd5b505050506040513d601f19601f82011682018060405250810190614e259190615af4565b905089811115614e6b576040517f0ee99a47000000000000000000000000000000000000000000000000000000008152600481018b905260248101829052604401610cf7565b6040517f96f4e9f90000000000000000000000000000000000000000000000000000000081526001600160a01b037f000000000000000000000000000000000000000000000000000000000000000016906396f4e9f9908390614ef4907f0000000000000000000000000000000000000000000000000000000000000000908790600401615d77565b60206040518083038185885af1158015614f12573d6000803e3d6000fd5b50505050506040513d601f19601f82011682018060405250810190614f379190615af4565b506000614f4261258d565b6001600160a01b0316614f55838d6157bd565b604051600081818185875af1925050503d8060008114614f91576040519150601f19603f3d011682016040523d82523d6000602084013e614f96565b606091505b505090508061326c576040517f97484b1000000000000000000000000000000000000000000000000000000000815260040160405180910390fd5b6020600582811b8216948552835194820394909452604060008181206002851615871b808503919091528386015190528181206004851615871b808503919091528286015190528181206008851615871b80850391909152606086015190528181206010851615871b8085039190915260808087015190915282822084861615881b8086039190915260a0870151905282822083861615881b8086039190915260c0870151905282822090851615871b8085039190915260e0860151905281812061010080861615881b80860392909252860151905281812061020080861615881b80860392909252610120870151909152828220610400861615881b808603919091526101408701519052828220610800861615881b808603919091526101608701519052828220611000861615881b808603919091526101808701519052828220612000861615881b808603919091526101a08701519052828220614000861615881b808603919091526101c08701519052828220618000861615881b808603919091526101e0870151905282822062010000861615881b8086039190915290860151905281812062020000851615871b80850391909152610220860151905281812062040000851615871b80850391909152610240860151905281812062080000851615871b80850391909152610260860151905281812062100000851615871b80850391909152610280860151905281812062200000851615871b808503919091526102a0860151905281812062400000851615871b808503919091526102c0860151905281812062800000851615871b808503919091526102e086015190528181206301000000851615871b8085039190915261030086015190528181206302000000851615871b8085039190915261032086015190528181206304000000851615871b8085039190915261034086015190528181206308000000851615871b8085039190915261036086015190528181206310000000851615871b8085039190915261038086015190528181206320000000851615871b808503919091526103a086015190528181206340000000851615871b808503919091526103c0860151905281812063800000009094161590951b91829003929092526103e090920151909152902090565b6000806000806020600086516020880160008a5af192503d91506000519050828015615364575081156153555780600114615364565b6000866001600160a01b03163b115b9695505050505050565b604080516080810182526000808252602082015290810161538d6153d8565b8152602001600081525090565b82602081019282156153c8579160200282015b828111156153c85782518255916020019190600101906153ad565b506153d49291506153eb565b5090565b604051806040016040528061538d615400565b5b808211156153d457600081556001016153ec565b6040518061040001604052806020906020820280368337509192915050565b60006020828403121561543157600080fd5b81357fffffffff0000000000000000000000000000000000000000000000000000000081168114612f7c57600080fd5b60006104a0828403121561547457600080fd5b50919050565b6000806020838503121561548d57600080fd5b823567ffffffffffffffff808211156154a557600080fd5b818501915085601f8301126154b957600080fd5b8135818111156154c857600080fd5b8660208260071b85010111156154dd57600080fd5b60209290920196919550909350505050565b60006080828403121561547457600080fd5b60006080828403121561551357600080fd5b612f7c83836154ef565b6001600160a01b0381168114610a6857600080fd5b6000806000806080858703121561554857600080fd5b84359350602085013561555a8161551d565b92506040850135915060608501356155718161551d565b939692955090935050565b60006020828403121561558e57600080fd5b8135612f7c8161551d565b6000602082840312156155ab57600080fd5b813564ffffffffff81168114612f7c57600080fd5b815167ffffffffffffffff16815260208083015190820152604081016109ae565b600080602083850312156155f457600080fd5b823567ffffffffffffffff8082111561560c57600080fd5b818501915085601f83011261562057600080fd5b81358181111561562f57600080fd5b8660208260051b85010111156154dd57600080fd5b815167ffffffffffffffff1681526020808301518183015260408084015180516104808501939260009086015b8482101561568f578251815291840191600191909101908401615671565b5050500151610440830152606092909201516104609091015290565b6000602082840312156156bd57600080fd5b813567ffffffffffffffff8111156156d457600080fd5b820160a08185031215612f7c57600080fd5b600080602083850312156156f957600080fd5b823567ffffffffffffffff8082111561571157600080fd5b818501915085601f83011261572557600080fd5b81358181111561573457600080fd5b8660206104a0830285010111156154dd57600080fd5b634e487b7160e01b600052602160045260246000fd5b60208101600483106157745761577461574a565b91905290565b60208101600283106157745761577461574a565b6000602082840312156157a057600080fd5b5035919050565b634e487b7160e01b600052601160045260246000fd5b818103818111156109ae576109ae6157a7565b634e487b7160e01b600052603260045260246000fd5b600060001982036157f9576157f96157a7565b5060010190565b60008261581d57634e487b7160e01b600052601260045260246000fd5b500490565b60006020828403121561583457600080fd5b8151612f7c8161551d565b808201808211156109ae576109ae6157a7565b803567ffffffffffffffff8116811461586a57600080fd5b919050565b60006020828403121561588157600080fd5b612f7c82615852565b6040808252810183905260008460608301825b868110156158cd5782356158b08161551d565b6001600160a01b031682526020928301929091019060010161589d565b5080925050506001600160a01b0383166020830152949350505050565b6000808335601e1984360301811261590157600080fd5b83018035915067ffffffffffffffff82111561591c57600080fd5b60200191503681900382131561593157600080fd5b9250929050565b6040805190810167ffffffffffffffff8111828210171561596957634e487b7160e01b600052604160045260246000fd5b60405290565b6000818303608081121561598257600080fd5b6040516060810181811067ffffffffffffffff821117156159b357634e487b7160e01b600052604160045260246000fd5b60405283356159c18161551d565b8152602084810135908201526040603f19830112156159df57600080fd5b6159e7615938565b91506159f560408501615852565b8252606093909301356020820152604083015250919050565b6000808335601e19843603018112615a2557600080fd5b83018035915067ffffffffffffffff821115615a4057600080fd5b6020019150600681901b360382131561593157600080fd5b600060408284031215615a6a57600080fd5b615a72615938565b8235615a7d8161551d565b81526020928301359281019290925250919050565b634e487b7160e01b600052600160045260246000fd5b60006080820190506001600160a01b038351168252602083015160208301526040830151615aed6040840182805167ffffffffffffffff168252602090810151910152565b5092915050565b600060208284031215615b0657600080fd5b5051919050565b600060208284031215615b1f57600080fd5b813563ffffffff81168114612f7c57600080fd5b6000815180845260005b81811015615b5957602081850181015186830182015201615b3d565b506000602082860101526020601f19601f83011685010191505092915050565b60006001600160a01b03808a168352886020840152876040840152808716606084015285608084015280851660a08401525060e060c0830152615bbf60e0830184615b33565b9998505050505050505050565b600060208284031215615bde57600080fd5b81518015158114612f7c57600080fd5b600067ffffffffffffffff808316818103615c0b57615c0b6157a7565b6001019392505050565b60008085851115615c2557600080fd5b83861115615c3257600080fd5b5050820193919092039150565b7fffffffffffffffffffffffffffffffffffffffff0000000000000000000000008135818116916014851015615c7f5780818660140360031b1b83161692505b505092915050565b600181815b80851115615cc2578160001904821115615ca857615ca86157a7565b80851615615cb557918102915b93841c9390800290615c8c565b509250929050565b600082615cd9575060016109ae565b81615ce6575060006109ae565b8160018114615cfc5760028114615d0657615d22565b60019150506109ae565b60ff841115615d1757615d176157a7565b50506001821b6109ae565b5060208310610133831016604e8410600b8410161715615d45575081810a6109ae565b615d4f8383615c87565b8060001904821115615d6357615d636157a7565b029392505050565b6000612f7c8383615cca565b6000604067ffffffffffffffff851683526020604081850152845160a06040860152615da660e0860182615b33565b905081860151603f1980878403016060880152615dc38383615b33565b6040890151888203830160808a01528051808352908601945060009350908501905b80841015615e1757845180516001600160a01b0316835286015186830152938501936001939093019290860190615de5565b5060608901516001600160a01b031660a08901526080890151888203830160c08a01529550615e468187615b33565b9a995050505050505050505056fea26469706673582212209c55e86a735e54c8dcf952b1ec61ed953cdc81d6288653e8fc1ed1525419af0f64736f6c63430008170033",
	"deployedBytecode": "0x6080604052600436106102535760003560e01c80637de6fba211610138578063bf557aee116100b0578063cdfceeba1161007f578063f434c91411610064578063f434c914146108d0578063fe4b84df14610904578063fe5f42ca1461092457600080fd5b8063cdfceeba1461087d578063d5f39488146108b057600080fd5b8063bf557aee146107b5578063c1854129146107fa578063c19d93fb1461081a578063c6525f2c1461083c57600080fd5b806392ee1ea711610107578063b0f479a1116100ec578063b0f479a11461074f578063b59ef50f14610782578063b71c1179146107a257600080fd5b806392ee1ea7146107185780639e6d7d431461072f57600080fd5b80637de6fba21461058f578063802c8fa01461069757806385572ffb146106c457806388bc2ef3146106e457600080fd5b8063551ebbf0116101cb57806369d31fdd1161019a578063754515591161017f57806375451559146105085780637d1d0c5b146105285780637da0a8771461055c57600080fd5b806369d31fdd1461047c5780636d9e384b1461048f57600080fd5b8063551ebbf0146103cf578063572b6c05146103ef5780636284386a1461043c57806369ce22331461045c57600080fd5b80631d831d5c1161022257806338eb20441161020757806338eb2044146103715780633a5de07d146103845780633fafa127146103b057600080fd5b80631d831d5c1461032a5780632241dc521461035e57600080fd5b806301ffc9a71461025f57806305696511146102945780630f648214146102e157806311cda4151461030357600080fd5b3661025a57005b600080fd5b34801561026b57600080fd5b5061027f61027a36600461541f565b610958565b60405190151581526020015b60405180910390f35b3480156102a057600080fd5b506102c87f00000000000000000000000000000000000000000000000045849994fc9c7b1581565b60405167ffffffffffffffff909116815260200161028b565b3480156102ed57600080fd5b506103016102fc366004615461565b6109b4565b005b34801561030f57600080fd5b50305b6040516001600160a01b03909116815260200161028b565b34801561033657600080fd5b506103127f0000000000000000000000004d0edd347fb1fa21589c1e109b3474924be8763681565b61030161036c36600461547a565b610a6b565b61030161037f366004615501565b610b79565b34801561039057600080fd5b5061039b62030d4081565b60405163ffffffff909116815260200161028b565b3480156103bc57600080fd5b506002545b60405190815260200161028b565b3480156103db57600080fd5b506103016103ea366004615532565b610b83565b3480156103fb57600080fd5b5061027f61040a36600461557c565b7f000000000000000000000000c29d6995ab3b0df4650ad643adeac55e7acbb5666001600160a01b0390811691161490565b34801561044857600080fd5b50610301610457366004615599565b610db6565b34801561046857600080fd5b5061030161047736600461557c565b611009565b61030161048a366004615501565b6110a8565b34801561049b57600080fd5b506104fb6104aa36600461557c565b6040805180820190915260008082526020820152506001600160a01b03166000908152600460209081526040918290208251808401909352805467ffffffffffffffff168352600101549082015290565b60405161028b91906155c0565b34801561051457600080fd5b506103016105233660046155e1565b61124f565b34801561053457600080fd5b506103c17f000000000000000000000000000000000000000000000000000000000000000181565b34801561056857600080fd5b507f000000000000000000000000c29d6995ab3b0df4650ad643adeac55e7acbb566610312565b34801561059b57600080fd5b506106426105aa36600461557c565b6040805160a0808201835260008083526020808401829052838501829052606080850183905260809485018390526001600160a01b039687168352600682529185902085519384018652805460ff8082161515865261010082041615159285019290925262010000820463ffffffff169584019590955266010000000000009004909416938101939093526001909101549082015290565b60405161028b9190600060a08201905082511515825260208301511515602083015263ffffffff60408401511660408301526001600160a01b0360608401511660608301526080830151608083015292915050565b3480156106a357600080fd5b506106b76106b236600461557c565b6113ea565b60405161028b9190615644565b3480156106d057600080fd5b506103016106df3660046156ab565b61148a565b3480156106f057600080fd5b506103127f0000000000000000000000000061e516886a0540f63157f112c0588ee0651dcf81565b34801561072457600080fd5b5061039b620493e081565b34801561073b57600080fd5b506103c161074a36600461557c565b611740565b34801561075b57600080fd5b507f000000000000000000000000141fa059441e0ca23ce184b6a78bafd2a517dde8610312565b34801561078e57600080fd5b5061030161079d366004615461565b611770565b6103016107b036600461557c565b611896565b3480156107c157600080fd5b5061027f6107d036600461557c565b6001600160a01b039081166000908152600660205260409020546601000000000000900416151590565b34801561080657600080fd5b506103016108153660046156e6565b6119d9565b34801561082657600080fd5b5061082f611a12565b60405161028b9190615760565b34801561084857600080fd5b506108707f000000000000000000000000000000000000000000000000000000000000000181565b60405161028b919061577a565b34801561088957600080fd5b507f00000000000000000000000000000000000000000000000000000000000000016103c1565b3480156108bc57600080fd5b50600054610312906001600160a01b031681565b3480156108dc57600080fd5b506103127f00000000000000000000000004fd6913d6c32d8c216e153a43c04b1857a7793d81565b34801561091057600080fd5b5061030161091f36600461578e565b611a5b565b34801561093057600080fd5b506103127f000000000000000000000000141fa059441e0ca23ce184b6a78bafd2a517dde881565b60007fffffffff0000000000000000000000000000000000000000000000000000000082167f85572ffb0000000000000000000000000000000000000000000000000000000014806109ae57506109ae82611bea565b92915050565b6109ec60608201356109c9602084018461557c565b60808401356109de606086016040870161557c565b602086013560a08701611d19565b608081013560056000610a02602085018561557c565b6001600160a01b03166001600160a01b031681526020019081526020016000206001016000828254610a3491906157bd565b90915550610a689050610a4a602083018361557c565b608083013560608401803590610a63906040870161557c565b611f4a565b50565b6000805b82811015610b2657600060056000868685818110610a8f57610a8f6157d0565b610aa5926020608090920201908101915061557c565b6001600160a01b03168152602081019190915260400160009081209150858584818110610ad457610ad46157d0565b9050608002016040016020810190610aec919061557c565b6001600160a01b0316148015610b0a57506022810154602382015414155b15610b1d5782610b19816157e6565b9350505b50600101610a6f565b5060005b82811015610b7357610b6b848483818110610b4757610b476157d0565b90506080020160008411610b5c5760006120f3565b610b668434615800565b6120f3565b600101610b2a565b50505050565b610a6881346120f3565b6001600160a01b038316610bc3576040517f8d3329cd00000000000000000000000000000000000000000000000000000000815260040160405180910390fd5b60007f0000000000000000000000004d0edd347fb1fa21589c1e109b3474924be876366001600160a01b031663ea78803f610bfd60025490565b6040518263ffffffff1660e01b8152600401610c1b91815260200190565b602060405180830381865afa158015610c38573d6000803e3d6000fd5b505050506040513d601f19601f82011682018060405250810190610c5c9190615822565b90506001600160a01b038116610c9e576040517fcaa06d2000000000000000000000000000000000000000000000000000000000815260040160405180910390fd5b6001600160a01b03821660009081526006602052604090205460ff16610d00576040517f04fdbe060000000000000000000000000000000000000000000000000000000081526001600160a01b03831660048201526024015b60405180910390fd5b6000610d0a611a12565b90506003816003811115610d2057610d2061574a565b1480610d3d57506002816003811115610d3b57610d3b61574a565b145b15610d74576040517fb10f8cca00000000000000000000000000000000000000000000000000000000815260040160405180910390fd5b610d91610d7f61258d565b6001600160a01b03841690308961259c565b6000610d9f83888688612618565b9050610dad87858389612806565b50505050505050565b6000610dc0611a12565b90506003816003811115610dd657610dd661574a565b1480610df357506002816003811115610df157610df161574a565b145b15610e2a576040517fb10f8cca00000000000000000000000000000000000000000000000000000000815260040160405180910390fd5b6000610e3560025490565b9050610f327f0000000000000000000000000061e516886a0540f63157f112c0588ee0651dcf6001600160a01b031663293c49996040518163ffffffff1660e01b8152600401602060405180830381865afa158015610e98573d6000803e3d6000fd5b505050506040513d601f19601f82011682018060405250810190610ebc9190615822565b6001600160a01b0316636352211e836040518263ffffffff1660e01b8152600401610ee991815260200190565b602060405180830381865afa158015610f06573d6000803e3d6000fd5b505050506040513d601f19601f82011682018060405250810190610f2a9190615822565b82601e612990565b6000610f41621275004261583f565b905064ffffffffff841615801590610f5f5750808464ffffffffff16105b15610fa6576040517f044691ac00000000000000000000000000000000000000000000000000000000815264ffffffffff8516600482015260248101829052604401610cf7565b64ffffffffff84166001557f455efa76af2a8686dc0dd3041bda89ece5ba4691277d525e2161003bbca8b24584610fdb61258d565b6040805164ffffffffff90931683526001600160a01b0390911660208301520160405180910390a150505050565b60007f0000000000000000000000000000000000000000000000000000000000000001600181111561103d5761103d61574a565b14611096577f00000000000000000000000000000000000000000000000000000000000000016040517fb039c395000000000000000000000000000000000000000000000000000000008152600401610cf7919061577a565b610a68816110a383611740565b612ada565b6110c16110b361258d565b6001600160a01b0316301490565b61110b576110cd61258d565b6040517f36183c8f0000000000000000000000000000000000000000000000000000000081526001600160a01b039091166004820152602401610cf7565b600060048161111d602085018561557c565b6001600160a01b0316815260208101919091526040908101600020805490925067ffffffffffffffff1690611158906060850190850161586f565b67ffffffffffffffff1611801561118857506003611174611a12565b60038111156111855761118561574a565b14155b1561124b5761119d606083016040840161586f565b815467ffffffffffffffff191667ffffffffffffffff91909116178155606082013560018201556111d1602083018361557c565b6001600160a01b03167fc69d3412489554fb7820c4c2784cb644b6c79bfc117444b93977d3d33a9b8eac61120b606085016040860161586f565b606085013561121861258d565b6040805167ffffffffffffffff909416845260208401929092526001600160a01b03169082015260600160405180910390a25b5050565b600061125a60025490565b90506112bd7f0000000000000000000000000061e516886a0540f63157f112c0588ee0651dcf6001600160a01b031663293c49996040518163ffffffff1660e01b8152600401602060405180830381865afa158015610e98573d6000803e3d6000fd5b60005b828110156113a2576000600660008686858181106112e0576112e06157d0565b90506020020160208101906112f5919061557c565b6001600160a01b031681526020810191909152604001600090812080547fffffffffffffffffffffffffffffffffffffffffffffffffffffffffffffff001692151592909217909155600190600690868685818110611356576113566157d0565b905060200201602081019061136b919061557c565b6001600160a01b03168152602081019190915260400160002080549115156101000261ff00199092169190911790556001016112c0565b507f8021bce60b20a9afb57085869a3552e0ee5b272b868df894fb30c5e90e74c07283836113ce61258d565b6040516113dd9392919061588a565b60405180910390a1505050565b6113f261536e565b6001600160a01b0382166000908152600560209081526040918290208251608081018452815467ffffffffffffffff1681526001820154818401528351610440810180865291949293858401939192600286019284929083019184919082845b815481526020019060010190808311611452575050509183525050602091820154908201529082526023929092015491015292915050565b7f000000000000000000000000141fa059441e0ca23ce184b6a78bafd2a517dde86001600160a01b03166114bc61258d565b6001600160a01b0316146114d2576110cd61258d565b60006114e160608301836158ea565b8101906114ee919061596f565b905060006114ff60408401846158ea565b81019061150c919061557c565b90506001600160a01b03811630141580611569575067ffffffffffffffff7f00000000000000000000000000000000000000000000000045849994fc9c7b151661155c604085016020860161586f565b67ffffffffffffffff1614155b156115ab576040517f36183c8f0000000000000000000000000000000000000000000000000000000081526001600160a01b0382166004820152602401610cf7565b6115b86080840184615a0e565b90506001036116d65760006115d06080850185615a0e565b60008181106115e1576115e16157d0565b9050604002018036038101906115f79190615a58565b905061eeee6001600160a01b031683600001516001600160a01b0316036116d4578051600061162861eeee30612ed3565b60208401516040517f2e1a7d4d0000000000000000000000000000000000000000000000000000000081529192506001600160a01b03841691632e1a7d4d916116779160040190815260200190565b600060405180830381600087803b15801561169157600080fd5b505af11580156116a5573d6000803e3d6000fd5b505050506116b561eeee30612ed3565b60208401516116c4908361583f565b146116d1576116d1615a92565b50505b505b6040517f69d31fdd00000000000000000000000000000000000000000000000000000000815230906369d31fdd90611712908590600401615aa8565b600060405180830381600087803b15801561172c57600080fd5b505af1158015610dad573d6000803e3d6000fd5b6001600160a01b0381166000908152600560205260408120600101546117668330612ed3565b6109ae91906157bd565b6117a86060820135611785602084018461557c565b608084013561179a606086016040870161557c565b602086013560a08701612f83565b7faaca6f6829d340365b5e6599e0d513cbb4602b94f58ccf16ac77d8d3ae7139ef6117d9606083016040840161557c565b6117e6602084018461557c565b60608401356080850135602086013560017f000000000000000000000000000000000000000000000000000000000000000160018111156118295761182961574a565b14611835576000611838565b60015b61184061258d565b604080516001600160a01b039889168152968816602088015286019490945260608501929092526080840152151560a083015290911660c082015260e00160405180910390a1610a68610a4a602083018361557c565b6001600160a01b03808216600090815260066020908152604091829020825160a081018452815460ff808216151583526101008204161580159483019490945263ffffffff620100008204169482019490945266010000000000009093049093166060830152600190920154608082015290611949576040517f4bba81f00000000000000000000000000000000000000000000000000000000081526001600160a01b0383166004820152602401610cf7565b60808101516001600160a01b03831660009081526005602052604090206001015410156119ce576001600160a01b0382166000908152600560205260409081902060010154608083015191517fc3e11b79000000000000000000000000000000000000000000000000000000008152610cf79290600401918252602082015260400190565b61124b348383613059565b60005b81811015611a0d57611a058383838181106119f9576119f96157d0565b90506104a00201611770565b6001016119dc565b505050565b600154600090808203611a2757600091505090565b611a3462127500826157bd565b421015611a4357600191505090565b80421015611a5357600291505090565b600391505090565b7ff0c57e16840df040f15088dc2f81fe391c3923bec73e23a9662efc9c229c6a00805468010000000000000000810460ff16159067ffffffffffffffff16600081158015611aa65750825b905060008267ffffffffffffffff166001148015611ac35750303b155b905081158015611ad1575080155b15611b08576040517ff92ee8a900000000000000000000000000000000000000000000000000000000815260040160405180910390fd5b845467ffffffffffffffff191660011785558315611b525784547fffffffffffffffffffffffffffffffffffffffffffffff00ffffffffffffffff16680100000000000000001785555b6002869055600080547fffffffffffffffffffffffff000000000000000000000000000000000000000016331790558315611be25784547fffffffffffffffffffffffffffffffffffffffffffffff00ffffffffffffffff168555604051600181527fc7f505b2f371ae2175ee4913f4499e1f2633a7b5936321eed1cdaeb6115181d29060200160405180910390a15b505050505050565b60007fffffffff0000000000000000000000000000000000000000000000000000000082167f18a5af27000000000000000000000000000000000000000000000000000000001480611c7d57507fffffffff0000000000000000000000000000000000000000000000000000000082167f583ff5cc00000000000000000000000000000000000000000000000000000000145b80611cc957507fffffffff0000000000000000000000000000000000000000000000000000000082167ff434c91400000000000000000000000000000000000000000000000000000000145b806109ae57507f01ffc9a7000000000000000000000000000000000000000000000000000000007fffffffff000000000000000000000000000000000000000000000000000000008316146109ae565b6000611d23611a12565b90506003816003811115611d3957611d3961574a565b14158015611d5957506002816003811115611d5657611d5661574a565b14155b8015611d8357506001600160a01b038616600090815260066020526040902054610100900460ff16155b15611dc5576040517f4bba81f00000000000000000000000000000000000000000000000000000000081526001600160a01b0387166004820152602401610cf7565b6001600160a01b0386166000908152600560205260409020602381015415801590611e0057508360018260230154611dfd91906157bd565b10155b15611e49576040517fa4e6bcec0000000000000000000000000000000000000000000000000000000081526001600160a01b038816600482015260248101859052604401610cf7565b604080516001600160a01b03891660208201526000910160408051808303601f19018152918152815160209283012060601c60008181526003845282812060088a901c8252909352912054909150600160ff87161b1615611ee8576040517fa4e6bcec0000000000000000000000000000000000000000000000000000000081526001600160a01b038916600482015260248101869052604401610cf7565b6001600160a01b039081166000908152600360209081526040808320600889901c845282528083208054600160ff8b161b179055928a1682526005905220611f4090611f3690600201613279565b898888888861462f565b5050505050505050565b60017f00000000000000000000000000000000000000000000000000000000000000016001811115611f7e57611f7e61574a565b148015611f8a57508215155b15611f9957611f998484612ada565b6000611fa460025490565b6040517f5dd8f6aa000000000000000000000000000000000000000000000000000000008152600481018290529091507f0000000000000000000000000061e516886a0540f63157f112c0588ee0651dcf6001600160a01b031690635dd8f6aa90602401602060405180830381865afa158015612025573d6000803e3d6000fd5b505050506040513d601f19601f820116820180604052508101906120499190615822565b6040517fc7fb92de00000000000000000000000000000000000000000000000000000000815260048101839052602481018590526001600160a01b03848116604483015260a06064830152600060a483018190526084830152919091169063c7fb92de9060c4016020604051808303816000875af11580156120cf573d6000803e3d6000fd5b505050506040513d601f19601f82011682018060405250810190611be29190615af4565b6000612102602084018461557c565b6001600160a01b03808216600090815260066020908152604091829020825160a081018452815460ff808216151583526101008204161580159483019490945263ffffffff62010000820416948201949094526601000000000000909304909316606083015260019092015460808201529192506121b7576040517f4bba81f00000000000000000000000000000000000000000000000000000000081526001600160a01b0383166004820152602401610cf7565b6121c0846146e1565b60006121cb60025490565b90506122c87f0000000000000000000000000061e516886a0540f63157f112c0588ee0651dcf6001600160a01b031663293c49996040518163ffffffff1660e01b8152600401602060405180830381865afa15801561222e573d6000803e3d6000fd5b505050506040513d601f19601f820116820180604052508101906122529190615822565b6001600160a01b0316636352211e836040518263ffffffff1660e01b815260040161227f91815260200190565b602060405180830381865afa15801561229c573d6000803e3d6000fd5b505050506040513d601f19601f820116820180604052508101906122c09190615822565b82601c612990565b60608201516001600160a01b03161580159061230957506122ef606086016040870161557c565b6001600160a01b031682606001516001600160a01b031614155b801561232e57506000612322606087016040880161557c565b6001600160a01b031614155b801561235457506001600160a01b03831660009081526005602052604090206022015415155b156123a45760608201516040517f1460b5460000000000000000000000000000000000000000000000000000000081526001600160a01b0380861660048301529091166024820152604401610cf7565b60006123b6606087016040880161557c565b6001600160a01b03161480156123ed57506001600160a01b0383166000908152600560205260409020602281015460239091015414155b156123fd576123fd848484613059565b6040518060a0016040528060006001600160a01b0316876040016020810190612426919061557c565b6001600160a01b03161415151581526020016000151581526020018660200160208101906124549190615b0d565b63ffffffff16815260200160006124716060890160408a0161557c565b6001600160a01b0316146124945761248f606088016040890161557c565b61249a565b83606001515b6001600160a01b039081168252606097880135602092830152948516600090815260068252604090819020835181549385015192850151998501517fffffffffffffffffffffffffffffffffffffffffffffffffffffffffffff000090941690151561ff0019161761010092151592909202919091177fffffffffffff000000000000000000000000000000000000000000000000ffff166201000063ffffffff909916989098027fffffffffffff0000000000000000000000000000000000000000ffffffffffff16979097176601000000000000919095160293909317855550506080015160019092019190915550565b6000612597614778565b905090565b6040516001600160a01b038481166024830152838116604483015260648201839052610b739186918216906323b872dd906084015b604051602081830303815290604052915060e01b6020820180517bffffffffffffffffffffffffffffffffffffffffffffffffffffffff83818316178352505050506147ed565b60008061262460025490565b6040517f86202650000000000000000000000000000000000000000000000000000000008152600481018290526001600160a01b0386811660248301529192506000917f0000000000000000000000000061e516886a0540f63157f112c0588ee0651dcf1690638620265090604401602060405180830381865afa1580156126b0573d6000803e3d6000fd5b505050506040513d601f19601f820116820180604052508101906126d49190615822565b90506001600160a01b038116612728576040517fb61c181f000000000000000000000000000000000000000000000000000000008152600481018390526001600160a01b0386166024820152604401610cf7565b60006127348630612ed3565b604080516020810182526000815290517f13da83170000000000000000000000000000000000000000000000000000000081529192506001600160a01b038416916313da83179161279391309188918d918d918d918691600401615b79565b6020604051808303816000875af11580156127b2573d6000803e3d6000fd5b505050506040513d601f19601f820116820180604052508101906127d69190615af4565b9350806127e38730612ed3565b6127ed91906157bd565b84146127fb576127fb615a92565b505050949350505050565b6040805160208082018790528183018590526001600160a01b03841660608084019190915283518084039091018152608090920190925280519101206000906001600160a01b03851660009081526005602090815260408083208151610440810180845295965090946128af9387936002880192849291830191849182845b81548152602001906001019080831161288557505050918352505060209182015491015290614877565b8051909150819060028401906128c8908290602061539a565b5060208201518160200155905050848260010160008282546128ea919061583f565b92505081905550856001600160a01b0316846001600160a01b03167f584a41ff082fad99bb6e50c5767c347c762057fe5726539f0a8de49d84549c23856001856020015161293891906157bd565b61294487600201613279565b8c8b61294e61258d565b60408051968752602087019590955293850192909252606084015260808301526001600160a01b031660a082015260c00160405180910390a350505050505050565b600061299a61258d565b9050836001600160a01b0316816001600160a01b031614158015612a8257506040517f348b684e0000000000000000000000000000000000000000000000000000000081526001600160a01b0382811660048301528581166024830152604482018590526064820184905260016084830181905260a48301527f00000000000000000000000004fd6913d6c32d8c216e153a43c04b1857a7793d169063348b684e9060c401602060405180830381865afa158015612a5c573d6000803e3d6000fd5b505050506040513d601f19601f82011682018060405250810190612a809190615bcc565b155b15610b73576040517f264deeaa0000000000000000000000000000000000000000000000000000000081526001600160a01b038086166004830152821660248201526044810184905260648101839052608401610cf7565b6000612ae583611740565b905080821115612b2b576040517f60ec3e710000000000000000000000000000000000000000000000000000000081526004810183905260248101829052604401610cf7565b6000612b3660025490565b6040517f86202650000000000000000000000000000000000000000000000000000000008152600481018290526001600160a01b0386811660248301529192506000917f0000000000000000000000000061e516886a0540f63157f112c0588ee0651dcf1690638620265090604401602060405180830381865afa158015612bc2573d6000803e3d6000fd5b505050506040513d601f19601f82011682018060405250810190612be69190615822565b90506001600160a01b038116612c3a576040517fb61c181f000000000000000000000000000000000000000000000000000000008152600481018390526001600160a01b0386166024820152604401610cf7565b6001600160a01b03851661eeee14612e23576040517f70a082310000000000000000000000000000000000000000000000000000000081523060048201526000906001600160a01b038716906370a0823190602401602060405180830381865afa158015612cac573d6000803e3d6000fd5b505050506040513d601f19601f82011682018060405250810190612cd09190615af4565b9050612cdd8683876149af565b6040517f9e6eec05000000000000000000000000000000000000000000000000000000008152600481018490526001600160a01b0387811660248301526044820187905260006064830181905260c0608484015260c4830181905260e060a484015260e4830152831690639e6eec059061010401600060405180830381600087803b158015612d6b57600080fd5b505af1158015612d7f573d6000803e3d6000fd5b505050508481612d8f91906157bd565b6040517f70a082310000000000000000000000000000000000000000000000000000000081523060048201526001600160a01b038816906370a0823190602401602060405180830381865afa158015612dec573d6000803e3d6000fd5b505050506040513d601f19601f82011682018060405250810190612e109190615af4565b14612e1d57612e1d615a92565b50612ecc565b6040517f9e6eec05000000000000000000000000000000000000000000000000000000008152600481018390526001600160a01b0386811660248301526044820186905260006064830181905260c0608484015260c4830181905260e060a484015260e4830152821690639e6eec05908690610104016000604051808303818588803b158015612eb257600080fd5b505af1158015612ec6573d6000803e3d6000fd5b50505050505b5050505050565b600061eeed196001600160a01b03841601612ef957506001600160a01b038116316109ae565b6040517f70a082310000000000000000000000000000000000000000000000000000000081526001600160a01b0383811660048301528416906370a0823190602401602060405180830381865afa158015612f58573d6000803e3d6000fd5b505050506040513d601f19601f82011682018060405250810190612f7c9190615af4565b9392505050565b6001600160a01b0385166000908152600360209081526040808320600886901c8452909152902054600160ff84161b1615612ffc576040517fa4e6bcec0000000000000000000000000000000000000000000000000000000081526001600160a01b038616600482015260248101839052604401610cf7565b6001600160a01b0385166000908152600360209081526040808320600886901c845290915290208054600160ff85161b1790556001600160a01b038516600090815260046020526040902060010154611be290878686868661462f565b60608101516001600160a01b03166130a8576040517f04fdbe060000000000000000000000000000000000000000000000000000000081526001600160a01b0383166004820152602401610cf7565b60006130b2611a12565b905060038160038111156130c8576130c861574a565b14806130e5575060028160038111156130e3576130e361574a565b145b1561311c576040517fb10f8cca00000000000000000000000000000000000000000000000000000000815260040160405180910390fd5b6001600160a01b0383166000908152600560205260408120600181018054908390558154919290918390829061315b9067ffffffffffffffff16615bee565b91906101000a81548167ffffffffffffffff021916908367ffffffffffffffff16021790559050600061319084600201613279565b60228501546023860181905590915060006131ac6001836157bd565b9050886001600160a01b0316837f47c5615513b0f669da2dd7e3362a34610ca2695d0a0e2da2160cee952eab203c83876131e461258d565b6040805193845267ffffffffffffffff90921660208401526001600160a01b03169082015260600160405180910390a3600060405180606001604052808a606001516001600160a01b0316815260200187815260200160405180604001604052808867ffffffffffffffff16815260200187815250815250905061326c8b838c898d86614a6d565b5050505050505050505050565b60208101546000908082036132b057507f27ae5ba08d7291c96c8cbddcc148bf48a6d68c7974b94356f53754ef6171d75792915050565b60008360018316156132d2578054600052600060205260406000209350613b85565b60028316156133175760018101546000527fad3228b676f7d3cd4284a5443f17f1962b36e491b30a40b2405849e597ba5fb56020526040600020935060019150613b85565b600483161561335c5760028101546000527fb4c11951957c6f8f642c4af61cd6b24640fec6dc7fc607ee8206a99e92410d306020526040600020935060029150613b85565b60088316156133a15760038101546000527f21ddb9a356815c3fac1026b6dec5df3124afbadb485c9ba5a3e3398a04b7ba856020526040600020935060039150613b85565b60108316156133e65760048101546000527fe58769b32a1beaf1ea27375a44095a0d1fb664ce2dd358e7fcbfb78c26a193446020526040600020935060049150613b85565b602083161561342b5760058101546000527f0eb01ebfc9ed27500cd4dfc979272d1f0913cc9f66540d7e8005811109e1cf2d6020526040600020935060059150613b85565b60408316156134705760068101546000527f887c22bd8750d34016ac3c66b5ff102dacdd73f6b014e710b51e8022af9a19686020526040600020935060069150613b85565b60808316156134b55760078101546000527fffd70157e48063fc33c97a050f7f640233bf646cc98d9524c6b92bcf3ab56f836020526040600020935060079150613b85565b6101008316156134fb5760088101546000527f9867cc5f7f196b93bae1e27e6320742445d290f2263827498b54fec539f756af6020526040600020935060089150613b85565b6102008316156135415760098101546000527fcefad4e508c098b9a7e1d8feb19955fb02ba9675585078710969d3440f5054e06020526040600020935060099150613b85565b61040083161561358757600a8101546000527ff9dc3e7fe016e050eff260334f18a5d4fe391d82092319f5964f2e2eb7c1c3a560205260406000209350600a9150613b85565b6108008316156135cd57600b8101546000527ff8b13a49e282f609c317a833fb8d976d11517c571d1221a265d25af778ecf89260205260406000209350600b9150613b85565b61100083161561361357600c8101546000527f3490c6ceeb450aecdc82e28293031d10c7d73bf85e57bf041a97360aa2c5d99c60205260406000209350600c9150613b85565b61200083161561365957600d8101546000527fc1df82d9c4b87413eae2ef048f94b4d3554cea73d92b0f7af96e0271c691e2bb60205260406000209350600d9150613b85565b61400083161561369f57600e8101546000527f5c67add7c6caf302256adedf7ab114da0acfe870d449a3a489f781d659e8becc60205260406000209350600e9150613b85565b6180008316156136e557600f8101546000527fda7bce9f4e8618b6bd2f4132ce798cdc7a60e7e1460a7299e3c6342a579626d260205260406000209350600f9150613b85565b6201000083161561372c5760108101546000527f2733e50f526ec2fa19a22b31e8ed50f23cd1fdf94c9154ed3a7609a2f1ff981f6020526040600020935060109150613b85565b620200008316156137735760118101546000527fe1d3b5c807b281e4683cc6d6315cf95b9ade8641defcb32372f1c126e398ef7a6020526040600020935060119150613b85565b620400008316156137ba5760128101546000527f5a2dce0a8a7f68bb74560f8f71837c2c2ebbcbf7fffb42ae1896f13f7c7479a06020526040600020935060129150613b85565b620800008316156138015760138101546000527fb46a28b6f55540f89444f63de0378e3d121be09e06cc9ded1c20e65876d36aa06020526040600020935060139150613b85565b621000008316156138485760148101546000527fc65e9645644786b620e2dd2ad648ddfcbf4a7e5b1a3a4ecfe7f64667a3f0b7e26020526040600020935060149150613b85565b6220000083161561388f5760158101546000527ff4418588ed35a2458cffeb39b93d26f18d2ab13bdce6aee58e7b99359ec2dfd96020526040600020935060159150613b85565b624000008316156138d65760168101546000527f5a9c16dc00d6ef18b7933a6f8dc65ccb55667138776f7dea101070dc8796e3776020526040600020935060169150613b85565b6280000083161561391d5760178101546000527f4df84f40ae0c8229d0d6069e5c8f39a7c299677a09d367fc7b05e3bc380ee6526020526040600020935060179150613b85565b63010000008316156139655760188101546000527fcdc72595f74c7b1043d0e1ffbab734648c838dfb0527d971b602bc216c9619ef6020526040600020935060189150613b85565b63020000008316156139ad5760198101546000527f0abf5ac974a1ed57f4050aa510dd9c74f508277b39d7973bb2dfccc5eeb0618d6020526040600020935060199150613b85565b63040000008316156139f557601a8101546000527fb8cd74046ff337f0a7bf2c8e03e10f642c1886798d71806ab1e888d9e5ee87d060205260406000209350601a9150613b85565b6308000000831615613a3d57601b8101546000527f838c5655cb21c6cb83313b5a631175dff4963772cce9108188b34ac87c81c41e60205260406000209350601b9150613b85565b6310000000831615613a8557601c8101546000527f662ee4dd2dd7b2bc707961b1e646c4047669dcb6584f0d8d770daf5d7e7deb2e60205260406000209350601c9150613b85565b6320000000831615613acd57601d8101546000527f388ab20e2573d171a88108e79d820e98f26c0b84aa8b2f4aa4968dbb818ea32260205260406000209350601d9150613b85565b6340000000831615613b1557601e8101546000527f93237c50ba75ee485f4c22adf2f741400bdf8d6a9cc7df7ecae576221665d73560205260406000209350601e9150613b85565b6380000000831615613b5d57601f8101546000527f8448818bb4ae4562849e949e17ac16e0be16688e156b5cf15e098c627c0056a960205260406000209350601f9150613b85565b7f27ae5ba08d7291c96c8cbddcc148bf48a6d68c7974b94356f53754ef6171d7579350602091505b601e8211614627576001821015613be357600283168015613bb157600182015460005284602052613bda565b846000527fad3228b676f7d3cd4284a5443f17f1962b36e491b30a40b2405849e597ba5fb56020525b50604060002093505b6002821015613c3957600483168015613c0757600282015460005284602052613c30565b846000527fb4c11951957c6f8f642c4af61cd6b24640fec6dc7fc607ee8206a99e92410d306020525b50604060002093505b6003821015613c8f57600883168015613c5d57600382015460005284602052613c86565b846000527f21ddb9a356815c3fac1026b6dec5df3124afbadb485c9ba5a3e3398a04b7ba856020525b50604060002093505b6004821015613ce557601083168015613cb357600482015460005284602052613cdc565b846000527fe58769b32a1beaf1ea27375a44095a0d1fb664ce2dd358e7fcbfb78c26a193446020525b50604060002093505b6005821015613d3b57602083168015613d0957600582015460005284602052613d32565b846000527f0eb01ebfc9ed27500cd4dfc979272d1f0913cc9f66540d7e8005811109e1cf2d6020525b50604060002093505b6006821015613d9157604083168015613d5f57600682015460005284602052613d88565b846000527f887c22bd8750d34016ac3c66b5ff102dacdd73f6b014e710b51e8022af9a19686020525b50604060002093505b6007821015613de757608083168015613db557600782015460005284602052613dde565b846000527fffd70157e48063fc33c97a050f7f640233bf646cc98d9524c6b92bcf3ab56f836020525b50604060002093505b6008821015613e3e5761010083168015613e0c57600882015460005284602052613e35565b846000527f9867cc5f7f196b93bae1e27e6320742445d290f2263827498b54fec539f756af6020525b50604060002093505b6009821015613e955761020083168015613e6357600982015460005284602052613e8c565b846000527fcefad4e508c098b9a7e1d8feb19955fb02ba9675585078710969d3440f5054e06020525b50604060002093505b600a821015613eec5761040083168015613eba57600a82015460005284602052613ee3565b846000527ff9dc3e7fe016e050eff260334f18a5d4fe391d82092319f5964f2e2eb7c1c3a56020525b50604060002093505b600b821015613f435761080083168015613f1157600b82015460005284602052613f3a565b846000527ff8b13a49e282f609c317a833fb8d976d11517c571d1221a265d25af778ecf8926020525b50604060002093505b600c821015613f9a5761100083168015613f6857600c82015460005284602052613f91565b846000527f3490c6ceeb450aecdc82e28293031d10c7d73bf85e57bf041a97360aa2c5d99c6020525b50604060002093505b600d821015613ff15761200083168015613fbf57600d82015460005284602052613fe8565b846000527fc1df82d9c4b87413eae2ef048f94b4d3554cea73d92b0f7af96e0271c691e2bb6020525b50604060002093505b600e821015614048576140008316801561401657600e8201546000528460205261403f565b846000527f5c67add7c6caf302256adedf7ab114da0acfe870d449a3a489f781d659e8becc6020525b50604060002093505b600f82101561409f576180008316801561406d57600f82015460005284602052614096565b846000527fda7bce9f4e8618b6bd2f4132ce798cdc7a60e7e1460a7299e3c6342a579626d26020525b50604060002093505b60108210156140f75762010000831680156140c5576010820154600052846020526140ee565b846000527f2733e50f526ec2fa19a22b31e8ed50f23cd1fdf94c9154ed3a7609a2f1ff981f6020525b50604060002093505b601182101561414f57620200008316801561411d57601182015460005284602052614146565b846000527fe1d3b5c807b281e4683cc6d6315cf95b9ade8641defcb32372f1c126e398ef7a6020525b50604060002093505b60128210156141a75762040000831680156141755760128201546000528460205261419e565b846000527f5a2dce0a8a7f68bb74560f8f71837c2c2ebbcbf7fffb42ae1896f13f7c7479a06020525b50604060002093505b60138210156141ff5762080000831680156141cd576013820154600052846020526141f6565b846000527fb46a28b6f55540f89444f63de0378e3d121be09e06cc9ded1c20e65876d36aa06020525b50604060002093505b60148210156142575762100000831680156142255760148201546000528460205261424e565b846000527fc65e9645644786b620e2dd2ad648ddfcbf4a7e5b1a3a4ecfe7f64667a3f0b7e26020525b50604060002093505b60158210156142af57622000008316801561427d576015820154600052846020526142a6565b846000527ff4418588ed35a2458cffeb39b93d26f18d2ab13bdce6aee58e7b99359ec2dfd96020525b50604060002093505b60168210156143075762400000831680156142d5576016820154600052846020526142fe565b846000527f5a9c16dc00d6ef18b7933a6f8dc65ccb55667138776f7dea101070dc8796e3776020525b50604060002093505b601782101561435f57628000008316801561432d57601782015460005284602052614356565b846000527f4df84f40ae0c8229d0d6069e5c8f39a7c299677a09d367fc7b05e3bc380ee6526020525b50604060002093505b60188210156143b857630100000083168015614386576018820154600052846020526143af565b846000527fcdc72595f74c7b1043d0e1ffbab734648c838dfb0527d971b602bc216c9619ef6020525b50604060002093505b6019821015614411576302000000831680156143df57601982015460005284602052614408565b846000527f0abf5ac974a1ed57f4050aa510dd9c74f508277b39d7973bb2dfccc5eeb0618d6020525b50604060002093505b601a82101561446a5763040000008316801561443857601a82015460005284602052614461565b846000527fb8cd74046ff337f0a7bf2c8e03e10f642c1886798d71806ab1e888d9e5ee87d06020525b50604060002093505b601b8210156144c35763080000008316801561449157601b820154600052846020526144ba565b846000527f838c5655cb21c6cb83313b5a631175dff4963772cce9108188b34ac87c81c41e6020525b50604060002093505b601c82101561451c576310000000831680156144ea57601c82015460005284602052614513565b846000527f662ee4dd2dd7b2bc707961b1e646c4047669dcb6584f0d8d770daf5d7e7deb2e6020525b50604060002093505b601d8210156145755763200000008316801561454357601d8201546000528460205261456c565b846000527f388ab20e2573d171a88108e79d820e98f26c0b84aa8b2f4aa4968dbb818ea3226020525b50604060002093505b601e8210156145ce5763400000008316801561459c57601e820154600052846020526145c5565b846000527f93237c50ba75ee485f4c22adf2f741400bdf8d6a9cc7df7ecae576221665d7356020525b50604060002093505b601f821015614627576380000000831680156145f557601f8201546000528460205261461e565b846000527f8448818bb4ae4562849e949e17ac16e0be16688e156b5cf15e098c627c0056a96020525b50604060002093505b505050919050565b6040805160208082018890528183018790526001600160a01b038616606080840191909152835180840390910181526080830180855281519183019190912061048090930190935260009261469d92918590828261040080828437600092019190915250879150614fd19050565b9050868114610dad576040517ee587d20000000000000000000000000000000000000000000000000000000081526004810182905260248101889052604401610cf7565b62030d406146f56040830160208401615b0d565b63ffffffff1610801561471f575061eeee614713602083018361557c565b6001600160a01b031614155b15610a68576147346040820160208301615b0d565b6040517f555d0f1000000000000000000000000000000000000000000000000000000000815263ffffffff909116600482015262030d406024820152604401610cf7565b6000366014336001600160a01b037f000000000000000000000000c29d6995ab3b0df4650ad643adeac55e7acbb566161480156147b55750808210155b156147e5576000366147c783856157bd565b6147d2928290615c15565b6147db91615c3f565b60601c9250505090565b339250505090565b600080602060008451602086016000885af180614810576040513d6000823e3d81fd5b50506000513d91508115614828578060011415614835565b6001600160a01b0384163b155b15610b73576040517f5274afe70000000000000000000000000000000000000000000000000000000081526001600160a01b0385166004820152602401610cf7565b61487f6153d8565b6000836020018051614890906157e6565b90819052905060016148a460206002615d6b565b6148ae91906157bd565b8111156148e7576040517f8eab04bb00000000000000000000000000000000000000000000000000000000815260040160405180910390fd5b60005b602081101561497c578160011660010361492357845184908260208110614913576149136157d0565b6020020152508391506109ae9050565b84518160208110614936576149366157d0565b602002015184604051602001614956929190918252602082015260400190565b60408051601f1981840301815291905280516020909101209350600191821c91016148ea565b506040517f8eab04bb00000000000000000000000000000000000000000000000000000000815260040160405180910390fd5b604080516001600160a01b038416602482015260448082018490528251808303909101815260649091019091526020810180517bffffffffffffffffffffffffffffffffffffffffffffffffffffffff167f095ea7b300000000000000000000000000000000000000000000000000000000179052614a2e848261531f565b610b73576040516001600160a01b03848116602483015260006044830152614a6391869182169063095ea7b3906064016125d1565b610b7384826147ed565b85600003614aa7576040517f3cb7b09b00000000000000000000000000000000000000000000000000000000815260040160405180910390fd5b620493e060608415614c60576040840151614ac89063ffffffff168361583f565b915061eeed196001600160a01b03871601614bbb5760007f000000000000000000000000141fa059441e0ca23ce184b6a78bafd2a517dde86001600160a01b031663e861e9076040518163ffffffff1660e01b8152600401602060405180830381865afa158015614b3d573d6000803e3d6000fd5b505050506040513d601f19601f82011682018060405250810190614b619190615822565b9050806001600160a01b031663d0e30db0876040518263ffffffff1660e01b81526004016000604051808303818588803b158015614b9e57600080fd5b505af1158015614bb2573d6000803e3d6000fd5b50939950505050505b60408051600180825281830190925290816020015b6040805180820190915260008082526020820152815260200190600190039081614bd05790505090506040518060400160405280876001600160a01b031681526020018681525081600081518110614c2a57614c2a6157d0565b6020026020010181905250614c60867f000000000000000000000000141fa059441e0ca23ce184b6a78bafd2a517dde8876149af565b60006040518060a00160405280614c743090565b604080516001600160a01b03909216602083015201604051602081830303815290604052815260200185604051602001614cae9190615aa8565b604051602081830303815290604052815260200183815260200160006001600160a01b03168152602001614d5560405180602001604052808781525060408051915160248084019190915281518084039091018152604490920190526020810180517bffffffffffffffffffffffffffffffffffffffffffffffffffffffff167f97a657c90000000000000000000000000000000000000000000000000000000017905290565b90526040517f20487ded0000000000000000000000000000000000000000000000000000000081529091506000906001600160a01b037f000000000000000000000000141fa059441e0ca23ce184b6a78bafd2a517dde816906320487ded90614de4907f00000000000000000000000000000000000000000000000045849994fc9c7b15908690600401615d77565b602060405180830381865afa158015614e01573d6000803e3d6000fd5b505050506040513d601f19601f82011682018060405250810190614e259190615af4565b905089811115614e6b576040517f0ee99a47000000000000000000000000000000000000000000000000000000008152600481018b905260248101829052604401610cf7565b6040517f96f4e9f90000000000000000000000000000000000000000000000000000000081526001600160a01b037f000000000000000000000000141fa059441e0ca23ce184b6a78bafd2a517dde816906396f4e9f9908390614ef4907f00000000000000000000000000000000000000000000000045849994fc9c7b15908790600401615d77565b60206040518083038185885af1158015614f12573d6000803e3d6000fd5b50505050506040513d601f19601f82011682018060405250810190614f379190615af4565b506000614f4261258d565b6001600160a01b0316614f55838d6157bd565b604051600081818185875af1925050503d8060008114614f91576040519150601f19603f3d011682016040523d82523d6000602084013e614f96565b606091505b505090508061326c576040517f97484b1000000000000000000000000000000000000000000000000000000000815260040160405180910390fd5b6020600582811b8216948552835194820394909452604060008181206002851615871b808503919091528386015190528181206004851615871b808503919091528286015190528181206008851615871b80850391909152606086015190528181206010851615871b8085039190915260808087015190915282822084861615881b8086039190915260a0870151905282822083861615881b8086039190915260c0870151905282822090851615871b8085039190915260e0860151905281812061010080861615881b80860392909252860151905281812061020080861615881b80860392909252610120870151909152828220610400861615881b808603919091526101408701519052828220610800861615881b808603919091526101608701519052828220611000861615881b808603919091526101808701519052828220612000861615881b808603919091526101a08701519052828220614000861615881b808603919091526101c08701519052828220618000861615881b808603919091526101e0870151905282822062010000861615881b8086039190915290860151905281812062020000851615871b80850391909152610220860151905281812062040000851615871b80850391909152610240860151905281812062080000851615871b80850391909152610260860151905281812062100000851615871b80850391909152610280860151905281812062200000851615871b808503919091526102a0860151905281812062400000851615871b808503919091526102c0860151905281812062800000851615871b808503919091526102e086015190528181206301000000851615871b8085039190915261030086015190528181206302000000851615871b8085039190915261032086015190528181206304000000851615871b8085039190915261034086015190528181206308000000851615871b8085039190915261036086015190528181206310000000851615871b8085039190915261038086015190528181206320000000851615871b808503919091526103a086015190528181206340000000851615871b808503919091526103c0860151905281812063800000009094161590951b91829003929092526103e090920151909152902090565b6000806000806020600086516020880160008a5af192503d91506000519050828015615364575081156153555780600114615364565b6000866001600160a01b03163b115b9695505050505050565b604080516080810182526000808252602082015290810161538d6153d8565b8152602001600081525090565b82602081019282156153c8579160200282015b828111156153c85782518255916020019190600101906153ad565b506153d49291506153eb565b5090565b604051806040016040528061538d615400565b5b808211156153d457600081556001016153ec565b6040518061040001604052806020906020820280368337509192915050565b60006020828403121561543157600080fd5b81357fffffffff0000000000000000000000000000000000000000000000000000000081168114612f7c57600080fd5b60006104a0828403121561547457600080fd5b50919050565b6000806020838503121561548d57600080fd5b823567ffffffffffffffff808211156154a557600080fd5b818501915085601f8301126154b957600080fd5b8135818111156154c857600080fd5b8660208260071b85010111156154dd57600080fd5b60209290920196919550909350505050565b60006080828403121561547457600080fd5b60006080828403121561551357600080fd5b612f7c83836154ef565b6001600160a01b0381168114610a6857600080fd5b6000806000806080858703121561554857600080fd5b84359350602085013561555a8161551d565b92506040850135915060608501356155718161551d565b939692955090935050565b60006020828403121561558e57600080fd5b8135612f7c8161551d565b6000602082840312156155ab57600080fd5b813564ffffffffff81168114612f7c57600080fd5b815167ffffffffffffffff16815260208083015190820152604081016109ae565b600080602083850312156155f457600080fd5b823567ffffffffffffffff8082111561560c57600080fd5b818501915085601f83011261562057600080fd5b81358181111561562f57600080fd5b8660208260051b85010111156154dd57600080fd5b815167ffffffffffffffff1681526020808301518183015260408084015180516104808501939260009086015b8482101561568f578251815291840191600191909101908401615671565b5050500151610440830152606092909201516104609091015290565b6000602082840312156156bd57600080fd5b813567ffffffffffffffff8111156156d457600080fd5b820160a08185031215612f7c57600080fd5b600080602083850312156156f957600080fd5b823567ffffffffffffffff8082111561571157600080fd5b818501915085601f83011261572557600080fd5b81358181111561573457600080fd5b8660206104a0830285010111156154dd57600080fd5b634e487b7160e01b600052602160045260246000fd5b60208101600483106157745761577461574a565b91905290565b60208101600283106157745761577461574a565b6000602082840312156157a057600080fd5b5035919050565b634e487b7160e01b600052601160045260246000fd5b818103818111156109ae576109ae6157a7565b634e487b7160e01b600052603260045260246000fd5b600060001982036157f9576157f96157a7565b5060010190565b60008261581d57634e487b7160e01b600052601260045260246000fd5b500490565b60006020828403121561583457600080fd5b8151612f7c8161551d565b808201808211156109ae576109ae6157a7565b803567ffffffffffffffff8116811461586a57600080fd5b919050565b60006020828403121561588157600080fd5b612f7c82615852565b6040808252810183905260008460608301825b868110156158cd5782356158b08161551d565b6001600160a01b031682526020928301929091019060010161589d565b5080925050506001600160a01b0383166020830152949350505050565b6000808335601e1984360301811261590157600080fd5b83018035915067ffffffffffffffff82111561591c57600080fd5b60200191503681900382131561593157600080fd5b9250929050565b6040805190810167ffffffffffffffff8111828210171561596957634e487b7160e01b600052604160045260246000fd5b60405290565b6000818303608081121561598257600080fd5b6040516060810181811067ffffffffffffffff821117156159b357634e487b7160e01b600052604160045260246000fd5b60405283356159c18161551d565b8152602084810135908201526040603f19830112156159df57600080fd5b6159e7615938565b91506159f560408501615852565b8252606093909301356020820152604083015250919050565b6000808335601e19843603018112615a2557600080fd5b83018035915067ffffffffffffffff821115615a4057600080fd5b6020019150600681901b360382131561593157600080fd5b600060408284031215615a6a57600080fd5b615a72615938565b8235615a7d8161551d565b81526020928301359281019290925250919050565b634e487b7160e01b600052600160045260246000fd5b60006080820190506001600160a01b038351168252602083015160208301526040830151615aed6040840182805167ffffffffffffffff168252602090810151910152565b5092915050565b600060208284031215615b0657600080fd5b5051919050565b600060208284031215615b1f57600080fd5b813563ffffffff81168114612f7c57600080fd5b6000815180845260005b81811015615b5957602081850181015186830182015201615b3d565b506000602082860101526020601f19601f83011685010191505092915050565b60006001600160a01b03808a168352886020840152876040840152808716606084015285608084015280851660a08401525060e060c0830152615bbf60e0830184615b33565b9998505050505050505050565b600060208284031215615bde57600080fd5b81518015158114612f7c57600080fd5b600067ffffffffffffffff808316818103615c0b57615c0b6157a7565b6001019392505050565b60008085851115615c2557600080fd5b83861115615c3257600080fd5b5050820193919092039150565b7fffffffffffffffffffffffffffffffffffffffff0000000000000000000000008135818116916014851015615c7f5780818660140360031b1b83161692505b505092915050565b600181815b80851115615cc2578160001904821115615ca857615ca86157a7565b80851615615cb557918102915b93841c9390800290615c8c565b509250929050565b600082615cd9575060016109ae565b81615ce6575060006109ae565b8160018114615cfc5760028114615d0657615d22565b60019150506109ae565b60ff841115615d1757615d176157a7565b50506001821b6109ae565b5060208310610133831016604e8410600b8410161715615d45575081810a6109ae565b615d4f8383615c87565b8060001904821115615d6357615d636157a7565b029392505050565b6000612f7c8383615cca565b6000604067ffffffffffffffff851683526020604081850152845160a06040860152615da660e0860182615b33565b905081860151603f1980878403016060880152615dc38383615b33565b6040890151888203830160808a01528051808352908601945060009350908501905b80841015615e1757845180516001600160a01b0316835286015186830152938501936001939093019290860190615de5565b5060608901516001600160a01b031660a08901526080890151888203830160c08a01529550615e468187615b33565b9a995050505050505050505056fea26469706673582212209c55e86a735e54c8dcf952b1ec61ed953cdc81d6288653e8fc1ed1525419af0f64736f6c63430008170033",
	"gitCommit": "15954670a31005d16a26229742a824cdc93eee06",
	"history": []
}