{
	"_format": "sphinx-sol-ct-artifact-1",
	"merkleRoot": "0x42a2fc1b7cd9d8f8678e9e4ddfbb57c5b9fdbb1e0ef37d960a5007d79d1f1415",
	"contractName": "BPBaseSuckerDeployer",
	"address": "0xD0E84Fc9Fb603c5cA3E7438623FFeD6B6004B2b7",
	"abi": [
		{
			"type": "constructor",
			"inputs": [
				{
					"name": "directory",
					"type": "address",
					"internalType": "contract IJBDirectory"
				},
				{
					"name": "tokens",
					"type": "address",
					"internalType": "contract IJBTokens"
				},
				{
					"name": "permissions",
					"type": "address",
					"internalType": "contract IJBPermissions"
				},
				{
					"name": "_configurator",
					"type": "address",
					"internalType": "address"
				}
			],
			"stateMutability": "nonpayable"
		},
		{
			"type": "function",
			"name": "BRIDGE",
			"inputs": [],
			"outputs": [
				{
					"name": "",
					"type": "address",
					"internalType": "contract OPStandardBridge"
				}
			],
			"stateMutability": "view"
		},
		{
			"type": "function",
			"name": "MESSENGER",
			"inputs": [],
			"outputs": [
				{
					"name": "",
					"type": "address",
					"internalType": "contract OPMessenger"
				}
			],
			"stateMutability": "view"
		},
		{
			"type": "function",
			"name": "PERMISSIONS",
			"inputs": [],
			"outputs": [
				{
					"name": "",
					"type": "address",
					"internalType": "contract IJBPermissions"
				}
			],
			"stateMutability": "view"
		},
		{
			"type": "function",
			"name": "TEMP_ID_STORE",
			"inputs": [],
			"outputs": [
				{
					"name": "",
					"type": "uint256",
					"internalType": "uint256"
				}
			],
			"stateMutability": "view"
		},
		{
			"type": "function",
			"name": "configureLayerSpecific",
			"inputs": [
				{
					"name": "messenger",
					"type": "address",
					"internalType": "contract OPMessenger"
				},
				{
					"name": "bridge",
					"type": "address",
					"internalType": "contract OPStandardBridge"
				}
			],
			"outputs": [],
			"stateMutability": "nonpayable"
		},
		{
			"type": "function",
			"name": "createForSender",
			"inputs": [
				{
					"name": "localProjectId",
					"type": "uint256",
					"internalType": "uint256"
				},
				{
					"name": "salt",
					"type": "bytes32",
					"internalType": "bytes32"
				}
			],
			"outputs": [
				{
					"name": "sucker",
					"type": "address",
					"internalType": "contract IBPSucker"
				}
			],
			"stateMutability": "nonpayable"
		},
		{
			"type": "function",
			"name": "isSucker",
			"inputs": [
				{
					"name": "",
					"type": "address",
					"internalType": "address"
				}
			],
			"outputs": [
				{
					"name": "",
					"type": "bool",
					"internalType": "bool"
				}
			],
			"stateMutability": "view"
		},
		{
			"type": "error",
			"name": "ALREADY_CONFIGURED",
			"inputs": []
		},
		{
			"type": "error",
			"name": "ONLY_SUCKERS",
			"inputs": []
		},
		{
			"type": "error",
			"name": "UNAUTHORIZED",
			"inputs": []
		}
	],
	"solcInputHash": "b0b108813eeb01ea41830ac58987647f",
	"args": [
		"0xCd7112aE7c3b2505F0795c1ba965e5694c25d696",
		"0x4207C2a3491D2f3AE33609588DDFEBEb8EEbcB6E",
		"0x6B8340b759d72E08b3fb674B48547E80631007cb",
		"0x6a65B75A3f37C6702A117Fb87B6bCaC62657d216"
	],
	"bytecode": "0x61010060405234801561001157600080fd5b50604051614c5c380380614c5c8339810160408190526100309161006a565b6001600160a01b03918216608052811660e05291821660a0521660c0526100c9565b6001600160a01b038116811461006757600080fd5b50565b6000806000806080858703121561008057600080fd5b845161008b81610052565b602086015190945061009c81610052565b60408601519093506100ad81610052565b60608601519092506100be81610052565b939692955090935050565b60805160a05160c05160e051614b566101066000396000505060006101c9015260006101a801526000818161013c01526101ea0152614b566000f3fe608060405234801561001057600080fd5b506004361061007d5760003560e01c8063c39ec1241161005b578063c39ec124146100dc578063cc8b6f4f1461010f578063ee9a31a214610124578063f434c9141461013757600080fd5b80631213036614610082578063927ede2d146100b2578063ba8b1d1a146100c5575b600080fd5b6100956100903660046102ed565b61015e565b6040516001600160a01b0390911681526020015b60405180910390f35b600054610095906001600160a01b031681565b6100ce60035481565b6040519081526020016100a9565b6100ff6100ea366004610327565b60026020526000908152604090205460ff1681565b60405190151581526020016100a9565b61012261011d36600461034b565b610271565b005b600154610095906001600160a01b031681565b6100957f000000000000000000000000000000000000000000000000000000000000000081565b6040516bffffffffffffffffffffffff193360601b1660208201526034810182905260009060540160405160208183030381529060405280519060200120915082600381905550817f00000000000000000000000000000000000000000000000000000000000000007f00000000000000000000000000000000000000000000000000000000000000007f0000000000000000000000000000000000000000000000000000000000000000600080604051610218906102e0565b610226959493929190610384565b8190604051809103906000f5905080158015610246573d6000803e3d6000fd5b506001600160a01b0381166000908152600260205260409020805460ff191660011790559392505050565b6000546001600160a01b031615158061029457506001546001600160a01b031615155b156102b25760405163ccbe17fd60e01b815260040160405180910390fd5b600080546001600160a01b039384166001600160a01b03199182161790915560018054929093169116179055565b614746806103db83390190565b6000806040838503121561030057600080fd5b50508035926020909101359150565b6001600160a01b038116811461032457600080fd5b50565b60006020828403121561033957600080fd5b81356103448161030f565b9392505050565b6000806040838503121561035e57600080fd5b82356103698161030f565b915060208301356103798161030f565b809150509250929050565b6001600160a01b038681168252858116602083015284811660408301528316606082015260a08101600283106103ca57634e487b7160e01b600052602160045260246000fd5b826080830152969550505050505056fe6101a06040523480156200001257600080fd5b50604051620047463803806200474683398101604081905262000035916200022d565b6001600160a01b0380841660805280861660c05280851660e052859085908590859085908590859085908590859082161562000072578162000074565b305b6001600160a01b03166101205260408051635d458e8d60e11b81529051339163ba8b1d1a9160048083019260209291908290030181865afa158015620000be573d6000803e3d6000fd5b505050506040513d601f19601f82011682018060405250810190620000e49190620002b0565b610140523361010052806001811115620001025762000102620002ca565b60a0816001811115620001195762000119620002ca565b9052505050505050336001600160a01b031663927ede2d6040518163ffffffff1660e01b8152600401602060405180830381865afa15801562000160573d6000803e3d6000fd5b505050506040513d601f19601f82011682018060405250810190620001869190620002e0565b6001600160a01b0316610160526040805163774d18d160e11b81529051339163ee9a31a29160048083019260209291908290030181865afa158015620001d0573d6000803e3d6000fd5b505050506040513d601f19601f82011682018060405250810190620001f69190620002e0565b6001600160a01b031661018052506200030798505050505050505050565b6001600160a01b03811681146200022a57600080fd5b50565b600080600080600060a086880312156200024657600080fd5b8551620002538162000214565b6020870151909550620002668162000214565b6040870151909450620002798162000214565b60608701519093506200028c8162000214565b608087015190925060028110620002a257600080fd5b809150509295509295909350565b600060208284031215620002c357600080fd5b5051919050565b634e487b7160e01b600052602160045260246000fd5b600060208284031215620002f357600080fd5b8151620003008162000214565b9392505050565b60805160a05160c05160e05161010051610120516101405161016051610180516142fc6200044a600039600081816101d5015281816113eb015261143a0152600081816105bd0152818161158f01528181611e4a0152611eb0015260008181610249015281816107cc01528181610849015281816109e601528181610e6f01528181610f180152818161172c015281816117f10152818161186e01528181611afa01528181611bb301528181611cb50152611ddd0152600081816103ae0152818161146b015281816115ba0152611e86015260006104880152600081816101620152610a0f01526000818161037a0152818161073d01528181610e95015281816117670152611b290152600081816104bc01528181610b8501528181610e11015261102a015260008181610589015281816111d5015261127e01526142fc6000f3fe6080604052600436106101445760003560e01c806388bc2ef3116100b6578063c1b8411a1161006f578063c1b8411a14610476578063c6525f2c146104aa578063e7f82c75146104eb578063ed0e26b914610518578063f434c91414610577578063fc8fa43d146105ab57600080fd5b806388bc2ef314610368578063ad42938b1461039c578063b59ef50f146103d0578063b71c1179146103f0578063bf557aee14610403578063c18541291461045657600080fd5b806356539f391161010857806356539f391461023757806361c864171461027957806369ce22331461028e57806369d31fdd146102ae5780636dfa7268146102c15780637de6fba2146102f057600080fd5b80631d831d5c146101505780632241dc52146101a15780632847f1f3146101c357806338eb2044146101f7578063551ebbf01461021757600080fd5b3661014b57005b600080fd5b34801561015c57600080fd5b506101847f000000000000000000000000000000000000000000000000000000000000000081565b6040516001600160a01b0390911681526020015b60405180910390f35b3480156101ad57600080fd5b506101c16101bc366004613c89565b6105df565b005b3480156101cf57600080fd5b506101847f000000000000000000000000000000000000000000000000000000000000000081565b34801561020357600080fd5b506101c1610212366004613d15565b610617565b34801561022357600080fd5b506101c1610232366004613d46565b6109b0565b34801561024357600080fd5b5061026b7f000000000000000000000000000000000000000000000000000000000000000081565b604051908152602001610198565b34801561028557600080fd5b5061026b610b2f565b34801561029a57600080fd5b506101c16102a9366004613d90565b610b81565b6101c16102bc366004613d15565b610bfa565b3480156102cd57600080fd5b506102e16102dc366004613d90565b610d6b565b60405161019893929190613dad565b3480156102fc57600080fd5b5061033e61030b366004613d90565b6003602052600090815260409020805460019091015463ffffffff82169164010000000090046001600160a01b03169083565b6040805163ffffffff90941684526001600160a01b03909216602084015290820152606001610198565b34801561037457600080fd5b506101847f000000000000000000000000000000000000000000000000000000000000000081565b3480156103a857600080fd5b506101847f000000000000000000000000000000000000000000000000000000000000000081565b3480156103dc57600080fd5b506101c16103eb366004613e06565b610dd5565b6101c16103fe366004613d90565b6110a9565b34801561040f57600080fd5b5061044661041e366004613d90565b6001600160a01b03908116600090815260036020526040902054640100000000900416151590565b6040519015158152602001610198565b34801561046257600080fd5b506101c1610471366004613e19565b611157565b34801561048257600080fd5b506101847f000000000000000000000000000000000000000000000000000000000000000081565b3480156104b657600080fd5b506104de7f000000000000000000000000000000000000000000000000000000000000000081565b6040516101989190613e92565b3480156104f757600080fd5b5061026b610506366004613d90565b60026020526000908152604090205481565b34801561052457600080fd5b50610558610533366004613d90565b600160208190526000918252604090912080549101546001600160401b039091169082565b604080516001600160401b039093168352602083019190915201610198565b34801561058357600080fd5b506101847f000000000000000000000000000000000000000000000000000000000000000081565b3480156105b757600080fd5b506101847f000000000000000000000000000000000000000000000000000000000000000081565b60005b818110156106125761060a8383838181106105ff576105ff613eba565b905060800201610617565b6001016105e2565b505050565b60006106266020830183613d90565b9050600061eeee61063a6020850185613d90565b6001600160a01b031614905080801561066d575061eeee6106616060850160408601613d90565b6001600160a01b031614155b8015610692575060006106866060850160408601613d90565b6001600160a01b031614155b156106d1576106a76060840160408501613d90565b604051630a0a3b6b60e31b81526001600160a01b0390911660048201526024015b60405180910390fd5b62030d406106e56040850160208601613ed0565b63ffffffff161080156106f6575080155b156107385762030d4061070f6040850160208601613ed0565b604051634f3dbeb360e11b815263ffffffff9283166004820152911660248201526044016106c8565b61086f7f00000000000000000000000000000000000000000000000000000000000000006001600160a01b031663293c49996040518163ffffffff1660e01b8152600401602060405180830381865afa158015610799573d6000803e3d6000fd5b505050506040513d601f19601f820116820180604052508101906107bd9190613ef6565b6040516331a9108f60e11b81527f000000000000000000000000000000000000000000000000000000000000000060048201526001600160a01b039190911690636352211e90602401602060405180830381865afa158015610823573d6000803e3d6000fd5b505050506040513d601f19601f820116820180604052508101906108479190613ef6565b7f0000000000000000000000000000000000000000000000000000000000000000601c61118b565b60006108816060850160408601613d90565b6001600160a01b03161480156108b157506001600160a01b03821660009081526020819052604090206001015415155b1561090c576001600160a01b0380831660009081526003602090815260408083208151606081018352815463ffffffff811682526401000000009004909516928501929092526001909101549083015261090c91849061130f565b604051806060016040528084602001602081019061092a9190613ed0565b63ffffffff1681526020016109456060860160408701613d90565b6001600160a01b0390811682526060909501356020918201529284166000908152600384526040908190208251815495840151909616640100000000026001600160c01b031990951663ffffffff909616959095179390931784559091015160019092019190915550565b6001600160a01b0383166109d7576040516309a9c30b60e41b815260040160405180910390fd5b60405163ea78803f60e01b81527f000000000000000000000000000000000000000000000000000000000000000060048201526000907f00000000000000000000000000000000000000000000000000000000000000006001600160a01b03169063ea78803f90602401602060405180830381865afa158015610a5e573d6000803e3d6000fd5b505050506040513d601f19601f82011682018060405250810190610a829190613ef6565b90506001600160a01b038116610aab57604051635a33845560e01b815260040160405180910390fd5b6001600160a01b03828116600090815260036020526040902054640100000000900416610af65760405163393e175160e01b81526001600160a01b03831660048201526024016106c8565b610b0b6001600160a01b0382163330886116b6565b6000610b198287858761171d565b9050610b2786848388611910565b505050505050565b6000466001819003610b445761210591505090565b8061210503610b5557600191505090565b8062aa36a703610b695762014a3491505090565b8062014a3403610b7d5762aa36a791505090565b5090565b60007f00000000000000000000000000000000000000000000000000000000000000006001811115610bb557610bb5613e7c565b14610bd35760405163218a9a2d60e11b815260040160405180910390fd5b6001600160a01b038116600090815260026020526040902054610bf7908290611a94565b50565b610c0333611e46565b610c2057604051630439dbd360e51b815260040160405180910390fd5b60208101803590600290600090610c379085613d90565b6001600160a01b03166001600160a01b031681526020019081526020016000206000828254610c669190613f29565b90915550600190506000610c7d6020840184613d90565b6001600160a01b0316815260208101919091526040908101600020546001600160401b031690610cb39060608401908401613f51565b6001600160401b03161115610bf7576040810160016000610cd76020850185613d90565b6001600160a01b031681526020810191909152604001600020610cfa8282613f6e565b50610d0a90506020820182613d90565b6001600160a01b03167f551b6b99b4c48e3265d2885ab0d93779be2402293261e074f7bf74b2c8f45b6f610d446060840160408501613f51565b604080516001600160401b039092168252606085013560208301520160405180910390a250565b6000602081815291815260409081902080546001820154835161044081018086526001600160401b0390931695919490926002850192849283019184919082845b815481526020019060010190808311610dac575050509183525050602091820154910152905083565b610e0d6060820135610dea6020840184613d90565b6080840135610dff6060860160408701613d90565b602086013560a08701611f43565b60017f00000000000000000000000000000000000000000000000000000000000000006001811115610e4157610e41613e7c565b03610e6057610e60610e566020830183613d90565b6080830135611a94565b604051632eec7b5560e11b81527f000000000000000000000000000000000000000000000000000000000000000060048201527f00000000000000000000000000000000000000000000000000000000000000006001600160a01b031690635dd8f6aa90602401602060405180830381865afa158015610ee4573d6000803e3d6000fd5b505050506040513d601f19601f82011682018060405250810190610f089190613ef6565b6001600160a01b031663c7fb92de7f000000000000000000000000000000000000000000000000000000000000000060608401803590610f4b9060408701613d90565b6040516001600160e01b031960e086901b168152600481019390935260248301919091526001600160a01b0316604482015260a06064820152600060a48201819052608482015260c4016020604051808303816000875af1158015610fb4573d6000803e3d6000fd5b505050506040513d601f19601f82011682018060405250810190610fd89190613fa1565b507f487194902d206a126abe9f23a4e2b78d1600ed8034b1423290a13edd6ebc7d1461100a6060830160408401613d90565b6110176020840184613d90565b60608401356080850135602086013560017f0000000000000000000000000000000000000000000000000000000000000000600181111561105a5761105a613e7c565b14611066576000611069565b60015b604080516001600160a01b0397881681529690951660208701529385019290925260608401526080830152151560a082015260c00160405180910390a150565b6001600160a01b0380821660008181526003602090815260408083208151606081018352815463ffffffff811682526401000000009004909616868401526001908101548683018190529484529183905290912001541015611148576040808201516001600160a01b0384166000908152602081905282902060010154915163091df9e560e31b81526106c89290600401918252602082015260400190565b61115334838361130f565b5050565b60005b818110156106125761118383838381811061117757611177613eba565b90506104a00201610dd5565b60010161115a565b336001600160a01b0384168114801590611242575060405163c161c93f60e01b81526001600160a01b038281166004830152858116602483015260448201859052606482018490527f0000000000000000000000000000000000000000000000000000000000000000169063c161c93f90608401602060405180830381865afa15801561121c573d6000803e3d6000fd5b505050506040513d601f19601f820116820180604052508101906112409190613fba565b155b80156112eb575060405163c161c93f60e01b81526001600160a01b038281166004830152858116602483015260006044830152606482018490527f0000000000000000000000000000000000000000000000000000000000000000169063c161c93f90608401602060405180830381865afa1580156112c5573d6000803e3d6000fd5b505050506040513d601f19601f820116820180604052508101906112e99190613fba565b155b156113095760405163075fd2b160e01b815260040160405180910390fd5b50505050565b60008315611330576040516352864b0160e11b815260040160405180910390fd5b6001600160a01b038316600090815260208190526040812060018101805490839055815490929190829061136c906001600160401b0316613fdc565b91906101000a8154816001600160401b0302191690836001600160401b031602179055905060006001600160a01b031684602001516001600160a01b0316036113d35760405163393e175160e01b81526001600160a01b03861660048201526024016106c8565b6001600160a01b03851661eeee146114ce57611410857f000000000000000000000000000000000000000000000000000000000000000084612073565b6020808501518551604080519384018152600084525163540abf7360e01b81526001600160a01b037f0000000000000000000000000000000000000000000000000000000000000000169363540abf7393611497938b9391927f0000000000000000000000000000000000000000000000000000000000000000928a929190600401614052565b600060405180830381600087803b1580156114b157600080fd5b505af11580156114c5573d6000803e3d6000fd5b505050506114d2565b8192505b6001600160a01b03851660009081526020819052604081206114f690600201612103565b6001600160a01b03871660009081526020819052604081206022015491925090611522906001906140a5565b604080516060810182526020808a01516001600160a01b039081168352818301898152845180860186526001600160401b03808b1682528185018a9052858701918252955194518316602486015290516044850152518051909416606484015292015160848201529192507f00000000000000000000000000000000000000000000000000000000000000001690633dbb202b9087907f00000000000000000000000000000000000000000000000000000000000000009060a40160408051601f198184030181529181526020820180516001600160e01b03166369d31fdd60e01b179052516001600160e01b031960e086901b16815261162c929190620493e0906004016140b8565b6000604051808303818588803b15801561164557600080fd5b505af1158015611659573d6000803e3d6000fd5b5050604080518581526001600160401b03881660208201526001600160a01b038c1694508693507f3e069c1f498cba23d7d2b74b84311469e8da6e527cade62061d642c61b64e0de92500160405180910390a35050505050505050565b6040516001600160a01b0384811660248301528381166044830152606482018390526113099186918216906323b872dd906084015b604051602081830303815290604052915060e01b6020820180516001600160e01b0383818316178352505050506134b9565b604051630862026560e41b81527f000000000000000000000000000000000000000000000000000000000000000060048201526001600160a01b03838116602483015260009182917f00000000000000000000000000000000000000000000000000000000000000001690638620265090604401602060405180830381865afa1580156117ae573d6000803e3d6000fd5b505050506040513d601f19601f820116820180604052508101906117d29190613ef6565b90506001600160a01b03811661182c57604051630c9ae01360e01b81527f000000000000000000000000000000000000000000000000000000000000000060048201526001600160a01b03851660248201526044016106c8565b6000611838853061351c565b60408051602081018252600081529051635db90a7f60e11b81529192506001600160a01b0384169163bb7214fe9161189e9130917f0000000000000000000000000000000000000000000000000000000000000000918b918d918c9186916004016140f2565b6020604051808303816000875af11580156118bd573d6000803e3d6000fd5b505050506040513d601f19601f820116820180604052508101906118e19190613fa1565b9250806118ee863061351c565b6118f891906140a5565b831461190657611906614144565b5050949350505050565b600061191d8584846135b3565b6001600160a01b0385166000908152602081815260408083208151610440810180845295965093946119889487949093600290930192849290830191849182845b81548152602001906001019080831161195e575050509183525050602091820154910152906135f8565b6001600160a01b038616600090815260208181526040909120825192935083926002909101916119b9918391613bfb565b50602091820151908201556001600160a01b0386166000908152908190526040812060010180548692906119ee908490613f29565b92505081905550846001600160a01b0316836001600160a01b03167f7b58dbb78e7edc690b0688a53dea0c443d630c4a5db66c3c47d4ff2044c977288460018560200151611a3c91906140a5565b6001600160a01b038a166000908152602081905260409020611a6090600201612103565b60408051938452602084019290925290820152606081018a90526080810188905260a00160405180910390a3505050505050565b6001600160a01b03821660009081526002602052604090205480821115611ace57604051632858f9ab60e11b815260040160405180910390fd5b6001600160a01b03838116600081815260026020526040808220868603905551630862026560e41b81527f000000000000000000000000000000000000000000000000000000000000000060048201526024810192909252917f00000000000000000000000000000000000000000000000000000000000000001690638620265090604401602060405180830381865afa158015611b70573d6000803e3d6000fd5b505050506040513d601f19601f82011682018060405250810190611b949190613ef6565b90506001600160a01b038116611bee57604051630c9ae01360e01b81527f000000000000000000000000000000000000000000000000000000000000000060048201526001600160a01b03851660248201526044016106c8565b6001600160a01b03841661eeee14611d9e576040516370a0823160e01b81523060048201526000906001600160a01b038616906370a0823190602401602060405180830381865afa158015611c47573d6000803e3d6000fd5b505050506040513d601f19601f82011682018060405250810190611c6b9190613fa1565b9050611c78858386612073565b60408051602080820183526000808352835191820184528082529251639e6eec0560e01b81526001600160a01b03861693639e6eec0593611ce5937f0000000000000000000000000000000000000000000000000000000000000000938c938c939092909160040161415a565b600060405180830381600087803b158015611cff57600080fd5b505af1158015611d13573d6000803e3d6000fd5b505050508381611d2391906140a5565b6040516370a0823160e01b81523060048201526001600160a01b038716906370a0823190602401602060405180830381865afa158015611d67573d6000803e3d6000fd5b505050506040513d601f19601f82011682018060405250810190611d8b9190613fa1565b14611d9857611d98614144565b50611309565b60408051602080820183526000808352835191820184528082529251639e6eec0560e01b81526001600160a01b03851693639e6eec05938893611e0e937f0000000000000000000000000000000000000000000000000000000000000000938c938793919290919060040161415a565b6000604051808303818588803b158015611e2757600080fd5b505af1158015611e3b573d6000803e3d6000fd5b505050505050505050565b60007f00000000000000000000000000000000000000000000000000000000000000006001600160a01b0316826001600160a01b0316148015611f3d57507f00000000000000000000000000000000000000000000000000000000000000006001600160a01b03167f00000000000000000000000000000000000000000000000000000000000000006001600160a01b0316636e296e456040518163ffffffff1660e01b81526004016020604051808303816000875af1158015611f0e573d6000803e3d6000fd5b505050506040513d601f19601f82011682018060405250810190611f329190613ef6565b6001600160a01b0316145b92915050565b6001600160a01b0385166000908152600460209081526040808320600886901c8452909152902054600160ff84161b1615611f945760405163ed9bdd0760e01b8152600481018390526024016106c8565b6001600160a01b0385166000908152600460209081526040808320600886901c845290915281208054600160ff86161b179055612003611fd58887876135b3565b6040805161040081810190925290859060209083908390808284376000920191909152508791506136fe9050565b6001600160a01b03871660009081526001602081905260409091200154909150811461206a576001600160a01b0386166000908152600160208190526040918290200154905163286f87c960e21b81526004810191909152602481018290526044016106c8565b50505050505050565b604080516001600160a01b038416602482015260448082018490528251808303909101815260649091019091526020810180516001600160e01b031663095ea7b360e01b1790526120c48482613a4c565b611309576040516001600160a01b038481166024830152600060448301526120f991869182169063095ea7b3906064016116eb565b61130984826134b9565b602081015460009080820361213a57507f27ae5ba08d7291c96c8cbddcc148bf48a6d68c7974b94356f53754ef6171d75792915050565b600083600183161561215c578054600052600060205260406000209350612a0f565b60028316156121a15760018101546000527fad3228b676f7d3cd4284a5443f17f1962b36e491b30a40b2405849e597ba5fb56020526040600020935060019150612a0f565b60048316156121e65760028101546000527fb4c11951957c6f8f642c4af61cd6b24640fec6dc7fc607ee8206a99e92410d306020526040600020935060029150612a0f565b600883161561222b5760038101546000527f21ddb9a356815c3fac1026b6dec5df3124afbadb485c9ba5a3e3398a04b7ba856020526040600020935060039150612a0f565b60108316156122705760048101546000527fe58769b32a1beaf1ea27375a44095a0d1fb664ce2dd358e7fcbfb78c26a193446020526040600020935060049150612a0f565b60208316156122b55760058101546000527f0eb01ebfc9ed27500cd4dfc979272d1f0913cc9f66540d7e8005811109e1cf2d6020526040600020935060059150612a0f565b60408316156122fa5760068101546000527f887c22bd8750d34016ac3c66b5ff102dacdd73f6b014e710b51e8022af9a19686020526040600020935060069150612a0f565b608083161561233f5760078101546000527fffd70157e48063fc33c97a050f7f640233bf646cc98d9524c6b92bcf3ab56f836020526040600020935060079150612a0f565b6101008316156123855760088101546000527f9867cc5f7f196b93bae1e27e6320742445d290f2263827498b54fec539f756af6020526040600020935060089150612a0f565b6102008316156123cb5760098101546000527fcefad4e508c098b9a7e1d8feb19955fb02ba9675585078710969d3440f5054e06020526040600020935060099150612a0f565b61040083161561241157600a8101546000527ff9dc3e7fe016e050eff260334f18a5d4fe391d82092319f5964f2e2eb7c1c3a560205260406000209350600a9150612a0f565b61080083161561245757600b8101546000527ff8b13a49e282f609c317a833fb8d976d11517c571d1221a265d25af778ecf89260205260406000209350600b9150612a0f565b61100083161561249d57600c8101546000527f3490c6ceeb450aecdc82e28293031d10c7d73bf85e57bf041a97360aa2c5d99c60205260406000209350600c9150612a0f565b6120008316156124e357600d8101546000527fc1df82d9c4b87413eae2ef048f94b4d3554cea73d92b0f7af96e0271c691e2bb60205260406000209350600d9150612a0f565b61400083161561252957600e8101546000527f5c67add7c6caf302256adedf7ab114da0acfe870d449a3a489f781d659e8becc60205260406000209350600e9150612a0f565b61800083161561256f57600f8101546000527fda7bce9f4e8618b6bd2f4132ce798cdc7a60e7e1460a7299e3c6342a579626d260205260406000209350600f9150612a0f565b620100008316156125b65760108101546000527f2733e50f526ec2fa19a22b31e8ed50f23cd1fdf94c9154ed3a7609a2f1ff981f6020526040600020935060109150612a0f565b620200008316156125fd5760118101546000527fe1d3b5c807b281e4683cc6d6315cf95b9ade8641defcb32372f1c126e398ef7a6020526040600020935060119150612a0f565b620400008316156126445760128101546000527f5a2dce0a8a7f68bb74560f8f71837c2c2ebbcbf7fffb42ae1896f13f7c7479a06020526040600020935060129150612a0f565b6208000083161561268b5760138101546000527fb46a28b6f55540f89444f63de0378e3d121be09e06cc9ded1c20e65876d36aa06020526040600020935060139150612a0f565b621000008316156126d25760148101546000527fc65e9645644786b620e2dd2ad648ddfcbf4a7e5b1a3a4ecfe7f64667a3f0b7e26020526040600020935060149150612a0f565b622000008316156127195760158101546000527ff4418588ed35a2458cffeb39b93d26f18d2ab13bdce6aee58e7b99359ec2dfd96020526040600020935060159150612a0f565b624000008316156127605760168101546000527f5a9c16dc00d6ef18b7933a6f8dc65ccb55667138776f7dea101070dc8796e3776020526040600020935060169150612a0f565b628000008316156127a75760178101546000527f4df84f40ae0c8229d0d6069e5c8f39a7c299677a09d367fc7b05e3bc380ee6526020526040600020935060179150612a0f565b63010000008316156127ef5760188101546000527fcdc72595f74c7b1043d0e1ffbab734648c838dfb0527d971b602bc216c9619ef6020526040600020935060189150612a0f565b63020000008316156128375760198101546000527f0abf5ac974a1ed57f4050aa510dd9c74f508277b39d7973bb2dfccc5eeb0618d6020526040600020935060199150612a0f565b630400000083161561287f57601a8101546000527fb8cd74046ff337f0a7bf2c8e03e10f642c1886798d71806ab1e888d9e5ee87d060205260406000209350601a9150612a0f565b63080000008316156128c757601b8101546000527f838c5655cb21c6cb83313b5a631175dff4963772cce9108188b34ac87c81c41e60205260406000209350601b9150612a0f565b631000000083161561290f57601c8101546000527f662ee4dd2dd7b2bc707961b1e646c4047669dcb6584f0d8d770daf5d7e7deb2e60205260406000209350601c9150612a0f565b632000000083161561295757601d8101546000527f388ab20e2573d171a88108e79d820e98f26c0b84aa8b2f4aa4968dbb818ea32260205260406000209350601d9150612a0f565b634000000083161561299f57601e8101546000527f93237c50ba75ee485f4c22adf2f741400bdf8d6a9cc7df7ecae576221665d73560205260406000209350601e9150612a0f565b63800000008316156129e757601f8101546000527f8448818bb4ae4562849e949e17ac16e0be16688e156b5cf15e098c627c0056a960205260406000209350601f9150612a0f565b7f27ae5ba08d7291c96c8cbddcc148bf48a6d68c7974b94356f53754ef6171d7579350602091505b601e82116134b1576001821015612a6d57600283168015612a3b57600182015460005284602052612a64565b846000527fad3228b676f7d3cd4284a5443f17f1962b36e491b30a40b2405849e597ba5fb56020525b50604060002093505b6002821015612ac357600483168015612a9157600282015460005284602052612aba565b846000527fb4c11951957c6f8f642c4af61cd6b24640fec6dc7fc607ee8206a99e92410d306020525b50604060002093505b6003821015612b1957600883168015612ae757600382015460005284602052612b10565b846000527f21ddb9a356815c3fac1026b6dec5df3124afbadb485c9ba5a3e3398a04b7ba856020525b50604060002093505b6004821015612b6f57601083168015612b3d57600482015460005284602052612b66565b846000527fe58769b32a1beaf1ea27375a44095a0d1fb664ce2dd358e7fcbfb78c26a193446020525b50604060002093505b6005821015612bc557602083168015612b9357600582015460005284602052612bbc565b846000527f0eb01ebfc9ed27500cd4dfc979272d1f0913cc9f66540d7e8005811109e1cf2d6020525b50604060002093505b6006821015612c1b57604083168015612be957600682015460005284602052612c12565b846000527f887c22bd8750d34016ac3c66b5ff102dacdd73f6b014e710b51e8022af9a19686020525b50604060002093505b6007821015612c7157608083168015612c3f57600782015460005284602052612c68565b846000527fffd70157e48063fc33c97a050f7f640233bf646cc98d9524c6b92bcf3ab56f836020525b50604060002093505b6008821015612cc85761010083168015612c9657600882015460005284602052612cbf565b846000527f9867cc5f7f196b93bae1e27e6320742445d290f2263827498b54fec539f756af6020525b50604060002093505b6009821015612d1f5761020083168015612ced57600982015460005284602052612d16565b846000527fcefad4e508c098b9a7e1d8feb19955fb02ba9675585078710969d3440f5054e06020525b50604060002093505b600a821015612d765761040083168015612d4457600a82015460005284602052612d6d565b846000527ff9dc3e7fe016e050eff260334f18a5d4fe391d82092319f5964f2e2eb7c1c3a56020525b50604060002093505b600b821015612dcd5761080083168015612d9b57600b82015460005284602052612dc4565b846000527ff8b13a49e282f609c317a833fb8d976d11517c571d1221a265d25af778ecf8926020525b50604060002093505b600c821015612e245761100083168015612df257600c82015460005284602052612e1b565b846000527f3490c6ceeb450aecdc82e28293031d10c7d73bf85e57bf041a97360aa2c5d99c6020525b50604060002093505b600d821015612e7b5761200083168015612e4957600d82015460005284602052612e72565b846000527fc1df82d9c4b87413eae2ef048f94b4d3554cea73d92b0f7af96e0271c691e2bb6020525b50604060002093505b600e821015612ed25761400083168015612ea057600e82015460005284602052612ec9565b846000527f5c67add7c6caf302256adedf7ab114da0acfe870d449a3a489f781d659e8becc6020525b50604060002093505b600f821015612f295761800083168015612ef757600f82015460005284602052612f20565b846000527fda7bce9f4e8618b6bd2f4132ce798cdc7a60e7e1460a7299e3c6342a579626d26020525b50604060002093505b6010821015612f81576201000083168015612f4f57601082015460005284602052612f78565b846000527f2733e50f526ec2fa19a22b31e8ed50f23cd1fdf94c9154ed3a7609a2f1ff981f6020525b50604060002093505b6011821015612fd9576202000083168015612fa757601182015460005284602052612fd0565b846000527fe1d3b5c807b281e4683cc6d6315cf95b9ade8641defcb32372f1c126e398ef7a6020525b50604060002093505b6012821015613031576204000083168015612fff57601282015460005284602052613028565b846000527f5a2dce0a8a7f68bb74560f8f71837c2c2ebbcbf7fffb42ae1896f13f7c7479a06020525b50604060002093505b601382101561308957620800008316801561305757601382015460005284602052613080565b846000527fb46a28b6f55540f89444f63de0378e3d121be09e06cc9ded1c20e65876d36aa06020525b50604060002093505b60148210156130e15762100000831680156130af576014820154600052846020526130d8565b846000527fc65e9645644786b620e2dd2ad648ddfcbf4a7e5b1a3a4ecfe7f64667a3f0b7e26020525b50604060002093505b601582101561313957622000008316801561310757601582015460005284602052613130565b846000527ff4418588ed35a2458cffeb39b93d26f18d2ab13bdce6aee58e7b99359ec2dfd96020525b50604060002093505b601682101561319157624000008316801561315f57601682015460005284602052613188565b846000527f5a9c16dc00d6ef18b7933a6f8dc65ccb55667138776f7dea101070dc8796e3776020525b50604060002093505b60178210156131e95762800000831680156131b7576017820154600052846020526131e0565b846000527f4df84f40ae0c8229d0d6069e5c8f39a7c299677a09d367fc7b05e3bc380ee6526020525b50604060002093505b60188210156132425763010000008316801561321057601882015460005284602052613239565b846000527fcdc72595f74c7b1043d0e1ffbab734648c838dfb0527d971b602bc216c9619ef6020525b50604060002093505b601982101561329b5763020000008316801561326957601982015460005284602052613292565b846000527f0abf5ac974a1ed57f4050aa510dd9c74f508277b39d7973bb2dfccc5eeb0618d6020525b50604060002093505b601a8210156132f4576304000000831680156132c257601a820154600052846020526132eb565b846000527fb8cd74046ff337f0a7bf2c8e03e10f642c1886798d71806ab1e888d9e5ee87d06020525b50604060002093505b601b82101561334d5763080000008316801561331b57601b82015460005284602052613344565b846000527f838c5655cb21c6cb83313b5a631175dff4963772cce9108188b34ac87c81c41e6020525b50604060002093505b601c8210156133a65763100000008316801561337457601c8201546000528460205261339d565b846000527f662ee4dd2dd7b2bc707961b1e646c4047669dcb6584f0d8d770daf5d7e7deb2e6020525b50604060002093505b601d8210156133ff576320000000831680156133cd57601d820154600052846020526133f6565b846000527f388ab20e2573d171a88108e79d820e98f26c0b84aa8b2f4aa4968dbb818ea3226020525b50604060002093505b601e8210156134585763400000008316801561342657601e8201546000528460205261344f565b846000527f93237c50ba75ee485f4c22adf2f741400bdf8d6a9cc7df7ecae576221665d7356020525b50604060002093505b601f8210156134b15763800000008316801561347f57601f820154600052846020526134a8565b846000527f8448818bb4ae4562849e949e17ac16e0be16688e156b5cf15e098c627c0056a96020525b50604060002093505b505050919050565b60006134ce6001600160a01b03841683613af4565b905080516000141580156134f35750808060200190518101906134f19190613fba565b155b1561061257604051635274afe760e01b81526001600160a01b03841660048201526024016106c8565b600061eeed196001600160a01b0384160161354257506001600160a01b03811631611f3d565b6040516370a0823160e01b81526001600160a01b0383811660048301528416906370a0823190602401602060405180830381865afa158015613588573d6000803e3d6000fd5b505050506040513d601f19601f820116820180604052508101906135ac9190613fa1565b9392505050565b60408051602081018590529081018390526001600160a01b03821660608201526000906080016040516020818303038152906040528051906020012090509392505050565b613600613c35565b6000836020018051613611906141a1565b90819052905060016136256020600261429e565b61362f91906140a5565b81111561364f57604051638eab04bb60e01b815260040160405180910390fd5b60005b60208110156136e4578160011660010361368b5784518490826020811061367b5761367b613eba565b602002015250839150611f3d9050565b8451816020811061369e5761369e613eba565b6020020151846040516020016136be929190918252602082015260400190565b60408051601f1981840301815291905280516020909101209350600191821c9101613652565b50604051638eab04bb60e01b815260040160405180910390fd5b6020600582811b8216948552835194820394909452604060008181206002851615871b808503919091528386015190528181206004851615871b808503919091528286015190528181206008851615871b80850391909152606086015190528181206010851615871b8085039190915260808087015190915282822084861615881b8086039190915260a0870151905282822083861615881b8086039190915260c0870151905282822090851615871b8085039190915260e0860151905281812061010080861615881b80860392909252860151905281812061020080861615881b80860392909252610120870151909152828220610400861615881b808603919091526101408701519052828220610800861615881b808603919091526101608701519052828220611000861615881b808603919091526101808701519052828220612000861615881b808603919091526101a08701519052828220614000861615881b808603919091526101c08701519052828220618000861615881b808603919091526101e0870151905282822062010000861615881b8086039190915290860151905281812062020000851615871b80850391909152610220860151905281812062040000851615871b80850391909152610240860151905281812062080000851615871b80850391909152610260860151905281812062100000851615871b80850391909152610280860151905281812062200000851615871b808503919091526102a0860151905281812062400000851615871b808503919091526102c0860151905281812062800000851615871b808503919091526102e086015190528181206301000000851615871b8085039190915261030086015190528181206302000000851615871b8085039190915261032086015190528181206304000000851615871b8085039190915261034086015190528181206308000000851615871b8085039190915261036086015190528181206310000000851615871b8085039190915261038086015190528181206320000000851615871b808503919091526103a086015190528181206340000000851615871b808503919091526103c0860151905281812063800000009094161590951b91829003929092526103e090920151909152902090565b6000806000846001600160a01b031684604051613a6991906142aa565b6000604051808303816000865af19150503d8060008114613aa6576040519150601f19603f3d011682016040523d82523d6000602084013e613aab565b606091505b5091509150818015613ad5575080511580613ad5575080806020019051810190613ad59190613fba565b8015613aeb57506000856001600160a01b03163b115b95945050505050565b60606135ac8383600084600080856001600160a01b03168486604051613b1a91906142aa565b60006040518083038185875af1925050503d8060008114613b57576040519150601f19603f3d011682016040523d82523d6000602084013e613b5c565b606091505b5091509150613b6c868383613b76565b9695505050505050565b606082613b8b57613b8682613bd2565b6135ac565b8151158015613ba257506001600160a01b0384163b155b15613bcb57604051639996b31560e01b81526001600160a01b03851660048201526024016106c8565b50806135ac565b805115613be25780518082602001fd5b604051630a12f52160e11b815260040160405180910390fd5b8260208101928215613c29579160200282015b82811115613c29578251825591602001919060010190613c0e565b50610b7d929150613c55565b6040518060400160405280613c48613c6a565b8152602001600081525090565b5b80821115610b7d5760008155600101613c56565b6040518061040001604052806020906020820280368337509192915050565b60008060208385031215613c9c57600080fd5b82356001600160401b0380821115613cb357600080fd5b818501915085601f830112613cc757600080fd5b813581811115613cd657600080fd5b8660208260071b8501011115613ceb57600080fd5b60209290920196919550909350505050565b600060808284031215613d0f57600080fd5b50919050565b600060808284031215613d2757600080fd5b6135ac8383613cfd565b6001600160a01b0381168114610bf757600080fd5b60008060008060808587031215613d5c57600080fd5b843593506020850135613d6e81613d31565b9250604085013591506060850135613d8581613d31565b939692955090935050565b600060208284031215613da257600080fd5b81356135ac81613d31565b6001600160401b038416815260208082018490528251610460830191906000604085015b83821015613def578251815291830191600191909101908301613dd1565b505050506020830151610440830152949350505050565b60006104a08284031215613d0f57600080fd5b60008060208385031215613e2c57600080fd5b82356001600160401b0380821115613e4357600080fd5b818501915085601f830112613e5757600080fd5b813581811115613e6657600080fd5b8660206104a083028501011115613ceb57600080fd5b634e487b7160e01b600052602160045260246000fd5b6020810160028310613eb457634e487b7160e01b600052602160045260246000fd5b91905290565b634e487b7160e01b600052603260045260246000fd5b600060208284031215613ee257600080fd5b813563ffffffff811681146135ac57600080fd5b600060208284031215613f0857600080fd5b81516135ac81613d31565b634e487b7160e01b600052601160045260246000fd5b80820180821115611f3d57611f3d613f13565b6001600160401b0381168114610bf757600080fd5b600060208284031215613f6357600080fd5b81356135ac81613f3c565b8135613f7981613f3c565b6001600160401b0381166001600160401b031983541617825550602082013560018201555050565b600060208284031215613fb357600080fd5b5051919050565b600060208284031215613fcc57600080fd5b815180151581146135ac57600080fd5b60006001600160401b03808316818103613ff857613ff8613f13565b6001019392505050565b60005b8381101561401d578181015183820152602001614005565b50506000910152565b6000815180845261403e816020860160208601614002565b601f01601f19169290920160200192915050565b6001600160a01b0387811682528681166020830152851660408201526060810184905263ffffffff8316608082015260c060a0820181905260009061409990830184614026565b98975050505050505050565b81810381811115611f3d57611f3d613f13565b6001600160a01b03841681526060602082018190526000906140dc90830185614026565b905063ffffffff83166040830152949350505050565b600060018060a01b03808a168352886020840152808816604084015286606084015285608084015280851660a08401525060e060c083015261413760e0830184614026565b9998505050505050505050565b634e487b7160e01b600052600160045260246000fd5b86815260018060a01b0386166020820152846040820152831515606082015260c06080820152600061418f60c0830185614026565b82810360a08401526141378185614026565b6000600182016141b3576141b3613f13565b5060010190565b600181815b808511156141f55781600019048211156141db576141db613f13565b808516156141e857918102915b93841c93908002906141bf565b509250929050565b60008261420c57506001611f3d565b8161421957506000611f3d565b816001811461422f576002811461423957614255565b6001915050611f3d565b60ff84111561424a5761424a613f13565b50506001821b611f3d565b5060208310610133831016604e8410600b8410161715614278575081810a611f3d565b61428283836141ba565b806000190482111561429657614296613f13565b029392505050565b60006135ac83836141fd565b600082516142bc818460208701614002565b919091019291505056fea2646970667358221220437e0a503e932711e0198373a5c155f51e392b1e6013c0538220a4a191424b6f64736f6c63430008170033a2646970667358221220aeb31ad03cb351f100bc96c01340271eab637070eb8abaa755e253454521d8d864736f6c63430008170033",
	"deployedBytecode": "0x608060405234801561001057600080fd5b506004361061007d5760003560e01c8063c39ec1241161005b578063c39ec124146100dc578063cc8b6f4f1461010f578063ee9a31a214610124578063f434c9141461013757600080fd5b80631213036614610082578063927ede2d146100b2578063ba8b1d1a146100c5575b600080fd5b6100956100903660046102ed565b61015e565b6040516001600160a01b0390911681526020015b60405180910390f35b600054610095906001600160a01b031681565b6100ce60035481565b6040519081526020016100a9565b6100ff6100ea366004610327565b60026020526000908152604090205460ff1681565b60405190151581526020016100a9565b61012261011d36600461034b565b610271565b005b600154610095906001600160a01b031681565b6100957f0000000000000000000000006b8340b759d72e08b3fb674b48547e80631007cb81565b6040516bffffffffffffffffffffffff193360601b1660208201526034810182905260009060540160405160208183030381529060405280519060200120915082600381905550817f000000000000000000000000cd7112ae7c3b2505f0795c1ba965e5694c25d6967f0000000000000000000000004207c2a3491d2f3ae33609588ddfebeb8eebcb6e7f0000000000000000000000006b8340b759d72e08b3fb674b48547e80631007cb600080604051610218906102e0565b610226959493929190610384565b8190604051809103906000f5905080158015610246573d6000803e3d6000fd5b506001600160a01b0381166000908152600260205260409020805460ff191660011790559392505050565b6000546001600160a01b031615158061029457506001546001600160a01b031615155b156102b25760405163ccbe17fd60e01b815260040160405180910390fd5b600080546001600160a01b039384166001600160a01b03199182161790915560018054929093169116179055565b614746806103db83390190565b6000806040838503121561030057600080fd5b50508035926020909101359150565b6001600160a01b038116811461032457600080fd5b50565b60006020828403121561033957600080fd5b81356103448161030f565b9392505050565b6000806040838503121561035e57600080fd5b82356103698161030f565b915060208301356103798161030f565b809150509250929050565b6001600160a01b038681168252858116602083015284811660408301528316606082015260a08101600283106103ca57634e487b7160e01b600052602160045260246000fd5b826080830152969550505050505056fe6101a06040523480156200001257600080fd5b50604051620047463803806200474683398101604081905262000035916200022d565b6001600160a01b0380841660805280861660c05280851660e052859085908590859085908590859085908590859082161562000072578162000074565b305b6001600160a01b03166101205260408051635d458e8d60e11b81529051339163ba8b1d1a9160048083019260209291908290030181865afa158015620000be573d6000803e3d6000fd5b505050506040513d601f19601f82011682018060405250810190620000e49190620002b0565b610140523361010052806001811115620001025762000102620002ca565b60a0816001811115620001195762000119620002ca565b9052505050505050336001600160a01b031663927ede2d6040518163ffffffff1660e01b8152600401602060405180830381865afa15801562000160573d6000803e3d6000fd5b505050506040513d601f19601f82011682018060405250810190620001869190620002e0565b6001600160a01b0316610160526040805163774d18d160e11b81529051339163ee9a31a29160048083019260209291908290030181865afa158015620001d0573d6000803e3d6000fd5b505050506040513d601f19601f82011682018060405250810190620001f69190620002e0565b6001600160a01b031661018052506200030798505050505050505050565b6001600160a01b03811681146200022a57600080fd5b50565b600080600080600060a086880312156200024657600080fd5b8551620002538162000214565b6020870151909550620002668162000214565b6040870151909450620002798162000214565b60608701519093506200028c8162000214565b608087015190925060028110620002a257600080fd5b809150509295509295909350565b600060208284031215620002c357600080fd5b5051919050565b634e487b7160e01b600052602160045260246000fd5b600060208284031215620002f357600080fd5b8151620003008162000214565b9392505050565b60805160a05160c05160e05161010051610120516101405161016051610180516142fc6200044a600039600081816101d5015281816113eb015261143a0152600081816105bd0152818161158f01528181611e4a0152611eb0015260008181610249015281816107cc01528181610849015281816109e601528181610e6f01528181610f180152818161172c015281816117f10152818161186e01528181611afa01528181611bb301528181611cb50152611ddd0152600081816103ae0152818161146b015281816115ba0152611e86015260006104880152600081816101620152610a0f01526000818161037a0152818161073d01528181610e95015281816117670152611b290152600081816104bc01528181610b8501528181610e11015261102a015260008181610589015281816111d5015261127e01526142fc6000f3fe6080604052600436106101445760003560e01c806388bc2ef3116100b6578063c1b8411a1161006f578063c1b8411a14610476578063c6525f2c146104aa578063e7f82c75146104eb578063ed0e26b914610518578063f434c91414610577578063fc8fa43d146105ab57600080fd5b806388bc2ef314610368578063ad42938b1461039c578063b59ef50f146103d0578063b71c1179146103f0578063bf557aee14610403578063c18541291461045657600080fd5b806356539f391161010857806356539f391461023757806361c864171461027957806369ce22331461028e57806369d31fdd146102ae5780636dfa7268146102c15780637de6fba2146102f057600080fd5b80631d831d5c146101505780632241dc52146101a15780632847f1f3146101c357806338eb2044146101f7578063551ebbf01461021757600080fd5b3661014b57005b600080fd5b34801561015c57600080fd5b506101847f000000000000000000000000000000000000000000000000000000000000000081565b6040516001600160a01b0390911681526020015b60405180910390f35b3480156101ad57600080fd5b506101c16101bc366004613c89565b6105df565b005b3480156101cf57600080fd5b506101847f000000000000000000000000000000000000000000000000000000000000000081565b34801561020357600080fd5b506101c1610212366004613d15565b610617565b34801561022357600080fd5b506101c1610232366004613d46565b6109b0565b34801561024357600080fd5b5061026b7f000000000000000000000000000000000000000000000000000000000000000081565b604051908152602001610198565b34801561028557600080fd5b5061026b610b2f565b34801561029a57600080fd5b506101c16102a9366004613d90565b610b81565b6101c16102bc366004613d15565b610bfa565b3480156102cd57600080fd5b506102e16102dc366004613d90565b610d6b565b60405161019893929190613dad565b3480156102fc57600080fd5b5061033e61030b366004613d90565b6003602052600090815260409020805460019091015463ffffffff82169164010000000090046001600160a01b03169083565b6040805163ffffffff90941684526001600160a01b03909216602084015290820152606001610198565b34801561037457600080fd5b506101847f000000000000000000000000000000000000000000000000000000000000000081565b3480156103a857600080fd5b506101847f000000000000000000000000000000000000000000000000000000000000000081565b3480156103dc57600080fd5b506101c16103eb366004613e06565b610dd5565b6101c16103fe366004613d90565b6110a9565b34801561040f57600080fd5b5061044661041e366004613d90565b6001600160a01b03908116600090815260036020526040902054640100000000900416151590565b6040519015158152602001610198565b34801561046257600080fd5b506101c1610471366004613e19565b611157565b34801561048257600080fd5b506101847f000000000000000000000000000000000000000000000000000000000000000081565b3480156104b657600080fd5b506104de7f000000000000000000000000000000000000000000000000000000000000000081565b6040516101989190613e92565b3480156104f757600080fd5b5061026b610506366004613d90565b60026020526000908152604090205481565b34801561052457600080fd5b50610558610533366004613d90565b600160208190526000918252604090912080549101546001600160401b039091169082565b604080516001600160401b039093168352602083019190915201610198565b34801561058357600080fd5b506101847f000000000000000000000000000000000000000000000000000000000000000081565b3480156105b757600080fd5b506101847f000000000000000000000000000000000000000000000000000000000000000081565b60005b818110156106125761060a8383838181106105ff576105ff613eba565b905060800201610617565b6001016105e2565b505050565b60006106266020830183613d90565b9050600061eeee61063a6020850185613d90565b6001600160a01b031614905080801561066d575061eeee6106616060850160408601613d90565b6001600160a01b031614155b8015610692575060006106866060850160408601613d90565b6001600160a01b031614155b156106d1576106a76060840160408501613d90565b604051630a0a3b6b60e31b81526001600160a01b0390911660048201526024015b60405180910390fd5b62030d406106e56040850160208601613ed0565b63ffffffff161080156106f6575080155b156107385762030d4061070f6040850160208601613ed0565b604051634f3dbeb360e11b815263ffffffff9283166004820152911660248201526044016106c8565b61086f7f00000000000000000000000000000000000000000000000000000000000000006001600160a01b031663293c49996040518163ffffffff1660e01b8152600401602060405180830381865afa158015610799573d6000803e3d6000fd5b505050506040513d601f19601f820116820180604052508101906107bd9190613ef6565b6040516331a9108f60e11b81527f000000000000000000000000000000000000000000000000000000000000000060048201526001600160a01b039190911690636352211e90602401602060405180830381865afa158015610823573d6000803e3d6000fd5b505050506040513d601f19601f820116820180604052508101906108479190613ef6565b7f0000000000000000000000000000000000000000000000000000000000000000601c61118b565b60006108816060850160408601613d90565b6001600160a01b03161480156108b157506001600160a01b03821660009081526020819052604090206001015415155b1561090c576001600160a01b0380831660009081526003602090815260408083208151606081018352815463ffffffff811682526401000000009004909516928501929092526001909101549083015261090c91849061130f565b604051806060016040528084602001602081019061092a9190613ed0565b63ffffffff1681526020016109456060860160408701613d90565b6001600160a01b0390811682526060909501356020918201529284166000908152600384526040908190208251815495840151909616640100000000026001600160c01b031990951663ffffffff909616959095179390931784559091015160019092019190915550565b6001600160a01b0383166109d7576040516309a9c30b60e41b815260040160405180910390fd5b60405163ea78803f60e01b81527f000000000000000000000000000000000000000000000000000000000000000060048201526000907f00000000000000000000000000000000000000000000000000000000000000006001600160a01b03169063ea78803f90602401602060405180830381865afa158015610a5e573d6000803e3d6000fd5b505050506040513d601f19601f82011682018060405250810190610a829190613ef6565b90506001600160a01b038116610aab57604051635a33845560e01b815260040160405180910390fd5b6001600160a01b03828116600090815260036020526040902054640100000000900416610af65760405163393e175160e01b81526001600160a01b03831660048201526024016106c8565b610b0b6001600160a01b0382163330886116b6565b6000610b198287858761171d565b9050610b2786848388611910565b505050505050565b6000466001819003610b445761210591505090565b8061210503610b5557600191505090565b8062aa36a703610b695762014a3491505090565b8062014a3403610b7d5762aa36a791505090565b5090565b60007f00000000000000000000000000000000000000000000000000000000000000006001811115610bb557610bb5613e7c565b14610bd35760405163218a9a2d60e11b815260040160405180910390fd5b6001600160a01b038116600090815260026020526040902054610bf7908290611a94565b50565b610c0333611e46565b610c2057604051630439dbd360e51b815260040160405180910390fd5b60208101803590600290600090610c379085613d90565b6001600160a01b03166001600160a01b031681526020019081526020016000206000828254610c669190613f29565b90915550600190506000610c7d6020840184613d90565b6001600160a01b0316815260208101919091526040908101600020546001600160401b031690610cb39060608401908401613f51565b6001600160401b03161115610bf7576040810160016000610cd76020850185613d90565b6001600160a01b031681526020810191909152604001600020610cfa8282613f6e565b50610d0a90506020820182613d90565b6001600160a01b03167f551b6b99b4c48e3265d2885ab0d93779be2402293261e074f7bf74b2c8f45b6f610d446060840160408501613f51565b604080516001600160401b039092168252606085013560208301520160405180910390a250565b6000602081815291815260409081902080546001820154835161044081018086526001600160401b0390931695919490926002850192849283019184919082845b815481526020019060010190808311610dac575050509183525050602091820154910152905083565b610e0d6060820135610dea6020840184613d90565b6080840135610dff6060860160408701613d90565b602086013560a08701611f43565b60017f00000000000000000000000000000000000000000000000000000000000000006001811115610e4157610e41613e7c565b03610e6057610e60610e566020830183613d90565b6080830135611a94565b604051632eec7b5560e11b81527f000000000000000000000000000000000000000000000000000000000000000060048201527f00000000000000000000000000000000000000000000000000000000000000006001600160a01b031690635dd8f6aa90602401602060405180830381865afa158015610ee4573d6000803e3d6000fd5b505050506040513d601f19601f82011682018060405250810190610f089190613ef6565b6001600160a01b031663c7fb92de7f000000000000000000000000000000000000000000000000000000000000000060608401803590610f4b9060408701613d90565b6040516001600160e01b031960e086901b168152600481019390935260248301919091526001600160a01b0316604482015260a06064820152600060a48201819052608482015260c4016020604051808303816000875af1158015610fb4573d6000803e3d6000fd5b505050506040513d601f19601f82011682018060405250810190610fd89190613fa1565b507f487194902d206a126abe9f23a4e2b78d1600ed8034b1423290a13edd6ebc7d1461100a6060830160408401613d90565b6110176020840184613d90565b60608401356080850135602086013560017f0000000000000000000000000000000000000000000000000000000000000000600181111561105a5761105a613e7c565b14611066576000611069565b60015b604080516001600160a01b0397881681529690951660208701529385019290925260608401526080830152151560a082015260c00160405180910390a150565b6001600160a01b0380821660008181526003602090815260408083208151606081018352815463ffffffff811682526401000000009004909616868401526001908101548683018190529484529183905290912001541015611148576040808201516001600160a01b0384166000908152602081905282902060010154915163091df9e560e31b81526106c89290600401918252602082015260400190565b61115334838361130f565b5050565b60005b818110156106125761118383838381811061117757611177613eba565b90506104a00201610dd5565b60010161115a565b336001600160a01b0384168114801590611242575060405163c161c93f60e01b81526001600160a01b038281166004830152858116602483015260448201859052606482018490527f0000000000000000000000000000000000000000000000000000000000000000169063c161c93f90608401602060405180830381865afa15801561121c573d6000803e3d6000fd5b505050506040513d601f19601f820116820180604052508101906112409190613fba565b155b80156112eb575060405163c161c93f60e01b81526001600160a01b038281166004830152858116602483015260006044830152606482018490527f0000000000000000000000000000000000000000000000000000000000000000169063c161c93f90608401602060405180830381865afa1580156112c5573d6000803e3d6000fd5b505050506040513d601f19601f820116820180604052508101906112e99190613fba565b155b156113095760405163075fd2b160e01b815260040160405180910390fd5b50505050565b60008315611330576040516352864b0160e11b815260040160405180910390fd5b6001600160a01b038316600090815260208190526040812060018101805490839055815490929190829061136c906001600160401b0316613fdc565b91906101000a8154816001600160401b0302191690836001600160401b031602179055905060006001600160a01b031684602001516001600160a01b0316036113d35760405163393e175160e01b81526001600160a01b03861660048201526024016106c8565b6001600160a01b03851661eeee146114ce57611410857f000000000000000000000000000000000000000000000000000000000000000084612073565b6020808501518551604080519384018152600084525163540abf7360e01b81526001600160a01b037f0000000000000000000000000000000000000000000000000000000000000000169363540abf7393611497938b9391927f0000000000000000000000000000000000000000000000000000000000000000928a929190600401614052565b600060405180830381600087803b1580156114b157600080fd5b505af11580156114c5573d6000803e3d6000fd5b505050506114d2565b8192505b6001600160a01b03851660009081526020819052604081206114f690600201612103565b6001600160a01b03871660009081526020819052604081206022015491925090611522906001906140a5565b604080516060810182526020808a01516001600160a01b039081168352818301898152845180860186526001600160401b03808b1682528185018a9052858701918252955194518316602486015290516044850152518051909416606484015292015160848201529192507f00000000000000000000000000000000000000000000000000000000000000001690633dbb202b9087907f00000000000000000000000000000000000000000000000000000000000000009060a40160408051601f198184030181529181526020820180516001600160e01b03166369d31fdd60e01b179052516001600160e01b031960e086901b16815261162c929190620493e0906004016140b8565b6000604051808303818588803b15801561164557600080fd5b505af1158015611659573d6000803e3d6000fd5b5050604080518581526001600160401b03881660208201526001600160a01b038c1694508693507f3e069c1f498cba23d7d2b74b84311469e8da6e527cade62061d642c61b64e0de92500160405180910390a35050505050505050565b6040516001600160a01b0384811660248301528381166044830152606482018390526113099186918216906323b872dd906084015b604051602081830303815290604052915060e01b6020820180516001600160e01b0383818316178352505050506134b9565b604051630862026560e41b81527f000000000000000000000000000000000000000000000000000000000000000060048201526001600160a01b03838116602483015260009182917f00000000000000000000000000000000000000000000000000000000000000001690638620265090604401602060405180830381865afa1580156117ae573d6000803e3d6000fd5b505050506040513d601f19601f820116820180604052508101906117d29190613ef6565b90506001600160a01b03811661182c57604051630c9ae01360e01b81527f000000000000000000000000000000000000000000000000000000000000000060048201526001600160a01b03851660248201526044016106c8565b6000611838853061351c565b60408051602081018252600081529051635db90a7f60e11b81529192506001600160a01b0384169163bb7214fe9161189e9130917f0000000000000000000000000000000000000000000000000000000000000000918b918d918c9186916004016140f2565b6020604051808303816000875af11580156118bd573d6000803e3d6000fd5b505050506040513d601f19601f820116820180604052508101906118e19190613fa1565b9250806118ee863061351c565b6118f891906140a5565b831461190657611906614144565b5050949350505050565b600061191d8584846135b3565b6001600160a01b0385166000908152602081815260408083208151610440810180845295965093946119889487949093600290930192849290830191849182845b81548152602001906001019080831161195e575050509183525050602091820154910152906135f8565b6001600160a01b038616600090815260208181526040909120825192935083926002909101916119b9918391613bfb565b50602091820151908201556001600160a01b0386166000908152908190526040812060010180548692906119ee908490613f29565b92505081905550846001600160a01b0316836001600160a01b03167f7b58dbb78e7edc690b0688a53dea0c443d630c4a5db66c3c47d4ff2044c977288460018560200151611a3c91906140a5565b6001600160a01b038a166000908152602081905260409020611a6090600201612103565b60408051938452602084019290925290820152606081018a90526080810188905260a00160405180910390a3505050505050565b6001600160a01b03821660009081526002602052604090205480821115611ace57604051632858f9ab60e11b815260040160405180910390fd5b6001600160a01b03838116600081815260026020526040808220868603905551630862026560e41b81527f000000000000000000000000000000000000000000000000000000000000000060048201526024810192909252917f00000000000000000000000000000000000000000000000000000000000000001690638620265090604401602060405180830381865afa158015611b70573d6000803e3d6000fd5b505050506040513d601f19601f82011682018060405250810190611b949190613ef6565b90506001600160a01b038116611bee57604051630c9ae01360e01b81527f000000000000000000000000000000000000000000000000000000000000000060048201526001600160a01b03851660248201526044016106c8565b6001600160a01b03841661eeee14611d9e576040516370a0823160e01b81523060048201526000906001600160a01b038616906370a0823190602401602060405180830381865afa158015611c47573d6000803e3d6000fd5b505050506040513d601f19601f82011682018060405250810190611c6b9190613fa1565b9050611c78858386612073565b60408051602080820183526000808352835191820184528082529251639e6eec0560e01b81526001600160a01b03861693639e6eec0593611ce5937f0000000000000000000000000000000000000000000000000000000000000000938c938c939092909160040161415a565b600060405180830381600087803b158015611cff57600080fd5b505af1158015611d13573d6000803e3d6000fd5b505050508381611d2391906140a5565b6040516370a0823160e01b81523060048201526001600160a01b038716906370a0823190602401602060405180830381865afa158015611d67573d6000803e3d6000fd5b505050506040513d601f19601f82011682018060405250810190611d8b9190613fa1565b14611d9857611d98614144565b50611309565b60408051602080820183526000808352835191820184528082529251639e6eec0560e01b81526001600160a01b03851693639e6eec05938893611e0e937f0000000000000000000000000000000000000000000000000000000000000000938c938793919290919060040161415a565b6000604051808303818588803b158015611e2757600080fd5b505af1158015611e3b573d6000803e3d6000fd5b505050505050505050565b60007f00000000000000000000000000000000000000000000000000000000000000006001600160a01b0316826001600160a01b0316148015611f3d57507f00000000000000000000000000000000000000000000000000000000000000006001600160a01b03167f00000000000000000000000000000000000000000000000000000000000000006001600160a01b0316636e296e456040518163ffffffff1660e01b81526004016020604051808303816000875af1158015611f0e573d6000803e3d6000fd5b505050506040513d601f19601f82011682018060405250810190611f329190613ef6565b6001600160a01b0316145b92915050565b6001600160a01b0385166000908152600460209081526040808320600886901c8452909152902054600160ff84161b1615611f945760405163ed9bdd0760e01b8152600481018390526024016106c8565b6001600160a01b0385166000908152600460209081526040808320600886901c845290915281208054600160ff86161b179055612003611fd58887876135b3565b6040805161040081810190925290859060209083908390808284376000920191909152508791506136fe9050565b6001600160a01b03871660009081526001602081905260409091200154909150811461206a576001600160a01b0386166000908152600160208190526040918290200154905163286f87c960e21b81526004810191909152602481018290526044016106c8565b50505050505050565b604080516001600160a01b038416602482015260448082018490528251808303909101815260649091019091526020810180516001600160e01b031663095ea7b360e01b1790526120c48482613a4c565b611309576040516001600160a01b038481166024830152600060448301526120f991869182169063095ea7b3906064016116eb565b61130984826134b9565b602081015460009080820361213a57507f27ae5ba08d7291c96c8cbddcc148bf48a6d68c7974b94356f53754ef6171d75792915050565b600083600183161561215c578054600052600060205260406000209350612a0f565b60028316156121a15760018101546000527fad3228b676f7d3cd4284a5443f17f1962b36e491b30a40b2405849e597ba5fb56020526040600020935060019150612a0f565b60048316156121e65760028101546000527fb4c11951957c6f8f642c4af61cd6b24640fec6dc7fc607ee8206a99e92410d306020526040600020935060029150612a0f565b600883161561222b5760038101546000527f21ddb9a356815c3fac1026b6dec5df3124afbadb485c9ba5a3e3398a04b7ba856020526040600020935060039150612a0f565b60108316156122705760048101546000527fe58769b32a1beaf1ea27375a44095a0d1fb664ce2dd358e7fcbfb78c26a193446020526040600020935060049150612a0f565b60208316156122b55760058101546000527f0eb01ebfc9ed27500cd4dfc979272d1f0913cc9f66540d7e8005811109e1cf2d6020526040600020935060059150612a0f565b60408316156122fa5760068101546000527f887c22bd8750d34016ac3c66b5ff102dacdd73f6b014e710b51e8022af9a19686020526040600020935060069150612a0f565b608083161561233f5760078101546000527fffd70157e48063fc33c97a050f7f640233bf646cc98d9524c6b92bcf3ab56f836020526040600020935060079150612a0f565b6101008316156123855760088101546000527f9867cc5f7f196b93bae1e27e6320742445d290f2263827498b54fec539f756af6020526040600020935060089150612a0f565b6102008316156123cb5760098101546000527fcefad4e508c098b9a7e1d8feb19955fb02ba9675585078710969d3440f5054e06020526040600020935060099150612a0f565b61040083161561241157600a8101546000527ff9dc3e7fe016e050eff260334f18a5d4fe391d82092319f5964f2e2eb7c1c3a560205260406000209350600a9150612a0f565b61080083161561245757600b8101546000527ff8b13a49e282f609c317a833fb8d976d11517c571d1221a265d25af778ecf89260205260406000209350600b9150612a0f565b61100083161561249d57600c8101546000527f3490c6ceeb450aecdc82e28293031d10c7d73bf85e57bf041a97360aa2c5d99c60205260406000209350600c9150612a0f565b6120008316156124e357600d8101546000527fc1df82d9c4b87413eae2ef048f94b4d3554cea73d92b0f7af96e0271c691e2bb60205260406000209350600d9150612a0f565b61400083161561252957600e8101546000527f5c67add7c6caf302256adedf7ab114da0acfe870d449a3a489f781d659e8becc60205260406000209350600e9150612a0f565b61800083161561256f57600f8101546000527fda7bce9f4e8618b6bd2f4132ce798cdc7a60e7e1460a7299e3c6342a579626d260205260406000209350600f9150612a0f565b620100008316156125b65760108101546000527f2733e50f526ec2fa19a22b31e8ed50f23cd1fdf94c9154ed3a7609a2f1ff981f6020526040600020935060109150612a0f565b620200008316156125fd5760118101546000527fe1d3b5c807b281e4683cc6d6315cf95b9ade8641defcb32372f1c126e398ef7a6020526040600020935060119150612a0f565b620400008316156126445760128101546000527f5a2dce0a8a7f68bb74560f8f71837c2c2ebbcbf7fffb42ae1896f13f7c7479a06020526040600020935060129150612a0f565b6208000083161561268b5760138101546000527fb46a28b6f55540f89444f63de0378e3d121be09e06cc9ded1c20e65876d36aa06020526040600020935060139150612a0f565b621000008316156126d25760148101546000527fc65e9645644786b620e2dd2ad648ddfcbf4a7e5b1a3a4ecfe7f64667a3f0b7e26020526040600020935060149150612a0f565b622000008316156127195760158101546000527ff4418588ed35a2458cffeb39b93d26f18d2ab13bdce6aee58e7b99359ec2dfd96020526040600020935060159150612a0f565b624000008316156127605760168101546000527f5a9c16dc00d6ef18b7933a6f8dc65ccb55667138776f7dea101070dc8796e3776020526040600020935060169150612a0f565b628000008316156127a75760178101546000527f4df84f40ae0c8229d0d6069e5c8f39a7c299677a09d367fc7b05e3bc380ee6526020526040600020935060179150612a0f565b63010000008316156127ef5760188101546000527fcdc72595f74c7b1043d0e1ffbab734648c838dfb0527d971b602bc216c9619ef6020526040600020935060189150612a0f565b63020000008316156128375760198101546000527f0abf5ac974a1ed57f4050aa510dd9c74f508277b39d7973bb2dfccc5eeb0618d6020526040600020935060199150612a0f565b630400000083161561287f57601a8101546000527fb8cd74046ff337f0a7bf2c8e03e10f642c1886798d71806ab1e888d9e5ee87d060205260406000209350601a9150612a0f565b63080000008316156128c757601b8101546000527f838c5655cb21c6cb83313b5a631175dff4963772cce9108188b34ac87c81c41e60205260406000209350601b9150612a0f565b631000000083161561290f57601c8101546000527f662ee4dd2dd7b2bc707961b1e646c4047669dcb6584f0d8d770daf5d7e7deb2e60205260406000209350601c9150612a0f565b632000000083161561295757601d8101546000527f388ab20e2573d171a88108e79d820e98f26c0b84aa8b2f4aa4968dbb818ea32260205260406000209350601d9150612a0f565b634000000083161561299f57601e8101546000527f93237c50ba75ee485f4c22adf2f741400bdf8d6a9cc7df7ecae576221665d73560205260406000209350601e9150612a0f565b63800000008316156129e757601f8101546000527f8448818bb4ae4562849e949e17ac16e0be16688e156b5cf15e098c627c0056a960205260406000209350601f9150612a0f565b7f27ae5ba08d7291c96c8cbddcc148bf48a6d68c7974b94356f53754ef6171d7579350602091505b601e82116134b1576001821015612a6d57600283168015612a3b57600182015460005284602052612a64565b846000527fad3228b676f7d3cd4284a5443f17f1962b36e491b30a40b2405849e597ba5fb56020525b50604060002093505b6002821015612ac357600483168015612a9157600282015460005284602052612aba565b846000527fb4c11951957c6f8f642c4af61cd6b24640fec6dc7fc607ee8206a99e92410d306020525b50604060002093505b6003821015612b1957600883168015612ae757600382015460005284602052612b10565b846000527f21ddb9a356815c3fac1026b6dec5df3124afbadb485c9ba5a3e3398a04b7ba856020525b50604060002093505b6004821015612b6f57601083168015612b3d57600482015460005284602052612b66565b846000527fe58769b32a1beaf1ea27375a44095a0d1fb664ce2dd358e7fcbfb78c26a193446020525b50604060002093505b6005821015612bc557602083168015612b9357600582015460005284602052612bbc565b846000527f0eb01ebfc9ed27500cd4dfc979272d1f0913cc9f66540d7e8005811109e1cf2d6020525b50604060002093505b6006821015612c1b57604083168015612be957600682015460005284602052612c12565b846000527f887c22bd8750d34016ac3c66b5ff102dacdd73f6b014e710b51e8022af9a19686020525b50604060002093505b6007821015612c7157608083168015612c3f57600782015460005284602052612c68565b846000527fffd70157e48063fc33c97a050f7f640233bf646cc98d9524c6b92bcf3ab56f836020525b50604060002093505b6008821015612cc85761010083168015612c9657600882015460005284602052612cbf565b846000527f9867cc5f7f196b93bae1e27e6320742445d290f2263827498b54fec539f756af6020525b50604060002093505b6009821015612d1f5761020083168015612ced57600982015460005284602052612d16565b846000527fcefad4e508c098b9a7e1d8feb19955fb02ba9675585078710969d3440f5054e06020525b50604060002093505b600a821015612d765761040083168015612d4457600a82015460005284602052612d6d565b846000527ff9dc3e7fe016e050eff260334f18a5d4fe391d82092319f5964f2e2eb7c1c3a56020525b50604060002093505b600b821015612dcd5761080083168015612d9b57600b82015460005284602052612dc4565b846000527ff8b13a49e282f609c317a833fb8d976d11517c571d1221a265d25af778ecf8926020525b50604060002093505b600c821015612e245761100083168015612df257600c82015460005284602052612e1b565b846000527f3490c6ceeb450aecdc82e28293031d10c7d73bf85e57bf041a97360aa2c5d99c6020525b50604060002093505b600d821015612e7b5761200083168015612e4957600d82015460005284602052612e72565b846000527fc1df82d9c4b87413eae2ef048f94b4d3554cea73d92b0f7af96e0271c691e2bb6020525b50604060002093505b600e821015612ed25761400083168015612ea057600e82015460005284602052612ec9565b846000527f5c67add7c6caf302256adedf7ab114da0acfe870d449a3a489f781d659e8becc6020525b50604060002093505b600f821015612f295761800083168015612ef757600f82015460005284602052612f20565b846000527fda7bce9f4e8618b6bd2f4132ce798cdc7a60e7e1460a7299e3c6342a579626d26020525b50604060002093505b6010821015612f81576201000083168015612f4f57601082015460005284602052612f78565b846000527f2733e50f526ec2fa19a22b31e8ed50f23cd1fdf94c9154ed3a7609a2f1ff981f6020525b50604060002093505b6011821015612fd9576202000083168015612fa757601182015460005284602052612fd0565b846000527fe1d3b5c807b281e4683cc6d6315cf95b9ade8641defcb32372f1c126e398ef7a6020525b50604060002093505b6012821015613031576204000083168015612fff57601282015460005284602052613028565b846000527f5a2dce0a8a7f68bb74560f8f71837c2c2ebbcbf7fffb42ae1896f13f7c7479a06020525b50604060002093505b601382101561308957620800008316801561305757601382015460005284602052613080565b846000527fb46a28b6f55540f89444f63de0378e3d121be09e06cc9ded1c20e65876d36aa06020525b50604060002093505b60148210156130e15762100000831680156130af576014820154600052846020526130d8565b846000527fc65e9645644786b620e2dd2ad648ddfcbf4a7e5b1a3a4ecfe7f64667a3f0b7e26020525b50604060002093505b601582101561313957622000008316801561310757601582015460005284602052613130565b846000527ff4418588ed35a2458cffeb39b93d26f18d2ab13bdce6aee58e7b99359ec2dfd96020525b50604060002093505b601682101561319157624000008316801561315f57601682015460005284602052613188565b846000527f5a9c16dc00d6ef18b7933a6f8dc65ccb55667138776f7dea101070dc8796e3776020525b50604060002093505b60178210156131e95762800000831680156131b7576017820154600052846020526131e0565b846000527f4df84f40ae0c8229d0d6069e5c8f39a7c299677a09d367fc7b05e3bc380ee6526020525b50604060002093505b60188210156132425763010000008316801561321057601882015460005284602052613239565b846000527fcdc72595f74c7b1043d0e1ffbab734648c838dfb0527d971b602bc216c9619ef6020525b50604060002093505b601982101561329b5763020000008316801561326957601982015460005284602052613292565b846000527f0abf5ac974a1ed57f4050aa510dd9c74f508277b39d7973bb2dfccc5eeb0618d6020525b50604060002093505b601a8210156132f4576304000000831680156132c257601a820154600052846020526132eb565b846000527fb8cd74046ff337f0a7bf2c8e03e10f642c1886798d71806ab1e888d9e5ee87d06020525b50604060002093505b601b82101561334d5763080000008316801561331b57601b82015460005284602052613344565b846000527f838c5655cb21c6cb83313b5a631175dff4963772cce9108188b34ac87c81c41e6020525b50604060002093505b601c8210156133a65763100000008316801561337457601c8201546000528460205261339d565b846000527f662ee4dd2dd7b2bc707961b1e646c4047669dcb6584f0d8d770daf5d7e7deb2e6020525b50604060002093505b601d8210156133ff576320000000831680156133cd57601d820154600052846020526133f6565b846000527f388ab20e2573d171a88108e79d820e98f26c0b84aa8b2f4aa4968dbb818ea3226020525b50604060002093505b601e8210156134585763400000008316801561342657601e8201546000528460205261344f565b846000527f93237c50ba75ee485f4c22adf2f741400bdf8d6a9cc7df7ecae576221665d7356020525b50604060002093505b601f8210156134b15763800000008316801561347f57601f820154600052846020526134a8565b846000527f8448818bb4ae4562849e949e17ac16e0be16688e156b5cf15e098c627c0056a96020525b50604060002093505b505050919050565b60006134ce6001600160a01b03841683613af4565b905080516000141580156134f35750808060200190518101906134f19190613fba565b155b1561061257604051635274afe760e01b81526001600160a01b03841660048201526024016106c8565b600061eeed196001600160a01b0384160161354257506001600160a01b03811631611f3d565b6040516370a0823160e01b81526001600160a01b0383811660048301528416906370a0823190602401602060405180830381865afa158015613588573d6000803e3d6000fd5b505050506040513d601f19601f820116820180604052508101906135ac9190613fa1565b9392505050565b60408051602081018590529081018390526001600160a01b03821660608201526000906080016040516020818303038152906040528051906020012090509392505050565b613600613c35565b6000836020018051613611906141a1565b90819052905060016136256020600261429e565b61362f91906140a5565b81111561364f57604051638eab04bb60e01b815260040160405180910390fd5b60005b60208110156136e4578160011660010361368b5784518490826020811061367b5761367b613eba565b602002015250839150611f3d9050565b8451816020811061369e5761369e613eba565b6020020151846040516020016136be929190918252602082015260400190565b60408051601f1981840301815291905280516020909101209350600191821c9101613652565b50604051638eab04bb60e01b815260040160405180910390fd5b6020600582811b8216948552835194820394909452604060008181206002851615871b808503919091528386015190528181206004851615871b808503919091528286015190528181206008851615871b80850391909152606086015190528181206010851615871b8085039190915260808087015190915282822084861615881b8086039190915260a0870151905282822083861615881b8086039190915260c0870151905282822090851615871b8085039190915260e0860151905281812061010080861615881b80860392909252860151905281812061020080861615881b80860392909252610120870151909152828220610400861615881b808603919091526101408701519052828220610800861615881b808603919091526101608701519052828220611000861615881b808603919091526101808701519052828220612000861615881b808603919091526101a08701519052828220614000861615881b808603919091526101c08701519052828220618000861615881b808603919091526101e0870151905282822062010000861615881b8086039190915290860151905281812062020000851615871b80850391909152610220860151905281812062040000851615871b80850391909152610240860151905281812062080000851615871b80850391909152610260860151905281812062100000851615871b80850391909152610280860151905281812062200000851615871b808503919091526102a0860151905281812062400000851615871b808503919091526102c0860151905281812062800000851615871b808503919091526102e086015190528181206301000000851615871b8085039190915261030086015190528181206302000000851615871b8085039190915261032086015190528181206304000000851615871b8085039190915261034086015190528181206308000000851615871b8085039190915261036086015190528181206310000000851615871b8085039190915261038086015190528181206320000000851615871b808503919091526103a086015190528181206340000000851615871b808503919091526103c0860151905281812063800000009094161590951b91829003929092526103e090920151909152902090565b6000806000846001600160a01b031684604051613a6991906142aa565b6000604051808303816000865af19150503d8060008114613aa6576040519150601f19603f3d011682016040523d82523d6000602084013e613aab565b606091505b5091509150818015613ad5575080511580613ad5575080806020019051810190613ad59190613fba565b8015613aeb57506000856001600160a01b03163b115b95945050505050565b60606135ac8383600084600080856001600160a01b03168486604051613b1a91906142aa565b60006040518083038185875af1925050503d8060008114613b57576040519150601f19603f3d011682016040523d82523d6000602084013e613b5c565b606091505b5091509150613b6c868383613b76565b9695505050505050565b606082613b8b57613b8682613bd2565b6135ac565b8151158015613ba257506001600160a01b0384163b155b15613bcb57604051639996b31560e01b81526001600160a01b03851660048201526024016106c8565b50806135ac565b805115613be25780518082602001fd5b604051630a12f52160e11b815260040160405180910390fd5b8260208101928215613c29579160200282015b82811115613c29578251825591602001919060010190613c0e565b50610b7d929150613c55565b6040518060400160405280613c48613c6a565b8152602001600081525090565b5b80821115610b7d5760008155600101613c56565b6040518061040001604052806020906020820280368337509192915050565b60008060208385031215613c9c57600080fd5b82356001600160401b0380821115613cb357600080fd5b818501915085601f830112613cc757600080fd5b813581811115613cd657600080fd5b8660208260071b8501011115613ceb57600080fd5b60209290920196919550909350505050565b600060808284031215613d0f57600080fd5b50919050565b600060808284031215613d2757600080fd5b6135ac8383613cfd565b6001600160a01b0381168114610bf757600080fd5b60008060008060808587031215613d5c57600080fd5b843593506020850135613d6e81613d31565b9250604085013591506060850135613d8581613d31565b939692955090935050565b600060208284031215613da257600080fd5b81356135ac81613d31565b6001600160401b038416815260208082018490528251610460830191906000604085015b83821015613def578251815291830191600191909101908301613dd1565b505050506020830151610440830152949350505050565b60006104a08284031215613d0f57600080fd5b60008060208385031215613e2c57600080fd5b82356001600160401b0380821115613e4357600080fd5b818501915085601f830112613e5757600080fd5b813581811115613e6657600080fd5b8660206104a083028501011115613ceb57600080fd5b634e487b7160e01b600052602160045260246000fd5b6020810160028310613eb457634e487b7160e01b600052602160045260246000fd5b91905290565b634e487b7160e01b600052603260045260246000fd5b600060208284031215613ee257600080fd5b813563ffffffff811681146135ac57600080fd5b600060208284031215613f0857600080fd5b81516135ac81613d31565b634e487b7160e01b600052601160045260246000fd5b80820180821115611f3d57611f3d613f13565b6001600160401b0381168114610bf757600080fd5b600060208284031215613f6357600080fd5b81356135ac81613f3c565b8135613f7981613f3c565b6001600160401b0381166001600160401b031983541617825550602082013560018201555050565b600060208284031215613fb357600080fd5b5051919050565b600060208284031215613fcc57600080fd5b815180151581146135ac57600080fd5b60006001600160401b03808316818103613ff857613ff8613f13565b6001019392505050565b60005b8381101561401d578181015183820152602001614005565b50506000910152565b6000815180845261403e816020860160208601614002565b601f01601f19169290920160200192915050565b6001600160a01b0387811682528681166020830152851660408201526060810184905263ffffffff8316608082015260c060a0820181905260009061409990830184614026565b98975050505050505050565b81810381811115611f3d57611f3d613f13565b6001600160a01b03841681526060602082018190526000906140dc90830185614026565b905063ffffffff83166040830152949350505050565b600060018060a01b03808a168352886020840152808816604084015286606084015285608084015280851660a08401525060e060c083015261413760e0830184614026565b9998505050505050505050565b634e487b7160e01b600052600160045260246000fd5b86815260018060a01b0386166020820152846040820152831515606082015260c06080820152600061418f60c0830185614026565b82810360a08401526141378185614026565b6000600182016141b3576141b3613f13565b5060010190565b600181815b808511156141f55781600019048211156141db576141db613f13565b808516156141e857918102915b93841c93908002906141bf565b509250929050565b60008261420c57506001611f3d565b8161421957506000611f3d565b816001811461422f576002811461423957614255565b6001915050611f3d565b60ff84111561424a5761424a613f13565b50506001821b611f3d565b5060208310610133831016604e8410600b8410161715614278575081810a611f3d565b61428283836141ba565b806000190482111561429657614296613f13565b029392505050565b60006135ac83836141fd565b600082516142bc818460208701614002565b919091019291505056fea2646970667358221220437e0a503e932711e0198373a5c155f51e392b1e6013c0538220a4a191424b6f64736f6c63430008170033a2646970667358221220aeb31ad03cb351f100bc96c01340271eab637070eb8abaa755e253454521d8d864736f6c63430008170033",
	"devdoc": {
		"kind": "dev",
		"methods": {
			"createForSender(uint256,bytes32)": {
				"details": "Uses the sender address as the salt, which means the same sender must call this function on both chains.",
				"params": {
					"localProjectId": "The project's ID on the local chain.",
					"salt": "The salt to use for the `create2` address."
				},
				"returns": {
					"sucker": "The address of the new sucker."
				}
			}
		},
		"version": 1
	},
	"userdoc": {
		"kind": "user",
		"methods": {
			"BRIDGE()": {
				"notice": "The bridge used to bridge tokens between the local and remote chain."
			},
			"MESSENGER()": {
				"notice": "The messenger used to send messages between the local and remote sucker."
			},
			"PERMISSIONS()": {
				"notice": "A contract storing permissions."
			},
			"TEMP_ID_STORE()": {
				"notice": "A temporary storage slot used by suckers to maintain deterministic deploys."
			},
			"configureLayerSpecific(address,address)": {
				"notice": "handles some layer specific configuration that can't be done in the constructor otherwise deployment addresses would change.messenger the OPMesssenger on this layer.bridge the OPStandardBridge on this layer."
			},
			"createForSender(uint256,bytes32)": {
				"notice": "Create a new `BPSucker` for a specific project."
			},
			"isSucker(address)": {
				"notice": "A mapping of suckers deployed by this contract."
			}
		},
		"version": 1
	},
	"gitCommit": "bbac9c765a8dbe91c32d4eb3210de82e6cb6fdd4",
	"sourceName": "src/deployers/BPBaseSuckerDeployer.sol",
	"chainId": "84532",
	"linkReferences": {},
	"deployedLinkReferences": {},
	"history": [
		{
			"_format": "sphinx-sol-ct-artifact-1",
			"merkleRoot": "0x2d4ca00627c459de699f5e6d80f06fa7c9de5e9f4b50c7bfe3f3a0ab31867acc",
			"contractName": "BPBaseSuckerDeployer",
			"address": "0x28974FFdc4B5Fb12c65DA1FcF83fC9b3B9D2793A",
			"abi": [
				{
					"type": "constructor",
					"inputs": [
						{
							"name": "directory",
							"type": "address",
							"internalType": "contract IJBDirectory"
						},
						{
							"name": "tokens",
							"type": "address",
							"internalType": "contract IJBTokens"
						},
						{
							"name": "permissions",
							"type": "address",
							"internalType": "contract IJBPermissions"
						},
						{
							"name": "_configurator",
							"type": "address",
							"internalType": "address"
						}
					],
					"stateMutability": "nonpayable"
				},
				{
					"type": "function",
					"name": "BRIDGE",
					"inputs": [],
					"outputs": [
						{
							"name": "",
							"type": "address",
							"internalType": "contract OPStandardBridge"
						}
					],
					"stateMutability": "view"
				},
				{
					"type": "function",
					"name": "MESSENGER",
					"inputs": [],
					"outputs": [
						{
							"name": "",
							"type": "address",
							"internalType": "contract OPMessenger"
						}
					],
					"stateMutability": "view"
				},
				{
					"type": "function",
					"name": "PERMISSIONS",
					"inputs": [],
					"outputs": [
						{
							"name": "",
							"type": "address",
							"internalType": "contract IJBPermissions"
						}
					],
					"stateMutability": "view"
				},
				{
					"type": "function",
					"name": "configureLayerSpecific",
					"inputs": [
						{
							"name": "messenger",
							"type": "address",
							"internalType": "contract OPMessenger"
						},
						{
							"name": "bridge",
							"type": "address",
							"internalType": "contract OPStandardBridge"
						}
					],
					"outputs": [],
					"stateMutability": "nonpayable"
				},
				{
					"type": "function",
					"name": "createForSender",
					"inputs": [
						{
							"name": "localProjectId",
							"type": "uint256",
							"internalType": "uint256"
						},
						{
							"name": "salt",
							"type": "bytes32",
							"internalType": "bytes32"
						}
					],
					"outputs": [
						{
							"name": "sucker",
							"type": "address",
							"internalType": "contract IBPSucker"
						}
					],
					"stateMutability": "nonpayable"
				},
				{
					"type": "function",
					"name": "isSucker",
					"inputs": [
						{
							"name": "",
							"type": "address",
							"internalType": "address"
						}
					],
					"outputs": [
						{
							"name": "",
							"type": "bool",
							"internalType": "bool"
						}
					],
					"stateMutability": "view"
				},
				{
					"type": "error",
					"name": "ALREADY_CONFIGURED",
					"inputs": []
				},
				{
					"type": "error",
					"name": "ONLY_SUCKERS",
					"inputs": []
				},
				{
					"type": "error",
					"name": "UNAUTHORIZED",
					"inputs": []
				}
			],
			"solcInputHash": "be814d998db9158d32a9e143edcd7c88",
			"receipt": {
				"blockHash": "0x1ecbd47680f3a07b096397e216c14bb9c37f56eb7df81ecd8d37a90d24023f5a",
				"blockNumber": 8985172,
				"contractAddress": null,
				"cumulativeGasUsed": "7397699",
				"from": "0xC034550B542b83BA1De312b21d1C94a9a52B1595",
				"gasPrice": "1000280",
				"gasUsed": "5831128",
				"hash": "0xec90c5a48fc80f2f9d9d6c26fa508ffdd4c502bb0af0a738803bcc9db4fcecda",
				"index": 7,
				"logs": [
					{
						"address": "0xB5E96127D417b1B3ef8438496a38A143167209c7",
						"blockHash": "0x1ecbd47680f3a07b096397e216c14bb9c37f56eb7df81ecd8d37a90d24023f5a",
						"blockNumber": 8985172,
						"data": "0x0000000000000000000000000000000000000000000000000000000000000000",
						"index": 3,
						"topics": [
							"0x572f161235911da04685a68c06adf558fc7e4a36909dca394650e0adc19cc93d",
							"0x000000000000000000000000c034550b542b83ba1de312b21d1c94a9a52b1595",
							"0x0000000000000000000000002251543da4a5ef946705b931c7e8b74756764a18",
							"0x639ce48f2b9ee206386ee134fb9ed4fbefb3411da5b267f68945a2f9e5151185"
						],
						"transactionHash": "0xec90c5a48fc80f2f9d9d6c26fa508ffdd4c502bb0af0a738803bcc9db4fcecda",
						"transactionIndex": 7
					},
					{
						"address": "0x6a65B75A3f37C6702A117Fb87B6bCaC62657d216",
						"blockHash": "0x1ecbd47680f3a07b096397e216c14bb9c37f56eb7df81ecd8d37a90d24023f5a",
						"blockNumber": 8985172,
						"data": "0x",
						"index": 4,
						"topics": [
							"0x6895c13664aa4f67288b25d7a21d7aaa34916e355fb9b6fae0a139a9085becb8",
							"0x0000000000000000000000002251543da4a5ef946705b931c7e8b74756764a18"
						],
						"transactionHash": "0xec90c5a48fc80f2f9d9d6c26fa508ffdd4c502bb0af0a738803bcc9db4fcecda",
						"transactionIndex": 7
					},
					{
						"address": "0x2251543Da4A5eF946705B931C7e8b74756764a18",
						"blockHash": "0x1ecbd47680f3a07b096397e216c14bb9c37f56eb7df81ecd8d37a90d24023f5a",
						"blockNumber": 8985172,
						"data": "0x0000000000000000000000000000000000000000000000000000000000000001",
						"index": 5,
						"topics": [
							"0xa65fb05c5808f5f389d72edeaf719ce38f4cc55c1f69ca3cbfb31c21501caa07",
							"0x2d4ca00627c459de699f5e6d80f06fa7c9de5e9f4b50c7bfe3f3a0ab31867acc"
						],
						"transactionHash": "0xec90c5a48fc80f2f9d9d6c26fa508ffdd4c502bb0af0a738803bcc9db4fcecda",
						"transactionIndex": 7
					},
					{
						"address": "0x6a65B75A3f37C6702A117Fb87B6bCaC62657d216",
						"blockHash": "0x1ecbd47680f3a07b096397e216c14bb9c37f56eb7df81ecd8d37a90d24023f5a",
						"blockNumber": 8985172,
						"data": "0x",
						"index": 6,
						"topics": [
							"0x6895c13664aa4f67288b25d7a21d7aaa34916e355fb9b6fae0a139a9085becb8",
							"0x0000000000000000000000002251543da4a5ef946705b931c7e8b74756764a18"
						],
						"transactionHash": "0xec90c5a48fc80f2f9d9d6c26fa508ffdd4c502bb0af0a738803bcc9db4fcecda",
						"transactionIndex": 7
					},
					{
						"address": "0x2251543Da4A5eF946705B931C7e8b74756764a18",
						"blockHash": "0x1ecbd47680f3a07b096397e216c14bb9c37f56eb7df81ecd8d37a90d24023f5a",
						"blockNumber": 8985172,
						"data": "0x0000000000000000000000000000000000000000000000000000000000000002",
						"index": 7,
						"topics": [
							"0xa65fb05c5808f5f389d72edeaf719ce38f4cc55c1f69ca3cbfb31c21501caa07",
							"0x2d4ca00627c459de699f5e6d80f06fa7c9de5e9f4b50c7bfe3f3a0ab31867acc"
						],
						"transactionHash": "0xec90c5a48fc80f2f9d9d6c26fa508ffdd4c502bb0af0a738803bcc9db4fcecda",
						"transactionIndex": 7
					},
					{
						"address": "0x6a65B75A3f37C6702A117Fb87B6bCaC62657d216",
						"blockHash": "0x1ecbd47680f3a07b096397e216c14bb9c37f56eb7df81ecd8d37a90d24023f5a",
						"blockNumber": 8985172,
						"data": "0x",
						"index": 8,
						"topics": [
							"0x6895c13664aa4f67288b25d7a21d7aaa34916e355fb9b6fae0a139a9085becb8",
							"0x0000000000000000000000002251543da4a5ef946705b931c7e8b74756764a18"
						],
						"transactionHash": "0xec90c5a48fc80f2f9d9d6c26fa508ffdd4c502bb0af0a738803bcc9db4fcecda",
						"transactionIndex": 7
					},
					{
						"address": "0x2251543Da4A5eF946705B931C7e8b74756764a18",
						"blockHash": "0x1ecbd47680f3a07b096397e216c14bb9c37f56eb7df81ecd8d37a90d24023f5a",
						"blockNumber": 8985172,
						"data": "0x0000000000000000000000000000000000000000000000000000000000000003",
						"index": 9,
						"topics": [
							"0xa65fb05c5808f5f389d72edeaf719ce38f4cc55c1f69ca3cbfb31c21501caa07",
							"0x2d4ca00627c459de699f5e6d80f06fa7c9de5e9f4b50c7bfe3f3a0ab31867acc"
						],
						"transactionHash": "0xec90c5a48fc80f2f9d9d6c26fa508ffdd4c502bb0af0a738803bcc9db4fcecda",
						"transactionIndex": 7
					},
					{
						"address": "0x3F209aB51b59Bc6C2c9C2f2147d3d51E29A862d7",
						"blockHash": "0x1ecbd47680f3a07b096397e216c14bb9c37f56eb7df81ecd8d37a90d24023f5a",
						"blockNumber": 8985172,
						"data": "0x00000000000000000000000028974ffdc4b5fb12c65da1fcf83fc9b3b9d2793a",
						"index": 10,
						"topics": [
							"0xf6e6facda29906a01d337146a9b928ac09b423901f28e0e001d43550448b370b"
						],
						"transactionHash": "0xec90c5a48fc80f2f9d9d6c26fa508ffdd4c502bb0af0a738803bcc9db4fcecda",
						"transactionIndex": 7
					},
					{
						"address": "0x6a65B75A3f37C6702A117Fb87B6bCaC62657d216",
						"blockHash": "0x1ecbd47680f3a07b096397e216c14bb9c37f56eb7df81ecd8d37a90d24023f5a",
						"blockNumber": 8985172,
						"data": "0x",
						"index": 11,
						"topics": [
							"0x6895c13664aa4f67288b25d7a21d7aaa34916e355fb9b6fae0a139a9085becb8",
							"0x0000000000000000000000002251543da4a5ef946705b931c7e8b74756764a18"
						],
						"transactionHash": "0xec90c5a48fc80f2f9d9d6c26fa508ffdd4c502bb0af0a738803bcc9db4fcecda",
						"transactionIndex": 7
					},
					{
						"address": "0x2251543Da4A5eF946705B931C7e8b74756764a18",
						"blockHash": "0x1ecbd47680f3a07b096397e216c14bb9c37f56eb7df81ecd8d37a90d24023f5a",
						"blockNumber": 8985172,
						"data": "0x0000000000000000000000000000000000000000000000000000000000000004",
						"index": 12,
						"topics": [
							"0xa65fb05c5808f5f389d72edeaf719ce38f4cc55c1f69ca3cbfb31c21501caa07",
							"0x2d4ca00627c459de699f5e6d80f06fa7c9de5e9f4b50c7bfe3f3a0ab31867acc"
						],
						"transactionHash": "0xec90c5a48fc80f2f9d9d6c26fa508ffdd4c502bb0af0a738803bcc9db4fcecda",
						"transactionIndex": 7
					},
					{
						"address": "0x3F209aB51b59Bc6C2c9C2f2147d3d51E29A862d7",
						"blockHash": "0x1ecbd47680f3a07b096397e216c14bb9c37f56eb7df81ecd8d37a90d24023f5a",
						"blockNumber": 8985172,
						"data": "0x",
						"index": 13,
						"topics": [
							"0x8be0079c531659141344cd1fd0a4f28419497f9722a3daafe3b4186f6b6457e0",
							"0x0000000000000000000000006a65b75a3f37c6702a117fb87b6bcac62657d216",
							"0x0000000000000000000000001f96512db9a74b8805d900c8e553879c0cb8bb2a"
						],
						"transactionHash": "0xec90c5a48fc80f2f9d9d6c26fa508ffdd4c502bb0af0a738803bcc9db4fcecda",
						"transactionIndex": 7
					},
					{
						"address": "0x6a65B75A3f37C6702A117Fb87B6bCaC62657d216",
						"blockHash": "0x1ecbd47680f3a07b096397e216c14bb9c37f56eb7df81ecd8d37a90d24023f5a",
						"blockNumber": 8985172,
						"data": "0x",
						"index": 14,
						"topics": [
							"0x6895c13664aa4f67288b25d7a21d7aaa34916e355fb9b6fae0a139a9085becb8",
							"0x0000000000000000000000002251543da4a5ef946705b931c7e8b74756764a18"
						],
						"transactionHash": "0xec90c5a48fc80f2f9d9d6c26fa508ffdd4c502bb0af0a738803bcc9db4fcecda",
						"transactionIndex": 7
					},
					{
						"address": "0x2251543Da4A5eF946705B931C7e8b74756764a18",
						"blockHash": "0x1ecbd47680f3a07b096397e216c14bb9c37f56eb7df81ecd8d37a90d24023f5a",
						"blockNumber": 8985172,
						"data": "0x0000000000000000000000000000000000000000000000000000000000000005",
						"index": 15,
						"topics": [
							"0xa65fb05c5808f5f389d72edeaf719ce38f4cc55c1f69ca3cbfb31c21501caa07",
							"0x2d4ca00627c459de699f5e6d80f06fa7c9de5e9f4b50c7bfe3f3a0ab31867acc"
						],
						"transactionHash": "0xec90c5a48fc80f2f9d9d6c26fa508ffdd4c502bb0af0a738803bcc9db4fcecda",
						"transactionIndex": 7
					},
					{
						"address": "0x2251543Da4A5eF946705B931C7e8b74756764a18",
						"blockHash": "0x1ecbd47680f3a07b096397e216c14bb9c37f56eb7df81ecd8d37a90d24023f5a",
						"blockNumber": 8985172,
						"data": "0x",
						"index": 16,
						"topics": [
							"0x4383d976757d67ca920616be0b6430a681ea9d3dcce8d6d61d4603ca4a9bff63",
							"0x2d4ca00627c459de699f5e6d80f06fa7c9de5e9f4b50c7bfe3f3a0ab31867acc"
						],
						"transactionHash": "0xec90c5a48fc80f2f9d9d6c26fa508ffdd4c502bb0af0a738803bcc9db4fcecda",
						"transactionIndex": 7
					}
				],
				"logsBloom": "0x0000000008001000000000000008000000020000404800000080000001400000000000000100000000000000004009000000000000000000000000000000000000000000000020000000000000000000000100000000000000000400000800000000000000000804000000000000000020000000000000000000000000000040000000000000000040010000000000000000000000200000000000000000000000c000800010200000001000000000020608000000000000000000100004000000000000000000000008040008000000000000000002000010000000000000000000000000800208000000000000000200000000000000000000000208000000",
				"status": 1,
				"to": "0xB5E96127D417b1B3ef8438496a38A143167209c7"
			},
			"metadata": "{\"compiler\":{\"version\":\"0.8.23+commit.f704f362\"},\"language\":\"Solidity\",\"output\":{\"abi\":[{\"inputs\":[{\"internalType\":\"contract IJBDirectory\",\"name\":\"directory\",\"type\":\"address\"},{\"internalType\":\"contract IJBTokens\",\"name\":\"tokens\",\"type\":\"address\"},{\"internalType\":\"contract IJBPermissions\",\"name\":\"permissions\",\"type\":\"address\"},{\"internalType\":\"address\",\"name\":\"_configurator\",\"type\":\"address\"}],\"stateMutability\":\"nonpayable\",\"type\":\"constructor\"},{\"inputs\":[],\"type\":\"error\",\"name\":\"ALREADY_CONFIGURED\"},{\"inputs\":[],\"type\":\"error\",\"name\":\"ONLY_SUCKERS\"},{\"inputs\":[],\"type\":\"error\",\"name\":\"UNAUTHORIZED\"},{\"inputs\":[],\"stateMutability\":\"view\",\"type\":\"function\",\"name\":\"BRIDGE\",\"outputs\":[{\"internalType\":\"contract OPStandardBridge\",\"name\":\"\",\"type\":\"address\"}]},{\"inputs\":[],\"stateMutability\":\"view\",\"type\":\"function\",\"name\":\"MESSENGER\",\"outputs\":[{\"internalType\":\"contract OPMessenger\",\"name\":\"\",\"type\":\"address\"}]},{\"inputs\":[],\"stateMutability\":\"view\",\"type\":\"function\",\"name\":\"PERMISSIONS\",\"outputs\":[{\"internalType\":\"contract IJBPermissions\",\"name\":\"\",\"type\":\"address\"}]},{\"inputs\":[{\"internalType\":\"contract OPMessenger\",\"name\":\"messenger\",\"type\":\"address\"},{\"internalType\":\"contract OPStandardBridge\",\"name\":\"bridge\",\"type\":\"address\"}],\"stateMutability\":\"nonpayable\",\"type\":\"function\",\"name\":\"configureLayerSpecific\"},{\"inputs\":[{\"internalType\":\"uint256\",\"name\":\"localProjectId\",\"type\":\"uint256\"},{\"internalType\":\"bytes32\",\"name\":\"salt\",\"type\":\"bytes32\"}],\"stateMutability\":\"nonpayable\",\"type\":\"function\",\"name\":\"createForSender\",\"outputs\":[{\"internalType\":\"contract IBPSucker\",\"name\":\"sucker\",\"type\":\"address\"}]},{\"inputs\":[{\"internalType\":\"address\",\"name\":\"\",\"type\":\"address\"}],\"stateMutability\":\"view\",\"type\":\"function\",\"name\":\"isSucker\",\"outputs\":[{\"internalType\":\"bool\",\"name\":\"\",\"type\":\"bool\"}]}],\"devdoc\":{\"kind\":\"dev\",\"methods\":{\"createForSender(uint256,bytes32)\":{\"details\":\"Uses the sender address as the salt, which means the same sender must call this function on both chains.\",\"params\":{\"localProjectId\":\"The project's ID on the local chain.\",\"salt\":\"The salt to use for the `create2` address.\"},\"returns\":{\"sucker\":\"The address of the new sucker.\"}}},\"version\":1},\"userdoc\":{\"kind\":\"user\",\"methods\":{\"BRIDGE()\":{\"notice\":\"The bridge used to bridge tokens between the local and remote chain.\"},\"MESSENGER()\":{\"notice\":\"The messenger used to send messages between the local and remote sucker.\"},\"PERMISSIONS()\":{\"notice\":\"A contract storing permissions.\"},\"configureLayerSpecific(address,address)\":{\"notice\":\"handles some layer specific configuration that can't be done in the constructor otherwise deployment addresses would change.messenger the OPMesssenger on this layer.bridge the OPStandardBridge on this layer.\"},\"createForSender(uint256,bytes32)\":{\"notice\":\"Create a new `BPSucker` for a specific project.\"},\"isSucker(address)\":{\"notice\":\"A mapping of suckers deployed by this contract.\"}},\"version\":1}},\"settings\":{\"remappings\":[\"@arbitrum/=node_modules/@arbitrum/\",\"@bananapus/=node_modules/@bananapus/\",\"@chainlink/=node_modules/@chainlink/\",\"@eth-optimism/=node_modules/@eth-optimism/\",\"@offchainlabs/=node_modules/@offchainlabs/\",\"@openzeppelin/=node_modules/@openzeppelin/\",\"@prb/=node_modules/@prb/\",\"@scroll-tech/=node_modules/@scroll-tech/\",\"@sphinx-labs/contracts/=node_modules/@sphinx-labs/contracts/contracts/foundry/\",\"@uniswap/=node_modules/@uniswap/\",\"ds-test/=lib/forge-std/lib/ds-test/src/\",\"forge-std/=lib/forge-std/src/\",\"hardhat/=node_modules/hardhat/\",\"solmate/=node_modules/solmate/\",\"sphinx/=lib/sphinx/packages/contracts/contracts/forge-std/src/\"],\"optimizer\":{\"enabled\":true,\"runs\":200},\"metadata\":{\"bytecodeHash\":\"ipfs\"},\"compilationTarget\":{\"src/deployers/BPBaseSuckerDeployer.sol\":\"BPBaseSuckerDeployer\"},\"evmVersion\":\"paris\",\"libraries\":{}},\"sources\":{\"node_modules/@bananapus/core/src/abstract/JBPermissioned.sol\":{\"keccak256\":\"0xe08c8a7eeac9d1c7c2e0db6d5b98d1af09889300835a3d47d9f29319fecce703\",\"urls\":[\"bzz-raw://42645cf52bcc45053ef650790916faed5d0a74cecef336b217433fdd2c5c4166\",\"dweb:/ipfs/QmdMmxG1tSGucQwz4LYbVnuj7HU23YvqLH6xfrNWv5Bmus\"],\"license\":\"MIT\"},\"node_modules/@bananapus/core/src/enums/JBApprovalStatus.sol\":{\"keccak256\":\"0x61c69b6bac7d24b566d87cda23a77e4ca9cdb87200b106aba8534cb9a0973e33\",\"urls\":[\"bzz-raw://6a9ca7249de76f77a8252eefe6bd1b63d47952f25a2acfa2c8db967cdff4470c\",\"dweb:/ipfs/QmaxSxptRQNj8bNy96EreENmrnRWdKmhyihBcxyWzBX5BN\"],\"license\":\"MIT\"},\"node_modules/@bananapus/core/src/interfaces/IJBController.sol\":{\"keccak256\":\"0xe0b84058192f89e461c4b604388aa11a2f92f0f9969fb70fb3c18706d6f3e16b\",\"urls\":[\"bzz-raw://984fdcff63a17ccab65ff7723a628967e40965fcb4d47909cf8e314e8f044576\",\"dweb:/ipfs/QmaaHZWuaaH3oYxCDrip1rr4u4H1XtR3RcwwKAE73GAqkd\"],\"license\":\"MIT\"},\"node_modules/@bananapus/core/src/interfaces/IJBDirectory.sol\":{\"keccak256\":\"0x9cc380844aef60078ee47a61861e55a29c4a8c947efd556ebd36e6909f7b9d62\",\"urls\":[\"bzz-raw://9f5190ec8b6683d9781ee6e9eedcc91294753242748875d4a06349077e4cbaaf\",\"dweb:/ipfs/QmTQrPuXT9TCA4txwrperMeXSGvGxP8iokUK47f62F388i\"],\"license\":\"MIT\"},\"node_modules/@bananapus/core/src/interfaces/IJBDirectoryAccessControl.sol\":{\"keccak256\":\"0x1e67f56849320a46f834aaa9bd62b170ff8ada7b224b4a81136193740fa0be4d\",\"urls\":[\"bzz-raw://ea8fbcec44abfe49d137bcae129b67e5479d6b17879301f88534c8a7fab00be4\",\"dweb:/ipfs/QmT6wrtYX4GRpffHUzupNwYebJ1dqkkKZLEewWsoyunsqw\"],\"license\":\"MIT\"},\"node_modules/@bananapus/core/src/interfaces/IJBFundAccessLimits.sol\":{\"keccak256\":\"0xf5fd6bdd723b60d490ccbe22cdf1cfe43663d23e6ee48badcd1b71e3282cb16b\",\"urls\":[\"bzz-raw://fe692f0b843ea5fccdfcb68f4ec16e1c0add945bb74b303c9866342be0e31fbf\",\"dweb:/ipfs/QmSRmzpgp3DhNEhNDiLsSu7yEiTeywbzEFbwyGyDazjgKt\"],\"license\":\"MIT\"},\"node_modules/@bananapus/core/src/interfaces/IJBMigratable.sol\":{\"keccak256\":\"0xd69bd5aba01a68d82c303ef3adde47532abcace030a94296c3ea6988b401789c\",\"urls\":[\"bzz-raw://88f11a1c89899327746beba4fc830abf3ac2eb9c152c778e884a6eed6564971f\",\"dweb:/ipfs/QmTpKhSTVewpz7VyKcz6BJwH2LFKMwT7Qi5HNWmjEjwsdK\"],\"license\":\"MIT\"},\"node_modules/@bananapus/core/src/interfaces/IJBPayHook.sol\":{\"keccak256\":\"0x9438866782c652c2942f4d114e35f393cd3c8b0334abce8387eed90bca35e8b2\",\"urls\":[\"bzz-raw://cfd99daf57213f92325aad7d7d16e98476d38e870470e95ba01e3ae3cdecc95d\",\"dweb:/ipfs/QmUKKAVGf7ki8BHksr99tFcRW8APveeB5tNH63ctTbbCW8\"],\"license\":\"MIT\"},\"node_modules/@bananapus/core/src/interfaces/IJBPermissioned.sol\":{\"keccak256\":\"0x5b038d4dee116584e88b230920e56d48e135053e3f7e5642eaea14a775c1dad7\",\"urls\":[\"bzz-raw://19e43102f349fd4a1da1c0943ffb8f2950007fe4bb4bb7e8f74fc142575d091b\",\"dweb:/ipfs/QmXHAt4KzDTdDZgDDefEXH2WKi7NcfkJb9R7nxW5uDqsNp\"],\"license\":\"MIT\"},\"node_modules/@bananapus/core/src/interfaces/IJBPermissions.sol\":{\"keccak256\":\"0x18870e500edf0fbadc353e273a5574701fb80466376b908c65e7cc3f11044d4d\",\"urls\":[\"bzz-raw://352a47c45853aec80e7acf0d286ade3106eb4cb456776b28a3c2f3f1091bed90\",\"dweb:/ipfs/QmQeYd3YbudYZy2hfbfht9kwhxhw4tuuLKMEYy9UY6dcSy\"],\"license\":\"MIT\"},\"node_modules/@bananapus/core/src/interfaces/IJBPriceFeed.sol\":{\"keccak256\":\"0x4bd84c0f1a5d4729ed709bcddd43f4c50ec4a165ece79780af8dce482ed07d4a\",\"urls\":[\"bzz-raw://62bac4bfb6982fb002f620c77e5c445e62d50241a5aa64a07e51d929f5a42180\",\"dweb:/ipfs/QmWgJUDreVY2BuMX38a1iUUR5kNbMwGnKG3VvurB7oZtuM\"],\"license\":\"MIT\"},\"node_modules/@bananapus/core/src/interfaces/IJBPrices.sol\":{\"keccak256\":\"0x99525f31440b955742dce84ba57de9fc1221139b5367c1f834723bef9e13e6e1\",\"urls\":[\"bzz-raw://6fa03f0cd4ad87dd7cbae7bf7f54463450874291773c8f70f2c31ef2cae62bb0\",\"dweb:/ipfs/QmSPajPV5ismteJuB6Spzm9VmhTj2iS3eVrfpJC1Zuzg8n\"],\"license\":\"MIT\"},\"node_modules/@bananapus/core/src/interfaces/IJBProjectUriRegistry.sol\":{\"keccak256\":\"0x2799475228987e4f8334ac33d3935f759c9b8133db7383b4f622dde7a5dc0502\",\"urls\":[\"bzz-raw://d751731740f45df74eea48c9667e847ee2cddb2980ab4939c86bd17e6c6ed89b\",\"dweb:/ipfs/QmXW8SLTuhdUpfn7pRpdsYdcyuim8RTyagU37ULcj5UZhT\"],\"license\":\"MIT\"},\"node_modules/@bananapus/core/src/interfaces/IJBProjects.sol\":{\"keccak256\":\"0x735c2fb8f1fa827f054ee77f7a0ae4b312656217acb75b624d2c8fd9dc40151b\",\"urls\":[\"bzz-raw://ee7fc92299a8633a80693ae63ab494dcd125f1789487a54a39dc0e5696e5996f\",\"dweb:/ipfs/QmX7YJD4pS2XhgQb7p3JbBAXynT7YGPXcZe92BiWWRrsCL\"],\"license\":\"MIT\"},\"node_modules/@bananapus/core/src/interfaces/IJBRedeemHook.sol\":{\"keccak256\":\"0x8ab46fcd7d0e739661eb76056ad93ff99106f38420ef0b4eb97fa9f4bb71a68a\",\"urls\":[\"bzz-raw://0ef96fcb7ad26281d444d8e0c677b25114fdd63b1c172d477e030dce8ba53b62\",\"dweb:/ipfs/Qmcx1jRQuwU4pZFuLxsSsx4oMbRaDfktHrPnXextgbWc5m\"],\"license\":\"MIT\"},\"node_modules/@bananapus/core/src/interfaces/IJBRedeemTerminal.sol\":{\"keccak256\":\"0xd1b4aa38154e08f1474745ea6bc8f8823fe8aa68c124d596742597f2296ea16d\",\"urls\":[\"bzz-raw://9bd254e833702dfe5e28db5fee76478947ab45b501c966501f719e73bbf0397a\",\"dweb:/ipfs/QmZ3Ng7TmVxL6ozSUhx4kYdQdZhoYi4t43cYZVAMz7Fn5M\"],\"license\":\"MIT\"},\"node_modules/@bananapus/core/src/interfaces/IJBRulesetApprovalHook.sol\":{\"keccak256\":\"0x592e95d159494421c6b1bcb362d0cee1df0132921697351304e9cd7af4fbd386\",\"urls\":[\"bzz-raw://5bebfd5fa67c1b6ea16fa2e76e9520e9dfe52a579f48dd94d0c2ec45f78ad178\",\"dweb:/ipfs/QmRUawEGtfYoYSHmHELGhvJoWuMsxLPKtqAXgsrb7fJboP\"],\"license\":\"MIT\"},\"node_modules/@bananapus/core/src/interfaces/IJBRulesets.sol\":{\"keccak256\":\"0xd3f817d22ecbe24da63c552c069bf0c4fbbf3bcd5c3b5633002afd24aacf6882\",\"urls\":[\"bzz-raw://c1185aec0f6b6f0f4d93ffeeed0972ccf38420b00fe570b5e1838ed2b1f5db49\",\"dweb:/ipfs/QmWz36azGTFnjFXpFSh6BHt4nactgjtF64L3PeTqs4ZqSR\"],\"license\":\"MIT\"},\"node_modules/@bananapus/core/src/interfaces/IJBSplitHook.sol\":{\"keccak256\":\"0xeb8dfac7a4b81897a1c3b5d0d853a406bcff33720fb187d5ca5bb3dcc0ba3a12\",\"urls\":[\"bzz-raw://36aaeef6107cfe5b0127e063ea215aac7200f8af02e28a48e61111abd3254688\",\"dweb:/ipfs/QmQ8yQANXnhQCAWBGKsKCDsJ3A8hnTKNg5tyo79GfWXTcV\"],\"license\":\"MIT\"},\"node_modules/@bananapus/core/src/interfaces/IJBSplits.sol\":{\"keccak256\":\"0x92deeb9e22ce2aaafc608b85e9250b8ea2deed1ebf64b7442038b157b2bfe0e6\",\"urls\":[\"bzz-raw://08bf29f0c13c2e8be46065277f67e44ecaea960cb5474f13775eece0672566c2\",\"dweb:/ipfs/QmeGu9C6tuBjfmeizmpzptxgGmch6Mbtm34NFwZxzMvqc4\"],\"license\":\"MIT\"},\"node_modules/@bananapus/core/src/interfaces/IJBTerminal.sol\":{\"keccak256\":\"0x19dc9bf8cbdc8f13ee5da9dc3a87047eacb94a3fc19740a286c1f0bad2cc39ca\",\"urls\":[\"bzz-raw://0b05ae6fda9a85672508232fd992b8a5f5ffd8096622eeb12c8a7b3317eb3867\",\"dweb:/ipfs/QmNh9Quj37BXYGdTdcCD1Q58PchRsE5TLbEZep56qS3MpV\"],\"license\":\"MIT\"},\"node_modules/@bananapus/core/src/interfaces/IJBToken.sol\":{\"keccak256\":\"0x71b1f9c3a0edd41910f77396e0be2c65596571176d53eb87e887c3c0da56c0fb\",\"urls\":[\"bzz-raw://6e956f0582f4525e83d845ee9b4a89959abc4f821414f6accbbee5b38960482d\",\"dweb:/ipfs/QmbSvjgmCgnfVmcCTGu8XwrV1Rufsf3M8hB8unFq6fTMdH\"],\"license\":\"MIT\"},\"node_modules/@bananapus/core/src/interfaces/IJBTokenUriResolver.sol\":{\"keccak256\":\"0xfa5cb00dcd6085d1ef912d071fe73c63f9478a2cd0f9d8bddaf659b6af2d0967\",\"urls\":[\"bzz-raw://282e4e7c342d65f77cde0e9a08fcaf20ef5cf379c7a48b639842c0ffd0b2afb8\",\"dweb:/ipfs/QmbnN3PEQeZaXdPLT75V1J79kMg7KqSMru37RHrL3z8Yf2\"],\"license\":\"MIT\"},\"node_modules/@bananapus/core/src/interfaces/IJBTokens.sol\":{\"keccak256\":\"0x6fd67af915dd541d9547c8297aa9ae269690e4ee23531db43f021bcacec6076f\",\"urls\":[\"bzz-raw://2e5e11954e9ab2319fffccb6563f3db400b8f7760d4ffe2165048a02c9c37fa6\",\"dweb:/ipfs/QmbDXtV83dK8EfiTjsTRf55R2XqPZzDKcjtYbW8sxQ5CFm\"],\"license\":\"MIT\"},\"node_modules/@bananapus/core/src/libraries/JBConstants.sol\":{\"keccak256\":\"0x9d3a9a953f859d8ec79a599577f8972de6da7199cc1bfa7fdad017d4d722bcb4\",\"urls\":[\"bzz-raw://f151fcb53a8d2684eff8b9e56ac790bcbcadd8199a4fd4d17c5b224b22936722\",\"dweb:/ipfs/QmdAz1ZtCE8nTiC4AxQNLfJhnY3ndGum2Lbef7seKdvTdR\"],\"license\":\"MIT\"},\"node_modules/@bananapus/core/src/structs/JBAccountingContext.sol\":{\"keccak256\":\"0x2907ff54d1e903cc7e0390dd88c3975884702dc2673642aacbe22b66560b56de\",\"urls\":[\"bzz-raw://a66a5381ce877b32f0e0058ceeaf843e9b6b2bc8af666c0c9f4a9d01091da004\",\"dweb:/ipfs/QmQynCetUr37dBkS1YwDS8evxuXGiqanW6THmeUxXtim8w\"],\"license\":\"MIT\"},\"node_modules/@bananapus/core/src/structs/JBAfterPayRecordedContext.sol\":{\"keccak256\":\"0xd26c3a774ff38be79064085970454fe2603a23a638c76270d5b1b3829206c3e8\",\"urls\":[\"bzz-raw://3b55dbe3bf1ef625b7ca04efab3de35406e6041d5b3d82c7265469c500e2b702\",\"dweb:/ipfs/QmUdBDo4Lt3mcsFcsXT2mqq3czFwZjQJFPLM89YA2VtD7k\"],\"license\":\"MIT\"},\"node_modules/@bananapus/core/src/structs/JBAfterRedeemRecordedContext.sol\":{\"keccak256\":\"0x521f5d23a36f0da72362cd84890cc867bd83baa8dc836ba6c5066d51dba2f163\",\"urls\":[\"bzz-raw://6cc461313286dde62d045d6288e87bae5032e035796326f5b1ed6218e58aa9da\",\"dweb:/ipfs/QmQS2AkQwf2ANQieDuaUnpJEdXChoLv4CCbZqHkfywYPSR\"],\"license\":\"MIT\"},\"node_modules/@bananapus/core/src/structs/JBCurrencyAmount.sol\":{\"keccak256\":\"0x12fe4b43f4824994624d4fe0abbd88c3fe7867fd637edb65c7f456dab27e2d6e\",\"urls\":[\"bzz-raw://8003a3e8f932cf891e86b827e67c9d31b0d34c2712e18c2bc333cfe5284ba6d5\",\"dweb:/ipfs/QmSoA6RsDcSnNzk6CB7KZtALkHmeSDAi2g6fg3TDmLDkWX\"],\"license\":\"MIT\"},\"node_modules/@bananapus/core/src/structs/JBFundAccessLimitGroup.sol\":{\"keccak256\":\"0x9fdaa8d017b72da25f583700a444a86849df053f7fb8eac874ec5139bcf651e5\",\"urls\":[\"bzz-raw://c8e44c49ee444a98424a0dbeb6897a76a0bf00d88a613f62ac2012afdac754ee\",\"dweb:/ipfs/QmdYkAiRi5bXM1YYNkc7BiqimHSFodMGn1cjHR5hcpm4xH\"],\"license\":\"MIT\"},\"node_modules/@bananapus/core/src/structs/JBPermissionsData.sol\":{\"keccak256\":\"0x8f0f69a6ebf5f3704e3dfcb3712fb9d3f94ae7c1ab89bf3e37bad42a3e7a0487\",\"urls\":[\"bzz-raw://57b0c5e52843e2217082889ed47b4da3943e0da4590d5768dcebfe3edad4a6b8\",\"dweb:/ipfs/QmRz48vuWLw81kUP836rh1qzqWiJFGbksgRUA9xGEDNKTY\"],\"license\":\"MIT\"},\"node_modules/@bananapus/core/src/structs/JBRuleset.sol\":{\"keccak256\":\"0x15b2bf3174d84846a91ccbf5a344dfb125b55ed9cf50102db8d6868844225189\",\"urls\":[\"bzz-raw://647416b025dbd941094db89cbc69f755c155bd6c87be3f322394ccc4a8e0442d\",\"dweb:/ipfs/QmTCL9xcHnxQ4t5AmCPoZvXDUPW5xhzhyyXYbkMdyg44au\"],\"license\":\"MIT\"},\"node_modules/@bananapus/core/src/structs/JBRulesetConfig.sol\":{\"keccak256\":\"0x0be470df286939259a6b98bc71459e661e81d56a58226d6a574ae1484f8f8e6c\",\"urls\":[\"bzz-raw://64592c279ba7518ac180c835a539897163f299a439065f2cc8aa54086a2c9ad7\",\"dweb:/ipfs/QmaEepVvFJdXcDBMMr7SQYjZSDJXPtCca95kQY5rZbra6U\"],\"license\":\"MIT\"},\"node_modules/@bananapus/core/src/structs/JBRulesetMetadata.sol\":{\"keccak256\":\"0xfea54c9f98416d2aa05309e7ff76967d6968a614850a1e33e48fde793ea8b514\",\"urls\":[\"bzz-raw://bf55386cbab90dbc1296b2b0cbfdc217a4500d67702e4a093a4c78bd127ecd5c\",\"dweb:/ipfs/QmTRq9mZrNSXu7oCZwti4JbBFrbY6A5msRqi9RbtL49NAj\"],\"license\":\"MIT\"},\"node_modules/@bananapus/core/src/structs/JBRulesetWithMetadata.sol\":{\"keccak256\":\"0x1bcfadf20488f6df65227f8d4d0fbf9b7539456a2389567f7fe3900d23289bc3\",\"urls\":[\"bzz-raw://0a15c399a71e5373f8c0484c6d6b83521eda31e063a2c53e4c5cec4e74550343\",\"dweb:/ipfs/QmQwi8zkjoTVXbK89NeETYimWCacTrNsesJdpLSvGdqMPX\"],\"license\":\"MIT\"},\"node_modules/@bananapus/core/src/structs/JBSplit.sol\":{\"keccak256\":\"0x1d40fa4f1c911a53b9139f3d44d27cb58fa5c5d2cd793c7a21ccf52b9e61f848\",\"urls\":[\"bzz-raw://9897d2c29fc65fe16e4eac0b7b8b6fd8ef0b0cc501986f7f0c3a78c4ec1dbb60\",\"dweb:/ipfs/QmXcHoVjCYWWCz4hm2KZ6JxtB4YNq7jmXa2evLkga59Xwq\"],\"license\":\"MIT\"},\"node_modules/@bananapus/core/src/structs/JBSplitGroup.sol\":{\"keccak256\":\"0xda7da6e88aac2906c7ea4027660088daf217edc632bebca4d72795aae8921564\",\"urls\":[\"bzz-raw://ae1939d17e94cb51484f31ce64cf0df990445a338fb9b38d39a7baf28275ae4a\",\"dweb:/ipfs/QmUhPnJiWnYhFdtLvZnrPopAdbYXxETpGjvxjPDignpTGY\"],\"license\":\"MIT\"},\"node_modules/@bananapus/core/src/structs/JBSplitHookContext.sol\":{\"keccak256\":\"0xfe34e6860b00ca93d71f44e72882281b2c57c31303151af05795c74cfdd2e51d\",\"urls\":[\"bzz-raw://08acab094888e9c929b6f6f972d89ddbb31e5867675e7e7c602d25fcb2c0f402\",\"dweb:/ipfs/QmPNdXM185cTyXQSodVr4JMviHx88jrWu7dipgkp9xTNgJ\"],\"license\":\"MIT\"},\"node_modules/@bananapus/core/src/structs/JBTerminalConfig.sol\":{\"keccak256\":\"0xd162f3821a1ccafbc8d7d108369e39ac3048445a8c7fe7a3fa97a6343f9eefaa\",\"urls\":[\"bzz-raw://82172ea0407b6d9edc45e408c7e8edb8e129adf49a94349fe3a5862da9bc044e\",\"dweb:/ipfs/QmWheF5Tjq2hcabnSzfYqdFHUA1YxYEdAPZaRw9N166V1d\"],\"license\":\"MIT\"},\"node_modules/@bananapus/core/src/structs/JBTokenAmount.sol\":{\"keccak256\":\"0x5cf0626b73a596c1e2da17c89ae039a7c0374310b060d48568d3b6c11fbe6180\",\"urls\":[\"bzz-raw://63348b50be95e2995409394a17caffc563a646f0972650a1230bf864fbd3219b\",\"dweb:/ipfs/QmZXZpS3SbFD5nWaCauf6AqbEhLURv5qsKHpThBvQgDU6u\"],\"license\":\"MIT\"},\"node_modules/@bananapus/permission-ids/src/JBPermissionIds.sol\":{\"keccak256\":\"0xf61109f6b217a80d5e5391f548fb6f2e451f7dbee3fabfc04cf17e88722203bc\",\"urls\":[\"bzz-raw://ac776ab1cd621c22bd7973471acdfa187f3abc659ad9a3ef6ed10b6447dfcf9c\",\"dweb:/ipfs/QmYLbaHt68qcuMzkiKpe96jMjiWUq1F3u8yMhxmZ3pnnWu\"],\"license\":\"MIT\"},\"node_modules/@openzeppelin/contracts/token/ERC20/IERC20.sol\":{\"keccak256\":\"0xc6a8ff0ea489379b61faa647490411b80102578440ab9d84e9a957cc12164e70\",\"urls\":[\"bzz-raw://0ea104e577e63faea3b69c415637e99e755dcbf64c5833d7140c35a714d6d90c\",\"dweb:/ipfs/Qmau6x4Ns9XdyynRCNNp3RhLqijJjFm7z5fyZazfYFGYdq\"],\"license\":\"MIT\"},\"node_modules/@openzeppelin/contracts/token/ERC20/extensions/IERC20Permit.sol\":{\"keccak256\":\"0x6008dabfe393240d73d7dd7688033f72740d570aa422254d29a7dce8568f3aff\",\"urls\":[\"bzz-raw://f5196ec75139918c6c7bb4251b36395e668f1fa6d206beba7e7520e74913940d\",\"dweb:/ipfs/QmSyqjksXxmm2mCG6qRd1yuwLykypkSVBbnBnGqJRcuJMi\"],\"license\":\"MIT\"},\"node_modules/@openzeppelin/contracts/token/ERC20/utils/SafeERC20.sol\":{\"keccak256\":\"0x37bb49513c49c87c4642a891b13b63571bc87013dde806617aa1efb54605f386\",\"urls\":[\"bzz-raw://b3036b3a83b7c48f96641f2a9002b9f2dcb6a5958dd670894ada21ae8229b3d0\",\"dweb:/ipfs/QmUNfSBdoVtjhETaUJCYcaC7pTMgbhht926tJ2uXJbiVd3\"],\"license\":\"MIT\"},\"node_modules/@openzeppelin/contracts/token/ERC721/IERC721.sol\":{\"keccak256\":\"0x5ef46daa3b58ef2702279d514780316efaa952915ee1aa3396f041ee2982b0b4\",\"urls\":[\"bzz-raw://2f8f2a76e23b02fc69e8cd24c3cb47da6c7af3a2d6c3a382f8ac25c6e094ade7\",\"dweb:/ipfs/QmPV4ZS4tPVv4mTCf9ejyZ1ai57EEibDRj7mN2ARDCLV5n\"],\"license\":\"MIT\"},\"node_modules/@openzeppelin/contracts/utils/Address.sol\":{\"keccak256\":\"0xaf28a975a78550e45f65e559a3ad6a5ad43b9b8a37366999abd1b7084eb70721\",\"urls\":[\"bzz-raw://b7bd24e224f67f65bfadf85dc2929fa965456bb2415478bd0125471b5ce35245\",\"dweb:/ipfs/QmRaydGr8BTHs1kvaZfsNU69pKzUAGFrvABn1KiRSbE51y\"],\"license\":\"MIT\"},\"node_modules/@openzeppelin/contracts/utils/Context.sol\":{\"keccak256\":\"0x493033a8d1b176a037b2cc6a04dad01a5c157722049bbecf632ca876224dd4b2\",\"urls\":[\"bzz-raw://6a708e8a5bdb1011c2c381c9a5cfd8a9a956d7d0a9dc1bd8bcdaf52f76ef2f12\",\"dweb:/ipfs/Qmax9WHBnVsZP46ZxEMNRQpLQnrdE4dK8LehML1Py8FowF\"],\"license\":\"MIT\"},\"node_modules/@openzeppelin/contracts/utils/introspection/IERC165.sol\":{\"keccak256\":\"0x4296879f55019b23e135000eb36896057e7101fb7fb859c5ef690cf14643757b\",\"urls\":[\"bzz-raw://87b3541437c8c443ccd36795e56a338ed12855eec17f8da624511b8d1a7e14df\",\"dweb:/ipfs/QmeJQCtZrQjtJLr6u7ZHWeH3pBnjtLWzvRrKViAi7UZqxL\"],\"license\":\"MIT\"},\"node_modules/@openzeppelin/contracts/utils/structs/BitMaps.sol\":{\"keccak256\":\"0x3616f1b0d0a9ee1ca8f0953ecaceb9230e36f691c7974d30f964212acff52d2b\",\"urls\":[\"bzz-raw://d4bebdd07b31ac28e3e596ac6f0333da90a4e332405aa7d65f3a3a7e0b4cf15e\",\"dweb:/ipfs/QmckoDU5bBnye2UtPcrfJNahLD2FbxrnPP9nrREMWPpnug\"],\"license\":\"MIT\"},\"src/BPBaseSucker.sol\":{\"keccak256\":\"0x3a6359bdd11412e5b026b8c05aa61a0ba772fe97ac0ff94457deb4a9f45eac23\",\"urls\":[\"bzz-raw://2449ba5cbf7429ed44145eab7b6f3a14178326f28b9f282e1b7309d1a0d0ef84\",\"dweb:/ipfs/QmZpcAKBgDH42puF4jjvHiXfrHhNnYRCDWeErqxMfv1eJt\"],\"license\":\"MIT\"},\"src/BPOptimismSucker.sol\":{\"keccak256\":\"0x2ca90f2e2cbd6e06e63cd6b431490a5ca0b40db68478290774f773d4945b901b\",\"urls\":[\"bzz-raw://6266afde708b37aad572404bd7cebcfdd904a3479ce35de4e71f898d96986120\",\"dweb:/ipfs/QmcS6nB6tfjmjLjyoppdk3hhNFWaRmsA6sWpJVvM44aiFn\"],\"license\":\"MIT\"},\"src/BPSucker.sol\":{\"keccak256\":\"0x5af69375acc2f22e3a198b6d20c873f15f8f5fabac461536f8337dd2bb8c7b34\",\"urls\":[\"bzz-raw://ce99483d7993d146ff614aaf4f6e326df283e73f3b8a372d9091949180fcbe9a\",\"dweb:/ipfs/Qmc5nMqVMXq6fGebQC5sZXGT87ZdLLsBwwTfYrfkotMUF6\"],\"license\":\"MIT\"},\"src/deployers/BPBaseSuckerDeployer.sol\":{\"keccak256\":\"0x277cb5285bf706f00bb500bff82a6bd4db90a94bd9b23b069518e9cba5102098\",\"urls\":[\"bzz-raw://f7b6b1a793cb0df90ec6996b07ece854b0198a4fac1d95b0f42f2a09695d579a\",\"dweb:/ipfs/Qmc3ZYgSBjuSLLXyk8FxpjU6ffhSb7dXJVxfi3hUgWtW56\"],\"license\":\"MIT\"},\"src/deployers/BPOptimismSuckerDeployer.sol\":{\"keccak256\":\"0xbf5592cf66c81dcafbe90962401d11b830fd4c8ede7d513e733a0f4ec75c7bd2\",\"urls\":[\"bzz-raw://d1979015a8dab8b36379f3aee1da7aa35d9677120a8c4ead7f7b4196f051c50d\",\"dweb:/ipfs/QmbGwxNX4fNkbbhwPp6rXSRKDgzsuWmKoQ5vbh3Bp1bSif\"],\"license\":\"MIT\"},\"src/enums/BPAddToBalanceMode.sol\":{\"keccak256\":\"0xa6dcd5c6225e2b697775d37a6f3a8ae4030f7af1a7cb4bb91d572eef65134e43\",\"urls\":[\"bzz-raw://583699b0f81837a739e5e54a1e0b0400a6021602bd7f48472c8785b22d3f25eb\",\"dweb:/ipfs/QmfL4Jr6p8B5q8uFX1ZfUS5vPsUxiGgMy5udVg9z2kPUQk\"],\"license\":\"MIT\"},\"src/interfaces/IBPSucker.sol\":{\"keccak256\":\"0x2a3136ea5608c3e76b9f3114a470980f2a96427535aaccbd65dcc37d3a3dd0f8\",\"urls\":[\"bzz-raw://8cc997a396b183525892a0640ce03aee9fa3f15971266c826a308f6c74ff63f2\",\"dweb:/ipfs/QmZcoMkGbujqLm5B9v5urpFwUVg2uoG7ybPHX8RRxsygpe\"],\"license\":\"MIT\"},\"src/interfaces/IBPSuckerDeployer.sol\":{\"keccak256\":\"0xe252e890c4b5e12d5fa537a11cd2fad936f41be80240301ace8afca3de481222\",\"urls\":[\"bzz-raw://730855964dd0629f3d514ed52f59d80d02786733c3b8b5cf21e69524de7f8829\",\"dweb:/ipfs/QmUuoYEmnzUNn3hANGrg8sDZdjoaEbgWMWLepsSQt9MUyw\"],\"license\":\"MIT\"},\"src/interfaces/OPMessenger.sol\":{\"keccak256\":\"0x0be6648aa7ed6272db8d415992d16dc10b36a4a8ed2f8e3adac8433ca7834dae\",\"urls\":[\"bzz-raw://1a3aeecda2b108059ce2b271364121d69afa4afcd2d0341eae31d181d5a6881d\",\"dweb:/ipfs/QmcaB3EzUW8btTVa1FCgmhTFqTSAwdmK47K95cV88vg9J9\"],\"license\":\"MIT\"},\"src/interfaces/OPStandardBridge.sol\":{\"keccak256\":\"0xb5717563fc9dcbe47ab2ed8b98a1a5757b51935989b9a78091eb590c8dbb8d5a\",\"urls\":[\"bzz-raw://5d9acbe757d1103be408303d53c25ee8a6b6dc799e8dd58e4756ac4028b4ccd5\",\"dweb:/ipfs/QmVuqESXkFhrcRAAfTkXSXp7uWrN5QA7eAH6x3DpeAoAMe\"],\"license\":\"MIT\"},\"src/structs/BPClaim.sol\":{\"keccak256\":\"0x63a12013ec4c221781b057185a0e01c83ac19dcef115ad6238d25a22011da071\",\"urls\":[\"bzz-raw://0307e4377f2cbd3ec561405eb2ffa07e0d9fe2c39522eb0706e91b46efa1b2a7\",\"dweb:/ipfs/QmXKeKQ6mJGehNJt3v2fqE22MFoGjcpm2x9hHA25vu7xAH\"],\"license\":\"MIT\"},\"src/structs/BPInboxTreeRoot.sol\":{\"keccak256\":\"0xff494c45ee76d14e2ffb3cd0f22412b4a1a4d8e37b957a3ffb82b0b9db4f74ab\",\"urls\":[\"bzz-raw://a896310d4dcfecca8b1927bf82832c9b5de5a455228fd9aad2530729ce61739b\",\"dweb:/ipfs/QmUiep5HvdqgJZyJqt4kKxWuP2odhY5W9kX7pCuovTr3LM\"],\"license\":\"MIT\"},\"src/structs/BPLeaf.sol\":{\"keccak256\":\"0xaa2257b6d8fc05d9b37fdb40472cd2f4bed45e7ddc1ea9082ca5296215602bc8\",\"urls\":[\"bzz-raw://ebdf0d3c3961adb71fd7174f9a8eca8332202d07ee5a584abbb06b7c15db61d0\",\"dweb:/ipfs/QmWtqWUncWvZotfno2kiU5TeT3WTR9zfPzRTiktZskyS13\"],\"license\":\"MIT\"},\"src/structs/BPMessageRoot.sol\":{\"keccak256\":\"0xab832c9e92d412cc0d8e6758777694955fef6dcbc919f96b33052d68d0516d1d\",\"urls\":[\"bzz-raw://fa9fe2604015f05e1a4f2c1a92f4ef7b6cba3d08d9e7daa2b20190a9b1bce39c\",\"dweb:/ipfs/QmUDcrNmqnp1dPwkmPTjsu7Egbwtgsk42G9FNdrHk6JcB2\"],\"license\":\"MIT\"},\"src/structs/BPOutboxTree.sol\":{\"keccak256\":\"0xed569423f6ae3dafee5681a60b7c5d24b0c5f33ff0763937952e938be374d79e\",\"urls\":[\"bzz-raw://4dafb1348a51324105b2ee100e2174fee0f1397f0b2dd00483b2dcf049477ce4\",\"dweb:/ipfs/Qmcf8jizBW7BGGnHBVetaDvYcZ75ov8oYw8LubaNUHrHCv\"],\"license\":\"MIT\"},\"src/structs/BPRemoteToken.sol\":{\"keccak256\":\"0x703d0112f181683d9b3508bf9fc0ef2f5c3cac73de0a718d9f405561fad14622\",\"urls\":[\"bzz-raw://80c0dd5e9ef7648efc48306da2c50829490c41cf09292f0f82fa3e24ce9dbe37\",\"dweb:/ipfs/QmYTgR72bVH3r1xKvMaE1tRUAkqkZjZa2v1eki1973qn3U\"],\"license\":\"MIT\"},\"src/structs/BPTokenMapping.sol\":{\"keccak256\":\"0x84865bda925cdc9a608cbbfc487619acba391f98ae12bbbfdbc5779d617a17d9\",\"urls\":[\"bzz-raw://3bbc1fdd38feaf64fd4914bddb62cda7e5b8ee0f046a0eac8cfcb15f9493bcc5\",\"dweb:/ipfs/QmXgAx7sr1M8r71YrSeQJGAB1uhvdxpQyS633UgJvLCQfb\"],\"license\":\"MIT\"},\"src/utils/MerkleLib.sol\":{\"keccak256\":\"0x6803b76f79362d9b5cd8e32eb1da6ed675146554dcd2f77747c4406f5f7a25f4\",\"urls\":[\"bzz-raw://3db2984a7eae5e7dc78517fd3a696180e95fdf00bf3267b31d1dbaddb0865cab\",\"dweb:/ipfs/QmPG8Nxwcb5Q7unUzMLCwaaRv8MvR7rskfacSDqbDW5zPZ\"],\"license\":\"MIT OR Apache-2.0\"}},\"version\":1}",
			"args": [
				"0xCD8c4da77dfb15C05486D3F71Ee4C2C0dfdbc94e",
				"0x792b79adb4Aa06edDabd6ddef5EE06dCb946F436",
				"0x1e2E8562b635fe19978640C784e47865A83d6605",
				"0x6a65B75A3f37C6702A117Fb87B6bCaC62657d216"
			],
			"bytecode": "0x61010060405234801561001157600080fd5b50604051614bc2380380614bc28339810160408190526100309161006a565b6001600160a01b03918216608052811660e05291821660a0521660c0526100c9565b6001600160a01b038116811461006757600080fd5b50565b6000806000806080858703121561008057600080fd5b845161008b81610052565b602086015190945061009c81610052565b60408601519093506100ad81610052565b60608601519092506100be81610052565b939692955090935050565b60805160a05160c05160e051614abc6101066000396000505060006101900152600061016f01526000818161010a01526101b10152614abc6000f3fe608060405234801561001057600080fd5b50600436106100625760003560e01c80631213036614610067578063927ede2d14610097578063c39ec124146100aa578063cc8b6f4f146100dd578063ee9a31a2146100f2578063f434c91414610105575b600080fd5b61007a6100753660046102b7565b61012c565b6040516001600160a01b0390911681526020015b60405180910390f35b60005461007a906001600160a01b031681565b6100cd6100b83660046102f1565b60026020526000908152604090205460ff1681565b604051901515815260200161008e565b6100f06100eb366004610315565b61023b565b005b60015461007a906001600160a01b031681565b61007a7f000000000000000000000000000000000000000000000000000000000000000081565b6040516bffffffffffffffffffffffff193360601b16602082015260348101829052600090605401604051602081830303815290604052805190602001209150817f00000000000000000000000000000000000000000000000000000000000000007f00000000000000000000000000000000000000000000000000000000000000007f000000000000000000000000000000000000000000000000000000000000000060008760006040516101e1906102aa565b6101f09695949392919061034e565b8190604051809103906000f5905080158015610210573d6000803e3d6000fd5b506001600160a01b0381166000908152600260205260409020805460ff191660011790559392505050565b6000546001600160a01b031615158061025e57506001546001600160a01b031615155b1561027c5760405163ccbe17fd60e01b815260040160405180910390fd5b600080546001600160a01b039384166001600160a01b03199182161790915560018054929093169116179055565b6146da806103ad83390190565b600080604083850312156102ca57600080fd5b50508035926020909101359150565b6001600160a01b03811681146102ee57600080fd5b50565b60006020828403121561030357600080fd5b813561030e816102d9565b9392505050565b6000806040838503121561032857600080fd5b8235610333816102d9565b91506020830135610343816102d9565b809150509250929050565b6001600160a01b03878116825286811660208301528581166040830152841660608201526080810183905260c081016002831061039b57634e487b7160e01b600052602160045260246000fd5b8260a083015297965050505050505056fe6101a06040523480156200001257600080fd5b50604051620046da380380620046da8339810160408190526200003591620001d3565b6001600160a01b0380851660805280871660c05280861660e05286908690869086908690869086908690869086908690869083161562000076578262000078565b305b6001600160a01b0316610120526101408290523361010052806001811115620000a557620000a56200025e565b60a0816001811115620000bc57620000bc6200025e565b905250505050505050336001600160a01b031663927ede2d6040518163ffffffff1660e01b8152600401602060405180830381865afa15801562000104573d6000803e3d6000fd5b505050506040513d601f19601f820116820180604052508101906200012a919062000274565b6001600160a01b0316610160526040805163774d18d160e11b81529051339163ee9a31a29160048083019260209291908290030181865afa15801562000174573d6000803e3d6000fd5b505050506040513d601f19601f820116820180604052508101906200019a919062000274565b6001600160a01b031661018052506200029b9a5050505050505050505050565b6001600160a01b0381168114620001d057600080fd5b50565b60008060008060008060c08789031215620001ed57600080fd5b8651620001fa81620001ba565b60208801519096506200020d81620001ba565b60408801519095506200022081620001ba565b60608801519094506200023381620001ba565b608088015160a08901519194509250600281106200025057600080fd5b809150509295509295509295565b634e487b7160e01b600052602160045260246000fd5b6000602082840312156200028757600080fd5b81516200029481620001ba565b9392505050565b60805160a05160c05160e05161010051610120516101405161016051610180516142fc620003de600039600081816101d5015281816113eb015261143a0152600081816105bd0152818161158f01528181611e4a0152611eb0015260008181610249015281816107cc01528181610849015281816109e601528181610e6f01528181610f180152818161172c015281816117f10152818161186e01528181611afa01528181611bb301528181611cb50152611ddd0152600081816103ae0152818161146b015281816115ba0152611e86015260006104880152600081816101620152610a0f01526000818161037a0152818161073d01528181610e95015281816117670152611b290152600081816104bc01528181610b8501528181610e11015261102a015260008181610589015281816111d5015261127e01526142fc6000f3fe6080604052600436106101445760003560e01c806388bc2ef3116100b6578063c1b8411a1161006f578063c1b8411a14610476578063c6525f2c146104aa578063e7f82c75146104eb578063ed0e26b914610518578063f434c91414610577578063fc8fa43d146105ab57600080fd5b806388bc2ef314610368578063ad42938b1461039c578063b59ef50f146103d0578063b71c1179146103f0578063bf557aee14610403578063c18541291461045657600080fd5b806356539f391161010857806356539f391461023757806361c864171461027957806369ce22331461028e57806369d31fdd146102ae5780636dfa7268146102c15780637de6fba2146102f057600080fd5b80631d831d5c146101505780632241dc52146101a15780632847f1f3146101c357806338eb2044146101f7578063551ebbf01461021757600080fd5b3661014b57005b600080fd5b34801561015c57600080fd5b506101847f000000000000000000000000000000000000000000000000000000000000000081565b6040516001600160a01b0390911681526020015b60405180910390f35b3480156101ad57600080fd5b506101c16101bc366004613c89565b6105df565b005b3480156101cf57600080fd5b506101847f000000000000000000000000000000000000000000000000000000000000000081565b34801561020357600080fd5b506101c1610212366004613d15565b610617565b34801561022357600080fd5b506101c1610232366004613d46565b6109b0565b34801561024357600080fd5b5061026b7f000000000000000000000000000000000000000000000000000000000000000081565b604051908152602001610198565b34801561028557600080fd5b5061026b610b2f565b34801561029a57600080fd5b506101c16102a9366004613d90565b610b81565b6101c16102bc366004613d15565b610bfa565b3480156102cd57600080fd5b506102e16102dc366004613d90565b610d6b565b60405161019893929190613dad565b3480156102fc57600080fd5b5061033e61030b366004613d90565b6003602052600090815260409020805460019091015463ffffffff82169164010000000090046001600160a01b03169083565b6040805163ffffffff90941684526001600160a01b03909216602084015290820152606001610198565b34801561037457600080fd5b506101847f000000000000000000000000000000000000000000000000000000000000000081565b3480156103a857600080fd5b506101847f000000000000000000000000000000000000000000000000000000000000000081565b3480156103dc57600080fd5b506101c16103eb366004613e06565b610dd5565b6101c16103fe366004613d90565b6110a9565b34801561040f57600080fd5b5061044661041e366004613d90565b6001600160a01b03908116600090815260036020526040902054640100000000900416151590565b6040519015158152602001610198565b34801561046257600080fd5b506101c1610471366004613e19565b611157565b34801561048257600080fd5b506101847f000000000000000000000000000000000000000000000000000000000000000081565b3480156104b657600080fd5b506104de7f000000000000000000000000000000000000000000000000000000000000000081565b6040516101989190613e92565b3480156104f757600080fd5b5061026b610506366004613d90565b60026020526000908152604090205481565b34801561052457600080fd5b50610558610533366004613d90565b600160208190526000918252604090912080549101546001600160401b039091169082565b604080516001600160401b039093168352602083019190915201610198565b34801561058357600080fd5b506101847f000000000000000000000000000000000000000000000000000000000000000081565b3480156105b757600080fd5b506101847f000000000000000000000000000000000000000000000000000000000000000081565b60005b818110156106125761060a8383838181106105ff576105ff613eba565b905060800201610617565b6001016105e2565b505050565b60006106266020830183613d90565b9050600061eeee61063a6020850185613d90565b6001600160a01b031614905080801561066d575061eeee6106616060850160408601613d90565b6001600160a01b031614155b8015610692575060006106866060850160408601613d90565b6001600160a01b031614155b156106d1576106a76060840160408501613d90565b604051630a0a3b6b60e31b81526001600160a01b0390911660048201526024015b60405180910390fd5b62030d406106e56040850160208601613ed0565b63ffffffff161080156106f6575080155b156107385762030d4061070f6040850160208601613ed0565b604051634f3dbeb360e11b815263ffffffff9283166004820152911660248201526044016106c8565b61086f7f00000000000000000000000000000000000000000000000000000000000000006001600160a01b031663293c49996040518163ffffffff1660e01b8152600401602060405180830381865afa158015610799573d6000803e3d6000fd5b505050506040513d601f19601f820116820180604052508101906107bd9190613ef6565b6040516331a9108f60e11b81527f000000000000000000000000000000000000000000000000000000000000000060048201526001600160a01b039190911690636352211e90602401602060405180830381865afa158015610823573d6000803e3d6000fd5b505050506040513d601f19601f820116820180604052508101906108479190613ef6565b7f0000000000000000000000000000000000000000000000000000000000000000601c61118b565b60006108816060850160408601613d90565b6001600160a01b03161480156108b157506001600160a01b03821660009081526020819052604090206001015415155b1561090c576001600160a01b0380831660009081526003602090815260408083208151606081018352815463ffffffff811682526401000000009004909516928501929092526001909101549083015261090c91849061130f565b604051806060016040528084602001602081019061092a9190613ed0565b63ffffffff1681526020016109456060860160408701613d90565b6001600160a01b0390811682526060909501356020918201529284166000908152600384526040908190208251815495840151909616640100000000026001600160c01b031990951663ffffffff909616959095179390931784559091015160019092019190915550565b6001600160a01b0383166109d7576040516309a9c30b60e41b815260040160405180910390fd5b60405163ea78803f60e01b81527f000000000000000000000000000000000000000000000000000000000000000060048201526000907f00000000000000000000000000000000000000000000000000000000000000006001600160a01b03169063ea78803f90602401602060405180830381865afa158015610a5e573d6000803e3d6000fd5b505050506040513d601f19601f82011682018060405250810190610a829190613ef6565b90506001600160a01b038116610aab57604051635a33845560e01b815260040160405180910390fd5b6001600160a01b03828116600090815260036020526040902054640100000000900416610af65760405163393e175160e01b81526001600160a01b03831660048201526024016106c8565b610b0b6001600160a01b0382163330886116b6565b6000610b198287858761171d565b9050610b2786848388611910565b505050505050565b6000466001819003610b445761210591505090565b8061210503610b5557600191505090565b8062aa36a703610b695762014a3491505090565b8062014a3403610b7d5762aa36a791505090565b5090565b60007f00000000000000000000000000000000000000000000000000000000000000006001811115610bb557610bb5613e7c565b14610bd35760405163218a9a2d60e11b815260040160405180910390fd5b6001600160a01b038116600090815260026020526040902054610bf7908290611a94565b50565b610c0333611e46565b610c2057604051630439dbd360e51b815260040160405180910390fd5b60208101803590600290600090610c379085613d90565b6001600160a01b03166001600160a01b031681526020019081526020016000206000828254610c669190613f29565b90915550600190506000610c7d6020840184613d90565b6001600160a01b0316815260208101919091526040908101600020546001600160401b031690610cb39060608401908401613f51565b6001600160401b03161115610bf7576040810160016000610cd76020850185613d90565b6001600160a01b031681526020810191909152604001600020610cfa8282613f6e565b50610d0a90506020820182613d90565b6001600160a01b03167f551b6b99b4c48e3265d2885ab0d93779be2402293261e074f7bf74b2c8f45b6f610d446060840160408501613f51565b604080516001600160401b039092168252606085013560208301520160405180910390a250565b6000602081815291815260409081902080546001820154835161044081018086526001600160401b0390931695919490926002850192849283019184919082845b815481526020019060010190808311610dac575050509183525050602091820154910152905083565b610e0d6060820135610dea6020840184613d90565b6080840135610dff6060860160408701613d90565b602086013560a08701611f43565b60017f00000000000000000000000000000000000000000000000000000000000000006001811115610e4157610e41613e7c565b03610e6057610e60610e566020830183613d90565b6080830135611a94565b604051632eec7b5560e11b81527f000000000000000000000000000000000000000000000000000000000000000060048201527f00000000000000000000000000000000000000000000000000000000000000006001600160a01b031690635dd8f6aa90602401602060405180830381865afa158015610ee4573d6000803e3d6000fd5b505050506040513d601f19601f82011682018060405250810190610f089190613ef6565b6001600160a01b031663c7fb92de7f000000000000000000000000000000000000000000000000000000000000000060608401803590610f4b9060408701613d90565b6040516001600160e01b031960e086901b168152600481019390935260248301919091526001600160a01b0316604482015260a06064820152600060a48201819052608482015260c4016020604051808303816000875af1158015610fb4573d6000803e3d6000fd5b505050506040513d601f19601f82011682018060405250810190610fd89190613fa1565b507f487194902d206a126abe9f23a4e2b78d1600ed8034b1423290a13edd6ebc7d1461100a6060830160408401613d90565b6110176020840184613d90565b60608401356080850135602086013560017f0000000000000000000000000000000000000000000000000000000000000000600181111561105a5761105a613e7c565b14611066576000611069565b60015b604080516001600160a01b0397881681529690951660208701529385019290925260608401526080830152151560a082015260c00160405180910390a150565b6001600160a01b0380821660008181526003602090815260408083208151606081018352815463ffffffff811682526401000000009004909616868401526001908101548683018190529484529183905290912001541015611148576040808201516001600160a01b0384166000908152602081905282902060010154915163091df9e560e31b81526106c89290600401918252602082015260400190565b61115334838361130f565b5050565b60005b818110156106125761118383838381811061117757611177613eba565b90506104a00201610dd5565b60010161115a565b336001600160a01b0384168114801590611242575060405163c161c93f60e01b81526001600160a01b038281166004830152858116602483015260448201859052606482018490527f0000000000000000000000000000000000000000000000000000000000000000169063c161c93f90608401602060405180830381865afa15801561121c573d6000803e3d6000fd5b505050506040513d601f19601f820116820180604052508101906112409190613fba565b155b80156112eb575060405163c161c93f60e01b81526001600160a01b038281166004830152858116602483015260006044830152606482018490527f0000000000000000000000000000000000000000000000000000000000000000169063c161c93f90608401602060405180830381865afa1580156112c5573d6000803e3d6000fd5b505050506040513d601f19601f820116820180604052508101906112e99190613fba565b155b156113095760405163075fd2b160e01b815260040160405180910390fd5b50505050565b60008315611330576040516352864b0160e11b815260040160405180910390fd5b6001600160a01b038316600090815260208190526040812060018101805490839055815490929190829061136c906001600160401b0316613fdc565b91906101000a8154816001600160401b0302191690836001600160401b031602179055905060006001600160a01b031684602001516001600160a01b0316036113d35760405163393e175160e01b81526001600160a01b03861660048201526024016106c8565b6001600160a01b03851661eeee146114ce57611410857f000000000000000000000000000000000000000000000000000000000000000084612073565b6020808501518551604080519384018152600084525163540abf7360e01b81526001600160a01b037f0000000000000000000000000000000000000000000000000000000000000000169363540abf7393611497938b9391927f0000000000000000000000000000000000000000000000000000000000000000928a929190600401614052565b600060405180830381600087803b1580156114b157600080fd5b505af11580156114c5573d6000803e3d6000fd5b505050506114d2565b8192505b6001600160a01b03851660009081526020819052604081206114f690600201612103565b6001600160a01b03871660009081526020819052604081206022015491925090611522906001906140a5565b604080516060810182526020808a01516001600160a01b039081168352818301898152845180860186526001600160401b03808b1682528185018a9052858701918252955194518316602486015290516044850152518051909416606484015292015160848201529192507f00000000000000000000000000000000000000000000000000000000000000001690633dbb202b9087907f00000000000000000000000000000000000000000000000000000000000000009060a40160408051601f198184030181529181526020820180516001600160e01b03166369d31fdd60e01b179052516001600160e01b031960e086901b16815261162c929190620493e0906004016140b8565b6000604051808303818588803b15801561164557600080fd5b505af1158015611659573d6000803e3d6000fd5b5050604080518581526001600160401b03881660208201526001600160a01b038c1694508693507f3e069c1f498cba23d7d2b74b84311469e8da6e527cade62061d642c61b64e0de92500160405180910390a35050505050505050565b6040516001600160a01b0384811660248301528381166044830152606482018390526113099186918216906323b872dd906084015b604051602081830303815290604052915060e01b6020820180516001600160e01b0383818316178352505050506134b9565b604051630862026560e41b81527f000000000000000000000000000000000000000000000000000000000000000060048201526001600160a01b03838116602483015260009182917f00000000000000000000000000000000000000000000000000000000000000001690638620265090604401602060405180830381865afa1580156117ae573d6000803e3d6000fd5b505050506040513d601f19601f820116820180604052508101906117d29190613ef6565b90506001600160a01b03811661182c57604051630c9ae01360e01b81527f000000000000000000000000000000000000000000000000000000000000000060048201526001600160a01b03851660248201526044016106c8565b6000611838853061351c565b60408051602081018252600081529051635db90a7f60e11b81529192506001600160a01b0384169163bb7214fe9161189e9130917f0000000000000000000000000000000000000000000000000000000000000000918b918d918c9186916004016140f2565b6020604051808303816000875af11580156118bd573d6000803e3d6000fd5b505050506040513d601f19601f820116820180604052508101906118e19190613fa1565b9250806118ee863061351c565b6118f891906140a5565b831461190657611906614144565b5050949350505050565b600061191d8584846135b3565b6001600160a01b0385166000908152602081815260408083208151610440810180845295965093946119889487949093600290930192849290830191849182845b81548152602001906001019080831161195e575050509183525050602091820154910152906135f8565b6001600160a01b038616600090815260208181526040909120825192935083926002909101916119b9918391613bfb565b50602091820151908201556001600160a01b0386166000908152908190526040812060010180548692906119ee908490613f29565b92505081905550846001600160a01b0316836001600160a01b03167f7b58dbb78e7edc690b0688a53dea0c443d630c4a5db66c3c47d4ff2044c977288460018560200151611a3c91906140a5565b6001600160a01b038a166000908152602081905260409020611a6090600201612103565b60408051938452602084019290925290820152606081018a90526080810188905260a00160405180910390a3505050505050565b6001600160a01b03821660009081526002602052604090205480821115611ace57604051632858f9ab60e11b815260040160405180910390fd5b6001600160a01b03838116600081815260026020526040808220868603905551630862026560e41b81527f000000000000000000000000000000000000000000000000000000000000000060048201526024810192909252917f00000000000000000000000000000000000000000000000000000000000000001690638620265090604401602060405180830381865afa158015611b70573d6000803e3d6000fd5b505050506040513d601f19601f82011682018060405250810190611b949190613ef6565b90506001600160a01b038116611bee57604051630c9ae01360e01b81527f000000000000000000000000000000000000000000000000000000000000000060048201526001600160a01b03851660248201526044016106c8565b6001600160a01b03841661eeee14611d9e576040516370a0823160e01b81523060048201526000906001600160a01b038616906370a0823190602401602060405180830381865afa158015611c47573d6000803e3d6000fd5b505050506040513d601f19601f82011682018060405250810190611c6b9190613fa1565b9050611c78858386612073565b60408051602080820183526000808352835191820184528082529251639e6eec0560e01b81526001600160a01b03861693639e6eec0593611ce5937f0000000000000000000000000000000000000000000000000000000000000000938c938c939092909160040161415a565b600060405180830381600087803b158015611cff57600080fd5b505af1158015611d13573d6000803e3d6000fd5b505050508381611d2391906140a5565b6040516370a0823160e01b81523060048201526001600160a01b038716906370a0823190602401602060405180830381865afa158015611d67573d6000803e3d6000fd5b505050506040513d601f19601f82011682018060405250810190611d8b9190613fa1565b14611d9857611d98614144565b50611309565b60408051602080820183526000808352835191820184528082529251639e6eec0560e01b81526001600160a01b03851693639e6eec05938893611e0e937f0000000000000000000000000000000000000000000000000000000000000000938c938793919290919060040161415a565b6000604051808303818588803b158015611e2757600080fd5b505af1158015611e3b573d6000803e3d6000fd5b505050505050505050565b60007f00000000000000000000000000000000000000000000000000000000000000006001600160a01b0316826001600160a01b0316148015611f3d57507f00000000000000000000000000000000000000000000000000000000000000006001600160a01b03167f00000000000000000000000000000000000000000000000000000000000000006001600160a01b0316636e296e456040518163ffffffff1660e01b81526004016020604051808303816000875af1158015611f0e573d6000803e3d6000fd5b505050506040513d601f19601f82011682018060405250810190611f329190613ef6565b6001600160a01b0316145b92915050565b6001600160a01b0385166000908152600460209081526040808320600886901c8452909152902054600160ff84161b1615611f945760405163ed9bdd0760e01b8152600481018390526024016106c8565b6001600160a01b0385166000908152600460209081526040808320600886901c845290915281208054600160ff86161b179055612003611fd58887876135b3565b6040805161040081810190925290859060209083908390808284376000920191909152508791506136fe9050565b6001600160a01b03871660009081526001602081905260409091200154909150811461206a576001600160a01b0386166000908152600160208190526040918290200154905163286f87c960e21b81526004810191909152602481018290526044016106c8565b50505050505050565b604080516001600160a01b038416602482015260448082018490528251808303909101815260649091019091526020810180516001600160e01b031663095ea7b360e01b1790526120c48482613a4c565b611309576040516001600160a01b038481166024830152600060448301526120f991869182169063095ea7b3906064016116eb565b61130984826134b9565b602081015460009080820361213a57507f27ae5ba08d7291c96c8cbddcc148bf48a6d68c7974b94356f53754ef6171d75792915050565b600083600183161561215c578054600052600060205260406000209350612a0f565b60028316156121a15760018101546000527fad3228b676f7d3cd4284a5443f17f1962b36e491b30a40b2405849e597ba5fb56020526040600020935060019150612a0f565b60048316156121e65760028101546000527fb4c11951957c6f8f642c4af61cd6b24640fec6dc7fc607ee8206a99e92410d306020526040600020935060029150612a0f565b600883161561222b5760038101546000527f21ddb9a356815c3fac1026b6dec5df3124afbadb485c9ba5a3e3398a04b7ba856020526040600020935060039150612a0f565b60108316156122705760048101546000527fe58769b32a1beaf1ea27375a44095a0d1fb664ce2dd358e7fcbfb78c26a193446020526040600020935060049150612a0f565b60208316156122b55760058101546000527f0eb01ebfc9ed27500cd4dfc979272d1f0913cc9f66540d7e8005811109e1cf2d6020526040600020935060059150612a0f565b60408316156122fa5760068101546000527f887c22bd8750d34016ac3c66b5ff102dacdd73f6b014e710b51e8022af9a19686020526040600020935060069150612a0f565b608083161561233f5760078101546000527fffd70157e48063fc33c97a050f7f640233bf646cc98d9524c6b92bcf3ab56f836020526040600020935060079150612a0f565b6101008316156123855760088101546000527f9867cc5f7f196b93bae1e27e6320742445d290f2263827498b54fec539f756af6020526040600020935060089150612a0f565b6102008316156123cb5760098101546000527fcefad4e508c098b9a7e1d8feb19955fb02ba9675585078710969d3440f5054e06020526040600020935060099150612a0f565b61040083161561241157600a8101546000527ff9dc3e7fe016e050eff260334f18a5d4fe391d82092319f5964f2e2eb7c1c3a560205260406000209350600a9150612a0f565b61080083161561245757600b8101546000527ff8b13a49e282f609c317a833fb8d976d11517c571d1221a265d25af778ecf89260205260406000209350600b9150612a0f565b61100083161561249d57600c8101546000527f3490c6ceeb450aecdc82e28293031d10c7d73bf85e57bf041a97360aa2c5d99c60205260406000209350600c9150612a0f565b6120008316156124e357600d8101546000527fc1df82d9c4b87413eae2ef048f94b4d3554cea73d92b0f7af96e0271c691e2bb60205260406000209350600d9150612a0f565b61400083161561252957600e8101546000527f5c67add7c6caf302256adedf7ab114da0acfe870d449a3a489f781d659e8becc60205260406000209350600e9150612a0f565b61800083161561256f57600f8101546000527fda7bce9f4e8618b6bd2f4132ce798cdc7a60e7e1460a7299e3c6342a579626d260205260406000209350600f9150612a0f565b620100008316156125b65760108101546000527f2733e50f526ec2fa19a22b31e8ed50f23cd1fdf94c9154ed3a7609a2f1ff981f6020526040600020935060109150612a0f565b620200008316156125fd5760118101546000527fe1d3b5c807b281e4683cc6d6315cf95b9ade8641defcb32372f1c126e398ef7a6020526040600020935060119150612a0f565b620400008316156126445760128101546000527f5a2dce0a8a7f68bb74560f8f71837c2c2ebbcbf7fffb42ae1896f13f7c7479a06020526040600020935060129150612a0f565b6208000083161561268b5760138101546000527fb46a28b6f55540f89444f63de0378e3d121be09e06cc9ded1c20e65876d36aa06020526040600020935060139150612a0f565b621000008316156126d25760148101546000527fc65e9645644786b620e2dd2ad648ddfcbf4a7e5b1a3a4ecfe7f64667a3f0b7e26020526040600020935060149150612a0f565b622000008316156127195760158101546000527ff4418588ed35a2458cffeb39b93d26f18d2ab13bdce6aee58e7b99359ec2dfd96020526040600020935060159150612a0f565b624000008316156127605760168101546000527f5a9c16dc00d6ef18b7933a6f8dc65ccb55667138776f7dea101070dc8796e3776020526040600020935060169150612a0f565b628000008316156127a75760178101546000527f4df84f40ae0c8229d0d6069e5c8f39a7c299677a09d367fc7b05e3bc380ee6526020526040600020935060179150612a0f565b63010000008316156127ef5760188101546000527fcdc72595f74c7b1043d0e1ffbab734648c838dfb0527d971b602bc216c9619ef6020526040600020935060189150612a0f565b63020000008316156128375760198101546000527f0abf5ac974a1ed57f4050aa510dd9c74f508277b39d7973bb2dfccc5eeb0618d6020526040600020935060199150612a0f565b630400000083161561287f57601a8101546000527fb8cd74046ff337f0a7bf2c8e03e10f642c1886798d71806ab1e888d9e5ee87d060205260406000209350601a9150612a0f565b63080000008316156128c757601b8101546000527f838c5655cb21c6cb83313b5a631175dff4963772cce9108188b34ac87c81c41e60205260406000209350601b9150612a0f565b631000000083161561290f57601c8101546000527f662ee4dd2dd7b2bc707961b1e646c4047669dcb6584f0d8d770daf5d7e7deb2e60205260406000209350601c9150612a0f565b632000000083161561295757601d8101546000527f388ab20e2573d171a88108e79d820e98f26c0b84aa8b2f4aa4968dbb818ea32260205260406000209350601d9150612a0f565b634000000083161561299f57601e8101546000527f93237c50ba75ee485f4c22adf2f741400bdf8d6a9cc7df7ecae576221665d73560205260406000209350601e9150612a0f565b63800000008316156129e757601f8101546000527f8448818bb4ae4562849e949e17ac16e0be16688e156b5cf15e098c627c0056a960205260406000209350601f9150612a0f565b7f27ae5ba08d7291c96c8cbddcc148bf48a6d68c7974b94356f53754ef6171d7579350602091505b601e82116134b1576001821015612a6d57600283168015612a3b57600182015460005284602052612a64565b846000527fad3228b676f7d3cd4284a5443f17f1962b36e491b30a40b2405849e597ba5fb56020525b50604060002093505b6002821015612ac357600483168015612a9157600282015460005284602052612aba565b846000527fb4c11951957c6f8f642c4af61cd6b24640fec6dc7fc607ee8206a99e92410d306020525b50604060002093505b6003821015612b1957600883168015612ae757600382015460005284602052612b10565b846000527f21ddb9a356815c3fac1026b6dec5df3124afbadb485c9ba5a3e3398a04b7ba856020525b50604060002093505b6004821015612b6f57601083168015612b3d57600482015460005284602052612b66565b846000527fe58769b32a1beaf1ea27375a44095a0d1fb664ce2dd358e7fcbfb78c26a193446020525b50604060002093505b6005821015612bc557602083168015612b9357600582015460005284602052612bbc565b846000527f0eb01ebfc9ed27500cd4dfc979272d1f0913cc9f66540d7e8005811109e1cf2d6020525b50604060002093505b6006821015612c1b57604083168015612be957600682015460005284602052612c12565b846000527f887c22bd8750d34016ac3c66b5ff102dacdd73f6b014e710b51e8022af9a19686020525b50604060002093505b6007821015612c7157608083168015612c3f57600782015460005284602052612c68565b846000527fffd70157e48063fc33c97a050f7f640233bf646cc98d9524c6b92bcf3ab56f836020525b50604060002093505b6008821015612cc85761010083168015612c9657600882015460005284602052612cbf565b846000527f9867cc5f7f196b93bae1e27e6320742445d290f2263827498b54fec539f756af6020525b50604060002093505b6009821015612d1f5761020083168015612ced57600982015460005284602052612d16565b846000527fcefad4e508c098b9a7e1d8feb19955fb02ba9675585078710969d3440f5054e06020525b50604060002093505b600a821015612d765761040083168015612d4457600a82015460005284602052612d6d565b846000527ff9dc3e7fe016e050eff260334f18a5d4fe391d82092319f5964f2e2eb7c1c3a56020525b50604060002093505b600b821015612dcd5761080083168015612d9b57600b82015460005284602052612dc4565b846000527ff8b13a49e282f609c317a833fb8d976d11517c571d1221a265d25af778ecf8926020525b50604060002093505b600c821015612e245761100083168015612df257600c82015460005284602052612e1b565b846000527f3490c6ceeb450aecdc82e28293031d10c7d73bf85e57bf041a97360aa2c5d99c6020525b50604060002093505b600d821015612e7b5761200083168015612e4957600d82015460005284602052612e72565b846000527fc1df82d9c4b87413eae2ef048f94b4d3554cea73d92b0f7af96e0271c691e2bb6020525b50604060002093505b600e821015612ed25761400083168015612ea057600e82015460005284602052612ec9565b846000527f5c67add7c6caf302256adedf7ab114da0acfe870d449a3a489f781d659e8becc6020525b50604060002093505b600f821015612f295761800083168015612ef757600f82015460005284602052612f20565b846000527fda7bce9f4e8618b6bd2f4132ce798cdc7a60e7e1460a7299e3c6342a579626d26020525b50604060002093505b6010821015612f81576201000083168015612f4f57601082015460005284602052612f78565b846000527f2733e50f526ec2fa19a22b31e8ed50f23cd1fdf94c9154ed3a7609a2f1ff981f6020525b50604060002093505b6011821015612fd9576202000083168015612fa757601182015460005284602052612fd0565b846000527fe1d3b5c807b281e4683cc6d6315cf95b9ade8641defcb32372f1c126e398ef7a6020525b50604060002093505b6012821015613031576204000083168015612fff57601282015460005284602052613028565b846000527f5a2dce0a8a7f68bb74560f8f71837c2c2ebbcbf7fffb42ae1896f13f7c7479a06020525b50604060002093505b601382101561308957620800008316801561305757601382015460005284602052613080565b846000527fb46a28b6f55540f89444f63de0378e3d121be09e06cc9ded1c20e65876d36aa06020525b50604060002093505b60148210156130e15762100000831680156130af576014820154600052846020526130d8565b846000527fc65e9645644786b620e2dd2ad648ddfcbf4a7e5b1a3a4ecfe7f64667a3f0b7e26020525b50604060002093505b601582101561313957622000008316801561310757601582015460005284602052613130565b846000527ff4418588ed35a2458cffeb39b93d26f18d2ab13bdce6aee58e7b99359ec2dfd96020525b50604060002093505b601682101561319157624000008316801561315f57601682015460005284602052613188565b846000527f5a9c16dc00d6ef18b7933a6f8dc65ccb55667138776f7dea101070dc8796e3776020525b50604060002093505b60178210156131e95762800000831680156131b7576017820154600052846020526131e0565b846000527f4df84f40ae0c8229d0d6069e5c8f39a7c299677a09d367fc7b05e3bc380ee6526020525b50604060002093505b60188210156132425763010000008316801561321057601882015460005284602052613239565b846000527fcdc72595f74c7b1043d0e1ffbab734648c838dfb0527d971b602bc216c9619ef6020525b50604060002093505b601982101561329b5763020000008316801561326957601982015460005284602052613292565b846000527f0abf5ac974a1ed57f4050aa510dd9c74f508277b39d7973bb2dfccc5eeb0618d6020525b50604060002093505b601a8210156132f4576304000000831680156132c257601a820154600052846020526132eb565b846000527fb8cd74046ff337f0a7bf2c8e03e10f642c1886798d71806ab1e888d9e5ee87d06020525b50604060002093505b601b82101561334d5763080000008316801561331b57601b82015460005284602052613344565b846000527f838c5655cb21c6cb83313b5a631175dff4963772cce9108188b34ac87c81c41e6020525b50604060002093505b601c8210156133a65763100000008316801561337457601c8201546000528460205261339d565b846000527f662ee4dd2dd7b2bc707961b1e646c4047669dcb6584f0d8d770daf5d7e7deb2e6020525b50604060002093505b601d8210156133ff576320000000831680156133cd57601d820154600052846020526133f6565b846000527f388ab20e2573d171a88108e79d820e98f26c0b84aa8b2f4aa4968dbb818ea3226020525b50604060002093505b601e8210156134585763400000008316801561342657601e8201546000528460205261344f565b846000527f93237c50ba75ee485f4c22adf2f741400bdf8d6a9cc7df7ecae576221665d7356020525b50604060002093505b601f8210156134b15763800000008316801561347f57601f820154600052846020526134a8565b846000527f8448818bb4ae4562849e949e17ac16e0be16688e156b5cf15e098c627c0056a96020525b50604060002093505b505050919050565b60006134ce6001600160a01b03841683613af4565b905080516000141580156134f35750808060200190518101906134f19190613fba565b155b1561061257604051635274afe760e01b81526001600160a01b03841660048201526024016106c8565b600061eeed196001600160a01b0384160161354257506001600160a01b03811631611f3d565b6040516370a0823160e01b81526001600160a01b0383811660048301528416906370a0823190602401602060405180830381865afa158015613588573d6000803e3d6000fd5b505050506040513d601f19601f820116820180604052508101906135ac9190613fa1565b9392505050565b60408051602081018590529081018390526001600160a01b03821660608201526000906080016040516020818303038152906040528051906020012090509392505050565b613600613c35565b6000836020018051613611906141a1565b90819052905060016136256020600261429e565b61362f91906140a5565b81111561364f57604051638eab04bb60e01b815260040160405180910390fd5b60005b60208110156136e4578160011660010361368b5784518490826020811061367b5761367b613eba565b602002015250839150611f3d9050565b8451816020811061369e5761369e613eba565b6020020151846040516020016136be929190918252602082015260400190565b60408051601f1981840301815291905280516020909101209350600191821c9101613652565b50604051638eab04bb60e01b815260040160405180910390fd5b6020600582811b8216948552835194820394909452604060008181206002851615871b808503919091528386015190528181206004851615871b808503919091528286015190528181206008851615871b80850391909152606086015190528181206010851615871b8085039190915260808087015190915282822084861615881b8086039190915260a0870151905282822083861615881b8086039190915260c0870151905282822090851615871b8085039190915260e0860151905281812061010080861615881b80860392909252860151905281812061020080861615881b80860392909252610120870151909152828220610400861615881b808603919091526101408701519052828220610800861615881b808603919091526101608701519052828220611000861615881b808603919091526101808701519052828220612000861615881b808603919091526101a08701519052828220614000861615881b808603919091526101c08701519052828220618000861615881b808603919091526101e0870151905282822062010000861615881b8086039190915290860151905281812062020000851615871b80850391909152610220860151905281812062040000851615871b80850391909152610240860151905281812062080000851615871b80850391909152610260860151905281812062100000851615871b80850391909152610280860151905281812062200000851615871b808503919091526102a0860151905281812062400000851615871b808503919091526102c0860151905281812062800000851615871b808503919091526102e086015190528181206301000000851615871b8085039190915261030086015190528181206302000000851615871b8085039190915261032086015190528181206304000000851615871b8085039190915261034086015190528181206308000000851615871b8085039190915261036086015190528181206310000000851615871b8085039190915261038086015190528181206320000000851615871b808503919091526103a086015190528181206340000000851615871b808503919091526103c0860151905281812063800000009094161590951b91829003929092526103e090920151909152902090565b6000806000846001600160a01b031684604051613a6991906142aa565b6000604051808303816000865af19150503d8060008114613aa6576040519150601f19603f3d011682016040523d82523d6000602084013e613aab565b606091505b5091509150818015613ad5575080511580613ad5575080806020019051810190613ad59190613fba565b8015613aeb57506000856001600160a01b03163b115b95945050505050565b60606135ac8383600084600080856001600160a01b03168486604051613b1a91906142aa565b60006040518083038185875af1925050503d8060008114613b57576040519150601f19603f3d011682016040523d82523d6000602084013e613b5c565b606091505b5091509150613b6c868383613b76565b9695505050505050565b606082613b8b57613b8682613bd2565b6135ac565b8151158015613ba257506001600160a01b0384163b155b15613bcb57604051639996b31560e01b81526001600160a01b03851660048201526024016106c8565b50806135ac565b805115613be25780518082602001fd5b604051630a12f52160e11b815260040160405180910390fd5b8260208101928215613c29579160200282015b82811115613c29578251825591602001919060010190613c0e565b50610b7d929150613c55565b6040518060400160405280613c48613c6a565b8152602001600081525090565b5b80821115610b7d5760008155600101613c56565b6040518061040001604052806020906020820280368337509192915050565b60008060208385031215613c9c57600080fd5b82356001600160401b0380821115613cb357600080fd5b818501915085601f830112613cc757600080fd5b813581811115613cd657600080fd5b8660208260071b8501011115613ceb57600080fd5b60209290920196919550909350505050565b600060808284031215613d0f57600080fd5b50919050565b600060808284031215613d2757600080fd5b6135ac8383613cfd565b6001600160a01b0381168114610bf757600080fd5b60008060008060808587031215613d5c57600080fd5b843593506020850135613d6e81613d31565b9250604085013591506060850135613d8581613d31565b939692955090935050565b600060208284031215613da257600080fd5b81356135ac81613d31565b6001600160401b038416815260208082018490528251610460830191906000604085015b83821015613def578251815291830191600191909101908301613dd1565b505050506020830151610440830152949350505050565b60006104a08284031215613d0f57600080fd5b60008060208385031215613e2c57600080fd5b82356001600160401b0380821115613e4357600080fd5b818501915085601f830112613e5757600080fd5b813581811115613e6657600080fd5b8660206104a083028501011115613ceb57600080fd5b634e487b7160e01b600052602160045260246000fd5b6020810160028310613eb457634e487b7160e01b600052602160045260246000fd5b91905290565b634e487b7160e01b600052603260045260246000fd5b600060208284031215613ee257600080fd5b813563ffffffff811681146135ac57600080fd5b600060208284031215613f0857600080fd5b81516135ac81613d31565b634e487b7160e01b600052601160045260246000fd5b80820180821115611f3d57611f3d613f13565b6001600160401b0381168114610bf757600080fd5b600060208284031215613f6357600080fd5b81356135ac81613f3c565b8135613f7981613f3c565b6001600160401b0381166001600160401b031983541617825550602082013560018201555050565b600060208284031215613fb357600080fd5b5051919050565b600060208284031215613fcc57600080fd5b815180151581146135ac57600080fd5b60006001600160401b03808316818103613ff857613ff8613f13565b6001019392505050565b60005b8381101561401d578181015183820152602001614005565b50506000910152565b6000815180845261403e816020860160208601614002565b601f01601f19169290920160200192915050565b6001600160a01b0387811682528681166020830152851660408201526060810184905263ffffffff8316608082015260c060a0820181905260009061409990830184614026565b98975050505050505050565b81810381811115611f3d57611f3d613f13565b6001600160a01b03841681526060602082018190526000906140dc90830185614026565b905063ffffffff83166040830152949350505050565b600060018060a01b03808a168352886020840152808816604084015286606084015285608084015280851660a08401525060e060c083015261413760e0830184614026565b9998505050505050505050565b634e487b7160e01b600052600160045260246000fd5b86815260018060a01b0386166020820152846040820152831515606082015260c06080820152600061418f60c0830185614026565b82810360a08401526141378185614026565b6000600182016141b3576141b3613f13565b5060010190565b600181815b808511156141f55781600019048211156141db576141db613f13565b808516156141e857918102915b93841c93908002906141bf565b509250929050565b60008261420c57506001611f3d565b8161421957506000611f3d565b816001811461422f576002811461423957614255565b6001915050611f3d565b60ff84111561424a5761424a613f13565b50506001821b611f3d565b5060208310610133831016604e8410600b8410161715614278575081810a611f3d565b61428283836141ba565b806000190482111561429657614296613f13565b029392505050565b60006135ac83836141fd565b600082516142bc818460208701614002565b919091019291505056fea2646970667358221220be2efd0df535ef90546142bcd6a78f5795d24dd95f031c03687e396e983b39b564736f6c63430008170033a2646970667358221220fcf505c31fb4598b659a68597bf033eda643db93f1e8e5934341d52eae35e8f164736f6c63430008170033",
			"deployedBytecode": "0x608060405234801561001057600080fd5b50600436106100625760003560e01c80631213036614610067578063927ede2d14610097578063c39ec124146100aa578063cc8b6f4f146100dd578063ee9a31a2146100f2578063f434c91414610105575b600080fd5b61007a6100753660046102b7565b61012c565b6040516001600160a01b0390911681526020015b60405180910390f35b60005461007a906001600160a01b031681565b6100cd6100b83660046102f1565b60026020526000908152604090205460ff1681565b604051901515815260200161008e565b6100f06100eb366004610315565b61023b565b005b60015461007a906001600160a01b031681565b61007a7f0000000000000000000000001e2e8562b635fe19978640c784e47865a83d660581565b6040516bffffffffffffffffffffffff193360601b16602082015260348101829052600090605401604051602081830303815290604052805190602001209150817f000000000000000000000000cd8c4da77dfb15c05486d3f71ee4c2c0dfdbc94e7f000000000000000000000000792b79adb4aa06eddabd6ddef5ee06dcb946f4367f0000000000000000000000001e2e8562b635fe19978640c784e47865a83d660560008760006040516101e1906102aa565b6101f09695949392919061034e565b8190604051809103906000f5905080158015610210573d6000803e3d6000fd5b506001600160a01b0381166000908152600260205260409020805460ff191660011790559392505050565b6000546001600160a01b031615158061025e57506001546001600160a01b031615155b1561027c5760405163ccbe17fd60e01b815260040160405180910390fd5b600080546001600160a01b039384166001600160a01b03199182161790915560018054929093169116179055565b6146da806103ad83390190565b600080604083850312156102ca57600080fd5b50508035926020909101359150565b6001600160a01b03811681146102ee57600080fd5b50565b60006020828403121561030357600080fd5b813561030e816102d9565b9392505050565b6000806040838503121561032857600080fd5b8235610333816102d9565b91506020830135610343816102d9565b809150509250929050565b6001600160a01b03878116825286811660208301528581166040830152841660608201526080810183905260c081016002831061039b57634e487b7160e01b600052602160045260246000fd5b8260a083015297965050505050505056fe6101a06040523480156200001257600080fd5b50604051620046da380380620046da8339810160408190526200003591620001d3565b6001600160a01b0380851660805280871660c05280861660e05286908690869086908690869086908690869086908690869083161562000076578262000078565b305b6001600160a01b0316610120526101408290523361010052806001811115620000a557620000a56200025e565b60a0816001811115620000bc57620000bc6200025e565b905250505050505050336001600160a01b031663927ede2d6040518163ffffffff1660e01b8152600401602060405180830381865afa15801562000104573d6000803e3d6000fd5b505050506040513d601f19601f820116820180604052508101906200012a919062000274565b6001600160a01b0316610160526040805163774d18d160e11b81529051339163ee9a31a29160048083019260209291908290030181865afa15801562000174573d6000803e3d6000fd5b505050506040513d601f19601f820116820180604052508101906200019a919062000274565b6001600160a01b031661018052506200029b9a5050505050505050505050565b6001600160a01b0381168114620001d057600080fd5b50565b60008060008060008060c08789031215620001ed57600080fd5b8651620001fa81620001ba565b60208801519096506200020d81620001ba565b60408801519095506200022081620001ba565b60608801519094506200023381620001ba565b608088015160a08901519194509250600281106200025057600080fd5b809150509295509295509295565b634e487b7160e01b600052602160045260246000fd5b6000602082840312156200028757600080fd5b81516200029481620001ba565b9392505050565b60805160a05160c05160e05161010051610120516101405161016051610180516142fc620003de600039600081816101d5015281816113eb015261143a0152600081816105bd0152818161158f01528181611e4a0152611eb0015260008181610249015281816107cc01528181610849015281816109e601528181610e6f01528181610f180152818161172c015281816117f10152818161186e01528181611afa01528181611bb301528181611cb50152611ddd0152600081816103ae0152818161146b015281816115ba0152611e86015260006104880152600081816101620152610a0f01526000818161037a0152818161073d01528181610e95015281816117670152611b290152600081816104bc01528181610b8501528181610e11015261102a015260008181610589015281816111d5015261127e01526142fc6000f3fe6080604052600436106101445760003560e01c806388bc2ef3116100b6578063c1b8411a1161006f578063c1b8411a14610476578063c6525f2c146104aa578063e7f82c75146104eb578063ed0e26b914610518578063f434c91414610577578063fc8fa43d146105ab57600080fd5b806388bc2ef314610368578063ad42938b1461039c578063b59ef50f146103d0578063b71c1179146103f0578063bf557aee14610403578063c18541291461045657600080fd5b806356539f391161010857806356539f391461023757806361c864171461027957806369ce22331461028e57806369d31fdd146102ae5780636dfa7268146102c15780637de6fba2146102f057600080fd5b80631d831d5c146101505780632241dc52146101a15780632847f1f3146101c357806338eb2044146101f7578063551ebbf01461021757600080fd5b3661014b57005b600080fd5b34801561015c57600080fd5b506101847f000000000000000000000000000000000000000000000000000000000000000081565b6040516001600160a01b0390911681526020015b60405180910390f35b3480156101ad57600080fd5b506101c16101bc366004613c89565b6105df565b005b3480156101cf57600080fd5b506101847f000000000000000000000000000000000000000000000000000000000000000081565b34801561020357600080fd5b506101c1610212366004613d15565b610617565b34801561022357600080fd5b506101c1610232366004613d46565b6109b0565b34801561024357600080fd5b5061026b7f000000000000000000000000000000000000000000000000000000000000000081565b604051908152602001610198565b34801561028557600080fd5b5061026b610b2f565b34801561029a57600080fd5b506101c16102a9366004613d90565b610b81565b6101c16102bc366004613d15565b610bfa565b3480156102cd57600080fd5b506102e16102dc366004613d90565b610d6b565b60405161019893929190613dad565b3480156102fc57600080fd5b5061033e61030b366004613d90565b6003602052600090815260409020805460019091015463ffffffff82169164010000000090046001600160a01b03169083565b6040805163ffffffff90941684526001600160a01b03909216602084015290820152606001610198565b34801561037457600080fd5b506101847f000000000000000000000000000000000000000000000000000000000000000081565b3480156103a857600080fd5b506101847f000000000000000000000000000000000000000000000000000000000000000081565b3480156103dc57600080fd5b506101c16103eb366004613e06565b610dd5565b6101c16103fe366004613d90565b6110a9565b34801561040f57600080fd5b5061044661041e366004613d90565b6001600160a01b03908116600090815260036020526040902054640100000000900416151590565b6040519015158152602001610198565b34801561046257600080fd5b506101c1610471366004613e19565b611157565b34801561048257600080fd5b506101847f000000000000000000000000000000000000000000000000000000000000000081565b3480156104b657600080fd5b506104de7f000000000000000000000000000000000000000000000000000000000000000081565b6040516101989190613e92565b3480156104f757600080fd5b5061026b610506366004613d90565b60026020526000908152604090205481565b34801561052457600080fd5b50610558610533366004613d90565b600160208190526000918252604090912080549101546001600160401b039091169082565b604080516001600160401b039093168352602083019190915201610198565b34801561058357600080fd5b506101847f000000000000000000000000000000000000000000000000000000000000000081565b3480156105b757600080fd5b506101847f000000000000000000000000000000000000000000000000000000000000000081565b60005b818110156106125761060a8383838181106105ff576105ff613eba565b905060800201610617565b6001016105e2565b505050565b60006106266020830183613d90565b9050600061eeee61063a6020850185613d90565b6001600160a01b031614905080801561066d575061eeee6106616060850160408601613d90565b6001600160a01b031614155b8015610692575060006106866060850160408601613d90565b6001600160a01b031614155b156106d1576106a76060840160408501613d90565b604051630a0a3b6b60e31b81526001600160a01b0390911660048201526024015b60405180910390fd5b62030d406106e56040850160208601613ed0565b63ffffffff161080156106f6575080155b156107385762030d4061070f6040850160208601613ed0565b604051634f3dbeb360e11b815263ffffffff9283166004820152911660248201526044016106c8565b61086f7f00000000000000000000000000000000000000000000000000000000000000006001600160a01b031663293c49996040518163ffffffff1660e01b8152600401602060405180830381865afa158015610799573d6000803e3d6000fd5b505050506040513d601f19601f820116820180604052508101906107bd9190613ef6565b6040516331a9108f60e11b81527f000000000000000000000000000000000000000000000000000000000000000060048201526001600160a01b039190911690636352211e90602401602060405180830381865afa158015610823573d6000803e3d6000fd5b505050506040513d601f19601f820116820180604052508101906108479190613ef6565b7f0000000000000000000000000000000000000000000000000000000000000000601c61118b565b60006108816060850160408601613d90565b6001600160a01b03161480156108b157506001600160a01b03821660009081526020819052604090206001015415155b1561090c576001600160a01b0380831660009081526003602090815260408083208151606081018352815463ffffffff811682526401000000009004909516928501929092526001909101549083015261090c91849061130f565b604051806060016040528084602001602081019061092a9190613ed0565b63ffffffff1681526020016109456060860160408701613d90565b6001600160a01b0390811682526060909501356020918201529284166000908152600384526040908190208251815495840151909616640100000000026001600160c01b031990951663ffffffff909616959095179390931784559091015160019092019190915550565b6001600160a01b0383166109d7576040516309a9c30b60e41b815260040160405180910390fd5b60405163ea78803f60e01b81527f000000000000000000000000000000000000000000000000000000000000000060048201526000907f00000000000000000000000000000000000000000000000000000000000000006001600160a01b03169063ea78803f90602401602060405180830381865afa158015610a5e573d6000803e3d6000fd5b505050506040513d601f19601f82011682018060405250810190610a829190613ef6565b90506001600160a01b038116610aab57604051635a33845560e01b815260040160405180910390fd5b6001600160a01b03828116600090815260036020526040902054640100000000900416610af65760405163393e175160e01b81526001600160a01b03831660048201526024016106c8565b610b0b6001600160a01b0382163330886116b6565b6000610b198287858761171d565b9050610b2786848388611910565b505050505050565b6000466001819003610b445761210591505090565b8061210503610b5557600191505090565b8062aa36a703610b695762014a3491505090565b8062014a3403610b7d5762aa36a791505090565b5090565b60007f00000000000000000000000000000000000000000000000000000000000000006001811115610bb557610bb5613e7c565b14610bd35760405163218a9a2d60e11b815260040160405180910390fd5b6001600160a01b038116600090815260026020526040902054610bf7908290611a94565b50565b610c0333611e46565b610c2057604051630439dbd360e51b815260040160405180910390fd5b60208101803590600290600090610c379085613d90565b6001600160a01b03166001600160a01b031681526020019081526020016000206000828254610c669190613f29565b90915550600190506000610c7d6020840184613d90565b6001600160a01b0316815260208101919091526040908101600020546001600160401b031690610cb39060608401908401613f51565b6001600160401b03161115610bf7576040810160016000610cd76020850185613d90565b6001600160a01b031681526020810191909152604001600020610cfa8282613f6e565b50610d0a90506020820182613d90565b6001600160a01b03167f551b6b99b4c48e3265d2885ab0d93779be2402293261e074f7bf74b2c8f45b6f610d446060840160408501613f51565b604080516001600160401b039092168252606085013560208301520160405180910390a250565b6000602081815291815260409081902080546001820154835161044081018086526001600160401b0390931695919490926002850192849283019184919082845b815481526020019060010190808311610dac575050509183525050602091820154910152905083565b610e0d6060820135610dea6020840184613d90565b6080840135610dff6060860160408701613d90565b602086013560a08701611f43565b60017f00000000000000000000000000000000000000000000000000000000000000006001811115610e4157610e41613e7c565b03610e6057610e60610e566020830183613d90565b6080830135611a94565b604051632eec7b5560e11b81527f000000000000000000000000000000000000000000000000000000000000000060048201527f00000000000000000000000000000000000000000000000000000000000000006001600160a01b031690635dd8f6aa90602401602060405180830381865afa158015610ee4573d6000803e3d6000fd5b505050506040513d601f19601f82011682018060405250810190610f089190613ef6565b6001600160a01b031663c7fb92de7f000000000000000000000000000000000000000000000000000000000000000060608401803590610f4b9060408701613d90565b6040516001600160e01b031960e086901b168152600481019390935260248301919091526001600160a01b0316604482015260a06064820152600060a48201819052608482015260c4016020604051808303816000875af1158015610fb4573d6000803e3d6000fd5b505050506040513d601f19601f82011682018060405250810190610fd89190613fa1565b507f487194902d206a126abe9f23a4e2b78d1600ed8034b1423290a13edd6ebc7d1461100a6060830160408401613d90565b6110176020840184613d90565b60608401356080850135602086013560017f0000000000000000000000000000000000000000000000000000000000000000600181111561105a5761105a613e7c565b14611066576000611069565b60015b604080516001600160a01b0397881681529690951660208701529385019290925260608401526080830152151560a082015260c00160405180910390a150565b6001600160a01b0380821660008181526003602090815260408083208151606081018352815463ffffffff811682526401000000009004909616868401526001908101548683018190529484529183905290912001541015611148576040808201516001600160a01b0384166000908152602081905282902060010154915163091df9e560e31b81526106c89290600401918252602082015260400190565b61115334838361130f565b5050565b60005b818110156106125761118383838381811061117757611177613eba565b90506104a00201610dd5565b60010161115a565b336001600160a01b0384168114801590611242575060405163c161c93f60e01b81526001600160a01b038281166004830152858116602483015260448201859052606482018490527f0000000000000000000000000000000000000000000000000000000000000000169063c161c93f90608401602060405180830381865afa15801561121c573d6000803e3d6000fd5b505050506040513d601f19601f820116820180604052508101906112409190613fba565b155b80156112eb575060405163c161c93f60e01b81526001600160a01b038281166004830152858116602483015260006044830152606482018490527f0000000000000000000000000000000000000000000000000000000000000000169063c161c93f90608401602060405180830381865afa1580156112c5573d6000803e3d6000fd5b505050506040513d601f19601f820116820180604052508101906112e99190613fba565b155b156113095760405163075fd2b160e01b815260040160405180910390fd5b50505050565b60008315611330576040516352864b0160e11b815260040160405180910390fd5b6001600160a01b038316600090815260208190526040812060018101805490839055815490929190829061136c906001600160401b0316613fdc565b91906101000a8154816001600160401b0302191690836001600160401b031602179055905060006001600160a01b031684602001516001600160a01b0316036113d35760405163393e175160e01b81526001600160a01b03861660048201526024016106c8565b6001600160a01b03851661eeee146114ce57611410857f000000000000000000000000000000000000000000000000000000000000000084612073565b6020808501518551604080519384018152600084525163540abf7360e01b81526001600160a01b037f0000000000000000000000000000000000000000000000000000000000000000169363540abf7393611497938b9391927f0000000000000000000000000000000000000000000000000000000000000000928a929190600401614052565b600060405180830381600087803b1580156114b157600080fd5b505af11580156114c5573d6000803e3d6000fd5b505050506114d2565b8192505b6001600160a01b03851660009081526020819052604081206114f690600201612103565b6001600160a01b03871660009081526020819052604081206022015491925090611522906001906140a5565b604080516060810182526020808a01516001600160a01b039081168352818301898152845180860186526001600160401b03808b1682528185018a9052858701918252955194518316602486015290516044850152518051909416606484015292015160848201529192507f00000000000000000000000000000000000000000000000000000000000000001690633dbb202b9087907f00000000000000000000000000000000000000000000000000000000000000009060a40160408051601f198184030181529181526020820180516001600160e01b03166369d31fdd60e01b179052516001600160e01b031960e086901b16815261162c929190620493e0906004016140b8565b6000604051808303818588803b15801561164557600080fd5b505af1158015611659573d6000803e3d6000fd5b5050604080518581526001600160401b03881660208201526001600160a01b038c1694508693507f3e069c1f498cba23d7d2b74b84311469e8da6e527cade62061d642c61b64e0de92500160405180910390a35050505050505050565b6040516001600160a01b0384811660248301528381166044830152606482018390526113099186918216906323b872dd906084015b604051602081830303815290604052915060e01b6020820180516001600160e01b0383818316178352505050506134b9565b604051630862026560e41b81527f000000000000000000000000000000000000000000000000000000000000000060048201526001600160a01b03838116602483015260009182917f00000000000000000000000000000000000000000000000000000000000000001690638620265090604401602060405180830381865afa1580156117ae573d6000803e3d6000fd5b505050506040513d601f19601f820116820180604052508101906117d29190613ef6565b90506001600160a01b03811661182c57604051630c9ae01360e01b81527f000000000000000000000000000000000000000000000000000000000000000060048201526001600160a01b03851660248201526044016106c8565b6000611838853061351c565b60408051602081018252600081529051635db90a7f60e11b81529192506001600160a01b0384169163bb7214fe9161189e9130917f0000000000000000000000000000000000000000000000000000000000000000918b918d918c9186916004016140f2565b6020604051808303816000875af11580156118bd573d6000803e3d6000fd5b505050506040513d601f19601f820116820180604052508101906118e19190613fa1565b9250806118ee863061351c565b6118f891906140a5565b831461190657611906614144565b5050949350505050565b600061191d8584846135b3565b6001600160a01b0385166000908152602081815260408083208151610440810180845295965093946119889487949093600290930192849290830191849182845b81548152602001906001019080831161195e575050509183525050602091820154910152906135f8565b6001600160a01b038616600090815260208181526040909120825192935083926002909101916119b9918391613bfb565b50602091820151908201556001600160a01b0386166000908152908190526040812060010180548692906119ee908490613f29565b92505081905550846001600160a01b0316836001600160a01b03167f7b58dbb78e7edc690b0688a53dea0c443d630c4a5db66c3c47d4ff2044c977288460018560200151611a3c91906140a5565b6001600160a01b038a166000908152602081905260409020611a6090600201612103565b60408051938452602084019290925290820152606081018a90526080810188905260a00160405180910390a3505050505050565b6001600160a01b03821660009081526002602052604090205480821115611ace57604051632858f9ab60e11b815260040160405180910390fd5b6001600160a01b03838116600081815260026020526040808220868603905551630862026560e41b81527f000000000000000000000000000000000000000000000000000000000000000060048201526024810192909252917f00000000000000000000000000000000000000000000000000000000000000001690638620265090604401602060405180830381865afa158015611b70573d6000803e3d6000fd5b505050506040513d601f19601f82011682018060405250810190611b949190613ef6565b90506001600160a01b038116611bee57604051630c9ae01360e01b81527f000000000000000000000000000000000000000000000000000000000000000060048201526001600160a01b03851660248201526044016106c8565b6001600160a01b03841661eeee14611d9e576040516370a0823160e01b81523060048201526000906001600160a01b038616906370a0823190602401602060405180830381865afa158015611c47573d6000803e3d6000fd5b505050506040513d601f19601f82011682018060405250810190611c6b9190613fa1565b9050611c78858386612073565b60408051602080820183526000808352835191820184528082529251639e6eec0560e01b81526001600160a01b03861693639e6eec0593611ce5937f0000000000000000000000000000000000000000000000000000000000000000938c938c939092909160040161415a565b600060405180830381600087803b158015611cff57600080fd5b505af1158015611d13573d6000803e3d6000fd5b505050508381611d2391906140a5565b6040516370a0823160e01b81523060048201526001600160a01b038716906370a0823190602401602060405180830381865afa158015611d67573d6000803e3d6000fd5b505050506040513d601f19601f82011682018060405250810190611d8b9190613fa1565b14611d9857611d98614144565b50611309565b60408051602080820183526000808352835191820184528082529251639e6eec0560e01b81526001600160a01b03851693639e6eec05938893611e0e937f0000000000000000000000000000000000000000000000000000000000000000938c938793919290919060040161415a565b6000604051808303818588803b158015611e2757600080fd5b505af1158015611e3b573d6000803e3d6000fd5b505050505050505050565b60007f00000000000000000000000000000000000000000000000000000000000000006001600160a01b0316826001600160a01b0316148015611f3d57507f00000000000000000000000000000000000000000000000000000000000000006001600160a01b03167f00000000000000000000000000000000000000000000000000000000000000006001600160a01b0316636e296e456040518163ffffffff1660e01b81526004016020604051808303816000875af1158015611f0e573d6000803e3d6000fd5b505050506040513d601f19601f82011682018060405250810190611f329190613ef6565b6001600160a01b0316145b92915050565b6001600160a01b0385166000908152600460209081526040808320600886901c8452909152902054600160ff84161b1615611f945760405163ed9bdd0760e01b8152600481018390526024016106c8565b6001600160a01b0385166000908152600460209081526040808320600886901c845290915281208054600160ff86161b179055612003611fd58887876135b3565b6040805161040081810190925290859060209083908390808284376000920191909152508791506136fe9050565b6001600160a01b03871660009081526001602081905260409091200154909150811461206a576001600160a01b0386166000908152600160208190526040918290200154905163286f87c960e21b81526004810191909152602481018290526044016106c8565b50505050505050565b604080516001600160a01b038416602482015260448082018490528251808303909101815260649091019091526020810180516001600160e01b031663095ea7b360e01b1790526120c48482613a4c565b611309576040516001600160a01b038481166024830152600060448301526120f991869182169063095ea7b3906064016116eb565b61130984826134b9565b602081015460009080820361213a57507f27ae5ba08d7291c96c8cbddcc148bf48a6d68c7974b94356f53754ef6171d75792915050565b600083600183161561215c578054600052600060205260406000209350612a0f565b60028316156121a15760018101546000527fad3228b676f7d3cd4284a5443f17f1962b36e491b30a40b2405849e597ba5fb56020526040600020935060019150612a0f565b60048316156121e65760028101546000527fb4c11951957c6f8f642c4af61cd6b24640fec6dc7fc607ee8206a99e92410d306020526040600020935060029150612a0f565b600883161561222b5760038101546000527f21ddb9a356815c3fac1026b6dec5df3124afbadb485c9ba5a3e3398a04b7ba856020526040600020935060039150612a0f565b60108316156122705760048101546000527fe58769b32a1beaf1ea27375a44095a0d1fb664ce2dd358e7fcbfb78c26a193446020526040600020935060049150612a0f565b60208316156122b55760058101546000527f0eb01ebfc9ed27500cd4dfc979272d1f0913cc9f66540d7e8005811109e1cf2d6020526040600020935060059150612a0f565b60408316156122fa5760068101546000527f887c22bd8750d34016ac3c66b5ff102dacdd73f6b014e710b51e8022af9a19686020526040600020935060069150612a0f565b608083161561233f5760078101546000527fffd70157e48063fc33c97a050f7f640233bf646cc98d9524c6b92bcf3ab56f836020526040600020935060079150612a0f565b6101008316156123855760088101546000527f9867cc5f7f196b93bae1e27e6320742445d290f2263827498b54fec539f756af6020526040600020935060089150612a0f565b6102008316156123cb5760098101546000527fcefad4e508c098b9a7e1d8feb19955fb02ba9675585078710969d3440f5054e06020526040600020935060099150612a0f565b61040083161561241157600a8101546000527ff9dc3e7fe016e050eff260334f18a5d4fe391d82092319f5964f2e2eb7c1c3a560205260406000209350600a9150612a0f565b61080083161561245757600b8101546000527ff8b13a49e282f609c317a833fb8d976d11517c571d1221a265d25af778ecf89260205260406000209350600b9150612a0f565b61100083161561249d57600c8101546000527f3490c6ceeb450aecdc82e28293031d10c7d73bf85e57bf041a97360aa2c5d99c60205260406000209350600c9150612a0f565b6120008316156124e357600d8101546000527fc1df82d9c4b87413eae2ef048f94b4d3554cea73d92b0f7af96e0271c691e2bb60205260406000209350600d9150612a0f565b61400083161561252957600e8101546000527f5c67add7c6caf302256adedf7ab114da0acfe870d449a3a489f781d659e8becc60205260406000209350600e9150612a0f565b61800083161561256f57600f8101546000527fda7bce9f4e8618b6bd2f4132ce798cdc7a60e7e1460a7299e3c6342a579626d260205260406000209350600f9150612a0f565b620100008316156125b65760108101546000527f2733e50f526ec2fa19a22b31e8ed50f23cd1fdf94c9154ed3a7609a2f1ff981f6020526040600020935060109150612a0f565b620200008316156125fd5760118101546000527fe1d3b5c807b281e4683cc6d6315cf95b9ade8641defcb32372f1c126e398ef7a6020526040600020935060119150612a0f565b620400008316156126445760128101546000527f5a2dce0a8a7f68bb74560f8f71837c2c2ebbcbf7fffb42ae1896f13f7c7479a06020526040600020935060129150612a0f565b6208000083161561268b5760138101546000527fb46a28b6f55540f89444f63de0378e3d121be09e06cc9ded1c20e65876d36aa06020526040600020935060139150612a0f565b621000008316156126d25760148101546000527fc65e9645644786b620e2dd2ad648ddfcbf4a7e5b1a3a4ecfe7f64667a3f0b7e26020526040600020935060149150612a0f565b622000008316156127195760158101546000527ff4418588ed35a2458cffeb39b93d26f18d2ab13bdce6aee58e7b99359ec2dfd96020526040600020935060159150612a0f565b624000008316156127605760168101546000527f5a9c16dc00d6ef18b7933a6f8dc65ccb55667138776f7dea101070dc8796e3776020526040600020935060169150612a0f565b628000008316156127a75760178101546000527f4df84f40ae0c8229d0d6069e5c8f39a7c299677a09d367fc7b05e3bc380ee6526020526040600020935060179150612a0f565b63010000008316156127ef5760188101546000527fcdc72595f74c7b1043d0e1ffbab734648c838dfb0527d971b602bc216c9619ef6020526040600020935060189150612a0f565b63020000008316156128375760198101546000527f0abf5ac974a1ed57f4050aa510dd9c74f508277b39d7973bb2dfccc5eeb0618d6020526040600020935060199150612a0f565b630400000083161561287f57601a8101546000527fb8cd74046ff337f0a7bf2c8e03e10f642c1886798d71806ab1e888d9e5ee87d060205260406000209350601a9150612a0f565b63080000008316156128c757601b8101546000527f838c5655cb21c6cb83313b5a631175dff4963772cce9108188b34ac87c81c41e60205260406000209350601b9150612a0f565b631000000083161561290f57601c8101546000527f662ee4dd2dd7b2bc707961b1e646c4047669dcb6584f0d8d770daf5d7e7deb2e60205260406000209350601c9150612a0f565b632000000083161561295757601d8101546000527f388ab20e2573d171a88108e79d820e98f26c0b84aa8b2f4aa4968dbb818ea32260205260406000209350601d9150612a0f565b634000000083161561299f57601e8101546000527f93237c50ba75ee485f4c22adf2f741400bdf8d6a9cc7df7ecae576221665d73560205260406000209350601e9150612a0f565b63800000008316156129e757601f8101546000527f8448818bb4ae4562849e949e17ac16e0be16688e156b5cf15e098c627c0056a960205260406000209350601f9150612a0f565b7f27ae5ba08d7291c96c8cbddcc148bf48a6d68c7974b94356f53754ef6171d7579350602091505b601e82116134b1576001821015612a6d57600283168015612a3b57600182015460005284602052612a64565b846000527fad3228b676f7d3cd4284a5443f17f1962b36e491b30a40b2405849e597ba5fb56020525b50604060002093505b6002821015612ac357600483168015612a9157600282015460005284602052612aba565b846000527fb4c11951957c6f8f642c4af61cd6b24640fec6dc7fc607ee8206a99e92410d306020525b50604060002093505b6003821015612b1957600883168015612ae757600382015460005284602052612b10565b846000527f21ddb9a356815c3fac1026b6dec5df3124afbadb485c9ba5a3e3398a04b7ba856020525b50604060002093505b6004821015612b6f57601083168015612b3d57600482015460005284602052612b66565b846000527fe58769b32a1beaf1ea27375a44095a0d1fb664ce2dd358e7fcbfb78c26a193446020525b50604060002093505b6005821015612bc557602083168015612b9357600582015460005284602052612bbc565b846000527f0eb01ebfc9ed27500cd4dfc979272d1f0913cc9f66540d7e8005811109e1cf2d6020525b50604060002093505b6006821015612c1b57604083168015612be957600682015460005284602052612c12565b846000527f887c22bd8750d34016ac3c66b5ff102dacdd73f6b014e710b51e8022af9a19686020525b50604060002093505b6007821015612c7157608083168015612c3f57600782015460005284602052612c68565b846000527fffd70157e48063fc33c97a050f7f640233bf646cc98d9524c6b92bcf3ab56f836020525b50604060002093505b6008821015612cc85761010083168015612c9657600882015460005284602052612cbf565b846000527f9867cc5f7f196b93bae1e27e6320742445d290f2263827498b54fec539f756af6020525b50604060002093505b6009821015612d1f5761020083168015612ced57600982015460005284602052612d16565b846000527fcefad4e508c098b9a7e1d8feb19955fb02ba9675585078710969d3440f5054e06020525b50604060002093505b600a821015612d765761040083168015612d4457600a82015460005284602052612d6d565b846000527ff9dc3e7fe016e050eff260334f18a5d4fe391d82092319f5964f2e2eb7c1c3a56020525b50604060002093505b600b821015612dcd5761080083168015612d9b57600b82015460005284602052612dc4565b846000527ff8b13a49e282f609c317a833fb8d976d11517c571d1221a265d25af778ecf8926020525b50604060002093505b600c821015612e245761100083168015612df257600c82015460005284602052612e1b565b846000527f3490c6ceeb450aecdc82e28293031d10c7d73bf85e57bf041a97360aa2c5d99c6020525b50604060002093505b600d821015612e7b5761200083168015612e4957600d82015460005284602052612e72565b846000527fc1df82d9c4b87413eae2ef048f94b4d3554cea73d92b0f7af96e0271c691e2bb6020525b50604060002093505b600e821015612ed25761400083168015612ea057600e82015460005284602052612ec9565b846000527f5c67add7c6caf302256adedf7ab114da0acfe870d449a3a489f781d659e8becc6020525b50604060002093505b600f821015612f295761800083168015612ef757600f82015460005284602052612f20565b846000527fda7bce9f4e8618b6bd2f4132ce798cdc7a60e7e1460a7299e3c6342a579626d26020525b50604060002093505b6010821015612f81576201000083168015612f4f57601082015460005284602052612f78565b846000527f2733e50f526ec2fa19a22b31e8ed50f23cd1fdf94c9154ed3a7609a2f1ff981f6020525b50604060002093505b6011821015612fd9576202000083168015612fa757601182015460005284602052612fd0565b846000527fe1d3b5c807b281e4683cc6d6315cf95b9ade8641defcb32372f1c126e398ef7a6020525b50604060002093505b6012821015613031576204000083168015612fff57601282015460005284602052613028565b846000527f5a2dce0a8a7f68bb74560f8f71837c2c2ebbcbf7fffb42ae1896f13f7c7479a06020525b50604060002093505b601382101561308957620800008316801561305757601382015460005284602052613080565b846000527fb46a28b6f55540f89444f63de0378e3d121be09e06cc9ded1c20e65876d36aa06020525b50604060002093505b60148210156130e15762100000831680156130af576014820154600052846020526130d8565b846000527fc65e9645644786b620e2dd2ad648ddfcbf4a7e5b1a3a4ecfe7f64667a3f0b7e26020525b50604060002093505b601582101561313957622000008316801561310757601582015460005284602052613130565b846000527ff4418588ed35a2458cffeb39b93d26f18d2ab13bdce6aee58e7b99359ec2dfd96020525b50604060002093505b601682101561319157624000008316801561315f57601682015460005284602052613188565b846000527f5a9c16dc00d6ef18b7933a6f8dc65ccb55667138776f7dea101070dc8796e3776020525b50604060002093505b60178210156131e95762800000831680156131b7576017820154600052846020526131e0565b846000527f4df84f40ae0c8229d0d6069e5c8f39a7c299677a09d367fc7b05e3bc380ee6526020525b50604060002093505b60188210156132425763010000008316801561321057601882015460005284602052613239565b846000527fcdc72595f74c7b1043d0e1ffbab734648c838dfb0527d971b602bc216c9619ef6020525b50604060002093505b601982101561329b5763020000008316801561326957601982015460005284602052613292565b846000527f0abf5ac974a1ed57f4050aa510dd9c74f508277b39d7973bb2dfccc5eeb0618d6020525b50604060002093505b601a8210156132f4576304000000831680156132c257601a820154600052846020526132eb565b846000527fb8cd74046ff337f0a7bf2c8e03e10f642c1886798d71806ab1e888d9e5ee87d06020525b50604060002093505b601b82101561334d5763080000008316801561331b57601b82015460005284602052613344565b846000527f838c5655cb21c6cb83313b5a631175dff4963772cce9108188b34ac87c81c41e6020525b50604060002093505b601c8210156133a65763100000008316801561337457601c8201546000528460205261339d565b846000527f662ee4dd2dd7b2bc707961b1e646c4047669dcb6584f0d8d770daf5d7e7deb2e6020525b50604060002093505b601d8210156133ff576320000000831680156133cd57601d820154600052846020526133f6565b846000527f388ab20e2573d171a88108e79d820e98f26c0b84aa8b2f4aa4968dbb818ea3226020525b50604060002093505b601e8210156134585763400000008316801561342657601e8201546000528460205261344f565b846000527f93237c50ba75ee485f4c22adf2f741400bdf8d6a9cc7df7ecae576221665d7356020525b50604060002093505b601f8210156134b15763800000008316801561347f57601f820154600052846020526134a8565b846000527f8448818bb4ae4562849e949e17ac16e0be16688e156b5cf15e098c627c0056a96020525b50604060002093505b505050919050565b60006134ce6001600160a01b03841683613af4565b905080516000141580156134f35750808060200190518101906134f19190613fba565b155b1561061257604051635274afe760e01b81526001600160a01b03841660048201526024016106c8565b600061eeed196001600160a01b0384160161354257506001600160a01b03811631611f3d565b6040516370a0823160e01b81526001600160a01b0383811660048301528416906370a0823190602401602060405180830381865afa158015613588573d6000803e3d6000fd5b505050506040513d601f19601f820116820180604052508101906135ac9190613fa1565b9392505050565b60408051602081018590529081018390526001600160a01b03821660608201526000906080016040516020818303038152906040528051906020012090509392505050565b613600613c35565b6000836020018051613611906141a1565b90819052905060016136256020600261429e565b61362f91906140a5565b81111561364f57604051638eab04bb60e01b815260040160405180910390fd5b60005b60208110156136e4578160011660010361368b5784518490826020811061367b5761367b613eba565b602002015250839150611f3d9050565b8451816020811061369e5761369e613eba565b6020020151846040516020016136be929190918252602082015260400190565b60408051601f1981840301815291905280516020909101209350600191821c9101613652565b50604051638eab04bb60e01b815260040160405180910390fd5b6020600582811b8216948552835194820394909452604060008181206002851615871b808503919091528386015190528181206004851615871b808503919091528286015190528181206008851615871b80850391909152606086015190528181206010851615871b8085039190915260808087015190915282822084861615881b8086039190915260a0870151905282822083861615881b8086039190915260c0870151905282822090851615871b8085039190915260e0860151905281812061010080861615881b80860392909252860151905281812061020080861615881b80860392909252610120870151909152828220610400861615881b808603919091526101408701519052828220610800861615881b808603919091526101608701519052828220611000861615881b808603919091526101808701519052828220612000861615881b808603919091526101a08701519052828220614000861615881b808603919091526101c08701519052828220618000861615881b808603919091526101e0870151905282822062010000861615881b8086039190915290860151905281812062020000851615871b80850391909152610220860151905281812062040000851615871b80850391909152610240860151905281812062080000851615871b80850391909152610260860151905281812062100000851615871b80850391909152610280860151905281812062200000851615871b808503919091526102a0860151905281812062400000851615871b808503919091526102c0860151905281812062800000851615871b808503919091526102e086015190528181206301000000851615871b8085039190915261030086015190528181206302000000851615871b8085039190915261032086015190528181206304000000851615871b8085039190915261034086015190528181206308000000851615871b8085039190915261036086015190528181206310000000851615871b8085039190915261038086015190528181206320000000851615871b808503919091526103a086015190528181206340000000851615871b808503919091526103c0860151905281812063800000009094161590951b91829003929092526103e090920151909152902090565b6000806000846001600160a01b031684604051613a6991906142aa565b6000604051808303816000865af19150503d8060008114613aa6576040519150601f19603f3d011682016040523d82523d6000602084013e613aab565b606091505b5091509150818015613ad5575080511580613ad5575080806020019051810190613ad59190613fba565b8015613aeb57506000856001600160a01b03163b115b95945050505050565b60606135ac8383600084600080856001600160a01b03168486604051613b1a91906142aa565b60006040518083038185875af1925050503d8060008114613b57576040519150601f19603f3d011682016040523d82523d6000602084013e613b5c565b606091505b5091509150613b6c868383613b76565b9695505050505050565b606082613b8b57613b8682613bd2565b6135ac565b8151158015613ba257506001600160a01b0384163b155b15613bcb57604051639996b31560e01b81526001600160a01b03851660048201526024016106c8565b50806135ac565b805115613be25780518082602001fd5b604051630a12f52160e11b815260040160405180910390fd5b8260208101928215613c29579160200282015b82811115613c29578251825591602001919060010190613c0e565b50610b7d929150613c55565b6040518060400160405280613c48613c6a565b8152602001600081525090565b5b80821115610b7d5760008155600101613c56565b6040518061040001604052806020906020820280368337509192915050565b60008060208385031215613c9c57600080fd5b82356001600160401b0380821115613cb357600080fd5b818501915085601f830112613cc757600080fd5b813581811115613cd657600080fd5b8660208260071b8501011115613ceb57600080fd5b60209290920196919550909350505050565b600060808284031215613d0f57600080fd5b50919050565b600060808284031215613d2757600080fd5b6135ac8383613cfd565b6001600160a01b0381168114610bf757600080fd5b60008060008060808587031215613d5c57600080fd5b843593506020850135613d6e81613d31565b9250604085013591506060850135613d8581613d31565b939692955090935050565b600060208284031215613da257600080fd5b81356135ac81613d31565b6001600160401b038416815260208082018490528251610460830191906000604085015b83821015613def578251815291830191600191909101908301613dd1565b505050506020830151610440830152949350505050565b60006104a08284031215613d0f57600080fd5b60008060208385031215613e2c57600080fd5b82356001600160401b0380821115613e4357600080fd5b818501915085601f830112613e5757600080fd5b813581811115613e6657600080fd5b8660206104a083028501011115613ceb57600080fd5b634e487b7160e01b600052602160045260246000fd5b6020810160028310613eb457634e487b7160e01b600052602160045260246000fd5b91905290565b634e487b7160e01b600052603260045260246000fd5b600060208284031215613ee257600080fd5b813563ffffffff811681146135ac57600080fd5b600060208284031215613f0857600080fd5b81516135ac81613d31565b634e487b7160e01b600052601160045260246000fd5b80820180821115611f3d57611f3d613f13565b6001600160401b0381168114610bf757600080fd5b600060208284031215613f6357600080fd5b81356135ac81613f3c565b8135613f7981613f3c565b6001600160401b0381166001600160401b031983541617825550602082013560018201555050565b600060208284031215613fb357600080fd5b5051919050565b600060208284031215613fcc57600080fd5b815180151581146135ac57600080fd5b60006001600160401b03808316818103613ff857613ff8613f13565b6001019392505050565b60005b8381101561401d578181015183820152602001614005565b50506000910152565b6000815180845261403e816020860160208601614002565b601f01601f19169290920160200192915050565b6001600160a01b0387811682528681166020830152851660408201526060810184905263ffffffff8316608082015260c060a0820181905260009061409990830184614026565b98975050505050505050565b81810381811115611f3d57611f3d613f13565b6001600160a01b03841681526060602082018190526000906140dc90830185614026565b905063ffffffff83166040830152949350505050565b600060018060a01b03808a168352886020840152808816604084015286606084015285608084015280851660a08401525060e060c083015261413760e0830184614026565b9998505050505050505050565b634e487b7160e01b600052600160045260246000fd5b86815260018060a01b0386166020820152846040820152831515606082015260c06080820152600061418f60c0830185614026565b82810360a08401526141378185614026565b6000600182016141b3576141b3613f13565b5060010190565b600181815b808511156141f55781600019048211156141db576141db613f13565b808516156141e857918102915b93841c93908002906141bf565b509250929050565b60008261420c57506001611f3d565b8161421957506000611f3d565b816001811461422f576002811461423957614255565b6001915050611f3d565b60ff84111561424a5761424a613f13565b50506001821b611f3d565b5060208310610133831016604e8410600b8410161715614278575081810a611f3d565b61428283836141ba565b806000190482111561429657614296613f13565b029392505050565b60006135ac83836141fd565b600082516142bc818460208701614002565b919091019291505056fea2646970667358221220be2efd0df535ef90546142bcd6a78f5795d24dd95f031c03687e396e983b39b564736f6c63430008170033a2646970667358221220fcf505c31fb4598b659a68597bf033eda643db93f1e8e5934341d52eae35e8f164736f6c63430008170033",
			"devdoc": {
				"kind": "dev",
				"methods": {
					"createForSender(uint256,bytes32)": {
						"details": "Uses the sender address as the salt, which means the same sender must call this function on both chains.",
						"params": {
							"localProjectId": "The project's ID on the local chain.",
							"salt": "The salt to use for the `create2` address."
						},
						"returns": {
							"sucker": "The address of the new sucker."
						}
					}
				},
				"version": 1
			},
			"userdoc": {
				"kind": "user",
				"methods": {
					"BRIDGE()": {
						"notice": "The bridge used to bridge tokens between the local and remote chain."
					},
					"MESSENGER()": {
						"notice": "The messenger used to send messages between the local and remote sucker."
					},
					"PERMISSIONS()": {
						"notice": "A contract storing permissions."
					},
					"configureLayerSpecific(address,address)": {
						"notice": "handles some layer specific configuration that can't be done in the constructor otherwise deployment addresses would change.messenger the OPMesssenger on this layer.bridge the OPStandardBridge on this layer."
					},
					"createForSender(uint256,bytes32)": {
						"notice": "Create a new `BPSucker` for a specific project."
					},
					"isSucker(address)": {
						"notice": "A mapping of suckers deployed by this contract."
					}
				},
				"version": 1
			},
			"gitCommit": "7d1e170198d655b28588d06b0c8c3cbb79082b17",
			"sourceName": "src/deployers/BPBaseSuckerDeployer.sol",
			"chainId": "84532",
			"linkReferences": {},
			"deployedLinkReferences": {}
		},
		{
			"_format": "sphinx-sol-ct-artifact-1",
			"merkleRoot": "0x6cdbb283dddfa646675de2a310bad929f3d4edc1b525356857a4834545b85eeb",
			"contractName": "BPBaseSuckerDeployer",
			"address": "0xF98b30c65f66700D972b51be8FB917e39028ae6D",
			"abi": [
				{
					"type": "constructor",
					"inputs": [
						{
							"name": "directory",
							"type": "address",
							"internalType": "contract IJBDirectory"
						},
						{
							"name": "tokens",
							"type": "address",
							"internalType": "contract IJBTokens"
						},
						{
							"name": "permissions",
							"type": "address",
							"internalType": "contract IJBPermissions"
						},
						{
							"name": "_configurator",
							"type": "address",
							"internalType": "address"
						}
					],
					"stateMutability": "nonpayable"
				},
				{
					"type": "function",
					"name": "BRIDGE",
					"inputs": [],
					"outputs": [
						{
							"name": "",
							"type": "address",
							"internalType": "contract OPStandardBridge"
						}
					],
					"stateMutability": "view"
				},
				{
					"type": "function",
					"name": "MESSENGER",
					"inputs": [],
					"outputs": [
						{
							"name": "",
							"type": "address",
							"internalType": "contract OPMessenger"
						}
					],
					"stateMutability": "view"
				},
				{
					"type": "function",
					"name": "PERMISSIONS",
					"inputs": [],
					"outputs": [
						{
							"name": "",
							"type": "address",
							"internalType": "contract IJBPermissions"
						}
					],
					"stateMutability": "view"
				},
				{
					"type": "function",
					"name": "TEMP_ID_STORE",
					"inputs": [],
					"outputs": [
						{
							"name": "",
							"type": "uint256",
							"internalType": "uint256"
						}
					],
					"stateMutability": "view"
				},
				{
					"type": "function",
					"name": "configureLayerSpecific",
					"inputs": [
						{
							"name": "messenger",
							"type": "address",
							"internalType": "contract OPMessenger"
						},
						{
							"name": "bridge",
							"type": "address",
							"internalType": "contract OPStandardBridge"
						}
					],
					"outputs": [],
					"stateMutability": "nonpayable"
				},
				{
					"type": "function",
					"name": "createForSender",
					"inputs": [
						{
							"name": "localProjectId",
							"type": "uint256",
							"internalType": "uint256"
						},
						{
							"name": "salt",
							"type": "bytes32",
							"internalType": "bytes32"
						}
					],
					"outputs": [
						{
							"name": "sucker",
							"type": "address",
							"internalType": "contract IBPSucker"
						}
					],
					"stateMutability": "nonpayable"
				},
				{
					"type": "function",
					"name": "isSucker",
					"inputs": [
						{
							"name": "",
							"type": "address",
							"internalType": "address"
						}
					],
					"outputs": [
						{
							"name": "",
							"type": "bool",
							"internalType": "bool"
						}
					],
					"stateMutability": "view"
				},
				{
					"type": "error",
					"name": "ALREADY_CONFIGURED",
					"inputs": []
				},
				{
					"type": "error",
					"name": "ONLY_SUCKERS",
					"inputs": []
				},
				{
					"type": "error",
					"name": "UNAUTHORIZED",
					"inputs": []
				}
			],
			"solcInputHash": "647076f1c719fbf4dda0cd87a3eed04c",
			"receipt": {
				"blockHash": "0x0e5cf9f1c1eead3dc418d90cd55d2c7b740de350f1116edb40595e9be7b9885d",
				"blockNumber": 9156724,
				"contractAddress": null,
				"cumulativeGasUsed": "6975167",
				"from": "0xC034550B542b83BA1De312b21d1C94a9a52B1595",
				"gasPrice": "1000286",
				"gasUsed": "5866811",
				"hash": "0x2a7cda3cdb8bf9e4e883233aa62194b285a4d7a919658964629acbba4d05f802",
				"index": 3,
				"logs": [
					{
						"address": "0xB5E96127D417b1B3ef8438496a38A143167209c7",
						"blockHash": "0x0e5cf9f1c1eead3dc418d90cd55d2c7b740de350f1116edb40595e9be7b9885d",
						"blockNumber": 9156724,
						"data": "0x0000000000000000000000000000000000000000000000000000000000000000",
						"index": 0,
						"topics": [
							"0x572f161235911da04685a68c06adf558fc7e4a36909dca394650e0adc19cc93d",
							"0x000000000000000000000000c034550b542b83ba1de312b21d1c94a9a52b1595",
							"0x0000000000000000000000002251543da4a5ef946705b931c7e8b74756764a18",
							"0x11ac59736a816749d835c45faee5c8819a760d4b864eb58dbcab41aa729d5ee8"
						],
						"transactionHash": "0x2a7cda3cdb8bf9e4e883233aa62194b285a4d7a919658964629acbba4d05f802",
						"transactionIndex": 3
					},
					{
						"address": "0x6a65B75A3f37C6702A117Fb87B6bCaC62657d216",
						"blockHash": "0x0e5cf9f1c1eead3dc418d90cd55d2c7b740de350f1116edb40595e9be7b9885d",
						"blockNumber": 9156724,
						"data": "0x",
						"index": 1,
						"topics": [
							"0x6895c13664aa4f67288b25d7a21d7aaa34916e355fb9b6fae0a139a9085becb8",
							"0x0000000000000000000000002251543da4a5ef946705b931c7e8b74756764a18"
						],
						"transactionHash": "0x2a7cda3cdb8bf9e4e883233aa62194b285a4d7a919658964629acbba4d05f802",
						"transactionIndex": 3
					},
					{
						"address": "0x2251543Da4A5eF946705B931C7e8b74756764a18",
						"blockHash": "0x0e5cf9f1c1eead3dc418d90cd55d2c7b740de350f1116edb40595e9be7b9885d",
						"blockNumber": 9156724,
						"data": "0x0000000000000000000000000000000000000000000000000000000000000001",
						"index": 2,
						"topics": [
							"0xa65fb05c5808f5f389d72edeaf719ce38f4cc55c1f69ca3cbfb31c21501caa07",
							"0x6cdbb283dddfa646675de2a310bad929f3d4edc1b525356857a4834545b85eeb"
						],
						"transactionHash": "0x2a7cda3cdb8bf9e4e883233aa62194b285a4d7a919658964629acbba4d05f802",
						"transactionIndex": 3
					},
					{
						"address": "0x6a65B75A3f37C6702A117Fb87B6bCaC62657d216",
						"blockHash": "0x0e5cf9f1c1eead3dc418d90cd55d2c7b740de350f1116edb40595e9be7b9885d",
						"blockNumber": 9156724,
						"data": "0x",
						"index": 3,
						"topics": [
							"0x6895c13664aa4f67288b25d7a21d7aaa34916e355fb9b6fae0a139a9085becb8",
							"0x0000000000000000000000002251543da4a5ef946705b931c7e8b74756764a18"
						],
						"transactionHash": "0x2a7cda3cdb8bf9e4e883233aa62194b285a4d7a919658964629acbba4d05f802",
						"transactionIndex": 3
					},
					{
						"address": "0x2251543Da4A5eF946705B931C7e8b74756764a18",
						"blockHash": "0x0e5cf9f1c1eead3dc418d90cd55d2c7b740de350f1116edb40595e9be7b9885d",
						"blockNumber": 9156724,
						"data": "0x0000000000000000000000000000000000000000000000000000000000000002",
						"index": 4,
						"topics": [
							"0xa65fb05c5808f5f389d72edeaf719ce38f4cc55c1f69ca3cbfb31c21501caa07",
							"0x6cdbb283dddfa646675de2a310bad929f3d4edc1b525356857a4834545b85eeb"
						],
						"transactionHash": "0x2a7cda3cdb8bf9e4e883233aa62194b285a4d7a919658964629acbba4d05f802",
						"transactionIndex": 3
					},
					{
						"address": "0x6a65B75A3f37C6702A117Fb87B6bCaC62657d216",
						"blockHash": "0x0e5cf9f1c1eead3dc418d90cd55d2c7b740de350f1116edb40595e9be7b9885d",
						"blockNumber": 9156724,
						"data": "0x",
						"index": 5,
						"topics": [
							"0x6895c13664aa4f67288b25d7a21d7aaa34916e355fb9b6fae0a139a9085becb8",
							"0x0000000000000000000000002251543da4a5ef946705b931c7e8b74756764a18"
						],
						"transactionHash": "0x2a7cda3cdb8bf9e4e883233aa62194b285a4d7a919658964629acbba4d05f802",
						"transactionIndex": 3
					},
					{
						"address": "0x2251543Da4A5eF946705B931C7e8b74756764a18",
						"blockHash": "0x0e5cf9f1c1eead3dc418d90cd55d2c7b740de350f1116edb40595e9be7b9885d",
						"blockNumber": 9156724,
						"data": "0x0000000000000000000000000000000000000000000000000000000000000003",
						"index": 6,
						"topics": [
							"0xa65fb05c5808f5f389d72edeaf719ce38f4cc55c1f69ca3cbfb31c21501caa07",
							"0x6cdbb283dddfa646675de2a310bad929f3d4edc1b525356857a4834545b85eeb"
						],
						"transactionHash": "0x2a7cda3cdb8bf9e4e883233aa62194b285a4d7a919658964629acbba4d05f802",
						"transactionIndex": 3
					},
					{
						"address": "0x3C6b3494C36511F9013dcb48862c16D9d1adfaC9",
						"blockHash": "0x0e5cf9f1c1eead3dc418d90cd55d2c7b740de350f1116edb40595e9be7b9885d",
						"blockNumber": 9156724,
						"data": "0x000000000000000000000000f98b30c65f66700d972b51be8fb917e39028ae6d",
						"index": 7,
						"topics": [
							"0xf6e6facda29906a01d337146a9b928ac09b423901f28e0e001d43550448b370b"
						],
						"transactionHash": "0x2a7cda3cdb8bf9e4e883233aa62194b285a4d7a919658964629acbba4d05f802",
						"transactionIndex": 3
					},
					{
						"address": "0x6a65B75A3f37C6702A117Fb87B6bCaC62657d216",
						"blockHash": "0x0e5cf9f1c1eead3dc418d90cd55d2c7b740de350f1116edb40595e9be7b9885d",
						"blockNumber": 9156724,
						"data": "0x",
						"index": 8,
						"topics": [
							"0x6895c13664aa4f67288b25d7a21d7aaa34916e355fb9b6fae0a139a9085becb8",
							"0x0000000000000000000000002251543da4a5ef946705b931c7e8b74756764a18"
						],
						"transactionHash": "0x2a7cda3cdb8bf9e4e883233aa62194b285a4d7a919658964629acbba4d05f802",
						"transactionIndex": 3
					},
					{
						"address": "0x2251543Da4A5eF946705B931C7e8b74756764a18",
						"blockHash": "0x0e5cf9f1c1eead3dc418d90cd55d2c7b740de350f1116edb40595e9be7b9885d",
						"blockNumber": 9156724,
						"data": "0x0000000000000000000000000000000000000000000000000000000000000004",
						"index": 9,
						"topics": [
							"0xa65fb05c5808f5f389d72edeaf719ce38f4cc55c1f69ca3cbfb31c21501caa07",
							"0x6cdbb283dddfa646675de2a310bad929f3d4edc1b525356857a4834545b85eeb"
						],
						"transactionHash": "0x2a7cda3cdb8bf9e4e883233aa62194b285a4d7a919658964629acbba4d05f802",
						"transactionIndex": 3
					},
					{
						"address": "0x3C6b3494C36511F9013dcb48862c16D9d1adfaC9",
						"blockHash": "0x0e5cf9f1c1eead3dc418d90cd55d2c7b740de350f1116edb40595e9be7b9885d",
						"blockNumber": 9156724,
						"data": "0x",
						"index": 10,
						"topics": [
							"0x8be0079c531659141344cd1fd0a4f28419497f9722a3daafe3b4186f6b6457e0",
							"0x0000000000000000000000006a65b75a3f37c6702a117fb87b6bcac62657d216",
							"0x00000000000000000000000081e3b9447f99aac78810a13075bdbb3d347f9515"
						],
						"transactionHash": "0x2a7cda3cdb8bf9e4e883233aa62194b285a4d7a919658964629acbba4d05f802",
						"transactionIndex": 3
					},
					{
						"address": "0x6a65B75A3f37C6702A117Fb87B6bCaC62657d216",
						"blockHash": "0x0e5cf9f1c1eead3dc418d90cd55d2c7b740de350f1116edb40595e9be7b9885d",
						"blockNumber": 9156724,
						"data": "0x",
						"index": 11,
						"topics": [
							"0x6895c13664aa4f67288b25d7a21d7aaa34916e355fb9b6fae0a139a9085becb8",
							"0x0000000000000000000000002251543da4a5ef946705b931c7e8b74756764a18"
						],
						"transactionHash": "0x2a7cda3cdb8bf9e4e883233aa62194b285a4d7a919658964629acbba4d05f802",
						"transactionIndex": 3
					},
					{
						"address": "0x2251543Da4A5eF946705B931C7e8b74756764a18",
						"blockHash": "0x0e5cf9f1c1eead3dc418d90cd55d2c7b740de350f1116edb40595e9be7b9885d",
						"blockNumber": 9156724,
						"data": "0x0000000000000000000000000000000000000000000000000000000000000005",
						"index": 12,
						"topics": [
							"0xa65fb05c5808f5f389d72edeaf719ce38f4cc55c1f69ca3cbfb31c21501caa07",
							"0x6cdbb283dddfa646675de2a310bad929f3d4edc1b525356857a4834545b85eeb"
						],
						"transactionHash": "0x2a7cda3cdb8bf9e4e883233aa62194b285a4d7a919658964629acbba4d05f802",
						"transactionIndex": 3
					},
					{
						"address": "0x2251543Da4A5eF946705B931C7e8b74756764a18",
						"blockHash": "0x0e5cf9f1c1eead3dc418d90cd55d2c7b740de350f1116edb40595e9be7b9885d",
						"blockNumber": 9156724,
						"data": "0x",
						"index": 13,
						"topics": [
							"0x4383d976757d67ca920616be0b6430a681ea9d3dcce8d6d61d4603ca4a9bff63",
							"0x6cdbb283dddfa646675de2a310bad929f3d4edc1b525356857a4834545b85eeb"
						],
						"transactionHash": "0x2a7cda3cdb8bf9e4e883233aa62194b285a4d7a919658964629acbba4d05f802",
						"transactionIndex": 3
					}
				],
				"logsBloom": "0x000000000800100020000000000c000000020000404800000080000000400000000000000000000000000000004001000004000000000000000000000000002000000000000020000000000000000000000140000000000000000400000800000000000000000000000000000000000020800000000000000000000000000040000000000000000000010000000000000000000000200000000000000400000000c000800010000000001000000000020208000000000000000020000004000000000000000000000008040008000000800000000002001042000000000000000000000000000008000000000000000200000000000000000000000208000000",
				"status": 1,
				"to": "0xB5E96127D417b1B3ef8438496a38A143167209c7"
			},
			"metadata": "{\"compiler\":{\"version\":\"0.8.23+commit.f704f362\"},\"language\":\"Solidity\",\"output\":{\"abi\":[{\"inputs\":[{\"internalType\":\"contract IJBDirectory\",\"name\":\"directory\",\"type\":\"address\"},{\"internalType\":\"contract IJBTokens\",\"name\":\"tokens\",\"type\":\"address\"},{\"internalType\":\"contract IJBPermissions\",\"name\":\"permissions\",\"type\":\"address\"},{\"internalType\":\"address\",\"name\":\"_configurator\",\"type\":\"address\"}],\"stateMutability\":\"nonpayable\",\"type\":\"constructor\"},{\"inputs\":[],\"type\":\"error\",\"name\":\"ALREADY_CONFIGURED\"},{\"inputs\":[],\"type\":\"error\",\"name\":\"ONLY_SUCKERS\"},{\"inputs\":[],\"type\":\"error\",\"name\":\"UNAUTHORIZED\"},{\"inputs\":[],\"stateMutability\":\"view\",\"type\":\"function\",\"name\":\"BRIDGE\",\"outputs\":[{\"internalType\":\"contract OPStandardBridge\",\"name\":\"\",\"type\":\"address\"}]},{\"inputs\":[],\"stateMutability\":\"view\",\"type\":\"function\",\"name\":\"MESSENGER\",\"outputs\":[{\"internalType\":\"contract OPMessenger\",\"name\":\"\",\"type\":\"address\"}]},{\"inputs\":[],\"stateMutability\":\"view\",\"type\":\"function\",\"name\":\"PERMISSIONS\",\"outputs\":[{\"internalType\":\"contract IJBPermissions\",\"name\":\"\",\"type\":\"address\"}]},{\"inputs\":[],\"stateMutability\":\"view\",\"type\":\"function\",\"name\":\"TEMP_ID_STORE\",\"outputs\":[{\"internalType\":\"uint256\",\"name\":\"\",\"type\":\"uint256\"}]},{\"inputs\":[{\"internalType\":\"contract OPMessenger\",\"name\":\"messenger\",\"type\":\"address\"},{\"internalType\":\"contract OPStandardBridge\",\"name\":\"bridge\",\"type\":\"address\"}],\"stateMutability\":\"nonpayable\",\"type\":\"function\",\"name\":\"configureLayerSpecific\"},{\"inputs\":[{\"internalType\":\"uint256\",\"name\":\"localProjectId\",\"type\":\"uint256\"},{\"internalType\":\"bytes32\",\"name\":\"salt\",\"type\":\"bytes32\"}],\"stateMutability\":\"nonpayable\",\"type\":\"function\",\"name\":\"createForSender\",\"outputs\":[{\"internalType\":\"contract IBPSucker\",\"name\":\"sucker\",\"type\":\"address\"}]},{\"inputs\":[{\"internalType\":\"address\",\"name\":\"\",\"type\":\"address\"}],\"stateMutability\":\"view\",\"type\":\"function\",\"name\":\"isSucker\",\"outputs\":[{\"internalType\":\"bool\",\"name\":\"\",\"type\":\"bool\"}]}],\"devdoc\":{\"kind\":\"dev\",\"methods\":{\"createForSender(uint256,bytes32)\":{\"details\":\"Uses the sender address as the salt, which means the same sender must call this function on both chains.\",\"params\":{\"localProjectId\":\"The project's ID on the local chain.\",\"salt\":\"The salt to use for the `create2` address.\"},\"returns\":{\"sucker\":\"The address of the new sucker.\"}}},\"version\":1},\"userdoc\":{\"kind\":\"user\",\"methods\":{\"BRIDGE()\":{\"notice\":\"The bridge used to bridge tokens between the local and remote chain.\"},\"MESSENGER()\":{\"notice\":\"The messenger used to send messages between the local and remote sucker.\"},\"PERMISSIONS()\":{\"notice\":\"A contract storing permissions.\"},\"TEMP_ID_STORE()\":{\"notice\":\"A temporary storage slot used by suckers to maintain deterministic deploys.\"},\"configureLayerSpecific(address,address)\":{\"notice\":\"handles some layer specific configuration that can't be done in the constructor otherwise deployment addresses would change.messenger the OPMesssenger on this layer.bridge the OPStandardBridge on this layer.\"},\"createForSender(uint256,bytes32)\":{\"notice\":\"Create a new `BPSucker` for a specific project.\"},\"isSucker(address)\":{\"notice\":\"A mapping of suckers deployed by this contract.\"}},\"version\":1}},\"settings\":{\"remappings\":[\"@arbitrum/=node_modules/@arbitrum/\",\"@bananapus/=node_modules/@bananapus/\",\"@chainlink/=node_modules/@chainlink/\",\"@eth-optimism/=node_modules/@eth-optimism/\",\"@offchainlabs/=node_modules/@offchainlabs/\",\"@openzeppelin/=node_modules/@openzeppelin/\",\"@prb/=node_modules/@prb/\",\"@scroll-tech/=node_modules/@scroll-tech/\",\"@sphinx-labs/contracts/=node_modules/@sphinx-labs/contracts/contracts/foundry/\",\"@uniswap/=node_modules/@uniswap/\",\"ds-test/=lib/forge-std/lib/ds-test/src/\",\"forge-std/=lib/forge-std/src/\",\"hardhat/=node_modules/hardhat/\",\"solmate/=node_modules/solmate/\",\"sphinx/=lib/sphinx/packages/contracts/contracts/forge-std/src/\"],\"optimizer\":{\"enabled\":true,\"runs\":200},\"metadata\":{\"bytecodeHash\":\"ipfs\"},\"compilationTarget\":{\"src/deployers/BPBaseSuckerDeployer.sol\":\"BPBaseSuckerDeployer\"},\"evmVersion\":\"paris\",\"libraries\":{}},\"sources\":{\"node_modules/@bananapus/core/src/abstract/JBPermissioned.sol\":{\"keccak256\":\"0xe08c8a7eeac9d1c7c2e0db6d5b98d1af09889300835a3d47d9f29319fecce703\",\"urls\":[\"bzz-raw://42645cf52bcc45053ef650790916faed5d0a74cecef336b217433fdd2c5c4166\",\"dweb:/ipfs/QmdMmxG1tSGucQwz4LYbVnuj7HU23YvqLH6xfrNWv5Bmus\"],\"license\":\"MIT\"},\"node_modules/@bananapus/core/src/enums/JBApprovalStatus.sol\":{\"keccak256\":\"0x61c69b6bac7d24b566d87cda23a77e4ca9cdb87200b106aba8534cb9a0973e33\",\"urls\":[\"bzz-raw://6a9ca7249de76f77a8252eefe6bd1b63d47952f25a2acfa2c8db967cdff4470c\",\"dweb:/ipfs/QmaxSxptRQNj8bNy96EreENmrnRWdKmhyihBcxyWzBX5BN\"],\"license\":\"MIT\"},\"node_modules/@bananapus/core/src/interfaces/IJBController.sol\":{\"keccak256\":\"0xe0b84058192f89e461c4b604388aa11a2f92f0f9969fb70fb3c18706d6f3e16b\",\"urls\":[\"bzz-raw://984fdcff63a17ccab65ff7723a628967e40965fcb4d47909cf8e314e8f044576\",\"dweb:/ipfs/QmaaHZWuaaH3oYxCDrip1rr4u4H1XtR3RcwwKAE73GAqkd\"],\"license\":\"MIT\"},\"node_modules/@bananapus/core/src/interfaces/IJBDirectory.sol\":{\"keccak256\":\"0x9cc380844aef60078ee47a61861e55a29c4a8c947efd556ebd36e6909f7b9d62\",\"urls\":[\"bzz-raw://9f5190ec8b6683d9781ee6e9eedcc91294753242748875d4a06349077e4cbaaf\",\"dweb:/ipfs/QmTQrPuXT9TCA4txwrperMeXSGvGxP8iokUK47f62F388i\"],\"license\":\"MIT\"},\"node_modules/@bananapus/core/src/interfaces/IJBDirectoryAccessControl.sol\":{\"keccak256\":\"0x1e67f56849320a46f834aaa9bd62b170ff8ada7b224b4a81136193740fa0be4d\",\"urls\":[\"bzz-raw://ea8fbcec44abfe49d137bcae129b67e5479d6b17879301f88534c8a7fab00be4\",\"dweb:/ipfs/QmT6wrtYX4GRpffHUzupNwYebJ1dqkkKZLEewWsoyunsqw\"],\"license\":\"MIT\"},\"node_modules/@bananapus/core/src/interfaces/IJBFundAccessLimits.sol\":{\"keccak256\":\"0xf5fd6bdd723b60d490ccbe22cdf1cfe43663d23e6ee48badcd1b71e3282cb16b\",\"urls\":[\"bzz-raw://fe692f0b843ea5fccdfcb68f4ec16e1c0add945bb74b303c9866342be0e31fbf\",\"dweb:/ipfs/QmSRmzpgp3DhNEhNDiLsSu7yEiTeywbzEFbwyGyDazjgKt\"],\"license\":\"MIT\"},\"node_modules/@bananapus/core/src/interfaces/IJBMigratable.sol\":{\"keccak256\":\"0xd69bd5aba01a68d82c303ef3adde47532abcace030a94296c3ea6988b401789c\",\"urls\":[\"bzz-raw://88f11a1c89899327746beba4fc830abf3ac2eb9c152c778e884a6eed6564971f\",\"dweb:/ipfs/QmTpKhSTVewpz7VyKcz6BJwH2LFKMwT7Qi5HNWmjEjwsdK\"],\"license\":\"MIT\"},\"node_modules/@bananapus/core/src/interfaces/IJBPayHook.sol\":{\"keccak256\":\"0x9438866782c652c2942f4d114e35f393cd3c8b0334abce8387eed90bca35e8b2\",\"urls\":[\"bzz-raw://cfd99daf57213f92325aad7d7d16e98476d38e870470e95ba01e3ae3cdecc95d\",\"dweb:/ipfs/QmUKKAVGf7ki8BHksr99tFcRW8APveeB5tNH63ctTbbCW8\"],\"license\":\"MIT\"},\"node_modules/@bananapus/core/src/interfaces/IJBPermissioned.sol\":{\"keccak256\":\"0x5b038d4dee116584e88b230920e56d48e135053e3f7e5642eaea14a775c1dad7\",\"urls\":[\"bzz-raw://19e43102f349fd4a1da1c0943ffb8f2950007fe4bb4bb7e8f74fc142575d091b\",\"dweb:/ipfs/QmXHAt4KzDTdDZgDDefEXH2WKi7NcfkJb9R7nxW5uDqsNp\"],\"license\":\"MIT\"},\"node_modules/@bananapus/core/src/interfaces/IJBPermissions.sol\":{\"keccak256\":\"0x18870e500edf0fbadc353e273a5574701fb80466376b908c65e7cc3f11044d4d\",\"urls\":[\"bzz-raw://352a47c45853aec80e7acf0d286ade3106eb4cb456776b28a3c2f3f1091bed90\",\"dweb:/ipfs/QmQeYd3YbudYZy2hfbfht9kwhxhw4tuuLKMEYy9UY6dcSy\"],\"license\":\"MIT\"},\"node_modules/@bananapus/core/src/interfaces/IJBPriceFeed.sol\":{\"keccak256\":\"0x4bd84c0f1a5d4729ed709bcddd43f4c50ec4a165ece79780af8dce482ed07d4a\",\"urls\":[\"bzz-raw://62bac4bfb6982fb002f620c77e5c445e62d50241a5aa64a07e51d929f5a42180\",\"dweb:/ipfs/QmWgJUDreVY2BuMX38a1iUUR5kNbMwGnKG3VvurB7oZtuM\"],\"license\":\"MIT\"},\"node_modules/@bananapus/core/src/interfaces/IJBPrices.sol\":{\"keccak256\":\"0x99525f31440b955742dce84ba57de9fc1221139b5367c1f834723bef9e13e6e1\",\"urls\":[\"bzz-raw://6fa03f0cd4ad87dd7cbae7bf7f54463450874291773c8f70f2c31ef2cae62bb0\",\"dweb:/ipfs/QmSPajPV5ismteJuB6Spzm9VmhTj2iS3eVrfpJC1Zuzg8n\"],\"license\":\"MIT\"},\"node_modules/@bananapus/core/src/interfaces/IJBProjectUriRegistry.sol\":{\"keccak256\":\"0x2799475228987e4f8334ac33d3935f759c9b8133db7383b4f622dde7a5dc0502\",\"urls\":[\"bzz-raw://d751731740f45df74eea48c9667e847ee2cddb2980ab4939c86bd17e6c6ed89b\",\"dweb:/ipfs/QmXW8SLTuhdUpfn7pRpdsYdcyuim8RTyagU37ULcj5UZhT\"],\"license\":\"MIT\"},\"node_modules/@bananapus/core/src/interfaces/IJBProjects.sol\":{\"keccak256\":\"0x735c2fb8f1fa827f054ee77f7a0ae4b312656217acb75b624d2c8fd9dc40151b\",\"urls\":[\"bzz-raw://ee7fc92299a8633a80693ae63ab494dcd125f1789487a54a39dc0e5696e5996f\",\"dweb:/ipfs/QmX7YJD4pS2XhgQb7p3JbBAXynT7YGPXcZe92BiWWRrsCL\"],\"license\":\"MIT\"},\"node_modules/@bananapus/core/src/interfaces/IJBRedeemHook.sol\":{\"keccak256\":\"0x8ab46fcd7d0e739661eb76056ad93ff99106f38420ef0b4eb97fa9f4bb71a68a\",\"urls\":[\"bzz-raw://0ef96fcb7ad26281d444d8e0c677b25114fdd63b1c172d477e030dce8ba53b62\",\"dweb:/ipfs/Qmcx1jRQuwU4pZFuLxsSsx4oMbRaDfktHrPnXextgbWc5m\"],\"license\":\"MIT\"},\"node_modules/@bananapus/core/src/interfaces/IJBRedeemTerminal.sol\":{\"keccak256\":\"0xd1b4aa38154e08f1474745ea6bc8f8823fe8aa68c124d596742597f2296ea16d\",\"urls\":[\"bzz-raw://9bd254e833702dfe5e28db5fee76478947ab45b501c966501f719e73bbf0397a\",\"dweb:/ipfs/QmZ3Ng7TmVxL6ozSUhx4kYdQdZhoYi4t43cYZVAMz7Fn5M\"],\"license\":\"MIT\"},\"node_modules/@bananapus/core/src/interfaces/IJBRulesetApprovalHook.sol\":{\"keccak256\":\"0x592e95d159494421c6b1bcb362d0cee1df0132921697351304e9cd7af4fbd386\",\"urls\":[\"bzz-raw://5bebfd5fa67c1b6ea16fa2e76e9520e9dfe52a579f48dd94d0c2ec45f78ad178\",\"dweb:/ipfs/QmRUawEGtfYoYSHmHELGhvJoWuMsxLPKtqAXgsrb7fJboP\"],\"license\":\"MIT\"},\"node_modules/@bananapus/core/src/interfaces/IJBRulesets.sol\":{\"keccak256\":\"0xd3f817d22ecbe24da63c552c069bf0c4fbbf3bcd5c3b5633002afd24aacf6882\",\"urls\":[\"bzz-raw://c1185aec0f6b6f0f4d93ffeeed0972ccf38420b00fe570b5e1838ed2b1f5db49\",\"dweb:/ipfs/QmWz36azGTFnjFXpFSh6BHt4nactgjtF64L3PeTqs4ZqSR\"],\"license\":\"MIT\"},\"node_modules/@bananapus/core/src/interfaces/IJBSplitHook.sol\":{\"keccak256\":\"0xeb8dfac7a4b81897a1c3b5d0d853a406bcff33720fb187d5ca5bb3dcc0ba3a12\",\"urls\":[\"bzz-raw://36aaeef6107cfe5b0127e063ea215aac7200f8af02e28a48e61111abd3254688\",\"dweb:/ipfs/QmQ8yQANXnhQCAWBGKsKCDsJ3A8hnTKNg5tyo79GfWXTcV\"],\"license\":\"MIT\"},\"node_modules/@bananapus/core/src/interfaces/IJBSplits.sol\":{\"keccak256\":\"0x92deeb9e22ce2aaafc608b85e9250b8ea2deed1ebf64b7442038b157b2bfe0e6\",\"urls\":[\"bzz-raw://08bf29f0c13c2e8be46065277f67e44ecaea960cb5474f13775eece0672566c2\",\"dweb:/ipfs/QmeGu9C6tuBjfmeizmpzptxgGmch6Mbtm34NFwZxzMvqc4\"],\"license\":\"MIT\"},\"node_modules/@bananapus/core/src/interfaces/IJBTerminal.sol\":{\"keccak256\":\"0x19dc9bf8cbdc8f13ee5da9dc3a87047eacb94a3fc19740a286c1f0bad2cc39ca\",\"urls\":[\"bzz-raw://0b05ae6fda9a85672508232fd992b8a5f5ffd8096622eeb12c8a7b3317eb3867\",\"dweb:/ipfs/QmNh9Quj37BXYGdTdcCD1Q58PchRsE5TLbEZep56qS3MpV\"],\"license\":\"MIT\"},\"node_modules/@bananapus/core/src/interfaces/IJBToken.sol\":{\"keccak256\":\"0x71b1f9c3a0edd41910f77396e0be2c65596571176d53eb87e887c3c0da56c0fb\",\"urls\":[\"bzz-raw://6e956f0582f4525e83d845ee9b4a89959abc4f821414f6accbbee5b38960482d\",\"dweb:/ipfs/QmbSvjgmCgnfVmcCTGu8XwrV1Rufsf3M8hB8unFq6fTMdH\"],\"license\":\"MIT\"},\"node_modules/@bananapus/core/src/interfaces/IJBTokenUriResolver.sol\":{\"keccak256\":\"0xfa5cb00dcd6085d1ef912d071fe73c63f9478a2cd0f9d8bddaf659b6af2d0967\",\"urls\":[\"bzz-raw://282e4e7c342d65f77cde0e9a08fcaf20ef5cf379c7a48b639842c0ffd0b2afb8\",\"dweb:/ipfs/QmbnN3PEQeZaXdPLT75V1J79kMg7KqSMru37RHrL3z8Yf2\"],\"license\":\"MIT\"},\"node_modules/@bananapus/core/src/interfaces/IJBTokens.sol\":{\"keccak256\":\"0x6fd67af915dd541d9547c8297aa9ae269690e4ee23531db43f021bcacec6076f\",\"urls\":[\"bzz-raw://2e5e11954e9ab2319fffccb6563f3db400b8f7760d4ffe2165048a02c9c37fa6\",\"dweb:/ipfs/QmbDXtV83dK8EfiTjsTRf55R2XqPZzDKcjtYbW8sxQ5CFm\"],\"license\":\"MIT\"},\"node_modules/@bananapus/core/src/libraries/JBConstants.sol\":{\"keccak256\":\"0x9d3a9a953f859d8ec79a599577f8972de6da7199cc1bfa7fdad017d4d722bcb4\",\"urls\":[\"bzz-raw://f151fcb53a8d2684eff8b9e56ac790bcbcadd8199a4fd4d17c5b224b22936722\",\"dweb:/ipfs/QmdAz1ZtCE8nTiC4AxQNLfJhnY3ndGum2Lbef7seKdvTdR\"],\"license\":\"MIT\"},\"node_modules/@bananapus/core/src/structs/JBAccountingContext.sol\":{\"keccak256\":\"0x2907ff54d1e903cc7e0390dd88c3975884702dc2673642aacbe22b66560b56de\",\"urls\":[\"bzz-raw://a66a5381ce877b32f0e0058ceeaf843e9b6b2bc8af666c0c9f4a9d01091da004\",\"dweb:/ipfs/QmQynCetUr37dBkS1YwDS8evxuXGiqanW6THmeUxXtim8w\"],\"license\":\"MIT\"},\"node_modules/@bananapus/core/src/structs/JBAfterPayRecordedContext.sol\":{\"keccak256\":\"0xd26c3a774ff38be79064085970454fe2603a23a638c76270d5b1b3829206c3e8\",\"urls\":[\"bzz-raw://3b55dbe3bf1ef625b7ca04efab3de35406e6041d5b3d82c7265469c500e2b702\",\"dweb:/ipfs/QmUdBDo4Lt3mcsFcsXT2mqq3czFwZjQJFPLM89YA2VtD7k\"],\"license\":\"MIT\"},\"node_modules/@bananapus/core/src/structs/JBAfterRedeemRecordedContext.sol\":{\"keccak256\":\"0x521f5d23a36f0da72362cd84890cc867bd83baa8dc836ba6c5066d51dba2f163\",\"urls\":[\"bzz-raw://6cc461313286dde62d045d6288e87bae5032e035796326f5b1ed6218e58aa9da\",\"dweb:/ipfs/QmQS2AkQwf2ANQieDuaUnpJEdXChoLv4CCbZqHkfywYPSR\"],\"license\":\"MIT\"},\"node_modules/@bananapus/core/src/structs/JBCurrencyAmount.sol\":{\"keccak256\":\"0x12fe4b43f4824994624d4fe0abbd88c3fe7867fd637edb65c7f456dab27e2d6e\",\"urls\":[\"bzz-raw://8003a3e8f932cf891e86b827e67c9d31b0d34c2712e18c2bc333cfe5284ba6d5\",\"dweb:/ipfs/QmSoA6RsDcSnNzk6CB7KZtALkHmeSDAi2g6fg3TDmLDkWX\"],\"license\":\"MIT\"},\"node_modules/@bananapus/core/src/structs/JBFundAccessLimitGroup.sol\":{\"keccak256\":\"0x9fdaa8d017b72da25f583700a444a86849df053f7fb8eac874ec5139bcf651e5\",\"urls\":[\"bzz-raw://c8e44c49ee444a98424a0dbeb6897a76a0bf00d88a613f62ac2012afdac754ee\",\"dweb:/ipfs/QmdYkAiRi5bXM1YYNkc7BiqimHSFodMGn1cjHR5hcpm4xH\"],\"license\":\"MIT\"},\"node_modules/@bananapus/core/src/structs/JBPermissionsData.sol\":{\"keccak256\":\"0x8f0f69a6ebf5f3704e3dfcb3712fb9d3f94ae7c1ab89bf3e37bad42a3e7a0487\",\"urls\":[\"bzz-raw://57b0c5e52843e2217082889ed47b4da3943e0da4590d5768dcebfe3edad4a6b8\",\"dweb:/ipfs/QmRz48vuWLw81kUP836rh1qzqWiJFGbksgRUA9xGEDNKTY\"],\"license\":\"MIT\"},\"node_modules/@bananapus/core/src/structs/JBRuleset.sol\":{\"keccak256\":\"0x15b2bf3174d84846a91ccbf5a344dfb125b55ed9cf50102db8d6868844225189\",\"urls\":[\"bzz-raw://647416b025dbd941094db89cbc69f755c155bd6c87be3f322394ccc4a8e0442d\",\"dweb:/ipfs/QmTCL9xcHnxQ4t5AmCPoZvXDUPW5xhzhyyXYbkMdyg44au\"],\"license\":\"MIT\"},\"node_modules/@bananapus/core/src/structs/JBRulesetConfig.sol\":{\"keccak256\":\"0x0be470df286939259a6b98bc71459e661e81d56a58226d6a574ae1484f8f8e6c\",\"urls\":[\"bzz-raw://64592c279ba7518ac180c835a539897163f299a439065f2cc8aa54086a2c9ad7\",\"dweb:/ipfs/QmaEepVvFJdXcDBMMr7SQYjZSDJXPtCca95kQY5rZbra6U\"],\"license\":\"MIT\"},\"node_modules/@bananapus/core/src/structs/JBRulesetMetadata.sol\":{\"keccak256\":\"0xfea54c9f98416d2aa05309e7ff76967d6968a614850a1e33e48fde793ea8b514\",\"urls\":[\"bzz-raw://bf55386cbab90dbc1296b2b0cbfdc217a4500d67702e4a093a4c78bd127ecd5c\",\"dweb:/ipfs/QmTRq9mZrNSXu7oCZwti4JbBFrbY6A5msRqi9RbtL49NAj\"],\"license\":\"MIT\"},\"node_modules/@bananapus/core/src/structs/JBRulesetWithMetadata.sol\":{\"keccak256\":\"0x1bcfadf20488f6df65227f8d4d0fbf9b7539456a2389567f7fe3900d23289bc3\",\"urls\":[\"bzz-raw://0a15c399a71e5373f8c0484c6d6b83521eda31e063a2c53e4c5cec4e74550343\",\"dweb:/ipfs/QmQwi8zkjoTVXbK89NeETYimWCacTrNsesJdpLSvGdqMPX\"],\"license\":\"MIT\"},\"node_modules/@bananapus/core/src/structs/JBSplit.sol\":{\"keccak256\":\"0x1d40fa4f1c911a53b9139f3d44d27cb58fa5c5d2cd793c7a21ccf52b9e61f848\",\"urls\":[\"bzz-raw://9897d2c29fc65fe16e4eac0b7b8b6fd8ef0b0cc501986f7f0c3a78c4ec1dbb60\",\"dweb:/ipfs/QmXcHoVjCYWWCz4hm2KZ6JxtB4YNq7jmXa2evLkga59Xwq\"],\"license\":\"MIT\"},\"node_modules/@bananapus/core/src/structs/JBSplitGroup.sol\":{\"keccak256\":\"0xda7da6e88aac2906c7ea4027660088daf217edc632bebca4d72795aae8921564\",\"urls\":[\"bzz-raw://ae1939d17e94cb51484f31ce64cf0df990445a338fb9b38d39a7baf28275ae4a\",\"dweb:/ipfs/QmUhPnJiWnYhFdtLvZnrPopAdbYXxETpGjvxjPDignpTGY\"],\"license\":\"MIT\"},\"node_modules/@bananapus/core/src/structs/JBSplitHookContext.sol\":{\"keccak256\":\"0xfe34e6860b00ca93d71f44e72882281b2c57c31303151af05795c74cfdd2e51d\",\"urls\":[\"bzz-raw://08acab094888e9c929b6f6f972d89ddbb31e5867675e7e7c602d25fcb2c0f402\",\"dweb:/ipfs/QmPNdXM185cTyXQSodVr4JMviHx88jrWu7dipgkp9xTNgJ\"],\"license\":\"MIT\"},\"node_modules/@bananapus/core/src/structs/JBTerminalConfig.sol\":{\"keccak256\":\"0xd162f3821a1ccafbc8d7d108369e39ac3048445a8c7fe7a3fa97a6343f9eefaa\",\"urls\":[\"bzz-raw://82172ea0407b6d9edc45e408c7e8edb8e129adf49a94349fe3a5862da9bc044e\",\"dweb:/ipfs/QmWheF5Tjq2hcabnSzfYqdFHUA1YxYEdAPZaRw9N166V1d\"],\"license\":\"MIT\"},\"node_modules/@bananapus/core/src/structs/JBTokenAmount.sol\":{\"keccak256\":\"0x5cf0626b73a596c1e2da17c89ae039a7c0374310b060d48568d3b6c11fbe6180\",\"urls\":[\"bzz-raw://63348b50be95e2995409394a17caffc563a646f0972650a1230bf864fbd3219b\",\"dweb:/ipfs/QmZXZpS3SbFD5nWaCauf6AqbEhLURv5qsKHpThBvQgDU6u\"],\"license\":\"MIT\"},\"node_modules/@bananapus/permission-ids/src/JBPermissionIds.sol\":{\"keccak256\":\"0xf61109f6b217a80d5e5391f548fb6f2e451f7dbee3fabfc04cf17e88722203bc\",\"urls\":[\"bzz-raw://ac776ab1cd621c22bd7973471acdfa187f3abc659ad9a3ef6ed10b6447dfcf9c\",\"dweb:/ipfs/QmYLbaHt68qcuMzkiKpe96jMjiWUq1F3u8yMhxmZ3pnnWu\"],\"license\":\"MIT\"},\"node_modules/@openzeppelin/contracts/token/ERC20/IERC20.sol\":{\"keccak256\":\"0xc6a8ff0ea489379b61faa647490411b80102578440ab9d84e9a957cc12164e70\",\"urls\":[\"bzz-raw://0ea104e577e63faea3b69c415637e99e755dcbf64c5833d7140c35a714d6d90c\",\"dweb:/ipfs/Qmau6x4Ns9XdyynRCNNp3RhLqijJjFm7z5fyZazfYFGYdq\"],\"license\":\"MIT\"},\"node_modules/@openzeppelin/contracts/token/ERC20/extensions/IERC20Permit.sol\":{\"keccak256\":\"0x6008dabfe393240d73d7dd7688033f72740d570aa422254d29a7dce8568f3aff\",\"urls\":[\"bzz-raw://f5196ec75139918c6c7bb4251b36395e668f1fa6d206beba7e7520e74913940d\",\"dweb:/ipfs/QmSyqjksXxmm2mCG6qRd1yuwLykypkSVBbnBnGqJRcuJMi\"],\"license\":\"MIT\"},\"node_modules/@openzeppelin/contracts/token/ERC20/utils/SafeERC20.sol\":{\"keccak256\":\"0x37bb49513c49c87c4642a891b13b63571bc87013dde806617aa1efb54605f386\",\"urls\":[\"bzz-raw://b3036b3a83b7c48f96641f2a9002b9f2dcb6a5958dd670894ada21ae8229b3d0\",\"dweb:/ipfs/QmUNfSBdoVtjhETaUJCYcaC7pTMgbhht926tJ2uXJbiVd3\"],\"license\":\"MIT\"},\"node_modules/@openzeppelin/contracts/token/ERC721/IERC721.sol\":{\"keccak256\":\"0x5ef46daa3b58ef2702279d514780316efaa952915ee1aa3396f041ee2982b0b4\",\"urls\":[\"bzz-raw://2f8f2a76e23b02fc69e8cd24c3cb47da6c7af3a2d6c3a382f8ac25c6e094ade7\",\"dweb:/ipfs/QmPV4ZS4tPVv4mTCf9ejyZ1ai57EEibDRj7mN2ARDCLV5n\"],\"license\":\"MIT\"},\"node_modules/@openzeppelin/contracts/utils/Address.sol\":{\"keccak256\":\"0xaf28a975a78550e45f65e559a3ad6a5ad43b9b8a37366999abd1b7084eb70721\",\"urls\":[\"bzz-raw://b7bd24e224f67f65bfadf85dc2929fa965456bb2415478bd0125471b5ce35245\",\"dweb:/ipfs/QmRaydGr8BTHs1kvaZfsNU69pKzUAGFrvABn1KiRSbE51y\"],\"license\":\"MIT\"},\"node_modules/@openzeppelin/contracts/utils/Context.sol\":{\"keccak256\":\"0x493033a8d1b176a037b2cc6a04dad01a5c157722049bbecf632ca876224dd4b2\",\"urls\":[\"bzz-raw://6a708e8a5bdb1011c2c381c9a5cfd8a9a956d7d0a9dc1bd8bcdaf52f76ef2f12\",\"dweb:/ipfs/Qmax9WHBnVsZP46ZxEMNRQpLQnrdE4dK8LehML1Py8FowF\"],\"license\":\"MIT\"},\"node_modules/@openzeppelin/contracts/utils/introspection/IERC165.sol\":{\"keccak256\":\"0x4296879f55019b23e135000eb36896057e7101fb7fb859c5ef690cf14643757b\",\"urls\":[\"bzz-raw://87b3541437c8c443ccd36795e56a338ed12855eec17f8da624511b8d1a7e14df\",\"dweb:/ipfs/QmeJQCtZrQjtJLr6u7ZHWeH3pBnjtLWzvRrKViAi7UZqxL\"],\"license\":\"MIT\"},\"node_modules/@openzeppelin/contracts/utils/structs/BitMaps.sol\":{\"keccak256\":\"0x3616f1b0d0a9ee1ca8f0953ecaceb9230e36f691c7974d30f964212acff52d2b\",\"urls\":[\"bzz-raw://d4bebdd07b31ac28e3e596ac6f0333da90a4e332405aa7d65f3a3a7e0b4cf15e\",\"dweb:/ipfs/QmckoDU5bBnye2UtPcrfJNahLD2FbxrnPP9nrREMWPpnug\"],\"license\":\"MIT\"},\"src/BPBaseSucker.sol\":{\"keccak256\":\"0xe0433a3414b34558a68fe2bac4136c65fe83c30e27fc3996dfcd85656dd04e8b\",\"urls\":[\"bzz-raw://79a78206e4a1a886f972fd16191a57c5ca2554cad22232e9e81dc8889357e9ff\",\"dweb:/ipfs/QmWaFjF8tb3F27A4X7cqngK2R9rXSv3LQwDdeyxgZK2wHr\"],\"license\":\"MIT\"},\"src/BPOptimismSucker.sol\":{\"keccak256\":\"0x69a5aefbfab91e98d6d6889a58bcbdf1dc536efda6692d781785d17a70cb8f87\",\"urls\":[\"bzz-raw://d8da52964e8085a7c7263c0c61d5159acd72184e680b1918f71c6c3141186aea\",\"dweb:/ipfs/QmaptT76nh7QGQxcCAvYwhjRbEcJdZ7jwcSmVu5QE7SFwQ\"],\"license\":\"MIT\"},\"src/BPSucker.sol\":{\"keccak256\":\"0x0f4f04d316f2b0e68e7a538de4d17d402ebf65fa63b5b25e43dd9a077a32ff3a\",\"urls\":[\"bzz-raw://1d3ff79802d9623da3d02a547e9a83d45a72491494c73cd7712c746fb5cd1b8f\",\"dweb:/ipfs/QmajmverUYhT5FgeKVZy8QRpvt21XbtRnKmL3WUfb5vsPW\"],\"license\":\"MIT\"},\"src/deployers/BPBaseSuckerDeployer.sol\":{\"keccak256\":\"0x0b0d23c45fc00441ca92e5927292249f4f5e6c435312bae03fa9e40c9957863b\",\"urls\":[\"bzz-raw://62828dc8f79e076a84d9c93f1a2c5d279c1570086ef86ffa6d6476e16111801a\",\"dweb:/ipfs/QmVZow1h9iMSdDcQx7xciH6erhNfwVrjuuAAxJ62psJX91\"],\"license\":\"MIT\"},\"src/deployers/BPOptimismSuckerDeployer.sol\":{\"keccak256\":\"0xf36819e8842842776ad8ff8d27f3d214a489ab034b00a0d41ac779a23f51390f\",\"urls\":[\"bzz-raw://c72801010cfb182206306859758b03c439041c1f48ecdcb2c130d4f6c9654a1f\",\"dweb:/ipfs/QmbiqhezhD7UMUWejmsZ89UZSicaj3J3ejuVRwfcMz9vn3\"],\"license\":\"MIT\"},\"src/enums/BPAddToBalanceMode.sol\":{\"keccak256\":\"0xa6dcd5c6225e2b697775d37a6f3a8ae4030f7af1a7cb4bb91d572eef65134e43\",\"urls\":[\"bzz-raw://583699b0f81837a739e5e54a1e0b0400a6021602bd7f48472c8785b22d3f25eb\",\"dweb:/ipfs/QmfL4Jr6p8B5q8uFX1ZfUS5vPsUxiGgMy5udVg9z2kPUQk\"],\"license\":\"MIT\"},\"src/interfaces/IBPSucker.sol\":{\"keccak256\":\"0x2a3136ea5608c3e76b9f3114a470980f2a96427535aaccbd65dcc37d3a3dd0f8\",\"urls\":[\"bzz-raw://8cc997a396b183525892a0640ce03aee9fa3f15971266c826a308f6c74ff63f2\",\"dweb:/ipfs/QmZcoMkGbujqLm5B9v5urpFwUVg2uoG7ybPHX8RRxsygpe\"],\"license\":\"MIT\"},\"src/interfaces/IBPSuckerDeployer.sol\":{\"keccak256\":\"0x7592282265ffd3000787eb20d1ccdd698cb6f2eb641dfddcd2b61978eb5105a2\",\"urls\":[\"bzz-raw://1f4ac54122cbd52758573f23856e243635be43aa974f234e1a5560eef9990794\",\"dweb:/ipfs/QmXHXr5CGh2hT9UMsLdCZNT4XmRMTf9SuBNRwTtyN9Z2Re\"],\"license\":\"MIT\"},\"src/interfaces/OPMessenger.sol\":{\"keccak256\":\"0x0be6648aa7ed6272db8d415992d16dc10b36a4a8ed2f8e3adac8433ca7834dae\",\"urls\":[\"bzz-raw://1a3aeecda2b108059ce2b271364121d69afa4afcd2d0341eae31d181d5a6881d\",\"dweb:/ipfs/QmcaB3EzUW8btTVa1FCgmhTFqTSAwdmK47K95cV88vg9J9\"],\"license\":\"MIT\"},\"src/interfaces/OPStandardBridge.sol\":{\"keccak256\":\"0xb5717563fc9dcbe47ab2ed8b98a1a5757b51935989b9a78091eb590c8dbb8d5a\",\"urls\":[\"bzz-raw://5d9acbe757d1103be408303d53c25ee8a6b6dc799e8dd58e4756ac4028b4ccd5\",\"dweb:/ipfs/QmVuqESXkFhrcRAAfTkXSXp7uWrN5QA7eAH6x3DpeAoAMe\"],\"license\":\"MIT\"},\"src/structs/BPClaim.sol\":{\"keccak256\":\"0x63a12013ec4c221781b057185a0e01c83ac19dcef115ad6238d25a22011da071\",\"urls\":[\"bzz-raw://0307e4377f2cbd3ec561405eb2ffa07e0d9fe2c39522eb0706e91b46efa1b2a7\",\"dweb:/ipfs/QmXKeKQ6mJGehNJt3v2fqE22MFoGjcpm2x9hHA25vu7xAH\"],\"license\":\"MIT\"},\"src/structs/BPInboxTreeRoot.sol\":{\"keccak256\":\"0xff494c45ee76d14e2ffb3cd0f22412b4a1a4d8e37b957a3ffb82b0b9db4f74ab\",\"urls\":[\"bzz-raw://a896310d4dcfecca8b1927bf82832c9b5de5a455228fd9aad2530729ce61739b\",\"dweb:/ipfs/QmUiep5HvdqgJZyJqt4kKxWuP2odhY5W9kX7pCuovTr3LM\"],\"license\":\"MIT\"},\"src/structs/BPLeaf.sol\":{\"keccak256\":\"0xaa2257b6d8fc05d9b37fdb40472cd2f4bed45e7ddc1ea9082ca5296215602bc8\",\"urls\":[\"bzz-raw://ebdf0d3c3961adb71fd7174f9a8eca8332202d07ee5a584abbb06b7c15db61d0\",\"dweb:/ipfs/QmWtqWUncWvZotfno2kiU5TeT3WTR9zfPzRTiktZskyS13\"],\"license\":\"MIT\"},\"src/structs/BPMessageRoot.sol\":{\"keccak256\":\"0xab832c9e92d412cc0d8e6758777694955fef6dcbc919f96b33052d68d0516d1d\",\"urls\":[\"bzz-raw://fa9fe2604015f05e1a4f2c1a92f4ef7b6cba3d08d9e7daa2b20190a9b1bce39c\",\"dweb:/ipfs/QmUDcrNmqnp1dPwkmPTjsu7Egbwtgsk42G9FNdrHk6JcB2\"],\"license\":\"MIT\"},\"src/structs/BPOutboxTree.sol\":{\"keccak256\":\"0xed569423f6ae3dafee5681a60b7c5d24b0c5f33ff0763937952e938be374d79e\",\"urls\":[\"bzz-raw://4dafb1348a51324105b2ee100e2174fee0f1397f0b2dd00483b2dcf049477ce4\",\"dweb:/ipfs/Qmcf8jizBW7BGGnHBVetaDvYcZ75ov8oYw8LubaNUHrHCv\"],\"license\":\"MIT\"},\"src/structs/BPRemoteToken.sol\":{\"keccak256\":\"0x703d0112f181683d9b3508bf9fc0ef2f5c3cac73de0a718d9f405561fad14622\",\"urls\":[\"bzz-raw://80c0dd5e9ef7648efc48306da2c50829490c41cf09292f0f82fa3e24ce9dbe37\",\"dweb:/ipfs/QmYTgR72bVH3r1xKvMaE1tRUAkqkZjZa2v1eki1973qn3U\"],\"license\":\"MIT\"},\"src/structs/BPTokenMapping.sol\":{\"keccak256\":\"0x84865bda925cdc9a608cbbfc487619acba391f98ae12bbbfdbc5779d617a17d9\",\"urls\":[\"bzz-raw://3bbc1fdd38feaf64fd4914bddb62cda7e5b8ee0f046a0eac8cfcb15f9493bcc5\",\"dweb:/ipfs/QmXgAx7sr1M8r71YrSeQJGAB1uhvdxpQyS633UgJvLCQfb\"],\"license\":\"MIT\"},\"src/utils/MerkleLib.sol\":{\"keccak256\":\"0x6803b76f79362d9b5cd8e32eb1da6ed675146554dcd2f77747c4406f5f7a25f4\",\"urls\":[\"bzz-raw://3db2984a7eae5e7dc78517fd3a696180e95fdf00bf3267b31d1dbaddb0865cab\",\"dweb:/ipfs/QmPG8Nxwcb5Q7unUzMLCwaaRv8MvR7rskfacSDqbDW5zPZ\"],\"license\":\"MIT OR Apache-2.0\"}},\"version\":1}",
			"args": [
				"0xCD8c4da77dfb15C05486D3F71Ee4C2C0dfdbc94e",
				"0x792b79adb4Aa06edDabd6ddef5EE06dCb946F436",
				"0x1e2E8562b635fe19978640C784e47865A83d6605",
				"0x6a65B75A3f37C6702A117Fb87B6bCaC62657d216"
			],
			"bytecode": "0x61010060405234801561001157600080fd5b50604051614c5c380380614c5c8339810160408190526100309161006a565b6001600160a01b03918216608052811660e05291821660a0521660c0526100c9565b6001600160a01b038116811461006757600080fd5b50565b6000806000806080858703121561008057600080fd5b845161008b81610052565b602086015190945061009c81610052565b60408601519093506100ad81610052565b60608601519092506100be81610052565b939692955090935050565b60805160a05160c05160e051614b566101066000396000505060006101c9015260006101a801526000818161013c01526101ea0152614b566000f3fe608060405234801561001057600080fd5b506004361061007d5760003560e01c8063c39ec1241161005b578063c39ec124146100dc578063cc8b6f4f1461010f578063ee9a31a214610124578063f434c9141461013757600080fd5b80631213036614610082578063927ede2d146100b2578063ba8b1d1a146100c5575b600080fd5b6100956100903660046102ed565b61015e565b6040516001600160a01b0390911681526020015b60405180910390f35b600054610095906001600160a01b031681565b6100ce60035481565b6040519081526020016100a9565b6100ff6100ea366004610327565b60026020526000908152604090205460ff1681565b60405190151581526020016100a9565b61012261011d36600461034b565b610271565b005b600154610095906001600160a01b031681565b6100957f000000000000000000000000000000000000000000000000000000000000000081565b6040516bffffffffffffffffffffffff193360601b1660208201526034810182905260009060540160405160208183030381529060405280519060200120915082600381905550817f00000000000000000000000000000000000000000000000000000000000000007f00000000000000000000000000000000000000000000000000000000000000007f0000000000000000000000000000000000000000000000000000000000000000600080604051610218906102e0565b610226959493929190610384565b8190604051809103906000f5905080158015610246573d6000803e3d6000fd5b506001600160a01b0381166000908152600260205260409020805460ff191660011790559392505050565b6000546001600160a01b031615158061029457506001546001600160a01b031615155b156102b25760405163ccbe17fd60e01b815260040160405180910390fd5b600080546001600160a01b039384166001600160a01b03199182161790915560018054929093169116179055565b614746806103db83390190565b6000806040838503121561030057600080fd5b50508035926020909101359150565b6001600160a01b038116811461032457600080fd5b50565b60006020828403121561033957600080fd5b81356103448161030f565b9392505050565b6000806040838503121561035e57600080fd5b82356103698161030f565b915060208301356103798161030f565b809150509250929050565b6001600160a01b038681168252858116602083015284811660408301528316606082015260a08101600283106103ca57634e487b7160e01b600052602160045260246000fd5b826080830152969550505050505056fe6101a06040523480156200001257600080fd5b50604051620047463803806200474683398101604081905262000035916200022d565b6001600160a01b0380841660805280861660c05280851660e052859085908590859085908590859085908590859082161562000072578162000074565b305b6001600160a01b03166101205260408051635d458e8d60e11b81529051339163ba8b1d1a9160048083019260209291908290030181865afa158015620000be573d6000803e3d6000fd5b505050506040513d601f19601f82011682018060405250810190620000e49190620002b0565b610140523361010052806001811115620001025762000102620002ca565b60a0816001811115620001195762000119620002ca565b9052505050505050336001600160a01b031663927ede2d6040518163ffffffff1660e01b8152600401602060405180830381865afa15801562000160573d6000803e3d6000fd5b505050506040513d601f19601f82011682018060405250810190620001869190620002e0565b6001600160a01b0316610160526040805163774d18d160e11b81529051339163ee9a31a29160048083019260209291908290030181865afa158015620001d0573d6000803e3d6000fd5b505050506040513d601f19601f82011682018060405250810190620001f69190620002e0565b6001600160a01b031661018052506200030798505050505050505050565b6001600160a01b03811681146200022a57600080fd5b50565b600080600080600060a086880312156200024657600080fd5b8551620002538162000214565b6020870151909550620002668162000214565b6040870151909450620002798162000214565b60608701519093506200028c8162000214565b608087015190925060028110620002a257600080fd5b809150509295509295909350565b600060208284031215620002c357600080fd5b5051919050565b634e487b7160e01b600052602160045260246000fd5b600060208284031215620002f357600080fd5b8151620003008162000214565b9392505050565b60805160a05160c05160e05161010051610120516101405161016051610180516142fc6200044a600039600081816101d5015281816113eb015261143a0152600081816105bd0152818161158f01528181611e4a0152611eb0015260008181610249015281816107cc01528181610849015281816109e601528181610e6f01528181610f180152818161172c015281816117f10152818161186e01528181611afa01528181611bb301528181611cb50152611ddd0152600081816103ae0152818161146b015281816115ba0152611e86015260006104880152600081816101620152610a0f01526000818161037a0152818161073d01528181610e95015281816117670152611b290152600081816104bc01528181610b8501528181610e11015261102a015260008181610589015281816111d5015261127e01526142fc6000f3fe6080604052600436106101445760003560e01c806388bc2ef3116100b6578063c1b8411a1161006f578063c1b8411a14610476578063c6525f2c146104aa578063e7f82c75146104eb578063ed0e26b914610518578063f434c91414610577578063fc8fa43d146105ab57600080fd5b806388bc2ef314610368578063ad42938b1461039c578063b59ef50f146103d0578063b71c1179146103f0578063bf557aee14610403578063c18541291461045657600080fd5b806356539f391161010857806356539f391461023757806361c864171461027957806369ce22331461028e57806369d31fdd146102ae5780636dfa7268146102c15780637de6fba2146102f057600080fd5b80631d831d5c146101505780632241dc52146101a15780632847f1f3146101c357806338eb2044146101f7578063551ebbf01461021757600080fd5b3661014b57005b600080fd5b34801561015c57600080fd5b506101847f000000000000000000000000000000000000000000000000000000000000000081565b6040516001600160a01b0390911681526020015b60405180910390f35b3480156101ad57600080fd5b506101c16101bc366004613c89565b6105df565b005b3480156101cf57600080fd5b506101847f000000000000000000000000000000000000000000000000000000000000000081565b34801561020357600080fd5b506101c1610212366004613d15565b610617565b34801561022357600080fd5b506101c1610232366004613d46565b6109b0565b34801561024357600080fd5b5061026b7f000000000000000000000000000000000000000000000000000000000000000081565b604051908152602001610198565b34801561028557600080fd5b5061026b610b2f565b34801561029a57600080fd5b506101c16102a9366004613d90565b610b81565b6101c16102bc366004613d15565b610bfa565b3480156102cd57600080fd5b506102e16102dc366004613d90565b610d6b565b60405161019893929190613dad565b3480156102fc57600080fd5b5061033e61030b366004613d90565b6003602052600090815260409020805460019091015463ffffffff82169164010000000090046001600160a01b03169083565b6040805163ffffffff90941684526001600160a01b03909216602084015290820152606001610198565b34801561037457600080fd5b506101847f000000000000000000000000000000000000000000000000000000000000000081565b3480156103a857600080fd5b506101847f000000000000000000000000000000000000000000000000000000000000000081565b3480156103dc57600080fd5b506101c16103eb366004613e06565b610dd5565b6101c16103fe366004613d90565b6110a9565b34801561040f57600080fd5b5061044661041e366004613d90565b6001600160a01b03908116600090815260036020526040902054640100000000900416151590565b6040519015158152602001610198565b34801561046257600080fd5b506101c1610471366004613e19565b611157565b34801561048257600080fd5b506101847f000000000000000000000000000000000000000000000000000000000000000081565b3480156104b657600080fd5b506104de7f000000000000000000000000000000000000000000000000000000000000000081565b6040516101989190613e92565b3480156104f757600080fd5b5061026b610506366004613d90565b60026020526000908152604090205481565b34801561052457600080fd5b50610558610533366004613d90565b600160208190526000918252604090912080549101546001600160401b039091169082565b604080516001600160401b039093168352602083019190915201610198565b34801561058357600080fd5b506101847f000000000000000000000000000000000000000000000000000000000000000081565b3480156105b757600080fd5b506101847f000000000000000000000000000000000000000000000000000000000000000081565b60005b818110156106125761060a8383838181106105ff576105ff613eba565b905060800201610617565b6001016105e2565b505050565b60006106266020830183613d90565b9050600061eeee61063a6020850185613d90565b6001600160a01b031614905080801561066d575061eeee6106616060850160408601613d90565b6001600160a01b031614155b8015610692575060006106866060850160408601613d90565b6001600160a01b031614155b156106d1576106a76060840160408501613d90565b604051630a0a3b6b60e31b81526001600160a01b0390911660048201526024015b60405180910390fd5b62030d406106e56040850160208601613ed0565b63ffffffff161080156106f6575080155b156107385762030d4061070f6040850160208601613ed0565b604051634f3dbeb360e11b815263ffffffff9283166004820152911660248201526044016106c8565b61086f7f00000000000000000000000000000000000000000000000000000000000000006001600160a01b031663293c49996040518163ffffffff1660e01b8152600401602060405180830381865afa158015610799573d6000803e3d6000fd5b505050506040513d601f19601f820116820180604052508101906107bd9190613ef6565b6040516331a9108f60e11b81527f000000000000000000000000000000000000000000000000000000000000000060048201526001600160a01b039190911690636352211e90602401602060405180830381865afa158015610823573d6000803e3d6000fd5b505050506040513d601f19601f820116820180604052508101906108479190613ef6565b7f0000000000000000000000000000000000000000000000000000000000000000601c61118b565b60006108816060850160408601613d90565b6001600160a01b03161480156108b157506001600160a01b03821660009081526020819052604090206001015415155b1561090c576001600160a01b0380831660009081526003602090815260408083208151606081018352815463ffffffff811682526401000000009004909516928501929092526001909101549083015261090c91849061130f565b604051806060016040528084602001602081019061092a9190613ed0565b63ffffffff1681526020016109456060860160408701613d90565b6001600160a01b0390811682526060909501356020918201529284166000908152600384526040908190208251815495840151909616640100000000026001600160c01b031990951663ffffffff909616959095179390931784559091015160019092019190915550565b6001600160a01b0383166109d7576040516309a9c30b60e41b815260040160405180910390fd5b60405163ea78803f60e01b81527f000000000000000000000000000000000000000000000000000000000000000060048201526000907f00000000000000000000000000000000000000000000000000000000000000006001600160a01b03169063ea78803f90602401602060405180830381865afa158015610a5e573d6000803e3d6000fd5b505050506040513d601f19601f82011682018060405250810190610a829190613ef6565b90506001600160a01b038116610aab57604051635a33845560e01b815260040160405180910390fd5b6001600160a01b03828116600090815260036020526040902054640100000000900416610af65760405163393e175160e01b81526001600160a01b03831660048201526024016106c8565b610b0b6001600160a01b0382163330886116b6565b6000610b198287858761171d565b9050610b2786848388611910565b505050505050565b6000466001819003610b445761210591505090565b8061210503610b5557600191505090565b8062aa36a703610b695762014a3491505090565b8062014a3403610b7d5762aa36a791505090565b5090565b60007f00000000000000000000000000000000000000000000000000000000000000006001811115610bb557610bb5613e7c565b14610bd35760405163218a9a2d60e11b815260040160405180910390fd5b6001600160a01b038116600090815260026020526040902054610bf7908290611a94565b50565b610c0333611e46565b610c2057604051630439dbd360e51b815260040160405180910390fd5b60208101803590600290600090610c379085613d90565b6001600160a01b03166001600160a01b031681526020019081526020016000206000828254610c669190613f29565b90915550600190506000610c7d6020840184613d90565b6001600160a01b0316815260208101919091526040908101600020546001600160401b031690610cb39060608401908401613f51565b6001600160401b03161115610bf7576040810160016000610cd76020850185613d90565b6001600160a01b031681526020810191909152604001600020610cfa8282613f6e565b50610d0a90506020820182613d90565b6001600160a01b03167f551b6b99b4c48e3265d2885ab0d93779be2402293261e074f7bf74b2c8f45b6f610d446060840160408501613f51565b604080516001600160401b039092168252606085013560208301520160405180910390a250565b6000602081815291815260409081902080546001820154835161044081018086526001600160401b0390931695919490926002850192849283019184919082845b815481526020019060010190808311610dac575050509183525050602091820154910152905083565b610e0d6060820135610dea6020840184613d90565b6080840135610dff6060860160408701613d90565b602086013560a08701611f43565b60017f00000000000000000000000000000000000000000000000000000000000000006001811115610e4157610e41613e7c565b03610e6057610e60610e566020830183613d90565b6080830135611a94565b604051632eec7b5560e11b81527f000000000000000000000000000000000000000000000000000000000000000060048201527f00000000000000000000000000000000000000000000000000000000000000006001600160a01b031690635dd8f6aa90602401602060405180830381865afa158015610ee4573d6000803e3d6000fd5b505050506040513d601f19601f82011682018060405250810190610f089190613ef6565b6001600160a01b031663c7fb92de7f000000000000000000000000000000000000000000000000000000000000000060608401803590610f4b9060408701613d90565b6040516001600160e01b031960e086901b168152600481019390935260248301919091526001600160a01b0316604482015260a06064820152600060a48201819052608482015260c4016020604051808303816000875af1158015610fb4573d6000803e3d6000fd5b505050506040513d601f19601f82011682018060405250810190610fd89190613fa1565b507f487194902d206a126abe9f23a4e2b78d1600ed8034b1423290a13edd6ebc7d1461100a6060830160408401613d90565b6110176020840184613d90565b60608401356080850135602086013560017f0000000000000000000000000000000000000000000000000000000000000000600181111561105a5761105a613e7c565b14611066576000611069565b60015b604080516001600160a01b0397881681529690951660208701529385019290925260608401526080830152151560a082015260c00160405180910390a150565b6001600160a01b0380821660008181526003602090815260408083208151606081018352815463ffffffff811682526401000000009004909616868401526001908101548683018190529484529183905290912001541015611148576040808201516001600160a01b0384166000908152602081905282902060010154915163091df9e560e31b81526106c89290600401918252602082015260400190565b61115334838361130f565b5050565b60005b818110156106125761118383838381811061117757611177613eba565b90506104a00201610dd5565b60010161115a565b336001600160a01b0384168114801590611242575060405163c161c93f60e01b81526001600160a01b038281166004830152858116602483015260448201859052606482018490527f0000000000000000000000000000000000000000000000000000000000000000169063c161c93f90608401602060405180830381865afa15801561121c573d6000803e3d6000fd5b505050506040513d601f19601f820116820180604052508101906112409190613fba565b155b80156112eb575060405163c161c93f60e01b81526001600160a01b038281166004830152858116602483015260006044830152606482018490527f0000000000000000000000000000000000000000000000000000000000000000169063c161c93f90608401602060405180830381865afa1580156112c5573d6000803e3d6000fd5b505050506040513d601f19601f820116820180604052508101906112e99190613fba565b155b156113095760405163075fd2b160e01b815260040160405180910390fd5b50505050565b60008315611330576040516352864b0160e11b815260040160405180910390fd5b6001600160a01b038316600090815260208190526040812060018101805490839055815490929190829061136c906001600160401b0316613fdc565b91906101000a8154816001600160401b0302191690836001600160401b031602179055905060006001600160a01b031684602001516001600160a01b0316036113d35760405163393e175160e01b81526001600160a01b03861660048201526024016106c8565b6001600160a01b03851661eeee146114ce57611410857f000000000000000000000000000000000000000000000000000000000000000084612073565b6020808501518551604080519384018152600084525163540abf7360e01b81526001600160a01b037f0000000000000000000000000000000000000000000000000000000000000000169363540abf7393611497938b9391927f0000000000000000000000000000000000000000000000000000000000000000928a929190600401614052565b600060405180830381600087803b1580156114b157600080fd5b505af11580156114c5573d6000803e3d6000fd5b505050506114d2565b8192505b6001600160a01b03851660009081526020819052604081206114f690600201612103565b6001600160a01b03871660009081526020819052604081206022015491925090611522906001906140a5565b604080516060810182526020808a01516001600160a01b039081168352818301898152845180860186526001600160401b03808b1682528185018a9052858701918252955194518316602486015290516044850152518051909416606484015292015160848201529192507f00000000000000000000000000000000000000000000000000000000000000001690633dbb202b9087907f00000000000000000000000000000000000000000000000000000000000000009060a40160408051601f198184030181529181526020820180516001600160e01b03166369d31fdd60e01b179052516001600160e01b031960e086901b16815261162c929190620493e0906004016140b8565b6000604051808303818588803b15801561164557600080fd5b505af1158015611659573d6000803e3d6000fd5b5050604080518581526001600160401b03881660208201526001600160a01b038c1694508693507f3e069c1f498cba23d7d2b74b84311469e8da6e527cade62061d642c61b64e0de92500160405180910390a35050505050505050565b6040516001600160a01b0384811660248301528381166044830152606482018390526113099186918216906323b872dd906084015b604051602081830303815290604052915060e01b6020820180516001600160e01b0383818316178352505050506134b9565b604051630862026560e41b81527f000000000000000000000000000000000000000000000000000000000000000060048201526001600160a01b03838116602483015260009182917f00000000000000000000000000000000000000000000000000000000000000001690638620265090604401602060405180830381865afa1580156117ae573d6000803e3d6000fd5b505050506040513d601f19601f820116820180604052508101906117d29190613ef6565b90506001600160a01b03811661182c57604051630c9ae01360e01b81527f000000000000000000000000000000000000000000000000000000000000000060048201526001600160a01b03851660248201526044016106c8565b6000611838853061351c565b60408051602081018252600081529051635db90a7f60e11b81529192506001600160a01b0384169163bb7214fe9161189e9130917f0000000000000000000000000000000000000000000000000000000000000000918b918d918c9186916004016140f2565b6020604051808303816000875af11580156118bd573d6000803e3d6000fd5b505050506040513d601f19601f820116820180604052508101906118e19190613fa1565b9250806118ee863061351c565b6118f891906140a5565b831461190657611906614144565b5050949350505050565b600061191d8584846135b3565b6001600160a01b0385166000908152602081815260408083208151610440810180845295965093946119889487949093600290930192849290830191849182845b81548152602001906001019080831161195e575050509183525050602091820154910152906135f8565b6001600160a01b038616600090815260208181526040909120825192935083926002909101916119b9918391613bfb565b50602091820151908201556001600160a01b0386166000908152908190526040812060010180548692906119ee908490613f29565b92505081905550846001600160a01b0316836001600160a01b03167f7b58dbb78e7edc690b0688a53dea0c443d630c4a5db66c3c47d4ff2044c977288460018560200151611a3c91906140a5565b6001600160a01b038a166000908152602081905260409020611a6090600201612103565b60408051938452602084019290925290820152606081018a90526080810188905260a00160405180910390a3505050505050565b6001600160a01b03821660009081526002602052604090205480821115611ace57604051632858f9ab60e11b815260040160405180910390fd5b6001600160a01b03838116600081815260026020526040808220868603905551630862026560e41b81527f000000000000000000000000000000000000000000000000000000000000000060048201526024810192909252917f00000000000000000000000000000000000000000000000000000000000000001690638620265090604401602060405180830381865afa158015611b70573d6000803e3d6000fd5b505050506040513d601f19601f82011682018060405250810190611b949190613ef6565b90506001600160a01b038116611bee57604051630c9ae01360e01b81527f000000000000000000000000000000000000000000000000000000000000000060048201526001600160a01b03851660248201526044016106c8565b6001600160a01b03841661eeee14611d9e576040516370a0823160e01b81523060048201526000906001600160a01b038616906370a0823190602401602060405180830381865afa158015611c47573d6000803e3d6000fd5b505050506040513d601f19601f82011682018060405250810190611c6b9190613fa1565b9050611c78858386612073565b60408051602080820183526000808352835191820184528082529251639e6eec0560e01b81526001600160a01b03861693639e6eec0593611ce5937f0000000000000000000000000000000000000000000000000000000000000000938c938c939092909160040161415a565b600060405180830381600087803b158015611cff57600080fd5b505af1158015611d13573d6000803e3d6000fd5b505050508381611d2391906140a5565b6040516370a0823160e01b81523060048201526001600160a01b038716906370a0823190602401602060405180830381865afa158015611d67573d6000803e3d6000fd5b505050506040513d601f19601f82011682018060405250810190611d8b9190613fa1565b14611d9857611d98614144565b50611309565b60408051602080820183526000808352835191820184528082529251639e6eec0560e01b81526001600160a01b03851693639e6eec05938893611e0e937f0000000000000000000000000000000000000000000000000000000000000000938c938793919290919060040161415a565b6000604051808303818588803b158015611e2757600080fd5b505af1158015611e3b573d6000803e3d6000fd5b505050505050505050565b60007f00000000000000000000000000000000000000000000000000000000000000006001600160a01b0316826001600160a01b0316148015611f3d57507f00000000000000000000000000000000000000000000000000000000000000006001600160a01b03167f00000000000000000000000000000000000000000000000000000000000000006001600160a01b0316636e296e456040518163ffffffff1660e01b81526004016020604051808303816000875af1158015611f0e573d6000803e3d6000fd5b505050506040513d601f19601f82011682018060405250810190611f329190613ef6565b6001600160a01b0316145b92915050565b6001600160a01b0385166000908152600460209081526040808320600886901c8452909152902054600160ff84161b1615611f945760405163ed9bdd0760e01b8152600481018390526024016106c8565b6001600160a01b0385166000908152600460209081526040808320600886901c845290915281208054600160ff86161b179055612003611fd58887876135b3565b6040805161040081810190925290859060209083908390808284376000920191909152508791506136fe9050565b6001600160a01b03871660009081526001602081905260409091200154909150811461206a576001600160a01b0386166000908152600160208190526040918290200154905163286f87c960e21b81526004810191909152602481018290526044016106c8565b50505050505050565b604080516001600160a01b038416602482015260448082018490528251808303909101815260649091019091526020810180516001600160e01b031663095ea7b360e01b1790526120c48482613a4c565b611309576040516001600160a01b038481166024830152600060448301526120f991869182169063095ea7b3906064016116eb565b61130984826134b9565b602081015460009080820361213a57507f27ae5ba08d7291c96c8cbddcc148bf48a6d68c7974b94356f53754ef6171d75792915050565b600083600183161561215c578054600052600060205260406000209350612a0f565b60028316156121a15760018101546000527fad3228b676f7d3cd4284a5443f17f1962b36e491b30a40b2405849e597ba5fb56020526040600020935060019150612a0f565b60048316156121e65760028101546000527fb4c11951957c6f8f642c4af61cd6b24640fec6dc7fc607ee8206a99e92410d306020526040600020935060029150612a0f565b600883161561222b5760038101546000527f21ddb9a356815c3fac1026b6dec5df3124afbadb485c9ba5a3e3398a04b7ba856020526040600020935060039150612a0f565b60108316156122705760048101546000527fe58769b32a1beaf1ea27375a44095a0d1fb664ce2dd358e7fcbfb78c26a193446020526040600020935060049150612a0f565b60208316156122b55760058101546000527f0eb01ebfc9ed27500cd4dfc979272d1f0913cc9f66540d7e8005811109e1cf2d6020526040600020935060059150612a0f565b60408316156122fa5760068101546000527f887c22bd8750d34016ac3c66b5ff102dacdd73f6b014e710b51e8022af9a19686020526040600020935060069150612a0f565b608083161561233f5760078101546000527fffd70157e48063fc33c97a050f7f640233bf646cc98d9524c6b92bcf3ab56f836020526040600020935060079150612a0f565b6101008316156123855760088101546000527f9867cc5f7f196b93bae1e27e6320742445d290f2263827498b54fec539f756af6020526040600020935060089150612a0f565b6102008316156123cb5760098101546000527fcefad4e508c098b9a7e1d8feb19955fb02ba9675585078710969d3440f5054e06020526040600020935060099150612a0f565b61040083161561241157600a8101546000527ff9dc3e7fe016e050eff260334f18a5d4fe391d82092319f5964f2e2eb7c1c3a560205260406000209350600a9150612a0f565b61080083161561245757600b8101546000527ff8b13a49e282f609c317a833fb8d976d11517c571d1221a265d25af778ecf89260205260406000209350600b9150612a0f565b61100083161561249d57600c8101546000527f3490c6ceeb450aecdc82e28293031d10c7d73bf85e57bf041a97360aa2c5d99c60205260406000209350600c9150612a0f565b6120008316156124e357600d8101546000527fc1df82d9c4b87413eae2ef048f94b4d3554cea73d92b0f7af96e0271c691e2bb60205260406000209350600d9150612a0f565b61400083161561252957600e8101546000527f5c67add7c6caf302256adedf7ab114da0acfe870d449a3a489f781d659e8becc60205260406000209350600e9150612a0f565b61800083161561256f57600f8101546000527fda7bce9f4e8618b6bd2f4132ce798cdc7a60e7e1460a7299e3c6342a579626d260205260406000209350600f9150612a0f565b620100008316156125b65760108101546000527f2733e50f526ec2fa19a22b31e8ed50f23cd1fdf94c9154ed3a7609a2f1ff981f6020526040600020935060109150612a0f565b620200008316156125fd5760118101546000527fe1d3b5c807b281e4683cc6d6315cf95b9ade8641defcb32372f1c126e398ef7a6020526040600020935060119150612a0f565b620400008316156126445760128101546000527f5a2dce0a8a7f68bb74560f8f71837c2c2ebbcbf7fffb42ae1896f13f7c7479a06020526040600020935060129150612a0f565b6208000083161561268b5760138101546000527fb46a28b6f55540f89444f63de0378e3d121be09e06cc9ded1c20e65876d36aa06020526040600020935060139150612a0f565b621000008316156126d25760148101546000527fc65e9645644786b620e2dd2ad648ddfcbf4a7e5b1a3a4ecfe7f64667a3f0b7e26020526040600020935060149150612a0f565b622000008316156127195760158101546000527ff4418588ed35a2458cffeb39b93d26f18d2ab13bdce6aee58e7b99359ec2dfd96020526040600020935060159150612a0f565b624000008316156127605760168101546000527f5a9c16dc00d6ef18b7933a6f8dc65ccb55667138776f7dea101070dc8796e3776020526040600020935060169150612a0f565b628000008316156127a75760178101546000527f4df84f40ae0c8229d0d6069e5c8f39a7c299677a09d367fc7b05e3bc380ee6526020526040600020935060179150612a0f565b63010000008316156127ef5760188101546000527fcdc72595f74c7b1043d0e1ffbab734648c838dfb0527d971b602bc216c9619ef6020526040600020935060189150612a0f565b63020000008316156128375760198101546000527f0abf5ac974a1ed57f4050aa510dd9c74f508277b39d7973bb2dfccc5eeb0618d6020526040600020935060199150612a0f565b630400000083161561287f57601a8101546000527fb8cd74046ff337f0a7bf2c8e03e10f642c1886798d71806ab1e888d9e5ee87d060205260406000209350601a9150612a0f565b63080000008316156128c757601b8101546000527f838c5655cb21c6cb83313b5a631175dff4963772cce9108188b34ac87c81c41e60205260406000209350601b9150612a0f565b631000000083161561290f57601c8101546000527f662ee4dd2dd7b2bc707961b1e646c4047669dcb6584f0d8d770daf5d7e7deb2e60205260406000209350601c9150612a0f565b632000000083161561295757601d8101546000527f388ab20e2573d171a88108e79d820e98f26c0b84aa8b2f4aa4968dbb818ea32260205260406000209350601d9150612a0f565b634000000083161561299f57601e8101546000527f93237c50ba75ee485f4c22adf2f741400bdf8d6a9cc7df7ecae576221665d73560205260406000209350601e9150612a0f565b63800000008316156129e757601f8101546000527f8448818bb4ae4562849e949e17ac16e0be16688e156b5cf15e098c627c0056a960205260406000209350601f9150612a0f565b7f27ae5ba08d7291c96c8cbddcc148bf48a6d68c7974b94356f53754ef6171d7579350602091505b601e82116134b1576001821015612a6d57600283168015612a3b57600182015460005284602052612a64565b846000527fad3228b676f7d3cd4284a5443f17f1962b36e491b30a40b2405849e597ba5fb56020525b50604060002093505b6002821015612ac357600483168015612a9157600282015460005284602052612aba565b846000527fb4c11951957c6f8f642c4af61cd6b24640fec6dc7fc607ee8206a99e92410d306020525b50604060002093505b6003821015612b1957600883168015612ae757600382015460005284602052612b10565b846000527f21ddb9a356815c3fac1026b6dec5df3124afbadb485c9ba5a3e3398a04b7ba856020525b50604060002093505b6004821015612b6f57601083168015612b3d57600482015460005284602052612b66565b846000527fe58769b32a1beaf1ea27375a44095a0d1fb664ce2dd358e7fcbfb78c26a193446020525b50604060002093505b6005821015612bc557602083168015612b9357600582015460005284602052612bbc565b846000527f0eb01ebfc9ed27500cd4dfc979272d1f0913cc9f66540d7e8005811109e1cf2d6020525b50604060002093505b6006821015612c1b57604083168015612be957600682015460005284602052612c12565b846000527f887c22bd8750d34016ac3c66b5ff102dacdd73f6b014e710b51e8022af9a19686020525b50604060002093505b6007821015612c7157608083168015612c3f57600782015460005284602052612c68565b846000527fffd70157e48063fc33c97a050f7f640233bf646cc98d9524c6b92bcf3ab56f836020525b50604060002093505b6008821015612cc85761010083168015612c9657600882015460005284602052612cbf565b846000527f9867cc5f7f196b93bae1e27e6320742445d290f2263827498b54fec539f756af6020525b50604060002093505b6009821015612d1f5761020083168015612ced57600982015460005284602052612d16565b846000527fcefad4e508c098b9a7e1d8feb19955fb02ba9675585078710969d3440f5054e06020525b50604060002093505b600a821015612d765761040083168015612d4457600a82015460005284602052612d6d565b846000527ff9dc3e7fe016e050eff260334f18a5d4fe391d82092319f5964f2e2eb7c1c3a56020525b50604060002093505b600b821015612dcd5761080083168015612d9b57600b82015460005284602052612dc4565b846000527ff8b13a49e282f609c317a833fb8d976d11517c571d1221a265d25af778ecf8926020525b50604060002093505b600c821015612e245761100083168015612df257600c82015460005284602052612e1b565b846000527f3490c6ceeb450aecdc82e28293031d10c7d73bf85e57bf041a97360aa2c5d99c6020525b50604060002093505b600d821015612e7b5761200083168015612e4957600d82015460005284602052612e72565b846000527fc1df82d9c4b87413eae2ef048f94b4d3554cea73d92b0f7af96e0271c691e2bb6020525b50604060002093505b600e821015612ed25761400083168015612ea057600e82015460005284602052612ec9565b846000527f5c67add7c6caf302256adedf7ab114da0acfe870d449a3a489f781d659e8becc6020525b50604060002093505b600f821015612f295761800083168015612ef757600f82015460005284602052612f20565b846000527fda7bce9f4e8618b6bd2f4132ce798cdc7a60e7e1460a7299e3c6342a579626d26020525b50604060002093505b6010821015612f81576201000083168015612f4f57601082015460005284602052612f78565b846000527f2733e50f526ec2fa19a22b31e8ed50f23cd1fdf94c9154ed3a7609a2f1ff981f6020525b50604060002093505b6011821015612fd9576202000083168015612fa757601182015460005284602052612fd0565b846000527fe1d3b5c807b281e4683cc6d6315cf95b9ade8641defcb32372f1c126e398ef7a6020525b50604060002093505b6012821015613031576204000083168015612fff57601282015460005284602052613028565b846000527f5a2dce0a8a7f68bb74560f8f71837c2c2ebbcbf7fffb42ae1896f13f7c7479a06020525b50604060002093505b601382101561308957620800008316801561305757601382015460005284602052613080565b846000527fb46a28b6f55540f89444f63de0378e3d121be09e06cc9ded1c20e65876d36aa06020525b50604060002093505b60148210156130e15762100000831680156130af576014820154600052846020526130d8565b846000527fc65e9645644786b620e2dd2ad648ddfcbf4a7e5b1a3a4ecfe7f64667a3f0b7e26020525b50604060002093505b601582101561313957622000008316801561310757601582015460005284602052613130565b846000527ff4418588ed35a2458cffeb39b93d26f18d2ab13bdce6aee58e7b99359ec2dfd96020525b50604060002093505b601682101561319157624000008316801561315f57601682015460005284602052613188565b846000527f5a9c16dc00d6ef18b7933a6f8dc65ccb55667138776f7dea101070dc8796e3776020525b50604060002093505b60178210156131e95762800000831680156131b7576017820154600052846020526131e0565b846000527f4df84f40ae0c8229d0d6069e5c8f39a7c299677a09d367fc7b05e3bc380ee6526020525b50604060002093505b60188210156132425763010000008316801561321057601882015460005284602052613239565b846000527fcdc72595f74c7b1043d0e1ffbab734648c838dfb0527d971b602bc216c9619ef6020525b50604060002093505b601982101561329b5763020000008316801561326957601982015460005284602052613292565b846000527f0abf5ac974a1ed57f4050aa510dd9c74f508277b39d7973bb2dfccc5eeb0618d6020525b50604060002093505b601a8210156132f4576304000000831680156132c257601a820154600052846020526132eb565b846000527fb8cd74046ff337f0a7bf2c8e03e10f642c1886798d71806ab1e888d9e5ee87d06020525b50604060002093505b601b82101561334d5763080000008316801561331b57601b82015460005284602052613344565b846000527f838c5655cb21c6cb83313b5a631175dff4963772cce9108188b34ac87c81c41e6020525b50604060002093505b601c8210156133a65763100000008316801561337457601c8201546000528460205261339d565b846000527f662ee4dd2dd7b2bc707961b1e646c4047669dcb6584f0d8d770daf5d7e7deb2e6020525b50604060002093505b601d8210156133ff576320000000831680156133cd57601d820154600052846020526133f6565b846000527f388ab20e2573d171a88108e79d820e98f26c0b84aa8b2f4aa4968dbb818ea3226020525b50604060002093505b601e8210156134585763400000008316801561342657601e8201546000528460205261344f565b846000527f93237c50ba75ee485f4c22adf2f741400bdf8d6a9cc7df7ecae576221665d7356020525b50604060002093505b601f8210156134b15763800000008316801561347f57601f820154600052846020526134a8565b846000527f8448818bb4ae4562849e949e17ac16e0be16688e156b5cf15e098c627c0056a96020525b50604060002093505b505050919050565b60006134ce6001600160a01b03841683613af4565b905080516000141580156134f35750808060200190518101906134f19190613fba565b155b1561061257604051635274afe760e01b81526001600160a01b03841660048201526024016106c8565b600061eeed196001600160a01b0384160161354257506001600160a01b03811631611f3d565b6040516370a0823160e01b81526001600160a01b0383811660048301528416906370a0823190602401602060405180830381865afa158015613588573d6000803e3d6000fd5b505050506040513d601f19601f820116820180604052508101906135ac9190613fa1565b9392505050565b60408051602081018590529081018390526001600160a01b03821660608201526000906080016040516020818303038152906040528051906020012090509392505050565b613600613c35565b6000836020018051613611906141a1565b90819052905060016136256020600261429e565b61362f91906140a5565b81111561364f57604051638eab04bb60e01b815260040160405180910390fd5b60005b60208110156136e4578160011660010361368b5784518490826020811061367b5761367b613eba565b602002015250839150611f3d9050565b8451816020811061369e5761369e613eba565b6020020151846040516020016136be929190918252602082015260400190565b60408051601f1981840301815291905280516020909101209350600191821c9101613652565b50604051638eab04bb60e01b815260040160405180910390fd5b6020600582811b8216948552835194820394909452604060008181206002851615871b808503919091528386015190528181206004851615871b808503919091528286015190528181206008851615871b80850391909152606086015190528181206010851615871b8085039190915260808087015190915282822084861615881b8086039190915260a0870151905282822083861615881b8086039190915260c0870151905282822090851615871b8085039190915260e0860151905281812061010080861615881b80860392909252860151905281812061020080861615881b80860392909252610120870151909152828220610400861615881b808603919091526101408701519052828220610800861615881b808603919091526101608701519052828220611000861615881b808603919091526101808701519052828220612000861615881b808603919091526101a08701519052828220614000861615881b808603919091526101c08701519052828220618000861615881b808603919091526101e0870151905282822062010000861615881b8086039190915290860151905281812062020000851615871b80850391909152610220860151905281812062040000851615871b80850391909152610240860151905281812062080000851615871b80850391909152610260860151905281812062100000851615871b80850391909152610280860151905281812062200000851615871b808503919091526102a0860151905281812062400000851615871b808503919091526102c0860151905281812062800000851615871b808503919091526102e086015190528181206301000000851615871b8085039190915261030086015190528181206302000000851615871b8085039190915261032086015190528181206304000000851615871b8085039190915261034086015190528181206308000000851615871b8085039190915261036086015190528181206310000000851615871b8085039190915261038086015190528181206320000000851615871b808503919091526103a086015190528181206340000000851615871b808503919091526103c0860151905281812063800000009094161590951b91829003929092526103e090920151909152902090565b6000806000846001600160a01b031684604051613a6991906142aa565b6000604051808303816000865af19150503d8060008114613aa6576040519150601f19603f3d011682016040523d82523d6000602084013e613aab565b606091505b5091509150818015613ad5575080511580613ad5575080806020019051810190613ad59190613fba565b8015613aeb57506000856001600160a01b03163b115b95945050505050565b60606135ac8383600084600080856001600160a01b03168486604051613b1a91906142aa565b60006040518083038185875af1925050503d8060008114613b57576040519150601f19603f3d011682016040523d82523d6000602084013e613b5c565b606091505b5091509150613b6c868383613b76565b9695505050505050565b606082613b8b57613b8682613bd2565b6135ac565b8151158015613ba257506001600160a01b0384163b155b15613bcb57604051639996b31560e01b81526001600160a01b03851660048201526024016106c8565b50806135ac565b805115613be25780518082602001fd5b604051630a12f52160e11b815260040160405180910390fd5b8260208101928215613c29579160200282015b82811115613c29578251825591602001919060010190613c0e565b50610b7d929150613c55565b6040518060400160405280613c48613c6a565b8152602001600081525090565b5b80821115610b7d5760008155600101613c56565b6040518061040001604052806020906020820280368337509192915050565b60008060208385031215613c9c57600080fd5b82356001600160401b0380821115613cb357600080fd5b818501915085601f830112613cc757600080fd5b813581811115613cd657600080fd5b8660208260071b8501011115613ceb57600080fd5b60209290920196919550909350505050565b600060808284031215613d0f57600080fd5b50919050565b600060808284031215613d2757600080fd5b6135ac8383613cfd565b6001600160a01b0381168114610bf757600080fd5b60008060008060808587031215613d5c57600080fd5b843593506020850135613d6e81613d31565b9250604085013591506060850135613d8581613d31565b939692955090935050565b600060208284031215613da257600080fd5b81356135ac81613d31565b6001600160401b038416815260208082018490528251610460830191906000604085015b83821015613def578251815291830191600191909101908301613dd1565b505050506020830151610440830152949350505050565b60006104a08284031215613d0f57600080fd5b60008060208385031215613e2c57600080fd5b82356001600160401b0380821115613e4357600080fd5b818501915085601f830112613e5757600080fd5b813581811115613e6657600080fd5b8660206104a083028501011115613ceb57600080fd5b634e487b7160e01b600052602160045260246000fd5b6020810160028310613eb457634e487b7160e01b600052602160045260246000fd5b91905290565b634e487b7160e01b600052603260045260246000fd5b600060208284031215613ee257600080fd5b813563ffffffff811681146135ac57600080fd5b600060208284031215613f0857600080fd5b81516135ac81613d31565b634e487b7160e01b600052601160045260246000fd5b80820180821115611f3d57611f3d613f13565b6001600160401b0381168114610bf757600080fd5b600060208284031215613f6357600080fd5b81356135ac81613f3c565b8135613f7981613f3c565b6001600160401b0381166001600160401b031983541617825550602082013560018201555050565b600060208284031215613fb357600080fd5b5051919050565b600060208284031215613fcc57600080fd5b815180151581146135ac57600080fd5b60006001600160401b03808316818103613ff857613ff8613f13565b6001019392505050565b60005b8381101561401d578181015183820152602001614005565b50506000910152565b6000815180845261403e816020860160208601614002565b601f01601f19169290920160200192915050565b6001600160a01b0387811682528681166020830152851660408201526060810184905263ffffffff8316608082015260c060a0820181905260009061409990830184614026565b98975050505050505050565b81810381811115611f3d57611f3d613f13565b6001600160a01b03841681526060602082018190526000906140dc90830185614026565b905063ffffffff83166040830152949350505050565b600060018060a01b03808a168352886020840152808816604084015286606084015285608084015280851660a08401525060e060c083015261413760e0830184614026565b9998505050505050505050565b634e487b7160e01b600052600160045260246000fd5b86815260018060a01b0386166020820152846040820152831515606082015260c06080820152600061418f60c0830185614026565b82810360a08401526141378185614026565b6000600182016141b3576141b3613f13565b5060010190565b600181815b808511156141f55781600019048211156141db576141db613f13565b808516156141e857918102915b93841c93908002906141bf565b509250929050565b60008261420c57506001611f3d565b8161421957506000611f3d565b816001811461422f576002811461423957614255565b6001915050611f3d565b60ff84111561424a5761424a613f13565b50506001821b611f3d565b5060208310610133831016604e8410600b8410161715614278575081810a611f3d565b61428283836141ba565b806000190482111561429657614296613f13565b029392505050565b60006135ac83836141fd565b600082516142bc818460208701614002565b919091019291505056fea2646970667358221220437e0a503e932711e0198373a5c155f51e392b1e6013c0538220a4a191424b6f64736f6c63430008170033a2646970667358221220aeb31ad03cb351f100bc96c01340271eab637070eb8abaa755e253454521d8d864736f6c63430008170033",
			"deployedBytecode": "0x608060405234801561001057600080fd5b506004361061007d5760003560e01c8063c39ec1241161005b578063c39ec124146100dc578063cc8b6f4f1461010f578063ee9a31a214610124578063f434c9141461013757600080fd5b80631213036614610082578063927ede2d146100b2578063ba8b1d1a146100c5575b600080fd5b6100956100903660046102ed565b61015e565b6040516001600160a01b0390911681526020015b60405180910390f35b600054610095906001600160a01b031681565b6100ce60035481565b6040519081526020016100a9565b6100ff6100ea366004610327565b60026020526000908152604090205460ff1681565b60405190151581526020016100a9565b61012261011d36600461034b565b610271565b005b600154610095906001600160a01b031681565b6100957f0000000000000000000000001e2e8562b635fe19978640c784e47865a83d660581565b6040516bffffffffffffffffffffffff193360601b1660208201526034810182905260009060540160405160208183030381529060405280519060200120915082600381905550817f000000000000000000000000cd8c4da77dfb15c05486d3f71ee4c2c0dfdbc94e7f000000000000000000000000792b79adb4aa06eddabd6ddef5ee06dcb946f4367f0000000000000000000000001e2e8562b635fe19978640c784e47865a83d6605600080604051610218906102e0565b610226959493929190610384565b8190604051809103906000f5905080158015610246573d6000803e3d6000fd5b506001600160a01b0381166000908152600260205260409020805460ff191660011790559392505050565b6000546001600160a01b031615158061029457506001546001600160a01b031615155b156102b25760405163ccbe17fd60e01b815260040160405180910390fd5b600080546001600160a01b039384166001600160a01b03199182161790915560018054929093169116179055565b614746806103db83390190565b6000806040838503121561030057600080fd5b50508035926020909101359150565b6001600160a01b038116811461032457600080fd5b50565b60006020828403121561033957600080fd5b81356103448161030f565b9392505050565b6000806040838503121561035e57600080fd5b82356103698161030f565b915060208301356103798161030f565b809150509250929050565b6001600160a01b038681168252858116602083015284811660408301528316606082015260a08101600283106103ca57634e487b7160e01b600052602160045260246000fd5b826080830152969550505050505056fe6101a06040523480156200001257600080fd5b50604051620047463803806200474683398101604081905262000035916200022d565b6001600160a01b0380841660805280861660c05280851660e052859085908590859085908590859085908590859082161562000072578162000074565b305b6001600160a01b03166101205260408051635d458e8d60e11b81529051339163ba8b1d1a9160048083019260209291908290030181865afa158015620000be573d6000803e3d6000fd5b505050506040513d601f19601f82011682018060405250810190620000e49190620002b0565b610140523361010052806001811115620001025762000102620002ca565b60a0816001811115620001195762000119620002ca565b9052505050505050336001600160a01b031663927ede2d6040518163ffffffff1660e01b8152600401602060405180830381865afa15801562000160573d6000803e3d6000fd5b505050506040513d601f19601f82011682018060405250810190620001869190620002e0565b6001600160a01b0316610160526040805163774d18d160e11b81529051339163ee9a31a29160048083019260209291908290030181865afa158015620001d0573d6000803e3d6000fd5b505050506040513d601f19601f82011682018060405250810190620001f69190620002e0565b6001600160a01b031661018052506200030798505050505050505050565b6001600160a01b03811681146200022a57600080fd5b50565b600080600080600060a086880312156200024657600080fd5b8551620002538162000214565b6020870151909550620002668162000214565b6040870151909450620002798162000214565b60608701519093506200028c8162000214565b608087015190925060028110620002a257600080fd5b809150509295509295909350565b600060208284031215620002c357600080fd5b5051919050565b634e487b7160e01b600052602160045260246000fd5b600060208284031215620002f357600080fd5b8151620003008162000214565b9392505050565b60805160a05160c05160e05161010051610120516101405161016051610180516142fc6200044a600039600081816101d5015281816113eb015261143a0152600081816105bd0152818161158f01528181611e4a0152611eb0015260008181610249015281816107cc01528181610849015281816109e601528181610e6f01528181610f180152818161172c015281816117f10152818161186e01528181611afa01528181611bb301528181611cb50152611ddd0152600081816103ae0152818161146b015281816115ba0152611e86015260006104880152600081816101620152610a0f01526000818161037a0152818161073d01528181610e95015281816117670152611b290152600081816104bc01528181610b8501528181610e11015261102a015260008181610589015281816111d5015261127e01526142fc6000f3fe6080604052600436106101445760003560e01c806388bc2ef3116100b6578063c1b8411a1161006f578063c1b8411a14610476578063c6525f2c146104aa578063e7f82c75146104eb578063ed0e26b914610518578063f434c91414610577578063fc8fa43d146105ab57600080fd5b806388bc2ef314610368578063ad42938b1461039c578063b59ef50f146103d0578063b71c1179146103f0578063bf557aee14610403578063c18541291461045657600080fd5b806356539f391161010857806356539f391461023757806361c864171461027957806369ce22331461028e57806369d31fdd146102ae5780636dfa7268146102c15780637de6fba2146102f057600080fd5b80631d831d5c146101505780632241dc52146101a15780632847f1f3146101c357806338eb2044146101f7578063551ebbf01461021757600080fd5b3661014b57005b600080fd5b34801561015c57600080fd5b506101847f000000000000000000000000000000000000000000000000000000000000000081565b6040516001600160a01b0390911681526020015b60405180910390f35b3480156101ad57600080fd5b506101c16101bc366004613c89565b6105df565b005b3480156101cf57600080fd5b506101847f000000000000000000000000000000000000000000000000000000000000000081565b34801561020357600080fd5b506101c1610212366004613d15565b610617565b34801561022357600080fd5b506101c1610232366004613d46565b6109b0565b34801561024357600080fd5b5061026b7f000000000000000000000000000000000000000000000000000000000000000081565b604051908152602001610198565b34801561028557600080fd5b5061026b610b2f565b34801561029a57600080fd5b506101c16102a9366004613d90565b610b81565b6101c16102bc366004613d15565b610bfa565b3480156102cd57600080fd5b506102e16102dc366004613d90565b610d6b565b60405161019893929190613dad565b3480156102fc57600080fd5b5061033e61030b366004613d90565b6003602052600090815260409020805460019091015463ffffffff82169164010000000090046001600160a01b03169083565b6040805163ffffffff90941684526001600160a01b03909216602084015290820152606001610198565b34801561037457600080fd5b506101847f000000000000000000000000000000000000000000000000000000000000000081565b3480156103a857600080fd5b506101847f000000000000000000000000000000000000000000000000000000000000000081565b3480156103dc57600080fd5b506101c16103eb366004613e06565b610dd5565b6101c16103fe366004613d90565b6110a9565b34801561040f57600080fd5b5061044661041e366004613d90565b6001600160a01b03908116600090815260036020526040902054640100000000900416151590565b6040519015158152602001610198565b34801561046257600080fd5b506101c1610471366004613e19565b611157565b34801561048257600080fd5b506101847f000000000000000000000000000000000000000000000000000000000000000081565b3480156104b657600080fd5b506104de7f000000000000000000000000000000000000000000000000000000000000000081565b6040516101989190613e92565b3480156104f757600080fd5b5061026b610506366004613d90565b60026020526000908152604090205481565b34801561052457600080fd5b50610558610533366004613d90565b600160208190526000918252604090912080549101546001600160401b039091169082565b604080516001600160401b039093168352602083019190915201610198565b34801561058357600080fd5b506101847f000000000000000000000000000000000000000000000000000000000000000081565b3480156105b757600080fd5b506101847f000000000000000000000000000000000000000000000000000000000000000081565b60005b818110156106125761060a8383838181106105ff576105ff613eba565b905060800201610617565b6001016105e2565b505050565b60006106266020830183613d90565b9050600061eeee61063a6020850185613d90565b6001600160a01b031614905080801561066d575061eeee6106616060850160408601613d90565b6001600160a01b031614155b8015610692575060006106866060850160408601613d90565b6001600160a01b031614155b156106d1576106a76060840160408501613d90565b604051630a0a3b6b60e31b81526001600160a01b0390911660048201526024015b60405180910390fd5b62030d406106e56040850160208601613ed0565b63ffffffff161080156106f6575080155b156107385762030d4061070f6040850160208601613ed0565b604051634f3dbeb360e11b815263ffffffff9283166004820152911660248201526044016106c8565b61086f7f00000000000000000000000000000000000000000000000000000000000000006001600160a01b031663293c49996040518163ffffffff1660e01b8152600401602060405180830381865afa158015610799573d6000803e3d6000fd5b505050506040513d601f19601f820116820180604052508101906107bd9190613ef6565b6040516331a9108f60e11b81527f000000000000000000000000000000000000000000000000000000000000000060048201526001600160a01b039190911690636352211e90602401602060405180830381865afa158015610823573d6000803e3d6000fd5b505050506040513d601f19601f820116820180604052508101906108479190613ef6565b7f0000000000000000000000000000000000000000000000000000000000000000601c61118b565b60006108816060850160408601613d90565b6001600160a01b03161480156108b157506001600160a01b03821660009081526020819052604090206001015415155b1561090c576001600160a01b0380831660009081526003602090815260408083208151606081018352815463ffffffff811682526401000000009004909516928501929092526001909101549083015261090c91849061130f565b604051806060016040528084602001602081019061092a9190613ed0565b63ffffffff1681526020016109456060860160408701613d90565b6001600160a01b0390811682526060909501356020918201529284166000908152600384526040908190208251815495840151909616640100000000026001600160c01b031990951663ffffffff909616959095179390931784559091015160019092019190915550565b6001600160a01b0383166109d7576040516309a9c30b60e41b815260040160405180910390fd5b60405163ea78803f60e01b81527f000000000000000000000000000000000000000000000000000000000000000060048201526000907f00000000000000000000000000000000000000000000000000000000000000006001600160a01b03169063ea78803f90602401602060405180830381865afa158015610a5e573d6000803e3d6000fd5b505050506040513d601f19601f82011682018060405250810190610a829190613ef6565b90506001600160a01b038116610aab57604051635a33845560e01b815260040160405180910390fd5b6001600160a01b03828116600090815260036020526040902054640100000000900416610af65760405163393e175160e01b81526001600160a01b03831660048201526024016106c8565b610b0b6001600160a01b0382163330886116b6565b6000610b198287858761171d565b9050610b2786848388611910565b505050505050565b6000466001819003610b445761210591505090565b8061210503610b5557600191505090565b8062aa36a703610b695762014a3491505090565b8062014a3403610b7d5762aa36a791505090565b5090565b60007f00000000000000000000000000000000000000000000000000000000000000006001811115610bb557610bb5613e7c565b14610bd35760405163218a9a2d60e11b815260040160405180910390fd5b6001600160a01b038116600090815260026020526040902054610bf7908290611a94565b50565b610c0333611e46565b610c2057604051630439dbd360e51b815260040160405180910390fd5b60208101803590600290600090610c379085613d90565b6001600160a01b03166001600160a01b031681526020019081526020016000206000828254610c669190613f29565b90915550600190506000610c7d6020840184613d90565b6001600160a01b0316815260208101919091526040908101600020546001600160401b031690610cb39060608401908401613f51565b6001600160401b03161115610bf7576040810160016000610cd76020850185613d90565b6001600160a01b031681526020810191909152604001600020610cfa8282613f6e565b50610d0a90506020820182613d90565b6001600160a01b03167f551b6b99b4c48e3265d2885ab0d93779be2402293261e074f7bf74b2c8f45b6f610d446060840160408501613f51565b604080516001600160401b039092168252606085013560208301520160405180910390a250565b6000602081815291815260409081902080546001820154835161044081018086526001600160401b0390931695919490926002850192849283019184919082845b815481526020019060010190808311610dac575050509183525050602091820154910152905083565b610e0d6060820135610dea6020840184613d90565b6080840135610dff6060860160408701613d90565b602086013560a08701611f43565b60017f00000000000000000000000000000000000000000000000000000000000000006001811115610e4157610e41613e7c565b03610e6057610e60610e566020830183613d90565b6080830135611a94565b604051632eec7b5560e11b81527f000000000000000000000000000000000000000000000000000000000000000060048201527f00000000000000000000000000000000000000000000000000000000000000006001600160a01b031690635dd8f6aa90602401602060405180830381865afa158015610ee4573d6000803e3d6000fd5b505050506040513d601f19601f82011682018060405250810190610f089190613ef6565b6001600160a01b031663c7fb92de7f000000000000000000000000000000000000000000000000000000000000000060608401803590610f4b9060408701613d90565b6040516001600160e01b031960e086901b168152600481019390935260248301919091526001600160a01b0316604482015260a06064820152600060a48201819052608482015260c4016020604051808303816000875af1158015610fb4573d6000803e3d6000fd5b505050506040513d601f19601f82011682018060405250810190610fd89190613fa1565b507f487194902d206a126abe9f23a4e2b78d1600ed8034b1423290a13edd6ebc7d1461100a6060830160408401613d90565b6110176020840184613d90565b60608401356080850135602086013560017f0000000000000000000000000000000000000000000000000000000000000000600181111561105a5761105a613e7c565b14611066576000611069565b60015b604080516001600160a01b0397881681529690951660208701529385019290925260608401526080830152151560a082015260c00160405180910390a150565b6001600160a01b0380821660008181526003602090815260408083208151606081018352815463ffffffff811682526401000000009004909616868401526001908101548683018190529484529183905290912001541015611148576040808201516001600160a01b0384166000908152602081905282902060010154915163091df9e560e31b81526106c89290600401918252602082015260400190565b61115334838361130f565b5050565b60005b818110156106125761118383838381811061117757611177613eba565b90506104a00201610dd5565b60010161115a565b336001600160a01b0384168114801590611242575060405163c161c93f60e01b81526001600160a01b038281166004830152858116602483015260448201859052606482018490527f0000000000000000000000000000000000000000000000000000000000000000169063c161c93f90608401602060405180830381865afa15801561121c573d6000803e3d6000fd5b505050506040513d601f19601f820116820180604052508101906112409190613fba565b155b80156112eb575060405163c161c93f60e01b81526001600160a01b038281166004830152858116602483015260006044830152606482018490527f0000000000000000000000000000000000000000000000000000000000000000169063c161c93f90608401602060405180830381865afa1580156112c5573d6000803e3d6000fd5b505050506040513d601f19601f820116820180604052508101906112e99190613fba565b155b156113095760405163075fd2b160e01b815260040160405180910390fd5b50505050565b60008315611330576040516352864b0160e11b815260040160405180910390fd5b6001600160a01b038316600090815260208190526040812060018101805490839055815490929190829061136c906001600160401b0316613fdc565b91906101000a8154816001600160401b0302191690836001600160401b031602179055905060006001600160a01b031684602001516001600160a01b0316036113d35760405163393e175160e01b81526001600160a01b03861660048201526024016106c8565b6001600160a01b03851661eeee146114ce57611410857f000000000000000000000000000000000000000000000000000000000000000084612073565b6020808501518551604080519384018152600084525163540abf7360e01b81526001600160a01b037f0000000000000000000000000000000000000000000000000000000000000000169363540abf7393611497938b9391927f0000000000000000000000000000000000000000000000000000000000000000928a929190600401614052565b600060405180830381600087803b1580156114b157600080fd5b505af11580156114c5573d6000803e3d6000fd5b505050506114d2565b8192505b6001600160a01b03851660009081526020819052604081206114f690600201612103565b6001600160a01b03871660009081526020819052604081206022015491925090611522906001906140a5565b604080516060810182526020808a01516001600160a01b039081168352818301898152845180860186526001600160401b03808b1682528185018a9052858701918252955194518316602486015290516044850152518051909416606484015292015160848201529192507f00000000000000000000000000000000000000000000000000000000000000001690633dbb202b9087907f00000000000000000000000000000000000000000000000000000000000000009060a40160408051601f198184030181529181526020820180516001600160e01b03166369d31fdd60e01b179052516001600160e01b031960e086901b16815261162c929190620493e0906004016140b8565b6000604051808303818588803b15801561164557600080fd5b505af1158015611659573d6000803e3d6000fd5b5050604080518581526001600160401b03881660208201526001600160a01b038c1694508693507f3e069c1f498cba23d7d2b74b84311469e8da6e527cade62061d642c61b64e0de92500160405180910390a35050505050505050565b6040516001600160a01b0384811660248301528381166044830152606482018390526113099186918216906323b872dd906084015b604051602081830303815290604052915060e01b6020820180516001600160e01b0383818316178352505050506134b9565b604051630862026560e41b81527f000000000000000000000000000000000000000000000000000000000000000060048201526001600160a01b03838116602483015260009182917f00000000000000000000000000000000000000000000000000000000000000001690638620265090604401602060405180830381865afa1580156117ae573d6000803e3d6000fd5b505050506040513d601f19601f820116820180604052508101906117d29190613ef6565b90506001600160a01b03811661182c57604051630c9ae01360e01b81527f000000000000000000000000000000000000000000000000000000000000000060048201526001600160a01b03851660248201526044016106c8565b6000611838853061351c565b60408051602081018252600081529051635db90a7f60e11b81529192506001600160a01b0384169163bb7214fe9161189e9130917f0000000000000000000000000000000000000000000000000000000000000000918b918d918c9186916004016140f2565b6020604051808303816000875af11580156118bd573d6000803e3d6000fd5b505050506040513d601f19601f820116820180604052508101906118e19190613fa1565b9250806118ee863061351c565b6118f891906140a5565b831461190657611906614144565b5050949350505050565b600061191d8584846135b3565b6001600160a01b0385166000908152602081815260408083208151610440810180845295965093946119889487949093600290930192849290830191849182845b81548152602001906001019080831161195e575050509183525050602091820154910152906135f8565b6001600160a01b038616600090815260208181526040909120825192935083926002909101916119b9918391613bfb565b50602091820151908201556001600160a01b0386166000908152908190526040812060010180548692906119ee908490613f29565b92505081905550846001600160a01b0316836001600160a01b03167f7b58dbb78e7edc690b0688a53dea0c443d630c4a5db66c3c47d4ff2044c977288460018560200151611a3c91906140a5565b6001600160a01b038a166000908152602081905260409020611a6090600201612103565b60408051938452602084019290925290820152606081018a90526080810188905260a00160405180910390a3505050505050565b6001600160a01b03821660009081526002602052604090205480821115611ace57604051632858f9ab60e11b815260040160405180910390fd5b6001600160a01b03838116600081815260026020526040808220868603905551630862026560e41b81527f000000000000000000000000000000000000000000000000000000000000000060048201526024810192909252917f00000000000000000000000000000000000000000000000000000000000000001690638620265090604401602060405180830381865afa158015611b70573d6000803e3d6000fd5b505050506040513d601f19601f82011682018060405250810190611b949190613ef6565b90506001600160a01b038116611bee57604051630c9ae01360e01b81527f000000000000000000000000000000000000000000000000000000000000000060048201526001600160a01b03851660248201526044016106c8565b6001600160a01b03841661eeee14611d9e576040516370a0823160e01b81523060048201526000906001600160a01b038616906370a0823190602401602060405180830381865afa158015611c47573d6000803e3d6000fd5b505050506040513d601f19601f82011682018060405250810190611c6b9190613fa1565b9050611c78858386612073565b60408051602080820183526000808352835191820184528082529251639e6eec0560e01b81526001600160a01b03861693639e6eec0593611ce5937f0000000000000000000000000000000000000000000000000000000000000000938c938c939092909160040161415a565b600060405180830381600087803b158015611cff57600080fd5b505af1158015611d13573d6000803e3d6000fd5b505050508381611d2391906140a5565b6040516370a0823160e01b81523060048201526001600160a01b038716906370a0823190602401602060405180830381865afa158015611d67573d6000803e3d6000fd5b505050506040513d601f19601f82011682018060405250810190611d8b9190613fa1565b14611d9857611d98614144565b50611309565b60408051602080820183526000808352835191820184528082529251639e6eec0560e01b81526001600160a01b03851693639e6eec05938893611e0e937f0000000000000000000000000000000000000000000000000000000000000000938c938793919290919060040161415a565b6000604051808303818588803b158015611e2757600080fd5b505af1158015611e3b573d6000803e3d6000fd5b505050505050505050565b60007f00000000000000000000000000000000000000000000000000000000000000006001600160a01b0316826001600160a01b0316148015611f3d57507f00000000000000000000000000000000000000000000000000000000000000006001600160a01b03167f00000000000000000000000000000000000000000000000000000000000000006001600160a01b0316636e296e456040518163ffffffff1660e01b81526004016020604051808303816000875af1158015611f0e573d6000803e3d6000fd5b505050506040513d601f19601f82011682018060405250810190611f329190613ef6565b6001600160a01b0316145b92915050565b6001600160a01b0385166000908152600460209081526040808320600886901c8452909152902054600160ff84161b1615611f945760405163ed9bdd0760e01b8152600481018390526024016106c8565b6001600160a01b0385166000908152600460209081526040808320600886901c845290915281208054600160ff86161b179055612003611fd58887876135b3565b6040805161040081810190925290859060209083908390808284376000920191909152508791506136fe9050565b6001600160a01b03871660009081526001602081905260409091200154909150811461206a576001600160a01b0386166000908152600160208190526040918290200154905163286f87c960e21b81526004810191909152602481018290526044016106c8565b50505050505050565b604080516001600160a01b038416602482015260448082018490528251808303909101815260649091019091526020810180516001600160e01b031663095ea7b360e01b1790526120c48482613a4c565b611309576040516001600160a01b038481166024830152600060448301526120f991869182169063095ea7b3906064016116eb565b61130984826134b9565b602081015460009080820361213a57507f27ae5ba08d7291c96c8cbddcc148bf48a6d68c7974b94356f53754ef6171d75792915050565b600083600183161561215c578054600052600060205260406000209350612a0f565b60028316156121a15760018101546000527fad3228b676f7d3cd4284a5443f17f1962b36e491b30a40b2405849e597ba5fb56020526040600020935060019150612a0f565b60048316156121e65760028101546000527fb4c11951957c6f8f642c4af61cd6b24640fec6dc7fc607ee8206a99e92410d306020526040600020935060029150612a0f565b600883161561222b5760038101546000527f21ddb9a356815c3fac1026b6dec5df3124afbadb485c9ba5a3e3398a04b7ba856020526040600020935060039150612a0f565b60108316156122705760048101546000527fe58769b32a1beaf1ea27375a44095a0d1fb664ce2dd358e7fcbfb78c26a193446020526040600020935060049150612a0f565b60208316156122b55760058101546000527f0eb01ebfc9ed27500cd4dfc979272d1f0913cc9f66540d7e8005811109e1cf2d6020526040600020935060059150612a0f565b60408316156122fa5760068101546000527f887c22bd8750d34016ac3c66b5ff102dacdd73f6b014e710b51e8022af9a19686020526040600020935060069150612a0f565b608083161561233f5760078101546000527fffd70157e48063fc33c97a050f7f640233bf646cc98d9524c6b92bcf3ab56f836020526040600020935060079150612a0f565b6101008316156123855760088101546000527f9867cc5f7f196b93bae1e27e6320742445d290f2263827498b54fec539f756af6020526040600020935060089150612a0f565b6102008316156123cb5760098101546000527fcefad4e508c098b9a7e1d8feb19955fb02ba9675585078710969d3440f5054e06020526040600020935060099150612a0f565b61040083161561241157600a8101546000527ff9dc3e7fe016e050eff260334f18a5d4fe391d82092319f5964f2e2eb7c1c3a560205260406000209350600a9150612a0f565b61080083161561245757600b8101546000527ff8b13a49e282f609c317a833fb8d976d11517c571d1221a265d25af778ecf89260205260406000209350600b9150612a0f565b61100083161561249d57600c8101546000527f3490c6ceeb450aecdc82e28293031d10c7d73bf85e57bf041a97360aa2c5d99c60205260406000209350600c9150612a0f565b6120008316156124e357600d8101546000527fc1df82d9c4b87413eae2ef048f94b4d3554cea73d92b0f7af96e0271c691e2bb60205260406000209350600d9150612a0f565b61400083161561252957600e8101546000527f5c67add7c6caf302256adedf7ab114da0acfe870d449a3a489f781d659e8becc60205260406000209350600e9150612a0f565b61800083161561256f57600f8101546000527fda7bce9f4e8618b6bd2f4132ce798cdc7a60e7e1460a7299e3c6342a579626d260205260406000209350600f9150612a0f565b620100008316156125b65760108101546000527f2733e50f526ec2fa19a22b31e8ed50f23cd1fdf94c9154ed3a7609a2f1ff981f6020526040600020935060109150612a0f565b620200008316156125fd5760118101546000527fe1d3b5c807b281e4683cc6d6315cf95b9ade8641defcb32372f1c126e398ef7a6020526040600020935060119150612a0f565b620400008316156126445760128101546000527f5a2dce0a8a7f68bb74560f8f71837c2c2ebbcbf7fffb42ae1896f13f7c7479a06020526040600020935060129150612a0f565b6208000083161561268b5760138101546000527fb46a28b6f55540f89444f63de0378e3d121be09e06cc9ded1c20e65876d36aa06020526040600020935060139150612a0f565b621000008316156126d25760148101546000527fc65e9645644786b620e2dd2ad648ddfcbf4a7e5b1a3a4ecfe7f64667a3f0b7e26020526040600020935060149150612a0f565b622000008316156127195760158101546000527ff4418588ed35a2458cffeb39b93d26f18d2ab13bdce6aee58e7b99359ec2dfd96020526040600020935060159150612a0f565b624000008316156127605760168101546000527f5a9c16dc00d6ef18b7933a6f8dc65ccb55667138776f7dea101070dc8796e3776020526040600020935060169150612a0f565b628000008316156127a75760178101546000527f4df84f40ae0c8229d0d6069e5c8f39a7c299677a09d367fc7b05e3bc380ee6526020526040600020935060179150612a0f565b63010000008316156127ef5760188101546000527fcdc72595f74c7b1043d0e1ffbab734648c838dfb0527d971b602bc216c9619ef6020526040600020935060189150612a0f565b63020000008316156128375760198101546000527f0abf5ac974a1ed57f4050aa510dd9c74f508277b39d7973bb2dfccc5eeb0618d6020526040600020935060199150612a0f565b630400000083161561287f57601a8101546000527fb8cd74046ff337f0a7bf2c8e03e10f642c1886798d71806ab1e888d9e5ee87d060205260406000209350601a9150612a0f565b63080000008316156128c757601b8101546000527f838c5655cb21c6cb83313b5a631175dff4963772cce9108188b34ac87c81c41e60205260406000209350601b9150612a0f565b631000000083161561290f57601c8101546000527f662ee4dd2dd7b2bc707961b1e646c4047669dcb6584f0d8d770daf5d7e7deb2e60205260406000209350601c9150612a0f565b632000000083161561295757601d8101546000527f388ab20e2573d171a88108e79d820e98f26c0b84aa8b2f4aa4968dbb818ea32260205260406000209350601d9150612a0f565b634000000083161561299f57601e8101546000527f93237c50ba75ee485f4c22adf2f741400bdf8d6a9cc7df7ecae576221665d73560205260406000209350601e9150612a0f565b63800000008316156129e757601f8101546000527f8448818bb4ae4562849e949e17ac16e0be16688e156b5cf15e098c627c0056a960205260406000209350601f9150612a0f565b7f27ae5ba08d7291c96c8cbddcc148bf48a6d68c7974b94356f53754ef6171d7579350602091505b601e82116134b1576001821015612a6d57600283168015612a3b57600182015460005284602052612a64565b846000527fad3228b676f7d3cd4284a5443f17f1962b36e491b30a40b2405849e597ba5fb56020525b50604060002093505b6002821015612ac357600483168015612a9157600282015460005284602052612aba565b846000527fb4c11951957c6f8f642c4af61cd6b24640fec6dc7fc607ee8206a99e92410d306020525b50604060002093505b6003821015612b1957600883168015612ae757600382015460005284602052612b10565b846000527f21ddb9a356815c3fac1026b6dec5df3124afbadb485c9ba5a3e3398a04b7ba856020525b50604060002093505b6004821015612b6f57601083168015612b3d57600482015460005284602052612b66565b846000527fe58769b32a1beaf1ea27375a44095a0d1fb664ce2dd358e7fcbfb78c26a193446020525b50604060002093505b6005821015612bc557602083168015612b9357600582015460005284602052612bbc565b846000527f0eb01ebfc9ed27500cd4dfc979272d1f0913cc9f66540d7e8005811109e1cf2d6020525b50604060002093505b6006821015612c1b57604083168015612be957600682015460005284602052612c12565b846000527f887c22bd8750d34016ac3c66b5ff102dacdd73f6b014e710b51e8022af9a19686020525b50604060002093505b6007821015612c7157608083168015612c3f57600782015460005284602052612c68565b846000527fffd70157e48063fc33c97a050f7f640233bf646cc98d9524c6b92bcf3ab56f836020525b50604060002093505b6008821015612cc85761010083168015612c9657600882015460005284602052612cbf565b846000527f9867cc5f7f196b93bae1e27e6320742445d290f2263827498b54fec539f756af6020525b50604060002093505b6009821015612d1f5761020083168015612ced57600982015460005284602052612d16565b846000527fcefad4e508c098b9a7e1d8feb19955fb02ba9675585078710969d3440f5054e06020525b50604060002093505b600a821015612d765761040083168015612d4457600a82015460005284602052612d6d565b846000527ff9dc3e7fe016e050eff260334f18a5d4fe391d82092319f5964f2e2eb7c1c3a56020525b50604060002093505b600b821015612dcd5761080083168015612d9b57600b82015460005284602052612dc4565b846000527ff8b13a49e282f609c317a833fb8d976d11517c571d1221a265d25af778ecf8926020525b50604060002093505b600c821015612e245761100083168015612df257600c82015460005284602052612e1b565b846000527f3490c6ceeb450aecdc82e28293031d10c7d73bf85e57bf041a97360aa2c5d99c6020525b50604060002093505b600d821015612e7b5761200083168015612e4957600d82015460005284602052612e72565b846000527fc1df82d9c4b87413eae2ef048f94b4d3554cea73d92b0f7af96e0271c691e2bb6020525b50604060002093505b600e821015612ed25761400083168015612ea057600e82015460005284602052612ec9565b846000527f5c67add7c6caf302256adedf7ab114da0acfe870d449a3a489f781d659e8becc6020525b50604060002093505b600f821015612f295761800083168015612ef757600f82015460005284602052612f20565b846000527fda7bce9f4e8618b6bd2f4132ce798cdc7a60e7e1460a7299e3c6342a579626d26020525b50604060002093505b6010821015612f81576201000083168015612f4f57601082015460005284602052612f78565b846000527f2733e50f526ec2fa19a22b31e8ed50f23cd1fdf94c9154ed3a7609a2f1ff981f6020525b50604060002093505b6011821015612fd9576202000083168015612fa757601182015460005284602052612fd0565b846000527fe1d3b5c807b281e4683cc6d6315cf95b9ade8641defcb32372f1c126e398ef7a6020525b50604060002093505b6012821015613031576204000083168015612fff57601282015460005284602052613028565b846000527f5a2dce0a8a7f68bb74560f8f71837c2c2ebbcbf7fffb42ae1896f13f7c7479a06020525b50604060002093505b601382101561308957620800008316801561305757601382015460005284602052613080565b846000527fb46a28b6f55540f89444f63de0378e3d121be09e06cc9ded1c20e65876d36aa06020525b50604060002093505b60148210156130e15762100000831680156130af576014820154600052846020526130d8565b846000527fc65e9645644786b620e2dd2ad648ddfcbf4a7e5b1a3a4ecfe7f64667a3f0b7e26020525b50604060002093505b601582101561313957622000008316801561310757601582015460005284602052613130565b846000527ff4418588ed35a2458cffeb39b93d26f18d2ab13bdce6aee58e7b99359ec2dfd96020525b50604060002093505b601682101561319157624000008316801561315f57601682015460005284602052613188565b846000527f5a9c16dc00d6ef18b7933a6f8dc65ccb55667138776f7dea101070dc8796e3776020525b50604060002093505b60178210156131e95762800000831680156131b7576017820154600052846020526131e0565b846000527f4df84f40ae0c8229d0d6069e5c8f39a7c299677a09d367fc7b05e3bc380ee6526020525b50604060002093505b60188210156132425763010000008316801561321057601882015460005284602052613239565b846000527fcdc72595f74c7b1043d0e1ffbab734648c838dfb0527d971b602bc216c9619ef6020525b50604060002093505b601982101561329b5763020000008316801561326957601982015460005284602052613292565b846000527f0abf5ac974a1ed57f4050aa510dd9c74f508277b39d7973bb2dfccc5eeb0618d6020525b50604060002093505b601a8210156132f4576304000000831680156132c257601a820154600052846020526132eb565b846000527fb8cd74046ff337f0a7bf2c8e03e10f642c1886798d71806ab1e888d9e5ee87d06020525b50604060002093505b601b82101561334d5763080000008316801561331b57601b82015460005284602052613344565b846000527f838c5655cb21c6cb83313b5a631175dff4963772cce9108188b34ac87c81c41e6020525b50604060002093505b601c8210156133a65763100000008316801561337457601c8201546000528460205261339d565b846000527f662ee4dd2dd7b2bc707961b1e646c4047669dcb6584f0d8d770daf5d7e7deb2e6020525b50604060002093505b601d8210156133ff576320000000831680156133cd57601d820154600052846020526133f6565b846000527f388ab20e2573d171a88108e79d820e98f26c0b84aa8b2f4aa4968dbb818ea3226020525b50604060002093505b601e8210156134585763400000008316801561342657601e8201546000528460205261344f565b846000527f93237c50ba75ee485f4c22adf2f741400bdf8d6a9cc7df7ecae576221665d7356020525b50604060002093505b601f8210156134b15763800000008316801561347f57601f820154600052846020526134a8565b846000527f8448818bb4ae4562849e949e17ac16e0be16688e156b5cf15e098c627c0056a96020525b50604060002093505b505050919050565b60006134ce6001600160a01b03841683613af4565b905080516000141580156134f35750808060200190518101906134f19190613fba565b155b1561061257604051635274afe760e01b81526001600160a01b03841660048201526024016106c8565b600061eeed196001600160a01b0384160161354257506001600160a01b03811631611f3d565b6040516370a0823160e01b81526001600160a01b0383811660048301528416906370a0823190602401602060405180830381865afa158015613588573d6000803e3d6000fd5b505050506040513d601f19601f820116820180604052508101906135ac9190613fa1565b9392505050565b60408051602081018590529081018390526001600160a01b03821660608201526000906080016040516020818303038152906040528051906020012090509392505050565b613600613c35565b6000836020018051613611906141a1565b90819052905060016136256020600261429e565b61362f91906140a5565b81111561364f57604051638eab04bb60e01b815260040160405180910390fd5b60005b60208110156136e4578160011660010361368b5784518490826020811061367b5761367b613eba565b602002015250839150611f3d9050565b8451816020811061369e5761369e613eba565b6020020151846040516020016136be929190918252602082015260400190565b60408051601f1981840301815291905280516020909101209350600191821c9101613652565b50604051638eab04bb60e01b815260040160405180910390fd5b6020600582811b8216948552835194820394909452604060008181206002851615871b808503919091528386015190528181206004851615871b808503919091528286015190528181206008851615871b80850391909152606086015190528181206010851615871b8085039190915260808087015190915282822084861615881b8086039190915260a0870151905282822083861615881b8086039190915260c0870151905282822090851615871b8085039190915260e0860151905281812061010080861615881b80860392909252860151905281812061020080861615881b80860392909252610120870151909152828220610400861615881b808603919091526101408701519052828220610800861615881b808603919091526101608701519052828220611000861615881b808603919091526101808701519052828220612000861615881b808603919091526101a08701519052828220614000861615881b808603919091526101c08701519052828220618000861615881b808603919091526101e0870151905282822062010000861615881b8086039190915290860151905281812062020000851615871b80850391909152610220860151905281812062040000851615871b80850391909152610240860151905281812062080000851615871b80850391909152610260860151905281812062100000851615871b80850391909152610280860151905281812062200000851615871b808503919091526102a0860151905281812062400000851615871b808503919091526102c0860151905281812062800000851615871b808503919091526102e086015190528181206301000000851615871b8085039190915261030086015190528181206302000000851615871b8085039190915261032086015190528181206304000000851615871b8085039190915261034086015190528181206308000000851615871b8085039190915261036086015190528181206310000000851615871b8085039190915261038086015190528181206320000000851615871b808503919091526103a086015190528181206340000000851615871b808503919091526103c0860151905281812063800000009094161590951b91829003929092526103e090920151909152902090565b6000806000846001600160a01b031684604051613a6991906142aa565b6000604051808303816000865af19150503d8060008114613aa6576040519150601f19603f3d011682016040523d82523d6000602084013e613aab565b606091505b5091509150818015613ad5575080511580613ad5575080806020019051810190613ad59190613fba565b8015613aeb57506000856001600160a01b03163b115b95945050505050565b60606135ac8383600084600080856001600160a01b03168486604051613b1a91906142aa565b60006040518083038185875af1925050503d8060008114613b57576040519150601f19603f3d011682016040523d82523d6000602084013e613b5c565b606091505b5091509150613b6c868383613b76565b9695505050505050565b606082613b8b57613b8682613bd2565b6135ac565b8151158015613ba257506001600160a01b0384163b155b15613bcb57604051639996b31560e01b81526001600160a01b03851660048201526024016106c8565b50806135ac565b805115613be25780518082602001fd5b604051630a12f52160e11b815260040160405180910390fd5b8260208101928215613c29579160200282015b82811115613c29578251825591602001919060010190613c0e565b50610b7d929150613c55565b6040518060400160405280613c48613c6a565b8152602001600081525090565b5b80821115610b7d5760008155600101613c56565b6040518061040001604052806020906020820280368337509192915050565b60008060208385031215613c9c57600080fd5b82356001600160401b0380821115613cb357600080fd5b818501915085601f830112613cc757600080fd5b813581811115613cd657600080fd5b8660208260071b8501011115613ceb57600080fd5b60209290920196919550909350505050565b600060808284031215613d0f57600080fd5b50919050565b600060808284031215613d2757600080fd5b6135ac8383613cfd565b6001600160a01b0381168114610bf757600080fd5b60008060008060808587031215613d5c57600080fd5b843593506020850135613d6e81613d31565b9250604085013591506060850135613d8581613d31565b939692955090935050565b600060208284031215613da257600080fd5b81356135ac81613d31565b6001600160401b038416815260208082018490528251610460830191906000604085015b83821015613def578251815291830191600191909101908301613dd1565b505050506020830151610440830152949350505050565b60006104a08284031215613d0f57600080fd5b60008060208385031215613e2c57600080fd5b82356001600160401b0380821115613e4357600080fd5b818501915085601f830112613e5757600080fd5b813581811115613e6657600080fd5b8660206104a083028501011115613ceb57600080fd5b634e487b7160e01b600052602160045260246000fd5b6020810160028310613eb457634e487b7160e01b600052602160045260246000fd5b91905290565b634e487b7160e01b600052603260045260246000fd5b600060208284031215613ee257600080fd5b813563ffffffff811681146135ac57600080fd5b600060208284031215613f0857600080fd5b81516135ac81613d31565b634e487b7160e01b600052601160045260246000fd5b80820180821115611f3d57611f3d613f13565b6001600160401b0381168114610bf757600080fd5b600060208284031215613f6357600080fd5b81356135ac81613f3c565b8135613f7981613f3c565b6001600160401b0381166001600160401b031983541617825550602082013560018201555050565b600060208284031215613fb357600080fd5b5051919050565b600060208284031215613fcc57600080fd5b815180151581146135ac57600080fd5b60006001600160401b03808316818103613ff857613ff8613f13565b6001019392505050565b60005b8381101561401d578181015183820152602001614005565b50506000910152565b6000815180845261403e816020860160208601614002565b601f01601f19169290920160200192915050565b6001600160a01b0387811682528681166020830152851660408201526060810184905263ffffffff8316608082015260c060a0820181905260009061409990830184614026565b98975050505050505050565b81810381811115611f3d57611f3d613f13565b6001600160a01b03841681526060602082018190526000906140dc90830185614026565b905063ffffffff83166040830152949350505050565b600060018060a01b03808a168352886020840152808816604084015286606084015285608084015280851660a08401525060e060c083015261413760e0830184614026565b9998505050505050505050565b634e487b7160e01b600052600160045260246000fd5b86815260018060a01b0386166020820152846040820152831515606082015260c06080820152600061418f60c0830185614026565b82810360a08401526141378185614026565b6000600182016141b3576141b3613f13565b5060010190565b600181815b808511156141f55781600019048211156141db576141db613f13565b808516156141e857918102915b93841c93908002906141bf565b509250929050565b60008261420c57506001611f3d565b8161421957506000611f3d565b816001811461422f576002811461423957614255565b6001915050611f3d565b60ff84111561424a5761424a613f13565b50506001821b611f3d565b5060208310610133831016604e8410600b8410161715614278575081810a611f3d565b61428283836141ba565b806000190482111561429657614296613f13565b029392505050565b60006135ac83836141fd565b600082516142bc818460208701614002565b919091019291505056fea2646970667358221220437e0a503e932711e0198373a5c155f51e392b1e6013c0538220a4a191424b6f64736f6c63430008170033a2646970667358221220aeb31ad03cb351f100bc96c01340271eab637070eb8abaa755e253454521d8d864736f6c63430008170033",
			"devdoc": {
				"kind": "dev",
				"methods": {
					"createForSender(uint256,bytes32)": {
						"details": "Uses the sender address as the salt, which means the same sender must call this function on both chains.",
						"params": {
							"localProjectId": "The project's ID on the local chain.",
							"salt": "The salt to use for the `create2` address."
						},
						"returns": {
							"sucker": "The address of the new sucker."
						}
					}
				},
				"version": 1
			},
			"userdoc": {
				"kind": "user",
				"methods": {
					"BRIDGE()": {
						"notice": "The bridge used to bridge tokens between the local and remote chain."
					},
					"MESSENGER()": {
						"notice": "The messenger used to send messages between the local and remote sucker."
					},
					"PERMISSIONS()": {
						"notice": "A contract storing permissions."
					},
					"TEMP_ID_STORE()": {
						"notice": "A temporary storage slot used by suckers to maintain deterministic deploys."
					},
					"configureLayerSpecific(address,address)": {
						"notice": "handles some layer specific configuration that can't be done in the constructor otherwise deployment addresses would change.messenger the OPMesssenger on this layer.bridge the OPStandardBridge on this layer."
					},
					"createForSender(uint256,bytes32)": {
						"notice": "Create a new `BPSucker` for a specific project."
					},
					"isSucker(address)": {
						"notice": "A mapping of suckers deployed by this contract."
					}
				},
				"version": 1
			},
			"gitCommit": "d5bddfe8fea06c5a2093abc681b2459a7f8607fd",
			"sourceName": "src/deployers/BPBaseSuckerDeployer.sol",
			"chainId": "84532",
			"linkReferences": {},
			"deployedLinkReferences": {}
		}
	]
}