{
	"_format": "sphinx-sol-ct-artifact-1",
	"merkleRoot": "0x36bcfdcab5909e4ae5a9ce8312ca9b705d1a8f0f1283c7cf14905866325de046",
	"address": "0x164620179387b14e0f78a14202c4c5410d624645",
	"sourceName": "src/JBArbitrumSucker.sol",
	"contractName": "JBArbitrumSucker",
	"chainId": "0x66eee",
	"abi": [
		{
			"inputs": [
				{
					"internalType": "contract JBArbitrumSuckerDeployer",
					"name": "deployer",
					"type": "address"
				},
				{
					"internalType": "contract IJBDirectory",
					"name": "directory",
					"type": "address"
				},
				{
					"internalType": "contract IJBPermissions",
					"name": "permissions",
					"type": "address"
				},
				{
					"internalType": "contract IJBTokens",
					"name": "tokens",
					"type": "address"
				},
				{
					"internalType": "enum JBAddToBalanceMode",
					"name": "addToBalanceMode",
					"type": "uint8"
				},
				{
					"internalType": "address",
					"name": "trusted_forwarder",
					"type": "address"
				}
			],
			"stateMutability": "nonpayable",
			"type": "constructor"
		},
		{
			"stateMutability": "payable",
			"type": "receive"
		},
		{
			"inputs": [],
			"name": "ADD_TO_BALANCE_MODE",
			"outputs": [
				{
					"internalType": "enum JBAddToBalanceMode",
					"name": "",
					"type": "uint8"
				}
			],
			"stateMutability": "view",
			"type": "function"
		},
		{
			"inputs": [],
			"name": "ARBINBOX",
			"outputs": [
				{
					"internalType": "contract IInbox",
					"name": "",
					"type": "address"
				}
			],
			"stateMutability": "view",
			"type": "function"
		},
		{
			"inputs": [],
			"name": "DEPLOYER",
			"outputs": [
				{
					"internalType": "address",
					"name": "",
					"type": "address"
				}
			],
			"stateMutability": "view",
			"type": "function"
		},
		{
			"inputs": [],
			"name": "DIRECTORY",
			"outputs": [
				{
					"internalType": "contract IJBDirectory",
					"name": "",
					"type": "address"
				}
			],
			"stateMutability": "view",
			"type": "function"
		},
		{
			"inputs": [],
			"name": "GATEWAYROUTER",
			"outputs": [
				{
					"internalType": "contract IArbGatewayRouter",
					"name": "",
					"type": "address"
				}
			],
			"stateMutability": "view",
			"type": "function"
		},
		{
			"inputs": [],
			"name": "LAYER",
			"outputs": [
				{
					"internalType": "enum JBLayer",
					"name": "",
					"type": "uint8"
				}
			],
			"stateMutability": "view",
			"type": "function"
		},
		{
			"inputs": [],
			"name": "MESSENGER_BASE_GAS_LIMIT",
			"outputs": [
				{
					"internalType": "uint32",
					"name": "",
					"type": "uint32"
				}
			],
			"stateMutability": "view",
			"type": "function"
		},
		{
			"inputs": [],
			"name": "MESSENGER_ERC20_MIN_GAS_LIMIT",
			"outputs": [
				{
					"internalType": "uint32",
					"name": "",
					"type": "uint32"
				}
			],
			"stateMutability": "view",
			"type": "function"
		},
		{
			"inputs": [],
			"name": "PERMISSIONS",
			"outputs": [
				{
					"internalType": "contract IJBPermissions",
					"name": "",
					"type": "address"
				}
			],
			"stateMutability": "view",
			"type": "function"
		},
		{
			"inputs": [],
			"name": "TOKENS",
			"outputs": [
				{
					"internalType": "contract IJBTokens",
					"name": "",
					"type": "address"
				}
			],
			"stateMutability": "view",
			"type": "function"
		},
		{
			"inputs": [
				{
					"internalType": "address",
					"name": "token",
					"type": "address"
				}
			],
			"name": "addOutstandingAmountToBalance",
			"outputs": [],
			"stateMutability": "nonpayable",
			"type": "function"
		},
		{
			"inputs": [
				{
					"internalType": "address",
					"name": "token",
					"type": "address"
				}
			],
			"name": "amountToAddToBalanceOf",
			"outputs": [
				{
					"internalType": "uint256",
					"name": "",
					"type": "uint256"
				}
			],
			"stateMutability": "view",
			"type": "function"
		},
		{
			"inputs": [
				{
					"components": [
						{
							"internalType": "address",
							"name": "token",
							"type": "address"
						},
						{
							"components": [
								{
									"internalType": "uint256",
									"name": "index",
									"type": "uint256"
								},
								{
									"internalType": "address",
									"name": "beneficiary",
									"type": "address"
								},
								{
									"internalType": "uint256",
									"name": "projectTokenCount",
									"type": "uint256"
								},
								{
									"internalType": "uint256",
									"name": "terminalTokenAmount",
									"type": "uint256"
								}
							],
							"internalType": "struct JBLeaf",
							"name": "leaf",
							"type": "tuple"
						},
						{
							"internalType": "bytes32[32]",
							"name": "proof",
							"type": "bytes32[32]"
						}
					],
					"internalType": "struct JBClaim",
					"name": "claimData",
					"type": "tuple"
				}
			],
			"name": "claim",
			"outputs": [],
			"stateMutability": "nonpayable",
			"type": "function"
		},
		{
			"inputs": [
				{
					"components": [
						{
							"internalType": "address",
							"name": "token",
							"type": "address"
						},
						{
							"components": [
								{
									"internalType": "uint256",
									"name": "index",
									"type": "uint256"
								},
								{
									"internalType": "address",
									"name": "beneficiary",
									"type": "address"
								},
								{
									"internalType": "uint256",
									"name": "projectTokenCount",
									"type": "uint256"
								},
								{
									"internalType": "uint256",
									"name": "terminalTokenAmount",
									"type": "uint256"
								}
							],
							"internalType": "struct JBLeaf",
							"name": "leaf",
							"type": "tuple"
						},
						{
							"internalType": "bytes32[32]",
							"name": "proof",
							"type": "bytes32[32]"
						}
					],
					"internalType": "struct JBClaim[]",
					"name": "claims",
					"type": "tuple[]"
				}
			],
			"name": "claim",
			"outputs": [],
			"stateMutability": "nonpayable",
			"type": "function"
		},
		{
			"inputs": [
				{
					"internalType": "address[]",
					"name": "tokens",
					"type": "address[]"
				}
			],
			"name": "enableEmergencyHatchFor",
			"outputs": [],
			"stateMutability": "nonpayable",
			"type": "function"
		},
		{
			"inputs": [
				{
					"components": [
						{
							"internalType": "address",
							"name": "token",
							"type": "address"
						},
						{
							"components": [
								{
									"internalType": "uint256",
									"name": "index",
									"type": "uint256"
								},
								{
									"internalType": "address",
									"name": "beneficiary",
									"type": "address"
								},
								{
									"internalType": "uint256",
									"name": "projectTokenCount",
									"type": "uint256"
								},
								{
									"internalType": "uint256",
									"name": "terminalTokenAmount",
									"type": "uint256"
								}
							],
							"internalType": "struct JBLeaf",
							"name": "leaf",
							"type": "tuple"
						},
						{
							"internalType": "bytes32[32]",
							"name": "proof",
							"type": "bytes32[32]"
						}
					],
					"internalType": "struct JBClaim",
					"name": "claimData",
					"type": "tuple"
				}
			],
			"name": "exitThroughEmergencyHatch",
			"outputs": [],
			"stateMutability": "nonpayable",
			"type": "function"
		},
		{
			"inputs": [
				{
					"components": [
						{
							"internalType": "address",
							"name": "token",
							"type": "address"
						},
						{
							"internalType": "uint256",
							"name": "amount",
							"type": "uint256"
						},
						{
							"components": [
								{
									"internalType": "uint64",
									"name": "nonce",
									"type": "uint64"
								},
								{
									"internalType": "bytes32",
									"name": "root",
									"type": "bytes32"
								}
							],
							"internalType": "struct JBInboxTreeRoot",
							"name": "remoteRoot",
							"type": "tuple"
						}
					],
					"internalType": "struct JBMessageRoot",
					"name": "root",
					"type": "tuple"
				}
			],
			"name": "fromRemote",
			"outputs": [],
			"stateMutability": "payable",
			"type": "function"
		},
		{
			"inputs": [
				{
					"internalType": "address",
					"name": "token",
					"type": "address"
				}
			],
			"name": "inboxOf",
			"outputs": [
				{
					"components": [
						{
							"internalType": "uint64",
							"name": "nonce",
							"type": "uint64"
						},
						{
							"internalType": "bytes32",
							"name": "root",
							"type": "bytes32"
						}
					],
					"internalType": "struct JBInboxTreeRoot",
					"name": "",
					"type": "tuple"
				}
			],
			"stateMutability": "view",
			"type": "function"
		},
		{
			"inputs": [
				{
					"internalType": "uint256",
					"name": "__projectId",
					"type": "uint256"
				}
			],
			"name": "initialize",
			"outputs": [],
			"stateMutability": "nonpayable",
			"type": "function"
		},
		{
			"inputs": [
				{
					"internalType": "address",
					"name": "token",
					"type": "address"
				}
			],
			"name": "isMapped",
			"outputs": [
				{
					"internalType": "bool",
					"name": "",
					"type": "bool"
				}
			],
			"stateMutability": "view",
			"type": "function"
		},
		{
			"inputs": [
				{
					"internalType": "address",
					"name": "forwarder",
					"type": "address"
				}
			],
			"name": "isTrustedForwarder",
			"outputs": [
				{
					"internalType": "bool",
					"name": "",
					"type": "bool"
				}
			],
			"stateMutability": "view",
			"type": "function"
		},
		{
			"inputs": [
				{
					"components": [
						{
							"internalType": "address",
							"name": "localToken",
							"type": "address"
						},
						{
							"internalType": "uint32",
							"name": "minGas",
							"type": "uint32"
						},
						{
							"internalType": "address",
							"name": "remoteToken",
							"type": "address"
						},
						{
							"internalType": "uint256",
							"name": "minBridgeAmount",
							"type": "uint256"
						}
					],
					"internalType": "struct JBTokenMapping",
					"name": "map",
					"type": "tuple"
				}
			],
			"name": "mapToken",
			"outputs": [],
			"stateMutability": "payable",
			"type": "function"
		},
		{
			"inputs": [
				{
					"components": [
						{
							"internalType": "address",
							"name": "localToken",
							"type": "address"
						},
						{
							"internalType": "uint32",
							"name": "minGas",
							"type": "uint32"
						},
						{
							"internalType": "address",
							"name": "remoteToken",
							"type": "address"
						},
						{
							"internalType": "uint256",
							"name": "minBridgeAmount",
							"type": "uint256"
						}
					],
					"internalType": "struct JBTokenMapping[]",
					"name": "maps",
					"type": "tuple[]"
				}
			],
			"name": "mapTokens",
			"outputs": [],
			"stateMutability": "payable",
			"type": "function"
		},
		{
			"inputs": [
				{
					"internalType": "address",
					"name": "token",
					"type": "address"
				}
			],
			"name": "outboxOf",
			"outputs": [
				{
					"components": [
						{
							"internalType": "uint64",
							"name": "nonce",
							"type": "uint64"
						},
						{
							"internalType": "uint256",
							"name": "balance",
							"type": "uint256"
						},
						{
							"components": [
								{
									"internalType": "bytes32[32]",
									"name": "branch",
									"type": "bytes32[32]"
								},
								{
									"internalType": "uint256",
									"name": "count",
									"type": "uint256"
								}
							],
							"internalType": "struct MerkleLib.Tree",
							"name": "tree",
							"type": "tuple"
						},
						{
							"internalType": "uint256",
							"name": "numberOfClaimsSent",
							"type": "uint256"
						}
					],
					"internalType": "struct JBOutboxTree",
					"name": "",
					"type": "tuple"
				}
			],
			"stateMutability": "view",
			"type": "function"
		},
		{
			"inputs": [],
			"name": "peer",
			"outputs": [
				{
					"internalType": "address",
					"name": "",
					"type": "address"
				}
			],
			"stateMutability": "view",
			"type": "function"
		},
		{
			"inputs": [],
			"name": "peerChainId",
			"outputs": [
				{
					"internalType": "uint256",
					"name": "",
					"type": "uint256"
				}
			],
			"stateMutability": "view",
			"type": "function"
		},
		{
			"inputs": [
				{
					"internalType": "uint256",
					"name": "projectTokenCount",
					"type": "uint256"
				},
				{
					"internalType": "address",
					"name": "beneficiary",
					"type": "address"
				},
				{
					"internalType": "uint256",
					"name": "minTokensReclaimed",
					"type": "uint256"
				},
				{
					"internalType": "address",
					"name": "token",
					"type": "address"
				}
			],
			"name": "prepare",
			"outputs": [],
			"stateMutability": "nonpayable",
			"type": "function"
		},
		{
			"inputs": [],
			"name": "projectId",
			"outputs": [
				{
					"internalType": "uint256",
					"name": "",
					"type": "uint256"
				}
			],
			"stateMutability": "view",
			"type": "function"
		},
		{
			"inputs": [
				{
					"internalType": "address",
					"name": "token",
					"type": "address"
				}
			],
			"name": "remoteTokenFor",
			"outputs": [
				{
					"components": [
						{
							"internalType": "bool",
							"name": "enabled",
							"type": "bool"
						},
						{
							"internalType": "bool",
							"name": "emergencyHatch",
							"type": "bool"
						},
						{
							"internalType": "uint32",
							"name": "minGas",
							"type": "uint32"
						},
						{
							"internalType": "address",
							"name": "addr",
							"type": "address"
						},
						{
							"internalType": "uint256",
							"name": "minBridgeAmount",
							"type": "uint256"
						}
					],
					"internalType": "struct JBRemoteToken",
					"name": "",
					"type": "tuple"
				}
			],
			"stateMutability": "view",
			"type": "function"
		},
		{
			"inputs": [
				{
					"internalType": "uint40",
					"name": "timestamp",
					"type": "uint40"
				}
			],
			"name": "setDeprecation",
			"outputs": [],
			"stateMutability": "nonpayable",
			"type": "function"
		},
		{
			"inputs": [],
			"name": "state",
			"outputs": [
				{
					"internalType": "enum JBSuckerState",
					"name": "",
					"type": "uint8"
				}
			],
			"stateMutability": "view",
			"type": "function"
		},
		{
			"inputs": [
				{
					"internalType": "bytes4",
					"name": "interfaceId",
					"type": "bytes4"
				}
			],
			"name": "supportsInterface",
			"outputs": [
				{
					"internalType": "bool",
					"name": "",
					"type": "bool"
				}
			],
			"stateMutability": "view",
			"type": "function"
		},
		{
			"inputs": [
				{
					"internalType": "address",
					"name": "token",
					"type": "address"
				}
			],
			"name": "toRemote",
			"outputs": [],
			"stateMutability": "payable",
			"type": "function"
		},
		{
			"inputs": [],
			"name": "trustedForwarder",
			"outputs": [
				{
					"internalType": "address",
					"name": "",
					"type": "address"
				}
			],
			"stateMutability": "view",
			"type": "function"
		},
		{
			"anonymous": false,
			"inputs": [
				{
					"indexed": false,
					"internalType": "address",
					"name": "beneficiary",
					"type": "address"
				},
				{
					"indexed": false,
					"internalType": "address",
					"name": "token",
					"type": "address"
				},
				{
					"indexed": false,
					"internalType": "uint256",
					"name": "projectTokenCount",
					"type": "uint256"
				},
				{
					"indexed": false,
					"internalType": "uint256",
					"name": "terminalTokenAmount",
					"type": "uint256"
				},
				{
					"indexed": false,
					"internalType": "uint256",
					"name": "index",
					"type": "uint256"
				},
				{
					"indexed": false,
					"internalType": "bool",
					"name": "autoAddedToBalance",
					"type": "bool"
				},
				{
					"indexed": false,
					"internalType": "address",
					"name": "caller",
					"type": "address"
				}
			],
			"name": "Claimed",
			"type": "event"
		},
		{
			"anonymous": false,
			"inputs": [
				{
					"indexed": false,
					"internalType": "uint40",
					"name": "timestamp",
					"type": "uint40"
				},
				{
					"indexed": false,
					"internalType": "address",
					"name": "caller",
					"type": "address"
				}
			],
			"name": "DeprecationTimeUpdated",
			"type": "event"
		},
		{
			"anonymous": false,
			"inputs": [
				{
					"indexed": false,
					"internalType": "address[]",
					"name": "tokens",
					"type": "address[]"
				},
				{
					"indexed": false,
					"internalType": "address",
					"name": "caller",
					"type": "address"
				}
			],
			"name": "EmergencyHatchOpened",
			"type": "event"
		},
		{
			"anonymous": false,
			"inputs": [
				{
					"indexed": false,
					"internalType": "uint64",
					"name": "version",
					"type": "uint64"
				}
			],
			"name": "Initialized",
			"type": "event"
		},
		{
			"anonymous": false,
			"inputs": [
				{
					"indexed": true,
					"internalType": "address",
					"name": "beneficiary",
					"type": "address"
				},
				{
					"indexed": true,
					"internalType": "address",
					"name": "token",
					"type": "address"
				},
				{
					"indexed": false,
					"internalType": "bytes32",
					"name": "hashed",
					"type": "bytes32"
				},
				{
					"indexed": false,
					"internalType": "uint256",
					"name": "index",
					"type": "uint256"
				},
				{
					"indexed": false,
					"internalType": "bytes32",
					"name": "root",
					"type": "bytes32"
				},
				{
					"indexed": false,
					"internalType": "uint256",
					"name": "projectTokenCount",
					"type": "uint256"
				},
				{
					"indexed": false,
					"internalType": "uint256",
					"name": "terminalTokenAmount",
					"type": "uint256"
				},
				{
					"indexed": false,
					"internalType": "address",
					"name": "caller",
					"type": "address"
				}
			],
			"name": "InsertToOutboxTree",
			"type": "event"
		},
		{
			"anonymous": false,
			"inputs": [
				{
					"indexed": true,
					"internalType": "address",
					"name": "token",
					"type": "address"
				},
				{
					"indexed": false,
					"internalType": "uint64",
					"name": "nonce",
					"type": "uint64"
				},
				{
					"indexed": false,
					"internalType": "bytes32",
					"name": "root",
					"type": "bytes32"
				},
				{
					"indexed": false,
					"internalType": "address",
					"name": "caller",
					"type": "address"
				}
			],
			"name": "NewInboxTreeRoot",
			"type": "event"
		},
		{
			"anonymous": false,
			"inputs": [
				{
					"indexed": true,
					"internalType": "bytes32",
					"name": "root",
					"type": "bytes32"
				},
				{
					"indexed": true,
					"internalType": "address",
					"name": "token",
					"type": "address"
				},
				{
					"indexed": false,
					"internalType": "uint256",
					"name": "index",
					"type": "uint256"
				},
				{
					"indexed": false,
					"internalType": "uint64",
					"name": "nonce",
					"type": "uint64"
				},
				{
					"indexed": false,
					"internalType": "address",
					"name": "caller",
					"type": "address"
				}
			],
			"name": "RootToRemote",
			"type": "event"
		},
		{
			"inputs": [],
			"name": "InvalidInitialization",
			"type": "error"
		},
		{
			"inputs": [
				{
					"internalType": "uint256",
					"name": "chainId",
					"type": "uint256"
				}
			],
			"name": "JBArbitrumSucker_ChainNotSupported",
			"type": "error"
		},
		{
			"inputs": [
				{
					"internalType": "uint256",
					"name": "payment",
					"type": "uint256"
				},
				{
					"internalType": "uint256",
					"name": "cost",
					"type": "uint256"
				}
			],
			"name": "JBArbitrumSucker_NotEnoughGas",
			"type": "error"
		},
		{
			"inputs": [
				{
					"internalType": "address",
					"name": "account",
					"type": "address"
				},
				{
					"internalType": "address",
					"name": "sender",
					"type": "address"
				},
				{
					"internalType": "uint256",
					"name": "projectId",
					"type": "uint256"
				},
				{
					"internalType": "uint256",
					"name": "permissionId",
					"type": "uint256"
				}
			],
			"name": "JBPermissioned_Unauthorized",
			"type": "error"
		},
		{
			"inputs": [
				{
					"internalType": "uint256",
					"name": "minGas",
					"type": "uint256"
				},
				{
					"internalType": "uint256",
					"name": "minGasLimit",
					"type": "uint256"
				}
			],
			"name": "JBSucker_BelowMinGas",
			"type": "error"
		},
		{
			"inputs": [],
			"name": "JBSucker_Deprecated",
			"type": "error"
		},
		{
			"inputs": [
				{
					"internalType": "uint256",
					"name": "givenTime",
					"type": "uint256"
				},
				{
					"internalType": "uint256",
					"name": "minimumTime",
					"type": "uint256"
				}
			],
			"name": "JBSucker_DeprecationTimestampTooSoon",
			"type": "error"
		},
		{
			"inputs": [],
			"name": "JBSucker_ExpectedMsgValue",
			"type": "error"
		},
		{
			"inputs": [
				{
					"internalType": "uint256",
					"name": "amount",
					"type": "uint256"
				},
				{
					"internalType": "uint256",
					"name": "balance",
					"type": "uint256"
				}
			],
			"name": "JBSucker_InsufficientBalance",
			"type": "error"
		},
		{
			"inputs": [
				{
					"internalType": "uint256",
					"name": "received",
					"type": "uint256"
				},
				{
					"internalType": "uint256",
					"name": "expected",
					"type": "uint256"
				}
			],
			"name": "JBSucker_InsufficientMsgValue",
			"type": "error"
		},
		{
			"inputs": [
				{
					"internalType": "address",
					"name": "remoteToken",
					"type": "address"
				}
			],
			"name": "JBSucker_InvalidNativeRemoteAddress",
			"type": "error"
		},
		{
			"inputs": [
				{
					"internalType": "bytes32",
					"name": "root",
					"type": "bytes32"
				},
				{
					"internalType": "bytes32",
					"name": "inboxRoot",
					"type": "bytes32"
				}
			],
			"name": "JBSucker_InvalidProof",
			"type": "error"
		},
		{
			"inputs": [
				{
					"internalType": "address",
					"name": "token",
					"type": "address"
				},
				{
					"internalType": "uint256",
					"name": "index",
					"type": "uint256"
				}
			],
			"name": "JBSucker_LeafAlreadyExecuted",
			"type": "error"
		},
		{
			"inputs": [
				{
					"internalType": "enum JBAddToBalanceMode",
					"name": "mode",
					"type": "uint8"
				}
			],
			"name": "JBSucker_ManualNotAllowed",
			"type": "error"
		},
		{
			"inputs": [
				{
					"internalType": "uint256",
					"name": "projectId",
					"type": "uint256"
				},
				{
					"internalType": "address",
					"name": "token",
					"type": "address"
				}
			],
			"name": "JBSucker_NoTerminalForToken",
			"type": "error"
		},
		{
			"inputs": [
				{
					"internalType": "address",
					"name": "caller",
					"type": "address"
				}
			],
			"name": "JBSucker_NotPeer",
			"type": "error"
		},
		{
			"inputs": [
				{
					"internalType": "uint256",
					"name": "amount",
					"type": "uint256"
				},
				{
					"internalType": "uint256",
					"name": "minimumAmount",
					"type": "uint256"
				}
			],
			"name": "JBSucker_QueueInsufficientSize",
			"type": "error"
		},
		{
			"inputs": [
				{
					"internalType": "address",
					"name": "localToken",
					"type": "address"
				},
				{
					"internalType": "address",
					"name": "mappedTo",
					"type": "address"
				}
			],
			"name": "JBSucker_TokenAlreadyMapped",
			"type": "error"
		},
		{
			"inputs": [
				{
					"internalType": "address",
					"name": "token",
					"type": "address"
				}
			],
			"name": "JBSucker_TokenHasInvalidEmergencyHatchState",
			"type": "error"
		},
		{
			"inputs": [
				{
					"internalType": "address",
					"name": "token",
					"type": "address"
				}
			],
			"name": "JBSucker_TokenNotMapped",
			"type": "error"
		},
		{
			"inputs": [
				{
					"internalType": "uint256",
					"name": "value",
					"type": "uint256"
				}
			],
			"name": "JBSucker_UnexpectedMsgValue",
			"type": "error"
		},
		{
			"inputs": [],
			"name": "JBSucker_ZeroBeneficiary",
			"type": "error"
		},
		{
			"inputs": [],
			"name": "JBSucker_ZeroERC20Token",
			"type": "error"
		},
		{
			"inputs": [],
			"name": "MerkleLib__insert_treeIsFull",
			"type": "error"
		},
		{
			"inputs": [],
			"name": "NotInitializing",
			"type": "error"
		},
		{
			"inputs": [
				{
					"internalType": "address",
					"name": "token",
					"type": "address"
				}
			],
			"name": "SafeERC20FailedOperation",
			"type": "error"
		}
	],
	"args": [],
	"solcInputHash": "3d34fc55cc412f6b6677cd2dd0942d16",
	"bytecode": "0x6101a06040523480156200001257600080fd5b506040516200651a3803806200651a833981016040819052620000359162000314565b6001600160a01b0380821660805280851660a052808616610100528316610120523360e0528484848484816001811115620000745762000074620003a8565b60c08160018111156200008b576200008b620003a8565b905250620000986200023c565b5050505050856001600160a01b03166307fada496040518163ffffffff1660e01b8152600401602060405180830381865afa158015620000dc573d6000803e3d6000fd5b505050506040513d601f19601f82011682018060405250810190620001029190620003be565b6001600160a01b0316610160816001600160a01b031681525050856001600160a01b031663557819a46040518163ffffffff1660e01b8152600401602060405180830381865afa1580156200015b573d6000803e3d6000fd5b505050506040513d601f19601f82011682018060405250810190620001819190620003be565b6001600160a01b0316610140816001600160a01b031681525050856001600160a01b03166370a2b8db6040518163ffffffff1660e01b8152600401602060405180830381865afa158015620001da573d6000803e3d6000fd5b505050506040513d601f19601f82011682018060405250810190620002009190620003e5565b6001811115620002145762000214620003a8565b6101808160018111156200022c576200022c620003a8565b8152505050505050505062000405565b7ff0c57e16840df040f15088dc2f81fe391c3923bec73e23a9662efc9c229c6a00805468010000000000000000900460ff16156200028d5760405163f92ee8a960e01b815260040160405180910390fd5b80546001600160401b0390811614620002ed5780546001600160401b0319166001600160401b0390811782556040519081527fc7f505b2f371ae2175ee4913f4499e1f2633a7b5936321eed1cdaeb6115181d29060200160405180910390a15b50565b6001600160a01b0381168114620002ed57600080fd5b60028110620002ed57600080fd5b60008060008060008060c087890312156200032e57600080fd5b86516200033b81620002f0565b60208801519096506200034e81620002f0565b60408801519095506200036181620002f0565b60608801519094506200037481620002f0565b6080880151909350620003878162000306565b60a08801519092506200039a81620002f0565b809150509295509295509295565b634e487b7160e01b600052602160045260246000fd5b600060208284031215620003d157600080fd5b8151620003de81620002f0565b9392505050565b600060208284031215620003f857600080fd5b8151620003de8162000306565b60805160a05160c05160e0516101005161012051610140516101605161018051615ffc6200051e600039600081816107c001528181612b99015281816149a90152614a83015260008181610809015281816150fa0152818161516d015281816153d5015261544801526000818161065d01528181612bd201528181614eb201528181614f8d01526152a20152600081816102b90152610bb80152600081816105f201528181610e6c0152818161129f01528181611c8101528181611e7d0152818161232a015261283c0152600061074b01526000818161077f0152818161103d015281816110740152818161159e0152611c0501526000818161083d01526126d60152600081816104870152610dab0152615ffc6000f3fe60806040526004361061021d5760003560e01c8063802c8fa01161011d578063c1854129116100b0578063c86719b71161007f578063defbb69711610064578063defbb697146107f7578063f434c9141461082b578063fe4b84df1461085f57600080fd5b8063c86719b7146107ae578063cdfceeba146107e257600080fd5b8063c1854129146106f7578063c19d93fb14610717578063c1b8411a14610739578063c6525f2c1461076d57600080fd5b8063b1012368116100ec578063b10123681461064b578063b59ef50f1461067f578063b71c11791461069f578063bf557aee146106b257600080fd5b8063802c8fa0146105b357806388bc2ef3146105e057806392ee1ea7146106145780639e6d7d431461062b57600080fd5b8063551ebbf0116101b057806369d31fdd1161017f578063754515591161016457806375451559146104585780637da0a877146104785780637de6fba2146104ab57600080fd5b806369d31fdd146103cc5780636d9e384b146103df57600080fd5b8063551ebbf01461034c578063572b6c051461036c5780636284386a1461038c57806369ce2233146103ac57600080fd5b80632241dc52116101ec5780632241dc52146102db57806338eb2044146102ee5780633a5de07d146103015780633fafa1271461032d57600080fd5b806301ffc9a7146102295780630f6482141461025e57806311cda415146102805780631d831d5c146102a757600080fd5b3661022457005b600080fd5b34801561023557600080fd5b5061024961024436600461564f565b61087f565b60405190151581526020015b60405180910390f35b34801561026a57600080fd5b5061027e610279366004615691565b6109b0565b005b34801561028c57600080fd5b50305b6040516001600160a01b039091168152602001610255565b3480156102b357600080fd5b5061028f7f000000000000000000000000000000000000000000000000000000000000000081565b61027e6102e93660046156aa565b610a67565b61027e6102fc366004615731565b610b6a565b34801561030d57600080fd5b5061031862030d4081565b60405163ffffffff9091168152602001610255565b34801561033957600080fd5b506001545b604051908152602001610255565b34801561035857600080fd5b5061027e610367366004615762565b610b74565b34801561037857600080fd5b506102496103873660046157ac565b610da7565b34801561039857600080fd5b5061027e6103a73660046157c9565b610de6565b3480156103b857600080fd5b5061027e6103c73660046157ac565b611039565b61027e6103da366004615731565b6110d8565b3480156103eb57600080fd5b5061044b6103fa3660046157ac565b6040805180820190915260008082526020820152506001600160a01b03166000908152600360209081526040918290208251808401909352805467ffffffffffffffff168352600101549082015290565b60405161025591906157f0565b34801561046457600080fd5b5061027e610473366004615811565b61128d565b34801561048457600080fd5b507f000000000000000000000000000000000000000000000000000000000000000061028f565b3480156104b757600080fd5b5061055e6104c63660046157ac565b6040805160a0808201835260008083526020808401829052838501829052606080850183905260809485018390526001600160a01b039687168352600582529185902085519384018652805460ff8082161515865261010082041615159285019290925262010000820463ffffffff169584019590955266010000000000009004909416938101939093526001909101549082015290565b6040516102559190600060a08201905082511515825260208301511515602083015263ffffffff60408401511660408301526001600160a01b0360608401511660608301526080830151608083015292915050565b3480156105bf57600080fd5b506105d36105ce3660046157ac565b611445565b6040516102559190615874565b3480156105ec57600080fd5b5061028f7f000000000000000000000000000000000000000000000000000000000000000081565b34801561062057600080fd5b50610318620493e081565b34801561063757600080fd5b5061033e6106463660046157ac565b6114e5565b34801561065757600080fd5b5061028f7f000000000000000000000000000000000000000000000000000000000000000081565b34801561068b57600080fd5b5061027e61069a366004615691565b611515565b61027e6106ad3660046157ac565b61163b565b3480156106be57600080fd5b506102496106cd3660046157ac565b6001600160a01b039081166000908152600560205260409020546601000000000000900416151590565b34801561070357600080fd5b5061027e6107123660046158db565b61177e565b34801561072357600080fd5b5061072c6117b7565b6040516102559190615955565b34801561074557600080fd5b5061028f7f000000000000000000000000000000000000000000000000000000000000000081565b34801561077957600080fd5b506107a17f000000000000000000000000000000000000000000000000000000000000000081565b604051610255919061597f565b3480156107ba57600080fd5b506107a17f000000000000000000000000000000000000000000000000000000000000000081565b3480156107ee57600080fd5b5061033e6117fe565b34801561080357600080fd5b5061028f7f000000000000000000000000000000000000000000000000000000000000000081565b34801561083757600080fd5b5061028f7f000000000000000000000000000000000000000000000000000000000000000081565b34801561086b57600080fd5b5061027e61087a36600461598c565b611854565b60007fffffffff0000000000000000000000000000000000000000000000000000000082167f18a5af2700000000000000000000000000000000000000000000000000000000148061091257507fffffffff0000000000000000000000000000000000000000000000000000000082167f4c74205e00000000000000000000000000000000000000000000000000000000145b8061095e57507fffffffff0000000000000000000000000000000000000000000000000000000082167ff434c91400000000000000000000000000000000000000000000000000000000145b806109aa57507f01ffc9a7000000000000000000000000000000000000000000000000000000007fffffffff000000000000000000000000000000000000000000000000000000008316145b92915050565b6109e860608201356109c560208401846157ac565b60808401356109da60608601604087016157ac565b602086013560a087016119d0565b6080810135600460006109fe60208501856157ac565b6001600160a01b03166001600160a01b031681526020019081526020016000206001016000828254610a3091906159bb565b90915550610a649050610a4660208301836157ac565b608083013560608401803590610a5f90604087016157ac565b611c01565b50565b6000805b82811015610b17576000848483818110610a8757610a876159ce565b9050608002016040016020810190610a9f91906157ac565b6001600160a01b0316148015610afc575060046000858584818110610ac657610ac66159ce565b610adc92602060809092020190810191506157ac565b6001600160a01b0316815260208101919091526040016000206001015415155b15610b0f5781610b0b816159e4565b9250505b600101610a6b565b5060005b82811015610b6457610b5c848483818110610b3857610b386159ce565b90506080020160008411610b4d576000611d9e565b610b5784346159fe565b611d9e565b600101610b1b565b50505050565b610a648134611d9e565b6001600160a01b038316610bb4576040517f8d3329cd00000000000000000000000000000000000000000000000000000000815260040160405180910390fd5b60007f00000000000000000000000000000000000000000000000000000000000000006001600160a01b031663ea78803f610bee60015490565b6040518263ffffffff1660e01b8152600401610c0c91815260200190565b602060405180830381865afa158015610c29573d6000803e3d6000fd5b505050506040513d601f19601f82011682018060405250810190610c4d9190615a20565b90506001600160a01b038116610c8f576040517fcaa06d2000000000000000000000000000000000000000000000000000000000815260040160405180910390fd5b6001600160a01b03821660009081526005602052604090205460ff16610cf1576040517f04fdbe060000000000000000000000000000000000000000000000000000000081526001600160a01b03831660048201526024015b60405180910390fd5b6000610cfb6117b7565b90506003816003811115610d1157610d1161593f565b1480610d2e57506002816003811115610d2c57610d2c61593f565b145b15610d65576040517fb10f8cca00000000000000000000000000000000000000000000000000000000815260040160405180910390fd5b610d82610d7061224e565b6001600160a01b03841690308961225d565b6000610d90838886886122d9565b9050610d9e878583896124c7565b50505050505050565b60007f00000000000000000000000000000000000000000000000000000000000000005b6001600160a01b0316826001600160a01b0316149050919050565b6000610df06117b7565b90506003816003811115610e0657610e0661593f565b1480610e2357506002816003811115610e2157610e2161593f565b145b15610e5a576040517fb10f8cca00000000000000000000000000000000000000000000000000000000815260040160405180910390fd5b6000610e6560015490565b9050610f627f00000000000000000000000000000000000000000000000000000000000000006001600160a01b031663293c49996040518163ffffffff1660e01b8152600401602060405180830381865afa158015610ec8573d6000803e3d6000fd5b505050506040513d601f19601f82011682018060405250810190610eec9190615a20565b6001600160a01b0316636352211e836040518263ffffffff1660e01b8152600401610f1991815260200190565b602060405180830381865afa158015610f36573d6000803e3d6000fd5b505050506040513d601f19601f82011682018060405250810190610f5a9190615a20565b82601e612651565b6000610f716212750042615a3d565b905064ffffffffff841615801590610f8f5750808464ffffffffff16105b15610fd6576040517f044691ac00000000000000000000000000000000000000000000000000000000815264ffffffffff8516600482015260248101829052604401610ce8565b64ffffffffff84166000557f455efa76af2a8686dc0dd3041bda89ece5ba4691277d525e2161003bbca8b2458461100b61224e565b6040805164ffffffffff90931683526001600160a01b0390911660208301520160405180910390a150505050565b60007f0000000000000000000000000000000000000000000000000000000000000000600181111561106d5761106d61593f565b146110c6577f00000000000000000000000000000000000000000000000000000000000000006040517fb039c395000000000000000000000000000000000000000000000000000000008152600401610ce8919061597f565b610a64816110d3836114e5565b61279b565b6110e86110e361224e565b612b94565b611132576110f461224e565b6040517f36183c8f0000000000000000000000000000000000000000000000000000000081526001600160a01b039091166004820152602401610ce8565b600060038161114460208501856157ac565b6001600160a01b0316815260208101919091526040908101600020805490925067ffffffffffffffff169061117f9060608501908501615a50565b67ffffffffffffffff161180156111af5750600361119b6117b7565b60038111156111ac576111ac61593f565b14155b15611289576111c46060830160408401615a50565b81547fffffffffffffffffffffffffffffffffffffffffffffffff00000000000000001667ffffffffffffffff919091161781556060820135600182015561120f60208301836157ac565b6001600160a01b03167fc69d3412489554fb7820c4c2784cb644b6c79bfc117444b93977d3d33a9b8eac6112496060850160408601615a50565b606085013561125661224e565b6040805167ffffffffffffffff909416845260208401929092526001600160a01b03169082015260600160405180910390a25b5050565b600061129860015490565b90506112fb7f00000000000000000000000000000000000000000000000000000000000000006001600160a01b031663293c49996040518163ffffffff1660e01b8152600401602060405180830381865afa158015610ec8573d6000803e3d6000fd5b60005b828110156113fd5760006005600086868581811061131e5761131e6159ce565b905060200201602081019061133391906157ac565b6001600160a01b031681526020810191909152604001600090812080547fffffffffffffffffffffffffffffffffffffffffffffffffffffffffffffff001692151592909217909155600190600590868685818110611394576113946159ce565b90506020020160208101906113a991906157ac565b6001600160a01b0316815260208101919091526040016000208054911515610100027fffffffffffffffffffffffffffffffffffffffffffffffffffffffffffff00ff9092169190911790556001016112fe565b507f8021bce60b20a9afb57085869a3552e0ee5b272b868df894fb30c5e90e74c072838361142961224e565b60405161143893929190615a7a565b60405180910390a1505050565b61144d61559e565b6001600160a01b0382166000908152600460209081526040918290208251608081018452815467ffffffffffffffff1681526001820154818401528351610440810180865291949293858401939192600286019284929083019184919082845b8154815260200190600101908083116114ad575050509183525050602091820154908201529082526023929092015491015292915050565b6001600160a01b03811660009081526004602052604081206001015461150b8330612d6b565b6109aa91906159bb565b61154d606082013561152a60208401846157ac565b608084013561153f60608601604087016157ac565b602086013560a08701612e31565b7faaca6f6829d340365b5e6599e0d513cbb4602b94f58ccf16ac77d8d3ae7139ef61157e60608301604084016157ac565b61158b60208401846157ac565b60608401356080850135602086013560017f000000000000000000000000000000000000000000000000000000000000000060018111156115ce576115ce61593f565b146115da5760006115dd565b60015b6115e561224e565b604080516001600160a01b039889168152968816602088015286019490945260608501929092526080840152151560a083015290911660c082015260e00160405180910390a1610a64610a4660208301836157ac565b6001600160a01b03808216600090815260056020908152604091829020825160a081018452815460ff808216151583526101008204161580159483019490945263ffffffff6201000082041694820194909452660100000000000090930490931660608301526001909201546080820152906116ee576040517f4bba81f00000000000000000000000000000000000000000000000000000000081526001600160a01b0383166004820152602401610ce8565b60808101516001600160a01b0383166000908152600460205260409020600101541015611773576001600160a01b03821660009081526004602081905260409182902060010154608084015192517fc3e11b79000000000000000000000000000000000000000000000000000000008152918201526024810191909152604401610ce8565b611289348383612f07565b60005b818110156117b2576117aa83838381811061179e5761179e6159ce565b90506104a00201611515565b600101611781565b505050565b600080548082036117ca57600091505090565b6117d762127500826159bb565b4210156117e657600191505090565b804210156117f657600291505090565b600391505090565b60004660001981016118135761a4b191505090565b61a4b1810361182457600191505090565b62aa36a781036118385762066eee91505090565b62066eee810361184c5762aa36a791505090565b600091505090565b7ff0c57e16840df040f15088dc2f81fe391c3923bec73e23a9662efc9c229c6a00805468010000000000000000810460ff16159067ffffffffffffffff1660008115801561189f5750825b905060008267ffffffffffffffff1660011480156118bc5750303b155b9050811580156118ca575080155b15611901576040517ff92ee8a900000000000000000000000000000000000000000000000000000000815260040160405180910390fd5b84547fffffffffffffffffffffffffffffffffffffffffffffffff000000000000000016600117855583156119625784547fffffffffffffffffffffffffffffffffffffffffffffff00ffffffffffffffff16680100000000000000001785555b600186905583156119c85784547fffffffffffffffffffffffffffffffffffffffffffffff00ffffffffffffffff168555604051600181527fc7f505b2f371ae2175ee4913f4499e1f2633a7b5936321eed1cdaeb6115181d29060200160405180910390a15b505050505050565b60006119da6117b7565b905060038160038111156119f0576119f061593f565b14158015611a1057506002816003811115611a0d57611a0d61593f565b14155b8015611a3a57506001600160a01b038616600090815260056020526040902054610100900460ff16155b15611a7c576040517f4bba81f00000000000000000000000000000000000000000000000000000000081526001600160a01b0387166004820152602401610ce8565b6001600160a01b0386166000908152600460205260409020602381015415801590611ab757508360018260230154611ab491906159bb565b10155b15611b00576040517fa4e6bcec0000000000000000000000000000000000000000000000000000000081526001600160a01b038816600482015260248101859052604401610ce8565b604080516001600160a01b03891660208201526000910160408051808303601f19018152918152815160209283012060601c60008181526002845282812060088a901c8252909352912054909150600160ff87161b1615611b9f576040517fa4e6bcec0000000000000000000000000000000000000000000000000000000081526001600160a01b038916600482015260248101869052604401610ce8565b6001600160a01b03908116600090815260026020818152604080842060088a901c855282528084208054600160ff8c161b179055938b16835260049052919020611bf791611bed9101613127565b89888888886144dd565b5050505050505050565b60017f00000000000000000000000000000000000000000000000000000000000000006001811115611c3557611c3561593f565b03611c4457611c44848461279b565b6000611c4f60015490565b6040517f5dd8f6aa000000000000000000000000000000000000000000000000000000008152600481018290529091507f00000000000000000000000000000000000000000000000000000000000000006001600160a01b031690635dd8f6aa90602401602060405180830381865afa158015611cd0573d6000803e3d6000fd5b505050506040513d601f19601f82011682018060405250810190611cf49190615a20565b6040517fc7fb92de00000000000000000000000000000000000000000000000000000000815260048101839052602481018590526001600160a01b03848116604483015260a06064830152600060a483018190526084830152919091169063c7fb92de9060c4016020604051808303816000875af1158015611d7a573d6000803e3d6000fd5b505050506040513d601f19601f820116820180604052508101906119c89190615ada565b6000611dad60208401846157ac565b6001600160a01b03808216600090815260056020908152604091829020825160a081018452815460ff808216151583526101008204161580159483019490945263ffffffff6201000082041694820194909452660100000000000090930490931660608301526001909201546080820152919250611e62576040517f4bba81f00000000000000000000000000000000000000000000000000000000081526001600160a01b0383166004820152602401610ce8565b611e6b8461458f565b6000611e7660015490565b9050611f737f00000000000000000000000000000000000000000000000000000000000000006001600160a01b031663293c49996040518163ffffffff1660e01b8152600401602060405180830381865afa158015611ed9573d6000803e3d6000fd5b505050506040513d601f19601f82011682018060405250810190611efd9190615a20565b6001600160a01b0316636352211e836040518263ffffffff1660e01b8152600401611f2a91815260200190565b602060405180830381865afa158015611f47573d6000803e3d6000fd5b505050506040513d601f19601f82011682018060405250810190611f6b9190615a20565b82601c612651565b60608201516001600160a01b031615801590611fb45750611f9a60608601604087016157ac565b6001600160a01b031682606001516001600160a01b031614155b8015611fd957506000611fcd60608701604088016157ac565b6001600160a01b031614155b8015611fff57506001600160a01b03831660009081526004602052604090206022015415155b1561204f5760608201516040517f1460b5460000000000000000000000000000000000000000000000000000000081526001600160a01b0380861660048301529091166024820152604401610ce8565b600061206160608701604088016157ac565b6001600160a01b031614801561209157506001600160a01b03831660009081526004602052604090206001015415155b156120a1576120a1848484612f07565b6040518060a0016040528060006001600160a01b03168760400160208101906120ca91906157ac565b6001600160a01b03161415151581526020016000151581526020018660200160208101906120f89190615af3565b63ffffffff16815260200160006121156060890160408a016157ac565b6001600160a01b0316146121385761213360608801604089016157ac565b61213e565b83606001515b6001600160a01b039081168252606097880135602092830152948516600090815260058252604090819020835181549385015192850151998501517fffffffffffffffffffffffffffffffffffffffffffffffffffffffffffff00009094169015157fffffffffffffffffffffffffffffffffffffffffffffffffffffffffffff00ff161761010092151592909202919091177fffffffffffff000000000000000000000000000000000000000000000000ffff166201000063ffffffff909916989098027fffffffffffff0000000000000000000000000000000000000000ffffffffffff16979097176601000000000000919095160293909317855550506080015160019092019190915550565b60006122586146ca565b905090565b6040516001600160a01b038481166024830152838116604483015260648201839052610b649186918216906323b872dd906084015b604051602081830303815290604052915060e01b6020820180517bffffffffffffffffffffffffffffffffffffffffffffffffffffffff838183161783525050505061471c565b6000806122e560015490565b6040517f86202650000000000000000000000000000000000000000000000000000000008152600481018290526001600160a01b0386811660248301529192506000917f00000000000000000000000000000000000000000000000000000000000000001690638620265090604401602060405180830381865afa158015612371573d6000803e3d6000fd5b505050506040513d601f19601f820116820180604052508101906123959190615a20565b90506001600160a01b0381166123e9576040517fb61c181f000000000000000000000000000000000000000000000000000000008152600481018390526001600160a01b0386166024820152604401610ce8565b60006123f58630612d6b565b604080516020810182526000815290517f13da83170000000000000000000000000000000000000000000000000000000081529192506001600160a01b038416916313da83179161245491309188918d918d918d918691600401615b69565b6020604051808303816000875af1158015612473573d6000803e3d6000fd5b505050506040513d601f19601f820116820180604052508101906124979190615ada565b9350806124a48730612d6b565b6124ae91906159bb565b84146124bc576124bc615bbc565b505050949350505050565b6040805160208082018790528183018590526001600160a01b03841660608084019190915283518084039091018152608090920190925280519101206000906001600160a01b03851660009081526004602090815260408083208151610440810180845295965090946125709387936002880192849291830191849182845b815481526020019060010190808311612546575050509183525050602091820154910152906147a6565b80519091508190600284019061258990829060206155ca565b5060208201518160200155905050848260010160008282546125ab9190615a3d565b92505081905550856001600160a01b0316846001600160a01b03167f584a41ff082fad99bb6e50c5767c347c762057fe5726539f0a8de49d84549c2385600185602001516125f991906159bb565b61260587600201613127565b8c8b61260f61224e565b60408051968752602087019590955293850192909252606084015260808301526001600160a01b031660a082015260c00160405180910390a350505050505050565b600061265b61224e565b9050836001600160a01b0316816001600160a01b03161415801561274357506040517f348b684e0000000000000000000000000000000000000000000000000000000081526001600160a01b0382811660048301528581166024830152604482018590526064820184905260016084830181905260a48301527f0000000000000000000000000000000000000000000000000000000000000000169063348b684e9060c401602060405180830381865afa15801561271d573d6000803e3d6000fd5b505050506040513d601f19601f820116820180604052508101906127419190615bd2565b155b15610b64576040517f264deeaa0000000000000000000000000000000000000000000000000000000081526001600160a01b038086166004830152821660248201526044810184905260648101839052608401610ce8565b60006127a6836114e5565b9050808211156127ec576040517f60ec3e710000000000000000000000000000000000000000000000000000000081526004810183905260248101829052604401610ce8565b60006127f760015490565b6040517f86202650000000000000000000000000000000000000000000000000000000008152600481018290526001600160a01b0386811660248301529192506000917f00000000000000000000000000000000000000000000000000000000000000001690638620265090604401602060405180830381865afa158015612883573d6000803e3d6000fd5b505050506040513d601f19601f820116820180604052508101906128a79190615a20565b90506001600160a01b0381166128fb576040517fb61c181f000000000000000000000000000000000000000000000000000000008152600481018390526001600160a01b0386166024820152604401610ce8565b6001600160a01b03851661eeee14612ae4576040517f70a082310000000000000000000000000000000000000000000000000000000081523060048201526000906001600160a01b038716906370a0823190602401602060405180830381865afa15801561296d573d6000803e3d6000fd5b505050506040513d601f19601f820116820180604052508101906129919190615ada565b905061299e8683876148de565b6040517f9e6eec05000000000000000000000000000000000000000000000000000000008152600481018490526001600160a01b0387811660248301526044820187905260006064830181905260c0608484015260c4830181905260e060a484015260e4830152831690639e6eec059061010401600060405180830381600087803b158015612a2c57600080fd5b505af1158015612a40573d6000803e3d6000fd5b505050508481612a5091906159bb565b6040517f70a082310000000000000000000000000000000000000000000000000000000081523060048201526001600160a01b038816906370a0823190602401602060405180830381865afa158015612aad573d6000803e3d6000fd5b505050506040513d601f19601f82011682018060405250810190612ad19190615ada565b14612ade57612ade615bbc565b50612b8d565b6040517f9e6eec05000000000000000000000000000000000000000000000000000000008152600481018390526001600160a01b0386811660248301526044820186905260006064830181905260c0608484015260c4830181905260e060a484015260e4830152821690639e6eec05908690610104016000604051808303818588803b158015612b7357600080fd5b505af1158015612b87573d6000803e3d6000fd5b50505050505b5050505050565b6000807f00000000000000000000000000000000000000000000000000000000000000006001811115612bc957612bc961593f565b03612d4f5760007f00000000000000000000000000000000000000000000000000000000000000006001600160a01b031663e78cea926040518163ffffffff1660e01b8152600401602060405180830381865afa158015612c2e573d6000803e3d6000fd5b505050506040513d601f19601f82011682018060405250810190612c529190615a20565b9050806001600160a01b0316836001600160a01b0316148015612d485750806001600160a01b031663ab5d89436040518163ffffffff1660e01b8152600401602060405180830381865afa158015612cae573d6000803e3d6000fd5b505050506040513d601f19601f82011682018060405250810190612cd29190615a20565b6001600160a01b03166380648b026040518163ffffffff1660e01b8152600401602060405180830381865afa158015612d0f573d6000803e3d6000fd5b505050506040513d601f19601f82011682018060405250810190612d339190615a20565b6001600160a01b0316306001600160a01b0316145b9392505050565b7311110000000000000000000000000000000011113001610dcb565b60007fffffffffffffffffffffffffffffffffffffffffffffffffffffffffffff11126001600160a01b03841601612dae57506001600160a01b038116316109aa565b6040517f70a082310000000000000000000000000000000000000000000000000000000081526001600160a01b0383811660048301528416906370a0823190602401602060405180830381865afa158015612e0d573d6000803e3d6000fd5b505050506040513d601f19601f82011682018060405250810190612d489190615ada565b6001600160a01b0385166000908152600260209081526040808320600886901c8452909152902054600160ff84161b1615612eaa576040517fa4e6bcec0000000000000000000000000000000000000000000000000000000081526001600160a01b038616600482015260248101839052604401610ce8565b6001600160a01b0385166000908152600260209081526040808320600886901c845290915290208054600160ff85161b1790556001600160a01b0385166000908152600360205260409020600101546119c89087868686866144dd565b60608101516001600160a01b0316612f56576040517f04fdbe060000000000000000000000000000000000000000000000000000000081526001600160a01b0383166004820152602401610ce8565b6000612f606117b7565b90506003816003811115612f7657612f7661593f565b1480612f9357506002816003811115612f9157612f9161593f565b145b15612fca576040517fb10f8cca00000000000000000000000000000000000000000000000000000000815260040160405180910390fd5b6001600160a01b038316600090815260046020526040812060018101805490839055815491929091839082906130099067ffffffffffffffff16615bf4565b91906101000a81548167ffffffffffffffff021916908367ffffffffffffffff16021790559050600061303e84600201613127565b602285015460238601819055909150600061305a6001836159bb565b9050886001600160a01b0316837f47c5615513b0f669da2dd7e3362a34610ca2695d0a0e2da2160cee952eab203c838761309261224e565b6040805193845267ffffffffffffffff90921660208401526001600160a01b03169082015260600160405180910390a3600060405180606001604052808a606001516001600160a01b0316815260200187815260200160405180604001604052808867ffffffffffffffff16815260200187815250815250905061311a8b838c898d8661499c565b5050505050505050505050565b602081015460009080820361315e57507f27ae5ba08d7291c96c8cbddcc148bf48a6d68c7974b94356f53754ef6171d75792915050565b6000836001831615613180578054600052600060205260406000209350613a33565b60028316156131c55760018101546000527fad3228b676f7d3cd4284a5443f17f1962b36e491b30a40b2405849e597ba5fb56020526040600020935060019150613a33565b600483161561320a5760028101546000527fb4c11951957c6f8f642c4af61cd6b24640fec6dc7fc607ee8206a99e92410d306020526040600020935060029150613a33565b600883161561324f5760038101546000527f21ddb9a356815c3fac1026b6dec5df3124afbadb485c9ba5a3e3398a04b7ba856020526040600020935060039150613a33565b60108316156132945760048101546000527fe58769b32a1beaf1ea27375a44095a0d1fb664ce2dd358e7fcbfb78c26a193446020526040600020935060049150613a33565b60208316156132d95760058101546000527f0eb01ebfc9ed27500cd4dfc979272d1f0913cc9f66540d7e8005811109e1cf2d6020526040600020935060059150613a33565b604083161561331e5760068101546000527f887c22bd8750d34016ac3c66b5ff102dacdd73f6b014e710b51e8022af9a19686020526040600020935060069150613a33565b60808316156133635760078101546000527fffd70157e48063fc33c97a050f7f640233bf646cc98d9524c6b92bcf3ab56f836020526040600020935060079150613a33565b6101008316156133a95760088101546000527f9867cc5f7f196b93bae1e27e6320742445d290f2263827498b54fec539f756af6020526040600020935060089150613a33565b6102008316156133ef5760098101546000527fcefad4e508c098b9a7e1d8feb19955fb02ba9675585078710969d3440f5054e06020526040600020935060099150613a33565b61040083161561343557600a8101546000527ff9dc3e7fe016e050eff260334f18a5d4fe391d82092319f5964f2e2eb7c1c3a560205260406000209350600a9150613a33565b61080083161561347b57600b8101546000527ff8b13a49e282f609c317a833fb8d976d11517c571d1221a265d25af778ecf89260205260406000209350600b9150613a33565b6110008316156134c157600c8101546000527f3490c6ceeb450aecdc82e28293031d10c7d73bf85e57bf041a97360aa2c5d99c60205260406000209350600c9150613a33565b61200083161561350757600d8101546000527fc1df82d9c4b87413eae2ef048f94b4d3554cea73d92b0f7af96e0271c691e2bb60205260406000209350600d9150613a33565b61400083161561354d57600e8101546000527f5c67add7c6caf302256adedf7ab114da0acfe870d449a3a489f781d659e8becc60205260406000209350600e9150613a33565b61800083161561359357600f8101546000527fda7bce9f4e8618b6bd2f4132ce798cdc7a60e7e1460a7299e3c6342a579626d260205260406000209350600f9150613a33565b620100008316156135da5760108101546000527f2733e50f526ec2fa19a22b31e8ed50f23cd1fdf94c9154ed3a7609a2f1ff981f6020526040600020935060109150613a33565b620200008316156136215760118101546000527fe1d3b5c807b281e4683cc6d6315cf95b9ade8641defcb32372f1c126e398ef7a6020526040600020935060119150613a33565b620400008316156136685760128101546000527f5a2dce0a8a7f68bb74560f8f71837c2c2ebbcbf7fffb42ae1896f13f7c7479a06020526040600020935060129150613a33565b620800008316156136af5760138101546000527fb46a28b6f55540f89444f63de0378e3d121be09e06cc9ded1c20e65876d36aa06020526040600020935060139150613a33565b621000008316156136f65760148101546000527fc65e9645644786b620e2dd2ad648ddfcbf4a7e5b1a3a4ecfe7f64667a3f0b7e26020526040600020935060149150613a33565b6220000083161561373d5760158101546000527ff4418588ed35a2458cffeb39b93d26f18d2ab13bdce6aee58e7b99359ec2dfd96020526040600020935060159150613a33565b624000008316156137845760168101546000527f5a9c16dc00d6ef18b7933a6f8dc65ccb55667138776f7dea101070dc8796e3776020526040600020935060169150613a33565b628000008316156137cb5760178101546000527f4df84f40ae0c8229d0d6069e5c8f39a7c299677a09d367fc7b05e3bc380ee6526020526040600020935060179150613a33565b63010000008316156138135760188101546000527fcdc72595f74c7b1043d0e1ffbab734648c838dfb0527d971b602bc216c9619ef6020526040600020935060189150613a33565b630200000083161561385b5760198101546000527f0abf5ac974a1ed57f4050aa510dd9c74f508277b39d7973bb2dfccc5eeb0618d6020526040600020935060199150613a33565b63040000008316156138a357601a8101546000527fb8cd74046ff337f0a7bf2c8e03e10f642c1886798d71806ab1e888d9e5ee87d060205260406000209350601a9150613a33565b63080000008316156138eb57601b8101546000527f838c5655cb21c6cb83313b5a631175dff4963772cce9108188b34ac87c81c41e60205260406000209350601b9150613a33565b631000000083161561393357601c8101546000527f662ee4dd2dd7b2bc707961b1e646c4047669dcb6584f0d8d770daf5d7e7deb2e60205260406000209350601c9150613a33565b632000000083161561397b57601d8101546000527f388ab20e2573d171a88108e79d820e98f26c0b84aa8b2f4aa4968dbb818ea32260205260406000209350601d9150613a33565b63400000008316156139c357601e8101546000527f93237c50ba75ee485f4c22adf2f741400bdf8d6a9cc7df7ecae576221665d73560205260406000209350601e9150613a33565b6380000000831615613a0b57601f8101546000527f8448818bb4ae4562849e949e17ac16e0be16688e156b5cf15e098c627c0056a960205260406000209350601f9150613a33565b7f27ae5ba08d7291c96c8cbddcc148bf48a6d68c7974b94356f53754ef6171d7579350602091505b601e82116144d5576001821015613a9157600283168015613a5f57600182015460005284602052613a88565b846000527fad3228b676f7d3cd4284a5443f17f1962b36e491b30a40b2405849e597ba5fb56020525b50604060002093505b6002821015613ae757600483168015613ab557600282015460005284602052613ade565b846000527fb4c11951957c6f8f642c4af61cd6b24640fec6dc7fc607ee8206a99e92410d306020525b50604060002093505b6003821015613b3d57600883168015613b0b57600382015460005284602052613b34565b846000527f21ddb9a356815c3fac1026b6dec5df3124afbadb485c9ba5a3e3398a04b7ba856020525b50604060002093505b6004821015613b9357601083168015613b6157600482015460005284602052613b8a565b846000527fe58769b32a1beaf1ea27375a44095a0d1fb664ce2dd358e7fcbfb78c26a193446020525b50604060002093505b6005821015613be957602083168015613bb757600582015460005284602052613be0565b846000527f0eb01ebfc9ed27500cd4dfc979272d1f0913cc9f66540d7e8005811109e1cf2d6020525b50604060002093505b6006821015613c3f57604083168015613c0d57600682015460005284602052613c36565b846000527f887c22bd8750d34016ac3c66b5ff102dacdd73f6b014e710b51e8022af9a19686020525b50604060002093505b6007821015613c9557608083168015613c6357600782015460005284602052613c8c565b846000527fffd70157e48063fc33c97a050f7f640233bf646cc98d9524c6b92bcf3ab56f836020525b50604060002093505b6008821015613cec5761010083168015613cba57600882015460005284602052613ce3565b846000527f9867cc5f7f196b93bae1e27e6320742445d290f2263827498b54fec539f756af6020525b50604060002093505b6009821015613d435761020083168015613d1157600982015460005284602052613d3a565b846000527fcefad4e508c098b9a7e1d8feb19955fb02ba9675585078710969d3440f5054e06020525b50604060002093505b600a821015613d9a5761040083168015613d6857600a82015460005284602052613d91565b846000527ff9dc3e7fe016e050eff260334f18a5d4fe391d82092319f5964f2e2eb7c1c3a56020525b50604060002093505b600b821015613df15761080083168015613dbf57600b82015460005284602052613de8565b846000527ff8b13a49e282f609c317a833fb8d976d11517c571d1221a265d25af778ecf8926020525b50604060002093505b600c821015613e485761100083168015613e1657600c82015460005284602052613e3f565b846000527f3490c6ceeb450aecdc82e28293031d10c7d73bf85e57bf041a97360aa2c5d99c6020525b50604060002093505b600d821015613e9f5761200083168015613e6d57600d82015460005284602052613e96565b846000527fc1df82d9c4b87413eae2ef048f94b4d3554cea73d92b0f7af96e0271c691e2bb6020525b50604060002093505b600e821015613ef65761400083168015613ec457600e82015460005284602052613eed565b846000527f5c67add7c6caf302256adedf7ab114da0acfe870d449a3a489f781d659e8becc6020525b50604060002093505b600f821015613f4d5761800083168015613f1b57600f82015460005284602052613f44565b846000527fda7bce9f4e8618b6bd2f4132ce798cdc7a60e7e1460a7299e3c6342a579626d26020525b50604060002093505b6010821015613fa5576201000083168015613f7357601082015460005284602052613f9c565b846000527f2733e50f526ec2fa19a22b31e8ed50f23cd1fdf94c9154ed3a7609a2f1ff981f6020525b50604060002093505b6011821015613ffd576202000083168015613fcb57601182015460005284602052613ff4565b846000527fe1d3b5c807b281e4683cc6d6315cf95b9ade8641defcb32372f1c126e398ef7a6020525b50604060002093505b60128210156140555762040000831680156140235760128201546000528460205261404c565b846000527f5a2dce0a8a7f68bb74560f8f71837c2c2ebbcbf7fffb42ae1896f13f7c7479a06020525b50604060002093505b60138210156140ad57620800008316801561407b576013820154600052846020526140a4565b846000527fb46a28b6f55540f89444f63de0378e3d121be09e06cc9ded1c20e65876d36aa06020525b50604060002093505b60148210156141055762100000831680156140d3576014820154600052846020526140fc565b846000527fc65e9645644786b620e2dd2ad648ddfcbf4a7e5b1a3a4ecfe7f64667a3f0b7e26020525b50604060002093505b601582101561415d57622000008316801561412b57601582015460005284602052614154565b846000527ff4418588ed35a2458cffeb39b93d26f18d2ab13bdce6aee58e7b99359ec2dfd96020525b50604060002093505b60168210156141b5576240000083168015614183576016820154600052846020526141ac565b846000527f5a9c16dc00d6ef18b7933a6f8dc65ccb55667138776f7dea101070dc8796e3776020525b50604060002093505b601782101561420d5762800000831680156141db57601782015460005284602052614204565b846000527f4df84f40ae0c8229d0d6069e5c8f39a7c299677a09d367fc7b05e3bc380ee6526020525b50604060002093505b6018821015614266576301000000831680156142345760188201546000528460205261425d565b846000527fcdc72595f74c7b1043d0e1ffbab734648c838dfb0527d971b602bc216c9619ef6020525b50604060002093505b60198210156142bf5763020000008316801561428d576019820154600052846020526142b6565b846000527f0abf5ac974a1ed57f4050aa510dd9c74f508277b39d7973bb2dfccc5eeb0618d6020525b50604060002093505b601a821015614318576304000000831680156142e657601a8201546000528460205261430f565b846000527fb8cd74046ff337f0a7bf2c8e03e10f642c1886798d71806ab1e888d9e5ee87d06020525b50604060002093505b601b8210156143715763080000008316801561433f57601b82015460005284602052614368565b846000527f838c5655cb21c6cb83313b5a631175dff4963772cce9108188b34ac87c81c41e6020525b50604060002093505b601c8210156143ca5763100000008316801561439857601c820154600052846020526143c1565b846000527f662ee4dd2dd7b2bc707961b1e646c4047669dcb6584f0d8d770daf5d7e7deb2e6020525b50604060002093505b601d821015614423576320000000831680156143f157601d8201546000528460205261441a565b846000527f388ab20e2573d171a88108e79d820e98f26c0b84aa8b2f4aa4968dbb818ea3226020525b50604060002093505b601e82101561447c5763400000008316801561444a57601e82015460005284602052614473565b846000527f93237c50ba75ee485f4c22adf2f741400bdf8d6a9cc7df7ecae576221665d7356020525b50604060002093505b601f8210156144d5576380000000831680156144a357601f820154600052846020526144cc565b846000527f8448818bb4ae4562849e949e17ac16e0be16688e156b5cf15e098c627c0056a96020525b50604060002093505b505050919050565b6040805160208082018890528183018790526001600160a01b038616606080840191909152835180840390910181526080830180855281519183019190912061048090930190935260009261454b92918590828261040080828437600092019190915250879150614ad69050565b9050868114610d9e576040517ee587d20000000000000000000000000000000000000000000000000000000081526004810182905260248101889052604401610ce8565b600061eeee6145a160208401846157ac565b6001600160a01b03161490508080156145d4575061eeee6145c860608401604085016157ac565b6001600160a01b031614155b80156145f9575060006145ed60608401604085016157ac565b6001600160a01b031614155b1561464c5761460e60608301604084016157ac565b6040517ff41f6def0000000000000000000000000000000000000000000000000000000081526001600160a01b039091166004820152602401610ce8565b62030d406146606040840160208501615af3565b63ffffffff16108015614671575080155b15611289576146866040830160208401615af3565b6040517f555d0f1000000000000000000000000000000000000000000000000000000000815263ffffffff909116600482015262030d406024820152604401610ce8565b60003660146146d833610da7565b80156146e45750808210155b15614714576000366146f683856159bb565b614701928290615c1b565b61470a91615c45565b60601c9250505090565b339250505090565b600080602060008451602086016000885af18061473f576040513d6000823e3d81fd5b50506000513d91508115614757578060011415614764565b6001600160a01b0384163b155b15610b64576040517f5274afe70000000000000000000000000000000000000000000000000000000081526001600160a01b0385166004820152602401610ce8565b6147ae615608565b60008360200180516147bf906159e4565b90819052905060016147d360206002615d71565b6147dd91906159bb565b811115614816576040517f8eab04bb00000000000000000000000000000000000000000000000000000000815260040160405180910390fd5b60005b60208110156148ab578160011660010361485257845184908260208110614842576148426159ce565b6020020152508391506109aa9050565b84518160208110614865576148656159ce565b602002015184604051602001614885929190918252602082015260400190565b60408051601f1981840301815291905280516020909101209350600191821c9101614819565b506040517f8eab04bb00000000000000000000000000000000000000000000000000000000815260040160405180910390fd5b604080516001600160a01b038416602482015260448082018490528251808303909101815260649091019091526020810180517bffffffffffffffffffffffffffffffffffffffffffffffffffffffff167f095ea7b30000000000000000000000000000000000000000000000000000000017905261495d8482614e24565b610b64576040516001600160a01b0384811660248301526000604483015261499291869182169063095ea7b390606401612292565b610b64848261471c565b851580156149db575060007f000000000000000000000000000000000000000000000000000000000000000060018111156149d9576149d961593f565b145b15614a12576040517f3cb7b09b00000000000000000000000000000000000000000000000000000000815260040160405180910390fd5b600081604051602401614a259190615d7d565b60408051601f198184030181529190526020810180517bffffffffffffffffffffffffffffffffffffffffffffffffffffffff167f69d31fdd00000000000000000000000000000000000000000000000000000000179052905060007f00000000000000000000000000000000000000000000000000000000000000006001811115614ab357614ab361593f565b03614aca57614ac58588868487614e73565b610d9e565b610d9e85858386615349565b6020600582811b8216948552835194820394909452604060008181206002851615871b808503919091528386015190528181206004851615871b808503919091528286015190528181206008851615871b80850391909152606086015190528181206010851615871b8085039190915260808087015190915282822084861615881b8086039190915260a0870151905282822083861615881b8086039190915260c0870151905282822090851615871b8085039190915260e0860151905281812061010080861615881b80860392909252860151905281812061020080861615881b80860392909252610120870151909152828220610400861615881b808603919091526101408701519052828220610800861615881b808603919091526101608701519052828220611000861615881b808603919091526101808701519052828220612000861615881b808603919091526101a08701519052828220614000861615881b808603919091526101c08701519052828220618000861615881b808603919091526101e0870151905282822062010000861615881b8086039190915290860151905281812062020000851615871b80850391909152610220860151905281812062040000851615871b80850391909152610240860151905281812062080000851615871b80850391909152610260860151905281812062100000851615871b80850391909152610280860151905281812062200000851615871b808503919091526102a0860151905281812062400000851615871b808503919091526102c0860151905281812062800000851615871b808503919091526102e086015190528181206301000000851615871b8085039190915261030086015190528181206302000000851615871b8085039190915261032086015190528181206304000000851615871b8085039190915261034086015190528181206308000000851615871b8085039190915261036086015190528181206310000000851615871b8085039190915261038086015190528181206320000000851615871b808503919091526103a086015190528181206340000000851615871b808503919091526103c0860151905281812063800000009094161590951b91829003929092526103e090920151909152902090565b6000806000806020600086516020880160008a5af192503d91506000519050828015614e6957508115614e5a5780600114614e69565b6000866001600160a01b03163b115b9695505050505050565b81516040517fa66b327d0000000000000000000000000000000000000000000000000000000081526004810191909152486024820181905260009182907f00000000000000000000000000000000000000000000000000000000000000006001600160a01b03169063a66b327d90604401602060405180830381865afa158015614f01573d6000803e3d6000fd5b505050506040513d601f19601f82011682018060405250810190614f259190615ada565b90506000614f3683620493e0615dc9565b614f409083615a3d565b90506001600160a01b03891661eeee1461524e576040517fa66b327d00000000000000000000000000000000000000000000000000000000815260606004820152602481018490526000907f00000000000000000000000000000000000000000000000000000000000000006001600160a01b03169063a66b327d90604401602060405180830381865afa158015614fdc573d6000803e3d6000fd5b505050506040513d601f19601f820116820180604052508101906150009190615ada565b9050600084876040015163ffffffff1661501a9190615dc9565b6150249083615a3d565b90506150308184615a3d565b8a101561507d57896150428285615a3d565b6040517f514f519600000000000000000000000000000000000000000000000000000000815260048101929092526024820152604401610ce8565b600060028261508c868e6159bb565b61509691906159bb565b6150a091906159fe565b90506150ac8183615a3d565b91506150b88185615a3d565b6040517fbda009fe0000000000000000000000000000000000000000000000000000000081526001600160a01b03808f16600483015291955061516b92508d917f0000000000000000000000000000000000000000000000000000000000000000169063bda009fe90602401602060405180830381865afa158015615141573d6000803e3d6000fd5b505050506040513d601f19601f820116820180604052508101906151659190615a20565b8b6148de565b7f00000000000000000000000000000000000000000000000000000000000000006001600160a01b0316634fb1a07b828d6151a461224e565b308e8d604001518c8a604051806020016040528060008152506040516020016151ce929190615de0565b6040516020818303038152906040526040518963ffffffff1660e01b81526004016151ff9796959493929190615e01565b60006040518083038185885af115801561521d573d6000803e3d6000fd5b50505050506040513d6000823e601f3d908101601f191682016040526152469190810190615e63565b505050615298565b80881015615292576040517f514f51960000000000000000000000000000000000000000000000000000000081526004810189905260248101829052604401610ce8565b50859250865b6001600160a01b037f000000000000000000000000000000000000000000000000000000000000000016636e6e8a6a6152d18684615a3d565b3087866152dc61224e565b30620493e08b8f6040518a63ffffffff1660e01b8152600401615306989796959493929190615f10565b60206040518083038185885af1158015615324573d6000803e3d6000fd5b50505050506040513d601f19601f82011682018060405250810190612b879190615ada565b60003415615385576040517fd7468c32000000000000000000000000000000000000000000000000000000008152346004820152602401610ce8565b6001600160a01b03851661eeee14615517576040517fbda009fe0000000000000000000000000000000000000000000000000000000081526001600160a01b0380871660048301526154469187917f0000000000000000000000000000000000000000000000000000000000000000169063bda009fe90602401602060405180830381865afa15801561541c573d6000803e3d6000fd5b505050506040513d601f19601f820116820180604052508101906154409190615a20565b866148de565b7f00000000000000000000000000000000000000000000000000000000000000006001600160a01b0316637b3a3c8b83606001516154813090565b604080516020810182526000815290517fffffffff0000000000000000000000000000000000000000000000000000000060e086901b1681526154ca9392918a91600401615f72565b6000604051808303816000875af11580156154e9573d6000803e3d6000fd5b505050506040513d6000823e601f3d908101601f191682016040526155119190810190615e63565b5061551a565b50825b6040517f928c169a00000000000000000000000000000000000000000000000000000000815260649063928c169a90839061555b9030908890600401615fa4565b60206040518083038185885af1158015615579573d6000803e3d6000fd5b50505050506040513d601f19601f820116820180604052508101906119c89190615ada565b60408051608081018252600080825260208201529081016155bd615608565b8152602001600081525090565b82602081019282156155f8579160200282015b828111156155f85782518255916020019190600101906155dd565b5061560492915061561b565b5090565b60405180604001604052806155bd615630565b5b80821115615604576000815560010161561c565b6040518061040001604052806020906020820280368337509192915050565b60006020828403121561566157600080fd5b81357fffffffff0000000000000000000000000000000000000000000000000000000081168114612d4857600080fd5b60006104a082840312156156a457600080fd5b50919050565b600080602083850312156156bd57600080fd5b823567ffffffffffffffff808211156156d557600080fd5b818501915085601f8301126156e957600080fd5b8135818111156156f857600080fd5b8660208260071b850101111561570d57600080fd5b60209290920196919550909350505050565b6000608082840312156156a457600080fd5b60006080828403121561574357600080fd5b612d48838361571f565b6001600160a01b0381168114610a6457600080fd5b6000806000806080858703121561577857600080fd5b84359350602085013561578a8161574d565b92506040850135915060608501356157a18161574d565b939692955090935050565b6000602082840312156157be57600080fd5b8135612d488161574d565b6000602082840312156157db57600080fd5b813564ffffffffff81168114612d4857600080fd5b815167ffffffffffffffff16815260208083015190820152604081016109aa565b6000806020838503121561582457600080fd5b823567ffffffffffffffff8082111561583c57600080fd5b818501915085601f83011261585057600080fd5b81358181111561585f57600080fd5b8660208260051b850101111561570d57600080fd5b815167ffffffffffffffff1681526020808301518183015260408084015180516104808501939260009086015b848210156158bf5782518152918401916001919091019084016158a1565b5050500151610440830152606092909201516104609091015290565b600080602083850312156158ee57600080fd5b823567ffffffffffffffff8082111561590657600080fd5b818501915085601f83011261591a57600080fd5b81358181111561592957600080fd5b8660206104a08302850101111561570d57600080fd5b634e487b7160e01b600052602160045260246000fd5b60208101600483106159695761596961593f565b91905290565b60028110610a6457610a6461593f565b602081016159698361596f565b60006020828403121561599e57600080fd5b5035919050565b634e487b7160e01b600052601160045260246000fd5b818103818111156109aa576109aa6159a5565b634e487b7160e01b600052603260045260246000fd5b600060001982036159f7576159f76159a5565b5060010190565b600082615a1b57634e487b7160e01b600052601260045260246000fd5b500490565b600060208284031215615a3257600080fd5b8151612d488161574d565b808201808211156109aa576109aa6159a5565b600060208284031215615a6257600080fd5b813567ffffffffffffffff81168114612d4857600080fd5b6040808252810183905260008460608301825b86811015615abd578235615aa08161574d565b6001600160a01b0316825260209283019290910190600101615a8d565b5080925050506001600160a01b0383166020830152949350505050565b600060208284031215615aec57600080fd5b5051919050565b600060208284031215615b0557600080fd5b813563ffffffff81168114612d4857600080fd5b60005b83811015615b34578181015183820152602001615b1c565b50506000910152565b60008151808452615b55816020860160208601615b19565b601f01601f19169290920160200192915050565b60006001600160a01b03808a168352886020840152876040840152808716606084015285608084015280851660a08401525060e060c0830152615baf60e0830184615b3d565b9998505050505050505050565b634e487b7160e01b600052600160045260246000fd5b600060208284031215615be457600080fd5b81518015158114612d4857600080fd5b600067ffffffffffffffff808316818103615c1157615c116159a5565b6001019392505050565b60008085851115615c2b57600080fd5b83861115615c3857600080fd5b5050820193919092039150565b7fffffffffffffffffffffffffffffffffffffffff0000000000000000000000008135818116916014851015615c855780818660140360031b1b83161692505b505092915050565b600181815b80851115615cc8578160001904821115615cae57615cae6159a5565b80851615615cbb57918102915b93841c9390800290615c92565b509250929050565b600082615cdf575060016109aa565b81615cec575060006109aa565b8160018114615d025760028114615d0c57615d28565b60019150506109aa565b60ff841115615d1d57615d1d6159a5565b50506001821b6109aa565b5060208310610133831016604e8410600b8410161715615d4b575081810a6109aa565b615d558383615c8d565b8060001904821115615d6957615d696159a5565b029392505050565b6000612d488383615cd0565b60006080820190506001600160a01b038351168252602083015160208301526040830151615dc26040840182805167ffffffffffffffff168252602090810151910152565b5092915050565b80820281158282048414176109aa576109aa6159a5565b828152604060208201526000615df96040830184615b3d565b949350505050565b60006001600160a01b03808a168352808916602084015280881660408401525085606083015263ffffffff851660808301528360a083015260e060c0830152615baf60e0830184615b3d565b634e487b7160e01b600052604160045260246000fd5b600060208284031215615e7557600080fd5b815167ffffffffffffffff80821115615e8d57600080fd5b818401915084601f830112615ea157600080fd5b815181811115615eb357615eb3615e4d565b604051601f8201601f19908116603f01168101908382118183101715615edb57615edb615e4d565b81604052828152876020848701011115615ef457600080fd5b615f05836020830160208801615b19565b979650505050505050565b60006101006001600160a01b03808c1684528a6020850152896040850152808916606085015280881660808501525063ffffffff861660a08401528460c08401528060e0840152615f6381840185615b3d565b9b9a5050505050505050505050565b60006001600160a01b03808716835280861660208401525083604083015260806060830152614e696080830184615b3d565b6001600160a01b0383168152604060208201526000615df96040830184615b3d56fea264697066735822122027526037876c0b58f5934731f332fb041345467a51a022c31940d895117137a664736f6c63430008170033",
	"deployedBytecode": "0x",
	"gitCommit": "8b72fc75b52b1686cf762f71a59e8e62cf72a556"
}