{
	"_format": "sphinx-sol-ct-artifact-1",
	"merkleRoot": "0x6e5d77fb4834946f17aad7c3691df1e9dfd571c08c4ea1706a56c15617145b49",
	"contractName": "JBArbitrumSuckerDeployer",
	"address": "0xb91F2B8723de3C3dbA7AFdD0f88E26fD370D458e",
	"abi": [
		{
			"type": "constructor",
			"inputs": [
				{
					"name": "directory",
					"type": "address",
					"internalType": "contract IJBDirectory"
				},
				{
					"name": "permissions",
					"type": "address",
					"internalType": "contract IJBPermissions"
				},
				{
					"name": "tokens",
					"type": "address",
					"internalType": "contract IJBTokens"
				},
				{
					"name": "configurator",
					"type": "address",
					"internalType": "address"
				}
			],
			"stateMutability": "nonpayable"
		},
		{
			"type": "function",
			"name": "DIRECTORY",
			"inputs": [],
			"outputs": [
				{
					"name": "",
					"type": "address",
					"internalType": "contract IJBDirectory"
				}
			],
			"stateMutability": "view"
		},
		{
			"type": "function",
			"name": "LAYER",
			"inputs": [],
			"outputs": [
				{
					"name": "",
					"type": "uint8",
					"internalType": "enum JBLayer"
				}
			],
			"stateMutability": "view"
		},
		{
			"type": "function",
			"name": "LAYER_SPECIFIC_CONFIGURATOR",
			"inputs": [],
			"outputs": [
				{
					"name": "",
					"type": "address",
					"internalType": "address"
				}
			],
			"stateMutability": "view"
		},
		{
			"type": "function",
			"name": "PERMISSIONS",
			"inputs": [],
			"outputs": [
				{
					"name": "",
					"type": "address",
					"internalType": "contract IJBPermissions"
				}
			],
			"stateMutability": "view"
		},
		{
			"type": "function",
			"name": "TOKENS",
			"inputs": [],
			"outputs": [
				{
					"name": "",
					"type": "address",
					"internalType": "contract IJBTokens"
				}
			],
			"stateMutability": "view"
		},
		{
			"type": "function",
			"name": "createForSender",
			"inputs": [
				{
					"name": "localProjectId",
					"type": "uint256",
					"internalType": "uint256"
				},
				{
					"name": "salt",
					"type": "bytes32",
					"internalType": "bytes32"
				}
			],
			"outputs": [
				{
					"name": "sucker",
					"type": "address",
					"internalType": "contract IJBSucker"
				}
			],
			"stateMutability": "nonpayable"
		},
		{
			"type": "function",
			"name": "gatewayRouter",
			"inputs": [],
			"outputs": [
				{
					"name": "gateway",
					"type": "address",
					"internalType": "contract IArbGatewayRouter"
				}
			],
			"stateMutability": "view"
		},
		{
			"type": "function",
			"name": "isSucker",
			"inputs": [
				{
					"name": "",
					"type": "address",
					"internalType": "address"
				}
			],
			"outputs": [
				{
					"name": "",
					"type": "bool",
					"internalType": "bool"
				}
			],
			"stateMutability": "view"
		},
		{
			"type": "function",
			"name": "tempStoreId",
			"inputs": [],
			"outputs": [
				{
					"name": "",
					"type": "uint256",
					"internalType": "uint256"
				}
			],
			"stateMutability": "view"
		},
		{
			"type": "error",
			"name": "JBArbitrumSuckerDeployer_ZeroConfiguratorAddress",
			"inputs": []
		},
		{
			"type": "error",
			"name": "JBPermissioned_Unauthorized",
			"inputs": [
				{
					"name": "account",
					"type": "address",
					"internalType": "address"
				},
				{
					"name": "sender",
					"type": "address",
					"internalType": "address"
				},
				{
					"name": "projectId",
					"type": "uint256",
					"internalType": "uint256"
				},
				{
					"name": "permissionId",
					"type": "uint256",
					"internalType": "uint256"
				}
			]
		}
	],
	"solcInputHash": "71f5c033057b97af0e380280c08c36df",
	"args": [
		"0xE0B2860344bA476e12eD1d559656dA9D04F1AD22",
		"0x4CDb4200e4E65a277676Cd5E8d3c7C7C4dA7fBe5",
		"0xfF5Dd171BdA8bC78915B9a58D907Df7c10CE4E5c",
		"0x0FF306a08cf4E16570ab7a6bD95Ba52d2fe64D45"
	],
	"bytecode": "0x61012060405234801561001157600080fd5b50604051615de2380380615de283398101604081905261003091610096565b6001600160a01b03808416608052811661005d5760405163f6c4570b60e01b815260040160405180910390fd5b6001600160a01b0393841660a0529083166101005290911660e052506100f5565b6001600160a01b038116811461009357600080fd5b50565b600080600080608085870312156100ac57600080fd5b84516100b78161007e565b60208601519094506100c88161007e565b60408601519093506100d98161007e565b60608601519092506100ea8161007e565b939692955090935050565b60805160a05160c05160e05161010051615c9561014d6000396000818160f2015261035d01526000610119015260006101b1015260008181610157015261031b0152600081816101e5015261033c0152615c956000f3fe608060405234801561001057600080fd5b50600436106100a35760003560e01c80633691b46111610076578063c39ec1241161005b578063c39ec12414610179578063c86719b7146101ac578063f434c914146101e057600080fd5b80633691b4611461013b57806388bc2ef31461015257600080fd5b806303c85ea3146100a857806312130366146100da5780631d831d5c146100ed5780631e5d73df14610114575b600080fd5b6100b0610207565b60405173ffffffffffffffffffffffffffffffffffffffff90911681526020015b60405180910390f35b6100b06100e836600461041d565b6102be565b6100b07f000000000000000000000000000000000000000000000000000000000000000081565b6100b07f000000000000000000000000000000000000000000000000000000000000000081565b61014460015481565b6040519081526020016100d1565b6100b07f000000000000000000000000000000000000000000000000000000000000000081565b61019c61018736600461043f565b60006020819052908152604090205460ff1681565b60405190151581526020016100d1565b6101d37f000000000000000000000000000000000000000000000000000000000000000081565b6040516100d191906104b6565b6100b07f000000000000000000000000000000000000000000000000000000000000000081565b6000467fffffffffffffffffffffffffffffffffffffffffffffffffffffffffffffffff810161024c577372ce9c846789fdb6fc1f34ac4ad25dd9ef7031ef91505090565b61a4b1810361027057735288c571fd7ad117bea99bf60fe0846c4e84f93391505090565b62aa36a781036102955773ce18836b233c83325cc8848ca4487e94c628826491505090565b62066eee81036102ba57739fdd1c4e4aa24eec1d913fabea925594a20d43c791505090565b5090565b6040517fffffffffffffffffffffffffffffffffffffffff0000000000000000000000003360601b1660208201526034810182905260009060540160405160208183030381529060405280519060200120915082600181905550817f00000000000000000000000000000000000000000000000000000000000000007f00000000000000000000000000000000000000000000000000000000000000007f000000000000000000000000000000000000000000000000000000000000000060008060405161038b9061040f565b6103999594939291906104c9565b8190604051809103906000f59050801580156103b9573d6000803e3d6000fd5b5073ffffffffffffffffffffffffffffffffffffffff8116600090815260208190526040902080547fffffffffffffffffffffffffffffffffffffffffffffffffffffffffffffff001660011790559392505050565b615748806200051883390190565b6000806040838503121561043057600080fd5b50508035926020909101359150565b60006020828403121561045157600080fd5b813573ffffffffffffffffffffffffffffffffffffffff8116811461047557600080fd5b9392505050565b600281106104b3577f4e487b7100000000000000000000000000000000000000000000000000000000600052602160045260246000fd5b50565b602081016104c38361047c565b91905290565b73ffffffffffffffffffffffffffffffffffffffff8681168252858116602083015284811660408301528316606082015260a081016105078361047c565b826080830152969550505050505056fe6101c06040523480156200001257600080fd5b50604051620057483803806200574883398101604081905262000035916200029c565b8484848484336001600160a01b0316633691b4616040518163ffffffff1660e01b8152600401602060405180830381865afa15801562000079573d6000803e3d6000fd5b505050506040513d601f19601f820116820180604052508101906200009f91906200031f565b6001600160a01b0380861660805286811660e05284811661014052831615620000c95782620000cb565b305b6001600160a01b0316610100523360c052816001811115620000f157620000f162000339565b60a081600181111562000108576200010862000339565b90525061012052504693506200012492508391506200024e9050565b62000149576040516302b87bc960e11b81526004810182905260240160405180910390fd5b60018114806200015b575062aa36a781145b15620001af5760006101a05260018114620001915773aae29b0366299461418f5324a79afc425be5ae21610160819052620001ad565b734dbd4fc535ac27206064b68ffcf827b0a60bab3f6101608190525b505b61a4b1811480620001c2575062066eee81145b15620001cf5760016101a0525b336001600160a01b03166303c85ea36040518163ffffffff1660e01b8152600401602060405180830381865afa1580156200020e573d6000803e3d6000fd5b505050506040513d601f19601f820116820180604052508101906200023491906200034f565b6001600160a01b0316610180525062000376945050505050565b6000600182148062000262575062aa36a782145b806200026f575061a4b182145b806200027d575062066eee82145b92915050565b6001600160a01b03811681146200029957600080fd5b50565b600080600080600060a08688031215620002b557600080fd5b8551620002c28162000283565b6020870151909550620002d58162000283565b6040870151909450620002e88162000283565b6060870151909350620002fb8162000283565b6080870151909250600281106200031157600080fd5b809150509295509295909350565b6000602082840312156200033257600080fd5b5051919050565b634e487b7160e01b600052602160045260246000fd5b6000602082840312156200036257600080fd5b81516200036f8162000283565b9392505050565b60805160a05160c05160e05161010051610120516101405161016051610180516101a05161524c620004fc60003960008181610667015281816115cd01528181611847015261215d0152600081816106b001528181613a3f01528181613ab201528181613d830152613e3501526000818161051801528181612196015281816139190152613c290152600081816101c30152610bcb0152600081816102a20152818161093e015281816109bb01528181610ba20152818161119b015281816112440152818161194701528181611a2501528181611abb01528181611d7801528181611e4a01528181611f5001526120b50152600081816104e4015281816123020152818161234a01528181613ae401528181613c5901528181613e640152613f3401526000818161046c01528181610896015281816111c1015281816119820152611da7015260006105f201526000818161062601528181610d2101528181610d580152818161109e01526111240152600081816106e401526114fb015261524c6000f3fe6080604052600436106101a55760003560e01c80639e6d7d43116100e1578063c18541291161008a578063c86719b711610064578063c86719b714610655578063cdfceeba14610689578063defbb6971461069e578063f434c914146106d257600080fd5b8063c1854129146105c0578063c1b8411a146105e0578063c6525f2c1461061457600080fd5b8063b59ef50f116100bb578063b59ef50f1461053a578063b71c11791461055a578063bf557aee1461056d57600080fd5b80639e6d7d43146104a5578063ad42938b146104d2578063b10123681461050657600080fd5b806369ce22331161014e5780637de6fba2116101285780637de6fba21461037e578063802c8fa01461042d57806388bc2ef31461045a57806392ee1ea71461048e57600080fd5b806369ce2233146102d257806369d31fdd146102f25780636d9e384b1461030557600080fd5b80633a5de07d1161017f5780633a5de07d14610244578063551ebbf01461027057806356539f391461029057600080fd5b80631d831d5c146101b15780632241dc521461020257806338eb20441461022457600080fd5b366101ac57005b600080fd5b3480156101bd57600080fd5b506101e57f000000000000000000000000000000000000000000000000000000000000000081565b6040516001600160a01b0390911681526020015b60405180910390f35b34801561020e57600080fd5b5061022261021d36600461492c565b610706565b005b34801561023057600080fd5b5061022261023f3660046149b9565b610740565b34801561025057600080fd5b5061025b62030d4081565b60405163ffffffff90911681526020016101f9565b34801561027c57600080fd5b5061022261028b3660046149ea565b610b3a565b34801561029c57600080fd5b506102c47f000000000000000000000000000000000000000000000000000000000000000081565b6040519081526020016101f9565b3480156102de57600080fd5b506102226102ed366004614a34565b610d1d565b6102226103003660046149b9565b610dd1565b34801561031157600080fd5b50610371610320366004614a34565b6040805180820190915260008082526020820152506001600160a01b03166000908152600260209081526040918290208251808401909352805467ffffffffffffffff168352600101549082015290565b6040516101f99190614a51565b34801561038a57600080fd5b506103fc610399366004614a34565b6040805160608082018352600080835260208084018290529284018190526001600160a01b0394851681526004835283902083519182018452805463ffffffff811683526401000000009004909416918101919091526001909201549082015290565b60408051825163ffffffff1681526020808401516001600160a01b03169082015291810151908201526060016101f9565b34801561043957600080fd5b5061044d610448366004614a34565b610f80565b6040516101f99190614a72565b34801561046657600080fd5b506101e57f000000000000000000000000000000000000000000000000000000000000000081565b34801561049a57600080fd5b5061025b620493e081565b3480156104b157600080fd5b506102c46104c0366004614a34565b60006020819052908152604090205481565b3480156104de57600080fd5b506101e57f000000000000000000000000000000000000000000000000000000000000000081565b34801561051257600080fd5b506101e57f000000000000000000000000000000000000000000000000000000000000000081565b34801561054657600080fd5b50610222610555366004614ad2565b611015565b610222610568366004614a34565b61131c565b34801561057957600080fd5b506105b0610588366004614a34565b6001600160a01b03908116600090815260046020526040902054640100000000900416151590565b60405190151581526020016101f9565b3480156105cc57600080fd5b506102226105db366004614ae5565b6113e1565b3480156105ec57600080fd5b506101e57f000000000000000000000000000000000000000000000000000000000000000081565b34801561062057600080fd5b506106487f000000000000000000000000000000000000000000000000000000000000000081565b6040516101f99190614baf565b34801561066157600080fd5b506106487f000000000000000000000000000000000000000000000000000000000000000081565b34801561069557600080fd5b506102c4611416565b3480156106aa57600080fd5b506101e57f000000000000000000000000000000000000000000000000000000000000000081565b3480156106de57600080fd5b506101e57f000000000000000000000000000000000000000000000000000000000000000081565b8060005b8181101561073a5761073284848381811061072757610727614bc2565b905060800201610740565b60010161070a565b50505050565b600061074f6020830183614a34565b9050600061eeee6107636020850185614a34565b6001600160a01b0316149050808015610796575061eeee61078a6060850160408601614a34565b6001600160a01b031614155b80156107bb575060006107af6060850160408601614a34565b6001600160a01b031614155b15610813576107d06060840160408501614a34565b6040517ff41f6def0000000000000000000000000000000000000000000000000000000081526001600160a01b0390911660048201526024015b60405180910390fd5b62030d406108276040850160208601614bf1565b63ffffffff16108015610838575080155b156108915761084d6040840160208501614bf1565b6040517f555d0f1000000000000000000000000000000000000000000000000000000000815263ffffffff909116600482015262030d40602482015260440161080a565b6109e17f00000000000000000000000000000000000000000000000000000000000000006001600160a01b031663293c49996040518163ffffffff1660e01b8152600401602060405180830381865afa1580156108f2573d6000803e3d6000fd5b505050506040513d601f19601f820116820180604052508101906109169190614c17565b6040517f6352211e0000000000000000000000000000000000000000000000000000000081527f000000000000000000000000000000000000000000000000000000000000000060048201526001600160a01b039190911690636352211e90602401602060405180830381865afa158015610995573d6000803e3d6000fd5b505050506040513d601f19601f820116820180604052508101906109b99190614c17565b7f0000000000000000000000000000000000000000000000000000000000000000601c61148a565b60006109f36060850160408601614a34565b6001600160a01b0316148015610a2357506001600160a01b03821660009081526003602052604090206001015415155b15610a7e576001600160a01b0380831660009081526004602090815260408083208151606081018352815463ffffffff8116825264010000000090049095169285019290925260019091015490830152610a7e9184906115c0565b6040518060600160405280846020016020810190610a9c9190614bf1565b63ffffffff168152602001610ab76060860160408701614a34565b6001600160a01b0390811682526060909501356020918201529284166000908152600484526040908190208251815495840151909616640100000000027fffffffffffffffff00000000000000000000000000000000000000000000000090951663ffffffff909616959095179390931784559091015160019092019190915550565b6001600160a01b038316610b7a576040517f8d3329cd00000000000000000000000000000000000000000000000000000000815260040160405180910390fd5b6040517fea78803f0000000000000000000000000000000000000000000000000000000081527f000000000000000000000000000000000000000000000000000000000000000060048201526000907f00000000000000000000000000000000000000000000000000000000000000006001600160a01b03169063ea78803f90602401602060405180830381865afa158015610c1a573d6000803e3d6000fd5b505050506040513d601f19601f82011682018060405250810190610c3e9190614c17565b90506001600160a01b038116610c80576040517fcaa06d2000000000000000000000000000000000000000000000000000000000815260040160405180910390fd5b6001600160a01b03828116600090815260046020526040902054640100000000900416610ce4576040517f04fdbe060000000000000000000000000000000000000000000000000000000081526001600160a01b038316600482015260240161080a565b610cf96001600160a01b0382163330886118a3565b6000610d078287858761191f565b9050610d1586848388611b5d565b505050505050565b60007f00000000000000000000000000000000000000000000000000000000000000006001811115610d5157610d51614b49565b14610daa577f00000000000000000000000000000000000000000000000000000000000000006040517fb039c39500000000000000000000000000000000000000000000000000000000815260040161080a9190614baf565b6001600160a01b038116600090815260208190526040902054610dce908290611cd6565b50565b610dda33612158565b610e12576040517f36183c8f00000000000000000000000000000000000000000000000000000000815233600482015260240161080a565b602081018035906000908190610e289085614a34565b6001600160a01b03166001600160a01b031681526020019081526020016000206000828254610e579190614c63565b9091555060009050600281610e6f6020850185614a34565b6001600160a01b0316815260208101919091526040908101600020805490925067ffffffffffffffff1690610eaa9060608501908501614c76565b67ffffffffffffffff161115610f7c57610eca6060830160408401614c76565b81547fffffffffffffffffffffffffffffffffffffffffffffffff00000000000000001667ffffffffffffffff9190911617815560608201356001820155610f156020830183614a34565b6001600160a01b03167fc69d3412489554fb7820c4c2784cb644b6c79bfc117444b93977d3d33a9b8eac610f4f6060850160408601614c76565b6040805167ffffffffffffffff929092168252606086810135602084015233838301529051918290030190a25b5050565b610f88614876565b6001600160a01b0382166000908152600360209081526040918290208251606081018452815467ffffffffffffffff1681526001820154818401528351610440810180865291949293858401939192600286019284929083019184919082845b815481526020019060010190808311610fe857505050918352505060209182015491015290525092915050565b61104d606082013561102a6020840184614a34565b608084013561103f6060860160408701614a34565b602086013560a08701612385565b7faaca6f6829d340365b5e6599e0d513cbb4602b94f58ccf16ac77d8d3ae7139ef61107e6060830160408401614a34565b61108b6020840184614a34565b60608401356080850135602086013560017f000000000000000000000000000000000000000000000000000000000000000060018111156110ce576110ce614b49565b146110da5760006110dd565b60015b604080516001600160a01b0397881681529690951660208701529385019290925260608401526080830152151560a08201523360c082015260e00160405180910390a160017f0000000000000000000000000000000000000000000000000000000000000000600181111561115457611154614b49565b03611173576111736111696020830183614a34565b6080830135611cd6565b6040517f5dd8f6aa0000000000000000000000000000000000000000000000000000000081527f000000000000000000000000000000000000000000000000000000000000000060048201527f00000000000000000000000000000000000000000000000000000000000000006001600160a01b031690635dd8f6aa90602401602060405180830381865afa158015611210573d6000803e3d6000fd5b505050506040513d601f19601f820116820180604052508101906112349190614c17565b6001600160a01b031663c7fb92de7f0000000000000000000000000000000000000000000000000000000000000000606084018035906112779060408701614a34565b6040517fffffffff0000000000000000000000000000000000000000000000000000000060e086901b168152600481019390935260248301919091526001600160a01b0316604482015260a06064820152600060a48201819052608482015260c4016020604051808303816000875af11580156112f8573d6000803e3d6000fd5b505050506040513d601f19601f82011682018060405250810190610f7c9190614ca0565b6001600160a01b0380821660008181526004602090815260408083208151606081018352815463ffffffff811682526401000000009004909616868401526001908101548683018190529484526003909252909120015410156113d6576001600160a01b03821660009081526003602052604090819020600101548282015191517fc3e11b7900000000000000000000000000000000000000000000000000000000815261080a9290600401918252602082015260400190565b610f7c3483836115c0565b8060005b8181101561073a5761140e84848381811061140257611402614bc2565b90506104a00201611015565b6001016113e5565b6000467fffffffffffffffffffffffffffffffffffffffffffffffffffffffffffffffff81016114495761a4b191505090565b61a4b1810361145a57600191505090565b62aa36a7810361146e5762066eee91505090565b62066eee81036114825762aa36a791505090565b600091505090565b336001600160a01b038416811480159061156857506040517f348b684e0000000000000000000000000000000000000000000000000000000081526001600160a01b0382811660048301528581166024830152604482018590526064820184905260016084830181905260a48301527f0000000000000000000000000000000000000000000000000000000000000000169063348b684e9060c401602060405180830381865afa158015611542573d6000803e3d6000fd5b505050506040513d601f19601f820116820180604052508101906115669190614cb9565b155b1561073a576040517f264deeaa0000000000000000000000000000000000000000000000000000000081526001600160a01b03808616600483015282166024820152604481018490526064810183905260840161080a565b821580156115ff575060007f000000000000000000000000000000000000000000000000000000000000000060018111156115fd576115fd614b49565b145b15611639576040517f4076fc270000000000000000000000000000000000000000000000000000000081526004810184905260240161080a565b6001600160a01b038216600090815260036020526040812060018101805490839055815491929091839082906116789067ffffffffffffffff16614cdb565b91906101000a81548167ffffffffffffffff021916908367ffffffffffffffff1602179055905060006001600160a01b031684602001516001600160a01b0316036116fa576040517f04fdbe060000000000000000000000000000000000000000000000000000000081526001600160a01b038616600482015260240161080a565b6000604051806060016040528086602001516001600160a01b0316815260200184815260200160405180604001604052808567ffffffffffffffff1681526020016117478860020161251a565b9052905260405161175b9190602401614d02565b604080517fffffffffffffffffffffffffffffffffffffffffffffffffffffffffffffffe08184030181529190526020810180517bffffffffffffffffffffffffffffffffffffffffffffffffffffffff167f69d31fdd0000000000000000000000000000000000000000000000000000000017905290506001600160a01b0386166117e96002860161251a565b60228601547f47c5615513b0f669da2dd7e3362a34610ca2695d0a0e2da2160cee952eab203c9061181c90600190614d4e565b6040805191825267ffffffffffffffff87166020830152339082015260600160405180910390a360007f0000000000000000000000000000000000000000000000000000000000000000600181111561187757611877614b49565b0361188e5761188986888584896138d0565b61189a565b61189a86848388613cf7565b50505050505050565b6040516001600160a01b03848116602483015283811660448301526064820183905261073a9186918216906323b872dd906084015b604051602081830303815290604052915060e01b6020820180517bffffffffffffffffffffffffffffffffffffffffffffffffffffffff8381831617835250505050613fa1565b6040517f862026500000000000000000000000000000000000000000000000000000000081527f000000000000000000000000000000000000000000000000000000000000000060048201526001600160a01b03838116602483015260009182917f00000000000000000000000000000000000000000000000000000000000000001690638620265090604401602060405180830381865afa1580156119c9573d6000803e3d6000fd5b505050506040513d601f19601f820116820180604052508101906119ed9190614c17565b90506001600160a01b038116611a60576040517fb61c181f0000000000000000000000000000000000000000000000000000000081527f000000000000000000000000000000000000000000000000000000000000000060048201526001600160a01b038516602482015260440161080a565b6000611a6c8530614022565b604080516020810182526000815290517fbb7214fe0000000000000000000000000000000000000000000000000000000081529192506001600160a01b0384169163bb7214fe91611aeb9130917f0000000000000000000000000000000000000000000000000000000000000000918b918d918c918691600401614dcf565b6020604051808303816000875af1158015611b0a573d6000803e3d6000fd5b505050506040513d601f19601f82011682018060405250810190611b2e9190614ca0565b925080611b3b8630614022565b611b459190614d4e565b8314611b5357611b53614e22565b5050949350505050565b6040805160208082018790528183018590526001600160a01b03841660608084019190915283518084039091018152608090920190925280519101206000906001600160a01b0385166000908152600360209081526040808320815161044081018084529596509094611c069387936002880192849291830191849182845b815481526020019060010190808311611bdc575050509183525050602091820154910152906140f1565b805190915081906002840190611c1f908290602061489a565b506020820151816020015590505084826001016000828254611c419190614c63565b92505081905550856001600160a01b0316846001600160a01b03167f584a41ff082fad99bb6e50c5767c347c762057fe5726539f0a8de49d84549c238560018560200151611c8f9190614d4e565b611c9b8760020161251a565b60408051938452602084019290925290820152606081018b9052608081018990523360a082015260c00160405180910390a350505050505050565b6001600160a01b03821660009081526020819052604090205480821115611d33576040517f60ec3e71000000000000000000000000000000000000000000000000000000008152600481018390526024810182905260440161080a565b6001600160a01b038381166000818152602081905260408082208686039055517f862026500000000000000000000000000000000000000000000000000000000081527f000000000000000000000000000000000000000000000000000000000000000060048201526024810192909252917f00000000000000000000000000000000000000000000000000000000000000001690638620265090604401602060405180830381865afa158015611dee573d6000803e3d6000fd5b505050506040513d601f19601f82011682018060405250810190611e129190614c17565b90506001600160a01b038116611e85576040517fb61c181f0000000000000000000000000000000000000000000000000000000081527f000000000000000000000000000000000000000000000000000000000000000060048201526001600160a01b038516602482015260440161080a565b6001600160a01b03841661eeee1461208d576040517f70a082310000000000000000000000000000000000000000000000000000000081523060048201526000906001600160a01b038616906370a0823190602401602060405180830381865afa158015611ef7573d6000803e3d6000fd5b505050506040513d601f19601f82011682018060405250810190611f1b9190614ca0565b9050611f28858386614247565b6040517f9e6eec050000000000000000000000000000000000000000000000000000000081527f000000000000000000000000000000000000000000000000000000000000000060048201526001600160a01b0386811660248301526044820186905260006064830181905260c0608484015260c4830181905260e060a484015260e4830152831690639e6eec059061010401600060405180830381600087803b158015611fd557600080fd5b505af1158015611fe9573d6000803e3d6000fd5b505050508381611ff99190614d4e565b6040517f70a082310000000000000000000000000000000000000000000000000000000081523060048201526001600160a01b038716906370a0823190602401602060405180830381865afa158015612056573d6000803e3d6000fd5b505050506040513d601f19601f8201168201806040525081019061207a9190614ca0565b1461208757612087614e22565b5061073a565b6040517f9e6eec050000000000000000000000000000000000000000000000000000000081527f000000000000000000000000000000000000000000000000000000000000000060048201526001600160a01b0385811660248301526044820185905260006064830181905260c0608484015260c4830181905260e060a484015260e4830152821690639e6eec059061010401600060405180830381600087803b15801561213a57600080fd5b505af115801561214e573d6000803e3d6000fd5b5050505050505050565b6000807f0000000000000000000000000000000000000000000000000000000000000000600181111561218d5761218d614b49565b036123335760007f00000000000000000000000000000000000000000000000000000000000000006001600160a01b031663e78cea926040518163ffffffff1660e01b8152600401602060405180830381865afa1580156121f2573d6000803e3d6000fd5b505050506040513d601f19601f820116820180604052508101906122169190614c17565b9050806001600160a01b0316836001600160a01b031614801561232c5750806001600160a01b031663ab5d89436040518163ffffffff1660e01b8152600401602060405180830381865afa158015612272573d6000803e3d6000fd5b505050506040513d601f19601f820116820180604052508101906122969190614c17565b6001600160a01b03166380648b026040518163ffffffff1660e01b8152600401602060405180830381865afa1580156122d3573d6000803e3d6000fd5b505050506040513d601f19601f820116820180604052508101906122f79190614c17565b6001600160a01b03167f00000000000000000000000000000000000000000000000000000000000000006001600160a01b0316145b9392505050565b7311110000000000000000000000000000000011117f0000000000000000000000000000000000000000000000000000000000000000016001600160a01b0316826001600160a01b0316149050919050565b6001600160a01b0385166000908152600160208181526040808420600887901c85529091529091205460ff84169190911b1615612400576040517fa4e6bcec0000000000000000000000000000000000000000000000000000000081526001600160a01b03861660048201526024810183905260440161080a565b6001600160a01b038581166000908152600160208181526040808420600888901c85528252808420805460ff89169490941b90931790925581518082018b90528083018990529387166060808601919091528251808603909101815260808501808452815191830191909120610480909501909252919261249c9290919085908282610400808284376000920191909152508791506143059050565b6001600160a01b038716600090815260026020526040902060010154909150811461189a576001600160a01b038616600090815260026020526040908190206001015490517ee587d200000000000000000000000000000000000000000000000000000000815261080a918391600401918252602082015260400190565b602081015460009080820361255157507f27ae5ba08d7291c96c8cbddcc148bf48a6d68c7974b94356f53754ef6171d75792915050565b6000836001831615612573578054600052600060205260406000209350612e26565b60028316156125b85760018101546000527fad3228b676f7d3cd4284a5443f17f1962b36e491b30a40b2405849e597ba5fb56020526040600020935060019150612e26565b60048316156125fd5760028101546000527fb4c11951957c6f8f642c4af61cd6b24640fec6dc7fc607ee8206a99e92410d306020526040600020935060029150612e26565b60088316156126425760038101546000527f21ddb9a356815c3fac1026b6dec5df3124afbadb485c9ba5a3e3398a04b7ba856020526040600020935060039150612e26565b60108316156126875760048101546000527fe58769b32a1beaf1ea27375a44095a0d1fb664ce2dd358e7fcbfb78c26a193446020526040600020935060049150612e26565b60208316156126cc5760058101546000527f0eb01ebfc9ed27500cd4dfc979272d1f0913cc9f66540d7e8005811109e1cf2d6020526040600020935060059150612e26565b60408316156127115760068101546000527f887c22bd8750d34016ac3c66b5ff102dacdd73f6b014e710b51e8022af9a19686020526040600020935060069150612e26565b60808316156127565760078101546000527fffd70157e48063fc33c97a050f7f640233bf646cc98d9524c6b92bcf3ab56f836020526040600020935060079150612e26565b61010083161561279c5760088101546000527f9867cc5f7f196b93bae1e27e6320742445d290f2263827498b54fec539f756af6020526040600020935060089150612e26565b6102008316156127e25760098101546000527fcefad4e508c098b9a7e1d8feb19955fb02ba9675585078710969d3440f5054e06020526040600020935060099150612e26565b61040083161561282857600a8101546000527ff9dc3e7fe016e050eff260334f18a5d4fe391d82092319f5964f2e2eb7c1c3a560205260406000209350600a9150612e26565b61080083161561286e57600b8101546000527ff8b13a49e282f609c317a833fb8d976d11517c571d1221a265d25af778ecf89260205260406000209350600b9150612e26565b6110008316156128b457600c8101546000527f3490c6ceeb450aecdc82e28293031d10c7d73bf85e57bf041a97360aa2c5d99c60205260406000209350600c9150612e26565b6120008316156128fa57600d8101546000527fc1df82d9c4b87413eae2ef048f94b4d3554cea73d92b0f7af96e0271c691e2bb60205260406000209350600d9150612e26565b61400083161561294057600e8101546000527f5c67add7c6caf302256adedf7ab114da0acfe870d449a3a489f781d659e8becc60205260406000209350600e9150612e26565b61800083161561298657600f8101546000527fda7bce9f4e8618b6bd2f4132ce798cdc7a60e7e1460a7299e3c6342a579626d260205260406000209350600f9150612e26565b620100008316156129cd5760108101546000527f2733e50f526ec2fa19a22b31e8ed50f23cd1fdf94c9154ed3a7609a2f1ff981f6020526040600020935060109150612e26565b62020000831615612a145760118101546000527fe1d3b5c807b281e4683cc6d6315cf95b9ade8641defcb32372f1c126e398ef7a6020526040600020935060119150612e26565b62040000831615612a5b5760128101546000527f5a2dce0a8a7f68bb74560f8f71837c2c2ebbcbf7fffb42ae1896f13f7c7479a06020526040600020935060129150612e26565b62080000831615612aa25760138101546000527fb46a28b6f55540f89444f63de0378e3d121be09e06cc9ded1c20e65876d36aa06020526040600020935060139150612e26565b62100000831615612ae95760148101546000527fc65e9645644786b620e2dd2ad648ddfcbf4a7e5b1a3a4ecfe7f64667a3f0b7e26020526040600020935060149150612e26565b62200000831615612b305760158101546000527ff4418588ed35a2458cffeb39b93d26f18d2ab13bdce6aee58e7b99359ec2dfd96020526040600020935060159150612e26565b62400000831615612b775760168101546000527f5a9c16dc00d6ef18b7933a6f8dc65ccb55667138776f7dea101070dc8796e3776020526040600020935060169150612e26565b62800000831615612bbe5760178101546000527f4df84f40ae0c8229d0d6069e5c8f39a7c299677a09d367fc7b05e3bc380ee6526020526040600020935060179150612e26565b6301000000831615612c065760188101546000527fcdc72595f74c7b1043d0e1ffbab734648c838dfb0527d971b602bc216c9619ef6020526040600020935060189150612e26565b6302000000831615612c4e5760198101546000527f0abf5ac974a1ed57f4050aa510dd9c74f508277b39d7973bb2dfccc5eeb0618d6020526040600020935060199150612e26565b6304000000831615612c9657601a8101546000527fb8cd74046ff337f0a7bf2c8e03e10f642c1886798d71806ab1e888d9e5ee87d060205260406000209350601a9150612e26565b6308000000831615612cde57601b8101546000527f838c5655cb21c6cb83313b5a631175dff4963772cce9108188b34ac87c81c41e60205260406000209350601b9150612e26565b6310000000831615612d2657601c8101546000527f662ee4dd2dd7b2bc707961b1e646c4047669dcb6584f0d8d770daf5d7e7deb2e60205260406000209350601c9150612e26565b6320000000831615612d6e57601d8101546000527f388ab20e2573d171a88108e79d820e98f26c0b84aa8b2f4aa4968dbb818ea32260205260406000209350601d9150612e26565b6340000000831615612db657601e8101546000527f93237c50ba75ee485f4c22adf2f741400bdf8d6a9cc7df7ecae576221665d73560205260406000209350601e9150612e26565b6380000000831615612dfe57601f8101546000527f8448818bb4ae4562849e949e17ac16e0be16688e156b5cf15e098c627c0056a960205260406000209350601f9150612e26565b7f27ae5ba08d7291c96c8cbddcc148bf48a6d68c7974b94356f53754ef6171d7579350602091505b601e82116138c8576001821015612e8457600283168015612e5257600182015460005284602052612e7b565b846000527fad3228b676f7d3cd4284a5443f17f1962b36e491b30a40b2405849e597ba5fb56020525b50604060002093505b6002821015612eda57600483168015612ea857600282015460005284602052612ed1565b846000527fb4c11951957c6f8f642c4af61cd6b24640fec6dc7fc607ee8206a99e92410d306020525b50604060002093505b6003821015612f3057600883168015612efe57600382015460005284602052612f27565b846000527f21ddb9a356815c3fac1026b6dec5df3124afbadb485c9ba5a3e3398a04b7ba856020525b50604060002093505b6004821015612f8657601083168015612f5457600482015460005284602052612f7d565b846000527fe58769b32a1beaf1ea27375a44095a0d1fb664ce2dd358e7fcbfb78c26a193446020525b50604060002093505b6005821015612fdc57602083168015612faa57600582015460005284602052612fd3565b846000527f0eb01ebfc9ed27500cd4dfc979272d1f0913cc9f66540d7e8005811109e1cf2d6020525b50604060002093505b60068210156130325760408316801561300057600682015460005284602052613029565b846000527f887c22bd8750d34016ac3c66b5ff102dacdd73f6b014e710b51e8022af9a19686020525b50604060002093505b6007821015613088576080831680156130565760078201546000528460205261307f565b846000527fffd70157e48063fc33c97a050f7f640233bf646cc98d9524c6b92bcf3ab56f836020525b50604060002093505b60088210156130df57610100831680156130ad576008820154600052846020526130d6565b846000527f9867cc5f7f196b93bae1e27e6320742445d290f2263827498b54fec539f756af6020525b50604060002093505b600982101561313657610200831680156131045760098201546000528460205261312d565b846000527fcefad4e508c098b9a7e1d8feb19955fb02ba9675585078710969d3440f5054e06020525b50604060002093505b600a82101561318d576104008316801561315b57600a82015460005284602052613184565b846000527ff9dc3e7fe016e050eff260334f18a5d4fe391d82092319f5964f2e2eb7c1c3a56020525b50604060002093505b600b8210156131e457610800831680156131b257600b820154600052846020526131db565b846000527ff8b13a49e282f609c317a833fb8d976d11517c571d1221a265d25af778ecf8926020525b50604060002093505b600c82101561323b576110008316801561320957600c82015460005284602052613232565b846000527f3490c6ceeb450aecdc82e28293031d10c7d73bf85e57bf041a97360aa2c5d99c6020525b50604060002093505b600d821015613292576120008316801561326057600d82015460005284602052613289565b846000527fc1df82d9c4b87413eae2ef048f94b4d3554cea73d92b0f7af96e0271c691e2bb6020525b50604060002093505b600e8210156132e957614000831680156132b757600e820154600052846020526132e0565b846000527f5c67add7c6caf302256adedf7ab114da0acfe870d449a3a489f781d659e8becc6020525b50604060002093505b600f821015613340576180008316801561330e57600f82015460005284602052613337565b846000527fda7bce9f4e8618b6bd2f4132ce798cdc7a60e7e1460a7299e3c6342a579626d26020525b50604060002093505b60108210156133985762010000831680156133665760108201546000528460205261338f565b846000527f2733e50f526ec2fa19a22b31e8ed50f23cd1fdf94c9154ed3a7609a2f1ff981f6020525b50604060002093505b60118210156133f05762020000831680156133be576011820154600052846020526133e7565b846000527fe1d3b5c807b281e4683cc6d6315cf95b9ade8641defcb32372f1c126e398ef7a6020525b50604060002093505b60128210156134485762040000831680156134165760128201546000528460205261343f565b846000527f5a2dce0a8a7f68bb74560f8f71837c2c2ebbcbf7fffb42ae1896f13f7c7479a06020525b50604060002093505b60138210156134a057620800008316801561346e57601382015460005284602052613497565b846000527fb46a28b6f55540f89444f63de0378e3d121be09e06cc9ded1c20e65876d36aa06020525b50604060002093505b60148210156134f85762100000831680156134c6576014820154600052846020526134ef565b846000527fc65e9645644786b620e2dd2ad648ddfcbf4a7e5b1a3a4ecfe7f64667a3f0b7e26020525b50604060002093505b601582101561355057622000008316801561351e57601582015460005284602052613547565b846000527ff4418588ed35a2458cffeb39b93d26f18d2ab13bdce6aee58e7b99359ec2dfd96020525b50604060002093505b60168210156135a85762400000831680156135765760168201546000528460205261359f565b846000527f5a9c16dc00d6ef18b7933a6f8dc65ccb55667138776f7dea101070dc8796e3776020525b50604060002093505b60178210156136005762800000831680156135ce576017820154600052846020526135f7565b846000527f4df84f40ae0c8229d0d6069e5c8f39a7c299677a09d367fc7b05e3bc380ee6526020525b50604060002093505b60188210156136595763010000008316801561362757601882015460005284602052613650565b846000527fcdc72595f74c7b1043d0e1ffbab734648c838dfb0527d971b602bc216c9619ef6020525b50604060002093505b60198210156136b257630200000083168015613680576019820154600052846020526136a9565b846000527f0abf5ac974a1ed57f4050aa510dd9c74f508277b39d7973bb2dfccc5eeb0618d6020525b50604060002093505b601a82101561370b576304000000831680156136d957601a82015460005284602052613702565b846000527fb8cd74046ff337f0a7bf2c8e03e10f642c1886798d71806ab1e888d9e5ee87d06020525b50604060002093505b601b8210156137645763080000008316801561373257601b8201546000528460205261375b565b846000527f838c5655cb21c6cb83313b5a631175dff4963772cce9108188b34ac87c81c41e6020525b50604060002093505b601c8210156137bd5763100000008316801561378b57601c820154600052846020526137b4565b846000527f662ee4dd2dd7b2bc707961b1e646c4047669dcb6584f0d8d770daf5d7e7deb2e6020525b50604060002093505b601d821015613816576320000000831680156137e457601d8201546000528460205261380d565b846000527f388ab20e2573d171a88108e79d820e98f26c0b84aa8b2f4aa4968dbb818ea3226020525b50604060002093505b601e82101561386f5763400000008316801561383d57601e82015460005284602052613866565b846000527f93237c50ba75ee485f4c22adf2f741400bdf8d6a9cc7df7ecae576221665d7356020525b50604060002093505b601f8210156138c85763800000008316801561389657601f820154600052846020526138bf565b846000527f8448818bb4ae4562849e949e17ac16e0be16688e156b5cf15e098c627c0056a96020525b50604060002093505b505050919050565b81516040517fa66b327d0000000000000000000000000000000000000000000000000000000081526004810191909152630bebc200602482015260009081906001600160a01b037f0000000000000000000000000000000000000000000000000000000000000000169063a66b327d90604401602060405180830381865afa158015613960573d6000803e3d6000fd5b505050506040513d601f19601f820116820180604052508101906139849190614ca0565b90506000613999620493e0630bebc200614e51565b6139a99063ffffffff1683614c63565b9050808710156139ef576040517f514f5196000000000000000000000000000000000000000000000000000000008152600481018890526024810182905260440161080a565b6001600160a01b03881661eeee14613bbc576040517fbda009fe0000000000000000000000000000000000000000000000000000000081526001600160a01b03808a166004830152613ab0918a917f0000000000000000000000000000000000000000000000000000000000000000169063bda009fe90602401602060405180830381865afa158015613a86573d6000803e3d6000fd5b505050506040513d601f19601f82011682018060405250810190613aaa9190614c17565b88614247565b7f00000000000000000000000000000000000000000000000000000000000000006001600160a01b0316634fb1a07b888a337f00000000000000000000000000000000000000000000000000000000000000008b620493e0630bebc2008a8e604051602001613b20929190614e79565b6040516020818303038152906040526040518963ffffffff1660e01b8152600401613b519796959493929190614e9a565b60006040518083038185885af1158015613b6f573d6000803e3d6000fd5b50505050506040513d6000823e601f3d9081017fffffffffffffffffffffffffffffffffffffffffffffffffffffffffffffffe0168201604052613bb69190810190614f15565b50613bc0565b8592505b86613bcb8285614c63565b1115613c2757828710613be757613be28388614d4e565b613bea565b60005b6040517f514f519600000000000000000000000000000000000000000000000000000000815260048101919091526024810182905260440161080a565b7f00000000000000000000000000000000000000000000000000000000000000006001600160a01b031663679b6ded887f000000000000000000000000000000000000000000000000000000000000000086863333620493e0630bebc2008e6040518a63ffffffff1660e01b8152600401613ca9989796959493929190614fe0565b60206040518083038185885af1158015613cc7573d6000803e3d6000fd5b50505050506040513d601f19601f82011682018060405250810190613cec9190614ca0565b505050505050505050565b60003415613d33576040517f4076fc2700000000000000000000000000000000000000000000000000000000815234600482015260240161080a565b6001600160a01b03851661eeee14613efa576040517fbda009fe0000000000000000000000000000000000000000000000000000000081526001600160a01b038087166004830152613df49187917f0000000000000000000000000000000000000000000000000000000000000000169063bda009fe90602401602060405180830381865afa158015613dca573d6000803e3d6000fd5b505050506040513d601f19601f82011682018060405250810190613dee9190614c17565b86614247565b60208083015160408051928301815260008352517f7b3a3c8b0000000000000000000000000000000000000000000000000000000081526001600160a01b037f00000000000000000000000000000000000000000000000000000000000000001692637b3a3c8b92613e8f9290917f0000000000000000000000000000000000000000000000000000000000000000918a9190600401615042565b6000604051808303816000875af1158015613eae573d6000803e3d6000fd5b505050506040513d6000823e601f3d9081017fffffffffffffffffffffffffffffffffffffffffffffffffffffffffffffffe0168201604052613ef49190810190614f15565b50613efd565b50825b6040517f928c169a00000000000000000000000000000000000000000000000000000000815260649063928c169a908390613f5e907f0000000000000000000000000000000000000000000000000000000000000000908890600401615074565b60206040518083038185885af1158015613f7c573d6000803e3d6000fd5b50505050506040513d601f19601f82011682018060405250810190610d159190614ca0565b6000613fb66001600160a01b03841683614653565b90508051600014158015613fdb575080806020019051810190613fd99190614cb9565b155b1561401d576040517f5274afe70000000000000000000000000000000000000000000000000000000081526001600160a01b038416600482015260240161080a565b505050565b60007fffffffffffffffffffffffffffffffffffffffffffffffffffffffffffff11126001600160a01b0384160161406557506001600160a01b038116316140eb565b6040517f70a082310000000000000000000000000000000000000000000000000000000081526001600160a01b0383811660048301528416906370a0823190602401602060405180830381865afa1580156140c4573d6000803e3d6000fd5b505050506040513d601f19601f820116820180604052508101906140e89190614ca0565b90505b92915050565b6140f96148d8565b600083602001805161410a90615096565b908190529050600161411e602060026151ee565b6141289190614d4e565b811115614161576040517f8eab04bb00000000000000000000000000000000000000000000000000000000815260040160405180910390fd5b60005b6020811015614214578160011660010361419d5784518490826020811061418d5761418d614bc2565b6020020152508391506140eb9050565b845181602081106141b0576141b0614bc2565b6020020151846040516020016141d0929190918252602082015260400190565b604080517fffffffffffffffffffffffffffffffffffffffffffffffffffffffffffffffe081840301815291905280516020909101209350600191821c9101614164565b506040517f8eab04bb00000000000000000000000000000000000000000000000000000000815260040160405180910390fd5b604080516001600160a01b038416602482015260448082018490528251808303909101815260649091019091526020810180517bffffffffffffffffffffffffffffffffffffffffffffffffffffffff167f095ea7b3000000000000000000000000000000000000000000000000000000001790526142c68482614661565b61073a576040516001600160a01b038481166024830152600060448301526142fb91869182169063095ea7b3906064016118d8565b61073a8482613fa1565b6020600582811b8216948552835194820394909452604060008181206002851615871b808503919091528386015190528181206004851615871b808503919091528286015190528181206008851615871b80850391909152606086015190528181206010851615871b8085039190915260808087015190915282822084861615881b8086039190915260a0870151905282822083861615881b8086039190915260c0870151905282822090851615871b8085039190915260e0860151905281812061010080861615881b80860392909252860151905281812061020080861615881b80860392909252610120870151909152828220610400861615881b808603919091526101408701519052828220610800861615881b808603919091526101608701519052828220611000861615881b808603919091526101808701519052828220612000861615881b808603919091526101a08701519052828220614000861615881b808603919091526101c08701519052828220618000861615881b808603919091526101e0870151905282822062010000861615881b8086039190915290860151905281812062020000851615871b80850391909152610220860151905281812062040000851615871b80850391909152610240860151905281812062080000851615871b80850391909152610260860151905281812062100000851615871b80850391909152610280860151905281812062200000851615871b808503919091526102a0860151905281812062400000851615871b808503919091526102c0860151905281812062800000851615871b808503919091526102e086015190528181206301000000851615871b8085039190915261030086015190528181206302000000851615871b8085039190915261032086015190528181206304000000851615871b8085039190915261034086015190528181206308000000851615871b8085039190915261036086015190528181206310000000851615871b8085039190915261038086015190528181206320000000851615871b808503919091526103a086015190528181206340000000851615871b808503919091526103c0860151905281812063800000009094161590951b91829003929092526103e090920151909152902090565b60606140e883836000614709565b6000806000846001600160a01b03168460405161467e91906151fa565b6000604051808303816000865af19150503d80600081146146bb576040519150601f19603f3d011682016040523d82523d6000602084013e6146c0565b606091505b50915091508180156146ea5750805115806146ea5750808060200190518101906146ea9190614cb9565b801561470057506000856001600160a01b03163b115b95945050505050565b606081471015614747576040517fcd78605900000000000000000000000000000000000000000000000000000000815230600482015260240161080a565b600080856001600160a01b0316848660405161476391906151fa565b60006040518083038185875af1925050503d80600081146147a0576040519150601f19603f3d011682016040523d82523d6000602084013e6147a5565b606091505b50915091506147b58683836147bf565b9695505050505050565b6060826147d4576147cf82614834565b61232c565b81511580156147eb57506001600160a01b0384163b155b1561482d576040517f9996b3150000000000000000000000000000000000000000000000000000000081526001600160a01b038516600482015260240161080a565b508061232c565b8051156148445780518082602001fd5b6040517f1425ea4200000000000000000000000000000000000000000000000000000000815260040160405180910390fd5b60408051606081018252600080825260208201529081016148956148d8565b905290565b82602081019282156148c8579160200282015b828111156148c85782518255916020019190600101906148ad565b506148d49291506148f8565b5090565b60405180604001604052806148eb61490d565b8152602001600081525090565b5b808211156148d457600081556001016148f9565b6040518061040001604052806020906020820280368337509192915050565b6000806020838503121561493f57600080fd5b823567ffffffffffffffff8082111561495757600080fd5b818501915085601f83011261496b57600080fd5b81358181111561497a57600080fd5b8660208260071b850101111561498f57600080fd5b60209290920196919550909350505050565b6000608082840312156149b357600080fd5b50919050565b6000608082840312156149cb57600080fd5b6140e883836149a1565b6001600160a01b0381168114610dce57600080fd5b60008060008060808587031215614a0057600080fd5b843593506020850135614a12816149d5565b9250604085013591506060850135614a29816149d5565b939692955090935050565b600060208284031215614a4657600080fd5b813561232c816149d5565b815167ffffffffffffffff16815260208083015190820152604081016140eb565b815167ffffffffffffffff1681526020808301518183015260408084015180516104608501939260009086015b84821015614abd578251815291840191600191909101908401614a9f565b50505081810151610440850152505092915050565b60006104a082840312156149b357600080fd5b60008060208385031215614af857600080fd5b823567ffffffffffffffff80821115614b1057600080fd5b818501915085601f830112614b2457600080fd5b813581811115614b3357600080fd5b8660206104a08302850101111561498f57600080fd5b7f4e487b7100000000000000000000000000000000000000000000000000000000600052602160045260246000fd5b60028110610dce577f4e487b7100000000000000000000000000000000000000000000000000000000600052602160045260246000fd5b60208101614bbc83614b78565b91905290565b7f4e487b7100000000000000000000000000000000000000000000000000000000600052603260045260246000fd5b600060208284031215614c0357600080fd5b813563ffffffff8116811461232c57600080fd5b600060208284031215614c2957600080fd5b815161232c816149d5565b7f4e487b7100000000000000000000000000000000000000000000000000000000600052601160045260246000fd5b808201808211156140eb576140eb614c34565b600060208284031215614c8857600080fd5b813567ffffffffffffffff8116811461232c57600080fd5b600060208284031215614cb257600080fd5b5051919050565b600060208284031215614ccb57600080fd5b8151801515811461232c57600080fd5b600067ffffffffffffffff808316818103614cf857614cf8614c34565b6001019392505050565b60006080820190506001600160a01b038351168252602083015160208301526040830151614d476040840182805167ffffffffffffffff168252602090810151910152565b5092915050565b818103818111156140eb576140eb614c34565b60005b83811015614d7c578181015183820152602001614d64565b50506000910152565b60008151808452614d9d816020860160208601614d61565b601f017fffffffffffffffffffffffffffffffffffffffffffffffffffffffffffffffe0169290920160200192915050565b60006001600160a01b03808a168352886020840152808816604084015286606084015285608084015280851660a08401525060e060c0830152614e1560e0830184614d85565b9998505050505050505050565b7f4e487b7100000000000000000000000000000000000000000000000000000000600052600160045260246000fd5b63ffffffff818116838216028082169190828114614e7157614e71614c34565b505092915050565b828152604060208201526000614e926040830184614d85565b949350505050565b60006001600160a01b03808a168352808916602084015280881660408401525085606083015263ffffffff851660808301528360a083015260e060c0830152614e1560e0830184614d85565b7f4e487b7100000000000000000000000000000000000000000000000000000000600052604160045260246000fd5b600060208284031215614f2757600080fd5b815167ffffffffffffffff80821115614f3f57600080fd5b818401915084601f830112614f5357600080fd5b815181811115614f6557614f65614ee6565b604051601f82017fffffffffffffffffffffffffffffffffffffffffffffffffffffffffffffffe0908116603f01168101908382118183101715614fab57614fab614ee6565b81604052828152876020848701011115614fc457600080fd5b614fd5836020830160208801614d61565b979650505050505050565b60006101006001600160a01b03808c1684528a6020850152896040850152808916606085015280881660808501525063ffffffff861660a08401528460c08401528060e084015261503381840185614d85565b9b9a5050505050505050505050565b60006001600160a01b038087168352808616602084015250836040830152608060608301526147b56080830184614d85565b6001600160a01b0383168152604060208201526000614e926040830184614d85565b60007fffffffffffffffffffffffffffffffffffffffffffffffffffffffffffffffff82036150c7576150c7614c34565b5060010190565b600181815b8085111561512757817fffffffffffffffffffffffffffffffffffffffffffffffffffffffffffffffff0482111561510d5761510d614c34565b8085161561511a57918102915b93841c93908002906150d3565b509250929050565b60008261513e575060016140eb565b8161514b575060006140eb565b8160018114615161576002811461516b57615187565b60019150506140eb565b60ff84111561517c5761517c614c34565b50506001821b6140eb565b5060208310610133831016604e8410600b84101617156151aa575081810a6140eb565b6151b483836150ce565b807fffffffffffffffffffffffffffffffffffffffffffffffffffffffffffffffff048211156151e6576151e6614c34565b029392505050565b60006140e8838361512f565b6000825161520c818460208701614d61565b919091019291505056fea264697066735822122083a23023994e927b3fcd84b55076adb7146b000d56209de8979806f4d6f9dfd664736f6c63430008170033a26469706673582212200ac3aca863f69ac75514f9cdfd4fd2022e3dd252b96394cb651910aca1d84dd864736f6c63430008170033",
	"deployedBytecode": "0x608060405234801561001057600080fd5b50600436106100a35760003560e01c80633691b46111610076578063c39ec1241161005b578063c39ec12414610179578063c86719b7146101ac578063f434c914146101e057600080fd5b80633691b4611461013b57806388bc2ef31461015257600080fd5b806303c85ea3146100a857806312130366146100da5780631d831d5c146100ed5780631e5d73df14610114575b600080fd5b6100b0610207565b60405173ffffffffffffffffffffffffffffffffffffffff90911681526020015b60405180910390f35b6100b06100e836600461041d565b6102be565b6100b07f000000000000000000000000ff5dd171bda8bc78915b9a58d907df7c10ce4e5c81565b6100b07f0000000000000000000000000ff306a08cf4e16570ab7a6bd95ba52d2fe64d4581565b61014460015481565b6040519081526020016100d1565b6100b07f000000000000000000000000e0b2860344ba476e12ed1d559656da9d04f1ad2281565b61019c61018736600461043f565b60006020819052908152604090205460ff1681565b60405190151581526020016100d1565b6101d37f000000000000000000000000000000000000000000000000000000000000000081565b6040516100d191906104b6565b6100b07f0000000000000000000000004cdb4200e4e65a277676cd5e8d3c7c7c4da7fbe581565b6000467fffffffffffffffffffffffffffffffffffffffffffffffffffffffffffffffff810161024c577372ce9c846789fdb6fc1f34ac4ad25dd9ef7031ef91505090565b61a4b1810361027057735288c571fd7ad117bea99bf60fe0846c4e84f93391505090565b62aa36a781036102955773ce18836b233c83325cc8848ca4487e94c628826491505090565b62066eee81036102ba57739fdd1c4e4aa24eec1d913fabea925594a20d43c791505090565b5090565b6040517fffffffffffffffffffffffffffffffffffffffff0000000000000000000000003360601b1660208201526034810182905260009060540160405160208183030381529060405280519060200120915082600181905550817f000000000000000000000000e0b2860344ba476e12ed1d559656da9d04f1ad227f0000000000000000000000004cdb4200e4e65a277676cd5e8d3c7c7c4da7fbe57f000000000000000000000000ff5dd171bda8bc78915b9a58d907df7c10ce4e5c60008060405161038b9061040f565b6103999594939291906104c9565b8190604051809103906000f59050801580156103b9573d6000803e3d6000fd5b5073ffffffffffffffffffffffffffffffffffffffff8116600090815260208190526040902080547fffffffffffffffffffffffffffffffffffffffffffffffffffffffffffffff001660011790559392505050565b615748806200051883390190565b6000806040838503121561043057600080fd5b50508035926020909101359150565b60006020828403121561045157600080fd5b813573ffffffffffffffffffffffffffffffffffffffff8116811461047557600080fd5b9392505050565b600281106104b3577f4e487b7100000000000000000000000000000000000000000000000000000000600052602160045260246000fd5b50565b602081016104c38361047c565b91905290565b73ffffffffffffffffffffffffffffffffffffffff8681168252858116602083015284811660408301528316606082015260a081016105078361047c565b826080830152969550505050505056fe6101c06040523480156200001257600080fd5b50604051620057483803806200574883398101604081905262000035916200029c565b8484848484336001600160a01b0316633691b4616040518163ffffffff1660e01b8152600401602060405180830381865afa15801562000079573d6000803e3d6000fd5b505050506040513d601f19601f820116820180604052508101906200009f91906200031f565b6001600160a01b0380861660805286811660e05284811661014052831615620000c95782620000cb565b305b6001600160a01b0316610100523360c052816001811115620000f157620000f162000339565b60a081600181111562000108576200010862000339565b90525061012052504693506200012492508391506200024e9050565b62000149576040516302b87bc960e11b81526004810182905260240160405180910390fd5b60018114806200015b575062aa36a781145b15620001af5760006101a05260018114620001915773aae29b0366299461418f5324a79afc425be5ae21610160819052620001ad565b734dbd4fc535ac27206064b68ffcf827b0a60bab3f6101608190525b505b61a4b1811480620001c2575062066eee81145b15620001cf5760016101a0525b336001600160a01b03166303c85ea36040518163ffffffff1660e01b8152600401602060405180830381865afa1580156200020e573d6000803e3d6000fd5b505050506040513d601f19601f820116820180604052508101906200023491906200034f565b6001600160a01b0316610180525062000376945050505050565b6000600182148062000262575062aa36a782145b806200026f575061a4b182145b806200027d575062066eee82145b92915050565b6001600160a01b03811681146200029957600080fd5b50565b600080600080600060a08688031215620002b557600080fd5b8551620002c28162000283565b6020870151909550620002d58162000283565b6040870151909450620002e88162000283565b6060870151909350620002fb8162000283565b6080870151909250600281106200031157600080fd5b809150509295509295909350565b6000602082840312156200033257600080fd5b5051919050565b634e487b7160e01b600052602160045260246000fd5b6000602082840312156200036257600080fd5b81516200036f8162000283565b9392505050565b60805160a05160c05160e05161010051610120516101405161016051610180516101a05161524c620004fc60003960008181610667015281816115cd01528181611847015261215d0152600081816106b001528181613a3f01528181613ab201528181613d830152613e3501526000818161051801528181612196015281816139190152613c290152600081816101c30152610bcb0152600081816102a20152818161093e015281816109bb01528181610ba20152818161119b015281816112440152818161194701528181611a2501528181611abb01528181611d7801528181611e4a01528181611f5001526120b50152600081816104e4015281816123020152818161234a01528181613ae401528181613c5901528181613e640152613f3401526000818161046c01528181610896015281816111c1015281816119820152611da7015260006105f201526000818161062601528181610d2101528181610d580152818161109e01526111240152600081816106e401526114fb015261524c6000f3fe6080604052600436106101a55760003560e01c80639e6d7d43116100e1578063c18541291161008a578063c86719b711610064578063c86719b714610655578063cdfceeba14610689578063defbb6971461069e578063f434c914146106d257600080fd5b8063c1854129146105c0578063c1b8411a146105e0578063c6525f2c1461061457600080fd5b8063b59ef50f116100bb578063b59ef50f1461053a578063b71c11791461055a578063bf557aee1461056d57600080fd5b80639e6d7d43146104a5578063ad42938b146104d2578063b10123681461050657600080fd5b806369ce22331161014e5780637de6fba2116101285780637de6fba21461037e578063802c8fa01461042d57806388bc2ef31461045a57806392ee1ea71461048e57600080fd5b806369ce2233146102d257806369d31fdd146102f25780636d9e384b1461030557600080fd5b80633a5de07d1161017f5780633a5de07d14610244578063551ebbf01461027057806356539f391461029057600080fd5b80631d831d5c146101b15780632241dc521461020257806338eb20441461022457600080fd5b366101ac57005b600080fd5b3480156101bd57600080fd5b506101e57f000000000000000000000000000000000000000000000000000000000000000081565b6040516001600160a01b0390911681526020015b60405180910390f35b34801561020e57600080fd5b5061022261021d36600461492c565b610706565b005b34801561023057600080fd5b5061022261023f3660046149b9565b610740565b34801561025057600080fd5b5061025b62030d4081565b60405163ffffffff90911681526020016101f9565b34801561027c57600080fd5b5061022261028b3660046149ea565b610b3a565b34801561029c57600080fd5b506102c47f000000000000000000000000000000000000000000000000000000000000000081565b6040519081526020016101f9565b3480156102de57600080fd5b506102226102ed366004614a34565b610d1d565b6102226103003660046149b9565b610dd1565b34801561031157600080fd5b50610371610320366004614a34565b6040805180820190915260008082526020820152506001600160a01b03166000908152600260209081526040918290208251808401909352805467ffffffffffffffff168352600101549082015290565b6040516101f99190614a51565b34801561038a57600080fd5b506103fc610399366004614a34565b6040805160608082018352600080835260208084018290529284018190526001600160a01b0394851681526004835283902083519182018452805463ffffffff811683526401000000009004909416918101919091526001909201549082015290565b60408051825163ffffffff1681526020808401516001600160a01b03169082015291810151908201526060016101f9565b34801561043957600080fd5b5061044d610448366004614a34565b610f80565b6040516101f99190614a72565b34801561046657600080fd5b506101e57f000000000000000000000000000000000000000000000000000000000000000081565b34801561049a57600080fd5b5061025b620493e081565b3480156104b157600080fd5b506102c46104c0366004614a34565b60006020819052908152604090205481565b3480156104de57600080fd5b506101e57f000000000000000000000000000000000000000000000000000000000000000081565b34801561051257600080fd5b506101e57f000000000000000000000000000000000000000000000000000000000000000081565b34801561054657600080fd5b50610222610555366004614ad2565b611015565b610222610568366004614a34565b61131c565b34801561057957600080fd5b506105b0610588366004614a34565b6001600160a01b03908116600090815260046020526040902054640100000000900416151590565b60405190151581526020016101f9565b3480156105cc57600080fd5b506102226105db366004614ae5565b6113e1565b3480156105ec57600080fd5b506101e57f000000000000000000000000000000000000000000000000000000000000000081565b34801561062057600080fd5b506106487f000000000000000000000000000000000000000000000000000000000000000081565b6040516101f99190614baf565b34801561066157600080fd5b506106487f000000000000000000000000000000000000000000000000000000000000000081565b34801561069557600080fd5b506102c4611416565b3480156106aa57600080fd5b506101e57f000000000000000000000000000000000000000000000000000000000000000081565b3480156106de57600080fd5b506101e57f000000000000000000000000000000000000000000000000000000000000000081565b8060005b8181101561073a5761073284848381811061072757610727614bc2565b905060800201610740565b60010161070a565b50505050565b600061074f6020830183614a34565b9050600061eeee6107636020850185614a34565b6001600160a01b0316149050808015610796575061eeee61078a6060850160408601614a34565b6001600160a01b031614155b80156107bb575060006107af6060850160408601614a34565b6001600160a01b031614155b15610813576107d06060840160408501614a34565b6040517ff41f6def0000000000000000000000000000000000000000000000000000000081526001600160a01b0390911660048201526024015b60405180910390fd5b62030d406108276040850160208601614bf1565b63ffffffff16108015610838575080155b156108915761084d6040840160208501614bf1565b6040517f555d0f1000000000000000000000000000000000000000000000000000000000815263ffffffff909116600482015262030d40602482015260440161080a565b6109e17f00000000000000000000000000000000000000000000000000000000000000006001600160a01b031663293c49996040518163ffffffff1660e01b8152600401602060405180830381865afa1580156108f2573d6000803e3d6000fd5b505050506040513d601f19601f820116820180604052508101906109169190614c17565b6040517f6352211e0000000000000000000000000000000000000000000000000000000081527f000000000000000000000000000000000000000000000000000000000000000060048201526001600160a01b039190911690636352211e90602401602060405180830381865afa158015610995573d6000803e3d6000fd5b505050506040513d601f19601f820116820180604052508101906109b99190614c17565b7f0000000000000000000000000000000000000000000000000000000000000000601c61148a565b60006109f36060850160408601614a34565b6001600160a01b0316148015610a2357506001600160a01b03821660009081526003602052604090206001015415155b15610a7e576001600160a01b0380831660009081526004602090815260408083208151606081018352815463ffffffff8116825264010000000090049095169285019290925260019091015490830152610a7e9184906115c0565b6040518060600160405280846020016020810190610a9c9190614bf1565b63ffffffff168152602001610ab76060860160408701614a34565b6001600160a01b0390811682526060909501356020918201529284166000908152600484526040908190208251815495840151909616640100000000027fffffffffffffffff00000000000000000000000000000000000000000000000090951663ffffffff909616959095179390931784559091015160019092019190915550565b6001600160a01b038316610b7a576040517f8d3329cd00000000000000000000000000000000000000000000000000000000815260040160405180910390fd5b6040517fea78803f0000000000000000000000000000000000000000000000000000000081527f000000000000000000000000000000000000000000000000000000000000000060048201526000907f00000000000000000000000000000000000000000000000000000000000000006001600160a01b03169063ea78803f90602401602060405180830381865afa158015610c1a573d6000803e3d6000fd5b505050506040513d601f19601f82011682018060405250810190610c3e9190614c17565b90506001600160a01b038116610c80576040517fcaa06d2000000000000000000000000000000000000000000000000000000000815260040160405180910390fd5b6001600160a01b03828116600090815260046020526040902054640100000000900416610ce4576040517f04fdbe060000000000000000000000000000000000000000000000000000000081526001600160a01b038316600482015260240161080a565b610cf96001600160a01b0382163330886118a3565b6000610d078287858761191f565b9050610d1586848388611b5d565b505050505050565b60007f00000000000000000000000000000000000000000000000000000000000000006001811115610d5157610d51614b49565b14610daa577f00000000000000000000000000000000000000000000000000000000000000006040517fb039c39500000000000000000000000000000000000000000000000000000000815260040161080a9190614baf565b6001600160a01b038116600090815260208190526040902054610dce908290611cd6565b50565b610dda33612158565b610e12576040517f36183c8f00000000000000000000000000000000000000000000000000000000815233600482015260240161080a565b602081018035906000908190610e289085614a34565b6001600160a01b03166001600160a01b031681526020019081526020016000206000828254610e579190614c63565b9091555060009050600281610e6f6020850185614a34565b6001600160a01b0316815260208101919091526040908101600020805490925067ffffffffffffffff1690610eaa9060608501908501614c76565b67ffffffffffffffff161115610f7c57610eca6060830160408401614c76565b81547fffffffffffffffffffffffffffffffffffffffffffffffff00000000000000001667ffffffffffffffff9190911617815560608201356001820155610f156020830183614a34565b6001600160a01b03167fc69d3412489554fb7820c4c2784cb644b6c79bfc117444b93977d3d33a9b8eac610f4f6060850160408601614c76565b6040805167ffffffffffffffff929092168252606086810135602084015233838301529051918290030190a25b5050565b610f88614876565b6001600160a01b0382166000908152600360209081526040918290208251606081018452815467ffffffffffffffff1681526001820154818401528351610440810180865291949293858401939192600286019284929083019184919082845b815481526020019060010190808311610fe857505050918352505060209182015491015290525092915050565b61104d606082013561102a6020840184614a34565b608084013561103f6060860160408701614a34565b602086013560a08701612385565b7faaca6f6829d340365b5e6599e0d513cbb4602b94f58ccf16ac77d8d3ae7139ef61107e6060830160408401614a34565b61108b6020840184614a34565b60608401356080850135602086013560017f000000000000000000000000000000000000000000000000000000000000000060018111156110ce576110ce614b49565b146110da5760006110dd565b60015b604080516001600160a01b0397881681529690951660208701529385019290925260608401526080830152151560a08201523360c082015260e00160405180910390a160017f0000000000000000000000000000000000000000000000000000000000000000600181111561115457611154614b49565b03611173576111736111696020830183614a34565b6080830135611cd6565b6040517f5dd8f6aa0000000000000000000000000000000000000000000000000000000081527f000000000000000000000000000000000000000000000000000000000000000060048201527f00000000000000000000000000000000000000000000000000000000000000006001600160a01b031690635dd8f6aa90602401602060405180830381865afa158015611210573d6000803e3d6000fd5b505050506040513d601f19601f820116820180604052508101906112349190614c17565b6001600160a01b031663c7fb92de7f0000000000000000000000000000000000000000000000000000000000000000606084018035906112779060408701614a34565b6040517fffffffff0000000000000000000000000000000000000000000000000000000060e086901b168152600481019390935260248301919091526001600160a01b0316604482015260a06064820152600060a48201819052608482015260c4016020604051808303816000875af11580156112f8573d6000803e3d6000fd5b505050506040513d601f19601f82011682018060405250810190610f7c9190614ca0565b6001600160a01b0380821660008181526004602090815260408083208151606081018352815463ffffffff811682526401000000009004909616868401526001908101548683018190529484526003909252909120015410156113d6576001600160a01b03821660009081526003602052604090819020600101548282015191517fc3e11b7900000000000000000000000000000000000000000000000000000000815261080a9290600401918252602082015260400190565b610f7c3483836115c0565b8060005b8181101561073a5761140e84848381811061140257611402614bc2565b90506104a00201611015565b6001016113e5565b6000467fffffffffffffffffffffffffffffffffffffffffffffffffffffffffffffffff81016114495761a4b191505090565b61a4b1810361145a57600191505090565b62aa36a7810361146e5762066eee91505090565b62066eee81036114825762aa36a791505090565b600091505090565b336001600160a01b038416811480159061156857506040517f348b684e0000000000000000000000000000000000000000000000000000000081526001600160a01b0382811660048301528581166024830152604482018590526064820184905260016084830181905260a48301527f0000000000000000000000000000000000000000000000000000000000000000169063348b684e9060c401602060405180830381865afa158015611542573d6000803e3d6000fd5b505050506040513d601f19601f820116820180604052508101906115669190614cb9565b155b1561073a576040517f264deeaa0000000000000000000000000000000000000000000000000000000081526001600160a01b03808616600483015282166024820152604481018490526064810183905260840161080a565b821580156115ff575060007f000000000000000000000000000000000000000000000000000000000000000060018111156115fd576115fd614b49565b145b15611639576040517f4076fc270000000000000000000000000000000000000000000000000000000081526004810184905260240161080a565b6001600160a01b038216600090815260036020526040812060018101805490839055815491929091839082906116789067ffffffffffffffff16614cdb565b91906101000a81548167ffffffffffffffff021916908367ffffffffffffffff1602179055905060006001600160a01b031684602001516001600160a01b0316036116fa576040517f04fdbe060000000000000000000000000000000000000000000000000000000081526001600160a01b038616600482015260240161080a565b6000604051806060016040528086602001516001600160a01b0316815260200184815260200160405180604001604052808567ffffffffffffffff1681526020016117478860020161251a565b9052905260405161175b9190602401614d02565b604080517fffffffffffffffffffffffffffffffffffffffffffffffffffffffffffffffe08184030181529190526020810180517bffffffffffffffffffffffffffffffffffffffffffffffffffffffff167f69d31fdd0000000000000000000000000000000000000000000000000000000017905290506001600160a01b0386166117e96002860161251a565b60228601547f47c5615513b0f669da2dd7e3362a34610ca2695d0a0e2da2160cee952eab203c9061181c90600190614d4e565b6040805191825267ffffffffffffffff87166020830152339082015260600160405180910390a360007f0000000000000000000000000000000000000000000000000000000000000000600181111561187757611877614b49565b0361188e5761188986888584896138d0565b61189a565b61189a86848388613cf7565b50505050505050565b6040516001600160a01b03848116602483015283811660448301526064820183905261073a9186918216906323b872dd906084015b604051602081830303815290604052915060e01b6020820180517bffffffffffffffffffffffffffffffffffffffffffffffffffffffff8381831617835250505050613fa1565b6040517f862026500000000000000000000000000000000000000000000000000000000081527f000000000000000000000000000000000000000000000000000000000000000060048201526001600160a01b03838116602483015260009182917f00000000000000000000000000000000000000000000000000000000000000001690638620265090604401602060405180830381865afa1580156119c9573d6000803e3d6000fd5b505050506040513d601f19601f820116820180604052508101906119ed9190614c17565b90506001600160a01b038116611a60576040517fb61c181f0000000000000000000000000000000000000000000000000000000081527f000000000000000000000000000000000000000000000000000000000000000060048201526001600160a01b038516602482015260440161080a565b6000611a6c8530614022565b604080516020810182526000815290517fbb7214fe0000000000000000000000000000000000000000000000000000000081529192506001600160a01b0384169163bb7214fe91611aeb9130917f0000000000000000000000000000000000000000000000000000000000000000918b918d918c918691600401614dcf565b6020604051808303816000875af1158015611b0a573d6000803e3d6000fd5b505050506040513d601f19601f82011682018060405250810190611b2e9190614ca0565b925080611b3b8630614022565b611b459190614d4e565b8314611b5357611b53614e22565b5050949350505050565b6040805160208082018790528183018590526001600160a01b03841660608084019190915283518084039091018152608090920190925280519101206000906001600160a01b0385166000908152600360209081526040808320815161044081018084529596509094611c069387936002880192849291830191849182845b815481526020019060010190808311611bdc575050509183525050602091820154910152906140f1565b805190915081906002840190611c1f908290602061489a565b506020820151816020015590505084826001016000828254611c419190614c63565b92505081905550856001600160a01b0316846001600160a01b03167f584a41ff082fad99bb6e50c5767c347c762057fe5726539f0a8de49d84549c238560018560200151611c8f9190614d4e565b611c9b8760020161251a565b60408051938452602084019290925290820152606081018b9052608081018990523360a082015260c00160405180910390a350505050505050565b6001600160a01b03821660009081526020819052604090205480821115611d33576040517f60ec3e71000000000000000000000000000000000000000000000000000000008152600481018390526024810182905260440161080a565b6001600160a01b038381166000818152602081905260408082208686039055517f862026500000000000000000000000000000000000000000000000000000000081527f000000000000000000000000000000000000000000000000000000000000000060048201526024810192909252917f00000000000000000000000000000000000000000000000000000000000000001690638620265090604401602060405180830381865afa158015611dee573d6000803e3d6000fd5b505050506040513d601f19601f82011682018060405250810190611e129190614c17565b90506001600160a01b038116611e85576040517fb61c181f0000000000000000000000000000000000000000000000000000000081527f000000000000000000000000000000000000000000000000000000000000000060048201526001600160a01b038516602482015260440161080a565b6001600160a01b03841661eeee1461208d576040517f70a082310000000000000000000000000000000000000000000000000000000081523060048201526000906001600160a01b038616906370a0823190602401602060405180830381865afa158015611ef7573d6000803e3d6000fd5b505050506040513d601f19601f82011682018060405250810190611f1b9190614ca0565b9050611f28858386614247565b6040517f9e6eec050000000000000000000000000000000000000000000000000000000081527f000000000000000000000000000000000000000000000000000000000000000060048201526001600160a01b0386811660248301526044820186905260006064830181905260c0608484015260c4830181905260e060a484015260e4830152831690639e6eec059061010401600060405180830381600087803b158015611fd557600080fd5b505af1158015611fe9573d6000803e3d6000fd5b505050508381611ff99190614d4e565b6040517f70a082310000000000000000000000000000000000000000000000000000000081523060048201526001600160a01b038716906370a0823190602401602060405180830381865afa158015612056573d6000803e3d6000fd5b505050506040513d601f19601f8201168201806040525081019061207a9190614ca0565b1461208757612087614e22565b5061073a565b6040517f9e6eec050000000000000000000000000000000000000000000000000000000081527f000000000000000000000000000000000000000000000000000000000000000060048201526001600160a01b0385811660248301526044820185905260006064830181905260c0608484015260c4830181905260e060a484015260e4830152821690639e6eec059061010401600060405180830381600087803b15801561213a57600080fd5b505af115801561214e573d6000803e3d6000fd5b5050505050505050565b6000807f0000000000000000000000000000000000000000000000000000000000000000600181111561218d5761218d614b49565b036123335760007f00000000000000000000000000000000000000000000000000000000000000006001600160a01b031663e78cea926040518163ffffffff1660e01b8152600401602060405180830381865afa1580156121f2573d6000803e3d6000fd5b505050506040513d601f19601f820116820180604052508101906122169190614c17565b9050806001600160a01b0316836001600160a01b031614801561232c5750806001600160a01b031663ab5d89436040518163ffffffff1660e01b8152600401602060405180830381865afa158015612272573d6000803e3d6000fd5b505050506040513d601f19601f820116820180604052508101906122969190614c17565b6001600160a01b03166380648b026040518163ffffffff1660e01b8152600401602060405180830381865afa1580156122d3573d6000803e3d6000fd5b505050506040513d601f19601f820116820180604052508101906122f79190614c17565b6001600160a01b03167f00000000000000000000000000000000000000000000000000000000000000006001600160a01b0316145b9392505050565b7311110000000000000000000000000000000011117f0000000000000000000000000000000000000000000000000000000000000000016001600160a01b0316826001600160a01b0316149050919050565b6001600160a01b0385166000908152600160208181526040808420600887901c85529091529091205460ff84169190911b1615612400576040517fa4e6bcec0000000000000000000000000000000000000000000000000000000081526001600160a01b03861660048201526024810183905260440161080a565b6001600160a01b038581166000908152600160208181526040808420600888901c85528252808420805460ff89169490941b90931790925581518082018b90528083018990529387166060808601919091528251808603909101815260808501808452815191830191909120610480909501909252919261249c9290919085908282610400808284376000920191909152508791506143059050565b6001600160a01b038716600090815260026020526040902060010154909150811461189a576001600160a01b038616600090815260026020526040908190206001015490517ee587d200000000000000000000000000000000000000000000000000000000815261080a918391600401918252602082015260400190565b602081015460009080820361255157507f27ae5ba08d7291c96c8cbddcc148bf48a6d68c7974b94356f53754ef6171d75792915050565b6000836001831615612573578054600052600060205260406000209350612e26565b60028316156125b85760018101546000527fad3228b676f7d3cd4284a5443f17f1962b36e491b30a40b2405849e597ba5fb56020526040600020935060019150612e26565b60048316156125fd5760028101546000527fb4c11951957c6f8f642c4af61cd6b24640fec6dc7fc607ee8206a99e92410d306020526040600020935060029150612e26565b60088316156126425760038101546000527f21ddb9a356815c3fac1026b6dec5df3124afbadb485c9ba5a3e3398a04b7ba856020526040600020935060039150612e26565b60108316156126875760048101546000527fe58769b32a1beaf1ea27375a44095a0d1fb664ce2dd358e7fcbfb78c26a193446020526040600020935060049150612e26565b60208316156126cc5760058101546000527f0eb01ebfc9ed27500cd4dfc979272d1f0913cc9f66540d7e8005811109e1cf2d6020526040600020935060059150612e26565b60408316156127115760068101546000527f887c22bd8750d34016ac3c66b5ff102dacdd73f6b014e710b51e8022af9a19686020526040600020935060069150612e26565b60808316156127565760078101546000527fffd70157e48063fc33c97a050f7f640233bf646cc98d9524c6b92bcf3ab56f836020526040600020935060079150612e26565b61010083161561279c5760088101546000527f9867cc5f7f196b93bae1e27e6320742445d290f2263827498b54fec539f756af6020526040600020935060089150612e26565b6102008316156127e25760098101546000527fcefad4e508c098b9a7e1d8feb19955fb02ba9675585078710969d3440f5054e06020526040600020935060099150612e26565b61040083161561282857600a8101546000527ff9dc3e7fe016e050eff260334f18a5d4fe391d82092319f5964f2e2eb7c1c3a560205260406000209350600a9150612e26565b61080083161561286e57600b8101546000527ff8b13a49e282f609c317a833fb8d976d11517c571d1221a265d25af778ecf89260205260406000209350600b9150612e26565b6110008316156128b457600c8101546000527f3490c6ceeb450aecdc82e28293031d10c7d73bf85e57bf041a97360aa2c5d99c60205260406000209350600c9150612e26565b6120008316156128fa57600d8101546000527fc1df82d9c4b87413eae2ef048f94b4d3554cea73d92b0f7af96e0271c691e2bb60205260406000209350600d9150612e26565b61400083161561294057600e8101546000527f5c67add7c6caf302256adedf7ab114da0acfe870d449a3a489f781d659e8becc60205260406000209350600e9150612e26565b61800083161561298657600f8101546000527fda7bce9f4e8618b6bd2f4132ce798cdc7a60e7e1460a7299e3c6342a579626d260205260406000209350600f9150612e26565b620100008316156129cd5760108101546000527f2733e50f526ec2fa19a22b31e8ed50f23cd1fdf94c9154ed3a7609a2f1ff981f6020526040600020935060109150612e26565b62020000831615612a145760118101546000527fe1d3b5c807b281e4683cc6d6315cf95b9ade8641defcb32372f1c126e398ef7a6020526040600020935060119150612e26565b62040000831615612a5b5760128101546000527f5a2dce0a8a7f68bb74560f8f71837c2c2ebbcbf7fffb42ae1896f13f7c7479a06020526040600020935060129150612e26565b62080000831615612aa25760138101546000527fb46a28b6f55540f89444f63de0378e3d121be09e06cc9ded1c20e65876d36aa06020526040600020935060139150612e26565b62100000831615612ae95760148101546000527fc65e9645644786b620e2dd2ad648ddfcbf4a7e5b1a3a4ecfe7f64667a3f0b7e26020526040600020935060149150612e26565b62200000831615612b305760158101546000527ff4418588ed35a2458cffeb39b93d26f18d2ab13bdce6aee58e7b99359ec2dfd96020526040600020935060159150612e26565b62400000831615612b775760168101546000527f5a9c16dc00d6ef18b7933a6f8dc65ccb55667138776f7dea101070dc8796e3776020526040600020935060169150612e26565b62800000831615612bbe5760178101546000527f4df84f40ae0c8229d0d6069e5c8f39a7c299677a09d367fc7b05e3bc380ee6526020526040600020935060179150612e26565b6301000000831615612c065760188101546000527fcdc72595f74c7b1043d0e1ffbab734648c838dfb0527d971b602bc216c9619ef6020526040600020935060189150612e26565b6302000000831615612c4e5760198101546000527f0abf5ac974a1ed57f4050aa510dd9c74f508277b39d7973bb2dfccc5eeb0618d6020526040600020935060199150612e26565b6304000000831615612c9657601a8101546000527fb8cd74046ff337f0a7bf2c8e03e10f642c1886798d71806ab1e888d9e5ee87d060205260406000209350601a9150612e26565b6308000000831615612cde57601b8101546000527f838c5655cb21c6cb83313b5a631175dff4963772cce9108188b34ac87c81c41e60205260406000209350601b9150612e26565b6310000000831615612d2657601c8101546000527f662ee4dd2dd7b2bc707961b1e646c4047669dcb6584f0d8d770daf5d7e7deb2e60205260406000209350601c9150612e26565b6320000000831615612d6e57601d8101546000527f388ab20e2573d171a88108e79d820e98f26c0b84aa8b2f4aa4968dbb818ea32260205260406000209350601d9150612e26565b6340000000831615612db657601e8101546000527f93237c50ba75ee485f4c22adf2f741400bdf8d6a9cc7df7ecae576221665d73560205260406000209350601e9150612e26565b6380000000831615612dfe57601f8101546000527f8448818bb4ae4562849e949e17ac16e0be16688e156b5cf15e098c627c0056a960205260406000209350601f9150612e26565b7f27ae5ba08d7291c96c8cbddcc148bf48a6d68c7974b94356f53754ef6171d7579350602091505b601e82116138c8576001821015612e8457600283168015612e5257600182015460005284602052612e7b565b846000527fad3228b676f7d3cd4284a5443f17f1962b36e491b30a40b2405849e597ba5fb56020525b50604060002093505b6002821015612eda57600483168015612ea857600282015460005284602052612ed1565b846000527fb4c11951957c6f8f642c4af61cd6b24640fec6dc7fc607ee8206a99e92410d306020525b50604060002093505b6003821015612f3057600883168015612efe57600382015460005284602052612f27565b846000527f21ddb9a356815c3fac1026b6dec5df3124afbadb485c9ba5a3e3398a04b7ba856020525b50604060002093505b6004821015612f8657601083168015612f5457600482015460005284602052612f7d565b846000527fe58769b32a1beaf1ea27375a44095a0d1fb664ce2dd358e7fcbfb78c26a193446020525b50604060002093505b6005821015612fdc57602083168015612faa57600582015460005284602052612fd3565b846000527f0eb01ebfc9ed27500cd4dfc979272d1f0913cc9f66540d7e8005811109e1cf2d6020525b50604060002093505b60068210156130325760408316801561300057600682015460005284602052613029565b846000527f887c22bd8750d34016ac3c66b5ff102dacdd73f6b014e710b51e8022af9a19686020525b50604060002093505b6007821015613088576080831680156130565760078201546000528460205261307f565b846000527fffd70157e48063fc33c97a050f7f640233bf646cc98d9524c6b92bcf3ab56f836020525b50604060002093505b60088210156130df57610100831680156130ad576008820154600052846020526130d6565b846000527f9867cc5f7f196b93bae1e27e6320742445d290f2263827498b54fec539f756af6020525b50604060002093505b600982101561313657610200831680156131045760098201546000528460205261312d565b846000527fcefad4e508c098b9a7e1d8feb19955fb02ba9675585078710969d3440f5054e06020525b50604060002093505b600a82101561318d576104008316801561315b57600a82015460005284602052613184565b846000527ff9dc3e7fe016e050eff260334f18a5d4fe391d82092319f5964f2e2eb7c1c3a56020525b50604060002093505b600b8210156131e457610800831680156131b257600b820154600052846020526131db565b846000527ff8b13a49e282f609c317a833fb8d976d11517c571d1221a265d25af778ecf8926020525b50604060002093505b600c82101561323b576110008316801561320957600c82015460005284602052613232565b846000527f3490c6ceeb450aecdc82e28293031d10c7d73bf85e57bf041a97360aa2c5d99c6020525b50604060002093505b600d821015613292576120008316801561326057600d82015460005284602052613289565b846000527fc1df82d9c4b87413eae2ef048f94b4d3554cea73d92b0f7af96e0271c691e2bb6020525b50604060002093505b600e8210156132e957614000831680156132b757600e820154600052846020526132e0565b846000527f5c67add7c6caf302256adedf7ab114da0acfe870d449a3a489f781d659e8becc6020525b50604060002093505b600f821015613340576180008316801561330e57600f82015460005284602052613337565b846000527fda7bce9f4e8618b6bd2f4132ce798cdc7a60e7e1460a7299e3c6342a579626d26020525b50604060002093505b60108210156133985762010000831680156133665760108201546000528460205261338f565b846000527f2733e50f526ec2fa19a22b31e8ed50f23cd1fdf94c9154ed3a7609a2f1ff981f6020525b50604060002093505b60118210156133f05762020000831680156133be576011820154600052846020526133e7565b846000527fe1d3b5c807b281e4683cc6d6315cf95b9ade8641defcb32372f1c126e398ef7a6020525b50604060002093505b60128210156134485762040000831680156134165760128201546000528460205261343f565b846000527f5a2dce0a8a7f68bb74560f8f71837c2c2ebbcbf7fffb42ae1896f13f7c7479a06020525b50604060002093505b60138210156134a057620800008316801561346e57601382015460005284602052613497565b846000527fb46a28b6f55540f89444f63de0378e3d121be09e06cc9ded1c20e65876d36aa06020525b50604060002093505b60148210156134f85762100000831680156134c6576014820154600052846020526134ef565b846000527fc65e9645644786b620e2dd2ad648ddfcbf4a7e5b1a3a4ecfe7f64667a3f0b7e26020525b50604060002093505b601582101561355057622000008316801561351e57601582015460005284602052613547565b846000527ff4418588ed35a2458cffeb39b93d26f18d2ab13bdce6aee58e7b99359ec2dfd96020525b50604060002093505b60168210156135a85762400000831680156135765760168201546000528460205261359f565b846000527f5a9c16dc00d6ef18b7933a6f8dc65ccb55667138776f7dea101070dc8796e3776020525b50604060002093505b60178210156136005762800000831680156135ce576017820154600052846020526135f7565b846000527f4df84f40ae0c8229d0d6069e5c8f39a7c299677a09d367fc7b05e3bc380ee6526020525b50604060002093505b60188210156136595763010000008316801561362757601882015460005284602052613650565b846000527fcdc72595f74c7b1043d0e1ffbab734648c838dfb0527d971b602bc216c9619ef6020525b50604060002093505b60198210156136b257630200000083168015613680576019820154600052846020526136a9565b846000527f0abf5ac974a1ed57f4050aa510dd9c74f508277b39d7973bb2dfccc5eeb0618d6020525b50604060002093505b601a82101561370b576304000000831680156136d957601a82015460005284602052613702565b846000527fb8cd74046ff337f0a7bf2c8e03e10f642c1886798d71806ab1e888d9e5ee87d06020525b50604060002093505b601b8210156137645763080000008316801561373257601b8201546000528460205261375b565b846000527f838c5655cb21c6cb83313b5a631175dff4963772cce9108188b34ac87c81c41e6020525b50604060002093505b601c8210156137bd5763100000008316801561378b57601c820154600052846020526137b4565b846000527f662ee4dd2dd7b2bc707961b1e646c4047669dcb6584f0d8d770daf5d7e7deb2e6020525b50604060002093505b601d821015613816576320000000831680156137e457601d8201546000528460205261380d565b846000527f388ab20e2573d171a88108e79d820e98f26c0b84aa8b2f4aa4968dbb818ea3226020525b50604060002093505b601e82101561386f5763400000008316801561383d57601e82015460005284602052613866565b846000527f93237c50ba75ee485f4c22adf2f741400bdf8d6a9cc7df7ecae576221665d7356020525b50604060002093505b601f8210156138c85763800000008316801561389657601f820154600052846020526138bf565b846000527f8448818bb4ae4562849e949e17ac16e0be16688e156b5cf15e098c627c0056a96020525b50604060002093505b505050919050565b81516040517fa66b327d0000000000000000000000000000000000000000000000000000000081526004810191909152630bebc200602482015260009081906001600160a01b037f0000000000000000000000000000000000000000000000000000000000000000169063a66b327d90604401602060405180830381865afa158015613960573d6000803e3d6000fd5b505050506040513d601f19601f820116820180604052508101906139849190614ca0565b90506000613999620493e0630bebc200614e51565b6139a99063ffffffff1683614c63565b9050808710156139ef576040517f514f5196000000000000000000000000000000000000000000000000000000008152600481018890526024810182905260440161080a565b6001600160a01b03881661eeee14613bbc576040517fbda009fe0000000000000000000000000000000000000000000000000000000081526001600160a01b03808a166004830152613ab0918a917f0000000000000000000000000000000000000000000000000000000000000000169063bda009fe90602401602060405180830381865afa158015613a86573d6000803e3d6000fd5b505050506040513d601f19601f82011682018060405250810190613aaa9190614c17565b88614247565b7f00000000000000000000000000000000000000000000000000000000000000006001600160a01b0316634fb1a07b888a337f00000000000000000000000000000000000000000000000000000000000000008b620493e0630bebc2008a8e604051602001613b20929190614e79565b6040516020818303038152906040526040518963ffffffff1660e01b8152600401613b519796959493929190614e9a565b60006040518083038185885af1158015613b6f573d6000803e3d6000fd5b50505050506040513d6000823e601f3d9081017fffffffffffffffffffffffffffffffffffffffffffffffffffffffffffffffe0168201604052613bb69190810190614f15565b50613bc0565b8592505b86613bcb8285614c63565b1115613c2757828710613be757613be28388614d4e565b613bea565b60005b6040517f514f519600000000000000000000000000000000000000000000000000000000815260048101919091526024810182905260440161080a565b7f00000000000000000000000000000000000000000000000000000000000000006001600160a01b031663679b6ded887f000000000000000000000000000000000000000000000000000000000000000086863333620493e0630bebc2008e6040518a63ffffffff1660e01b8152600401613ca9989796959493929190614fe0565b60206040518083038185885af1158015613cc7573d6000803e3d6000fd5b50505050506040513d601f19601f82011682018060405250810190613cec9190614ca0565b505050505050505050565b60003415613d33576040517f4076fc2700000000000000000000000000000000000000000000000000000000815234600482015260240161080a565b6001600160a01b03851661eeee14613efa576040517fbda009fe0000000000000000000000000000000000000000000000000000000081526001600160a01b038087166004830152613df49187917f0000000000000000000000000000000000000000000000000000000000000000169063bda009fe90602401602060405180830381865afa158015613dca573d6000803e3d6000fd5b505050506040513d601f19601f82011682018060405250810190613dee9190614c17565b86614247565b60208083015160408051928301815260008352517f7b3a3c8b0000000000000000000000000000000000000000000000000000000081526001600160a01b037f00000000000000000000000000000000000000000000000000000000000000001692637b3a3c8b92613e8f9290917f0000000000000000000000000000000000000000000000000000000000000000918a9190600401615042565b6000604051808303816000875af1158015613eae573d6000803e3d6000fd5b505050506040513d6000823e601f3d9081017fffffffffffffffffffffffffffffffffffffffffffffffffffffffffffffffe0168201604052613ef49190810190614f15565b50613efd565b50825b6040517f928c169a00000000000000000000000000000000000000000000000000000000815260649063928c169a908390613f5e907f0000000000000000000000000000000000000000000000000000000000000000908890600401615074565b60206040518083038185885af1158015613f7c573d6000803e3d6000fd5b50505050506040513d601f19601f82011682018060405250810190610d159190614ca0565b6000613fb66001600160a01b03841683614653565b90508051600014158015613fdb575080806020019051810190613fd99190614cb9565b155b1561401d576040517f5274afe70000000000000000000000000000000000000000000000000000000081526001600160a01b038416600482015260240161080a565b505050565b60007fffffffffffffffffffffffffffffffffffffffffffffffffffffffffffff11126001600160a01b0384160161406557506001600160a01b038116316140eb565b6040517f70a082310000000000000000000000000000000000000000000000000000000081526001600160a01b0383811660048301528416906370a0823190602401602060405180830381865afa1580156140c4573d6000803e3d6000fd5b505050506040513d601f19601f820116820180604052508101906140e89190614ca0565b90505b92915050565b6140f96148d8565b600083602001805161410a90615096565b908190529050600161411e602060026151ee565b6141289190614d4e565b811115614161576040517f8eab04bb00000000000000000000000000000000000000000000000000000000815260040160405180910390fd5b60005b6020811015614214578160011660010361419d5784518490826020811061418d5761418d614bc2565b6020020152508391506140eb9050565b845181602081106141b0576141b0614bc2565b6020020151846040516020016141d0929190918252602082015260400190565b604080517fffffffffffffffffffffffffffffffffffffffffffffffffffffffffffffffe081840301815291905280516020909101209350600191821c9101614164565b506040517f8eab04bb00000000000000000000000000000000000000000000000000000000815260040160405180910390fd5b604080516001600160a01b038416602482015260448082018490528251808303909101815260649091019091526020810180517bffffffffffffffffffffffffffffffffffffffffffffffffffffffff167f095ea7b3000000000000000000000000000000000000000000000000000000001790526142c68482614661565b61073a576040516001600160a01b038481166024830152600060448301526142fb91869182169063095ea7b3906064016118d8565b61073a8482613fa1565b6020600582811b8216948552835194820394909452604060008181206002851615871b808503919091528386015190528181206004851615871b808503919091528286015190528181206008851615871b80850391909152606086015190528181206010851615871b8085039190915260808087015190915282822084861615881b8086039190915260a0870151905282822083861615881b8086039190915260c0870151905282822090851615871b8085039190915260e0860151905281812061010080861615881b80860392909252860151905281812061020080861615881b80860392909252610120870151909152828220610400861615881b808603919091526101408701519052828220610800861615881b808603919091526101608701519052828220611000861615881b808603919091526101808701519052828220612000861615881b808603919091526101a08701519052828220614000861615881b808603919091526101c08701519052828220618000861615881b808603919091526101e0870151905282822062010000861615881b8086039190915290860151905281812062020000851615871b80850391909152610220860151905281812062040000851615871b80850391909152610240860151905281812062080000851615871b80850391909152610260860151905281812062100000851615871b80850391909152610280860151905281812062200000851615871b808503919091526102a0860151905281812062400000851615871b808503919091526102c0860151905281812062800000851615871b808503919091526102e086015190528181206301000000851615871b8085039190915261030086015190528181206302000000851615871b8085039190915261032086015190528181206304000000851615871b8085039190915261034086015190528181206308000000851615871b8085039190915261036086015190528181206310000000851615871b8085039190915261038086015190528181206320000000851615871b808503919091526103a086015190528181206340000000851615871b808503919091526103c0860151905281812063800000009094161590951b91829003929092526103e090920151909152902090565b60606140e883836000614709565b6000806000846001600160a01b03168460405161467e91906151fa565b6000604051808303816000865af19150503d80600081146146bb576040519150601f19603f3d011682016040523d82523d6000602084013e6146c0565b606091505b50915091508180156146ea5750805115806146ea5750808060200190518101906146ea9190614cb9565b801561470057506000856001600160a01b03163b115b95945050505050565b606081471015614747576040517fcd78605900000000000000000000000000000000000000000000000000000000815230600482015260240161080a565b600080856001600160a01b0316848660405161476391906151fa565b60006040518083038185875af1925050503d80600081146147a0576040519150601f19603f3d011682016040523d82523d6000602084013e6147a5565b606091505b50915091506147b58683836147bf565b9695505050505050565b6060826147d4576147cf82614834565b61232c565b81511580156147eb57506001600160a01b0384163b155b1561482d576040517f9996b3150000000000000000000000000000000000000000000000000000000081526001600160a01b038516600482015260240161080a565b508061232c565b8051156148445780518082602001fd5b6040517f1425ea4200000000000000000000000000000000000000000000000000000000815260040160405180910390fd5b60408051606081018252600080825260208201529081016148956148d8565b905290565b82602081019282156148c8579160200282015b828111156148c85782518255916020019190600101906148ad565b506148d49291506148f8565b5090565b60405180604001604052806148eb61490d565b8152602001600081525090565b5b808211156148d457600081556001016148f9565b6040518061040001604052806020906020820280368337509192915050565b6000806020838503121561493f57600080fd5b823567ffffffffffffffff8082111561495757600080fd5b818501915085601f83011261496b57600080fd5b81358181111561497a57600080fd5b8660208260071b850101111561498f57600080fd5b60209290920196919550909350505050565b6000608082840312156149b357600080fd5b50919050565b6000608082840312156149cb57600080fd5b6140e883836149a1565b6001600160a01b0381168114610dce57600080fd5b60008060008060808587031215614a0057600080fd5b843593506020850135614a12816149d5565b9250604085013591506060850135614a29816149d5565b939692955090935050565b600060208284031215614a4657600080fd5b813561232c816149d5565b815167ffffffffffffffff16815260208083015190820152604081016140eb565b815167ffffffffffffffff1681526020808301518183015260408084015180516104608501939260009086015b84821015614abd578251815291840191600191909101908401614a9f565b50505081810151610440850152505092915050565b60006104a082840312156149b357600080fd5b60008060208385031215614af857600080fd5b823567ffffffffffffffff80821115614b1057600080fd5b818501915085601f830112614b2457600080fd5b813581811115614b3357600080fd5b8660206104a08302850101111561498f57600080fd5b7f4e487b7100000000000000000000000000000000000000000000000000000000600052602160045260246000fd5b60028110610dce577f4e487b7100000000000000000000000000000000000000000000000000000000600052602160045260246000fd5b60208101614bbc83614b78565b91905290565b7f4e487b7100000000000000000000000000000000000000000000000000000000600052603260045260246000fd5b600060208284031215614c0357600080fd5b813563ffffffff8116811461232c57600080fd5b600060208284031215614c2957600080fd5b815161232c816149d5565b7f4e487b7100000000000000000000000000000000000000000000000000000000600052601160045260246000fd5b808201808211156140eb576140eb614c34565b600060208284031215614c8857600080fd5b813567ffffffffffffffff8116811461232c57600080fd5b600060208284031215614cb257600080fd5b5051919050565b600060208284031215614ccb57600080fd5b8151801515811461232c57600080fd5b600067ffffffffffffffff808316818103614cf857614cf8614c34565b6001019392505050565b60006080820190506001600160a01b038351168252602083015160208301526040830151614d476040840182805167ffffffffffffffff168252602090810151910152565b5092915050565b818103818111156140eb576140eb614c34565b60005b83811015614d7c578181015183820152602001614d64565b50506000910152565b60008151808452614d9d816020860160208601614d61565b601f017fffffffffffffffffffffffffffffffffffffffffffffffffffffffffffffffe0169290920160200192915050565b60006001600160a01b03808a168352886020840152808816604084015286606084015285608084015280851660a08401525060e060c0830152614e1560e0830184614d85565b9998505050505050505050565b7f4e487b7100000000000000000000000000000000000000000000000000000000600052600160045260246000fd5b63ffffffff818116838216028082169190828114614e7157614e71614c34565b505092915050565b828152604060208201526000614e926040830184614d85565b949350505050565b60006001600160a01b03808a168352808916602084015280881660408401525085606083015263ffffffff851660808301528360a083015260e060c0830152614e1560e0830184614d85565b7f4e487b7100000000000000000000000000000000000000000000000000000000600052604160045260246000fd5b600060208284031215614f2757600080fd5b815167ffffffffffffffff80821115614f3f57600080fd5b818401915084601f830112614f5357600080fd5b815181811115614f6557614f65614ee6565b604051601f82017fffffffffffffffffffffffffffffffffffffffffffffffffffffffffffffffe0908116603f01168101908382118183101715614fab57614fab614ee6565b81604052828152876020848701011115614fc457600080fd5b614fd5836020830160208801614d61565b979650505050505050565b60006101006001600160a01b03808c1684528a6020850152896040850152808916606085015280881660808501525063ffffffff861660a08401528460c08401528060e084015261503381840185614d85565b9b9a5050505050505050505050565b60006001600160a01b038087168352808616602084015250836040830152608060608301526147b56080830184614d85565b6001600160a01b0383168152604060208201526000614e926040830184614d85565b60007fffffffffffffffffffffffffffffffffffffffffffffffffffffffffffffffff82036150c7576150c7614c34565b5060010190565b600181815b8085111561512757817fffffffffffffffffffffffffffffffffffffffffffffffffffffffffffffffff0482111561510d5761510d614c34565b8085161561511a57918102915b93841c93908002906150d3565b509250929050565b60008261513e575060016140eb565b8161514b575060006140eb565b8160018114615161576002811461516b57615187565b60019150506140eb565b60ff84111561517c5761517c614c34565b50506001821b6140eb565b5060208310610133831016604e8410600b84101617156151aa575081810a6140eb565b6151b483836150ce565b807fffffffffffffffffffffffffffffffffffffffffffffffffffffffffffffffff048211156151e6576151e6614c34565b029392505050565b60006140e8838361512f565b6000825161520c818460208701614d61565b919091019291505056fea264697066735822122083a23023994e927b3fcd84b55076adb7146b000d56209de8979806f4d6f9dfd664736f6c63430008170033a26469706673582212200ac3aca863f69ac75514f9cdfd4fd2022e3dd252b96394cb651910aca1d84dd864736f6c63430008170033",
	"devdoc": {
		"kind": "dev",
		"methods": {
			"constructor": {
				"params": {
					"configurator": "The address of the configurator.",
					"directory": "The directory of terminals and controllers for projects.",
					"permissions": "The permissions contract for the deployer.",
					"tokens": "The contract that manages token minting and burning."
				}
			},
			"createForSender(uint256,bytes32)": {
				"details": "Uses the sender address as the salt, which means the same sender must call this function on both chains.",
				"params": {
					"localProjectId": "The project's ID on the local chain.",
					"salt": "The salt to use for the `create2` address."
				},
				"returns": {
					"sucker": "The address of the new sucker."
				}
			},
			"gatewayRouter()": {
				"returns": {
					"gateway": "for the current chain."
				}
			}
		},
		"version": 1
	},
	"userdoc": {
		"kind": "user",
		"methods": {
			"DIRECTORY()": {
				"notice": "The directory of terminals and controllers for projects."
			},
			"LAYER()": {
				"notice": "The layer that this contract is on."
			},
			"LAYER_SPECIFIC_CONFIGURATOR()": {
				"notice": "Only this address can configure this deployer, can only be used once."
			},
			"PERMISSIONS()": {
				"notice": "A contract storing permissions."
			},
			"TOKENS()": {
				"notice": "The contract that manages token minting and burning."
			},
			"createForSender(uint256,bytes32)": {
				"notice": "Create a new `JBSucker` for a specific project."
			},
			"gatewayRouter()": {
				"notice": "Returns the gateway router address for the current chain"
			},
			"isSucker(address)": {
				"notice": "A mapping of suckers deployed by this contract."
			},
			"tempStoreId()": {
				"notice": "A temporary storage slot used by suckers to maintain deterministic deploys."
			}
		},
		"version": 1
	},
	"gitCommit": "4eddc42ccfc8ea088b46265d2ab7ffbd422a9748",
	"sourceName": "src/deployers/JBArbitrumSuckerDeployer.sol",
	"chainId": "421614",
	"linkReferences": {},
	"deployedLinkReferences": {},
	"history": []
}