{
	"_format": "sphinx-sol-ct-artifact-1",
	"merkleRoot": "0x0410b26c523d95207befbf99f9f14f785c99371309b4eab483b4258b96c88b3e",
	"contractName": "JBSuckerRegistry",
	"address": "0xf908124d6b59799CB5bC0EA4FA9209461641724f",
	"abi": [
		{
			"type": "constructor",
			"inputs": [
				{
					"name": "directory",
					"type": "address",
					"internalType": "contract IJBDirectory"
				},
				{
					"name": "permissions",
					"type": "address",
					"internalType": "contract IJBPermissions"
				},
				{
					"name": "initialOwner",
					"type": "address",
					"internalType": "address"
				},
				{
					"name": "trusted_forwarder",
					"type": "address",
					"internalType": "address"
				}
			],
			"stateMutability": "nonpayable"
		},
		{
			"type": "function",
			"name": "DIRECTORY",
			"inputs": [],
			"outputs": [
				{
					"name": "",
					"type": "address",
					"internalType": "contract IJBDirectory"
				}
			],
			"stateMutability": "view"
		},
		{
			"type": "function",
			"name": "PERMISSIONS",
			"inputs": [],
			"outputs": [
				{
					"name": "",
					"type": "address",
					"internalType": "contract IJBPermissions"
				}
			],
			"stateMutability": "view"
		},
		{
			"type": "function",
			"name": "PROJECTS",
			"inputs": [],
			"outputs": [
				{
					"name": "",
					"type": "address",
					"internalType": "contract IJBProjects"
				}
			],
			"stateMutability": "view"
		},
		{
			"type": "function",
			"name": "allowSuckerDeployer",
			"inputs": [
				{
					"name": "deployer",
					"type": "address",
					"internalType": "address"
				}
			],
			"outputs": [],
			"stateMutability": "nonpayable"
		},
		{
			"type": "function",
			"name": "allowSuckerDeployers",
			"inputs": [
				{
					"name": "deployers",
					"type": "address[]",
					"internalType": "address[]"
				}
			],
			"outputs": [],
			"stateMutability": "nonpayable"
		},
		{
			"type": "function",
			"name": "deploySuckersFor",
			"inputs": [
				{
					"name": "projectId",
					"type": "uint256",
					"internalType": "uint256"
				},
				{
					"name": "salt",
					"type": "bytes32",
					"internalType": "bytes32"
				},
				{
					"name": "configurations",
					"type": "tuple[]",
					"internalType": "struct JBSuckerDeployerConfig[]",
					"components": [
						{
							"name": "deployer",
							"type": "address",
							"internalType": "contract IJBSuckerDeployer"
						},
						{
							"name": "mappings",
							"type": "tuple[]",
							"internalType": "struct JBTokenMapping[]",
							"components": [
								{
									"name": "localToken",
									"type": "address",
									"internalType": "address"
								},
								{
									"name": "minGas",
									"type": "uint32",
									"internalType": "uint32"
								},
								{
									"name": "remoteToken",
									"type": "address",
									"internalType": "address"
								},
								{
									"name": "minBridgeAmount",
									"type": "uint256",
									"internalType": "uint256"
								}
							]
						}
					]
				}
			],
			"outputs": [
				{
					"name": "suckers",
					"type": "address[]",
					"internalType": "address[]"
				}
			],
			"stateMutability": "nonpayable"
		},
		{
			"type": "function",
			"name": "getSuckerPairs",
			"inputs": [
				{
					"name": "projectId",
					"type": "uint256",
					"internalType": "uint256"
				}
			],
			"outputs": [
				{
					"name": "pairs",
					"type": "tuple[]",
					"internalType": "struct JBSuckersPair[]",
					"components": [
						{
							"name": "local",
							"type": "address",
							"internalType": "address"
						},
						{
							"name": "remote",
							"type": "address",
							"internalType": "address"
						},
						{
							"name": "remoteChainId",
							"type": "uint256",
							"internalType": "uint256"
						}
					]
				}
			],
			"stateMutability": "view"
		},
		{
			"type": "function",
			"name": "isSuckerOf",
			"inputs": [
				{
					"name": "projectId",
					"type": "uint256",
					"internalType": "uint256"
				},
				{
					"name": "addr",
					"type": "address",
					"internalType": "address"
				}
			],
			"outputs": [
				{
					"name": "",
					"type": "bool",
					"internalType": "bool"
				}
			],
			"stateMutability": "view"
		},
		{
			"type": "function",
			"name": "isTrustedForwarder",
			"inputs": [
				{
					"name": "forwarder",
					"type": "address",
					"internalType": "address"
				}
			],
			"outputs": [
				{
					"name": "",
					"type": "bool",
					"internalType": "bool"
				}
			],
			"stateMutability": "view"
		},
		{
			"type": "function",
			"name": "owner",
			"inputs": [],
			"outputs": [
				{
					"name": "",
					"type": "address",
					"internalType": "address"
				}
			],
			"stateMutability": "view"
		},
		{
			"type": "function",
			"name": "removeDeprecatedSucker",
			"inputs": [
				{
					"name": "projectId",
					"type": "uint256",
					"internalType": "uint256"
				},
				{
					"name": "sucker",
					"type": "address",
					"internalType": "address"
				}
			],
			"outputs": [],
			"stateMutability": "nonpayable"
		},
		{
			"type": "function",
			"name": "removeSuckerDeployer",
			"inputs": [
				{
					"name": "deployer",
					"type": "address",
					"internalType": "address"
				}
			],
			"outputs": [],
			"stateMutability": "nonpayable"
		},
		{
			"type": "function",
			"name": "renounceOwnership",
			"inputs": [],
			"outputs": [],
			"stateMutability": "nonpayable"
		},
		{
			"type": "function",
			"name": "suckerDeployerIsAllowed",
			"inputs": [
				{
					"name": "deployer",
					"type": "address",
					"internalType": "address"
				}
			],
			"outputs": [
				{
					"name": "",
					"type": "bool",
					"internalType": "bool"
				}
			],
			"stateMutability": "view"
		},
		{
			"type": "function",
			"name": "suckersOf",
			"inputs": [
				{
					"name": "projectId",
					"type": "uint256",
					"internalType": "uint256"
				}
			],
			"outputs": [
				{
					"name": "",
					"type": "address[]",
					"internalType": "address[]"
				}
			],
			"stateMutability": "view"
		},
		{
			"type": "function",
			"name": "transferOwnership",
			"inputs": [
				{
					"name": "newOwner",
					"type": "address",
					"internalType": "address"
				}
			],
			"outputs": [],
			"stateMutability": "nonpayable"
		},
		{
			"type": "function",
			"name": "trustedForwarder",
			"inputs": [],
			"outputs": [
				{
					"name": "",
					"type": "address",
					"internalType": "address"
				}
			],
			"stateMutability": "view"
		},
		{
			"type": "event",
			"name": "OwnershipTransferred",
			"inputs": [
				{
					"name": "previousOwner",
					"type": "address",
					"indexed": true,
					"internalType": "address"
				},
				{
					"name": "newOwner",
					"type": "address",
					"indexed": true,
					"internalType": "address"
				}
			],
			"anonymous": false
		},
		{
			"type": "event",
			"name": "SuckerDeployedFor",
			"inputs": [
				{
					"name": "projectId",
					"type": "uint256",
					"indexed": false,
					"internalType": "uint256"
				},
				{
					"name": "sucker",
					"type": "address",
					"indexed": false,
					"internalType": "address"
				},
				{
					"name": "configuration",
					"type": "tuple",
					"indexed": false,
					"internalType": "struct JBSuckerDeployerConfig",
					"components": [
						{
							"name": "deployer",
							"type": "address",
							"internalType": "contract IJBSuckerDeployer"
						},
						{
							"name": "mappings",
							"type": "tuple[]",
							"internalType": "struct JBTokenMapping[]",
							"components": [
								{
									"name": "localToken",
									"type": "address",
									"internalType": "address"
								},
								{
									"name": "minGas",
									"type": "uint32",
									"internalType": "uint32"
								},
								{
									"name": "remoteToken",
									"type": "address",
									"internalType": "address"
								},
								{
									"name": "minBridgeAmount",
									"type": "uint256",
									"internalType": "uint256"
								}
							]
						}
					]
				},
				{
					"name": "caller",
					"type": "address",
					"indexed": false,
					"internalType": "address"
				}
			],
			"anonymous": false
		},
		{
			"type": "event",
			"name": "SuckerDeployerAllowed",
			"inputs": [
				{
					"name": "deployer",
					"type": "address",
					"indexed": false,
					"internalType": "address"
				},
				{
					"name": "caller",
					"type": "address",
					"indexed": false,
					"internalType": "address"
				}
			],
			"anonymous": false
		},
		{
			"type": "event",
			"name": "SuckerDeployerRemoved",
			"inputs": [
				{
					"name": "deployer",
					"type": "address",
					"indexed": false,
					"internalType": "address"
				},
				{
					"name": "caller",
					"type": "address",
					"indexed": false,
					"internalType": "address"
				}
			],
			"anonymous": false
		},
		{
			"type": "event",
			"name": "SuckerDeprecated",
			"inputs": [
				{
					"name": "projectId",
					"type": "uint256",
					"indexed": false,
					"internalType": "uint256"
				},
				{
					"name": "sucker",
					"type": "address",
					"indexed": false,
					"internalType": "address"
				},
				{
					"name": "caller",
					"type": "address",
					"indexed": false,
					"internalType": "address"
				}
			],
			"anonymous": false
		},
		{
			"type": "error",
			"name": "JBPermissioned_Unauthorized",
			"inputs": [
				{
					"name": "account",
					"type": "address",
					"internalType": "address"
				},
				{
					"name": "sender",
					"type": "address",
					"internalType": "address"
				},
				{
					"name": "projectId",
					"type": "uint256",
					"internalType": "uint256"
				},
				{
					"name": "permissionId",
					"type": "uint256",
					"internalType": "uint256"
				}
			]
		},
		{
			"type": "error",
			"name": "JBSuckerRegistry_InvalidDeployer",
			"inputs": [
				{
					"name": "deployer",
					"type": "address",
					"internalType": "contract IJBSuckerDeployer"
				}
			]
		},
		{
			"type": "error",
			"name": "JBSuckerRegistry_RulesetDoesNotAllowAddingSucker",
			"inputs": [
				{
					"name": "projectId",
					"type": "uint256",
					"internalType": "uint256"
				}
			]
		},
		{
			"type": "error",
			"name": "JBSuckerRegistry_SuckerDoesNotBelongToProject",
			"inputs": [
				{
					"name": "projectId",
					"type": "uint256",
					"internalType": "uint256"
				},
				{
					"name": "sucker",
					"type": "address",
					"internalType": "address"
				}
			]
		},
		{
			"type": "error",
			"name": "JBSuckerRegistry_SuckerIsNotDeprecated",
			"inputs": [
				{
					"name": "sucker",
					"type": "address",
					"internalType": "address"
				},
				{
					"name": "suckerState",
					"type": "uint8",
					"internalType": "enum JBSuckerState"
				}
			]
		},
		{
			"type": "error",
			"name": "OwnableInvalidOwner",
			"inputs": [
				{
					"name": "owner",
					"type": "address",
					"internalType": "address"
				}
			]
		},
		{
			"type": "error",
			"name": "OwnableUnauthorizedAccount",
			"inputs": [
				{
					"name": "account",
					"type": "address",
					"internalType": "address"
				}
			]
		}
	],
	"solcInputHash": "a3dd08f3181929e59634f062e1db0527",
	"args": [
		"0x5ADb234602D074064C216C1fDB23c6c2031F0C75",
		"0x4886C30C81a17a3A1084fd1812008fA0f71a20B9",
		"0x0FF306a08cf4E16570ab7a6bD95Ba52d2fe64D45",
		"0xB2b5841DBeF766d4b521221732F9B618fCf34A87"
	],
	"bytecode": "0x6101006040523480156200001257600080fd5b5060405162001b0938038062001b09833981016040819052620000359162000171565b6001600160a01b038082166080528390839081166200006e57604051631e4fbdf760e01b81526000600482015260240160405180910390fd5b620000798162000108565b506001600160a01b0390811660a052841660c08190526040805163293c499960e01b8152905163293c4999916004808201926020929091908290030181865afa158015620000cb573d6000803e3d6000fd5b505050506040513d601f19601f82011682018060405250810190620000f19190620001d9565b6001600160a01b031660e052506200020092505050565b600080546001600160a01b038381166001600160a01b0319831681178455604051919092169283917f8be0079c531659141344cd1fd0a4f28419497f9722a3daafe3b4186f6b6457e09190a35050565b6001600160a01b03811681146200016e57600080fd5b50565b600080600080608085870312156200018857600080fd5b8451620001958162000158565b6020860151909450620001a88162000158565b6040860151909350620001bb8162000158565b6060860151909250620001ce8162000158565b939692955090935050565b600060208284031215620001ec57600080fd5b8151620001f98162000158565b9392505050565b60805160a05160c05160e0516118b3620002566000396000818161013a01526103e1015260006102680152600081816102f60152610d890152600081816101cf0152818161022c0152610f3a01526118b36000f3fe608060405234801561001057600080fd5b506004361061011b5760003560e01c80637da0a877116100b2578063a1031a4f11610081578063f2fde38b11610066578063f2fde38b146102de578063f434c914146102f1578063f73ac20f1461031857600080fd5b8063a1031a4f1461029b578063c70fb6f6146102be57600080fd5b80637da0a8771461022a57806383db9d011461025057806388bc2ef3146102635780638da5cb5b1461028a57600080fd5b80633d12cb87116100ee5780633d12cb87146101ac578063572b6c05146101bf578063669745a51461020f578063715018a61461022257600080fd5b8063153bb1bb14610120578063293c4999146101355780632f3f50e014610179578063314fcc3814610199575b600080fd5b61013361012e36600461121a565b61032b565b005b61015c7f000000000000000000000000000000000000000000000000000000000000000081565b6040516001600160a01b0390911681526020015b60405180910390f35b61018c61018736600461127c565b6103a3565b60405161017091906112cf565b6101336101a736600461131c565b610720565b61018c6101ba36600461134c565b6108bd565b6101ff6101cd36600461121a565b7f00000000000000000000000000000000000000000000000000000000000000006001600160a01b0390811691161490565b6040519015158152602001610170565b61013361021d366004611365565b6108dd565b61013361099c565b7f000000000000000000000000000000000000000000000000000000000000000061015c565b6101ff61025e36600461131c565b6109b0565b61015c7f000000000000000000000000000000000000000000000000000000000000000081565b6000546001600160a01b031661015c565b6101ff6102a936600461121a565b60016020526000908152604090205460ff1681565b6102d16102cc36600461134c565b6109e6565b60405161017091906113a7565b6101336102ec36600461121a565b610bcf565b61015c7f000000000000000000000000000000000000000000000000000000000000000081565b61013361032636600461121a565b610c26565b610333610c7e565b6001600160a01b0381166000908152600160205260409020805460ff191690557f1b9942be0c71843c19753c9070512cdce46255a7bf38934a6175b1a684950b948161037d610cf5565b604080516001600160a01b0393841681529290911660208301520160405180910390a150565b6040517f6352211e00000000000000000000000000000000000000000000000000000000815260048101859052606090610454906001600160a01b037f00000000000000000000000000000000000000000000000000000000000000001690636352211e90602401602060405180830381865afa158015610428573d6000803e3d6000fd5b505050506040513d601f19601f8201168201806040525081019061044c919061140c565b86601d610d04565b8167ffffffffffffffff81111561046d5761046d611429565b604051908082528060200260200182016040528015610496578160200160208202803683370190505b5090506104a1610cf5565b604080516001600160a01b039092166020830152810185905260600160405160208183030381529060405280519060200120935060005b828110156107175760008484838181106104f4576104f461143f565b90506020028101906105069190611455565b61050f9061152e565b80516001600160a01b031660009081526001602052604090205490915060ff166105785780516040517f2223f1010000000000000000000000000000000000000000000000000000000081526001600160a01b0390911660048201526024015b60405180910390fd5b80516040517f1213036600000000000000000000000000000000000000000000000000000000815260048101899052602481018890526000916001600160a01b0316906312130366906044016020604051808303816000875af11580156105e3573d6000803e3d6000fd5b505050506040513d601f19601f82011682018060405250810190610607919061140c565b90508084848151811061061c5761061c61143f565b6001600160a01b03909216602092830291909101820152600089815260029091526040902061064d90826001610e54565b5060208201516040517f2241dc520000000000000000000000000000000000000000000000000000000081526001600160a01b03831691632241dc529161069791906004016116c1565b600060405180830381600087803b1580156106b157600080fd5b505af11580156106c5573d6000803e3d6000fd5b505050507fc251bde8ae398be4a0f10fc061bb0cf6e5decd8860b54b7607d06bb6c142d0188882846106f5610cf5565b60405161070594939291906116d4565b60405180910390a150506001016104d8565b50949350505050565b6000828152600260205260408120819061073a9084610e72565b9150915081158061074c575060018114155b15610795576040517f4b2fac56000000000000000000000000000000000000000000000000000000008152600481018590526001600160a01b038416602482015260440161056f565b6000836001600160a01b031663c19d93fb6040518163ffffffff1660e01b8152600401602060405180830381865afa1580156107d5573d6000803e3d6000fd5b505050506040513d601f19601f820116820180604052508101906107f99190611727565b9050600381600381111561080f5761080f611748565b1461084a5783816040517f7312850c00000000000000000000000000000000000000000000000000000000815260040161056f92919061175e565b60008581526002602052604090206108629085610e99565b507fa0598050070757d3cfb55dc6d3bd9f6ac70f5c9e58e5aa29392a9b9c9cf28ef0858561088e610cf5565b604080519384526001600160a01b03928316602085015291169082015260600160405180910390a15050505050565b60008181526002602052604090206060906108d790610eb5565b92915050565b6108e5610c7e565b60005b818110156109975760008383838181106109045761090461143f565b9050602002016020810190610919919061121a565b6001600160a01b0381166000908152600160208190526040909120805460ff1916909117905590507f47459529aa21b5f8615a27cd523fad12250733748e422c3eada707a36d3c49bc8161096b610cf5565b604080516001600160a01b0393841681529290911660208301520160405180910390a1506001016108e8565b505050565b6109a4610c7e565b6109ae6000610ec2565b565b6000828152600260205260408120819081906109cc9085610e72565b915091508180156109dd5750600181145b95945050505050565b600081815260026020526040812060609190610a0190610eb5565b9050805167ffffffffffffffff811115610a1d57610a1d611429565b604051908082528060200260200182016040528015610a8657816020015b60408051606081018252600080825260208083018290529282015282527fffffffffffffffffffffffffffffffffffffffffffffffffffffffffffffffff909201910181610a3b5790505b50915060005b8151811015610bc8576000828281518110610aa957610aa961143f565b602002602001015190506040518060600160405280826001600160a01b03168152602001826001600160a01b03166311cda4156040518163ffffffff1660e01b8152600401602060405180830381865afa158015610b0b573d6000803e3d6000fd5b505050506040513d601f19601f82011682018060405250810190610b2f919061140c565b6001600160a01b03168152602001826001600160a01b031663cdfceeba6040518163ffffffff1660e01b8152600401602060405180830381865afa158015610b7b573d6000803e3d6000fd5b505050506040513d601f19601f82011682018060405250810190610b9f9190611799565b815250848381518110610bb457610bb461143f565b602090810291909101015250600101610a8c565b5050919050565b610bd7610c7e565b6001600160a01b038116610c1a576040517f1e4fbdf70000000000000000000000000000000000000000000000000000000081526000600482015260240161056f565b610c2381610ec2565b50565b610c2e610c7e565b6001600160a01b0381166000908152600160208190526040909120805460ff191690911790557f47459529aa21b5f8615a27cd523fad12250733748e422c3eada707a36d3c49bc8161037d610cf5565b610c86610cf5565b6001600160a01b0316610ca16000546001600160a01b031690565b6001600160a01b0316146109ae57610cb7610cf5565b6040517f118cdaa70000000000000000000000000000000000000000000000000000000081526001600160a01b03909116600482015260240161056f565b6000610cff610f2a565b905090565b6000610d0e610cf5565b9050836001600160a01b0316816001600160a01b031614158015610df657506040517f348b684e0000000000000000000000000000000000000000000000000000000081526001600160a01b0382811660048301528581166024830152604482018590526064820184905260016084830181905260a48301527f0000000000000000000000000000000000000000000000000000000000000000169063348b684e9060c401602060405180830381865afa158015610dd0573d6000803e3d6000fd5b505050506040513d601f19601f82011682018060405250810190610df491906117b2565b155b15610e4e576040517f264deeaa0000000000000000000000000000000000000000000000000000000081526001600160a01b03808616600483015282166024820152604481018490526064810183905260840161056f565b50505050565b6000610e6a846001600160a01b03851684610f9f565b949350505050565b6000808080610e8a866001600160a01b038716610fbc565b909450925050505b9250929050565b6000610eae836001600160a01b038416610ff6565b9392505050565b60606000610eae83611013565b600080546001600160a01b038381167fffffffffffffffffffffffff0000000000000000000000000000000000000000831681178455604051919092169283917f8be0079c531659141344cd1fd0a4f28419497f9722a3daafe3b4186f6b6457e09190a35050565b6000366014336001600160a01b037f000000000000000000000000000000000000000000000000000000000000000016148015610f675750808210155b15610f9757600036610f7983856117d4565b610f849282906117f5565b610f8d9161181f565b60601c9250505090565b339250505090565b60008281526002840160205260408120829055610e6a848461101e565b6000818152600283016020526040812054819080610feb57610fde858561102a565b925060009150610e929050565b600192509050610e92565b60008181526002830160205260408120819055610eae8383611036565b60606108d782611042565b6000610eae838361104f565b6000610eae838361109e565b6000610eae83836110b6565b60606000610eae836111a9565b6000818152600183016020526040812054611096575081546001818101845560008481526020808220909301849055845484825282860190935260409020919091556108d7565b5060006108d7565b60008181526001830160205260408120541515610eae565b6000818152600183016020526040812054801561119f5760006110da6001836117d4565b85549091506000906110ee906001906117d4565b905080821461115357600086600001828154811061110e5761110e61143f565b90600052602060002001549050808760000184815481106111315761113161143f565b6000918252602080832090910192909255918252600188019052604090208390555b855486908061116457611164611867565b6001900381819060005260206000200160009055905585600101600086815260200190815260200160002060009055600193505050506108d7565b60009150506108d7565b6060816000018054806020026020016040519081016040528092919081815260200182805480156111f957602002820191906000526020600020905b8154815260200190600101908083116111e5575b50505050509050919050565b6001600160a01b0381168114610c2357600080fd5b60006020828403121561122c57600080fd5b8135610eae81611205565b60008083601f84011261124957600080fd5b50813567ffffffffffffffff81111561126157600080fd5b6020830191508360208260051b8501011115610e9257600080fd5b6000806000806060858703121561129257600080fd5b8435935060208501359250604085013567ffffffffffffffff8111156112b757600080fd5b6112c387828801611237565b95989497509550505050565b6020808252825182820181905260009190848201906040850190845b818110156113105783516001600160a01b0316835292840192918401916001016112eb565b50909695505050505050565b6000806040838503121561132f57600080fd5b82359150602083013561134181611205565b809150509250929050565b60006020828403121561135e57600080fd5b5035919050565b6000806020838503121561137857600080fd5b823567ffffffffffffffff81111561138f57600080fd5b61139b85828601611237565b90969095509350505050565b602080825282518282018190526000919060409081850190868401855b828110156113ff57815180516001600160a01b03908116865287820151168786015285015185850152606090930192908501906001016113c4565b5091979650505050505050565b60006020828403121561141e57600080fd5b8151610eae81611205565b634e487b7160e01b600052604160045260246000fd5b634e487b7160e01b600052603260045260246000fd5b600082357fffffffffffffffffffffffffffffffffffffffffffffffffffffffffffffffc183360301811261148957600080fd5b9190910192915050565b6040805190810167ffffffffffffffff811182821017156114b6576114b6611429565b60405290565b6040516080810167ffffffffffffffff811182821017156114b6576114b6611429565b604051601f82017fffffffffffffffffffffffffffffffffffffffffffffffffffffffffffffffe016810167ffffffffffffffff8111828210171561152657611526611429565b604052919050565b6000604080833603121561154157600080fd5b611549611493565b833561155481611205565b815260208481013567ffffffffffffffff8082111561157257600080fd5b9086019036601f83011261158557600080fd5b81358181111561159757611597611429565b6115a5848260051b016114df565b818152848101925060079190911b8301840190368211156115c557600080fd5b928401925b8184101561163f57608084360312156115e35760008081fd5b6115eb6114bc565b84356115f681611205565b81528486013563ffffffff8116811461160f5760008081fd5b818701528488013561162081611205565b81890152606085810135908201528352608090930192918401916115ca565b93850193909352509195945050505050565b60008151808452602080850194506020840160005b838110156116b657815180516001600160a01b0390811689528482015163ffffffff16858a0152604080830151909116908901526060908101519088015260809096019590820190600101611666565b509495945050505050565b602081526000610eae6020830184611651565b84815260006001600160a01b038086166020840152608060408401528085511660808401526020850151604060a085015261171260c0850182611651565b92505080841660608401525095945050505050565b60006020828403121561173957600080fd5b815160048110610eae57600080fd5b634e487b7160e01b600052602160045260246000fd5b6001600160a01b0383168152604081016004831061178c57634e487b7160e01b600052602160045260246000fd5b8260208301529392505050565b6000602082840312156117ab57600080fd5b5051919050565b6000602082840312156117c457600080fd5b81518015158114610eae57600080fd5b818103818111156108d757634e487b7160e01b600052601160045260246000fd5b6000808585111561180557600080fd5b8386111561181257600080fd5b5050820193919092039150565b7fffffffffffffffffffffffffffffffffffffffff000000000000000000000000813581811691601485101561185f5780818660140360031b1b83161692505b505092915050565b634e487b7160e01b600052603160045260246000fdfea2646970667358221220cd7b93d2828144b4ed3d505175c3e6e7f0cd64ce65fd6e270b500f523a8641d964736f6c63430008170033",
	"deployedBytecode": "0x608060405234801561001057600080fd5b506004361061011b5760003560e01c80637da0a877116100b2578063a1031a4f11610081578063f2fde38b11610066578063f2fde38b146102de578063f434c914146102f1578063f73ac20f1461031857600080fd5b8063a1031a4f1461029b578063c70fb6f6146102be57600080fd5b80637da0a8771461022a57806383db9d011461025057806388bc2ef3146102635780638da5cb5b1461028a57600080fd5b80633d12cb87116100ee5780633d12cb87146101ac578063572b6c05146101bf578063669745a51461020f578063715018a61461022257600080fd5b8063153bb1bb14610120578063293c4999146101355780632f3f50e014610179578063314fcc3814610199575b600080fd5b61013361012e36600461121a565b61032b565b005b61015c7f0000000000000000000000009b52a59f108e36ce0a8eba595eca22dbadbe655f81565b6040516001600160a01b0390911681526020015b60405180910390f35b61018c61018736600461127c565b6103a3565b60405161017091906112cf565b6101336101a736600461131c565b610720565b61018c6101ba36600461134c565b6108bd565b6101ff6101cd36600461121a565b7f000000000000000000000000b2b5841dbef766d4b521221732f9b618fcf34a876001600160a01b0390811691161490565b6040519015158152602001610170565b61013361021d366004611365565b6108dd565b61013361099c565b7f000000000000000000000000b2b5841dbef766d4b521221732f9b618fcf34a8761015c565b6101ff61025e36600461131c565b6109b0565b61015c7f0000000000000000000000005adb234602d074064c216c1fdb23c6c2031f0c7581565b6000546001600160a01b031661015c565b6101ff6102a936600461121a565b60016020526000908152604090205460ff1681565b6102d16102cc36600461134c565b6109e6565b60405161017091906113a7565b6101336102ec36600461121a565b610bcf565b61015c7f0000000000000000000000004886c30c81a17a3a1084fd1812008fa0f71a20b981565b61013361032636600461121a565b610c26565b610333610c7e565b6001600160a01b0381166000908152600160205260409020805460ff191690557f1b9942be0c71843c19753c9070512cdce46255a7bf38934a6175b1a684950b948161037d610cf5565b604080516001600160a01b0393841681529290911660208301520160405180910390a150565b6040517f6352211e00000000000000000000000000000000000000000000000000000000815260048101859052606090610454906001600160a01b037f0000000000000000000000009b52a59f108e36ce0a8eba595eca22dbadbe655f1690636352211e90602401602060405180830381865afa158015610428573d6000803e3d6000fd5b505050506040513d601f19601f8201168201806040525081019061044c919061140c565b86601d610d04565b8167ffffffffffffffff81111561046d5761046d611429565b604051908082528060200260200182016040528015610496578160200160208202803683370190505b5090506104a1610cf5565b604080516001600160a01b039092166020830152810185905260600160405160208183030381529060405280519060200120935060005b828110156107175760008484838181106104f4576104f461143f565b90506020028101906105069190611455565b61050f9061152e565b80516001600160a01b031660009081526001602052604090205490915060ff166105785780516040517f2223f1010000000000000000000000000000000000000000000000000000000081526001600160a01b0390911660048201526024015b60405180910390fd5b80516040517f1213036600000000000000000000000000000000000000000000000000000000815260048101899052602481018890526000916001600160a01b0316906312130366906044016020604051808303816000875af11580156105e3573d6000803e3d6000fd5b505050506040513d601f19601f82011682018060405250810190610607919061140c565b90508084848151811061061c5761061c61143f565b6001600160a01b03909216602092830291909101820152600089815260029091526040902061064d90826001610e54565b5060208201516040517f2241dc520000000000000000000000000000000000000000000000000000000081526001600160a01b03831691632241dc529161069791906004016116c1565b600060405180830381600087803b1580156106b157600080fd5b505af11580156106c5573d6000803e3d6000fd5b505050507fc251bde8ae398be4a0f10fc061bb0cf6e5decd8860b54b7607d06bb6c142d0188882846106f5610cf5565b60405161070594939291906116d4565b60405180910390a150506001016104d8565b50949350505050565b6000828152600260205260408120819061073a9084610e72565b9150915081158061074c575060018114155b15610795576040517f4b2fac56000000000000000000000000000000000000000000000000000000008152600481018590526001600160a01b038416602482015260440161056f565b6000836001600160a01b031663c19d93fb6040518163ffffffff1660e01b8152600401602060405180830381865afa1580156107d5573d6000803e3d6000fd5b505050506040513d601f19601f820116820180604052508101906107f99190611727565b9050600381600381111561080f5761080f611748565b1461084a5783816040517f7312850c00000000000000000000000000000000000000000000000000000000815260040161056f92919061175e565b60008581526002602052604090206108629085610e99565b507fa0598050070757d3cfb55dc6d3bd9f6ac70f5c9e58e5aa29392a9b9c9cf28ef0858561088e610cf5565b604080519384526001600160a01b03928316602085015291169082015260600160405180910390a15050505050565b60008181526002602052604090206060906108d790610eb5565b92915050565b6108e5610c7e565b60005b818110156109975760008383838181106109045761090461143f565b9050602002016020810190610919919061121a565b6001600160a01b0381166000908152600160208190526040909120805460ff1916909117905590507f47459529aa21b5f8615a27cd523fad12250733748e422c3eada707a36d3c49bc8161096b610cf5565b604080516001600160a01b0393841681529290911660208301520160405180910390a1506001016108e8565b505050565b6109a4610c7e565b6109ae6000610ec2565b565b6000828152600260205260408120819081906109cc9085610e72565b915091508180156109dd5750600181145b95945050505050565b600081815260026020526040812060609190610a0190610eb5565b9050805167ffffffffffffffff811115610a1d57610a1d611429565b604051908082528060200260200182016040528015610a8657816020015b60408051606081018252600080825260208083018290529282015282527fffffffffffffffffffffffffffffffffffffffffffffffffffffffffffffffff909201910181610a3b5790505b50915060005b8151811015610bc8576000828281518110610aa957610aa961143f565b602002602001015190506040518060600160405280826001600160a01b03168152602001826001600160a01b03166311cda4156040518163ffffffff1660e01b8152600401602060405180830381865afa158015610b0b573d6000803e3d6000fd5b505050506040513d601f19601f82011682018060405250810190610b2f919061140c565b6001600160a01b03168152602001826001600160a01b031663cdfceeba6040518163ffffffff1660e01b8152600401602060405180830381865afa158015610b7b573d6000803e3d6000fd5b505050506040513d601f19601f82011682018060405250810190610b9f9190611799565b815250848381518110610bb457610bb461143f565b602090810291909101015250600101610a8c565b5050919050565b610bd7610c7e565b6001600160a01b038116610c1a576040517f1e4fbdf70000000000000000000000000000000000000000000000000000000081526000600482015260240161056f565b610c2381610ec2565b50565b610c2e610c7e565b6001600160a01b0381166000908152600160208190526040909120805460ff191690911790557f47459529aa21b5f8615a27cd523fad12250733748e422c3eada707a36d3c49bc8161037d610cf5565b610c86610cf5565b6001600160a01b0316610ca16000546001600160a01b031690565b6001600160a01b0316146109ae57610cb7610cf5565b6040517f118cdaa70000000000000000000000000000000000000000000000000000000081526001600160a01b03909116600482015260240161056f565b6000610cff610f2a565b905090565b6000610d0e610cf5565b9050836001600160a01b0316816001600160a01b031614158015610df657506040517f348b684e0000000000000000000000000000000000000000000000000000000081526001600160a01b0382811660048301528581166024830152604482018590526064820184905260016084830181905260a48301527f0000000000000000000000004886c30c81a17a3a1084fd1812008fa0f71a20b9169063348b684e9060c401602060405180830381865afa158015610dd0573d6000803e3d6000fd5b505050506040513d601f19601f82011682018060405250810190610df491906117b2565b155b15610e4e576040517f264deeaa0000000000000000000000000000000000000000000000000000000081526001600160a01b03808616600483015282166024820152604481018490526064810183905260840161056f565b50505050565b6000610e6a846001600160a01b03851684610f9f565b949350505050565b6000808080610e8a866001600160a01b038716610fbc565b909450925050505b9250929050565b6000610eae836001600160a01b038416610ff6565b9392505050565b60606000610eae83611013565b600080546001600160a01b038381167fffffffffffffffffffffffff0000000000000000000000000000000000000000831681178455604051919092169283917f8be0079c531659141344cd1fd0a4f28419497f9722a3daafe3b4186f6b6457e09190a35050565b6000366014336001600160a01b037f000000000000000000000000b2b5841dbef766d4b521221732f9b618fcf34a8716148015610f675750808210155b15610f9757600036610f7983856117d4565b610f849282906117f5565b610f8d9161181f565b60601c9250505090565b339250505090565b60008281526002840160205260408120829055610e6a848461101e565b6000818152600283016020526040812054819080610feb57610fde858561102a565b925060009150610e929050565b600192509050610e92565b60008181526002830160205260408120819055610eae8383611036565b60606108d782611042565b6000610eae838361104f565b6000610eae838361109e565b6000610eae83836110b6565b60606000610eae836111a9565b6000818152600183016020526040812054611096575081546001818101845560008481526020808220909301849055845484825282860190935260409020919091556108d7565b5060006108d7565b60008181526001830160205260408120541515610eae565b6000818152600183016020526040812054801561119f5760006110da6001836117d4565b85549091506000906110ee906001906117d4565b905080821461115357600086600001828154811061110e5761110e61143f565b90600052602060002001549050808760000184815481106111315761113161143f565b6000918252602080832090910192909255918252600188019052604090208390555b855486908061116457611164611867565b6001900381819060005260206000200160009055905585600101600086815260200190815260200160002060009055600193505050506108d7565b60009150506108d7565b6060816000018054806020026020016040519081016040528092919081815260200182805480156111f957602002820191906000526020600020905b8154815260200190600101908083116111e5575b50505050509050919050565b6001600160a01b0381168114610c2357600080fd5b60006020828403121561122c57600080fd5b8135610eae81611205565b60008083601f84011261124957600080fd5b50813567ffffffffffffffff81111561126157600080fd5b6020830191508360208260051b8501011115610e9257600080fd5b6000806000806060858703121561129257600080fd5b8435935060208501359250604085013567ffffffffffffffff8111156112b757600080fd5b6112c387828801611237565b95989497509550505050565b6020808252825182820181905260009190848201906040850190845b818110156113105783516001600160a01b0316835292840192918401916001016112eb565b50909695505050505050565b6000806040838503121561132f57600080fd5b82359150602083013561134181611205565b809150509250929050565b60006020828403121561135e57600080fd5b5035919050565b6000806020838503121561137857600080fd5b823567ffffffffffffffff81111561138f57600080fd5b61139b85828601611237565b90969095509350505050565b602080825282518282018190526000919060409081850190868401855b828110156113ff57815180516001600160a01b03908116865287820151168786015285015185850152606090930192908501906001016113c4565b5091979650505050505050565b60006020828403121561141e57600080fd5b8151610eae81611205565b634e487b7160e01b600052604160045260246000fd5b634e487b7160e01b600052603260045260246000fd5b600082357fffffffffffffffffffffffffffffffffffffffffffffffffffffffffffffffc183360301811261148957600080fd5b9190910192915050565b6040805190810167ffffffffffffffff811182821017156114b6576114b6611429565b60405290565b6040516080810167ffffffffffffffff811182821017156114b6576114b6611429565b604051601f82017fffffffffffffffffffffffffffffffffffffffffffffffffffffffffffffffe016810167ffffffffffffffff8111828210171561152657611526611429565b604052919050565b6000604080833603121561154157600080fd5b611549611493565b833561155481611205565b815260208481013567ffffffffffffffff8082111561157257600080fd5b9086019036601f83011261158557600080fd5b81358181111561159757611597611429565b6115a5848260051b016114df565b818152848101925060079190911b8301840190368211156115c557600080fd5b928401925b8184101561163f57608084360312156115e35760008081fd5b6115eb6114bc565b84356115f681611205565b81528486013563ffffffff8116811461160f5760008081fd5b818701528488013561162081611205565b81890152606085810135908201528352608090930192918401916115ca565b93850193909352509195945050505050565b60008151808452602080850194506020840160005b838110156116b657815180516001600160a01b0390811689528482015163ffffffff16858a0152604080830151909116908901526060908101519088015260809096019590820190600101611666565b509495945050505050565b602081526000610eae6020830184611651565b84815260006001600160a01b038086166020840152608060408401528085511660808401526020850151604060a085015261171260c0850182611651565b92505080841660608401525095945050505050565b60006020828403121561173957600080fd5b815160048110610eae57600080fd5b634e487b7160e01b600052602160045260246000fd5b6001600160a01b0383168152604081016004831061178c57634e487b7160e01b600052602160045260246000fd5b8260208301529392505050565b6000602082840312156117ab57600080fd5b5051919050565b6000602082840312156117c457600080fd5b81518015158114610eae57600080fd5b818103818111156108d757634e487b7160e01b600052601160045260246000fd5b6000808585111561180557600080fd5b8386111561181257600080fd5b5050820193919092039150565b7fffffffffffffffffffffffffffffffffffffffff000000000000000000000000813581811691601485101561185f5780818660140360031b1b83161692505b505092915050565b634e487b7160e01b600052603160045260246000fdfea2646970667358221220cd7b93d2828144b4ed3d505175c3e6e7f0cd64ce65fd6e270b500f523a8641d964736f6c63430008170033",
	"devdoc": {
		"kind": "dev",
		"methods": {
			"allowSuckerDeployer(address)": {
				"details": "Can only be called by this contract's owner (initially project ID 1, or JuiceboxDAO).",
				"params": {
					"deployer": "The address of the deployer to add."
				}
			},
			"allowSuckerDeployers(address[])": {
				"details": "Can only be called by this contract's owner (initially project ID 1, or JuiceboxDAO).",
				"params": {
					"deployers": "The address of the deployer to add."
				}
			},
			"constructor": {
				"params": {
					"directory": "The juicebox directory.",
					"initialOwner": "The initial owner of this contract.",
					"permissions": "A contract storing permissions."
				}
			},
			"deploySuckersFor(uint256,bytes32,(address,(address,uint32,address,uint256)[])[])": {
				"details": "The caller must be the project's owner or have `JBPermissionIds.DEPLOY_SUCKERS` from the project's owner.",
				"params": {
					"configurations": "The sucker deployer configs to use to deploy the suckers.",
					"projectId": "The ID of the project to deploy suckers for.",
					"salt": "The salt used to deploy the contract. For the suckers to be peers, this must be the same value on each chain where suckers are deployed."
				},
				"returns": {
					"suckers": "The addresses of the deployed suckers."
				}
			},
			"getSuckerPairs(uint256)": {
				"params": {
					"projectId": "The ID of the project to get the suckers of."
				},
				"returns": {
					"pairs": "The pairs of suckers and their metadata."
				}
			},
			"isSuckerOf(uint256,address)": {
				"params": {
					"addr": "The address of the sucker to check.",
					"projectId": "The ID of the project to check for."
				},
				"returns": {
					"_0": "flag A flag indicating if the sucker belongs to the project, and was deployed through this registry."
				}
			},
			"isTrustedForwarder(address)": {
				"details": "Indicates whether any particular address is the trusted forwarder."
			},
			"owner()": {
				"details": "Returns the address of the current owner."
			},
			"removeDeprecatedSucker(uint256,address)": {
				"params": {
					"projectId": "The ID of the project to remove the sucker from.",
					"sucker": "The address of the deprecated sucker to remove."
				}
			},
			"removeSuckerDeployer(address)": {
				"details": "Can only be called by this contract's owner (initially project ID 1, or JuiceboxDAO).",
				"params": {
					"deployer": "The address of the deployer to remove."
				}
			},
			"renounceOwnership()": {
				"details": "Leaves the contract without owner. It will not be possible to call `onlyOwner` functions. Can only be called by the current owner. NOTE: Renouncing ownership will leave the contract without an owner, thereby disabling any functionality that is only available to the owner."
			},
			"suckersOf(uint256)": {
				"params": {
					"projectId": "The ID of the project to get the suckers of."
				},
				"returns": {
					"_0": "suckers The addresses of the suckers."
				}
			},
			"transferOwnership(address)": {
				"details": "Transfers ownership of the contract to a new account (`newOwner`). Can only be called by the current owner."
			},
			"trustedForwarder()": {
				"details": "Returns the address of the trusted forwarder."
			}
		},
		"version": 1
	},
	"userdoc": {
		"kind": "user",
		"methods": {
			"DIRECTORY()": {
				"notice": "The juicebox directory."
			},
			"PERMISSIONS()": {
				"notice": "A contract storing permissions."
			},
			"PROJECTS()": {
				"notice": "A contract which mints ERC-721s that represent project ownership and transfers."
			},
			"allowSuckerDeployer(address)": {
				"notice": "Adds a suckers deployer to the allowlist."
			},
			"allowSuckerDeployers(address[])": {
				"notice": "Adds multiple suckers deployer to the allowlist."
			},
			"deploySuckersFor(uint256,bytes32,(address,(address,uint32,address,uint256)[])[])": {
				"notice": "Deploy one or more suckers for the specified project."
			},
			"getSuckerPairs(uint256)": {
				"notice": "Helper function for retrieving the projects suckers and their metadata."
			},
			"isSuckerOf(uint256,address)": {
				"notice": "Returns true if the specified sucker belongs to the specified project, and was deployed through this registry."
			},
			"removeDeprecatedSucker(uint256,address)": {
				"notice": "Lets anyone remove a deprecated sucker from a project."
			},
			"removeSuckerDeployer(address)": {
				"notice": "Removes a sucker deployer from the allowlist."
			},
			"suckerDeployerIsAllowed(address)": {
				"notice": "Tracks whether the specified sucker deployer is approved by this registry."
			},
			"suckersOf(uint256)": {
				"notice": "Gets all of the specified project's suckers which were deployed through this registry."
			}
		},
		"version": 1
	},
	"gitCommit": "8b90383d486eaa66d681420f15f6aae176c34185",
	"sourceName": "src/JBSuckerRegistry.sol",
	"chainId": "421614",
	"linkReferences": {},
	"deployedLinkReferences": {},
	"history": []
}