{
	"_format": "sphinx-sol-ct-artifact-1",
	"merkleRoot": "0x8b301a65089f933bbe7065207de564f31cf7fa4026a0dad20293e6755f8e2beb",
	"contractName": "JB721TiersHookProjectDeployer",
	"address": "0x5b0ddB75f982D4B32ccde98476CF3f8FFf755E71",
	"abi": [
		{
			"type": "constructor",
			"inputs": [
				{
					"name": "directory",
					"type": "address",
					"internalType": "contract IJBDirectory"
				},
				{
					"name": "permissions",
					"type": "address",
					"internalType": "contract IJBPermissions"
				},
				{
					"name": "hookDeployer",
					"type": "address",
					"internalType": "contract IJB721TiersHookDeployer"
				}
			],
			"stateMutability": "nonpayable"
		},
		{
			"type": "function",
			"name": "DIRECTORY",
			"inputs": [],
			"outputs": [
				{
					"name": "",
					"type": "address",
					"internalType": "contract IJBDirectory"
				}
			],
			"stateMutability": "view"
		},
		{
			"type": "function",
			"name": "HOOK_DEPLOYER",
			"inputs": [],
			"outputs": [
				{
					"name": "",
					"type": "address",
					"internalType": "contract IJB721TiersHookDeployer"
				}
			],
			"stateMutability": "view"
		},
		{
			"type": "function",
			"name": "PERMISSIONS",
			"inputs": [],
			"outputs": [
				{
					"name": "",
					"type": "address",
					"internalType": "contract IJBPermissions"
				}
			],
			"stateMutability": "view"
		},
		{
			"type": "function",
			"name": "launchProjectFor",
			"inputs": [
				{
					"name": "owner",
					"type": "address",
					"internalType": "address"
				},
				{
					"name": "deployTiersHookConfig",
					"type": "tuple",
					"internalType": "struct JBDeploy721TiersHookConfig",
					"components": [
						{
							"name": "name",
							"type": "string",
							"internalType": "string"
						},
						{
							"name": "symbol",
							"type": "string",
							"internalType": "string"
						},
						{
							"name": "rulesets",
							"type": "address",
							"internalType": "contract IJBRulesets"
						},
						{
							"name": "baseUri",
							"type": "string",
							"internalType": "string"
						},
						{
							"name": "tokenUriResolver",
							"type": "address",
							"internalType": "contract IJB721TokenUriResolver"
						},
						{
							"name": "contractUri",
							"type": "string",
							"internalType": "string"
						},
						{
							"name": "tiersConfig",
							"type": "tuple",
							"internalType": "struct JB721InitTiersConfig",
							"components": [
								{
									"name": "tiers",
									"type": "tuple[]",
									"internalType": "struct JB721TierConfig[]",
									"components": [
										{
											"name": "price",
											"type": "uint104",
											"internalType": "uint104"
										},
										{
											"name": "initialSupply",
											"type": "uint32",
											"internalType": "uint32"
										},
										{
											"name": "votingUnits",
											"type": "uint32",
											"internalType": "uint32"
										},
										{
											"name": "reserveFrequency",
											"type": "uint16",
											"internalType": "uint16"
										},
										{
											"name": "reserveBeneficiary",
											"type": "address",
											"internalType": "address"
										},
										{
											"name": "encodedIPFSUri",
											"type": "bytes32",
											"internalType": "bytes32"
										},
										{
											"name": "category",
											"type": "uint24",
											"internalType": "uint24"
										},
										{
											"name": "allowOwnerMint",
											"type": "bool",
											"internalType": "bool"
										},
										{
											"name": "useReserveBeneficiaryAsDefault",
											"type": "bool",
											"internalType": "bool"
										},
										{
											"name": "transfersPausable",
											"type": "bool",
											"internalType": "bool"
										},
										{
											"name": "useVotingUnits",
											"type": "bool",
											"internalType": "bool"
										},
										{
											"name": "cannotBeRemoved",
											"type": "bool",
											"internalType": "bool"
										}
									]
								},
								{
									"name": "currency",
									"type": "uint32",
									"internalType": "uint32"
								},
								{
									"name": "decimals",
									"type": "uint8",
									"internalType": "uint8"
								},
								{
									"name": "prices",
									"type": "address",
									"internalType": "contract IJBPrices"
								}
							]
						},
						{
							"name": "reserveBeneficiary",
							"type": "address",
							"internalType": "address"
						},
						{
							"name": "flags",
							"type": "tuple",
							"internalType": "struct JB721TiersHookFlags",
							"components": [
								{
									"name": "noNewTiersWithReserves",
									"type": "bool",
									"internalType": "bool"
								},
								{
									"name": "noNewTiersWithVotes",
									"type": "bool",
									"internalType": "bool"
								},
								{
									"name": "noNewTiersWithOwnerMinting",
									"type": "bool",
									"internalType": "bool"
								},
								{
									"name": "preventOverspending",
									"type": "bool",
									"internalType": "bool"
								}
							]
						}
					]
				},
				{
					"name": "launchProjectConfig",
					"type": "tuple",
					"internalType": "struct JBLaunchProjectConfig",
					"components": [
						{
							"name": "projectUri",
							"type": "string",
							"internalType": "string"
						},
						{
							"name": "rulesetConfigurations",
							"type": "tuple[]",
							"internalType": "struct JBPayDataHookRulesetConfig[]",
							"components": [
								{
									"name": "mustStartAtOrAfter",
									"type": "uint256",
									"internalType": "uint256"
								},
								{
									"name": "duration",
									"type": "uint256",
									"internalType": "uint256"
								},
								{
									"name": "weight",
									"type": "uint256",
									"internalType": "uint256"
								},
								{
									"name": "decayRate",
									"type": "uint256",
									"internalType": "uint256"
								},
								{
									"name": "approvalHook",
									"type": "address",
									"internalType": "contract IJBRulesetApprovalHook"
								},
								{
									"name": "metadata",
									"type": "tuple",
									"internalType": "struct JBPayDataHookRulesetMetadata",
									"components": [
										{
											"name": "reservedRate",
											"type": "uint256",
											"internalType": "uint256"
										},
										{
											"name": "redemptionRate",
											"type": "uint256",
											"internalType": "uint256"
										},
										{
											"name": "baseCurrency",
											"type": "uint256",
											"internalType": "uint256"
										},
										{
											"name": "pausePay",
											"type": "bool",
											"internalType": "bool"
										},
										{
											"name": "pauseCreditTransfers",
											"type": "bool",
											"internalType": "bool"
										},
										{
											"name": "allowOwnerMinting",
											"type": "bool",
											"internalType": "bool"
										},
										{
											"name": "allowTerminalMigration",
											"type": "bool",
											"internalType": "bool"
										},
										{
											"name": "allowSetTerminals",
											"type": "bool",
											"internalType": "bool"
										},
										{
											"name": "allowControllerMigration",
											"type": "bool",
											"internalType": "bool"
										},
										{
											"name": "allowSetController",
											"type": "bool",
											"internalType": "bool"
										},
										{
											"name": "holdFees",
											"type": "bool",
											"internalType": "bool"
										},
										{
											"name": "useTotalSurplusForRedemptions",
											"type": "bool",
											"internalType": "bool"
										},
										{
											"name": "useDataHookForRedeem",
											"type": "bool",
											"internalType": "bool"
										},
										{
											"name": "metadata",
											"type": "uint256",
											"internalType": "uint256"
										}
									]
								},
								{
									"name": "splitGroups",
									"type": "tuple[]",
									"internalType": "struct JBSplitGroup[]",
									"components": [
										{
											"name": "groupId",
											"type": "uint256",
											"internalType": "uint256"
										},
										{
											"name": "splits",
											"type": "tuple[]",
											"internalType": "struct JBSplit[]",
											"components": [
												{
													"name": "preferAddToBalance",
													"type": "bool",
													"internalType": "bool"
												},
												{
													"name": "percent",
													"type": "uint256",
													"internalType": "uint256"
												},
												{
													"name": "projectId",
													"type": "uint256",
													"internalType": "uint256"
												},
												{
													"name": "beneficiary",
													"type": "address",
													"internalType": "address payable"
												},
												{
													"name": "lockedUntil",
													"type": "uint256",
													"internalType": "uint256"
												},
												{
													"name": "hook",
													"type": "address",
													"internalType": "contract IJBSplitHook"
												}
											]
										}
									]
								},
								{
									"name": "fundAccessLimitGroups",
									"type": "tuple[]",
									"internalType": "struct JBFundAccessLimitGroup[]",
									"components": [
										{
											"name": "terminal",
											"type": "address",
											"internalType": "address"
										},
										{
											"name": "token",
											"type": "address",
											"internalType": "address"
										},
										{
											"name": "payoutLimits",
											"type": "tuple[]",
											"internalType": "struct JBCurrencyAmount[]",
											"components": [
												{
													"name": "amount",
													"type": "uint256",
													"internalType": "uint256"
												},
												{
													"name": "currency",
													"type": "uint256",
													"internalType": "uint256"
												}
											]
										},
										{
											"name": "surplusAllowances",
											"type": "tuple[]",
											"internalType": "struct JBCurrencyAmount[]",
											"components": [
												{
													"name": "amount",
													"type": "uint256",
													"internalType": "uint256"
												},
												{
													"name": "currency",
													"type": "uint256",
													"internalType": "uint256"
												}
											]
										}
									]
								}
							]
						},
						{
							"name": "terminalConfigurations",
							"type": "tuple[]",
							"internalType": "struct JBTerminalConfig[]",
							"components": [
								{
									"name": "terminal",
									"type": "address",
									"internalType": "contract IJBTerminal"
								},
								{
									"name": "tokensToAccept",
									"type": "address[]",
									"internalType": "address[]"
								}
							]
						},
						{
							"name": "memo",
							"type": "string",
							"internalType": "string"
						}
					]
				},
				{
					"name": "controller",
					"type": "address",
					"internalType": "contract IJBController"
				}
			],
			"outputs": [
				{
					"name": "projectId",
					"type": "uint256",
					"internalType": "uint256"
				}
			],
			"stateMutability": "nonpayable"
		},
		{
			"type": "function",
			"name": "launchRulesetsFor",
			"inputs": [
				{
					"name": "projectId",
					"type": "uint256",
					"internalType": "uint256"
				},
				{
					"name": "deployTiersHookConfig",
					"type": "tuple",
					"internalType": "struct JBDeploy721TiersHookConfig",
					"components": [
						{
							"name": "name",
							"type": "string",
							"internalType": "string"
						},
						{
							"name": "symbol",
							"type": "string",
							"internalType": "string"
						},
						{
							"name": "rulesets",
							"type": "address",
							"internalType": "contract IJBRulesets"
						},
						{
							"name": "baseUri",
							"type": "string",
							"internalType": "string"
						},
						{
							"name": "tokenUriResolver",
							"type": "address",
							"internalType": "contract IJB721TokenUriResolver"
						},
						{
							"name": "contractUri",
							"type": "string",
							"internalType": "string"
						},
						{
							"name": "tiersConfig",
							"type": "tuple",
							"internalType": "struct JB721InitTiersConfig",
							"components": [
								{
									"name": "tiers",
									"type": "tuple[]",
									"internalType": "struct JB721TierConfig[]",
									"components": [
										{
											"name": "price",
											"type": "uint104",
											"internalType": "uint104"
										},
										{
											"name": "initialSupply",
											"type": "uint32",
											"internalType": "uint32"
										},
										{
											"name": "votingUnits",
											"type": "uint32",
											"internalType": "uint32"
										},
										{
											"name": "reserveFrequency",
											"type": "uint16",
											"internalType": "uint16"
										},
										{
											"name": "reserveBeneficiary",
											"type": "address",
											"internalType": "address"
										},
										{
											"name": "encodedIPFSUri",
											"type": "bytes32",
											"internalType": "bytes32"
										},
										{
											"name": "category",
											"type": "uint24",
											"internalType": "uint24"
										},
										{
											"name": "allowOwnerMint",
											"type": "bool",
											"internalType": "bool"
										},
										{
											"name": "useReserveBeneficiaryAsDefault",
											"type": "bool",
											"internalType": "bool"
										},
										{
											"name": "transfersPausable",
											"type": "bool",
											"internalType": "bool"
										},
										{
											"name": "useVotingUnits",
											"type": "bool",
											"internalType": "bool"
										},
										{
											"name": "cannotBeRemoved",
											"type": "bool",
											"internalType": "bool"
										}
									]
								},
								{
									"name": "currency",
									"type": "uint32",
									"internalType": "uint32"
								},
								{
									"name": "decimals",
									"type": "uint8",
									"internalType": "uint8"
								},
								{
									"name": "prices",
									"type": "address",
									"internalType": "contract IJBPrices"
								}
							]
						},
						{
							"name": "reserveBeneficiary",
							"type": "address",
							"internalType": "address"
						},
						{
							"name": "flags",
							"type": "tuple",
							"internalType": "struct JB721TiersHookFlags",
							"components": [
								{
									"name": "noNewTiersWithReserves",
									"type": "bool",
									"internalType": "bool"
								},
								{
									"name": "noNewTiersWithVotes",
									"type": "bool",
									"internalType": "bool"
								},
								{
									"name": "noNewTiersWithOwnerMinting",
									"type": "bool",
									"internalType": "bool"
								},
								{
									"name": "preventOverspending",
									"type": "bool",
									"internalType": "bool"
								}
							]
						}
					]
				},
				{
					"name": "launchRulesetsConfig",
					"type": "tuple",
					"internalType": "struct JBLaunchRulesetsConfig",
					"components": [
						{
							"name": "projectId",
							"type": "uint256",
							"internalType": "uint256"
						},
						{
							"name": "rulesetConfigurations",
							"type": "tuple[]",
							"internalType": "struct JBPayDataHookRulesetConfig[]",
							"components": [
								{
									"name": "mustStartAtOrAfter",
									"type": "uint256",
									"internalType": "uint256"
								},
								{
									"name": "duration",
									"type": "uint256",
									"internalType": "uint256"
								},
								{
									"name": "weight",
									"type": "uint256",
									"internalType": "uint256"
								},
								{
									"name": "decayRate",
									"type": "uint256",
									"internalType": "uint256"
								},
								{
									"name": "approvalHook",
									"type": "address",
									"internalType": "contract IJBRulesetApprovalHook"
								},
								{
									"name": "metadata",
									"type": "tuple",
									"internalType": "struct JBPayDataHookRulesetMetadata",
									"components": [
										{
											"name": "reservedRate",
											"type": "uint256",
											"internalType": "uint256"
										},
										{
											"name": "redemptionRate",
											"type": "uint256",
											"internalType": "uint256"
										},
										{
											"name": "baseCurrency",
											"type": "uint256",
											"internalType": "uint256"
										},
										{
											"name": "pausePay",
											"type": "bool",
											"internalType": "bool"
										},
										{
											"name": "pauseCreditTransfers",
											"type": "bool",
											"internalType": "bool"
										},
										{
											"name": "allowOwnerMinting",
											"type": "bool",
											"internalType": "bool"
										},
										{
											"name": "allowTerminalMigration",
											"type": "bool",
											"internalType": "bool"
										},
										{
											"name": "allowSetTerminals",
											"type": "bool",
											"internalType": "bool"
										},
										{
											"name": "allowControllerMigration",
											"type": "bool",
											"internalType": "bool"
										},
										{
											"name": "allowSetController",
											"type": "bool",
											"internalType": "bool"
										},
										{
											"name": "holdFees",
											"type": "bool",
											"internalType": "bool"
										},
										{
											"name": "useTotalSurplusForRedemptions",
											"type": "bool",
											"internalType": "bool"
										},
										{
											"name": "useDataHookForRedeem",
											"type": "bool",
											"internalType": "bool"
										},
										{
											"name": "metadata",
											"type": "uint256",
											"internalType": "uint256"
										}
									]
								},
								{
									"name": "splitGroups",
									"type": "tuple[]",
									"internalType": "struct JBSplitGroup[]",
									"components": [
										{
											"name": "groupId",
											"type": "uint256",
											"internalType": "uint256"
										},
										{
											"name": "splits",
											"type": "tuple[]",
											"internalType": "struct JBSplit[]",
											"components": [
												{
													"name": "preferAddToBalance",
													"type": "bool",
													"internalType": "bool"
												},
												{
													"name": "percent",
													"type": "uint256",
													"internalType": "uint256"
												},
												{
													"name": "projectId",
													"type": "uint256",
													"internalType": "uint256"
												},
												{
													"name": "beneficiary",
													"type": "address",
													"internalType": "address payable"
												},
												{
													"name": "lockedUntil",
													"type": "uint256",
													"internalType": "uint256"
												},
												{
													"name": "hook",
													"type": "address",
													"internalType": "contract IJBSplitHook"
												}
											]
										}
									]
								},
								{
									"name": "fundAccessLimitGroups",
									"type": "tuple[]",
									"internalType": "struct JBFundAccessLimitGroup[]",
									"components": [
										{
											"name": "terminal",
											"type": "address",
											"internalType": "address"
										},
										{
											"name": "token",
											"type": "address",
											"internalType": "address"
										},
										{
											"name": "payoutLimits",
											"type": "tuple[]",
											"internalType": "struct JBCurrencyAmount[]",
											"components": [
												{
													"name": "amount",
													"type": "uint256",
													"internalType": "uint256"
												},
												{
													"name": "currency",
													"type": "uint256",
													"internalType": "uint256"
												}
											]
										},
										{
											"name": "surplusAllowances",
											"type": "tuple[]",
											"internalType": "struct JBCurrencyAmount[]",
											"components": [
												{
													"name": "amount",
													"type": "uint256",
													"internalType": "uint256"
												},
												{
													"name": "currency",
													"type": "uint256",
													"internalType": "uint256"
												}
											]
										}
									]
								}
							]
						},
						{
							"name": "terminalConfigurations",
							"type": "tuple[]",
							"internalType": "struct JBTerminalConfig[]",
							"components": [
								{
									"name": "terminal",
									"type": "address",
									"internalType": "contract IJBTerminal"
								},
								{
									"name": "tokensToAccept",
									"type": "address[]",
									"internalType": "address[]"
								}
							]
						},
						{
							"name": "memo",
							"type": "string",
							"internalType": "string"
						}
					]
				},
				{
					"name": "controller",
					"type": "address",
					"internalType": "contract IJBController"
				}
			],
			"outputs": [
				{
					"name": "rulesetId",
					"type": "uint256",
					"internalType": "uint256"
				}
			],
			"stateMutability": "nonpayable"
		},
		{
			"type": "function",
			"name": "queueRulesetsOf",
			"inputs": [
				{
					"name": "projectId",
					"type": "uint256",
					"internalType": "uint256"
				},
				{
					"name": "deployTiersHookConfig",
					"type": "tuple",
					"internalType": "struct JBDeploy721TiersHookConfig",
					"components": [
						{
							"name": "name",
							"type": "string",
							"internalType": "string"
						},
						{
							"name": "symbol",
							"type": "string",
							"internalType": "string"
						},
						{
							"name": "rulesets",
							"type": "address",
							"internalType": "contract IJBRulesets"
						},
						{
							"name": "baseUri",
							"type": "string",
							"internalType": "string"
						},
						{
							"name": "tokenUriResolver",
							"type": "address",
							"internalType": "contract IJB721TokenUriResolver"
						},
						{
							"name": "contractUri",
							"type": "string",
							"internalType": "string"
						},
						{
							"name": "tiersConfig",
							"type": "tuple",
							"internalType": "struct JB721InitTiersConfig",
							"components": [
								{
									"name": "tiers",
									"type": "tuple[]",
									"internalType": "struct JB721TierConfig[]",
									"components": [
										{
											"name": "price",
											"type": "uint104",
											"internalType": "uint104"
										},
										{
											"name": "initialSupply",
											"type": "uint32",
											"internalType": "uint32"
										},
										{
											"name": "votingUnits",
											"type": "uint32",
											"internalType": "uint32"
										},
										{
											"name": "reserveFrequency",
											"type": "uint16",
											"internalType": "uint16"
										},
										{
											"name": "reserveBeneficiary",
											"type": "address",
											"internalType": "address"
										},
										{
											"name": "encodedIPFSUri",
											"type": "bytes32",
											"internalType": "bytes32"
										},
										{
											"name": "category",
											"type": "uint24",
											"internalType": "uint24"
										},
										{
											"name": "allowOwnerMint",
											"type": "bool",
											"internalType": "bool"
										},
										{
											"name": "useReserveBeneficiaryAsDefault",
											"type": "bool",
											"internalType": "bool"
										},
										{
											"name": "transfersPausable",
											"type": "bool",
											"internalType": "bool"
										},
										{
											"name": "useVotingUnits",
											"type": "bool",
											"internalType": "bool"
										},
										{
											"name": "cannotBeRemoved",
											"type": "bool",
											"internalType": "bool"
										}
									]
								},
								{
									"name": "currency",
									"type": "uint32",
									"internalType": "uint32"
								},
								{
									"name": "decimals",
									"type": "uint8",
									"internalType": "uint8"
								},
								{
									"name": "prices",
									"type": "address",
									"internalType": "contract IJBPrices"
								}
							]
						},
						{
							"name": "reserveBeneficiary",
							"type": "address",
							"internalType": "address"
						},
						{
							"name": "flags",
							"type": "tuple",
							"internalType": "struct JB721TiersHookFlags",
							"components": [
								{
									"name": "noNewTiersWithReserves",
									"type": "bool",
									"internalType": "bool"
								},
								{
									"name": "noNewTiersWithVotes",
									"type": "bool",
									"internalType": "bool"
								},
								{
									"name": "noNewTiersWithOwnerMinting",
									"type": "bool",
									"internalType": "bool"
								},
								{
									"name": "preventOverspending",
									"type": "bool",
									"internalType": "bool"
								}
							]
						}
					]
				},
				{
					"name": "queueRulesetsConfig",
					"type": "tuple",
					"internalType": "struct JBQueueRulesetsConfig",
					"components": [
						{
							"name": "projectId",
							"type": "uint256",
							"internalType": "uint256"
						},
						{
							"name": "rulesetConfigurations",
							"type": "tuple[]",
							"internalType": "struct JBPayDataHookRulesetConfig[]",
							"components": [
								{
									"name": "mustStartAtOrAfter",
									"type": "uint256",
									"internalType": "uint256"
								},
								{
									"name": "duration",
									"type": "uint256",
									"internalType": "uint256"
								},
								{
									"name": "weight",
									"type": "uint256",
									"internalType": "uint256"
								},
								{
									"name": "decayRate",
									"type": "uint256",
									"internalType": "uint256"
								},
								{
									"name": "approvalHook",
									"type": "address",
									"internalType": "contract IJBRulesetApprovalHook"
								},
								{
									"name": "metadata",
									"type": "tuple",
									"internalType": "struct JBPayDataHookRulesetMetadata",
									"components": [
										{
											"name": "reservedRate",
											"type": "uint256",
											"internalType": "uint256"
										},
										{
											"name": "redemptionRate",
											"type": "uint256",
											"internalType": "uint256"
										},
										{
											"name": "baseCurrency",
											"type": "uint256",
											"internalType": "uint256"
										},
										{
											"name": "pausePay",
											"type": "bool",
											"internalType": "bool"
										},
										{
											"name": "pauseCreditTransfers",
											"type": "bool",
											"internalType": "bool"
										},
										{
											"name": "allowOwnerMinting",
											"type": "bool",
											"internalType": "bool"
										},
										{
											"name": "allowTerminalMigration",
											"type": "bool",
											"internalType": "bool"
										},
										{
											"name": "allowSetTerminals",
											"type": "bool",
											"internalType": "bool"
										},
										{
											"name": "allowControllerMigration",
											"type": "bool",
											"internalType": "bool"
										},
										{
											"name": "allowSetController",
											"type": "bool",
											"internalType": "bool"
										},
										{
											"name": "holdFees",
											"type": "bool",
											"internalType": "bool"
										},
										{
											"name": "useTotalSurplusForRedemptions",
											"type": "bool",
											"internalType": "bool"
										},
										{
											"name": "useDataHookForRedeem",
											"type": "bool",
											"internalType": "bool"
										},
										{
											"name": "metadata",
											"type": "uint256",
											"internalType": "uint256"
										}
									]
								},
								{
									"name": "splitGroups",
									"type": "tuple[]",
									"internalType": "struct JBSplitGroup[]",
									"components": [
										{
											"name": "groupId",
											"type": "uint256",
											"internalType": "uint256"
										},
										{
											"name": "splits",
											"type": "tuple[]",
											"internalType": "struct JBSplit[]",
											"components": [
												{
													"name": "preferAddToBalance",
													"type": "bool",
													"internalType": "bool"
												},
												{
													"name": "percent",
													"type": "uint256",
													"internalType": "uint256"
												},
												{
													"name": "projectId",
													"type": "uint256",
													"internalType": "uint256"
												},
												{
													"name": "beneficiary",
													"type": "address",
													"internalType": "address payable"
												},
												{
													"name": "lockedUntil",
													"type": "uint256",
													"internalType": "uint256"
												},
												{
													"name": "hook",
													"type": "address",
													"internalType": "contract IJBSplitHook"
												}
											]
										}
									]
								},
								{
									"name": "fundAccessLimitGroups",
									"type": "tuple[]",
									"internalType": "struct JBFundAccessLimitGroup[]",
									"components": [
										{
											"name": "terminal",
											"type": "address",
											"internalType": "address"
										},
										{
											"name": "token",
											"type": "address",
											"internalType": "address"
										},
										{
											"name": "payoutLimits",
											"type": "tuple[]",
											"internalType": "struct JBCurrencyAmount[]",
											"components": [
												{
													"name": "amount",
													"type": "uint256",
													"internalType": "uint256"
												},
												{
													"name": "currency",
													"type": "uint256",
													"internalType": "uint256"
												}
											]
										},
										{
											"name": "surplusAllowances",
											"type": "tuple[]",
											"internalType": "struct JBCurrencyAmount[]",
											"components": [
												{
													"name": "amount",
													"type": "uint256",
													"internalType": "uint256"
												},
												{
													"name": "currency",
													"type": "uint256",
													"internalType": "uint256"
												}
											]
										}
									]
								}
							]
						},
						{
							"name": "memo",
							"type": "string",
							"internalType": "string"
						}
					]
				},
				{
					"name": "controller",
					"type": "address",
					"internalType": "contract IJBController"
				}
			],
			"outputs": [
				{
					"name": "rulesetId",
					"type": "uint256",
					"internalType": "uint256"
				}
			],
			"stateMutability": "nonpayable"
		},
		{
			"type": "error",
			"name": "UNAUTHORIZED",
			"inputs": []
		}
	],
	"solcInputHash": "50e43c9821602488f9eafcf5de2f252e",
	"args": [
		"0x18017cfeD48E1dC0Adc445cEF8A9e6AfFCb330DA",
		"0xBA24624AE5dc821866E9E71Ed050412Ef01E2fe6",
		"0xcDFA45A183fa6841eD1Ef8550FCa0a8aAb42eC34"
	],
	"bytecode": "0x60e06040523480156200001157600080fd5b506040516200298c3803806200298c83398101604081905262000034916200006b565b6001600160a01b0391821660805291811660a0521660c052620000bf565b6001600160a01b03811681146200006857600080fd5b50565b6000806000606084860312156200008157600080fd5b83516200008e8162000052565b6020850151909350620000a18162000052565b6040850151909250620000b48162000052565b809150509250925092565b60805160a05160c051612867620001256000396000818160f4015281816102460152818161045d01526105c701526000818160a2015281816101540152818161034d015261055101526000818161012e015281816109a90152610a5201526128676000f3fe608060405234801561001057600080fd5b50600436106100725760003560e01c8063abf8c5c811610050578063abf8c5c8146100ef578063adcafa2f14610116578063f434c9141461012957600080fd5b80633f839bc61461007757806388bc2ef31461009d5780638eb69a9e146100dc575b600080fd5b61008a610085366004611db8565b610150565b6040519081526020015b60405180910390f35b6100c47f000000000000000000000000000000000000000000000000000000000000000081565b6040516001600160a01b039091168152602001610094565b61008a6100ea366004611edb565b610346565b6100c47f000000000000000000000000000000000000000000000000000000000000000081565b61008a610124366004611f64565b61054a565b6100c47f000000000000000000000000000000000000000000000000000000000000000081565b60007f00000000000000000000000000000000000000000000000000000000000000006001600160a01b031663293c49996040518163ffffffff1660e01b8152600401602060405180830381865afa1580156101b0573d6000803e3d6000fd5b505050506040513d601f19601f820116820180604052508101906101d49190612034565b6001600160a01b03166306661abd6040518163ffffffff1660e01b8152600401602060405180830381865afa158015610211573d6000803e3d6000fd5b505050506040513d601f19601f820116820180604052508101906102359190612058565b610240906001612071565b905060007f00000000000000000000000000000000000000000000000000000000000000006001600160a01b0316632230819f83876040518363ffffffff1660e01b81526004016102929291906121fe565b6020604051808303816000875af11580156102b1573d6000803e3d6000fd5b505050506040513d601f19601f820116820180604052508101906102d59190612034565b90506102e3868583866106aa565b6040516351106b4b60e11b8152600481018390526001600160a01b0382169063a220d69690602401600060405180830381600087803b15801561032557600080fd5b505af1158015610339573d6000803e3d6000fd5b5050505050949350505050565b60006104437f00000000000000000000000000000000000000000000000000000000000000006001600160a01b031663293c49996040518163ffffffff1660e01b8152600401602060405180830381865afa1580156103a9573d6000803e3d6000fd5b505050506040513d601f19601f820116820180604052508101906103cd9190612034565b6001600160a01b0316636352211e876040518263ffffffff1660e01b81526004016103fa91815260200190565b602060405180830381865afa158015610417573d6000803e3d6000fd5b505050506040513d601f19601f8201168201806040525081019061043b9190612034565b86600261095f565b604051632230819f60e01b81526000906001600160a01b037f00000000000000000000000000000000000000000000000000000000000000001690632230819f9061049490899089906004016121fe565b6020604051808303816000875af11580156104b3573d6000803e3d6000fd5b505050506040513d601f19601f820116820180604052508101906104d79190612034565b6040516351106b4b60e11b8152600481018890529091506001600160a01b0382169063a220d69690602401600060405180830381600087803b15801561051c57600080fd5b505af1158015610530573d6000803e3d6000fd5b5050505061054086858386610afc565b9695505050505050565b60006105ad7f00000000000000000000000000000000000000000000000000000000000000006001600160a01b031663293c49996040518163ffffffff1660e01b8152600401602060405180830381865afa1580156103a9573d6000803e3d6000fd5b604051632230819f60e01b81526000906001600160a01b037f00000000000000000000000000000000000000000000000000000000000000001690632230819f906105fe90899089906004016121fe565b6020604051808303816000875af115801561061d573d6000803e3d6000fd5b505050506040513d601f19601f820116820180604052508101906106419190612034565b6040516351106b4b60e11b8152600481018890529091506001600160a01b0382169063a220d69690602401600060405180830381600087803b15801561068657600080fd5b505af115801561069a573d6000803e3d6000fd5b5050505061054086858386610db3565b60208301515160008167ffffffffffffffff8111156106cb576106cb61119c565b60405190808252806020026020018201604052801561070457816020015b6106f1611016565b8152602001906001900390816106e95790505b50905061070f6110d5565b60005b838110156108bd578660200151818151811061073057610730612336565b602002602001015191506040518061010001604052808360000151815260200183602001518152602001836040015181526020018360600151815260200183608001516001600160a01b031681526020016040518061020001604052808560a001516000015181526020018560a001516020015181526020018560a001516040015181526020018560a0015160600151151581526020018560a0015160800151151581526020018560a0015160a00151151581526020018560a0015160c00151151581526020018560a0015160e00151151581526020018560a001516101000151151581526020018560a001516101200151151581526020018560a001516101400151151581526020018560a001516101600151151581526020016001151581526020018560a00151610180015115158152602001896001600160a01b031681526020018560a001516101a0015181525081526020018360c0015181526020018360e001518152508382815181106108aa576108aa612336565b6020908102919091010152600101610712565b508551604080880151606089015191517f0634bae90000000000000000000000000000000000000000000000000000000081526001600160a01b03881693630634bae993610912938d93899290600401612743565b6020604051808303816000875af1158015610931573d6000803e3d6000fd5b505050506040513d601f19601f820116820180604052508101906109559190612058565b5050505050505050565b336001600160a01b0384168114801590610a16575060405163c161c93f60e01b81526001600160a01b038281166004830152858116602483015260448201859052606482018490527f0000000000000000000000000000000000000000000000000000000000000000169063c161c93f90608401602060405180830381865afa1580156109f0573d6000803e3d6000fd5b505050506040513d601f19601f82011682018060405250810190610a14919061279f565b155b8015610abf575060405163c161c93f60e01b81526001600160a01b038281166004830152858116602483015260006044830152606482018490527f0000000000000000000000000000000000000000000000000000000000000000169063c161c93f90608401602060405180830381865afa158015610a99573d6000803e3d6000fd5b505050506040513d601f19601f82011682018060405250810190610abd919061279f565b155b15610af6576040517f075fd2b100000000000000000000000000000000000000000000000000000000815260040160405180910390fd5b50505050565b602083015151600090818167ffffffffffffffff811115610b1f57610b1f61119c565b604051908082528060200260200182016040528015610b5857816020015b610b45611016565b815260200190600190039081610b3d5790505b509050610b636110d5565b60005b83811015610d115787602001518181518110610b8457610b84612336565b602002602001015191506040518061010001604052808360000151815260200183602001518152602001836040015181526020018360600151815260200183608001516001600160a01b031681526020016040518061020001604052808560a001516000015181526020018560a001516020015181526020018560a001516040015181526020018560a0015160600151151581526020018560a0015160800151151581526020018560a0015160a00151151581526020018560a0015160c00151151581526020018560a0015160e00151151581526020018560a001516101000151151581526020018560a001516101200151151581526020018560a001516101400151151581526020018560a001516101600151151581526020016001151581526020018560a001516101800151151581526020018a6001600160a01b031681526020018560a001516101a0015181525081526020018360c0015181526020018360e00151815250838281518110610cfe57610cfe612336565b6020908102919091010152600101610b66565b50604080880151606089015191517f1ea7bc8c0000000000000000000000000000000000000000000000000000000081526001600160a01b03881692631ea7bc8c92610d64928d928892916004016127bc565b6020604051808303816000875af1158015610d83573d6000803e3d6000fd5b505050506040513d601f19601f82011682018060405250810190610da79190612058565b98975050505050505050565b602083015151600090818167ffffffffffffffff811115610dd657610dd661119c565b604051908082528060200260200182016040528015610e0f57816020015b610dfc611016565b815260200190600190039081610df45790505b509050610e1a6110d5565b60005b83811015610fc85787602001518181518110610e3b57610e3b612336565b602002602001015191506040518061010001604052808360000151815260200183602001518152602001836040015181526020018360600151815260200183608001516001600160a01b031681526020016040518061020001604052808560a001516000015181526020018560a001516020015181526020018560a001516040015181526020018560a0015160600151151581526020018560a0015160800151151581526020018560a0015160a00151151581526020018560a0015160c00151151581526020018560a0015160e00151151581526020018560a001516101000151151581526020018560a001516101200151151581526020018560a001516101400151151581526020018560a001516101600151151581526020016001151581526020018560a001516101800151151581526020018a6001600160a01b031681526020018560a001516101a0015181525081526020018360c0015181526020018360e00151815250838281518110610fb557610fb5612336565b6020908102919091010152600101610e1d565b5060408088015190517fa0d8e2a90000000000000000000000000000000000000000000000000000000081526001600160a01b0387169163a0d8e2a991610d64918c91879190600401612806565b6040805161010080820183526000808352602080840182905283850182905260608085018390526080808601849052865161020081018852848152928301849052958201839052810182905293840181905260a084810182905260c0850182905260e0850182905291840181905261012084018190526101408401819052610160840181905261018084018190526101a084018190526101c084018190526101e08401529091908201905b815260200160608152602001606081525090565b604080516101008082018352600080835260208084018290528385018290526060808501839052608080860184905286516101c081018852848152928301849052958201839052810182905293840181905260a084810182905260c0850182905260e0850182905291840181905261012084018190526101408401819052610160840181905261018084018190526101a08401529091908201906110c1565b6001600160a01b038116811461118957600080fd5b50565b803561119781611174565b919050565b634e487b7160e01b600052604160045260246000fd5b6040516080810167ffffffffffffffff811182821017156111d5576111d561119c565b60405290565b604051610180810167ffffffffffffffff811182821017156111d5576111d561119c565b604051610120810167ffffffffffffffff811182821017156111d5576111d561119c565b6040516101c0810167ffffffffffffffff811182821017156111d5576111d561119c565b6040805190810167ffffffffffffffff811182821017156111d5576111d561119c565b60405160c0810167ffffffffffffffff811182821017156111d5576111d561119c565b604051610100810167ffffffffffffffff811182821017156111d5576111d561119c565b6040516060810167ffffffffffffffff811182821017156111d5576111d561119c565b604051601f8201601f1916810167ffffffffffffffff811182821017156112fd576112fd61119c565b604052919050565b600082601f83011261131657600080fd5b813567ffffffffffffffff8111156113305761133061119c565b611343601f8201601f19166020016112d4565b81815284602083860101111561135857600080fd5b816020850160208301376000918101602001919091529392505050565b600067ffffffffffffffff82111561138f5761138f61119c565b5060051b60200190565b80356cffffffffffffffffffffffffff8116811461119757600080fd5b803563ffffffff8116811461119757600080fd5b803561ffff8116811461119757600080fd5b803562ffffff8116811461119757600080fd5b801515811461118957600080fd5b8035611197816113ef565b803560ff8116811461119757600080fd5b6000608080838503121561142c57600080fd5b6114346111b2565b9150823567ffffffffffffffff81111561144d57600080fd5b8301601f8101851361145e57600080fd5b8035602061147361146e83611375565b6112d4565b828152610180928302840182019282820191908985111561149357600080fd5b948301945b848610156115865780868b0312156114b05760008081fd5b6114b86111db565b6114c187611399565b81526114ce8588016113b6565b8582015260406114df8189016113b6565b9082015260606114f08882016113ca565b908201526114ff87890161118c565b8189015260a0878101359082015260c061151a8189016113dc565b9082015260e061152b8882016113fd565b9082015261010061153d8882016113fd565b9082015261012061154f8882016113fd565b908201526101406115618882016113fd565b908201526101606115738882016113fd565b9082015283529485019491830191611498565b508652506115958682016113b6565b81860152505050506115a960408301611408565b60408201526115ba6060830161118c565b606082015292915050565b6000608082840312156115d757600080fd5b6115df6111b2565b905081356115ec816113ef565b815260208201356115fc816113ef565b6020820152604082013561160f816113ef565b604082015260608201356115ba816113ef565b6000610180828403121561163557600080fd5b61163d6111ff565b9050813567ffffffffffffffff8082111561165757600080fd5b61166385838601611305565b8352602084013591508082111561167957600080fd5b61168585838601611305565b60208401526116966040850161118c565b604084015260608401359150808211156116af57600080fd5b6116bb85838601611305565b60608401526116cc6080850161118c565b608084015260a08401359150808211156116e557600080fd5b6116f185838601611305565b60a084015260c084013591508082111561170a57600080fd5b5061171784828501611419565b60c08301525061172960e0830161118c565b60e082015261010061173d848285016115c5565b9082015292915050565b60006101c0828403121561175a57600080fd5b611762611223565b9050813581526020820135602082015260408201356040820152611788606083016113fd565b6060820152611799608083016113fd565b60808201526117aa60a083016113fd565b60a08201526117bb60c083016113fd565b60c08201526117cc60e083016113fd565b60e08201526101006117df8184016113fd565b908201526101206117f18382016113fd565b908201526101406118038382016113fd565b908201526101606118158382016113fd565b908201526101806118278382016113fd565b81830152506101a080830135818301525092915050565b600082601f83011261184f57600080fd5b8135602061185f61146e83611375565b82815260059290921b8401810191818101908684111561187e57600080fd5b8286015b848110156119b857803567ffffffffffffffff808211156118a257600080fd5b908801906040828b03601f19018113156118bb57600080fd5b6118c3611247565b87840135815281840135838111156118da57600080fd5b8085019450508b603f8501126118ef57600080fd5b87840135925061190161146e84611375565b83815260c09093028401820192888101908d85111561191f57600080fd5b948301945b848610156119a35760c0868f03121561193c57600080fd5b61194461126a565b863561194f816113ef565b8152868b01358b8201528487013585820152606087013561196f81611174565b60608201526080878101359082015260a087013561198c81611174565b60a0820152825260c0959095019490890190611924565b828a0152508652505050918301918301611882565b509695505050505050565b600082601f8301126119d457600080fd5b813560206119e461146e83611375565b82815260069290921b84018101918181019086841115611a0357600080fd5b8286015b848110156119b85760408189031215611a205760008081fd5b611a28611247565b813581528482013585820152835291830191604001611a07565b600082601f830112611a5357600080fd5b81356020611a6361146e83611375565b82815260059290921b84018101918181019086841115611a8257600080fd5b8286015b848110156119b857803567ffffffffffffffff80821115611aa75760008081fd5b908801906080828b03601f1901811315611ac15760008081fd5b611ac96111b2565b87840135611ad681611174565b8152604084810135611ae781611174565b828a015260608581013585811115611aff5760008081fd5b611b0d8f8c838a01016119c3565b8484015250928501359284841115611b2757600091508182fd5b611b358e8b868901016119c3565b90830152508652505050918301918301611a86565b600082601f830112611b5b57600080fd5b81356020611b6b61146e83611375565b82815260059290921b84018101918181019086841115611b8a57600080fd5b8286015b848110156119b857803567ffffffffffffffff80821115611baf5760008081fd5b908801906102a0828b03601f1901811315611bca5760008081fd5b611bd261128d565b87840135815260408085013589830152606080860135828401526080915081860135818401525060a0611c0681870161118c565b8284015260c09150611c1a8e838801611747565b9083015261028085013584811115611c325760008081fd5b611c408e8b8389010161183e565b82840152505081840135915082821115611c5a5760008081fd5b611c688c8984870101611a42565b60e08201528652505050918301918301611b8e565b600082601f830112611c8e57600080fd5b81356020611c9e61146e83611375565b828152600592831b8501820192828201919087851115611cbd57600080fd5b8387015b85811015611dab57803567ffffffffffffffff80821115611ce25760008081fd5b908901906040828c03601f1901811315611cfc5760008081fd5b611d04611247565b88840135611d1181611174565b81528382013583811115611d255760008081fd5b8085019450508c603f850112611d3d57600092508283fd5b888401359250611d4f61146e84611375565b83815292861b8401820192898101908e851115611d6c5760008081fd5b948301945b84861015611d965785359350611d8684611174565b838252948a0194908a0190611d71565b828b0152508752505050928401928401611cc1565b5090979650505050505050565b60008060008060808587031215611dce57600080fd5b8435611dd981611174565b9350602085013567ffffffffffffffff80821115611df657600080fd5b611e0288838901611622565b94506040870135915080821115611e1857600080fd5b9086019060808289031215611e2c57600080fd5b611e346111b2565b823582811115611e4357600080fd5b611e4f8a828601611305565b825250602083013582811115611e6457600080fd5b611e708a828601611b4a565b602083015250604083013582811115611e8857600080fd5b611e948a828601611c7d565b604083015250606083013582811115611eac57600080fd5b611eb88a828601611305565b606083015250809450505050611ed06060860161118c565b905092959194509250565b60008060008060808587031215611ef157600080fd5b84359350602085013567ffffffffffffffff80821115611f1057600080fd5b611f1c88838901611622565b94506040870135915080821115611f3257600080fd5b9086019060808289031215611f4657600080fd5b611f4e6111b2565b82358152602083013582811115611e6457600080fd5b60008060008060808587031215611f7a57600080fd5b84359350602085013567ffffffffffffffff80821115611f9957600080fd5b611fa588838901611622565b94506040870135915080821115611fbb57600080fd5b9086019060608289031215611fcf57600080fd5b611fd76112b1565b82358152602083013582811115611fed57600080fd5b611ff98a828601611b4a565b60208301525060408301358281111561201157600080fd5b61201d8a828601611305565b6040830152509350611ed09150506060860161118c565b60006020828403121561204657600080fd5b815161205181611174565b9392505050565b60006020828403121561206a57600080fd5b5051919050565b8082018082111561209257634e487b7160e01b600052601160045260246000fd5b92915050565b6000815180845260005b818110156120be576020818501810151868301820152016120a2565b506000602082860101526020601f19601f83011685010191505092915050565b80516080808452815184820181905260009260a0916020918201918388019190865b828110156121c357845180516cffffffffffffffffffffffffff1685528281015163ffffffff908116848701526040808301519091169086015260608082015161ffff1690860152878101516001600160a01b031688860152868101518786015260c08082015162ffffff169086015260e080820151151590860152610100808201511515908601526101208082015115159086015261014080820151151590860152610160908101511515908501529381019361018090930192600101612100565b508781015163ffffffff16908901525060408087015160ff16908801526060808701516001600160a01b038116918901919091529350610540565b828152604060208201526000825161018060408401526122226101c0840182612098565b90506020840151603f19808584030160608601526122408383612098565b92506040860151915061225e60808601836001600160a01b03169052565b60608601519150808584030160a08601526122798383612098565b92506080860151915061229760c08601836001600160a01b03169052565b60a08601519150808584030160e08601526122b28383612098565b925060c086015191506101008186850301818701526122d184846120de565b935060e087015192506122f06101208701846001600160a01b03169052565b860151805115156101408701526020810151151561016087015260408101511515610180870152606081015115156101a0870152915061232d9050565b50949350505050565b634e487b7160e01b600052603260045260246000fd5b8051825260208101516020830152604081015160408301526060810151612377606084018215159052565b50608081015161238b608084018215159052565b5060a081015161239f60a084018215159052565b5060c08101516123b360c084018215159052565b5060e08101516123c760e084018215159052565b5061010081810151151590830152610120808201511515908301526101408082015115159083015261016080820151151590830152610180808201511515908301526101a0808201511515908301526101c0808201516001600160a01b0316908301526101e090810151910152565b600082825180855260208086019550808260051b8401018186016000805b858110156124fc57868403601f19018a52825180518552850151604086860181905281518187018190529187019160609081880190865b818110156124e55785518051151584528b8101518c8501528581015186850152848101516001600160a01b03908116868601526080808301519086015260a0918201511690840152948a019460c09092019160010161248b565b50509c88019c965050509285019250600101612454565b509198975050505050505050565b60008151808452602080850194506020840160005b8381101561254657815180518852830151838801526040909601959082019060010161251f565b509495945050505050565b600082825180855260208086019550808260051b84010181860160005b84811015611dab57601f19868403018952815160806001600160a01b03808351168652808784015116878701525060408083015182828801526125b38388018261250a565b92505050606080830151925085820381870152506125d1818361250a565b9a86019a945050509083019060010161256e565b600082825180855260208086019550808260051b84010181860160005b84811015611dab57858303601f19018952815180518452848101518585015260408082015190850152606080820151908501526080808201516001600160a01b03169085015260a0808201516102e0919061265f8288018261234c565b505060c0820151816102a087015261267982870182612436565b91505060e082015191508481036102c08601526126968183612551565b9a86019a9450505090830190600101612602565b600082825180855260208086019550808260051b8401018186016000805b858110156124fc57868403601f19018a52825180516001600160a01b03908116865290860151604087870181905281519087018190529087019160608701918591905b8083101561272d5784518216845293890193928901926001929092019161270b565b5050509a86019a945050918401916001016126c8565b6001600160a01b038616815260a06020820152600061276560a0830187612098565b828103604084015261277781876125e5565b9050828103606084015261278b81866126aa565b90508281036080840152610da78185612098565b6000602082840312156127b157600080fd5b8151612051816113ef565b8481526080602082015260006127d560808301866125e5565b82810360408401526127e781866126aa565b905082810360608401526127fb8185612098565b979650505050505050565b83815260606020820152600061281f60608301856125e5565b8281036040840152610540818561209856fea2646970667358221220cf45065f028e000a8e5a41ede83bdf22933cf72a4363767a4d8eac20f9eb2e0e64736f6c63430008170033",
	"deployedBytecode": "0x608060405234801561001057600080fd5b50600436106100725760003560e01c8063abf8c5c811610050578063abf8c5c8146100ef578063adcafa2f14610116578063f434c9141461012957600080fd5b80633f839bc61461007757806388bc2ef31461009d5780638eb69a9e146100dc575b600080fd5b61008a610085366004611db8565b610150565b6040519081526020015b60405180910390f35b6100c47f00000000000000000000000018017cfed48e1dc0adc445cef8a9e6affcb330da81565b6040516001600160a01b039091168152602001610094565b61008a6100ea366004611edb565b610346565b6100c47f000000000000000000000000cdfa45a183fa6841ed1ef8550fca0a8aab42ec3481565b61008a610124366004611f64565b61054a565b6100c47f000000000000000000000000ba24624ae5dc821866e9e71ed050412ef01e2fe681565b60007f00000000000000000000000018017cfed48e1dc0adc445cef8a9e6affcb330da6001600160a01b031663293c49996040518163ffffffff1660e01b8152600401602060405180830381865afa1580156101b0573d6000803e3d6000fd5b505050506040513d601f19601f820116820180604052508101906101d49190612034565b6001600160a01b03166306661abd6040518163ffffffff1660e01b8152600401602060405180830381865afa158015610211573d6000803e3d6000fd5b505050506040513d601f19601f820116820180604052508101906102359190612058565b610240906001612071565b905060007f000000000000000000000000cdfa45a183fa6841ed1ef8550fca0a8aab42ec346001600160a01b0316632230819f83876040518363ffffffff1660e01b81526004016102929291906121fe565b6020604051808303816000875af11580156102b1573d6000803e3d6000fd5b505050506040513d601f19601f820116820180604052508101906102d59190612034565b90506102e3868583866106aa565b6040516351106b4b60e11b8152600481018390526001600160a01b0382169063a220d69690602401600060405180830381600087803b15801561032557600080fd5b505af1158015610339573d6000803e3d6000fd5b5050505050949350505050565b60006104437f00000000000000000000000018017cfed48e1dc0adc445cef8a9e6affcb330da6001600160a01b031663293c49996040518163ffffffff1660e01b8152600401602060405180830381865afa1580156103a9573d6000803e3d6000fd5b505050506040513d601f19601f820116820180604052508101906103cd9190612034565b6001600160a01b0316636352211e876040518263ffffffff1660e01b81526004016103fa91815260200190565b602060405180830381865afa158015610417573d6000803e3d6000fd5b505050506040513d601f19601f8201168201806040525081019061043b9190612034565b86600261095f565b604051632230819f60e01b81526000906001600160a01b037f000000000000000000000000cdfa45a183fa6841ed1ef8550fca0a8aab42ec341690632230819f9061049490899089906004016121fe565b6020604051808303816000875af11580156104b3573d6000803e3d6000fd5b505050506040513d601f19601f820116820180604052508101906104d79190612034565b6040516351106b4b60e11b8152600481018890529091506001600160a01b0382169063a220d69690602401600060405180830381600087803b15801561051c57600080fd5b505af1158015610530573d6000803e3d6000fd5b5050505061054086858386610afc565b9695505050505050565b60006105ad7f00000000000000000000000018017cfed48e1dc0adc445cef8a9e6affcb330da6001600160a01b031663293c49996040518163ffffffff1660e01b8152600401602060405180830381865afa1580156103a9573d6000803e3d6000fd5b604051632230819f60e01b81526000906001600160a01b037f000000000000000000000000cdfa45a183fa6841ed1ef8550fca0a8aab42ec341690632230819f906105fe90899089906004016121fe565b6020604051808303816000875af115801561061d573d6000803e3d6000fd5b505050506040513d601f19601f820116820180604052508101906106419190612034565b6040516351106b4b60e11b8152600481018890529091506001600160a01b0382169063a220d69690602401600060405180830381600087803b15801561068657600080fd5b505af115801561069a573d6000803e3d6000fd5b5050505061054086858386610db3565b60208301515160008167ffffffffffffffff8111156106cb576106cb61119c565b60405190808252806020026020018201604052801561070457816020015b6106f1611016565b8152602001906001900390816106e95790505b50905061070f6110d5565b60005b838110156108bd578660200151818151811061073057610730612336565b602002602001015191506040518061010001604052808360000151815260200183602001518152602001836040015181526020018360600151815260200183608001516001600160a01b031681526020016040518061020001604052808560a001516000015181526020018560a001516020015181526020018560a001516040015181526020018560a0015160600151151581526020018560a0015160800151151581526020018560a0015160a00151151581526020018560a0015160c00151151581526020018560a0015160e00151151581526020018560a001516101000151151581526020018560a001516101200151151581526020018560a001516101400151151581526020018560a001516101600151151581526020016001151581526020018560a00151610180015115158152602001896001600160a01b031681526020018560a001516101a0015181525081526020018360c0015181526020018360e001518152508382815181106108aa576108aa612336565b6020908102919091010152600101610712565b508551604080880151606089015191517f0634bae90000000000000000000000000000000000000000000000000000000081526001600160a01b03881693630634bae993610912938d93899290600401612743565b6020604051808303816000875af1158015610931573d6000803e3d6000fd5b505050506040513d601f19601f820116820180604052508101906109559190612058565b5050505050505050565b336001600160a01b0384168114801590610a16575060405163c161c93f60e01b81526001600160a01b038281166004830152858116602483015260448201859052606482018490527f000000000000000000000000ba24624ae5dc821866e9e71ed050412ef01e2fe6169063c161c93f90608401602060405180830381865afa1580156109f0573d6000803e3d6000fd5b505050506040513d601f19601f82011682018060405250810190610a14919061279f565b155b8015610abf575060405163c161c93f60e01b81526001600160a01b038281166004830152858116602483015260006044830152606482018490527f000000000000000000000000ba24624ae5dc821866e9e71ed050412ef01e2fe6169063c161c93f90608401602060405180830381865afa158015610a99573d6000803e3d6000fd5b505050506040513d601f19601f82011682018060405250810190610abd919061279f565b155b15610af6576040517f075fd2b100000000000000000000000000000000000000000000000000000000815260040160405180910390fd5b50505050565b602083015151600090818167ffffffffffffffff811115610b1f57610b1f61119c565b604051908082528060200260200182016040528015610b5857816020015b610b45611016565b815260200190600190039081610b3d5790505b509050610b636110d5565b60005b83811015610d115787602001518181518110610b8457610b84612336565b602002602001015191506040518061010001604052808360000151815260200183602001518152602001836040015181526020018360600151815260200183608001516001600160a01b031681526020016040518061020001604052808560a001516000015181526020018560a001516020015181526020018560a001516040015181526020018560a0015160600151151581526020018560a0015160800151151581526020018560a0015160a00151151581526020018560a0015160c00151151581526020018560a0015160e00151151581526020018560a001516101000151151581526020018560a001516101200151151581526020018560a001516101400151151581526020018560a001516101600151151581526020016001151581526020018560a001516101800151151581526020018a6001600160a01b031681526020018560a001516101a0015181525081526020018360c0015181526020018360e00151815250838281518110610cfe57610cfe612336565b6020908102919091010152600101610b66565b50604080880151606089015191517f1ea7bc8c0000000000000000000000000000000000000000000000000000000081526001600160a01b03881692631ea7bc8c92610d64928d928892916004016127bc565b6020604051808303816000875af1158015610d83573d6000803e3d6000fd5b505050506040513d601f19601f82011682018060405250810190610da79190612058565b98975050505050505050565b602083015151600090818167ffffffffffffffff811115610dd657610dd661119c565b604051908082528060200260200182016040528015610e0f57816020015b610dfc611016565b815260200190600190039081610df45790505b509050610e1a6110d5565b60005b83811015610fc85787602001518181518110610e3b57610e3b612336565b602002602001015191506040518061010001604052808360000151815260200183602001518152602001836040015181526020018360600151815260200183608001516001600160a01b031681526020016040518061020001604052808560a001516000015181526020018560a001516020015181526020018560a001516040015181526020018560a0015160600151151581526020018560a0015160800151151581526020018560a0015160a00151151581526020018560a0015160c00151151581526020018560a0015160e00151151581526020018560a001516101000151151581526020018560a001516101200151151581526020018560a001516101400151151581526020018560a001516101600151151581526020016001151581526020018560a001516101800151151581526020018a6001600160a01b031681526020018560a001516101a0015181525081526020018360c0015181526020018360e00151815250838281518110610fb557610fb5612336565b6020908102919091010152600101610e1d565b5060408088015190517fa0d8e2a90000000000000000000000000000000000000000000000000000000081526001600160a01b0387169163a0d8e2a991610d64918c91879190600401612806565b6040805161010080820183526000808352602080840182905283850182905260608085018390526080808601849052865161020081018852848152928301849052958201839052810182905293840181905260a084810182905260c0850182905260e0850182905291840181905261012084018190526101408401819052610160840181905261018084018190526101a084018190526101c084018190526101e08401529091908201905b815260200160608152602001606081525090565b604080516101008082018352600080835260208084018290528385018290526060808501839052608080860184905286516101c081018852848152928301849052958201839052810182905293840181905260a084810182905260c0850182905260e0850182905291840181905261012084018190526101408401819052610160840181905261018084018190526101a08401529091908201906110c1565b6001600160a01b038116811461118957600080fd5b50565b803561119781611174565b919050565b634e487b7160e01b600052604160045260246000fd5b6040516080810167ffffffffffffffff811182821017156111d5576111d561119c565b60405290565b604051610180810167ffffffffffffffff811182821017156111d5576111d561119c565b604051610120810167ffffffffffffffff811182821017156111d5576111d561119c565b6040516101c0810167ffffffffffffffff811182821017156111d5576111d561119c565b6040805190810167ffffffffffffffff811182821017156111d5576111d561119c565b60405160c0810167ffffffffffffffff811182821017156111d5576111d561119c565b604051610100810167ffffffffffffffff811182821017156111d5576111d561119c565b6040516060810167ffffffffffffffff811182821017156111d5576111d561119c565b604051601f8201601f1916810167ffffffffffffffff811182821017156112fd576112fd61119c565b604052919050565b600082601f83011261131657600080fd5b813567ffffffffffffffff8111156113305761133061119c565b611343601f8201601f19166020016112d4565b81815284602083860101111561135857600080fd5b816020850160208301376000918101602001919091529392505050565b600067ffffffffffffffff82111561138f5761138f61119c565b5060051b60200190565b80356cffffffffffffffffffffffffff8116811461119757600080fd5b803563ffffffff8116811461119757600080fd5b803561ffff8116811461119757600080fd5b803562ffffff8116811461119757600080fd5b801515811461118957600080fd5b8035611197816113ef565b803560ff8116811461119757600080fd5b6000608080838503121561142c57600080fd5b6114346111b2565b9150823567ffffffffffffffff81111561144d57600080fd5b8301601f8101851361145e57600080fd5b8035602061147361146e83611375565b6112d4565b828152610180928302840182019282820191908985111561149357600080fd5b948301945b848610156115865780868b0312156114b05760008081fd5b6114b86111db565b6114c187611399565b81526114ce8588016113b6565b8582015260406114df8189016113b6565b9082015260606114f08882016113ca565b908201526114ff87890161118c565b8189015260a0878101359082015260c061151a8189016113dc565b9082015260e061152b8882016113fd565b9082015261010061153d8882016113fd565b9082015261012061154f8882016113fd565b908201526101406115618882016113fd565b908201526101606115738882016113fd565b9082015283529485019491830191611498565b508652506115958682016113b6565b81860152505050506115a960408301611408565b60408201526115ba6060830161118c565b606082015292915050565b6000608082840312156115d757600080fd5b6115df6111b2565b905081356115ec816113ef565b815260208201356115fc816113ef565b6020820152604082013561160f816113ef565b604082015260608201356115ba816113ef565b6000610180828403121561163557600080fd5b61163d6111ff565b9050813567ffffffffffffffff8082111561165757600080fd5b61166385838601611305565b8352602084013591508082111561167957600080fd5b61168585838601611305565b60208401526116966040850161118c565b604084015260608401359150808211156116af57600080fd5b6116bb85838601611305565b60608401526116cc6080850161118c565b608084015260a08401359150808211156116e557600080fd5b6116f185838601611305565b60a084015260c084013591508082111561170a57600080fd5b5061171784828501611419565b60c08301525061172960e0830161118c565b60e082015261010061173d848285016115c5565b9082015292915050565b60006101c0828403121561175a57600080fd5b611762611223565b9050813581526020820135602082015260408201356040820152611788606083016113fd565b6060820152611799608083016113fd565b60808201526117aa60a083016113fd565b60a08201526117bb60c083016113fd565b60c08201526117cc60e083016113fd565b60e08201526101006117df8184016113fd565b908201526101206117f18382016113fd565b908201526101406118038382016113fd565b908201526101606118158382016113fd565b908201526101806118278382016113fd565b81830152506101a080830135818301525092915050565b600082601f83011261184f57600080fd5b8135602061185f61146e83611375565b82815260059290921b8401810191818101908684111561187e57600080fd5b8286015b848110156119b857803567ffffffffffffffff808211156118a257600080fd5b908801906040828b03601f19018113156118bb57600080fd5b6118c3611247565b87840135815281840135838111156118da57600080fd5b8085019450508b603f8501126118ef57600080fd5b87840135925061190161146e84611375565b83815260c09093028401820192888101908d85111561191f57600080fd5b948301945b848610156119a35760c0868f03121561193c57600080fd5b61194461126a565b863561194f816113ef565b8152868b01358b8201528487013585820152606087013561196f81611174565b60608201526080878101359082015260a087013561198c81611174565b60a0820152825260c0959095019490890190611924565b828a0152508652505050918301918301611882565b509695505050505050565b600082601f8301126119d457600080fd5b813560206119e461146e83611375565b82815260069290921b84018101918181019086841115611a0357600080fd5b8286015b848110156119b85760408189031215611a205760008081fd5b611a28611247565b813581528482013585820152835291830191604001611a07565b600082601f830112611a5357600080fd5b81356020611a6361146e83611375565b82815260059290921b84018101918181019086841115611a8257600080fd5b8286015b848110156119b857803567ffffffffffffffff80821115611aa75760008081fd5b908801906080828b03601f1901811315611ac15760008081fd5b611ac96111b2565b87840135611ad681611174565b8152604084810135611ae781611174565b828a015260608581013585811115611aff5760008081fd5b611b0d8f8c838a01016119c3565b8484015250928501359284841115611b2757600091508182fd5b611b358e8b868901016119c3565b90830152508652505050918301918301611a86565b600082601f830112611b5b57600080fd5b81356020611b6b61146e83611375565b82815260059290921b84018101918181019086841115611b8a57600080fd5b8286015b848110156119b857803567ffffffffffffffff80821115611baf5760008081fd5b908801906102a0828b03601f1901811315611bca5760008081fd5b611bd261128d565b87840135815260408085013589830152606080860135828401526080915081860135818401525060a0611c0681870161118c565b8284015260c09150611c1a8e838801611747565b9083015261028085013584811115611c325760008081fd5b611c408e8b8389010161183e565b82840152505081840135915082821115611c5a5760008081fd5b611c688c8984870101611a42565b60e08201528652505050918301918301611b8e565b600082601f830112611c8e57600080fd5b81356020611c9e61146e83611375565b828152600592831b8501820192828201919087851115611cbd57600080fd5b8387015b85811015611dab57803567ffffffffffffffff80821115611ce25760008081fd5b908901906040828c03601f1901811315611cfc5760008081fd5b611d04611247565b88840135611d1181611174565b81528382013583811115611d255760008081fd5b8085019450508c603f850112611d3d57600092508283fd5b888401359250611d4f61146e84611375565b83815292861b8401820192898101908e851115611d6c5760008081fd5b948301945b84861015611d965785359350611d8684611174565b838252948a0194908a0190611d71565b828b0152508752505050928401928401611cc1565b5090979650505050505050565b60008060008060808587031215611dce57600080fd5b8435611dd981611174565b9350602085013567ffffffffffffffff80821115611df657600080fd5b611e0288838901611622565b94506040870135915080821115611e1857600080fd5b9086019060808289031215611e2c57600080fd5b611e346111b2565b823582811115611e4357600080fd5b611e4f8a828601611305565b825250602083013582811115611e6457600080fd5b611e708a828601611b4a565b602083015250604083013582811115611e8857600080fd5b611e948a828601611c7d565b604083015250606083013582811115611eac57600080fd5b611eb88a828601611305565b606083015250809450505050611ed06060860161118c565b905092959194509250565b60008060008060808587031215611ef157600080fd5b84359350602085013567ffffffffffffffff80821115611f1057600080fd5b611f1c88838901611622565b94506040870135915080821115611f3257600080fd5b9086019060808289031215611f4657600080fd5b611f4e6111b2565b82358152602083013582811115611e6457600080fd5b60008060008060808587031215611f7a57600080fd5b84359350602085013567ffffffffffffffff80821115611f9957600080fd5b611fa588838901611622565b94506040870135915080821115611fbb57600080fd5b9086019060608289031215611fcf57600080fd5b611fd76112b1565b82358152602083013582811115611fed57600080fd5b611ff98a828601611b4a565b60208301525060408301358281111561201157600080fd5b61201d8a828601611305565b6040830152509350611ed09150506060860161118c565b60006020828403121561204657600080fd5b815161205181611174565b9392505050565b60006020828403121561206a57600080fd5b5051919050565b8082018082111561209257634e487b7160e01b600052601160045260246000fd5b92915050565b6000815180845260005b818110156120be576020818501810151868301820152016120a2565b506000602082860101526020601f19601f83011685010191505092915050565b80516080808452815184820181905260009260a0916020918201918388019190865b828110156121c357845180516cffffffffffffffffffffffffff1685528281015163ffffffff908116848701526040808301519091169086015260608082015161ffff1690860152878101516001600160a01b031688860152868101518786015260c08082015162ffffff169086015260e080820151151590860152610100808201511515908601526101208082015115159086015261014080820151151590860152610160908101511515908501529381019361018090930192600101612100565b508781015163ffffffff16908901525060408087015160ff16908801526060808701516001600160a01b038116918901919091529350610540565b828152604060208201526000825161018060408401526122226101c0840182612098565b90506020840151603f19808584030160608601526122408383612098565b92506040860151915061225e60808601836001600160a01b03169052565b60608601519150808584030160a08601526122798383612098565b92506080860151915061229760c08601836001600160a01b03169052565b60a08601519150808584030160e08601526122b28383612098565b925060c086015191506101008186850301818701526122d184846120de565b935060e087015192506122f06101208701846001600160a01b03169052565b860151805115156101408701526020810151151561016087015260408101511515610180870152606081015115156101a0870152915061232d9050565b50949350505050565b634e487b7160e01b600052603260045260246000fd5b8051825260208101516020830152604081015160408301526060810151612377606084018215159052565b50608081015161238b608084018215159052565b5060a081015161239f60a084018215159052565b5060c08101516123b360c084018215159052565b5060e08101516123c760e084018215159052565b5061010081810151151590830152610120808201511515908301526101408082015115159083015261016080820151151590830152610180808201511515908301526101a0808201511515908301526101c0808201516001600160a01b0316908301526101e090810151910152565b600082825180855260208086019550808260051b8401018186016000805b858110156124fc57868403601f19018a52825180518552850151604086860181905281518187018190529187019160609081880190865b818110156124e55785518051151584528b8101518c8501528581015186850152848101516001600160a01b03908116868601526080808301519086015260a0918201511690840152948a019460c09092019160010161248b565b50509c88019c965050509285019250600101612454565b509198975050505050505050565b60008151808452602080850194506020840160005b8381101561254657815180518852830151838801526040909601959082019060010161251f565b509495945050505050565b600082825180855260208086019550808260051b84010181860160005b84811015611dab57601f19868403018952815160806001600160a01b03808351168652808784015116878701525060408083015182828801526125b38388018261250a565b92505050606080830151925085820381870152506125d1818361250a565b9a86019a945050509083019060010161256e565b600082825180855260208086019550808260051b84010181860160005b84811015611dab57858303601f19018952815180518452848101518585015260408082015190850152606080820151908501526080808201516001600160a01b03169085015260a0808201516102e0919061265f8288018261234c565b505060c0820151816102a087015261267982870182612436565b91505060e082015191508481036102c08601526126968183612551565b9a86019a9450505090830190600101612602565b600082825180855260208086019550808260051b8401018186016000805b858110156124fc57868403601f19018a52825180516001600160a01b03908116865290860151604087870181905281519087018190529087019160608701918591905b8083101561272d5784518216845293890193928901926001929092019161270b565b5050509a86019a945050918401916001016126c8565b6001600160a01b038616815260a06020820152600061276560a0830187612098565b828103604084015261277781876125e5565b9050828103606084015261278b81866126aa565b90508281036080840152610da78185612098565b6000602082840312156127b157600080fd5b8151612051816113ef565b8481526080602082015260006127d560808301866125e5565b82810360408401526127e781866126aa565b905082810360608401526127fb8185612098565b979650505050505050565b83815260606020820152600061281f60608301856125e5565b8281036040840152610540818561209856fea2646970667358221220cf45065f028e000a8e5a41ede83bdf22933cf72a4363767a4d8eac20f9eb2e0e64736f6c63430008170033",
	"devdoc": {
		"kind": "dev",
		"methods": {
			"constructor": {
				"params": {
					"directory": "The directory of terminals and controllers for projects.",
					"hookDeployer": "The 721 tiers hook deployer.",
					"permissions": "A contract storing permissions."
				}
			},
			"launchProjectFor(address,(string,string,address,string,address,string,((uint104,uint32,uint32,uint16,address,bytes32,uint24,bool,bool,bool,bool,bool)[],uint32,uint8,address),address,(bool,bool,bool,bool)),(string,(uint256,uint256,uint256,uint256,address,(uint256,uint256,uint256,bool,bool,bool,bool,bool,bool,bool,bool,bool,bool,uint256),(uint256,(bool,uint256,uint256,address,uint256,address)[])[],(address,address,(uint256,uint256)[],(uint256,uint256)[])[])[],(address,address[])[],string),address)": {
				"params": {
					"controller": "The controller that the project's rulesets will be queued with.",
					"deployTiersHookConfig": "Configuration which dictates the behavior of the 721 tiers hook which is being deployed.",
					"launchProjectConfig": "Configuration which dictates the behavior of the project which is being launched.",
					"owner": "The address to set as the owner of the project. The ERC-721 which confers this project's ownership will be sent to this address."
				},
				"returns": {
					"projectId": "The ID of the newly launched project."
				}
			},
			"launchRulesetsFor(uint256,(string,string,address,string,address,string,((uint104,uint32,uint32,uint16,address,bytes32,uint24,bool,bool,bool,bool,bool)[],uint32,uint8,address),address,(bool,bool,bool,bool)),(uint256,(uint256,uint256,uint256,uint256,address,(uint256,uint256,uint256,bool,bool,bool,bool,bool,bool,bool,bool,bool,bool,uint256),(uint256,(bool,uint256,uint256,address,uint256,address)[])[],(address,address,(uint256,uint256)[],(uint256,uint256)[])[])[],(address,address[])[],string),address)": {
				"details": "Only a project's owner or an operator with the `QUEUE_RULESETS` permission can launch its rulesets.",
				"params": {
					"controller": "The controller that the project's rulesets will be queued with.",
					"deployTiersHookConfig": "Configuration which dictates the behavior of the 721 tiers hook which is being deployed.",
					"launchRulesetsConfig": "Configuration which dictates the project's new rulesets.",
					"projectId": "The ID of the project that rulesets are being launched for."
				},
				"returns": {
					"rulesetId": "The ID of the successfully created ruleset."
				}
			},
			"queueRulesetsOf(uint256,(string,string,address,string,address,string,((uint104,uint32,uint32,uint16,address,bytes32,uint24,bool,bool,bool,bool,bool)[],uint32,uint8,address),address,(bool,bool,bool,bool)),(uint256,(uint256,uint256,uint256,uint256,address,(uint256,uint256,uint256,bool,bool,bool,bool,bool,bool,bool,bool,bool,bool,uint256),(uint256,(bool,uint256,uint256,address,uint256,address)[])[],(address,address,(uint256,uint256)[],(uint256,uint256)[])[])[],string),address)": {
				"details": "Only a project's owner or an operator with the `QUEUE_RULESETS` permission can queue its rulesets.",
				"params": {
					"controller": "The controller that the project's rulesets will be queued with.",
					"deployTiersHookConfig": "Configuration which dictates the behavior of the 721 tiers hook which is being deployed.",
					"projectId": "The ID of the project that rulesets are being queued for.",
					"queueRulesetsConfig": "Configuration which dictates the project's newly queued rulesets."
				},
				"returns": {
					"rulesetId": "The ID of the successfully created ruleset."
				}
			}
		},
		"version": 1
	},
	"userdoc": {
		"kind": "user",
		"methods": {
			"DIRECTORY()": {
				"notice": "The directory of terminals and controllers for projects."
			},
			"HOOK_DEPLOYER()": {
				"notice": "The 721 tiers hook deployer."
			},
			"PERMISSIONS()": {
				"notice": "A contract storing permissions."
			},
			"launchProjectFor(address,(string,string,address,string,address,string,((uint104,uint32,uint32,uint16,address,bytes32,uint24,bool,bool,bool,bool,bool)[],uint32,uint8,address),address,(bool,bool,bool,bool)),(string,(uint256,uint256,uint256,uint256,address,(uint256,uint256,uint256,bool,bool,bool,bool,bool,bool,bool,bool,bool,bool,uint256),(uint256,(bool,uint256,uint256,address,uint256,address)[])[],(address,address,(uint256,uint256)[],(uint256,uint256)[])[])[],(address,address[])[],string),address)": {
				"notice": "Launches a new project with a 721 tiers hook attached."
			},
			"launchRulesetsFor(uint256,(string,string,address,string,address,string,((uint104,uint32,uint32,uint16,address,bytes32,uint24,bool,bool,bool,bool,bool)[],uint32,uint8,address),address,(bool,bool,bool,bool)),(uint256,(uint256,uint256,uint256,uint256,address,(uint256,uint256,uint256,bool,bool,bool,bool,bool,bool,bool,bool,bool,bool,uint256),(uint256,(bool,uint256,uint256,address,uint256,address)[])[],(address,address,(uint256,uint256)[],(uint256,uint256)[])[])[],(address,address[])[],string),address)": {
				"notice": "Launches rulesets for a project with an attached 721 tiers hook."
			},
			"queueRulesetsOf(uint256,(string,string,address,string,address,string,((uint104,uint32,uint32,uint16,address,bytes32,uint24,bool,bool,bool,bool,bool)[],uint32,uint8,address),address,(bool,bool,bool,bool)),(uint256,(uint256,uint256,uint256,uint256,address,(uint256,uint256,uint256,bool,bool,bool,bool,bool,bool,bool,bool,bool,bool,uint256),(uint256,(bool,uint256,uint256,address,uint256,address)[])[],(address,address,(uint256,uint256)[],(uint256,uint256)[])[])[],string),address)": {
				"notice": "Queues rulesets for a project with an attached 721 tiers hook."
			}
		},
		"version": 1
	},
	"gitCommit": "0ffcece295a2a9ff3878fbb9496ab6688eab8049",
	"sourceName": "src/JB721TiersHookProjectDeployer.sol",
	"chainId": "80001",
	"linkReferences": {},
	"deployedLinkReferences": {},
	"history": []
}