{
	"format": "sphinx-sol-ct-artifact-1",
	"merkleRoot": "0xe9682556146d693e50115165d2d6c2bf9fc30b42e7e6d5a975710e8be676ca7a",
	"address": "0x972cdece28cd2764bd5c008693f2f40bf16bbfc3",
	"sourceName": "src/JBBaseSucker.sol",
	"contractName": "JBBaseSucker",
	"chainId": "0x2105",
	"abi": [
		{
			"inputs": [
				{
					"internalType": "contract JBOptimismSuckerDeployer",
					"name": "deployer",
					"type": "address"
				},
				{
					"internalType": "contract IJBDirectory",
					"name": "directory",
					"type": "address"
				},
				{
					"internalType": "contract IJBPermissions",
					"name": "permissions",
					"type": "address"
				},
				{
					"internalType": "contract IJBTokens",
					"name": "tokens",
					"type": "address"
				},
				{
					"internalType": "enum JBAddToBalanceMode",
					"name": "addToBalanceMode",
					"type": "uint8"
				},
				{
					"internalType": "address",
					"name": "trusted_forwarder",
					"type": "address"
				}
			],
			"stateMutability": "nonpayable",
			"type": "constructor"
		},
		{
			"stateMutability": "payable",
			"type": "receive"
		},
		{
			"inputs": [],
			"name": "ADD_TO_BALANCE_MODE",
			"outputs": [
				{
					"internalType": "enum JBAddToBalanceMode",
					"name": "",
					"type": "uint8"
				}
			],
			"stateMutability": "view",
			"type": "function"
		},
		{
			"inputs": [],
			"name": "DEPLOYER",
			"outputs": [
				{
					"internalType": "address",
					"name": "",
					"type": "address"
				}
			],
			"stateMutability": "view",
			"type": "function"
		},
		{
			"inputs": [],
			"name": "DIRECTORY",
			"outputs": [
				{
					"internalType": "contract IJBDirectory",
					"name": "",
					"type": "address"
				}
			],
			"stateMutability": "view",
			"type": "function"
		},
		{
			"inputs": [],
			"name": "MESSENGER_BASE_GAS_LIMIT",
			"outputs": [
				{
					"internalType": "uint32",
					"name": "",
					"type": "uint32"
				}
			],
			"stateMutability": "view",
			"type": "function"
		},
		{
			"inputs": [],
			"name": "MESSENGER_ERC20_MIN_GAS_LIMIT",
			"outputs": [
				{
					"internalType": "uint32",
					"name": "",
					"type": "uint32"
				}
			],
			"stateMutability": "view",
			"type": "function"
		},
		{
			"inputs": [],
			"name": "OPBRIDGE",
			"outputs": [
				{
					"internalType": "contract IOPStandardBridge",
					"name": "",
					"type": "address"
				}
			],
			"stateMutability": "view",
			"type": "function"
		},
		{
			"inputs": [],
			"name": "OPMESSENGER",
			"outputs": [
				{
					"internalType": "contract IOPMessenger",
					"name": "",
					"type": "address"
				}
			],
			"stateMutability": "view",
			"type": "function"
		},
		{
			"inputs": [],
			"name": "PERMISSIONS",
			"outputs": [
				{
					"internalType": "contract IJBPermissions",
					"name": "",
					"type": "address"
				}
			],
			"stateMutability": "view",
			"type": "function"
		},
		{
			"inputs": [],
			"name": "TOKENS",
			"outputs": [
				{
					"internalType": "contract IJBTokens",
					"name": "",
					"type": "address"
				}
			],
			"stateMutability": "view",
			"type": "function"
		},
		{
			"inputs": [
				{
					"internalType": "address",
					"name": "token",
					"type": "address"
				}
			],
			"name": "addOutstandingAmountToBalance",
			"outputs": [],
			"stateMutability": "nonpayable",
			"type": "function"
		},
		{
			"inputs": [
				{
					"internalType": "address",
					"name": "token",
					"type": "address"
				}
			],
			"name": "amountToAddToBalanceOf",
			"outputs": [
				{
					"internalType": "uint256",
					"name": "",
					"type": "uint256"
				}
			],
			"stateMutability": "view",
			"type": "function"
		},
		{
			"inputs": [
				{
					"components": [
						{
							"internalType": "address",
							"name": "token",
							"type": "address"
						},
						{
							"components": [
								{
									"internalType": "uint256",
									"name": "index",
									"type": "uint256"
								},
								{
									"internalType": "address",
									"name": "beneficiary",
									"type": "address"
								},
								{
									"internalType": "uint256",
									"name": "projectTokenCount",
									"type": "uint256"
								},
								{
									"internalType": "uint256",
									"name": "terminalTokenAmount",
									"type": "uint256"
								}
							],
							"internalType": "struct JBLeaf",
							"name": "leaf",
							"type": "tuple"
						},
						{
							"internalType": "bytes32[32]",
							"name": "proof",
							"type": "bytes32[32]"
						}
					],
					"internalType": "struct JBClaim",
					"name": "claimData",
					"type": "tuple"
				}
			],
			"name": "claim",
			"outputs": [],
			"stateMutability": "nonpayable",
			"type": "function"
		},
		{
			"inputs": [
				{
					"components": [
						{
							"internalType": "address",
							"name": "token",
							"type": "address"
						},
						{
							"components": [
								{
									"internalType": "uint256",
									"name": "index",
									"type": "uint256"
								},
								{
									"internalType": "address",
									"name": "beneficiary",
									"type": "address"
								},
								{
									"internalType": "uint256",
									"name": "projectTokenCount",
									"type": "uint256"
								},
								{
									"internalType": "uint256",
									"name": "terminalTokenAmount",
									"type": "uint256"
								}
							],
							"internalType": "struct JBLeaf",
							"name": "leaf",
							"type": "tuple"
						},
						{
							"internalType": "bytes32[32]",
							"name": "proof",
							"type": "bytes32[32]"
						}
					],
					"internalType": "struct JBClaim[]",
					"name": "claims",
					"type": "tuple[]"
				}
			],
			"name": "claim",
			"outputs": [],
			"stateMutability": "nonpayable",
			"type": "function"
		},
		{
			"inputs": [
				{
					"internalType": "address[]",
					"name": "tokens",
					"type": "address[]"
				}
			],
			"name": "enableEmergencyHatchFor",
			"outputs": [],
			"stateMutability": "nonpayable",
			"type": "function"
		},
		{
			"inputs": [
				{
					"components": [
						{
							"internalType": "address",
							"name": "token",
							"type": "address"
						},
						{
							"components": [
								{
									"internalType": "uint256",
									"name": "index",
									"type": "uint256"
								},
								{
									"internalType": "address",
									"name": "beneficiary",
									"type": "address"
								},
								{
									"internalType": "uint256",
									"name": "projectTokenCount",
									"type": "uint256"
								},
								{
									"internalType": "uint256",
									"name": "terminalTokenAmount",
									"type": "uint256"
								}
							],
							"internalType": "struct JBLeaf",
							"name": "leaf",
							"type": "tuple"
						},
						{
							"internalType": "bytes32[32]",
							"name": "proof",
							"type": "bytes32[32]"
						}
					],
					"internalType": "struct JBClaim",
					"name": "claimData",
					"type": "tuple"
				}
			],
			"name": "exitThroughEmergencyHatch",
			"outputs": [],
			"stateMutability": "nonpayable",
			"type": "function"
		},
		{
			"inputs": [
				{
					"components": [
						{
							"internalType": "address",
							"name": "token",
							"type": "address"
						},
						{
							"internalType": "uint256",
							"name": "amount",
							"type": "uint256"
						},
						{
							"components": [
								{
									"internalType": "uint64",
									"name": "nonce",
									"type": "uint64"
								},
								{
									"internalType": "bytes32",
									"name": "root",
									"type": "bytes32"
								}
							],
							"internalType": "struct JBInboxTreeRoot",
							"name": "remoteRoot",
							"type": "tuple"
						}
					],
					"internalType": "struct JBMessageRoot",
					"name": "root",
					"type": "tuple"
				}
			],
			"name": "fromRemote",
			"outputs": [],
			"stateMutability": "payable",
			"type": "function"
		},
		{
			"inputs": [
				{
					"internalType": "address",
					"name": "token",
					"type": "address"
				}
			],
			"name": "inboxOf",
			"outputs": [
				{
					"components": [
						{
							"internalType": "uint64",
							"name": "nonce",
							"type": "uint64"
						},
						{
							"internalType": "bytes32",
							"name": "root",
							"type": "bytes32"
						}
					],
					"internalType": "struct JBInboxTreeRoot",
					"name": "",
					"type": "tuple"
				}
			],
			"stateMutability": "view",
			"type": "function"
		},
		{
			"inputs": [
				{
					"internalType": "uint256",
					"name": "__projectId",
					"type": "uint256"
				}
			],
			"name": "initialize",
			"outputs": [],
			"stateMutability": "nonpayable",
			"type": "function"
		},
		{
			"inputs": [
				{
					"internalType": "address",
					"name": "token",
					"type": "address"
				}
			],
			"name": "isMapped",
			"outputs": [
				{
					"internalType": "bool",
					"name": "",
					"type": "bool"
				}
			],
			"stateMutability": "view",
			"type": "function"
		},
		{
			"inputs": [
				{
					"internalType": "address",
					"name": "forwarder",
					"type": "address"
				}
			],
			"name": "isTrustedForwarder",
			"outputs": [
				{
					"internalType": "bool",
					"name": "",
					"type": "bool"
				}
			],
			"stateMutability": "view",
			"type": "function"
		},
		{
			"inputs": [
				{
					"components": [
						{
							"internalType": "address",
							"name": "localToken",
							"type": "address"
						},
						{
							"internalType": "uint32",
							"name": "minGas",
							"type": "uint32"
						},
						{
							"internalType": "address",
							"name": "remoteToken",
							"type": "address"
						},
						{
							"internalType": "uint256",
							"name": "minBridgeAmount",
							"type": "uint256"
						}
					],
					"internalType": "struct JBTokenMapping",
					"name": "map",
					"type": "tuple"
				}
			],
			"name": "mapToken",
			"outputs": [],
			"stateMutability": "payable",
			"type": "function"
		},
		{
			"inputs": [
				{
					"components": [
						{
							"internalType": "address",
							"name": "localToken",
							"type": "address"
						},
						{
							"internalType": "uint32",
							"name": "minGas",
							"type": "uint32"
						},
						{
							"internalType": "address",
							"name": "remoteToken",
							"type": "address"
						},
						{
							"internalType": "uint256",
							"name": "minBridgeAmount",
							"type": "uint256"
						}
					],
					"internalType": "struct JBTokenMapping[]",
					"name": "maps",
					"type": "tuple[]"
				}
			],
			"name": "mapTokens",
			"outputs": [],
			"stateMutability": "payable",
			"type": "function"
		},
		{
			"inputs": [
				{
					"internalType": "address",
					"name": "token",
					"type": "address"
				}
			],
			"name": "outboxOf",
			"outputs": [
				{
					"components": [
						{
							"internalType": "uint64",
							"name": "nonce",
							"type": "uint64"
						},
						{
							"internalType": "uint256",
							"name": "balance",
							"type": "uint256"
						},
						{
							"components": [
								{
									"internalType": "bytes32[32]",
									"name": "branch",
									"type": "bytes32[32]"
								},
								{
									"internalType": "uint256",
									"name": "count",
									"type": "uint256"
								}
							],
							"internalType": "struct MerkleLib.Tree",
							"name": "tree",
							"type": "tuple"
						},
						{
							"internalType": "uint256",
							"name": "numberOfClaimsSent",
							"type": "uint256"
						}
					],
					"internalType": "struct JBOutboxTree",
					"name": "",
					"type": "tuple"
				}
			],
			"stateMutability": "view",
			"type": "function"
		},
		{
			"inputs": [],
			"name": "peer",
			"outputs": [
				{
					"internalType": "address",
					"name": "",
					"type": "address"
				}
			],
			"stateMutability": "view",
			"type": "function"
		},
		{
			"inputs": [],
			"name": "peerChainId",
			"outputs": [
				{
					"internalType": "uint256",
					"name": "",
					"type": "uint256"
				}
			],
			"stateMutability": "view",
			"type": "function"
		},
		{
			"inputs": [
				{
					"internalType": "uint256",
					"name": "projectTokenCount",
					"type": "uint256"
				},
				{
					"internalType": "address",
					"name": "beneficiary",
					"type": "address"
				},
				{
					"internalType": "uint256",
					"name": "minTokensReclaimed",
					"type": "uint256"
				},
				{
					"internalType": "address",
					"name": "token",
					"type": "address"
				}
			],
			"name": "prepare",
			"outputs": [],
			"stateMutability": "nonpayable",
			"type": "function"
		},
		{
			"inputs": [],
			"name": "projectId",
			"outputs": [
				{
					"internalType": "uint256",
					"name": "",
					"type": "uint256"
				}
			],
			"stateMutability": "view",
			"type": "function"
		},
		{
			"inputs": [
				{
					"internalType": "address",
					"name": "token",
					"type": "address"
				}
			],
			"name": "remoteTokenFor",
			"outputs": [
				{
					"components": [
						{
							"internalType": "bool",
							"name": "enabled",
							"type": "bool"
						},
						{
							"internalType": "bool",
							"name": "emergencyHatch",
							"type": "bool"
						},
						{
							"internalType": "uint32",
							"name": "minGas",
							"type": "uint32"
						},
						{
							"internalType": "address",
							"name": "addr",
							"type": "address"
						},
						{
							"internalType": "uint256",
							"name": "minBridgeAmount",
							"type": "uint256"
						}
					],
					"internalType": "struct JBRemoteToken",
					"name": "",
					"type": "tuple"
				}
			],
			"stateMutability": "view",
			"type": "function"
		},
		{
			"inputs": [
				{
					"internalType": "uint40",
					"name": "timestamp",
					"type": "uint40"
				}
			],
			"name": "setDeprecation",
			"outputs": [],
			"stateMutability": "nonpayable",
			"type": "function"
		},
		{
			"inputs": [],
			"name": "state",
			"outputs": [
				{
					"internalType": "enum JBSuckerState",
					"name": "",
					"type": "uint8"
				}
			],
			"stateMutability": "view",
			"type": "function"
		},
		{
			"inputs": [
				{
					"internalType": "bytes4",
					"name": "interfaceId",
					"type": "bytes4"
				}
			],
			"name": "supportsInterface",
			"outputs": [
				{
					"internalType": "bool",
					"name": "",
					"type": "bool"
				}
			],
			"stateMutability": "view",
			"type": "function"
		},
		{
			"inputs": [
				{
					"internalType": "address",
					"name": "token",
					"type": "address"
				}
			],
			"name": "toRemote",
			"outputs": [],
			"stateMutability": "payable",
			"type": "function"
		},
		{
			"inputs": [],
			"name": "trustedForwarder",
			"outputs": [
				{
					"internalType": "address",
					"name": "",
					"type": "address"
				}
			],
			"stateMutability": "view",
			"type": "function"
		},
		{
			"anonymous": false,
			"inputs": [
				{
					"indexed": false,
					"internalType": "address",
					"name": "beneficiary",
					"type": "address"
				},
				{
					"indexed": false,
					"internalType": "address",
					"name": "token",
					"type": "address"
				},
				{
					"indexed": false,
					"internalType": "uint256",
					"name": "projectTokenCount",
					"type": "uint256"
				},
				{
					"indexed": false,
					"internalType": "uint256",
					"name": "terminalTokenAmount",
					"type": "uint256"
				},
				{
					"indexed": false,
					"internalType": "uint256",
					"name": "index",
					"type": "uint256"
				},
				{
					"indexed": false,
					"internalType": "bool",
					"name": "autoAddedToBalance",
					"type": "bool"
				},
				{
					"indexed": false,
					"internalType": "address",
					"name": "caller",
					"type": "address"
				}
			],
			"name": "Claimed",
			"type": "event"
		},
		{
			"anonymous": false,
			"inputs": [
				{
					"indexed": false,
					"internalType": "uint40",
					"name": "timestamp",
					"type": "uint40"
				},
				{
					"indexed": false,
					"internalType": "address",
					"name": "caller",
					"type": "address"
				}
			],
			"name": "DeprecationTimeUpdated",
			"type": "event"
		},
		{
			"anonymous": false,
			"inputs": [
				{
					"indexed": false,
					"internalType": "address[]",
					"name": "tokens",
					"type": "address[]"
				},
				{
					"indexed": false,
					"internalType": "address",
					"name": "caller",
					"type": "address"
				}
			],
			"name": "EmergencyHatchOpened",
			"type": "event"
		},
		{
			"anonymous": false,
			"inputs": [
				{
					"indexed": false,
					"internalType": "uint64",
					"name": "version",
					"type": "uint64"
				}
			],
			"name": "Initialized",
			"type": "event"
		},
		{
			"anonymous": false,
			"inputs": [
				{
					"indexed": true,
					"internalType": "address",
					"name": "beneficiary",
					"type": "address"
				},
				{
					"indexed": true,
					"internalType": "address",
					"name": "token",
					"type": "address"
				},
				{
					"indexed": false,
					"internalType": "bytes32",
					"name": "hashed",
					"type": "bytes32"
				},
				{
					"indexed": false,
					"internalType": "uint256",
					"name": "index",
					"type": "uint256"
				},
				{
					"indexed": false,
					"internalType": "bytes32",
					"name": "root",
					"type": "bytes32"
				},
				{
					"indexed": false,
					"internalType": "uint256",
					"name": "projectTokenCount",
					"type": "uint256"
				},
				{
					"indexed": false,
					"internalType": "uint256",
					"name": "terminalTokenAmount",
					"type": "uint256"
				},
				{
					"indexed": false,
					"internalType": "address",
					"name": "caller",
					"type": "address"
				}
			],
			"name": "InsertToOutboxTree",
			"type": "event"
		},
		{
			"anonymous": false,
			"inputs": [
				{
					"indexed": true,
					"internalType": "address",
					"name": "token",
					"type": "address"
				},
				{
					"indexed": false,
					"internalType": "uint64",
					"name": "nonce",
					"type": "uint64"
				},
				{
					"indexed": false,
					"internalType": "bytes32",
					"name": "root",
					"type": "bytes32"
				},
				{
					"indexed": false,
					"internalType": "address",
					"name": "caller",
					"type": "address"
				}
			],
			"name": "NewInboxTreeRoot",
			"type": "event"
		},
		{
			"anonymous": false,
			"inputs": [
				{
					"indexed": true,
					"internalType": "bytes32",
					"name": "root",
					"type": "bytes32"
				},
				{
					"indexed": true,
					"internalType": "address",
					"name": "token",
					"type": "address"
				},
				{
					"indexed": false,
					"internalType": "uint256",
					"name": "index",
					"type": "uint256"
				},
				{
					"indexed": false,
					"internalType": "uint64",
					"name": "nonce",
					"type": "uint64"
				},
				{
					"indexed": false,
					"internalType": "address",
					"name": "caller",
					"type": "address"
				}
			],
			"name": "RootToRemote",
			"type": "event"
		},
		{
			"inputs": [],
			"name": "InvalidInitialization",
			"type": "error"
		},
		{
			"inputs": [
				{
					"internalType": "address",
					"name": "account",
					"type": "address"
				},
				{
					"internalType": "address",
					"name": "sender",
					"type": "address"
				},
				{
					"internalType": "uint256",
					"name": "projectId",
					"type": "uint256"
				},
				{
					"internalType": "uint256",
					"name": "permissionId",
					"type": "uint256"
				}
			],
			"name": "JBPermissioned_Unauthorized",
			"type": "error"
		},
		{
			"inputs": [
				{
					"internalType": "uint256",
					"name": "minGas",
					"type": "uint256"
				},
				{
					"internalType": "uint256",
					"name": "minGasLimit",
					"type": "uint256"
				}
			],
			"name": "JBSucker_BelowMinGas",
			"type": "error"
		},
		{
			"inputs": [],
			"name": "JBSucker_Deprecated",
			"type": "error"
		},
		{
			"inputs": [
				{
					"internalType": "uint256",
					"name": "givenTime",
					"type": "uint256"
				},
				{
					"internalType": "uint256",
					"name": "minimumTime",
					"type": "uint256"
				}
			],
			"name": "JBSucker_DeprecationTimestampTooSoon",
			"type": "error"
		},
		{
			"inputs": [],
			"name": "JBSucker_ExpectedMsgValue",
			"type": "error"
		},
		{
			"inputs": [
				{
					"internalType": "uint256",
					"name": "amount",
					"type": "uint256"
				},
				{
					"internalType": "uint256",
					"name": "balance",
					"type": "uint256"
				}
			],
			"name": "JBSucker_InsufficientBalance",
			"type": "error"
		},
		{
			"inputs": [
				{
					"internalType": "uint256",
					"name": "received",
					"type": "uint256"
				},
				{
					"internalType": "uint256",
					"name": "expected",
					"type": "uint256"
				}
			],
			"name": "JBSucker_InsufficientMsgValue",
			"type": "error"
		},
		{
			"inputs": [
				{
					"internalType": "address",
					"name": "remoteToken",
					"type": "address"
				}
			],
			"name": "JBSucker_InvalidNativeRemoteAddress",
			"type": "error"
		},
		{
			"inputs": [
				{
					"internalType": "bytes32",
					"name": "root",
					"type": "bytes32"
				},
				{
					"internalType": "bytes32",
					"name": "inboxRoot",
					"type": "bytes32"
				}
			],
			"name": "JBSucker_InvalidProof",
			"type": "error"
		},
		{
			"inputs": [
				{
					"internalType": "address",
					"name": "token",
					"type": "address"
				},
				{
					"internalType": "uint256",
					"name": "index",
					"type": "uint256"
				}
			],
			"name": "JBSucker_LeafAlreadyExecuted",
			"type": "error"
		},
		{
			"inputs": [
				{
					"internalType": "enum JBAddToBalanceMode",
					"name": "mode",
					"type": "uint8"
				}
			],
			"name": "JBSucker_ManualNotAllowed",
			"type": "error"
		},
		{
			"inputs": [
				{
					"internalType": "uint256",
					"name": "projectId",
					"type": "uint256"
				},
				{
					"internalType": "address",
					"name": "token",
					"type": "address"
				}
			],
			"name": "JBSucker_NoTerminalForToken",
			"type": "error"
		},
		{
			"inputs": [
				{
					"internalType": "address",
					"name": "caller",
					"type": "address"
				}
			],
			"name": "JBSucker_NotPeer",
			"type": "error"
		},
		{
			"inputs": [
				{
					"internalType": "uint256",
					"name": "amount",
					"type": "uint256"
				},
				{
					"internalType": "uint256",
					"name": "minimumAmount",
					"type": "uint256"
				}
			],
			"name": "JBSucker_QueueInsufficientSize",
			"type": "error"
		},
		{
			"inputs": [
				{
					"internalType": "address",
					"name": "localToken",
					"type": "address"
				},
				{
					"internalType": "address",
					"name": "mappedTo",
					"type": "address"
				}
			],
			"name": "JBSucker_TokenAlreadyMapped",
			"type": "error"
		},
		{
			"inputs": [
				{
					"internalType": "address",
					"name": "token",
					"type": "address"
				}
			],
			"name": "JBSucker_TokenHasInvalidEmergencyHatchState",
			"type": "error"
		},
		{
			"inputs": [
				{
					"internalType": "address",
					"name": "token",
					"type": "address"
				}
			],
			"name": "JBSucker_TokenNotMapped",
			"type": "error"
		},
		{
			"inputs": [
				{
					"internalType": "uint256",
					"name": "value",
					"type": "uint256"
				}
			],
			"name": "JBSucker_UnexpectedMsgValue",
			"type": "error"
		},
		{
			"inputs": [],
			"name": "JBSucker_ZeroBeneficiary",
			"type": "error"
		},
		{
			"inputs": [],
			"name": "JBSucker_ZeroERC20Token",
			"type": "error"
		},
		{
			"inputs": [],
			"name": "MerkleLib__insert_treeIsFull",
			"type": "error"
		},
		{
			"inputs": [],
			"name": "NotInitializing",
			"type": "error"
		},
		{
			"inputs": [
				{
					"internalType": "address",
					"name": "token",
					"type": "address"
				}
			],
			"name": "SafeERC20FailedOperation",
			"type": "error"
		}
	],
	"args": [],
	"solcInputHash": "53fa016c092dda117e332e7aba6a9761",
	"bytecode": "0x6101806040523480156200001257600080fd5b5060405162005b2338038062005b23833981016040819052620000359162000271565b6001600160a01b0380821660805280851660a052808616610100528316610120523360e05285858585858584848484848160018111156200007a576200007a62000308565b60c081600181111562000091576200009162000308565b9052506200009e620001a7565b5050505050856001600160a01b03166328db992a6040518163ffffffff1660e01b8152600401602060405180830381865afa158015620000e2573d6000803e3d6000fd5b505050506040513d601f19601f820116820180604052508101906200010891906200031e565b6001600160a01b0316610140816001600160a01b031681525050856001600160a01b031663516bf2f36040518163ffffffff1660e01b8152600401602060405180830381865afa15801562000161573d6000803e3d6000fd5b505050506040513d601f19601f820116820180604052508101906200018791906200031e565b6001600160a01b03166101605250620003459a5050505050505050505050565b7ff0c57e16840df040f15088dc2f81fe391c3923bec73e23a9662efc9c229c6a00805468010000000000000000900460ff1615620001f85760405163f92ee8a960e01b815260040160405180910390fd5b80546001600160401b0390811614620002585780546001600160401b0319166001600160401b0390811782556040519081527fc7f505b2f371ae2175ee4913f4499e1f2633a7b5936321eed1cdaeb6115181d29060200160405180910390a15b50565b6001600160a01b03811681146200025857600080fd5b60008060008060008060c087890312156200028b57600080fd5b865162000298816200025b565b6020880151909650620002ab816200025b565b6040880151909550620002be816200025b565b6060880151909450620002d1816200025b565b608088015190935060028110620002e757600080fd5b60a0880151909250620002fa816200025b565b809150509295509295509295565b634e487b7160e01b600052602160045260246000fd5b6000602082840312156200033157600080fd5b81516200033e816200025b565b9392505050565b60805160a05160c05160e051610100516101205161014051610160516156f3620004306000396000818161081b01528181612aed01528181612b3301526149760152600081816102e50152818161488201526148a901526000818161029e0152610ba101526000818161063801528181610e160152818161123201528181611bec01528181611de80152818161227f01526127910152600061075d01526000818161079101528181610fe70152818161101e015281816115140152611b640152600081816107e7015261262b0152600081816103a2015281816104cd015261453b01526156f36000f3fe6080604052600436106102025760003560e01c80637da0a8771161011d578063bf557aee116100b0578063c6525f2c1161007f578063f434c91411610064578063f434c914146107d5578063fc8fa43d14610809578063fe4b84df1461083d57600080fd5b8063c6525f2c1461077f578063cdfceeba146107c057600080fd5b8063bf557aee146106c4578063c185412914610709578063c19d93fb14610729578063c1b8411a1461074b57600080fd5b806392ee1ea7116100ec57806392ee1ea71461065a5780639e6d7d4314610671578063b59ef50f14610691578063b71c1179146106b157600080fd5b80637da0a877146104be5780637de6fba2146104f1578063802c8fa0146105f957806388bc2ef31461062657600080fd5b80633fafa1271161019557806369ce22331161016457806369ce2233146103f257806369d31fdd146104125780636d9e384b14610425578063754515591461049e57600080fd5b80633fafa12714610346578063551ebbf014610365578063572b6c05146103855780636284386a146103d257600080fd5b80632241dc52116101d15780632241dc52146102c05780632847f1f3146102d357806338eb2044146103075780633a5de07d1461031a57600080fd5b806301ffc9a71461020e5780630f6482141461024357806311cda415146102655780631d831d5c1461028c57600080fd5b3661020957005b600080fd5b34801561021a57600080fd5b5061022e610229366004614ecc565b61085d565b60405190151581526020015b60405180910390f35b34801561024f57600080fd5b5061026361025e366004614f0e565b61098e565b005b34801561027157600080fd5b50305b6040516001600160a01b03909116815260200161023a565b34801561029857600080fd5b506102747f000000000000000000000000000000000000000000000000000000000000000081565b6102636102ce366004614f27565b610a45565b3480156102df57600080fd5b506102747f000000000000000000000000000000000000000000000000000000000000000081565b610263610315366004614fae565b610b53565b34801561032657600080fd5b5061033162030d4081565b60405163ffffffff909116815260200161023a565b34801561035257600080fd5b506001545b60405190815260200161023a565b34801561037157600080fd5b50610263610380366004614fdf565b610b5d565b34801561039157600080fd5b5061022e6103a0366004615029565b7f00000000000000000000000000000000000000000000000000000000000000006001600160a01b0390811691161490565b3480156103de57600080fd5b506102636103ed366004615046565b610d90565b3480156103fe57600080fd5b5061026361040d366004615029565b610fe3565b610263610420366004614fae565b611082565b34801561043157600080fd5b50610491610440366004615029565b6040805180820190915260008082526020820152506001600160a01b03166000908152600360209081526040918290208251808401909352805467ffffffffffffffff168352600101549082015290565b60405161023a919061506d565b3480156104aa57600080fd5b506102636104b936600461508e565b611220565b3480156104ca57600080fd5b507f0000000000000000000000000000000000000000000000000000000000000000610274565b3480156104fd57600080fd5b506105a461050c366004615029565b6040805160a0808201835260008083526020808401829052838501829052606080850183905260809485018390526001600160a01b039687168352600582529185902085519384018652805460ff8082161515865261010082041615159285019290925262010000820463ffffffff169584019590955266010000000000009004909416938101939093526001909101549082015290565b60405161023a9190600060a08201905082511515825260208301511515602083015263ffffffff60408401511660408301526001600160a01b0360608401511660608301526080830151608083015292915050565b34801561060557600080fd5b50610619610614366004615029565b6113bb565b60405161023a91906150f1565b34801561063257600080fd5b506102747f000000000000000000000000000000000000000000000000000000000000000081565b34801561066657600080fd5b50610331620493e081565b34801561067d57600080fd5b5061035761068c366004615029565b61145b565b34801561069d57600080fd5b506102636106ac366004614f0e565b61148b565b6102636106bf366004615029565b6115b1565b3480156106d057600080fd5b5061022e6106df366004615029565b6001600160a01b039081166000908152600560205260409020546601000000000000900416151590565b34801561071557600080fd5b50610263610724366004615158565b6116f4565b34801561073557600080fd5b5061073e61172d565b60405161023a91906151d2565b34801561075757600080fd5b506102747f000000000000000000000000000000000000000000000000000000000000000081565b34801561078b57600080fd5b506107b37f000000000000000000000000000000000000000000000000000000000000000081565b60405161023a91906151ec565b3480156107cc57600080fd5b50610357611774565b3480156107e157600080fd5b506102747f000000000000000000000000000000000000000000000000000000000000000081565b34801561081557600080fd5b506102747f000000000000000000000000000000000000000000000000000000000000000081565b34801561084957600080fd5b50610263610858366004615200565b6117ca565b60007fffffffff0000000000000000000000000000000000000000000000000000000082167f18a5af270000000000000000000000000000000000000000000000000000000014806108f057507fffffffff0000000000000000000000000000000000000000000000000000000082167f4c74205e00000000000000000000000000000000000000000000000000000000145b8061093c57507fffffffff0000000000000000000000000000000000000000000000000000000082167ff434c91400000000000000000000000000000000000000000000000000000000145b8061098857507f01ffc9a7000000000000000000000000000000000000000000000000000000007fffffffff000000000000000000000000000000000000000000000000000000008316145b92915050565b6109c660608201356109a36020840184615029565b60808401356109b86060860160408701615029565b602086013560a0870161192f565b6080810135600460006109dc6020850185615029565b6001600160a01b03166001600160a01b031681526020019081526020016000206001016000828254610a0e919061522f565b90915550610a429050610a246020830183615029565b608083013560608401803590610a3d9060408701615029565b611b60565b50565b6000805b82811015610b0057600060046000868685818110610a6957610a69615242565b610a7f9260206080909202019081019150615029565b6001600160a01b03168152602081019190915260400160009081209150858584818110610aae57610aae615242565b9050608002016040016020810190610ac69190615029565b6001600160a01b0316148015610ae457506022810154602382015414155b15610af75782610af381615258565b9350505b50600101610a49565b5060005b82811015610b4d57610b45848483818110610b2157610b21615242565b90506080020160008411610b36576000611d09565b610b408434615272565b611d09565b600101610b04565b50505050565b610a428134611d09565b6001600160a01b038316610b9d576040517f8d3329cd00000000000000000000000000000000000000000000000000000000815260040160405180910390fd5b60007f00000000000000000000000000000000000000000000000000000000000000006001600160a01b031663ea78803f610bd760015490565b6040518263ffffffff1660e01b8152600401610bf591815260200190565b602060405180830381865afa158015610c12573d6000803e3d6000fd5b505050506040513d601f19601f82011682018060405250810190610c369190615294565b90506001600160a01b038116610c78576040517fcaa06d2000000000000000000000000000000000000000000000000000000000815260040160405180910390fd5b6001600160a01b03821660009081526005602052604090205460ff16610cda576040517f04fdbe060000000000000000000000000000000000000000000000000000000081526001600160a01b03831660048201526024015b60405180910390fd5b6000610ce461172d565b90506003816003811115610cfa57610cfa6151bc565b1480610d1757506002816003811115610d1557610d156151bc565b145b15610d4e576040517fb10f8cca00000000000000000000000000000000000000000000000000000000815260040160405180910390fd5b610d6b610d596121a3565b6001600160a01b0384169030896121b2565b6000610d798388868861222e565b9050610d878785838961241c565b50505050505050565b6000610d9a61172d565b90506003816003811115610db057610db06151bc565b1480610dcd57506002816003811115610dcb57610dcb6151bc565b145b15610e04576040517fb10f8cca00000000000000000000000000000000000000000000000000000000815260040160405180910390fd5b6000610e0f60015490565b9050610f0c7f00000000000000000000000000000000000000000000000000000000000000006001600160a01b031663293c49996040518163ffffffff1660e01b8152600401602060405180830381865afa158015610e72573d6000803e3d6000fd5b505050506040513d601f19601f82011682018060405250810190610e969190615294565b6001600160a01b0316636352211e836040518263ffffffff1660e01b8152600401610ec391815260200190565b602060405180830381865afa158015610ee0573d6000803e3d6000fd5b505050506040513d601f19601f82011682018060405250810190610f049190615294565b82601e6125a6565b6000610f1b62127500426152b1565b905064ffffffffff841615801590610f395750808464ffffffffff16105b15610f80576040517f044691ac00000000000000000000000000000000000000000000000000000000815264ffffffffff8516600482015260248101829052604401610cd1565b64ffffffffff84166000557f455efa76af2a8686dc0dd3041bda89ece5ba4691277d525e2161003bbca8b24584610fb56121a3565b6040805164ffffffffff90931683526001600160a01b0390911660208301520160405180910390a150505050565b60007f00000000000000000000000000000000000000000000000000000000000000006001811115611017576110176151bc565b14611070577f00000000000000000000000000000000000000000000000000000000000000006040517fb039c395000000000000000000000000000000000000000000000000000000008152600401610cd191906151ec565b610a428161107d8361145b565b6126f0565b61109261108d6121a3565b612ae9565b6110dc5761109e6121a3565b6040517f36183c8f0000000000000000000000000000000000000000000000000000000081526001600160a01b039091166004820152602401610cd1565b60006003816110ee6020850185615029565b6001600160a01b0316815260208101919091526040908101600020805490925067ffffffffffffffff169061112990606085019085016152c4565b67ffffffffffffffff161180156111595750600361114561172d565b6003811115611156576111566151bc565b14155b1561121c5761116e60608301604084016152c4565b815467ffffffffffffffff191667ffffffffffffffff91909116178155606082013560018201556111a26020830183615029565b6001600160a01b03167fc69d3412489554fb7820c4c2784cb644b6c79bfc117444b93977d3d33a9b8eac6111dc60608501604086016152c4565b60608501356111e96121a3565b6040805167ffffffffffffffff909416845260208401929092526001600160a01b03169082015260600160405180910390a25b5050565b600061122b60015490565b905061128e7f00000000000000000000000000000000000000000000000000000000000000006001600160a01b031663293c49996040518163ffffffff1660e01b8152600401602060405180830381865afa158015610e72573d6000803e3d6000fd5b60005b82811015611373576000600560008686858181106112b1576112b1615242565b90506020020160208101906112c69190615029565b6001600160a01b031681526020810191909152604001600090812080547fffffffffffffffffffffffffffffffffffffffffffffffffffffffffffffff00169215159290921790915560019060059086868581811061132757611327615242565b905060200201602081019061133c9190615029565b6001600160a01b03168152602081019190915260400160002080549115156101000261ff0019909216919091179055600101611291565b507f8021bce60b20a9afb57085869a3552e0ee5b272b868df894fb30c5e90e74c072838361139f6121a3565b6040516113ae939291906152ee565b60405180910390a1505050565b6113c3614e1b565b6001600160a01b0382166000908152600460209081526040918290208251608081018452815467ffffffffffffffff1681526001820154818401528351610440810180865291949293858401939192600286019284929083019184919082845b815481526020019060010190808311611423575050509183525050602091820154908201529082526023929092015491015292915050565b6001600160a01b0381166000908152600460205260408120600101546114818330612bc5565b610988919061522f565b6114c360608201356114a06020840184615029565b60808401356114b56060860160408701615029565b602086013560a08701612c92565b7faaca6f6829d340365b5e6599e0d513cbb4602b94f58ccf16ac77d8d3ae7139ef6114f46060830160408401615029565b6115016020840184615029565b60608401356080850135602086013560017f00000000000000000000000000000000000000000000000000000000000000006001811115611544576115446151bc565b14611550576000611553565b60015b61155b6121a3565b604080516001600160a01b039889168152968816602088015286019490945260608501929092526080840152151560a083015290911660c082015260e00160405180910390a1610a42610a246020830183615029565b6001600160a01b03808216600090815260056020908152604091829020825160a081018452815460ff808216151583526101008204161580159483019490945263ffffffff620100008204169482019490945266010000000000009093049093166060830152600190920154608082015290611664576040517f4bba81f00000000000000000000000000000000000000000000000000000000081526001600160a01b0383166004820152602401610cd1565b60808101516001600160a01b03831660009081526004602052604090206001015410156116e9576001600160a01b03821660009081526004602081905260409182902060010154608084015192517fc3e11b79000000000000000000000000000000000000000000000000000000008152918201526024810191909152604401610cd1565b61121c348383612d68565b60005b818110156117285761172083838381811061171457611714615242565b90506104a0020161148b565b6001016116f7565b505050565b6000805480820361174057600091505090565b61174d621275008261522f565b42101561175c57600191505090565b8042101561176c57600291505090565b600391505090565b60004660018190036117895761210591505090565b806121050361179a57600191505090565b8062aa36a7036117ae5762014a3491505090565b8062014a34036117c25762aa36a791505090565b600091505090565b7ff0c57e16840df040f15088dc2f81fe391c3923bec73e23a9662efc9c229c6a00805468010000000000000000810460ff16159067ffffffffffffffff166000811580156118155750825b905060008267ffffffffffffffff1660011480156118325750303b155b905081158015611840575080155b15611877576040517ff92ee8a900000000000000000000000000000000000000000000000000000000815260040160405180910390fd5b845467ffffffffffffffff1916600117855583156118c15784547fffffffffffffffffffffffffffffffffffffffffffffff00ffffffffffffffff16680100000000000000001785555b600186905583156119275784547fffffffffffffffffffffffffffffffffffffffffffffff00ffffffffffffffff168555604051600181527fc7f505b2f371ae2175ee4913f4499e1f2633a7b5936321eed1cdaeb6115181d29060200160405180910390a15b505050505050565b600061193961172d565b9050600381600381111561194f5761194f6151bc565b1415801561196f5750600281600381111561196c5761196c6151bc565b14155b801561199957506001600160a01b038616600090815260056020526040902054610100900460ff16155b156119db576040517f4bba81f00000000000000000000000000000000000000000000000000000000081526001600160a01b0387166004820152602401610cd1565b6001600160a01b0386166000908152600460205260409020602381015415801590611a1657508360018260230154611a13919061522f565b10155b15611a5f576040517fa4e6bcec0000000000000000000000000000000000000000000000000000000081526001600160a01b038816600482015260248101859052604401610cd1565b604080516001600160a01b03891660208201526000910160408051808303601f19018152918152815160209283012060601c60008181526002845282812060088a901c8252909352912054909150600160ff87161b1615611afe576040517fa4e6bcec0000000000000000000000000000000000000000000000000000000081526001600160a01b038916600482015260248101869052604401610cd1565b6001600160a01b03908116600090815260026020818152604080842060088a901c855282528084208054600160ff8c161b179055938b16835260049052919020611b5691611b4c9101612f88565b898888888861433e565b5050505050505050565b60017f00000000000000000000000000000000000000000000000000000000000000006001811115611b9457611b946151bc565b148015611ba057508215155b15611baf57611baf84846126f0565b6000611bba60015490565b6040517f5dd8f6aa000000000000000000000000000000000000000000000000000000008152600481018290529091507f00000000000000000000000000000000000000000000000000000000000000006001600160a01b031690635dd8f6aa90602401602060405180830381865afa158015611c3b573d6000803e3d6000fd5b505050506040513d601f19601f82011682018060405250810190611c5f9190615294565b6040517fc7fb92de00000000000000000000000000000000000000000000000000000000815260048101839052602481018590526001600160a01b03848116604483015260a06064830152600060a483018190526084830152919091169063c7fb92de9060c4016020604051808303816000875af1158015611ce5573d6000803e3d6000fd5b505050506040513d601f19601f82011682018060405250810190611927919061534e565b6000611d186020840184615029565b6001600160a01b03808216600090815260056020908152604091829020825160a081018452815460ff808216151583526101008204161580159483019490945263ffffffff6201000082041694820194909452660100000000000090930490931660608301526001909201546080820152919250611dcd576040517f4bba81f00000000000000000000000000000000000000000000000000000000081526001600160a01b0383166004820152602401610cd1565b611dd6846143f0565b6000611de160015490565b9050611ede7f00000000000000000000000000000000000000000000000000000000000000006001600160a01b031663293c49996040518163ffffffff1660e01b8152600401602060405180830381865afa158015611e44573d6000803e3d6000fd5b505050506040513d601f19601f82011682018060405250810190611e689190615294565b6001600160a01b0316636352211e836040518263ffffffff1660e01b8152600401611e9591815260200190565b602060405180830381865afa158015611eb2573d6000803e3d6000fd5b505050506040513d601f19601f82011682018060405250810190611ed69190615294565b82601c6125a6565b60608201516001600160a01b031615801590611f1f5750611f056060860160408701615029565b6001600160a01b031682606001516001600160a01b031614155b8015611f4457506000611f386060870160408801615029565b6001600160a01b031614155b8015611f6a57506001600160a01b03831660009081526004602052604090206022015415155b15611fba5760608201516040517f1460b5460000000000000000000000000000000000000000000000000000000081526001600160a01b0380861660048301529091166024820152604401610cd1565b6000611fcc6060870160408801615029565b6001600160a01b031614801561200357506001600160a01b0383166000908152600460205260409020602281015460239091015414155b1561201357612013848484612d68565b6040518060a0016040528060006001600160a01b031687604001602081019061203c9190615029565b6001600160a01b031614151515815260200160001515815260200186602001602081019061206a9190615367565b63ffffffff16815260200160006120876060890160408a01615029565b6001600160a01b0316146120aa576120a56060880160408901615029565b6120b0565b83606001515b6001600160a01b039081168252606097880135602092830152948516600090815260058252604090819020835181549385015192850151998501517fffffffffffffffffffffffffffffffffffffffffffffffffffffffffffff000090941690151561ff0019161761010092151592909202919091177fffffffffffff000000000000000000000000000000000000000000000000ffff166201000063ffffffff909916989098027fffffffffffff0000000000000000000000000000000000000000ffffffffffff16979097176601000000000000919095160293909317855550506080015160019092019190915550565b60006121ad61452b565b905090565b6040516001600160a01b038481166024830152838116604483015260648201839052610b4d9186918216906323b872dd906084015b604051602081830303815290604052915060e01b6020820180517bffffffffffffffffffffffffffffffffffffffffffffffffffffffff83818316178352505050506145a0565b60008061223a60015490565b6040517f86202650000000000000000000000000000000000000000000000000000000008152600481018290526001600160a01b0386811660248301529192506000917f00000000000000000000000000000000000000000000000000000000000000001690638620265090604401602060405180830381865afa1580156122c6573d6000803e3d6000fd5b505050506040513d601f19601f820116820180604052508101906122ea9190615294565b90506001600160a01b03811661233e576040517fb61c181f000000000000000000000000000000000000000000000000000000008152600481018390526001600160a01b0386166024820152604401610cd1565b600061234a8630612bc5565b604080516020810182526000815290517f13da83170000000000000000000000000000000000000000000000000000000081529192506001600160a01b038416916313da8317916123a991309188918d918d918d9186916004016153d3565b6020604051808303816000875af11580156123c8573d6000803e3d6000fd5b505050506040513d601f19601f820116820180604052508101906123ec919061534e565b9350806123f98730612bc5565b612403919061522f565b841461241157612411615426565b505050949350505050565b6040805160208082018790528183018590526001600160a01b03841660608084019190915283518084039091018152608090920190925280519101206000906001600160a01b03851660009081526004602090815260408083208151610440810180845295965090946124c59387936002880192849291830191849182845b81548152602001906001019080831161249b5750505091835250506020918201549101529061462a565b8051909150819060028401906124de9082906020614e47565b50602082015181602001559050508482600101600082825461250091906152b1565b92505081905550856001600160a01b0316846001600160a01b03167f584a41ff082fad99bb6e50c5767c347c762057fe5726539f0a8de49d84549c23856001856020015161254e919061522f565b61255a87600201612f88565b8c8b6125646121a3565b60408051968752602087019590955293850192909252606084015260808301526001600160a01b031660a082015260c00160405180910390a350505050505050565b60006125b06121a3565b9050836001600160a01b0316816001600160a01b03161415801561269857506040517f348b684e0000000000000000000000000000000000000000000000000000000081526001600160a01b0382811660048301528581166024830152604482018590526064820184905260016084830181905260a48301527f0000000000000000000000000000000000000000000000000000000000000000169063348b684e9060c401602060405180830381865afa158015612672573d6000803e3d6000fd5b505050506040513d601f19601f82011682018060405250810190612696919061543c565b155b15610b4d576040517f264deeaa0000000000000000000000000000000000000000000000000000000081526001600160a01b038086166004830152821660248201526044810184905260648101839052608401610cd1565b60006126fb8361145b565b905080821115612741576040517f60ec3e710000000000000000000000000000000000000000000000000000000081526004810183905260248101829052604401610cd1565b600061274c60015490565b6040517f86202650000000000000000000000000000000000000000000000000000000008152600481018290526001600160a01b0386811660248301529192506000917f00000000000000000000000000000000000000000000000000000000000000001690638620265090604401602060405180830381865afa1580156127d8573d6000803e3d6000fd5b505050506040513d601f19601f820116820180604052508101906127fc9190615294565b90506001600160a01b038116612850576040517fb61c181f000000000000000000000000000000000000000000000000000000008152600481018390526001600160a01b0386166024820152604401610cd1565b6001600160a01b03851661eeee14612a39576040517f70a082310000000000000000000000000000000000000000000000000000000081523060048201526000906001600160a01b038716906370a0823190602401602060405180830381865afa1580156128c2573d6000803e3d6000fd5b505050506040513d601f19601f820116820180604052508101906128e6919061534e565b90506128f3868387614762565b6040517f9e6eec05000000000000000000000000000000000000000000000000000000008152600481018490526001600160a01b0387811660248301526044820187905260006064830181905260c0608484015260c4830181905260e060a484015260e4830152831690639e6eec059061010401600060405180830381600087803b15801561298157600080fd5b505af1158015612995573d6000803e3d6000fd5b5050505084816129a5919061522f565b6040517f70a082310000000000000000000000000000000000000000000000000000000081523060048201526001600160a01b038816906370a0823190602401602060405180830381865afa158015612a02573d6000803e3d6000fd5b505050506040513d601f19601f82011682018060405250810190612a26919061534e565b14612a3357612a33615426565b50612ae2565b6040517f9e6eec05000000000000000000000000000000000000000000000000000000008152600481018390526001600160a01b0386811660248301526044820186905260006064830181905260c0608484015260c4830181905260e060a484015260e4830152821690639e6eec05908690610104016000604051808303818588803b158015612ac857600080fd5b505af1158015612adc573d6000803e3d6000fd5b50505050505b5050505050565b60007f00000000000000000000000000000000000000000000000000000000000000006001600160a01b0316826001600160a01b03161480156109885750306001600160a01b03167f00000000000000000000000000000000000000000000000000000000000000006001600160a01b0316636e296e456040518163ffffffff1660e01b81526004016020604051808303816000875af1158015612b91573d6000803e3d6000fd5b505050506040513d601f19601f82011682018060405250810190612bb59190615294565b6001600160a01b03161492915050565b60007fffffffffffffffffffffffffffffffffffffffffffffffffffffffffffff11126001600160a01b03841601612c0857506001600160a01b03811631610988565b6040517f70a082310000000000000000000000000000000000000000000000000000000081526001600160a01b0383811660048301528416906370a0823190602401602060405180830381865afa158015612c67573d6000803e3d6000fd5b505050506040513d601f19601f82011682018060405250810190612c8b919061534e565b9392505050565b6001600160a01b0385166000908152600260209081526040808320600886901c8452909152902054600160ff84161b1615612d0b576040517fa4e6bcec0000000000000000000000000000000000000000000000000000000081526001600160a01b038616600482015260248101839052604401610cd1565b6001600160a01b0385166000908152600260209081526040808320600886901c845290915290208054600160ff85161b1790556001600160a01b03851660009081526003602052604090206001015461192790878686868661433e565b60608101516001600160a01b0316612db7576040517f04fdbe060000000000000000000000000000000000000000000000000000000081526001600160a01b0383166004820152602401610cd1565b6000612dc161172d565b90506003816003811115612dd757612dd76151bc565b1480612df457506002816003811115612df257612df26151bc565b145b15612e2b576040517fb10f8cca00000000000000000000000000000000000000000000000000000000815260040160405180910390fd5b6001600160a01b03831660009081526004602052604081206001810180549083905581549192909183908290612e6a9067ffffffffffffffff1661545e565b91906101000a81548167ffffffffffffffff021916908367ffffffffffffffff160217905590506000612e9f84600201612f88565b6022850154602386018190559091506000612ebb60018361522f565b9050886001600160a01b0316837f47c5615513b0f669da2dd7e3362a34610ca2695d0a0e2da2160cee952eab203c8387612ef36121a3565b6040805193845267ffffffffffffffff90921660208401526001600160a01b03169082015260600160405180910390a3600060405180606001604052808a606001516001600160a01b0316815260200187815260200160405180604001604052808867ffffffffffffffff168152602001878152508152509050612f7b8b838c898d86614820565b5050505050505050505050565b6020810154600090808203612fbf57507f27ae5ba08d7291c96c8cbddcc148bf48a6d68c7974b94356f53754ef6171d75792915050565b6000836001831615612fe1578054600052600060205260406000209350613894565b60028316156130265760018101546000527fad3228b676f7d3cd4284a5443f17f1962b36e491b30a40b2405849e597ba5fb56020526040600020935060019150613894565b600483161561306b5760028101546000527fb4c11951957c6f8f642c4af61cd6b24640fec6dc7fc607ee8206a99e92410d306020526040600020935060029150613894565b60088316156130b05760038101546000527f21ddb9a356815c3fac1026b6dec5df3124afbadb485c9ba5a3e3398a04b7ba856020526040600020935060039150613894565b60108316156130f55760048101546000527fe58769b32a1beaf1ea27375a44095a0d1fb664ce2dd358e7fcbfb78c26a193446020526040600020935060049150613894565b602083161561313a5760058101546000527f0eb01ebfc9ed27500cd4dfc979272d1f0913cc9f66540d7e8005811109e1cf2d6020526040600020935060059150613894565b604083161561317f5760068101546000527f887c22bd8750d34016ac3c66b5ff102dacdd73f6b014e710b51e8022af9a19686020526040600020935060069150613894565b60808316156131c45760078101546000527fffd70157e48063fc33c97a050f7f640233bf646cc98d9524c6b92bcf3ab56f836020526040600020935060079150613894565b61010083161561320a5760088101546000527f9867cc5f7f196b93bae1e27e6320742445d290f2263827498b54fec539f756af6020526040600020935060089150613894565b6102008316156132505760098101546000527fcefad4e508c098b9a7e1d8feb19955fb02ba9675585078710969d3440f5054e06020526040600020935060099150613894565b61040083161561329657600a8101546000527ff9dc3e7fe016e050eff260334f18a5d4fe391d82092319f5964f2e2eb7c1c3a560205260406000209350600a9150613894565b6108008316156132dc57600b8101546000527ff8b13a49e282f609c317a833fb8d976d11517c571d1221a265d25af778ecf89260205260406000209350600b9150613894565b61100083161561332257600c8101546000527f3490c6ceeb450aecdc82e28293031d10c7d73bf85e57bf041a97360aa2c5d99c60205260406000209350600c9150613894565b61200083161561336857600d8101546000527fc1df82d9c4b87413eae2ef048f94b4d3554cea73d92b0f7af96e0271c691e2bb60205260406000209350600d9150613894565b6140008316156133ae57600e8101546000527f5c67add7c6caf302256adedf7ab114da0acfe870d449a3a489f781d659e8becc60205260406000209350600e9150613894565b6180008316156133f457600f8101546000527fda7bce9f4e8618b6bd2f4132ce798cdc7a60e7e1460a7299e3c6342a579626d260205260406000209350600f9150613894565b6201000083161561343b5760108101546000527f2733e50f526ec2fa19a22b31e8ed50f23cd1fdf94c9154ed3a7609a2f1ff981f6020526040600020935060109150613894565b620200008316156134825760118101546000527fe1d3b5c807b281e4683cc6d6315cf95b9ade8641defcb32372f1c126e398ef7a6020526040600020935060119150613894565b620400008316156134c95760128101546000527f5a2dce0a8a7f68bb74560f8f71837c2c2ebbcbf7fffb42ae1896f13f7c7479a06020526040600020935060129150613894565b620800008316156135105760138101546000527fb46a28b6f55540f89444f63de0378e3d121be09e06cc9ded1c20e65876d36aa06020526040600020935060139150613894565b621000008316156135575760148101546000527fc65e9645644786b620e2dd2ad648ddfcbf4a7e5b1a3a4ecfe7f64667a3f0b7e26020526040600020935060149150613894565b6220000083161561359e5760158101546000527ff4418588ed35a2458cffeb39b93d26f18d2ab13bdce6aee58e7b99359ec2dfd96020526040600020935060159150613894565b624000008316156135e55760168101546000527f5a9c16dc00d6ef18b7933a6f8dc65ccb55667138776f7dea101070dc8796e3776020526040600020935060169150613894565b6280000083161561362c5760178101546000527f4df84f40ae0c8229d0d6069e5c8f39a7c299677a09d367fc7b05e3bc380ee6526020526040600020935060179150613894565b63010000008316156136745760188101546000527fcdc72595f74c7b1043d0e1ffbab734648c838dfb0527d971b602bc216c9619ef6020526040600020935060189150613894565b63020000008316156136bc5760198101546000527f0abf5ac974a1ed57f4050aa510dd9c74f508277b39d7973bb2dfccc5eeb0618d6020526040600020935060199150613894565b630400000083161561370457601a8101546000527fb8cd74046ff337f0a7bf2c8e03e10f642c1886798d71806ab1e888d9e5ee87d060205260406000209350601a9150613894565b630800000083161561374c57601b8101546000527f838c5655cb21c6cb83313b5a631175dff4963772cce9108188b34ac87c81c41e60205260406000209350601b9150613894565b631000000083161561379457601c8101546000527f662ee4dd2dd7b2bc707961b1e646c4047669dcb6584f0d8d770daf5d7e7deb2e60205260406000209350601c9150613894565b63200000008316156137dc57601d8101546000527f388ab20e2573d171a88108e79d820e98f26c0b84aa8b2f4aa4968dbb818ea32260205260406000209350601d9150613894565b634000000083161561382457601e8101546000527f93237c50ba75ee485f4c22adf2f741400bdf8d6a9cc7df7ecae576221665d73560205260406000209350601e9150613894565b638000000083161561386c57601f8101546000527f8448818bb4ae4562849e949e17ac16e0be16688e156b5cf15e098c627c0056a960205260406000209350601f9150613894565b7f27ae5ba08d7291c96c8cbddcc148bf48a6d68c7974b94356f53754ef6171d7579350602091505b601e82116143365760018210156138f2576002831680156138c0576001820154600052846020526138e9565b846000527fad3228b676f7d3cd4284a5443f17f1962b36e491b30a40b2405849e597ba5fb56020525b50604060002093505b6002821015613948576004831680156139165760028201546000528460205261393f565b846000527fb4c11951957c6f8f642c4af61cd6b24640fec6dc7fc607ee8206a99e92410d306020525b50604060002093505b600382101561399e5760088316801561396c57600382015460005284602052613995565b846000527f21ddb9a356815c3fac1026b6dec5df3124afbadb485c9ba5a3e3398a04b7ba856020525b50604060002093505b60048210156139f4576010831680156139c2576004820154600052846020526139eb565b846000527fe58769b32a1beaf1ea27375a44095a0d1fb664ce2dd358e7fcbfb78c26a193446020525b50604060002093505b6005821015613a4a57602083168015613a1857600582015460005284602052613a41565b846000527f0eb01ebfc9ed27500cd4dfc979272d1f0913cc9f66540d7e8005811109e1cf2d6020525b50604060002093505b6006821015613aa057604083168015613a6e57600682015460005284602052613a97565b846000527f887c22bd8750d34016ac3c66b5ff102dacdd73f6b014e710b51e8022af9a19686020525b50604060002093505b6007821015613af657608083168015613ac457600782015460005284602052613aed565b846000527fffd70157e48063fc33c97a050f7f640233bf646cc98d9524c6b92bcf3ab56f836020525b50604060002093505b6008821015613b4d5761010083168015613b1b57600882015460005284602052613b44565b846000527f9867cc5f7f196b93bae1e27e6320742445d290f2263827498b54fec539f756af6020525b50604060002093505b6009821015613ba45761020083168015613b7257600982015460005284602052613b9b565b846000527fcefad4e508c098b9a7e1d8feb19955fb02ba9675585078710969d3440f5054e06020525b50604060002093505b600a821015613bfb5761040083168015613bc957600a82015460005284602052613bf2565b846000527ff9dc3e7fe016e050eff260334f18a5d4fe391d82092319f5964f2e2eb7c1c3a56020525b50604060002093505b600b821015613c525761080083168015613c2057600b82015460005284602052613c49565b846000527ff8b13a49e282f609c317a833fb8d976d11517c571d1221a265d25af778ecf8926020525b50604060002093505b600c821015613ca95761100083168015613c7757600c82015460005284602052613ca0565b846000527f3490c6ceeb450aecdc82e28293031d10c7d73bf85e57bf041a97360aa2c5d99c6020525b50604060002093505b600d821015613d005761200083168015613cce57600d82015460005284602052613cf7565b846000527fc1df82d9c4b87413eae2ef048f94b4d3554cea73d92b0f7af96e0271c691e2bb6020525b50604060002093505b600e821015613d575761400083168015613d2557600e82015460005284602052613d4e565b846000527f5c67add7c6caf302256adedf7ab114da0acfe870d449a3a489f781d659e8becc6020525b50604060002093505b600f821015613dae5761800083168015613d7c57600f82015460005284602052613da5565b846000527fda7bce9f4e8618b6bd2f4132ce798cdc7a60e7e1460a7299e3c6342a579626d26020525b50604060002093505b6010821015613e06576201000083168015613dd457601082015460005284602052613dfd565b846000527f2733e50f526ec2fa19a22b31e8ed50f23cd1fdf94c9154ed3a7609a2f1ff981f6020525b50604060002093505b6011821015613e5e576202000083168015613e2c57601182015460005284602052613e55565b846000527fe1d3b5c807b281e4683cc6d6315cf95b9ade8641defcb32372f1c126e398ef7a6020525b50604060002093505b6012821015613eb6576204000083168015613e8457601282015460005284602052613ead565b846000527f5a2dce0a8a7f68bb74560f8f71837c2c2ebbcbf7fffb42ae1896f13f7c7479a06020525b50604060002093505b6013821015613f0e576208000083168015613edc57601382015460005284602052613f05565b846000527fb46a28b6f55540f89444f63de0378e3d121be09e06cc9ded1c20e65876d36aa06020525b50604060002093505b6014821015613f66576210000083168015613f3457601482015460005284602052613f5d565b846000527fc65e9645644786b620e2dd2ad648ddfcbf4a7e5b1a3a4ecfe7f64667a3f0b7e26020525b50604060002093505b6015821015613fbe576220000083168015613f8c57601582015460005284602052613fb5565b846000527ff4418588ed35a2458cffeb39b93d26f18d2ab13bdce6aee58e7b99359ec2dfd96020525b50604060002093505b6016821015614016576240000083168015613fe45760168201546000528460205261400d565b846000527f5a9c16dc00d6ef18b7933a6f8dc65ccb55667138776f7dea101070dc8796e3776020525b50604060002093505b601782101561406e57628000008316801561403c57601782015460005284602052614065565b846000527f4df84f40ae0c8229d0d6069e5c8f39a7c299677a09d367fc7b05e3bc380ee6526020525b50604060002093505b60188210156140c757630100000083168015614095576018820154600052846020526140be565b846000527fcdc72595f74c7b1043d0e1ffbab734648c838dfb0527d971b602bc216c9619ef6020525b50604060002093505b6019821015614120576302000000831680156140ee57601982015460005284602052614117565b846000527f0abf5ac974a1ed57f4050aa510dd9c74f508277b39d7973bb2dfccc5eeb0618d6020525b50604060002093505b601a8210156141795763040000008316801561414757601a82015460005284602052614170565b846000527fb8cd74046ff337f0a7bf2c8e03e10f642c1886798d71806ab1e888d9e5ee87d06020525b50604060002093505b601b8210156141d2576308000000831680156141a057601b820154600052846020526141c9565b846000527f838c5655cb21c6cb83313b5a631175dff4963772cce9108188b34ac87c81c41e6020525b50604060002093505b601c82101561422b576310000000831680156141f957601c82015460005284602052614222565b846000527f662ee4dd2dd7b2bc707961b1e646c4047669dcb6584f0d8d770daf5d7e7deb2e6020525b50604060002093505b601d8210156142845763200000008316801561425257601d8201546000528460205261427b565b846000527f388ab20e2573d171a88108e79d820e98f26c0b84aa8b2f4aa4968dbb818ea3226020525b50604060002093505b601e8210156142dd576340000000831680156142ab57601e820154600052846020526142d4565b846000527f93237c50ba75ee485f4c22adf2f741400bdf8d6a9cc7df7ecae576221665d7356020525b50604060002093505b601f8210156143365763800000008316801561430457601f8201546000528460205261432d565b846000527f8448818bb4ae4562849e949e17ac16e0be16688e156b5cf15e098c627c0056a96020525b50604060002093505b505050919050565b6040805160208082018890528183018790526001600160a01b03861660608084019190915283518084039091018152608083018085528151918301919091206104809093019093526000926143ac92918590828261040080828437600092019190915250879150614a7e9050565b9050868114610d87576040517ee587d20000000000000000000000000000000000000000000000000000000081526004810182905260248101889052604401610cd1565b600061eeee6144026020840184615029565b6001600160a01b0316149050808015614435575061eeee6144296060840160408501615029565b6001600160a01b031614155b801561445a5750600061444e6060840160408501615029565b6001600160a01b031614155b156144ad5761446f6060830160408401615029565b6040517ff41f6def0000000000000000000000000000000000000000000000000000000081526001600160a01b039091166004820152602401610cd1565b62030d406144c16040840160208501615367565b63ffffffff161080156144d2575080155b1561121c576144e76040830160208401615367565b6040517f555d0f1000000000000000000000000000000000000000000000000000000000815263ffffffff909116600482015262030d406024820152604401610cd1565b6000366014336001600160a01b037f0000000000000000000000000000000000000000000000000000000000000000161480156145685750808210155b156145985760003661457a838561522f565b614585928290615485565b61458e916154af565b60601c9250505090565b339250505090565b600080602060008451602086016000885af1806145c3576040513d6000823e3d81fd5b50506000513d915081156145db5780600114156145e8565b6001600160a01b0384163b155b15610b4d576040517f5274afe70000000000000000000000000000000000000000000000000000000081526001600160a01b0385166004820152602401610cd1565b614632614e85565b600083602001805161464390615258565b9081905290506001614657602060026155db565b614661919061522f565b81111561469a576040517f8eab04bb00000000000000000000000000000000000000000000000000000000815260040160405180910390fd5b60005b602081101561472f57816001166001036146d6578451849082602081106146c6576146c6615242565b6020020152508391506109889050565b845181602081106146e9576146e9615242565b602002015184604051602001614709929190918252602082015260400190565b60408051601f1981840301815291905280516020909101209350600191821c910161469d565b506040517f8eab04bb00000000000000000000000000000000000000000000000000000000815260040160405180910390fd5b604080516001600160a01b038416602482015260448082018490528251808303909101815260649091019091526020810180517bffffffffffffffffffffffffffffffffffffffffffffffffffffffff167f095ea7b3000000000000000000000000000000000000000000000000000000001790526147e18482614dcc565b610b4d576040516001600160a01b0384811660248301526000604483015261481691869182169063095ea7b3906064016121e7565b610b4d84826145a0565b6000861561485d576040517fd7468c3200000000000000000000000000000000000000000000000000000000815260048101889052602401610cd1565b6001600160a01b03851661eeee1480159061487757508315155b15614969576148a7857f000000000000000000000000000000000000000000000000000000000000000086614762565b7f00000000000000000000000000000000000000000000000000000000000000006001600160a01b031663540abf738685606001516148e33090565b60408089015181516020810183526000815291517fffffffff0000000000000000000000000000000000000000000000000000000060e088901b168152614932959493928c92916004016155e7565b600060405180830381600087803b15801561494c57600080fd5b505af1158015614960573d6000803e3d6000fd5b5050505061496c565b50825b6001600160a01b037f000000000000000000000000000000000000000000000000000000000000000016633dbb202b8230856040516024016149ae9190615639565b60408051601f198184030181529181526020820180517bffffffffffffffffffffffffffffffffffffffffffffffffffffffff167f69d31fdd00000000000000000000000000000000000000000000000000000000179052517fffffffff0000000000000000000000000000000000000000000000000000000060e086901b168152614a43929190620493e090600401615685565b6000604051808303818588803b158015614a5c57600080fd5b505af1158015614a70573d6000803e3d6000fd5b505050505050505050505050565b6020600582811b8216948552835194820394909452604060008181206002851615871b808503919091528386015190528181206004851615871b808503919091528286015190528181206008851615871b80850391909152606086015190528181206010851615871b8085039190915260808087015190915282822084861615881b8086039190915260a0870151905282822083861615881b8086039190915260c0870151905282822090851615871b8085039190915260e0860151905281812061010080861615881b80860392909252860151905281812061020080861615881b80860392909252610120870151909152828220610400861615881b808603919091526101408701519052828220610800861615881b808603919091526101608701519052828220611000861615881b808603919091526101808701519052828220612000861615881b808603919091526101a08701519052828220614000861615881b808603919091526101c08701519052828220618000861615881b808603919091526101e0870151905282822062010000861615881b8086039190915290860151905281812062020000851615871b80850391909152610220860151905281812062040000851615871b80850391909152610240860151905281812062080000851615871b80850391909152610260860151905281812062100000851615871b80850391909152610280860151905281812062200000851615871b808503919091526102a0860151905281812062400000851615871b808503919091526102c0860151905281812062800000851615871b808503919091526102e086015190528181206301000000851615871b8085039190915261030086015190528181206302000000851615871b8085039190915261032086015190528181206304000000851615871b8085039190915261034086015190528181206308000000851615871b8085039190915261036086015190528181206310000000851615871b8085039190915261038086015190528181206320000000851615871b808503919091526103a086015190528181206340000000851615871b808503919091526103c0860151905281812063800000009094161590951b91829003929092526103e090920151909152902090565b6000806000806020600086516020880160008a5af192503d91506000519050828015614e1157508115614e025780600114614e11565b6000866001600160a01b03163b115b9695505050505050565b6040805160808101825260008082526020820152908101614e3a614e85565b8152602001600081525090565b8260208101928215614e75579160200282015b82811115614e75578251825591602001919060010190614e5a565b50614e81929150614e98565b5090565b6040518060400160405280614e3a614ead565b5b80821115614e815760008155600101614e99565b6040518061040001604052806020906020820280368337509192915050565b600060208284031215614ede57600080fd5b81357fffffffff0000000000000000000000000000000000000000000000000000000081168114612c8b57600080fd5b60006104a08284031215614f2157600080fd5b50919050565b60008060208385031215614f3a57600080fd5b823567ffffffffffffffff80821115614f5257600080fd5b818501915085601f830112614f6657600080fd5b813581811115614f7557600080fd5b8660208260071b8501011115614f8a57600080fd5b60209290920196919550909350505050565b600060808284031215614f2157600080fd5b600060808284031215614fc057600080fd5b612c8b8383614f9c565b6001600160a01b0381168114610a4257600080fd5b60008060008060808587031215614ff557600080fd5b84359350602085013561500781614fca565b925060408501359150606085013561501e81614fca565b939692955090935050565b60006020828403121561503b57600080fd5b8135612c8b81614fca565b60006020828403121561505857600080fd5b813564ffffffffff81168114612c8b57600080fd5b815167ffffffffffffffff1681526020808301519082015260408101610988565b600080602083850312156150a157600080fd5b823567ffffffffffffffff808211156150b957600080fd5b818501915085601f8301126150cd57600080fd5b8135818111156150dc57600080fd5b8660208260051b8501011115614f8a57600080fd5b815167ffffffffffffffff1681526020808301518183015260408084015180516104808501939260009086015b8482101561513c57825181529184019160019190910190840161511e565b5050500151610440830152606092909201516104609091015290565b6000806020838503121561516b57600080fd5b823567ffffffffffffffff8082111561518357600080fd5b818501915085601f83011261519757600080fd5b8135818111156151a657600080fd5b8660206104a083028501011115614f8a57600080fd5b634e487b7160e01b600052602160045260246000fd5b60208101600483106151e6576151e66151bc565b91905290565b60208101600283106151e6576151e66151bc565b60006020828403121561521257600080fd5b5035919050565b634e487b7160e01b600052601160045260246000fd5b8181038181111561098857610988615219565b634e487b7160e01b600052603260045260246000fd5b6000600019820361526b5761526b615219565b5060010190565b60008261528f57634e487b7160e01b600052601260045260246000fd5b500490565b6000602082840312156152a657600080fd5b8151612c8b81614fca565b8082018082111561098857610988615219565b6000602082840312156152d657600080fd5b813567ffffffffffffffff81168114612c8b57600080fd5b6040808252810183905260008460608301825b8681101561533157823561531481614fca565b6001600160a01b0316825260209283019290910190600101615301565b5080925050506001600160a01b0383166020830152949350505050565b60006020828403121561536057600080fd5b5051919050565b60006020828403121561537957600080fd5b813563ffffffff81168114612c8b57600080fd5b6000815180845260005b818110156153b357602081850181015186830182015201615397565b506000602082860101526020601f19601f83011685010191505092915050565b60006001600160a01b03808a168352886020840152876040840152808716606084015285608084015280851660a08401525060e060c083015261541960e083018461538d565b9998505050505050505050565b634e487b7160e01b600052600160045260246000fd5b60006020828403121561544e57600080fd5b81518015158114612c8b57600080fd5b600067ffffffffffffffff80831681810361547b5761547b615219565b6001019392505050565b6000808585111561549557600080fd5b838611156154a257600080fd5b5050820193919092039150565b7fffffffffffffffffffffffffffffffffffffffff00000000000000000000000081358181169160148510156154ef5780818660140360031b1b83161692505b505092915050565b600181815b8085111561553257816000190482111561551857615518615219565b8085161561552557918102915b93841c93908002906154fc565b509250929050565b60008261554957506001610988565b8161555657506000610988565b816001811461556c576002811461557657615592565b6001915050610988565b60ff84111561558757615587615219565b50506001821b610988565b5060208310610133831016604e8410600b84101617156155b5575081810a610988565b6155bf83836154f7565b80600019048211156155d3576155d3615219565b029392505050565b6000612c8b838361553a565b60006001600160a01b038089168352808816602084015280871660408401525084606083015263ffffffff8416608083015260c060a083015261562d60c083018461538d565b98975050505050505050565b60006080820190506001600160a01b03835116825260208301516020830152604083015161567e6040840182805167ffffffffffffffff168252602090810151910152565b5092915050565b6001600160a01b03841681526060602082015260006156a7606083018561538d565b905063ffffffff8316604083015294935050505056fea2646970667358221220ae76473fe88d8009e6e90549a401f8497c263ee4c6e18bd8a9a192059e7e697a64736f6c63430008170033",
	"deployedBytecode": "0x6080604052600436106102025760003560e01c80637da0a8771161011d578063bf557aee116100b0578063c6525f2c1161007f578063f434c91411610064578063f434c914146107d5578063fc8fa43d14610809578063fe4b84df1461083d57600080fd5b8063c6525f2c1461077f578063cdfceeba146107c057600080fd5b8063bf557aee146106c4578063c185412914610709578063c19d93fb14610729578063c1b8411a1461074b57600080fd5b806392ee1ea7116100ec57806392ee1ea71461065a5780639e6d7d4314610671578063b59ef50f14610691578063b71c1179146106b157600080fd5b80637da0a877146104be5780637de6fba2146104f1578063802c8fa0146105f957806388bc2ef31461062657600080fd5b80633fafa1271161019557806369ce22331161016457806369ce2233146103f257806369d31fdd146104125780636d9e384b14610425578063754515591461049e57600080fd5b80633fafa12714610346578063551ebbf014610365578063572b6c05146103855780636284386a146103d257600080fd5b80632241dc52116101d15780632241dc52146102c05780632847f1f3146102d357806338eb2044146103075780633a5de07d1461031a57600080fd5b806301ffc9a71461020e5780630f6482141461024357806311cda415146102655780631d831d5c1461028c57600080fd5b3661020957005b600080fd5b34801561021a57600080fd5b5061022e610229366004614ecc565b61085d565b60405190151581526020015b60405180910390f35b34801561024f57600080fd5b5061026361025e366004614f0e565b61098e565b005b34801561027157600080fd5b50305b6040516001600160a01b03909116815260200161023a565b34801561029857600080fd5b506102747f000000000000000000000000a59e9f424901fb9dbd8913a9a32a081f9425bf3681565b6102636102ce366004614f27565b610a45565b3480156102df57600080fd5b506102747f000000000000000000000000420000000000000000000000000000000000001081565b610263610315366004614fae565b610b53565b34801561032657600080fd5b5061033162030d4081565b60405163ffffffff909116815260200161023a565b34801561035257600080fd5b506001545b60405190815260200161023a565b34801561037157600080fd5b50610263610380366004614fdf565b610b5d565b34801561039157600080fd5b5061022e6103a0366004615029565b7f0000000000000000000000008a5ba591ed2bed5691a378c65611ed492500f8876001600160a01b0390811691161490565b3480156103de57600080fd5b506102636103ed366004615046565b610d90565b3480156103fe57600080fd5b5061026361040d366004615029565b610fe3565b610263610420366004614fae565b611082565b34801561043157600080fd5b50610491610440366004615029565b6040805180820190915260008082526020820152506001600160a01b03166000908152600360209081526040918290208251808401909352805467ffffffffffffffff168352600101549082015290565b60405161023a919061506d565b3480156104aa57600080fd5b506102636104b936600461508e565b611220565b3480156104ca57600080fd5b507f0000000000000000000000008a5ba591ed2bed5691a378c65611ed492500f887610274565b3480156104fd57600080fd5b506105a461050c366004615029565b6040805160a0808201835260008083526020808401829052838501829052606080850183905260809485018390526001600160a01b039687168352600582529185902085519384018652805460ff8082161515865261010082041615159285019290925262010000820463ffffffff169584019590955266010000000000009004909416938101939093526001909101549082015290565b60405161023a9190600060a08201905082511515825260208301511515602083015263ffffffff60408401511660408301526001600160a01b0360608401511660608301526080830151608083015292915050565b34801561060557600080fd5b50610619610614366004615029565b6113bb565b60405161023a91906150f1565b34801561063257600080fd5b506102747f0000000000000000000000000bc9f153dee4d3d474ce0903775b9b2aaae9aa4181565b34801561066657600080fd5b50610331620493e081565b34801561067d57600080fd5b5061035761068c366004615029565b61145b565b34801561069d57600080fd5b506102636106ac366004614f0e565b61148b565b6102636106bf366004615029565b6115b1565b3480156106d057600080fd5b5061022e6106df366004615029565b6001600160a01b039081166000908152600560205260409020546601000000000000900416151590565b34801561071557600080fd5b50610263610724366004615158565b6116f4565b34801561073557600080fd5b5061073e61172d565b60405161023a91906151d2565b34801561075757600080fd5b506102747f0000000000000000000000004e59b44847b379578588920ca78fbf26c0b4956c81565b34801561078b57600080fd5b506107b37f000000000000000000000000000000000000000000000000000000000000000081565b60405161023a91906151ec565b3480156107cc57600080fd5b50610357611774565b3480156107e157600080fd5b506102747f000000000000000000000000f5ca295dc286a176e35ebb7833031fd95550eb1481565b34801561081557600080fd5b506102747f000000000000000000000000420000000000000000000000000000000000000781565b34801561084957600080fd5b50610263610858366004615200565b6117ca565b60007fffffffff0000000000000000000000000000000000000000000000000000000082167f18a5af270000000000000000000000000000000000000000000000000000000014806108f057507fffffffff0000000000000000000000000000000000000000000000000000000082167f4c74205e00000000000000000000000000000000000000000000000000000000145b8061093c57507fffffffff0000000000000000000000000000000000000000000000000000000082167ff434c91400000000000000000000000000000000000000000000000000000000145b8061098857507f01ffc9a7000000000000000000000000000000000000000000000000000000007fffffffff000000000000000000000000000000000000000000000000000000008316145b92915050565b6109c660608201356109a36020840184615029565b60808401356109b86060860160408701615029565b602086013560a0870161192f565b6080810135600460006109dc6020850185615029565b6001600160a01b03166001600160a01b031681526020019081526020016000206001016000828254610a0e919061522f565b90915550610a429050610a246020830183615029565b608083013560608401803590610a3d9060408701615029565b611b60565b50565b6000805b82811015610b0057600060046000868685818110610a6957610a69615242565b610a7f9260206080909202019081019150615029565b6001600160a01b03168152602081019190915260400160009081209150858584818110610aae57610aae615242565b9050608002016040016020810190610ac69190615029565b6001600160a01b0316148015610ae457506022810154602382015414155b15610af75782610af381615258565b9350505b50600101610a49565b5060005b82811015610b4d57610b45848483818110610b2157610b21615242565b90506080020160008411610b36576000611d09565b610b408434615272565b611d09565b600101610b04565b50505050565b610a428134611d09565b6001600160a01b038316610b9d576040517f8d3329cd00000000000000000000000000000000000000000000000000000000815260040160405180910390fd5b60007f000000000000000000000000a59e9f424901fb9dbd8913a9a32a081f9425bf366001600160a01b031663ea78803f610bd760015490565b6040518263ffffffff1660e01b8152600401610bf591815260200190565b602060405180830381865afa158015610c12573d6000803e3d6000fd5b505050506040513d601f19601f82011682018060405250810190610c369190615294565b90506001600160a01b038116610c78576040517fcaa06d2000000000000000000000000000000000000000000000000000000000815260040160405180910390fd5b6001600160a01b03821660009081526005602052604090205460ff16610cda576040517f04fdbe060000000000000000000000000000000000000000000000000000000081526001600160a01b03831660048201526024015b60405180910390fd5b6000610ce461172d565b90506003816003811115610cfa57610cfa6151bc565b1480610d1757506002816003811115610d1557610d156151bc565b145b15610d4e576040517fb10f8cca00000000000000000000000000000000000000000000000000000000815260040160405180910390fd5b610d6b610d596121a3565b6001600160a01b0384169030896121b2565b6000610d798388868861222e565b9050610d878785838961241c565b50505050505050565b6000610d9a61172d565b90506003816003811115610db057610db06151bc565b1480610dcd57506002816003811115610dcb57610dcb6151bc565b145b15610e04576040517fb10f8cca00000000000000000000000000000000000000000000000000000000815260040160405180910390fd5b6000610e0f60015490565b9050610f0c7f0000000000000000000000000bc9f153dee4d3d474ce0903775b9b2aaae9aa416001600160a01b031663293c49996040518163ffffffff1660e01b8152600401602060405180830381865afa158015610e72573d6000803e3d6000fd5b505050506040513d601f19601f82011682018060405250810190610e969190615294565b6001600160a01b0316636352211e836040518263ffffffff1660e01b8152600401610ec391815260200190565b602060405180830381865afa158015610ee0573d6000803e3d6000fd5b505050506040513d601f19601f82011682018060405250810190610f049190615294565b82601e6125a6565b6000610f1b62127500426152b1565b905064ffffffffff841615801590610f395750808464ffffffffff16105b15610f80576040517f044691ac00000000000000000000000000000000000000000000000000000000815264ffffffffff8516600482015260248101829052604401610cd1565b64ffffffffff84166000557f455efa76af2a8686dc0dd3041bda89ece5ba4691277d525e2161003bbca8b24584610fb56121a3565b6040805164ffffffffff90931683526001600160a01b0390911660208301520160405180910390a150505050565b60007f00000000000000000000000000000000000000000000000000000000000000006001811115611017576110176151bc565b14611070577f00000000000000000000000000000000000000000000000000000000000000006040517fb039c395000000000000000000000000000000000000000000000000000000008152600401610cd191906151ec565b610a428161107d8361145b565b6126f0565b61109261108d6121a3565b612ae9565b6110dc5761109e6121a3565b6040517f36183c8f0000000000000000000000000000000000000000000000000000000081526001600160a01b039091166004820152602401610cd1565b60006003816110ee6020850185615029565b6001600160a01b0316815260208101919091526040908101600020805490925067ffffffffffffffff169061112990606085019085016152c4565b67ffffffffffffffff161180156111595750600361114561172d565b6003811115611156576111566151bc565b14155b1561121c5761116e60608301604084016152c4565b815467ffffffffffffffff191667ffffffffffffffff91909116178155606082013560018201556111a26020830183615029565b6001600160a01b03167fc69d3412489554fb7820c4c2784cb644b6c79bfc117444b93977d3d33a9b8eac6111dc60608501604086016152c4565b60608501356111e96121a3565b6040805167ffffffffffffffff909416845260208401929092526001600160a01b03169082015260600160405180910390a25b5050565b600061122b60015490565b905061128e7f0000000000000000000000000bc9f153dee4d3d474ce0903775b9b2aaae9aa416001600160a01b031663293c49996040518163ffffffff1660e01b8152600401602060405180830381865afa158015610e72573d6000803e3d6000fd5b60005b82811015611373576000600560008686858181106112b1576112b1615242565b90506020020160208101906112c69190615029565b6001600160a01b031681526020810191909152604001600090812080547fffffffffffffffffffffffffffffffffffffffffffffffffffffffffffffff00169215159290921790915560019060059086868581811061132757611327615242565b905060200201602081019061133c9190615029565b6001600160a01b03168152602081019190915260400160002080549115156101000261ff0019909216919091179055600101611291565b507f8021bce60b20a9afb57085869a3552e0ee5b272b868df894fb30c5e90e74c072838361139f6121a3565b6040516113ae939291906152ee565b60405180910390a1505050565b6113c3614e1b565b6001600160a01b0382166000908152600460209081526040918290208251608081018452815467ffffffffffffffff1681526001820154818401528351610440810180865291949293858401939192600286019284929083019184919082845b815481526020019060010190808311611423575050509183525050602091820154908201529082526023929092015491015292915050565b6001600160a01b0381166000908152600460205260408120600101546114818330612bc5565b610988919061522f565b6114c360608201356114a06020840184615029565b60808401356114b56060860160408701615029565b602086013560a08701612c92565b7faaca6f6829d340365b5e6599e0d513cbb4602b94f58ccf16ac77d8d3ae7139ef6114f46060830160408401615029565b6115016020840184615029565b60608401356080850135602086013560017f00000000000000000000000000000000000000000000000000000000000000006001811115611544576115446151bc565b14611550576000611553565b60015b61155b6121a3565b604080516001600160a01b039889168152968816602088015286019490945260608501929092526080840152151560a083015290911660c082015260e00160405180910390a1610a42610a246020830183615029565b6001600160a01b03808216600090815260056020908152604091829020825160a081018452815460ff808216151583526101008204161580159483019490945263ffffffff620100008204169482019490945266010000000000009093049093166060830152600190920154608082015290611664576040517f4bba81f00000000000000000000000000000000000000000000000000000000081526001600160a01b0383166004820152602401610cd1565b60808101516001600160a01b03831660009081526004602052604090206001015410156116e9576001600160a01b03821660009081526004602081905260409182902060010154608084015192517fc3e11b79000000000000000000000000000000000000000000000000000000008152918201526024810191909152604401610cd1565b61121c348383612d68565b60005b818110156117285761172083838381811061171457611714615242565b90506104a0020161148b565b6001016116f7565b505050565b6000805480820361174057600091505090565b61174d621275008261522f565b42101561175c57600191505090565b8042101561176c57600291505090565b600391505090565b60004660018190036117895761210591505090565b806121050361179a57600191505090565b8062aa36a7036117ae5762014a3491505090565b8062014a34036117c25762aa36a791505090565b600091505090565b7ff0c57e16840df040f15088dc2f81fe391c3923bec73e23a9662efc9c229c6a00805468010000000000000000810460ff16159067ffffffffffffffff166000811580156118155750825b905060008267ffffffffffffffff1660011480156118325750303b155b905081158015611840575080155b15611877576040517ff92ee8a900000000000000000000000000000000000000000000000000000000815260040160405180910390fd5b845467ffffffffffffffff1916600117855583156118c15784547fffffffffffffffffffffffffffffffffffffffffffffff00ffffffffffffffff16680100000000000000001785555b600186905583156119275784547fffffffffffffffffffffffffffffffffffffffffffffff00ffffffffffffffff168555604051600181527fc7f505b2f371ae2175ee4913f4499e1f2633a7b5936321eed1cdaeb6115181d29060200160405180910390a15b505050505050565b600061193961172d565b9050600381600381111561194f5761194f6151bc565b1415801561196f5750600281600381111561196c5761196c6151bc565b14155b801561199957506001600160a01b038616600090815260056020526040902054610100900460ff16155b156119db576040517f4bba81f00000000000000000000000000000000000000000000000000000000081526001600160a01b0387166004820152602401610cd1565b6001600160a01b0386166000908152600460205260409020602381015415801590611a1657508360018260230154611a13919061522f565b10155b15611a5f576040517fa4e6bcec0000000000000000000000000000000000000000000000000000000081526001600160a01b038816600482015260248101859052604401610cd1565b604080516001600160a01b03891660208201526000910160408051808303601f19018152918152815160209283012060601c60008181526002845282812060088a901c8252909352912054909150600160ff87161b1615611afe576040517fa4e6bcec0000000000000000000000000000000000000000000000000000000081526001600160a01b038916600482015260248101869052604401610cd1565b6001600160a01b03908116600090815260026020818152604080842060088a901c855282528084208054600160ff8c161b179055938b16835260049052919020611b5691611b4c9101612f88565b898888888861433e565b5050505050505050565b60017f00000000000000000000000000000000000000000000000000000000000000006001811115611b9457611b946151bc565b148015611ba057508215155b15611baf57611baf84846126f0565b6000611bba60015490565b6040517f5dd8f6aa000000000000000000000000000000000000000000000000000000008152600481018290529091507f0000000000000000000000000bc9f153dee4d3d474ce0903775b9b2aaae9aa416001600160a01b031690635dd8f6aa90602401602060405180830381865afa158015611c3b573d6000803e3d6000fd5b505050506040513d601f19601f82011682018060405250810190611c5f9190615294565b6040517fc7fb92de00000000000000000000000000000000000000000000000000000000815260048101839052602481018590526001600160a01b03848116604483015260a06064830152600060a483018190526084830152919091169063c7fb92de9060c4016020604051808303816000875af1158015611ce5573d6000803e3d6000fd5b505050506040513d601f19601f82011682018060405250810190611927919061534e565b6000611d186020840184615029565b6001600160a01b03808216600090815260056020908152604091829020825160a081018452815460ff808216151583526101008204161580159483019490945263ffffffff6201000082041694820194909452660100000000000090930490931660608301526001909201546080820152919250611dcd576040517f4bba81f00000000000000000000000000000000000000000000000000000000081526001600160a01b0383166004820152602401610cd1565b611dd6846143f0565b6000611de160015490565b9050611ede7f0000000000000000000000000bc9f153dee4d3d474ce0903775b9b2aaae9aa416001600160a01b031663293c49996040518163ffffffff1660e01b8152600401602060405180830381865afa158015611e44573d6000803e3d6000fd5b505050506040513d601f19601f82011682018060405250810190611e689190615294565b6001600160a01b0316636352211e836040518263ffffffff1660e01b8152600401611e9591815260200190565b602060405180830381865afa158015611eb2573d6000803e3d6000fd5b505050506040513d601f19601f82011682018060405250810190611ed69190615294565b82601c6125a6565b60608201516001600160a01b031615801590611f1f5750611f056060860160408701615029565b6001600160a01b031682606001516001600160a01b031614155b8015611f4457506000611f386060870160408801615029565b6001600160a01b031614155b8015611f6a57506001600160a01b03831660009081526004602052604090206022015415155b15611fba5760608201516040517f1460b5460000000000000000000000000000000000000000000000000000000081526001600160a01b0380861660048301529091166024820152604401610cd1565b6000611fcc6060870160408801615029565b6001600160a01b031614801561200357506001600160a01b0383166000908152600460205260409020602281015460239091015414155b1561201357612013848484612d68565b6040518060a0016040528060006001600160a01b031687604001602081019061203c9190615029565b6001600160a01b031614151515815260200160001515815260200186602001602081019061206a9190615367565b63ffffffff16815260200160006120876060890160408a01615029565b6001600160a01b0316146120aa576120a56060880160408901615029565b6120b0565b83606001515b6001600160a01b039081168252606097880135602092830152948516600090815260058252604090819020835181549385015192850151998501517fffffffffffffffffffffffffffffffffffffffffffffffffffffffffffff000090941690151561ff0019161761010092151592909202919091177fffffffffffff000000000000000000000000000000000000000000000000ffff166201000063ffffffff909916989098027fffffffffffff0000000000000000000000000000000000000000ffffffffffff16979097176601000000000000919095160293909317855550506080015160019092019190915550565b60006121ad61452b565b905090565b6040516001600160a01b038481166024830152838116604483015260648201839052610b4d9186918216906323b872dd906084015b604051602081830303815290604052915060e01b6020820180517bffffffffffffffffffffffffffffffffffffffffffffffffffffffff83818316178352505050506145a0565b60008061223a60015490565b6040517f86202650000000000000000000000000000000000000000000000000000000008152600481018290526001600160a01b0386811660248301529192506000917f0000000000000000000000000bc9f153dee4d3d474ce0903775b9b2aaae9aa411690638620265090604401602060405180830381865afa1580156122c6573d6000803e3d6000fd5b505050506040513d601f19601f820116820180604052508101906122ea9190615294565b90506001600160a01b03811661233e576040517fb61c181f000000000000000000000000000000000000000000000000000000008152600481018390526001600160a01b0386166024820152604401610cd1565b600061234a8630612bc5565b604080516020810182526000815290517f13da83170000000000000000000000000000000000000000000000000000000081529192506001600160a01b038416916313da8317916123a991309188918d918d918d9186916004016153d3565b6020604051808303816000875af11580156123c8573d6000803e3d6000fd5b505050506040513d601f19601f820116820180604052508101906123ec919061534e565b9350806123f98730612bc5565b612403919061522f565b841461241157612411615426565b505050949350505050565b6040805160208082018790528183018590526001600160a01b03841660608084019190915283518084039091018152608090920190925280519101206000906001600160a01b03851660009081526004602090815260408083208151610440810180845295965090946124c59387936002880192849291830191849182845b81548152602001906001019080831161249b5750505091835250506020918201549101529061462a565b8051909150819060028401906124de9082906020614e47565b50602082015181602001559050508482600101600082825461250091906152b1565b92505081905550856001600160a01b0316846001600160a01b03167f584a41ff082fad99bb6e50c5767c347c762057fe5726539f0a8de49d84549c23856001856020015161254e919061522f565b61255a87600201612f88565b8c8b6125646121a3565b60408051968752602087019590955293850192909252606084015260808301526001600160a01b031660a082015260c00160405180910390a350505050505050565b60006125b06121a3565b9050836001600160a01b0316816001600160a01b03161415801561269857506040517f348b684e0000000000000000000000000000000000000000000000000000000081526001600160a01b0382811660048301528581166024830152604482018590526064820184905260016084830181905260a48301527f000000000000000000000000f5ca295dc286a176e35ebb7833031fd95550eb14169063348b684e9060c401602060405180830381865afa158015612672573d6000803e3d6000fd5b505050506040513d601f19601f82011682018060405250810190612696919061543c565b155b15610b4d576040517f264deeaa0000000000000000000000000000000000000000000000000000000081526001600160a01b038086166004830152821660248201526044810184905260648101839052608401610cd1565b60006126fb8361145b565b905080821115612741576040517f60ec3e710000000000000000000000000000000000000000000000000000000081526004810183905260248101829052604401610cd1565b600061274c60015490565b6040517f86202650000000000000000000000000000000000000000000000000000000008152600481018290526001600160a01b0386811660248301529192506000917f0000000000000000000000000bc9f153dee4d3d474ce0903775b9b2aaae9aa411690638620265090604401602060405180830381865afa1580156127d8573d6000803e3d6000fd5b505050506040513d601f19601f820116820180604052508101906127fc9190615294565b90506001600160a01b038116612850576040517fb61c181f000000000000000000000000000000000000000000000000000000008152600481018390526001600160a01b0386166024820152604401610cd1565b6001600160a01b03851661eeee14612a39576040517f70a082310000000000000000000000000000000000000000000000000000000081523060048201526000906001600160a01b038716906370a0823190602401602060405180830381865afa1580156128c2573d6000803e3d6000fd5b505050506040513d601f19601f820116820180604052508101906128e6919061534e565b90506128f3868387614762565b6040517f9e6eec05000000000000000000000000000000000000000000000000000000008152600481018490526001600160a01b0387811660248301526044820187905260006064830181905260c0608484015260c4830181905260e060a484015260e4830152831690639e6eec059061010401600060405180830381600087803b15801561298157600080fd5b505af1158015612995573d6000803e3d6000fd5b5050505084816129a5919061522f565b6040517f70a082310000000000000000000000000000000000000000000000000000000081523060048201526001600160a01b038816906370a0823190602401602060405180830381865afa158015612a02573d6000803e3d6000fd5b505050506040513d601f19601f82011682018060405250810190612a26919061534e565b14612a3357612a33615426565b50612ae2565b6040517f9e6eec05000000000000000000000000000000000000000000000000000000008152600481018390526001600160a01b0386811660248301526044820186905260006064830181905260c0608484015260c4830181905260e060a484015260e4830152821690639e6eec05908690610104016000604051808303818588803b158015612ac857600080fd5b505af1158015612adc573d6000803e3d6000fd5b50505050505b5050505050565b60007f00000000000000000000000042000000000000000000000000000000000000076001600160a01b0316826001600160a01b03161480156109885750306001600160a01b03167f00000000000000000000000042000000000000000000000000000000000000076001600160a01b0316636e296e456040518163ffffffff1660e01b81526004016020604051808303816000875af1158015612b91573d6000803e3d6000fd5b505050506040513d601f19601f82011682018060405250810190612bb59190615294565b6001600160a01b03161492915050565b60007fffffffffffffffffffffffffffffffffffffffffffffffffffffffffffff11126001600160a01b03841601612c0857506001600160a01b03811631610988565b6040517f70a082310000000000000000000000000000000000000000000000000000000081526001600160a01b0383811660048301528416906370a0823190602401602060405180830381865afa158015612c67573d6000803e3d6000fd5b505050506040513d601f19601f82011682018060405250810190612c8b919061534e565b9392505050565b6001600160a01b0385166000908152600260209081526040808320600886901c8452909152902054600160ff84161b1615612d0b576040517fa4e6bcec0000000000000000000000000000000000000000000000000000000081526001600160a01b038616600482015260248101839052604401610cd1565b6001600160a01b0385166000908152600260209081526040808320600886901c845290915290208054600160ff85161b1790556001600160a01b03851660009081526003602052604090206001015461192790878686868661433e565b60608101516001600160a01b0316612db7576040517f04fdbe060000000000000000000000000000000000000000000000000000000081526001600160a01b0383166004820152602401610cd1565b6000612dc161172d565b90506003816003811115612dd757612dd76151bc565b1480612df457506002816003811115612df257612df26151bc565b145b15612e2b576040517fb10f8cca00000000000000000000000000000000000000000000000000000000815260040160405180910390fd5b6001600160a01b03831660009081526004602052604081206001810180549083905581549192909183908290612e6a9067ffffffffffffffff1661545e565b91906101000a81548167ffffffffffffffff021916908367ffffffffffffffff160217905590506000612e9f84600201612f88565b6022850154602386018190559091506000612ebb60018361522f565b9050886001600160a01b0316837f47c5615513b0f669da2dd7e3362a34610ca2695d0a0e2da2160cee952eab203c8387612ef36121a3565b6040805193845267ffffffffffffffff90921660208401526001600160a01b03169082015260600160405180910390a3600060405180606001604052808a606001516001600160a01b0316815260200187815260200160405180604001604052808867ffffffffffffffff168152602001878152508152509050612f7b8b838c898d86614820565b5050505050505050505050565b6020810154600090808203612fbf57507f27ae5ba08d7291c96c8cbddcc148bf48a6d68c7974b94356f53754ef6171d75792915050565b6000836001831615612fe1578054600052600060205260406000209350613894565b60028316156130265760018101546000527fad3228b676f7d3cd4284a5443f17f1962b36e491b30a40b2405849e597ba5fb56020526040600020935060019150613894565b600483161561306b5760028101546000527fb4c11951957c6f8f642c4af61cd6b24640fec6dc7fc607ee8206a99e92410d306020526040600020935060029150613894565b60088316156130b05760038101546000527f21ddb9a356815c3fac1026b6dec5df3124afbadb485c9ba5a3e3398a04b7ba856020526040600020935060039150613894565b60108316156130f55760048101546000527fe58769b32a1beaf1ea27375a44095a0d1fb664ce2dd358e7fcbfb78c26a193446020526040600020935060049150613894565b602083161561313a5760058101546000527f0eb01ebfc9ed27500cd4dfc979272d1f0913cc9f66540d7e8005811109e1cf2d6020526040600020935060059150613894565b604083161561317f5760068101546000527f887c22bd8750d34016ac3c66b5ff102dacdd73f6b014e710b51e8022af9a19686020526040600020935060069150613894565b60808316156131c45760078101546000527fffd70157e48063fc33c97a050f7f640233bf646cc98d9524c6b92bcf3ab56f836020526040600020935060079150613894565b61010083161561320a5760088101546000527f9867cc5f7f196b93bae1e27e6320742445d290f2263827498b54fec539f756af6020526040600020935060089150613894565b6102008316156132505760098101546000527fcefad4e508c098b9a7e1d8feb19955fb02ba9675585078710969d3440f5054e06020526040600020935060099150613894565b61040083161561329657600a8101546000527ff9dc3e7fe016e050eff260334f18a5d4fe391d82092319f5964f2e2eb7c1c3a560205260406000209350600a9150613894565b6108008316156132dc57600b8101546000527ff8b13a49e282f609c317a833fb8d976d11517c571d1221a265d25af778ecf89260205260406000209350600b9150613894565b61100083161561332257600c8101546000527f3490c6ceeb450aecdc82e28293031d10c7d73bf85e57bf041a97360aa2c5d99c60205260406000209350600c9150613894565b61200083161561336857600d8101546000527fc1df82d9c4b87413eae2ef048f94b4d3554cea73d92b0f7af96e0271c691e2bb60205260406000209350600d9150613894565b6140008316156133ae57600e8101546000527f5c67add7c6caf302256adedf7ab114da0acfe870d449a3a489f781d659e8becc60205260406000209350600e9150613894565b6180008316156133f457600f8101546000527fda7bce9f4e8618b6bd2f4132ce798cdc7a60e7e1460a7299e3c6342a579626d260205260406000209350600f9150613894565b6201000083161561343b5760108101546000527f2733e50f526ec2fa19a22b31e8ed50f23cd1fdf94c9154ed3a7609a2f1ff981f6020526040600020935060109150613894565b620200008316156134825760118101546000527fe1d3b5c807b281e4683cc6d6315cf95b9ade8641defcb32372f1c126e398ef7a6020526040600020935060119150613894565b620400008316156134c95760128101546000527f5a2dce0a8a7f68bb74560f8f71837c2c2ebbcbf7fffb42ae1896f13f7c7479a06020526040600020935060129150613894565b620800008316156135105760138101546000527fb46a28b6f55540f89444f63de0378e3d121be09e06cc9ded1c20e65876d36aa06020526040600020935060139150613894565b621000008316156135575760148101546000527fc65e9645644786b620e2dd2ad648ddfcbf4a7e5b1a3a4ecfe7f64667a3f0b7e26020526040600020935060149150613894565b6220000083161561359e5760158101546000527ff4418588ed35a2458cffeb39b93d26f18d2ab13bdce6aee58e7b99359ec2dfd96020526040600020935060159150613894565b624000008316156135e55760168101546000527f5a9c16dc00d6ef18b7933a6f8dc65ccb55667138776f7dea101070dc8796e3776020526040600020935060169150613894565b6280000083161561362c5760178101546000527f4df84f40ae0c8229d0d6069e5c8f39a7c299677a09d367fc7b05e3bc380ee6526020526040600020935060179150613894565b63010000008316156136745760188101546000527fcdc72595f74c7b1043d0e1ffbab734648c838dfb0527d971b602bc216c9619ef6020526040600020935060189150613894565b63020000008316156136bc5760198101546000527f0abf5ac974a1ed57f4050aa510dd9c74f508277b39d7973bb2dfccc5eeb0618d6020526040600020935060199150613894565b630400000083161561370457601a8101546000527fb8cd74046ff337f0a7bf2c8e03e10f642c1886798d71806ab1e888d9e5ee87d060205260406000209350601a9150613894565b630800000083161561374c57601b8101546000527f838c5655cb21c6cb83313b5a631175dff4963772cce9108188b34ac87c81c41e60205260406000209350601b9150613894565b631000000083161561379457601c8101546000527f662ee4dd2dd7b2bc707961b1e646c4047669dcb6584f0d8d770daf5d7e7deb2e60205260406000209350601c9150613894565b63200000008316156137dc57601d8101546000527f388ab20e2573d171a88108e79d820e98f26c0b84aa8b2f4aa4968dbb818ea32260205260406000209350601d9150613894565b634000000083161561382457601e8101546000527f93237c50ba75ee485f4c22adf2f741400bdf8d6a9cc7df7ecae576221665d73560205260406000209350601e9150613894565b638000000083161561386c57601f8101546000527f8448818bb4ae4562849e949e17ac16e0be16688e156b5cf15e098c627c0056a960205260406000209350601f9150613894565b7f27ae5ba08d7291c96c8cbddcc148bf48a6d68c7974b94356f53754ef6171d7579350602091505b601e82116143365760018210156138f2576002831680156138c0576001820154600052846020526138e9565b846000527fad3228b676f7d3cd4284a5443f17f1962b36e491b30a40b2405849e597ba5fb56020525b50604060002093505b6002821015613948576004831680156139165760028201546000528460205261393f565b846000527fb4c11951957c6f8f642c4af61cd6b24640fec6dc7fc607ee8206a99e92410d306020525b50604060002093505b600382101561399e5760088316801561396c57600382015460005284602052613995565b846000527f21ddb9a356815c3fac1026b6dec5df3124afbadb485c9ba5a3e3398a04b7ba856020525b50604060002093505b60048210156139f4576010831680156139c2576004820154600052846020526139eb565b846000527fe58769b32a1beaf1ea27375a44095a0d1fb664ce2dd358e7fcbfb78c26a193446020525b50604060002093505b6005821015613a4a57602083168015613a1857600582015460005284602052613a41565b846000527f0eb01ebfc9ed27500cd4dfc979272d1f0913cc9f66540d7e8005811109e1cf2d6020525b50604060002093505b6006821015613aa057604083168015613a6e57600682015460005284602052613a97565b846000527f887c22bd8750d34016ac3c66b5ff102dacdd73f6b014e710b51e8022af9a19686020525b50604060002093505b6007821015613af657608083168015613ac457600782015460005284602052613aed565b846000527fffd70157e48063fc33c97a050f7f640233bf646cc98d9524c6b92bcf3ab56f836020525b50604060002093505b6008821015613b4d5761010083168015613b1b57600882015460005284602052613b44565b846000527f9867cc5f7f196b93bae1e27e6320742445d290f2263827498b54fec539f756af6020525b50604060002093505b6009821015613ba45761020083168015613b7257600982015460005284602052613b9b565b846000527fcefad4e508c098b9a7e1d8feb19955fb02ba9675585078710969d3440f5054e06020525b50604060002093505b600a821015613bfb5761040083168015613bc957600a82015460005284602052613bf2565b846000527ff9dc3e7fe016e050eff260334f18a5d4fe391d82092319f5964f2e2eb7c1c3a56020525b50604060002093505b600b821015613c525761080083168015613c2057600b82015460005284602052613c49565b846000527ff8b13a49e282f609c317a833fb8d976d11517c571d1221a265d25af778ecf8926020525b50604060002093505b600c821015613ca95761100083168015613c7757600c82015460005284602052613ca0565b846000527f3490c6ceeb450aecdc82e28293031d10c7d73bf85e57bf041a97360aa2c5d99c6020525b50604060002093505b600d821015613d005761200083168015613cce57600d82015460005284602052613cf7565b846000527fc1df82d9c4b87413eae2ef048f94b4d3554cea73d92b0f7af96e0271c691e2bb6020525b50604060002093505b600e821015613d575761400083168015613d2557600e82015460005284602052613d4e565b846000527f5c67add7c6caf302256adedf7ab114da0acfe870d449a3a489f781d659e8becc6020525b50604060002093505b600f821015613dae5761800083168015613d7c57600f82015460005284602052613da5565b846000527fda7bce9f4e8618b6bd2f4132ce798cdc7a60e7e1460a7299e3c6342a579626d26020525b50604060002093505b6010821015613e06576201000083168015613dd457601082015460005284602052613dfd565b846000527f2733e50f526ec2fa19a22b31e8ed50f23cd1fdf94c9154ed3a7609a2f1ff981f6020525b50604060002093505b6011821015613e5e576202000083168015613e2c57601182015460005284602052613e55565b846000527fe1d3b5c807b281e4683cc6d6315cf95b9ade8641defcb32372f1c126e398ef7a6020525b50604060002093505b6012821015613eb6576204000083168015613e8457601282015460005284602052613ead565b846000527f5a2dce0a8a7f68bb74560f8f71837c2c2ebbcbf7fffb42ae1896f13f7c7479a06020525b50604060002093505b6013821015613f0e576208000083168015613edc57601382015460005284602052613f05565b846000527fb46a28b6f55540f89444f63de0378e3d121be09e06cc9ded1c20e65876d36aa06020525b50604060002093505b6014821015613f66576210000083168015613f3457601482015460005284602052613f5d565b846000527fc65e9645644786b620e2dd2ad648ddfcbf4a7e5b1a3a4ecfe7f64667a3f0b7e26020525b50604060002093505b6015821015613fbe576220000083168015613f8c57601582015460005284602052613fb5565b846000527ff4418588ed35a2458cffeb39b93d26f18d2ab13bdce6aee58e7b99359ec2dfd96020525b50604060002093505b6016821015614016576240000083168015613fe45760168201546000528460205261400d565b846000527f5a9c16dc00d6ef18b7933a6f8dc65ccb55667138776f7dea101070dc8796e3776020525b50604060002093505b601782101561406e57628000008316801561403c57601782015460005284602052614065565b846000527f4df84f40ae0c8229d0d6069e5c8f39a7c299677a09d367fc7b05e3bc380ee6526020525b50604060002093505b60188210156140c757630100000083168015614095576018820154600052846020526140be565b846000527fcdc72595f74c7b1043d0e1ffbab734648c838dfb0527d971b602bc216c9619ef6020525b50604060002093505b6019821015614120576302000000831680156140ee57601982015460005284602052614117565b846000527f0abf5ac974a1ed57f4050aa510dd9c74f508277b39d7973bb2dfccc5eeb0618d6020525b50604060002093505b601a8210156141795763040000008316801561414757601a82015460005284602052614170565b846000527fb8cd74046ff337f0a7bf2c8e03e10f642c1886798d71806ab1e888d9e5ee87d06020525b50604060002093505b601b8210156141d2576308000000831680156141a057601b820154600052846020526141c9565b846000527f838c5655cb21c6cb83313b5a631175dff4963772cce9108188b34ac87c81c41e6020525b50604060002093505b601c82101561422b576310000000831680156141f957601c82015460005284602052614222565b846000527f662ee4dd2dd7b2bc707961b1e646c4047669dcb6584f0d8d770daf5d7e7deb2e6020525b50604060002093505b601d8210156142845763200000008316801561425257601d8201546000528460205261427b565b846000527f388ab20e2573d171a88108e79d820e98f26c0b84aa8b2f4aa4968dbb818ea3226020525b50604060002093505b601e8210156142dd576340000000831680156142ab57601e820154600052846020526142d4565b846000527f93237c50ba75ee485f4c22adf2f741400bdf8d6a9cc7df7ecae576221665d7356020525b50604060002093505b601f8210156143365763800000008316801561430457601f8201546000528460205261432d565b846000527f8448818bb4ae4562849e949e17ac16e0be16688e156b5cf15e098c627c0056a96020525b50604060002093505b505050919050565b6040805160208082018890528183018790526001600160a01b03861660608084019190915283518084039091018152608083018085528151918301919091206104809093019093526000926143ac92918590828261040080828437600092019190915250879150614a7e9050565b9050868114610d87576040517ee587d20000000000000000000000000000000000000000000000000000000081526004810182905260248101889052604401610cd1565b600061eeee6144026020840184615029565b6001600160a01b0316149050808015614435575061eeee6144296060840160408501615029565b6001600160a01b031614155b801561445a5750600061444e6060840160408501615029565b6001600160a01b031614155b156144ad5761446f6060830160408401615029565b6040517ff41f6def0000000000000000000000000000000000000000000000000000000081526001600160a01b039091166004820152602401610cd1565b62030d406144c16040840160208501615367565b63ffffffff161080156144d2575080155b1561121c576144e76040830160208401615367565b6040517f555d0f1000000000000000000000000000000000000000000000000000000000815263ffffffff909116600482015262030d406024820152604401610cd1565b6000366014336001600160a01b037f0000000000000000000000008a5ba591ed2bed5691a378c65611ed492500f887161480156145685750808210155b156145985760003661457a838561522f565b614585928290615485565b61458e916154af565b60601c9250505090565b339250505090565b600080602060008451602086016000885af1806145c3576040513d6000823e3d81fd5b50506000513d915081156145db5780600114156145e8565b6001600160a01b0384163b155b15610b4d576040517f5274afe70000000000000000000000000000000000000000000000000000000081526001600160a01b0385166004820152602401610cd1565b614632614e85565b600083602001805161464390615258565b9081905290506001614657602060026155db565b614661919061522f565b81111561469a576040517f8eab04bb00000000000000000000000000000000000000000000000000000000815260040160405180910390fd5b60005b602081101561472f57816001166001036146d6578451849082602081106146c6576146c6615242565b6020020152508391506109889050565b845181602081106146e9576146e9615242565b602002015184604051602001614709929190918252602082015260400190565b60408051601f1981840301815291905280516020909101209350600191821c910161469d565b506040517f8eab04bb00000000000000000000000000000000000000000000000000000000815260040160405180910390fd5b604080516001600160a01b038416602482015260448082018490528251808303909101815260649091019091526020810180517bffffffffffffffffffffffffffffffffffffffffffffffffffffffff167f095ea7b3000000000000000000000000000000000000000000000000000000001790526147e18482614dcc565b610b4d576040516001600160a01b0384811660248301526000604483015261481691869182169063095ea7b3906064016121e7565b610b4d84826145a0565b6000861561485d576040517fd7468c3200000000000000000000000000000000000000000000000000000000815260048101889052602401610cd1565b6001600160a01b03851661eeee1480159061487757508315155b15614969576148a7857f000000000000000000000000420000000000000000000000000000000000001086614762565b7f00000000000000000000000042000000000000000000000000000000000000106001600160a01b031663540abf738685606001516148e33090565b60408089015181516020810183526000815291517fffffffff0000000000000000000000000000000000000000000000000000000060e088901b168152614932959493928c92916004016155e7565b600060405180830381600087803b15801561494c57600080fd5b505af1158015614960573d6000803e3d6000fd5b5050505061496c565b50825b6001600160a01b037f000000000000000000000000420000000000000000000000000000000000000716633dbb202b8230856040516024016149ae9190615639565b60408051601f198184030181529181526020820180517bffffffffffffffffffffffffffffffffffffffffffffffffffffffff167f69d31fdd00000000000000000000000000000000000000000000000000000000179052517fffffffff0000000000000000000000000000000000000000000000000000000060e086901b168152614a43929190620493e090600401615685565b6000604051808303818588803b158015614a5c57600080fd5b505af1158015614a70573d6000803e3d6000fd5b505050505050505050505050565b6020600582811b8216948552835194820394909452604060008181206002851615871b808503919091528386015190528181206004851615871b808503919091528286015190528181206008851615871b80850391909152606086015190528181206010851615871b8085039190915260808087015190915282822084861615881b8086039190915260a0870151905282822083861615881b8086039190915260c0870151905282822090851615871b8085039190915260e0860151905281812061010080861615881b80860392909252860151905281812061020080861615881b80860392909252610120870151909152828220610400861615881b808603919091526101408701519052828220610800861615881b808603919091526101608701519052828220611000861615881b808603919091526101808701519052828220612000861615881b808603919091526101a08701519052828220614000861615881b808603919091526101c08701519052828220618000861615881b808603919091526101e0870151905282822062010000861615881b8086039190915290860151905281812062020000851615871b80850391909152610220860151905281812062040000851615871b80850391909152610240860151905281812062080000851615871b80850391909152610260860151905281812062100000851615871b80850391909152610280860151905281812062200000851615871b808503919091526102a0860151905281812062400000851615871b808503919091526102c0860151905281812062800000851615871b808503919091526102e086015190528181206301000000851615871b8085039190915261030086015190528181206302000000851615871b8085039190915261032086015190528181206304000000851615871b8085039190915261034086015190528181206308000000851615871b8085039190915261036086015190528181206310000000851615871b8085039190915261038086015190528181206320000000851615871b808503919091526103a086015190528181206340000000851615871b808503919091526103c0860151905281812063800000009094161590951b91829003929092526103e090920151909152902090565b6000806000806020600086516020880160008a5af192503d91506000519050828015614e1157508115614e025780600114614e11565b6000866001600160a01b03163b115b9695505050505050565b6040805160808101825260008082526020820152908101614e3a614e85565b8152602001600081525090565b8260208101928215614e75579160200282015b82811115614e75578251825591602001919060010190614e5a565b50614e81929150614e98565b5090565b6040518060400160405280614e3a614ead565b5b80821115614e815760008155600101614e99565b6040518061040001604052806020906020820280368337509192915050565b600060208284031215614ede57600080fd5b81357fffffffff0000000000000000000000000000000000000000000000000000000081168114612c8b57600080fd5b60006104a08284031215614f2157600080fd5b50919050565b60008060208385031215614f3a57600080fd5b823567ffffffffffffffff80821115614f5257600080fd5b818501915085601f830112614f6657600080fd5b813581811115614f7557600080fd5b8660208260071b8501011115614f8a57600080fd5b60209290920196919550909350505050565b600060808284031215614f2157600080fd5b600060808284031215614fc057600080fd5b612c8b8383614f9c565b6001600160a01b0381168114610a4257600080fd5b60008060008060808587031215614ff557600080fd5b84359350602085013561500781614fca565b925060408501359150606085013561501e81614fca565b939692955090935050565b60006020828403121561503b57600080fd5b8135612c8b81614fca565b60006020828403121561505857600080fd5b813564ffffffffff81168114612c8b57600080fd5b815167ffffffffffffffff1681526020808301519082015260408101610988565b600080602083850312156150a157600080fd5b823567ffffffffffffffff808211156150b957600080fd5b818501915085601f8301126150cd57600080fd5b8135818111156150dc57600080fd5b8660208260051b8501011115614f8a57600080fd5b815167ffffffffffffffff1681526020808301518183015260408084015180516104808501939260009086015b8482101561513c57825181529184019160019190910190840161511e565b5050500151610440830152606092909201516104609091015290565b6000806020838503121561516b57600080fd5b823567ffffffffffffffff8082111561518357600080fd5b818501915085601f83011261519757600080fd5b8135818111156151a657600080fd5b8660206104a083028501011115614f8a57600080fd5b634e487b7160e01b600052602160045260246000fd5b60208101600483106151e6576151e66151bc565b91905290565b60208101600283106151e6576151e66151bc565b60006020828403121561521257600080fd5b5035919050565b634e487b7160e01b600052601160045260246000fd5b8181038181111561098857610988615219565b634e487b7160e01b600052603260045260246000fd5b6000600019820361526b5761526b615219565b5060010190565b60008261528f57634e487b7160e01b600052601260045260246000fd5b500490565b6000602082840312156152a657600080fd5b8151612c8b81614fca565b8082018082111561098857610988615219565b6000602082840312156152d657600080fd5b813567ffffffffffffffff81168114612c8b57600080fd5b6040808252810183905260008460608301825b8681101561533157823561531481614fca565b6001600160a01b0316825260209283019290910190600101615301565b5080925050506001600160a01b0383166020830152949350505050565b60006020828403121561536057600080fd5b5051919050565b60006020828403121561537957600080fd5b813563ffffffff81168114612c8b57600080fd5b6000815180845260005b818110156153b357602081850181015186830182015201615397565b506000602082860101526020601f19601f83011685010191505092915050565b60006001600160a01b03808a168352886020840152876040840152808716606084015285608084015280851660a08401525060e060c083015261541960e083018461538d565b9998505050505050505050565b634e487b7160e01b600052600160045260246000fd5b60006020828403121561544e57600080fd5b81518015158114612c8b57600080fd5b600067ffffffffffffffff80831681810361547b5761547b615219565b6001019392505050565b6000808585111561549557600080fd5b838611156154a257600080fd5b5050820193919092039150565b7fffffffffffffffffffffffffffffffffffffffff00000000000000000000000081358181169160148510156154ef5780818660140360031b1b83161692505b505092915050565b600181815b8085111561553257816000190482111561551857615518615219565b8085161561552557918102915b93841c93908002906154fc565b509250929050565b60008261554957506001610988565b8161555657506000610988565b816001811461556c576002811461557657615592565b6001915050610988565b60ff84111561558757615587615219565b50506001821b610988565b5060208310610133831016604e8410600b84101617156155b5575081810a610988565b6155bf83836154f7565b80600019048211156155d3576155d3615219565b029392505050565b6000612c8b838361553a565b60006001600160a01b038089168352808816602084015280871660408401525084606083015263ffffffff8416608083015260c060a083015261562d60c083018461538d565b98975050505050505050565b60006080820190506001600160a01b03835116825260208301516020830152604083015161567e6040840182805167ffffffffffffffff168252602090810151910152565b5092915050565b6001600160a01b03841681526060602082015260006156a7606083018561538d565b905063ffffffff8316604083015294935050505056fea2646970667358221220ae76473fe88d8009e6e90549a401f8497c263ee4c6e18bd8a9a192059e7e697a64736f6c63430008170033",
	"gitCommit": "c51336d74edd86d463402733d2c082dfa66596ff",
	"history": []
}