{
	"_format": "sphinx-sol-ct-artifact-1",
	"merkleRoot": "0x094fee53c64ee26e86c71eafffe8b7d55ea414bc61659daa36766530e1b964db",
	"contractName": "BPArbitrumSuckerDeployer",
	"address": "0x5af8A36B6B25891b7d9ADfa2eB83A90e9efA2049",
	"abi": [
		{
			"type": "constructor",
			"inputs": [
				{
					"name": "directory",
					"type": "address",
					"internalType": "contract IJBDirectory"
				},
				{
					"name": "tokens",
					"type": "address",
					"internalType": "contract IJBTokens"
				},
				{
					"name": "permissions",
					"type": "address",
					"internalType": "contract IJBPermissions"
				},
				{
					"name": "_configurator",
					"type": "address",
					"internalType": "address"
				}
			],
			"stateMutability": "nonpayable"
		},
		{
			"type": "function",
			"name": "LAYER",
			"inputs": [],
			"outputs": [
				{
					"name": "",
					"type": "uint8",
					"internalType": "enum BPLayer"
				}
			],
			"stateMutability": "view"
		},
		{
			"type": "function",
			"name": "PERMISSIONS",
			"inputs": [],
			"outputs": [
				{
					"name": "",
					"type": "address",
					"internalType": "contract IJBPermissions"
				}
			],
			"stateMutability": "view"
		},
		{
			"type": "function",
			"name": "TEMP_ID_STORE",
			"inputs": [],
			"outputs": [
				{
					"name": "",
					"type": "uint256",
					"internalType": "uint256"
				}
			],
			"stateMutability": "view"
		},
		{
			"type": "function",
			"name": "createForSender",
			"inputs": [
				{
					"name": "localProjectId",
					"type": "uint256",
					"internalType": "uint256"
				},
				{
					"name": "salt",
					"type": "bytes32",
					"internalType": "bytes32"
				}
			],
			"outputs": [
				{
					"name": "sucker",
					"type": "address",
					"internalType": "contract IBPSucker"
				}
			],
			"stateMutability": "nonpayable"
		},
		{
			"type": "function",
			"name": "gatewayRouter",
			"inputs": [],
			"outputs": [
				{
					"name": "gateway",
					"type": "address",
					"internalType": "contract IArbGatewayRouter"
				}
			],
			"stateMutability": "view"
		},
		{
			"type": "function",
			"name": "isSucker",
			"inputs": [
				{
					"name": "",
					"type": "address",
					"internalType": "address"
				}
			],
			"outputs": [
				{
					"name": "",
					"type": "bool",
					"internalType": "bool"
				}
			],
			"stateMutability": "view"
		},
		{
			"type": "error",
			"name": "ALREADY_CONFIGURED",
			"inputs": []
		},
		{
			"type": "error",
			"name": "ONLY_SUCKERS",
			"inputs": []
		},
		{
			"type": "error",
			"name": "UNAUTHORIZED",
			"inputs": []
		}
	],
	"solcInputHash": "103a1b3b1150557e599ad65224b8fc45",
	"args": [
		"0xc9cb7a0BAB7569b5B6De26A679D107D4D412B349",
		"0x4B91b0593302D5f033F0FDcEf7D82E2ff57e2467",
		"0xaDa1E1EE4576Da063EAD17d1ACf49254FA881F0E",
		"0x6a65B75A3f37C6702A117Fb87B6bCaC62657d216"
	],
	"bytecode": "0x61012060405234801561001157600080fd5b506040516153d03803806153d08339810160408190526100309161006b565b6001600160a01b0391821660805281166101005291821660a0521660c0526100ca565b6001600160a01b038116811461006857600080fd5b50565b6000806000806080858703121561008157600080fd5b845161008c81610053565b602086015190945061009d81610053565b60408601519093506100ae81610053565b60608601519092506100bf81610053565b939692955090935050565b60805160a05160c05160e051610100516152bf61011160003960005050600060ee0152600061024801526000610227015260008181610122015261026901526152bf6000f3fe608060405234801561001057600080fd5b50600436106100625760003560e01c806303c85ea314610067578063121303661461008c578063ba8b1d1a1461009f578063c39ec124146100b6578063c86719b7146100e9578063f434c9141461011d575b600080fd5b61006f610144565b6040516001600160a01b0390911681526020015b60405180910390f35b61006f61009a3660046102fd565b6101dd565b6100a860015481565b604051908152602001610083565b6100d96100c436600461031f565b60006020819052908152604090205460ff1681565b6040519015158152602001610083565b6101107f000000000000000000000000000000000000000000000000000000000000000081565b6040516100839190610370565b61006f7f000000000000000000000000000000000000000000000000000000000000000081565b600046600019810161016b577372ce9c846789fdb6fc1f34ac4ad25dd9ef7031ef91505090565b61a4b1810361018f57735288c571fd7ad117bea99bf60fe0846c4e84f93391505090565b62aa36a781036101b45773ce18836b233c83325cc8848ca4487e94c628826491505090565b62066eee81036101d957739fdd1c4e4aa24eec1d913fabea925594a20d43c791505090565b5090565b6040516bffffffffffffffffffffffff193360601b1660208201526034810182905260009060540160405160208183030381529060405280519060200120915082600181905550817f00000000000000000000000000000000000000000000000000000000000000007f00000000000000000000000000000000000000000000000000000000000000007f0000000000000000000000000000000000000000000000000000000000000000600080604051610297906102f0565b6102a5959493929190610383565b8190604051809103906000f59050801580156102c5573d6000803e3d6000fd5b506001600160a01b0381166000908152602081905260409020805460ff191660011790559392505050565b614ec5806103c583390190565b6000806040838503121561031057600080fd5b50508035926020909101359150565b60006020828403121561033157600080fd5b81356001600160a01b038116811461034857600080fd5b9392505050565b6002811061036d57634e487b7160e01b600052602160045260246000fd5b50565b6020810161037d8361034f565b91905290565b6001600160a01b038681168252858116602083015284811660408301528316606082015260a081016103b48361034f565b826080830152969550505050505056fe6101c06040523480156200001257600080fd5b5060405162004ec538038062004ec5833981016040819052620000359162000298565b8484848484336001600160a01b031663ba8b1d1a6040518163ffffffff1660e01b8152600401602060405180830381865afa15801562000079573d6000803e3d6000fd5b505050506040513d601f19601f820116820180604052508101906200009f91906200031b565b6001600160a01b0380851660805286811660c05285811660e052831615620000c85782620000ca565b305b6001600160a01b0316610120526101408190523361010052816001811115620000f757620000f762000335565b60a08160018111156200010e576200010e62000335565b90525050469450620001279350849250506200024a9050565b620001455760405163f21c9f0760e01b815260040160405180910390fd5b600181148062000157575062aa36a781145b15620001ab57600061016052600181146200018d5773aae29b0366299461418f5324a79afc425be5ae216101a0819052620001a9565b734dbd4fc535ac27206064b68ffcf827b0a60bab3f6101a08190525b505b61a4b1811480620001be575062066eee81145b15620001cb576001610160525b336001600160a01b03166303c85ea36040518163ffffffff1660e01b8152600401602060405180830381865afa1580156200020a573d6000803e3d6000fd5b505050506040513d601f19601f820116820180604052508101906200023091906200034b565b6001600160a01b0316610180525062000372945050505050565b600060018214806200025e575062aa36a782145b806200026b575061a4b182145b8062000279575062066eee82145b92915050565b6001600160a01b03811681146200029557600080fd5b50565b600080600080600060a08688031215620002b157600080fd5b8551620002be816200027f565b6020870151909550620002d1816200027f565b6040870151909450620002e4816200027f565b6060870151909350620002f7816200027f565b6080870151909250600281106200030d57600080fd5b809150509295509295909350565b6000602082840312156200032e57600080fd5b5051919050565b634e487b7160e01b600052602160045260246000fd5b6000602082840312156200035e57600080fd5b81516200036b816200027f565b9392505050565b60805160a05160c05160e05161010051610120516101405161016051610180516101a0516149db620004ea600039600081816103b901528181611ce5015281816133ea015261366301526000818161053c015281816134d4015281816135470152818161377e0152613817015260008181610508015281816114390152611cac0152600081816102200152818161080b0152818161088801528181610a2501528181610eae01528181610f57015281816115980152818161165d015281816116da0152818161195b01528181611a1401528181611b160152611c3e01526000818161038501528181611e5101528181611e9901528181613579015281816136930152818161384601526138df0152600061049301526000818161016d0152610a4e0152600081816103510152818161077c01528181610ed4015281816115d3015261198a0152600081816104c701528181610bc401528181610e5001526110690152600081816105fc015261122201526149db6000f3fe60806040526004361061014f5760003560e01c8063b1012368116100b6578063c6525f2c1161006f578063c6525f2c146104b5578063c86719b7146104f6578063defbb6971461052a578063e7f82c751461055e578063ed0e26b91461058b578063f434c914146105ea57600080fd5b8063b1012368146103a7578063b59ef50f146103db578063b71c1179146103fb578063bf557aee1461040e578063c185412914610461578063c1b8411a1461048157600080fd5b806369ce22331161010857806369ce22331461026557806369d31fdd146102855780636dfa7268146102985780637de6fba2146102c757806388bc2ef31461033f578063ad42938b1461037357600080fd5b80631d831d5c1461015b5780632241dc52146101ac57806338eb2044146101ce578063551ebbf0146101ee57806356539f391461020e57806361c864171461025057600080fd5b3661015657005b600080fd5b34801561016757600080fd5b5061018f7f000000000000000000000000000000000000000000000000000000000000000081565b6040516001600160a01b0390911681526020015b60405180910390f35b3480156101b857600080fd5b506101cc6101c73660046141d7565b61061e565b005b3480156101da57600080fd5b506101cc6101e9366004614263565b610656565b3480156101fa57600080fd5b506101cc610209366004614294565b6109ef565b34801561021a57600080fd5b506102427f000000000000000000000000000000000000000000000000000000000000000081565b6040519081526020016101a3565b34801561025c57600080fd5b50610242610b6e565b34801561027157600080fd5b506101cc6102803660046142de565b610bc0565b6101cc610293366004614263565b610c39565b3480156102a457600080fd5b506102b86102b33660046142de565b610daa565b6040516101a3939291906142fb565b3480156102d357600080fd5b506103156102e23660046142de565b6003602052600090815260409020805460019091015463ffffffff82169164010000000090046001600160a01b03169083565b6040805163ffffffff90941684526001600160a01b039092166020840152908201526060016101a3565b34801561034b57600080fd5b5061018f7f000000000000000000000000000000000000000000000000000000000000000081565b34801561037f57600080fd5b5061018f7f000000000000000000000000000000000000000000000000000000000000000081565b3480156103b357600080fd5b5061018f7f000000000000000000000000000000000000000000000000000000000000000081565b3480156103e757600080fd5b506101cc6103f6366004614354565b610e14565b6101cc6104093660046142de565b6110e8565b34801561041a57600080fd5b506104516104293660046142de565b6001600160a01b03908116600090815260036020526040902054640100000000900416151590565b60405190151581526020016101a3565b34801561046d57600080fd5b506101cc61047c366004614367565b611196565b34801561048d57600080fd5b5061018f7f000000000000000000000000000000000000000000000000000000000000000081565b3480156104c157600080fd5b506104e97f000000000000000000000000000000000000000000000000000000000000000081565b6040516101a391906143fe565b34801561050257600080fd5b506104e97f000000000000000000000000000000000000000000000000000000000000000081565b34801561053657600080fd5b5061018f7f000000000000000000000000000000000000000000000000000000000000000081565b34801561056a57600080fd5b506102426105793660046142de565b60026020526000908152604090205481565b34801561059757600080fd5b506105cb6105a63660046142de565b600160208190526000918252604090912080549101546001600160401b039091169082565b604080516001600160401b0390931683526020830191909152016101a3565b3480156105f657600080fd5b5061018f7f000000000000000000000000000000000000000000000000000000000000000081565b60005b818110156106515761064983838381811061063e5761063e614411565b905060800201610656565b600101610621565b505050565b600061066560208301836142de565b9050600061eeee61067960208501856142de565b6001600160a01b03161490508080156106ac575061eeee6106a060608501604086016142de565b6001600160a01b031614155b80156106d1575060006106c560608501604086016142de565b6001600160a01b031614155b15610710576106e660608401604085016142de565b604051630a0a3b6b60e31b81526001600160a01b0390911660048201526024015b60405180910390fd5b62030d406107246040850160208601614427565b63ffffffff16108015610735575080155b156107775762030d4061074e6040850160208601614427565b604051634f3dbeb360e11b815263ffffffff928316600482015291166024820152604401610707565b6108ae7f00000000000000000000000000000000000000000000000000000000000000006001600160a01b031663293c49996040518163ffffffff1660e01b8152600401602060405180830381865afa1580156107d8573d6000803e3d6000fd5b505050506040513d601f19601f820116820180604052508101906107fc919061444d565b6040516331a9108f60e11b81527f000000000000000000000000000000000000000000000000000000000000000060048201526001600160a01b039190911690636352211e90602401602060405180830381865afa158015610862573d6000803e3d6000fd5b505050506040513d601f19601f82011682018060405250810190610886919061444d565b7f0000000000000000000000000000000000000000000000000000000000000000601c6111ca565b60006108c060608501604086016142de565b6001600160a01b03161480156108f057506001600160a01b03821660009081526020819052604090206001015415155b1561094b576001600160a01b0380831660009081526003602090815260408083208151606081018352815463ffffffff811682526401000000009004909516928501929092526001909101549083015261094b9184906112b3565b60405180606001604052808460200160208101906109699190614427565b63ffffffff16815260200161098460608601604087016142de565b6001600160a01b0390811682526060909501356020918201529284166000908152600384526040908190208251815495840151909616640100000000026001600160c01b031990951663ffffffff909616959095179390931784559091015160019092019190915550565b6001600160a01b038316610a16576040516309a9c30b60e41b815260040160405180910390fd5b60405163ea78803f60e01b81527f000000000000000000000000000000000000000000000000000000000000000060048201526000907f00000000000000000000000000000000000000000000000000000000000000006001600160a01b03169063ea78803f90602401602060405180830381865afa158015610a9d573d6000803e3d6000fd5b505050506040513d601f19601f82011682018060405250810190610ac1919061444d565b90506001600160a01b038116610aea57604051635a33845560e01b815260040160405180910390fd5b6001600160a01b03828116600090815260036020526040902054640100000000900416610b355760405163393e175160e01b81526001600160a01b0383166004820152602401610707565b610b4a6001600160a01b038216333088611522565b6000610b5882878587611589565b9050610b668684838861177c565b505050505050565b6000466000198101610b835761a4b191505090565b61a4b18103610b9457600191505090565b62aa36a78103610ba85762066eee91505090565b62066eee8103610bbc5762aa36a791505090565b5090565b60007f00000000000000000000000000000000000000000000000000000000000000006001811115610bf457610bf46143ca565b14610c125760405163218a9a2d60e11b815260040160405180910390fd5b6001600160a01b038116600090815260026020526040902054610c369082906118f5565b50565b610c4233611ca7565b610c5f57604051630439dbd360e51b815260040160405180910390fd5b60208101803590600290600090610c7690856142de565b6001600160a01b03166001600160a01b031681526020019081526020016000206000828254610ca59190614480565b90915550600190506000610cbc60208401846142de565b6001600160a01b0316815260208101919091526040908101600020546001600160401b031690610cf290606084019084016144a8565b6001600160401b03161115610c36576040810160016000610d1660208501856142de565b6001600160a01b031681526020810191909152604001600020610d3982826144c5565b50610d49905060208201826142de565b6001600160a01b03167f551b6b99b4c48e3265d2885ab0d93779be2402293261e074f7bf74b2c8f45b6f610d8360608401604085016144a8565b604080516001600160401b039092168252606085013560208301520160405180910390a250565b6000602081815291815260409081902080546001820154835161044081018086526001600160401b0390931695919490926002850192849283019184919082845b815481526020019060010190808311610deb575050509183525050602091820154910152905083565b610e4c6060820135610e2960208401846142de565b6080840135610e3e60608601604087016142de565b602086013560a08701611ed4565b60017f00000000000000000000000000000000000000000000000000000000000000006001811115610e8057610e806143ca565b03610e9f57610e9f610e9560208301836142de565b60808301356118f5565b604051632eec7b5560e11b81527f000000000000000000000000000000000000000000000000000000000000000060048201527f00000000000000000000000000000000000000000000000000000000000000006001600160a01b031690635dd8f6aa90602401602060405180830381865afa158015610f23573d6000803e3d6000fd5b505050506040513d601f19601f82011682018060405250810190610f47919061444d565b6001600160a01b031663c7fb92de7f000000000000000000000000000000000000000000000000000000000000000060608401803590610f8a90604087016142de565b6040516001600160e01b031960e086901b168152600481019390935260248301919091526001600160a01b0316604482015260a06064820152600060a48201819052608482015260c4016020604051808303816000875af1158015610ff3573d6000803e3d6000fd5b505050506040513d601f19601f8201168201806040525081019061101791906144f8565b507f487194902d206a126abe9f23a4e2b78d1600ed8034b1423290a13edd6ebc7d1461104960608301604084016142de565b61105660208401846142de565b60608401356080850135602086013560017f00000000000000000000000000000000000000000000000000000000000000006001811115611099576110996143ca565b146110a55760006110a8565b60015b604080516001600160a01b0397881681529690951660208701529385019290925260608401526080830152151560a082015260c00160405180910390a150565b6001600160a01b0380821660008181526003602090815260408083208151606081018352815463ffffffff811682526401000000009004909616868401526001908101548683018190529484529183905290912001541015611187576040808201516001600160a01b0384166000908152602081905282902060010154915163091df9e560e31b81526107079290600401918252602082015260400190565b6111923483836112b3565b5050565b60005b81811015610651576111c28383838181106111b6576111b6614411565b90506104a00201610e14565b600101611199565b336001600160a01b038416811480159061128f5750604051631a45b42760e11b81526001600160a01b0382811660048301528581166024830152604482018590526064820184905260016084830181905260a48301527f0000000000000000000000000000000000000000000000000000000000000000169063348b684e9060c401602060405180830381865afa158015611269573d6000803e3d6000fd5b505050506040513d601f19601f8201168201806040525081019061128d9190614511565b155b156112ad5760405163075fd2b160e01b815260040160405180910390fd5b50505050565b6001600160a01b03821660009081526020819052604081206001810180549083905581549092919082906112ef906001600160401b0316614533565b91906101000a8154816001600160401b0302191690836001600160401b031602179055905060006001600160a01b031683602001516001600160a01b0316036113565760405163393e175160e01b81526001600160a01b0385166004820152602401610707565b6000604051806060016040528085602001516001600160a01b031681526020018481526020016040518060400160405280856001600160401b031681526020016113c56000808b6001600160a01b03166001600160a01b03168152602001908152602001600020600201612004565b905290526040805182516001600160a01b031660248201526020808401516044830152929091015180516001600160401b0316606483015290910151608482015260a40160408051601f198184030181529190526020810180516001600160e01b03166369d31fdd60e01b179052905060007f00000000000000000000000000000000000000000000000000000000000000006001811115611469576114696143ca565b036114805761147b85878584886133ba565b61148c565b61148c85848387613726565b6001600160a01b03851660008181526020819052604090206114b090600201612004565b6001600160a01b0387166000908152602081905260409020602201547f3e069c1f498cba23d7d2b74b84311469e8da6e527cade62061d642c61b64e0de906114fa90600190614559565b604080519182526001600160401b0387166020830152015b60405180910390a3505050505050565b6040516001600160a01b0384811660248301528381166044830152606482018390526112ad9186918216906323b872dd906084015b604051602081830303815290604052915060e01b6020820180516001600160e01b03838183161783525050505061394c565b604051630862026560e41b81527f000000000000000000000000000000000000000000000000000000000000000060048201526001600160a01b03838116602483015260009182917f00000000000000000000000000000000000000000000000000000000000000001690638620265090604401602060405180830381865afa15801561161a573d6000803e3d6000fd5b505050506040513d601f19601f8201168201806040525081019061163e919061444d565b90506001600160a01b03811661169857604051630c9ae01360e01b81527f000000000000000000000000000000000000000000000000000000000000000060048201526001600160a01b0385166024820152604401610707565b60006116a485306139af565b60408051602081018252600081529051635db90a7f60e11b81529192506001600160a01b0384169163bb7214fe9161170a9130917f0000000000000000000000000000000000000000000000000000000000000000918b918d918c9186916004016145bc565b6020604051808303816000875af1158015611729573d6000803e3d6000fd5b505050506040513d601f19601f8201168201806040525081019061174d91906144f8565b92508061175a86306139af565b6117649190614559565b83146117725761177261460e565b5050949350505050565b6000611789858484613a48565b6001600160a01b0385166000908152602081815260408083208151610440810180845295965093946117f49487949093600290930192849290830191849182845b8154815260200190600101908083116117ca57505050918352505060209182015491015290613a8d565b6001600160a01b03861660009081526020818152604090912082519293508392600290910191611825918391614149565b50602091820151908201556001600160a01b03861660009081529081905260408120600101805486929061185a908490614480565b92505081905550846001600160a01b0316836001600160a01b03167f7b58dbb78e7edc690b0688a53dea0c443d630c4a5db66c3c47d4ff2044c9772884600185602001516118a89190614559565b6001600160a01b038a1660009081526020819052604090206118cc90600201612004565b60408051938452602084019290925290820152606081018a90526080810188905260a001611512565b6001600160a01b0382166000908152600260205260409020548082111561192f57604051632858f9ab60e11b815260040160405180910390fd5b6001600160a01b03838116600081815260026020526040808220868603905551630862026560e41b81527f000000000000000000000000000000000000000000000000000000000000000060048201526024810192909252917f00000000000000000000000000000000000000000000000000000000000000001690638620265090604401602060405180830381865afa1580156119d1573d6000803e3d6000fd5b505050506040513d601f19601f820116820180604052508101906119f5919061444d565b90506001600160a01b038116611a4f57604051630c9ae01360e01b81527f000000000000000000000000000000000000000000000000000000000000000060048201526001600160a01b0385166024820152604401610707565b6001600160a01b03841661eeee14611bff576040516370a0823160e01b81523060048201526000906001600160a01b038616906370a0823190602401602060405180830381865afa158015611aa8573d6000803e3d6000fd5b505050506040513d601f19601f82011682018060405250810190611acc91906144f8565b9050611ad9858386613b93565b60408051602080820183526000808352835191820184528082529251639e6eec0560e01b81526001600160a01b03861693639e6eec0593611b46937f0000000000000000000000000000000000000000000000000000000000000000938c938c9390929091600401614624565b600060405180830381600087803b158015611b6057600080fd5b505af1158015611b74573d6000803e3d6000fd5b505050508381611b849190614559565b6040516370a0823160e01b81523060048201526001600160a01b038716906370a0823190602401602060405180830381865afa158015611bc8573d6000803e3d6000fd5b505050506040513d601f19601f82011682018060405250810190611bec91906144f8565b14611bf957611bf961460e565b506112ad565b60408051602080820183526000808352835191820184528082529251639e6eec0560e01b81526001600160a01b03851693639e6eec05938893611c6f937f0000000000000000000000000000000000000000000000000000000000000000938c9387939192909190600401614624565b6000604051808303818588803b158015611c8857600080fd5b505af1158015611c9c573d6000803e3d6000fd5b505050505050505050565b6000807f00000000000000000000000000000000000000000000000000000000000000006001811115611cdc57611cdc6143ca565b03611e825760007f00000000000000000000000000000000000000000000000000000000000000006001600160a01b031663e78cea926040518163ffffffff1660e01b8152600401602060405180830381865afa158015611d41573d6000803e3d6000fd5b505050506040513d601f19601f82011682018060405250810190611d65919061444d565b9050806001600160a01b0316836001600160a01b0316148015611e7b5750806001600160a01b031663ab5d89436040518163ffffffff1660e01b8152600401602060405180830381865afa158015611dc1573d6000803e3d6000fd5b505050506040513d601f19601f82011682018060405250810190611de5919061444d565b6001600160a01b03166380648b026040518163ffffffff1660e01b8152600401602060405180830381865afa158015611e22573d6000803e3d6000fd5b505050506040513d601f19601f82011682018060405250810190611e46919061444d565b6001600160a01b03167f00000000000000000000000000000000000000000000000000000000000000006001600160a01b0316145b9392505050565b7311110000000000000000000000000000000011117f0000000000000000000000000000000000000000000000000000000000000000016001600160a01b0316826001600160a01b0316149050919050565b6001600160a01b0385166000908152600460209081526040808320600886901c8452909152902054600160ff84161b1615611f255760405163ed9bdd0760e01b815260048101839052602401610707565b6001600160a01b0385166000908152600460209081526040808320600886901c845290915281208054600160ff86161b179055611f94611f66888787613a48565b604080516104008181019092529085906020908390839080828437600092019190915250879150613c239050565b6001600160a01b038716600090815260016020819052604090912001549091508114611ffb576001600160a01b0386166000908152600160208190526040918290200154905163286f87c960e21b8152600481019190915260248101829052604401610707565b50505050505050565b602081015460009080820361203b57507f27ae5ba08d7291c96c8cbddcc148bf48a6d68c7974b94356f53754ef6171d75792915050565b600083600183161561205d578054600052600060205260406000209350612910565b60028316156120a25760018101546000527fad3228b676f7d3cd4284a5443f17f1962b36e491b30a40b2405849e597ba5fb56020526040600020935060019150612910565b60048316156120e75760028101546000527fb4c11951957c6f8f642c4af61cd6b24640fec6dc7fc607ee8206a99e92410d306020526040600020935060029150612910565b600883161561212c5760038101546000527f21ddb9a356815c3fac1026b6dec5df3124afbadb485c9ba5a3e3398a04b7ba856020526040600020935060039150612910565b60108316156121715760048101546000527fe58769b32a1beaf1ea27375a44095a0d1fb664ce2dd358e7fcbfb78c26a193446020526040600020935060049150612910565b60208316156121b65760058101546000527f0eb01ebfc9ed27500cd4dfc979272d1f0913cc9f66540d7e8005811109e1cf2d6020526040600020935060059150612910565b60408316156121fb5760068101546000527f887c22bd8750d34016ac3c66b5ff102dacdd73f6b014e710b51e8022af9a19686020526040600020935060069150612910565b60808316156122405760078101546000527fffd70157e48063fc33c97a050f7f640233bf646cc98d9524c6b92bcf3ab56f836020526040600020935060079150612910565b6101008316156122865760088101546000527f9867cc5f7f196b93bae1e27e6320742445d290f2263827498b54fec539f756af6020526040600020935060089150612910565b6102008316156122cc5760098101546000527fcefad4e508c098b9a7e1d8feb19955fb02ba9675585078710969d3440f5054e06020526040600020935060099150612910565b61040083161561231257600a8101546000527ff9dc3e7fe016e050eff260334f18a5d4fe391d82092319f5964f2e2eb7c1c3a560205260406000209350600a9150612910565b61080083161561235857600b8101546000527ff8b13a49e282f609c317a833fb8d976d11517c571d1221a265d25af778ecf89260205260406000209350600b9150612910565b61100083161561239e57600c8101546000527f3490c6ceeb450aecdc82e28293031d10c7d73bf85e57bf041a97360aa2c5d99c60205260406000209350600c9150612910565b6120008316156123e457600d8101546000527fc1df82d9c4b87413eae2ef048f94b4d3554cea73d92b0f7af96e0271c691e2bb60205260406000209350600d9150612910565b61400083161561242a57600e8101546000527f5c67add7c6caf302256adedf7ab114da0acfe870d449a3a489f781d659e8becc60205260406000209350600e9150612910565b61800083161561247057600f8101546000527fda7bce9f4e8618b6bd2f4132ce798cdc7a60e7e1460a7299e3c6342a579626d260205260406000209350600f9150612910565b620100008316156124b75760108101546000527f2733e50f526ec2fa19a22b31e8ed50f23cd1fdf94c9154ed3a7609a2f1ff981f6020526040600020935060109150612910565b620200008316156124fe5760118101546000527fe1d3b5c807b281e4683cc6d6315cf95b9ade8641defcb32372f1c126e398ef7a6020526040600020935060119150612910565b620400008316156125455760128101546000527f5a2dce0a8a7f68bb74560f8f71837c2c2ebbcbf7fffb42ae1896f13f7c7479a06020526040600020935060129150612910565b6208000083161561258c5760138101546000527fb46a28b6f55540f89444f63de0378e3d121be09e06cc9ded1c20e65876d36aa06020526040600020935060139150612910565b621000008316156125d35760148101546000527fc65e9645644786b620e2dd2ad648ddfcbf4a7e5b1a3a4ecfe7f64667a3f0b7e26020526040600020935060149150612910565b6220000083161561261a5760158101546000527ff4418588ed35a2458cffeb39b93d26f18d2ab13bdce6aee58e7b99359ec2dfd96020526040600020935060159150612910565b624000008316156126615760168101546000527f5a9c16dc00d6ef18b7933a6f8dc65ccb55667138776f7dea101070dc8796e3776020526040600020935060169150612910565b628000008316156126a85760178101546000527f4df84f40ae0c8229d0d6069e5c8f39a7c299677a09d367fc7b05e3bc380ee6526020526040600020935060179150612910565b63010000008316156126f05760188101546000527fcdc72595f74c7b1043d0e1ffbab734648c838dfb0527d971b602bc216c9619ef6020526040600020935060189150612910565b63020000008316156127385760198101546000527f0abf5ac974a1ed57f4050aa510dd9c74f508277b39d7973bb2dfccc5eeb0618d6020526040600020935060199150612910565b630400000083161561278057601a8101546000527fb8cd74046ff337f0a7bf2c8e03e10f642c1886798d71806ab1e888d9e5ee87d060205260406000209350601a9150612910565b63080000008316156127c857601b8101546000527f838c5655cb21c6cb83313b5a631175dff4963772cce9108188b34ac87c81c41e60205260406000209350601b9150612910565b631000000083161561281057601c8101546000527f662ee4dd2dd7b2bc707961b1e646c4047669dcb6584f0d8d770daf5d7e7deb2e60205260406000209350601c9150612910565b632000000083161561285857601d8101546000527f388ab20e2573d171a88108e79d820e98f26c0b84aa8b2f4aa4968dbb818ea32260205260406000209350601d9150612910565b63400000008316156128a057601e8101546000527f93237c50ba75ee485f4c22adf2f741400bdf8d6a9cc7df7ecae576221665d73560205260406000209350601e9150612910565b63800000008316156128e857601f8101546000527f8448818bb4ae4562849e949e17ac16e0be16688e156b5cf15e098c627c0056a960205260406000209350601f9150612910565b7f27ae5ba08d7291c96c8cbddcc148bf48a6d68c7974b94356f53754ef6171d7579350602091505b601e82116133b257600182101561296e5760028316801561293c57600182015460005284602052612965565b846000527fad3228b676f7d3cd4284a5443f17f1962b36e491b30a40b2405849e597ba5fb56020525b50604060002093505b60028210156129c457600483168015612992576002820154600052846020526129bb565b846000527fb4c11951957c6f8f642c4af61cd6b24640fec6dc7fc607ee8206a99e92410d306020525b50604060002093505b6003821015612a1a576008831680156129e857600382015460005284602052612a11565b846000527f21ddb9a356815c3fac1026b6dec5df3124afbadb485c9ba5a3e3398a04b7ba856020525b50604060002093505b6004821015612a7057601083168015612a3e57600482015460005284602052612a67565b846000527fe58769b32a1beaf1ea27375a44095a0d1fb664ce2dd358e7fcbfb78c26a193446020525b50604060002093505b6005821015612ac657602083168015612a9457600582015460005284602052612abd565b846000527f0eb01ebfc9ed27500cd4dfc979272d1f0913cc9f66540d7e8005811109e1cf2d6020525b50604060002093505b6006821015612b1c57604083168015612aea57600682015460005284602052612b13565b846000527f887c22bd8750d34016ac3c66b5ff102dacdd73f6b014e710b51e8022af9a19686020525b50604060002093505b6007821015612b7257608083168015612b4057600782015460005284602052612b69565b846000527fffd70157e48063fc33c97a050f7f640233bf646cc98d9524c6b92bcf3ab56f836020525b50604060002093505b6008821015612bc95761010083168015612b9757600882015460005284602052612bc0565b846000527f9867cc5f7f196b93bae1e27e6320742445d290f2263827498b54fec539f756af6020525b50604060002093505b6009821015612c205761020083168015612bee57600982015460005284602052612c17565b846000527fcefad4e508c098b9a7e1d8feb19955fb02ba9675585078710969d3440f5054e06020525b50604060002093505b600a821015612c775761040083168015612c4557600a82015460005284602052612c6e565b846000527ff9dc3e7fe016e050eff260334f18a5d4fe391d82092319f5964f2e2eb7c1c3a56020525b50604060002093505b600b821015612cce5761080083168015612c9c57600b82015460005284602052612cc5565b846000527ff8b13a49e282f609c317a833fb8d976d11517c571d1221a265d25af778ecf8926020525b50604060002093505b600c821015612d255761100083168015612cf357600c82015460005284602052612d1c565b846000527f3490c6ceeb450aecdc82e28293031d10c7d73bf85e57bf041a97360aa2c5d99c6020525b50604060002093505b600d821015612d7c5761200083168015612d4a57600d82015460005284602052612d73565b846000527fc1df82d9c4b87413eae2ef048f94b4d3554cea73d92b0f7af96e0271c691e2bb6020525b50604060002093505b600e821015612dd35761400083168015612da157600e82015460005284602052612dca565b846000527f5c67add7c6caf302256adedf7ab114da0acfe870d449a3a489f781d659e8becc6020525b50604060002093505b600f821015612e2a5761800083168015612df857600f82015460005284602052612e21565b846000527fda7bce9f4e8618b6bd2f4132ce798cdc7a60e7e1460a7299e3c6342a579626d26020525b50604060002093505b6010821015612e82576201000083168015612e5057601082015460005284602052612e79565b846000527f2733e50f526ec2fa19a22b31e8ed50f23cd1fdf94c9154ed3a7609a2f1ff981f6020525b50604060002093505b6011821015612eda576202000083168015612ea857601182015460005284602052612ed1565b846000527fe1d3b5c807b281e4683cc6d6315cf95b9ade8641defcb32372f1c126e398ef7a6020525b50604060002093505b6012821015612f32576204000083168015612f0057601282015460005284602052612f29565b846000527f5a2dce0a8a7f68bb74560f8f71837c2c2ebbcbf7fffb42ae1896f13f7c7479a06020525b50604060002093505b6013821015612f8a576208000083168015612f5857601382015460005284602052612f81565b846000527fb46a28b6f55540f89444f63de0378e3d121be09e06cc9ded1c20e65876d36aa06020525b50604060002093505b6014821015612fe2576210000083168015612fb057601482015460005284602052612fd9565b846000527fc65e9645644786b620e2dd2ad648ddfcbf4a7e5b1a3a4ecfe7f64667a3f0b7e26020525b50604060002093505b601582101561303a57622000008316801561300857601582015460005284602052613031565b846000527ff4418588ed35a2458cffeb39b93d26f18d2ab13bdce6aee58e7b99359ec2dfd96020525b50604060002093505b601682101561309257624000008316801561306057601682015460005284602052613089565b846000527f5a9c16dc00d6ef18b7933a6f8dc65ccb55667138776f7dea101070dc8796e3776020525b50604060002093505b60178210156130ea5762800000831680156130b8576017820154600052846020526130e1565b846000527f4df84f40ae0c8229d0d6069e5c8f39a7c299677a09d367fc7b05e3bc380ee6526020525b50604060002093505b6018821015613143576301000000831680156131115760188201546000528460205261313a565b846000527fcdc72595f74c7b1043d0e1ffbab734648c838dfb0527d971b602bc216c9619ef6020525b50604060002093505b601982101561319c5763020000008316801561316a57601982015460005284602052613193565b846000527f0abf5ac974a1ed57f4050aa510dd9c74f508277b39d7973bb2dfccc5eeb0618d6020525b50604060002093505b601a8210156131f5576304000000831680156131c357601a820154600052846020526131ec565b846000527fb8cd74046ff337f0a7bf2c8e03e10f642c1886798d71806ab1e888d9e5ee87d06020525b50604060002093505b601b82101561324e5763080000008316801561321c57601b82015460005284602052613245565b846000527f838c5655cb21c6cb83313b5a631175dff4963772cce9108188b34ac87c81c41e6020525b50604060002093505b601c8210156132a75763100000008316801561327557601c8201546000528460205261329e565b846000527f662ee4dd2dd7b2bc707961b1e646c4047669dcb6584f0d8d770daf5d7e7deb2e6020525b50604060002093505b601d821015613300576320000000831680156132ce57601d820154600052846020526132f7565b846000527f388ab20e2573d171a88108e79d820e98f26c0b84aa8b2f4aa4968dbb818ea3226020525b50604060002093505b601e8210156133595763400000008316801561332757601e82015460005284602052613350565b846000527f93237c50ba75ee485f4c22adf2f741400bdf8d6a9cc7df7ecae576221665d7356020525b50604060002093505b601f8210156133b25763800000008316801561338057601f820154600052846020526133a9565b846000527f8448818bb4ae4562849e949e17ac16e0be16688e156b5cf15e098c627c0056a96020525b50604060002093505b505050919050565b815160405163a66b327d60e01b81526004810191909152630bebc200602482015260009081906001600160a01b037f0000000000000000000000000000000000000000000000000000000000000000169063a66b327d90604401602060405180830381865afa158015613431573d6000803e3d6000fd5b505050506040513d601f19601f8201168201806040525081019061345591906144f8565b9050600061346a620493e0630bebc20061466b565b61347a9063ffffffff1683614480565b90508087101561349d57604051636eb14fc360e11b815260040160405180910390fd5b6001600160a01b03881661eeee1461363357604051635ed004ff60e11b81526001600160a01b03808a166004830152613545918a917f0000000000000000000000000000000000000000000000000000000000000000169063bda009fe90602401602060405180830381865afa15801561351b573d6000803e3d6000fd5b505050506040513d601f19601f8201168201806040525081019061353f919061444d565b88613b93565b7f00000000000000000000000000000000000000000000000000000000000000006001600160a01b0316634fb1a07b888a337f00000000000000000000000000000000000000000000000000000000000000008b620493e0630bebc2008a8e6040516020016135b5929190614693565b6040516020818303038152906040526040518963ffffffff1660e01b81526004016135e697969594939291906146b4565b60006040518083038185885af1158015613604573d6000803e3d6000fd5b50505050506040513d6000823e601f3d908101601f1916820160405261362d9190810190614718565b50613637565b8592505b866136428285614480565b111561366157604051636eb14fc360e11b815260040160405180910390fd5b7f00000000000000000000000000000000000000000000000000000000000000006001600160a01b031663679b6ded887f000000000000000000000000000000000000000000000000000000000000000086863333620493e0630bebc2008e6040518a63ffffffff1660e01b81526004016136e39897969594939291906147c4565b60206040518083038185885af1158015613701573d6000803e3d6000fd5b50505050506040513d601f19601f82011682018060405250810190611c9c91906144f8565b60003415613747576040516352864b0160e11b815260040160405180910390fd5b6001600160a01b03851661eeee146138be57604051635ed004ff60e11b81526001600160a01b0380871660048301526137ef9187917f0000000000000000000000000000000000000000000000000000000000000000169063bda009fe90602401602060405180830381865afa1580156137c5573d6000803e3d6000fd5b505050506040513d601f19601f820116820180604052508101906137e9919061444d565b86613b93565b6020808301516040805192830181526000835251637b3a3c8b60e01b81526001600160a01b037f00000000000000000000000000000000000000000000000000000000000000001692637b3a3c8b926138719290917f0000000000000000000000000000000000000000000000000000000000000000918a9190600401614829565b6000604051808303816000875af1158015613890573d6000803e3d6000fd5b505050506040513d6000823e601f3d908101601f191682016040526138b89190810190614718565b506138c1565b50825b6040516349460b4d60e11b815260649063928c169a908390613909907f000000000000000000000000000000000000000000000000000000000000000090889060040161485c565b60206040518083038185885af1158015613927573d6000803e3d6000fd5b50505050506040513d601f19601f82011682018060405250810190610b6691906144f8565b60006139616001600160a01b03841683613f71565b905080516000141580156139865750808060200190518101906139849190614511565b155b1561065157604051635274afe760e01b81526001600160a01b0384166004820152602401610707565b600061eeed196001600160a01b038416016139d557506001600160a01b03811631613a42565b6040516370a0823160e01b81526001600160a01b0383811660048301528416906370a0823190602401602060405180830381865afa158015613a1b573d6000803e3d6000fd5b505050506040513d601f19601f82011682018060405250810190613a3f91906144f8565b90505b92915050565b60408051602081018590529081018390526001600160a01b03821660608201526000906080016040516020818303038152906040528051906020012090509392505050565b613a95614183565b6000836020018051613aa690614880565b9081905290506001613aba6020600261497d565b613ac49190614559565b811115613ae457604051638eab04bb60e01b815260040160405180910390fd5b60005b6020811015613b795781600116600103613b2057845184908260208110613b1057613b10614411565b602002015250839150613a429050565b84518160208110613b3357613b33614411565b602002015184604051602001613b53929190918252602082015260400190565b60408051601f1981840301815291905280516020909101209350600191821c9101613ae7565b50604051638eab04bb60e01b815260040160405180910390fd5b604080516001600160a01b038416602482015260448082018490528251808303909101815260649091019091526020810180516001600160e01b031663095ea7b360e01b179052613be48482613f7f565b6112ad576040516001600160a01b03848116602483015260006044830152613c1991869182169063095ea7b390606401611557565b6112ad848261394c565b6020600582811b8216948552835194820394909452604060008181206002851615871b808503919091528386015190528181206004851615871b808503919091528286015190528181206008851615871b80850391909152606086015190528181206010851615871b8085039190915260808087015190915282822084861615881b8086039190915260a0870151905282822083861615881b8086039190915260c0870151905282822090851615871b8085039190915260e0860151905281812061010080861615881b80860392909252860151905281812061020080861615881b80860392909252610120870151909152828220610400861615881b808603919091526101408701519052828220610800861615881b808603919091526101608701519052828220611000861615881b808603919091526101808701519052828220612000861615881b808603919091526101a08701519052828220614000861615881b808603919091526101c08701519052828220618000861615881b808603919091526101e0870151905282822062010000861615881b8086039190915290860151905281812062020000851615871b80850391909152610220860151905281812062040000851615871b80850391909152610240860151905281812062080000851615871b80850391909152610260860151905281812062100000851615871b80850391909152610280860151905281812062200000851615871b808503919091526102a0860151905281812062400000851615871b808503919091526102c0860151905281812062800000851615871b808503919091526102e086015190528181206301000000851615871b8085039190915261030086015190528181206302000000851615871b8085039190915261032086015190528181206304000000851615871b8085039190915261034086015190528181206308000000851615871b8085039190915261036086015190528181206310000000851615871b8085039190915261038086015190528181206320000000851615871b808503919091526103a086015190528181206340000000851615871b808503919091526103c0860151905281812063800000009094161590951b91829003929092526103e090920151909152902090565b6060613a3f83836000614027565b6000806000846001600160a01b031684604051613f9c9190614989565b6000604051808303816000865af19150503d8060008114613fd9576040519150601f19603f3d011682016040523d82523d6000602084013e613fde565b606091505b50915091508180156140085750805115806140085750808060200190518101906140089190614511565b801561401e57506000856001600160a01b03163b115b95945050505050565b60608147101561404c5760405163cd78605960e01b8152306004820152602401610707565b600080856001600160a01b031684866040516140689190614989565b60006040518083038185875af1925050503d80600081146140a5576040519150601f19603f3d011682016040523d82523d6000602084013e6140aa565b606091505b50915091506140ba8683836140c4565b9695505050505050565b6060826140d9576140d482614120565b611e7b565b81511580156140f057506001600160a01b0384163b155b1561411957604051639996b31560e01b81526001600160a01b0385166004820152602401610707565b5080611e7b565b8051156141305780518082602001fd5b604051630a12f52160e11b815260040160405180910390fd5b8260208101928215614177579160200282015b8281111561417757825182559160200191906001019061415c565b50610bbc9291506141a3565b60405180604001604052806141966141b8565b8152602001600081525090565b5b80821115610bbc57600081556001016141a4565b6040518061040001604052806020906020820280368337509192915050565b600080602083850312156141ea57600080fd5b82356001600160401b038082111561420157600080fd5b818501915085601f83011261421557600080fd5b81358181111561422457600080fd5b8660208260071b850101111561423957600080fd5b60209290920196919550909350505050565b60006080828403121561425d57600080fd5b50919050565b60006080828403121561427557600080fd5b613a3f838361424b565b6001600160a01b0381168114610c3657600080fd5b600080600080608085870312156142aa57600080fd5b8435935060208501356142bc8161427f565b92506040850135915060608501356142d38161427f565b939692955090935050565b6000602082840312156142f057600080fd5b8135611e7b8161427f565b6001600160401b038416815260208082018490528251610460830191906000604085015b8382101561433d57825181529183019160019190910190830161431f565b505050506020830151610440830152949350505050565b60006104a0828403121561425d57600080fd5b6000806020838503121561437a57600080fd5b82356001600160401b038082111561439157600080fd5b818501915085601f8301126143a557600080fd5b8135818111156143b457600080fd5b8660206104a08302850101111561423957600080fd5b634e487b7160e01b600052602160045260246000fd5b60028110610c3657634e487b7160e01b600052602160045260246000fd5b6020810161440b836143e0565b91905290565b634e487b7160e01b600052603260045260246000fd5b60006020828403121561443957600080fd5b813563ffffffff81168114611e7b57600080fd5b60006020828403121561445f57600080fd5b8151611e7b8161427f565b634e487b7160e01b600052601160045260246000fd5b80820180821115613a4257613a4261446a565b6001600160401b0381168114610c3657600080fd5b6000602082840312156144ba57600080fd5b8135611e7b81614493565b81356144d081614493565b6001600160401b0381166001600160401b031983541617825550602082013560018201555050565b60006020828403121561450a57600080fd5b5051919050565b60006020828403121561452357600080fd5b81518015158114611e7b57600080fd5b60006001600160401b0380831681810361454f5761454f61446a565b6001019392505050565b81810381811115613a4257613a4261446a565b60005b8381101561458757818101518382015260200161456f565b50506000910152565b600081518084526145a881602086016020860161456c565b601f01601f19169290920160200192915050565b600060018060a01b03808a168352886020840152808816604084015286606084015285608084015280851660a08401525060e060c083015261460160e0830184614590565b9998505050505050505050565b634e487b7160e01b600052600160045260246000fd5b86815260018060a01b0386166020820152846040820152831515606082015260c06080820152600061465960c0830185614590565b82810360a08401526146018185614590565b63ffffffff81811683821602808216919082811461468b5761468b61446a565b505092915050565b8281526040602082015260006146ac6040830184614590565b949350505050565b6001600160a01b0388811682528781166020830152861660408201526060810185905263ffffffff8416608082015260a0810183905260e060c0820181905260009061460190830184614590565b634e487b7160e01b600052604160045260246000fd5b60006020828403121561472a57600080fd5b81516001600160401b038082111561474157600080fd5b818401915084601f83011261475557600080fd5b81518181111561476757614767614702565b604051601f8201601f19908116603f0116810190838211818310171561478f5761478f614702565b816040528281528760208487010111156147a857600080fd5b6147b983602083016020880161456c565b979650505050505050565b6001600160a01b038981168252602082018990526040820188905286811660608301528516608082015263ffffffff841660a082015260c0810183905261010060e0820181905260009061481a83820185614590565b9b9a5050505050505050505050565b6001600160a01b03858116825284166020820152604081018390526080606082018190526000906140ba90830184614590565b6001600160a01b03831681526040602082018190526000906146ac90830184614590565b6000600182016148925761489261446a565b5060010190565b600181815b808511156148d45781600019048211156148ba576148ba61446a565b808516156148c757918102915b93841c939080029061489e565b509250929050565b6000826148eb57506001613a42565b816148f857506000613a42565b816001811461490e576002811461491857614934565b6001915050613a42565b60ff8411156149295761492961446a565b50506001821b613a42565b5060208310610133831016604e8410600b8410161715614957575081810a613a42565b6149618383614899565b80600019048211156149755761497561446a565b029392505050565b6000613a3f83836148dc565b6000825161499b81846020870161456c565b919091019291505056fea2646970667358221220602c1f2c8f0bb2ddce111b332c91e05ed1ab3ff953a9a202f0918ba97fd4f98064736f6c63430008170033a264697066735822122085d0dd4033854c2b1e436422ab07d2761d52f8ba9475a569b24a75de071e45cc64736f6c63430008170033",
	"deployedBytecode": "0x608060405234801561001057600080fd5b50600436106100625760003560e01c806303c85ea314610067578063121303661461008c578063ba8b1d1a1461009f578063c39ec124146100b6578063c86719b7146100e9578063f434c9141461011d575b600080fd5b61006f610144565b6040516001600160a01b0390911681526020015b60405180910390f35b61006f61009a3660046102fd565b6101dd565b6100a860015481565b604051908152602001610083565b6100d96100c436600461031f565b60006020819052908152604090205460ff1681565b6040519015158152602001610083565b6101107f000000000000000000000000000000000000000000000000000000000000000081565b6040516100839190610370565b61006f7f000000000000000000000000ada1e1ee4576da063ead17d1acf49254fa881f0e81565b600046600019810161016b577372ce9c846789fdb6fc1f34ac4ad25dd9ef7031ef91505090565b61a4b1810361018f57735288c571fd7ad117bea99bf60fe0846c4e84f93391505090565b62aa36a781036101b45773ce18836b233c83325cc8848ca4487e94c628826491505090565b62066eee81036101d957739fdd1c4e4aa24eec1d913fabea925594a20d43c791505090565b5090565b6040516bffffffffffffffffffffffff193360601b1660208201526034810182905260009060540160405160208183030381529060405280519060200120915082600181905550817f000000000000000000000000c9cb7a0bab7569b5b6de26a679d107d4d412b3497f0000000000000000000000004b91b0593302d5f033f0fdcef7d82e2ff57e24677f000000000000000000000000ada1e1ee4576da063ead17d1acf49254fa881f0e600080604051610297906102f0565b6102a5959493929190610383565b8190604051809103906000f59050801580156102c5573d6000803e3d6000fd5b506001600160a01b0381166000908152602081905260409020805460ff191660011790559392505050565b614ec5806103c583390190565b6000806040838503121561031057600080fd5b50508035926020909101359150565b60006020828403121561033157600080fd5b81356001600160a01b038116811461034857600080fd5b9392505050565b6002811061036d57634e487b7160e01b600052602160045260246000fd5b50565b6020810161037d8361034f565b91905290565b6001600160a01b038681168252858116602083015284811660408301528316606082015260a081016103b48361034f565b826080830152969550505050505056fe6101c06040523480156200001257600080fd5b5060405162004ec538038062004ec5833981016040819052620000359162000298565b8484848484336001600160a01b031663ba8b1d1a6040518163ffffffff1660e01b8152600401602060405180830381865afa15801562000079573d6000803e3d6000fd5b505050506040513d601f19601f820116820180604052508101906200009f91906200031b565b6001600160a01b0380851660805286811660c05285811660e052831615620000c85782620000ca565b305b6001600160a01b0316610120526101408190523361010052816001811115620000f757620000f762000335565b60a08160018111156200010e576200010e62000335565b90525050469450620001279350849250506200024a9050565b620001455760405163f21c9f0760e01b815260040160405180910390fd5b600181148062000157575062aa36a781145b15620001ab57600061016052600181146200018d5773aae29b0366299461418f5324a79afc425be5ae216101a0819052620001a9565b734dbd4fc535ac27206064b68ffcf827b0a60bab3f6101a08190525b505b61a4b1811480620001be575062066eee81145b15620001cb576001610160525b336001600160a01b03166303c85ea36040518163ffffffff1660e01b8152600401602060405180830381865afa1580156200020a573d6000803e3d6000fd5b505050506040513d601f19601f820116820180604052508101906200023091906200034b565b6001600160a01b0316610180525062000372945050505050565b600060018214806200025e575062aa36a782145b806200026b575061a4b182145b8062000279575062066eee82145b92915050565b6001600160a01b03811681146200029557600080fd5b50565b600080600080600060a08688031215620002b157600080fd5b8551620002be816200027f565b6020870151909550620002d1816200027f565b6040870151909450620002e4816200027f565b6060870151909350620002f7816200027f565b6080870151909250600281106200030d57600080fd5b809150509295509295909350565b6000602082840312156200032e57600080fd5b5051919050565b634e487b7160e01b600052602160045260246000fd5b6000602082840312156200035e57600080fd5b81516200036b816200027f565b9392505050565b60805160a05160c05160e05161010051610120516101405161016051610180516101a0516149db620004ea600039600081816103b901528181611ce5015281816133ea015261366301526000818161053c015281816134d4015281816135470152818161377e0152613817015260008181610508015281816114390152611cac0152600081816102200152818161080b0152818161088801528181610a2501528181610eae01528181610f57015281816115980152818161165d015281816116da0152818161195b01528181611a1401528181611b160152611c3e01526000818161038501528181611e5101528181611e9901528181613579015281816136930152818161384601526138df0152600061049301526000818161016d0152610a4e0152600081816103510152818161077c01528181610ed4015281816115d3015261198a0152600081816104c701528181610bc401528181610e5001526110690152600081816105fc015261122201526149db6000f3fe60806040526004361061014f5760003560e01c8063b1012368116100b6578063c6525f2c1161006f578063c6525f2c146104b5578063c86719b7146104f6578063defbb6971461052a578063e7f82c751461055e578063ed0e26b91461058b578063f434c914146105ea57600080fd5b8063b1012368146103a7578063b59ef50f146103db578063b71c1179146103fb578063bf557aee1461040e578063c185412914610461578063c1b8411a1461048157600080fd5b806369ce22331161010857806369ce22331461026557806369d31fdd146102855780636dfa7268146102985780637de6fba2146102c757806388bc2ef31461033f578063ad42938b1461037357600080fd5b80631d831d5c1461015b5780632241dc52146101ac57806338eb2044146101ce578063551ebbf0146101ee57806356539f391461020e57806361c864171461025057600080fd5b3661015657005b600080fd5b34801561016757600080fd5b5061018f7f000000000000000000000000000000000000000000000000000000000000000081565b6040516001600160a01b0390911681526020015b60405180910390f35b3480156101b857600080fd5b506101cc6101c73660046141d7565b61061e565b005b3480156101da57600080fd5b506101cc6101e9366004614263565b610656565b3480156101fa57600080fd5b506101cc610209366004614294565b6109ef565b34801561021a57600080fd5b506102427f000000000000000000000000000000000000000000000000000000000000000081565b6040519081526020016101a3565b34801561025c57600080fd5b50610242610b6e565b34801561027157600080fd5b506101cc6102803660046142de565b610bc0565b6101cc610293366004614263565b610c39565b3480156102a457600080fd5b506102b86102b33660046142de565b610daa565b6040516101a3939291906142fb565b3480156102d357600080fd5b506103156102e23660046142de565b6003602052600090815260409020805460019091015463ffffffff82169164010000000090046001600160a01b03169083565b6040805163ffffffff90941684526001600160a01b039092166020840152908201526060016101a3565b34801561034b57600080fd5b5061018f7f000000000000000000000000000000000000000000000000000000000000000081565b34801561037f57600080fd5b5061018f7f000000000000000000000000000000000000000000000000000000000000000081565b3480156103b357600080fd5b5061018f7f000000000000000000000000000000000000000000000000000000000000000081565b3480156103e757600080fd5b506101cc6103f6366004614354565b610e14565b6101cc6104093660046142de565b6110e8565b34801561041a57600080fd5b506104516104293660046142de565b6001600160a01b03908116600090815260036020526040902054640100000000900416151590565b60405190151581526020016101a3565b34801561046d57600080fd5b506101cc61047c366004614367565b611196565b34801561048d57600080fd5b5061018f7f000000000000000000000000000000000000000000000000000000000000000081565b3480156104c157600080fd5b506104e97f000000000000000000000000000000000000000000000000000000000000000081565b6040516101a391906143fe565b34801561050257600080fd5b506104e97f000000000000000000000000000000000000000000000000000000000000000081565b34801561053657600080fd5b5061018f7f000000000000000000000000000000000000000000000000000000000000000081565b34801561056a57600080fd5b506102426105793660046142de565b60026020526000908152604090205481565b34801561059757600080fd5b506105cb6105a63660046142de565b600160208190526000918252604090912080549101546001600160401b039091169082565b604080516001600160401b0390931683526020830191909152016101a3565b3480156105f657600080fd5b5061018f7f000000000000000000000000000000000000000000000000000000000000000081565b60005b818110156106515761064983838381811061063e5761063e614411565b905060800201610656565b600101610621565b505050565b600061066560208301836142de565b9050600061eeee61067960208501856142de565b6001600160a01b03161490508080156106ac575061eeee6106a060608501604086016142de565b6001600160a01b031614155b80156106d1575060006106c560608501604086016142de565b6001600160a01b031614155b15610710576106e660608401604085016142de565b604051630a0a3b6b60e31b81526001600160a01b0390911660048201526024015b60405180910390fd5b62030d406107246040850160208601614427565b63ffffffff16108015610735575080155b156107775762030d4061074e6040850160208601614427565b604051634f3dbeb360e11b815263ffffffff928316600482015291166024820152604401610707565b6108ae7f00000000000000000000000000000000000000000000000000000000000000006001600160a01b031663293c49996040518163ffffffff1660e01b8152600401602060405180830381865afa1580156107d8573d6000803e3d6000fd5b505050506040513d601f19601f820116820180604052508101906107fc919061444d565b6040516331a9108f60e11b81527f000000000000000000000000000000000000000000000000000000000000000060048201526001600160a01b039190911690636352211e90602401602060405180830381865afa158015610862573d6000803e3d6000fd5b505050506040513d601f19601f82011682018060405250810190610886919061444d565b7f0000000000000000000000000000000000000000000000000000000000000000601c6111ca565b60006108c060608501604086016142de565b6001600160a01b03161480156108f057506001600160a01b03821660009081526020819052604090206001015415155b1561094b576001600160a01b0380831660009081526003602090815260408083208151606081018352815463ffffffff811682526401000000009004909516928501929092526001909101549083015261094b9184906112b3565b60405180606001604052808460200160208101906109699190614427565b63ffffffff16815260200161098460608601604087016142de565b6001600160a01b0390811682526060909501356020918201529284166000908152600384526040908190208251815495840151909616640100000000026001600160c01b031990951663ffffffff909616959095179390931784559091015160019092019190915550565b6001600160a01b038316610a16576040516309a9c30b60e41b815260040160405180910390fd5b60405163ea78803f60e01b81527f000000000000000000000000000000000000000000000000000000000000000060048201526000907f00000000000000000000000000000000000000000000000000000000000000006001600160a01b03169063ea78803f90602401602060405180830381865afa158015610a9d573d6000803e3d6000fd5b505050506040513d601f19601f82011682018060405250810190610ac1919061444d565b90506001600160a01b038116610aea57604051635a33845560e01b815260040160405180910390fd5b6001600160a01b03828116600090815260036020526040902054640100000000900416610b355760405163393e175160e01b81526001600160a01b0383166004820152602401610707565b610b4a6001600160a01b038216333088611522565b6000610b5882878587611589565b9050610b668684838861177c565b505050505050565b6000466000198101610b835761a4b191505090565b61a4b18103610b9457600191505090565b62aa36a78103610ba85762066eee91505090565b62066eee8103610bbc5762aa36a791505090565b5090565b60007f00000000000000000000000000000000000000000000000000000000000000006001811115610bf457610bf46143ca565b14610c125760405163218a9a2d60e11b815260040160405180910390fd5b6001600160a01b038116600090815260026020526040902054610c369082906118f5565b50565b610c4233611ca7565b610c5f57604051630439dbd360e51b815260040160405180910390fd5b60208101803590600290600090610c7690856142de565b6001600160a01b03166001600160a01b031681526020019081526020016000206000828254610ca59190614480565b90915550600190506000610cbc60208401846142de565b6001600160a01b0316815260208101919091526040908101600020546001600160401b031690610cf290606084019084016144a8565b6001600160401b03161115610c36576040810160016000610d1660208501856142de565b6001600160a01b031681526020810191909152604001600020610d3982826144c5565b50610d49905060208201826142de565b6001600160a01b03167f551b6b99b4c48e3265d2885ab0d93779be2402293261e074f7bf74b2c8f45b6f610d8360608401604085016144a8565b604080516001600160401b039092168252606085013560208301520160405180910390a250565b6000602081815291815260409081902080546001820154835161044081018086526001600160401b0390931695919490926002850192849283019184919082845b815481526020019060010190808311610deb575050509183525050602091820154910152905083565b610e4c6060820135610e2960208401846142de565b6080840135610e3e60608601604087016142de565b602086013560a08701611ed4565b60017f00000000000000000000000000000000000000000000000000000000000000006001811115610e8057610e806143ca565b03610e9f57610e9f610e9560208301836142de565b60808301356118f5565b604051632eec7b5560e11b81527f000000000000000000000000000000000000000000000000000000000000000060048201527f00000000000000000000000000000000000000000000000000000000000000006001600160a01b031690635dd8f6aa90602401602060405180830381865afa158015610f23573d6000803e3d6000fd5b505050506040513d601f19601f82011682018060405250810190610f47919061444d565b6001600160a01b031663c7fb92de7f000000000000000000000000000000000000000000000000000000000000000060608401803590610f8a90604087016142de565b6040516001600160e01b031960e086901b168152600481019390935260248301919091526001600160a01b0316604482015260a06064820152600060a48201819052608482015260c4016020604051808303816000875af1158015610ff3573d6000803e3d6000fd5b505050506040513d601f19601f8201168201806040525081019061101791906144f8565b507f487194902d206a126abe9f23a4e2b78d1600ed8034b1423290a13edd6ebc7d1461104960608301604084016142de565b61105660208401846142de565b60608401356080850135602086013560017f00000000000000000000000000000000000000000000000000000000000000006001811115611099576110996143ca565b146110a55760006110a8565b60015b604080516001600160a01b0397881681529690951660208701529385019290925260608401526080830152151560a082015260c00160405180910390a150565b6001600160a01b0380821660008181526003602090815260408083208151606081018352815463ffffffff811682526401000000009004909616868401526001908101548683018190529484529183905290912001541015611187576040808201516001600160a01b0384166000908152602081905282902060010154915163091df9e560e31b81526107079290600401918252602082015260400190565b6111923483836112b3565b5050565b60005b81811015610651576111c28383838181106111b6576111b6614411565b90506104a00201610e14565b600101611199565b336001600160a01b038416811480159061128f5750604051631a45b42760e11b81526001600160a01b0382811660048301528581166024830152604482018590526064820184905260016084830181905260a48301527f0000000000000000000000000000000000000000000000000000000000000000169063348b684e9060c401602060405180830381865afa158015611269573d6000803e3d6000fd5b505050506040513d601f19601f8201168201806040525081019061128d9190614511565b155b156112ad5760405163075fd2b160e01b815260040160405180910390fd5b50505050565b6001600160a01b03821660009081526020819052604081206001810180549083905581549092919082906112ef906001600160401b0316614533565b91906101000a8154816001600160401b0302191690836001600160401b031602179055905060006001600160a01b031683602001516001600160a01b0316036113565760405163393e175160e01b81526001600160a01b0385166004820152602401610707565b6000604051806060016040528085602001516001600160a01b031681526020018481526020016040518060400160405280856001600160401b031681526020016113c56000808b6001600160a01b03166001600160a01b03168152602001908152602001600020600201612004565b905290526040805182516001600160a01b031660248201526020808401516044830152929091015180516001600160401b0316606483015290910151608482015260a40160408051601f198184030181529190526020810180516001600160e01b03166369d31fdd60e01b179052905060007f00000000000000000000000000000000000000000000000000000000000000006001811115611469576114696143ca565b036114805761147b85878584886133ba565b61148c565b61148c85848387613726565b6001600160a01b03851660008181526020819052604090206114b090600201612004565b6001600160a01b0387166000908152602081905260409020602201547f3e069c1f498cba23d7d2b74b84311469e8da6e527cade62061d642c61b64e0de906114fa90600190614559565b604080519182526001600160401b0387166020830152015b60405180910390a3505050505050565b6040516001600160a01b0384811660248301528381166044830152606482018390526112ad9186918216906323b872dd906084015b604051602081830303815290604052915060e01b6020820180516001600160e01b03838183161783525050505061394c565b604051630862026560e41b81527f000000000000000000000000000000000000000000000000000000000000000060048201526001600160a01b03838116602483015260009182917f00000000000000000000000000000000000000000000000000000000000000001690638620265090604401602060405180830381865afa15801561161a573d6000803e3d6000fd5b505050506040513d601f19601f8201168201806040525081019061163e919061444d565b90506001600160a01b03811661169857604051630c9ae01360e01b81527f000000000000000000000000000000000000000000000000000000000000000060048201526001600160a01b0385166024820152604401610707565b60006116a485306139af565b60408051602081018252600081529051635db90a7f60e11b81529192506001600160a01b0384169163bb7214fe9161170a9130917f0000000000000000000000000000000000000000000000000000000000000000918b918d918c9186916004016145bc565b6020604051808303816000875af1158015611729573d6000803e3d6000fd5b505050506040513d601f19601f8201168201806040525081019061174d91906144f8565b92508061175a86306139af565b6117649190614559565b83146117725761177261460e565b5050949350505050565b6000611789858484613a48565b6001600160a01b0385166000908152602081815260408083208151610440810180845295965093946117f49487949093600290930192849290830191849182845b8154815260200190600101908083116117ca57505050918352505060209182015491015290613a8d565b6001600160a01b03861660009081526020818152604090912082519293508392600290910191611825918391614149565b50602091820151908201556001600160a01b03861660009081529081905260408120600101805486929061185a908490614480565b92505081905550846001600160a01b0316836001600160a01b03167f7b58dbb78e7edc690b0688a53dea0c443d630c4a5db66c3c47d4ff2044c9772884600185602001516118a89190614559565b6001600160a01b038a1660009081526020819052604090206118cc90600201612004565b60408051938452602084019290925290820152606081018a90526080810188905260a001611512565b6001600160a01b0382166000908152600260205260409020548082111561192f57604051632858f9ab60e11b815260040160405180910390fd5b6001600160a01b03838116600081815260026020526040808220868603905551630862026560e41b81527f000000000000000000000000000000000000000000000000000000000000000060048201526024810192909252917f00000000000000000000000000000000000000000000000000000000000000001690638620265090604401602060405180830381865afa1580156119d1573d6000803e3d6000fd5b505050506040513d601f19601f820116820180604052508101906119f5919061444d565b90506001600160a01b038116611a4f57604051630c9ae01360e01b81527f000000000000000000000000000000000000000000000000000000000000000060048201526001600160a01b0385166024820152604401610707565b6001600160a01b03841661eeee14611bff576040516370a0823160e01b81523060048201526000906001600160a01b038616906370a0823190602401602060405180830381865afa158015611aa8573d6000803e3d6000fd5b505050506040513d601f19601f82011682018060405250810190611acc91906144f8565b9050611ad9858386613b93565b60408051602080820183526000808352835191820184528082529251639e6eec0560e01b81526001600160a01b03861693639e6eec0593611b46937f0000000000000000000000000000000000000000000000000000000000000000938c938c9390929091600401614624565b600060405180830381600087803b158015611b6057600080fd5b505af1158015611b74573d6000803e3d6000fd5b505050508381611b849190614559565b6040516370a0823160e01b81523060048201526001600160a01b038716906370a0823190602401602060405180830381865afa158015611bc8573d6000803e3d6000fd5b505050506040513d601f19601f82011682018060405250810190611bec91906144f8565b14611bf957611bf961460e565b506112ad565b60408051602080820183526000808352835191820184528082529251639e6eec0560e01b81526001600160a01b03851693639e6eec05938893611c6f937f0000000000000000000000000000000000000000000000000000000000000000938c9387939192909190600401614624565b6000604051808303818588803b158015611c8857600080fd5b505af1158015611c9c573d6000803e3d6000fd5b505050505050505050565b6000807f00000000000000000000000000000000000000000000000000000000000000006001811115611cdc57611cdc6143ca565b03611e825760007f00000000000000000000000000000000000000000000000000000000000000006001600160a01b031663e78cea926040518163ffffffff1660e01b8152600401602060405180830381865afa158015611d41573d6000803e3d6000fd5b505050506040513d601f19601f82011682018060405250810190611d65919061444d565b9050806001600160a01b0316836001600160a01b0316148015611e7b5750806001600160a01b031663ab5d89436040518163ffffffff1660e01b8152600401602060405180830381865afa158015611dc1573d6000803e3d6000fd5b505050506040513d601f19601f82011682018060405250810190611de5919061444d565b6001600160a01b03166380648b026040518163ffffffff1660e01b8152600401602060405180830381865afa158015611e22573d6000803e3d6000fd5b505050506040513d601f19601f82011682018060405250810190611e46919061444d565b6001600160a01b03167f00000000000000000000000000000000000000000000000000000000000000006001600160a01b0316145b9392505050565b7311110000000000000000000000000000000011117f0000000000000000000000000000000000000000000000000000000000000000016001600160a01b0316826001600160a01b0316149050919050565b6001600160a01b0385166000908152600460209081526040808320600886901c8452909152902054600160ff84161b1615611f255760405163ed9bdd0760e01b815260048101839052602401610707565b6001600160a01b0385166000908152600460209081526040808320600886901c845290915281208054600160ff86161b179055611f94611f66888787613a48565b604080516104008181019092529085906020908390839080828437600092019190915250879150613c239050565b6001600160a01b038716600090815260016020819052604090912001549091508114611ffb576001600160a01b0386166000908152600160208190526040918290200154905163286f87c960e21b8152600481019190915260248101829052604401610707565b50505050505050565b602081015460009080820361203b57507f27ae5ba08d7291c96c8cbddcc148bf48a6d68c7974b94356f53754ef6171d75792915050565b600083600183161561205d578054600052600060205260406000209350612910565b60028316156120a25760018101546000527fad3228b676f7d3cd4284a5443f17f1962b36e491b30a40b2405849e597ba5fb56020526040600020935060019150612910565b60048316156120e75760028101546000527fb4c11951957c6f8f642c4af61cd6b24640fec6dc7fc607ee8206a99e92410d306020526040600020935060029150612910565b600883161561212c5760038101546000527f21ddb9a356815c3fac1026b6dec5df3124afbadb485c9ba5a3e3398a04b7ba856020526040600020935060039150612910565b60108316156121715760048101546000527fe58769b32a1beaf1ea27375a44095a0d1fb664ce2dd358e7fcbfb78c26a193446020526040600020935060049150612910565b60208316156121b65760058101546000527f0eb01ebfc9ed27500cd4dfc979272d1f0913cc9f66540d7e8005811109e1cf2d6020526040600020935060059150612910565b60408316156121fb5760068101546000527f887c22bd8750d34016ac3c66b5ff102dacdd73f6b014e710b51e8022af9a19686020526040600020935060069150612910565b60808316156122405760078101546000527fffd70157e48063fc33c97a050f7f640233bf646cc98d9524c6b92bcf3ab56f836020526040600020935060079150612910565b6101008316156122865760088101546000527f9867cc5f7f196b93bae1e27e6320742445d290f2263827498b54fec539f756af6020526040600020935060089150612910565b6102008316156122cc5760098101546000527fcefad4e508c098b9a7e1d8feb19955fb02ba9675585078710969d3440f5054e06020526040600020935060099150612910565b61040083161561231257600a8101546000527ff9dc3e7fe016e050eff260334f18a5d4fe391d82092319f5964f2e2eb7c1c3a560205260406000209350600a9150612910565b61080083161561235857600b8101546000527ff8b13a49e282f609c317a833fb8d976d11517c571d1221a265d25af778ecf89260205260406000209350600b9150612910565b61100083161561239e57600c8101546000527f3490c6ceeb450aecdc82e28293031d10c7d73bf85e57bf041a97360aa2c5d99c60205260406000209350600c9150612910565b6120008316156123e457600d8101546000527fc1df82d9c4b87413eae2ef048f94b4d3554cea73d92b0f7af96e0271c691e2bb60205260406000209350600d9150612910565b61400083161561242a57600e8101546000527f5c67add7c6caf302256adedf7ab114da0acfe870d449a3a489f781d659e8becc60205260406000209350600e9150612910565b61800083161561247057600f8101546000527fda7bce9f4e8618b6bd2f4132ce798cdc7a60e7e1460a7299e3c6342a579626d260205260406000209350600f9150612910565b620100008316156124b75760108101546000527f2733e50f526ec2fa19a22b31e8ed50f23cd1fdf94c9154ed3a7609a2f1ff981f6020526040600020935060109150612910565b620200008316156124fe5760118101546000527fe1d3b5c807b281e4683cc6d6315cf95b9ade8641defcb32372f1c126e398ef7a6020526040600020935060119150612910565b620400008316156125455760128101546000527f5a2dce0a8a7f68bb74560f8f71837c2c2ebbcbf7fffb42ae1896f13f7c7479a06020526040600020935060129150612910565b6208000083161561258c5760138101546000527fb46a28b6f55540f89444f63de0378e3d121be09e06cc9ded1c20e65876d36aa06020526040600020935060139150612910565b621000008316156125d35760148101546000527fc65e9645644786b620e2dd2ad648ddfcbf4a7e5b1a3a4ecfe7f64667a3f0b7e26020526040600020935060149150612910565b6220000083161561261a5760158101546000527ff4418588ed35a2458cffeb39b93d26f18d2ab13bdce6aee58e7b99359ec2dfd96020526040600020935060159150612910565b624000008316156126615760168101546000527f5a9c16dc00d6ef18b7933a6f8dc65ccb55667138776f7dea101070dc8796e3776020526040600020935060169150612910565b628000008316156126a85760178101546000527f4df84f40ae0c8229d0d6069e5c8f39a7c299677a09d367fc7b05e3bc380ee6526020526040600020935060179150612910565b63010000008316156126f05760188101546000527fcdc72595f74c7b1043d0e1ffbab734648c838dfb0527d971b602bc216c9619ef6020526040600020935060189150612910565b63020000008316156127385760198101546000527f0abf5ac974a1ed57f4050aa510dd9c74f508277b39d7973bb2dfccc5eeb0618d6020526040600020935060199150612910565b630400000083161561278057601a8101546000527fb8cd74046ff337f0a7bf2c8e03e10f642c1886798d71806ab1e888d9e5ee87d060205260406000209350601a9150612910565b63080000008316156127c857601b8101546000527f838c5655cb21c6cb83313b5a631175dff4963772cce9108188b34ac87c81c41e60205260406000209350601b9150612910565b631000000083161561281057601c8101546000527f662ee4dd2dd7b2bc707961b1e646c4047669dcb6584f0d8d770daf5d7e7deb2e60205260406000209350601c9150612910565b632000000083161561285857601d8101546000527f388ab20e2573d171a88108e79d820e98f26c0b84aa8b2f4aa4968dbb818ea32260205260406000209350601d9150612910565b63400000008316156128a057601e8101546000527f93237c50ba75ee485f4c22adf2f741400bdf8d6a9cc7df7ecae576221665d73560205260406000209350601e9150612910565b63800000008316156128e857601f8101546000527f8448818bb4ae4562849e949e17ac16e0be16688e156b5cf15e098c627c0056a960205260406000209350601f9150612910565b7f27ae5ba08d7291c96c8cbddcc148bf48a6d68c7974b94356f53754ef6171d7579350602091505b601e82116133b257600182101561296e5760028316801561293c57600182015460005284602052612965565b846000527fad3228b676f7d3cd4284a5443f17f1962b36e491b30a40b2405849e597ba5fb56020525b50604060002093505b60028210156129c457600483168015612992576002820154600052846020526129bb565b846000527fb4c11951957c6f8f642c4af61cd6b24640fec6dc7fc607ee8206a99e92410d306020525b50604060002093505b6003821015612a1a576008831680156129e857600382015460005284602052612a11565b846000527f21ddb9a356815c3fac1026b6dec5df3124afbadb485c9ba5a3e3398a04b7ba856020525b50604060002093505b6004821015612a7057601083168015612a3e57600482015460005284602052612a67565b846000527fe58769b32a1beaf1ea27375a44095a0d1fb664ce2dd358e7fcbfb78c26a193446020525b50604060002093505b6005821015612ac657602083168015612a9457600582015460005284602052612abd565b846000527f0eb01ebfc9ed27500cd4dfc979272d1f0913cc9f66540d7e8005811109e1cf2d6020525b50604060002093505b6006821015612b1c57604083168015612aea57600682015460005284602052612b13565b846000527f887c22bd8750d34016ac3c66b5ff102dacdd73f6b014e710b51e8022af9a19686020525b50604060002093505b6007821015612b7257608083168015612b4057600782015460005284602052612b69565b846000527fffd70157e48063fc33c97a050f7f640233bf646cc98d9524c6b92bcf3ab56f836020525b50604060002093505b6008821015612bc95761010083168015612b9757600882015460005284602052612bc0565b846000527f9867cc5f7f196b93bae1e27e6320742445d290f2263827498b54fec539f756af6020525b50604060002093505b6009821015612c205761020083168015612bee57600982015460005284602052612c17565b846000527fcefad4e508c098b9a7e1d8feb19955fb02ba9675585078710969d3440f5054e06020525b50604060002093505b600a821015612c775761040083168015612c4557600a82015460005284602052612c6e565b846000527ff9dc3e7fe016e050eff260334f18a5d4fe391d82092319f5964f2e2eb7c1c3a56020525b50604060002093505b600b821015612cce5761080083168015612c9c57600b82015460005284602052612cc5565b846000527ff8b13a49e282f609c317a833fb8d976d11517c571d1221a265d25af778ecf8926020525b50604060002093505b600c821015612d255761100083168015612cf357600c82015460005284602052612d1c565b846000527f3490c6ceeb450aecdc82e28293031d10c7d73bf85e57bf041a97360aa2c5d99c6020525b50604060002093505b600d821015612d7c5761200083168015612d4a57600d82015460005284602052612d73565b846000527fc1df82d9c4b87413eae2ef048f94b4d3554cea73d92b0f7af96e0271c691e2bb6020525b50604060002093505b600e821015612dd35761400083168015612da157600e82015460005284602052612dca565b846000527f5c67add7c6caf302256adedf7ab114da0acfe870d449a3a489f781d659e8becc6020525b50604060002093505b600f821015612e2a5761800083168015612df857600f82015460005284602052612e21565b846000527fda7bce9f4e8618b6bd2f4132ce798cdc7a60e7e1460a7299e3c6342a579626d26020525b50604060002093505b6010821015612e82576201000083168015612e5057601082015460005284602052612e79565b846000527f2733e50f526ec2fa19a22b31e8ed50f23cd1fdf94c9154ed3a7609a2f1ff981f6020525b50604060002093505b6011821015612eda576202000083168015612ea857601182015460005284602052612ed1565b846000527fe1d3b5c807b281e4683cc6d6315cf95b9ade8641defcb32372f1c126e398ef7a6020525b50604060002093505b6012821015612f32576204000083168015612f0057601282015460005284602052612f29565b846000527f5a2dce0a8a7f68bb74560f8f71837c2c2ebbcbf7fffb42ae1896f13f7c7479a06020525b50604060002093505b6013821015612f8a576208000083168015612f5857601382015460005284602052612f81565b846000527fb46a28b6f55540f89444f63de0378e3d121be09e06cc9ded1c20e65876d36aa06020525b50604060002093505b6014821015612fe2576210000083168015612fb057601482015460005284602052612fd9565b846000527fc65e9645644786b620e2dd2ad648ddfcbf4a7e5b1a3a4ecfe7f64667a3f0b7e26020525b50604060002093505b601582101561303a57622000008316801561300857601582015460005284602052613031565b846000527ff4418588ed35a2458cffeb39b93d26f18d2ab13bdce6aee58e7b99359ec2dfd96020525b50604060002093505b601682101561309257624000008316801561306057601682015460005284602052613089565b846000527f5a9c16dc00d6ef18b7933a6f8dc65ccb55667138776f7dea101070dc8796e3776020525b50604060002093505b60178210156130ea5762800000831680156130b8576017820154600052846020526130e1565b846000527f4df84f40ae0c8229d0d6069e5c8f39a7c299677a09d367fc7b05e3bc380ee6526020525b50604060002093505b6018821015613143576301000000831680156131115760188201546000528460205261313a565b846000527fcdc72595f74c7b1043d0e1ffbab734648c838dfb0527d971b602bc216c9619ef6020525b50604060002093505b601982101561319c5763020000008316801561316a57601982015460005284602052613193565b846000527f0abf5ac974a1ed57f4050aa510dd9c74f508277b39d7973bb2dfccc5eeb0618d6020525b50604060002093505b601a8210156131f5576304000000831680156131c357601a820154600052846020526131ec565b846000527fb8cd74046ff337f0a7bf2c8e03e10f642c1886798d71806ab1e888d9e5ee87d06020525b50604060002093505b601b82101561324e5763080000008316801561321c57601b82015460005284602052613245565b846000527f838c5655cb21c6cb83313b5a631175dff4963772cce9108188b34ac87c81c41e6020525b50604060002093505b601c8210156132a75763100000008316801561327557601c8201546000528460205261329e565b846000527f662ee4dd2dd7b2bc707961b1e646c4047669dcb6584f0d8d770daf5d7e7deb2e6020525b50604060002093505b601d821015613300576320000000831680156132ce57601d820154600052846020526132f7565b846000527f388ab20e2573d171a88108e79d820e98f26c0b84aa8b2f4aa4968dbb818ea3226020525b50604060002093505b601e8210156133595763400000008316801561332757601e82015460005284602052613350565b846000527f93237c50ba75ee485f4c22adf2f741400bdf8d6a9cc7df7ecae576221665d7356020525b50604060002093505b601f8210156133b25763800000008316801561338057601f820154600052846020526133a9565b846000527f8448818bb4ae4562849e949e17ac16e0be16688e156b5cf15e098c627c0056a96020525b50604060002093505b505050919050565b815160405163a66b327d60e01b81526004810191909152630bebc200602482015260009081906001600160a01b037f0000000000000000000000000000000000000000000000000000000000000000169063a66b327d90604401602060405180830381865afa158015613431573d6000803e3d6000fd5b505050506040513d601f19601f8201168201806040525081019061345591906144f8565b9050600061346a620493e0630bebc20061466b565b61347a9063ffffffff1683614480565b90508087101561349d57604051636eb14fc360e11b815260040160405180910390fd5b6001600160a01b03881661eeee1461363357604051635ed004ff60e11b81526001600160a01b03808a166004830152613545918a917f0000000000000000000000000000000000000000000000000000000000000000169063bda009fe90602401602060405180830381865afa15801561351b573d6000803e3d6000fd5b505050506040513d601f19601f8201168201806040525081019061353f919061444d565b88613b93565b7f00000000000000000000000000000000000000000000000000000000000000006001600160a01b0316634fb1a07b888a337f00000000000000000000000000000000000000000000000000000000000000008b620493e0630bebc2008a8e6040516020016135b5929190614693565b6040516020818303038152906040526040518963ffffffff1660e01b81526004016135e697969594939291906146b4565b60006040518083038185885af1158015613604573d6000803e3d6000fd5b50505050506040513d6000823e601f3d908101601f1916820160405261362d9190810190614718565b50613637565b8592505b866136428285614480565b111561366157604051636eb14fc360e11b815260040160405180910390fd5b7f00000000000000000000000000000000000000000000000000000000000000006001600160a01b031663679b6ded887f000000000000000000000000000000000000000000000000000000000000000086863333620493e0630bebc2008e6040518a63ffffffff1660e01b81526004016136e39897969594939291906147c4565b60206040518083038185885af1158015613701573d6000803e3d6000fd5b50505050506040513d601f19601f82011682018060405250810190611c9c91906144f8565b60003415613747576040516352864b0160e11b815260040160405180910390fd5b6001600160a01b03851661eeee146138be57604051635ed004ff60e11b81526001600160a01b0380871660048301526137ef9187917f0000000000000000000000000000000000000000000000000000000000000000169063bda009fe90602401602060405180830381865afa1580156137c5573d6000803e3d6000fd5b505050506040513d601f19601f820116820180604052508101906137e9919061444d565b86613b93565b6020808301516040805192830181526000835251637b3a3c8b60e01b81526001600160a01b037f00000000000000000000000000000000000000000000000000000000000000001692637b3a3c8b926138719290917f0000000000000000000000000000000000000000000000000000000000000000918a9190600401614829565b6000604051808303816000875af1158015613890573d6000803e3d6000fd5b505050506040513d6000823e601f3d908101601f191682016040526138b89190810190614718565b506138c1565b50825b6040516349460b4d60e11b815260649063928c169a908390613909907f000000000000000000000000000000000000000000000000000000000000000090889060040161485c565b60206040518083038185885af1158015613927573d6000803e3d6000fd5b50505050506040513d601f19601f82011682018060405250810190610b6691906144f8565b60006139616001600160a01b03841683613f71565b905080516000141580156139865750808060200190518101906139849190614511565b155b1561065157604051635274afe760e01b81526001600160a01b0384166004820152602401610707565b600061eeed196001600160a01b038416016139d557506001600160a01b03811631613a42565b6040516370a0823160e01b81526001600160a01b0383811660048301528416906370a0823190602401602060405180830381865afa158015613a1b573d6000803e3d6000fd5b505050506040513d601f19601f82011682018060405250810190613a3f91906144f8565b90505b92915050565b60408051602081018590529081018390526001600160a01b03821660608201526000906080016040516020818303038152906040528051906020012090509392505050565b613a95614183565b6000836020018051613aa690614880565b9081905290506001613aba6020600261497d565b613ac49190614559565b811115613ae457604051638eab04bb60e01b815260040160405180910390fd5b60005b6020811015613b795781600116600103613b2057845184908260208110613b1057613b10614411565b602002015250839150613a429050565b84518160208110613b3357613b33614411565b602002015184604051602001613b53929190918252602082015260400190565b60408051601f1981840301815291905280516020909101209350600191821c9101613ae7565b50604051638eab04bb60e01b815260040160405180910390fd5b604080516001600160a01b038416602482015260448082018490528251808303909101815260649091019091526020810180516001600160e01b031663095ea7b360e01b179052613be48482613f7f565b6112ad576040516001600160a01b03848116602483015260006044830152613c1991869182169063095ea7b390606401611557565b6112ad848261394c565b6020600582811b8216948552835194820394909452604060008181206002851615871b808503919091528386015190528181206004851615871b808503919091528286015190528181206008851615871b80850391909152606086015190528181206010851615871b8085039190915260808087015190915282822084861615881b8086039190915260a0870151905282822083861615881b8086039190915260c0870151905282822090851615871b8085039190915260e0860151905281812061010080861615881b80860392909252860151905281812061020080861615881b80860392909252610120870151909152828220610400861615881b808603919091526101408701519052828220610800861615881b808603919091526101608701519052828220611000861615881b808603919091526101808701519052828220612000861615881b808603919091526101a08701519052828220614000861615881b808603919091526101c08701519052828220618000861615881b808603919091526101e0870151905282822062010000861615881b8086039190915290860151905281812062020000851615871b80850391909152610220860151905281812062040000851615871b80850391909152610240860151905281812062080000851615871b80850391909152610260860151905281812062100000851615871b80850391909152610280860151905281812062200000851615871b808503919091526102a0860151905281812062400000851615871b808503919091526102c0860151905281812062800000851615871b808503919091526102e086015190528181206301000000851615871b8085039190915261030086015190528181206302000000851615871b8085039190915261032086015190528181206304000000851615871b8085039190915261034086015190528181206308000000851615871b8085039190915261036086015190528181206310000000851615871b8085039190915261038086015190528181206320000000851615871b808503919091526103a086015190528181206340000000851615871b808503919091526103c0860151905281812063800000009094161590951b91829003929092526103e090920151909152902090565b6060613a3f83836000614027565b6000806000846001600160a01b031684604051613f9c9190614989565b6000604051808303816000865af19150503d8060008114613fd9576040519150601f19603f3d011682016040523d82523d6000602084013e613fde565b606091505b50915091508180156140085750805115806140085750808060200190518101906140089190614511565b801561401e57506000856001600160a01b03163b115b95945050505050565b60608147101561404c5760405163cd78605960e01b8152306004820152602401610707565b600080856001600160a01b031684866040516140689190614989565b60006040518083038185875af1925050503d80600081146140a5576040519150601f19603f3d011682016040523d82523d6000602084013e6140aa565b606091505b50915091506140ba8683836140c4565b9695505050505050565b6060826140d9576140d482614120565b611e7b565b81511580156140f057506001600160a01b0384163b155b1561411957604051639996b31560e01b81526001600160a01b0385166004820152602401610707565b5080611e7b565b8051156141305780518082602001fd5b604051630a12f52160e11b815260040160405180910390fd5b8260208101928215614177579160200282015b8281111561417757825182559160200191906001019061415c565b50610bbc9291506141a3565b60405180604001604052806141966141b8565b8152602001600081525090565b5b80821115610bbc57600081556001016141a4565b6040518061040001604052806020906020820280368337509192915050565b600080602083850312156141ea57600080fd5b82356001600160401b038082111561420157600080fd5b818501915085601f83011261421557600080fd5b81358181111561422457600080fd5b8660208260071b850101111561423957600080fd5b60209290920196919550909350505050565b60006080828403121561425d57600080fd5b50919050565b60006080828403121561427557600080fd5b613a3f838361424b565b6001600160a01b0381168114610c3657600080fd5b600080600080608085870312156142aa57600080fd5b8435935060208501356142bc8161427f565b92506040850135915060608501356142d38161427f565b939692955090935050565b6000602082840312156142f057600080fd5b8135611e7b8161427f565b6001600160401b038416815260208082018490528251610460830191906000604085015b8382101561433d57825181529183019160019190910190830161431f565b505050506020830151610440830152949350505050565b60006104a0828403121561425d57600080fd5b6000806020838503121561437a57600080fd5b82356001600160401b038082111561439157600080fd5b818501915085601f8301126143a557600080fd5b8135818111156143b457600080fd5b8660206104a08302850101111561423957600080fd5b634e487b7160e01b600052602160045260246000fd5b60028110610c3657634e487b7160e01b600052602160045260246000fd5b6020810161440b836143e0565b91905290565b634e487b7160e01b600052603260045260246000fd5b60006020828403121561443957600080fd5b813563ffffffff81168114611e7b57600080fd5b60006020828403121561445f57600080fd5b8151611e7b8161427f565b634e487b7160e01b600052601160045260246000fd5b80820180821115613a4257613a4261446a565b6001600160401b0381168114610c3657600080fd5b6000602082840312156144ba57600080fd5b8135611e7b81614493565b81356144d081614493565b6001600160401b0381166001600160401b031983541617825550602082013560018201555050565b60006020828403121561450a57600080fd5b5051919050565b60006020828403121561452357600080fd5b81518015158114611e7b57600080fd5b60006001600160401b0380831681810361454f5761454f61446a565b6001019392505050565b81810381811115613a4257613a4261446a565b60005b8381101561458757818101518382015260200161456f565b50506000910152565b600081518084526145a881602086016020860161456c565b601f01601f19169290920160200192915050565b600060018060a01b03808a168352886020840152808816604084015286606084015285608084015280851660a08401525060e060c083015261460160e0830184614590565b9998505050505050505050565b634e487b7160e01b600052600160045260246000fd5b86815260018060a01b0386166020820152846040820152831515606082015260c06080820152600061465960c0830185614590565b82810360a08401526146018185614590565b63ffffffff81811683821602808216919082811461468b5761468b61446a565b505092915050565b8281526040602082015260006146ac6040830184614590565b949350505050565b6001600160a01b0388811682528781166020830152861660408201526060810185905263ffffffff8416608082015260a0810183905260e060c0820181905260009061460190830184614590565b634e487b7160e01b600052604160045260246000fd5b60006020828403121561472a57600080fd5b81516001600160401b038082111561474157600080fd5b818401915084601f83011261475557600080fd5b81518181111561476757614767614702565b604051601f8201601f19908116603f0116810190838211818310171561478f5761478f614702565b816040528281528760208487010111156147a857600080fd5b6147b983602083016020880161456c565b979650505050505050565b6001600160a01b038981168252602082018990526040820188905286811660608301528516608082015263ffffffff841660a082015260c0810183905261010060e0820181905260009061481a83820185614590565b9b9a5050505050505050505050565b6001600160a01b03858116825284166020820152604081018390526080606082018190526000906140ba90830184614590565b6001600160a01b03831681526040602082018190526000906146ac90830184614590565b6000600182016148925761489261446a565b5060010190565b600181815b808511156148d45781600019048211156148ba576148ba61446a565b808516156148c757918102915b93841c939080029061489e565b509250929050565b6000826148eb57506001613a42565b816148f857506000613a42565b816001811461490e576002811461491857614934565b6001915050613a42565b60ff8411156149295761492961446a565b50506001821b613a42565b5060208310610133831016604e8410600b8410161715614957575081810a613a42565b6149618383614899565b80600019048211156149755761497561446a565b029392505050565b6000613a3f83836148dc565b6000825161499b81846020870161456c565b919091019291505056fea2646970667358221220602c1f2c8f0bb2ddce111b332c91e05ed1ab3ff953a9a202f0918ba97fd4f98064736f6c63430008170033a264697066735822122085d0dd4033854c2b1e436422ab07d2761d52f8ba9475a569b24a75de071e45cc64736f6c63430008170033",
	"devdoc": {
		"kind": "dev",
		"methods": {
			"createForSender(uint256,bytes32)": {
				"details": "Uses the sender address as the salt, which means the same sender must call this function on both chains.",
				"params": {
					"localProjectId": "The project's ID on the local chain.",
					"salt": "The salt to use for the `create2` address."
				},
				"returns": {
					"sucker": "The address of the new sucker."
				}
			},
			"gatewayRouter()": {
				"returns": {
					"gateway": "for the current chain."
				}
			}
		},
		"version": 1
	},
	"userdoc": {
		"kind": "user",
		"methods": {
			"LAYER()": {
				"notice": "The layer that this contract is on."
			},
			"PERMISSIONS()": {
				"notice": "A contract storing permissions."
			},
			"TEMP_ID_STORE()": {
				"notice": "A temporary storage slot used by suckers to maintain deterministic deploys."
			},
			"createForSender(uint256,bytes32)": {
				"notice": "Create a new `BPSucker` for a specific project."
			},
			"gatewayRouter()": {
				"notice": "Returns the gateway router address for the current chain"
			},
			"isSucker(address)": {
				"notice": "A mapping of suckers deployed by this contract."
			}
		},
		"version": 1
	},
	"gitCommit": "31aa3477518beb1b46424c6aac61f6c036f973f2",
	"sourceName": "src/deployers/BPArbitrumSuckerDeployer.sol",
	"chainId": "11155111",
	"linkReferences": {},
	"deployedLinkReferences": {},
	"history": [
		{
			"_format": "sphinx-sol-ct-artifact-1",
			"merkleRoot": "0x2d4ca00627c459de699f5e6d80f06fa7c9de5e9f4b50c7bfe3f3a0ab31867acc",
			"contractName": "BPArbitrumSuckerDeployer",
			"address": "0x812932df35B9523A2C894EbfAA6be25769a1aA57",
			"abi": [
				{
					"type": "constructor",
					"inputs": [
						{
							"name": "directory",
							"type": "address",
							"internalType": "contract IJBDirectory"
						},
						{
							"name": "tokens",
							"type": "address",
							"internalType": "contract IJBTokens"
						},
						{
							"name": "permissions",
							"type": "address",
							"internalType": "contract IJBPermissions"
						},
						{
							"name": "_configurator",
							"type": "address",
							"internalType": "address"
						}
					],
					"stateMutability": "nonpayable"
				},
				{
					"type": "function",
					"name": "LAYER",
					"inputs": [],
					"outputs": [
						{
							"name": "",
							"type": "uint8",
							"internalType": "enum BPLayer"
						}
					],
					"stateMutability": "view"
				},
				{
					"type": "function",
					"name": "PERMISSIONS",
					"inputs": [],
					"outputs": [
						{
							"name": "",
							"type": "address",
							"internalType": "contract IJBPermissions"
						}
					],
					"stateMutability": "view"
				},
				{
					"type": "function",
					"name": "createForSender",
					"inputs": [
						{
							"name": "localProjectId",
							"type": "uint256",
							"internalType": "uint256"
						},
						{
							"name": "salt",
							"type": "bytes32",
							"internalType": "bytes32"
						}
					],
					"outputs": [
						{
							"name": "sucker",
							"type": "address",
							"internalType": "contract IBPSucker"
						}
					],
					"stateMutability": "nonpayable"
				},
				{
					"type": "function",
					"name": "gatewayRouter",
					"inputs": [],
					"outputs": [
						{
							"name": "gateway",
							"type": "address",
							"internalType": "contract IArbGatewayRouter"
						}
					],
					"stateMutability": "view"
				},
				{
					"type": "function",
					"name": "isSucker",
					"inputs": [
						{
							"name": "",
							"type": "address",
							"internalType": "address"
						}
					],
					"outputs": [
						{
							"name": "",
							"type": "bool",
							"internalType": "bool"
						}
					],
					"stateMutability": "view"
				},
				{
					"type": "error",
					"name": "ALREADY_CONFIGURED",
					"inputs": []
				},
				{
					"type": "error",
					"name": "ONLY_SUCKERS",
					"inputs": []
				},
				{
					"type": "error",
					"name": "UNAUTHORIZED",
					"inputs": []
				}
			],
			"solcInputHash": "be814d998db9158d32a9e143edcd7c88",
			"receipt": {
				"blockHash": "0x707775bbe9567b427a693c844435140ec84a258cc206725c5f24170b75c684a8",
				"blockNumber": 5748851,
				"contractAddress": null,
				"cumulativeGasUsed": "9828931",
				"from": "0xC034550B542b83BA1De312b21d1C94a9a52B1595",
				"gasPrice": "475919",
				"gasUsed": "6269440",
				"hash": "0x121a2aeb1380c9797a12eb364c9229561fb458f630a0c9cf7b24f29f71c10f18",
				"index": 40,
				"logs": [
					{
						"address": "0xB5E96127D417b1B3ef8438496a38A143167209c7",
						"blockHash": "0x707775bbe9567b427a693c844435140ec84a258cc206725c5f24170b75c684a8",
						"blockNumber": 5748851,
						"data": "0x0000000000000000000000000000000000000000000000000000000000000000",
						"index": 44,
						"topics": [
							"0x572f161235911da04685a68c06adf558fc7e4a36909dca394650e0adc19cc93d",
							"0x000000000000000000000000c034550b542b83ba1de312b21d1c94a9a52b1595",
							"0x0000000000000000000000002251543da4a5ef946705b931c7e8b74756764a18",
							"0xb2695e6fa16a796971812f7fed379f9ac9cc294f5b0158be88f898eed852c2b0"
						],
						"transactionHash": "0x121a2aeb1380c9797a12eb364c9229561fb458f630a0c9cf7b24f29f71c10f18",
						"transactionIndex": 40
					},
					{
						"address": "0x6a65B75A3f37C6702A117Fb87B6bCaC62657d216",
						"blockHash": "0x707775bbe9567b427a693c844435140ec84a258cc206725c5f24170b75c684a8",
						"blockNumber": 5748851,
						"data": "0x",
						"index": 45,
						"topics": [
							"0x6895c13664aa4f67288b25d7a21d7aaa34916e355fb9b6fae0a139a9085becb8",
							"0x0000000000000000000000002251543da4a5ef946705b931c7e8b74756764a18"
						],
						"transactionHash": "0x121a2aeb1380c9797a12eb364c9229561fb458f630a0c9cf7b24f29f71c10f18",
						"transactionIndex": 40
					},
					{
						"address": "0x2251543Da4A5eF946705B931C7e8b74756764a18",
						"blockHash": "0x707775bbe9567b427a693c844435140ec84a258cc206725c5f24170b75c684a8",
						"blockNumber": 5748851,
						"data": "0x0000000000000000000000000000000000000000000000000000000000000005",
						"index": 46,
						"topics": [
							"0xa65fb05c5808f5f389d72edeaf719ce38f4cc55c1f69ca3cbfb31c21501caa07",
							"0x2d4ca00627c459de699f5e6d80f06fa7c9de5e9f4b50c7bfe3f3a0ab31867acc"
						],
						"transactionHash": "0x121a2aeb1380c9797a12eb364c9229561fb458f630a0c9cf7b24f29f71c10f18",
						"transactionIndex": 40
					},
					{
						"address": "0x6a65B75A3f37C6702A117Fb87B6bCaC62657d216",
						"blockHash": "0x707775bbe9567b427a693c844435140ec84a258cc206725c5f24170b75c684a8",
						"blockNumber": 5748851,
						"data": "0x",
						"index": 47,
						"topics": [
							"0x6895c13664aa4f67288b25d7a21d7aaa34916e355fb9b6fae0a139a9085becb8",
							"0x0000000000000000000000002251543da4a5ef946705b931c7e8b74756764a18"
						],
						"transactionHash": "0x121a2aeb1380c9797a12eb364c9229561fb458f630a0c9cf7b24f29f71c10f18",
						"transactionIndex": 40
					},
					{
						"address": "0x2251543Da4A5eF946705B931C7e8b74756764a18",
						"blockHash": "0x707775bbe9567b427a693c844435140ec84a258cc206725c5f24170b75c684a8",
						"blockNumber": 5748851,
						"data": "0x0000000000000000000000000000000000000000000000000000000000000006",
						"index": 48,
						"topics": [
							"0xa65fb05c5808f5f389d72edeaf719ce38f4cc55c1f69ca3cbfb31c21501caa07",
							"0x2d4ca00627c459de699f5e6d80f06fa7c9de5e9f4b50c7bfe3f3a0ab31867acc"
						],
						"transactionHash": "0x121a2aeb1380c9797a12eb364c9229561fb458f630a0c9cf7b24f29f71c10f18",
						"transactionIndex": 40
					},
					{
						"address": "0x3F209aB51b59Bc6C2c9C2f2147d3d51E29A862d7",
						"blockHash": "0x707775bbe9567b427a693c844435140ec84a258cc206725c5f24170b75c684a8",
						"blockNumber": 5748851,
						"data": "0x000000000000000000000000bd74a0450b51ede3a990948a7f4c714e39c4ce5b",
						"index": 49,
						"topics": [
							"0xf6e6facda29906a01d337146a9b928ac09b423901f28e0e001d43550448b370b"
						],
						"transactionHash": "0x121a2aeb1380c9797a12eb364c9229561fb458f630a0c9cf7b24f29f71c10f18",
						"transactionIndex": 40
					},
					{
						"address": "0x3F209aB51b59Bc6C2c9C2f2147d3d51E29A862d7",
						"blockHash": "0x707775bbe9567b427a693c844435140ec84a258cc206725c5f24170b75c684a8",
						"blockNumber": 5748851,
						"data": "0x00000000000000000000000028974ffdc4b5fb12c65da1fcf83fc9b3b9d2793a",
						"index": 50,
						"topics": [
							"0xf6e6facda29906a01d337146a9b928ac09b423901f28e0e001d43550448b370b"
						],
						"transactionHash": "0x121a2aeb1380c9797a12eb364c9229561fb458f630a0c9cf7b24f29f71c10f18",
						"transactionIndex": 40
					},
					{
						"address": "0x3F209aB51b59Bc6C2c9C2f2147d3d51E29A862d7",
						"blockHash": "0x707775bbe9567b427a693c844435140ec84a258cc206725c5f24170b75c684a8",
						"blockNumber": 5748851,
						"data": "0x000000000000000000000000812932df35b9523a2c894ebfaa6be25769a1aa57",
						"index": 51,
						"topics": [
							"0xf6e6facda29906a01d337146a9b928ac09b423901f28e0e001d43550448b370b"
						],
						"transactionHash": "0x121a2aeb1380c9797a12eb364c9229561fb458f630a0c9cf7b24f29f71c10f18",
						"transactionIndex": 40
					},
					{
						"address": "0x6a65B75A3f37C6702A117Fb87B6bCaC62657d216",
						"blockHash": "0x707775bbe9567b427a693c844435140ec84a258cc206725c5f24170b75c684a8",
						"blockNumber": 5748851,
						"data": "0x",
						"index": 52,
						"topics": [
							"0x6895c13664aa4f67288b25d7a21d7aaa34916e355fb9b6fae0a139a9085becb8",
							"0x0000000000000000000000002251543da4a5ef946705b931c7e8b74756764a18"
						],
						"transactionHash": "0x121a2aeb1380c9797a12eb364c9229561fb458f630a0c9cf7b24f29f71c10f18",
						"transactionIndex": 40
					},
					{
						"address": "0x2251543Da4A5eF946705B931C7e8b74756764a18",
						"blockHash": "0x707775bbe9567b427a693c844435140ec84a258cc206725c5f24170b75c684a8",
						"blockNumber": 5748851,
						"data": "0x0000000000000000000000000000000000000000000000000000000000000007",
						"index": 53,
						"topics": [
							"0xa65fb05c5808f5f389d72edeaf719ce38f4cc55c1f69ca3cbfb31c21501caa07",
							"0x2d4ca00627c459de699f5e6d80f06fa7c9de5e9f4b50c7bfe3f3a0ab31867acc"
						],
						"transactionHash": "0x121a2aeb1380c9797a12eb364c9229561fb458f630a0c9cf7b24f29f71c10f18",
						"transactionIndex": 40
					},
					{
						"address": "0x3F209aB51b59Bc6C2c9C2f2147d3d51E29A862d7",
						"blockHash": "0x707775bbe9567b427a693c844435140ec84a258cc206725c5f24170b75c684a8",
						"blockNumber": 5748851,
						"data": "0x",
						"index": 54,
						"topics": [
							"0x8be0079c531659141344cd1fd0a4f28419497f9722a3daafe3b4186f6b6457e0",
							"0x0000000000000000000000006a65b75a3f37c6702a117fb87b6bcac62657d216",
							"0x0000000000000000000000001f96512db9a74b8805d900c8e553879c0cb8bb2a"
						],
						"transactionHash": "0x121a2aeb1380c9797a12eb364c9229561fb458f630a0c9cf7b24f29f71c10f18",
						"transactionIndex": 40
					},
					{
						"address": "0x6a65B75A3f37C6702A117Fb87B6bCaC62657d216",
						"blockHash": "0x707775bbe9567b427a693c844435140ec84a258cc206725c5f24170b75c684a8",
						"blockNumber": 5748851,
						"data": "0x",
						"index": 55,
						"topics": [
							"0x6895c13664aa4f67288b25d7a21d7aaa34916e355fb9b6fae0a139a9085becb8",
							"0x0000000000000000000000002251543da4a5ef946705b931c7e8b74756764a18"
						],
						"transactionHash": "0x121a2aeb1380c9797a12eb364c9229561fb458f630a0c9cf7b24f29f71c10f18",
						"transactionIndex": 40
					},
					{
						"address": "0x2251543Da4A5eF946705B931C7e8b74756764a18",
						"blockHash": "0x707775bbe9567b427a693c844435140ec84a258cc206725c5f24170b75c684a8",
						"blockNumber": 5748851,
						"data": "0x0000000000000000000000000000000000000000000000000000000000000008",
						"index": 56,
						"topics": [
							"0xa65fb05c5808f5f389d72edeaf719ce38f4cc55c1f69ca3cbfb31c21501caa07",
							"0x2d4ca00627c459de699f5e6d80f06fa7c9de5e9f4b50c7bfe3f3a0ab31867acc"
						],
						"transactionHash": "0x121a2aeb1380c9797a12eb364c9229561fb458f630a0c9cf7b24f29f71c10f18",
						"transactionIndex": 40
					},
					{
						"address": "0x2251543Da4A5eF946705B931C7e8b74756764a18",
						"blockHash": "0x707775bbe9567b427a693c844435140ec84a258cc206725c5f24170b75c684a8",
						"blockNumber": 5748851,
						"data": "0x",
						"index": 57,
						"topics": [
							"0x4383d976757d67ca920616be0b6430a681ea9d3dcce8d6d61d4603ca4a9bff63",
							"0x2d4ca00627c459de699f5e6d80f06fa7c9de5e9f4b50c7bfe3f3a0ab31867acc"
						],
						"transactionHash": "0x121a2aeb1380c9797a12eb364c9229561fb458f630a0c9cf7b24f29f71c10f18",
						"transactionIndex": 40
					}
				],
				"logsBloom": "0x0000000008001000000000000008000000020000404800000080000001400000000000000000000000000000004009000010000000000000000000000000000000000000000020000000000000000000000100000000000000000400800808000000000000000804000000000000000020000000000000000000000000000040000000000000000040010000000000000000000000200000000000000000000000c000800010000000001000000000020608000000000000000000000004000000000000000000000008040008000000000000000002000010000000000000000000000000800208000000000000000200000000000000000000000208000000",
				"status": 1,
				"to": "0xB5E96127D417b1B3ef8438496a38A143167209c7"
			},
			"metadata": "{\"compiler\":{\"version\":\"0.8.23+commit.f704f362\"},\"language\":\"Solidity\",\"output\":{\"abi\":[{\"inputs\":[{\"internalType\":\"contract IJBDirectory\",\"name\":\"directory\",\"type\":\"address\"},{\"internalType\":\"contract IJBTokens\",\"name\":\"tokens\",\"type\":\"address\"},{\"internalType\":\"contract IJBPermissions\",\"name\":\"permissions\",\"type\":\"address\"},{\"internalType\":\"address\",\"name\":\"_configurator\",\"type\":\"address\"}],\"stateMutability\":\"nonpayable\",\"type\":\"constructor\"},{\"inputs\":[],\"type\":\"error\",\"name\":\"ALREADY_CONFIGURED\"},{\"inputs\":[],\"type\":\"error\",\"name\":\"ONLY_SUCKERS\"},{\"inputs\":[],\"type\":\"error\",\"name\":\"UNAUTHORIZED\"},{\"inputs\":[],\"stateMutability\":\"view\",\"type\":\"function\",\"name\":\"LAYER\",\"outputs\":[{\"internalType\":\"enum BPLayer\",\"name\":\"\",\"type\":\"uint8\"}]},{\"inputs\":[],\"stateMutability\":\"view\",\"type\":\"function\",\"name\":\"PERMISSIONS\",\"outputs\":[{\"internalType\":\"contract IJBPermissions\",\"name\":\"\",\"type\":\"address\"}]},{\"inputs\":[{\"internalType\":\"uint256\",\"name\":\"localProjectId\",\"type\":\"uint256\"},{\"internalType\":\"bytes32\",\"name\":\"salt\",\"type\":\"bytes32\"}],\"stateMutability\":\"nonpayable\",\"type\":\"function\",\"name\":\"createForSender\",\"outputs\":[{\"internalType\":\"contract IBPSucker\",\"name\":\"sucker\",\"type\":\"address\"}]},{\"inputs\":[],\"stateMutability\":\"view\",\"type\":\"function\",\"name\":\"gatewayRouter\",\"outputs\":[{\"internalType\":\"contract IArbGatewayRouter\",\"name\":\"gateway\",\"type\":\"address\"}]},{\"inputs\":[{\"internalType\":\"address\",\"name\":\"\",\"type\":\"address\"}],\"stateMutability\":\"view\",\"type\":\"function\",\"name\":\"isSucker\",\"outputs\":[{\"internalType\":\"bool\",\"name\":\"\",\"type\":\"bool\"}]}],\"devdoc\":{\"kind\":\"dev\",\"methods\":{\"createForSender(uint256,bytes32)\":{\"details\":\"Uses the sender address as the salt, which means the same sender must call this function on both chains.\",\"params\":{\"localProjectId\":\"The project's ID on the local chain.\",\"salt\":\"The salt to use for the `create2` address.\"},\"returns\":{\"sucker\":\"The address of the new sucker.\"}},\"gatewayRouter()\":{\"returns\":{\"gateway\":\"for the current chain.\"}}},\"version\":1},\"userdoc\":{\"kind\":\"user\",\"methods\":{\"LAYER()\":{\"notice\":\"The layer that this contract is on.\"},\"PERMISSIONS()\":{\"notice\":\"A contract storing permissions.\"},\"createForSender(uint256,bytes32)\":{\"notice\":\"Create a new `BPSucker` for a specific project.\"},\"gatewayRouter()\":{\"notice\":\"Returns the gateway router address for the current chain\"},\"isSucker(address)\":{\"notice\":\"A mapping of suckers deployed by this contract.\"}},\"version\":1}},\"settings\":{\"remappings\":[\"@arbitrum/=node_modules/@arbitrum/\",\"@bananapus/=node_modules/@bananapus/\",\"@chainlink/=node_modules/@chainlink/\",\"@eth-optimism/=node_modules/@eth-optimism/\",\"@offchainlabs/=node_modules/@offchainlabs/\",\"@openzeppelin/=node_modules/@openzeppelin/\",\"@prb/=node_modules/@prb/\",\"@scroll-tech/=node_modules/@scroll-tech/\",\"@sphinx-labs/contracts/=node_modules/@sphinx-labs/contracts/contracts/foundry/\",\"@uniswap/=node_modules/@uniswap/\",\"ds-test/=lib/forge-std/lib/ds-test/src/\",\"forge-std/=lib/forge-std/src/\",\"hardhat/=node_modules/hardhat/\",\"solmate/=node_modules/solmate/\",\"sphinx/=lib/sphinx/packages/contracts/contracts/forge-std/src/\"],\"optimizer\":{\"enabled\":true,\"runs\":200},\"metadata\":{\"bytecodeHash\":\"ipfs\"},\"compilationTarget\":{\"src/deployers/BPArbitrumSuckerDeployer.sol\":\"BPArbitrumSuckerDeployer\"},\"evmVersion\":\"paris\",\"libraries\":{}},\"sources\":{\"node_modules/@arbitrum/nitro-contracts/src/bridge/IBridge.sol\":{\"keccak256\":\"0xeba1e59fa4dd56d0d2cd775ab726d08e470bf3056f5473ce62b98499e55ff7bd\",\"urls\":[\"bzz-raw://fca93cb8bf8369a86d299b263081d1789fd5f0b2579cd229f26e007b8f269d5f\",\"dweb:/ipfs/QmVwEQLsy7sSGwJ7MEWeHPwSunKu1Hr5YozzNy6CW1prmH\"],\"license\":\"BUSL-1.1\"},\"node_modules/@arbitrum/nitro-contracts/src/bridge/IDelayedMessageProvider.sol\":{\"keccak256\":\"0x1f216daf990c329310f44818e1c05d81c07fe875a5a07dd379d2c8fac921f208\",\"urls\":[\"bzz-raw://d6ccdab97fb5c8b7d9a80b713dc6bd9bc0e71e9d41900ac5c7cf96cb2643aad6\",\"dweb:/ipfs/QmeypCFXVXbTu3RehtFti4PMfuTCyzVKDwfGiZ2PeewRSG\"],\"license\":\"BUSL-1.1\"},\"node_modules/@arbitrum/nitro-contracts/src/bridge/IInbox.sol\":{\"keccak256\":\"0xee6e59278213c18faa2908a8e540ca26b288f47e5b65822d5140ce021488a00c\",\"urls\":[\"bzz-raw://8dac67605a1aa2d35c884603a51f2791c647a6d8d75ba1d698816fa90c2645f8\",\"dweb:/ipfs/QmSVjgCcGsPGrXskZAMo9FDnpYRQ8tpmMhW7uxftYFfDJD\"],\"license\":\"BUSL-1.1\"},\"node_modules/@arbitrum/nitro-contracts/src/bridge/IInboxBase.sol\":{\"keccak256\":\"0x2d8800ecb63220a0174770080f714f5de9823ddd08888e23e79b80282a4940ea\",\"urls\":[\"bzz-raw://5e4f3420abcddbac00e09cdfbb1b6af9de7fa73b5b27c53b71c06e9a35ae0ba3\",\"dweb:/ipfs/QmTJimLXfWzUB8F8aPFAdeMsYVTFY1SywPPDEuFk397JNT\"],\"license\":\"BUSL-1.1\"},\"node_modules/@arbitrum/nitro-contracts/src/bridge/IOutbox.sol\":{\"keccak256\":\"0x2de956f0a532a8db249be0eff614db7caa73eec2afb485c1ac9aed78ecf39e5f\",\"urls\":[\"bzz-raw://d2ceb5dc3a34dc692f9a6c6eec9227ad7f2cfc423e8fd55460427e013819493b\",\"dweb:/ipfs/Qmd3F4xSMP1aFCq2GcwEESVhqxWzGdH8y5ReK3V8UBNEZc\"],\"license\":\"BUSL-1.1\"},\"node_modules/@arbitrum/nitro-contracts/src/bridge/IOwnable.sol\":{\"keccak256\":\"0x0ce0ccc2cd25968ab37aef146be9c9a615c3f2ad239fa759d1745190666729fd\",\"urls\":[\"bzz-raw://6516e1a94fdc9530b90ceb408e3083ecc7e844afd4fc34a7ccab89a191c3b88f\",\"dweb:/ipfs/QmZ4UwQe1pgTJxx1XqzcAKTgu9Wo6qZA5WSCPHygFJSdi8\"],\"license\":\"BUSL-1.1\"},\"node_modules/@arbitrum/nitro-contracts/src/bridge/ISequencerInbox.sol\":{\"keccak256\":\"0x97341bd4cc27f3eae77980a722dfeb2b0b29492e920740a6138aa0812711c69a\",\"urls\":[\"bzz-raw://78acecb4885ba0b5c1a91d5c79cc99c6ff16e0ebffd5dd1e9f99ac6e6d11344d\",\"dweb:/ipfs/QmSDK7G79KKB1ETvG5Sd1ekWdeGi3RwnUCq9GtCbKonCd5\"],\"license\":\"BUSL-1.1\"},\"node_modules/@arbitrum/nitro-contracts/src/libraries/AddressAliasHelper.sol\":{\"keccak256\":\"0x53ab7b4f3e0179f4579bdaccbd68ef79246d28ce95632f8e3b585356fca0d6c0\",\"urls\":[\"bzz-raw://4239875db36ea53f47c072aec3890e439d21dcac09728b0faadb607119149895\",\"dweb:/ipfs/QmejkGYPU5GFBTGwEySAYHtuJGgniiKdvtGGx9uUgsM5N9\"],\"license\":\"BUSL-1.1\"},\"node_modules/@arbitrum/nitro-contracts/src/libraries/IGasRefunder.sol\":{\"keccak256\":\"0x35d07855184f8d31087ad0b67d1a8ccd0653a3a6c59c02513eb9c53b3371a385\",\"urls\":[\"bzz-raw://20eec9a16fa9003971a1ac5f5f7a3b7c558c57cba01f98c50959b5c93786f639\",\"dweb:/ipfs/QmaRQpgwZVQYe2EsFS4UrvrnFabJLQwUaBXm14C8V4rhBM\"],\"license\":\"BUSL-1.1\"},\"node_modules/@arbitrum/nitro-contracts/src/precompiles/ArbSys.sol\":{\"keccak256\":\"0x4bc9f91d6a3973af46cc95dd5fe9a29d23e2e64b13512dd0b2d1bfcde705f132\",\"urls\":[\"bzz-raw://7617f08af8fd8aa01a4a5e94ed0c4f15a8567665851c72765e82dbdd8ab20462\",\"dweb:/ipfs/QmYuVxm3JtrPwWBXhtEJZkhuv2SQ1iBH4j6ypP6uRAWAgF\"],\"license\":\"BUSL-1.1\"},\"node_modules/@bananapus/core/src/abstract/JBPermissioned.sol\":{\"keccak256\":\"0xe08c8a7eeac9d1c7c2e0db6d5b98d1af09889300835a3d47d9f29319fecce703\",\"urls\":[\"bzz-raw://42645cf52bcc45053ef650790916faed5d0a74cecef336b217433fdd2c5c4166\",\"dweb:/ipfs/QmdMmxG1tSGucQwz4LYbVnuj7HU23YvqLH6xfrNWv5Bmus\"],\"license\":\"MIT\"},\"node_modules/@bananapus/core/src/enums/JBApprovalStatus.sol\":{\"keccak256\":\"0x61c69b6bac7d24b566d87cda23a77e4ca9cdb87200b106aba8534cb9a0973e33\",\"urls\":[\"bzz-raw://6a9ca7249de76f77a8252eefe6bd1b63d47952f25a2acfa2c8db967cdff4470c\",\"dweb:/ipfs/QmaxSxptRQNj8bNy96EreENmrnRWdKmhyihBcxyWzBX5BN\"],\"license\":\"MIT\"},\"node_modules/@bananapus/core/src/interfaces/IJBController.sol\":{\"keccak256\":\"0xe0b84058192f89e461c4b604388aa11a2f92f0f9969fb70fb3c18706d6f3e16b\",\"urls\":[\"bzz-raw://984fdcff63a17ccab65ff7723a628967e40965fcb4d47909cf8e314e8f044576\",\"dweb:/ipfs/QmaaHZWuaaH3oYxCDrip1rr4u4H1XtR3RcwwKAE73GAqkd\"],\"license\":\"MIT\"},\"node_modules/@bananapus/core/src/interfaces/IJBDirectory.sol\":{\"keccak256\":\"0x9cc380844aef60078ee47a61861e55a29c4a8c947efd556ebd36e6909f7b9d62\",\"urls\":[\"bzz-raw://9f5190ec8b6683d9781ee6e9eedcc91294753242748875d4a06349077e4cbaaf\",\"dweb:/ipfs/QmTQrPuXT9TCA4txwrperMeXSGvGxP8iokUK47f62F388i\"],\"license\":\"MIT\"},\"node_modules/@bananapus/core/src/interfaces/IJBDirectoryAccessControl.sol\":{\"keccak256\":\"0x1e67f56849320a46f834aaa9bd62b170ff8ada7b224b4a81136193740fa0be4d\",\"urls\":[\"bzz-raw://ea8fbcec44abfe49d137bcae129b67e5479d6b17879301f88534c8a7fab00be4\",\"dweb:/ipfs/QmT6wrtYX4GRpffHUzupNwYebJ1dqkkKZLEewWsoyunsqw\"],\"license\":\"MIT\"},\"node_modules/@bananapus/core/src/interfaces/IJBFundAccessLimits.sol\":{\"keccak256\":\"0xf5fd6bdd723b60d490ccbe22cdf1cfe43663d23e6ee48badcd1b71e3282cb16b\",\"urls\":[\"bzz-raw://fe692f0b843ea5fccdfcb68f4ec16e1c0add945bb74b303c9866342be0e31fbf\",\"dweb:/ipfs/QmSRmzpgp3DhNEhNDiLsSu7yEiTeywbzEFbwyGyDazjgKt\"],\"license\":\"MIT\"},\"node_modules/@bananapus/core/src/interfaces/IJBMigratable.sol\":{\"keccak256\":\"0xd69bd5aba01a68d82c303ef3adde47532abcace030a94296c3ea6988b401789c\",\"urls\":[\"bzz-raw://88f11a1c89899327746beba4fc830abf3ac2eb9c152c778e884a6eed6564971f\",\"dweb:/ipfs/QmTpKhSTVewpz7VyKcz6BJwH2LFKMwT7Qi5HNWmjEjwsdK\"],\"license\":\"MIT\"},\"node_modules/@bananapus/core/src/interfaces/IJBPayHook.sol\":{\"keccak256\":\"0x9438866782c652c2942f4d114e35f393cd3c8b0334abce8387eed90bca35e8b2\",\"urls\":[\"bzz-raw://cfd99daf57213f92325aad7d7d16e98476d38e870470e95ba01e3ae3cdecc95d\",\"dweb:/ipfs/QmUKKAVGf7ki8BHksr99tFcRW8APveeB5tNH63ctTbbCW8\"],\"license\":\"MIT\"},\"node_modules/@bananapus/core/src/interfaces/IJBPermissioned.sol\":{\"keccak256\":\"0x5b038d4dee116584e88b230920e56d48e135053e3f7e5642eaea14a775c1dad7\",\"urls\":[\"bzz-raw://19e43102f349fd4a1da1c0943ffb8f2950007fe4bb4bb7e8f74fc142575d091b\",\"dweb:/ipfs/QmXHAt4KzDTdDZgDDefEXH2WKi7NcfkJb9R7nxW5uDqsNp\"],\"license\":\"MIT\"},\"node_modules/@bananapus/core/src/interfaces/IJBPermissions.sol\":{\"keccak256\":\"0x18870e500edf0fbadc353e273a5574701fb80466376b908c65e7cc3f11044d4d\",\"urls\":[\"bzz-raw://352a47c45853aec80e7acf0d286ade3106eb4cb456776b28a3c2f3f1091bed90\",\"dweb:/ipfs/QmQeYd3YbudYZy2hfbfht9kwhxhw4tuuLKMEYy9UY6dcSy\"],\"license\":\"MIT\"},\"node_modules/@bananapus/core/src/interfaces/IJBPriceFeed.sol\":{\"keccak256\":\"0x4bd84c0f1a5d4729ed709bcddd43f4c50ec4a165ece79780af8dce482ed07d4a\",\"urls\":[\"bzz-raw://62bac4bfb6982fb002f620c77e5c445e62d50241a5aa64a07e51d929f5a42180\",\"dweb:/ipfs/QmWgJUDreVY2BuMX38a1iUUR5kNbMwGnKG3VvurB7oZtuM\"],\"license\":\"MIT\"},\"node_modules/@bananapus/core/src/interfaces/IJBPrices.sol\":{\"keccak256\":\"0x99525f31440b955742dce84ba57de9fc1221139b5367c1f834723bef9e13e6e1\",\"urls\":[\"bzz-raw://6fa03f0cd4ad87dd7cbae7bf7f54463450874291773c8f70f2c31ef2cae62bb0\",\"dweb:/ipfs/QmSPajPV5ismteJuB6Spzm9VmhTj2iS3eVrfpJC1Zuzg8n\"],\"license\":\"MIT\"},\"node_modules/@bananapus/core/src/interfaces/IJBProjectUriRegistry.sol\":{\"keccak256\":\"0x2799475228987e4f8334ac33d3935f759c9b8133db7383b4f622dde7a5dc0502\",\"urls\":[\"bzz-raw://d751731740f45df74eea48c9667e847ee2cddb2980ab4939c86bd17e6c6ed89b\",\"dweb:/ipfs/QmXW8SLTuhdUpfn7pRpdsYdcyuim8RTyagU37ULcj5UZhT\"],\"license\":\"MIT\"},\"node_modules/@bananapus/core/src/interfaces/IJBProjects.sol\":{\"keccak256\":\"0x735c2fb8f1fa827f054ee77f7a0ae4b312656217acb75b624d2c8fd9dc40151b\",\"urls\":[\"bzz-raw://ee7fc92299a8633a80693ae63ab494dcd125f1789487a54a39dc0e5696e5996f\",\"dweb:/ipfs/QmX7YJD4pS2XhgQb7p3JbBAXynT7YGPXcZe92BiWWRrsCL\"],\"license\":\"MIT\"},\"node_modules/@bananapus/core/src/interfaces/IJBRedeemHook.sol\":{\"keccak256\":\"0x8ab46fcd7d0e739661eb76056ad93ff99106f38420ef0b4eb97fa9f4bb71a68a\",\"urls\":[\"bzz-raw://0ef96fcb7ad26281d444d8e0c677b25114fdd63b1c172d477e030dce8ba53b62\",\"dweb:/ipfs/Qmcx1jRQuwU4pZFuLxsSsx4oMbRaDfktHrPnXextgbWc5m\"],\"license\":\"MIT\"},\"node_modules/@bananapus/core/src/interfaces/IJBRedeemTerminal.sol\":{\"keccak256\":\"0xd1b4aa38154e08f1474745ea6bc8f8823fe8aa68c124d596742597f2296ea16d\",\"urls\":[\"bzz-raw://9bd254e833702dfe5e28db5fee76478947ab45b501c966501f719e73bbf0397a\",\"dweb:/ipfs/QmZ3Ng7TmVxL6ozSUhx4kYdQdZhoYi4t43cYZVAMz7Fn5M\"],\"license\":\"MIT\"},\"node_modules/@bananapus/core/src/interfaces/IJBRulesetApprovalHook.sol\":{\"keccak256\":\"0x592e95d159494421c6b1bcb362d0cee1df0132921697351304e9cd7af4fbd386\",\"urls\":[\"bzz-raw://5bebfd5fa67c1b6ea16fa2e76e9520e9dfe52a579f48dd94d0c2ec45f78ad178\",\"dweb:/ipfs/QmRUawEGtfYoYSHmHELGhvJoWuMsxLPKtqAXgsrb7fJboP\"],\"license\":\"MIT\"},\"node_modules/@bananapus/core/src/interfaces/IJBRulesets.sol\":{\"keccak256\":\"0xd3f817d22ecbe24da63c552c069bf0c4fbbf3bcd5c3b5633002afd24aacf6882\",\"urls\":[\"bzz-raw://c1185aec0f6b6f0f4d93ffeeed0972ccf38420b00fe570b5e1838ed2b1f5db49\",\"dweb:/ipfs/QmWz36azGTFnjFXpFSh6BHt4nactgjtF64L3PeTqs4ZqSR\"],\"license\":\"MIT\"},\"node_modules/@bananapus/core/src/interfaces/IJBSplitHook.sol\":{\"keccak256\":\"0xeb8dfac7a4b81897a1c3b5d0d853a406bcff33720fb187d5ca5bb3dcc0ba3a12\",\"urls\":[\"bzz-raw://36aaeef6107cfe5b0127e063ea215aac7200f8af02e28a48e61111abd3254688\",\"dweb:/ipfs/QmQ8yQANXnhQCAWBGKsKCDsJ3A8hnTKNg5tyo79GfWXTcV\"],\"license\":\"MIT\"},\"node_modules/@bananapus/core/src/interfaces/IJBSplits.sol\":{\"keccak256\":\"0x92deeb9e22ce2aaafc608b85e9250b8ea2deed1ebf64b7442038b157b2bfe0e6\",\"urls\":[\"bzz-raw://08bf29f0c13c2e8be46065277f67e44ecaea960cb5474f13775eece0672566c2\",\"dweb:/ipfs/QmeGu9C6tuBjfmeizmpzptxgGmch6Mbtm34NFwZxzMvqc4\"],\"license\":\"MIT\"},\"node_modules/@bananapus/core/src/interfaces/IJBTerminal.sol\":{\"keccak256\":\"0x19dc9bf8cbdc8f13ee5da9dc3a87047eacb94a3fc19740a286c1f0bad2cc39ca\",\"urls\":[\"bzz-raw://0b05ae6fda9a85672508232fd992b8a5f5ffd8096622eeb12c8a7b3317eb3867\",\"dweb:/ipfs/QmNh9Quj37BXYGdTdcCD1Q58PchRsE5TLbEZep56qS3MpV\"],\"license\":\"MIT\"},\"node_modules/@bananapus/core/src/interfaces/IJBToken.sol\":{\"keccak256\":\"0x71b1f9c3a0edd41910f77396e0be2c65596571176d53eb87e887c3c0da56c0fb\",\"urls\":[\"bzz-raw://6e956f0582f4525e83d845ee9b4a89959abc4f821414f6accbbee5b38960482d\",\"dweb:/ipfs/QmbSvjgmCgnfVmcCTGu8XwrV1Rufsf3M8hB8unFq6fTMdH\"],\"license\":\"MIT\"},\"node_modules/@bananapus/core/src/interfaces/IJBTokenUriResolver.sol\":{\"keccak256\":\"0xfa5cb00dcd6085d1ef912d071fe73c63f9478a2cd0f9d8bddaf659b6af2d0967\",\"urls\":[\"bzz-raw://282e4e7c342d65f77cde0e9a08fcaf20ef5cf379c7a48b639842c0ffd0b2afb8\",\"dweb:/ipfs/QmbnN3PEQeZaXdPLT75V1J79kMg7KqSMru37RHrL3z8Yf2\"],\"license\":\"MIT\"},\"node_modules/@bananapus/core/src/interfaces/IJBTokens.sol\":{\"keccak256\":\"0x6fd67af915dd541d9547c8297aa9ae269690e4ee23531db43f021bcacec6076f\",\"urls\":[\"bzz-raw://2e5e11954e9ab2319fffccb6563f3db400b8f7760d4ffe2165048a02c9c37fa6\",\"dweb:/ipfs/QmbDXtV83dK8EfiTjsTRf55R2XqPZzDKcjtYbW8sxQ5CFm\"],\"license\":\"MIT\"},\"node_modules/@bananapus/core/src/libraries/JBConstants.sol\":{\"keccak256\":\"0x9d3a9a953f859d8ec79a599577f8972de6da7199cc1bfa7fdad017d4d722bcb4\",\"urls\":[\"bzz-raw://f151fcb53a8d2684eff8b9e56ac790bcbcadd8199a4fd4d17c5b224b22936722\",\"dweb:/ipfs/QmdAz1ZtCE8nTiC4AxQNLfJhnY3ndGum2Lbef7seKdvTdR\"],\"license\":\"MIT\"},\"node_modules/@bananapus/core/src/structs/JBAccountingContext.sol\":{\"keccak256\":\"0x2907ff54d1e903cc7e0390dd88c3975884702dc2673642aacbe22b66560b56de\",\"urls\":[\"bzz-raw://a66a5381ce877b32f0e0058ceeaf843e9b6b2bc8af666c0c9f4a9d01091da004\",\"dweb:/ipfs/QmQynCetUr37dBkS1YwDS8evxuXGiqanW6THmeUxXtim8w\"],\"license\":\"MIT\"},\"node_modules/@bananapus/core/src/structs/JBAfterPayRecordedContext.sol\":{\"keccak256\":\"0xd26c3a774ff38be79064085970454fe2603a23a638c76270d5b1b3829206c3e8\",\"urls\":[\"bzz-raw://3b55dbe3bf1ef625b7ca04efab3de35406e6041d5b3d82c7265469c500e2b702\",\"dweb:/ipfs/QmUdBDo4Lt3mcsFcsXT2mqq3czFwZjQJFPLM89YA2VtD7k\"],\"license\":\"MIT\"},\"node_modules/@bananapus/core/src/structs/JBAfterRedeemRecordedContext.sol\":{\"keccak256\":\"0x521f5d23a36f0da72362cd84890cc867bd83baa8dc836ba6c5066d51dba2f163\",\"urls\":[\"bzz-raw://6cc461313286dde62d045d6288e87bae5032e035796326f5b1ed6218e58aa9da\",\"dweb:/ipfs/QmQS2AkQwf2ANQieDuaUnpJEdXChoLv4CCbZqHkfywYPSR\"],\"license\":\"MIT\"},\"node_modules/@bananapus/core/src/structs/JBCurrencyAmount.sol\":{\"keccak256\":\"0x12fe4b43f4824994624d4fe0abbd88c3fe7867fd637edb65c7f456dab27e2d6e\",\"urls\":[\"bzz-raw://8003a3e8f932cf891e86b827e67c9d31b0d34c2712e18c2bc333cfe5284ba6d5\",\"dweb:/ipfs/QmSoA6RsDcSnNzk6CB7KZtALkHmeSDAi2g6fg3TDmLDkWX\"],\"license\":\"MIT\"},\"node_modules/@bananapus/core/src/structs/JBFundAccessLimitGroup.sol\":{\"keccak256\":\"0x9fdaa8d017b72da25f583700a444a86849df053f7fb8eac874ec5139bcf651e5\",\"urls\":[\"bzz-raw://c8e44c49ee444a98424a0dbeb6897a76a0bf00d88a613f62ac2012afdac754ee\",\"dweb:/ipfs/QmdYkAiRi5bXM1YYNkc7BiqimHSFodMGn1cjHR5hcpm4xH\"],\"license\":\"MIT\"},\"node_modules/@bananapus/core/src/structs/JBPermissionsData.sol\":{\"keccak256\":\"0x8f0f69a6ebf5f3704e3dfcb3712fb9d3f94ae7c1ab89bf3e37bad42a3e7a0487\",\"urls\":[\"bzz-raw://57b0c5e52843e2217082889ed47b4da3943e0da4590d5768dcebfe3edad4a6b8\",\"dweb:/ipfs/QmRz48vuWLw81kUP836rh1qzqWiJFGbksgRUA9xGEDNKTY\"],\"license\":\"MIT\"},\"node_modules/@bananapus/core/src/structs/JBRuleset.sol\":{\"keccak256\":\"0x15b2bf3174d84846a91ccbf5a344dfb125b55ed9cf50102db8d6868844225189\",\"urls\":[\"bzz-raw://647416b025dbd941094db89cbc69f755c155bd6c87be3f322394ccc4a8e0442d\",\"dweb:/ipfs/QmTCL9xcHnxQ4t5AmCPoZvXDUPW5xhzhyyXYbkMdyg44au\"],\"license\":\"MIT\"},\"node_modules/@bananapus/core/src/structs/JBRulesetConfig.sol\":{\"keccak256\":\"0x0be470df286939259a6b98bc71459e661e81d56a58226d6a574ae1484f8f8e6c\",\"urls\":[\"bzz-raw://64592c279ba7518ac180c835a539897163f299a439065f2cc8aa54086a2c9ad7\",\"dweb:/ipfs/QmaEepVvFJdXcDBMMr7SQYjZSDJXPtCca95kQY5rZbra6U\"],\"license\":\"MIT\"},\"node_modules/@bananapus/core/src/structs/JBRulesetMetadata.sol\":{\"keccak256\":\"0xfea54c9f98416d2aa05309e7ff76967d6968a614850a1e33e48fde793ea8b514\",\"urls\":[\"bzz-raw://bf55386cbab90dbc1296b2b0cbfdc217a4500d67702e4a093a4c78bd127ecd5c\",\"dweb:/ipfs/QmTRq9mZrNSXu7oCZwti4JbBFrbY6A5msRqi9RbtL49NAj\"],\"license\":\"MIT\"},\"node_modules/@bananapus/core/src/structs/JBRulesetWithMetadata.sol\":{\"keccak256\":\"0x1bcfadf20488f6df65227f8d4d0fbf9b7539456a2389567f7fe3900d23289bc3\",\"urls\":[\"bzz-raw://0a15c399a71e5373f8c0484c6d6b83521eda31e063a2c53e4c5cec4e74550343\",\"dweb:/ipfs/QmQwi8zkjoTVXbK89NeETYimWCacTrNsesJdpLSvGdqMPX\"],\"license\":\"MIT\"},\"node_modules/@bananapus/core/src/structs/JBSplit.sol\":{\"keccak256\":\"0x1d40fa4f1c911a53b9139f3d44d27cb58fa5c5d2cd793c7a21ccf52b9e61f848\",\"urls\":[\"bzz-raw://9897d2c29fc65fe16e4eac0b7b8b6fd8ef0b0cc501986f7f0c3a78c4ec1dbb60\",\"dweb:/ipfs/QmXcHoVjCYWWCz4hm2KZ6JxtB4YNq7jmXa2evLkga59Xwq\"],\"license\":\"MIT\"},\"node_modules/@bananapus/core/src/structs/JBSplitGroup.sol\":{\"keccak256\":\"0xda7da6e88aac2906c7ea4027660088daf217edc632bebca4d72795aae8921564\",\"urls\":[\"bzz-raw://ae1939d17e94cb51484f31ce64cf0df990445a338fb9b38d39a7baf28275ae4a\",\"dweb:/ipfs/QmUhPnJiWnYhFdtLvZnrPopAdbYXxETpGjvxjPDignpTGY\"],\"license\":\"MIT\"},\"node_modules/@bananapus/core/src/structs/JBSplitHookContext.sol\":{\"keccak256\":\"0xfe34e6860b00ca93d71f44e72882281b2c57c31303151af05795c74cfdd2e51d\",\"urls\":[\"bzz-raw://08acab094888e9c929b6f6f972d89ddbb31e5867675e7e7c602d25fcb2c0f402\",\"dweb:/ipfs/QmPNdXM185cTyXQSodVr4JMviHx88jrWu7dipgkp9xTNgJ\"],\"license\":\"MIT\"},\"node_modules/@bananapus/core/src/structs/JBTerminalConfig.sol\":{\"keccak256\":\"0xd162f3821a1ccafbc8d7d108369e39ac3048445a8c7fe7a3fa97a6343f9eefaa\",\"urls\":[\"bzz-raw://82172ea0407b6d9edc45e408c7e8edb8e129adf49a94349fe3a5862da9bc044e\",\"dweb:/ipfs/QmWheF5Tjq2hcabnSzfYqdFHUA1YxYEdAPZaRw9N166V1d\"],\"license\":\"MIT\"},\"node_modules/@bananapus/core/src/structs/JBTokenAmount.sol\":{\"keccak256\":\"0x5cf0626b73a596c1e2da17c89ae039a7c0374310b060d48568d3b6c11fbe6180\",\"urls\":[\"bzz-raw://63348b50be95e2995409394a17caffc563a646f0972650a1230bf864fbd3219b\",\"dweb:/ipfs/QmZXZpS3SbFD5nWaCauf6AqbEhLURv5qsKHpThBvQgDU6u\"],\"license\":\"MIT\"},\"node_modules/@bananapus/permission-ids/src/JBPermissionIds.sol\":{\"keccak256\":\"0xf61109f6b217a80d5e5391f548fb6f2e451f7dbee3fabfc04cf17e88722203bc\",\"urls\":[\"bzz-raw://ac776ab1cd621c22bd7973471acdfa187f3abc659ad9a3ef6ed10b6447dfcf9c\",\"dweb:/ipfs/QmYLbaHt68qcuMzkiKpe96jMjiWUq1F3u8yMhxmZ3pnnWu\"],\"license\":\"MIT\"},\"node_modules/@openzeppelin/contracts/token/ERC20/IERC20.sol\":{\"keccak256\":\"0xc6a8ff0ea489379b61faa647490411b80102578440ab9d84e9a957cc12164e70\",\"urls\":[\"bzz-raw://0ea104e577e63faea3b69c415637e99e755dcbf64c5833d7140c35a714d6d90c\",\"dweb:/ipfs/Qmau6x4Ns9XdyynRCNNp3RhLqijJjFm7z5fyZazfYFGYdq\"],\"license\":\"MIT\"},\"node_modules/@openzeppelin/contracts/token/ERC20/extensions/IERC20Permit.sol\":{\"keccak256\":\"0x6008dabfe393240d73d7dd7688033f72740d570aa422254d29a7dce8568f3aff\",\"urls\":[\"bzz-raw://f5196ec75139918c6c7bb4251b36395e668f1fa6d206beba7e7520e74913940d\",\"dweb:/ipfs/QmSyqjksXxmm2mCG6qRd1yuwLykypkSVBbnBnGqJRcuJMi\"],\"license\":\"MIT\"},\"node_modules/@openzeppelin/contracts/token/ERC20/utils/SafeERC20.sol\":{\"keccak256\":\"0x37bb49513c49c87c4642a891b13b63571bc87013dde806617aa1efb54605f386\",\"urls\":[\"bzz-raw://b3036b3a83b7c48f96641f2a9002b9f2dcb6a5958dd670894ada21ae8229b3d0\",\"dweb:/ipfs/QmUNfSBdoVtjhETaUJCYcaC7pTMgbhht926tJ2uXJbiVd3\"],\"license\":\"MIT\"},\"node_modules/@openzeppelin/contracts/token/ERC721/IERC721.sol\":{\"keccak256\":\"0x5ef46daa3b58ef2702279d514780316efaa952915ee1aa3396f041ee2982b0b4\",\"urls\":[\"bzz-raw://2f8f2a76e23b02fc69e8cd24c3cb47da6c7af3a2d6c3a382f8ac25c6e094ade7\",\"dweb:/ipfs/QmPV4ZS4tPVv4mTCf9ejyZ1ai57EEibDRj7mN2ARDCLV5n\"],\"license\":\"MIT\"},\"node_modules/@openzeppelin/contracts/utils/Address.sol\":{\"keccak256\":\"0xaf28a975a78550e45f65e559a3ad6a5ad43b9b8a37366999abd1b7084eb70721\",\"urls\":[\"bzz-raw://b7bd24e224f67f65bfadf85dc2929fa965456bb2415478bd0125471b5ce35245\",\"dweb:/ipfs/QmRaydGr8BTHs1kvaZfsNU69pKzUAGFrvABn1KiRSbE51y\"],\"license\":\"MIT\"},\"node_modules/@openzeppelin/contracts/utils/Context.sol\":{\"keccak256\":\"0x493033a8d1b176a037b2cc6a04dad01a5c157722049bbecf632ca876224dd4b2\",\"urls\":[\"bzz-raw://6a708e8a5bdb1011c2c381c9a5cfd8a9a956d7d0a9dc1bd8bcdaf52f76ef2f12\",\"dweb:/ipfs/Qmax9WHBnVsZP46ZxEMNRQpLQnrdE4dK8LehML1Py8FowF\"],\"license\":\"MIT\"},\"node_modules/@openzeppelin/contracts/utils/introspection/IERC165.sol\":{\"keccak256\":\"0x4296879f55019b23e135000eb36896057e7101fb7fb859c5ef690cf14643757b\",\"urls\":[\"bzz-raw://87b3541437c8c443ccd36795e56a338ed12855eec17f8da624511b8d1a7e14df\",\"dweb:/ipfs/QmeJQCtZrQjtJLr6u7ZHWeH3pBnjtLWzvRrKViAi7UZqxL\"],\"license\":\"MIT\"},\"node_modules/@openzeppelin/contracts/utils/structs/BitMaps.sol\":{\"keccak256\":\"0x3616f1b0d0a9ee1ca8f0953ecaceb9230e36f691c7974d30f964212acff52d2b\",\"urls\":[\"bzz-raw://d4bebdd07b31ac28e3e596ac6f0333da90a4e332405aa7d65f3a3a7e0b4cf15e\",\"dweb:/ipfs/QmckoDU5bBnye2UtPcrfJNahLD2FbxrnPP9nrREMWPpnug\"],\"license\":\"MIT\"},\"src/BPArbitrumSucker.sol\":{\"keccak256\":\"0x6aca7b1cfeb40d42c6cdc38fe31cc693a2f766ea0c4e4f020c3d366550bce9af\",\"urls\":[\"bzz-raw://ccf989f909613bbf710e3f1c6a488e890f6ec7ceec8efb5dd3d32c86abe597c7\",\"dweb:/ipfs/QmViXJQQAjpexH92gad7a1zADMcMSnWDvy39DEKaXxQJeJ\"],\"license\":\"MIT\"},\"src/BPSucker.sol\":{\"keccak256\":\"0x5af69375acc2f22e3a198b6d20c873f15f8f5fabac461536f8337dd2bb8c7b34\",\"urls\":[\"bzz-raw://ce99483d7993d146ff614aaf4f6e326df283e73f3b8a372d9091949180fcbe9a\",\"dweb:/ipfs/Qmc5nMqVMXq6fGebQC5sZXGT87ZdLLsBwwTfYrfkotMUF6\"],\"license\":\"MIT\"},\"src/deployers/BPArbitrumSuckerDeployer.sol\":{\"keccak256\":\"0x1b07082bd5060cca5c1e207c58210e5f60bc6543c707c58120c0601f139a9913\",\"urls\":[\"bzz-raw://6e0475919a0e8d4f3551cf5c7ac432432417c4d94ecae2b2d76d7394611554c2\",\"dweb:/ipfs/Qmd1gk97reU1cXMVWLSLyeRowrEMpEufSuuvdSdgrmGPjS\"],\"license\":\"MIT\"},\"src/enums/BPAddToBalanceMode.sol\":{\"keccak256\":\"0xa6dcd5c6225e2b697775d37a6f3a8ae4030f7af1a7cb4bb91d572eef65134e43\",\"urls\":[\"bzz-raw://583699b0f81837a739e5e54a1e0b0400a6021602bd7f48472c8785b22d3f25eb\",\"dweb:/ipfs/QmfL4Jr6p8B5q8uFX1ZfUS5vPsUxiGgMy5udVg9z2kPUQk\"],\"license\":\"MIT\"},\"src/enums/BPLayer.sol\":{\"keccak256\":\"0x8576b5c17487d0372cdf56bc041724685a5deca4f5958bcd5fd377d08607076e\",\"urls\":[\"bzz-raw://57ec39dd1626aaa87198d1b66ac74701848eed0715bd7e08eba39a1388631c37\",\"dweb:/ipfs/QmPiFAKy4Z5L151a4v3teUPYEKkUg8bn4pvG7Kr61JW7t4\"],\"license\":\"MIT\"},\"src/interfaces/ArbL1GatewayRouter.sol\":{\"keccak256\":\"0x3363b66cdc4cef29cdb45b205d925d76bb2a2cd6eb0cf7687be02e81374bd34c\",\"urls\":[\"bzz-raw://aff9fce1b8b08ac9635a998e11b0961b789211ec44c305180994221782a57efe\",\"dweb:/ipfs/QmdGXxHQnZaSEenuugKjR18vCaUiF3Nyrb29cF5sWzig7H\"],\"license\":\"MIT\"},\"src/interfaces/ArbL2GatewayRouter.sol\":{\"keccak256\":\"0x4d22902fd327d0d0977c9812334bd2cf89c9e3a45f9664b60131017e76f22ed2\",\"urls\":[\"bzz-raw://0ce2eaa4b1ddd4efd6e880a8e8a06518caba470f00cecb9f58f5f0a613e18de2\",\"dweb:/ipfs/QmfPbnYW39Z2Mjd7o6a8Gc2r1u9taQmKMpsgfbLJgxLGZE\"],\"license\":\"MIT\"},\"src/interfaces/IArbGatewayRouter.sol\":{\"keccak256\":\"0x915da748a184ca04585e6da1b10cbdb7de99698de1cc31fa0f6d75d02eae4e8e\",\"urls\":[\"bzz-raw://c7204f56dc2c16a2c9a92785aadc67d737b46308d0403fc9a2a8db901700a43e\",\"dweb:/ipfs/Qma8RjHimvNwoQfzxbGYiJsTNWwTZaLN5N5ogBYu663xmN\"],\"license\":\"MIT\"},\"src/interfaces/IBPSucker.sol\":{\"keccak256\":\"0x2a3136ea5608c3e76b9f3114a470980f2a96427535aaccbd65dcc37d3a3dd0f8\",\"urls\":[\"bzz-raw://8cc997a396b183525892a0640ce03aee9fa3f15971266c826a308f6c74ff63f2\",\"dweb:/ipfs/QmZcoMkGbujqLm5B9v5urpFwUVg2uoG7ybPHX8RRxsygpe\"],\"license\":\"MIT\"},\"src/interfaces/IBPSuckerDeployer.sol\":{\"keccak256\":\"0xe252e890c4b5e12d5fa537a11cd2fad936f41be80240301ace8afca3de481222\",\"urls\":[\"bzz-raw://730855964dd0629f3d514ed52f59d80d02786733c3b8b5cf21e69524de7f8829\",\"dweb:/ipfs/QmUuoYEmnzUNn3hANGrg8sDZdjoaEbgWMWLepsSQt9MUyw\"],\"license\":\"MIT\"},\"src/libraries/ARBAddresses.sol\":{\"keccak256\":\"0xdc712c7ce3c666cb65b8995ad4b155cb060929451a189c768f04a9dc7c42f3dc\",\"urls\":[\"bzz-raw://604852f4d3dddaf705ed5fbd469d62d5480e561c79e92cc4897e04d09bfc38f8\",\"dweb:/ipfs/QmXPxim4aunp9sJTpEijLutepQ8ckqNR4GAdDsY9TTL1kX\"],\"license\":\"MIT\"},\"src/libraries/ARBChains.sol\":{\"keccak256\":\"0x1b3ece7233c6b28660b48bd43464848ba5ac847a1ac917452800a69c93bbcae5\",\"urls\":[\"bzz-raw://1ba85d1a4145d8468abebeafe0072e0b77a9346e7b3c2bf12d56bd9491788747\",\"dweb:/ipfs/QmSYTqb2xy8jLt1oPbnqiakiD6ikgSBYog6fBVaWYZuRkP\"],\"license\":\"MIT\"},\"src/structs/BPClaim.sol\":{\"keccak256\":\"0x63a12013ec4c221781b057185a0e01c83ac19dcef115ad6238d25a22011da071\",\"urls\":[\"bzz-raw://0307e4377f2cbd3ec561405eb2ffa07e0d9fe2c39522eb0706e91b46efa1b2a7\",\"dweb:/ipfs/QmXKeKQ6mJGehNJt3v2fqE22MFoGjcpm2x9hHA25vu7xAH\"],\"license\":\"MIT\"},\"src/structs/BPInboxTreeRoot.sol\":{\"keccak256\":\"0xff494c45ee76d14e2ffb3cd0f22412b4a1a4d8e37b957a3ffb82b0b9db4f74ab\",\"urls\":[\"bzz-raw://a896310d4dcfecca8b1927bf82832c9b5de5a455228fd9aad2530729ce61739b\",\"dweb:/ipfs/QmUiep5HvdqgJZyJqt4kKxWuP2odhY5W9kX7pCuovTr3LM\"],\"license\":\"MIT\"},\"src/structs/BPLeaf.sol\":{\"keccak256\":\"0xaa2257b6d8fc05d9b37fdb40472cd2f4bed45e7ddc1ea9082ca5296215602bc8\",\"urls\":[\"bzz-raw://ebdf0d3c3961adb71fd7174f9a8eca8332202d07ee5a584abbb06b7c15db61d0\",\"dweb:/ipfs/QmWtqWUncWvZotfno2kiU5TeT3WTR9zfPzRTiktZskyS13\"],\"license\":\"MIT\"},\"src/structs/BPMessageRoot.sol\":{\"keccak256\":\"0xab832c9e92d412cc0d8e6758777694955fef6dcbc919f96b33052d68d0516d1d\",\"urls\":[\"bzz-raw://fa9fe2604015f05e1a4f2c1a92f4ef7b6cba3d08d9e7daa2b20190a9b1bce39c\",\"dweb:/ipfs/QmUDcrNmqnp1dPwkmPTjsu7Egbwtgsk42G9FNdrHk6JcB2\"],\"license\":\"MIT\"},\"src/structs/BPOutboxTree.sol\":{\"keccak256\":\"0xed569423f6ae3dafee5681a60b7c5d24b0c5f33ff0763937952e938be374d79e\",\"urls\":[\"bzz-raw://4dafb1348a51324105b2ee100e2174fee0f1397f0b2dd00483b2dcf049477ce4\",\"dweb:/ipfs/Qmcf8jizBW7BGGnHBVetaDvYcZ75ov8oYw8LubaNUHrHCv\"],\"license\":\"MIT\"},\"src/structs/BPRemoteToken.sol\":{\"keccak256\":\"0x703d0112f181683d9b3508bf9fc0ef2f5c3cac73de0a718d9f405561fad14622\",\"urls\":[\"bzz-raw://80c0dd5e9ef7648efc48306da2c50829490c41cf09292f0f82fa3e24ce9dbe37\",\"dweb:/ipfs/QmYTgR72bVH3r1xKvMaE1tRUAkqkZjZa2v1eki1973qn3U\"],\"license\":\"MIT\"},\"src/structs/BPTokenMapping.sol\":{\"keccak256\":\"0x84865bda925cdc9a608cbbfc487619acba391f98ae12bbbfdbc5779d617a17d9\",\"urls\":[\"bzz-raw://3bbc1fdd38feaf64fd4914bddb62cda7e5b8ee0f046a0eac8cfcb15f9493bcc5\",\"dweb:/ipfs/QmXgAx7sr1M8r71YrSeQJGAB1uhvdxpQyS633UgJvLCQfb\"],\"license\":\"MIT\"},\"src/utils/MerkleLib.sol\":{\"keccak256\":\"0x6803b76f79362d9b5cd8e32eb1da6ed675146554dcd2f77747c4406f5f7a25f4\",\"urls\":[\"bzz-raw://3db2984a7eae5e7dc78517fd3a696180e95fdf00bf3267b31d1dbaddb0865cab\",\"dweb:/ipfs/QmPG8Nxwcb5Q7unUzMLCwaaRv8MvR7rskfacSDqbDW5zPZ\"],\"license\":\"MIT OR Apache-2.0\"}},\"version\":1}",
			"args": [
				"0xCD8c4da77dfb15C05486D3F71Ee4C2C0dfdbc94e",
				"0x792b79adb4Aa06edDabd6ddef5EE06dCb946F436",
				"0x1e2E8562b635fe19978640C784e47865A83d6605",
				"0x6a65B75A3f37C6702A117Fb87B6bCaC62657d216"
			],
			"bytecode": "0x61012060405234801561001157600080fd5b506040516153c03803806153c08339810160408190526100309161006b565b6001600160a01b0391821660805281166101005291821660a0521660c0526100ca565b6001600160a01b038116811461006857600080fd5b50565b6000806000806080858703121561008157600080fd5b845161008c81610053565b602086015190945061009d81610053565b60408601519093506100ae81610053565b60608601519092506100bf81610053565b939692955090935050565b60805160a05160c05160e051610100516152af61011160003960005050600060cc0152600061021f015260006101fe015260008181610100015261024001526152af6000f3fe608060405234801561001057600080fd5b50600436106100575760003560e01c806303c85ea31461005c5780631213036614610081578063c39ec12414610094578063c86719b7146100c7578063f434c914146100fb575b600080fd5b610064610122565b6040516001600160a01b0390911681526020015b60405180910390f35b61006461008f3660046102d7565b6101bb565b6100b76100a23660046102f9565b60006020819052908152604090205460ff1681565b6040519015158152602001610078565b6100ee7f000000000000000000000000000000000000000000000000000000000000000081565b604051610078919061034a565b6100647f000000000000000000000000000000000000000000000000000000000000000081565b6000466000198101610149577372ce9c846789fdb6fc1f34ac4ad25dd9ef7031ef91505090565b61a4b1810361016d57735288c571fd7ad117bea99bf60fe0846c4e84f93391505090565b62aa36a781036101925773ce18836b233c83325cc8848ca4487e94c628826491505090565b62066eee81036101b757739fdd1c4e4aa24eec1d913fabea925594a20d43c791505090565b5090565b6040516bffffffffffffffffffffffff193360601b16602082015260348101829052600090605401604051602081830303815290604052805190602001209150817f00000000000000000000000000000000000000000000000000000000000000007f00000000000000000000000000000000000000000000000000000000000000007f00000000000000000000000000000000000000000000000000000000000000006000876000604051610270906102ca565b61027f9695949392919061035d565b8190604051809103906000f590508015801561029f573d6000803e3d6000fd5b506001600160a01b0381166000908152602081905260409020805460ff191660011790559392505050565b614ed3806103a783390190565b600080604083850312156102ea57600080fd5b50508035926020909101359150565b60006020828403121561030b57600080fd5b81356001600160a01b038116811461032257600080fd5b9392505050565b6002811061034757634e487b7160e01b600052602160045260246000fd5b50565b6020810161035783610329565b91905290565b6001600160a01b03878116825286811660208301528581166040830152841660608201526080810183905260c0810161039583610329565b8260a083015297965050505050505056fe6101c06040523480156200001257600080fd5b5060405162004ed338038062004ed3833981016040819052620000359162000216565b6001600160a01b0380851660805280871660c05280861660e0528690869086908690869086908316156200006a57826200006c565b305b6001600160a01b0316610120526101408290523361010052806001811115620000995762000099620002a1565b60a0816001811115620000b057620000b0620002a1565b90525050505050505060004690506001811480620000d0575062aa36a781145b15620001245760006101605260018114620001065773aae29b0366299461418f5324a79afc425be5ae216101a081905262000122565b734dbd4fc535ac27206064b68ffcf827b0a60bab3f6101a08190525b505b61a4b181148062000137575062066eee81145b1562000144576001610160525b6101605160018111156200015c576200015c620002a1565b6000036200017d5760405163f21c9f0760e01b815260040160405180910390fd5b336001600160a01b03166303c85ea36040518163ffffffff1660e01b8152600401602060405180830381865afa158015620001bc573d6000803e3d6000fd5b505050506040513d601f19601f82011682018060405250810190620001e29190620002b7565b6001600160a01b03166101805250620002de95505050505050565b6001600160a01b03811681146200021357600080fd5b50565b60008060008060008060c087890312156200023057600080fd5b86516200023d81620001fd565b60208801519096506200025081620001fd565b60408801519095506200026381620001fd565b60608801519094506200027681620001fd565b608088015160a08901519194509250600281106200029357600080fd5b809150509295509295509295565b634e487b7160e01b600052602160045260246000fd5b600060208284031215620002ca57600080fd5b8151620002d781620001fd565b9392505050565b60805160a05160c05160e05161010051610120516101405161016051610180516101a051614a766200045d600039600081816103b901528181611d800152818161348501526136fe01526000818161053c0152818161356f015281816135e20152818161381901526138b2015260008181610508015281816114d40152611d470152600081816102200152818161080b0152818161088801528181610a2501528181610eae01528181610f5701528181611633015281816116f801528181611775015281816119f601528181611aaf01528181611bb10152611cd901526000818161038501528181611eec01528181611f34015281816136140152818161372e015281816138e1015261397a0152600061049301526000818161016d0152610a4e0152600081816103510152818161077c01528181610ed40152818161166e0152611a250152600081816104c701528181610bc401528181610e5001526110690152600081816105fc0152818161121401526112bd0152614a766000f3fe60806040526004361061014f5760003560e01c8063b1012368116100b6578063c6525f2c1161006f578063c6525f2c146104b5578063c86719b7146104f6578063defbb6971461052a578063e7f82c751461055e578063ed0e26b91461058b578063f434c914146105ea57600080fd5b8063b1012368146103a7578063b59ef50f146103db578063b71c1179146103fb578063bf557aee1461040e578063c185412914610461578063c1b8411a1461048157600080fd5b806369ce22331161010857806369ce22331461026557806369d31fdd146102855780636dfa7268146102985780637de6fba2146102c757806388bc2ef31461033f578063ad42938b1461037357600080fd5b80631d831d5c1461015b5780632241dc52146101ac57806338eb2044146101ce578063551ebbf0146101ee57806356539f391461020e57806361c864171461025057600080fd5b3661015657005b600080fd5b34801561016757600080fd5b5061018f7f000000000000000000000000000000000000000000000000000000000000000081565b6040516001600160a01b0390911681526020015b60405180910390f35b3480156101b857600080fd5b506101cc6101c7366004614272565b61061e565b005b3480156101da57600080fd5b506101cc6101e93660046142fe565b610656565b3480156101fa57600080fd5b506101cc61020936600461432f565b6109ef565b34801561021a57600080fd5b506102427f000000000000000000000000000000000000000000000000000000000000000081565b6040519081526020016101a3565b34801561025c57600080fd5b50610242610b6e565b34801561027157600080fd5b506101cc610280366004614379565b610bc0565b6101cc6102933660046142fe565b610c39565b3480156102a457600080fd5b506102b86102b3366004614379565b610daa565b6040516101a393929190614396565b3480156102d357600080fd5b506103156102e2366004614379565b6003602052600090815260409020805460019091015463ffffffff82169164010000000090046001600160a01b03169083565b6040805163ffffffff90941684526001600160a01b039092166020840152908201526060016101a3565b34801561034b57600080fd5b5061018f7f000000000000000000000000000000000000000000000000000000000000000081565b34801561037f57600080fd5b5061018f7f000000000000000000000000000000000000000000000000000000000000000081565b3480156103b357600080fd5b5061018f7f000000000000000000000000000000000000000000000000000000000000000081565b3480156103e757600080fd5b506101cc6103f63660046143ef565b610e14565b6101cc610409366004614379565b6110e8565b34801561041a57600080fd5b50610451610429366004614379565b6001600160a01b03908116600090815260036020526040902054640100000000900416151590565b60405190151581526020016101a3565b34801561046d57600080fd5b506101cc61047c366004614402565b611196565b34801561048d57600080fd5b5061018f7f000000000000000000000000000000000000000000000000000000000000000081565b3480156104c157600080fd5b506104e97f000000000000000000000000000000000000000000000000000000000000000081565b6040516101a39190614499565b34801561050257600080fd5b506104e97f000000000000000000000000000000000000000000000000000000000000000081565b34801561053657600080fd5b5061018f7f000000000000000000000000000000000000000000000000000000000000000081565b34801561056a57600080fd5b50610242610579366004614379565b60026020526000908152604090205481565b34801561059757600080fd5b506105cb6105a6366004614379565b600160208190526000918252604090912080549101546001600160401b039091169082565b604080516001600160401b0390931683526020830191909152016101a3565b3480156105f657600080fd5b5061018f7f000000000000000000000000000000000000000000000000000000000000000081565b60005b818110156106515761064983838381811061063e5761063e6144ac565b905060800201610656565b600101610621565b505050565b60006106656020830183614379565b9050600061eeee6106796020850185614379565b6001600160a01b03161490508080156106ac575061eeee6106a06060850160408601614379565b6001600160a01b031614155b80156106d1575060006106c56060850160408601614379565b6001600160a01b031614155b15610710576106e66060840160408501614379565b604051630a0a3b6b60e31b81526001600160a01b0390911660048201526024015b60405180910390fd5b62030d4061072460408501602086016144c2565b63ffffffff16108015610735575080155b156107775762030d4061074e60408501602086016144c2565b604051634f3dbeb360e11b815263ffffffff928316600482015291166024820152604401610707565b6108ae7f00000000000000000000000000000000000000000000000000000000000000006001600160a01b031663293c49996040518163ffffffff1660e01b8152600401602060405180830381865afa1580156107d8573d6000803e3d6000fd5b505050506040513d601f19601f820116820180604052508101906107fc91906144e8565b6040516331a9108f60e11b81527f000000000000000000000000000000000000000000000000000000000000000060048201526001600160a01b039190911690636352211e90602401602060405180830381865afa158015610862573d6000803e3d6000fd5b505050506040513d601f19601f8201168201806040525081019061088691906144e8565b7f0000000000000000000000000000000000000000000000000000000000000000601c6111ca565b60006108c06060850160408601614379565b6001600160a01b03161480156108f057506001600160a01b03821660009081526020819052604090206001015415155b1561094b576001600160a01b0380831660009081526003602090815260408083208151606081018352815463ffffffff811682526401000000009004909516928501929092526001909101549083015261094b91849061134e565b604051806060016040528084602001602081019061096991906144c2565b63ffffffff1681526020016109846060860160408701614379565b6001600160a01b0390811682526060909501356020918201529284166000908152600384526040908190208251815495840151909616640100000000026001600160c01b031990951663ffffffff909616959095179390931784559091015160019092019190915550565b6001600160a01b038316610a16576040516309a9c30b60e41b815260040160405180910390fd5b60405163ea78803f60e01b81527f000000000000000000000000000000000000000000000000000000000000000060048201526000907f00000000000000000000000000000000000000000000000000000000000000006001600160a01b03169063ea78803f90602401602060405180830381865afa158015610a9d573d6000803e3d6000fd5b505050506040513d601f19601f82011682018060405250810190610ac191906144e8565b90506001600160a01b038116610aea57604051635a33845560e01b815260040160405180910390fd5b6001600160a01b03828116600090815260036020526040902054640100000000900416610b355760405163393e175160e01b81526001600160a01b0383166004820152602401610707565b610b4a6001600160a01b0382163330886115bd565b6000610b5882878587611624565b9050610b6686848388611817565b505050505050565b6000466000198101610b835761a4b191505090565b61a4b18103610b9457600191505090565b62aa36a78103610ba85762066eee91505090565b62066eee8103610bbc5762aa36a791505090565b5090565b60007f00000000000000000000000000000000000000000000000000000000000000006001811115610bf457610bf4614465565b14610c125760405163218a9a2d60e11b815260040160405180910390fd5b6001600160a01b038116600090815260026020526040902054610c36908290611990565b50565b610c4233611d42565b610c5f57604051630439dbd360e51b815260040160405180910390fd5b60208101803590600290600090610c769085614379565b6001600160a01b03166001600160a01b031681526020019081526020016000206000828254610ca5919061451b565b90915550600190506000610cbc6020840184614379565b6001600160a01b0316815260208101919091526040908101600020546001600160401b031690610cf29060608401908401614543565b6001600160401b03161115610c36576040810160016000610d166020850185614379565b6001600160a01b031681526020810191909152604001600020610d398282614560565b50610d4990506020820182614379565b6001600160a01b03167f551b6b99b4c48e3265d2885ab0d93779be2402293261e074f7bf74b2c8f45b6f610d836060840160408501614543565b604080516001600160401b039092168252606085013560208301520160405180910390a250565b6000602081815291815260409081902080546001820154835161044081018086526001600160401b0390931695919490926002850192849283019184919082845b815481526020019060010190808311610deb575050509183525050602091820154910152905083565b610e4c6060820135610e296020840184614379565b6080840135610e3e6060860160408701614379565b602086013560a08701611f6f565b60017f00000000000000000000000000000000000000000000000000000000000000006001811115610e8057610e80614465565b03610e9f57610e9f610e956020830183614379565b6080830135611990565b604051632eec7b5560e11b81527f000000000000000000000000000000000000000000000000000000000000000060048201527f00000000000000000000000000000000000000000000000000000000000000006001600160a01b031690635dd8f6aa90602401602060405180830381865afa158015610f23573d6000803e3d6000fd5b505050506040513d601f19601f82011682018060405250810190610f4791906144e8565b6001600160a01b031663c7fb92de7f000000000000000000000000000000000000000000000000000000000000000060608401803590610f8a9060408701614379565b6040516001600160e01b031960e086901b168152600481019390935260248301919091526001600160a01b0316604482015260a06064820152600060a48201819052608482015260c4016020604051808303816000875af1158015610ff3573d6000803e3d6000fd5b505050506040513d601f19601f820116820180604052508101906110179190614593565b507f487194902d206a126abe9f23a4e2b78d1600ed8034b1423290a13edd6ebc7d146110496060830160408401614379565b6110566020840184614379565b60608401356080850135602086013560017f0000000000000000000000000000000000000000000000000000000000000000600181111561109957611099614465565b146110a55760006110a8565b60015b604080516001600160a01b0397881681529690951660208701529385019290925260608401526080830152151560a082015260c00160405180910390a150565b6001600160a01b0380821660008181526003602090815260408083208151606081018352815463ffffffff811682526401000000009004909616868401526001908101548683018190529484529183905290912001541015611187576040808201516001600160a01b0384166000908152602081905282902060010154915163091df9e560e31b81526107079290600401918252602082015260400190565b61119234838361134e565b5050565b60005b81811015610651576111c28383838181106111b6576111b66144ac565b90506104a00201610e14565b600101611199565b336001600160a01b0384168114801590611281575060405163c161c93f60e01b81526001600160a01b038281166004830152858116602483015260448201859052606482018490527f0000000000000000000000000000000000000000000000000000000000000000169063c161c93f90608401602060405180830381865afa15801561125b573d6000803e3d6000fd5b505050506040513d601f19601f8201168201806040525081019061127f91906145ac565b155b801561132a575060405163c161c93f60e01b81526001600160a01b038281166004830152858116602483015260006044830152606482018490527f0000000000000000000000000000000000000000000000000000000000000000169063c161c93f90608401602060405180830381865afa158015611304573d6000803e3d6000fd5b505050506040513d601f19601f8201168201806040525081019061132891906145ac565b155b156113485760405163075fd2b160e01b815260040160405180910390fd5b50505050565b6001600160a01b038216600090815260208190526040812060018101805490839055815490929190829061138a906001600160401b03166145ce565b91906101000a8154816001600160401b0302191690836001600160401b031602179055905060006001600160a01b031683602001516001600160a01b0316036113f15760405163393e175160e01b81526001600160a01b0385166004820152602401610707565b6000604051806060016040528085602001516001600160a01b031681526020018481526020016040518060400160405280856001600160401b031681526020016114606000808b6001600160a01b03166001600160a01b0316815260200190815260200160002060020161209f565b905290526040805182516001600160a01b031660248201526020808401516044830152929091015180516001600160401b0316606483015290910151608482015260a40160408051601f198184030181529190526020810180516001600160e01b03166369d31fdd60e01b179052905060007f0000000000000000000000000000000000000000000000000000000000000000600181111561150457611504614465565b0361151b576115168587858488613455565b611527565b611527858483876137c1565b6001600160a01b038516600081815260208190526040902061154b9060020161209f565b6001600160a01b0387166000908152602081905260409020602201547f3e069c1f498cba23d7d2b74b84311469e8da6e527cade62061d642c61b64e0de90611595906001906145f4565b604080519182526001600160401b0387166020830152015b60405180910390a3505050505050565b6040516001600160a01b0384811660248301528381166044830152606482018390526113489186918216906323b872dd906084015b604051602081830303815290604052915060e01b6020820180516001600160e01b0383818316178352505050506139e7565b604051630862026560e41b81527f000000000000000000000000000000000000000000000000000000000000000060048201526001600160a01b03838116602483015260009182917f00000000000000000000000000000000000000000000000000000000000000001690638620265090604401602060405180830381865afa1580156116b5573d6000803e3d6000fd5b505050506040513d601f19601f820116820180604052508101906116d991906144e8565b90506001600160a01b03811661173357604051630c9ae01360e01b81527f000000000000000000000000000000000000000000000000000000000000000060048201526001600160a01b0385166024820152604401610707565b600061173f8530613a4a565b60408051602081018252600081529051635db90a7f60e11b81529192506001600160a01b0384169163bb7214fe916117a59130917f0000000000000000000000000000000000000000000000000000000000000000918b918d918c918691600401614657565b6020604051808303816000875af11580156117c4573d6000803e3d6000fd5b505050506040513d601f19601f820116820180604052508101906117e89190614593565b9250806117f58630613a4a565b6117ff91906145f4565b831461180d5761180d6146a9565b5050949350505050565b6000611824858484613ae3565b6001600160a01b03851660009081526020818152604080832081516104408101808452959650939461188f9487949093600290930192849290830191849182845b81548152602001906001019080831161186557505050918352505060209182015491015290613b28565b6001600160a01b038616600090815260208181526040909120825192935083926002909101916118c09183916141e4565b50602091820151908201556001600160a01b0386166000908152908190526040812060010180548692906118f590849061451b565b92505081905550846001600160a01b0316836001600160a01b03167f7b58dbb78e7edc690b0688a53dea0c443d630c4a5db66c3c47d4ff2044c97728846001856020015161194391906145f4565b6001600160a01b038a1660009081526020819052604090206119679060020161209f565b60408051938452602084019290925290820152606081018a90526080810188905260a0016115ad565b6001600160a01b038216600090815260026020526040902054808211156119ca57604051632858f9ab60e11b815260040160405180910390fd5b6001600160a01b03838116600081815260026020526040808220868603905551630862026560e41b81527f000000000000000000000000000000000000000000000000000000000000000060048201526024810192909252917f00000000000000000000000000000000000000000000000000000000000000001690638620265090604401602060405180830381865afa158015611a6c573d6000803e3d6000fd5b505050506040513d601f19601f82011682018060405250810190611a9091906144e8565b90506001600160a01b038116611aea57604051630c9ae01360e01b81527f000000000000000000000000000000000000000000000000000000000000000060048201526001600160a01b0385166024820152604401610707565b6001600160a01b03841661eeee14611c9a576040516370a0823160e01b81523060048201526000906001600160a01b038616906370a0823190602401602060405180830381865afa158015611b43573d6000803e3d6000fd5b505050506040513d601f19601f82011682018060405250810190611b679190614593565b9050611b74858386613c2e565b60408051602080820183526000808352835191820184528082529251639e6eec0560e01b81526001600160a01b03861693639e6eec0593611be1937f0000000000000000000000000000000000000000000000000000000000000000938c938c93909290916004016146bf565b600060405180830381600087803b158015611bfb57600080fd5b505af1158015611c0f573d6000803e3d6000fd5b505050508381611c1f91906145f4565b6040516370a0823160e01b81523060048201526001600160a01b038716906370a0823190602401602060405180830381865afa158015611c63573d6000803e3d6000fd5b505050506040513d601f19601f82011682018060405250810190611c879190614593565b14611c9457611c946146a9565b50611348565b60408051602080820183526000808352835191820184528082529251639e6eec0560e01b81526001600160a01b03851693639e6eec05938893611d0a937f0000000000000000000000000000000000000000000000000000000000000000938c93879391929091906004016146bf565b6000604051808303818588803b158015611d2357600080fd5b505af1158015611d37573d6000803e3d6000fd5b505050505050505050565b6000807f00000000000000000000000000000000000000000000000000000000000000006001811115611d7757611d77614465565b03611f1d5760007f00000000000000000000000000000000000000000000000000000000000000006001600160a01b031663e78cea926040518163ffffffff1660e01b8152600401602060405180830381865afa158015611ddc573d6000803e3d6000fd5b505050506040513d601f19601f82011682018060405250810190611e0091906144e8565b9050806001600160a01b0316836001600160a01b0316148015611f165750806001600160a01b031663ab5d89436040518163ffffffff1660e01b8152600401602060405180830381865afa158015611e5c573d6000803e3d6000fd5b505050506040513d601f19601f82011682018060405250810190611e8091906144e8565b6001600160a01b03166380648b026040518163ffffffff1660e01b8152600401602060405180830381865afa158015611ebd573d6000803e3d6000fd5b505050506040513d601f19601f82011682018060405250810190611ee191906144e8565b6001600160a01b03167f00000000000000000000000000000000000000000000000000000000000000006001600160a01b0316145b9392505050565b7311110000000000000000000000000000000011117f0000000000000000000000000000000000000000000000000000000000000000016001600160a01b0316826001600160a01b0316149050919050565b6001600160a01b0385166000908152600460209081526040808320600886901c8452909152902054600160ff84161b1615611fc05760405163ed9bdd0760e01b815260048101839052602401610707565b6001600160a01b0385166000908152600460209081526040808320600886901c845290915281208054600160ff86161b17905561202f612001888787613ae3565b604080516104008181019092529085906020908390839080828437600092019190915250879150613cbe9050565b6001600160a01b038716600090815260016020819052604090912001549091508114612096576001600160a01b0386166000908152600160208190526040918290200154905163286f87c960e21b8152600481019190915260248101829052604401610707565b50505050505050565b60208101546000908082036120d657507f27ae5ba08d7291c96c8cbddcc148bf48a6d68c7974b94356f53754ef6171d75792915050565b60008360018316156120f85780546000526000602052604060002093506129ab565b600283161561213d5760018101546000527fad3228b676f7d3cd4284a5443f17f1962b36e491b30a40b2405849e597ba5fb560205260406000209350600191506129ab565b60048316156121825760028101546000527fb4c11951957c6f8f642c4af61cd6b24640fec6dc7fc607ee8206a99e92410d3060205260406000209350600291506129ab565b60088316156121c75760038101546000527f21ddb9a356815c3fac1026b6dec5df3124afbadb485c9ba5a3e3398a04b7ba8560205260406000209350600391506129ab565b601083161561220c5760048101546000527fe58769b32a1beaf1ea27375a44095a0d1fb664ce2dd358e7fcbfb78c26a1934460205260406000209350600491506129ab565b60208316156122515760058101546000527f0eb01ebfc9ed27500cd4dfc979272d1f0913cc9f66540d7e8005811109e1cf2d60205260406000209350600591506129ab565b60408316156122965760068101546000527f887c22bd8750d34016ac3c66b5ff102dacdd73f6b014e710b51e8022af9a196860205260406000209350600691506129ab565b60808316156122db5760078101546000527fffd70157e48063fc33c97a050f7f640233bf646cc98d9524c6b92bcf3ab56f8360205260406000209350600791506129ab565b6101008316156123215760088101546000527f9867cc5f7f196b93bae1e27e6320742445d290f2263827498b54fec539f756af60205260406000209350600891506129ab565b6102008316156123675760098101546000527fcefad4e508c098b9a7e1d8feb19955fb02ba9675585078710969d3440f5054e060205260406000209350600991506129ab565b6104008316156123ad57600a8101546000527ff9dc3e7fe016e050eff260334f18a5d4fe391d82092319f5964f2e2eb7c1c3a560205260406000209350600a91506129ab565b6108008316156123f357600b8101546000527ff8b13a49e282f609c317a833fb8d976d11517c571d1221a265d25af778ecf89260205260406000209350600b91506129ab565b61100083161561243957600c8101546000527f3490c6ceeb450aecdc82e28293031d10c7d73bf85e57bf041a97360aa2c5d99c60205260406000209350600c91506129ab565b61200083161561247f57600d8101546000527fc1df82d9c4b87413eae2ef048f94b4d3554cea73d92b0f7af96e0271c691e2bb60205260406000209350600d91506129ab565b6140008316156124c557600e8101546000527f5c67add7c6caf302256adedf7ab114da0acfe870d449a3a489f781d659e8becc60205260406000209350600e91506129ab565b61800083161561250b57600f8101546000527fda7bce9f4e8618b6bd2f4132ce798cdc7a60e7e1460a7299e3c6342a579626d260205260406000209350600f91506129ab565b620100008316156125525760108101546000527f2733e50f526ec2fa19a22b31e8ed50f23cd1fdf94c9154ed3a7609a2f1ff981f60205260406000209350601091506129ab565b620200008316156125995760118101546000527fe1d3b5c807b281e4683cc6d6315cf95b9ade8641defcb32372f1c126e398ef7a60205260406000209350601191506129ab565b620400008316156125e05760128101546000527f5a2dce0a8a7f68bb74560f8f71837c2c2ebbcbf7fffb42ae1896f13f7c7479a060205260406000209350601291506129ab565b620800008316156126275760138101546000527fb46a28b6f55540f89444f63de0378e3d121be09e06cc9ded1c20e65876d36aa060205260406000209350601391506129ab565b6210000083161561266e5760148101546000527fc65e9645644786b620e2dd2ad648ddfcbf4a7e5b1a3a4ecfe7f64667a3f0b7e260205260406000209350601491506129ab565b622000008316156126b55760158101546000527ff4418588ed35a2458cffeb39b93d26f18d2ab13bdce6aee58e7b99359ec2dfd960205260406000209350601591506129ab565b624000008316156126fc5760168101546000527f5a9c16dc00d6ef18b7933a6f8dc65ccb55667138776f7dea101070dc8796e37760205260406000209350601691506129ab565b628000008316156127435760178101546000527f4df84f40ae0c8229d0d6069e5c8f39a7c299677a09d367fc7b05e3bc380ee65260205260406000209350601791506129ab565b630100000083161561278b5760188101546000527fcdc72595f74c7b1043d0e1ffbab734648c838dfb0527d971b602bc216c9619ef60205260406000209350601891506129ab565b63020000008316156127d35760198101546000527f0abf5ac974a1ed57f4050aa510dd9c74f508277b39d7973bb2dfccc5eeb0618d60205260406000209350601991506129ab565b630400000083161561281b57601a8101546000527fb8cd74046ff337f0a7bf2c8e03e10f642c1886798d71806ab1e888d9e5ee87d060205260406000209350601a91506129ab565b630800000083161561286357601b8101546000527f838c5655cb21c6cb83313b5a631175dff4963772cce9108188b34ac87c81c41e60205260406000209350601b91506129ab565b63100000008316156128ab57601c8101546000527f662ee4dd2dd7b2bc707961b1e646c4047669dcb6584f0d8d770daf5d7e7deb2e60205260406000209350601c91506129ab565b63200000008316156128f357601d8101546000527f388ab20e2573d171a88108e79d820e98f26c0b84aa8b2f4aa4968dbb818ea32260205260406000209350601d91506129ab565b634000000083161561293b57601e8101546000527f93237c50ba75ee485f4c22adf2f741400bdf8d6a9cc7df7ecae576221665d73560205260406000209350601e91506129ab565b638000000083161561298357601f8101546000527f8448818bb4ae4562849e949e17ac16e0be16688e156b5cf15e098c627c0056a960205260406000209350601f91506129ab565b7f27ae5ba08d7291c96c8cbddcc148bf48a6d68c7974b94356f53754ef6171d7579350602091505b601e821161344d576001821015612a09576002831680156129d757600182015460005284602052612a00565b846000527fad3228b676f7d3cd4284a5443f17f1962b36e491b30a40b2405849e597ba5fb56020525b50604060002093505b6002821015612a5f57600483168015612a2d57600282015460005284602052612a56565b846000527fb4c11951957c6f8f642c4af61cd6b24640fec6dc7fc607ee8206a99e92410d306020525b50604060002093505b6003821015612ab557600883168015612a8357600382015460005284602052612aac565b846000527f21ddb9a356815c3fac1026b6dec5df3124afbadb485c9ba5a3e3398a04b7ba856020525b50604060002093505b6004821015612b0b57601083168015612ad957600482015460005284602052612b02565b846000527fe58769b32a1beaf1ea27375a44095a0d1fb664ce2dd358e7fcbfb78c26a193446020525b50604060002093505b6005821015612b6157602083168015612b2f57600582015460005284602052612b58565b846000527f0eb01ebfc9ed27500cd4dfc979272d1f0913cc9f66540d7e8005811109e1cf2d6020525b50604060002093505b6006821015612bb757604083168015612b8557600682015460005284602052612bae565b846000527f887c22bd8750d34016ac3c66b5ff102dacdd73f6b014e710b51e8022af9a19686020525b50604060002093505b6007821015612c0d57608083168015612bdb57600782015460005284602052612c04565b846000527fffd70157e48063fc33c97a050f7f640233bf646cc98d9524c6b92bcf3ab56f836020525b50604060002093505b6008821015612c645761010083168015612c3257600882015460005284602052612c5b565b846000527f9867cc5f7f196b93bae1e27e6320742445d290f2263827498b54fec539f756af6020525b50604060002093505b6009821015612cbb5761020083168015612c8957600982015460005284602052612cb2565b846000527fcefad4e508c098b9a7e1d8feb19955fb02ba9675585078710969d3440f5054e06020525b50604060002093505b600a821015612d125761040083168015612ce057600a82015460005284602052612d09565b846000527ff9dc3e7fe016e050eff260334f18a5d4fe391d82092319f5964f2e2eb7c1c3a56020525b50604060002093505b600b821015612d695761080083168015612d3757600b82015460005284602052612d60565b846000527ff8b13a49e282f609c317a833fb8d976d11517c571d1221a265d25af778ecf8926020525b50604060002093505b600c821015612dc05761100083168015612d8e57600c82015460005284602052612db7565b846000527f3490c6ceeb450aecdc82e28293031d10c7d73bf85e57bf041a97360aa2c5d99c6020525b50604060002093505b600d821015612e175761200083168015612de557600d82015460005284602052612e0e565b846000527fc1df82d9c4b87413eae2ef048f94b4d3554cea73d92b0f7af96e0271c691e2bb6020525b50604060002093505b600e821015612e6e5761400083168015612e3c57600e82015460005284602052612e65565b846000527f5c67add7c6caf302256adedf7ab114da0acfe870d449a3a489f781d659e8becc6020525b50604060002093505b600f821015612ec55761800083168015612e9357600f82015460005284602052612ebc565b846000527fda7bce9f4e8618b6bd2f4132ce798cdc7a60e7e1460a7299e3c6342a579626d26020525b50604060002093505b6010821015612f1d576201000083168015612eeb57601082015460005284602052612f14565b846000527f2733e50f526ec2fa19a22b31e8ed50f23cd1fdf94c9154ed3a7609a2f1ff981f6020525b50604060002093505b6011821015612f75576202000083168015612f4357601182015460005284602052612f6c565b846000527fe1d3b5c807b281e4683cc6d6315cf95b9ade8641defcb32372f1c126e398ef7a6020525b50604060002093505b6012821015612fcd576204000083168015612f9b57601282015460005284602052612fc4565b846000527f5a2dce0a8a7f68bb74560f8f71837c2c2ebbcbf7fffb42ae1896f13f7c7479a06020525b50604060002093505b6013821015613025576208000083168015612ff35760138201546000528460205261301c565b846000527fb46a28b6f55540f89444f63de0378e3d121be09e06cc9ded1c20e65876d36aa06020525b50604060002093505b601482101561307d57621000008316801561304b57601482015460005284602052613074565b846000527fc65e9645644786b620e2dd2ad648ddfcbf4a7e5b1a3a4ecfe7f64667a3f0b7e26020525b50604060002093505b60158210156130d55762200000831680156130a3576015820154600052846020526130cc565b846000527ff4418588ed35a2458cffeb39b93d26f18d2ab13bdce6aee58e7b99359ec2dfd96020525b50604060002093505b601682101561312d5762400000831680156130fb57601682015460005284602052613124565b846000527f5a9c16dc00d6ef18b7933a6f8dc65ccb55667138776f7dea101070dc8796e3776020525b50604060002093505b60178210156131855762800000831680156131535760178201546000528460205261317c565b846000527f4df84f40ae0c8229d0d6069e5c8f39a7c299677a09d367fc7b05e3bc380ee6526020525b50604060002093505b60188210156131de576301000000831680156131ac576018820154600052846020526131d5565b846000527fcdc72595f74c7b1043d0e1ffbab734648c838dfb0527d971b602bc216c9619ef6020525b50604060002093505b6019821015613237576302000000831680156132055760198201546000528460205261322e565b846000527f0abf5ac974a1ed57f4050aa510dd9c74f508277b39d7973bb2dfccc5eeb0618d6020525b50604060002093505b601a8210156132905763040000008316801561325e57601a82015460005284602052613287565b846000527fb8cd74046ff337f0a7bf2c8e03e10f642c1886798d71806ab1e888d9e5ee87d06020525b50604060002093505b601b8210156132e9576308000000831680156132b757601b820154600052846020526132e0565b846000527f838c5655cb21c6cb83313b5a631175dff4963772cce9108188b34ac87c81c41e6020525b50604060002093505b601c8210156133425763100000008316801561331057601c82015460005284602052613339565b846000527f662ee4dd2dd7b2bc707961b1e646c4047669dcb6584f0d8d770daf5d7e7deb2e6020525b50604060002093505b601d82101561339b5763200000008316801561336957601d82015460005284602052613392565b846000527f388ab20e2573d171a88108e79d820e98f26c0b84aa8b2f4aa4968dbb818ea3226020525b50604060002093505b601e8210156133f4576340000000831680156133c257601e820154600052846020526133eb565b846000527f93237c50ba75ee485f4c22adf2f741400bdf8d6a9cc7df7ecae576221665d7356020525b50604060002093505b601f82101561344d5763800000008316801561341b57601f82015460005284602052613444565b846000527f8448818bb4ae4562849e949e17ac16e0be16688e156b5cf15e098c627c0056a96020525b50604060002093505b505050919050565b815160405163a66b327d60e01b81526004810191909152630bebc200602482015260009081906001600160a01b037f0000000000000000000000000000000000000000000000000000000000000000169063a66b327d90604401602060405180830381865afa1580156134cc573d6000803e3d6000fd5b505050506040513d601f19601f820116820180604052508101906134f09190614593565b90506000613505620493e0630bebc200614706565b6135159063ffffffff168361451b565b90508087101561353857604051636eb14fc360e11b815260040160405180910390fd5b6001600160a01b03881661eeee146136ce57604051635ed004ff60e11b81526001600160a01b03808a1660048301526135e0918a917f0000000000000000000000000000000000000000000000000000000000000000169063bda009fe90602401602060405180830381865afa1580156135b6573d6000803e3d6000fd5b505050506040513d601f19601f820116820180604052508101906135da91906144e8565b88613c2e565b7f00000000000000000000000000000000000000000000000000000000000000006001600160a01b0316634fb1a07b888a337f00000000000000000000000000000000000000000000000000000000000000008b620493e0630bebc2008a8e60405160200161365092919061472e565b6040516020818303038152906040526040518963ffffffff1660e01b8152600401613681979695949392919061474f565b60006040518083038185885af115801561369f573d6000803e3d6000fd5b50505050506040513d6000823e601f3d908101601f191682016040526136c891908101906147b3565b506136d2565b8592505b866136dd828561451b565b11156136fc57604051636eb14fc360e11b815260040160405180910390fd5b7f00000000000000000000000000000000000000000000000000000000000000006001600160a01b031663679b6ded887f000000000000000000000000000000000000000000000000000000000000000086863333620493e0630bebc2008e6040518a63ffffffff1660e01b815260040161377e98979695949392919061485f565b60206040518083038185885af115801561379c573d6000803e3d6000fd5b50505050506040513d601f19601f82011682018060405250810190611d379190614593565b600034156137e2576040516352864b0160e11b815260040160405180910390fd5b6001600160a01b03851661eeee1461395957604051635ed004ff60e11b81526001600160a01b03808716600483015261388a9187917f0000000000000000000000000000000000000000000000000000000000000000169063bda009fe90602401602060405180830381865afa158015613860573d6000803e3d6000fd5b505050506040513d601f19601f8201168201806040525081019061388491906144e8565b86613c2e565b6020808301516040805192830181526000835251637b3a3c8b60e01b81526001600160a01b037f00000000000000000000000000000000000000000000000000000000000000001692637b3a3c8b9261390c9290917f0000000000000000000000000000000000000000000000000000000000000000918a91906004016148c4565b6000604051808303816000875af115801561392b573d6000803e3d6000fd5b505050506040513d6000823e601f3d908101601f1916820160405261395391908101906147b3565b5061395c565b50825b6040516349460b4d60e11b815260649063928c169a9083906139a4907f00000000000000000000000000000000000000000000000000000000000000009088906004016148f7565b60206040518083038185885af11580156139c2573d6000803e3d6000fd5b50505050506040513d601f19601f82011682018060405250810190610b669190614593565b60006139fc6001600160a01b0384168361400c565b90508051600014158015613a21575080806020019051810190613a1f91906145ac565b155b1561065157604051635274afe760e01b81526001600160a01b0384166004820152602401610707565b600061eeed196001600160a01b03841601613a7057506001600160a01b03811631613add565b6040516370a0823160e01b81526001600160a01b0383811660048301528416906370a0823190602401602060405180830381865afa158015613ab6573d6000803e3d6000fd5b505050506040513d601f19601f82011682018060405250810190613ada9190614593565b90505b92915050565b60408051602081018590529081018390526001600160a01b03821660608201526000906080016040516020818303038152906040528051906020012090509392505050565b613b3061421e565b6000836020018051613b419061491b565b9081905290506001613b5560206002614a18565b613b5f91906145f4565b811115613b7f57604051638eab04bb60e01b815260040160405180910390fd5b60005b6020811015613c145781600116600103613bbb57845184908260208110613bab57613bab6144ac565b602002015250839150613add9050565b84518160208110613bce57613bce6144ac565b602002015184604051602001613bee929190918252602082015260400190565b60408051601f1981840301815291905280516020909101209350600191821c9101613b82565b50604051638eab04bb60e01b815260040160405180910390fd5b604080516001600160a01b038416602482015260448082018490528251808303909101815260649091019091526020810180516001600160e01b031663095ea7b360e01b179052613c7f848261401a565b611348576040516001600160a01b03848116602483015260006044830152613cb491869182169063095ea7b3906064016115f2565b61134884826139e7565b6020600582811b8216948552835194820394909452604060008181206002851615871b808503919091528386015190528181206004851615871b808503919091528286015190528181206008851615871b80850391909152606086015190528181206010851615871b8085039190915260808087015190915282822084861615881b8086039190915260a0870151905282822083861615881b8086039190915260c0870151905282822090851615871b8085039190915260e0860151905281812061010080861615881b80860392909252860151905281812061020080861615881b80860392909252610120870151909152828220610400861615881b808603919091526101408701519052828220610800861615881b808603919091526101608701519052828220611000861615881b808603919091526101808701519052828220612000861615881b808603919091526101a08701519052828220614000861615881b808603919091526101c08701519052828220618000861615881b808603919091526101e0870151905282822062010000861615881b8086039190915290860151905281812062020000851615871b80850391909152610220860151905281812062040000851615871b80850391909152610240860151905281812062080000851615871b80850391909152610260860151905281812062100000851615871b80850391909152610280860151905281812062200000851615871b808503919091526102a0860151905281812062400000851615871b808503919091526102c0860151905281812062800000851615871b808503919091526102e086015190528181206301000000851615871b8085039190915261030086015190528181206302000000851615871b8085039190915261032086015190528181206304000000851615871b8085039190915261034086015190528181206308000000851615871b8085039190915261036086015190528181206310000000851615871b8085039190915261038086015190528181206320000000851615871b808503919091526103a086015190528181206340000000851615871b808503919091526103c0860151905281812063800000009094161590951b91829003929092526103e090920151909152902090565b6060613ada838360006140c2565b6000806000846001600160a01b0316846040516140379190614a24565b6000604051808303816000865af19150503d8060008114614074576040519150601f19603f3d011682016040523d82523d6000602084013e614079565b606091505b50915091508180156140a35750805115806140a35750808060200190518101906140a391906145ac565b80156140b957506000856001600160a01b03163b115b95945050505050565b6060814710156140e75760405163cd78605960e01b8152306004820152602401610707565b600080856001600160a01b031684866040516141039190614a24565b60006040518083038185875af1925050503d8060008114614140576040519150601f19603f3d011682016040523d82523d6000602084013e614145565b606091505b509150915061415586838361415f565b9695505050505050565b6060826141745761416f826141bb565b611f16565b815115801561418b57506001600160a01b0384163b155b156141b457604051639996b31560e01b81526001600160a01b0385166004820152602401610707565b5080611f16565b8051156141cb5780518082602001fd5b604051630a12f52160e11b815260040160405180910390fd5b8260208101928215614212579160200282015b828111156142125782518255916020019190600101906141f7565b50610bbc92915061423e565b6040518060400160405280614231614253565b8152602001600081525090565b5b80821115610bbc576000815560010161423f565b6040518061040001604052806020906020820280368337509192915050565b6000806020838503121561428557600080fd5b82356001600160401b038082111561429c57600080fd5b818501915085601f8301126142b057600080fd5b8135818111156142bf57600080fd5b8660208260071b85010111156142d457600080fd5b60209290920196919550909350505050565b6000608082840312156142f857600080fd5b50919050565b60006080828403121561431057600080fd5b613ada83836142e6565b6001600160a01b0381168114610c3657600080fd5b6000806000806080858703121561434557600080fd5b8435935060208501356143578161431a565b925060408501359150606085013561436e8161431a565b939692955090935050565b60006020828403121561438b57600080fd5b8135611f168161431a565b6001600160401b038416815260208082018490528251610460830191906000604085015b838210156143d85782518152918301916001919091019083016143ba565b505050506020830151610440830152949350505050565b60006104a082840312156142f857600080fd5b6000806020838503121561441557600080fd5b82356001600160401b038082111561442c57600080fd5b818501915085601f83011261444057600080fd5b81358181111561444f57600080fd5b8660206104a0830285010111156142d457600080fd5b634e487b7160e01b600052602160045260246000fd5b60028110610c3657634e487b7160e01b600052602160045260246000fd5b602081016144a68361447b565b91905290565b634e487b7160e01b600052603260045260246000fd5b6000602082840312156144d457600080fd5b813563ffffffff81168114611f1657600080fd5b6000602082840312156144fa57600080fd5b8151611f168161431a565b634e487b7160e01b600052601160045260246000fd5b80820180821115613add57613add614505565b6001600160401b0381168114610c3657600080fd5b60006020828403121561455557600080fd5b8135611f168161452e565b813561456b8161452e565b6001600160401b0381166001600160401b031983541617825550602082013560018201555050565b6000602082840312156145a557600080fd5b5051919050565b6000602082840312156145be57600080fd5b81518015158114611f1657600080fd5b60006001600160401b038083168181036145ea576145ea614505565b6001019392505050565b81810381811115613add57613add614505565b60005b8381101561462257818101518382015260200161460a565b50506000910152565b60008151808452614643816020860160208601614607565b601f01601f19169290920160200192915050565b600060018060a01b03808a168352886020840152808816604084015286606084015285608084015280851660a08401525060e060c083015261469c60e083018461462b565b9998505050505050505050565b634e487b7160e01b600052600160045260246000fd5b86815260018060a01b0386166020820152846040820152831515606082015260c0608082015260006146f460c083018561462b565b82810360a084015261469c818561462b565b63ffffffff81811683821602808216919082811461472657614726614505565b505092915050565b828152604060208201526000614747604083018461462b565b949350505050565b6001600160a01b0388811682528781166020830152861660408201526060810185905263ffffffff8416608082015260a0810183905260e060c0820181905260009061469c9083018461462b565b634e487b7160e01b600052604160045260246000fd5b6000602082840312156147c557600080fd5b81516001600160401b03808211156147dc57600080fd5b818401915084601f8301126147f057600080fd5b8151818111156148025761480261479d565b604051601f8201601f19908116603f0116810190838211818310171561482a5761482a61479d565b8160405282815287602084870101111561484357600080fd5b614854836020830160208801614607565b979650505050505050565b6001600160a01b038981168252602082018990526040820188905286811660608301528516608082015263ffffffff841660a082015260c0810183905261010060e082018190526000906148b58382018561462b565b9b9a5050505050505050505050565b6001600160a01b03858116825284166020820152604081018390526080606082018190526000906141559083018461462b565b6001600160a01b03831681526040602082018190526000906147479083018461462b565b60006001820161492d5761492d614505565b5060010190565b600181815b8085111561496f57816000190482111561495557614955614505565b8085161561496257918102915b93841c9390800290614939565b509250929050565b60008261498657506001613add565b8161499357506000613add565b81600181146149a957600281146149b3576149cf565b6001915050613add565b60ff8411156149c4576149c4614505565b50506001821b613add565b5060208310610133831016604e8410600b84101617156149f2575081810a613add565b6149fc8383614934565b8060001904821115614a1057614a10614505565b029392505050565b6000613ada8383614977565b60008251614a36818460208701614607565b919091019291505056fea26469706673582212203d5815f3add91460fdaeab1d5525f6b8a698fbee6a373cd1d5222898113ce67564736f6c63430008170033a2646970667358221220eed55f78f3a9999a18b01b6fccdb08da3f25bda654db9d128144760e2d67610464736f6c63430008170033",
			"deployedBytecode": "0x608060405234801561001057600080fd5b50600436106100575760003560e01c806303c85ea31461005c5780631213036614610081578063c39ec12414610094578063c86719b7146100c7578063f434c914146100fb575b600080fd5b610064610122565b6040516001600160a01b0390911681526020015b60405180910390f35b61006461008f3660046102d7565b6101bb565b6100b76100a23660046102f9565b60006020819052908152604090205460ff1681565b6040519015158152602001610078565b6100ee7f000000000000000000000000000000000000000000000000000000000000000081565b604051610078919061034a565b6100647f0000000000000000000000001e2e8562b635fe19978640c784e47865a83d660581565b6000466000198101610149577372ce9c846789fdb6fc1f34ac4ad25dd9ef7031ef91505090565b61a4b1810361016d57735288c571fd7ad117bea99bf60fe0846c4e84f93391505090565b62aa36a781036101925773ce18836b233c83325cc8848ca4487e94c628826491505090565b62066eee81036101b757739fdd1c4e4aa24eec1d913fabea925594a20d43c791505090565b5090565b6040516bffffffffffffffffffffffff193360601b16602082015260348101829052600090605401604051602081830303815290604052805190602001209150817f000000000000000000000000cd8c4da77dfb15c05486d3f71ee4c2c0dfdbc94e7f000000000000000000000000792b79adb4aa06eddabd6ddef5ee06dcb946f4367f0000000000000000000000001e2e8562b635fe19978640c784e47865a83d66056000876000604051610270906102ca565b61027f9695949392919061035d565b8190604051809103906000f590508015801561029f573d6000803e3d6000fd5b506001600160a01b0381166000908152602081905260409020805460ff191660011790559392505050565b614ed3806103a783390190565b600080604083850312156102ea57600080fd5b50508035926020909101359150565b60006020828403121561030b57600080fd5b81356001600160a01b038116811461032257600080fd5b9392505050565b6002811061034757634e487b7160e01b600052602160045260246000fd5b50565b6020810161035783610329565b91905290565b6001600160a01b03878116825286811660208301528581166040830152841660608201526080810183905260c0810161039583610329565b8260a083015297965050505050505056fe6101c06040523480156200001257600080fd5b5060405162004ed338038062004ed3833981016040819052620000359162000216565b6001600160a01b0380851660805280871660c05280861660e0528690869086908690869086908316156200006a57826200006c565b305b6001600160a01b0316610120526101408290523361010052806001811115620000995762000099620002a1565b60a0816001811115620000b057620000b0620002a1565b90525050505050505060004690506001811480620000d0575062aa36a781145b15620001245760006101605260018114620001065773aae29b0366299461418f5324a79afc425be5ae216101a081905262000122565b734dbd4fc535ac27206064b68ffcf827b0a60bab3f6101a08190525b505b61a4b181148062000137575062066eee81145b1562000144576001610160525b6101605160018111156200015c576200015c620002a1565b6000036200017d5760405163f21c9f0760e01b815260040160405180910390fd5b336001600160a01b03166303c85ea36040518163ffffffff1660e01b8152600401602060405180830381865afa158015620001bc573d6000803e3d6000fd5b505050506040513d601f19601f82011682018060405250810190620001e29190620002b7565b6001600160a01b03166101805250620002de95505050505050565b6001600160a01b03811681146200021357600080fd5b50565b60008060008060008060c087890312156200023057600080fd5b86516200023d81620001fd565b60208801519096506200025081620001fd565b60408801519095506200026381620001fd565b60608801519094506200027681620001fd565b608088015160a08901519194509250600281106200029357600080fd5b809150509295509295509295565b634e487b7160e01b600052602160045260246000fd5b600060208284031215620002ca57600080fd5b8151620002d781620001fd565b9392505050565b60805160a05160c05160e05161010051610120516101405161016051610180516101a051614a766200045d600039600081816103b901528181611d800152818161348501526136fe01526000818161053c0152818161356f015281816135e20152818161381901526138b2015260008181610508015281816114d40152611d470152600081816102200152818161080b0152818161088801528181610a2501528181610eae01528181610f5701528181611633015281816116f801528181611775015281816119f601528181611aaf01528181611bb10152611cd901526000818161038501528181611eec01528181611f34015281816136140152818161372e015281816138e1015261397a0152600061049301526000818161016d0152610a4e0152600081816103510152818161077c01528181610ed40152818161166e0152611a250152600081816104c701528181610bc401528181610e5001526110690152600081816105fc0152818161121401526112bd0152614a766000f3fe60806040526004361061014f5760003560e01c8063b1012368116100b6578063c6525f2c1161006f578063c6525f2c146104b5578063c86719b7146104f6578063defbb6971461052a578063e7f82c751461055e578063ed0e26b91461058b578063f434c914146105ea57600080fd5b8063b1012368146103a7578063b59ef50f146103db578063b71c1179146103fb578063bf557aee1461040e578063c185412914610461578063c1b8411a1461048157600080fd5b806369ce22331161010857806369ce22331461026557806369d31fdd146102855780636dfa7268146102985780637de6fba2146102c757806388bc2ef31461033f578063ad42938b1461037357600080fd5b80631d831d5c1461015b5780632241dc52146101ac57806338eb2044146101ce578063551ebbf0146101ee57806356539f391461020e57806361c864171461025057600080fd5b3661015657005b600080fd5b34801561016757600080fd5b5061018f7f000000000000000000000000000000000000000000000000000000000000000081565b6040516001600160a01b0390911681526020015b60405180910390f35b3480156101b857600080fd5b506101cc6101c7366004614272565b61061e565b005b3480156101da57600080fd5b506101cc6101e93660046142fe565b610656565b3480156101fa57600080fd5b506101cc61020936600461432f565b6109ef565b34801561021a57600080fd5b506102427f000000000000000000000000000000000000000000000000000000000000000081565b6040519081526020016101a3565b34801561025c57600080fd5b50610242610b6e565b34801561027157600080fd5b506101cc610280366004614379565b610bc0565b6101cc6102933660046142fe565b610c39565b3480156102a457600080fd5b506102b86102b3366004614379565b610daa565b6040516101a393929190614396565b3480156102d357600080fd5b506103156102e2366004614379565b6003602052600090815260409020805460019091015463ffffffff82169164010000000090046001600160a01b03169083565b6040805163ffffffff90941684526001600160a01b039092166020840152908201526060016101a3565b34801561034b57600080fd5b5061018f7f000000000000000000000000000000000000000000000000000000000000000081565b34801561037f57600080fd5b5061018f7f000000000000000000000000000000000000000000000000000000000000000081565b3480156103b357600080fd5b5061018f7f000000000000000000000000000000000000000000000000000000000000000081565b3480156103e757600080fd5b506101cc6103f63660046143ef565b610e14565b6101cc610409366004614379565b6110e8565b34801561041a57600080fd5b50610451610429366004614379565b6001600160a01b03908116600090815260036020526040902054640100000000900416151590565b60405190151581526020016101a3565b34801561046d57600080fd5b506101cc61047c366004614402565b611196565b34801561048d57600080fd5b5061018f7f000000000000000000000000000000000000000000000000000000000000000081565b3480156104c157600080fd5b506104e97f000000000000000000000000000000000000000000000000000000000000000081565b6040516101a39190614499565b34801561050257600080fd5b506104e97f000000000000000000000000000000000000000000000000000000000000000081565b34801561053657600080fd5b5061018f7f000000000000000000000000000000000000000000000000000000000000000081565b34801561056a57600080fd5b50610242610579366004614379565b60026020526000908152604090205481565b34801561059757600080fd5b506105cb6105a6366004614379565b600160208190526000918252604090912080549101546001600160401b039091169082565b604080516001600160401b0390931683526020830191909152016101a3565b3480156105f657600080fd5b5061018f7f000000000000000000000000000000000000000000000000000000000000000081565b60005b818110156106515761064983838381811061063e5761063e6144ac565b905060800201610656565b600101610621565b505050565b60006106656020830183614379565b9050600061eeee6106796020850185614379565b6001600160a01b03161490508080156106ac575061eeee6106a06060850160408601614379565b6001600160a01b031614155b80156106d1575060006106c56060850160408601614379565b6001600160a01b031614155b15610710576106e66060840160408501614379565b604051630a0a3b6b60e31b81526001600160a01b0390911660048201526024015b60405180910390fd5b62030d4061072460408501602086016144c2565b63ffffffff16108015610735575080155b156107775762030d4061074e60408501602086016144c2565b604051634f3dbeb360e11b815263ffffffff928316600482015291166024820152604401610707565b6108ae7f00000000000000000000000000000000000000000000000000000000000000006001600160a01b031663293c49996040518163ffffffff1660e01b8152600401602060405180830381865afa1580156107d8573d6000803e3d6000fd5b505050506040513d601f19601f820116820180604052508101906107fc91906144e8565b6040516331a9108f60e11b81527f000000000000000000000000000000000000000000000000000000000000000060048201526001600160a01b039190911690636352211e90602401602060405180830381865afa158015610862573d6000803e3d6000fd5b505050506040513d601f19601f8201168201806040525081019061088691906144e8565b7f0000000000000000000000000000000000000000000000000000000000000000601c6111ca565b60006108c06060850160408601614379565b6001600160a01b03161480156108f057506001600160a01b03821660009081526020819052604090206001015415155b1561094b576001600160a01b0380831660009081526003602090815260408083208151606081018352815463ffffffff811682526401000000009004909516928501929092526001909101549083015261094b91849061134e565b604051806060016040528084602001602081019061096991906144c2565b63ffffffff1681526020016109846060860160408701614379565b6001600160a01b0390811682526060909501356020918201529284166000908152600384526040908190208251815495840151909616640100000000026001600160c01b031990951663ffffffff909616959095179390931784559091015160019092019190915550565b6001600160a01b038316610a16576040516309a9c30b60e41b815260040160405180910390fd5b60405163ea78803f60e01b81527f000000000000000000000000000000000000000000000000000000000000000060048201526000907f00000000000000000000000000000000000000000000000000000000000000006001600160a01b03169063ea78803f90602401602060405180830381865afa158015610a9d573d6000803e3d6000fd5b505050506040513d601f19601f82011682018060405250810190610ac191906144e8565b90506001600160a01b038116610aea57604051635a33845560e01b815260040160405180910390fd5b6001600160a01b03828116600090815260036020526040902054640100000000900416610b355760405163393e175160e01b81526001600160a01b0383166004820152602401610707565b610b4a6001600160a01b0382163330886115bd565b6000610b5882878587611624565b9050610b6686848388611817565b505050505050565b6000466000198101610b835761a4b191505090565b61a4b18103610b9457600191505090565b62aa36a78103610ba85762066eee91505090565b62066eee8103610bbc5762aa36a791505090565b5090565b60007f00000000000000000000000000000000000000000000000000000000000000006001811115610bf457610bf4614465565b14610c125760405163218a9a2d60e11b815260040160405180910390fd5b6001600160a01b038116600090815260026020526040902054610c36908290611990565b50565b610c4233611d42565b610c5f57604051630439dbd360e51b815260040160405180910390fd5b60208101803590600290600090610c769085614379565b6001600160a01b03166001600160a01b031681526020019081526020016000206000828254610ca5919061451b565b90915550600190506000610cbc6020840184614379565b6001600160a01b0316815260208101919091526040908101600020546001600160401b031690610cf29060608401908401614543565b6001600160401b03161115610c36576040810160016000610d166020850185614379565b6001600160a01b031681526020810191909152604001600020610d398282614560565b50610d4990506020820182614379565b6001600160a01b03167f551b6b99b4c48e3265d2885ab0d93779be2402293261e074f7bf74b2c8f45b6f610d836060840160408501614543565b604080516001600160401b039092168252606085013560208301520160405180910390a250565b6000602081815291815260409081902080546001820154835161044081018086526001600160401b0390931695919490926002850192849283019184919082845b815481526020019060010190808311610deb575050509183525050602091820154910152905083565b610e4c6060820135610e296020840184614379565b6080840135610e3e6060860160408701614379565b602086013560a08701611f6f565b60017f00000000000000000000000000000000000000000000000000000000000000006001811115610e8057610e80614465565b03610e9f57610e9f610e956020830183614379565b6080830135611990565b604051632eec7b5560e11b81527f000000000000000000000000000000000000000000000000000000000000000060048201527f00000000000000000000000000000000000000000000000000000000000000006001600160a01b031690635dd8f6aa90602401602060405180830381865afa158015610f23573d6000803e3d6000fd5b505050506040513d601f19601f82011682018060405250810190610f4791906144e8565b6001600160a01b031663c7fb92de7f000000000000000000000000000000000000000000000000000000000000000060608401803590610f8a9060408701614379565b6040516001600160e01b031960e086901b168152600481019390935260248301919091526001600160a01b0316604482015260a06064820152600060a48201819052608482015260c4016020604051808303816000875af1158015610ff3573d6000803e3d6000fd5b505050506040513d601f19601f820116820180604052508101906110179190614593565b507f487194902d206a126abe9f23a4e2b78d1600ed8034b1423290a13edd6ebc7d146110496060830160408401614379565b6110566020840184614379565b60608401356080850135602086013560017f0000000000000000000000000000000000000000000000000000000000000000600181111561109957611099614465565b146110a55760006110a8565b60015b604080516001600160a01b0397881681529690951660208701529385019290925260608401526080830152151560a082015260c00160405180910390a150565b6001600160a01b0380821660008181526003602090815260408083208151606081018352815463ffffffff811682526401000000009004909616868401526001908101548683018190529484529183905290912001541015611187576040808201516001600160a01b0384166000908152602081905282902060010154915163091df9e560e31b81526107079290600401918252602082015260400190565b61119234838361134e565b5050565b60005b81811015610651576111c28383838181106111b6576111b66144ac565b90506104a00201610e14565b600101611199565b336001600160a01b0384168114801590611281575060405163c161c93f60e01b81526001600160a01b038281166004830152858116602483015260448201859052606482018490527f0000000000000000000000000000000000000000000000000000000000000000169063c161c93f90608401602060405180830381865afa15801561125b573d6000803e3d6000fd5b505050506040513d601f19601f8201168201806040525081019061127f91906145ac565b155b801561132a575060405163c161c93f60e01b81526001600160a01b038281166004830152858116602483015260006044830152606482018490527f0000000000000000000000000000000000000000000000000000000000000000169063c161c93f90608401602060405180830381865afa158015611304573d6000803e3d6000fd5b505050506040513d601f19601f8201168201806040525081019061132891906145ac565b155b156113485760405163075fd2b160e01b815260040160405180910390fd5b50505050565b6001600160a01b038216600090815260208190526040812060018101805490839055815490929190829061138a906001600160401b03166145ce565b91906101000a8154816001600160401b0302191690836001600160401b031602179055905060006001600160a01b031683602001516001600160a01b0316036113f15760405163393e175160e01b81526001600160a01b0385166004820152602401610707565b6000604051806060016040528085602001516001600160a01b031681526020018481526020016040518060400160405280856001600160401b031681526020016114606000808b6001600160a01b03166001600160a01b0316815260200190815260200160002060020161209f565b905290526040805182516001600160a01b031660248201526020808401516044830152929091015180516001600160401b0316606483015290910151608482015260a40160408051601f198184030181529190526020810180516001600160e01b03166369d31fdd60e01b179052905060007f0000000000000000000000000000000000000000000000000000000000000000600181111561150457611504614465565b0361151b576115168587858488613455565b611527565b611527858483876137c1565b6001600160a01b038516600081815260208190526040902061154b9060020161209f565b6001600160a01b0387166000908152602081905260409020602201547f3e069c1f498cba23d7d2b74b84311469e8da6e527cade62061d642c61b64e0de90611595906001906145f4565b604080519182526001600160401b0387166020830152015b60405180910390a3505050505050565b6040516001600160a01b0384811660248301528381166044830152606482018390526113489186918216906323b872dd906084015b604051602081830303815290604052915060e01b6020820180516001600160e01b0383818316178352505050506139e7565b604051630862026560e41b81527f000000000000000000000000000000000000000000000000000000000000000060048201526001600160a01b03838116602483015260009182917f00000000000000000000000000000000000000000000000000000000000000001690638620265090604401602060405180830381865afa1580156116b5573d6000803e3d6000fd5b505050506040513d601f19601f820116820180604052508101906116d991906144e8565b90506001600160a01b03811661173357604051630c9ae01360e01b81527f000000000000000000000000000000000000000000000000000000000000000060048201526001600160a01b0385166024820152604401610707565b600061173f8530613a4a565b60408051602081018252600081529051635db90a7f60e11b81529192506001600160a01b0384169163bb7214fe916117a59130917f0000000000000000000000000000000000000000000000000000000000000000918b918d918c918691600401614657565b6020604051808303816000875af11580156117c4573d6000803e3d6000fd5b505050506040513d601f19601f820116820180604052508101906117e89190614593565b9250806117f58630613a4a565b6117ff91906145f4565b831461180d5761180d6146a9565b5050949350505050565b6000611824858484613ae3565b6001600160a01b03851660009081526020818152604080832081516104408101808452959650939461188f9487949093600290930192849290830191849182845b81548152602001906001019080831161186557505050918352505060209182015491015290613b28565b6001600160a01b038616600090815260208181526040909120825192935083926002909101916118c09183916141e4565b50602091820151908201556001600160a01b0386166000908152908190526040812060010180548692906118f590849061451b565b92505081905550846001600160a01b0316836001600160a01b03167f7b58dbb78e7edc690b0688a53dea0c443d630c4a5db66c3c47d4ff2044c97728846001856020015161194391906145f4565b6001600160a01b038a1660009081526020819052604090206119679060020161209f565b60408051938452602084019290925290820152606081018a90526080810188905260a0016115ad565b6001600160a01b038216600090815260026020526040902054808211156119ca57604051632858f9ab60e11b815260040160405180910390fd5b6001600160a01b03838116600081815260026020526040808220868603905551630862026560e41b81527f000000000000000000000000000000000000000000000000000000000000000060048201526024810192909252917f00000000000000000000000000000000000000000000000000000000000000001690638620265090604401602060405180830381865afa158015611a6c573d6000803e3d6000fd5b505050506040513d601f19601f82011682018060405250810190611a9091906144e8565b90506001600160a01b038116611aea57604051630c9ae01360e01b81527f000000000000000000000000000000000000000000000000000000000000000060048201526001600160a01b0385166024820152604401610707565b6001600160a01b03841661eeee14611c9a576040516370a0823160e01b81523060048201526000906001600160a01b038616906370a0823190602401602060405180830381865afa158015611b43573d6000803e3d6000fd5b505050506040513d601f19601f82011682018060405250810190611b679190614593565b9050611b74858386613c2e565b60408051602080820183526000808352835191820184528082529251639e6eec0560e01b81526001600160a01b03861693639e6eec0593611be1937f0000000000000000000000000000000000000000000000000000000000000000938c938c93909290916004016146bf565b600060405180830381600087803b158015611bfb57600080fd5b505af1158015611c0f573d6000803e3d6000fd5b505050508381611c1f91906145f4565b6040516370a0823160e01b81523060048201526001600160a01b038716906370a0823190602401602060405180830381865afa158015611c63573d6000803e3d6000fd5b505050506040513d601f19601f82011682018060405250810190611c879190614593565b14611c9457611c946146a9565b50611348565b60408051602080820183526000808352835191820184528082529251639e6eec0560e01b81526001600160a01b03851693639e6eec05938893611d0a937f0000000000000000000000000000000000000000000000000000000000000000938c93879391929091906004016146bf565b6000604051808303818588803b158015611d2357600080fd5b505af1158015611d37573d6000803e3d6000fd5b505050505050505050565b6000807f00000000000000000000000000000000000000000000000000000000000000006001811115611d7757611d77614465565b03611f1d5760007f00000000000000000000000000000000000000000000000000000000000000006001600160a01b031663e78cea926040518163ffffffff1660e01b8152600401602060405180830381865afa158015611ddc573d6000803e3d6000fd5b505050506040513d601f19601f82011682018060405250810190611e0091906144e8565b9050806001600160a01b0316836001600160a01b0316148015611f165750806001600160a01b031663ab5d89436040518163ffffffff1660e01b8152600401602060405180830381865afa158015611e5c573d6000803e3d6000fd5b505050506040513d601f19601f82011682018060405250810190611e8091906144e8565b6001600160a01b03166380648b026040518163ffffffff1660e01b8152600401602060405180830381865afa158015611ebd573d6000803e3d6000fd5b505050506040513d601f19601f82011682018060405250810190611ee191906144e8565b6001600160a01b03167f00000000000000000000000000000000000000000000000000000000000000006001600160a01b0316145b9392505050565b7311110000000000000000000000000000000011117f0000000000000000000000000000000000000000000000000000000000000000016001600160a01b0316826001600160a01b0316149050919050565b6001600160a01b0385166000908152600460209081526040808320600886901c8452909152902054600160ff84161b1615611fc05760405163ed9bdd0760e01b815260048101839052602401610707565b6001600160a01b0385166000908152600460209081526040808320600886901c845290915281208054600160ff86161b17905561202f612001888787613ae3565b604080516104008181019092529085906020908390839080828437600092019190915250879150613cbe9050565b6001600160a01b038716600090815260016020819052604090912001549091508114612096576001600160a01b0386166000908152600160208190526040918290200154905163286f87c960e21b8152600481019190915260248101829052604401610707565b50505050505050565b60208101546000908082036120d657507f27ae5ba08d7291c96c8cbddcc148bf48a6d68c7974b94356f53754ef6171d75792915050565b60008360018316156120f85780546000526000602052604060002093506129ab565b600283161561213d5760018101546000527fad3228b676f7d3cd4284a5443f17f1962b36e491b30a40b2405849e597ba5fb560205260406000209350600191506129ab565b60048316156121825760028101546000527fb4c11951957c6f8f642c4af61cd6b24640fec6dc7fc607ee8206a99e92410d3060205260406000209350600291506129ab565b60088316156121c75760038101546000527f21ddb9a356815c3fac1026b6dec5df3124afbadb485c9ba5a3e3398a04b7ba8560205260406000209350600391506129ab565b601083161561220c5760048101546000527fe58769b32a1beaf1ea27375a44095a0d1fb664ce2dd358e7fcbfb78c26a1934460205260406000209350600491506129ab565b60208316156122515760058101546000527f0eb01ebfc9ed27500cd4dfc979272d1f0913cc9f66540d7e8005811109e1cf2d60205260406000209350600591506129ab565b60408316156122965760068101546000527f887c22bd8750d34016ac3c66b5ff102dacdd73f6b014e710b51e8022af9a196860205260406000209350600691506129ab565b60808316156122db5760078101546000527fffd70157e48063fc33c97a050f7f640233bf646cc98d9524c6b92bcf3ab56f8360205260406000209350600791506129ab565b6101008316156123215760088101546000527f9867cc5f7f196b93bae1e27e6320742445d290f2263827498b54fec539f756af60205260406000209350600891506129ab565b6102008316156123675760098101546000527fcefad4e508c098b9a7e1d8feb19955fb02ba9675585078710969d3440f5054e060205260406000209350600991506129ab565b6104008316156123ad57600a8101546000527ff9dc3e7fe016e050eff260334f18a5d4fe391d82092319f5964f2e2eb7c1c3a560205260406000209350600a91506129ab565b6108008316156123f357600b8101546000527ff8b13a49e282f609c317a833fb8d976d11517c571d1221a265d25af778ecf89260205260406000209350600b91506129ab565b61100083161561243957600c8101546000527f3490c6ceeb450aecdc82e28293031d10c7d73bf85e57bf041a97360aa2c5d99c60205260406000209350600c91506129ab565b61200083161561247f57600d8101546000527fc1df82d9c4b87413eae2ef048f94b4d3554cea73d92b0f7af96e0271c691e2bb60205260406000209350600d91506129ab565b6140008316156124c557600e8101546000527f5c67add7c6caf302256adedf7ab114da0acfe870d449a3a489f781d659e8becc60205260406000209350600e91506129ab565b61800083161561250b57600f8101546000527fda7bce9f4e8618b6bd2f4132ce798cdc7a60e7e1460a7299e3c6342a579626d260205260406000209350600f91506129ab565b620100008316156125525760108101546000527f2733e50f526ec2fa19a22b31e8ed50f23cd1fdf94c9154ed3a7609a2f1ff981f60205260406000209350601091506129ab565b620200008316156125995760118101546000527fe1d3b5c807b281e4683cc6d6315cf95b9ade8641defcb32372f1c126e398ef7a60205260406000209350601191506129ab565b620400008316156125e05760128101546000527f5a2dce0a8a7f68bb74560f8f71837c2c2ebbcbf7fffb42ae1896f13f7c7479a060205260406000209350601291506129ab565b620800008316156126275760138101546000527fb46a28b6f55540f89444f63de0378e3d121be09e06cc9ded1c20e65876d36aa060205260406000209350601391506129ab565b6210000083161561266e5760148101546000527fc65e9645644786b620e2dd2ad648ddfcbf4a7e5b1a3a4ecfe7f64667a3f0b7e260205260406000209350601491506129ab565b622000008316156126b55760158101546000527ff4418588ed35a2458cffeb39b93d26f18d2ab13bdce6aee58e7b99359ec2dfd960205260406000209350601591506129ab565b624000008316156126fc5760168101546000527f5a9c16dc00d6ef18b7933a6f8dc65ccb55667138776f7dea101070dc8796e37760205260406000209350601691506129ab565b628000008316156127435760178101546000527f4df84f40ae0c8229d0d6069e5c8f39a7c299677a09d367fc7b05e3bc380ee65260205260406000209350601791506129ab565b630100000083161561278b5760188101546000527fcdc72595f74c7b1043d0e1ffbab734648c838dfb0527d971b602bc216c9619ef60205260406000209350601891506129ab565b63020000008316156127d35760198101546000527f0abf5ac974a1ed57f4050aa510dd9c74f508277b39d7973bb2dfccc5eeb0618d60205260406000209350601991506129ab565b630400000083161561281b57601a8101546000527fb8cd74046ff337f0a7bf2c8e03e10f642c1886798d71806ab1e888d9e5ee87d060205260406000209350601a91506129ab565b630800000083161561286357601b8101546000527f838c5655cb21c6cb83313b5a631175dff4963772cce9108188b34ac87c81c41e60205260406000209350601b91506129ab565b63100000008316156128ab57601c8101546000527f662ee4dd2dd7b2bc707961b1e646c4047669dcb6584f0d8d770daf5d7e7deb2e60205260406000209350601c91506129ab565b63200000008316156128f357601d8101546000527f388ab20e2573d171a88108e79d820e98f26c0b84aa8b2f4aa4968dbb818ea32260205260406000209350601d91506129ab565b634000000083161561293b57601e8101546000527f93237c50ba75ee485f4c22adf2f741400bdf8d6a9cc7df7ecae576221665d73560205260406000209350601e91506129ab565b638000000083161561298357601f8101546000527f8448818bb4ae4562849e949e17ac16e0be16688e156b5cf15e098c627c0056a960205260406000209350601f91506129ab565b7f27ae5ba08d7291c96c8cbddcc148bf48a6d68c7974b94356f53754ef6171d7579350602091505b601e821161344d576001821015612a09576002831680156129d757600182015460005284602052612a00565b846000527fad3228b676f7d3cd4284a5443f17f1962b36e491b30a40b2405849e597ba5fb56020525b50604060002093505b6002821015612a5f57600483168015612a2d57600282015460005284602052612a56565b846000527fb4c11951957c6f8f642c4af61cd6b24640fec6dc7fc607ee8206a99e92410d306020525b50604060002093505b6003821015612ab557600883168015612a8357600382015460005284602052612aac565b846000527f21ddb9a356815c3fac1026b6dec5df3124afbadb485c9ba5a3e3398a04b7ba856020525b50604060002093505b6004821015612b0b57601083168015612ad957600482015460005284602052612b02565b846000527fe58769b32a1beaf1ea27375a44095a0d1fb664ce2dd358e7fcbfb78c26a193446020525b50604060002093505b6005821015612b6157602083168015612b2f57600582015460005284602052612b58565b846000527f0eb01ebfc9ed27500cd4dfc979272d1f0913cc9f66540d7e8005811109e1cf2d6020525b50604060002093505b6006821015612bb757604083168015612b8557600682015460005284602052612bae565b846000527f887c22bd8750d34016ac3c66b5ff102dacdd73f6b014e710b51e8022af9a19686020525b50604060002093505b6007821015612c0d57608083168015612bdb57600782015460005284602052612c04565b846000527fffd70157e48063fc33c97a050f7f640233bf646cc98d9524c6b92bcf3ab56f836020525b50604060002093505b6008821015612c645761010083168015612c3257600882015460005284602052612c5b565b846000527f9867cc5f7f196b93bae1e27e6320742445d290f2263827498b54fec539f756af6020525b50604060002093505b6009821015612cbb5761020083168015612c8957600982015460005284602052612cb2565b846000527fcefad4e508c098b9a7e1d8feb19955fb02ba9675585078710969d3440f5054e06020525b50604060002093505b600a821015612d125761040083168015612ce057600a82015460005284602052612d09565b846000527ff9dc3e7fe016e050eff260334f18a5d4fe391d82092319f5964f2e2eb7c1c3a56020525b50604060002093505b600b821015612d695761080083168015612d3757600b82015460005284602052612d60565b846000527ff8b13a49e282f609c317a833fb8d976d11517c571d1221a265d25af778ecf8926020525b50604060002093505b600c821015612dc05761100083168015612d8e57600c82015460005284602052612db7565b846000527f3490c6ceeb450aecdc82e28293031d10c7d73bf85e57bf041a97360aa2c5d99c6020525b50604060002093505b600d821015612e175761200083168015612de557600d82015460005284602052612e0e565b846000527fc1df82d9c4b87413eae2ef048f94b4d3554cea73d92b0f7af96e0271c691e2bb6020525b50604060002093505b600e821015612e6e5761400083168015612e3c57600e82015460005284602052612e65565b846000527f5c67add7c6caf302256adedf7ab114da0acfe870d449a3a489f781d659e8becc6020525b50604060002093505b600f821015612ec55761800083168015612e9357600f82015460005284602052612ebc565b846000527fda7bce9f4e8618b6bd2f4132ce798cdc7a60e7e1460a7299e3c6342a579626d26020525b50604060002093505b6010821015612f1d576201000083168015612eeb57601082015460005284602052612f14565b846000527f2733e50f526ec2fa19a22b31e8ed50f23cd1fdf94c9154ed3a7609a2f1ff981f6020525b50604060002093505b6011821015612f75576202000083168015612f4357601182015460005284602052612f6c565b846000527fe1d3b5c807b281e4683cc6d6315cf95b9ade8641defcb32372f1c126e398ef7a6020525b50604060002093505b6012821015612fcd576204000083168015612f9b57601282015460005284602052612fc4565b846000527f5a2dce0a8a7f68bb74560f8f71837c2c2ebbcbf7fffb42ae1896f13f7c7479a06020525b50604060002093505b6013821015613025576208000083168015612ff35760138201546000528460205261301c565b846000527fb46a28b6f55540f89444f63de0378e3d121be09e06cc9ded1c20e65876d36aa06020525b50604060002093505b601482101561307d57621000008316801561304b57601482015460005284602052613074565b846000527fc65e9645644786b620e2dd2ad648ddfcbf4a7e5b1a3a4ecfe7f64667a3f0b7e26020525b50604060002093505b60158210156130d55762200000831680156130a3576015820154600052846020526130cc565b846000527ff4418588ed35a2458cffeb39b93d26f18d2ab13bdce6aee58e7b99359ec2dfd96020525b50604060002093505b601682101561312d5762400000831680156130fb57601682015460005284602052613124565b846000527f5a9c16dc00d6ef18b7933a6f8dc65ccb55667138776f7dea101070dc8796e3776020525b50604060002093505b60178210156131855762800000831680156131535760178201546000528460205261317c565b846000527f4df84f40ae0c8229d0d6069e5c8f39a7c299677a09d367fc7b05e3bc380ee6526020525b50604060002093505b60188210156131de576301000000831680156131ac576018820154600052846020526131d5565b846000527fcdc72595f74c7b1043d0e1ffbab734648c838dfb0527d971b602bc216c9619ef6020525b50604060002093505b6019821015613237576302000000831680156132055760198201546000528460205261322e565b846000527f0abf5ac974a1ed57f4050aa510dd9c74f508277b39d7973bb2dfccc5eeb0618d6020525b50604060002093505b601a8210156132905763040000008316801561325e57601a82015460005284602052613287565b846000527fb8cd74046ff337f0a7bf2c8e03e10f642c1886798d71806ab1e888d9e5ee87d06020525b50604060002093505b601b8210156132e9576308000000831680156132b757601b820154600052846020526132e0565b846000527f838c5655cb21c6cb83313b5a631175dff4963772cce9108188b34ac87c81c41e6020525b50604060002093505b601c8210156133425763100000008316801561331057601c82015460005284602052613339565b846000527f662ee4dd2dd7b2bc707961b1e646c4047669dcb6584f0d8d770daf5d7e7deb2e6020525b50604060002093505b601d82101561339b5763200000008316801561336957601d82015460005284602052613392565b846000527f388ab20e2573d171a88108e79d820e98f26c0b84aa8b2f4aa4968dbb818ea3226020525b50604060002093505b601e8210156133f4576340000000831680156133c257601e820154600052846020526133eb565b846000527f93237c50ba75ee485f4c22adf2f741400bdf8d6a9cc7df7ecae576221665d7356020525b50604060002093505b601f82101561344d5763800000008316801561341b57601f82015460005284602052613444565b846000527f8448818bb4ae4562849e949e17ac16e0be16688e156b5cf15e098c627c0056a96020525b50604060002093505b505050919050565b815160405163a66b327d60e01b81526004810191909152630bebc200602482015260009081906001600160a01b037f0000000000000000000000000000000000000000000000000000000000000000169063a66b327d90604401602060405180830381865afa1580156134cc573d6000803e3d6000fd5b505050506040513d601f19601f820116820180604052508101906134f09190614593565b90506000613505620493e0630bebc200614706565b6135159063ffffffff168361451b565b90508087101561353857604051636eb14fc360e11b815260040160405180910390fd5b6001600160a01b03881661eeee146136ce57604051635ed004ff60e11b81526001600160a01b03808a1660048301526135e0918a917f0000000000000000000000000000000000000000000000000000000000000000169063bda009fe90602401602060405180830381865afa1580156135b6573d6000803e3d6000fd5b505050506040513d601f19601f820116820180604052508101906135da91906144e8565b88613c2e565b7f00000000000000000000000000000000000000000000000000000000000000006001600160a01b0316634fb1a07b888a337f00000000000000000000000000000000000000000000000000000000000000008b620493e0630bebc2008a8e60405160200161365092919061472e565b6040516020818303038152906040526040518963ffffffff1660e01b8152600401613681979695949392919061474f565b60006040518083038185885af115801561369f573d6000803e3d6000fd5b50505050506040513d6000823e601f3d908101601f191682016040526136c891908101906147b3565b506136d2565b8592505b866136dd828561451b565b11156136fc57604051636eb14fc360e11b815260040160405180910390fd5b7f00000000000000000000000000000000000000000000000000000000000000006001600160a01b031663679b6ded887f000000000000000000000000000000000000000000000000000000000000000086863333620493e0630bebc2008e6040518a63ffffffff1660e01b815260040161377e98979695949392919061485f565b60206040518083038185885af115801561379c573d6000803e3d6000fd5b50505050506040513d601f19601f82011682018060405250810190611d379190614593565b600034156137e2576040516352864b0160e11b815260040160405180910390fd5b6001600160a01b03851661eeee1461395957604051635ed004ff60e11b81526001600160a01b03808716600483015261388a9187917f0000000000000000000000000000000000000000000000000000000000000000169063bda009fe90602401602060405180830381865afa158015613860573d6000803e3d6000fd5b505050506040513d601f19601f8201168201806040525081019061388491906144e8565b86613c2e565b6020808301516040805192830181526000835251637b3a3c8b60e01b81526001600160a01b037f00000000000000000000000000000000000000000000000000000000000000001692637b3a3c8b9261390c9290917f0000000000000000000000000000000000000000000000000000000000000000918a91906004016148c4565b6000604051808303816000875af115801561392b573d6000803e3d6000fd5b505050506040513d6000823e601f3d908101601f1916820160405261395391908101906147b3565b5061395c565b50825b6040516349460b4d60e11b815260649063928c169a9083906139a4907f00000000000000000000000000000000000000000000000000000000000000009088906004016148f7565b60206040518083038185885af11580156139c2573d6000803e3d6000fd5b50505050506040513d601f19601f82011682018060405250810190610b669190614593565b60006139fc6001600160a01b0384168361400c565b90508051600014158015613a21575080806020019051810190613a1f91906145ac565b155b1561065157604051635274afe760e01b81526001600160a01b0384166004820152602401610707565b600061eeed196001600160a01b03841601613a7057506001600160a01b03811631613add565b6040516370a0823160e01b81526001600160a01b0383811660048301528416906370a0823190602401602060405180830381865afa158015613ab6573d6000803e3d6000fd5b505050506040513d601f19601f82011682018060405250810190613ada9190614593565b90505b92915050565b60408051602081018590529081018390526001600160a01b03821660608201526000906080016040516020818303038152906040528051906020012090509392505050565b613b3061421e565b6000836020018051613b419061491b565b9081905290506001613b5560206002614a18565b613b5f91906145f4565b811115613b7f57604051638eab04bb60e01b815260040160405180910390fd5b60005b6020811015613c145781600116600103613bbb57845184908260208110613bab57613bab6144ac565b602002015250839150613add9050565b84518160208110613bce57613bce6144ac565b602002015184604051602001613bee929190918252602082015260400190565b60408051601f1981840301815291905280516020909101209350600191821c9101613b82565b50604051638eab04bb60e01b815260040160405180910390fd5b604080516001600160a01b038416602482015260448082018490528251808303909101815260649091019091526020810180516001600160e01b031663095ea7b360e01b179052613c7f848261401a565b611348576040516001600160a01b03848116602483015260006044830152613cb491869182169063095ea7b3906064016115f2565b61134884826139e7565b6020600582811b8216948552835194820394909452604060008181206002851615871b808503919091528386015190528181206004851615871b808503919091528286015190528181206008851615871b80850391909152606086015190528181206010851615871b8085039190915260808087015190915282822084861615881b8086039190915260a0870151905282822083861615881b8086039190915260c0870151905282822090851615871b8085039190915260e0860151905281812061010080861615881b80860392909252860151905281812061020080861615881b80860392909252610120870151909152828220610400861615881b808603919091526101408701519052828220610800861615881b808603919091526101608701519052828220611000861615881b808603919091526101808701519052828220612000861615881b808603919091526101a08701519052828220614000861615881b808603919091526101c08701519052828220618000861615881b808603919091526101e0870151905282822062010000861615881b8086039190915290860151905281812062020000851615871b80850391909152610220860151905281812062040000851615871b80850391909152610240860151905281812062080000851615871b80850391909152610260860151905281812062100000851615871b80850391909152610280860151905281812062200000851615871b808503919091526102a0860151905281812062400000851615871b808503919091526102c0860151905281812062800000851615871b808503919091526102e086015190528181206301000000851615871b8085039190915261030086015190528181206302000000851615871b8085039190915261032086015190528181206304000000851615871b8085039190915261034086015190528181206308000000851615871b8085039190915261036086015190528181206310000000851615871b8085039190915261038086015190528181206320000000851615871b808503919091526103a086015190528181206340000000851615871b808503919091526103c0860151905281812063800000009094161590951b91829003929092526103e090920151909152902090565b6060613ada838360006140c2565b6000806000846001600160a01b0316846040516140379190614a24565b6000604051808303816000865af19150503d8060008114614074576040519150601f19603f3d011682016040523d82523d6000602084013e614079565b606091505b50915091508180156140a35750805115806140a35750808060200190518101906140a391906145ac565b80156140b957506000856001600160a01b03163b115b95945050505050565b6060814710156140e75760405163cd78605960e01b8152306004820152602401610707565b600080856001600160a01b031684866040516141039190614a24565b60006040518083038185875af1925050503d8060008114614140576040519150601f19603f3d011682016040523d82523d6000602084013e614145565b606091505b509150915061415586838361415f565b9695505050505050565b6060826141745761416f826141bb565b611f16565b815115801561418b57506001600160a01b0384163b155b156141b457604051639996b31560e01b81526001600160a01b0385166004820152602401610707565b5080611f16565b8051156141cb5780518082602001fd5b604051630a12f52160e11b815260040160405180910390fd5b8260208101928215614212579160200282015b828111156142125782518255916020019190600101906141f7565b50610bbc92915061423e565b6040518060400160405280614231614253565b8152602001600081525090565b5b80821115610bbc576000815560010161423f565b6040518061040001604052806020906020820280368337509192915050565b6000806020838503121561428557600080fd5b82356001600160401b038082111561429c57600080fd5b818501915085601f8301126142b057600080fd5b8135818111156142bf57600080fd5b8660208260071b85010111156142d457600080fd5b60209290920196919550909350505050565b6000608082840312156142f857600080fd5b50919050565b60006080828403121561431057600080fd5b613ada83836142e6565b6001600160a01b0381168114610c3657600080fd5b6000806000806080858703121561434557600080fd5b8435935060208501356143578161431a565b925060408501359150606085013561436e8161431a565b939692955090935050565b60006020828403121561438b57600080fd5b8135611f168161431a565b6001600160401b038416815260208082018490528251610460830191906000604085015b838210156143d85782518152918301916001919091019083016143ba565b505050506020830151610440830152949350505050565b60006104a082840312156142f857600080fd5b6000806020838503121561441557600080fd5b82356001600160401b038082111561442c57600080fd5b818501915085601f83011261444057600080fd5b81358181111561444f57600080fd5b8660206104a0830285010111156142d457600080fd5b634e487b7160e01b600052602160045260246000fd5b60028110610c3657634e487b7160e01b600052602160045260246000fd5b602081016144a68361447b565b91905290565b634e487b7160e01b600052603260045260246000fd5b6000602082840312156144d457600080fd5b813563ffffffff81168114611f1657600080fd5b6000602082840312156144fa57600080fd5b8151611f168161431a565b634e487b7160e01b600052601160045260246000fd5b80820180821115613add57613add614505565b6001600160401b0381168114610c3657600080fd5b60006020828403121561455557600080fd5b8135611f168161452e565b813561456b8161452e565b6001600160401b0381166001600160401b031983541617825550602082013560018201555050565b6000602082840312156145a557600080fd5b5051919050565b6000602082840312156145be57600080fd5b81518015158114611f1657600080fd5b60006001600160401b038083168181036145ea576145ea614505565b6001019392505050565b81810381811115613add57613add614505565b60005b8381101561462257818101518382015260200161460a565b50506000910152565b60008151808452614643816020860160208601614607565b601f01601f19169290920160200192915050565b600060018060a01b03808a168352886020840152808816604084015286606084015285608084015280851660a08401525060e060c083015261469c60e083018461462b565b9998505050505050505050565b634e487b7160e01b600052600160045260246000fd5b86815260018060a01b0386166020820152846040820152831515606082015260c0608082015260006146f460c083018561462b565b82810360a084015261469c818561462b565b63ffffffff81811683821602808216919082811461472657614726614505565b505092915050565b828152604060208201526000614747604083018461462b565b949350505050565b6001600160a01b0388811682528781166020830152861660408201526060810185905263ffffffff8416608082015260a0810183905260e060c0820181905260009061469c9083018461462b565b634e487b7160e01b600052604160045260246000fd5b6000602082840312156147c557600080fd5b81516001600160401b03808211156147dc57600080fd5b818401915084601f8301126147f057600080fd5b8151818111156148025761480261479d565b604051601f8201601f19908116603f0116810190838211818310171561482a5761482a61479d565b8160405282815287602084870101111561484357600080fd5b614854836020830160208801614607565b979650505050505050565b6001600160a01b038981168252602082018990526040820188905286811660608301528516608082015263ffffffff841660a082015260c0810183905261010060e082018190526000906148b58382018561462b565b9b9a5050505050505050505050565b6001600160a01b03858116825284166020820152604081018390526080606082018190526000906141559083018461462b565b6001600160a01b03831681526040602082018190526000906147479083018461462b565b60006001820161492d5761492d614505565b5060010190565b600181815b8085111561496f57816000190482111561495557614955614505565b8085161561496257918102915b93841c9390800290614939565b509250929050565b60008261498657506001613add565b8161499357506000613add565b81600181146149a957600281146149b3576149cf565b6001915050613add565b60ff8411156149c4576149c4614505565b50506001821b613add565b5060208310610133831016604e8410600b84101617156149f2575081810a613add565b6149fc8383614934565b8060001904821115614a1057614a10614505565b029392505050565b6000613ada8383614977565b60008251614a36818460208701614607565b919091019291505056fea26469706673582212203d5815f3add91460fdaeab1d5525f6b8a698fbee6a373cd1d5222898113ce67564736f6c63430008170033a2646970667358221220eed55f78f3a9999a18b01b6fccdb08da3f25bda654db9d128144760e2d67610464736f6c63430008170033",
			"devdoc": {
				"kind": "dev",
				"methods": {
					"createForSender(uint256,bytes32)": {
						"details": "Uses the sender address as the salt, which means the same sender must call this function on both chains.",
						"params": {
							"localProjectId": "The project's ID on the local chain.",
							"salt": "The salt to use for the `create2` address."
						},
						"returns": {
							"sucker": "The address of the new sucker."
						}
					},
					"gatewayRouter()": {
						"returns": {
							"gateway": "for the current chain."
						}
					}
				},
				"version": 1
			},
			"userdoc": {
				"kind": "user",
				"methods": {
					"LAYER()": {
						"notice": "The layer that this contract is on."
					},
					"PERMISSIONS()": {
						"notice": "A contract storing permissions."
					},
					"createForSender(uint256,bytes32)": {
						"notice": "Create a new `BPSucker` for a specific project."
					},
					"gatewayRouter()": {
						"notice": "Returns the gateway router address for the current chain"
					},
					"isSucker(address)": {
						"notice": "A mapping of suckers deployed by this contract."
					}
				},
				"version": 1
			},
			"gitCommit": "7d1e170198d655b28588d06b0c8c3cbb79082b17",
			"sourceName": "src/deployers/BPArbitrumSuckerDeployer.sol",
			"chainId": "11155111",
			"linkReferences": {},
			"deployedLinkReferences": {}
		},
		{
			"_format": "sphinx-sol-ct-artifact-1",
			"merkleRoot": "0x6cdbb283dddfa646675de2a310bad929f3d4edc1b525356857a4834545b85eeb",
			"contractName": "BPArbitrumSuckerDeployer",
			"address": "0x9359b032CAA379d6Acc005D97f7C172fBD9f6EF0",
			"abi": [
				{
					"type": "constructor",
					"inputs": [
						{
							"name": "directory",
							"type": "address",
							"internalType": "contract IJBDirectory"
						},
						{
							"name": "tokens",
							"type": "address",
							"internalType": "contract IJBTokens"
						},
						{
							"name": "permissions",
							"type": "address",
							"internalType": "contract IJBPermissions"
						},
						{
							"name": "_configurator",
							"type": "address",
							"internalType": "address"
						}
					],
					"stateMutability": "nonpayable"
				},
				{
					"type": "function",
					"name": "LAYER",
					"inputs": [],
					"outputs": [
						{
							"name": "",
							"type": "uint8",
							"internalType": "enum BPLayer"
						}
					],
					"stateMutability": "view"
				},
				{
					"type": "function",
					"name": "PERMISSIONS",
					"inputs": [],
					"outputs": [
						{
							"name": "",
							"type": "address",
							"internalType": "contract IJBPermissions"
						}
					],
					"stateMutability": "view"
				},
				{
					"type": "function",
					"name": "TEMP_ID_STORE",
					"inputs": [],
					"outputs": [
						{
							"name": "",
							"type": "uint256",
							"internalType": "uint256"
						}
					],
					"stateMutability": "view"
				},
				{
					"type": "function",
					"name": "createForSender",
					"inputs": [
						{
							"name": "localProjectId",
							"type": "uint256",
							"internalType": "uint256"
						},
						{
							"name": "salt",
							"type": "bytes32",
							"internalType": "bytes32"
						}
					],
					"outputs": [
						{
							"name": "sucker",
							"type": "address",
							"internalType": "contract IBPSucker"
						}
					],
					"stateMutability": "nonpayable"
				},
				{
					"type": "function",
					"name": "gatewayRouter",
					"inputs": [],
					"outputs": [
						{
							"name": "gateway",
							"type": "address",
							"internalType": "contract IArbGatewayRouter"
						}
					],
					"stateMutability": "view"
				},
				{
					"type": "function",
					"name": "isSucker",
					"inputs": [
						{
							"name": "",
							"type": "address",
							"internalType": "address"
						}
					],
					"outputs": [
						{
							"name": "",
							"type": "bool",
							"internalType": "bool"
						}
					],
					"stateMutability": "view"
				},
				{
					"type": "error",
					"name": "ALREADY_CONFIGURED",
					"inputs": []
				},
				{
					"type": "error",
					"name": "ONLY_SUCKERS",
					"inputs": []
				},
				{
					"type": "error",
					"name": "UNAUTHORIZED",
					"inputs": []
				}
			],
			"solcInputHash": "647076f1c719fbf4dda0cd87a3eed04c",
			"receipt": {
				"blockHash": "0x6feb48d29b3d89fd5cf0e7d2e229ad24948f87caae8d1072a27121375c890454",
				"blockNumber": 5777202,
				"contractAddress": null,
				"cumulativeGasUsed": "19071356",
				"from": "0xC034550B542b83BA1De312b21d1C94a9a52B1595",
				"gasPrice": "543219494",
				"gasUsed": "6309865",
				"hash": "0xab437ece469ec031a79a08ec5d6b667fe978bbe33e1e25acdbb07c4212f78ef2",
				"index": 103,
				"logs": [
					{
						"address": "0xB5E96127D417b1B3ef8438496a38A143167209c7",
						"blockHash": "0x6feb48d29b3d89fd5cf0e7d2e229ad24948f87caae8d1072a27121375c890454",
						"blockNumber": 5777202,
						"data": "0x0000000000000000000000000000000000000000000000000000000000000000",
						"index": 133,
						"topics": [
							"0x572f161235911da04685a68c06adf558fc7e4a36909dca394650e0adc19cc93d",
							"0x000000000000000000000000c034550b542b83ba1de312b21d1c94a9a52b1595",
							"0x0000000000000000000000002251543da4a5ef946705b931c7e8b74756764a18",
							"0xdc5647014122acc5a47bbe53148eb2e44e9c7c946256568bec78853ad1a69a16"
						],
						"transactionHash": "0xab437ece469ec031a79a08ec5d6b667fe978bbe33e1e25acdbb07c4212f78ef2",
						"transactionIndex": 103
					},
					{
						"address": "0x6a65B75A3f37C6702A117Fb87B6bCaC62657d216",
						"blockHash": "0x6feb48d29b3d89fd5cf0e7d2e229ad24948f87caae8d1072a27121375c890454",
						"blockNumber": 5777202,
						"data": "0x",
						"index": 134,
						"topics": [
							"0x6895c13664aa4f67288b25d7a21d7aaa34916e355fb9b6fae0a139a9085becb8",
							"0x0000000000000000000000002251543da4a5ef946705b931c7e8b74756764a18"
						],
						"transactionHash": "0xab437ece469ec031a79a08ec5d6b667fe978bbe33e1e25acdbb07c4212f78ef2",
						"transactionIndex": 103
					},
					{
						"address": "0x2251543Da4A5eF946705B931C7e8b74756764a18",
						"blockHash": "0x6feb48d29b3d89fd5cf0e7d2e229ad24948f87caae8d1072a27121375c890454",
						"blockNumber": 5777202,
						"data": "0x0000000000000000000000000000000000000000000000000000000000000005",
						"index": 135,
						"topics": [
							"0xa65fb05c5808f5f389d72edeaf719ce38f4cc55c1f69ca3cbfb31c21501caa07",
							"0x6cdbb283dddfa646675de2a310bad929f3d4edc1b525356857a4834545b85eeb"
						],
						"transactionHash": "0xab437ece469ec031a79a08ec5d6b667fe978bbe33e1e25acdbb07c4212f78ef2",
						"transactionIndex": 103
					},
					{
						"address": "0x6a65B75A3f37C6702A117Fb87B6bCaC62657d216",
						"blockHash": "0x6feb48d29b3d89fd5cf0e7d2e229ad24948f87caae8d1072a27121375c890454",
						"blockNumber": 5777202,
						"data": "0x",
						"index": 136,
						"topics": [
							"0x6895c13664aa4f67288b25d7a21d7aaa34916e355fb9b6fae0a139a9085becb8",
							"0x0000000000000000000000002251543da4a5ef946705b931c7e8b74756764a18"
						],
						"transactionHash": "0xab437ece469ec031a79a08ec5d6b667fe978bbe33e1e25acdbb07c4212f78ef2",
						"transactionIndex": 103
					},
					{
						"address": "0x2251543Da4A5eF946705B931C7e8b74756764a18",
						"blockHash": "0x6feb48d29b3d89fd5cf0e7d2e229ad24948f87caae8d1072a27121375c890454",
						"blockNumber": 5777202,
						"data": "0x0000000000000000000000000000000000000000000000000000000000000006",
						"index": 137,
						"topics": [
							"0xa65fb05c5808f5f389d72edeaf719ce38f4cc55c1f69ca3cbfb31c21501caa07",
							"0x6cdbb283dddfa646675de2a310bad929f3d4edc1b525356857a4834545b85eeb"
						],
						"transactionHash": "0xab437ece469ec031a79a08ec5d6b667fe978bbe33e1e25acdbb07c4212f78ef2",
						"transactionIndex": 103
					},
					{
						"address": "0x3C6b3494C36511F9013dcb48862c16D9d1adfaC9",
						"blockHash": "0x6feb48d29b3d89fd5cf0e7d2e229ad24948f87caae8d1072a27121375c890454",
						"blockNumber": 5777202,
						"data": "0x000000000000000000000000eac1eeb9e5dd5c5a0ed25042b3a6b0b45237fc77",
						"index": 138,
						"topics": [
							"0xf6e6facda29906a01d337146a9b928ac09b423901f28e0e001d43550448b370b"
						],
						"transactionHash": "0xab437ece469ec031a79a08ec5d6b667fe978bbe33e1e25acdbb07c4212f78ef2",
						"transactionIndex": 103
					},
					{
						"address": "0x3C6b3494C36511F9013dcb48862c16D9d1adfaC9",
						"blockHash": "0x6feb48d29b3d89fd5cf0e7d2e229ad24948f87caae8d1072a27121375c890454",
						"blockNumber": 5777202,
						"data": "0x000000000000000000000000f98b30c65f66700d972b51be8fb917e39028ae6d",
						"index": 139,
						"topics": [
							"0xf6e6facda29906a01d337146a9b928ac09b423901f28e0e001d43550448b370b"
						],
						"transactionHash": "0xab437ece469ec031a79a08ec5d6b667fe978bbe33e1e25acdbb07c4212f78ef2",
						"transactionIndex": 103
					},
					{
						"address": "0x3C6b3494C36511F9013dcb48862c16D9d1adfaC9",
						"blockHash": "0x6feb48d29b3d89fd5cf0e7d2e229ad24948f87caae8d1072a27121375c890454",
						"blockNumber": 5777202,
						"data": "0x0000000000000000000000009359b032caa379d6acc005d97f7c172fbd9f6ef0",
						"index": 140,
						"topics": [
							"0xf6e6facda29906a01d337146a9b928ac09b423901f28e0e001d43550448b370b"
						],
						"transactionHash": "0xab437ece469ec031a79a08ec5d6b667fe978bbe33e1e25acdbb07c4212f78ef2",
						"transactionIndex": 103
					},
					{
						"address": "0x6a65B75A3f37C6702A117Fb87B6bCaC62657d216",
						"blockHash": "0x6feb48d29b3d89fd5cf0e7d2e229ad24948f87caae8d1072a27121375c890454",
						"blockNumber": 5777202,
						"data": "0x",
						"index": 141,
						"topics": [
							"0x6895c13664aa4f67288b25d7a21d7aaa34916e355fb9b6fae0a139a9085becb8",
							"0x0000000000000000000000002251543da4a5ef946705b931c7e8b74756764a18"
						],
						"transactionHash": "0xab437ece469ec031a79a08ec5d6b667fe978bbe33e1e25acdbb07c4212f78ef2",
						"transactionIndex": 103
					},
					{
						"address": "0x2251543Da4A5eF946705B931C7e8b74756764a18",
						"blockHash": "0x6feb48d29b3d89fd5cf0e7d2e229ad24948f87caae8d1072a27121375c890454",
						"blockNumber": 5777202,
						"data": "0x0000000000000000000000000000000000000000000000000000000000000007",
						"index": 142,
						"topics": [
							"0xa65fb05c5808f5f389d72edeaf719ce38f4cc55c1f69ca3cbfb31c21501caa07",
							"0x6cdbb283dddfa646675de2a310bad929f3d4edc1b525356857a4834545b85eeb"
						],
						"transactionHash": "0xab437ece469ec031a79a08ec5d6b667fe978bbe33e1e25acdbb07c4212f78ef2",
						"transactionIndex": 103
					},
					{
						"address": "0x3C6b3494C36511F9013dcb48862c16D9d1adfaC9",
						"blockHash": "0x6feb48d29b3d89fd5cf0e7d2e229ad24948f87caae8d1072a27121375c890454",
						"blockNumber": 5777202,
						"data": "0x",
						"index": 143,
						"topics": [
							"0x8be0079c531659141344cd1fd0a4f28419497f9722a3daafe3b4186f6b6457e0",
							"0x0000000000000000000000006a65b75a3f37c6702a117fb87b6bcac62657d216",
							"0x00000000000000000000000081e3b9447f99aac78810a13075bdbb3d347f9515"
						],
						"transactionHash": "0xab437ece469ec031a79a08ec5d6b667fe978bbe33e1e25acdbb07c4212f78ef2",
						"transactionIndex": 103
					},
					{
						"address": "0x6a65B75A3f37C6702A117Fb87B6bCaC62657d216",
						"blockHash": "0x6feb48d29b3d89fd5cf0e7d2e229ad24948f87caae8d1072a27121375c890454",
						"blockNumber": 5777202,
						"data": "0x",
						"index": 144,
						"topics": [
							"0x6895c13664aa4f67288b25d7a21d7aaa34916e355fb9b6fae0a139a9085becb8",
							"0x0000000000000000000000002251543da4a5ef946705b931c7e8b74756764a18"
						],
						"transactionHash": "0xab437ece469ec031a79a08ec5d6b667fe978bbe33e1e25acdbb07c4212f78ef2",
						"transactionIndex": 103
					},
					{
						"address": "0x2251543Da4A5eF946705B931C7e8b74756764a18",
						"blockHash": "0x6feb48d29b3d89fd5cf0e7d2e229ad24948f87caae8d1072a27121375c890454",
						"blockNumber": 5777202,
						"data": "0x0000000000000000000000000000000000000000000000000000000000000008",
						"index": 145,
						"topics": [
							"0xa65fb05c5808f5f389d72edeaf719ce38f4cc55c1f69ca3cbfb31c21501caa07",
							"0x6cdbb283dddfa646675de2a310bad929f3d4edc1b525356857a4834545b85eeb"
						],
						"transactionHash": "0xab437ece469ec031a79a08ec5d6b667fe978bbe33e1e25acdbb07c4212f78ef2",
						"transactionIndex": 103
					},
					{
						"address": "0x2251543Da4A5eF946705B931C7e8b74756764a18",
						"blockHash": "0x6feb48d29b3d89fd5cf0e7d2e229ad24948f87caae8d1072a27121375c890454",
						"blockNumber": 5777202,
						"data": "0x",
						"index": 146,
						"topics": [
							"0x4383d976757d67ca920616be0b6430a681ea9d3dcce8d6d61d4603ca4a9bff63",
							"0x6cdbb283dddfa646675de2a310bad929f3d4edc1b525356857a4834545b85eeb"
						],
						"transactionHash": "0xab437ece469ec031a79a08ec5d6b667fe978bbe33e1e25acdbb07c4212f78ef2",
						"transactionIndex": 103
					}
				],
				"logsBloom": "0x000000000800100020000000000c000000020000404800000080000080400000000002000000000000000000004001000000000000000000000000000000000000000000000020000000000000000000000140000000000000000400000800000000000000000000000000000000000020800000000000000000000000000040000000000000000000010000000000000000000000200000000000000400000000c000800010004000001000000000020208000000000000000000000004000000000000000000000008040008000000800000000002001042000000000000000000000000000008000000000000000200000000000000000000000208000000",
				"status": 1,
				"to": "0xB5E96127D417b1B3ef8438496a38A143167209c7"
			},
			"metadata": "{\"compiler\":{\"version\":\"0.8.23+commit.f704f362\"},\"language\":\"Solidity\",\"output\":{\"abi\":[{\"inputs\":[{\"internalType\":\"contract IJBDirectory\",\"name\":\"directory\",\"type\":\"address\"},{\"internalType\":\"contract IJBTokens\",\"name\":\"tokens\",\"type\":\"address\"},{\"internalType\":\"contract IJBPermissions\",\"name\":\"permissions\",\"type\":\"address\"},{\"internalType\":\"address\",\"name\":\"_configurator\",\"type\":\"address\"}],\"stateMutability\":\"nonpayable\",\"type\":\"constructor\"},{\"inputs\":[],\"type\":\"error\",\"name\":\"ALREADY_CONFIGURED\"},{\"inputs\":[],\"type\":\"error\",\"name\":\"ONLY_SUCKERS\"},{\"inputs\":[],\"type\":\"error\",\"name\":\"UNAUTHORIZED\"},{\"inputs\":[],\"stateMutability\":\"view\",\"type\":\"function\",\"name\":\"LAYER\",\"outputs\":[{\"internalType\":\"enum BPLayer\",\"name\":\"\",\"type\":\"uint8\"}]},{\"inputs\":[],\"stateMutability\":\"view\",\"type\":\"function\",\"name\":\"PERMISSIONS\",\"outputs\":[{\"internalType\":\"contract IJBPermissions\",\"name\":\"\",\"type\":\"address\"}]},{\"inputs\":[],\"stateMutability\":\"view\",\"type\":\"function\",\"name\":\"TEMP_ID_STORE\",\"outputs\":[{\"internalType\":\"uint256\",\"name\":\"\",\"type\":\"uint256\"}]},{\"inputs\":[{\"internalType\":\"uint256\",\"name\":\"localProjectId\",\"type\":\"uint256\"},{\"internalType\":\"bytes32\",\"name\":\"salt\",\"type\":\"bytes32\"}],\"stateMutability\":\"nonpayable\",\"type\":\"function\",\"name\":\"createForSender\",\"outputs\":[{\"internalType\":\"contract IBPSucker\",\"name\":\"sucker\",\"type\":\"address\"}]},{\"inputs\":[],\"stateMutability\":\"view\",\"type\":\"function\",\"name\":\"gatewayRouter\",\"outputs\":[{\"internalType\":\"contract IArbGatewayRouter\",\"name\":\"gateway\",\"type\":\"address\"}]},{\"inputs\":[{\"internalType\":\"address\",\"name\":\"\",\"type\":\"address\"}],\"stateMutability\":\"view\",\"type\":\"function\",\"name\":\"isSucker\",\"outputs\":[{\"internalType\":\"bool\",\"name\":\"\",\"type\":\"bool\"}]}],\"devdoc\":{\"kind\":\"dev\",\"methods\":{\"createForSender(uint256,bytes32)\":{\"details\":\"Uses the sender address as the salt, which means the same sender must call this function on both chains.\",\"params\":{\"localProjectId\":\"The project's ID on the local chain.\",\"salt\":\"The salt to use for the `create2` address.\"},\"returns\":{\"sucker\":\"The address of the new sucker.\"}},\"gatewayRouter()\":{\"returns\":{\"gateway\":\"for the current chain.\"}}},\"version\":1},\"userdoc\":{\"kind\":\"user\",\"methods\":{\"LAYER()\":{\"notice\":\"The layer that this contract is on.\"},\"PERMISSIONS()\":{\"notice\":\"A contract storing permissions.\"},\"TEMP_ID_STORE()\":{\"notice\":\"A temporary storage slot used by suckers to maintain deterministic deploys.\"},\"createForSender(uint256,bytes32)\":{\"notice\":\"Create a new `BPSucker` for a specific project.\"},\"gatewayRouter()\":{\"notice\":\"Returns the gateway router address for the current chain\"},\"isSucker(address)\":{\"notice\":\"A mapping of suckers deployed by this contract.\"}},\"version\":1}},\"settings\":{\"remappings\":[\"@arbitrum/=node_modules/@arbitrum/\",\"@bananapus/=node_modules/@bananapus/\",\"@chainlink/=node_modules/@chainlink/\",\"@eth-optimism/=node_modules/@eth-optimism/\",\"@offchainlabs/=node_modules/@offchainlabs/\",\"@openzeppelin/=node_modules/@openzeppelin/\",\"@prb/=node_modules/@prb/\",\"@scroll-tech/=node_modules/@scroll-tech/\",\"@sphinx-labs/contracts/=node_modules/@sphinx-labs/contracts/contracts/foundry/\",\"@uniswap/=node_modules/@uniswap/\",\"ds-test/=lib/forge-std/lib/ds-test/src/\",\"forge-std/=lib/forge-std/src/\",\"hardhat/=node_modules/hardhat/\",\"solmate/=node_modules/solmate/\",\"sphinx/=lib/sphinx/packages/contracts/contracts/forge-std/src/\"],\"optimizer\":{\"enabled\":true,\"runs\":200},\"metadata\":{\"bytecodeHash\":\"ipfs\"},\"compilationTarget\":{\"src/deployers/BPArbitrumSuckerDeployer.sol\":\"BPArbitrumSuckerDeployer\"},\"evmVersion\":\"paris\",\"libraries\":{}},\"sources\":{\"node_modules/@arbitrum/nitro-contracts/src/bridge/IBridge.sol\":{\"keccak256\":\"0xeba1e59fa4dd56d0d2cd775ab726d08e470bf3056f5473ce62b98499e55ff7bd\",\"urls\":[\"bzz-raw://fca93cb8bf8369a86d299b263081d1789fd5f0b2579cd229f26e007b8f269d5f\",\"dweb:/ipfs/QmVwEQLsy7sSGwJ7MEWeHPwSunKu1Hr5YozzNy6CW1prmH\"],\"license\":\"BUSL-1.1\"},\"node_modules/@arbitrum/nitro-contracts/src/bridge/IDelayedMessageProvider.sol\":{\"keccak256\":\"0x1f216daf990c329310f44818e1c05d81c07fe875a5a07dd379d2c8fac921f208\",\"urls\":[\"bzz-raw://d6ccdab97fb5c8b7d9a80b713dc6bd9bc0e71e9d41900ac5c7cf96cb2643aad6\",\"dweb:/ipfs/QmeypCFXVXbTu3RehtFti4PMfuTCyzVKDwfGiZ2PeewRSG\"],\"license\":\"BUSL-1.1\"},\"node_modules/@arbitrum/nitro-contracts/src/bridge/IInbox.sol\":{\"keccak256\":\"0xee6e59278213c18faa2908a8e540ca26b288f47e5b65822d5140ce021488a00c\",\"urls\":[\"bzz-raw://8dac67605a1aa2d35c884603a51f2791c647a6d8d75ba1d698816fa90c2645f8\",\"dweb:/ipfs/QmSVjgCcGsPGrXskZAMo9FDnpYRQ8tpmMhW7uxftYFfDJD\"],\"license\":\"BUSL-1.1\"},\"node_modules/@arbitrum/nitro-contracts/src/bridge/IInboxBase.sol\":{\"keccak256\":\"0x2d8800ecb63220a0174770080f714f5de9823ddd08888e23e79b80282a4940ea\",\"urls\":[\"bzz-raw://5e4f3420abcddbac00e09cdfbb1b6af9de7fa73b5b27c53b71c06e9a35ae0ba3\",\"dweb:/ipfs/QmTJimLXfWzUB8F8aPFAdeMsYVTFY1SywPPDEuFk397JNT\"],\"license\":\"BUSL-1.1\"},\"node_modules/@arbitrum/nitro-contracts/src/bridge/IOutbox.sol\":{\"keccak256\":\"0x2de956f0a532a8db249be0eff614db7caa73eec2afb485c1ac9aed78ecf39e5f\",\"urls\":[\"bzz-raw://d2ceb5dc3a34dc692f9a6c6eec9227ad7f2cfc423e8fd55460427e013819493b\",\"dweb:/ipfs/Qmd3F4xSMP1aFCq2GcwEESVhqxWzGdH8y5ReK3V8UBNEZc\"],\"license\":\"BUSL-1.1\"},\"node_modules/@arbitrum/nitro-contracts/src/bridge/IOwnable.sol\":{\"keccak256\":\"0x0ce0ccc2cd25968ab37aef146be9c9a615c3f2ad239fa759d1745190666729fd\",\"urls\":[\"bzz-raw://6516e1a94fdc9530b90ceb408e3083ecc7e844afd4fc34a7ccab89a191c3b88f\",\"dweb:/ipfs/QmZ4UwQe1pgTJxx1XqzcAKTgu9Wo6qZA5WSCPHygFJSdi8\"],\"license\":\"BUSL-1.1\"},\"node_modules/@arbitrum/nitro-contracts/src/bridge/ISequencerInbox.sol\":{\"keccak256\":\"0x97341bd4cc27f3eae77980a722dfeb2b0b29492e920740a6138aa0812711c69a\",\"urls\":[\"bzz-raw://78acecb4885ba0b5c1a91d5c79cc99c6ff16e0ebffd5dd1e9f99ac6e6d11344d\",\"dweb:/ipfs/QmSDK7G79KKB1ETvG5Sd1ekWdeGi3RwnUCq9GtCbKonCd5\"],\"license\":\"BUSL-1.1\"},\"node_modules/@arbitrum/nitro-contracts/src/libraries/AddressAliasHelper.sol\":{\"keccak256\":\"0x53ab7b4f3e0179f4579bdaccbd68ef79246d28ce95632f8e3b585356fca0d6c0\",\"urls\":[\"bzz-raw://4239875db36ea53f47c072aec3890e439d21dcac09728b0faadb607119149895\",\"dweb:/ipfs/QmejkGYPU5GFBTGwEySAYHtuJGgniiKdvtGGx9uUgsM5N9\"],\"license\":\"BUSL-1.1\"},\"node_modules/@arbitrum/nitro-contracts/src/libraries/IGasRefunder.sol\":{\"keccak256\":\"0x35d07855184f8d31087ad0b67d1a8ccd0653a3a6c59c02513eb9c53b3371a385\",\"urls\":[\"bzz-raw://20eec9a16fa9003971a1ac5f5f7a3b7c558c57cba01f98c50959b5c93786f639\",\"dweb:/ipfs/QmaRQpgwZVQYe2EsFS4UrvrnFabJLQwUaBXm14C8V4rhBM\"],\"license\":\"BUSL-1.1\"},\"node_modules/@arbitrum/nitro-contracts/src/precompiles/ArbSys.sol\":{\"keccak256\":\"0x4bc9f91d6a3973af46cc95dd5fe9a29d23e2e64b13512dd0b2d1bfcde705f132\",\"urls\":[\"bzz-raw://7617f08af8fd8aa01a4a5e94ed0c4f15a8567665851c72765e82dbdd8ab20462\",\"dweb:/ipfs/QmYuVxm3JtrPwWBXhtEJZkhuv2SQ1iBH4j6ypP6uRAWAgF\"],\"license\":\"BUSL-1.1\"},\"node_modules/@bananapus/core/src/abstract/JBPermissioned.sol\":{\"keccak256\":\"0xe08c8a7eeac9d1c7c2e0db6d5b98d1af09889300835a3d47d9f29319fecce703\",\"urls\":[\"bzz-raw://42645cf52bcc45053ef650790916faed5d0a74cecef336b217433fdd2c5c4166\",\"dweb:/ipfs/QmdMmxG1tSGucQwz4LYbVnuj7HU23YvqLH6xfrNWv5Bmus\"],\"license\":\"MIT\"},\"node_modules/@bananapus/core/src/enums/JBApprovalStatus.sol\":{\"keccak256\":\"0x61c69b6bac7d24b566d87cda23a77e4ca9cdb87200b106aba8534cb9a0973e33\",\"urls\":[\"bzz-raw://6a9ca7249de76f77a8252eefe6bd1b63d47952f25a2acfa2c8db967cdff4470c\",\"dweb:/ipfs/QmaxSxptRQNj8bNy96EreENmrnRWdKmhyihBcxyWzBX5BN\"],\"license\":\"MIT\"},\"node_modules/@bananapus/core/src/interfaces/IJBController.sol\":{\"keccak256\":\"0xe0b84058192f89e461c4b604388aa11a2f92f0f9969fb70fb3c18706d6f3e16b\",\"urls\":[\"bzz-raw://984fdcff63a17ccab65ff7723a628967e40965fcb4d47909cf8e314e8f044576\",\"dweb:/ipfs/QmaaHZWuaaH3oYxCDrip1rr4u4H1XtR3RcwwKAE73GAqkd\"],\"license\":\"MIT\"},\"node_modules/@bananapus/core/src/interfaces/IJBDirectory.sol\":{\"keccak256\":\"0x9cc380844aef60078ee47a61861e55a29c4a8c947efd556ebd36e6909f7b9d62\",\"urls\":[\"bzz-raw://9f5190ec8b6683d9781ee6e9eedcc91294753242748875d4a06349077e4cbaaf\",\"dweb:/ipfs/QmTQrPuXT9TCA4txwrperMeXSGvGxP8iokUK47f62F388i\"],\"license\":\"MIT\"},\"node_modules/@bananapus/core/src/interfaces/IJBDirectoryAccessControl.sol\":{\"keccak256\":\"0x1e67f56849320a46f834aaa9bd62b170ff8ada7b224b4a81136193740fa0be4d\",\"urls\":[\"bzz-raw://ea8fbcec44abfe49d137bcae129b67e5479d6b17879301f88534c8a7fab00be4\",\"dweb:/ipfs/QmT6wrtYX4GRpffHUzupNwYebJ1dqkkKZLEewWsoyunsqw\"],\"license\":\"MIT\"},\"node_modules/@bananapus/core/src/interfaces/IJBFundAccessLimits.sol\":{\"keccak256\":\"0xf5fd6bdd723b60d490ccbe22cdf1cfe43663d23e6ee48badcd1b71e3282cb16b\",\"urls\":[\"bzz-raw://fe692f0b843ea5fccdfcb68f4ec16e1c0add945bb74b303c9866342be0e31fbf\",\"dweb:/ipfs/QmSRmzpgp3DhNEhNDiLsSu7yEiTeywbzEFbwyGyDazjgKt\"],\"license\":\"MIT\"},\"node_modules/@bananapus/core/src/interfaces/IJBMigratable.sol\":{\"keccak256\":\"0xd69bd5aba01a68d82c303ef3adde47532abcace030a94296c3ea6988b401789c\",\"urls\":[\"bzz-raw://88f11a1c89899327746beba4fc830abf3ac2eb9c152c778e884a6eed6564971f\",\"dweb:/ipfs/QmTpKhSTVewpz7VyKcz6BJwH2LFKMwT7Qi5HNWmjEjwsdK\"],\"license\":\"MIT\"},\"node_modules/@bananapus/core/src/interfaces/IJBPayHook.sol\":{\"keccak256\":\"0x9438866782c652c2942f4d114e35f393cd3c8b0334abce8387eed90bca35e8b2\",\"urls\":[\"bzz-raw://cfd99daf57213f92325aad7d7d16e98476d38e870470e95ba01e3ae3cdecc95d\",\"dweb:/ipfs/QmUKKAVGf7ki8BHksr99tFcRW8APveeB5tNH63ctTbbCW8\"],\"license\":\"MIT\"},\"node_modules/@bananapus/core/src/interfaces/IJBPermissioned.sol\":{\"keccak256\":\"0x5b038d4dee116584e88b230920e56d48e135053e3f7e5642eaea14a775c1dad7\",\"urls\":[\"bzz-raw://19e43102f349fd4a1da1c0943ffb8f2950007fe4bb4bb7e8f74fc142575d091b\",\"dweb:/ipfs/QmXHAt4KzDTdDZgDDefEXH2WKi7NcfkJb9R7nxW5uDqsNp\"],\"license\":\"MIT\"},\"node_modules/@bananapus/core/src/interfaces/IJBPermissions.sol\":{\"keccak256\":\"0x18870e500edf0fbadc353e273a5574701fb80466376b908c65e7cc3f11044d4d\",\"urls\":[\"bzz-raw://352a47c45853aec80e7acf0d286ade3106eb4cb456776b28a3c2f3f1091bed90\",\"dweb:/ipfs/QmQeYd3YbudYZy2hfbfht9kwhxhw4tuuLKMEYy9UY6dcSy\"],\"license\":\"MIT\"},\"node_modules/@bananapus/core/src/interfaces/IJBPriceFeed.sol\":{\"keccak256\":\"0x4bd84c0f1a5d4729ed709bcddd43f4c50ec4a165ece79780af8dce482ed07d4a\",\"urls\":[\"bzz-raw://62bac4bfb6982fb002f620c77e5c445e62d50241a5aa64a07e51d929f5a42180\",\"dweb:/ipfs/QmWgJUDreVY2BuMX38a1iUUR5kNbMwGnKG3VvurB7oZtuM\"],\"license\":\"MIT\"},\"node_modules/@bananapus/core/src/interfaces/IJBPrices.sol\":{\"keccak256\":\"0x99525f31440b955742dce84ba57de9fc1221139b5367c1f834723bef9e13e6e1\",\"urls\":[\"bzz-raw://6fa03f0cd4ad87dd7cbae7bf7f54463450874291773c8f70f2c31ef2cae62bb0\",\"dweb:/ipfs/QmSPajPV5ismteJuB6Spzm9VmhTj2iS3eVrfpJC1Zuzg8n\"],\"license\":\"MIT\"},\"node_modules/@bananapus/core/src/interfaces/IJBProjectUriRegistry.sol\":{\"keccak256\":\"0x2799475228987e4f8334ac33d3935f759c9b8133db7383b4f622dde7a5dc0502\",\"urls\":[\"bzz-raw://d751731740f45df74eea48c9667e847ee2cddb2980ab4939c86bd17e6c6ed89b\",\"dweb:/ipfs/QmXW8SLTuhdUpfn7pRpdsYdcyuim8RTyagU37ULcj5UZhT\"],\"license\":\"MIT\"},\"node_modules/@bananapus/core/src/interfaces/IJBProjects.sol\":{\"keccak256\":\"0x735c2fb8f1fa827f054ee77f7a0ae4b312656217acb75b624d2c8fd9dc40151b\",\"urls\":[\"bzz-raw://ee7fc92299a8633a80693ae63ab494dcd125f1789487a54a39dc0e5696e5996f\",\"dweb:/ipfs/QmX7YJD4pS2XhgQb7p3JbBAXynT7YGPXcZe92BiWWRrsCL\"],\"license\":\"MIT\"},\"node_modules/@bananapus/core/src/interfaces/IJBRedeemHook.sol\":{\"keccak256\":\"0x8ab46fcd7d0e739661eb76056ad93ff99106f38420ef0b4eb97fa9f4bb71a68a\",\"urls\":[\"bzz-raw://0ef96fcb7ad26281d444d8e0c677b25114fdd63b1c172d477e030dce8ba53b62\",\"dweb:/ipfs/Qmcx1jRQuwU4pZFuLxsSsx4oMbRaDfktHrPnXextgbWc5m\"],\"license\":\"MIT\"},\"node_modules/@bananapus/core/src/interfaces/IJBRedeemTerminal.sol\":{\"keccak256\":\"0xd1b4aa38154e08f1474745ea6bc8f8823fe8aa68c124d596742597f2296ea16d\",\"urls\":[\"bzz-raw://9bd254e833702dfe5e28db5fee76478947ab45b501c966501f719e73bbf0397a\",\"dweb:/ipfs/QmZ3Ng7TmVxL6ozSUhx4kYdQdZhoYi4t43cYZVAMz7Fn5M\"],\"license\":\"MIT\"},\"node_modules/@bananapus/core/src/interfaces/IJBRulesetApprovalHook.sol\":{\"keccak256\":\"0x592e95d159494421c6b1bcb362d0cee1df0132921697351304e9cd7af4fbd386\",\"urls\":[\"bzz-raw://5bebfd5fa67c1b6ea16fa2e76e9520e9dfe52a579f48dd94d0c2ec45f78ad178\",\"dweb:/ipfs/QmRUawEGtfYoYSHmHELGhvJoWuMsxLPKtqAXgsrb7fJboP\"],\"license\":\"MIT\"},\"node_modules/@bananapus/core/src/interfaces/IJBRulesets.sol\":{\"keccak256\":\"0xd3f817d22ecbe24da63c552c069bf0c4fbbf3bcd5c3b5633002afd24aacf6882\",\"urls\":[\"bzz-raw://c1185aec0f6b6f0f4d93ffeeed0972ccf38420b00fe570b5e1838ed2b1f5db49\",\"dweb:/ipfs/QmWz36azGTFnjFXpFSh6BHt4nactgjtF64L3PeTqs4ZqSR\"],\"license\":\"MIT\"},\"node_modules/@bananapus/core/src/interfaces/IJBSplitHook.sol\":{\"keccak256\":\"0xeb8dfac7a4b81897a1c3b5d0d853a406bcff33720fb187d5ca5bb3dcc0ba3a12\",\"urls\":[\"bzz-raw://36aaeef6107cfe5b0127e063ea215aac7200f8af02e28a48e61111abd3254688\",\"dweb:/ipfs/QmQ8yQANXnhQCAWBGKsKCDsJ3A8hnTKNg5tyo79GfWXTcV\"],\"license\":\"MIT\"},\"node_modules/@bananapus/core/src/interfaces/IJBSplits.sol\":{\"keccak256\":\"0x92deeb9e22ce2aaafc608b85e9250b8ea2deed1ebf64b7442038b157b2bfe0e6\",\"urls\":[\"bzz-raw://08bf29f0c13c2e8be46065277f67e44ecaea960cb5474f13775eece0672566c2\",\"dweb:/ipfs/QmeGu9C6tuBjfmeizmpzptxgGmch6Mbtm34NFwZxzMvqc4\"],\"license\":\"MIT\"},\"node_modules/@bananapus/core/src/interfaces/IJBTerminal.sol\":{\"keccak256\":\"0x19dc9bf8cbdc8f13ee5da9dc3a87047eacb94a3fc19740a286c1f0bad2cc39ca\",\"urls\":[\"bzz-raw://0b05ae6fda9a85672508232fd992b8a5f5ffd8096622eeb12c8a7b3317eb3867\",\"dweb:/ipfs/QmNh9Quj37BXYGdTdcCD1Q58PchRsE5TLbEZep56qS3MpV\"],\"license\":\"MIT\"},\"node_modules/@bananapus/core/src/interfaces/IJBToken.sol\":{\"keccak256\":\"0x71b1f9c3a0edd41910f77396e0be2c65596571176d53eb87e887c3c0da56c0fb\",\"urls\":[\"bzz-raw://6e956f0582f4525e83d845ee9b4a89959abc4f821414f6accbbee5b38960482d\",\"dweb:/ipfs/QmbSvjgmCgnfVmcCTGu8XwrV1Rufsf3M8hB8unFq6fTMdH\"],\"license\":\"MIT\"},\"node_modules/@bananapus/core/src/interfaces/IJBTokenUriResolver.sol\":{\"keccak256\":\"0xfa5cb00dcd6085d1ef912d071fe73c63f9478a2cd0f9d8bddaf659b6af2d0967\",\"urls\":[\"bzz-raw://282e4e7c342d65f77cde0e9a08fcaf20ef5cf379c7a48b639842c0ffd0b2afb8\",\"dweb:/ipfs/QmbnN3PEQeZaXdPLT75V1J79kMg7KqSMru37RHrL3z8Yf2\"],\"license\":\"MIT\"},\"node_modules/@bananapus/core/src/interfaces/IJBTokens.sol\":{\"keccak256\":\"0x6fd67af915dd541d9547c8297aa9ae269690e4ee23531db43f021bcacec6076f\",\"urls\":[\"bzz-raw://2e5e11954e9ab2319fffccb6563f3db400b8f7760d4ffe2165048a02c9c37fa6\",\"dweb:/ipfs/QmbDXtV83dK8EfiTjsTRf55R2XqPZzDKcjtYbW8sxQ5CFm\"],\"license\":\"MIT\"},\"node_modules/@bananapus/core/src/libraries/JBConstants.sol\":{\"keccak256\":\"0x9d3a9a953f859d8ec79a599577f8972de6da7199cc1bfa7fdad017d4d722bcb4\",\"urls\":[\"bzz-raw://f151fcb53a8d2684eff8b9e56ac790bcbcadd8199a4fd4d17c5b224b22936722\",\"dweb:/ipfs/QmdAz1ZtCE8nTiC4AxQNLfJhnY3ndGum2Lbef7seKdvTdR\"],\"license\":\"MIT\"},\"node_modules/@bananapus/core/src/structs/JBAccountingContext.sol\":{\"keccak256\":\"0x2907ff54d1e903cc7e0390dd88c3975884702dc2673642aacbe22b66560b56de\",\"urls\":[\"bzz-raw://a66a5381ce877b32f0e0058ceeaf843e9b6b2bc8af666c0c9f4a9d01091da004\",\"dweb:/ipfs/QmQynCetUr37dBkS1YwDS8evxuXGiqanW6THmeUxXtim8w\"],\"license\":\"MIT\"},\"node_modules/@bananapus/core/src/structs/JBAfterPayRecordedContext.sol\":{\"keccak256\":\"0xd26c3a774ff38be79064085970454fe2603a23a638c76270d5b1b3829206c3e8\",\"urls\":[\"bzz-raw://3b55dbe3bf1ef625b7ca04efab3de35406e6041d5b3d82c7265469c500e2b702\",\"dweb:/ipfs/QmUdBDo4Lt3mcsFcsXT2mqq3czFwZjQJFPLM89YA2VtD7k\"],\"license\":\"MIT\"},\"node_modules/@bananapus/core/src/structs/JBAfterRedeemRecordedContext.sol\":{\"keccak256\":\"0x521f5d23a36f0da72362cd84890cc867bd83baa8dc836ba6c5066d51dba2f163\",\"urls\":[\"bzz-raw://6cc461313286dde62d045d6288e87bae5032e035796326f5b1ed6218e58aa9da\",\"dweb:/ipfs/QmQS2AkQwf2ANQieDuaUnpJEdXChoLv4CCbZqHkfywYPSR\"],\"license\":\"MIT\"},\"node_modules/@bananapus/core/src/structs/JBCurrencyAmount.sol\":{\"keccak256\":\"0x12fe4b43f4824994624d4fe0abbd88c3fe7867fd637edb65c7f456dab27e2d6e\",\"urls\":[\"bzz-raw://8003a3e8f932cf891e86b827e67c9d31b0d34c2712e18c2bc333cfe5284ba6d5\",\"dweb:/ipfs/QmSoA6RsDcSnNzk6CB7KZtALkHmeSDAi2g6fg3TDmLDkWX\"],\"license\":\"MIT\"},\"node_modules/@bananapus/core/src/structs/JBFundAccessLimitGroup.sol\":{\"keccak256\":\"0x9fdaa8d017b72da25f583700a444a86849df053f7fb8eac874ec5139bcf651e5\",\"urls\":[\"bzz-raw://c8e44c49ee444a98424a0dbeb6897a76a0bf00d88a613f62ac2012afdac754ee\",\"dweb:/ipfs/QmdYkAiRi5bXM1YYNkc7BiqimHSFodMGn1cjHR5hcpm4xH\"],\"license\":\"MIT\"},\"node_modules/@bananapus/core/src/structs/JBPermissionsData.sol\":{\"keccak256\":\"0x8f0f69a6ebf5f3704e3dfcb3712fb9d3f94ae7c1ab89bf3e37bad42a3e7a0487\",\"urls\":[\"bzz-raw://57b0c5e52843e2217082889ed47b4da3943e0da4590d5768dcebfe3edad4a6b8\",\"dweb:/ipfs/QmRz48vuWLw81kUP836rh1qzqWiJFGbksgRUA9xGEDNKTY\"],\"license\":\"MIT\"},\"node_modules/@bananapus/core/src/structs/JBRuleset.sol\":{\"keccak256\":\"0x15b2bf3174d84846a91ccbf5a344dfb125b55ed9cf50102db8d6868844225189\",\"urls\":[\"bzz-raw://647416b025dbd941094db89cbc69f755c155bd6c87be3f322394ccc4a8e0442d\",\"dweb:/ipfs/QmTCL9xcHnxQ4t5AmCPoZvXDUPW5xhzhyyXYbkMdyg44au\"],\"license\":\"MIT\"},\"node_modules/@bananapus/core/src/structs/JBRulesetConfig.sol\":{\"keccak256\":\"0x0be470df286939259a6b98bc71459e661e81d56a58226d6a574ae1484f8f8e6c\",\"urls\":[\"bzz-raw://64592c279ba7518ac180c835a539897163f299a439065f2cc8aa54086a2c9ad7\",\"dweb:/ipfs/QmaEepVvFJdXcDBMMr7SQYjZSDJXPtCca95kQY5rZbra6U\"],\"license\":\"MIT\"},\"node_modules/@bananapus/core/src/structs/JBRulesetMetadata.sol\":{\"keccak256\":\"0xfea54c9f98416d2aa05309e7ff76967d6968a614850a1e33e48fde793ea8b514\",\"urls\":[\"bzz-raw://bf55386cbab90dbc1296b2b0cbfdc217a4500d67702e4a093a4c78bd127ecd5c\",\"dweb:/ipfs/QmTRq9mZrNSXu7oCZwti4JbBFrbY6A5msRqi9RbtL49NAj\"],\"license\":\"MIT\"},\"node_modules/@bananapus/core/src/structs/JBRulesetWithMetadata.sol\":{\"keccak256\":\"0x1bcfadf20488f6df65227f8d4d0fbf9b7539456a2389567f7fe3900d23289bc3\",\"urls\":[\"bzz-raw://0a15c399a71e5373f8c0484c6d6b83521eda31e063a2c53e4c5cec4e74550343\",\"dweb:/ipfs/QmQwi8zkjoTVXbK89NeETYimWCacTrNsesJdpLSvGdqMPX\"],\"license\":\"MIT\"},\"node_modules/@bananapus/core/src/structs/JBSplit.sol\":{\"keccak256\":\"0x1d40fa4f1c911a53b9139f3d44d27cb58fa5c5d2cd793c7a21ccf52b9e61f848\",\"urls\":[\"bzz-raw://9897d2c29fc65fe16e4eac0b7b8b6fd8ef0b0cc501986f7f0c3a78c4ec1dbb60\",\"dweb:/ipfs/QmXcHoVjCYWWCz4hm2KZ6JxtB4YNq7jmXa2evLkga59Xwq\"],\"license\":\"MIT\"},\"node_modules/@bananapus/core/src/structs/JBSplitGroup.sol\":{\"keccak256\":\"0xda7da6e88aac2906c7ea4027660088daf217edc632bebca4d72795aae8921564\",\"urls\":[\"bzz-raw://ae1939d17e94cb51484f31ce64cf0df990445a338fb9b38d39a7baf28275ae4a\",\"dweb:/ipfs/QmUhPnJiWnYhFdtLvZnrPopAdbYXxETpGjvxjPDignpTGY\"],\"license\":\"MIT\"},\"node_modules/@bananapus/core/src/structs/JBSplitHookContext.sol\":{\"keccak256\":\"0xfe34e6860b00ca93d71f44e72882281b2c57c31303151af05795c74cfdd2e51d\",\"urls\":[\"bzz-raw://08acab094888e9c929b6f6f972d89ddbb31e5867675e7e7c602d25fcb2c0f402\",\"dweb:/ipfs/QmPNdXM185cTyXQSodVr4JMviHx88jrWu7dipgkp9xTNgJ\"],\"license\":\"MIT\"},\"node_modules/@bananapus/core/src/structs/JBTerminalConfig.sol\":{\"keccak256\":\"0xd162f3821a1ccafbc8d7d108369e39ac3048445a8c7fe7a3fa97a6343f9eefaa\",\"urls\":[\"bzz-raw://82172ea0407b6d9edc45e408c7e8edb8e129adf49a94349fe3a5862da9bc044e\",\"dweb:/ipfs/QmWheF5Tjq2hcabnSzfYqdFHUA1YxYEdAPZaRw9N166V1d\"],\"license\":\"MIT\"},\"node_modules/@bananapus/core/src/structs/JBTokenAmount.sol\":{\"keccak256\":\"0x5cf0626b73a596c1e2da17c89ae039a7c0374310b060d48568d3b6c11fbe6180\",\"urls\":[\"bzz-raw://63348b50be95e2995409394a17caffc563a646f0972650a1230bf864fbd3219b\",\"dweb:/ipfs/QmZXZpS3SbFD5nWaCauf6AqbEhLURv5qsKHpThBvQgDU6u\"],\"license\":\"MIT\"},\"node_modules/@bananapus/permission-ids/src/JBPermissionIds.sol\":{\"keccak256\":\"0xf61109f6b217a80d5e5391f548fb6f2e451f7dbee3fabfc04cf17e88722203bc\",\"urls\":[\"bzz-raw://ac776ab1cd621c22bd7973471acdfa187f3abc659ad9a3ef6ed10b6447dfcf9c\",\"dweb:/ipfs/QmYLbaHt68qcuMzkiKpe96jMjiWUq1F3u8yMhxmZ3pnnWu\"],\"license\":\"MIT\"},\"node_modules/@openzeppelin/contracts/token/ERC20/IERC20.sol\":{\"keccak256\":\"0xc6a8ff0ea489379b61faa647490411b80102578440ab9d84e9a957cc12164e70\",\"urls\":[\"bzz-raw://0ea104e577e63faea3b69c415637e99e755dcbf64c5833d7140c35a714d6d90c\",\"dweb:/ipfs/Qmau6x4Ns9XdyynRCNNp3RhLqijJjFm7z5fyZazfYFGYdq\"],\"license\":\"MIT\"},\"node_modules/@openzeppelin/contracts/token/ERC20/extensions/IERC20Permit.sol\":{\"keccak256\":\"0x6008dabfe393240d73d7dd7688033f72740d570aa422254d29a7dce8568f3aff\",\"urls\":[\"bzz-raw://f5196ec75139918c6c7bb4251b36395e668f1fa6d206beba7e7520e74913940d\",\"dweb:/ipfs/QmSyqjksXxmm2mCG6qRd1yuwLykypkSVBbnBnGqJRcuJMi\"],\"license\":\"MIT\"},\"node_modules/@openzeppelin/contracts/token/ERC20/utils/SafeERC20.sol\":{\"keccak256\":\"0x37bb49513c49c87c4642a891b13b63571bc87013dde806617aa1efb54605f386\",\"urls\":[\"bzz-raw://b3036b3a83b7c48f96641f2a9002b9f2dcb6a5958dd670894ada21ae8229b3d0\",\"dweb:/ipfs/QmUNfSBdoVtjhETaUJCYcaC7pTMgbhht926tJ2uXJbiVd3\"],\"license\":\"MIT\"},\"node_modules/@openzeppelin/contracts/token/ERC721/IERC721.sol\":{\"keccak256\":\"0x5ef46daa3b58ef2702279d514780316efaa952915ee1aa3396f041ee2982b0b4\",\"urls\":[\"bzz-raw://2f8f2a76e23b02fc69e8cd24c3cb47da6c7af3a2d6c3a382f8ac25c6e094ade7\",\"dweb:/ipfs/QmPV4ZS4tPVv4mTCf9ejyZ1ai57EEibDRj7mN2ARDCLV5n\"],\"license\":\"MIT\"},\"node_modules/@openzeppelin/contracts/utils/Address.sol\":{\"keccak256\":\"0xaf28a975a78550e45f65e559a3ad6a5ad43b9b8a37366999abd1b7084eb70721\",\"urls\":[\"bzz-raw://b7bd24e224f67f65bfadf85dc2929fa965456bb2415478bd0125471b5ce35245\",\"dweb:/ipfs/QmRaydGr8BTHs1kvaZfsNU69pKzUAGFrvABn1KiRSbE51y\"],\"license\":\"MIT\"},\"node_modules/@openzeppelin/contracts/utils/Context.sol\":{\"keccak256\":\"0x493033a8d1b176a037b2cc6a04dad01a5c157722049bbecf632ca876224dd4b2\",\"urls\":[\"bzz-raw://6a708e8a5bdb1011c2c381c9a5cfd8a9a956d7d0a9dc1bd8bcdaf52f76ef2f12\",\"dweb:/ipfs/Qmax9WHBnVsZP46ZxEMNRQpLQnrdE4dK8LehML1Py8FowF\"],\"license\":\"MIT\"},\"node_modules/@openzeppelin/contracts/utils/introspection/IERC165.sol\":{\"keccak256\":\"0x4296879f55019b23e135000eb36896057e7101fb7fb859c5ef690cf14643757b\",\"urls\":[\"bzz-raw://87b3541437c8c443ccd36795e56a338ed12855eec17f8da624511b8d1a7e14df\",\"dweb:/ipfs/QmeJQCtZrQjtJLr6u7ZHWeH3pBnjtLWzvRrKViAi7UZqxL\"],\"license\":\"MIT\"},\"node_modules/@openzeppelin/contracts/utils/structs/BitMaps.sol\":{\"keccak256\":\"0x3616f1b0d0a9ee1ca8f0953ecaceb9230e36f691c7974d30f964212acff52d2b\",\"urls\":[\"bzz-raw://d4bebdd07b31ac28e3e596ac6f0333da90a4e332405aa7d65f3a3a7e0b4cf15e\",\"dweb:/ipfs/QmckoDU5bBnye2UtPcrfJNahLD2FbxrnPP9nrREMWPpnug\"],\"license\":\"MIT\"},\"src/BPArbitrumSucker.sol\":{\"keccak256\":\"0x88a8e92cc62aa13128603a806803314d2cd5649e0380a670b8c3edbfd0815436\",\"urls\":[\"bzz-raw://76438568a0cc513fe5dc605a4fc246e845525423419cce6271d9790dc7e9a918\",\"dweb:/ipfs/QmTbUqb3xXXEus86D4REu7td47MDFCqcVREty99iS3r3sv\"],\"license\":\"MIT\"},\"src/BPSucker.sol\":{\"keccak256\":\"0x0f4f04d316f2b0e68e7a538de4d17d402ebf65fa63b5b25e43dd9a077a32ff3a\",\"urls\":[\"bzz-raw://1d3ff79802d9623da3d02a547e9a83d45a72491494c73cd7712c746fb5cd1b8f\",\"dweb:/ipfs/QmajmverUYhT5FgeKVZy8QRpvt21XbtRnKmL3WUfb5vsPW\"],\"license\":\"MIT\"},\"src/deployers/BPArbitrumSuckerDeployer.sol\":{\"keccak256\":\"0x9db261666364dde45061eb600907266403c79cecac6f842e487418eb7df23edb\",\"urls\":[\"bzz-raw://b088e18cbcfb1fb0a73bfa5d60791973a0d8df51a19abd673b3d7f83ee06194e\",\"dweb:/ipfs/QmWevuAd1E3JP4DcRYNb6jKn3q8N6f9BhPsiEW7vKW993u\"],\"license\":\"MIT\"},\"src/enums/BPAddToBalanceMode.sol\":{\"keccak256\":\"0xa6dcd5c6225e2b697775d37a6f3a8ae4030f7af1a7cb4bb91d572eef65134e43\",\"urls\":[\"bzz-raw://583699b0f81837a739e5e54a1e0b0400a6021602bd7f48472c8785b22d3f25eb\",\"dweb:/ipfs/QmfL4Jr6p8B5q8uFX1ZfUS5vPsUxiGgMy5udVg9z2kPUQk\"],\"license\":\"MIT\"},\"src/enums/BPLayer.sol\":{\"keccak256\":\"0x8576b5c17487d0372cdf56bc041724685a5deca4f5958bcd5fd377d08607076e\",\"urls\":[\"bzz-raw://57ec39dd1626aaa87198d1b66ac74701848eed0715bd7e08eba39a1388631c37\",\"dweb:/ipfs/QmPiFAKy4Z5L151a4v3teUPYEKkUg8bn4pvG7Kr61JW7t4\"],\"license\":\"MIT\"},\"src/interfaces/ArbL1GatewayRouter.sol\":{\"keccak256\":\"0x3363b66cdc4cef29cdb45b205d925d76bb2a2cd6eb0cf7687be02e81374bd34c\",\"urls\":[\"bzz-raw://aff9fce1b8b08ac9635a998e11b0961b789211ec44c305180994221782a57efe\",\"dweb:/ipfs/QmdGXxHQnZaSEenuugKjR18vCaUiF3Nyrb29cF5sWzig7H\"],\"license\":\"MIT\"},\"src/interfaces/ArbL2GatewayRouter.sol\":{\"keccak256\":\"0x4d22902fd327d0d0977c9812334bd2cf89c9e3a45f9664b60131017e76f22ed2\",\"urls\":[\"bzz-raw://0ce2eaa4b1ddd4efd6e880a8e8a06518caba470f00cecb9f58f5f0a613e18de2\",\"dweb:/ipfs/QmfPbnYW39Z2Mjd7o6a8Gc2r1u9taQmKMpsgfbLJgxLGZE\"],\"license\":\"MIT\"},\"src/interfaces/IArbGatewayRouter.sol\":{\"keccak256\":\"0x915da748a184ca04585e6da1b10cbdb7de99698de1cc31fa0f6d75d02eae4e8e\",\"urls\":[\"bzz-raw://c7204f56dc2c16a2c9a92785aadc67d737b46308d0403fc9a2a8db901700a43e\",\"dweb:/ipfs/Qma8RjHimvNwoQfzxbGYiJsTNWwTZaLN5N5ogBYu663xmN\"],\"license\":\"MIT\"},\"src/interfaces/IBPSucker.sol\":{\"keccak256\":\"0x2a3136ea5608c3e76b9f3114a470980f2a96427535aaccbd65dcc37d3a3dd0f8\",\"urls\":[\"bzz-raw://8cc997a396b183525892a0640ce03aee9fa3f15971266c826a308f6c74ff63f2\",\"dweb:/ipfs/QmZcoMkGbujqLm5B9v5urpFwUVg2uoG7ybPHX8RRxsygpe\"],\"license\":\"MIT\"},\"src/interfaces/IBPSuckerDeployer.sol\":{\"keccak256\":\"0x7592282265ffd3000787eb20d1ccdd698cb6f2eb641dfddcd2b61978eb5105a2\",\"urls\":[\"bzz-raw://1f4ac54122cbd52758573f23856e243635be43aa974f234e1a5560eef9990794\",\"dweb:/ipfs/QmXHXr5CGh2hT9UMsLdCZNT4XmRMTf9SuBNRwTtyN9Z2Re\"],\"license\":\"MIT\"},\"src/libraries/ARBAddresses.sol\":{\"keccak256\":\"0xdc712c7ce3c666cb65b8995ad4b155cb060929451a189c768f04a9dc7c42f3dc\",\"urls\":[\"bzz-raw://604852f4d3dddaf705ed5fbd469d62d5480e561c79e92cc4897e04d09bfc38f8\",\"dweb:/ipfs/QmXPxim4aunp9sJTpEijLutepQ8ckqNR4GAdDsY9TTL1kX\"],\"license\":\"MIT\"},\"src/libraries/ARBChains.sol\":{\"keccak256\":\"0x1b3ece7233c6b28660b48bd43464848ba5ac847a1ac917452800a69c93bbcae5\",\"urls\":[\"bzz-raw://1ba85d1a4145d8468abebeafe0072e0b77a9346e7b3c2bf12d56bd9491788747\",\"dweb:/ipfs/QmSYTqb2xy8jLt1oPbnqiakiD6ikgSBYog6fBVaWYZuRkP\"],\"license\":\"MIT\"},\"src/structs/BPClaim.sol\":{\"keccak256\":\"0x63a12013ec4c221781b057185a0e01c83ac19dcef115ad6238d25a22011da071\",\"urls\":[\"bzz-raw://0307e4377f2cbd3ec561405eb2ffa07e0d9fe2c39522eb0706e91b46efa1b2a7\",\"dweb:/ipfs/QmXKeKQ6mJGehNJt3v2fqE22MFoGjcpm2x9hHA25vu7xAH\"],\"license\":\"MIT\"},\"src/structs/BPInboxTreeRoot.sol\":{\"keccak256\":\"0xff494c45ee76d14e2ffb3cd0f22412b4a1a4d8e37b957a3ffb82b0b9db4f74ab\",\"urls\":[\"bzz-raw://a896310d4dcfecca8b1927bf82832c9b5de5a455228fd9aad2530729ce61739b\",\"dweb:/ipfs/QmUiep5HvdqgJZyJqt4kKxWuP2odhY5W9kX7pCuovTr3LM\"],\"license\":\"MIT\"},\"src/structs/BPLeaf.sol\":{\"keccak256\":\"0xaa2257b6d8fc05d9b37fdb40472cd2f4bed45e7ddc1ea9082ca5296215602bc8\",\"urls\":[\"bzz-raw://ebdf0d3c3961adb71fd7174f9a8eca8332202d07ee5a584abbb06b7c15db61d0\",\"dweb:/ipfs/QmWtqWUncWvZotfno2kiU5TeT3WTR9zfPzRTiktZskyS13\"],\"license\":\"MIT\"},\"src/structs/BPMessageRoot.sol\":{\"keccak256\":\"0xab832c9e92d412cc0d8e6758777694955fef6dcbc919f96b33052d68d0516d1d\",\"urls\":[\"bzz-raw://fa9fe2604015f05e1a4f2c1a92f4ef7b6cba3d08d9e7daa2b20190a9b1bce39c\",\"dweb:/ipfs/QmUDcrNmqnp1dPwkmPTjsu7Egbwtgsk42G9FNdrHk6JcB2\"],\"license\":\"MIT\"},\"src/structs/BPOutboxTree.sol\":{\"keccak256\":\"0xed569423f6ae3dafee5681a60b7c5d24b0c5f33ff0763937952e938be374d79e\",\"urls\":[\"bzz-raw://4dafb1348a51324105b2ee100e2174fee0f1397f0b2dd00483b2dcf049477ce4\",\"dweb:/ipfs/Qmcf8jizBW7BGGnHBVetaDvYcZ75ov8oYw8LubaNUHrHCv\"],\"license\":\"MIT\"},\"src/structs/BPRemoteToken.sol\":{\"keccak256\":\"0x703d0112f181683d9b3508bf9fc0ef2f5c3cac73de0a718d9f405561fad14622\",\"urls\":[\"bzz-raw://80c0dd5e9ef7648efc48306da2c50829490c41cf09292f0f82fa3e24ce9dbe37\",\"dweb:/ipfs/QmYTgR72bVH3r1xKvMaE1tRUAkqkZjZa2v1eki1973qn3U\"],\"license\":\"MIT\"},\"src/structs/BPTokenMapping.sol\":{\"keccak256\":\"0x84865bda925cdc9a608cbbfc487619acba391f98ae12bbbfdbc5779d617a17d9\",\"urls\":[\"bzz-raw://3bbc1fdd38feaf64fd4914bddb62cda7e5b8ee0f046a0eac8cfcb15f9493bcc5\",\"dweb:/ipfs/QmXgAx7sr1M8r71YrSeQJGAB1uhvdxpQyS633UgJvLCQfb\"],\"license\":\"MIT\"},\"src/utils/MerkleLib.sol\":{\"keccak256\":\"0x6803b76f79362d9b5cd8e32eb1da6ed675146554dcd2f77747c4406f5f7a25f4\",\"urls\":[\"bzz-raw://3db2984a7eae5e7dc78517fd3a696180e95fdf00bf3267b31d1dbaddb0865cab\",\"dweb:/ipfs/QmPG8Nxwcb5Q7unUzMLCwaaRv8MvR7rskfacSDqbDW5zPZ\"],\"license\":\"MIT OR Apache-2.0\"}},\"version\":1}",
			"args": [
				"0xCD8c4da77dfb15C05486D3F71Ee4C2C0dfdbc94e",
				"0x792b79adb4Aa06edDabd6ddef5EE06dCb946F436",
				"0x1e2E8562b635fe19978640C784e47865A83d6605",
				"0x6a65B75A3f37C6702A117Fb87B6bCaC62657d216"
			],
			"bytecode": "0x61012060405234801561001157600080fd5b506040516154713803806154718339810160408190526100309161006b565b6001600160a01b0391821660805281166101005291821660a0521660c0526100ca565b6001600160a01b038116811461006857600080fd5b50565b6000806000806080858703121561008157600080fd5b845161008c81610053565b602086015190945061009d81610053565b60408601519093506100ae81610053565b60608601519092506100bf81610053565b939692955090935050565b60805160a05160c05160e0516101005161536061011160003960005050600060ee0152600061024801526000610227015260008181610122015261026901526153606000f3fe608060405234801561001057600080fd5b50600436106100625760003560e01c806303c85ea314610067578063121303661461008c578063ba8b1d1a1461009f578063c39ec124146100b6578063c86719b7146100e9578063f434c9141461011d575b600080fd5b61006f610144565b6040516001600160a01b0390911681526020015b60405180910390f35b61006f61009a3660046102fd565b6101dd565b6100a860015481565b604051908152602001610083565b6100d96100c436600461031f565b60006020819052908152604090205460ff1681565b6040519015158152602001610083565b6101107f000000000000000000000000000000000000000000000000000000000000000081565b6040516100839190610370565b61006f7f000000000000000000000000000000000000000000000000000000000000000081565b600046600019810161016b577372ce9c846789fdb6fc1f34ac4ad25dd9ef7031ef91505090565b61a4b1810361018f57735288c571fd7ad117bea99bf60fe0846c4e84f93391505090565b62aa36a781036101b45773ce18836b233c83325cc8848ca4487e94c628826491505090565b62066eee81036101d957739fdd1c4e4aa24eec1d913fabea925594a20d43c791505090565b5090565b6040516bffffffffffffffffffffffff193360601b1660208201526034810182905260009060540160405160208183030381529060405280519060200120915082600181905550817f00000000000000000000000000000000000000000000000000000000000000007f00000000000000000000000000000000000000000000000000000000000000007f0000000000000000000000000000000000000000000000000000000000000000600080604051610297906102f0565b6102a5959493929190610383565b8190604051809103906000f59050801580156102c5573d6000803e3d6000fd5b506001600160a01b0381166000908152602081905260409020805460ff191660011790559392505050565b614f66806103c583390190565b6000806040838503121561031057600080fd5b50508035926020909101359150565b60006020828403121561033157600080fd5b81356001600160a01b038116811461034857600080fd5b9392505050565b6002811061036d57634e487b7160e01b600052602160045260246000fd5b50565b6020810161037d8361034f565b91905290565b6001600160a01b038681168252858116602083015284811660408301528316606082015260a081016103b48361034f565b826080830152969550505050505056fe6101c06040523480156200001257600080fd5b5060405162004f6638038062004f66833981016040819052620000359162000297565b6001600160a01b0380841660805280861660c05280851660e052859085908590859085908216156200006857816200006a565b305b6001600160a01b03166101205260408051635d458e8d60e11b81529051339163ba8b1d1a9160048083019260209291908290030181865afa158015620000b4573d6000803e3d6000fd5b505050506040513d601f19601f82011682018060405250810190620000da91906200031a565b610140523361010052806001811115620000f857620000f862000334565b60a08160018111156200010f576200010f62000334565b905250504693506200012692508391505062000249565b620001445760405163f21c9f0760e01b815260040160405180910390fd5b600181148062000156575062aa36a781145b15620001aa57600061016052600181146200018c5773aae29b0366299461418f5324a79afc425be5ae216101a0819052620001a8565b734dbd4fc535ac27206064b68ffcf827b0a60bab3f6101a08190525b505b61a4b1811480620001bd575062066eee81145b15620001ca576001610160525b336001600160a01b03166303c85ea36040518163ffffffff1660e01b8152600401602060405180830381865afa15801562000209573d6000803e3d6000fd5b505050506040513d601f19601f820116820180604052508101906200022f91906200034a565b6001600160a01b0316610180525062000371945050505050565b600060018214806200025d575062aa36a782145b806200026a575061a4b182145b8062000278575062066eee82145b92915050565b6001600160a01b03811681146200029457600080fd5b50565b600080600080600060a08688031215620002b057600080fd5b8551620002bd816200027e565b6020870151909550620002d0816200027e565b6040870151909450620002e3816200027e565b6060870151909350620002f6816200027e565b6080870151909250600281106200030c57600080fd5b809150509295509295909350565b6000602082840312156200032d57600080fd5b5051919050565b634e487b7160e01b600052602160045260246000fd5b6000602082840312156200035d57600080fd5b81516200036a816200027e565b9392505050565b60805160a05160c05160e05161010051610120516101405161016051610180516101a051614a76620004f0600039600081816103b901528181611d800152818161348501526136fe01526000818161053c0152818161356f015281816135e20152818161381901526138b2015260008181610508015281816114d40152611d470152600081816102200152818161080b0152818161088801528181610a2501528181610eae01528181610f5701528181611633015281816116f801528181611775015281816119f601528181611aaf01528181611bb10152611cd901526000818161038501528181611eec01528181611f34015281816136140152818161372e015281816138e1015261397a0152600061049301526000818161016d0152610a4e0152600081816103510152818161077c01528181610ed40152818161166e0152611a250152600081816104c701528181610bc401528181610e5001526110690152600081816105fc0152818161121401526112bd0152614a766000f3fe60806040526004361061014f5760003560e01c8063b1012368116100b6578063c6525f2c1161006f578063c6525f2c146104b5578063c86719b7146104f6578063defbb6971461052a578063e7f82c751461055e578063ed0e26b91461058b578063f434c914146105ea57600080fd5b8063b1012368146103a7578063b59ef50f146103db578063b71c1179146103fb578063bf557aee1461040e578063c185412914610461578063c1b8411a1461048157600080fd5b806369ce22331161010857806369ce22331461026557806369d31fdd146102855780636dfa7268146102985780637de6fba2146102c757806388bc2ef31461033f578063ad42938b1461037357600080fd5b80631d831d5c1461015b5780632241dc52146101ac57806338eb2044146101ce578063551ebbf0146101ee57806356539f391461020e57806361c864171461025057600080fd5b3661015657005b600080fd5b34801561016757600080fd5b5061018f7f000000000000000000000000000000000000000000000000000000000000000081565b6040516001600160a01b0390911681526020015b60405180910390f35b3480156101b857600080fd5b506101cc6101c7366004614272565b61061e565b005b3480156101da57600080fd5b506101cc6101e93660046142fe565b610656565b3480156101fa57600080fd5b506101cc61020936600461432f565b6109ef565b34801561021a57600080fd5b506102427f000000000000000000000000000000000000000000000000000000000000000081565b6040519081526020016101a3565b34801561025c57600080fd5b50610242610b6e565b34801561027157600080fd5b506101cc610280366004614379565b610bc0565b6101cc6102933660046142fe565b610c39565b3480156102a457600080fd5b506102b86102b3366004614379565b610daa565b6040516101a393929190614396565b3480156102d357600080fd5b506103156102e2366004614379565b6003602052600090815260409020805460019091015463ffffffff82169164010000000090046001600160a01b03169083565b6040805163ffffffff90941684526001600160a01b039092166020840152908201526060016101a3565b34801561034b57600080fd5b5061018f7f000000000000000000000000000000000000000000000000000000000000000081565b34801561037f57600080fd5b5061018f7f000000000000000000000000000000000000000000000000000000000000000081565b3480156103b357600080fd5b5061018f7f000000000000000000000000000000000000000000000000000000000000000081565b3480156103e757600080fd5b506101cc6103f63660046143ef565b610e14565b6101cc610409366004614379565b6110e8565b34801561041a57600080fd5b50610451610429366004614379565b6001600160a01b03908116600090815260036020526040902054640100000000900416151590565b60405190151581526020016101a3565b34801561046d57600080fd5b506101cc61047c366004614402565b611196565b34801561048d57600080fd5b5061018f7f000000000000000000000000000000000000000000000000000000000000000081565b3480156104c157600080fd5b506104e97f000000000000000000000000000000000000000000000000000000000000000081565b6040516101a39190614499565b34801561050257600080fd5b506104e97f000000000000000000000000000000000000000000000000000000000000000081565b34801561053657600080fd5b5061018f7f000000000000000000000000000000000000000000000000000000000000000081565b34801561056a57600080fd5b50610242610579366004614379565b60026020526000908152604090205481565b34801561059757600080fd5b506105cb6105a6366004614379565b600160208190526000918252604090912080549101546001600160401b039091169082565b604080516001600160401b0390931683526020830191909152016101a3565b3480156105f657600080fd5b5061018f7f000000000000000000000000000000000000000000000000000000000000000081565b60005b818110156106515761064983838381811061063e5761063e6144ac565b905060800201610656565b600101610621565b505050565b60006106656020830183614379565b9050600061eeee6106796020850185614379565b6001600160a01b03161490508080156106ac575061eeee6106a06060850160408601614379565b6001600160a01b031614155b80156106d1575060006106c56060850160408601614379565b6001600160a01b031614155b15610710576106e66060840160408501614379565b604051630a0a3b6b60e31b81526001600160a01b0390911660048201526024015b60405180910390fd5b62030d4061072460408501602086016144c2565b63ffffffff16108015610735575080155b156107775762030d4061074e60408501602086016144c2565b604051634f3dbeb360e11b815263ffffffff928316600482015291166024820152604401610707565b6108ae7f00000000000000000000000000000000000000000000000000000000000000006001600160a01b031663293c49996040518163ffffffff1660e01b8152600401602060405180830381865afa1580156107d8573d6000803e3d6000fd5b505050506040513d601f19601f820116820180604052508101906107fc91906144e8565b6040516331a9108f60e11b81527f000000000000000000000000000000000000000000000000000000000000000060048201526001600160a01b039190911690636352211e90602401602060405180830381865afa158015610862573d6000803e3d6000fd5b505050506040513d601f19601f8201168201806040525081019061088691906144e8565b7f0000000000000000000000000000000000000000000000000000000000000000601c6111ca565b60006108c06060850160408601614379565b6001600160a01b03161480156108f057506001600160a01b03821660009081526020819052604090206001015415155b1561094b576001600160a01b0380831660009081526003602090815260408083208151606081018352815463ffffffff811682526401000000009004909516928501929092526001909101549083015261094b91849061134e565b604051806060016040528084602001602081019061096991906144c2565b63ffffffff1681526020016109846060860160408701614379565b6001600160a01b0390811682526060909501356020918201529284166000908152600384526040908190208251815495840151909616640100000000026001600160c01b031990951663ffffffff909616959095179390931784559091015160019092019190915550565b6001600160a01b038316610a16576040516309a9c30b60e41b815260040160405180910390fd5b60405163ea78803f60e01b81527f000000000000000000000000000000000000000000000000000000000000000060048201526000907f00000000000000000000000000000000000000000000000000000000000000006001600160a01b03169063ea78803f90602401602060405180830381865afa158015610a9d573d6000803e3d6000fd5b505050506040513d601f19601f82011682018060405250810190610ac191906144e8565b90506001600160a01b038116610aea57604051635a33845560e01b815260040160405180910390fd5b6001600160a01b03828116600090815260036020526040902054640100000000900416610b355760405163393e175160e01b81526001600160a01b0383166004820152602401610707565b610b4a6001600160a01b0382163330886115bd565b6000610b5882878587611624565b9050610b6686848388611817565b505050505050565b6000466000198101610b835761a4b191505090565b61a4b18103610b9457600191505090565b62aa36a78103610ba85762066eee91505090565b62066eee8103610bbc5762aa36a791505090565b5090565b60007f00000000000000000000000000000000000000000000000000000000000000006001811115610bf457610bf4614465565b14610c125760405163218a9a2d60e11b815260040160405180910390fd5b6001600160a01b038116600090815260026020526040902054610c36908290611990565b50565b610c4233611d42565b610c5f57604051630439dbd360e51b815260040160405180910390fd5b60208101803590600290600090610c769085614379565b6001600160a01b03166001600160a01b031681526020019081526020016000206000828254610ca5919061451b565b90915550600190506000610cbc6020840184614379565b6001600160a01b0316815260208101919091526040908101600020546001600160401b031690610cf29060608401908401614543565b6001600160401b03161115610c36576040810160016000610d166020850185614379565b6001600160a01b031681526020810191909152604001600020610d398282614560565b50610d4990506020820182614379565b6001600160a01b03167f551b6b99b4c48e3265d2885ab0d93779be2402293261e074f7bf74b2c8f45b6f610d836060840160408501614543565b604080516001600160401b039092168252606085013560208301520160405180910390a250565b6000602081815291815260409081902080546001820154835161044081018086526001600160401b0390931695919490926002850192849283019184919082845b815481526020019060010190808311610deb575050509183525050602091820154910152905083565b610e4c6060820135610e296020840184614379565b6080840135610e3e6060860160408701614379565b602086013560a08701611f6f565b60017f00000000000000000000000000000000000000000000000000000000000000006001811115610e8057610e80614465565b03610e9f57610e9f610e956020830183614379565b6080830135611990565b604051632eec7b5560e11b81527f000000000000000000000000000000000000000000000000000000000000000060048201527f00000000000000000000000000000000000000000000000000000000000000006001600160a01b031690635dd8f6aa90602401602060405180830381865afa158015610f23573d6000803e3d6000fd5b505050506040513d601f19601f82011682018060405250810190610f4791906144e8565b6001600160a01b031663c7fb92de7f000000000000000000000000000000000000000000000000000000000000000060608401803590610f8a9060408701614379565b6040516001600160e01b031960e086901b168152600481019390935260248301919091526001600160a01b0316604482015260a06064820152600060a48201819052608482015260c4016020604051808303816000875af1158015610ff3573d6000803e3d6000fd5b505050506040513d601f19601f820116820180604052508101906110179190614593565b507f487194902d206a126abe9f23a4e2b78d1600ed8034b1423290a13edd6ebc7d146110496060830160408401614379565b6110566020840184614379565b60608401356080850135602086013560017f0000000000000000000000000000000000000000000000000000000000000000600181111561109957611099614465565b146110a55760006110a8565b60015b604080516001600160a01b0397881681529690951660208701529385019290925260608401526080830152151560a082015260c00160405180910390a150565b6001600160a01b0380821660008181526003602090815260408083208151606081018352815463ffffffff811682526401000000009004909616868401526001908101548683018190529484529183905290912001541015611187576040808201516001600160a01b0384166000908152602081905282902060010154915163091df9e560e31b81526107079290600401918252602082015260400190565b61119234838361134e565b5050565b60005b81811015610651576111c28383838181106111b6576111b66144ac565b90506104a00201610e14565b600101611199565b336001600160a01b0384168114801590611281575060405163c161c93f60e01b81526001600160a01b038281166004830152858116602483015260448201859052606482018490527f0000000000000000000000000000000000000000000000000000000000000000169063c161c93f90608401602060405180830381865afa15801561125b573d6000803e3d6000fd5b505050506040513d601f19601f8201168201806040525081019061127f91906145ac565b155b801561132a575060405163c161c93f60e01b81526001600160a01b038281166004830152858116602483015260006044830152606482018490527f0000000000000000000000000000000000000000000000000000000000000000169063c161c93f90608401602060405180830381865afa158015611304573d6000803e3d6000fd5b505050506040513d601f19601f8201168201806040525081019061132891906145ac565b155b156113485760405163075fd2b160e01b815260040160405180910390fd5b50505050565b6001600160a01b038216600090815260208190526040812060018101805490839055815490929190829061138a906001600160401b03166145ce565b91906101000a8154816001600160401b0302191690836001600160401b031602179055905060006001600160a01b031683602001516001600160a01b0316036113f15760405163393e175160e01b81526001600160a01b0385166004820152602401610707565b6000604051806060016040528085602001516001600160a01b031681526020018481526020016040518060400160405280856001600160401b031681526020016114606000808b6001600160a01b03166001600160a01b0316815260200190815260200160002060020161209f565b905290526040805182516001600160a01b031660248201526020808401516044830152929091015180516001600160401b0316606483015290910151608482015260a40160408051601f198184030181529190526020810180516001600160e01b03166369d31fdd60e01b179052905060007f0000000000000000000000000000000000000000000000000000000000000000600181111561150457611504614465565b0361151b576115168587858488613455565b611527565b611527858483876137c1565b6001600160a01b038516600081815260208190526040902061154b9060020161209f565b6001600160a01b0387166000908152602081905260409020602201547f3e069c1f498cba23d7d2b74b84311469e8da6e527cade62061d642c61b64e0de90611595906001906145f4565b604080519182526001600160401b0387166020830152015b60405180910390a3505050505050565b6040516001600160a01b0384811660248301528381166044830152606482018390526113489186918216906323b872dd906084015b604051602081830303815290604052915060e01b6020820180516001600160e01b0383818316178352505050506139e7565b604051630862026560e41b81527f000000000000000000000000000000000000000000000000000000000000000060048201526001600160a01b03838116602483015260009182917f00000000000000000000000000000000000000000000000000000000000000001690638620265090604401602060405180830381865afa1580156116b5573d6000803e3d6000fd5b505050506040513d601f19601f820116820180604052508101906116d991906144e8565b90506001600160a01b03811661173357604051630c9ae01360e01b81527f000000000000000000000000000000000000000000000000000000000000000060048201526001600160a01b0385166024820152604401610707565b600061173f8530613a4a565b60408051602081018252600081529051635db90a7f60e11b81529192506001600160a01b0384169163bb7214fe916117a59130917f0000000000000000000000000000000000000000000000000000000000000000918b918d918c918691600401614657565b6020604051808303816000875af11580156117c4573d6000803e3d6000fd5b505050506040513d601f19601f820116820180604052508101906117e89190614593565b9250806117f58630613a4a565b6117ff91906145f4565b831461180d5761180d6146a9565b5050949350505050565b6000611824858484613ae3565b6001600160a01b03851660009081526020818152604080832081516104408101808452959650939461188f9487949093600290930192849290830191849182845b81548152602001906001019080831161186557505050918352505060209182015491015290613b28565b6001600160a01b038616600090815260208181526040909120825192935083926002909101916118c09183916141e4565b50602091820151908201556001600160a01b0386166000908152908190526040812060010180548692906118f590849061451b565b92505081905550846001600160a01b0316836001600160a01b03167f7b58dbb78e7edc690b0688a53dea0c443d630c4a5db66c3c47d4ff2044c97728846001856020015161194391906145f4565b6001600160a01b038a1660009081526020819052604090206119679060020161209f565b60408051938452602084019290925290820152606081018a90526080810188905260a0016115ad565b6001600160a01b038216600090815260026020526040902054808211156119ca57604051632858f9ab60e11b815260040160405180910390fd5b6001600160a01b03838116600081815260026020526040808220868603905551630862026560e41b81527f000000000000000000000000000000000000000000000000000000000000000060048201526024810192909252917f00000000000000000000000000000000000000000000000000000000000000001690638620265090604401602060405180830381865afa158015611a6c573d6000803e3d6000fd5b505050506040513d601f19601f82011682018060405250810190611a9091906144e8565b90506001600160a01b038116611aea57604051630c9ae01360e01b81527f000000000000000000000000000000000000000000000000000000000000000060048201526001600160a01b0385166024820152604401610707565b6001600160a01b03841661eeee14611c9a576040516370a0823160e01b81523060048201526000906001600160a01b038616906370a0823190602401602060405180830381865afa158015611b43573d6000803e3d6000fd5b505050506040513d601f19601f82011682018060405250810190611b679190614593565b9050611b74858386613c2e565b60408051602080820183526000808352835191820184528082529251639e6eec0560e01b81526001600160a01b03861693639e6eec0593611be1937f0000000000000000000000000000000000000000000000000000000000000000938c938c93909290916004016146bf565b600060405180830381600087803b158015611bfb57600080fd5b505af1158015611c0f573d6000803e3d6000fd5b505050508381611c1f91906145f4565b6040516370a0823160e01b81523060048201526001600160a01b038716906370a0823190602401602060405180830381865afa158015611c63573d6000803e3d6000fd5b505050506040513d601f19601f82011682018060405250810190611c879190614593565b14611c9457611c946146a9565b50611348565b60408051602080820183526000808352835191820184528082529251639e6eec0560e01b81526001600160a01b03851693639e6eec05938893611d0a937f0000000000000000000000000000000000000000000000000000000000000000938c93879391929091906004016146bf565b6000604051808303818588803b158015611d2357600080fd5b505af1158015611d37573d6000803e3d6000fd5b505050505050505050565b6000807f00000000000000000000000000000000000000000000000000000000000000006001811115611d7757611d77614465565b03611f1d5760007f00000000000000000000000000000000000000000000000000000000000000006001600160a01b031663e78cea926040518163ffffffff1660e01b8152600401602060405180830381865afa158015611ddc573d6000803e3d6000fd5b505050506040513d601f19601f82011682018060405250810190611e0091906144e8565b9050806001600160a01b0316836001600160a01b0316148015611f165750806001600160a01b031663ab5d89436040518163ffffffff1660e01b8152600401602060405180830381865afa158015611e5c573d6000803e3d6000fd5b505050506040513d601f19601f82011682018060405250810190611e8091906144e8565b6001600160a01b03166380648b026040518163ffffffff1660e01b8152600401602060405180830381865afa158015611ebd573d6000803e3d6000fd5b505050506040513d601f19601f82011682018060405250810190611ee191906144e8565b6001600160a01b03167f00000000000000000000000000000000000000000000000000000000000000006001600160a01b0316145b9392505050565b7311110000000000000000000000000000000011117f0000000000000000000000000000000000000000000000000000000000000000016001600160a01b0316826001600160a01b0316149050919050565b6001600160a01b0385166000908152600460209081526040808320600886901c8452909152902054600160ff84161b1615611fc05760405163ed9bdd0760e01b815260048101839052602401610707565b6001600160a01b0385166000908152600460209081526040808320600886901c845290915281208054600160ff86161b17905561202f612001888787613ae3565b604080516104008181019092529085906020908390839080828437600092019190915250879150613cbe9050565b6001600160a01b038716600090815260016020819052604090912001549091508114612096576001600160a01b0386166000908152600160208190526040918290200154905163286f87c960e21b8152600481019190915260248101829052604401610707565b50505050505050565b60208101546000908082036120d657507f27ae5ba08d7291c96c8cbddcc148bf48a6d68c7974b94356f53754ef6171d75792915050565b60008360018316156120f85780546000526000602052604060002093506129ab565b600283161561213d5760018101546000527fad3228b676f7d3cd4284a5443f17f1962b36e491b30a40b2405849e597ba5fb560205260406000209350600191506129ab565b60048316156121825760028101546000527fb4c11951957c6f8f642c4af61cd6b24640fec6dc7fc607ee8206a99e92410d3060205260406000209350600291506129ab565b60088316156121c75760038101546000527f21ddb9a356815c3fac1026b6dec5df3124afbadb485c9ba5a3e3398a04b7ba8560205260406000209350600391506129ab565b601083161561220c5760048101546000527fe58769b32a1beaf1ea27375a44095a0d1fb664ce2dd358e7fcbfb78c26a1934460205260406000209350600491506129ab565b60208316156122515760058101546000527f0eb01ebfc9ed27500cd4dfc979272d1f0913cc9f66540d7e8005811109e1cf2d60205260406000209350600591506129ab565b60408316156122965760068101546000527f887c22bd8750d34016ac3c66b5ff102dacdd73f6b014e710b51e8022af9a196860205260406000209350600691506129ab565b60808316156122db5760078101546000527fffd70157e48063fc33c97a050f7f640233bf646cc98d9524c6b92bcf3ab56f8360205260406000209350600791506129ab565b6101008316156123215760088101546000527f9867cc5f7f196b93bae1e27e6320742445d290f2263827498b54fec539f756af60205260406000209350600891506129ab565b6102008316156123675760098101546000527fcefad4e508c098b9a7e1d8feb19955fb02ba9675585078710969d3440f5054e060205260406000209350600991506129ab565b6104008316156123ad57600a8101546000527ff9dc3e7fe016e050eff260334f18a5d4fe391d82092319f5964f2e2eb7c1c3a560205260406000209350600a91506129ab565b6108008316156123f357600b8101546000527ff8b13a49e282f609c317a833fb8d976d11517c571d1221a265d25af778ecf89260205260406000209350600b91506129ab565b61100083161561243957600c8101546000527f3490c6ceeb450aecdc82e28293031d10c7d73bf85e57bf041a97360aa2c5d99c60205260406000209350600c91506129ab565b61200083161561247f57600d8101546000527fc1df82d9c4b87413eae2ef048f94b4d3554cea73d92b0f7af96e0271c691e2bb60205260406000209350600d91506129ab565b6140008316156124c557600e8101546000527f5c67add7c6caf302256adedf7ab114da0acfe870d449a3a489f781d659e8becc60205260406000209350600e91506129ab565b61800083161561250b57600f8101546000527fda7bce9f4e8618b6bd2f4132ce798cdc7a60e7e1460a7299e3c6342a579626d260205260406000209350600f91506129ab565b620100008316156125525760108101546000527f2733e50f526ec2fa19a22b31e8ed50f23cd1fdf94c9154ed3a7609a2f1ff981f60205260406000209350601091506129ab565b620200008316156125995760118101546000527fe1d3b5c807b281e4683cc6d6315cf95b9ade8641defcb32372f1c126e398ef7a60205260406000209350601191506129ab565b620400008316156125e05760128101546000527f5a2dce0a8a7f68bb74560f8f71837c2c2ebbcbf7fffb42ae1896f13f7c7479a060205260406000209350601291506129ab565b620800008316156126275760138101546000527fb46a28b6f55540f89444f63de0378e3d121be09e06cc9ded1c20e65876d36aa060205260406000209350601391506129ab565b6210000083161561266e5760148101546000527fc65e9645644786b620e2dd2ad648ddfcbf4a7e5b1a3a4ecfe7f64667a3f0b7e260205260406000209350601491506129ab565b622000008316156126b55760158101546000527ff4418588ed35a2458cffeb39b93d26f18d2ab13bdce6aee58e7b99359ec2dfd960205260406000209350601591506129ab565b624000008316156126fc5760168101546000527f5a9c16dc00d6ef18b7933a6f8dc65ccb55667138776f7dea101070dc8796e37760205260406000209350601691506129ab565b628000008316156127435760178101546000527f4df84f40ae0c8229d0d6069e5c8f39a7c299677a09d367fc7b05e3bc380ee65260205260406000209350601791506129ab565b630100000083161561278b5760188101546000527fcdc72595f74c7b1043d0e1ffbab734648c838dfb0527d971b602bc216c9619ef60205260406000209350601891506129ab565b63020000008316156127d35760198101546000527f0abf5ac974a1ed57f4050aa510dd9c74f508277b39d7973bb2dfccc5eeb0618d60205260406000209350601991506129ab565b630400000083161561281b57601a8101546000527fb8cd74046ff337f0a7bf2c8e03e10f642c1886798d71806ab1e888d9e5ee87d060205260406000209350601a91506129ab565b630800000083161561286357601b8101546000527f838c5655cb21c6cb83313b5a631175dff4963772cce9108188b34ac87c81c41e60205260406000209350601b91506129ab565b63100000008316156128ab57601c8101546000527f662ee4dd2dd7b2bc707961b1e646c4047669dcb6584f0d8d770daf5d7e7deb2e60205260406000209350601c91506129ab565b63200000008316156128f357601d8101546000527f388ab20e2573d171a88108e79d820e98f26c0b84aa8b2f4aa4968dbb818ea32260205260406000209350601d91506129ab565b634000000083161561293b57601e8101546000527f93237c50ba75ee485f4c22adf2f741400bdf8d6a9cc7df7ecae576221665d73560205260406000209350601e91506129ab565b638000000083161561298357601f8101546000527f8448818bb4ae4562849e949e17ac16e0be16688e156b5cf15e098c627c0056a960205260406000209350601f91506129ab565b7f27ae5ba08d7291c96c8cbddcc148bf48a6d68c7974b94356f53754ef6171d7579350602091505b601e821161344d576001821015612a09576002831680156129d757600182015460005284602052612a00565b846000527fad3228b676f7d3cd4284a5443f17f1962b36e491b30a40b2405849e597ba5fb56020525b50604060002093505b6002821015612a5f57600483168015612a2d57600282015460005284602052612a56565b846000527fb4c11951957c6f8f642c4af61cd6b24640fec6dc7fc607ee8206a99e92410d306020525b50604060002093505b6003821015612ab557600883168015612a8357600382015460005284602052612aac565b846000527f21ddb9a356815c3fac1026b6dec5df3124afbadb485c9ba5a3e3398a04b7ba856020525b50604060002093505b6004821015612b0b57601083168015612ad957600482015460005284602052612b02565b846000527fe58769b32a1beaf1ea27375a44095a0d1fb664ce2dd358e7fcbfb78c26a193446020525b50604060002093505b6005821015612b6157602083168015612b2f57600582015460005284602052612b58565b846000527f0eb01ebfc9ed27500cd4dfc979272d1f0913cc9f66540d7e8005811109e1cf2d6020525b50604060002093505b6006821015612bb757604083168015612b8557600682015460005284602052612bae565b846000527f887c22bd8750d34016ac3c66b5ff102dacdd73f6b014e710b51e8022af9a19686020525b50604060002093505b6007821015612c0d57608083168015612bdb57600782015460005284602052612c04565b846000527fffd70157e48063fc33c97a050f7f640233bf646cc98d9524c6b92bcf3ab56f836020525b50604060002093505b6008821015612c645761010083168015612c3257600882015460005284602052612c5b565b846000527f9867cc5f7f196b93bae1e27e6320742445d290f2263827498b54fec539f756af6020525b50604060002093505b6009821015612cbb5761020083168015612c8957600982015460005284602052612cb2565b846000527fcefad4e508c098b9a7e1d8feb19955fb02ba9675585078710969d3440f5054e06020525b50604060002093505b600a821015612d125761040083168015612ce057600a82015460005284602052612d09565b846000527ff9dc3e7fe016e050eff260334f18a5d4fe391d82092319f5964f2e2eb7c1c3a56020525b50604060002093505b600b821015612d695761080083168015612d3757600b82015460005284602052612d60565b846000527ff8b13a49e282f609c317a833fb8d976d11517c571d1221a265d25af778ecf8926020525b50604060002093505b600c821015612dc05761100083168015612d8e57600c82015460005284602052612db7565b846000527f3490c6ceeb450aecdc82e28293031d10c7d73bf85e57bf041a97360aa2c5d99c6020525b50604060002093505b600d821015612e175761200083168015612de557600d82015460005284602052612e0e565b846000527fc1df82d9c4b87413eae2ef048f94b4d3554cea73d92b0f7af96e0271c691e2bb6020525b50604060002093505b600e821015612e6e5761400083168015612e3c57600e82015460005284602052612e65565b846000527f5c67add7c6caf302256adedf7ab114da0acfe870d449a3a489f781d659e8becc6020525b50604060002093505b600f821015612ec55761800083168015612e9357600f82015460005284602052612ebc565b846000527fda7bce9f4e8618b6bd2f4132ce798cdc7a60e7e1460a7299e3c6342a579626d26020525b50604060002093505b6010821015612f1d576201000083168015612eeb57601082015460005284602052612f14565b846000527f2733e50f526ec2fa19a22b31e8ed50f23cd1fdf94c9154ed3a7609a2f1ff981f6020525b50604060002093505b6011821015612f75576202000083168015612f4357601182015460005284602052612f6c565b846000527fe1d3b5c807b281e4683cc6d6315cf95b9ade8641defcb32372f1c126e398ef7a6020525b50604060002093505b6012821015612fcd576204000083168015612f9b57601282015460005284602052612fc4565b846000527f5a2dce0a8a7f68bb74560f8f71837c2c2ebbcbf7fffb42ae1896f13f7c7479a06020525b50604060002093505b6013821015613025576208000083168015612ff35760138201546000528460205261301c565b846000527fb46a28b6f55540f89444f63de0378e3d121be09e06cc9ded1c20e65876d36aa06020525b50604060002093505b601482101561307d57621000008316801561304b57601482015460005284602052613074565b846000527fc65e9645644786b620e2dd2ad648ddfcbf4a7e5b1a3a4ecfe7f64667a3f0b7e26020525b50604060002093505b60158210156130d55762200000831680156130a3576015820154600052846020526130cc565b846000527ff4418588ed35a2458cffeb39b93d26f18d2ab13bdce6aee58e7b99359ec2dfd96020525b50604060002093505b601682101561312d5762400000831680156130fb57601682015460005284602052613124565b846000527f5a9c16dc00d6ef18b7933a6f8dc65ccb55667138776f7dea101070dc8796e3776020525b50604060002093505b60178210156131855762800000831680156131535760178201546000528460205261317c565b846000527f4df84f40ae0c8229d0d6069e5c8f39a7c299677a09d367fc7b05e3bc380ee6526020525b50604060002093505b60188210156131de576301000000831680156131ac576018820154600052846020526131d5565b846000527fcdc72595f74c7b1043d0e1ffbab734648c838dfb0527d971b602bc216c9619ef6020525b50604060002093505b6019821015613237576302000000831680156132055760198201546000528460205261322e565b846000527f0abf5ac974a1ed57f4050aa510dd9c74f508277b39d7973bb2dfccc5eeb0618d6020525b50604060002093505b601a8210156132905763040000008316801561325e57601a82015460005284602052613287565b846000527fb8cd74046ff337f0a7bf2c8e03e10f642c1886798d71806ab1e888d9e5ee87d06020525b50604060002093505b601b8210156132e9576308000000831680156132b757601b820154600052846020526132e0565b846000527f838c5655cb21c6cb83313b5a631175dff4963772cce9108188b34ac87c81c41e6020525b50604060002093505b601c8210156133425763100000008316801561331057601c82015460005284602052613339565b846000527f662ee4dd2dd7b2bc707961b1e646c4047669dcb6584f0d8d770daf5d7e7deb2e6020525b50604060002093505b601d82101561339b5763200000008316801561336957601d82015460005284602052613392565b846000527f388ab20e2573d171a88108e79d820e98f26c0b84aa8b2f4aa4968dbb818ea3226020525b50604060002093505b601e8210156133f4576340000000831680156133c257601e820154600052846020526133eb565b846000527f93237c50ba75ee485f4c22adf2f741400bdf8d6a9cc7df7ecae576221665d7356020525b50604060002093505b601f82101561344d5763800000008316801561341b57601f82015460005284602052613444565b846000527f8448818bb4ae4562849e949e17ac16e0be16688e156b5cf15e098c627c0056a96020525b50604060002093505b505050919050565b815160405163a66b327d60e01b81526004810191909152630bebc200602482015260009081906001600160a01b037f0000000000000000000000000000000000000000000000000000000000000000169063a66b327d90604401602060405180830381865afa1580156134cc573d6000803e3d6000fd5b505050506040513d601f19601f820116820180604052508101906134f09190614593565b90506000613505620493e0630bebc200614706565b6135159063ffffffff168361451b565b90508087101561353857604051636eb14fc360e11b815260040160405180910390fd5b6001600160a01b03881661eeee146136ce57604051635ed004ff60e11b81526001600160a01b03808a1660048301526135e0918a917f0000000000000000000000000000000000000000000000000000000000000000169063bda009fe90602401602060405180830381865afa1580156135b6573d6000803e3d6000fd5b505050506040513d601f19601f820116820180604052508101906135da91906144e8565b88613c2e565b7f00000000000000000000000000000000000000000000000000000000000000006001600160a01b0316634fb1a07b888a337f00000000000000000000000000000000000000000000000000000000000000008b620493e0630bebc2008a8e60405160200161365092919061472e565b6040516020818303038152906040526040518963ffffffff1660e01b8152600401613681979695949392919061474f565b60006040518083038185885af115801561369f573d6000803e3d6000fd5b50505050506040513d6000823e601f3d908101601f191682016040526136c891908101906147b3565b506136d2565b8592505b866136dd828561451b565b11156136fc57604051636eb14fc360e11b815260040160405180910390fd5b7f00000000000000000000000000000000000000000000000000000000000000006001600160a01b031663679b6ded887f000000000000000000000000000000000000000000000000000000000000000086863333620493e0630bebc2008e6040518a63ffffffff1660e01b815260040161377e98979695949392919061485f565b60206040518083038185885af115801561379c573d6000803e3d6000fd5b50505050506040513d601f19601f82011682018060405250810190611d379190614593565b600034156137e2576040516352864b0160e11b815260040160405180910390fd5b6001600160a01b03851661eeee1461395957604051635ed004ff60e11b81526001600160a01b03808716600483015261388a9187917f0000000000000000000000000000000000000000000000000000000000000000169063bda009fe90602401602060405180830381865afa158015613860573d6000803e3d6000fd5b505050506040513d601f19601f8201168201806040525081019061388491906144e8565b86613c2e565b6020808301516040805192830181526000835251637b3a3c8b60e01b81526001600160a01b037f00000000000000000000000000000000000000000000000000000000000000001692637b3a3c8b9261390c9290917f0000000000000000000000000000000000000000000000000000000000000000918a91906004016148c4565b6000604051808303816000875af115801561392b573d6000803e3d6000fd5b505050506040513d6000823e601f3d908101601f1916820160405261395391908101906147b3565b5061395c565b50825b6040516349460b4d60e11b815260649063928c169a9083906139a4907f00000000000000000000000000000000000000000000000000000000000000009088906004016148f7565b60206040518083038185885af11580156139c2573d6000803e3d6000fd5b50505050506040513d601f19601f82011682018060405250810190610b669190614593565b60006139fc6001600160a01b0384168361400c565b90508051600014158015613a21575080806020019051810190613a1f91906145ac565b155b1561065157604051635274afe760e01b81526001600160a01b0384166004820152602401610707565b600061eeed196001600160a01b03841601613a7057506001600160a01b03811631613add565b6040516370a0823160e01b81526001600160a01b0383811660048301528416906370a0823190602401602060405180830381865afa158015613ab6573d6000803e3d6000fd5b505050506040513d601f19601f82011682018060405250810190613ada9190614593565b90505b92915050565b60408051602081018590529081018390526001600160a01b03821660608201526000906080016040516020818303038152906040528051906020012090509392505050565b613b3061421e565b6000836020018051613b419061491b565b9081905290506001613b5560206002614a18565b613b5f91906145f4565b811115613b7f57604051638eab04bb60e01b815260040160405180910390fd5b60005b6020811015613c145781600116600103613bbb57845184908260208110613bab57613bab6144ac565b602002015250839150613add9050565b84518160208110613bce57613bce6144ac565b602002015184604051602001613bee929190918252602082015260400190565b60408051601f1981840301815291905280516020909101209350600191821c9101613b82565b50604051638eab04bb60e01b815260040160405180910390fd5b604080516001600160a01b038416602482015260448082018490528251808303909101815260649091019091526020810180516001600160e01b031663095ea7b360e01b179052613c7f848261401a565b611348576040516001600160a01b03848116602483015260006044830152613cb491869182169063095ea7b3906064016115f2565b61134884826139e7565b6020600582811b8216948552835194820394909452604060008181206002851615871b808503919091528386015190528181206004851615871b808503919091528286015190528181206008851615871b80850391909152606086015190528181206010851615871b8085039190915260808087015190915282822084861615881b8086039190915260a0870151905282822083861615881b8086039190915260c0870151905282822090851615871b8085039190915260e0860151905281812061010080861615881b80860392909252860151905281812061020080861615881b80860392909252610120870151909152828220610400861615881b808603919091526101408701519052828220610800861615881b808603919091526101608701519052828220611000861615881b808603919091526101808701519052828220612000861615881b808603919091526101a08701519052828220614000861615881b808603919091526101c08701519052828220618000861615881b808603919091526101e0870151905282822062010000861615881b8086039190915290860151905281812062020000851615871b80850391909152610220860151905281812062040000851615871b80850391909152610240860151905281812062080000851615871b80850391909152610260860151905281812062100000851615871b80850391909152610280860151905281812062200000851615871b808503919091526102a0860151905281812062400000851615871b808503919091526102c0860151905281812062800000851615871b808503919091526102e086015190528181206301000000851615871b8085039190915261030086015190528181206302000000851615871b8085039190915261032086015190528181206304000000851615871b8085039190915261034086015190528181206308000000851615871b8085039190915261036086015190528181206310000000851615871b8085039190915261038086015190528181206320000000851615871b808503919091526103a086015190528181206340000000851615871b808503919091526103c0860151905281812063800000009094161590951b91829003929092526103e090920151909152902090565b6060613ada838360006140c2565b6000806000846001600160a01b0316846040516140379190614a24565b6000604051808303816000865af19150503d8060008114614074576040519150601f19603f3d011682016040523d82523d6000602084013e614079565b606091505b50915091508180156140a35750805115806140a35750808060200190518101906140a391906145ac565b80156140b957506000856001600160a01b03163b115b95945050505050565b6060814710156140e75760405163cd78605960e01b8152306004820152602401610707565b600080856001600160a01b031684866040516141039190614a24565b60006040518083038185875af1925050503d8060008114614140576040519150601f19603f3d011682016040523d82523d6000602084013e614145565b606091505b509150915061415586838361415f565b9695505050505050565b6060826141745761416f826141bb565b611f16565b815115801561418b57506001600160a01b0384163b155b156141b457604051639996b31560e01b81526001600160a01b0385166004820152602401610707565b5080611f16565b8051156141cb5780518082602001fd5b604051630a12f52160e11b815260040160405180910390fd5b8260208101928215614212579160200282015b828111156142125782518255916020019190600101906141f7565b50610bbc92915061423e565b6040518060400160405280614231614253565b8152602001600081525090565b5b80821115610bbc576000815560010161423f565b6040518061040001604052806020906020820280368337509192915050565b6000806020838503121561428557600080fd5b82356001600160401b038082111561429c57600080fd5b818501915085601f8301126142b057600080fd5b8135818111156142bf57600080fd5b8660208260071b85010111156142d457600080fd5b60209290920196919550909350505050565b6000608082840312156142f857600080fd5b50919050565b60006080828403121561431057600080fd5b613ada83836142e6565b6001600160a01b0381168114610c3657600080fd5b6000806000806080858703121561434557600080fd5b8435935060208501356143578161431a565b925060408501359150606085013561436e8161431a565b939692955090935050565b60006020828403121561438b57600080fd5b8135611f168161431a565b6001600160401b038416815260208082018490528251610460830191906000604085015b838210156143d85782518152918301916001919091019083016143ba565b505050506020830151610440830152949350505050565b60006104a082840312156142f857600080fd5b6000806020838503121561441557600080fd5b82356001600160401b038082111561442c57600080fd5b818501915085601f83011261444057600080fd5b81358181111561444f57600080fd5b8660206104a0830285010111156142d457600080fd5b634e487b7160e01b600052602160045260246000fd5b60028110610c3657634e487b7160e01b600052602160045260246000fd5b602081016144a68361447b565b91905290565b634e487b7160e01b600052603260045260246000fd5b6000602082840312156144d457600080fd5b813563ffffffff81168114611f1657600080fd5b6000602082840312156144fa57600080fd5b8151611f168161431a565b634e487b7160e01b600052601160045260246000fd5b80820180821115613add57613add614505565b6001600160401b0381168114610c3657600080fd5b60006020828403121561455557600080fd5b8135611f168161452e565b813561456b8161452e565b6001600160401b0381166001600160401b031983541617825550602082013560018201555050565b6000602082840312156145a557600080fd5b5051919050565b6000602082840312156145be57600080fd5b81518015158114611f1657600080fd5b60006001600160401b038083168181036145ea576145ea614505565b6001019392505050565b81810381811115613add57613add614505565b60005b8381101561462257818101518382015260200161460a565b50506000910152565b60008151808452614643816020860160208601614607565b601f01601f19169290920160200192915050565b600060018060a01b03808a168352886020840152808816604084015286606084015285608084015280851660a08401525060e060c083015261469c60e083018461462b565b9998505050505050505050565b634e487b7160e01b600052600160045260246000fd5b86815260018060a01b0386166020820152846040820152831515606082015260c0608082015260006146f460c083018561462b565b82810360a084015261469c818561462b565b63ffffffff81811683821602808216919082811461472657614726614505565b505092915050565b828152604060208201526000614747604083018461462b565b949350505050565b6001600160a01b0388811682528781166020830152861660408201526060810185905263ffffffff8416608082015260a0810183905260e060c0820181905260009061469c9083018461462b565b634e487b7160e01b600052604160045260246000fd5b6000602082840312156147c557600080fd5b81516001600160401b03808211156147dc57600080fd5b818401915084601f8301126147f057600080fd5b8151818111156148025761480261479d565b604051601f8201601f19908116603f0116810190838211818310171561482a5761482a61479d565b8160405282815287602084870101111561484357600080fd5b614854836020830160208801614607565b979650505050505050565b6001600160a01b038981168252602082018990526040820188905286811660608301528516608082015263ffffffff841660a082015260c0810183905261010060e082018190526000906148b58382018561462b565b9b9a5050505050505050505050565b6001600160a01b03858116825284166020820152604081018390526080606082018190526000906141559083018461462b565b6001600160a01b03831681526040602082018190526000906147479083018461462b565b60006001820161492d5761492d614505565b5060010190565b600181815b8085111561496f57816000190482111561495557614955614505565b8085161561496257918102915b93841c9390800290614939565b509250929050565b60008261498657506001613add565b8161499357506000613add565b81600181146149a957600281146149b3576149cf565b6001915050613add565b60ff8411156149c4576149c4614505565b50506001821b613add565b5060208310610133831016604e8410600b84101617156149f2575081810a613add565b6149fc8383614934565b8060001904821115614a1057614a10614505565b029392505050565b6000613ada8383614977565b60008251614a36818460208701614607565b919091019291505056fea26469706673582212200f84620a1a5796febcdbf3765a2c756457af40f7f6d1739533d3a249c6ad02c164736f6c63430008170033a264697066735822122005f2930484c81e56831d6e1b30851fca518988b2334827383b4e503e8917703764736f6c63430008170033",
			"deployedBytecode": "0x608060405234801561001057600080fd5b50600436106100625760003560e01c806303c85ea314610067578063121303661461008c578063ba8b1d1a1461009f578063c39ec124146100b6578063c86719b7146100e9578063f434c9141461011d575b600080fd5b61006f610144565b6040516001600160a01b0390911681526020015b60405180910390f35b61006f61009a3660046102fd565b6101dd565b6100a860015481565b604051908152602001610083565b6100d96100c436600461031f565b60006020819052908152604090205460ff1681565b6040519015158152602001610083565b6101107f000000000000000000000000000000000000000000000000000000000000000081565b6040516100839190610370565b61006f7f0000000000000000000000001e2e8562b635fe19978640c784e47865a83d660581565b600046600019810161016b577372ce9c846789fdb6fc1f34ac4ad25dd9ef7031ef91505090565b61a4b1810361018f57735288c571fd7ad117bea99bf60fe0846c4e84f93391505090565b62aa36a781036101b45773ce18836b233c83325cc8848ca4487e94c628826491505090565b62066eee81036101d957739fdd1c4e4aa24eec1d913fabea925594a20d43c791505090565b5090565b6040516bffffffffffffffffffffffff193360601b1660208201526034810182905260009060540160405160208183030381529060405280519060200120915082600181905550817f000000000000000000000000cd8c4da77dfb15c05486d3f71ee4c2c0dfdbc94e7f000000000000000000000000792b79adb4aa06eddabd6ddef5ee06dcb946f4367f0000000000000000000000001e2e8562b635fe19978640c784e47865a83d6605600080604051610297906102f0565b6102a5959493929190610383565b8190604051809103906000f59050801580156102c5573d6000803e3d6000fd5b506001600160a01b0381166000908152602081905260409020805460ff191660011790559392505050565b614f66806103c583390190565b6000806040838503121561031057600080fd5b50508035926020909101359150565b60006020828403121561033157600080fd5b81356001600160a01b038116811461034857600080fd5b9392505050565b6002811061036d57634e487b7160e01b600052602160045260246000fd5b50565b6020810161037d8361034f565b91905290565b6001600160a01b038681168252858116602083015284811660408301528316606082015260a081016103b48361034f565b826080830152969550505050505056fe6101c06040523480156200001257600080fd5b5060405162004f6638038062004f66833981016040819052620000359162000297565b6001600160a01b0380841660805280861660c05280851660e052859085908590859085908216156200006857816200006a565b305b6001600160a01b03166101205260408051635d458e8d60e11b81529051339163ba8b1d1a9160048083019260209291908290030181865afa158015620000b4573d6000803e3d6000fd5b505050506040513d601f19601f82011682018060405250810190620000da91906200031a565b610140523361010052806001811115620000f857620000f862000334565b60a08160018111156200010f576200010f62000334565b905250504693506200012692508391505062000249565b620001445760405163f21c9f0760e01b815260040160405180910390fd5b600181148062000156575062aa36a781145b15620001aa57600061016052600181146200018c5773aae29b0366299461418f5324a79afc425be5ae216101a0819052620001a8565b734dbd4fc535ac27206064b68ffcf827b0a60bab3f6101a08190525b505b61a4b1811480620001bd575062066eee81145b15620001ca576001610160525b336001600160a01b03166303c85ea36040518163ffffffff1660e01b8152600401602060405180830381865afa15801562000209573d6000803e3d6000fd5b505050506040513d601f19601f820116820180604052508101906200022f91906200034a565b6001600160a01b0316610180525062000371945050505050565b600060018214806200025d575062aa36a782145b806200026a575061a4b182145b8062000278575062066eee82145b92915050565b6001600160a01b03811681146200029457600080fd5b50565b600080600080600060a08688031215620002b057600080fd5b8551620002bd816200027e565b6020870151909550620002d0816200027e565b6040870151909450620002e3816200027e565b6060870151909350620002f6816200027e565b6080870151909250600281106200030c57600080fd5b809150509295509295909350565b6000602082840312156200032d57600080fd5b5051919050565b634e487b7160e01b600052602160045260246000fd5b6000602082840312156200035d57600080fd5b81516200036a816200027e565b9392505050565b60805160a05160c05160e05161010051610120516101405161016051610180516101a051614a76620004f0600039600081816103b901528181611d800152818161348501526136fe01526000818161053c0152818161356f015281816135e20152818161381901526138b2015260008181610508015281816114d40152611d470152600081816102200152818161080b0152818161088801528181610a2501528181610eae01528181610f5701528181611633015281816116f801528181611775015281816119f601528181611aaf01528181611bb10152611cd901526000818161038501528181611eec01528181611f34015281816136140152818161372e015281816138e1015261397a0152600061049301526000818161016d0152610a4e0152600081816103510152818161077c01528181610ed40152818161166e0152611a250152600081816104c701528181610bc401528181610e5001526110690152600081816105fc0152818161121401526112bd0152614a766000f3fe60806040526004361061014f5760003560e01c8063b1012368116100b6578063c6525f2c1161006f578063c6525f2c146104b5578063c86719b7146104f6578063defbb6971461052a578063e7f82c751461055e578063ed0e26b91461058b578063f434c914146105ea57600080fd5b8063b1012368146103a7578063b59ef50f146103db578063b71c1179146103fb578063bf557aee1461040e578063c185412914610461578063c1b8411a1461048157600080fd5b806369ce22331161010857806369ce22331461026557806369d31fdd146102855780636dfa7268146102985780637de6fba2146102c757806388bc2ef31461033f578063ad42938b1461037357600080fd5b80631d831d5c1461015b5780632241dc52146101ac57806338eb2044146101ce578063551ebbf0146101ee57806356539f391461020e57806361c864171461025057600080fd5b3661015657005b600080fd5b34801561016757600080fd5b5061018f7f000000000000000000000000000000000000000000000000000000000000000081565b6040516001600160a01b0390911681526020015b60405180910390f35b3480156101b857600080fd5b506101cc6101c7366004614272565b61061e565b005b3480156101da57600080fd5b506101cc6101e93660046142fe565b610656565b3480156101fa57600080fd5b506101cc61020936600461432f565b6109ef565b34801561021a57600080fd5b506102427f000000000000000000000000000000000000000000000000000000000000000081565b6040519081526020016101a3565b34801561025c57600080fd5b50610242610b6e565b34801561027157600080fd5b506101cc610280366004614379565b610bc0565b6101cc6102933660046142fe565b610c39565b3480156102a457600080fd5b506102b86102b3366004614379565b610daa565b6040516101a393929190614396565b3480156102d357600080fd5b506103156102e2366004614379565b6003602052600090815260409020805460019091015463ffffffff82169164010000000090046001600160a01b03169083565b6040805163ffffffff90941684526001600160a01b039092166020840152908201526060016101a3565b34801561034b57600080fd5b5061018f7f000000000000000000000000000000000000000000000000000000000000000081565b34801561037f57600080fd5b5061018f7f000000000000000000000000000000000000000000000000000000000000000081565b3480156103b357600080fd5b5061018f7f000000000000000000000000000000000000000000000000000000000000000081565b3480156103e757600080fd5b506101cc6103f63660046143ef565b610e14565b6101cc610409366004614379565b6110e8565b34801561041a57600080fd5b50610451610429366004614379565b6001600160a01b03908116600090815260036020526040902054640100000000900416151590565b60405190151581526020016101a3565b34801561046d57600080fd5b506101cc61047c366004614402565b611196565b34801561048d57600080fd5b5061018f7f000000000000000000000000000000000000000000000000000000000000000081565b3480156104c157600080fd5b506104e97f000000000000000000000000000000000000000000000000000000000000000081565b6040516101a39190614499565b34801561050257600080fd5b506104e97f000000000000000000000000000000000000000000000000000000000000000081565b34801561053657600080fd5b5061018f7f000000000000000000000000000000000000000000000000000000000000000081565b34801561056a57600080fd5b50610242610579366004614379565b60026020526000908152604090205481565b34801561059757600080fd5b506105cb6105a6366004614379565b600160208190526000918252604090912080549101546001600160401b039091169082565b604080516001600160401b0390931683526020830191909152016101a3565b3480156105f657600080fd5b5061018f7f000000000000000000000000000000000000000000000000000000000000000081565b60005b818110156106515761064983838381811061063e5761063e6144ac565b905060800201610656565b600101610621565b505050565b60006106656020830183614379565b9050600061eeee6106796020850185614379565b6001600160a01b03161490508080156106ac575061eeee6106a06060850160408601614379565b6001600160a01b031614155b80156106d1575060006106c56060850160408601614379565b6001600160a01b031614155b15610710576106e66060840160408501614379565b604051630a0a3b6b60e31b81526001600160a01b0390911660048201526024015b60405180910390fd5b62030d4061072460408501602086016144c2565b63ffffffff16108015610735575080155b156107775762030d4061074e60408501602086016144c2565b604051634f3dbeb360e11b815263ffffffff928316600482015291166024820152604401610707565b6108ae7f00000000000000000000000000000000000000000000000000000000000000006001600160a01b031663293c49996040518163ffffffff1660e01b8152600401602060405180830381865afa1580156107d8573d6000803e3d6000fd5b505050506040513d601f19601f820116820180604052508101906107fc91906144e8565b6040516331a9108f60e11b81527f000000000000000000000000000000000000000000000000000000000000000060048201526001600160a01b039190911690636352211e90602401602060405180830381865afa158015610862573d6000803e3d6000fd5b505050506040513d601f19601f8201168201806040525081019061088691906144e8565b7f0000000000000000000000000000000000000000000000000000000000000000601c6111ca565b60006108c06060850160408601614379565b6001600160a01b03161480156108f057506001600160a01b03821660009081526020819052604090206001015415155b1561094b576001600160a01b0380831660009081526003602090815260408083208151606081018352815463ffffffff811682526401000000009004909516928501929092526001909101549083015261094b91849061134e565b604051806060016040528084602001602081019061096991906144c2565b63ffffffff1681526020016109846060860160408701614379565b6001600160a01b0390811682526060909501356020918201529284166000908152600384526040908190208251815495840151909616640100000000026001600160c01b031990951663ffffffff909616959095179390931784559091015160019092019190915550565b6001600160a01b038316610a16576040516309a9c30b60e41b815260040160405180910390fd5b60405163ea78803f60e01b81527f000000000000000000000000000000000000000000000000000000000000000060048201526000907f00000000000000000000000000000000000000000000000000000000000000006001600160a01b03169063ea78803f90602401602060405180830381865afa158015610a9d573d6000803e3d6000fd5b505050506040513d601f19601f82011682018060405250810190610ac191906144e8565b90506001600160a01b038116610aea57604051635a33845560e01b815260040160405180910390fd5b6001600160a01b03828116600090815260036020526040902054640100000000900416610b355760405163393e175160e01b81526001600160a01b0383166004820152602401610707565b610b4a6001600160a01b0382163330886115bd565b6000610b5882878587611624565b9050610b6686848388611817565b505050505050565b6000466000198101610b835761a4b191505090565b61a4b18103610b9457600191505090565b62aa36a78103610ba85762066eee91505090565b62066eee8103610bbc5762aa36a791505090565b5090565b60007f00000000000000000000000000000000000000000000000000000000000000006001811115610bf457610bf4614465565b14610c125760405163218a9a2d60e11b815260040160405180910390fd5b6001600160a01b038116600090815260026020526040902054610c36908290611990565b50565b610c4233611d42565b610c5f57604051630439dbd360e51b815260040160405180910390fd5b60208101803590600290600090610c769085614379565b6001600160a01b03166001600160a01b031681526020019081526020016000206000828254610ca5919061451b565b90915550600190506000610cbc6020840184614379565b6001600160a01b0316815260208101919091526040908101600020546001600160401b031690610cf29060608401908401614543565b6001600160401b03161115610c36576040810160016000610d166020850185614379565b6001600160a01b031681526020810191909152604001600020610d398282614560565b50610d4990506020820182614379565b6001600160a01b03167f551b6b99b4c48e3265d2885ab0d93779be2402293261e074f7bf74b2c8f45b6f610d836060840160408501614543565b604080516001600160401b039092168252606085013560208301520160405180910390a250565b6000602081815291815260409081902080546001820154835161044081018086526001600160401b0390931695919490926002850192849283019184919082845b815481526020019060010190808311610deb575050509183525050602091820154910152905083565b610e4c6060820135610e296020840184614379565b6080840135610e3e6060860160408701614379565b602086013560a08701611f6f565b60017f00000000000000000000000000000000000000000000000000000000000000006001811115610e8057610e80614465565b03610e9f57610e9f610e956020830183614379565b6080830135611990565b604051632eec7b5560e11b81527f000000000000000000000000000000000000000000000000000000000000000060048201527f00000000000000000000000000000000000000000000000000000000000000006001600160a01b031690635dd8f6aa90602401602060405180830381865afa158015610f23573d6000803e3d6000fd5b505050506040513d601f19601f82011682018060405250810190610f4791906144e8565b6001600160a01b031663c7fb92de7f000000000000000000000000000000000000000000000000000000000000000060608401803590610f8a9060408701614379565b6040516001600160e01b031960e086901b168152600481019390935260248301919091526001600160a01b0316604482015260a06064820152600060a48201819052608482015260c4016020604051808303816000875af1158015610ff3573d6000803e3d6000fd5b505050506040513d601f19601f820116820180604052508101906110179190614593565b507f487194902d206a126abe9f23a4e2b78d1600ed8034b1423290a13edd6ebc7d146110496060830160408401614379565b6110566020840184614379565b60608401356080850135602086013560017f0000000000000000000000000000000000000000000000000000000000000000600181111561109957611099614465565b146110a55760006110a8565b60015b604080516001600160a01b0397881681529690951660208701529385019290925260608401526080830152151560a082015260c00160405180910390a150565b6001600160a01b0380821660008181526003602090815260408083208151606081018352815463ffffffff811682526401000000009004909616868401526001908101548683018190529484529183905290912001541015611187576040808201516001600160a01b0384166000908152602081905282902060010154915163091df9e560e31b81526107079290600401918252602082015260400190565b61119234838361134e565b5050565b60005b81811015610651576111c28383838181106111b6576111b66144ac565b90506104a00201610e14565b600101611199565b336001600160a01b0384168114801590611281575060405163c161c93f60e01b81526001600160a01b038281166004830152858116602483015260448201859052606482018490527f0000000000000000000000000000000000000000000000000000000000000000169063c161c93f90608401602060405180830381865afa15801561125b573d6000803e3d6000fd5b505050506040513d601f19601f8201168201806040525081019061127f91906145ac565b155b801561132a575060405163c161c93f60e01b81526001600160a01b038281166004830152858116602483015260006044830152606482018490527f0000000000000000000000000000000000000000000000000000000000000000169063c161c93f90608401602060405180830381865afa158015611304573d6000803e3d6000fd5b505050506040513d601f19601f8201168201806040525081019061132891906145ac565b155b156113485760405163075fd2b160e01b815260040160405180910390fd5b50505050565b6001600160a01b038216600090815260208190526040812060018101805490839055815490929190829061138a906001600160401b03166145ce565b91906101000a8154816001600160401b0302191690836001600160401b031602179055905060006001600160a01b031683602001516001600160a01b0316036113f15760405163393e175160e01b81526001600160a01b0385166004820152602401610707565b6000604051806060016040528085602001516001600160a01b031681526020018481526020016040518060400160405280856001600160401b031681526020016114606000808b6001600160a01b03166001600160a01b0316815260200190815260200160002060020161209f565b905290526040805182516001600160a01b031660248201526020808401516044830152929091015180516001600160401b0316606483015290910151608482015260a40160408051601f198184030181529190526020810180516001600160e01b03166369d31fdd60e01b179052905060007f0000000000000000000000000000000000000000000000000000000000000000600181111561150457611504614465565b0361151b576115168587858488613455565b611527565b611527858483876137c1565b6001600160a01b038516600081815260208190526040902061154b9060020161209f565b6001600160a01b0387166000908152602081905260409020602201547f3e069c1f498cba23d7d2b74b84311469e8da6e527cade62061d642c61b64e0de90611595906001906145f4565b604080519182526001600160401b0387166020830152015b60405180910390a3505050505050565b6040516001600160a01b0384811660248301528381166044830152606482018390526113489186918216906323b872dd906084015b604051602081830303815290604052915060e01b6020820180516001600160e01b0383818316178352505050506139e7565b604051630862026560e41b81527f000000000000000000000000000000000000000000000000000000000000000060048201526001600160a01b03838116602483015260009182917f00000000000000000000000000000000000000000000000000000000000000001690638620265090604401602060405180830381865afa1580156116b5573d6000803e3d6000fd5b505050506040513d601f19601f820116820180604052508101906116d991906144e8565b90506001600160a01b03811661173357604051630c9ae01360e01b81527f000000000000000000000000000000000000000000000000000000000000000060048201526001600160a01b0385166024820152604401610707565b600061173f8530613a4a565b60408051602081018252600081529051635db90a7f60e11b81529192506001600160a01b0384169163bb7214fe916117a59130917f0000000000000000000000000000000000000000000000000000000000000000918b918d918c918691600401614657565b6020604051808303816000875af11580156117c4573d6000803e3d6000fd5b505050506040513d601f19601f820116820180604052508101906117e89190614593565b9250806117f58630613a4a565b6117ff91906145f4565b831461180d5761180d6146a9565b5050949350505050565b6000611824858484613ae3565b6001600160a01b03851660009081526020818152604080832081516104408101808452959650939461188f9487949093600290930192849290830191849182845b81548152602001906001019080831161186557505050918352505060209182015491015290613b28565b6001600160a01b038616600090815260208181526040909120825192935083926002909101916118c09183916141e4565b50602091820151908201556001600160a01b0386166000908152908190526040812060010180548692906118f590849061451b565b92505081905550846001600160a01b0316836001600160a01b03167f7b58dbb78e7edc690b0688a53dea0c443d630c4a5db66c3c47d4ff2044c97728846001856020015161194391906145f4565b6001600160a01b038a1660009081526020819052604090206119679060020161209f565b60408051938452602084019290925290820152606081018a90526080810188905260a0016115ad565b6001600160a01b038216600090815260026020526040902054808211156119ca57604051632858f9ab60e11b815260040160405180910390fd5b6001600160a01b03838116600081815260026020526040808220868603905551630862026560e41b81527f000000000000000000000000000000000000000000000000000000000000000060048201526024810192909252917f00000000000000000000000000000000000000000000000000000000000000001690638620265090604401602060405180830381865afa158015611a6c573d6000803e3d6000fd5b505050506040513d601f19601f82011682018060405250810190611a9091906144e8565b90506001600160a01b038116611aea57604051630c9ae01360e01b81527f000000000000000000000000000000000000000000000000000000000000000060048201526001600160a01b0385166024820152604401610707565b6001600160a01b03841661eeee14611c9a576040516370a0823160e01b81523060048201526000906001600160a01b038616906370a0823190602401602060405180830381865afa158015611b43573d6000803e3d6000fd5b505050506040513d601f19601f82011682018060405250810190611b679190614593565b9050611b74858386613c2e565b60408051602080820183526000808352835191820184528082529251639e6eec0560e01b81526001600160a01b03861693639e6eec0593611be1937f0000000000000000000000000000000000000000000000000000000000000000938c938c93909290916004016146bf565b600060405180830381600087803b158015611bfb57600080fd5b505af1158015611c0f573d6000803e3d6000fd5b505050508381611c1f91906145f4565b6040516370a0823160e01b81523060048201526001600160a01b038716906370a0823190602401602060405180830381865afa158015611c63573d6000803e3d6000fd5b505050506040513d601f19601f82011682018060405250810190611c879190614593565b14611c9457611c946146a9565b50611348565b60408051602080820183526000808352835191820184528082529251639e6eec0560e01b81526001600160a01b03851693639e6eec05938893611d0a937f0000000000000000000000000000000000000000000000000000000000000000938c93879391929091906004016146bf565b6000604051808303818588803b158015611d2357600080fd5b505af1158015611d37573d6000803e3d6000fd5b505050505050505050565b6000807f00000000000000000000000000000000000000000000000000000000000000006001811115611d7757611d77614465565b03611f1d5760007f00000000000000000000000000000000000000000000000000000000000000006001600160a01b031663e78cea926040518163ffffffff1660e01b8152600401602060405180830381865afa158015611ddc573d6000803e3d6000fd5b505050506040513d601f19601f82011682018060405250810190611e0091906144e8565b9050806001600160a01b0316836001600160a01b0316148015611f165750806001600160a01b031663ab5d89436040518163ffffffff1660e01b8152600401602060405180830381865afa158015611e5c573d6000803e3d6000fd5b505050506040513d601f19601f82011682018060405250810190611e8091906144e8565b6001600160a01b03166380648b026040518163ffffffff1660e01b8152600401602060405180830381865afa158015611ebd573d6000803e3d6000fd5b505050506040513d601f19601f82011682018060405250810190611ee191906144e8565b6001600160a01b03167f00000000000000000000000000000000000000000000000000000000000000006001600160a01b0316145b9392505050565b7311110000000000000000000000000000000011117f0000000000000000000000000000000000000000000000000000000000000000016001600160a01b0316826001600160a01b0316149050919050565b6001600160a01b0385166000908152600460209081526040808320600886901c8452909152902054600160ff84161b1615611fc05760405163ed9bdd0760e01b815260048101839052602401610707565b6001600160a01b0385166000908152600460209081526040808320600886901c845290915281208054600160ff86161b17905561202f612001888787613ae3565b604080516104008181019092529085906020908390839080828437600092019190915250879150613cbe9050565b6001600160a01b038716600090815260016020819052604090912001549091508114612096576001600160a01b0386166000908152600160208190526040918290200154905163286f87c960e21b8152600481019190915260248101829052604401610707565b50505050505050565b60208101546000908082036120d657507f27ae5ba08d7291c96c8cbddcc148bf48a6d68c7974b94356f53754ef6171d75792915050565b60008360018316156120f85780546000526000602052604060002093506129ab565b600283161561213d5760018101546000527fad3228b676f7d3cd4284a5443f17f1962b36e491b30a40b2405849e597ba5fb560205260406000209350600191506129ab565b60048316156121825760028101546000527fb4c11951957c6f8f642c4af61cd6b24640fec6dc7fc607ee8206a99e92410d3060205260406000209350600291506129ab565b60088316156121c75760038101546000527f21ddb9a356815c3fac1026b6dec5df3124afbadb485c9ba5a3e3398a04b7ba8560205260406000209350600391506129ab565b601083161561220c5760048101546000527fe58769b32a1beaf1ea27375a44095a0d1fb664ce2dd358e7fcbfb78c26a1934460205260406000209350600491506129ab565b60208316156122515760058101546000527f0eb01ebfc9ed27500cd4dfc979272d1f0913cc9f66540d7e8005811109e1cf2d60205260406000209350600591506129ab565b60408316156122965760068101546000527f887c22bd8750d34016ac3c66b5ff102dacdd73f6b014e710b51e8022af9a196860205260406000209350600691506129ab565b60808316156122db5760078101546000527fffd70157e48063fc33c97a050f7f640233bf646cc98d9524c6b92bcf3ab56f8360205260406000209350600791506129ab565b6101008316156123215760088101546000527f9867cc5f7f196b93bae1e27e6320742445d290f2263827498b54fec539f756af60205260406000209350600891506129ab565b6102008316156123675760098101546000527fcefad4e508c098b9a7e1d8feb19955fb02ba9675585078710969d3440f5054e060205260406000209350600991506129ab565b6104008316156123ad57600a8101546000527ff9dc3e7fe016e050eff260334f18a5d4fe391d82092319f5964f2e2eb7c1c3a560205260406000209350600a91506129ab565b6108008316156123f357600b8101546000527ff8b13a49e282f609c317a833fb8d976d11517c571d1221a265d25af778ecf89260205260406000209350600b91506129ab565b61100083161561243957600c8101546000527f3490c6ceeb450aecdc82e28293031d10c7d73bf85e57bf041a97360aa2c5d99c60205260406000209350600c91506129ab565b61200083161561247f57600d8101546000527fc1df82d9c4b87413eae2ef048f94b4d3554cea73d92b0f7af96e0271c691e2bb60205260406000209350600d91506129ab565b6140008316156124c557600e8101546000527f5c67add7c6caf302256adedf7ab114da0acfe870d449a3a489f781d659e8becc60205260406000209350600e91506129ab565b61800083161561250b57600f8101546000527fda7bce9f4e8618b6bd2f4132ce798cdc7a60e7e1460a7299e3c6342a579626d260205260406000209350600f91506129ab565b620100008316156125525760108101546000527f2733e50f526ec2fa19a22b31e8ed50f23cd1fdf94c9154ed3a7609a2f1ff981f60205260406000209350601091506129ab565b620200008316156125995760118101546000527fe1d3b5c807b281e4683cc6d6315cf95b9ade8641defcb32372f1c126e398ef7a60205260406000209350601191506129ab565b620400008316156125e05760128101546000527f5a2dce0a8a7f68bb74560f8f71837c2c2ebbcbf7fffb42ae1896f13f7c7479a060205260406000209350601291506129ab565b620800008316156126275760138101546000527fb46a28b6f55540f89444f63de0378e3d121be09e06cc9ded1c20e65876d36aa060205260406000209350601391506129ab565b6210000083161561266e5760148101546000527fc65e9645644786b620e2dd2ad648ddfcbf4a7e5b1a3a4ecfe7f64667a3f0b7e260205260406000209350601491506129ab565b622000008316156126b55760158101546000527ff4418588ed35a2458cffeb39b93d26f18d2ab13bdce6aee58e7b99359ec2dfd960205260406000209350601591506129ab565b624000008316156126fc5760168101546000527f5a9c16dc00d6ef18b7933a6f8dc65ccb55667138776f7dea101070dc8796e37760205260406000209350601691506129ab565b628000008316156127435760178101546000527f4df84f40ae0c8229d0d6069e5c8f39a7c299677a09d367fc7b05e3bc380ee65260205260406000209350601791506129ab565b630100000083161561278b5760188101546000527fcdc72595f74c7b1043d0e1ffbab734648c838dfb0527d971b602bc216c9619ef60205260406000209350601891506129ab565b63020000008316156127d35760198101546000527f0abf5ac974a1ed57f4050aa510dd9c74f508277b39d7973bb2dfccc5eeb0618d60205260406000209350601991506129ab565b630400000083161561281b57601a8101546000527fb8cd74046ff337f0a7bf2c8e03e10f642c1886798d71806ab1e888d9e5ee87d060205260406000209350601a91506129ab565b630800000083161561286357601b8101546000527f838c5655cb21c6cb83313b5a631175dff4963772cce9108188b34ac87c81c41e60205260406000209350601b91506129ab565b63100000008316156128ab57601c8101546000527f662ee4dd2dd7b2bc707961b1e646c4047669dcb6584f0d8d770daf5d7e7deb2e60205260406000209350601c91506129ab565b63200000008316156128f357601d8101546000527f388ab20e2573d171a88108e79d820e98f26c0b84aa8b2f4aa4968dbb818ea32260205260406000209350601d91506129ab565b634000000083161561293b57601e8101546000527f93237c50ba75ee485f4c22adf2f741400bdf8d6a9cc7df7ecae576221665d73560205260406000209350601e91506129ab565b638000000083161561298357601f8101546000527f8448818bb4ae4562849e949e17ac16e0be16688e156b5cf15e098c627c0056a960205260406000209350601f91506129ab565b7f27ae5ba08d7291c96c8cbddcc148bf48a6d68c7974b94356f53754ef6171d7579350602091505b601e821161344d576001821015612a09576002831680156129d757600182015460005284602052612a00565b846000527fad3228b676f7d3cd4284a5443f17f1962b36e491b30a40b2405849e597ba5fb56020525b50604060002093505b6002821015612a5f57600483168015612a2d57600282015460005284602052612a56565b846000527fb4c11951957c6f8f642c4af61cd6b24640fec6dc7fc607ee8206a99e92410d306020525b50604060002093505b6003821015612ab557600883168015612a8357600382015460005284602052612aac565b846000527f21ddb9a356815c3fac1026b6dec5df3124afbadb485c9ba5a3e3398a04b7ba856020525b50604060002093505b6004821015612b0b57601083168015612ad957600482015460005284602052612b02565b846000527fe58769b32a1beaf1ea27375a44095a0d1fb664ce2dd358e7fcbfb78c26a193446020525b50604060002093505b6005821015612b6157602083168015612b2f57600582015460005284602052612b58565b846000527f0eb01ebfc9ed27500cd4dfc979272d1f0913cc9f66540d7e8005811109e1cf2d6020525b50604060002093505b6006821015612bb757604083168015612b8557600682015460005284602052612bae565b846000527f887c22bd8750d34016ac3c66b5ff102dacdd73f6b014e710b51e8022af9a19686020525b50604060002093505b6007821015612c0d57608083168015612bdb57600782015460005284602052612c04565b846000527fffd70157e48063fc33c97a050f7f640233bf646cc98d9524c6b92bcf3ab56f836020525b50604060002093505b6008821015612c645761010083168015612c3257600882015460005284602052612c5b565b846000527f9867cc5f7f196b93bae1e27e6320742445d290f2263827498b54fec539f756af6020525b50604060002093505b6009821015612cbb5761020083168015612c8957600982015460005284602052612cb2565b846000527fcefad4e508c098b9a7e1d8feb19955fb02ba9675585078710969d3440f5054e06020525b50604060002093505b600a821015612d125761040083168015612ce057600a82015460005284602052612d09565b846000527ff9dc3e7fe016e050eff260334f18a5d4fe391d82092319f5964f2e2eb7c1c3a56020525b50604060002093505b600b821015612d695761080083168015612d3757600b82015460005284602052612d60565b846000527ff8b13a49e282f609c317a833fb8d976d11517c571d1221a265d25af778ecf8926020525b50604060002093505b600c821015612dc05761100083168015612d8e57600c82015460005284602052612db7565b846000527f3490c6ceeb450aecdc82e28293031d10c7d73bf85e57bf041a97360aa2c5d99c6020525b50604060002093505b600d821015612e175761200083168015612de557600d82015460005284602052612e0e565b846000527fc1df82d9c4b87413eae2ef048f94b4d3554cea73d92b0f7af96e0271c691e2bb6020525b50604060002093505b600e821015612e6e5761400083168015612e3c57600e82015460005284602052612e65565b846000527f5c67add7c6caf302256adedf7ab114da0acfe870d449a3a489f781d659e8becc6020525b50604060002093505b600f821015612ec55761800083168015612e9357600f82015460005284602052612ebc565b846000527fda7bce9f4e8618b6bd2f4132ce798cdc7a60e7e1460a7299e3c6342a579626d26020525b50604060002093505b6010821015612f1d576201000083168015612eeb57601082015460005284602052612f14565b846000527f2733e50f526ec2fa19a22b31e8ed50f23cd1fdf94c9154ed3a7609a2f1ff981f6020525b50604060002093505b6011821015612f75576202000083168015612f4357601182015460005284602052612f6c565b846000527fe1d3b5c807b281e4683cc6d6315cf95b9ade8641defcb32372f1c126e398ef7a6020525b50604060002093505b6012821015612fcd576204000083168015612f9b57601282015460005284602052612fc4565b846000527f5a2dce0a8a7f68bb74560f8f71837c2c2ebbcbf7fffb42ae1896f13f7c7479a06020525b50604060002093505b6013821015613025576208000083168015612ff35760138201546000528460205261301c565b846000527fb46a28b6f55540f89444f63de0378e3d121be09e06cc9ded1c20e65876d36aa06020525b50604060002093505b601482101561307d57621000008316801561304b57601482015460005284602052613074565b846000527fc65e9645644786b620e2dd2ad648ddfcbf4a7e5b1a3a4ecfe7f64667a3f0b7e26020525b50604060002093505b60158210156130d55762200000831680156130a3576015820154600052846020526130cc565b846000527ff4418588ed35a2458cffeb39b93d26f18d2ab13bdce6aee58e7b99359ec2dfd96020525b50604060002093505b601682101561312d5762400000831680156130fb57601682015460005284602052613124565b846000527f5a9c16dc00d6ef18b7933a6f8dc65ccb55667138776f7dea101070dc8796e3776020525b50604060002093505b60178210156131855762800000831680156131535760178201546000528460205261317c565b846000527f4df84f40ae0c8229d0d6069e5c8f39a7c299677a09d367fc7b05e3bc380ee6526020525b50604060002093505b60188210156131de576301000000831680156131ac576018820154600052846020526131d5565b846000527fcdc72595f74c7b1043d0e1ffbab734648c838dfb0527d971b602bc216c9619ef6020525b50604060002093505b6019821015613237576302000000831680156132055760198201546000528460205261322e565b846000527f0abf5ac974a1ed57f4050aa510dd9c74f508277b39d7973bb2dfccc5eeb0618d6020525b50604060002093505b601a8210156132905763040000008316801561325e57601a82015460005284602052613287565b846000527fb8cd74046ff337f0a7bf2c8e03e10f642c1886798d71806ab1e888d9e5ee87d06020525b50604060002093505b601b8210156132e9576308000000831680156132b757601b820154600052846020526132e0565b846000527f838c5655cb21c6cb83313b5a631175dff4963772cce9108188b34ac87c81c41e6020525b50604060002093505b601c8210156133425763100000008316801561331057601c82015460005284602052613339565b846000527f662ee4dd2dd7b2bc707961b1e646c4047669dcb6584f0d8d770daf5d7e7deb2e6020525b50604060002093505b601d82101561339b5763200000008316801561336957601d82015460005284602052613392565b846000527f388ab20e2573d171a88108e79d820e98f26c0b84aa8b2f4aa4968dbb818ea3226020525b50604060002093505b601e8210156133f4576340000000831680156133c257601e820154600052846020526133eb565b846000527f93237c50ba75ee485f4c22adf2f741400bdf8d6a9cc7df7ecae576221665d7356020525b50604060002093505b601f82101561344d5763800000008316801561341b57601f82015460005284602052613444565b846000527f8448818bb4ae4562849e949e17ac16e0be16688e156b5cf15e098c627c0056a96020525b50604060002093505b505050919050565b815160405163a66b327d60e01b81526004810191909152630bebc200602482015260009081906001600160a01b037f0000000000000000000000000000000000000000000000000000000000000000169063a66b327d90604401602060405180830381865afa1580156134cc573d6000803e3d6000fd5b505050506040513d601f19601f820116820180604052508101906134f09190614593565b90506000613505620493e0630bebc200614706565b6135159063ffffffff168361451b565b90508087101561353857604051636eb14fc360e11b815260040160405180910390fd5b6001600160a01b03881661eeee146136ce57604051635ed004ff60e11b81526001600160a01b03808a1660048301526135e0918a917f0000000000000000000000000000000000000000000000000000000000000000169063bda009fe90602401602060405180830381865afa1580156135b6573d6000803e3d6000fd5b505050506040513d601f19601f820116820180604052508101906135da91906144e8565b88613c2e565b7f00000000000000000000000000000000000000000000000000000000000000006001600160a01b0316634fb1a07b888a337f00000000000000000000000000000000000000000000000000000000000000008b620493e0630bebc2008a8e60405160200161365092919061472e565b6040516020818303038152906040526040518963ffffffff1660e01b8152600401613681979695949392919061474f565b60006040518083038185885af115801561369f573d6000803e3d6000fd5b50505050506040513d6000823e601f3d908101601f191682016040526136c891908101906147b3565b506136d2565b8592505b866136dd828561451b565b11156136fc57604051636eb14fc360e11b815260040160405180910390fd5b7f00000000000000000000000000000000000000000000000000000000000000006001600160a01b031663679b6ded887f000000000000000000000000000000000000000000000000000000000000000086863333620493e0630bebc2008e6040518a63ffffffff1660e01b815260040161377e98979695949392919061485f565b60206040518083038185885af115801561379c573d6000803e3d6000fd5b50505050506040513d601f19601f82011682018060405250810190611d379190614593565b600034156137e2576040516352864b0160e11b815260040160405180910390fd5b6001600160a01b03851661eeee1461395957604051635ed004ff60e11b81526001600160a01b03808716600483015261388a9187917f0000000000000000000000000000000000000000000000000000000000000000169063bda009fe90602401602060405180830381865afa158015613860573d6000803e3d6000fd5b505050506040513d601f19601f8201168201806040525081019061388491906144e8565b86613c2e565b6020808301516040805192830181526000835251637b3a3c8b60e01b81526001600160a01b037f00000000000000000000000000000000000000000000000000000000000000001692637b3a3c8b9261390c9290917f0000000000000000000000000000000000000000000000000000000000000000918a91906004016148c4565b6000604051808303816000875af115801561392b573d6000803e3d6000fd5b505050506040513d6000823e601f3d908101601f1916820160405261395391908101906147b3565b5061395c565b50825b6040516349460b4d60e11b815260649063928c169a9083906139a4907f00000000000000000000000000000000000000000000000000000000000000009088906004016148f7565b60206040518083038185885af11580156139c2573d6000803e3d6000fd5b50505050506040513d601f19601f82011682018060405250810190610b669190614593565b60006139fc6001600160a01b0384168361400c565b90508051600014158015613a21575080806020019051810190613a1f91906145ac565b155b1561065157604051635274afe760e01b81526001600160a01b0384166004820152602401610707565b600061eeed196001600160a01b03841601613a7057506001600160a01b03811631613add565b6040516370a0823160e01b81526001600160a01b0383811660048301528416906370a0823190602401602060405180830381865afa158015613ab6573d6000803e3d6000fd5b505050506040513d601f19601f82011682018060405250810190613ada9190614593565b90505b92915050565b60408051602081018590529081018390526001600160a01b03821660608201526000906080016040516020818303038152906040528051906020012090509392505050565b613b3061421e565b6000836020018051613b419061491b565b9081905290506001613b5560206002614a18565b613b5f91906145f4565b811115613b7f57604051638eab04bb60e01b815260040160405180910390fd5b60005b6020811015613c145781600116600103613bbb57845184908260208110613bab57613bab6144ac565b602002015250839150613add9050565b84518160208110613bce57613bce6144ac565b602002015184604051602001613bee929190918252602082015260400190565b60408051601f1981840301815291905280516020909101209350600191821c9101613b82565b50604051638eab04bb60e01b815260040160405180910390fd5b604080516001600160a01b038416602482015260448082018490528251808303909101815260649091019091526020810180516001600160e01b031663095ea7b360e01b179052613c7f848261401a565b611348576040516001600160a01b03848116602483015260006044830152613cb491869182169063095ea7b3906064016115f2565b61134884826139e7565b6020600582811b8216948552835194820394909452604060008181206002851615871b808503919091528386015190528181206004851615871b808503919091528286015190528181206008851615871b80850391909152606086015190528181206010851615871b8085039190915260808087015190915282822084861615881b8086039190915260a0870151905282822083861615881b8086039190915260c0870151905282822090851615871b8085039190915260e0860151905281812061010080861615881b80860392909252860151905281812061020080861615881b80860392909252610120870151909152828220610400861615881b808603919091526101408701519052828220610800861615881b808603919091526101608701519052828220611000861615881b808603919091526101808701519052828220612000861615881b808603919091526101a08701519052828220614000861615881b808603919091526101c08701519052828220618000861615881b808603919091526101e0870151905282822062010000861615881b8086039190915290860151905281812062020000851615871b80850391909152610220860151905281812062040000851615871b80850391909152610240860151905281812062080000851615871b80850391909152610260860151905281812062100000851615871b80850391909152610280860151905281812062200000851615871b808503919091526102a0860151905281812062400000851615871b808503919091526102c0860151905281812062800000851615871b808503919091526102e086015190528181206301000000851615871b8085039190915261030086015190528181206302000000851615871b8085039190915261032086015190528181206304000000851615871b8085039190915261034086015190528181206308000000851615871b8085039190915261036086015190528181206310000000851615871b8085039190915261038086015190528181206320000000851615871b808503919091526103a086015190528181206340000000851615871b808503919091526103c0860151905281812063800000009094161590951b91829003929092526103e090920151909152902090565b6060613ada838360006140c2565b6000806000846001600160a01b0316846040516140379190614a24565b6000604051808303816000865af19150503d8060008114614074576040519150601f19603f3d011682016040523d82523d6000602084013e614079565b606091505b50915091508180156140a35750805115806140a35750808060200190518101906140a391906145ac565b80156140b957506000856001600160a01b03163b115b95945050505050565b6060814710156140e75760405163cd78605960e01b8152306004820152602401610707565b600080856001600160a01b031684866040516141039190614a24565b60006040518083038185875af1925050503d8060008114614140576040519150601f19603f3d011682016040523d82523d6000602084013e614145565b606091505b509150915061415586838361415f565b9695505050505050565b6060826141745761416f826141bb565b611f16565b815115801561418b57506001600160a01b0384163b155b156141b457604051639996b31560e01b81526001600160a01b0385166004820152602401610707565b5080611f16565b8051156141cb5780518082602001fd5b604051630a12f52160e11b815260040160405180910390fd5b8260208101928215614212579160200282015b828111156142125782518255916020019190600101906141f7565b50610bbc92915061423e565b6040518060400160405280614231614253565b8152602001600081525090565b5b80821115610bbc576000815560010161423f565b6040518061040001604052806020906020820280368337509192915050565b6000806020838503121561428557600080fd5b82356001600160401b038082111561429c57600080fd5b818501915085601f8301126142b057600080fd5b8135818111156142bf57600080fd5b8660208260071b85010111156142d457600080fd5b60209290920196919550909350505050565b6000608082840312156142f857600080fd5b50919050565b60006080828403121561431057600080fd5b613ada83836142e6565b6001600160a01b0381168114610c3657600080fd5b6000806000806080858703121561434557600080fd5b8435935060208501356143578161431a565b925060408501359150606085013561436e8161431a565b939692955090935050565b60006020828403121561438b57600080fd5b8135611f168161431a565b6001600160401b038416815260208082018490528251610460830191906000604085015b838210156143d85782518152918301916001919091019083016143ba565b505050506020830151610440830152949350505050565b60006104a082840312156142f857600080fd5b6000806020838503121561441557600080fd5b82356001600160401b038082111561442c57600080fd5b818501915085601f83011261444057600080fd5b81358181111561444f57600080fd5b8660206104a0830285010111156142d457600080fd5b634e487b7160e01b600052602160045260246000fd5b60028110610c3657634e487b7160e01b600052602160045260246000fd5b602081016144a68361447b565b91905290565b634e487b7160e01b600052603260045260246000fd5b6000602082840312156144d457600080fd5b813563ffffffff81168114611f1657600080fd5b6000602082840312156144fa57600080fd5b8151611f168161431a565b634e487b7160e01b600052601160045260246000fd5b80820180821115613add57613add614505565b6001600160401b0381168114610c3657600080fd5b60006020828403121561455557600080fd5b8135611f168161452e565b813561456b8161452e565b6001600160401b0381166001600160401b031983541617825550602082013560018201555050565b6000602082840312156145a557600080fd5b5051919050565b6000602082840312156145be57600080fd5b81518015158114611f1657600080fd5b60006001600160401b038083168181036145ea576145ea614505565b6001019392505050565b81810381811115613add57613add614505565b60005b8381101561462257818101518382015260200161460a565b50506000910152565b60008151808452614643816020860160208601614607565b601f01601f19169290920160200192915050565b600060018060a01b03808a168352886020840152808816604084015286606084015285608084015280851660a08401525060e060c083015261469c60e083018461462b565b9998505050505050505050565b634e487b7160e01b600052600160045260246000fd5b86815260018060a01b0386166020820152846040820152831515606082015260c0608082015260006146f460c083018561462b565b82810360a084015261469c818561462b565b63ffffffff81811683821602808216919082811461472657614726614505565b505092915050565b828152604060208201526000614747604083018461462b565b949350505050565b6001600160a01b0388811682528781166020830152861660408201526060810185905263ffffffff8416608082015260a0810183905260e060c0820181905260009061469c9083018461462b565b634e487b7160e01b600052604160045260246000fd5b6000602082840312156147c557600080fd5b81516001600160401b03808211156147dc57600080fd5b818401915084601f8301126147f057600080fd5b8151818111156148025761480261479d565b604051601f8201601f19908116603f0116810190838211818310171561482a5761482a61479d565b8160405282815287602084870101111561484357600080fd5b614854836020830160208801614607565b979650505050505050565b6001600160a01b038981168252602082018990526040820188905286811660608301528516608082015263ffffffff841660a082015260c0810183905261010060e082018190526000906148b58382018561462b565b9b9a5050505050505050505050565b6001600160a01b03858116825284166020820152604081018390526080606082018190526000906141559083018461462b565b6001600160a01b03831681526040602082018190526000906147479083018461462b565b60006001820161492d5761492d614505565b5060010190565b600181815b8085111561496f57816000190482111561495557614955614505565b8085161561496257918102915b93841c9390800290614939565b509250929050565b60008261498657506001613add565b8161499357506000613add565b81600181146149a957600281146149b3576149cf565b6001915050613add565b60ff8411156149c4576149c4614505565b50506001821b613add565b5060208310610133831016604e8410600b84101617156149f2575081810a613add565b6149fc8383614934565b8060001904821115614a1057614a10614505565b029392505050565b6000613ada8383614977565b60008251614a36818460208701614607565b919091019291505056fea26469706673582212200f84620a1a5796febcdbf3765a2c756457af40f7f6d1739533d3a249c6ad02c164736f6c63430008170033a264697066735822122005f2930484c81e56831d6e1b30851fca518988b2334827383b4e503e8917703764736f6c63430008170033",
			"devdoc": {
				"kind": "dev",
				"methods": {
					"createForSender(uint256,bytes32)": {
						"details": "Uses the sender address as the salt, which means the same sender must call this function on both chains.",
						"params": {
							"localProjectId": "The project's ID on the local chain.",
							"salt": "The salt to use for the `create2` address."
						},
						"returns": {
							"sucker": "The address of the new sucker."
						}
					},
					"gatewayRouter()": {
						"returns": {
							"gateway": "for the current chain."
						}
					}
				},
				"version": 1
			},
			"userdoc": {
				"kind": "user",
				"methods": {
					"LAYER()": {
						"notice": "The layer that this contract is on."
					},
					"PERMISSIONS()": {
						"notice": "A contract storing permissions."
					},
					"TEMP_ID_STORE()": {
						"notice": "A temporary storage slot used by suckers to maintain deterministic deploys."
					},
					"createForSender(uint256,bytes32)": {
						"notice": "Create a new `BPSucker` for a specific project."
					},
					"gatewayRouter()": {
						"notice": "Returns the gateway router address for the current chain"
					},
					"isSucker(address)": {
						"notice": "A mapping of suckers deployed by this contract."
					}
				},
				"version": 1
			},
			"gitCommit": "d5bddfe8fea06c5a2093abc681b2459a7f8607fd",
			"sourceName": "src/deployers/BPArbitrumSuckerDeployer.sol",
			"chainId": "11155111",
			"linkReferences": {},
			"deployedLinkReferences": {}
		},
		{
			"_format": "sphinx-sol-ct-artifact-1",
			"merkleRoot": "0x42a2fc1b7cd9d8f8678e9e4ddfbb57c5b9fdbb1e0ef37d960a5007d79d1f1415",
			"contractName": "BPArbitrumSuckerDeployer",
			"address": "0x133955356227fABEeF30436F8e9B381d5850b126",
			"abi": [
				{
					"type": "constructor",
					"inputs": [
						{
							"name": "directory",
							"type": "address",
							"internalType": "contract IJBDirectory"
						},
						{
							"name": "tokens",
							"type": "address",
							"internalType": "contract IJBTokens"
						},
						{
							"name": "permissions",
							"type": "address",
							"internalType": "contract IJBPermissions"
						},
						{
							"name": "_configurator",
							"type": "address",
							"internalType": "address"
						}
					],
					"stateMutability": "nonpayable"
				},
				{
					"type": "function",
					"name": "LAYER",
					"inputs": [],
					"outputs": [
						{
							"name": "",
							"type": "uint8",
							"internalType": "enum BPLayer"
						}
					],
					"stateMutability": "view"
				},
				{
					"type": "function",
					"name": "PERMISSIONS",
					"inputs": [],
					"outputs": [
						{
							"name": "",
							"type": "address",
							"internalType": "contract IJBPermissions"
						}
					],
					"stateMutability": "view"
				},
				{
					"type": "function",
					"name": "TEMP_ID_STORE",
					"inputs": [],
					"outputs": [
						{
							"name": "",
							"type": "uint256",
							"internalType": "uint256"
						}
					],
					"stateMutability": "view"
				},
				{
					"type": "function",
					"name": "createForSender",
					"inputs": [
						{
							"name": "localProjectId",
							"type": "uint256",
							"internalType": "uint256"
						},
						{
							"name": "salt",
							"type": "bytes32",
							"internalType": "bytes32"
						}
					],
					"outputs": [
						{
							"name": "sucker",
							"type": "address",
							"internalType": "contract IBPSucker"
						}
					],
					"stateMutability": "nonpayable"
				},
				{
					"type": "function",
					"name": "gatewayRouter",
					"inputs": [],
					"outputs": [
						{
							"name": "gateway",
							"type": "address",
							"internalType": "contract IArbGatewayRouter"
						}
					],
					"stateMutability": "view"
				},
				{
					"type": "function",
					"name": "isSucker",
					"inputs": [
						{
							"name": "",
							"type": "address",
							"internalType": "address"
						}
					],
					"outputs": [
						{
							"name": "",
							"type": "bool",
							"internalType": "bool"
						}
					],
					"stateMutability": "view"
				},
				{
					"type": "error",
					"name": "ALREADY_CONFIGURED",
					"inputs": []
				},
				{
					"type": "error",
					"name": "ONLY_SUCKERS",
					"inputs": []
				},
				{
					"type": "error",
					"name": "UNAUTHORIZED",
					"inputs": []
				}
			],
			"solcInputHash": "b0b108813eeb01ea41830ac58987647f",
			"receipt": {
				"blockHash": "0xd3940c006373e2e20f48ba42556999dfc889133178dbe4fd7f446c4bf255800b",
				"blockNumber": 5822676,
				"contractAddress": null,
				"cumulativeGasUsed": "14909259",
				"from": "0xC034550B542b83BA1De312b21d1C94a9a52B1595",
				"gasPrice": "21287166018",
				"gasUsed": "6309847",
				"hash": "0xff67e61b4c9b2985451799ee1d7679cbba1be455b8d6e6027b8215d0305ca4da",
				"index": 85,
				"logs": [
					{
						"address": "0xB5E96127D417b1B3ef8438496a38A143167209c7",
						"blockHash": "0xd3940c006373e2e20f48ba42556999dfc889133178dbe4fd7f446c4bf255800b",
						"blockNumber": 5822676,
						"data": "0x0000000000000000000000000000000000000000000000000000000000000000",
						"index": 137,
						"topics": [
							"0x572f161235911da04685a68c06adf558fc7e4a36909dca394650e0adc19cc93d",
							"0x000000000000000000000000c034550b542b83ba1de312b21d1c94a9a52b1595",
							"0x0000000000000000000000002251543da4a5ef946705b931c7e8b74756764a18",
							"0x1d39af4d3cfb43fd258e578fdf4c5d61d2b54142c9fd553e96c7ad3c9948ebfa"
						],
						"transactionHash": "0xff67e61b4c9b2985451799ee1d7679cbba1be455b8d6e6027b8215d0305ca4da",
						"transactionIndex": 85
					},
					{
						"address": "0x6a65B75A3f37C6702A117Fb87B6bCaC62657d216",
						"blockHash": "0xd3940c006373e2e20f48ba42556999dfc889133178dbe4fd7f446c4bf255800b",
						"blockNumber": 5822676,
						"data": "0x",
						"index": 138,
						"topics": [
							"0x6895c13664aa4f67288b25d7a21d7aaa34916e355fb9b6fae0a139a9085becb8",
							"0x0000000000000000000000002251543da4a5ef946705b931c7e8b74756764a18"
						],
						"transactionHash": "0xff67e61b4c9b2985451799ee1d7679cbba1be455b8d6e6027b8215d0305ca4da",
						"transactionIndex": 85
					},
					{
						"address": "0x2251543Da4A5eF946705B931C7e8b74756764a18",
						"blockHash": "0xd3940c006373e2e20f48ba42556999dfc889133178dbe4fd7f446c4bf255800b",
						"blockNumber": 5822676,
						"data": "0x0000000000000000000000000000000000000000000000000000000000000005",
						"index": 139,
						"topics": [
							"0xa65fb05c5808f5f389d72edeaf719ce38f4cc55c1f69ca3cbfb31c21501caa07",
							"0x42a2fc1b7cd9d8f8678e9e4ddfbb57c5b9fdbb1e0ef37d960a5007d79d1f1415"
						],
						"transactionHash": "0xff67e61b4c9b2985451799ee1d7679cbba1be455b8d6e6027b8215d0305ca4da",
						"transactionIndex": 85
					},
					{
						"address": "0x6a65B75A3f37C6702A117Fb87B6bCaC62657d216",
						"blockHash": "0xd3940c006373e2e20f48ba42556999dfc889133178dbe4fd7f446c4bf255800b",
						"blockNumber": 5822676,
						"data": "0x",
						"index": 140,
						"topics": [
							"0x6895c13664aa4f67288b25d7a21d7aaa34916e355fb9b6fae0a139a9085becb8",
							"0x0000000000000000000000002251543da4a5ef946705b931c7e8b74756764a18"
						],
						"transactionHash": "0xff67e61b4c9b2985451799ee1d7679cbba1be455b8d6e6027b8215d0305ca4da",
						"transactionIndex": 85
					},
					{
						"address": "0x2251543Da4A5eF946705B931C7e8b74756764a18",
						"blockHash": "0xd3940c006373e2e20f48ba42556999dfc889133178dbe4fd7f446c4bf255800b",
						"blockNumber": 5822676,
						"data": "0x0000000000000000000000000000000000000000000000000000000000000006",
						"index": 141,
						"topics": [
							"0xa65fb05c5808f5f389d72edeaf719ce38f4cc55c1f69ca3cbfb31c21501caa07",
							"0x42a2fc1b7cd9d8f8678e9e4ddfbb57c5b9fdbb1e0ef37d960a5007d79d1f1415"
						],
						"transactionHash": "0xff67e61b4c9b2985451799ee1d7679cbba1be455b8d6e6027b8215d0305ca4da",
						"transactionIndex": 85
					},
					{
						"address": "0x0c86d0204C6eCE28122daec16C613D3B69941845",
						"blockHash": "0xd3940c006373e2e20f48ba42556999dfc889133178dbe4fd7f446c4bf255800b",
						"blockNumber": 5822676,
						"data": "0x000000000000000000000000f400213feb05d395cbdcaae0db116a40bdb8216f",
						"index": 142,
						"topics": [
							"0xf6e6facda29906a01d337146a9b928ac09b423901f28e0e001d43550448b370b"
						],
						"transactionHash": "0xff67e61b4c9b2985451799ee1d7679cbba1be455b8d6e6027b8215d0305ca4da",
						"transactionIndex": 85
					},
					{
						"address": "0x0c86d0204C6eCE28122daec16C613D3B69941845",
						"blockHash": "0xd3940c006373e2e20f48ba42556999dfc889133178dbe4fd7f446c4bf255800b",
						"blockNumber": 5822676,
						"data": "0x000000000000000000000000d0e84fc9fb603c5ca3e7438623ffed6b6004b2b7",
						"index": 143,
						"topics": [
							"0xf6e6facda29906a01d337146a9b928ac09b423901f28e0e001d43550448b370b"
						],
						"transactionHash": "0xff67e61b4c9b2985451799ee1d7679cbba1be455b8d6e6027b8215d0305ca4da",
						"transactionIndex": 85
					},
					{
						"address": "0x0c86d0204C6eCE28122daec16C613D3B69941845",
						"blockHash": "0xd3940c006373e2e20f48ba42556999dfc889133178dbe4fd7f446c4bf255800b",
						"blockNumber": 5822676,
						"data": "0x000000000000000000000000133955356227fabeef30436f8e9b381d5850b126",
						"index": 144,
						"topics": [
							"0xf6e6facda29906a01d337146a9b928ac09b423901f28e0e001d43550448b370b"
						],
						"transactionHash": "0xff67e61b4c9b2985451799ee1d7679cbba1be455b8d6e6027b8215d0305ca4da",
						"transactionIndex": 85
					},
					{
						"address": "0x6a65B75A3f37C6702A117Fb87B6bCaC62657d216",
						"blockHash": "0xd3940c006373e2e20f48ba42556999dfc889133178dbe4fd7f446c4bf255800b",
						"blockNumber": 5822676,
						"data": "0x",
						"index": 145,
						"topics": [
							"0x6895c13664aa4f67288b25d7a21d7aaa34916e355fb9b6fae0a139a9085becb8",
							"0x0000000000000000000000002251543da4a5ef946705b931c7e8b74756764a18"
						],
						"transactionHash": "0xff67e61b4c9b2985451799ee1d7679cbba1be455b8d6e6027b8215d0305ca4da",
						"transactionIndex": 85
					},
					{
						"address": "0x2251543Da4A5eF946705B931C7e8b74756764a18",
						"blockHash": "0xd3940c006373e2e20f48ba42556999dfc889133178dbe4fd7f446c4bf255800b",
						"blockNumber": 5822676,
						"data": "0x0000000000000000000000000000000000000000000000000000000000000007",
						"index": 146,
						"topics": [
							"0xa65fb05c5808f5f389d72edeaf719ce38f4cc55c1f69ca3cbfb31c21501caa07",
							"0x42a2fc1b7cd9d8f8678e9e4ddfbb57c5b9fdbb1e0ef37d960a5007d79d1f1415"
						],
						"transactionHash": "0xff67e61b4c9b2985451799ee1d7679cbba1be455b8d6e6027b8215d0305ca4da",
						"transactionIndex": 85
					},
					{
						"address": "0x0c86d0204C6eCE28122daec16C613D3B69941845",
						"blockHash": "0xd3940c006373e2e20f48ba42556999dfc889133178dbe4fd7f446c4bf255800b",
						"blockNumber": 5822676,
						"data": "0x",
						"index": 147,
						"topics": [
							"0x8be0079c531659141344cd1fd0a4f28419497f9722a3daafe3b4186f6b6457e0",
							"0x0000000000000000000000006a65b75a3f37c6702a117fb87b6bcac62657d216",
							"0x0000000000000000000000001f96512db9a74b8805d900c8e553879c0cb8bb2a"
						],
						"transactionHash": "0xff67e61b4c9b2985451799ee1d7679cbba1be455b8d6e6027b8215d0305ca4da",
						"transactionIndex": 85
					},
					{
						"address": "0x6a65B75A3f37C6702A117Fb87B6bCaC62657d216",
						"blockHash": "0xd3940c006373e2e20f48ba42556999dfc889133178dbe4fd7f446c4bf255800b",
						"blockNumber": 5822676,
						"data": "0x",
						"index": 148,
						"topics": [
							"0x6895c13664aa4f67288b25d7a21d7aaa34916e355fb9b6fae0a139a9085becb8",
							"0x0000000000000000000000002251543da4a5ef946705b931c7e8b74756764a18"
						],
						"transactionHash": "0xff67e61b4c9b2985451799ee1d7679cbba1be455b8d6e6027b8215d0305ca4da",
						"transactionIndex": 85
					},
					{
						"address": "0x2251543Da4A5eF946705B931C7e8b74756764a18",
						"blockHash": "0xd3940c006373e2e20f48ba42556999dfc889133178dbe4fd7f446c4bf255800b",
						"blockNumber": 5822676,
						"data": "0x0000000000000000000000000000000000000000000000000000000000000008",
						"index": 149,
						"topics": [
							"0xa65fb05c5808f5f389d72edeaf719ce38f4cc55c1f69ca3cbfb31c21501caa07",
							"0x42a2fc1b7cd9d8f8678e9e4ddfbb57c5b9fdbb1e0ef37d960a5007d79d1f1415"
						],
						"transactionHash": "0xff67e61b4c9b2985451799ee1d7679cbba1be455b8d6e6027b8215d0305ca4da",
						"transactionIndex": 85
					},
					{
						"address": "0x2251543Da4A5eF946705B931C7e8b74756764a18",
						"blockHash": "0xd3940c006373e2e20f48ba42556999dfc889133178dbe4fd7f446c4bf255800b",
						"blockNumber": 5822676,
						"data": "0x",
						"index": 150,
						"topics": [
							"0x4383d976757d67ca920616be0b6430a681ea9d3dcce8d6d61d4603ca4a9bff63",
							"0x42a2fc1b7cd9d8f8678e9e4ddfbb57c5b9fdbb1e0ef37d960a5007d79d1f1415"
						],
						"transactionHash": "0xff67e61b4c9b2985451799ee1d7679cbba1be455b8d6e6027b8215d0305ca4da",
						"transactionIndex": 85
					}
				],
				"logsBloom": "0x0000000008001000000000000008000000020000404800000080000000400000010000000000020000000000004009040000000000000000000000000000000000000000000020000000000000000000000100000000000000000400000800000000000000000004000000000000000020002000000000000000000040000040000000000000000000010000000000000000000000200000040000000000000000c000800010000000001000000000020208000000000000000000000004000000000000000000000008040008000000000000000002000000000000000000000000000000000208000000000000000200000200400000000000020208000000",
				"status": 1,
				"to": "0xB5E96127D417b1B3ef8438496a38A143167209c7"
			},
			"metadata": "{\"compiler\":{\"version\":\"0.8.23+commit.f704f362\"},\"language\":\"Solidity\",\"output\":{\"abi\":[{\"inputs\":[{\"internalType\":\"contract IJBDirectory\",\"name\":\"directory\",\"type\":\"address\"},{\"internalType\":\"contract IJBTokens\",\"name\":\"tokens\",\"type\":\"address\"},{\"internalType\":\"contract IJBPermissions\",\"name\":\"permissions\",\"type\":\"address\"},{\"internalType\":\"address\",\"name\":\"_configurator\",\"type\":\"address\"}],\"stateMutability\":\"nonpayable\",\"type\":\"constructor\"},{\"inputs\":[],\"type\":\"error\",\"name\":\"ALREADY_CONFIGURED\"},{\"inputs\":[],\"type\":\"error\",\"name\":\"ONLY_SUCKERS\"},{\"inputs\":[],\"type\":\"error\",\"name\":\"UNAUTHORIZED\"},{\"inputs\":[],\"stateMutability\":\"view\",\"type\":\"function\",\"name\":\"LAYER\",\"outputs\":[{\"internalType\":\"enum BPLayer\",\"name\":\"\",\"type\":\"uint8\"}]},{\"inputs\":[],\"stateMutability\":\"view\",\"type\":\"function\",\"name\":\"PERMISSIONS\",\"outputs\":[{\"internalType\":\"contract IJBPermissions\",\"name\":\"\",\"type\":\"address\"}]},{\"inputs\":[],\"stateMutability\":\"view\",\"type\":\"function\",\"name\":\"TEMP_ID_STORE\",\"outputs\":[{\"internalType\":\"uint256\",\"name\":\"\",\"type\":\"uint256\"}]},{\"inputs\":[{\"internalType\":\"uint256\",\"name\":\"localProjectId\",\"type\":\"uint256\"},{\"internalType\":\"bytes32\",\"name\":\"salt\",\"type\":\"bytes32\"}],\"stateMutability\":\"nonpayable\",\"type\":\"function\",\"name\":\"createForSender\",\"outputs\":[{\"internalType\":\"contract IBPSucker\",\"name\":\"sucker\",\"type\":\"address\"}]},{\"inputs\":[],\"stateMutability\":\"view\",\"type\":\"function\",\"name\":\"gatewayRouter\",\"outputs\":[{\"internalType\":\"contract IArbGatewayRouter\",\"name\":\"gateway\",\"type\":\"address\"}]},{\"inputs\":[{\"internalType\":\"address\",\"name\":\"\",\"type\":\"address\"}],\"stateMutability\":\"view\",\"type\":\"function\",\"name\":\"isSucker\",\"outputs\":[{\"internalType\":\"bool\",\"name\":\"\",\"type\":\"bool\"}]}],\"devdoc\":{\"kind\":\"dev\",\"methods\":{\"createForSender(uint256,bytes32)\":{\"details\":\"Uses the sender address as the salt, which means the same sender must call this function on both chains.\",\"params\":{\"localProjectId\":\"The project's ID on the local chain.\",\"salt\":\"The salt to use for the `create2` address.\"},\"returns\":{\"sucker\":\"The address of the new sucker.\"}},\"gatewayRouter()\":{\"returns\":{\"gateway\":\"for the current chain.\"}}},\"version\":1},\"userdoc\":{\"kind\":\"user\",\"methods\":{\"LAYER()\":{\"notice\":\"The layer that this contract is on.\"},\"PERMISSIONS()\":{\"notice\":\"A contract storing permissions.\"},\"TEMP_ID_STORE()\":{\"notice\":\"A temporary storage slot used by suckers to maintain deterministic deploys.\"},\"createForSender(uint256,bytes32)\":{\"notice\":\"Create a new `BPSucker` for a specific project.\"},\"gatewayRouter()\":{\"notice\":\"Returns the gateway router address for the current chain\"},\"isSucker(address)\":{\"notice\":\"A mapping of suckers deployed by this contract.\"}},\"version\":1}},\"settings\":{\"remappings\":[\"@arbitrum/=node_modules/@arbitrum/\",\"@bananapus/=node_modules/@bananapus/\",\"@chainlink/=node_modules/@chainlink/\",\"@eth-optimism/=node_modules/@eth-optimism/\",\"@offchainlabs/=node_modules/@offchainlabs/\",\"@openzeppelin/=node_modules/@openzeppelin/\",\"@prb/=node_modules/@prb/\",\"@scroll-tech/=node_modules/@scroll-tech/\",\"@sphinx-labs/contracts/=node_modules/@sphinx-labs/contracts/contracts/foundry/\",\"@uniswap/=node_modules/@uniswap/\",\"ds-test/=lib/forge-std/lib/ds-test/src/\",\"forge-std/=lib/forge-std/src/\",\"hardhat/=node_modules/hardhat/\",\"solmate/=node_modules/solmate/\",\"sphinx/=lib/sphinx/packages/contracts/contracts/forge-std/src/\"],\"optimizer\":{\"enabled\":true,\"runs\":200},\"metadata\":{\"bytecodeHash\":\"ipfs\"},\"compilationTarget\":{\"src/deployers/BPArbitrumSuckerDeployer.sol\":\"BPArbitrumSuckerDeployer\"},\"evmVersion\":\"paris\",\"libraries\":{}},\"sources\":{\"node_modules/@arbitrum/nitro-contracts/src/bridge/IBridge.sol\":{\"keccak256\":\"0xeba1e59fa4dd56d0d2cd775ab726d08e470bf3056f5473ce62b98499e55ff7bd\",\"urls\":[\"bzz-raw://fca93cb8bf8369a86d299b263081d1789fd5f0b2579cd229f26e007b8f269d5f\",\"dweb:/ipfs/QmVwEQLsy7sSGwJ7MEWeHPwSunKu1Hr5YozzNy6CW1prmH\"],\"license\":\"BUSL-1.1\"},\"node_modules/@arbitrum/nitro-contracts/src/bridge/IDelayedMessageProvider.sol\":{\"keccak256\":\"0x1f216daf990c329310f44818e1c05d81c07fe875a5a07dd379d2c8fac921f208\",\"urls\":[\"bzz-raw://d6ccdab97fb5c8b7d9a80b713dc6bd9bc0e71e9d41900ac5c7cf96cb2643aad6\",\"dweb:/ipfs/QmeypCFXVXbTu3RehtFti4PMfuTCyzVKDwfGiZ2PeewRSG\"],\"license\":\"BUSL-1.1\"},\"node_modules/@arbitrum/nitro-contracts/src/bridge/IInbox.sol\":{\"keccak256\":\"0xee6e59278213c18faa2908a8e540ca26b288f47e5b65822d5140ce021488a00c\",\"urls\":[\"bzz-raw://8dac67605a1aa2d35c884603a51f2791c647a6d8d75ba1d698816fa90c2645f8\",\"dweb:/ipfs/QmSVjgCcGsPGrXskZAMo9FDnpYRQ8tpmMhW7uxftYFfDJD\"],\"license\":\"BUSL-1.1\"},\"node_modules/@arbitrum/nitro-contracts/src/bridge/IInboxBase.sol\":{\"keccak256\":\"0x2d8800ecb63220a0174770080f714f5de9823ddd08888e23e79b80282a4940ea\",\"urls\":[\"bzz-raw://5e4f3420abcddbac00e09cdfbb1b6af9de7fa73b5b27c53b71c06e9a35ae0ba3\",\"dweb:/ipfs/QmTJimLXfWzUB8F8aPFAdeMsYVTFY1SywPPDEuFk397JNT\"],\"license\":\"BUSL-1.1\"},\"node_modules/@arbitrum/nitro-contracts/src/bridge/IOutbox.sol\":{\"keccak256\":\"0x2de956f0a532a8db249be0eff614db7caa73eec2afb485c1ac9aed78ecf39e5f\",\"urls\":[\"bzz-raw://d2ceb5dc3a34dc692f9a6c6eec9227ad7f2cfc423e8fd55460427e013819493b\",\"dweb:/ipfs/Qmd3F4xSMP1aFCq2GcwEESVhqxWzGdH8y5ReK3V8UBNEZc\"],\"license\":\"BUSL-1.1\"},\"node_modules/@arbitrum/nitro-contracts/src/bridge/IOwnable.sol\":{\"keccak256\":\"0x0ce0ccc2cd25968ab37aef146be9c9a615c3f2ad239fa759d1745190666729fd\",\"urls\":[\"bzz-raw://6516e1a94fdc9530b90ceb408e3083ecc7e844afd4fc34a7ccab89a191c3b88f\",\"dweb:/ipfs/QmZ4UwQe1pgTJxx1XqzcAKTgu9Wo6qZA5WSCPHygFJSdi8\"],\"license\":\"BUSL-1.1\"},\"node_modules/@arbitrum/nitro-contracts/src/bridge/ISequencerInbox.sol\":{\"keccak256\":\"0x97341bd4cc27f3eae77980a722dfeb2b0b29492e920740a6138aa0812711c69a\",\"urls\":[\"bzz-raw://78acecb4885ba0b5c1a91d5c79cc99c6ff16e0ebffd5dd1e9f99ac6e6d11344d\",\"dweb:/ipfs/QmSDK7G79KKB1ETvG5Sd1ekWdeGi3RwnUCq9GtCbKonCd5\"],\"license\":\"BUSL-1.1\"},\"node_modules/@arbitrum/nitro-contracts/src/libraries/AddressAliasHelper.sol\":{\"keccak256\":\"0x53ab7b4f3e0179f4579bdaccbd68ef79246d28ce95632f8e3b585356fca0d6c0\",\"urls\":[\"bzz-raw://4239875db36ea53f47c072aec3890e439d21dcac09728b0faadb607119149895\",\"dweb:/ipfs/QmejkGYPU5GFBTGwEySAYHtuJGgniiKdvtGGx9uUgsM5N9\"],\"license\":\"BUSL-1.1\"},\"node_modules/@arbitrum/nitro-contracts/src/libraries/IGasRefunder.sol\":{\"keccak256\":\"0x35d07855184f8d31087ad0b67d1a8ccd0653a3a6c59c02513eb9c53b3371a385\",\"urls\":[\"bzz-raw://20eec9a16fa9003971a1ac5f5f7a3b7c558c57cba01f98c50959b5c93786f639\",\"dweb:/ipfs/QmaRQpgwZVQYe2EsFS4UrvrnFabJLQwUaBXm14C8V4rhBM\"],\"license\":\"BUSL-1.1\"},\"node_modules/@arbitrum/nitro-contracts/src/precompiles/ArbSys.sol\":{\"keccak256\":\"0x4bc9f91d6a3973af46cc95dd5fe9a29d23e2e64b13512dd0b2d1bfcde705f132\",\"urls\":[\"bzz-raw://7617f08af8fd8aa01a4a5e94ed0c4f15a8567665851c72765e82dbdd8ab20462\",\"dweb:/ipfs/QmYuVxm3JtrPwWBXhtEJZkhuv2SQ1iBH4j6ypP6uRAWAgF\"],\"license\":\"BUSL-1.1\"},\"node_modules/@bananapus/core/src/abstract/JBPermissioned.sol\":{\"keccak256\":\"0xe08c8a7eeac9d1c7c2e0db6d5b98d1af09889300835a3d47d9f29319fecce703\",\"urls\":[\"bzz-raw://42645cf52bcc45053ef650790916faed5d0a74cecef336b217433fdd2c5c4166\",\"dweb:/ipfs/QmdMmxG1tSGucQwz4LYbVnuj7HU23YvqLH6xfrNWv5Bmus\"],\"license\":\"MIT\"},\"node_modules/@bananapus/core/src/enums/JBApprovalStatus.sol\":{\"keccak256\":\"0x61c69b6bac7d24b566d87cda23a77e4ca9cdb87200b106aba8534cb9a0973e33\",\"urls\":[\"bzz-raw://6a9ca7249de76f77a8252eefe6bd1b63d47952f25a2acfa2c8db967cdff4470c\",\"dweb:/ipfs/QmaxSxptRQNj8bNy96EreENmrnRWdKmhyihBcxyWzBX5BN\"],\"license\":\"MIT\"},\"node_modules/@bananapus/core/src/interfaces/IJBController.sol\":{\"keccak256\":\"0xe0b84058192f89e461c4b604388aa11a2f92f0f9969fb70fb3c18706d6f3e16b\",\"urls\":[\"bzz-raw://984fdcff63a17ccab65ff7723a628967e40965fcb4d47909cf8e314e8f044576\",\"dweb:/ipfs/QmaaHZWuaaH3oYxCDrip1rr4u4H1XtR3RcwwKAE73GAqkd\"],\"license\":\"MIT\"},\"node_modules/@bananapus/core/src/interfaces/IJBDirectory.sol\":{\"keccak256\":\"0x9cc380844aef60078ee47a61861e55a29c4a8c947efd556ebd36e6909f7b9d62\",\"urls\":[\"bzz-raw://9f5190ec8b6683d9781ee6e9eedcc91294753242748875d4a06349077e4cbaaf\",\"dweb:/ipfs/QmTQrPuXT9TCA4txwrperMeXSGvGxP8iokUK47f62F388i\"],\"license\":\"MIT\"},\"node_modules/@bananapus/core/src/interfaces/IJBDirectoryAccessControl.sol\":{\"keccak256\":\"0x1e67f56849320a46f834aaa9bd62b170ff8ada7b224b4a81136193740fa0be4d\",\"urls\":[\"bzz-raw://ea8fbcec44abfe49d137bcae129b67e5479d6b17879301f88534c8a7fab00be4\",\"dweb:/ipfs/QmT6wrtYX4GRpffHUzupNwYebJ1dqkkKZLEewWsoyunsqw\"],\"license\":\"MIT\"},\"node_modules/@bananapus/core/src/interfaces/IJBFundAccessLimits.sol\":{\"keccak256\":\"0xf5fd6bdd723b60d490ccbe22cdf1cfe43663d23e6ee48badcd1b71e3282cb16b\",\"urls\":[\"bzz-raw://fe692f0b843ea5fccdfcb68f4ec16e1c0add945bb74b303c9866342be0e31fbf\",\"dweb:/ipfs/QmSRmzpgp3DhNEhNDiLsSu7yEiTeywbzEFbwyGyDazjgKt\"],\"license\":\"MIT\"},\"node_modules/@bananapus/core/src/interfaces/IJBMigratable.sol\":{\"keccak256\":\"0xd69bd5aba01a68d82c303ef3adde47532abcace030a94296c3ea6988b401789c\",\"urls\":[\"bzz-raw://88f11a1c89899327746beba4fc830abf3ac2eb9c152c778e884a6eed6564971f\",\"dweb:/ipfs/QmTpKhSTVewpz7VyKcz6BJwH2LFKMwT7Qi5HNWmjEjwsdK\"],\"license\":\"MIT\"},\"node_modules/@bananapus/core/src/interfaces/IJBPayHook.sol\":{\"keccak256\":\"0x9438866782c652c2942f4d114e35f393cd3c8b0334abce8387eed90bca35e8b2\",\"urls\":[\"bzz-raw://cfd99daf57213f92325aad7d7d16e98476d38e870470e95ba01e3ae3cdecc95d\",\"dweb:/ipfs/QmUKKAVGf7ki8BHksr99tFcRW8APveeB5tNH63ctTbbCW8\"],\"license\":\"MIT\"},\"node_modules/@bananapus/core/src/interfaces/IJBPermissioned.sol\":{\"keccak256\":\"0x5b038d4dee116584e88b230920e56d48e135053e3f7e5642eaea14a775c1dad7\",\"urls\":[\"bzz-raw://19e43102f349fd4a1da1c0943ffb8f2950007fe4bb4bb7e8f74fc142575d091b\",\"dweb:/ipfs/QmXHAt4KzDTdDZgDDefEXH2WKi7NcfkJb9R7nxW5uDqsNp\"],\"license\":\"MIT\"},\"node_modules/@bananapus/core/src/interfaces/IJBPermissions.sol\":{\"keccak256\":\"0x18870e500edf0fbadc353e273a5574701fb80466376b908c65e7cc3f11044d4d\",\"urls\":[\"bzz-raw://352a47c45853aec80e7acf0d286ade3106eb4cb456776b28a3c2f3f1091bed90\",\"dweb:/ipfs/QmQeYd3YbudYZy2hfbfht9kwhxhw4tuuLKMEYy9UY6dcSy\"],\"license\":\"MIT\"},\"node_modules/@bananapus/core/src/interfaces/IJBPriceFeed.sol\":{\"keccak256\":\"0x4bd84c0f1a5d4729ed709bcddd43f4c50ec4a165ece79780af8dce482ed07d4a\",\"urls\":[\"bzz-raw://62bac4bfb6982fb002f620c77e5c445e62d50241a5aa64a07e51d929f5a42180\",\"dweb:/ipfs/QmWgJUDreVY2BuMX38a1iUUR5kNbMwGnKG3VvurB7oZtuM\"],\"license\":\"MIT\"},\"node_modules/@bananapus/core/src/interfaces/IJBPrices.sol\":{\"keccak256\":\"0x99525f31440b955742dce84ba57de9fc1221139b5367c1f834723bef9e13e6e1\",\"urls\":[\"bzz-raw://6fa03f0cd4ad87dd7cbae7bf7f54463450874291773c8f70f2c31ef2cae62bb0\",\"dweb:/ipfs/QmSPajPV5ismteJuB6Spzm9VmhTj2iS3eVrfpJC1Zuzg8n\"],\"license\":\"MIT\"},\"node_modules/@bananapus/core/src/interfaces/IJBProjectUriRegistry.sol\":{\"keccak256\":\"0x2799475228987e4f8334ac33d3935f759c9b8133db7383b4f622dde7a5dc0502\",\"urls\":[\"bzz-raw://d751731740f45df74eea48c9667e847ee2cddb2980ab4939c86bd17e6c6ed89b\",\"dweb:/ipfs/QmXW8SLTuhdUpfn7pRpdsYdcyuim8RTyagU37ULcj5UZhT\"],\"license\":\"MIT\"},\"node_modules/@bananapus/core/src/interfaces/IJBProjects.sol\":{\"keccak256\":\"0x735c2fb8f1fa827f054ee77f7a0ae4b312656217acb75b624d2c8fd9dc40151b\",\"urls\":[\"bzz-raw://ee7fc92299a8633a80693ae63ab494dcd125f1789487a54a39dc0e5696e5996f\",\"dweb:/ipfs/QmX7YJD4pS2XhgQb7p3JbBAXynT7YGPXcZe92BiWWRrsCL\"],\"license\":\"MIT\"},\"node_modules/@bananapus/core/src/interfaces/IJBRedeemHook.sol\":{\"keccak256\":\"0x8ab46fcd7d0e739661eb76056ad93ff99106f38420ef0b4eb97fa9f4bb71a68a\",\"urls\":[\"bzz-raw://0ef96fcb7ad26281d444d8e0c677b25114fdd63b1c172d477e030dce8ba53b62\",\"dweb:/ipfs/Qmcx1jRQuwU4pZFuLxsSsx4oMbRaDfktHrPnXextgbWc5m\"],\"license\":\"MIT\"},\"node_modules/@bananapus/core/src/interfaces/IJBRedeemTerminal.sol\":{\"keccak256\":\"0xd1b4aa38154e08f1474745ea6bc8f8823fe8aa68c124d596742597f2296ea16d\",\"urls\":[\"bzz-raw://9bd254e833702dfe5e28db5fee76478947ab45b501c966501f719e73bbf0397a\",\"dweb:/ipfs/QmZ3Ng7TmVxL6ozSUhx4kYdQdZhoYi4t43cYZVAMz7Fn5M\"],\"license\":\"MIT\"},\"node_modules/@bananapus/core/src/interfaces/IJBRulesetApprovalHook.sol\":{\"keccak256\":\"0x592e95d159494421c6b1bcb362d0cee1df0132921697351304e9cd7af4fbd386\",\"urls\":[\"bzz-raw://5bebfd5fa67c1b6ea16fa2e76e9520e9dfe52a579f48dd94d0c2ec45f78ad178\",\"dweb:/ipfs/QmRUawEGtfYoYSHmHELGhvJoWuMsxLPKtqAXgsrb7fJboP\"],\"license\":\"MIT\"},\"node_modules/@bananapus/core/src/interfaces/IJBRulesets.sol\":{\"keccak256\":\"0xd3f817d22ecbe24da63c552c069bf0c4fbbf3bcd5c3b5633002afd24aacf6882\",\"urls\":[\"bzz-raw://c1185aec0f6b6f0f4d93ffeeed0972ccf38420b00fe570b5e1838ed2b1f5db49\",\"dweb:/ipfs/QmWz36azGTFnjFXpFSh6BHt4nactgjtF64L3PeTqs4ZqSR\"],\"license\":\"MIT\"},\"node_modules/@bananapus/core/src/interfaces/IJBSplitHook.sol\":{\"keccak256\":\"0xeb8dfac7a4b81897a1c3b5d0d853a406bcff33720fb187d5ca5bb3dcc0ba3a12\",\"urls\":[\"bzz-raw://36aaeef6107cfe5b0127e063ea215aac7200f8af02e28a48e61111abd3254688\",\"dweb:/ipfs/QmQ8yQANXnhQCAWBGKsKCDsJ3A8hnTKNg5tyo79GfWXTcV\"],\"license\":\"MIT\"},\"node_modules/@bananapus/core/src/interfaces/IJBSplits.sol\":{\"keccak256\":\"0x92deeb9e22ce2aaafc608b85e9250b8ea2deed1ebf64b7442038b157b2bfe0e6\",\"urls\":[\"bzz-raw://08bf29f0c13c2e8be46065277f67e44ecaea960cb5474f13775eece0672566c2\",\"dweb:/ipfs/QmeGu9C6tuBjfmeizmpzptxgGmch6Mbtm34NFwZxzMvqc4\"],\"license\":\"MIT\"},\"node_modules/@bananapus/core/src/interfaces/IJBTerminal.sol\":{\"keccak256\":\"0x19dc9bf8cbdc8f13ee5da9dc3a87047eacb94a3fc19740a286c1f0bad2cc39ca\",\"urls\":[\"bzz-raw://0b05ae6fda9a85672508232fd992b8a5f5ffd8096622eeb12c8a7b3317eb3867\",\"dweb:/ipfs/QmNh9Quj37BXYGdTdcCD1Q58PchRsE5TLbEZep56qS3MpV\"],\"license\":\"MIT\"},\"node_modules/@bananapus/core/src/interfaces/IJBToken.sol\":{\"keccak256\":\"0x71b1f9c3a0edd41910f77396e0be2c65596571176d53eb87e887c3c0da56c0fb\",\"urls\":[\"bzz-raw://6e956f0582f4525e83d845ee9b4a89959abc4f821414f6accbbee5b38960482d\",\"dweb:/ipfs/QmbSvjgmCgnfVmcCTGu8XwrV1Rufsf3M8hB8unFq6fTMdH\"],\"license\":\"MIT\"},\"node_modules/@bananapus/core/src/interfaces/IJBTokenUriResolver.sol\":{\"keccak256\":\"0xfa5cb00dcd6085d1ef912d071fe73c63f9478a2cd0f9d8bddaf659b6af2d0967\",\"urls\":[\"bzz-raw://282e4e7c342d65f77cde0e9a08fcaf20ef5cf379c7a48b639842c0ffd0b2afb8\",\"dweb:/ipfs/QmbnN3PEQeZaXdPLT75V1J79kMg7KqSMru37RHrL3z8Yf2\"],\"license\":\"MIT\"},\"node_modules/@bananapus/core/src/interfaces/IJBTokens.sol\":{\"keccak256\":\"0x6fd67af915dd541d9547c8297aa9ae269690e4ee23531db43f021bcacec6076f\",\"urls\":[\"bzz-raw://2e5e11954e9ab2319fffccb6563f3db400b8f7760d4ffe2165048a02c9c37fa6\",\"dweb:/ipfs/QmbDXtV83dK8EfiTjsTRf55R2XqPZzDKcjtYbW8sxQ5CFm\"],\"license\":\"MIT\"},\"node_modules/@bananapus/core/src/libraries/JBConstants.sol\":{\"keccak256\":\"0x9d3a9a953f859d8ec79a599577f8972de6da7199cc1bfa7fdad017d4d722bcb4\",\"urls\":[\"bzz-raw://f151fcb53a8d2684eff8b9e56ac790bcbcadd8199a4fd4d17c5b224b22936722\",\"dweb:/ipfs/QmdAz1ZtCE8nTiC4AxQNLfJhnY3ndGum2Lbef7seKdvTdR\"],\"license\":\"MIT\"},\"node_modules/@bananapus/core/src/structs/JBAccountingContext.sol\":{\"keccak256\":\"0x2907ff54d1e903cc7e0390dd88c3975884702dc2673642aacbe22b66560b56de\",\"urls\":[\"bzz-raw://a66a5381ce877b32f0e0058ceeaf843e9b6b2bc8af666c0c9f4a9d01091da004\",\"dweb:/ipfs/QmQynCetUr37dBkS1YwDS8evxuXGiqanW6THmeUxXtim8w\"],\"license\":\"MIT\"},\"node_modules/@bananapus/core/src/structs/JBAfterPayRecordedContext.sol\":{\"keccak256\":\"0xd26c3a774ff38be79064085970454fe2603a23a638c76270d5b1b3829206c3e8\",\"urls\":[\"bzz-raw://3b55dbe3bf1ef625b7ca04efab3de35406e6041d5b3d82c7265469c500e2b702\",\"dweb:/ipfs/QmUdBDo4Lt3mcsFcsXT2mqq3czFwZjQJFPLM89YA2VtD7k\"],\"license\":\"MIT\"},\"node_modules/@bananapus/core/src/structs/JBAfterRedeemRecordedContext.sol\":{\"keccak256\":\"0x521f5d23a36f0da72362cd84890cc867bd83baa8dc836ba6c5066d51dba2f163\",\"urls\":[\"bzz-raw://6cc461313286dde62d045d6288e87bae5032e035796326f5b1ed6218e58aa9da\",\"dweb:/ipfs/QmQS2AkQwf2ANQieDuaUnpJEdXChoLv4CCbZqHkfywYPSR\"],\"license\":\"MIT\"},\"node_modules/@bananapus/core/src/structs/JBCurrencyAmount.sol\":{\"keccak256\":\"0x12fe4b43f4824994624d4fe0abbd88c3fe7867fd637edb65c7f456dab27e2d6e\",\"urls\":[\"bzz-raw://8003a3e8f932cf891e86b827e67c9d31b0d34c2712e18c2bc333cfe5284ba6d5\",\"dweb:/ipfs/QmSoA6RsDcSnNzk6CB7KZtALkHmeSDAi2g6fg3TDmLDkWX\"],\"license\":\"MIT\"},\"node_modules/@bananapus/core/src/structs/JBFundAccessLimitGroup.sol\":{\"keccak256\":\"0x9fdaa8d017b72da25f583700a444a86849df053f7fb8eac874ec5139bcf651e5\",\"urls\":[\"bzz-raw://c8e44c49ee444a98424a0dbeb6897a76a0bf00d88a613f62ac2012afdac754ee\",\"dweb:/ipfs/QmdYkAiRi5bXM1YYNkc7BiqimHSFodMGn1cjHR5hcpm4xH\"],\"license\":\"MIT\"},\"node_modules/@bananapus/core/src/structs/JBPermissionsData.sol\":{\"keccak256\":\"0x8f0f69a6ebf5f3704e3dfcb3712fb9d3f94ae7c1ab89bf3e37bad42a3e7a0487\",\"urls\":[\"bzz-raw://57b0c5e52843e2217082889ed47b4da3943e0da4590d5768dcebfe3edad4a6b8\",\"dweb:/ipfs/QmRz48vuWLw81kUP836rh1qzqWiJFGbksgRUA9xGEDNKTY\"],\"license\":\"MIT\"},\"node_modules/@bananapus/core/src/structs/JBRuleset.sol\":{\"keccak256\":\"0x15b2bf3174d84846a91ccbf5a344dfb125b55ed9cf50102db8d6868844225189\",\"urls\":[\"bzz-raw://647416b025dbd941094db89cbc69f755c155bd6c87be3f322394ccc4a8e0442d\",\"dweb:/ipfs/QmTCL9xcHnxQ4t5AmCPoZvXDUPW5xhzhyyXYbkMdyg44au\"],\"license\":\"MIT\"},\"node_modules/@bananapus/core/src/structs/JBRulesetConfig.sol\":{\"keccak256\":\"0x0be470df286939259a6b98bc71459e661e81d56a58226d6a574ae1484f8f8e6c\",\"urls\":[\"bzz-raw://64592c279ba7518ac180c835a539897163f299a439065f2cc8aa54086a2c9ad7\",\"dweb:/ipfs/QmaEepVvFJdXcDBMMr7SQYjZSDJXPtCca95kQY5rZbra6U\"],\"license\":\"MIT\"},\"node_modules/@bananapus/core/src/structs/JBRulesetMetadata.sol\":{\"keccak256\":\"0xfea54c9f98416d2aa05309e7ff76967d6968a614850a1e33e48fde793ea8b514\",\"urls\":[\"bzz-raw://bf55386cbab90dbc1296b2b0cbfdc217a4500d67702e4a093a4c78bd127ecd5c\",\"dweb:/ipfs/QmTRq9mZrNSXu7oCZwti4JbBFrbY6A5msRqi9RbtL49NAj\"],\"license\":\"MIT\"},\"node_modules/@bananapus/core/src/structs/JBRulesetWithMetadata.sol\":{\"keccak256\":\"0x1bcfadf20488f6df65227f8d4d0fbf9b7539456a2389567f7fe3900d23289bc3\",\"urls\":[\"bzz-raw://0a15c399a71e5373f8c0484c6d6b83521eda31e063a2c53e4c5cec4e74550343\",\"dweb:/ipfs/QmQwi8zkjoTVXbK89NeETYimWCacTrNsesJdpLSvGdqMPX\"],\"license\":\"MIT\"},\"node_modules/@bananapus/core/src/structs/JBSplit.sol\":{\"keccak256\":\"0x1d40fa4f1c911a53b9139f3d44d27cb58fa5c5d2cd793c7a21ccf52b9e61f848\",\"urls\":[\"bzz-raw://9897d2c29fc65fe16e4eac0b7b8b6fd8ef0b0cc501986f7f0c3a78c4ec1dbb60\",\"dweb:/ipfs/QmXcHoVjCYWWCz4hm2KZ6JxtB4YNq7jmXa2evLkga59Xwq\"],\"license\":\"MIT\"},\"node_modules/@bananapus/core/src/structs/JBSplitGroup.sol\":{\"keccak256\":\"0xda7da6e88aac2906c7ea4027660088daf217edc632bebca4d72795aae8921564\",\"urls\":[\"bzz-raw://ae1939d17e94cb51484f31ce64cf0df990445a338fb9b38d39a7baf28275ae4a\",\"dweb:/ipfs/QmUhPnJiWnYhFdtLvZnrPopAdbYXxETpGjvxjPDignpTGY\"],\"license\":\"MIT\"},\"node_modules/@bananapus/core/src/structs/JBSplitHookContext.sol\":{\"keccak256\":\"0xfe34e6860b00ca93d71f44e72882281b2c57c31303151af05795c74cfdd2e51d\",\"urls\":[\"bzz-raw://08acab094888e9c929b6f6f972d89ddbb31e5867675e7e7c602d25fcb2c0f402\",\"dweb:/ipfs/QmPNdXM185cTyXQSodVr4JMviHx88jrWu7dipgkp9xTNgJ\"],\"license\":\"MIT\"},\"node_modules/@bananapus/core/src/structs/JBTerminalConfig.sol\":{\"keccak256\":\"0xd162f3821a1ccafbc8d7d108369e39ac3048445a8c7fe7a3fa97a6343f9eefaa\",\"urls\":[\"bzz-raw://82172ea0407b6d9edc45e408c7e8edb8e129adf49a94349fe3a5862da9bc044e\",\"dweb:/ipfs/QmWheF5Tjq2hcabnSzfYqdFHUA1YxYEdAPZaRw9N166V1d\"],\"license\":\"MIT\"},\"node_modules/@bananapus/core/src/structs/JBTokenAmount.sol\":{\"keccak256\":\"0x5cf0626b73a596c1e2da17c89ae039a7c0374310b060d48568d3b6c11fbe6180\",\"urls\":[\"bzz-raw://63348b50be95e2995409394a17caffc563a646f0972650a1230bf864fbd3219b\",\"dweb:/ipfs/QmZXZpS3SbFD5nWaCauf6AqbEhLURv5qsKHpThBvQgDU6u\"],\"license\":\"MIT\"},\"node_modules/@bananapus/permission-ids/src/JBPermissionIds.sol\":{\"keccak256\":\"0xf61109f6b217a80d5e5391f548fb6f2e451f7dbee3fabfc04cf17e88722203bc\",\"urls\":[\"bzz-raw://ac776ab1cd621c22bd7973471acdfa187f3abc659ad9a3ef6ed10b6447dfcf9c\",\"dweb:/ipfs/QmYLbaHt68qcuMzkiKpe96jMjiWUq1F3u8yMhxmZ3pnnWu\"],\"license\":\"MIT\"},\"node_modules/@openzeppelin/contracts/token/ERC20/IERC20.sol\":{\"keccak256\":\"0xc6a8ff0ea489379b61faa647490411b80102578440ab9d84e9a957cc12164e70\",\"urls\":[\"bzz-raw://0ea104e577e63faea3b69c415637e99e755dcbf64c5833d7140c35a714d6d90c\",\"dweb:/ipfs/Qmau6x4Ns9XdyynRCNNp3RhLqijJjFm7z5fyZazfYFGYdq\"],\"license\":\"MIT\"},\"node_modules/@openzeppelin/contracts/token/ERC20/extensions/IERC20Permit.sol\":{\"keccak256\":\"0x6008dabfe393240d73d7dd7688033f72740d570aa422254d29a7dce8568f3aff\",\"urls\":[\"bzz-raw://f5196ec75139918c6c7bb4251b36395e668f1fa6d206beba7e7520e74913940d\",\"dweb:/ipfs/QmSyqjksXxmm2mCG6qRd1yuwLykypkSVBbnBnGqJRcuJMi\"],\"license\":\"MIT\"},\"node_modules/@openzeppelin/contracts/token/ERC20/utils/SafeERC20.sol\":{\"keccak256\":\"0x37bb49513c49c87c4642a891b13b63571bc87013dde806617aa1efb54605f386\",\"urls\":[\"bzz-raw://b3036b3a83b7c48f96641f2a9002b9f2dcb6a5958dd670894ada21ae8229b3d0\",\"dweb:/ipfs/QmUNfSBdoVtjhETaUJCYcaC7pTMgbhht926tJ2uXJbiVd3\"],\"license\":\"MIT\"},\"node_modules/@openzeppelin/contracts/token/ERC721/IERC721.sol\":{\"keccak256\":\"0x5ef46daa3b58ef2702279d514780316efaa952915ee1aa3396f041ee2982b0b4\",\"urls\":[\"bzz-raw://2f8f2a76e23b02fc69e8cd24c3cb47da6c7af3a2d6c3a382f8ac25c6e094ade7\",\"dweb:/ipfs/QmPV4ZS4tPVv4mTCf9ejyZ1ai57EEibDRj7mN2ARDCLV5n\"],\"license\":\"MIT\"},\"node_modules/@openzeppelin/contracts/utils/Address.sol\":{\"keccak256\":\"0xaf28a975a78550e45f65e559a3ad6a5ad43b9b8a37366999abd1b7084eb70721\",\"urls\":[\"bzz-raw://b7bd24e224f67f65bfadf85dc2929fa965456bb2415478bd0125471b5ce35245\",\"dweb:/ipfs/QmRaydGr8BTHs1kvaZfsNU69pKzUAGFrvABn1KiRSbE51y\"],\"license\":\"MIT\"},\"node_modules/@openzeppelin/contracts/utils/Context.sol\":{\"keccak256\":\"0x493033a8d1b176a037b2cc6a04dad01a5c157722049bbecf632ca876224dd4b2\",\"urls\":[\"bzz-raw://6a708e8a5bdb1011c2c381c9a5cfd8a9a956d7d0a9dc1bd8bcdaf52f76ef2f12\",\"dweb:/ipfs/Qmax9WHBnVsZP46ZxEMNRQpLQnrdE4dK8LehML1Py8FowF\"],\"license\":\"MIT\"},\"node_modules/@openzeppelin/contracts/utils/introspection/IERC165.sol\":{\"keccak256\":\"0x4296879f55019b23e135000eb36896057e7101fb7fb859c5ef690cf14643757b\",\"urls\":[\"bzz-raw://87b3541437c8c443ccd36795e56a338ed12855eec17f8da624511b8d1a7e14df\",\"dweb:/ipfs/QmeJQCtZrQjtJLr6u7ZHWeH3pBnjtLWzvRrKViAi7UZqxL\"],\"license\":\"MIT\"},\"node_modules/@openzeppelin/contracts/utils/structs/BitMaps.sol\":{\"keccak256\":\"0x3616f1b0d0a9ee1ca8f0953ecaceb9230e36f691c7974d30f964212acff52d2b\",\"urls\":[\"bzz-raw://d4bebdd07b31ac28e3e596ac6f0333da90a4e332405aa7d65f3a3a7e0b4cf15e\",\"dweb:/ipfs/QmckoDU5bBnye2UtPcrfJNahLD2FbxrnPP9nrREMWPpnug\"],\"license\":\"MIT\"},\"src/BPArbitrumSucker.sol\":{\"keccak256\":\"0x88a8e92cc62aa13128603a806803314d2cd5649e0380a670b8c3edbfd0815436\",\"urls\":[\"bzz-raw://76438568a0cc513fe5dc605a4fc246e845525423419cce6271d9790dc7e9a918\",\"dweb:/ipfs/QmTbUqb3xXXEus86D4REu7td47MDFCqcVREty99iS3r3sv\"],\"license\":\"MIT\"},\"src/BPSucker.sol\":{\"keccak256\":\"0x0f4f04d316f2b0e68e7a538de4d17d402ebf65fa63b5b25e43dd9a077a32ff3a\",\"urls\":[\"bzz-raw://1d3ff79802d9623da3d02a547e9a83d45a72491494c73cd7712c746fb5cd1b8f\",\"dweb:/ipfs/QmajmverUYhT5FgeKVZy8QRpvt21XbtRnKmL3WUfb5vsPW\"],\"license\":\"MIT\"},\"src/deployers/BPArbitrumSuckerDeployer.sol\":{\"keccak256\":\"0x9db261666364dde45061eb600907266403c79cecac6f842e487418eb7df23edb\",\"urls\":[\"bzz-raw://b088e18cbcfb1fb0a73bfa5d60791973a0d8df51a19abd673b3d7f83ee06194e\",\"dweb:/ipfs/QmWevuAd1E3JP4DcRYNb6jKn3q8N6f9BhPsiEW7vKW993u\"],\"license\":\"MIT\"},\"src/enums/BPAddToBalanceMode.sol\":{\"keccak256\":\"0xa6dcd5c6225e2b697775d37a6f3a8ae4030f7af1a7cb4bb91d572eef65134e43\",\"urls\":[\"bzz-raw://583699b0f81837a739e5e54a1e0b0400a6021602bd7f48472c8785b22d3f25eb\",\"dweb:/ipfs/QmfL4Jr6p8B5q8uFX1ZfUS5vPsUxiGgMy5udVg9z2kPUQk\"],\"license\":\"MIT\"},\"src/enums/BPLayer.sol\":{\"keccak256\":\"0x8576b5c17487d0372cdf56bc041724685a5deca4f5958bcd5fd377d08607076e\",\"urls\":[\"bzz-raw://57ec39dd1626aaa87198d1b66ac74701848eed0715bd7e08eba39a1388631c37\",\"dweb:/ipfs/QmPiFAKy4Z5L151a4v3teUPYEKkUg8bn4pvG7Kr61JW7t4\"],\"license\":\"MIT\"},\"src/interfaces/ArbL1GatewayRouter.sol\":{\"keccak256\":\"0x3363b66cdc4cef29cdb45b205d925d76bb2a2cd6eb0cf7687be02e81374bd34c\",\"urls\":[\"bzz-raw://aff9fce1b8b08ac9635a998e11b0961b789211ec44c305180994221782a57efe\",\"dweb:/ipfs/QmdGXxHQnZaSEenuugKjR18vCaUiF3Nyrb29cF5sWzig7H\"],\"license\":\"MIT\"},\"src/interfaces/ArbL2GatewayRouter.sol\":{\"keccak256\":\"0x4d22902fd327d0d0977c9812334bd2cf89c9e3a45f9664b60131017e76f22ed2\",\"urls\":[\"bzz-raw://0ce2eaa4b1ddd4efd6e880a8e8a06518caba470f00cecb9f58f5f0a613e18de2\",\"dweb:/ipfs/QmfPbnYW39Z2Mjd7o6a8Gc2r1u9taQmKMpsgfbLJgxLGZE\"],\"license\":\"MIT\"},\"src/interfaces/IArbGatewayRouter.sol\":{\"keccak256\":\"0x915da748a184ca04585e6da1b10cbdb7de99698de1cc31fa0f6d75d02eae4e8e\",\"urls\":[\"bzz-raw://c7204f56dc2c16a2c9a92785aadc67d737b46308d0403fc9a2a8db901700a43e\",\"dweb:/ipfs/Qma8RjHimvNwoQfzxbGYiJsTNWwTZaLN5N5ogBYu663xmN\"],\"license\":\"MIT\"},\"src/interfaces/IBPSucker.sol\":{\"keccak256\":\"0x2a3136ea5608c3e76b9f3114a470980f2a96427535aaccbd65dcc37d3a3dd0f8\",\"urls\":[\"bzz-raw://8cc997a396b183525892a0640ce03aee9fa3f15971266c826a308f6c74ff63f2\",\"dweb:/ipfs/QmZcoMkGbujqLm5B9v5urpFwUVg2uoG7ybPHX8RRxsygpe\"],\"license\":\"MIT\"},\"src/interfaces/IBPSuckerDeployer.sol\":{\"keccak256\":\"0x7592282265ffd3000787eb20d1ccdd698cb6f2eb641dfddcd2b61978eb5105a2\",\"urls\":[\"bzz-raw://1f4ac54122cbd52758573f23856e243635be43aa974f234e1a5560eef9990794\",\"dweb:/ipfs/QmXHXr5CGh2hT9UMsLdCZNT4XmRMTf9SuBNRwTtyN9Z2Re\"],\"license\":\"MIT\"},\"src/libraries/ARBAddresses.sol\":{\"keccak256\":\"0xdc712c7ce3c666cb65b8995ad4b155cb060929451a189c768f04a9dc7c42f3dc\",\"urls\":[\"bzz-raw://604852f4d3dddaf705ed5fbd469d62d5480e561c79e92cc4897e04d09bfc38f8\",\"dweb:/ipfs/QmXPxim4aunp9sJTpEijLutepQ8ckqNR4GAdDsY9TTL1kX\"],\"license\":\"MIT\"},\"src/libraries/ARBChains.sol\":{\"keccak256\":\"0x1b3ece7233c6b28660b48bd43464848ba5ac847a1ac917452800a69c93bbcae5\",\"urls\":[\"bzz-raw://1ba85d1a4145d8468abebeafe0072e0b77a9346e7b3c2bf12d56bd9491788747\",\"dweb:/ipfs/QmSYTqb2xy8jLt1oPbnqiakiD6ikgSBYog6fBVaWYZuRkP\"],\"license\":\"MIT\"},\"src/structs/BPClaim.sol\":{\"keccak256\":\"0x63a12013ec4c221781b057185a0e01c83ac19dcef115ad6238d25a22011da071\",\"urls\":[\"bzz-raw://0307e4377f2cbd3ec561405eb2ffa07e0d9fe2c39522eb0706e91b46efa1b2a7\",\"dweb:/ipfs/QmXKeKQ6mJGehNJt3v2fqE22MFoGjcpm2x9hHA25vu7xAH\"],\"license\":\"MIT\"},\"src/structs/BPInboxTreeRoot.sol\":{\"keccak256\":\"0xff494c45ee76d14e2ffb3cd0f22412b4a1a4d8e37b957a3ffb82b0b9db4f74ab\",\"urls\":[\"bzz-raw://a896310d4dcfecca8b1927bf82832c9b5de5a455228fd9aad2530729ce61739b\",\"dweb:/ipfs/QmUiep5HvdqgJZyJqt4kKxWuP2odhY5W9kX7pCuovTr3LM\"],\"license\":\"MIT\"},\"src/structs/BPLeaf.sol\":{\"keccak256\":\"0xaa2257b6d8fc05d9b37fdb40472cd2f4bed45e7ddc1ea9082ca5296215602bc8\",\"urls\":[\"bzz-raw://ebdf0d3c3961adb71fd7174f9a8eca8332202d07ee5a584abbb06b7c15db61d0\",\"dweb:/ipfs/QmWtqWUncWvZotfno2kiU5TeT3WTR9zfPzRTiktZskyS13\"],\"license\":\"MIT\"},\"src/structs/BPMessageRoot.sol\":{\"keccak256\":\"0xab832c9e92d412cc0d8e6758777694955fef6dcbc919f96b33052d68d0516d1d\",\"urls\":[\"bzz-raw://fa9fe2604015f05e1a4f2c1a92f4ef7b6cba3d08d9e7daa2b20190a9b1bce39c\",\"dweb:/ipfs/QmUDcrNmqnp1dPwkmPTjsu7Egbwtgsk42G9FNdrHk6JcB2\"],\"license\":\"MIT\"},\"src/structs/BPOutboxTree.sol\":{\"keccak256\":\"0xed569423f6ae3dafee5681a60b7c5d24b0c5f33ff0763937952e938be374d79e\",\"urls\":[\"bzz-raw://4dafb1348a51324105b2ee100e2174fee0f1397f0b2dd00483b2dcf049477ce4\",\"dweb:/ipfs/Qmcf8jizBW7BGGnHBVetaDvYcZ75ov8oYw8LubaNUHrHCv\"],\"license\":\"MIT\"},\"src/structs/BPRemoteToken.sol\":{\"keccak256\":\"0x703d0112f181683d9b3508bf9fc0ef2f5c3cac73de0a718d9f405561fad14622\",\"urls\":[\"bzz-raw://80c0dd5e9ef7648efc48306da2c50829490c41cf09292f0f82fa3e24ce9dbe37\",\"dweb:/ipfs/QmYTgR72bVH3r1xKvMaE1tRUAkqkZjZa2v1eki1973qn3U\"],\"license\":\"MIT\"},\"src/structs/BPTokenMapping.sol\":{\"keccak256\":\"0x84865bda925cdc9a608cbbfc487619acba391f98ae12bbbfdbc5779d617a17d9\",\"urls\":[\"bzz-raw://3bbc1fdd38feaf64fd4914bddb62cda7e5b8ee0f046a0eac8cfcb15f9493bcc5\",\"dweb:/ipfs/QmXgAx7sr1M8r71YrSeQJGAB1uhvdxpQyS633UgJvLCQfb\"],\"license\":\"MIT\"},\"src/utils/MerkleLib.sol\":{\"keccak256\":\"0x6803b76f79362d9b5cd8e32eb1da6ed675146554dcd2f77747c4406f5f7a25f4\",\"urls\":[\"bzz-raw://3db2984a7eae5e7dc78517fd3a696180e95fdf00bf3267b31d1dbaddb0865cab\",\"dweb:/ipfs/QmPG8Nxwcb5Q7unUzMLCwaaRv8MvR7rskfacSDqbDW5zPZ\"],\"license\":\"MIT OR Apache-2.0\"}},\"version\":1}",
			"args": [
				"0xCd7112aE7c3b2505F0795c1ba965e5694c25d696",
				"0x4207C2a3491D2f3AE33609588DDFEBEb8EEbcB6E",
				"0x6B8340b759d72E08b3fb674B48547E80631007cb",
				"0x6a65B75A3f37C6702A117Fb87B6bCaC62657d216"
			],
			"bytecode": "0x61012060405234801561001157600080fd5b506040516154713803806154718339810160408190526100309161006b565b6001600160a01b0391821660805281166101005291821660a0521660c0526100ca565b6001600160a01b038116811461006857600080fd5b50565b6000806000806080858703121561008157600080fd5b845161008c81610053565b602086015190945061009d81610053565b60408601519093506100ae81610053565b60608601519092506100bf81610053565b939692955090935050565b60805160a05160c05160e0516101005161536061011160003960005050600060ee0152600061024801526000610227015260008181610122015261026901526153606000f3fe608060405234801561001057600080fd5b50600436106100625760003560e01c806303c85ea314610067578063121303661461008c578063ba8b1d1a1461009f578063c39ec124146100b6578063c86719b7146100e9578063f434c9141461011d575b600080fd5b61006f610144565b6040516001600160a01b0390911681526020015b60405180910390f35b61006f61009a3660046102fd565b6101dd565b6100a860015481565b604051908152602001610083565b6100d96100c436600461031f565b60006020819052908152604090205460ff1681565b6040519015158152602001610083565b6101107f000000000000000000000000000000000000000000000000000000000000000081565b6040516100839190610370565b61006f7f000000000000000000000000000000000000000000000000000000000000000081565b600046600019810161016b577372ce9c846789fdb6fc1f34ac4ad25dd9ef7031ef91505090565b61a4b1810361018f57735288c571fd7ad117bea99bf60fe0846c4e84f93391505090565b62aa36a781036101b45773ce18836b233c83325cc8848ca4487e94c628826491505090565b62066eee81036101d957739fdd1c4e4aa24eec1d913fabea925594a20d43c791505090565b5090565b6040516bffffffffffffffffffffffff193360601b1660208201526034810182905260009060540160405160208183030381529060405280519060200120915082600181905550817f00000000000000000000000000000000000000000000000000000000000000007f00000000000000000000000000000000000000000000000000000000000000007f0000000000000000000000000000000000000000000000000000000000000000600080604051610297906102f0565b6102a5959493929190610383565b8190604051809103906000f59050801580156102c5573d6000803e3d6000fd5b506001600160a01b0381166000908152602081905260409020805460ff191660011790559392505050565b614f66806103c583390190565b6000806040838503121561031057600080fd5b50508035926020909101359150565b60006020828403121561033157600080fd5b81356001600160a01b038116811461034857600080fd5b9392505050565b6002811061036d57634e487b7160e01b600052602160045260246000fd5b50565b6020810161037d8361034f565b91905290565b6001600160a01b038681168252858116602083015284811660408301528316606082015260a081016103b48361034f565b826080830152969550505050505056fe6101c06040523480156200001257600080fd5b5060405162004f6638038062004f66833981016040819052620000359162000297565b6001600160a01b0380841660805280861660c05280851660e052859085908590859085908216156200006857816200006a565b305b6001600160a01b03166101205260408051635d458e8d60e11b81529051339163ba8b1d1a9160048083019260209291908290030181865afa158015620000b4573d6000803e3d6000fd5b505050506040513d601f19601f82011682018060405250810190620000da91906200031a565b610140523361010052806001811115620000f857620000f862000334565b60a08160018111156200010f576200010f62000334565b905250504693506200012692508391505062000249565b620001445760405163f21c9f0760e01b815260040160405180910390fd5b600181148062000156575062aa36a781145b15620001aa57600061016052600181146200018c5773aae29b0366299461418f5324a79afc425be5ae216101a0819052620001a8565b734dbd4fc535ac27206064b68ffcf827b0a60bab3f6101a08190525b505b61a4b1811480620001bd575062066eee81145b15620001ca576001610160525b336001600160a01b03166303c85ea36040518163ffffffff1660e01b8152600401602060405180830381865afa15801562000209573d6000803e3d6000fd5b505050506040513d601f19601f820116820180604052508101906200022f91906200034a565b6001600160a01b0316610180525062000371945050505050565b600060018214806200025d575062aa36a782145b806200026a575061a4b182145b8062000278575062066eee82145b92915050565b6001600160a01b03811681146200029457600080fd5b50565b600080600080600060a08688031215620002b057600080fd5b8551620002bd816200027e565b6020870151909550620002d0816200027e565b6040870151909450620002e3816200027e565b6060870151909350620002f6816200027e565b6080870151909250600281106200030c57600080fd5b809150509295509295909350565b6000602082840312156200032d57600080fd5b5051919050565b634e487b7160e01b600052602160045260246000fd5b6000602082840312156200035d57600080fd5b81516200036a816200027e565b9392505050565b60805160a05160c05160e05161010051610120516101405161016051610180516101a051614a76620004f0600039600081816103b901528181611d800152818161348501526136fe01526000818161053c0152818161356f015281816135e20152818161381901526138b2015260008181610508015281816114d40152611d470152600081816102200152818161080b0152818161088801528181610a2501528181610eae01528181610f5701528181611633015281816116f801528181611775015281816119f601528181611aaf01528181611bb10152611cd901526000818161038501528181611eec01528181611f34015281816136140152818161372e015281816138e1015261397a0152600061049301526000818161016d0152610a4e0152600081816103510152818161077c01528181610ed40152818161166e0152611a250152600081816104c701528181610bc401528181610e5001526110690152600081816105fc0152818161121401526112bd0152614a766000f3fe60806040526004361061014f5760003560e01c8063b1012368116100b6578063c6525f2c1161006f578063c6525f2c146104b5578063c86719b7146104f6578063defbb6971461052a578063e7f82c751461055e578063ed0e26b91461058b578063f434c914146105ea57600080fd5b8063b1012368146103a7578063b59ef50f146103db578063b71c1179146103fb578063bf557aee1461040e578063c185412914610461578063c1b8411a1461048157600080fd5b806369ce22331161010857806369ce22331461026557806369d31fdd146102855780636dfa7268146102985780637de6fba2146102c757806388bc2ef31461033f578063ad42938b1461037357600080fd5b80631d831d5c1461015b5780632241dc52146101ac57806338eb2044146101ce578063551ebbf0146101ee57806356539f391461020e57806361c864171461025057600080fd5b3661015657005b600080fd5b34801561016757600080fd5b5061018f7f000000000000000000000000000000000000000000000000000000000000000081565b6040516001600160a01b0390911681526020015b60405180910390f35b3480156101b857600080fd5b506101cc6101c7366004614272565b61061e565b005b3480156101da57600080fd5b506101cc6101e93660046142fe565b610656565b3480156101fa57600080fd5b506101cc61020936600461432f565b6109ef565b34801561021a57600080fd5b506102427f000000000000000000000000000000000000000000000000000000000000000081565b6040519081526020016101a3565b34801561025c57600080fd5b50610242610b6e565b34801561027157600080fd5b506101cc610280366004614379565b610bc0565b6101cc6102933660046142fe565b610c39565b3480156102a457600080fd5b506102b86102b3366004614379565b610daa565b6040516101a393929190614396565b3480156102d357600080fd5b506103156102e2366004614379565b6003602052600090815260409020805460019091015463ffffffff82169164010000000090046001600160a01b03169083565b6040805163ffffffff90941684526001600160a01b039092166020840152908201526060016101a3565b34801561034b57600080fd5b5061018f7f000000000000000000000000000000000000000000000000000000000000000081565b34801561037f57600080fd5b5061018f7f000000000000000000000000000000000000000000000000000000000000000081565b3480156103b357600080fd5b5061018f7f000000000000000000000000000000000000000000000000000000000000000081565b3480156103e757600080fd5b506101cc6103f63660046143ef565b610e14565b6101cc610409366004614379565b6110e8565b34801561041a57600080fd5b50610451610429366004614379565b6001600160a01b03908116600090815260036020526040902054640100000000900416151590565b60405190151581526020016101a3565b34801561046d57600080fd5b506101cc61047c366004614402565b611196565b34801561048d57600080fd5b5061018f7f000000000000000000000000000000000000000000000000000000000000000081565b3480156104c157600080fd5b506104e97f000000000000000000000000000000000000000000000000000000000000000081565b6040516101a39190614499565b34801561050257600080fd5b506104e97f000000000000000000000000000000000000000000000000000000000000000081565b34801561053657600080fd5b5061018f7f000000000000000000000000000000000000000000000000000000000000000081565b34801561056a57600080fd5b50610242610579366004614379565b60026020526000908152604090205481565b34801561059757600080fd5b506105cb6105a6366004614379565b600160208190526000918252604090912080549101546001600160401b039091169082565b604080516001600160401b0390931683526020830191909152016101a3565b3480156105f657600080fd5b5061018f7f000000000000000000000000000000000000000000000000000000000000000081565b60005b818110156106515761064983838381811061063e5761063e6144ac565b905060800201610656565b600101610621565b505050565b60006106656020830183614379565b9050600061eeee6106796020850185614379565b6001600160a01b03161490508080156106ac575061eeee6106a06060850160408601614379565b6001600160a01b031614155b80156106d1575060006106c56060850160408601614379565b6001600160a01b031614155b15610710576106e66060840160408501614379565b604051630a0a3b6b60e31b81526001600160a01b0390911660048201526024015b60405180910390fd5b62030d4061072460408501602086016144c2565b63ffffffff16108015610735575080155b156107775762030d4061074e60408501602086016144c2565b604051634f3dbeb360e11b815263ffffffff928316600482015291166024820152604401610707565b6108ae7f00000000000000000000000000000000000000000000000000000000000000006001600160a01b031663293c49996040518163ffffffff1660e01b8152600401602060405180830381865afa1580156107d8573d6000803e3d6000fd5b505050506040513d601f19601f820116820180604052508101906107fc91906144e8565b6040516331a9108f60e11b81527f000000000000000000000000000000000000000000000000000000000000000060048201526001600160a01b039190911690636352211e90602401602060405180830381865afa158015610862573d6000803e3d6000fd5b505050506040513d601f19601f8201168201806040525081019061088691906144e8565b7f0000000000000000000000000000000000000000000000000000000000000000601c6111ca565b60006108c06060850160408601614379565b6001600160a01b03161480156108f057506001600160a01b03821660009081526020819052604090206001015415155b1561094b576001600160a01b0380831660009081526003602090815260408083208151606081018352815463ffffffff811682526401000000009004909516928501929092526001909101549083015261094b91849061134e565b604051806060016040528084602001602081019061096991906144c2565b63ffffffff1681526020016109846060860160408701614379565b6001600160a01b0390811682526060909501356020918201529284166000908152600384526040908190208251815495840151909616640100000000026001600160c01b031990951663ffffffff909616959095179390931784559091015160019092019190915550565b6001600160a01b038316610a16576040516309a9c30b60e41b815260040160405180910390fd5b60405163ea78803f60e01b81527f000000000000000000000000000000000000000000000000000000000000000060048201526000907f00000000000000000000000000000000000000000000000000000000000000006001600160a01b03169063ea78803f90602401602060405180830381865afa158015610a9d573d6000803e3d6000fd5b505050506040513d601f19601f82011682018060405250810190610ac191906144e8565b90506001600160a01b038116610aea57604051635a33845560e01b815260040160405180910390fd5b6001600160a01b03828116600090815260036020526040902054640100000000900416610b355760405163393e175160e01b81526001600160a01b0383166004820152602401610707565b610b4a6001600160a01b0382163330886115bd565b6000610b5882878587611624565b9050610b6686848388611817565b505050505050565b6000466000198101610b835761a4b191505090565b61a4b18103610b9457600191505090565b62aa36a78103610ba85762066eee91505090565b62066eee8103610bbc5762aa36a791505090565b5090565b60007f00000000000000000000000000000000000000000000000000000000000000006001811115610bf457610bf4614465565b14610c125760405163218a9a2d60e11b815260040160405180910390fd5b6001600160a01b038116600090815260026020526040902054610c36908290611990565b50565b610c4233611d42565b610c5f57604051630439dbd360e51b815260040160405180910390fd5b60208101803590600290600090610c769085614379565b6001600160a01b03166001600160a01b031681526020019081526020016000206000828254610ca5919061451b565b90915550600190506000610cbc6020840184614379565b6001600160a01b0316815260208101919091526040908101600020546001600160401b031690610cf29060608401908401614543565b6001600160401b03161115610c36576040810160016000610d166020850185614379565b6001600160a01b031681526020810191909152604001600020610d398282614560565b50610d4990506020820182614379565b6001600160a01b03167f551b6b99b4c48e3265d2885ab0d93779be2402293261e074f7bf74b2c8f45b6f610d836060840160408501614543565b604080516001600160401b039092168252606085013560208301520160405180910390a250565b6000602081815291815260409081902080546001820154835161044081018086526001600160401b0390931695919490926002850192849283019184919082845b815481526020019060010190808311610deb575050509183525050602091820154910152905083565b610e4c6060820135610e296020840184614379565b6080840135610e3e6060860160408701614379565b602086013560a08701611f6f565b60017f00000000000000000000000000000000000000000000000000000000000000006001811115610e8057610e80614465565b03610e9f57610e9f610e956020830183614379565b6080830135611990565b604051632eec7b5560e11b81527f000000000000000000000000000000000000000000000000000000000000000060048201527f00000000000000000000000000000000000000000000000000000000000000006001600160a01b031690635dd8f6aa90602401602060405180830381865afa158015610f23573d6000803e3d6000fd5b505050506040513d601f19601f82011682018060405250810190610f4791906144e8565b6001600160a01b031663c7fb92de7f000000000000000000000000000000000000000000000000000000000000000060608401803590610f8a9060408701614379565b6040516001600160e01b031960e086901b168152600481019390935260248301919091526001600160a01b0316604482015260a06064820152600060a48201819052608482015260c4016020604051808303816000875af1158015610ff3573d6000803e3d6000fd5b505050506040513d601f19601f820116820180604052508101906110179190614593565b507f487194902d206a126abe9f23a4e2b78d1600ed8034b1423290a13edd6ebc7d146110496060830160408401614379565b6110566020840184614379565b60608401356080850135602086013560017f0000000000000000000000000000000000000000000000000000000000000000600181111561109957611099614465565b146110a55760006110a8565b60015b604080516001600160a01b0397881681529690951660208701529385019290925260608401526080830152151560a082015260c00160405180910390a150565b6001600160a01b0380821660008181526003602090815260408083208151606081018352815463ffffffff811682526401000000009004909616868401526001908101548683018190529484529183905290912001541015611187576040808201516001600160a01b0384166000908152602081905282902060010154915163091df9e560e31b81526107079290600401918252602082015260400190565b61119234838361134e565b5050565b60005b81811015610651576111c28383838181106111b6576111b66144ac565b90506104a00201610e14565b600101611199565b336001600160a01b0384168114801590611281575060405163c161c93f60e01b81526001600160a01b038281166004830152858116602483015260448201859052606482018490527f0000000000000000000000000000000000000000000000000000000000000000169063c161c93f90608401602060405180830381865afa15801561125b573d6000803e3d6000fd5b505050506040513d601f19601f8201168201806040525081019061127f91906145ac565b155b801561132a575060405163c161c93f60e01b81526001600160a01b038281166004830152858116602483015260006044830152606482018490527f0000000000000000000000000000000000000000000000000000000000000000169063c161c93f90608401602060405180830381865afa158015611304573d6000803e3d6000fd5b505050506040513d601f19601f8201168201806040525081019061132891906145ac565b155b156113485760405163075fd2b160e01b815260040160405180910390fd5b50505050565b6001600160a01b038216600090815260208190526040812060018101805490839055815490929190829061138a906001600160401b03166145ce565b91906101000a8154816001600160401b0302191690836001600160401b031602179055905060006001600160a01b031683602001516001600160a01b0316036113f15760405163393e175160e01b81526001600160a01b0385166004820152602401610707565b6000604051806060016040528085602001516001600160a01b031681526020018481526020016040518060400160405280856001600160401b031681526020016114606000808b6001600160a01b03166001600160a01b0316815260200190815260200160002060020161209f565b905290526040805182516001600160a01b031660248201526020808401516044830152929091015180516001600160401b0316606483015290910151608482015260a40160408051601f198184030181529190526020810180516001600160e01b03166369d31fdd60e01b179052905060007f0000000000000000000000000000000000000000000000000000000000000000600181111561150457611504614465565b0361151b576115168587858488613455565b611527565b611527858483876137c1565b6001600160a01b038516600081815260208190526040902061154b9060020161209f565b6001600160a01b0387166000908152602081905260409020602201547f3e069c1f498cba23d7d2b74b84311469e8da6e527cade62061d642c61b64e0de90611595906001906145f4565b604080519182526001600160401b0387166020830152015b60405180910390a3505050505050565b6040516001600160a01b0384811660248301528381166044830152606482018390526113489186918216906323b872dd906084015b604051602081830303815290604052915060e01b6020820180516001600160e01b0383818316178352505050506139e7565b604051630862026560e41b81527f000000000000000000000000000000000000000000000000000000000000000060048201526001600160a01b03838116602483015260009182917f00000000000000000000000000000000000000000000000000000000000000001690638620265090604401602060405180830381865afa1580156116b5573d6000803e3d6000fd5b505050506040513d601f19601f820116820180604052508101906116d991906144e8565b90506001600160a01b03811661173357604051630c9ae01360e01b81527f000000000000000000000000000000000000000000000000000000000000000060048201526001600160a01b0385166024820152604401610707565b600061173f8530613a4a565b60408051602081018252600081529051635db90a7f60e11b81529192506001600160a01b0384169163bb7214fe916117a59130917f0000000000000000000000000000000000000000000000000000000000000000918b918d918c918691600401614657565b6020604051808303816000875af11580156117c4573d6000803e3d6000fd5b505050506040513d601f19601f820116820180604052508101906117e89190614593565b9250806117f58630613a4a565b6117ff91906145f4565b831461180d5761180d6146a9565b5050949350505050565b6000611824858484613ae3565b6001600160a01b03851660009081526020818152604080832081516104408101808452959650939461188f9487949093600290930192849290830191849182845b81548152602001906001019080831161186557505050918352505060209182015491015290613b28565b6001600160a01b038616600090815260208181526040909120825192935083926002909101916118c09183916141e4565b50602091820151908201556001600160a01b0386166000908152908190526040812060010180548692906118f590849061451b565b92505081905550846001600160a01b0316836001600160a01b03167f7b58dbb78e7edc690b0688a53dea0c443d630c4a5db66c3c47d4ff2044c97728846001856020015161194391906145f4565b6001600160a01b038a1660009081526020819052604090206119679060020161209f565b60408051938452602084019290925290820152606081018a90526080810188905260a0016115ad565b6001600160a01b038216600090815260026020526040902054808211156119ca57604051632858f9ab60e11b815260040160405180910390fd5b6001600160a01b03838116600081815260026020526040808220868603905551630862026560e41b81527f000000000000000000000000000000000000000000000000000000000000000060048201526024810192909252917f00000000000000000000000000000000000000000000000000000000000000001690638620265090604401602060405180830381865afa158015611a6c573d6000803e3d6000fd5b505050506040513d601f19601f82011682018060405250810190611a9091906144e8565b90506001600160a01b038116611aea57604051630c9ae01360e01b81527f000000000000000000000000000000000000000000000000000000000000000060048201526001600160a01b0385166024820152604401610707565b6001600160a01b03841661eeee14611c9a576040516370a0823160e01b81523060048201526000906001600160a01b038616906370a0823190602401602060405180830381865afa158015611b43573d6000803e3d6000fd5b505050506040513d601f19601f82011682018060405250810190611b679190614593565b9050611b74858386613c2e565b60408051602080820183526000808352835191820184528082529251639e6eec0560e01b81526001600160a01b03861693639e6eec0593611be1937f0000000000000000000000000000000000000000000000000000000000000000938c938c93909290916004016146bf565b600060405180830381600087803b158015611bfb57600080fd5b505af1158015611c0f573d6000803e3d6000fd5b505050508381611c1f91906145f4565b6040516370a0823160e01b81523060048201526001600160a01b038716906370a0823190602401602060405180830381865afa158015611c63573d6000803e3d6000fd5b505050506040513d601f19601f82011682018060405250810190611c879190614593565b14611c9457611c946146a9565b50611348565b60408051602080820183526000808352835191820184528082529251639e6eec0560e01b81526001600160a01b03851693639e6eec05938893611d0a937f0000000000000000000000000000000000000000000000000000000000000000938c93879391929091906004016146bf565b6000604051808303818588803b158015611d2357600080fd5b505af1158015611d37573d6000803e3d6000fd5b505050505050505050565b6000807f00000000000000000000000000000000000000000000000000000000000000006001811115611d7757611d77614465565b03611f1d5760007f00000000000000000000000000000000000000000000000000000000000000006001600160a01b031663e78cea926040518163ffffffff1660e01b8152600401602060405180830381865afa158015611ddc573d6000803e3d6000fd5b505050506040513d601f19601f82011682018060405250810190611e0091906144e8565b9050806001600160a01b0316836001600160a01b0316148015611f165750806001600160a01b031663ab5d89436040518163ffffffff1660e01b8152600401602060405180830381865afa158015611e5c573d6000803e3d6000fd5b505050506040513d601f19601f82011682018060405250810190611e8091906144e8565b6001600160a01b03166380648b026040518163ffffffff1660e01b8152600401602060405180830381865afa158015611ebd573d6000803e3d6000fd5b505050506040513d601f19601f82011682018060405250810190611ee191906144e8565b6001600160a01b03167f00000000000000000000000000000000000000000000000000000000000000006001600160a01b0316145b9392505050565b7311110000000000000000000000000000000011117f0000000000000000000000000000000000000000000000000000000000000000016001600160a01b0316826001600160a01b0316149050919050565b6001600160a01b0385166000908152600460209081526040808320600886901c8452909152902054600160ff84161b1615611fc05760405163ed9bdd0760e01b815260048101839052602401610707565b6001600160a01b0385166000908152600460209081526040808320600886901c845290915281208054600160ff86161b17905561202f612001888787613ae3565b604080516104008181019092529085906020908390839080828437600092019190915250879150613cbe9050565b6001600160a01b038716600090815260016020819052604090912001549091508114612096576001600160a01b0386166000908152600160208190526040918290200154905163286f87c960e21b8152600481019190915260248101829052604401610707565b50505050505050565b60208101546000908082036120d657507f27ae5ba08d7291c96c8cbddcc148bf48a6d68c7974b94356f53754ef6171d75792915050565b60008360018316156120f85780546000526000602052604060002093506129ab565b600283161561213d5760018101546000527fad3228b676f7d3cd4284a5443f17f1962b36e491b30a40b2405849e597ba5fb560205260406000209350600191506129ab565b60048316156121825760028101546000527fb4c11951957c6f8f642c4af61cd6b24640fec6dc7fc607ee8206a99e92410d3060205260406000209350600291506129ab565b60088316156121c75760038101546000527f21ddb9a356815c3fac1026b6dec5df3124afbadb485c9ba5a3e3398a04b7ba8560205260406000209350600391506129ab565b601083161561220c5760048101546000527fe58769b32a1beaf1ea27375a44095a0d1fb664ce2dd358e7fcbfb78c26a1934460205260406000209350600491506129ab565b60208316156122515760058101546000527f0eb01ebfc9ed27500cd4dfc979272d1f0913cc9f66540d7e8005811109e1cf2d60205260406000209350600591506129ab565b60408316156122965760068101546000527f887c22bd8750d34016ac3c66b5ff102dacdd73f6b014e710b51e8022af9a196860205260406000209350600691506129ab565b60808316156122db5760078101546000527fffd70157e48063fc33c97a050f7f640233bf646cc98d9524c6b92bcf3ab56f8360205260406000209350600791506129ab565b6101008316156123215760088101546000527f9867cc5f7f196b93bae1e27e6320742445d290f2263827498b54fec539f756af60205260406000209350600891506129ab565b6102008316156123675760098101546000527fcefad4e508c098b9a7e1d8feb19955fb02ba9675585078710969d3440f5054e060205260406000209350600991506129ab565b6104008316156123ad57600a8101546000527ff9dc3e7fe016e050eff260334f18a5d4fe391d82092319f5964f2e2eb7c1c3a560205260406000209350600a91506129ab565b6108008316156123f357600b8101546000527ff8b13a49e282f609c317a833fb8d976d11517c571d1221a265d25af778ecf89260205260406000209350600b91506129ab565b61100083161561243957600c8101546000527f3490c6ceeb450aecdc82e28293031d10c7d73bf85e57bf041a97360aa2c5d99c60205260406000209350600c91506129ab565b61200083161561247f57600d8101546000527fc1df82d9c4b87413eae2ef048f94b4d3554cea73d92b0f7af96e0271c691e2bb60205260406000209350600d91506129ab565b6140008316156124c557600e8101546000527f5c67add7c6caf302256adedf7ab114da0acfe870d449a3a489f781d659e8becc60205260406000209350600e91506129ab565b61800083161561250b57600f8101546000527fda7bce9f4e8618b6bd2f4132ce798cdc7a60e7e1460a7299e3c6342a579626d260205260406000209350600f91506129ab565b620100008316156125525760108101546000527f2733e50f526ec2fa19a22b31e8ed50f23cd1fdf94c9154ed3a7609a2f1ff981f60205260406000209350601091506129ab565b620200008316156125995760118101546000527fe1d3b5c807b281e4683cc6d6315cf95b9ade8641defcb32372f1c126e398ef7a60205260406000209350601191506129ab565b620400008316156125e05760128101546000527f5a2dce0a8a7f68bb74560f8f71837c2c2ebbcbf7fffb42ae1896f13f7c7479a060205260406000209350601291506129ab565b620800008316156126275760138101546000527fb46a28b6f55540f89444f63de0378e3d121be09e06cc9ded1c20e65876d36aa060205260406000209350601391506129ab565b6210000083161561266e5760148101546000527fc65e9645644786b620e2dd2ad648ddfcbf4a7e5b1a3a4ecfe7f64667a3f0b7e260205260406000209350601491506129ab565b622000008316156126b55760158101546000527ff4418588ed35a2458cffeb39b93d26f18d2ab13bdce6aee58e7b99359ec2dfd960205260406000209350601591506129ab565b624000008316156126fc5760168101546000527f5a9c16dc00d6ef18b7933a6f8dc65ccb55667138776f7dea101070dc8796e37760205260406000209350601691506129ab565b628000008316156127435760178101546000527f4df84f40ae0c8229d0d6069e5c8f39a7c299677a09d367fc7b05e3bc380ee65260205260406000209350601791506129ab565b630100000083161561278b5760188101546000527fcdc72595f74c7b1043d0e1ffbab734648c838dfb0527d971b602bc216c9619ef60205260406000209350601891506129ab565b63020000008316156127d35760198101546000527f0abf5ac974a1ed57f4050aa510dd9c74f508277b39d7973bb2dfccc5eeb0618d60205260406000209350601991506129ab565b630400000083161561281b57601a8101546000527fb8cd74046ff337f0a7bf2c8e03e10f642c1886798d71806ab1e888d9e5ee87d060205260406000209350601a91506129ab565b630800000083161561286357601b8101546000527f838c5655cb21c6cb83313b5a631175dff4963772cce9108188b34ac87c81c41e60205260406000209350601b91506129ab565b63100000008316156128ab57601c8101546000527f662ee4dd2dd7b2bc707961b1e646c4047669dcb6584f0d8d770daf5d7e7deb2e60205260406000209350601c91506129ab565b63200000008316156128f357601d8101546000527f388ab20e2573d171a88108e79d820e98f26c0b84aa8b2f4aa4968dbb818ea32260205260406000209350601d91506129ab565b634000000083161561293b57601e8101546000527f93237c50ba75ee485f4c22adf2f741400bdf8d6a9cc7df7ecae576221665d73560205260406000209350601e91506129ab565b638000000083161561298357601f8101546000527f8448818bb4ae4562849e949e17ac16e0be16688e156b5cf15e098c627c0056a960205260406000209350601f91506129ab565b7f27ae5ba08d7291c96c8cbddcc148bf48a6d68c7974b94356f53754ef6171d7579350602091505b601e821161344d576001821015612a09576002831680156129d757600182015460005284602052612a00565b846000527fad3228b676f7d3cd4284a5443f17f1962b36e491b30a40b2405849e597ba5fb56020525b50604060002093505b6002821015612a5f57600483168015612a2d57600282015460005284602052612a56565b846000527fb4c11951957c6f8f642c4af61cd6b24640fec6dc7fc607ee8206a99e92410d306020525b50604060002093505b6003821015612ab557600883168015612a8357600382015460005284602052612aac565b846000527f21ddb9a356815c3fac1026b6dec5df3124afbadb485c9ba5a3e3398a04b7ba856020525b50604060002093505b6004821015612b0b57601083168015612ad957600482015460005284602052612b02565b846000527fe58769b32a1beaf1ea27375a44095a0d1fb664ce2dd358e7fcbfb78c26a193446020525b50604060002093505b6005821015612b6157602083168015612b2f57600582015460005284602052612b58565b846000527f0eb01ebfc9ed27500cd4dfc979272d1f0913cc9f66540d7e8005811109e1cf2d6020525b50604060002093505b6006821015612bb757604083168015612b8557600682015460005284602052612bae565b846000527f887c22bd8750d34016ac3c66b5ff102dacdd73f6b014e710b51e8022af9a19686020525b50604060002093505b6007821015612c0d57608083168015612bdb57600782015460005284602052612c04565b846000527fffd70157e48063fc33c97a050f7f640233bf646cc98d9524c6b92bcf3ab56f836020525b50604060002093505b6008821015612c645761010083168015612c3257600882015460005284602052612c5b565b846000527f9867cc5f7f196b93bae1e27e6320742445d290f2263827498b54fec539f756af6020525b50604060002093505b6009821015612cbb5761020083168015612c8957600982015460005284602052612cb2565b846000527fcefad4e508c098b9a7e1d8feb19955fb02ba9675585078710969d3440f5054e06020525b50604060002093505b600a821015612d125761040083168015612ce057600a82015460005284602052612d09565b846000527ff9dc3e7fe016e050eff260334f18a5d4fe391d82092319f5964f2e2eb7c1c3a56020525b50604060002093505b600b821015612d695761080083168015612d3757600b82015460005284602052612d60565b846000527ff8b13a49e282f609c317a833fb8d976d11517c571d1221a265d25af778ecf8926020525b50604060002093505b600c821015612dc05761100083168015612d8e57600c82015460005284602052612db7565b846000527f3490c6ceeb450aecdc82e28293031d10c7d73bf85e57bf041a97360aa2c5d99c6020525b50604060002093505b600d821015612e175761200083168015612de557600d82015460005284602052612e0e565b846000527fc1df82d9c4b87413eae2ef048f94b4d3554cea73d92b0f7af96e0271c691e2bb6020525b50604060002093505b600e821015612e6e5761400083168015612e3c57600e82015460005284602052612e65565b846000527f5c67add7c6caf302256adedf7ab114da0acfe870d449a3a489f781d659e8becc6020525b50604060002093505b600f821015612ec55761800083168015612e9357600f82015460005284602052612ebc565b846000527fda7bce9f4e8618b6bd2f4132ce798cdc7a60e7e1460a7299e3c6342a579626d26020525b50604060002093505b6010821015612f1d576201000083168015612eeb57601082015460005284602052612f14565b846000527f2733e50f526ec2fa19a22b31e8ed50f23cd1fdf94c9154ed3a7609a2f1ff981f6020525b50604060002093505b6011821015612f75576202000083168015612f4357601182015460005284602052612f6c565b846000527fe1d3b5c807b281e4683cc6d6315cf95b9ade8641defcb32372f1c126e398ef7a6020525b50604060002093505b6012821015612fcd576204000083168015612f9b57601282015460005284602052612fc4565b846000527f5a2dce0a8a7f68bb74560f8f71837c2c2ebbcbf7fffb42ae1896f13f7c7479a06020525b50604060002093505b6013821015613025576208000083168015612ff35760138201546000528460205261301c565b846000527fb46a28b6f55540f89444f63de0378e3d121be09e06cc9ded1c20e65876d36aa06020525b50604060002093505b601482101561307d57621000008316801561304b57601482015460005284602052613074565b846000527fc65e9645644786b620e2dd2ad648ddfcbf4a7e5b1a3a4ecfe7f64667a3f0b7e26020525b50604060002093505b60158210156130d55762200000831680156130a3576015820154600052846020526130cc565b846000527ff4418588ed35a2458cffeb39b93d26f18d2ab13bdce6aee58e7b99359ec2dfd96020525b50604060002093505b601682101561312d5762400000831680156130fb57601682015460005284602052613124565b846000527f5a9c16dc00d6ef18b7933a6f8dc65ccb55667138776f7dea101070dc8796e3776020525b50604060002093505b60178210156131855762800000831680156131535760178201546000528460205261317c565b846000527f4df84f40ae0c8229d0d6069e5c8f39a7c299677a09d367fc7b05e3bc380ee6526020525b50604060002093505b60188210156131de576301000000831680156131ac576018820154600052846020526131d5565b846000527fcdc72595f74c7b1043d0e1ffbab734648c838dfb0527d971b602bc216c9619ef6020525b50604060002093505b6019821015613237576302000000831680156132055760198201546000528460205261322e565b846000527f0abf5ac974a1ed57f4050aa510dd9c74f508277b39d7973bb2dfccc5eeb0618d6020525b50604060002093505b601a8210156132905763040000008316801561325e57601a82015460005284602052613287565b846000527fb8cd74046ff337f0a7bf2c8e03e10f642c1886798d71806ab1e888d9e5ee87d06020525b50604060002093505b601b8210156132e9576308000000831680156132b757601b820154600052846020526132e0565b846000527f838c5655cb21c6cb83313b5a631175dff4963772cce9108188b34ac87c81c41e6020525b50604060002093505b601c8210156133425763100000008316801561331057601c82015460005284602052613339565b846000527f662ee4dd2dd7b2bc707961b1e646c4047669dcb6584f0d8d770daf5d7e7deb2e6020525b50604060002093505b601d82101561339b5763200000008316801561336957601d82015460005284602052613392565b846000527f388ab20e2573d171a88108e79d820e98f26c0b84aa8b2f4aa4968dbb818ea3226020525b50604060002093505b601e8210156133f4576340000000831680156133c257601e820154600052846020526133eb565b846000527f93237c50ba75ee485f4c22adf2f741400bdf8d6a9cc7df7ecae576221665d7356020525b50604060002093505b601f82101561344d5763800000008316801561341b57601f82015460005284602052613444565b846000527f8448818bb4ae4562849e949e17ac16e0be16688e156b5cf15e098c627c0056a96020525b50604060002093505b505050919050565b815160405163a66b327d60e01b81526004810191909152630bebc200602482015260009081906001600160a01b037f0000000000000000000000000000000000000000000000000000000000000000169063a66b327d90604401602060405180830381865afa1580156134cc573d6000803e3d6000fd5b505050506040513d601f19601f820116820180604052508101906134f09190614593565b90506000613505620493e0630bebc200614706565b6135159063ffffffff168361451b565b90508087101561353857604051636eb14fc360e11b815260040160405180910390fd5b6001600160a01b03881661eeee146136ce57604051635ed004ff60e11b81526001600160a01b03808a1660048301526135e0918a917f0000000000000000000000000000000000000000000000000000000000000000169063bda009fe90602401602060405180830381865afa1580156135b6573d6000803e3d6000fd5b505050506040513d601f19601f820116820180604052508101906135da91906144e8565b88613c2e565b7f00000000000000000000000000000000000000000000000000000000000000006001600160a01b0316634fb1a07b888a337f00000000000000000000000000000000000000000000000000000000000000008b620493e0630bebc2008a8e60405160200161365092919061472e565b6040516020818303038152906040526040518963ffffffff1660e01b8152600401613681979695949392919061474f565b60006040518083038185885af115801561369f573d6000803e3d6000fd5b50505050506040513d6000823e601f3d908101601f191682016040526136c891908101906147b3565b506136d2565b8592505b866136dd828561451b565b11156136fc57604051636eb14fc360e11b815260040160405180910390fd5b7f00000000000000000000000000000000000000000000000000000000000000006001600160a01b031663679b6ded887f000000000000000000000000000000000000000000000000000000000000000086863333620493e0630bebc2008e6040518a63ffffffff1660e01b815260040161377e98979695949392919061485f565b60206040518083038185885af115801561379c573d6000803e3d6000fd5b50505050506040513d601f19601f82011682018060405250810190611d379190614593565b600034156137e2576040516352864b0160e11b815260040160405180910390fd5b6001600160a01b03851661eeee1461395957604051635ed004ff60e11b81526001600160a01b03808716600483015261388a9187917f0000000000000000000000000000000000000000000000000000000000000000169063bda009fe90602401602060405180830381865afa158015613860573d6000803e3d6000fd5b505050506040513d601f19601f8201168201806040525081019061388491906144e8565b86613c2e565b6020808301516040805192830181526000835251637b3a3c8b60e01b81526001600160a01b037f00000000000000000000000000000000000000000000000000000000000000001692637b3a3c8b9261390c9290917f0000000000000000000000000000000000000000000000000000000000000000918a91906004016148c4565b6000604051808303816000875af115801561392b573d6000803e3d6000fd5b505050506040513d6000823e601f3d908101601f1916820160405261395391908101906147b3565b5061395c565b50825b6040516349460b4d60e11b815260649063928c169a9083906139a4907f00000000000000000000000000000000000000000000000000000000000000009088906004016148f7565b60206040518083038185885af11580156139c2573d6000803e3d6000fd5b50505050506040513d601f19601f82011682018060405250810190610b669190614593565b60006139fc6001600160a01b0384168361400c565b90508051600014158015613a21575080806020019051810190613a1f91906145ac565b155b1561065157604051635274afe760e01b81526001600160a01b0384166004820152602401610707565b600061eeed196001600160a01b03841601613a7057506001600160a01b03811631613add565b6040516370a0823160e01b81526001600160a01b0383811660048301528416906370a0823190602401602060405180830381865afa158015613ab6573d6000803e3d6000fd5b505050506040513d601f19601f82011682018060405250810190613ada9190614593565b90505b92915050565b60408051602081018590529081018390526001600160a01b03821660608201526000906080016040516020818303038152906040528051906020012090509392505050565b613b3061421e565b6000836020018051613b419061491b565b9081905290506001613b5560206002614a18565b613b5f91906145f4565b811115613b7f57604051638eab04bb60e01b815260040160405180910390fd5b60005b6020811015613c145781600116600103613bbb57845184908260208110613bab57613bab6144ac565b602002015250839150613add9050565b84518160208110613bce57613bce6144ac565b602002015184604051602001613bee929190918252602082015260400190565b60408051601f1981840301815291905280516020909101209350600191821c9101613b82565b50604051638eab04bb60e01b815260040160405180910390fd5b604080516001600160a01b038416602482015260448082018490528251808303909101815260649091019091526020810180516001600160e01b031663095ea7b360e01b179052613c7f848261401a565b611348576040516001600160a01b03848116602483015260006044830152613cb491869182169063095ea7b3906064016115f2565b61134884826139e7565b6020600582811b8216948552835194820394909452604060008181206002851615871b808503919091528386015190528181206004851615871b808503919091528286015190528181206008851615871b80850391909152606086015190528181206010851615871b8085039190915260808087015190915282822084861615881b8086039190915260a0870151905282822083861615881b8086039190915260c0870151905282822090851615871b8085039190915260e0860151905281812061010080861615881b80860392909252860151905281812061020080861615881b80860392909252610120870151909152828220610400861615881b808603919091526101408701519052828220610800861615881b808603919091526101608701519052828220611000861615881b808603919091526101808701519052828220612000861615881b808603919091526101a08701519052828220614000861615881b808603919091526101c08701519052828220618000861615881b808603919091526101e0870151905282822062010000861615881b8086039190915290860151905281812062020000851615871b80850391909152610220860151905281812062040000851615871b80850391909152610240860151905281812062080000851615871b80850391909152610260860151905281812062100000851615871b80850391909152610280860151905281812062200000851615871b808503919091526102a0860151905281812062400000851615871b808503919091526102c0860151905281812062800000851615871b808503919091526102e086015190528181206301000000851615871b8085039190915261030086015190528181206302000000851615871b8085039190915261032086015190528181206304000000851615871b8085039190915261034086015190528181206308000000851615871b8085039190915261036086015190528181206310000000851615871b8085039190915261038086015190528181206320000000851615871b808503919091526103a086015190528181206340000000851615871b808503919091526103c0860151905281812063800000009094161590951b91829003929092526103e090920151909152902090565b6060613ada838360006140c2565b6000806000846001600160a01b0316846040516140379190614a24565b6000604051808303816000865af19150503d8060008114614074576040519150601f19603f3d011682016040523d82523d6000602084013e614079565b606091505b50915091508180156140a35750805115806140a35750808060200190518101906140a391906145ac565b80156140b957506000856001600160a01b03163b115b95945050505050565b6060814710156140e75760405163cd78605960e01b8152306004820152602401610707565b600080856001600160a01b031684866040516141039190614a24565b60006040518083038185875af1925050503d8060008114614140576040519150601f19603f3d011682016040523d82523d6000602084013e614145565b606091505b509150915061415586838361415f565b9695505050505050565b6060826141745761416f826141bb565b611f16565b815115801561418b57506001600160a01b0384163b155b156141b457604051639996b31560e01b81526001600160a01b0385166004820152602401610707565b5080611f16565b8051156141cb5780518082602001fd5b604051630a12f52160e11b815260040160405180910390fd5b8260208101928215614212579160200282015b828111156142125782518255916020019190600101906141f7565b50610bbc92915061423e565b6040518060400160405280614231614253565b8152602001600081525090565b5b80821115610bbc576000815560010161423f565b6040518061040001604052806020906020820280368337509192915050565b6000806020838503121561428557600080fd5b82356001600160401b038082111561429c57600080fd5b818501915085601f8301126142b057600080fd5b8135818111156142bf57600080fd5b8660208260071b85010111156142d457600080fd5b60209290920196919550909350505050565b6000608082840312156142f857600080fd5b50919050565b60006080828403121561431057600080fd5b613ada83836142e6565b6001600160a01b0381168114610c3657600080fd5b6000806000806080858703121561434557600080fd5b8435935060208501356143578161431a565b925060408501359150606085013561436e8161431a565b939692955090935050565b60006020828403121561438b57600080fd5b8135611f168161431a565b6001600160401b038416815260208082018490528251610460830191906000604085015b838210156143d85782518152918301916001919091019083016143ba565b505050506020830151610440830152949350505050565b60006104a082840312156142f857600080fd5b6000806020838503121561441557600080fd5b82356001600160401b038082111561442c57600080fd5b818501915085601f83011261444057600080fd5b81358181111561444f57600080fd5b8660206104a0830285010111156142d457600080fd5b634e487b7160e01b600052602160045260246000fd5b60028110610c3657634e487b7160e01b600052602160045260246000fd5b602081016144a68361447b565b91905290565b634e487b7160e01b600052603260045260246000fd5b6000602082840312156144d457600080fd5b813563ffffffff81168114611f1657600080fd5b6000602082840312156144fa57600080fd5b8151611f168161431a565b634e487b7160e01b600052601160045260246000fd5b80820180821115613add57613add614505565b6001600160401b0381168114610c3657600080fd5b60006020828403121561455557600080fd5b8135611f168161452e565b813561456b8161452e565b6001600160401b0381166001600160401b031983541617825550602082013560018201555050565b6000602082840312156145a557600080fd5b5051919050565b6000602082840312156145be57600080fd5b81518015158114611f1657600080fd5b60006001600160401b038083168181036145ea576145ea614505565b6001019392505050565b81810381811115613add57613add614505565b60005b8381101561462257818101518382015260200161460a565b50506000910152565b60008151808452614643816020860160208601614607565b601f01601f19169290920160200192915050565b600060018060a01b03808a168352886020840152808816604084015286606084015285608084015280851660a08401525060e060c083015261469c60e083018461462b565b9998505050505050505050565b634e487b7160e01b600052600160045260246000fd5b86815260018060a01b0386166020820152846040820152831515606082015260c0608082015260006146f460c083018561462b565b82810360a084015261469c818561462b565b63ffffffff81811683821602808216919082811461472657614726614505565b505092915050565b828152604060208201526000614747604083018461462b565b949350505050565b6001600160a01b0388811682528781166020830152861660408201526060810185905263ffffffff8416608082015260a0810183905260e060c0820181905260009061469c9083018461462b565b634e487b7160e01b600052604160045260246000fd5b6000602082840312156147c557600080fd5b81516001600160401b03808211156147dc57600080fd5b818401915084601f8301126147f057600080fd5b8151818111156148025761480261479d565b604051601f8201601f19908116603f0116810190838211818310171561482a5761482a61479d565b8160405282815287602084870101111561484357600080fd5b614854836020830160208801614607565b979650505050505050565b6001600160a01b038981168252602082018990526040820188905286811660608301528516608082015263ffffffff841660a082015260c0810183905261010060e082018190526000906148b58382018561462b565b9b9a5050505050505050505050565b6001600160a01b03858116825284166020820152604081018390526080606082018190526000906141559083018461462b565b6001600160a01b03831681526040602082018190526000906147479083018461462b565b60006001820161492d5761492d614505565b5060010190565b600181815b8085111561496f57816000190482111561495557614955614505565b8085161561496257918102915b93841c9390800290614939565b509250929050565b60008261498657506001613add565b8161499357506000613add565b81600181146149a957600281146149b3576149cf565b6001915050613add565b60ff8411156149c4576149c4614505565b50506001821b613add565b5060208310610133831016604e8410600b84101617156149f2575081810a613add565b6149fc8383614934565b8060001904821115614a1057614a10614505565b029392505050565b6000613ada8383614977565b60008251614a36818460208701614607565b919091019291505056fea26469706673582212200f84620a1a5796febcdbf3765a2c756457af40f7f6d1739533d3a249c6ad02c164736f6c63430008170033a264697066735822122005f2930484c81e56831d6e1b30851fca518988b2334827383b4e503e8917703764736f6c63430008170033",
			"deployedBytecode": "0x608060405234801561001057600080fd5b50600436106100625760003560e01c806303c85ea314610067578063121303661461008c578063ba8b1d1a1461009f578063c39ec124146100b6578063c86719b7146100e9578063f434c9141461011d575b600080fd5b61006f610144565b6040516001600160a01b0390911681526020015b60405180910390f35b61006f61009a3660046102fd565b6101dd565b6100a860015481565b604051908152602001610083565b6100d96100c436600461031f565b60006020819052908152604090205460ff1681565b6040519015158152602001610083565b6101107f000000000000000000000000000000000000000000000000000000000000000081565b6040516100839190610370565b61006f7f0000000000000000000000006b8340b759d72e08b3fb674b48547e80631007cb81565b600046600019810161016b577372ce9c846789fdb6fc1f34ac4ad25dd9ef7031ef91505090565b61a4b1810361018f57735288c571fd7ad117bea99bf60fe0846c4e84f93391505090565b62aa36a781036101b45773ce18836b233c83325cc8848ca4487e94c628826491505090565b62066eee81036101d957739fdd1c4e4aa24eec1d913fabea925594a20d43c791505090565b5090565b6040516bffffffffffffffffffffffff193360601b1660208201526034810182905260009060540160405160208183030381529060405280519060200120915082600181905550817f000000000000000000000000cd7112ae7c3b2505f0795c1ba965e5694c25d6967f0000000000000000000000004207c2a3491d2f3ae33609588ddfebeb8eebcb6e7f0000000000000000000000006b8340b759d72e08b3fb674b48547e80631007cb600080604051610297906102f0565b6102a5959493929190610383565b8190604051809103906000f59050801580156102c5573d6000803e3d6000fd5b506001600160a01b0381166000908152602081905260409020805460ff191660011790559392505050565b614f66806103c583390190565b6000806040838503121561031057600080fd5b50508035926020909101359150565b60006020828403121561033157600080fd5b81356001600160a01b038116811461034857600080fd5b9392505050565b6002811061036d57634e487b7160e01b600052602160045260246000fd5b50565b6020810161037d8361034f565b91905290565b6001600160a01b038681168252858116602083015284811660408301528316606082015260a081016103b48361034f565b826080830152969550505050505056fe6101c06040523480156200001257600080fd5b5060405162004f6638038062004f66833981016040819052620000359162000297565b6001600160a01b0380841660805280861660c05280851660e052859085908590859085908216156200006857816200006a565b305b6001600160a01b03166101205260408051635d458e8d60e11b81529051339163ba8b1d1a9160048083019260209291908290030181865afa158015620000b4573d6000803e3d6000fd5b505050506040513d601f19601f82011682018060405250810190620000da91906200031a565b610140523361010052806001811115620000f857620000f862000334565b60a08160018111156200010f576200010f62000334565b905250504693506200012692508391505062000249565b620001445760405163f21c9f0760e01b815260040160405180910390fd5b600181148062000156575062aa36a781145b15620001aa57600061016052600181146200018c5773aae29b0366299461418f5324a79afc425be5ae216101a0819052620001a8565b734dbd4fc535ac27206064b68ffcf827b0a60bab3f6101a08190525b505b61a4b1811480620001bd575062066eee81145b15620001ca576001610160525b336001600160a01b03166303c85ea36040518163ffffffff1660e01b8152600401602060405180830381865afa15801562000209573d6000803e3d6000fd5b505050506040513d601f19601f820116820180604052508101906200022f91906200034a565b6001600160a01b0316610180525062000371945050505050565b600060018214806200025d575062aa36a782145b806200026a575061a4b182145b8062000278575062066eee82145b92915050565b6001600160a01b03811681146200029457600080fd5b50565b600080600080600060a08688031215620002b057600080fd5b8551620002bd816200027e565b6020870151909550620002d0816200027e565b6040870151909450620002e3816200027e565b6060870151909350620002f6816200027e565b6080870151909250600281106200030c57600080fd5b809150509295509295909350565b6000602082840312156200032d57600080fd5b5051919050565b634e487b7160e01b600052602160045260246000fd5b6000602082840312156200035d57600080fd5b81516200036a816200027e565b9392505050565b60805160a05160c05160e05161010051610120516101405161016051610180516101a051614a76620004f0600039600081816103b901528181611d800152818161348501526136fe01526000818161053c0152818161356f015281816135e20152818161381901526138b2015260008181610508015281816114d40152611d470152600081816102200152818161080b0152818161088801528181610a2501528181610eae01528181610f5701528181611633015281816116f801528181611775015281816119f601528181611aaf01528181611bb10152611cd901526000818161038501528181611eec01528181611f34015281816136140152818161372e015281816138e1015261397a0152600061049301526000818161016d0152610a4e0152600081816103510152818161077c01528181610ed40152818161166e0152611a250152600081816104c701528181610bc401528181610e5001526110690152600081816105fc0152818161121401526112bd0152614a766000f3fe60806040526004361061014f5760003560e01c8063b1012368116100b6578063c6525f2c1161006f578063c6525f2c146104b5578063c86719b7146104f6578063defbb6971461052a578063e7f82c751461055e578063ed0e26b91461058b578063f434c914146105ea57600080fd5b8063b1012368146103a7578063b59ef50f146103db578063b71c1179146103fb578063bf557aee1461040e578063c185412914610461578063c1b8411a1461048157600080fd5b806369ce22331161010857806369ce22331461026557806369d31fdd146102855780636dfa7268146102985780637de6fba2146102c757806388bc2ef31461033f578063ad42938b1461037357600080fd5b80631d831d5c1461015b5780632241dc52146101ac57806338eb2044146101ce578063551ebbf0146101ee57806356539f391461020e57806361c864171461025057600080fd5b3661015657005b600080fd5b34801561016757600080fd5b5061018f7f000000000000000000000000000000000000000000000000000000000000000081565b6040516001600160a01b0390911681526020015b60405180910390f35b3480156101b857600080fd5b506101cc6101c7366004614272565b61061e565b005b3480156101da57600080fd5b506101cc6101e93660046142fe565b610656565b3480156101fa57600080fd5b506101cc61020936600461432f565b6109ef565b34801561021a57600080fd5b506102427f000000000000000000000000000000000000000000000000000000000000000081565b6040519081526020016101a3565b34801561025c57600080fd5b50610242610b6e565b34801561027157600080fd5b506101cc610280366004614379565b610bc0565b6101cc6102933660046142fe565b610c39565b3480156102a457600080fd5b506102b86102b3366004614379565b610daa565b6040516101a393929190614396565b3480156102d357600080fd5b506103156102e2366004614379565b6003602052600090815260409020805460019091015463ffffffff82169164010000000090046001600160a01b03169083565b6040805163ffffffff90941684526001600160a01b039092166020840152908201526060016101a3565b34801561034b57600080fd5b5061018f7f000000000000000000000000000000000000000000000000000000000000000081565b34801561037f57600080fd5b5061018f7f000000000000000000000000000000000000000000000000000000000000000081565b3480156103b357600080fd5b5061018f7f000000000000000000000000000000000000000000000000000000000000000081565b3480156103e757600080fd5b506101cc6103f63660046143ef565b610e14565b6101cc610409366004614379565b6110e8565b34801561041a57600080fd5b50610451610429366004614379565b6001600160a01b03908116600090815260036020526040902054640100000000900416151590565b60405190151581526020016101a3565b34801561046d57600080fd5b506101cc61047c366004614402565b611196565b34801561048d57600080fd5b5061018f7f000000000000000000000000000000000000000000000000000000000000000081565b3480156104c157600080fd5b506104e97f000000000000000000000000000000000000000000000000000000000000000081565b6040516101a39190614499565b34801561050257600080fd5b506104e97f000000000000000000000000000000000000000000000000000000000000000081565b34801561053657600080fd5b5061018f7f000000000000000000000000000000000000000000000000000000000000000081565b34801561056a57600080fd5b50610242610579366004614379565b60026020526000908152604090205481565b34801561059757600080fd5b506105cb6105a6366004614379565b600160208190526000918252604090912080549101546001600160401b039091169082565b604080516001600160401b0390931683526020830191909152016101a3565b3480156105f657600080fd5b5061018f7f000000000000000000000000000000000000000000000000000000000000000081565b60005b818110156106515761064983838381811061063e5761063e6144ac565b905060800201610656565b600101610621565b505050565b60006106656020830183614379565b9050600061eeee6106796020850185614379565b6001600160a01b03161490508080156106ac575061eeee6106a06060850160408601614379565b6001600160a01b031614155b80156106d1575060006106c56060850160408601614379565b6001600160a01b031614155b15610710576106e66060840160408501614379565b604051630a0a3b6b60e31b81526001600160a01b0390911660048201526024015b60405180910390fd5b62030d4061072460408501602086016144c2565b63ffffffff16108015610735575080155b156107775762030d4061074e60408501602086016144c2565b604051634f3dbeb360e11b815263ffffffff928316600482015291166024820152604401610707565b6108ae7f00000000000000000000000000000000000000000000000000000000000000006001600160a01b031663293c49996040518163ffffffff1660e01b8152600401602060405180830381865afa1580156107d8573d6000803e3d6000fd5b505050506040513d601f19601f820116820180604052508101906107fc91906144e8565b6040516331a9108f60e11b81527f000000000000000000000000000000000000000000000000000000000000000060048201526001600160a01b039190911690636352211e90602401602060405180830381865afa158015610862573d6000803e3d6000fd5b505050506040513d601f19601f8201168201806040525081019061088691906144e8565b7f0000000000000000000000000000000000000000000000000000000000000000601c6111ca565b60006108c06060850160408601614379565b6001600160a01b03161480156108f057506001600160a01b03821660009081526020819052604090206001015415155b1561094b576001600160a01b0380831660009081526003602090815260408083208151606081018352815463ffffffff811682526401000000009004909516928501929092526001909101549083015261094b91849061134e565b604051806060016040528084602001602081019061096991906144c2565b63ffffffff1681526020016109846060860160408701614379565b6001600160a01b0390811682526060909501356020918201529284166000908152600384526040908190208251815495840151909616640100000000026001600160c01b031990951663ffffffff909616959095179390931784559091015160019092019190915550565b6001600160a01b038316610a16576040516309a9c30b60e41b815260040160405180910390fd5b60405163ea78803f60e01b81527f000000000000000000000000000000000000000000000000000000000000000060048201526000907f00000000000000000000000000000000000000000000000000000000000000006001600160a01b03169063ea78803f90602401602060405180830381865afa158015610a9d573d6000803e3d6000fd5b505050506040513d601f19601f82011682018060405250810190610ac191906144e8565b90506001600160a01b038116610aea57604051635a33845560e01b815260040160405180910390fd5b6001600160a01b03828116600090815260036020526040902054640100000000900416610b355760405163393e175160e01b81526001600160a01b0383166004820152602401610707565b610b4a6001600160a01b0382163330886115bd565b6000610b5882878587611624565b9050610b6686848388611817565b505050505050565b6000466000198101610b835761a4b191505090565b61a4b18103610b9457600191505090565b62aa36a78103610ba85762066eee91505090565b62066eee8103610bbc5762aa36a791505090565b5090565b60007f00000000000000000000000000000000000000000000000000000000000000006001811115610bf457610bf4614465565b14610c125760405163218a9a2d60e11b815260040160405180910390fd5b6001600160a01b038116600090815260026020526040902054610c36908290611990565b50565b610c4233611d42565b610c5f57604051630439dbd360e51b815260040160405180910390fd5b60208101803590600290600090610c769085614379565b6001600160a01b03166001600160a01b031681526020019081526020016000206000828254610ca5919061451b565b90915550600190506000610cbc6020840184614379565b6001600160a01b0316815260208101919091526040908101600020546001600160401b031690610cf29060608401908401614543565b6001600160401b03161115610c36576040810160016000610d166020850185614379565b6001600160a01b031681526020810191909152604001600020610d398282614560565b50610d4990506020820182614379565b6001600160a01b03167f551b6b99b4c48e3265d2885ab0d93779be2402293261e074f7bf74b2c8f45b6f610d836060840160408501614543565b604080516001600160401b039092168252606085013560208301520160405180910390a250565b6000602081815291815260409081902080546001820154835161044081018086526001600160401b0390931695919490926002850192849283019184919082845b815481526020019060010190808311610deb575050509183525050602091820154910152905083565b610e4c6060820135610e296020840184614379565b6080840135610e3e6060860160408701614379565b602086013560a08701611f6f565b60017f00000000000000000000000000000000000000000000000000000000000000006001811115610e8057610e80614465565b03610e9f57610e9f610e956020830183614379565b6080830135611990565b604051632eec7b5560e11b81527f000000000000000000000000000000000000000000000000000000000000000060048201527f00000000000000000000000000000000000000000000000000000000000000006001600160a01b031690635dd8f6aa90602401602060405180830381865afa158015610f23573d6000803e3d6000fd5b505050506040513d601f19601f82011682018060405250810190610f4791906144e8565b6001600160a01b031663c7fb92de7f000000000000000000000000000000000000000000000000000000000000000060608401803590610f8a9060408701614379565b6040516001600160e01b031960e086901b168152600481019390935260248301919091526001600160a01b0316604482015260a06064820152600060a48201819052608482015260c4016020604051808303816000875af1158015610ff3573d6000803e3d6000fd5b505050506040513d601f19601f820116820180604052508101906110179190614593565b507f487194902d206a126abe9f23a4e2b78d1600ed8034b1423290a13edd6ebc7d146110496060830160408401614379565b6110566020840184614379565b60608401356080850135602086013560017f0000000000000000000000000000000000000000000000000000000000000000600181111561109957611099614465565b146110a55760006110a8565b60015b604080516001600160a01b0397881681529690951660208701529385019290925260608401526080830152151560a082015260c00160405180910390a150565b6001600160a01b0380821660008181526003602090815260408083208151606081018352815463ffffffff811682526401000000009004909616868401526001908101548683018190529484529183905290912001541015611187576040808201516001600160a01b0384166000908152602081905282902060010154915163091df9e560e31b81526107079290600401918252602082015260400190565b61119234838361134e565b5050565b60005b81811015610651576111c28383838181106111b6576111b66144ac565b90506104a00201610e14565b600101611199565b336001600160a01b0384168114801590611281575060405163c161c93f60e01b81526001600160a01b038281166004830152858116602483015260448201859052606482018490527f0000000000000000000000000000000000000000000000000000000000000000169063c161c93f90608401602060405180830381865afa15801561125b573d6000803e3d6000fd5b505050506040513d601f19601f8201168201806040525081019061127f91906145ac565b155b801561132a575060405163c161c93f60e01b81526001600160a01b038281166004830152858116602483015260006044830152606482018490527f0000000000000000000000000000000000000000000000000000000000000000169063c161c93f90608401602060405180830381865afa158015611304573d6000803e3d6000fd5b505050506040513d601f19601f8201168201806040525081019061132891906145ac565b155b156113485760405163075fd2b160e01b815260040160405180910390fd5b50505050565b6001600160a01b038216600090815260208190526040812060018101805490839055815490929190829061138a906001600160401b03166145ce565b91906101000a8154816001600160401b0302191690836001600160401b031602179055905060006001600160a01b031683602001516001600160a01b0316036113f15760405163393e175160e01b81526001600160a01b0385166004820152602401610707565b6000604051806060016040528085602001516001600160a01b031681526020018481526020016040518060400160405280856001600160401b031681526020016114606000808b6001600160a01b03166001600160a01b0316815260200190815260200160002060020161209f565b905290526040805182516001600160a01b031660248201526020808401516044830152929091015180516001600160401b0316606483015290910151608482015260a40160408051601f198184030181529190526020810180516001600160e01b03166369d31fdd60e01b179052905060007f0000000000000000000000000000000000000000000000000000000000000000600181111561150457611504614465565b0361151b576115168587858488613455565b611527565b611527858483876137c1565b6001600160a01b038516600081815260208190526040902061154b9060020161209f565b6001600160a01b0387166000908152602081905260409020602201547f3e069c1f498cba23d7d2b74b84311469e8da6e527cade62061d642c61b64e0de90611595906001906145f4565b604080519182526001600160401b0387166020830152015b60405180910390a3505050505050565b6040516001600160a01b0384811660248301528381166044830152606482018390526113489186918216906323b872dd906084015b604051602081830303815290604052915060e01b6020820180516001600160e01b0383818316178352505050506139e7565b604051630862026560e41b81527f000000000000000000000000000000000000000000000000000000000000000060048201526001600160a01b03838116602483015260009182917f00000000000000000000000000000000000000000000000000000000000000001690638620265090604401602060405180830381865afa1580156116b5573d6000803e3d6000fd5b505050506040513d601f19601f820116820180604052508101906116d991906144e8565b90506001600160a01b03811661173357604051630c9ae01360e01b81527f000000000000000000000000000000000000000000000000000000000000000060048201526001600160a01b0385166024820152604401610707565b600061173f8530613a4a565b60408051602081018252600081529051635db90a7f60e11b81529192506001600160a01b0384169163bb7214fe916117a59130917f0000000000000000000000000000000000000000000000000000000000000000918b918d918c918691600401614657565b6020604051808303816000875af11580156117c4573d6000803e3d6000fd5b505050506040513d601f19601f820116820180604052508101906117e89190614593565b9250806117f58630613a4a565b6117ff91906145f4565b831461180d5761180d6146a9565b5050949350505050565b6000611824858484613ae3565b6001600160a01b03851660009081526020818152604080832081516104408101808452959650939461188f9487949093600290930192849290830191849182845b81548152602001906001019080831161186557505050918352505060209182015491015290613b28565b6001600160a01b038616600090815260208181526040909120825192935083926002909101916118c09183916141e4565b50602091820151908201556001600160a01b0386166000908152908190526040812060010180548692906118f590849061451b565b92505081905550846001600160a01b0316836001600160a01b03167f7b58dbb78e7edc690b0688a53dea0c443d630c4a5db66c3c47d4ff2044c97728846001856020015161194391906145f4565b6001600160a01b038a1660009081526020819052604090206119679060020161209f565b60408051938452602084019290925290820152606081018a90526080810188905260a0016115ad565b6001600160a01b038216600090815260026020526040902054808211156119ca57604051632858f9ab60e11b815260040160405180910390fd5b6001600160a01b03838116600081815260026020526040808220868603905551630862026560e41b81527f000000000000000000000000000000000000000000000000000000000000000060048201526024810192909252917f00000000000000000000000000000000000000000000000000000000000000001690638620265090604401602060405180830381865afa158015611a6c573d6000803e3d6000fd5b505050506040513d601f19601f82011682018060405250810190611a9091906144e8565b90506001600160a01b038116611aea57604051630c9ae01360e01b81527f000000000000000000000000000000000000000000000000000000000000000060048201526001600160a01b0385166024820152604401610707565b6001600160a01b03841661eeee14611c9a576040516370a0823160e01b81523060048201526000906001600160a01b038616906370a0823190602401602060405180830381865afa158015611b43573d6000803e3d6000fd5b505050506040513d601f19601f82011682018060405250810190611b679190614593565b9050611b74858386613c2e565b60408051602080820183526000808352835191820184528082529251639e6eec0560e01b81526001600160a01b03861693639e6eec0593611be1937f0000000000000000000000000000000000000000000000000000000000000000938c938c93909290916004016146bf565b600060405180830381600087803b158015611bfb57600080fd5b505af1158015611c0f573d6000803e3d6000fd5b505050508381611c1f91906145f4565b6040516370a0823160e01b81523060048201526001600160a01b038716906370a0823190602401602060405180830381865afa158015611c63573d6000803e3d6000fd5b505050506040513d601f19601f82011682018060405250810190611c879190614593565b14611c9457611c946146a9565b50611348565b60408051602080820183526000808352835191820184528082529251639e6eec0560e01b81526001600160a01b03851693639e6eec05938893611d0a937f0000000000000000000000000000000000000000000000000000000000000000938c93879391929091906004016146bf565b6000604051808303818588803b158015611d2357600080fd5b505af1158015611d37573d6000803e3d6000fd5b505050505050505050565b6000807f00000000000000000000000000000000000000000000000000000000000000006001811115611d7757611d77614465565b03611f1d5760007f00000000000000000000000000000000000000000000000000000000000000006001600160a01b031663e78cea926040518163ffffffff1660e01b8152600401602060405180830381865afa158015611ddc573d6000803e3d6000fd5b505050506040513d601f19601f82011682018060405250810190611e0091906144e8565b9050806001600160a01b0316836001600160a01b0316148015611f165750806001600160a01b031663ab5d89436040518163ffffffff1660e01b8152600401602060405180830381865afa158015611e5c573d6000803e3d6000fd5b505050506040513d601f19601f82011682018060405250810190611e8091906144e8565b6001600160a01b03166380648b026040518163ffffffff1660e01b8152600401602060405180830381865afa158015611ebd573d6000803e3d6000fd5b505050506040513d601f19601f82011682018060405250810190611ee191906144e8565b6001600160a01b03167f00000000000000000000000000000000000000000000000000000000000000006001600160a01b0316145b9392505050565b7311110000000000000000000000000000000011117f0000000000000000000000000000000000000000000000000000000000000000016001600160a01b0316826001600160a01b0316149050919050565b6001600160a01b0385166000908152600460209081526040808320600886901c8452909152902054600160ff84161b1615611fc05760405163ed9bdd0760e01b815260048101839052602401610707565b6001600160a01b0385166000908152600460209081526040808320600886901c845290915281208054600160ff86161b17905561202f612001888787613ae3565b604080516104008181019092529085906020908390839080828437600092019190915250879150613cbe9050565b6001600160a01b038716600090815260016020819052604090912001549091508114612096576001600160a01b0386166000908152600160208190526040918290200154905163286f87c960e21b8152600481019190915260248101829052604401610707565b50505050505050565b60208101546000908082036120d657507f27ae5ba08d7291c96c8cbddcc148bf48a6d68c7974b94356f53754ef6171d75792915050565b60008360018316156120f85780546000526000602052604060002093506129ab565b600283161561213d5760018101546000527fad3228b676f7d3cd4284a5443f17f1962b36e491b30a40b2405849e597ba5fb560205260406000209350600191506129ab565b60048316156121825760028101546000527fb4c11951957c6f8f642c4af61cd6b24640fec6dc7fc607ee8206a99e92410d3060205260406000209350600291506129ab565b60088316156121c75760038101546000527f21ddb9a356815c3fac1026b6dec5df3124afbadb485c9ba5a3e3398a04b7ba8560205260406000209350600391506129ab565b601083161561220c5760048101546000527fe58769b32a1beaf1ea27375a44095a0d1fb664ce2dd358e7fcbfb78c26a1934460205260406000209350600491506129ab565b60208316156122515760058101546000527f0eb01ebfc9ed27500cd4dfc979272d1f0913cc9f66540d7e8005811109e1cf2d60205260406000209350600591506129ab565b60408316156122965760068101546000527f887c22bd8750d34016ac3c66b5ff102dacdd73f6b014e710b51e8022af9a196860205260406000209350600691506129ab565b60808316156122db5760078101546000527fffd70157e48063fc33c97a050f7f640233bf646cc98d9524c6b92bcf3ab56f8360205260406000209350600791506129ab565b6101008316156123215760088101546000527f9867cc5f7f196b93bae1e27e6320742445d290f2263827498b54fec539f756af60205260406000209350600891506129ab565b6102008316156123675760098101546000527fcefad4e508c098b9a7e1d8feb19955fb02ba9675585078710969d3440f5054e060205260406000209350600991506129ab565b6104008316156123ad57600a8101546000527ff9dc3e7fe016e050eff260334f18a5d4fe391d82092319f5964f2e2eb7c1c3a560205260406000209350600a91506129ab565b6108008316156123f357600b8101546000527ff8b13a49e282f609c317a833fb8d976d11517c571d1221a265d25af778ecf89260205260406000209350600b91506129ab565b61100083161561243957600c8101546000527f3490c6ceeb450aecdc82e28293031d10c7d73bf85e57bf041a97360aa2c5d99c60205260406000209350600c91506129ab565b61200083161561247f57600d8101546000527fc1df82d9c4b87413eae2ef048f94b4d3554cea73d92b0f7af96e0271c691e2bb60205260406000209350600d91506129ab565b6140008316156124c557600e8101546000527f5c67add7c6caf302256adedf7ab114da0acfe870d449a3a489f781d659e8becc60205260406000209350600e91506129ab565b61800083161561250b57600f8101546000527fda7bce9f4e8618b6bd2f4132ce798cdc7a60e7e1460a7299e3c6342a579626d260205260406000209350600f91506129ab565b620100008316156125525760108101546000527f2733e50f526ec2fa19a22b31e8ed50f23cd1fdf94c9154ed3a7609a2f1ff981f60205260406000209350601091506129ab565b620200008316156125995760118101546000527fe1d3b5c807b281e4683cc6d6315cf95b9ade8641defcb32372f1c126e398ef7a60205260406000209350601191506129ab565b620400008316156125e05760128101546000527f5a2dce0a8a7f68bb74560f8f71837c2c2ebbcbf7fffb42ae1896f13f7c7479a060205260406000209350601291506129ab565b620800008316156126275760138101546000527fb46a28b6f55540f89444f63de0378e3d121be09e06cc9ded1c20e65876d36aa060205260406000209350601391506129ab565b6210000083161561266e5760148101546000527fc65e9645644786b620e2dd2ad648ddfcbf4a7e5b1a3a4ecfe7f64667a3f0b7e260205260406000209350601491506129ab565b622000008316156126b55760158101546000527ff4418588ed35a2458cffeb39b93d26f18d2ab13bdce6aee58e7b99359ec2dfd960205260406000209350601591506129ab565b624000008316156126fc5760168101546000527f5a9c16dc00d6ef18b7933a6f8dc65ccb55667138776f7dea101070dc8796e37760205260406000209350601691506129ab565b628000008316156127435760178101546000527f4df84f40ae0c8229d0d6069e5c8f39a7c299677a09d367fc7b05e3bc380ee65260205260406000209350601791506129ab565b630100000083161561278b5760188101546000527fcdc72595f74c7b1043d0e1ffbab734648c838dfb0527d971b602bc216c9619ef60205260406000209350601891506129ab565b63020000008316156127d35760198101546000527f0abf5ac974a1ed57f4050aa510dd9c74f508277b39d7973bb2dfccc5eeb0618d60205260406000209350601991506129ab565b630400000083161561281b57601a8101546000527fb8cd74046ff337f0a7bf2c8e03e10f642c1886798d71806ab1e888d9e5ee87d060205260406000209350601a91506129ab565b630800000083161561286357601b8101546000527f838c5655cb21c6cb83313b5a631175dff4963772cce9108188b34ac87c81c41e60205260406000209350601b91506129ab565b63100000008316156128ab57601c8101546000527f662ee4dd2dd7b2bc707961b1e646c4047669dcb6584f0d8d770daf5d7e7deb2e60205260406000209350601c91506129ab565b63200000008316156128f357601d8101546000527f388ab20e2573d171a88108e79d820e98f26c0b84aa8b2f4aa4968dbb818ea32260205260406000209350601d91506129ab565b634000000083161561293b57601e8101546000527f93237c50ba75ee485f4c22adf2f741400bdf8d6a9cc7df7ecae576221665d73560205260406000209350601e91506129ab565b638000000083161561298357601f8101546000527f8448818bb4ae4562849e949e17ac16e0be16688e156b5cf15e098c627c0056a960205260406000209350601f91506129ab565b7f27ae5ba08d7291c96c8cbddcc148bf48a6d68c7974b94356f53754ef6171d7579350602091505b601e821161344d576001821015612a09576002831680156129d757600182015460005284602052612a00565b846000527fad3228b676f7d3cd4284a5443f17f1962b36e491b30a40b2405849e597ba5fb56020525b50604060002093505b6002821015612a5f57600483168015612a2d57600282015460005284602052612a56565b846000527fb4c11951957c6f8f642c4af61cd6b24640fec6dc7fc607ee8206a99e92410d306020525b50604060002093505b6003821015612ab557600883168015612a8357600382015460005284602052612aac565b846000527f21ddb9a356815c3fac1026b6dec5df3124afbadb485c9ba5a3e3398a04b7ba856020525b50604060002093505b6004821015612b0b57601083168015612ad957600482015460005284602052612b02565b846000527fe58769b32a1beaf1ea27375a44095a0d1fb664ce2dd358e7fcbfb78c26a193446020525b50604060002093505b6005821015612b6157602083168015612b2f57600582015460005284602052612b58565b846000527f0eb01ebfc9ed27500cd4dfc979272d1f0913cc9f66540d7e8005811109e1cf2d6020525b50604060002093505b6006821015612bb757604083168015612b8557600682015460005284602052612bae565b846000527f887c22bd8750d34016ac3c66b5ff102dacdd73f6b014e710b51e8022af9a19686020525b50604060002093505b6007821015612c0d57608083168015612bdb57600782015460005284602052612c04565b846000527fffd70157e48063fc33c97a050f7f640233bf646cc98d9524c6b92bcf3ab56f836020525b50604060002093505b6008821015612c645761010083168015612c3257600882015460005284602052612c5b565b846000527f9867cc5f7f196b93bae1e27e6320742445d290f2263827498b54fec539f756af6020525b50604060002093505b6009821015612cbb5761020083168015612c8957600982015460005284602052612cb2565b846000527fcefad4e508c098b9a7e1d8feb19955fb02ba9675585078710969d3440f5054e06020525b50604060002093505b600a821015612d125761040083168015612ce057600a82015460005284602052612d09565b846000527ff9dc3e7fe016e050eff260334f18a5d4fe391d82092319f5964f2e2eb7c1c3a56020525b50604060002093505b600b821015612d695761080083168015612d3757600b82015460005284602052612d60565b846000527ff8b13a49e282f609c317a833fb8d976d11517c571d1221a265d25af778ecf8926020525b50604060002093505b600c821015612dc05761100083168015612d8e57600c82015460005284602052612db7565b846000527f3490c6ceeb450aecdc82e28293031d10c7d73bf85e57bf041a97360aa2c5d99c6020525b50604060002093505b600d821015612e175761200083168015612de557600d82015460005284602052612e0e565b846000527fc1df82d9c4b87413eae2ef048f94b4d3554cea73d92b0f7af96e0271c691e2bb6020525b50604060002093505b600e821015612e6e5761400083168015612e3c57600e82015460005284602052612e65565b846000527f5c67add7c6caf302256adedf7ab114da0acfe870d449a3a489f781d659e8becc6020525b50604060002093505b600f821015612ec55761800083168015612e9357600f82015460005284602052612ebc565b846000527fda7bce9f4e8618b6bd2f4132ce798cdc7a60e7e1460a7299e3c6342a579626d26020525b50604060002093505b6010821015612f1d576201000083168015612eeb57601082015460005284602052612f14565b846000527f2733e50f526ec2fa19a22b31e8ed50f23cd1fdf94c9154ed3a7609a2f1ff981f6020525b50604060002093505b6011821015612f75576202000083168015612f4357601182015460005284602052612f6c565b846000527fe1d3b5c807b281e4683cc6d6315cf95b9ade8641defcb32372f1c126e398ef7a6020525b50604060002093505b6012821015612fcd576204000083168015612f9b57601282015460005284602052612fc4565b846000527f5a2dce0a8a7f68bb74560f8f71837c2c2ebbcbf7fffb42ae1896f13f7c7479a06020525b50604060002093505b6013821015613025576208000083168015612ff35760138201546000528460205261301c565b846000527fb46a28b6f55540f89444f63de0378e3d121be09e06cc9ded1c20e65876d36aa06020525b50604060002093505b601482101561307d57621000008316801561304b57601482015460005284602052613074565b846000527fc65e9645644786b620e2dd2ad648ddfcbf4a7e5b1a3a4ecfe7f64667a3f0b7e26020525b50604060002093505b60158210156130d55762200000831680156130a3576015820154600052846020526130cc565b846000527ff4418588ed35a2458cffeb39b93d26f18d2ab13bdce6aee58e7b99359ec2dfd96020525b50604060002093505b601682101561312d5762400000831680156130fb57601682015460005284602052613124565b846000527f5a9c16dc00d6ef18b7933a6f8dc65ccb55667138776f7dea101070dc8796e3776020525b50604060002093505b60178210156131855762800000831680156131535760178201546000528460205261317c565b846000527f4df84f40ae0c8229d0d6069e5c8f39a7c299677a09d367fc7b05e3bc380ee6526020525b50604060002093505b60188210156131de576301000000831680156131ac576018820154600052846020526131d5565b846000527fcdc72595f74c7b1043d0e1ffbab734648c838dfb0527d971b602bc216c9619ef6020525b50604060002093505b6019821015613237576302000000831680156132055760198201546000528460205261322e565b846000527f0abf5ac974a1ed57f4050aa510dd9c74f508277b39d7973bb2dfccc5eeb0618d6020525b50604060002093505b601a8210156132905763040000008316801561325e57601a82015460005284602052613287565b846000527fb8cd74046ff337f0a7bf2c8e03e10f642c1886798d71806ab1e888d9e5ee87d06020525b50604060002093505b601b8210156132e9576308000000831680156132b757601b820154600052846020526132e0565b846000527f838c5655cb21c6cb83313b5a631175dff4963772cce9108188b34ac87c81c41e6020525b50604060002093505b601c8210156133425763100000008316801561331057601c82015460005284602052613339565b846000527f662ee4dd2dd7b2bc707961b1e646c4047669dcb6584f0d8d770daf5d7e7deb2e6020525b50604060002093505b601d82101561339b5763200000008316801561336957601d82015460005284602052613392565b846000527f388ab20e2573d171a88108e79d820e98f26c0b84aa8b2f4aa4968dbb818ea3226020525b50604060002093505b601e8210156133f4576340000000831680156133c257601e820154600052846020526133eb565b846000527f93237c50ba75ee485f4c22adf2f741400bdf8d6a9cc7df7ecae576221665d7356020525b50604060002093505b601f82101561344d5763800000008316801561341b57601f82015460005284602052613444565b846000527f8448818bb4ae4562849e949e17ac16e0be16688e156b5cf15e098c627c0056a96020525b50604060002093505b505050919050565b815160405163a66b327d60e01b81526004810191909152630bebc200602482015260009081906001600160a01b037f0000000000000000000000000000000000000000000000000000000000000000169063a66b327d90604401602060405180830381865afa1580156134cc573d6000803e3d6000fd5b505050506040513d601f19601f820116820180604052508101906134f09190614593565b90506000613505620493e0630bebc200614706565b6135159063ffffffff168361451b565b90508087101561353857604051636eb14fc360e11b815260040160405180910390fd5b6001600160a01b03881661eeee146136ce57604051635ed004ff60e11b81526001600160a01b03808a1660048301526135e0918a917f0000000000000000000000000000000000000000000000000000000000000000169063bda009fe90602401602060405180830381865afa1580156135b6573d6000803e3d6000fd5b505050506040513d601f19601f820116820180604052508101906135da91906144e8565b88613c2e565b7f00000000000000000000000000000000000000000000000000000000000000006001600160a01b0316634fb1a07b888a337f00000000000000000000000000000000000000000000000000000000000000008b620493e0630bebc2008a8e60405160200161365092919061472e565b6040516020818303038152906040526040518963ffffffff1660e01b8152600401613681979695949392919061474f565b60006040518083038185885af115801561369f573d6000803e3d6000fd5b50505050506040513d6000823e601f3d908101601f191682016040526136c891908101906147b3565b506136d2565b8592505b866136dd828561451b565b11156136fc57604051636eb14fc360e11b815260040160405180910390fd5b7f00000000000000000000000000000000000000000000000000000000000000006001600160a01b031663679b6ded887f000000000000000000000000000000000000000000000000000000000000000086863333620493e0630bebc2008e6040518a63ffffffff1660e01b815260040161377e98979695949392919061485f565b60206040518083038185885af115801561379c573d6000803e3d6000fd5b50505050506040513d601f19601f82011682018060405250810190611d379190614593565b600034156137e2576040516352864b0160e11b815260040160405180910390fd5b6001600160a01b03851661eeee1461395957604051635ed004ff60e11b81526001600160a01b03808716600483015261388a9187917f0000000000000000000000000000000000000000000000000000000000000000169063bda009fe90602401602060405180830381865afa158015613860573d6000803e3d6000fd5b505050506040513d601f19601f8201168201806040525081019061388491906144e8565b86613c2e565b6020808301516040805192830181526000835251637b3a3c8b60e01b81526001600160a01b037f00000000000000000000000000000000000000000000000000000000000000001692637b3a3c8b9261390c9290917f0000000000000000000000000000000000000000000000000000000000000000918a91906004016148c4565b6000604051808303816000875af115801561392b573d6000803e3d6000fd5b505050506040513d6000823e601f3d908101601f1916820160405261395391908101906147b3565b5061395c565b50825b6040516349460b4d60e11b815260649063928c169a9083906139a4907f00000000000000000000000000000000000000000000000000000000000000009088906004016148f7565b60206040518083038185885af11580156139c2573d6000803e3d6000fd5b50505050506040513d601f19601f82011682018060405250810190610b669190614593565b60006139fc6001600160a01b0384168361400c565b90508051600014158015613a21575080806020019051810190613a1f91906145ac565b155b1561065157604051635274afe760e01b81526001600160a01b0384166004820152602401610707565b600061eeed196001600160a01b03841601613a7057506001600160a01b03811631613add565b6040516370a0823160e01b81526001600160a01b0383811660048301528416906370a0823190602401602060405180830381865afa158015613ab6573d6000803e3d6000fd5b505050506040513d601f19601f82011682018060405250810190613ada9190614593565b90505b92915050565b60408051602081018590529081018390526001600160a01b03821660608201526000906080016040516020818303038152906040528051906020012090509392505050565b613b3061421e565b6000836020018051613b419061491b565b9081905290506001613b5560206002614a18565b613b5f91906145f4565b811115613b7f57604051638eab04bb60e01b815260040160405180910390fd5b60005b6020811015613c145781600116600103613bbb57845184908260208110613bab57613bab6144ac565b602002015250839150613add9050565b84518160208110613bce57613bce6144ac565b602002015184604051602001613bee929190918252602082015260400190565b60408051601f1981840301815291905280516020909101209350600191821c9101613b82565b50604051638eab04bb60e01b815260040160405180910390fd5b604080516001600160a01b038416602482015260448082018490528251808303909101815260649091019091526020810180516001600160e01b031663095ea7b360e01b179052613c7f848261401a565b611348576040516001600160a01b03848116602483015260006044830152613cb491869182169063095ea7b3906064016115f2565b61134884826139e7565b6020600582811b8216948552835194820394909452604060008181206002851615871b808503919091528386015190528181206004851615871b808503919091528286015190528181206008851615871b80850391909152606086015190528181206010851615871b8085039190915260808087015190915282822084861615881b8086039190915260a0870151905282822083861615881b8086039190915260c0870151905282822090851615871b8085039190915260e0860151905281812061010080861615881b80860392909252860151905281812061020080861615881b80860392909252610120870151909152828220610400861615881b808603919091526101408701519052828220610800861615881b808603919091526101608701519052828220611000861615881b808603919091526101808701519052828220612000861615881b808603919091526101a08701519052828220614000861615881b808603919091526101c08701519052828220618000861615881b808603919091526101e0870151905282822062010000861615881b8086039190915290860151905281812062020000851615871b80850391909152610220860151905281812062040000851615871b80850391909152610240860151905281812062080000851615871b80850391909152610260860151905281812062100000851615871b80850391909152610280860151905281812062200000851615871b808503919091526102a0860151905281812062400000851615871b808503919091526102c0860151905281812062800000851615871b808503919091526102e086015190528181206301000000851615871b8085039190915261030086015190528181206302000000851615871b8085039190915261032086015190528181206304000000851615871b8085039190915261034086015190528181206308000000851615871b8085039190915261036086015190528181206310000000851615871b8085039190915261038086015190528181206320000000851615871b808503919091526103a086015190528181206340000000851615871b808503919091526103c0860151905281812063800000009094161590951b91829003929092526103e090920151909152902090565b6060613ada838360006140c2565b6000806000846001600160a01b0316846040516140379190614a24565b6000604051808303816000865af19150503d8060008114614074576040519150601f19603f3d011682016040523d82523d6000602084013e614079565b606091505b50915091508180156140a35750805115806140a35750808060200190518101906140a391906145ac565b80156140b957506000856001600160a01b03163b115b95945050505050565b6060814710156140e75760405163cd78605960e01b8152306004820152602401610707565b600080856001600160a01b031684866040516141039190614a24565b60006040518083038185875af1925050503d8060008114614140576040519150601f19603f3d011682016040523d82523d6000602084013e614145565b606091505b509150915061415586838361415f565b9695505050505050565b6060826141745761416f826141bb565b611f16565b815115801561418b57506001600160a01b0384163b155b156141b457604051639996b31560e01b81526001600160a01b0385166004820152602401610707565b5080611f16565b8051156141cb5780518082602001fd5b604051630a12f52160e11b815260040160405180910390fd5b8260208101928215614212579160200282015b828111156142125782518255916020019190600101906141f7565b50610bbc92915061423e565b6040518060400160405280614231614253565b8152602001600081525090565b5b80821115610bbc576000815560010161423f565b6040518061040001604052806020906020820280368337509192915050565b6000806020838503121561428557600080fd5b82356001600160401b038082111561429c57600080fd5b818501915085601f8301126142b057600080fd5b8135818111156142bf57600080fd5b8660208260071b85010111156142d457600080fd5b60209290920196919550909350505050565b6000608082840312156142f857600080fd5b50919050565b60006080828403121561431057600080fd5b613ada83836142e6565b6001600160a01b0381168114610c3657600080fd5b6000806000806080858703121561434557600080fd5b8435935060208501356143578161431a565b925060408501359150606085013561436e8161431a565b939692955090935050565b60006020828403121561438b57600080fd5b8135611f168161431a565b6001600160401b038416815260208082018490528251610460830191906000604085015b838210156143d85782518152918301916001919091019083016143ba565b505050506020830151610440830152949350505050565b60006104a082840312156142f857600080fd5b6000806020838503121561441557600080fd5b82356001600160401b038082111561442c57600080fd5b818501915085601f83011261444057600080fd5b81358181111561444f57600080fd5b8660206104a0830285010111156142d457600080fd5b634e487b7160e01b600052602160045260246000fd5b60028110610c3657634e487b7160e01b600052602160045260246000fd5b602081016144a68361447b565b91905290565b634e487b7160e01b600052603260045260246000fd5b6000602082840312156144d457600080fd5b813563ffffffff81168114611f1657600080fd5b6000602082840312156144fa57600080fd5b8151611f168161431a565b634e487b7160e01b600052601160045260246000fd5b80820180821115613add57613add614505565b6001600160401b0381168114610c3657600080fd5b60006020828403121561455557600080fd5b8135611f168161452e565b813561456b8161452e565b6001600160401b0381166001600160401b031983541617825550602082013560018201555050565b6000602082840312156145a557600080fd5b5051919050565b6000602082840312156145be57600080fd5b81518015158114611f1657600080fd5b60006001600160401b038083168181036145ea576145ea614505565b6001019392505050565b81810381811115613add57613add614505565b60005b8381101561462257818101518382015260200161460a565b50506000910152565b60008151808452614643816020860160208601614607565b601f01601f19169290920160200192915050565b600060018060a01b03808a168352886020840152808816604084015286606084015285608084015280851660a08401525060e060c083015261469c60e083018461462b565b9998505050505050505050565b634e487b7160e01b600052600160045260246000fd5b86815260018060a01b0386166020820152846040820152831515606082015260c0608082015260006146f460c083018561462b565b82810360a084015261469c818561462b565b63ffffffff81811683821602808216919082811461472657614726614505565b505092915050565b828152604060208201526000614747604083018461462b565b949350505050565b6001600160a01b0388811682528781166020830152861660408201526060810185905263ffffffff8416608082015260a0810183905260e060c0820181905260009061469c9083018461462b565b634e487b7160e01b600052604160045260246000fd5b6000602082840312156147c557600080fd5b81516001600160401b03808211156147dc57600080fd5b818401915084601f8301126147f057600080fd5b8151818111156148025761480261479d565b604051601f8201601f19908116603f0116810190838211818310171561482a5761482a61479d565b8160405282815287602084870101111561484357600080fd5b614854836020830160208801614607565b979650505050505050565b6001600160a01b038981168252602082018990526040820188905286811660608301528516608082015263ffffffff841660a082015260c0810183905261010060e082018190526000906148b58382018561462b565b9b9a5050505050505050505050565b6001600160a01b03858116825284166020820152604081018390526080606082018190526000906141559083018461462b565b6001600160a01b03831681526040602082018190526000906147479083018461462b565b60006001820161492d5761492d614505565b5060010190565b600181815b8085111561496f57816000190482111561495557614955614505565b8085161561496257918102915b93841c9390800290614939565b509250929050565b60008261498657506001613add565b8161499357506000613add565b81600181146149a957600281146149b3576149cf565b6001915050613add565b60ff8411156149c4576149c4614505565b50506001821b613add565b5060208310610133831016604e8410600b84101617156149f2575081810a613add565b6149fc8383614934565b8060001904821115614a1057614a10614505565b029392505050565b6000613ada8383614977565b60008251614a36818460208701614607565b919091019291505056fea26469706673582212200f84620a1a5796febcdbf3765a2c756457af40f7f6d1739533d3a249c6ad02c164736f6c63430008170033a264697066735822122005f2930484c81e56831d6e1b30851fca518988b2334827383b4e503e8917703764736f6c63430008170033",
			"devdoc": {
				"kind": "dev",
				"methods": {
					"createForSender(uint256,bytes32)": {
						"details": "Uses the sender address as the salt, which means the same sender must call this function on both chains.",
						"params": {
							"localProjectId": "The project's ID on the local chain.",
							"salt": "The salt to use for the `create2` address."
						},
						"returns": {
							"sucker": "The address of the new sucker."
						}
					},
					"gatewayRouter()": {
						"returns": {
							"gateway": "for the current chain."
						}
					}
				},
				"version": 1
			},
			"userdoc": {
				"kind": "user",
				"methods": {
					"LAYER()": {
						"notice": "The layer that this contract is on."
					},
					"PERMISSIONS()": {
						"notice": "A contract storing permissions."
					},
					"TEMP_ID_STORE()": {
						"notice": "A temporary storage slot used by suckers to maintain deterministic deploys."
					},
					"createForSender(uint256,bytes32)": {
						"notice": "Create a new `BPSucker` for a specific project."
					},
					"gatewayRouter()": {
						"notice": "Returns the gateway router address for the current chain"
					},
					"isSucker(address)": {
						"notice": "A mapping of suckers deployed by this contract."
					}
				},
				"version": 1
			},
			"gitCommit": "bbac9c765a8dbe91c32d4eb3210de82e6cb6fdd4",
			"sourceName": "src/deployers/BPArbitrumSuckerDeployer.sol",
			"chainId": "11155111",
			"linkReferences": {},
			"deployedLinkReferences": {}
		}
	]
}