{
	"format": "sphinx-sol-ct-artifact-1",
	"merkleRoot": "0xe51b4ec8049762768ee1e74175cc677453cfd48e9031b7abf73679aabb9235cd",
	"address": "0x23ae8df3014a6a8e03d6949a287121e185f1c68c",
	"sourceName": "src/JBCCIPSucker.sol",
	"contractName": "JBCCIPSucker",
	"chainId": "0xaa36a7",
	"abi": [
		{
			"inputs": [
				{
					"internalType": "contract JBCCIPSuckerDeployer",
					"name": "deployer",
					"type": "address"
				},
				{
					"internalType": "contract IJBDirectory",
					"name": "directory",
					"type": "address"
				},
				{
					"internalType": "contract IJBTokens",
					"name": "tokens",
					"type": "address"
				},
				{
					"internalType": "contract IJBPermissions",
					"name": "permissions",
					"type": "address"
				},
				{
					"internalType": "enum JBAddToBalanceMode",
					"name": "addToBalanceMode",
					"type": "uint8"
				},
				{
					"internalType": "address",
					"name": "trusted_forwarder",
					"type": "address"
				}
			],
			"stateMutability": "nonpayable",
			"type": "constructor"
		},
		{
			"stateMutability": "payable",
			"type": "receive"
		},
		{
			"inputs": [],
			"name": "ADD_TO_BALANCE_MODE",
			"outputs": [
				{
					"internalType": "enum JBAddToBalanceMode",
					"name": "",
					"type": "uint8"
				}
			],
			"stateMutability": "view",
			"type": "function"
		},
		{
			"inputs": [],
			"name": "CCIP_ROUTER",
			"outputs": [
				{
					"internalType": "contract ICCIPRouter",
					"name": "",
					"type": "address"
				}
			],
			"stateMutability": "view",
			"type": "function"
		},
		{
			"inputs": [],
			"name": "DEPLOYER",
			"outputs": [
				{
					"internalType": "address",
					"name": "",
					"type": "address"
				}
			],
			"stateMutability": "view",
			"type": "function"
		},
		{
			"inputs": [],
			"name": "DIRECTORY",
			"outputs": [
				{
					"internalType": "contract IJBDirectory",
					"name": "",
					"type": "address"
				}
			],
			"stateMutability": "view",
			"type": "function"
		},
		{
			"inputs": [],
			"name": "MESSENGER_BASE_GAS_LIMIT",
			"outputs": [
				{
					"internalType": "uint32",
					"name": "",
					"type": "uint32"
				}
			],
			"stateMutability": "view",
			"type": "function"
		},
		{
			"inputs": [],
			"name": "MESSENGER_ERC20_MIN_GAS_LIMIT",
			"outputs": [
				{
					"internalType": "uint32",
					"name": "",
					"type": "uint32"
				}
			],
			"stateMutability": "view",
			"type": "function"
		},
		{
			"inputs": [],
			"name": "PERMISSIONS",
			"outputs": [
				{
					"internalType": "contract IJBPermissions",
					"name": "",
					"type": "address"
				}
			],
			"stateMutability": "view",
			"type": "function"
		},
		{
			"inputs": [],
			"name": "REMOTE_CHAIN_ID",
			"outputs": [
				{
					"internalType": "uint256",
					"name": "",
					"type": "uint256"
				}
			],
			"stateMutability": "view",
			"type": "function"
		},
		{
			"inputs": [],
			"name": "REMOTE_CHAIN_SELECTOR",
			"outputs": [
				{
					"internalType": "uint64",
					"name": "",
					"type": "uint64"
				}
			],
			"stateMutability": "view",
			"type": "function"
		},
		{
			"inputs": [],
			"name": "TOKENS",
			"outputs": [
				{
					"internalType": "contract IJBTokens",
					"name": "",
					"type": "address"
				}
			],
			"stateMutability": "view",
			"type": "function"
		},
		{
			"inputs": [
				{
					"internalType": "address",
					"name": "token",
					"type": "address"
				}
			],
			"name": "addOutstandingAmountToBalance",
			"outputs": [],
			"stateMutability": "nonpayable",
			"type": "function"
		},
		{
			"inputs": [
				{
					"internalType": "address",
					"name": "token",
					"type": "address"
				}
			],
			"name": "amountToAddToBalanceOf",
			"outputs": [
				{
					"internalType": "uint256",
					"name": "",
					"type": "uint256"
				}
			],
			"stateMutability": "view",
			"type": "function"
		},
		{
			"inputs": [
				{
					"components": [
						{
							"internalType": "bytes32",
							"name": "messageId",
							"type": "bytes32"
						},
						{
							"internalType": "uint64",
							"name": "sourceChainSelector",
							"type": "uint64"
						},
						{
							"internalType": "bytes",
							"name": "sender",
							"type": "bytes"
						},
						{
							"internalType": "bytes",
							"name": "data",
							"type": "bytes"
						},
						{
							"components": [
								{
									"internalType": "address",
									"name": "token",
									"type": "address"
								},
								{
									"internalType": "uint256",
									"name": "amount",
									"type": "uint256"
								}
							],
							"internalType": "struct Client.EVMTokenAmount[]",
							"name": "destTokenAmounts",
							"type": "tuple[]"
						}
					],
					"internalType": "struct Client.Any2EVMMessage",
					"name": "any2EvmMessage",
					"type": "tuple"
				}
			],
			"name": "ccipReceive",
			"outputs": [],
			"stateMutability": "nonpayable",
			"type": "function"
		},
		{
			"inputs": [
				{
					"components": [
						{
							"internalType": "address",
							"name": "token",
							"type": "address"
						},
						{
							"components": [
								{
									"internalType": "uint256",
									"name": "index",
									"type": "uint256"
								},
								{
									"internalType": "address",
									"name": "beneficiary",
									"type": "address"
								},
								{
									"internalType": "uint256",
									"name": "projectTokenCount",
									"type": "uint256"
								},
								{
									"internalType": "uint256",
									"name": "terminalTokenAmount",
									"type": "uint256"
								}
							],
							"internalType": "struct JBLeaf",
							"name": "leaf",
							"type": "tuple"
						},
						{
							"internalType": "bytes32[32]",
							"name": "proof",
							"type": "bytes32[32]"
						}
					],
					"internalType": "struct JBClaim",
					"name": "claimData",
					"type": "tuple"
				}
			],
			"name": "claim",
			"outputs": [],
			"stateMutability": "nonpayable",
			"type": "function"
		},
		{
			"inputs": [
				{
					"components": [
						{
							"internalType": "address",
							"name": "token",
							"type": "address"
						},
						{
							"components": [
								{
									"internalType": "uint256",
									"name": "index",
									"type": "uint256"
								},
								{
									"internalType": "address",
									"name": "beneficiary",
									"type": "address"
								},
								{
									"internalType": "uint256",
									"name": "projectTokenCount",
									"type": "uint256"
								},
								{
									"internalType": "uint256",
									"name": "terminalTokenAmount",
									"type": "uint256"
								}
							],
							"internalType": "struct JBLeaf",
							"name": "leaf",
							"type": "tuple"
						},
						{
							"internalType": "bytes32[32]",
							"name": "proof",
							"type": "bytes32[32]"
						}
					],
					"internalType": "struct JBClaim[]",
					"name": "claims",
					"type": "tuple[]"
				}
			],
			"name": "claim",
			"outputs": [],
			"stateMutability": "nonpayable",
			"type": "function"
		},
		{
			"inputs": [
				{
					"internalType": "address[]",
					"name": "tokens",
					"type": "address[]"
				}
			],
			"name": "enableEmergencyHatchFor",
			"outputs": [],
			"stateMutability": "nonpayable",
			"type": "function"
		},
		{
			"inputs": [
				{
					"components": [
						{
							"internalType": "address",
							"name": "token",
							"type": "address"
						},
						{
							"components": [
								{
									"internalType": "uint256",
									"name": "index",
									"type": "uint256"
								},
								{
									"internalType": "address",
									"name": "beneficiary",
									"type": "address"
								},
								{
									"internalType": "uint256",
									"name": "projectTokenCount",
									"type": "uint256"
								},
								{
									"internalType": "uint256",
									"name": "terminalTokenAmount",
									"type": "uint256"
								}
							],
							"internalType": "struct JBLeaf",
							"name": "leaf",
							"type": "tuple"
						},
						{
							"internalType": "bytes32[32]",
							"name": "proof",
							"type": "bytes32[32]"
						}
					],
					"internalType": "struct JBClaim",
					"name": "claimData",
					"type": "tuple"
				}
			],
			"name": "exitThroughEmergencyHatch",
			"outputs": [],
			"stateMutability": "nonpayable",
			"type": "function"
		},
		{
			"inputs": [
				{
					"components": [
						{
							"internalType": "address",
							"name": "token",
							"type": "address"
						},
						{
							"internalType": "uint256",
							"name": "amount",
							"type": "uint256"
						},
						{
							"components": [
								{
									"internalType": "uint64",
									"name": "nonce",
									"type": "uint64"
								},
								{
									"internalType": "bytes32",
									"name": "root",
									"type": "bytes32"
								}
							],
							"internalType": "struct JBInboxTreeRoot",
							"name": "remoteRoot",
							"type": "tuple"
						}
					],
					"internalType": "struct JBMessageRoot",
					"name": "root",
					"type": "tuple"
				}
			],
			"name": "fromRemote",
			"outputs": [],
			"stateMutability": "payable",
			"type": "function"
		},
		{
			"inputs": [],
			"name": "getRouter",
			"outputs": [
				{
					"internalType": "address",
					"name": "",
					"type": "address"
				}
			],
			"stateMutability": "view",
			"type": "function"
		},
		{
			"inputs": [
				{
					"internalType": "address",
					"name": "token",
					"type": "address"
				}
			],
			"name": "inboxOf",
			"outputs": [
				{
					"components": [
						{
							"internalType": "uint64",
							"name": "nonce",
							"type": "uint64"
						},
						{
							"internalType": "bytes32",
							"name": "root",
							"type": "bytes32"
						}
					],
					"internalType": "struct JBInboxTreeRoot",
					"name": "",
					"type": "tuple"
				}
			],
			"stateMutability": "view",
			"type": "function"
		},
		{
			"inputs": [
				{
					"internalType": "uint256",
					"name": "__projectId",
					"type": "uint256"
				}
			],
			"name": "initialize",
			"outputs": [],
			"stateMutability": "nonpayable",
			"type": "function"
		},
		{
			"inputs": [
				{
					"internalType": "address",
					"name": "token",
					"type": "address"
				}
			],
			"name": "isMapped",
			"outputs": [
				{
					"internalType": "bool",
					"name": "",
					"type": "bool"
				}
			],
			"stateMutability": "view",
			"type": "function"
		},
		{
			"inputs": [
				{
					"internalType": "address",
					"name": "forwarder",
					"type": "address"
				}
			],
			"name": "isTrustedForwarder",
			"outputs": [
				{
					"internalType": "bool",
					"name": "",
					"type": "bool"
				}
			],
			"stateMutability": "view",
			"type": "function"
		},
		{
			"inputs": [
				{
					"components": [
						{
							"internalType": "address",
							"name": "localToken",
							"type": "address"
						},
						{
							"internalType": "uint32",
							"name": "minGas",
							"type": "uint32"
						},
						{
							"internalType": "address",
							"name": "remoteToken",
							"type": "address"
						},
						{
							"internalType": "uint256",
							"name": "minBridgeAmount",
							"type": "uint256"
						}
					],
					"internalType": "struct JBTokenMapping",
					"name": "map",
					"type": "tuple"
				}
			],
			"name": "mapToken",
			"outputs": [],
			"stateMutability": "payable",
			"type": "function"
		},
		{
			"inputs": [
				{
					"components": [
						{
							"internalType": "address",
							"name": "localToken",
							"type": "address"
						},
						{
							"internalType": "uint32",
							"name": "minGas",
							"type": "uint32"
						},
						{
							"internalType": "address",
							"name": "remoteToken",
							"type": "address"
						},
						{
							"internalType": "uint256",
							"name": "minBridgeAmount",
							"type": "uint256"
						}
					],
					"internalType": "struct JBTokenMapping[]",
					"name": "maps",
					"type": "tuple[]"
				}
			],
			"name": "mapTokens",
			"outputs": [],
			"stateMutability": "payable",
			"type": "function"
		},
		{
			"inputs": [
				{
					"internalType": "address",
					"name": "token",
					"type": "address"
				}
			],
			"name": "outboxOf",
			"outputs": [
				{
					"components": [
						{
							"internalType": "uint64",
							"name": "nonce",
							"type": "uint64"
						},
						{
							"internalType": "uint256",
							"name": "balance",
							"type": "uint256"
						},
						{
							"components": [
								{
									"internalType": "bytes32[32]",
									"name": "branch",
									"type": "bytes32[32]"
								},
								{
									"internalType": "uint256",
									"name": "count",
									"type": "uint256"
								}
							],
							"internalType": "struct MerkleLib.Tree",
							"name": "tree",
							"type": "tuple"
						},
						{
							"internalType": "uint256",
							"name": "numberOfClaimsSent",
							"type": "uint256"
						}
					],
					"internalType": "struct JBOutboxTree",
					"name": "",
					"type": "tuple"
				}
			],
			"stateMutability": "view",
			"type": "function"
		},
		{
			"inputs": [],
			"name": "peer",
			"outputs": [
				{
					"internalType": "address",
					"name": "",
					"type": "address"
				}
			],
			"stateMutability": "view",
			"type": "function"
		},
		{
			"inputs": [],
			"name": "peerChainId",
			"outputs": [
				{
					"internalType": "uint256",
					"name": "chainId",
					"type": "uint256"
				}
			],
			"stateMutability": "view",
			"type": "function"
		},
		{
			"inputs": [
				{
					"internalType": "uint256",
					"name": "projectTokenCount",
					"type": "uint256"
				},
				{
					"internalType": "address",
					"name": "beneficiary",
					"type": "address"
				},
				{
					"internalType": "uint256",
					"name": "minTokensReclaimed",
					"type": "uint256"
				},
				{
					"internalType": "address",
					"name": "token",
					"type": "address"
				}
			],
			"name": "prepare",
			"outputs": [],
			"stateMutability": "nonpayable",
			"type": "function"
		},
		{
			"inputs": [],
			"name": "projectId",
			"outputs": [
				{
					"internalType": "uint256",
					"name": "",
					"type": "uint256"
				}
			],
			"stateMutability": "view",
			"type": "function"
		},
		{
			"inputs": [
				{
					"internalType": "address",
					"name": "token",
					"type": "address"
				}
			],
			"name": "remoteTokenFor",
			"outputs": [
				{
					"components": [
						{
							"internalType": "bool",
							"name": "enabled",
							"type": "bool"
						},
						{
							"internalType": "bool",
							"name": "emergencyHatch",
							"type": "bool"
						},
						{
							"internalType": "uint32",
							"name": "minGas",
							"type": "uint32"
						},
						{
							"internalType": "address",
							"name": "addr",
							"type": "address"
						},
						{
							"internalType": "uint256",
							"name": "minBridgeAmount",
							"type": "uint256"
						}
					],
					"internalType": "struct JBRemoteToken",
					"name": "",
					"type": "tuple"
				}
			],
			"stateMutability": "view",
			"type": "function"
		},
		{
			"inputs": [
				{
					"internalType": "uint40",
					"name": "timestamp",
					"type": "uint40"
				}
			],
			"name": "setDeprecation",
			"outputs": [],
			"stateMutability": "nonpayable",
			"type": "function"
		},
		{
			"inputs": [],
			"name": "state",
			"outputs": [
				{
					"internalType": "enum JBSuckerState",
					"name": "",
					"type": "uint8"
				}
			],
			"stateMutability": "view",
			"type": "function"
		},
		{
			"inputs": [
				{
					"internalType": "bytes4",
					"name": "interfaceId",
					"type": "bytes4"
				}
			],
			"name": "supportsInterface",
			"outputs": [
				{
					"internalType": "bool",
					"name": "",
					"type": "bool"
				}
			],
			"stateMutability": "view",
			"type": "function"
		},
		{
			"inputs": [
				{
					"internalType": "address",
					"name": "token",
					"type": "address"
				}
			],
			"name": "toRemote",
			"outputs": [],
			"stateMutability": "payable",
			"type": "function"
		},
		{
			"inputs": [],
			"name": "trustedForwarder",
			"outputs": [
				{
					"internalType": "address",
					"name": "",
					"type": "address"
				}
			],
			"stateMutability": "view",
			"type": "function"
		},
		{
			"anonymous": false,
			"inputs": [
				{
					"indexed": false,
					"internalType": "address",
					"name": "beneficiary",
					"type": "address"
				},
				{
					"indexed": false,
					"internalType": "address",
					"name": "token",
					"type": "address"
				},
				{
					"indexed": false,
					"internalType": "uint256",
					"name": "projectTokenCount",
					"type": "uint256"
				},
				{
					"indexed": false,
					"internalType": "uint256",
					"name": "terminalTokenAmount",
					"type": "uint256"
				},
				{
					"indexed": false,
					"internalType": "uint256",
					"name": "index",
					"type": "uint256"
				},
				{
					"indexed": false,
					"internalType": "bool",
					"name": "autoAddedToBalance",
					"type": "bool"
				},
				{
					"indexed": false,
					"internalType": "address",
					"name": "caller",
					"type": "address"
				}
			],
			"name": "Claimed",
			"type": "event"
		},
		{
			"anonymous": false,
			"inputs": [
				{
					"indexed": false,
					"internalType": "uint40",
					"name": "timestamp",
					"type": "uint40"
				},
				{
					"indexed": false,
					"internalType": "address",
					"name": "caller",
					"type": "address"
				}
			],
			"name": "DeprecationTimeUpdated",
			"type": "event"
		},
		{
			"anonymous": false,
			"inputs": [
				{
					"indexed": false,
					"internalType": "address[]",
					"name": "tokens",
					"type": "address[]"
				},
				{
					"indexed": false,
					"internalType": "address",
					"name": "caller",
					"type": "address"
				}
			],
			"name": "EmergencyHatchOpened",
			"type": "event"
		},
		{
			"anonymous": false,
			"inputs": [
				{
					"indexed": false,
					"internalType": "uint64",
					"name": "version",
					"type": "uint64"
				}
			],
			"name": "Initialized",
			"type": "event"
		},
		{
			"anonymous": false,
			"inputs": [
				{
					"indexed": true,
					"internalType": "address",
					"name": "beneficiary",
					"type": "address"
				},
				{
					"indexed": true,
					"internalType": "address",
					"name": "token",
					"type": "address"
				},
				{
					"indexed": false,
					"internalType": "bytes32",
					"name": "hashed",
					"type": "bytes32"
				},
				{
					"indexed": false,
					"internalType": "uint256",
					"name": "index",
					"type": "uint256"
				},
				{
					"indexed": false,
					"internalType": "bytes32",
					"name": "root",
					"type": "bytes32"
				},
				{
					"indexed": false,
					"internalType": "uint256",
					"name": "projectTokenCount",
					"type": "uint256"
				},
				{
					"indexed": false,
					"internalType": "uint256",
					"name": "terminalTokenAmount",
					"type": "uint256"
				},
				{
					"indexed": false,
					"internalType": "address",
					"name": "caller",
					"type": "address"
				}
			],
			"name": "InsertToOutboxTree",
			"type": "event"
		},
		{
			"anonymous": false,
			"inputs": [
				{
					"indexed": true,
					"internalType": "address",
					"name": "token",
					"type": "address"
				},
				{
					"indexed": false,
					"internalType": "uint64",
					"name": "nonce",
					"type": "uint64"
				},
				{
					"indexed": false,
					"internalType": "bytes32",
					"name": "root",
					"type": "bytes32"
				},
				{
					"indexed": false,
					"internalType": "address",
					"name": "caller",
					"type": "address"
				}
			],
			"name": "NewInboxTreeRoot",
			"type": "event"
		},
		{
			"anonymous": false,
			"inputs": [
				{
					"indexed": true,
					"internalType": "bytes32",
					"name": "root",
					"type": "bytes32"
				},
				{
					"indexed": true,
					"internalType": "address",
					"name": "token",
					"type": "address"
				},
				{
					"indexed": false,
					"internalType": "uint256",
					"name": "index",
					"type": "uint256"
				},
				{
					"indexed": false,
					"internalType": "uint64",
					"name": "nonce",
					"type": "uint64"
				},
				{
					"indexed": false,
					"internalType": "address",
					"name": "caller",
					"type": "address"
				}
			],
			"name": "RootToRemote",
			"type": "event"
		},
		{
			"inputs": [],
			"name": "InvalidInitialization",
			"type": "error"
		},
		{
			"inputs": [],
			"name": "JBCCIPSucker_FailedToRefundFee",
			"type": "error"
		},
		{
			"inputs": [
				{
					"internalType": "address",
					"name": "router",
					"type": "address"
				}
			],
			"name": "JBCCIPSucker_InvalidRouter",
			"type": "error"
		},
		{
			"inputs": [
				{
					"internalType": "address",
					"name": "account",
					"type": "address"
				},
				{
					"internalType": "address",
					"name": "sender",
					"type": "address"
				},
				{
					"internalType": "uint256",
					"name": "projectId",
					"type": "uint256"
				},
				{
					"internalType": "uint256",
					"name": "permissionId",
					"type": "uint256"
				}
			],
			"name": "JBPermissioned_Unauthorized",
			"type": "error"
		},
		{
			"inputs": [
				{
					"internalType": "uint256",
					"name": "minGas",
					"type": "uint256"
				},
				{
					"internalType": "uint256",
					"name": "minGasLimit",
					"type": "uint256"
				}
			],
			"name": "JBSucker_BelowMinGas",
			"type": "error"
		},
		{
			"inputs": [],
			"name": "JBSucker_Deprecated",
			"type": "error"
		},
		{
			"inputs": [
				{
					"internalType": "uint256",
					"name": "givenTime",
					"type": "uint256"
				},
				{
					"internalType": "uint256",
					"name": "minimumTime",
					"type": "uint256"
				}
			],
			"name": "JBSucker_DeprecationTimestampTooSoon",
			"type": "error"
		},
		{
			"inputs": [],
			"name": "JBSucker_ExpectedMsgValue",
			"type": "error"
		},
		{
			"inputs": [
				{
					"internalType": "uint256",
					"name": "amount",
					"type": "uint256"
				},
				{
					"internalType": "uint256",
					"name": "balance",
					"type": "uint256"
				}
			],
			"name": "JBSucker_InsufficientBalance",
			"type": "error"
		},
		{
			"inputs": [
				{
					"internalType": "uint256",
					"name": "received",
					"type": "uint256"
				},
				{
					"internalType": "uint256",
					"name": "expected",
					"type": "uint256"
				}
			],
			"name": "JBSucker_InsufficientMsgValue",
			"type": "error"
		},
		{
			"inputs": [
				{
					"internalType": "address",
					"name": "remoteToken",
					"type": "address"
				}
			],
			"name": "JBSucker_InvalidNativeRemoteAddress",
			"type": "error"
		},
		{
			"inputs": [
				{
					"internalType": "bytes32",
					"name": "root",
					"type": "bytes32"
				},
				{
					"internalType": "bytes32",
					"name": "inboxRoot",
					"type": "bytes32"
				}
			],
			"name": "JBSucker_InvalidProof",
			"type": "error"
		},
		{
			"inputs": [
				{
					"internalType": "address",
					"name": "token",
					"type": "address"
				},
				{
					"internalType": "uint256",
					"name": "index",
					"type": "uint256"
				}
			],
			"name": "JBSucker_LeafAlreadyExecuted",
			"type": "error"
		},
		{
			"inputs": [
				{
					"internalType": "enum JBAddToBalanceMode",
					"name": "mode",
					"type": "uint8"
				}
			],
			"name": "JBSucker_ManualNotAllowed",
			"type": "error"
		},
		{
			"inputs": [
				{
					"internalType": "uint256",
					"name": "projectId",
					"type": "uint256"
				},
				{
					"internalType": "address",
					"name": "token",
					"type": "address"
				}
			],
			"name": "JBSucker_NoTerminalForToken",
			"type": "error"
		},
		{
			"inputs": [
				{
					"internalType": "address",
					"name": "caller",
					"type": "address"
				}
			],
			"name": "JBSucker_NotPeer",
			"type": "error"
		},
		{
			"inputs": [
				{
					"internalType": "uint256",
					"name": "amount",
					"type": "uint256"
				},
				{
					"internalType": "uint256",
					"name": "minimumAmount",
					"type": "uint256"
				}
			],
			"name": "JBSucker_QueueInsufficientSize",
			"type": "error"
		},
		{
			"inputs": [
				{
					"internalType": "address",
					"name": "localToken",
					"type": "address"
				},
				{
					"internalType": "address",
					"name": "mappedTo",
					"type": "address"
				}
			],
			"name": "JBSucker_TokenAlreadyMapped",
			"type": "error"
		},
		{
			"inputs": [
				{
					"internalType": "address",
					"name": "token",
					"type": "address"
				}
			],
			"name": "JBSucker_TokenHasInvalidEmergencyHatchState",
			"type": "error"
		},
		{
			"inputs": [
				{
					"internalType": "address",
					"name": "token",
					"type": "address"
				}
			],
			"name": "JBSucker_TokenNotMapped",
			"type": "error"
		},
		{
			"inputs": [
				{
					"internalType": "uint256",
					"name": "value",
					"type": "uint256"
				}
			],
			"name": "JBSucker_UnexpectedMsgValue",
			"type": "error"
		},
		{
			"inputs": [],
			"name": "JBSucker_ZeroBeneficiary",
			"type": "error"
		},
		{
			"inputs": [],
			"name": "JBSucker_ZeroERC20Token",
			"type": "error"
		},
		{
			"inputs": [],
			"name": "MerkleLib__insert_treeIsFull",
			"type": "error"
		},
		{
			"inputs": [],
			"name": "NotInitializing",
			"type": "error"
		},
		{
			"inputs": [
				{
					"internalType": "address",
					"name": "token",
					"type": "address"
				}
			],
			"name": "SafeERC20FailedOperation",
			"type": "error"
		}
	],
	"args": [],
	"solcInputHash": "53fa016c092dda117e332e7aba6a9761",
	"bytecode": "0x6101a06040523480156200001257600080fd5b50604051620063a9380380620063a9833981016040819052620000359162000305565b6001600160a01b0380821660805280841660a052808616610100528416610120523360e05284838584848160018111156200007457620000746200039c565b60c08160018111156200008b576200008b6200039c565b905250620000986200023b565b5050505050856001600160a01b03166363a49dc36040518163ffffffff1660e01b8152600401602060405180830381865afa158015620000dc573d6000803e3d6000fd5b505050506040513d601f19601f82011682018060405250810190620001029190620003b2565b6101608181525050856001600160a01b031663d86161876040518163ffffffff1660e01b8152600401602060405180830381865afa15801562000149573d6000803e3d6000fd5b505050506040513d601f19601f820116820180604052508101906200016f9190620003cc565b6001600160401b0316610180816001600160401b031681525050856001600160a01b0316630de229846040518163ffffffff1660e01b8152600401602060405180830381865afa158015620001c8573d6000803e3d6000fd5b505050506040513d601f19601f82011682018060405250810190620001ee9190620003fe565b6001600160a01b03166101408190526200022f5761014051604051636e1f4ccd60e01b81526001600160a01b03909116600482015260240160405180910390fd5b5050505050506200041e565b7ff0c57e16840df040f15088dc2f81fe391c3923bec73e23a9662efc9c229c6a00805468010000000000000000900460ff16156200028c5760405163f92ee8a960e01b815260040160405180910390fd5b80546001600160401b0390811614620002ec5780546001600160401b0319166001600160401b0390811782556040519081527fc7f505b2f371ae2175ee4913f4499e1f2633a7b5936321eed1cdaeb6115181d29060200160405180910390a15b50565b6001600160a01b0381168114620002ec57600080fd5b60008060008060008060c087890312156200031f57600080fd5b86516200032c81620002ef565b60208801519096506200033f81620002ef565b60408801519095506200035281620002ef565b60608801519094506200036581620002ef565b6080880151909350600281106200037b57600080fd5b60a08801519092506200038e81620002ef565b809150509295509295509295565b634e487b7160e01b600052602160045260246000fd5b600060208284031215620003c557600080fd5b5051919050565b600060208284031215620003df57600080fd5b81516001600160401b0381168114620003f757600080fd5b9392505050565b6000602082840312156200041157600080fd5b8151620003f781620002ef565b60805160a05160c05160e0516101005161012051610140516101605161018051615e7262000537600039600081816102a60152818161154001528181614da20152614eb201526000818161053a01526108c001526000818161075e0152818161094a015281816114a001528181614ac901528181614c2301528181614d750152614e8301526000818161033c0152610bdb0152600081816106f601528181610e500152818161127501528181611fbe015281816121ba015281816126510152612b630152600061084e01526000818161088201528181611021015281816110580152818161180d0152611f360152600081816108f601526129fd01526000818161040c0152818161056b01526147700152615e726000f3fe6080604052600436106102535760003560e01c80637de6fba211610138578063bf557aee116100b0578063c6525f2c1161007f578063f434c91411610064578063f434c914146108e4578063fe4b84df14610918578063fe5f42ca1461093857600080fd5b8063c6525f2c14610870578063cdfceeba146108b157600080fd5b8063bf557aee146107b5578063c1854129146107fa578063c19d93fb1461081a578063c1b8411a1461083c57600080fd5b806392ee1ea711610107578063b0f479a1116100ec578063b0f479a11461074f578063b59ef50f14610782578063b71c1179146107a257600080fd5b806392ee1ea7146107185780639e6d7d431461072f57600080fd5b80637de6fba21461058f578063802c8fa01461069757806385572ffb146106c457806388bc2ef3146106e457600080fd5b8063551ebbf0116101cb57806369d31fdd1161019a578063754515591161017f57806375451559146105085780637d1d0c5b146105285780637da0a8771461055c57600080fd5b806369d31fdd1461047c5780636d9e384b1461048f57600080fd5b8063551ebbf0146103cf578063572b6c05146103ef5780636284386a1461043c57806369ce22331461045c57600080fd5b80631d831d5c1161022257806338eb20441161020757806338eb2044146103715780633a5de07d146103845780633fafa127146103b057600080fd5b80631d831d5c1461032a5780632241dc521461035e57600080fd5b806301ffc9a71461025f57806305696511146102945780630f648214146102e157806311cda4151461030357600080fd5b3661025a57005b600080fd5b34801561026b57600080fd5b5061027f61027a366004615407565b61096c565b60405190151581526020015b60405180910390f35b3480156102a057600080fd5b506102c87f000000000000000000000000000000000000000000000000000000000000000081565b60405167ffffffffffffffff909116815260200161028b565b3480156102ed57600080fd5b506103016102fc366004615449565b6109c8565b005b34801561030f57600080fd5b50305b6040516001600160a01b03909116815260200161028b565b34801561033657600080fd5b506103127f000000000000000000000000000000000000000000000000000000000000000081565b61030161036c366004615462565b610a7f565b61030161037f3660046154e9565b610b8d565b34801561039057600080fd5b5061039b62030d4081565b60405163ffffffff909116815260200161028b565b3480156103bc57600080fd5b506001545b60405190815260200161028b565b3480156103db57600080fd5b506103016103ea36600461551a565b610b97565b3480156103fb57600080fd5b5061027f61040a366004615564565b7f00000000000000000000000000000000000000000000000000000000000000006001600160a01b0390811691161490565b34801561044857600080fd5b50610301610457366004615581565b610dca565b34801561046857600080fd5b50610301610477366004615564565b61101d565b61030161048a3660046154e9565b6110bc565b34801561049b57600080fd5b506104fb6104aa366004615564565b6040805180820190915260008082526020820152506001600160a01b03166000908152600360209081526040918290208251808401909352805467ffffffffffffffff168352600101549082015290565b60405161028b91906155a8565b34801561051457600080fd5b506103016105233660046155c9565b611263565b34801561053457600080fd5b506103c17f000000000000000000000000000000000000000000000000000000000000000081565b34801561056857600080fd5b507f0000000000000000000000000000000000000000000000000000000000000000610312565b34801561059b57600080fd5b506106426105aa366004615564565b6040805160a0808201835260008083526020808401829052838501829052606080850183905260809485018390526001600160a01b039687168352600582529185902085519384018652805460ff8082161515865261010082041615159285019290925262010000820463ffffffff169584019590955266010000000000009004909416938101939093526001909101549082015290565b60405161028b9190600060a08201905082511515825260208301511515602083015263ffffffff60408401511660408301526001600160a01b0360608401511660608301526080830151608083015292915050565b3480156106a357600080fd5b506106b76106b2366004615564565b6113fe565b60405161028b919061562c565b3480156106d057600080fd5b506103016106df366004615693565b61149e565b3480156106f057600080fd5b506103127f000000000000000000000000000000000000000000000000000000000000000081565b34801561072457600080fd5b5061039b620493e081565b34801561073b57600080fd5b506103c161074a366004615564565b611754565b34801561075b57600080fd5b507f0000000000000000000000000000000000000000000000000000000000000000610312565b34801561078e57600080fd5b5061030161079d366004615449565b611784565b6103016107b0366004615564565b6118aa565b3480156107c157600080fd5b5061027f6107d0366004615564565b6001600160a01b039081166000908152600560205260409020546601000000000000900416151590565b34801561080657600080fd5b506103016108153660046156ce565b6119ed565b34801561082657600080fd5b5061082f611a26565b60405161028b9190615748565b34801561084857600080fd5b506103127f000000000000000000000000000000000000000000000000000000000000000081565b34801561087c57600080fd5b506108a47f000000000000000000000000000000000000000000000000000000000000000081565b60405161028b9190615762565b3480156108bd57600080fd5b507f00000000000000000000000000000000000000000000000000000000000000006103c1565b3480156108f057600080fd5b506103127f000000000000000000000000000000000000000000000000000000000000000081565b34801561092457600080fd5b50610301610933366004615776565b611a6d565b34801561094457600080fd5b506103127f000000000000000000000000000000000000000000000000000000000000000081565b60007fffffffff0000000000000000000000000000000000000000000000000000000082167f85572ffb0000000000000000000000000000000000000000000000000000000014806109c257506109c282611bd2565b92915050565b610a0060608201356109dd6020840184615564565b60808401356109f26060860160408701615564565b602086013560a08701611d01565b608081013560046000610a166020850185615564565b6001600160a01b03166001600160a01b031681526020019081526020016000206001016000828254610a4891906157a5565b90915550610a7c9050610a5e6020830183615564565b608083013560608401803590610a779060408701615564565b611f32565b50565b6000805b82811015610b3a57600060046000868685818110610aa357610aa36157b8565b610ab99260206080909202019081019150615564565b6001600160a01b03168152602081019190915260400160009081209150858584818110610ae857610ae86157b8565b9050608002016040016020810190610b009190615564565b6001600160a01b0316148015610b1e57506022810154602382015414155b15610b315782610b2d816157ce565b9350505b50600101610a83565b5060005b82811015610b8757610b7f848483818110610b5b57610b5b6157b8565b90506080020160008411610b705760006120db565b610b7a84346157e8565b6120db565b600101610b3e565b50505050565b610a7c81346120db565b6001600160a01b038316610bd7576040517f8d3329cd00000000000000000000000000000000000000000000000000000000815260040160405180910390fd5b60007f00000000000000000000000000000000000000000000000000000000000000006001600160a01b031663ea78803f610c1160015490565b6040518263ffffffff1660e01b8152600401610c2f91815260200190565b602060405180830381865afa158015610c4c573d6000803e3d6000fd5b505050506040513d601f19601f82011682018060405250810190610c70919061580a565b90506001600160a01b038116610cb2576040517fcaa06d2000000000000000000000000000000000000000000000000000000000815260040160405180910390fd5b6001600160a01b03821660009081526005602052604090205460ff16610d14576040517f04fdbe060000000000000000000000000000000000000000000000000000000081526001600160a01b03831660048201526024015b60405180910390fd5b6000610d1e611a26565b90506003816003811115610d3457610d34615732565b1480610d5157506002816003811115610d4f57610d4f615732565b145b15610d88576040517fb10f8cca00000000000000000000000000000000000000000000000000000000815260040160405180910390fd5b610da5610d93612575565b6001600160a01b038416903089612584565b6000610db383888688612600565b9050610dc1878583896127ee565b50505050505050565b6000610dd4611a26565b90506003816003811115610dea57610dea615732565b1480610e0757506002816003811115610e0557610e05615732565b145b15610e3e576040517fb10f8cca00000000000000000000000000000000000000000000000000000000815260040160405180910390fd5b6000610e4960015490565b9050610f467f00000000000000000000000000000000000000000000000000000000000000006001600160a01b031663293c49996040518163ffffffff1660e01b8152600401602060405180830381865afa158015610eac573d6000803e3d6000fd5b505050506040513d601f19601f82011682018060405250810190610ed0919061580a565b6001600160a01b0316636352211e836040518263ffffffff1660e01b8152600401610efd91815260200190565b602060405180830381865afa158015610f1a573d6000803e3d6000fd5b505050506040513d601f19601f82011682018060405250810190610f3e919061580a565b82601e612978565b6000610f556212750042615827565b905064ffffffffff841615801590610f735750808464ffffffffff16105b15610fba576040517f044691ac00000000000000000000000000000000000000000000000000000000815264ffffffffff8516600482015260248101829052604401610d0b565b64ffffffffff84166000557f455efa76af2a8686dc0dd3041bda89ece5ba4691277d525e2161003bbca8b24584610fef612575565b6040805164ffffffffff90931683526001600160a01b0390911660208301520160405180910390a150505050565b60007f0000000000000000000000000000000000000000000000000000000000000000600181111561105157611051615732565b146110aa577f00000000000000000000000000000000000000000000000000000000000000006040517fb039c395000000000000000000000000000000000000000000000000000000008152600401610d0b9190615762565b610a7c816110b783611754565b612ac2565b6110d56110c7612575565b6001600160a01b0316301490565b61111f576110e1612575565b6040517f36183c8f0000000000000000000000000000000000000000000000000000000081526001600160a01b039091166004820152602401610d0b565b60006003816111316020850185615564565b6001600160a01b0316815260208101919091526040908101600020805490925067ffffffffffffffff169061116c9060608501908501615857565b67ffffffffffffffff1611801561119c57506003611188611a26565b600381111561119957611199615732565b14155b1561125f576111b16060830160408401615857565b815467ffffffffffffffff191667ffffffffffffffff91909116178155606082013560018201556111e56020830183615564565b6001600160a01b03167fc69d3412489554fb7820c4c2784cb644b6c79bfc117444b93977d3d33a9b8eac61121f6060850160408601615857565b606085013561122c612575565b6040805167ffffffffffffffff909416845260208401929092526001600160a01b03169082015260600160405180910390a25b5050565b600061126e60015490565b90506112d17f00000000000000000000000000000000000000000000000000000000000000006001600160a01b031663293c49996040518163ffffffff1660e01b8152600401602060405180830381865afa158015610eac573d6000803e3d6000fd5b60005b828110156113b6576000600560008686858181106112f4576112f46157b8565b90506020020160208101906113099190615564565b6001600160a01b031681526020810191909152604001600090812080547fffffffffffffffffffffffffffffffffffffffffffffffffffffffffffffff00169215159290921790915560019060059086868581811061136a5761136a6157b8565b905060200201602081019061137f9190615564565b6001600160a01b03168152602081019190915260400160002080549115156101000261ff00199092169190911790556001016112d4565b507f8021bce60b20a9afb57085869a3552e0ee5b272b868df894fb30c5e90e74c07283836113e2612575565b6040516113f193929190615872565b60405180910390a1505050565b611406615356565b6001600160a01b0382166000908152600460209081526040918290208251608081018452815467ffffffffffffffff1681526001820154818401528351610440810180865291949293858401939192600286019284929083019184919082845b815481526020019060010190808311611466575050509183525050602091820154908201529082526023929092015491015292915050565b7f00000000000000000000000000000000000000000000000000000000000000006001600160a01b03166114d0612575565b6001600160a01b0316146114e6576110e1612575565b60006114f560608301836158d2565b8101906115029190615957565b9050600061151360408401846158d2565b8101906115209190615564565b90506001600160a01b0381163014158061157d575067ffffffffffffffff7f0000000000000000000000000000000000000000000000000000000000000000166115706040850160208601615857565b67ffffffffffffffff1614155b156115bf576040517f36183c8f0000000000000000000000000000000000000000000000000000000081526001600160a01b0382166004820152602401610d0b565b6115cc60808401846159f6565b90506001036116ea5760006115e460808501856159f6565b60008181106115f5576115f56157b8565b90506040020180360381019061160b9190615a40565b905061eeee6001600160a01b031683600001516001600160a01b0316036116e8578051600061163c61eeee30612ebb565b60208401516040517f2e1a7d4d0000000000000000000000000000000000000000000000000000000081529192506001600160a01b03841691632e1a7d4d9161168b9160040190815260200190565b600060405180830381600087803b1580156116a557600080fd5b505af11580156116b9573d6000803e3d6000fd5b505050506116c961eeee30612ebb565b60208401516116d89083615827565b146116e5576116e5615a7a565b50505b505b6040517f69d31fdd00000000000000000000000000000000000000000000000000000000815230906369d31fdd90611726908590600401615a90565b600060405180830381600087803b15801561174057600080fd5b505af1158015610dc1573d6000803e3d6000fd5b6001600160a01b03811660009081526004602052604081206001015461177a8330612ebb565b6109c291906157a5565b6117bc60608201356117996020840184615564565b60808401356117ae6060860160408701615564565b602086013560a08701612f6b565b7faaca6f6829d340365b5e6599e0d513cbb4602b94f58ccf16ac77d8d3ae7139ef6117ed6060830160408401615564565b6117fa6020840184615564565b60608401356080850135602086013560017f0000000000000000000000000000000000000000000000000000000000000000600181111561183d5761183d615732565b1461184957600061184c565b60015b611854612575565b604080516001600160a01b039889168152968816602088015286019490945260608501929092526080840152151560a083015290911660c082015260e00160405180910390a1610a7c610a5e6020830183615564565b6001600160a01b03808216600090815260056020908152604091829020825160a081018452815460ff808216151583526101008204161580159483019490945263ffffffff62010000820416948201949094526601000000000000909304909316606083015260019092015460808201529061195d576040517f4bba81f00000000000000000000000000000000000000000000000000000000081526001600160a01b0383166004820152602401610d0b565b60808101516001600160a01b03831660009081526004602052604090206001015410156119e2576001600160a01b03821660009081526004602081905260409182902060010154608084015192517fc3e11b79000000000000000000000000000000000000000000000000000000008152918201526024810191909152604401610d0b565b61125f348383613041565b60005b81811015611a2157611a19838383818110611a0d57611a0d6157b8565b90506104a00201611784565b6001016119f0565b505050565b60008054808203611a3957600091505090565b611a4662127500826157a5565b421015611a5557600191505090565b80421015611a6557600291505090565b600391505090565b7ff0c57e16840df040f15088dc2f81fe391c3923bec73e23a9662efc9c229c6a00805468010000000000000000810460ff16159067ffffffffffffffff16600081158015611ab85750825b905060008267ffffffffffffffff166001148015611ad55750303b155b905081158015611ae3575080155b15611b1a576040517ff92ee8a900000000000000000000000000000000000000000000000000000000815260040160405180910390fd5b845467ffffffffffffffff191660011785558315611b645784547fffffffffffffffffffffffffffffffffffffffffffffff00ffffffffffffffff16680100000000000000001785555b60018690558315611bca5784547fffffffffffffffffffffffffffffffffffffffffffffff00ffffffffffffffff168555604051600181527fc7f505b2f371ae2175ee4913f4499e1f2633a7b5936321eed1cdaeb6115181d29060200160405180910390a15b505050505050565b60007fffffffff0000000000000000000000000000000000000000000000000000000082167f18a5af27000000000000000000000000000000000000000000000000000000001480611c6557507fffffffff0000000000000000000000000000000000000000000000000000000082167f4c74205e00000000000000000000000000000000000000000000000000000000145b80611cb157507fffffffff0000000000000000000000000000000000000000000000000000000082167ff434c91400000000000000000000000000000000000000000000000000000000145b806109c257507f01ffc9a7000000000000000000000000000000000000000000000000000000007fffffffff000000000000000000000000000000000000000000000000000000008316146109c2565b6000611d0b611a26565b90506003816003811115611d2157611d21615732565b14158015611d4157506002816003811115611d3e57611d3e615732565b14155b8015611d6b57506001600160a01b038616600090815260056020526040902054610100900460ff16155b15611dad576040517f4bba81f00000000000000000000000000000000000000000000000000000000081526001600160a01b0387166004820152602401610d0b565b6001600160a01b0386166000908152600460205260409020602381015415801590611de857508360018260230154611de591906157a5565b10155b15611e31576040517fa4e6bcec0000000000000000000000000000000000000000000000000000000081526001600160a01b038816600482015260248101859052604401610d0b565b604080516001600160a01b03891660208201526000910160408051808303601f19018152918152815160209283012060601c60008181526002845282812060088a901c8252909352912054909150600160ff87161b1615611ed0576040517fa4e6bcec0000000000000000000000000000000000000000000000000000000081526001600160a01b038916600482015260248101869052604401610d0b565b6001600160a01b03908116600090815260026020818152604080842060088a901c855282528084208054600160ff8c161b179055938b16835260049052919020611f2891611f1e9101613261565b8988888888614617565b5050505050505050565b60017f00000000000000000000000000000000000000000000000000000000000000006001811115611f6657611f66615732565b148015611f7257508215155b15611f8157611f818484612ac2565b6000611f8c60015490565b6040517f5dd8f6aa000000000000000000000000000000000000000000000000000000008152600481018290529091507f00000000000000000000000000000000000000000000000000000000000000006001600160a01b031690635dd8f6aa90602401602060405180830381865afa15801561200d573d6000803e3d6000fd5b505050506040513d601f19601f82011682018060405250810190612031919061580a565b6040517fc7fb92de00000000000000000000000000000000000000000000000000000000815260048101839052602481018590526001600160a01b03848116604483015260a06064830152600060a483018190526084830152919091169063c7fb92de9060c4016020604051808303816000875af11580156120b7573d6000803e3d6000fd5b505050506040513d601f19601f82011682018060405250810190611bca9190615adc565b60006120ea6020840184615564565b6001600160a01b03808216600090815260056020908152604091829020825160a081018452815460ff808216151583526101008204161580159483019490945263ffffffff620100008204169482019490945266010000000000009093049093166060830152600190920154608082015291925061219f576040517f4bba81f00000000000000000000000000000000000000000000000000000000081526001600160a01b0383166004820152602401610d0b565b6121a8846146c9565b60006121b360015490565b90506122b07f00000000000000000000000000000000000000000000000000000000000000006001600160a01b031663293c49996040518163ffffffff1660e01b8152600401602060405180830381865afa158015612216573d6000803e3d6000fd5b505050506040513d601f19601f8201168201806040525081019061223a919061580a565b6001600160a01b0316636352211e836040518263ffffffff1660e01b815260040161226791815260200190565b602060405180830381865afa158015612284573d6000803e3d6000fd5b505050506040513d601f19601f820116820180604052508101906122a8919061580a565b82601c612978565b60608201516001600160a01b0316158015906122f157506122d76060860160408701615564565b6001600160a01b031682606001516001600160a01b031614155b80156123165750600061230a6060870160408801615564565b6001600160a01b031614155b801561233c57506001600160a01b03831660009081526004602052604090206022015415155b1561238c5760608201516040517f1460b5460000000000000000000000000000000000000000000000000000000081526001600160a01b0380861660048301529091166024820152604401610d0b565b600061239e6060870160408801615564565b6001600160a01b03161480156123d557506001600160a01b0383166000908152600460205260409020602281015460239091015414155b156123e5576123e5848484613041565b6040518060a0016040528060006001600160a01b031687604001602081019061240e9190615564565b6001600160a01b031614151515815260200160001515815260200186602001602081019061243c9190615af5565b63ffffffff16815260200160006124596060890160408a01615564565b6001600160a01b03161461247c576124776060880160408901615564565b612482565b83606001515b6001600160a01b039081168252606097880135602092830152948516600090815260058252604090819020835181549385015192850151998501517fffffffffffffffffffffffffffffffffffffffffffffffffffffffffffff000090941690151561ff0019161761010092151592909202919091177fffffffffffff000000000000000000000000000000000000000000000000ffff166201000063ffffffff909916989098027fffffffffffff0000000000000000000000000000000000000000ffffffffffff16979097176601000000000000919095160293909317855550506080015160019092019190915550565b600061257f614760565b905090565b6040516001600160a01b038481166024830152838116604483015260648201839052610b879186918216906323b872dd906084015b604051602081830303815290604052915060e01b6020820180517bffffffffffffffffffffffffffffffffffffffffffffffffffffffff83818316178352505050506147d5565b60008061260c60015490565b6040517f86202650000000000000000000000000000000000000000000000000000000008152600481018290526001600160a01b0386811660248301529192506000917f00000000000000000000000000000000000000000000000000000000000000001690638620265090604401602060405180830381865afa158015612698573d6000803e3d6000fd5b505050506040513d601f19601f820116820180604052508101906126bc919061580a565b90506001600160a01b038116612710576040517fb61c181f000000000000000000000000000000000000000000000000000000008152600481018390526001600160a01b0386166024820152604401610d0b565b600061271c8630612ebb565b604080516020810182526000815290517f13da83170000000000000000000000000000000000000000000000000000000081529192506001600160a01b038416916313da83179161277b91309188918d918d918d918691600401615b61565b6020604051808303816000875af115801561279a573d6000803e3d6000fd5b505050506040513d601f19601f820116820180604052508101906127be9190615adc565b9350806127cb8730612ebb565b6127d591906157a5565b84146127e3576127e3615a7a565b505050949350505050565b6040805160208082018790528183018590526001600160a01b03841660608084019190915283518084039091018152608090920190925280519101206000906001600160a01b03851660009081526004602090815260408083208151610440810180845295965090946128979387936002880192849291830191849182845b81548152602001906001019080831161286d5750505091835250506020918201549101529061485f565b8051909150819060028401906128b09082906020615382565b5060208201518160200155905050848260010160008282546128d29190615827565b92505081905550856001600160a01b0316846001600160a01b03167f584a41ff082fad99bb6e50c5767c347c762057fe5726539f0a8de49d84549c23856001856020015161292091906157a5565b61292c87600201613261565b8c8b612936612575565b60408051968752602087019590955293850192909252606084015260808301526001600160a01b031660a082015260c00160405180910390a350505050505050565b6000612982612575565b9050836001600160a01b0316816001600160a01b031614158015612a6a57506040517f348b684e0000000000000000000000000000000000000000000000000000000081526001600160a01b0382811660048301528581166024830152604482018590526064820184905260016084830181905260a48301527f0000000000000000000000000000000000000000000000000000000000000000169063348b684e9060c401602060405180830381865afa158015612a44573d6000803e3d6000fd5b505050506040513d601f19601f82011682018060405250810190612a689190615bb4565b155b15610b87576040517f264deeaa0000000000000000000000000000000000000000000000000000000081526001600160a01b038086166004830152821660248201526044810184905260648101839052608401610d0b565b6000612acd83611754565b905080821115612b13576040517f60ec3e710000000000000000000000000000000000000000000000000000000081526004810183905260248101829052604401610d0b565b6000612b1e60015490565b6040517f86202650000000000000000000000000000000000000000000000000000000008152600481018290526001600160a01b0386811660248301529192506000917f00000000000000000000000000000000000000000000000000000000000000001690638620265090604401602060405180830381865afa158015612baa573d6000803e3d6000fd5b505050506040513d601f19601f82011682018060405250810190612bce919061580a565b90506001600160a01b038116612c22576040517fb61c181f000000000000000000000000000000000000000000000000000000008152600481018390526001600160a01b0386166024820152604401610d0b565b6001600160a01b03851661eeee14612e0b576040517f70a082310000000000000000000000000000000000000000000000000000000081523060048201526000906001600160a01b038716906370a0823190602401602060405180830381865afa158015612c94573d6000803e3d6000fd5b505050506040513d601f19601f82011682018060405250810190612cb89190615adc565b9050612cc5868387614997565b6040517f9e6eec05000000000000000000000000000000000000000000000000000000008152600481018490526001600160a01b0387811660248301526044820187905260006064830181905260c0608484015260c4830181905260e060a484015260e4830152831690639e6eec059061010401600060405180830381600087803b158015612d5357600080fd5b505af1158015612d67573d6000803e3d6000fd5b505050508481612d7791906157a5565b6040517f70a082310000000000000000000000000000000000000000000000000000000081523060048201526001600160a01b038816906370a0823190602401602060405180830381865afa158015612dd4573d6000803e3d6000fd5b505050506040513d601f19601f82011682018060405250810190612df89190615adc565b14612e0557612e05615a7a565b50612eb4565b6040517f9e6eec05000000000000000000000000000000000000000000000000000000008152600481018390526001600160a01b0386811660248301526044820186905260006064830181905260c0608484015260c4830181905260e060a484015260e4830152821690639e6eec05908690610104016000604051808303818588803b158015612e9a57600080fd5b505af1158015612eae573d6000803e3d6000fd5b50505050505b5050505050565b600061eeed196001600160a01b03841601612ee157506001600160a01b038116316109c2565b6040517f70a082310000000000000000000000000000000000000000000000000000000081526001600160a01b0383811660048301528416906370a0823190602401602060405180830381865afa158015612f40573d6000803e3d6000fd5b505050506040513d601f19601f82011682018060405250810190612f649190615adc565b9392505050565b6001600160a01b0385166000908152600260209081526040808320600886901c8452909152902054600160ff84161b1615612fe4576040517fa4e6bcec0000000000000000000000000000000000000000000000000000000081526001600160a01b038616600482015260248101839052604401610d0b565b6001600160a01b0385166000908152600260209081526040808320600886901c845290915290208054600160ff85161b1790556001600160a01b038516600090815260036020526040902060010154611bca908786868686614617565b60608101516001600160a01b0316613090576040517f04fdbe060000000000000000000000000000000000000000000000000000000081526001600160a01b0383166004820152602401610d0b565b600061309a611a26565b905060038160038111156130b0576130b0615732565b14806130cd575060028160038111156130cb576130cb615732565b145b15613104576040517fb10f8cca00000000000000000000000000000000000000000000000000000000815260040160405180910390fd5b6001600160a01b038316600090815260046020526040812060018101805490839055815491929091839082906131439067ffffffffffffffff16615bd6565b91906101000a81548167ffffffffffffffff021916908367ffffffffffffffff16021790559050600061317884600201613261565b60228501546023860181905590915060006131946001836157a5565b9050886001600160a01b0316837f47c5615513b0f669da2dd7e3362a34610ca2695d0a0e2da2160cee952eab203c83876131cc612575565b6040805193845267ffffffffffffffff90921660208401526001600160a01b03169082015260600160405180910390a3600060405180606001604052808a606001516001600160a01b0316815260200187815260200160405180604001604052808867ffffffffffffffff1681526020018781525081525090506132548b838c898d86614a55565b5050505050505050505050565b602081015460009080820361329857507f27ae5ba08d7291c96c8cbddcc148bf48a6d68c7974b94356f53754ef6171d75792915050565b60008360018316156132ba578054600052600060205260406000209350613b6d565b60028316156132ff5760018101546000527fad3228b676f7d3cd4284a5443f17f1962b36e491b30a40b2405849e597ba5fb56020526040600020935060019150613b6d565b60048316156133445760028101546000527fb4c11951957c6f8f642c4af61cd6b24640fec6dc7fc607ee8206a99e92410d306020526040600020935060029150613b6d565b60088316156133895760038101546000527f21ddb9a356815c3fac1026b6dec5df3124afbadb485c9ba5a3e3398a04b7ba856020526040600020935060039150613b6d565b60108316156133ce5760048101546000527fe58769b32a1beaf1ea27375a44095a0d1fb664ce2dd358e7fcbfb78c26a193446020526040600020935060049150613b6d565b60208316156134135760058101546000527f0eb01ebfc9ed27500cd4dfc979272d1f0913cc9f66540d7e8005811109e1cf2d6020526040600020935060059150613b6d565b60408316156134585760068101546000527f887c22bd8750d34016ac3c66b5ff102dacdd73f6b014e710b51e8022af9a19686020526040600020935060069150613b6d565b608083161561349d5760078101546000527fffd70157e48063fc33c97a050f7f640233bf646cc98d9524c6b92bcf3ab56f836020526040600020935060079150613b6d565b6101008316156134e35760088101546000527f9867cc5f7f196b93bae1e27e6320742445d290f2263827498b54fec539f756af6020526040600020935060089150613b6d565b6102008316156135295760098101546000527fcefad4e508c098b9a7e1d8feb19955fb02ba9675585078710969d3440f5054e06020526040600020935060099150613b6d565b61040083161561356f57600a8101546000527ff9dc3e7fe016e050eff260334f18a5d4fe391d82092319f5964f2e2eb7c1c3a560205260406000209350600a9150613b6d565b6108008316156135b557600b8101546000527ff8b13a49e282f609c317a833fb8d976d11517c571d1221a265d25af778ecf89260205260406000209350600b9150613b6d565b6110008316156135fb57600c8101546000527f3490c6ceeb450aecdc82e28293031d10c7d73bf85e57bf041a97360aa2c5d99c60205260406000209350600c9150613b6d565b61200083161561364157600d8101546000527fc1df82d9c4b87413eae2ef048f94b4d3554cea73d92b0f7af96e0271c691e2bb60205260406000209350600d9150613b6d565b61400083161561368757600e8101546000527f5c67add7c6caf302256adedf7ab114da0acfe870d449a3a489f781d659e8becc60205260406000209350600e9150613b6d565b6180008316156136cd57600f8101546000527fda7bce9f4e8618b6bd2f4132ce798cdc7a60e7e1460a7299e3c6342a579626d260205260406000209350600f9150613b6d565b620100008316156137145760108101546000527f2733e50f526ec2fa19a22b31e8ed50f23cd1fdf94c9154ed3a7609a2f1ff981f6020526040600020935060109150613b6d565b6202000083161561375b5760118101546000527fe1d3b5c807b281e4683cc6d6315cf95b9ade8641defcb32372f1c126e398ef7a6020526040600020935060119150613b6d565b620400008316156137a25760128101546000527f5a2dce0a8a7f68bb74560f8f71837c2c2ebbcbf7fffb42ae1896f13f7c7479a06020526040600020935060129150613b6d565b620800008316156137e95760138101546000527fb46a28b6f55540f89444f63de0378e3d121be09e06cc9ded1c20e65876d36aa06020526040600020935060139150613b6d565b621000008316156138305760148101546000527fc65e9645644786b620e2dd2ad648ddfcbf4a7e5b1a3a4ecfe7f64667a3f0b7e26020526040600020935060149150613b6d565b622000008316156138775760158101546000527ff4418588ed35a2458cffeb39b93d26f18d2ab13bdce6aee58e7b99359ec2dfd96020526040600020935060159150613b6d565b624000008316156138be5760168101546000527f5a9c16dc00d6ef18b7933a6f8dc65ccb55667138776f7dea101070dc8796e3776020526040600020935060169150613b6d565b628000008316156139055760178101546000527f4df84f40ae0c8229d0d6069e5c8f39a7c299677a09d367fc7b05e3bc380ee6526020526040600020935060179150613b6d565b630100000083161561394d5760188101546000527fcdc72595f74c7b1043d0e1ffbab734648c838dfb0527d971b602bc216c9619ef6020526040600020935060189150613b6d565b63020000008316156139955760198101546000527f0abf5ac974a1ed57f4050aa510dd9c74f508277b39d7973bb2dfccc5eeb0618d6020526040600020935060199150613b6d565b63040000008316156139dd57601a8101546000527fb8cd74046ff337f0a7bf2c8e03e10f642c1886798d71806ab1e888d9e5ee87d060205260406000209350601a9150613b6d565b6308000000831615613a2557601b8101546000527f838c5655cb21c6cb83313b5a631175dff4963772cce9108188b34ac87c81c41e60205260406000209350601b9150613b6d565b6310000000831615613a6d57601c8101546000527f662ee4dd2dd7b2bc707961b1e646c4047669dcb6584f0d8d770daf5d7e7deb2e60205260406000209350601c9150613b6d565b6320000000831615613ab557601d8101546000527f388ab20e2573d171a88108e79d820e98f26c0b84aa8b2f4aa4968dbb818ea32260205260406000209350601d9150613b6d565b6340000000831615613afd57601e8101546000527f93237c50ba75ee485f4c22adf2f741400bdf8d6a9cc7df7ecae576221665d73560205260406000209350601e9150613b6d565b6380000000831615613b4557601f8101546000527f8448818bb4ae4562849e949e17ac16e0be16688e156b5cf15e098c627c0056a960205260406000209350601f9150613b6d565b7f27ae5ba08d7291c96c8cbddcc148bf48a6d68c7974b94356f53754ef6171d7579350602091505b601e821161460f576001821015613bcb57600283168015613b9957600182015460005284602052613bc2565b846000527fad3228b676f7d3cd4284a5443f17f1962b36e491b30a40b2405849e597ba5fb56020525b50604060002093505b6002821015613c2157600483168015613bef57600282015460005284602052613c18565b846000527fb4c11951957c6f8f642c4af61cd6b24640fec6dc7fc607ee8206a99e92410d306020525b50604060002093505b6003821015613c7757600883168015613c4557600382015460005284602052613c6e565b846000527f21ddb9a356815c3fac1026b6dec5df3124afbadb485c9ba5a3e3398a04b7ba856020525b50604060002093505b6004821015613ccd57601083168015613c9b57600482015460005284602052613cc4565b846000527fe58769b32a1beaf1ea27375a44095a0d1fb664ce2dd358e7fcbfb78c26a193446020525b50604060002093505b6005821015613d2357602083168015613cf157600582015460005284602052613d1a565b846000527f0eb01ebfc9ed27500cd4dfc979272d1f0913cc9f66540d7e8005811109e1cf2d6020525b50604060002093505b6006821015613d7957604083168015613d4757600682015460005284602052613d70565b846000527f887c22bd8750d34016ac3c66b5ff102dacdd73f6b014e710b51e8022af9a19686020525b50604060002093505b6007821015613dcf57608083168015613d9d57600782015460005284602052613dc6565b846000527fffd70157e48063fc33c97a050f7f640233bf646cc98d9524c6b92bcf3ab56f836020525b50604060002093505b6008821015613e265761010083168015613df457600882015460005284602052613e1d565b846000527f9867cc5f7f196b93bae1e27e6320742445d290f2263827498b54fec539f756af6020525b50604060002093505b6009821015613e7d5761020083168015613e4b57600982015460005284602052613e74565b846000527fcefad4e508c098b9a7e1d8feb19955fb02ba9675585078710969d3440f5054e06020525b50604060002093505b600a821015613ed45761040083168015613ea257600a82015460005284602052613ecb565b846000527ff9dc3e7fe016e050eff260334f18a5d4fe391d82092319f5964f2e2eb7c1c3a56020525b50604060002093505b600b821015613f2b5761080083168015613ef957600b82015460005284602052613f22565b846000527ff8b13a49e282f609c317a833fb8d976d11517c571d1221a265d25af778ecf8926020525b50604060002093505b600c821015613f825761100083168015613f5057600c82015460005284602052613f79565b846000527f3490c6ceeb450aecdc82e28293031d10c7d73bf85e57bf041a97360aa2c5d99c6020525b50604060002093505b600d821015613fd95761200083168015613fa757600d82015460005284602052613fd0565b846000527fc1df82d9c4b87413eae2ef048f94b4d3554cea73d92b0f7af96e0271c691e2bb6020525b50604060002093505b600e8210156140305761400083168015613ffe57600e82015460005284602052614027565b846000527f5c67add7c6caf302256adedf7ab114da0acfe870d449a3a489f781d659e8becc6020525b50604060002093505b600f821015614087576180008316801561405557600f8201546000528460205261407e565b846000527fda7bce9f4e8618b6bd2f4132ce798cdc7a60e7e1460a7299e3c6342a579626d26020525b50604060002093505b60108210156140df5762010000831680156140ad576010820154600052846020526140d6565b846000527f2733e50f526ec2fa19a22b31e8ed50f23cd1fdf94c9154ed3a7609a2f1ff981f6020525b50604060002093505b60118210156141375762020000831680156141055760118201546000528460205261412e565b846000527fe1d3b5c807b281e4683cc6d6315cf95b9ade8641defcb32372f1c126e398ef7a6020525b50604060002093505b601282101561418f57620400008316801561415d57601282015460005284602052614186565b846000527f5a2dce0a8a7f68bb74560f8f71837c2c2ebbcbf7fffb42ae1896f13f7c7479a06020525b50604060002093505b60138210156141e75762080000831680156141b5576013820154600052846020526141de565b846000527fb46a28b6f55540f89444f63de0378e3d121be09e06cc9ded1c20e65876d36aa06020525b50604060002093505b601482101561423f57621000008316801561420d57601482015460005284602052614236565b846000527fc65e9645644786b620e2dd2ad648ddfcbf4a7e5b1a3a4ecfe7f64667a3f0b7e26020525b50604060002093505b60158210156142975762200000831680156142655760158201546000528460205261428e565b846000527ff4418588ed35a2458cffeb39b93d26f18d2ab13bdce6aee58e7b99359ec2dfd96020525b50604060002093505b60168210156142ef5762400000831680156142bd576016820154600052846020526142e6565b846000527f5a9c16dc00d6ef18b7933a6f8dc65ccb55667138776f7dea101070dc8796e3776020525b50604060002093505b60178210156143475762800000831680156143155760178201546000528460205261433e565b846000527f4df84f40ae0c8229d0d6069e5c8f39a7c299677a09d367fc7b05e3bc380ee6526020525b50604060002093505b60188210156143a05763010000008316801561436e57601882015460005284602052614397565b846000527fcdc72595f74c7b1043d0e1ffbab734648c838dfb0527d971b602bc216c9619ef6020525b50604060002093505b60198210156143f9576302000000831680156143c7576019820154600052846020526143f0565b846000527f0abf5ac974a1ed57f4050aa510dd9c74f508277b39d7973bb2dfccc5eeb0618d6020525b50604060002093505b601a8210156144525763040000008316801561442057601a82015460005284602052614449565b846000527fb8cd74046ff337f0a7bf2c8e03e10f642c1886798d71806ab1e888d9e5ee87d06020525b50604060002093505b601b8210156144ab5763080000008316801561447957601b820154600052846020526144a2565b846000527f838c5655cb21c6cb83313b5a631175dff4963772cce9108188b34ac87c81c41e6020525b50604060002093505b601c821015614504576310000000831680156144d257601c820154600052846020526144fb565b846000527f662ee4dd2dd7b2bc707961b1e646c4047669dcb6584f0d8d770daf5d7e7deb2e6020525b50604060002093505b601d82101561455d5763200000008316801561452b57601d82015460005284602052614554565b846000527f388ab20e2573d171a88108e79d820e98f26c0b84aa8b2f4aa4968dbb818ea3226020525b50604060002093505b601e8210156145b65763400000008316801561458457601e820154600052846020526145ad565b846000527f93237c50ba75ee485f4c22adf2f741400bdf8d6a9cc7df7ecae576221665d7356020525b50604060002093505b601f82101561460f576380000000831680156145dd57601f82015460005284602052614606565b846000527f8448818bb4ae4562849e949e17ac16e0be16688e156b5cf15e098c627c0056a96020525b50604060002093505b505050919050565b6040805160208082018890528183018790526001600160a01b038616606080840191909152835180840390910181526080830180855281519183019190912061048090930190935260009261468592918590828261040080828437600092019190915250879150614fb99050565b9050868114610dc1576040517ee587d20000000000000000000000000000000000000000000000000000000081526004810182905260248101889052604401610d0b565b62030d406146dd6040830160208401615af5565b63ffffffff16108015614707575061eeee6146fb6020830183615564565b6001600160a01b031614155b15610a7c5761471c6040820160208301615af5565b6040517f555d0f1000000000000000000000000000000000000000000000000000000000815263ffffffff909116600482015262030d406024820152604401610d0b565b6000366014336001600160a01b037f00000000000000000000000000000000000000000000000000000000000000001614801561479d5750808210155b156147cd576000366147af83856157a5565b6147ba928290615bfd565b6147c391615c27565b60601c9250505090565b339250505090565b600080602060008451602086016000885af1806147f8576040513d6000823e3d81fd5b50506000513d9150811561481057806001141561481d565b6001600160a01b0384163b155b15610b87576040517f5274afe70000000000000000000000000000000000000000000000000000000081526001600160a01b0385166004820152602401610d0b565b6148676153c0565b6000836020018051614878906157ce565b908190529050600161488c60206002615d53565b61489691906157a5565b8111156148cf576040517f8eab04bb00000000000000000000000000000000000000000000000000000000815260040160405180910390fd5b60005b6020811015614964578160011660010361490b578451849082602081106148fb576148fb6157b8565b6020020152508391506109c29050565b8451816020811061491e5761491e6157b8565b60200201518460405160200161493e929190918252602082015260400190565b60408051601f1981840301815291905280516020909101209350600191821c91016148d2565b506040517f8eab04bb00000000000000000000000000000000000000000000000000000000815260040160405180910390fd5b604080516001600160a01b038416602482015260448082018490528251808303909101815260649091019091526020810180517bffffffffffffffffffffffffffffffffffffffffffffffffffffffff167f095ea7b300000000000000000000000000000000000000000000000000000000179052614a168482615307565b610b87576040516001600160a01b03848116602483015260006044830152614a4b91869182169063095ea7b3906064016125b9565b610b8784826147d5565b85600003614a8f576040517f3cb7b09b00000000000000000000000000000000000000000000000000000000815260040160405180910390fd5b620493e060608415614c48576040840151614ab09063ffffffff1683615827565b915061eeed196001600160a01b03871601614ba35760007f00000000000000000000000000000000000000000000000000000000000000006001600160a01b031663e861e9076040518163ffffffff1660e01b8152600401602060405180830381865afa158015614b25573d6000803e3d6000fd5b505050506040513d601f19601f82011682018060405250810190614b49919061580a565b9050806001600160a01b031663d0e30db0876040518263ffffffff1660e01b81526004016000604051808303818588803b158015614b8657600080fd5b505af1158015614b9a573d6000803e3d6000fd5b50939950505050505b60408051600180825281830190925290816020015b6040805180820190915260008082526020820152815260200190600190039081614bb85790505090506040518060400160405280876001600160a01b031681526020018681525081600081518110614c1257614c126157b8565b6020026020010181905250614c48867f000000000000000000000000000000000000000000000000000000000000000087614997565b60006040518060a00160405280614c5c3090565b604080516001600160a01b03909216602083015201604051602081830303815290604052815260200185604051602001614c969190615a90565b604051602081830303815290604052815260200183815260200160006001600160a01b03168152602001614d3d60405180602001604052808781525060408051915160248084019190915281518084039091018152604490920190526020810180517bffffffffffffffffffffffffffffffffffffffffffffffffffffffff167f97a657c90000000000000000000000000000000000000000000000000000000017905290565b90526040517f20487ded0000000000000000000000000000000000000000000000000000000081529091506000906001600160a01b037f000000000000000000000000000000000000000000000000000000000000000016906320487ded90614dcc907f0000000000000000000000000000000000000000000000000000000000000000908690600401615d5f565b602060405180830381865afa158015614de9573d6000803e3d6000fd5b505050506040513d601f19601f82011682018060405250810190614e0d9190615adc565b905089811115614e53576040517f0ee99a47000000000000000000000000000000000000000000000000000000008152600481018b905260248101829052604401610d0b565b6040517f96f4e9f90000000000000000000000000000000000000000000000000000000081526001600160a01b037f000000000000000000000000000000000000000000000000000000000000000016906396f4e9f9908390614edc907f0000000000000000000000000000000000000000000000000000000000000000908790600401615d5f565b60206040518083038185885af1158015614efa573d6000803e3d6000fd5b50505050506040513d601f19601f82011682018060405250810190614f1f9190615adc565b506000614f2a612575565b6001600160a01b0316614f3d838d6157a5565b604051600081818185875af1925050503d8060008114614f79576040519150601f19603f3d011682016040523d82523d6000602084013e614f7e565b606091505b5050905080613254576040517f97484b1000000000000000000000000000000000000000000000000000000000815260040160405180910390fd5b6020600582811b8216948552835194820394909452604060008181206002851615871b808503919091528386015190528181206004851615871b808503919091528286015190528181206008851615871b80850391909152606086015190528181206010851615871b8085039190915260808087015190915282822084861615881b8086039190915260a0870151905282822083861615881b8086039190915260c0870151905282822090851615871b8085039190915260e0860151905281812061010080861615881b80860392909252860151905281812061020080861615881b80860392909252610120870151909152828220610400861615881b808603919091526101408701519052828220610800861615881b808603919091526101608701519052828220611000861615881b808603919091526101808701519052828220612000861615881b808603919091526101a08701519052828220614000861615881b808603919091526101c08701519052828220618000861615881b808603919091526101e0870151905282822062010000861615881b8086039190915290860151905281812062020000851615871b80850391909152610220860151905281812062040000851615871b80850391909152610240860151905281812062080000851615871b80850391909152610260860151905281812062100000851615871b80850391909152610280860151905281812062200000851615871b808503919091526102a0860151905281812062400000851615871b808503919091526102c0860151905281812062800000851615871b808503919091526102e086015190528181206301000000851615871b8085039190915261030086015190528181206302000000851615871b8085039190915261032086015190528181206304000000851615871b8085039190915261034086015190528181206308000000851615871b8085039190915261036086015190528181206310000000851615871b8085039190915261038086015190528181206320000000851615871b808503919091526103a086015190528181206340000000851615871b808503919091526103c0860151905281812063800000009094161590951b91829003929092526103e090920151909152902090565b6000806000806020600086516020880160008a5af192503d9150600051905082801561534c5750811561533d578060011461534c565b6000866001600160a01b03163b115b9695505050505050565b60408051608081018252600080825260208201529081016153756153c0565b8152602001600081525090565b82602081019282156153b0579160200282015b828111156153b0578251825591602001919060010190615395565b506153bc9291506153d3565b5090565b60405180604001604052806153756153e8565b5b808211156153bc57600081556001016153d4565b6040518061040001604052806020906020820280368337509192915050565b60006020828403121561541957600080fd5b81357fffffffff0000000000000000000000000000000000000000000000000000000081168114612f6457600080fd5b60006104a0828403121561545c57600080fd5b50919050565b6000806020838503121561547557600080fd5b823567ffffffffffffffff8082111561548d57600080fd5b818501915085601f8301126154a157600080fd5b8135818111156154b057600080fd5b8660208260071b85010111156154c557600080fd5b60209290920196919550909350505050565b60006080828403121561545c57600080fd5b6000608082840312156154fb57600080fd5b612f6483836154d7565b6001600160a01b0381168114610a7c57600080fd5b6000806000806080858703121561553057600080fd5b84359350602085013561554281615505565b925060408501359150606085013561555981615505565b939692955090935050565b60006020828403121561557657600080fd5b8135612f6481615505565b60006020828403121561559357600080fd5b813564ffffffffff81168114612f6457600080fd5b815167ffffffffffffffff16815260208083015190820152604081016109c2565b600080602083850312156155dc57600080fd5b823567ffffffffffffffff808211156155f457600080fd5b818501915085601f83011261560857600080fd5b81358181111561561757600080fd5b8660208260051b85010111156154c557600080fd5b815167ffffffffffffffff1681526020808301518183015260408084015180516104808501939260009086015b84821015615677578251815291840191600191909101908401615659565b5050500151610440830152606092909201516104609091015290565b6000602082840312156156a557600080fd5b813567ffffffffffffffff8111156156bc57600080fd5b820160a08185031215612f6457600080fd5b600080602083850312156156e157600080fd5b823567ffffffffffffffff808211156156f957600080fd5b818501915085601f83011261570d57600080fd5b81358181111561571c57600080fd5b8660206104a0830285010111156154c557600080fd5b634e487b7160e01b600052602160045260246000fd5b602081016004831061575c5761575c615732565b91905290565b602081016002831061575c5761575c615732565b60006020828403121561578857600080fd5b5035919050565b634e487b7160e01b600052601160045260246000fd5b818103818111156109c2576109c261578f565b634e487b7160e01b600052603260045260246000fd5b600060001982036157e1576157e161578f565b5060010190565b60008261580557634e487b7160e01b600052601260045260246000fd5b500490565b60006020828403121561581c57600080fd5b8151612f6481615505565b808201808211156109c2576109c261578f565b803567ffffffffffffffff8116811461585257600080fd5b919050565b60006020828403121561586957600080fd5b612f648261583a565b6040808252810183905260008460608301825b868110156158b557823561589881615505565b6001600160a01b0316825260209283019290910190600101615885565b5080925050506001600160a01b0383166020830152949350505050565b6000808335601e198436030181126158e957600080fd5b83018035915067ffffffffffffffff82111561590457600080fd5b60200191503681900382131561591957600080fd5b9250929050565b6040805190810167ffffffffffffffff8111828210171561595157634e487b7160e01b600052604160045260246000fd5b60405290565b6000818303608081121561596a57600080fd5b6040516060810181811067ffffffffffffffff8211171561599b57634e487b7160e01b600052604160045260246000fd5b60405283356159a981615505565b8152602084810135908201526040603f19830112156159c757600080fd5b6159cf615920565b91506159dd6040850161583a565b8252606093909301356020820152604083015250919050565b6000808335601e19843603018112615a0d57600080fd5b83018035915067ffffffffffffffff821115615a2857600080fd5b6020019150600681901b360382131561591957600080fd5b600060408284031215615a5257600080fd5b615a5a615920565b8235615a6581615505565b81526020928301359281019290925250919050565b634e487b7160e01b600052600160045260246000fd5b60006080820190506001600160a01b038351168252602083015160208301526040830151615ad56040840182805167ffffffffffffffff168252602090810151910152565b5092915050565b600060208284031215615aee57600080fd5b5051919050565b600060208284031215615b0757600080fd5b813563ffffffff81168114612f6457600080fd5b6000815180845260005b81811015615b4157602081850181015186830182015201615b25565b506000602082860101526020601f19601f83011685010191505092915050565b60006001600160a01b03808a168352886020840152876040840152808716606084015285608084015280851660a08401525060e060c0830152615ba760e0830184615b1b565b9998505050505050505050565b600060208284031215615bc657600080fd5b81518015158114612f6457600080fd5b600067ffffffffffffffff808316818103615bf357615bf361578f565b6001019392505050565b60008085851115615c0d57600080fd5b83861115615c1a57600080fd5b5050820193919092039150565b7fffffffffffffffffffffffffffffffffffffffff0000000000000000000000008135818116916014851015615c675780818660140360031b1b83161692505b505092915050565b600181815b80851115615caa578160001904821115615c9057615c9061578f565b80851615615c9d57918102915b93841c9390800290615c74565b509250929050565b600082615cc1575060016109c2565b81615cce575060006109c2565b8160018114615ce45760028114615cee57615d0a565b60019150506109c2565b60ff841115615cff57615cff61578f565b50506001821b6109c2565b5060208310610133831016604e8410600b8410161715615d2d575081810a6109c2565b615d378383615c6f565b8060001904821115615d4b57615d4b61578f565b029392505050565b6000612f648383615cb2565b6000604067ffffffffffffffff851683526020604081850152845160a06040860152615d8e60e0860182615b1b565b905081860151603f1980878403016060880152615dab8383615b1b565b6040890151888203830160808a01528051808352908601945060009350908501905b80841015615dff57845180516001600160a01b0316835286015186830152938501936001939093019290860190615dcd565b5060608901516001600160a01b031660a08901526080890151888203830160c08a01529550615e2e8187615b1b565b9a995050505050505050505056fea26469706673582212205027d1744726643c6e1e47c30b41e987dcd25bf2500196678d43df7600fd4e6764736f6c63430008170033",
	"deployedBytecode": "0x6080604052600436106102535760003560e01c80637de6fba211610138578063bf557aee116100b0578063c6525f2c1161007f578063f434c91411610064578063f434c914146108e4578063fe4b84df14610918578063fe5f42ca1461093857600080fd5b8063c6525f2c14610870578063cdfceeba146108b157600080fd5b8063bf557aee146107b5578063c1854129146107fa578063c19d93fb1461081a578063c1b8411a1461083c57600080fd5b806392ee1ea711610107578063b0f479a1116100ec578063b0f479a11461074f578063b59ef50f14610782578063b71c1179146107a257600080fd5b806392ee1ea7146107185780639e6d7d431461072f57600080fd5b80637de6fba21461058f578063802c8fa01461069757806385572ffb146106c457806388bc2ef3146106e457600080fd5b8063551ebbf0116101cb57806369d31fdd1161019a578063754515591161017f57806375451559146105085780637d1d0c5b146105285780637da0a8771461055c57600080fd5b806369d31fdd1461047c5780636d9e384b1461048f57600080fd5b8063551ebbf0146103cf578063572b6c05146103ef5780636284386a1461043c57806369ce22331461045c57600080fd5b80631d831d5c1161022257806338eb20441161020757806338eb2044146103715780633a5de07d146103845780633fafa127146103b057600080fd5b80631d831d5c1461032a5780632241dc521461035e57600080fd5b806301ffc9a71461025f57806305696511146102945780630f648214146102e157806311cda4151461030357600080fd5b3661025a57005b600080fd5b34801561026b57600080fd5b5061027f61027a366004615407565b61096c565b60405190151581526020015b60405180910390f35b3480156102a057600080fd5b506102c87f0000000000000000000000000000000000000000000000008f90b8876dee653881565b60405167ffffffffffffffff909116815260200161028b565b3480156102ed57600080fd5b506103016102fc366004615449565b6109c8565b005b34801561030f57600080fd5b50305b6040516001600160a01b03909116815260200161028b565b34801561033657600080fd5b506103127f000000000000000000000000a59e9f424901fb9dbd8913a9a32a081f9425bf3681565b61030161036c366004615462565b610a7f565b61030161037f3660046154e9565b610b8d565b34801561039057600080fd5b5061039b62030d4081565b60405163ffffffff909116815260200161028b565b3480156103bc57600080fd5b506001545b60405190815260200161028b565b3480156103db57600080fd5b506103016103ea36600461551a565b610b97565b3480156103fb57600080fd5b5061027f61040a366004615564565b7f0000000000000000000000008a5ba591ed2bed5691a378c65611ed492500f8876001600160a01b0390811691161490565b34801561044857600080fd5b50610301610457366004615581565b610dca565b34801561046857600080fd5b50610301610477366004615564565b61101d565b61030161048a3660046154e9565b6110bc565b34801561049b57600080fd5b506104fb6104aa366004615564565b6040805180820190915260008082526020820152506001600160a01b03166000908152600360209081526040918290208251808401909352805467ffffffffffffffff168352600101549082015290565b60405161028b91906155a8565b34801561051457600080fd5b506103016105233660046155c9565b611263565b34801561053457600080fd5b506103c17f0000000000000000000000000000000000000000000000000000000000014a3481565b34801561056857600080fd5b507f0000000000000000000000008a5ba591ed2bed5691a378c65611ed492500f887610312565b34801561059b57600080fd5b506106426105aa366004615564565b6040805160a0808201835260008083526020808401829052838501829052606080850183905260809485018390526001600160a01b039687168352600582529185902085519384018652805460ff8082161515865261010082041615159285019290925262010000820463ffffffff169584019590955266010000000000009004909416938101939093526001909101549082015290565b60405161028b9190600060a08201905082511515825260208301511515602083015263ffffffff60408401511660408301526001600160a01b0360608401511660608301526080830151608083015292915050565b3480156106a357600080fd5b506106b76106b2366004615564565b6113fe565b60405161028b919061562c565b3480156106d057600080fd5b506103016106df366004615693565b61149e565b3480156106f057600080fd5b506103127f0000000000000000000000000bc9f153dee4d3d474ce0903775b9b2aaae9aa4181565b34801561072457600080fd5b5061039b620493e081565b34801561073b57600080fd5b506103c161074a366004615564565b611754565b34801561075b57600080fd5b507f0000000000000000000000000bf3de8c5d3e8a2b34d2beeb17abfcebaf363a59610312565b34801561078e57600080fd5b5061030161079d366004615449565b611784565b6103016107b0366004615564565b6118aa565b3480156107c157600080fd5b5061027f6107d0366004615564565b6001600160a01b039081166000908152600560205260409020546601000000000000900416151590565b34801561080657600080fd5b506103016108153660046156ce565b6119ed565b34801561082657600080fd5b5061082f611a26565b60405161028b9190615748565b34801561084857600080fd5b506103127f0000000000000000000000004e59b44847b379578588920ca78fbf26c0b4956c81565b34801561087c57600080fd5b506108a47f000000000000000000000000000000000000000000000000000000000000000081565b60405161028b9190615762565b3480156108bd57600080fd5b507f0000000000000000000000000000000000000000000000000000000000014a346103c1565b3480156108f057600080fd5b506103127f000000000000000000000000f5ca295dc286a176e35ebb7833031fd95550eb1481565b34801561092457600080fd5b50610301610933366004615776565b611a6d565b34801561094457600080fd5b506103127f0000000000000000000000000bf3de8c5d3e8a2b34d2beeb17abfcebaf363a5981565b60007fffffffff0000000000000000000000000000000000000000000000000000000082167f85572ffb0000000000000000000000000000000000000000000000000000000014806109c257506109c282611bd2565b92915050565b610a0060608201356109dd6020840184615564565b60808401356109f26060860160408701615564565b602086013560a08701611d01565b608081013560046000610a166020850185615564565b6001600160a01b03166001600160a01b031681526020019081526020016000206001016000828254610a4891906157a5565b90915550610a7c9050610a5e6020830183615564565b608083013560608401803590610a779060408701615564565b611f32565b50565b6000805b82811015610b3a57600060046000868685818110610aa357610aa36157b8565b610ab99260206080909202019081019150615564565b6001600160a01b03168152602081019190915260400160009081209150858584818110610ae857610ae86157b8565b9050608002016040016020810190610b009190615564565b6001600160a01b0316148015610b1e57506022810154602382015414155b15610b315782610b2d816157ce565b9350505b50600101610a83565b5060005b82811015610b8757610b7f848483818110610b5b57610b5b6157b8565b90506080020160008411610b705760006120db565b610b7a84346157e8565b6120db565b600101610b3e565b50505050565b610a7c81346120db565b6001600160a01b038316610bd7576040517f8d3329cd00000000000000000000000000000000000000000000000000000000815260040160405180910390fd5b60007f000000000000000000000000a59e9f424901fb9dbd8913a9a32a081f9425bf366001600160a01b031663ea78803f610c1160015490565b6040518263ffffffff1660e01b8152600401610c2f91815260200190565b602060405180830381865afa158015610c4c573d6000803e3d6000fd5b505050506040513d601f19601f82011682018060405250810190610c70919061580a565b90506001600160a01b038116610cb2576040517fcaa06d2000000000000000000000000000000000000000000000000000000000815260040160405180910390fd5b6001600160a01b03821660009081526005602052604090205460ff16610d14576040517f04fdbe060000000000000000000000000000000000000000000000000000000081526001600160a01b03831660048201526024015b60405180910390fd5b6000610d1e611a26565b90506003816003811115610d3457610d34615732565b1480610d5157506002816003811115610d4f57610d4f615732565b145b15610d88576040517fb10f8cca00000000000000000000000000000000000000000000000000000000815260040160405180910390fd5b610da5610d93612575565b6001600160a01b038416903089612584565b6000610db383888688612600565b9050610dc1878583896127ee565b50505050505050565b6000610dd4611a26565b90506003816003811115610dea57610dea615732565b1480610e0757506002816003811115610e0557610e05615732565b145b15610e3e576040517fb10f8cca00000000000000000000000000000000000000000000000000000000815260040160405180910390fd5b6000610e4960015490565b9050610f467f0000000000000000000000000bc9f153dee4d3d474ce0903775b9b2aaae9aa416001600160a01b031663293c49996040518163ffffffff1660e01b8152600401602060405180830381865afa158015610eac573d6000803e3d6000fd5b505050506040513d601f19601f82011682018060405250810190610ed0919061580a565b6001600160a01b0316636352211e836040518263ffffffff1660e01b8152600401610efd91815260200190565b602060405180830381865afa158015610f1a573d6000803e3d6000fd5b505050506040513d601f19601f82011682018060405250810190610f3e919061580a565b82601e612978565b6000610f556212750042615827565b905064ffffffffff841615801590610f735750808464ffffffffff16105b15610fba576040517f044691ac00000000000000000000000000000000000000000000000000000000815264ffffffffff8516600482015260248101829052604401610d0b565b64ffffffffff84166000557f455efa76af2a8686dc0dd3041bda89ece5ba4691277d525e2161003bbca8b24584610fef612575565b6040805164ffffffffff90931683526001600160a01b0390911660208301520160405180910390a150505050565b60007f0000000000000000000000000000000000000000000000000000000000000000600181111561105157611051615732565b146110aa577f00000000000000000000000000000000000000000000000000000000000000006040517fb039c395000000000000000000000000000000000000000000000000000000008152600401610d0b9190615762565b610a7c816110b783611754565b612ac2565b6110d56110c7612575565b6001600160a01b0316301490565b61111f576110e1612575565b6040517f36183c8f0000000000000000000000000000000000000000000000000000000081526001600160a01b039091166004820152602401610d0b565b60006003816111316020850185615564565b6001600160a01b0316815260208101919091526040908101600020805490925067ffffffffffffffff169061116c9060608501908501615857565b67ffffffffffffffff1611801561119c57506003611188611a26565b600381111561119957611199615732565b14155b1561125f576111b16060830160408401615857565b815467ffffffffffffffff191667ffffffffffffffff91909116178155606082013560018201556111e56020830183615564565b6001600160a01b03167fc69d3412489554fb7820c4c2784cb644b6c79bfc117444b93977d3d33a9b8eac61121f6060850160408601615857565b606085013561122c612575565b6040805167ffffffffffffffff909416845260208401929092526001600160a01b03169082015260600160405180910390a25b5050565b600061126e60015490565b90506112d17f0000000000000000000000000bc9f153dee4d3d474ce0903775b9b2aaae9aa416001600160a01b031663293c49996040518163ffffffff1660e01b8152600401602060405180830381865afa158015610eac573d6000803e3d6000fd5b60005b828110156113b6576000600560008686858181106112f4576112f46157b8565b90506020020160208101906113099190615564565b6001600160a01b031681526020810191909152604001600090812080547fffffffffffffffffffffffffffffffffffffffffffffffffffffffffffffff00169215159290921790915560019060059086868581811061136a5761136a6157b8565b905060200201602081019061137f9190615564565b6001600160a01b03168152602081019190915260400160002080549115156101000261ff00199092169190911790556001016112d4565b507f8021bce60b20a9afb57085869a3552e0ee5b272b868df894fb30c5e90e74c07283836113e2612575565b6040516113f193929190615872565b60405180910390a1505050565b611406615356565b6001600160a01b0382166000908152600460209081526040918290208251608081018452815467ffffffffffffffff1681526001820154818401528351610440810180865291949293858401939192600286019284929083019184919082845b815481526020019060010190808311611466575050509183525050602091820154908201529082526023929092015491015292915050565b7f0000000000000000000000000bf3de8c5d3e8a2b34d2beeb17abfcebaf363a596001600160a01b03166114d0612575565b6001600160a01b0316146114e6576110e1612575565b60006114f560608301836158d2565b8101906115029190615957565b9050600061151360408401846158d2565b8101906115209190615564565b90506001600160a01b0381163014158061157d575067ffffffffffffffff7f0000000000000000000000000000000000000000000000008f90b8876dee6538166115706040850160208601615857565b67ffffffffffffffff1614155b156115bf576040517f36183c8f0000000000000000000000000000000000000000000000000000000081526001600160a01b0382166004820152602401610d0b565b6115cc60808401846159f6565b90506001036116ea5760006115e460808501856159f6565b60008181106115f5576115f56157b8565b90506040020180360381019061160b9190615a40565b905061eeee6001600160a01b031683600001516001600160a01b0316036116e8578051600061163c61eeee30612ebb565b60208401516040517f2e1a7d4d0000000000000000000000000000000000000000000000000000000081529192506001600160a01b03841691632e1a7d4d9161168b9160040190815260200190565b600060405180830381600087803b1580156116a557600080fd5b505af11580156116b9573d6000803e3d6000fd5b505050506116c961eeee30612ebb565b60208401516116d89083615827565b146116e5576116e5615a7a565b50505b505b6040517f69d31fdd00000000000000000000000000000000000000000000000000000000815230906369d31fdd90611726908590600401615a90565b600060405180830381600087803b15801561174057600080fd5b505af1158015610dc1573d6000803e3d6000fd5b6001600160a01b03811660009081526004602052604081206001015461177a8330612ebb565b6109c291906157a5565b6117bc60608201356117996020840184615564565b60808401356117ae6060860160408701615564565b602086013560a08701612f6b565b7faaca6f6829d340365b5e6599e0d513cbb4602b94f58ccf16ac77d8d3ae7139ef6117ed6060830160408401615564565b6117fa6020840184615564565b60608401356080850135602086013560017f0000000000000000000000000000000000000000000000000000000000000000600181111561183d5761183d615732565b1461184957600061184c565b60015b611854612575565b604080516001600160a01b039889168152968816602088015286019490945260608501929092526080840152151560a083015290911660c082015260e00160405180910390a1610a7c610a5e6020830183615564565b6001600160a01b03808216600090815260056020908152604091829020825160a081018452815460ff808216151583526101008204161580159483019490945263ffffffff62010000820416948201949094526601000000000000909304909316606083015260019092015460808201529061195d576040517f4bba81f00000000000000000000000000000000000000000000000000000000081526001600160a01b0383166004820152602401610d0b565b60808101516001600160a01b03831660009081526004602052604090206001015410156119e2576001600160a01b03821660009081526004602081905260409182902060010154608084015192517fc3e11b79000000000000000000000000000000000000000000000000000000008152918201526024810191909152604401610d0b565b61125f348383613041565b60005b81811015611a2157611a19838383818110611a0d57611a0d6157b8565b90506104a00201611784565b6001016119f0565b505050565b60008054808203611a3957600091505090565b611a4662127500826157a5565b421015611a5557600191505090565b80421015611a6557600291505090565b600391505090565b7ff0c57e16840df040f15088dc2f81fe391c3923bec73e23a9662efc9c229c6a00805468010000000000000000810460ff16159067ffffffffffffffff16600081158015611ab85750825b905060008267ffffffffffffffff166001148015611ad55750303b155b905081158015611ae3575080155b15611b1a576040517ff92ee8a900000000000000000000000000000000000000000000000000000000815260040160405180910390fd5b845467ffffffffffffffff191660011785558315611b645784547fffffffffffffffffffffffffffffffffffffffffffffff00ffffffffffffffff16680100000000000000001785555b60018690558315611bca5784547fffffffffffffffffffffffffffffffffffffffffffffff00ffffffffffffffff168555604051600181527fc7f505b2f371ae2175ee4913f4499e1f2633a7b5936321eed1cdaeb6115181d29060200160405180910390a15b505050505050565b60007fffffffff0000000000000000000000000000000000000000000000000000000082167f18a5af27000000000000000000000000000000000000000000000000000000001480611c6557507fffffffff0000000000000000000000000000000000000000000000000000000082167f4c74205e00000000000000000000000000000000000000000000000000000000145b80611cb157507fffffffff0000000000000000000000000000000000000000000000000000000082167ff434c91400000000000000000000000000000000000000000000000000000000145b806109c257507f01ffc9a7000000000000000000000000000000000000000000000000000000007fffffffff000000000000000000000000000000000000000000000000000000008316146109c2565b6000611d0b611a26565b90506003816003811115611d2157611d21615732565b14158015611d4157506002816003811115611d3e57611d3e615732565b14155b8015611d6b57506001600160a01b038616600090815260056020526040902054610100900460ff16155b15611dad576040517f4bba81f00000000000000000000000000000000000000000000000000000000081526001600160a01b0387166004820152602401610d0b565b6001600160a01b0386166000908152600460205260409020602381015415801590611de857508360018260230154611de591906157a5565b10155b15611e31576040517fa4e6bcec0000000000000000000000000000000000000000000000000000000081526001600160a01b038816600482015260248101859052604401610d0b565b604080516001600160a01b03891660208201526000910160408051808303601f19018152918152815160209283012060601c60008181526002845282812060088a901c8252909352912054909150600160ff87161b1615611ed0576040517fa4e6bcec0000000000000000000000000000000000000000000000000000000081526001600160a01b038916600482015260248101869052604401610d0b565b6001600160a01b03908116600090815260026020818152604080842060088a901c855282528084208054600160ff8c161b179055938b16835260049052919020611f2891611f1e9101613261565b8988888888614617565b5050505050505050565b60017f00000000000000000000000000000000000000000000000000000000000000006001811115611f6657611f66615732565b148015611f7257508215155b15611f8157611f818484612ac2565b6000611f8c60015490565b6040517f5dd8f6aa000000000000000000000000000000000000000000000000000000008152600481018290529091507f0000000000000000000000000bc9f153dee4d3d474ce0903775b9b2aaae9aa416001600160a01b031690635dd8f6aa90602401602060405180830381865afa15801561200d573d6000803e3d6000fd5b505050506040513d601f19601f82011682018060405250810190612031919061580a565b6040517fc7fb92de00000000000000000000000000000000000000000000000000000000815260048101839052602481018590526001600160a01b03848116604483015260a06064830152600060a483018190526084830152919091169063c7fb92de9060c4016020604051808303816000875af11580156120b7573d6000803e3d6000fd5b505050506040513d601f19601f82011682018060405250810190611bca9190615adc565b60006120ea6020840184615564565b6001600160a01b03808216600090815260056020908152604091829020825160a081018452815460ff808216151583526101008204161580159483019490945263ffffffff620100008204169482019490945266010000000000009093049093166060830152600190920154608082015291925061219f576040517f4bba81f00000000000000000000000000000000000000000000000000000000081526001600160a01b0383166004820152602401610d0b565b6121a8846146c9565b60006121b360015490565b90506122b07f0000000000000000000000000bc9f153dee4d3d474ce0903775b9b2aaae9aa416001600160a01b031663293c49996040518163ffffffff1660e01b8152600401602060405180830381865afa158015612216573d6000803e3d6000fd5b505050506040513d601f19601f8201168201806040525081019061223a919061580a565b6001600160a01b0316636352211e836040518263ffffffff1660e01b815260040161226791815260200190565b602060405180830381865afa158015612284573d6000803e3d6000fd5b505050506040513d601f19601f820116820180604052508101906122a8919061580a565b82601c612978565b60608201516001600160a01b0316158015906122f157506122d76060860160408701615564565b6001600160a01b031682606001516001600160a01b031614155b80156123165750600061230a6060870160408801615564565b6001600160a01b031614155b801561233c57506001600160a01b03831660009081526004602052604090206022015415155b1561238c5760608201516040517f1460b5460000000000000000000000000000000000000000000000000000000081526001600160a01b0380861660048301529091166024820152604401610d0b565b600061239e6060870160408801615564565b6001600160a01b03161480156123d557506001600160a01b0383166000908152600460205260409020602281015460239091015414155b156123e5576123e5848484613041565b6040518060a0016040528060006001600160a01b031687604001602081019061240e9190615564565b6001600160a01b031614151515815260200160001515815260200186602001602081019061243c9190615af5565b63ffffffff16815260200160006124596060890160408a01615564565b6001600160a01b03161461247c576124776060880160408901615564565b612482565b83606001515b6001600160a01b039081168252606097880135602092830152948516600090815260058252604090819020835181549385015192850151998501517fffffffffffffffffffffffffffffffffffffffffffffffffffffffffffff000090941690151561ff0019161761010092151592909202919091177fffffffffffff000000000000000000000000000000000000000000000000ffff166201000063ffffffff909916989098027fffffffffffff0000000000000000000000000000000000000000ffffffffffff16979097176601000000000000919095160293909317855550506080015160019092019190915550565b600061257f614760565b905090565b6040516001600160a01b038481166024830152838116604483015260648201839052610b879186918216906323b872dd906084015b604051602081830303815290604052915060e01b6020820180517bffffffffffffffffffffffffffffffffffffffffffffffffffffffff83818316178352505050506147d5565b60008061260c60015490565b6040517f86202650000000000000000000000000000000000000000000000000000000008152600481018290526001600160a01b0386811660248301529192506000917f0000000000000000000000000bc9f153dee4d3d474ce0903775b9b2aaae9aa411690638620265090604401602060405180830381865afa158015612698573d6000803e3d6000fd5b505050506040513d601f19601f820116820180604052508101906126bc919061580a565b90506001600160a01b038116612710576040517fb61c181f000000000000000000000000000000000000000000000000000000008152600481018390526001600160a01b0386166024820152604401610d0b565b600061271c8630612ebb565b604080516020810182526000815290517f13da83170000000000000000000000000000000000000000000000000000000081529192506001600160a01b038416916313da83179161277b91309188918d918d918d918691600401615b61565b6020604051808303816000875af115801561279a573d6000803e3d6000fd5b505050506040513d601f19601f820116820180604052508101906127be9190615adc565b9350806127cb8730612ebb565b6127d591906157a5565b84146127e3576127e3615a7a565b505050949350505050565b6040805160208082018790528183018590526001600160a01b03841660608084019190915283518084039091018152608090920190925280519101206000906001600160a01b03851660009081526004602090815260408083208151610440810180845295965090946128979387936002880192849291830191849182845b81548152602001906001019080831161286d5750505091835250506020918201549101529061485f565b8051909150819060028401906128b09082906020615382565b5060208201518160200155905050848260010160008282546128d29190615827565b92505081905550856001600160a01b0316846001600160a01b03167f584a41ff082fad99bb6e50c5767c347c762057fe5726539f0a8de49d84549c23856001856020015161292091906157a5565b61292c87600201613261565b8c8b612936612575565b60408051968752602087019590955293850192909252606084015260808301526001600160a01b031660a082015260c00160405180910390a350505050505050565b6000612982612575565b9050836001600160a01b0316816001600160a01b031614158015612a6a57506040517f348b684e0000000000000000000000000000000000000000000000000000000081526001600160a01b0382811660048301528581166024830152604482018590526064820184905260016084830181905260a48301527f000000000000000000000000f5ca295dc286a176e35ebb7833031fd95550eb14169063348b684e9060c401602060405180830381865afa158015612a44573d6000803e3d6000fd5b505050506040513d601f19601f82011682018060405250810190612a689190615bb4565b155b15610b87576040517f264deeaa0000000000000000000000000000000000000000000000000000000081526001600160a01b038086166004830152821660248201526044810184905260648101839052608401610d0b565b6000612acd83611754565b905080821115612b13576040517f60ec3e710000000000000000000000000000000000000000000000000000000081526004810183905260248101829052604401610d0b565b6000612b1e60015490565b6040517f86202650000000000000000000000000000000000000000000000000000000008152600481018290526001600160a01b0386811660248301529192506000917f0000000000000000000000000bc9f153dee4d3d474ce0903775b9b2aaae9aa411690638620265090604401602060405180830381865afa158015612baa573d6000803e3d6000fd5b505050506040513d601f19601f82011682018060405250810190612bce919061580a565b90506001600160a01b038116612c22576040517fb61c181f000000000000000000000000000000000000000000000000000000008152600481018390526001600160a01b0386166024820152604401610d0b565b6001600160a01b03851661eeee14612e0b576040517f70a082310000000000000000000000000000000000000000000000000000000081523060048201526000906001600160a01b038716906370a0823190602401602060405180830381865afa158015612c94573d6000803e3d6000fd5b505050506040513d601f19601f82011682018060405250810190612cb89190615adc565b9050612cc5868387614997565b6040517f9e6eec05000000000000000000000000000000000000000000000000000000008152600481018490526001600160a01b0387811660248301526044820187905260006064830181905260c0608484015260c4830181905260e060a484015260e4830152831690639e6eec059061010401600060405180830381600087803b158015612d5357600080fd5b505af1158015612d67573d6000803e3d6000fd5b505050508481612d7791906157a5565b6040517f70a082310000000000000000000000000000000000000000000000000000000081523060048201526001600160a01b038816906370a0823190602401602060405180830381865afa158015612dd4573d6000803e3d6000fd5b505050506040513d601f19601f82011682018060405250810190612df89190615adc565b14612e0557612e05615a7a565b50612eb4565b6040517f9e6eec05000000000000000000000000000000000000000000000000000000008152600481018390526001600160a01b0386811660248301526044820186905260006064830181905260c0608484015260c4830181905260e060a484015260e4830152821690639e6eec05908690610104016000604051808303818588803b158015612e9a57600080fd5b505af1158015612eae573d6000803e3d6000fd5b50505050505b5050505050565b600061eeed196001600160a01b03841601612ee157506001600160a01b038116316109c2565b6040517f70a082310000000000000000000000000000000000000000000000000000000081526001600160a01b0383811660048301528416906370a0823190602401602060405180830381865afa158015612f40573d6000803e3d6000fd5b505050506040513d601f19601f82011682018060405250810190612f649190615adc565b9392505050565b6001600160a01b0385166000908152600260209081526040808320600886901c8452909152902054600160ff84161b1615612fe4576040517fa4e6bcec0000000000000000000000000000000000000000000000000000000081526001600160a01b038616600482015260248101839052604401610d0b565b6001600160a01b0385166000908152600260209081526040808320600886901c845290915290208054600160ff85161b1790556001600160a01b038516600090815260036020526040902060010154611bca908786868686614617565b60608101516001600160a01b0316613090576040517f04fdbe060000000000000000000000000000000000000000000000000000000081526001600160a01b0383166004820152602401610d0b565b600061309a611a26565b905060038160038111156130b0576130b0615732565b14806130cd575060028160038111156130cb576130cb615732565b145b15613104576040517fb10f8cca00000000000000000000000000000000000000000000000000000000815260040160405180910390fd5b6001600160a01b038316600090815260046020526040812060018101805490839055815491929091839082906131439067ffffffffffffffff16615bd6565b91906101000a81548167ffffffffffffffff021916908367ffffffffffffffff16021790559050600061317884600201613261565b60228501546023860181905590915060006131946001836157a5565b9050886001600160a01b0316837f47c5615513b0f669da2dd7e3362a34610ca2695d0a0e2da2160cee952eab203c83876131cc612575565b6040805193845267ffffffffffffffff90921660208401526001600160a01b03169082015260600160405180910390a3600060405180606001604052808a606001516001600160a01b0316815260200187815260200160405180604001604052808867ffffffffffffffff1681526020018781525081525090506132548b838c898d86614a55565b5050505050505050505050565b602081015460009080820361329857507f27ae5ba08d7291c96c8cbddcc148bf48a6d68c7974b94356f53754ef6171d75792915050565b60008360018316156132ba578054600052600060205260406000209350613b6d565b60028316156132ff5760018101546000527fad3228b676f7d3cd4284a5443f17f1962b36e491b30a40b2405849e597ba5fb56020526040600020935060019150613b6d565b60048316156133445760028101546000527fb4c11951957c6f8f642c4af61cd6b24640fec6dc7fc607ee8206a99e92410d306020526040600020935060029150613b6d565b60088316156133895760038101546000527f21ddb9a356815c3fac1026b6dec5df3124afbadb485c9ba5a3e3398a04b7ba856020526040600020935060039150613b6d565b60108316156133ce5760048101546000527fe58769b32a1beaf1ea27375a44095a0d1fb664ce2dd358e7fcbfb78c26a193446020526040600020935060049150613b6d565b60208316156134135760058101546000527f0eb01ebfc9ed27500cd4dfc979272d1f0913cc9f66540d7e8005811109e1cf2d6020526040600020935060059150613b6d565b60408316156134585760068101546000527f887c22bd8750d34016ac3c66b5ff102dacdd73f6b014e710b51e8022af9a19686020526040600020935060069150613b6d565b608083161561349d5760078101546000527fffd70157e48063fc33c97a050f7f640233bf646cc98d9524c6b92bcf3ab56f836020526040600020935060079150613b6d565b6101008316156134e35760088101546000527f9867cc5f7f196b93bae1e27e6320742445d290f2263827498b54fec539f756af6020526040600020935060089150613b6d565b6102008316156135295760098101546000527fcefad4e508c098b9a7e1d8feb19955fb02ba9675585078710969d3440f5054e06020526040600020935060099150613b6d565b61040083161561356f57600a8101546000527ff9dc3e7fe016e050eff260334f18a5d4fe391d82092319f5964f2e2eb7c1c3a560205260406000209350600a9150613b6d565b6108008316156135b557600b8101546000527ff8b13a49e282f609c317a833fb8d976d11517c571d1221a265d25af778ecf89260205260406000209350600b9150613b6d565b6110008316156135fb57600c8101546000527f3490c6ceeb450aecdc82e28293031d10c7d73bf85e57bf041a97360aa2c5d99c60205260406000209350600c9150613b6d565b61200083161561364157600d8101546000527fc1df82d9c4b87413eae2ef048f94b4d3554cea73d92b0f7af96e0271c691e2bb60205260406000209350600d9150613b6d565b61400083161561368757600e8101546000527f5c67add7c6caf302256adedf7ab114da0acfe870d449a3a489f781d659e8becc60205260406000209350600e9150613b6d565b6180008316156136cd57600f8101546000527fda7bce9f4e8618b6bd2f4132ce798cdc7a60e7e1460a7299e3c6342a579626d260205260406000209350600f9150613b6d565b620100008316156137145760108101546000527f2733e50f526ec2fa19a22b31e8ed50f23cd1fdf94c9154ed3a7609a2f1ff981f6020526040600020935060109150613b6d565b6202000083161561375b5760118101546000527fe1d3b5c807b281e4683cc6d6315cf95b9ade8641defcb32372f1c126e398ef7a6020526040600020935060119150613b6d565b620400008316156137a25760128101546000527f5a2dce0a8a7f68bb74560f8f71837c2c2ebbcbf7fffb42ae1896f13f7c7479a06020526040600020935060129150613b6d565b620800008316156137e95760138101546000527fb46a28b6f55540f89444f63de0378e3d121be09e06cc9ded1c20e65876d36aa06020526040600020935060139150613b6d565b621000008316156138305760148101546000527fc65e9645644786b620e2dd2ad648ddfcbf4a7e5b1a3a4ecfe7f64667a3f0b7e26020526040600020935060149150613b6d565b622000008316156138775760158101546000527ff4418588ed35a2458cffeb39b93d26f18d2ab13bdce6aee58e7b99359ec2dfd96020526040600020935060159150613b6d565b624000008316156138be5760168101546000527f5a9c16dc00d6ef18b7933a6f8dc65ccb55667138776f7dea101070dc8796e3776020526040600020935060169150613b6d565b628000008316156139055760178101546000527f4df84f40ae0c8229d0d6069e5c8f39a7c299677a09d367fc7b05e3bc380ee6526020526040600020935060179150613b6d565b630100000083161561394d5760188101546000527fcdc72595f74c7b1043d0e1ffbab734648c838dfb0527d971b602bc216c9619ef6020526040600020935060189150613b6d565b63020000008316156139955760198101546000527f0abf5ac974a1ed57f4050aa510dd9c74f508277b39d7973bb2dfccc5eeb0618d6020526040600020935060199150613b6d565b63040000008316156139dd57601a8101546000527fb8cd74046ff337f0a7bf2c8e03e10f642c1886798d71806ab1e888d9e5ee87d060205260406000209350601a9150613b6d565b6308000000831615613a2557601b8101546000527f838c5655cb21c6cb83313b5a631175dff4963772cce9108188b34ac87c81c41e60205260406000209350601b9150613b6d565b6310000000831615613a6d57601c8101546000527f662ee4dd2dd7b2bc707961b1e646c4047669dcb6584f0d8d770daf5d7e7deb2e60205260406000209350601c9150613b6d565b6320000000831615613ab557601d8101546000527f388ab20e2573d171a88108e79d820e98f26c0b84aa8b2f4aa4968dbb818ea32260205260406000209350601d9150613b6d565b6340000000831615613afd57601e8101546000527f93237c50ba75ee485f4c22adf2f741400bdf8d6a9cc7df7ecae576221665d73560205260406000209350601e9150613b6d565b6380000000831615613b4557601f8101546000527f8448818bb4ae4562849e949e17ac16e0be16688e156b5cf15e098c627c0056a960205260406000209350601f9150613b6d565b7f27ae5ba08d7291c96c8cbddcc148bf48a6d68c7974b94356f53754ef6171d7579350602091505b601e821161460f576001821015613bcb57600283168015613b9957600182015460005284602052613bc2565b846000527fad3228b676f7d3cd4284a5443f17f1962b36e491b30a40b2405849e597ba5fb56020525b50604060002093505b6002821015613c2157600483168015613bef57600282015460005284602052613c18565b846000527fb4c11951957c6f8f642c4af61cd6b24640fec6dc7fc607ee8206a99e92410d306020525b50604060002093505b6003821015613c7757600883168015613c4557600382015460005284602052613c6e565b846000527f21ddb9a356815c3fac1026b6dec5df3124afbadb485c9ba5a3e3398a04b7ba856020525b50604060002093505b6004821015613ccd57601083168015613c9b57600482015460005284602052613cc4565b846000527fe58769b32a1beaf1ea27375a44095a0d1fb664ce2dd358e7fcbfb78c26a193446020525b50604060002093505b6005821015613d2357602083168015613cf157600582015460005284602052613d1a565b846000527f0eb01ebfc9ed27500cd4dfc979272d1f0913cc9f66540d7e8005811109e1cf2d6020525b50604060002093505b6006821015613d7957604083168015613d4757600682015460005284602052613d70565b846000527f887c22bd8750d34016ac3c66b5ff102dacdd73f6b014e710b51e8022af9a19686020525b50604060002093505b6007821015613dcf57608083168015613d9d57600782015460005284602052613dc6565b846000527fffd70157e48063fc33c97a050f7f640233bf646cc98d9524c6b92bcf3ab56f836020525b50604060002093505b6008821015613e265761010083168015613df457600882015460005284602052613e1d565b846000527f9867cc5f7f196b93bae1e27e6320742445d290f2263827498b54fec539f756af6020525b50604060002093505b6009821015613e7d5761020083168015613e4b57600982015460005284602052613e74565b846000527fcefad4e508c098b9a7e1d8feb19955fb02ba9675585078710969d3440f5054e06020525b50604060002093505b600a821015613ed45761040083168015613ea257600a82015460005284602052613ecb565b846000527ff9dc3e7fe016e050eff260334f18a5d4fe391d82092319f5964f2e2eb7c1c3a56020525b50604060002093505b600b821015613f2b5761080083168015613ef957600b82015460005284602052613f22565b846000527ff8b13a49e282f609c317a833fb8d976d11517c571d1221a265d25af778ecf8926020525b50604060002093505b600c821015613f825761100083168015613f5057600c82015460005284602052613f79565b846000527f3490c6ceeb450aecdc82e28293031d10c7d73bf85e57bf041a97360aa2c5d99c6020525b50604060002093505b600d821015613fd95761200083168015613fa757600d82015460005284602052613fd0565b846000527fc1df82d9c4b87413eae2ef048f94b4d3554cea73d92b0f7af96e0271c691e2bb6020525b50604060002093505b600e8210156140305761400083168015613ffe57600e82015460005284602052614027565b846000527f5c67add7c6caf302256adedf7ab114da0acfe870d449a3a489f781d659e8becc6020525b50604060002093505b600f821015614087576180008316801561405557600f8201546000528460205261407e565b846000527fda7bce9f4e8618b6bd2f4132ce798cdc7a60e7e1460a7299e3c6342a579626d26020525b50604060002093505b60108210156140df5762010000831680156140ad576010820154600052846020526140d6565b846000527f2733e50f526ec2fa19a22b31e8ed50f23cd1fdf94c9154ed3a7609a2f1ff981f6020525b50604060002093505b60118210156141375762020000831680156141055760118201546000528460205261412e565b846000527fe1d3b5c807b281e4683cc6d6315cf95b9ade8641defcb32372f1c126e398ef7a6020525b50604060002093505b601282101561418f57620400008316801561415d57601282015460005284602052614186565b846000527f5a2dce0a8a7f68bb74560f8f71837c2c2ebbcbf7fffb42ae1896f13f7c7479a06020525b50604060002093505b60138210156141e75762080000831680156141b5576013820154600052846020526141de565b846000527fb46a28b6f55540f89444f63de0378e3d121be09e06cc9ded1c20e65876d36aa06020525b50604060002093505b601482101561423f57621000008316801561420d57601482015460005284602052614236565b846000527fc65e9645644786b620e2dd2ad648ddfcbf4a7e5b1a3a4ecfe7f64667a3f0b7e26020525b50604060002093505b60158210156142975762200000831680156142655760158201546000528460205261428e565b846000527ff4418588ed35a2458cffeb39b93d26f18d2ab13bdce6aee58e7b99359ec2dfd96020525b50604060002093505b60168210156142ef5762400000831680156142bd576016820154600052846020526142e6565b846000527f5a9c16dc00d6ef18b7933a6f8dc65ccb55667138776f7dea101070dc8796e3776020525b50604060002093505b60178210156143475762800000831680156143155760178201546000528460205261433e565b846000527f4df84f40ae0c8229d0d6069e5c8f39a7c299677a09d367fc7b05e3bc380ee6526020525b50604060002093505b60188210156143a05763010000008316801561436e57601882015460005284602052614397565b846000527fcdc72595f74c7b1043d0e1ffbab734648c838dfb0527d971b602bc216c9619ef6020525b50604060002093505b60198210156143f9576302000000831680156143c7576019820154600052846020526143f0565b846000527f0abf5ac974a1ed57f4050aa510dd9c74f508277b39d7973bb2dfccc5eeb0618d6020525b50604060002093505b601a8210156144525763040000008316801561442057601a82015460005284602052614449565b846000527fb8cd74046ff337f0a7bf2c8e03e10f642c1886798d71806ab1e888d9e5ee87d06020525b50604060002093505b601b8210156144ab5763080000008316801561447957601b820154600052846020526144a2565b846000527f838c5655cb21c6cb83313b5a631175dff4963772cce9108188b34ac87c81c41e6020525b50604060002093505b601c821015614504576310000000831680156144d257601c820154600052846020526144fb565b846000527f662ee4dd2dd7b2bc707961b1e646c4047669dcb6584f0d8d770daf5d7e7deb2e6020525b50604060002093505b601d82101561455d5763200000008316801561452b57601d82015460005284602052614554565b846000527f388ab20e2573d171a88108e79d820e98f26c0b84aa8b2f4aa4968dbb818ea3226020525b50604060002093505b601e8210156145b65763400000008316801561458457601e820154600052846020526145ad565b846000527f93237c50ba75ee485f4c22adf2f741400bdf8d6a9cc7df7ecae576221665d7356020525b50604060002093505b601f82101561460f576380000000831680156145dd57601f82015460005284602052614606565b846000527f8448818bb4ae4562849e949e17ac16e0be16688e156b5cf15e098c627c0056a96020525b50604060002093505b505050919050565b6040805160208082018890528183018790526001600160a01b038616606080840191909152835180840390910181526080830180855281519183019190912061048090930190935260009261468592918590828261040080828437600092019190915250879150614fb99050565b9050868114610dc1576040517ee587d20000000000000000000000000000000000000000000000000000000081526004810182905260248101889052604401610d0b565b62030d406146dd6040830160208401615af5565b63ffffffff16108015614707575061eeee6146fb6020830183615564565b6001600160a01b031614155b15610a7c5761471c6040820160208301615af5565b6040517f555d0f1000000000000000000000000000000000000000000000000000000000815263ffffffff909116600482015262030d406024820152604401610d0b565b6000366014336001600160a01b037f0000000000000000000000008a5ba591ed2bed5691a378c65611ed492500f8871614801561479d5750808210155b156147cd576000366147af83856157a5565b6147ba928290615bfd565b6147c391615c27565b60601c9250505090565b339250505090565b600080602060008451602086016000885af1806147f8576040513d6000823e3d81fd5b50506000513d9150811561481057806001141561481d565b6001600160a01b0384163b155b15610b87576040517f5274afe70000000000000000000000000000000000000000000000000000000081526001600160a01b0385166004820152602401610d0b565b6148676153c0565b6000836020018051614878906157ce565b908190529050600161488c60206002615d53565b61489691906157a5565b8111156148cf576040517f8eab04bb00000000000000000000000000000000000000000000000000000000815260040160405180910390fd5b60005b6020811015614964578160011660010361490b578451849082602081106148fb576148fb6157b8565b6020020152508391506109c29050565b8451816020811061491e5761491e6157b8565b60200201518460405160200161493e929190918252602082015260400190565b60408051601f1981840301815291905280516020909101209350600191821c91016148d2565b506040517f8eab04bb00000000000000000000000000000000000000000000000000000000815260040160405180910390fd5b604080516001600160a01b038416602482015260448082018490528251808303909101815260649091019091526020810180517bffffffffffffffffffffffffffffffffffffffffffffffffffffffff167f095ea7b300000000000000000000000000000000000000000000000000000000179052614a168482615307565b610b87576040516001600160a01b03848116602483015260006044830152614a4b91869182169063095ea7b3906064016125b9565b610b8784826147d5565b85600003614a8f576040517f3cb7b09b00000000000000000000000000000000000000000000000000000000815260040160405180910390fd5b620493e060608415614c48576040840151614ab09063ffffffff1683615827565b915061eeed196001600160a01b03871601614ba35760007f0000000000000000000000000bf3de8c5d3e8a2b34d2beeb17abfcebaf363a596001600160a01b031663e861e9076040518163ffffffff1660e01b8152600401602060405180830381865afa158015614b25573d6000803e3d6000fd5b505050506040513d601f19601f82011682018060405250810190614b49919061580a565b9050806001600160a01b031663d0e30db0876040518263ffffffff1660e01b81526004016000604051808303818588803b158015614b8657600080fd5b505af1158015614b9a573d6000803e3d6000fd5b50939950505050505b60408051600180825281830190925290816020015b6040805180820190915260008082526020820152815260200190600190039081614bb85790505090506040518060400160405280876001600160a01b031681526020018681525081600081518110614c1257614c126157b8565b6020026020010181905250614c48867f0000000000000000000000000bf3de8c5d3e8a2b34d2beeb17abfcebaf363a5987614997565b60006040518060a00160405280614c5c3090565b604080516001600160a01b03909216602083015201604051602081830303815290604052815260200185604051602001614c969190615a90565b604051602081830303815290604052815260200183815260200160006001600160a01b03168152602001614d3d60405180602001604052808781525060408051915160248084019190915281518084039091018152604490920190526020810180517bffffffffffffffffffffffffffffffffffffffffffffffffffffffff167f97a657c90000000000000000000000000000000000000000000000000000000017905290565b90526040517f20487ded0000000000000000000000000000000000000000000000000000000081529091506000906001600160a01b037f0000000000000000000000000bf3de8c5d3e8a2b34d2beeb17abfcebaf363a5916906320487ded90614dcc907f0000000000000000000000000000000000000000000000008f90b8876dee6538908690600401615d5f565b602060405180830381865afa158015614de9573d6000803e3d6000fd5b505050506040513d601f19601f82011682018060405250810190614e0d9190615adc565b905089811115614e53576040517f0ee99a47000000000000000000000000000000000000000000000000000000008152600481018b905260248101829052604401610d0b565b6040517f96f4e9f90000000000000000000000000000000000000000000000000000000081526001600160a01b037f0000000000000000000000000bf3de8c5d3e8a2b34d2beeb17abfcebaf363a5916906396f4e9f9908390614edc907f0000000000000000000000000000000000000000000000008f90b8876dee6538908790600401615d5f565b60206040518083038185885af1158015614efa573d6000803e3d6000fd5b50505050506040513d601f19601f82011682018060405250810190614f1f9190615adc565b506000614f2a612575565b6001600160a01b0316614f3d838d6157a5565b604051600081818185875af1925050503d8060008114614f79576040519150601f19603f3d011682016040523d82523d6000602084013e614f7e565b606091505b5050905080613254576040517f97484b1000000000000000000000000000000000000000000000000000000000815260040160405180910390fd5b6020600582811b8216948552835194820394909452604060008181206002851615871b808503919091528386015190528181206004851615871b808503919091528286015190528181206008851615871b80850391909152606086015190528181206010851615871b8085039190915260808087015190915282822084861615881b8086039190915260a0870151905282822083861615881b8086039190915260c0870151905282822090851615871b8085039190915260e0860151905281812061010080861615881b80860392909252860151905281812061020080861615881b80860392909252610120870151909152828220610400861615881b808603919091526101408701519052828220610800861615881b808603919091526101608701519052828220611000861615881b808603919091526101808701519052828220612000861615881b808603919091526101a08701519052828220614000861615881b808603919091526101c08701519052828220618000861615881b808603919091526101e0870151905282822062010000861615881b8086039190915290860151905281812062020000851615871b80850391909152610220860151905281812062040000851615871b80850391909152610240860151905281812062080000851615871b80850391909152610260860151905281812062100000851615871b80850391909152610280860151905281812062200000851615871b808503919091526102a0860151905281812062400000851615871b808503919091526102c0860151905281812062800000851615871b808503919091526102e086015190528181206301000000851615871b8085039190915261030086015190528181206302000000851615871b8085039190915261032086015190528181206304000000851615871b8085039190915261034086015190528181206308000000851615871b8085039190915261036086015190528181206310000000851615871b8085039190915261038086015190528181206320000000851615871b808503919091526103a086015190528181206340000000851615871b808503919091526103c0860151905281812063800000009094161590951b91829003929092526103e090920151909152902090565b6000806000806020600086516020880160008a5af192503d9150600051905082801561534c5750811561533d578060011461534c565b6000866001600160a01b03163b115b9695505050505050565b60408051608081018252600080825260208201529081016153756153c0565b8152602001600081525090565b82602081019282156153b0579160200282015b828111156153b0578251825591602001919060010190615395565b506153bc9291506153d3565b5090565b60405180604001604052806153756153e8565b5b808211156153bc57600081556001016153d4565b6040518061040001604052806020906020820280368337509192915050565b60006020828403121561541957600080fd5b81357fffffffff0000000000000000000000000000000000000000000000000000000081168114612f6457600080fd5b60006104a0828403121561545c57600080fd5b50919050565b6000806020838503121561547557600080fd5b823567ffffffffffffffff8082111561548d57600080fd5b818501915085601f8301126154a157600080fd5b8135818111156154b057600080fd5b8660208260071b85010111156154c557600080fd5b60209290920196919550909350505050565b60006080828403121561545c57600080fd5b6000608082840312156154fb57600080fd5b612f6483836154d7565b6001600160a01b0381168114610a7c57600080fd5b6000806000806080858703121561553057600080fd5b84359350602085013561554281615505565b925060408501359150606085013561555981615505565b939692955090935050565b60006020828403121561557657600080fd5b8135612f6481615505565b60006020828403121561559357600080fd5b813564ffffffffff81168114612f6457600080fd5b815167ffffffffffffffff16815260208083015190820152604081016109c2565b600080602083850312156155dc57600080fd5b823567ffffffffffffffff808211156155f457600080fd5b818501915085601f83011261560857600080fd5b81358181111561561757600080fd5b8660208260051b85010111156154c557600080fd5b815167ffffffffffffffff1681526020808301518183015260408084015180516104808501939260009086015b84821015615677578251815291840191600191909101908401615659565b5050500151610440830152606092909201516104609091015290565b6000602082840312156156a557600080fd5b813567ffffffffffffffff8111156156bc57600080fd5b820160a08185031215612f6457600080fd5b600080602083850312156156e157600080fd5b823567ffffffffffffffff808211156156f957600080fd5b818501915085601f83011261570d57600080fd5b81358181111561571c57600080fd5b8660206104a0830285010111156154c557600080fd5b634e487b7160e01b600052602160045260246000fd5b602081016004831061575c5761575c615732565b91905290565b602081016002831061575c5761575c615732565b60006020828403121561578857600080fd5b5035919050565b634e487b7160e01b600052601160045260246000fd5b818103818111156109c2576109c261578f565b634e487b7160e01b600052603260045260246000fd5b600060001982036157e1576157e161578f565b5060010190565b60008261580557634e487b7160e01b600052601260045260246000fd5b500490565b60006020828403121561581c57600080fd5b8151612f6481615505565b808201808211156109c2576109c261578f565b803567ffffffffffffffff8116811461585257600080fd5b919050565b60006020828403121561586957600080fd5b612f648261583a565b6040808252810183905260008460608301825b868110156158b557823561589881615505565b6001600160a01b0316825260209283019290910190600101615885565b5080925050506001600160a01b0383166020830152949350505050565b6000808335601e198436030181126158e957600080fd5b83018035915067ffffffffffffffff82111561590457600080fd5b60200191503681900382131561591957600080fd5b9250929050565b6040805190810167ffffffffffffffff8111828210171561595157634e487b7160e01b600052604160045260246000fd5b60405290565b6000818303608081121561596a57600080fd5b6040516060810181811067ffffffffffffffff8211171561599b57634e487b7160e01b600052604160045260246000fd5b60405283356159a981615505565b8152602084810135908201526040603f19830112156159c757600080fd5b6159cf615920565b91506159dd6040850161583a565b8252606093909301356020820152604083015250919050565b6000808335601e19843603018112615a0d57600080fd5b83018035915067ffffffffffffffff821115615a2857600080fd5b6020019150600681901b360382131561591957600080fd5b600060408284031215615a5257600080fd5b615a5a615920565b8235615a6581615505565b81526020928301359281019290925250919050565b634e487b7160e01b600052600160045260246000fd5b60006080820190506001600160a01b038351168252602083015160208301526040830151615ad56040840182805167ffffffffffffffff168252602090810151910152565b5092915050565b600060208284031215615aee57600080fd5b5051919050565b600060208284031215615b0757600080fd5b813563ffffffff81168114612f6457600080fd5b6000815180845260005b81811015615b4157602081850181015186830182015201615b25565b506000602082860101526020601f19601f83011685010191505092915050565b60006001600160a01b03808a168352886020840152876040840152808716606084015285608084015280851660a08401525060e060c0830152615ba760e0830184615b1b565b9998505050505050505050565b600060208284031215615bc657600080fd5b81518015158114612f6457600080fd5b600067ffffffffffffffff808316818103615bf357615bf361578f565b6001019392505050565b60008085851115615c0d57600080fd5b83861115615c1a57600080fd5b5050820193919092039150565b7fffffffffffffffffffffffffffffffffffffffff0000000000000000000000008135818116916014851015615c675780818660140360031b1b83161692505b505092915050565b600181815b80851115615caa578160001904821115615c9057615c9061578f565b80851615615c9d57918102915b93841c9390800290615c74565b509250929050565b600082615cc1575060016109c2565b81615cce575060006109c2565b8160018114615ce45760028114615cee57615d0a565b60019150506109c2565b60ff841115615cff57615cff61578f565b50506001821b6109c2565b5060208310610133831016604e8410600b8410161715615d2d575081810a6109c2565b615d378383615c6f565b8060001904821115615d4b57615d4b61578f565b029392505050565b6000612f648383615cb2565b6000604067ffffffffffffffff851683526020604081850152845160a06040860152615d8e60e0860182615b1b565b905081860151603f1980878403016060880152615dab8383615b1b565b6040890151888203830160808a01528051808352908601945060009350908501905b80841015615dff57845180516001600160a01b0316835286015186830152938501936001939093019290860190615dcd565b5060608901516001600160a01b031660a08901526080890151888203830160c08a01529550615e2e8187615b1b565b9a995050505050505050505056fea26469706673582212205027d1744726643c6e1e47c30b41e987dcd25bf2500196678d43df7600fd4e6764736f6c63430008170033",
	"gitCommit": "c51336d74edd86d463402733d2c082dfa66596ff"
}