{
	"_format": "sphinx-sol-ct-artifact-1",
	"merkleRoot": "0x6e5d77fb4834946f17aad7c3691df1e9dfd571c08c4ea1706a56c15617145b49",
	"contractName": "JBSuckerRegistry",
	"address": "0x616D2E084CAbc02D4A7B6c09dee930f9293e3542",
	"abi": [
		{
			"type": "constructor",
			"inputs": [
				{
					"name": "directory",
					"type": "address",
					"internalType": "contract IJBDirectory"
				},
				{
					"name": "permissions",
					"type": "address",
					"internalType": "contract IJBPermissions"
				},
				{
					"name": "initialOwner",
					"type": "address",
					"internalType": "address"
				}
			],
			"stateMutability": "nonpayable"
		},
		{
			"type": "function",
			"name": "DIRECTORY",
			"inputs": [],
			"outputs": [
				{
					"name": "",
					"type": "address",
					"internalType": "contract IJBDirectory"
				}
			],
			"stateMutability": "view"
		},
		{
			"type": "function",
			"name": "PERMISSIONS",
			"inputs": [],
			"outputs": [
				{
					"name": "",
					"type": "address",
					"internalType": "contract IJBPermissions"
				}
			],
			"stateMutability": "view"
		},
		{
			"type": "function",
			"name": "PROJECTS",
			"inputs": [],
			"outputs": [
				{
					"name": "",
					"type": "address",
					"internalType": "contract IJBProjects"
				}
			],
			"stateMutability": "view"
		},
		{
			"type": "function",
			"name": "allowSuckerDeployer",
			"inputs": [
				{
					"name": "deployer",
					"type": "address",
					"internalType": "address"
				}
			],
			"outputs": [],
			"stateMutability": "nonpayable"
		},
		{
			"type": "function",
			"name": "allowSuckerDeployers",
			"inputs": [
				{
					"name": "deployers",
					"type": "address[]",
					"internalType": "address[]"
				}
			],
			"outputs": [],
			"stateMutability": "nonpayable"
		},
		{
			"type": "function",
			"name": "deploySuckersFor",
			"inputs": [
				{
					"name": "projectId",
					"type": "uint256",
					"internalType": "uint256"
				},
				{
					"name": "salt",
					"type": "bytes32",
					"internalType": "bytes32"
				},
				{
					"name": "configurations",
					"type": "tuple[]",
					"internalType": "struct JBSuckerDeployerConfig[]",
					"components": [
						{
							"name": "deployer",
							"type": "address",
							"internalType": "contract IJBSuckerDeployer"
						},
						{
							"name": "mappings",
							"type": "tuple[]",
							"internalType": "struct JBTokenMapping[]",
							"components": [
								{
									"name": "localToken",
									"type": "address",
									"internalType": "address"
								},
								{
									"name": "minGas",
									"type": "uint32",
									"internalType": "uint32"
								},
								{
									"name": "remoteToken",
									"type": "address",
									"internalType": "address"
								},
								{
									"name": "minBridgeAmount",
									"type": "uint256",
									"internalType": "uint256"
								}
							]
						}
					]
				}
			],
			"outputs": [
				{
					"name": "suckers",
					"type": "address[]",
					"internalType": "address[]"
				}
			],
			"stateMutability": "nonpayable"
		},
		{
			"type": "function",
			"name": "getSuckerPairs",
			"inputs": [
				{
					"name": "projectId",
					"type": "uint256",
					"internalType": "uint256"
				}
			],
			"outputs": [
				{
					"name": "pairs",
					"type": "tuple[]",
					"internalType": "struct JBSuckersPair[]",
					"components": [
						{
							"name": "local",
							"type": "address",
							"internalType": "address"
						},
						{
							"name": "remote",
							"type": "address",
							"internalType": "address"
						},
						{
							"name": "remoteChainId",
							"type": "uint256",
							"internalType": "uint256"
						}
					]
				}
			],
			"stateMutability": "view"
		},
		{
			"type": "function",
			"name": "isSuckerOf",
			"inputs": [
				{
					"name": "projectId",
					"type": "uint256",
					"internalType": "uint256"
				},
				{
					"name": "addr",
					"type": "address",
					"internalType": "address"
				}
			],
			"outputs": [
				{
					"name": "",
					"type": "bool",
					"internalType": "bool"
				}
			],
			"stateMutability": "view"
		},
		{
			"type": "function",
			"name": "owner",
			"inputs": [],
			"outputs": [
				{
					"name": "",
					"type": "address",
					"internalType": "address"
				}
			],
			"stateMutability": "view"
		},
		{
			"type": "function",
			"name": "renounceOwnership",
			"inputs": [],
			"outputs": [],
			"stateMutability": "nonpayable"
		},
		{
			"type": "function",
			"name": "suckerDeployerIsAllowed",
			"inputs": [
				{
					"name": "deployer",
					"type": "address",
					"internalType": "address"
				}
			],
			"outputs": [
				{
					"name": "",
					"type": "bool",
					"internalType": "bool"
				}
			],
			"stateMutability": "view"
		},
		{
			"type": "function",
			"name": "suckersOf",
			"inputs": [
				{
					"name": "projectId",
					"type": "uint256",
					"internalType": "uint256"
				}
			],
			"outputs": [
				{
					"name": "",
					"type": "address[]",
					"internalType": "address[]"
				}
			],
			"stateMutability": "view"
		},
		{
			"type": "function",
			"name": "transferOwnership",
			"inputs": [
				{
					"name": "newOwner",
					"type": "address",
					"internalType": "address"
				}
			],
			"outputs": [],
			"stateMutability": "nonpayable"
		},
		{
			"type": "event",
			"name": "OwnershipTransferred",
			"inputs": [
				{
					"name": "previousOwner",
					"type": "address",
					"indexed": true,
					"internalType": "address"
				},
				{
					"name": "newOwner",
					"type": "address",
					"indexed": true,
					"internalType": "address"
				}
			],
			"anonymous": false
		},
		{
			"type": "event",
			"name": "SuckerDeployedFor",
			"inputs": [
				{
					"name": "projectId",
					"type": "uint256",
					"indexed": false,
					"internalType": "uint256"
				},
				{
					"name": "sucker",
					"type": "address",
					"indexed": false,
					"internalType": "address"
				},
				{
					"name": "configuration",
					"type": "tuple",
					"indexed": false,
					"internalType": "struct JBSuckerDeployerConfig",
					"components": [
						{
							"name": "deployer",
							"type": "address",
							"internalType": "contract IJBSuckerDeployer"
						},
						{
							"name": "mappings",
							"type": "tuple[]",
							"internalType": "struct JBTokenMapping[]",
							"components": [
								{
									"name": "localToken",
									"type": "address",
									"internalType": "address"
								},
								{
									"name": "minGas",
									"type": "uint32",
									"internalType": "uint32"
								},
								{
									"name": "remoteToken",
									"type": "address",
									"internalType": "address"
								},
								{
									"name": "minBridgeAmount",
									"type": "uint256",
									"internalType": "uint256"
								}
							]
						}
					]
				},
				{
					"name": "caller",
					"type": "address",
					"indexed": false,
					"internalType": "address"
				}
			],
			"anonymous": false
		},
		{
			"type": "event",
			"name": "SuckerDeployerAllowed",
			"inputs": [
				{
					"name": "deployer",
					"type": "address",
					"indexed": false,
					"internalType": "address"
				},
				{
					"name": "caller",
					"type": "address",
					"indexed": false,
					"internalType": "address"
				}
			],
			"anonymous": false
		},
		{
			"type": "error",
			"name": "EnumerableMapNonexistentKey",
			"inputs": [
				{
					"name": "key",
					"type": "bytes32",
					"internalType": "bytes32"
				}
			]
		},
		{
			"type": "error",
			"name": "JBPermissioned_Unauthorized",
			"inputs": [
				{
					"name": "account",
					"type": "address",
					"internalType": "address"
				},
				{
					"name": "sender",
					"type": "address",
					"internalType": "address"
				},
				{
					"name": "projectId",
					"type": "uint256",
					"internalType": "uint256"
				},
				{
					"name": "permissionId",
					"type": "uint256",
					"internalType": "uint256"
				}
			]
		},
		{
			"type": "error",
			"name": "JBSuckerRegistry_InvalidDeployer",
			"inputs": [
				{
					"name": "deployer",
					"type": "address",
					"internalType": "contract IJBSuckerDeployer"
				}
			]
		},
		{
			"type": "error",
			"name": "JBSuckerRegistry_RulesetDoesNotAllowAddingSucker",
			"inputs": []
		},
		{
			"type": "error",
			"name": "OwnableInvalidOwner",
			"inputs": [
				{
					"name": "owner",
					"type": "address",
					"internalType": "address"
				}
			]
		},
		{
			"type": "error",
			"name": "OwnableUnauthorizedAccount",
			"inputs": [
				{
					"name": "account",
					"type": "address",
					"internalType": "address"
				}
			]
		}
	],
	"solcInputHash": "9b6dcb5b0ed176744688fe6ac33711bb",
	"args": [
		"0xE0B2860344bA476e12eD1d559656dA9D04F1AD22",
		"0x4CDb4200e4E65a277676Cd5E8d3c7C7C4dA7fBe5",
		"0x0FF306a08cf4E16570ab7a6bD95Ba52d2fe64D45"
	],
	"bytecode": "0x60e06040523480156200001157600080fd5b5060405162001c1b38038062001c1b833981016040819052620000349162000167565b81816001600160a01b0381166200006557604051631e4fbdf760e01b81526000600482015260240160405180910390fd5b6200007081620000fe565b506001600160a01b03908116608052831660a08190526040805163293c499960e01b8152905163293c4999916004808201926020929091908290030181865afa158015620000c2573d6000803e3d6000fd5b505050506040513d601f19601f82011682018060405250810190620000e89190620001bb565b6001600160a01b031660c05250620001e2915050565b600080546001600160a01b038381166001600160a01b0319831681178455604051919092169283917f8be0079c531659141344cd1fd0a4f28419497f9722a3daafe3b4186f6b6457e09190a35050565b6001600160a01b03811681146200016457600080fd5b50565b6000806000606084860312156200017d57600080fd5b83516200018a816200014e565b60208501519093506200019d816200014e565b6040850151909250620001b0816200014e565b809150509250925092565b600060208284031215620001ce57600080fd5b8151620001db816200014e565b9392505050565b60805160a05160c0516119f5620002266000396000818160e901526102c80152600081816101ad0152610c2f0152600081816102480152610b2b01526119f56000f3fe608060405234801561001057600080fd5b50600436106100df5760003560e01c806388bc2ef31161008c578063c70fb6f611610066578063c70fb6f614610210578063f2fde38b14610230578063f434c91414610243578063f73ac20f1461026a57600080fd5b806388bc2ef3146101a85780638da5cb5b146101cf578063a1031a4f146101ed57600080fd5b8063669745a5116100bd578063669745a514610168578063715018a61461017d57806383db9d011461018557600080fd5b8063293c4999146100e45780632f3f50e0146101355780633d12cb8714610155575b600080fd5b61010b7f000000000000000000000000000000000000000000000000000000000000000081565b60405173ffffffffffffffffffffffffffffffffffffffff90911681526020015b60405180910390f35b610148610143366004611126565b61027d565b60405161012c9190611179565b6101486101633660046111d3565b61065c565b61017b6101763660046111ec565b61067c565b005b61017b610753565b610198610193366004611250565b610767565b604051901515815260200161012c565b61010b7f000000000000000000000000000000000000000000000000000000000000000081565b60005473ffffffffffffffffffffffffffffffffffffffff1661010b565b6101986101fb366004611280565b60016020526000908152604090205460ff1681565b61022361021e3660046111d3565b61078a565b60405161012c919061129d565b61017b61023e366004611280565b6109a9565b61010b7f000000000000000000000000000000000000000000000000000000000000000081565b61017b610278366004611280565b610a0d565b6040517f6352211e0000000000000000000000000000000000000000000000000000000081526004810185905260609061033b9073ffffffffffffffffffffffffffffffffffffffff7f00000000000000000000000000000000000000000000000000000000000000001690636352211e90602401602060405180830381865afa15801561030f573d6000803e3d6000fd5b505050506040513d601f19601f82011682018060405250810190610333919061131f565b86601d610aa0565b61034485610bfd565b8167ffffffffffffffff81111561035d5761035d61133c565b604051908082528060200260200182016040528015610386578160200160208202803683370190505b5060408051336020820152908101869052909150606001604080517fffffffffffffffffffffffffffffffffffffffffffffffffffffffffffffffe0818403018152919052805160209091012093508160005b818110156106525760008585838181106103f5576103f561136b565b9050602002810190610407919061139a565b610410906114cd565b805173ffffffffffffffffffffffffffffffffffffffff1660009081526001602052604090205490915060ff166104935780516040517f2223f10100000000000000000000000000000000000000000000000000000000815273ffffffffffffffffffffffffffffffffffffffff90911660048201526024015b60405180910390fd5b80516040517f12130366000000000000000000000000000000000000000000000000000000008152600481018a90526024810189905260009173ffffffffffffffffffffffffffffffffffffffff16906312130366906044016020604051808303816000875af115801561050b573d6000803e3d6000fd5b505050506040513d601f19601f8201168201806040525081019061052f919061131f565b9050808584815181106105445761054461136b565b73ffffffffffffffffffffffffffffffffffffffff90921660209283029190910182015260008a815260029091526040902061058290826001610e46565b5060208201516040517f2241dc5200000000000000000000000000000000000000000000000000000000815273ffffffffffffffffffffffffffffffffffffffff831691632241dc52916105d99190600401611663565b600060405180830381600087803b1580156105f357600080fd5b505af1158015610607573d6000803e3d6000fd5b505050507fc251bde8ae398be4a0f10fc061bb0cf6e5decd8860b54b7607d06bb6c142d018898284336040516106409493929190611676565b60405180910390a150506001016103d9565b5050949350505050565b600081815260026020526040902060609061067690610e71565b92915050565b610684610e85565b8060005b8181101561074d5760008484838181106106a4576106a461136b565b90506020020160208101906106b99190611280565b73ffffffffffffffffffffffffffffffffffffffff811660008181526001602081815260409283902080547fffffffffffffffffffffffffffffffffffffffffffffffffffffffffffffff0016909217909155815192835233908301529192507f47459529aa21b5f8615a27cd523fad12250733748e422c3eada707a36d3c49bc910160405180910390a150600101610688565b50505050565b61075b610e85565b6107656000610ed8565b565b60008281526002602052604081206001906107829084610f4d565b149392505050565b6000818152600260205260408120606091906107a590610e71565b80519091508067ffffffffffffffff8111156107c3576107c361133c565b60405190808252806020026020018201604052801561082c57816020015b60408051606081018252600080825260208083018290529282015282527fffffffffffffffffffffffffffffffffffffffffffffffffffffffffffffffff9092019101816107e15790505b50925060005b818110156109a157600083828151811061084e5761084e61136b565b6020026020010151905060405180606001604052808273ffffffffffffffffffffffffffffffffffffffff1681526020018273ffffffffffffffffffffffffffffffffffffffff1663ad42938b6040518163ffffffff1660e01b8152600401602060405180830381865afa1580156108ca573d6000803e3d6000fd5b505050506040513d601f19601f820116820180604052508101906108ee919061131f565b73ffffffffffffffffffffffffffffffffffffffff1681526020018273ffffffffffffffffffffffffffffffffffffffff1663cdfceeba6040518163ffffffff1660e01b8152600401602060405180830381865afa158015610954573d6000803e3d6000fd5b505050506040513d601f19601f8201168201806040525081019061097891906116d6565b81525085838151811061098d5761098d61136b565b602090810291909101015250600101610832565b505050919050565b6109b1610e85565b73ffffffffffffffffffffffffffffffffffffffff8116610a01576040517f1e4fbdf70000000000000000000000000000000000000000000000000000000081526000600482015260240161048a565b610a0a81610ed8565b50565b610a15610e85565b73ffffffffffffffffffffffffffffffffffffffff811660008181526001602081815260409283902080547fffffffffffffffffffffffffffffffffffffffffffffffffffffffffffffff0016909217909155815192835233908301527f47459529aa21b5f8615a27cd523fad12250733748e422c3eada707a36d3c49bc910160405180910390a150565b3373ffffffffffffffffffffffffffffffffffffffff84168114801590610b9857506040517f348b684e00000000000000000000000000000000000000000000000000000000815273ffffffffffffffffffffffffffffffffffffffff82811660048301528581166024830152604482018590526064820184905260016084830181905260a48301527f0000000000000000000000000000000000000000000000000000000000000000169063348b684e9060c401602060405180830381865afa158015610b72573d6000803e3d6000fd5b505050506040513d601f19601f82011682018060405250810190610b9691906116ff565b155b1561074d576040517f264deeaa00000000000000000000000000000000000000000000000000000000815273ffffffffffffffffffffffffffffffffffffffff808616600483015282166024820152604481018490526064810183905260840161048a565b6040517f5dd8f6aa000000000000000000000000000000000000000000000000000000008152600481018290526000907f000000000000000000000000000000000000000000000000000000000000000073ffffffffffffffffffffffffffffffffffffffff1690635dd8f6aa90602401602060405180830381865afa158015610c8b573d6000803e3d6000fd5b505050506040513d601f19601f82011682018060405250810190610caf919061131f565b90506000808273ffffffffffffffffffffffffffffffffffffffff166341929626856040518263ffffffff1660e01b8152600401610cef91815260200190565b6103a060405180830381865afa158015610d0d573d6000803e3d6000fd5b505050506040513d601f19601f82011682018060405250810190610d3191906118e8565b915091506000826020015165ffffffffffff16600003610df7576040517fc02c63ad0000000000000000000000000000000000000000000000000000000081526004810186905273ffffffffffffffffffffffffffffffffffffffff85169063c02c63ad906024016103a060405180830381865afa158015610db7573d6000803e3d6000fd5b505050506040513d601f19601f82011682018060405250810190610ddb91906118e8565b508093505042836020015165ffffffffffff1603610df7575060015b80158015610e085750816101800151155b15610e3f576040517f828b19bd00000000000000000000000000000000000000000000000000000000815260040160405180910390fd5b5050505050565b6000610e698473ffffffffffffffffffffffffffffffffffffffff851684610f6f565b949350505050565b60606000610e7e83610f8c565b9392505050565b60005473ffffffffffffffffffffffffffffffffffffffff163314610765576040517f118cdaa700000000000000000000000000000000000000000000000000000000815233600482015260240161048a565b6000805473ffffffffffffffffffffffffffffffffffffffff8381167fffffffffffffffffffffffff0000000000000000000000000000000000000000831681178455604051919092169283917f8be0079c531659141344cd1fd0a4f28419497f9722a3daafe3b4186f6b6457e09190a35050565b6000610e7e8373ffffffffffffffffffffffffffffffffffffffff8416610f97565b60008281526002840160205260408120829055610e698484610ff7565b606061067682611003565b600081815260028301602052604081205480158015610fbd5750610fbb8484611010565b155b15610e7e576040517f02b566860000000000000000000000000000000000000000000000000000000081526004810184905260240161048a565b6000610e7e838361102f565b60606000610e7e8361107e565b6000610e7e838360008181526001830160205260408120541515610e7e565b600081815260018301602052604081205461107657508154600181810184556000848152602080822090930184905584548482528286019093526040902091909155610676565b506000610676565b6060816000018054806020026020016040519081016040528092919081815260200182805480156110ce57602002820191906000526020600020905b8154815260200190600101908083116110ba575b50505050509050919050565b60008083601f8401126110ec57600080fd5b50813567ffffffffffffffff81111561110457600080fd5b6020830191508360208260051b850101111561111f57600080fd5b9250929050565b6000806000806060858703121561113c57600080fd5b8435935060208501359250604085013567ffffffffffffffff81111561116157600080fd5b61116d878288016110da565b95989497509550505050565b6020808252825182820181905260009190848201906040850190845b818110156111c757835173ffffffffffffffffffffffffffffffffffffffff1683529284019291840191600101611195565b50909695505050505050565b6000602082840312156111e557600080fd5b5035919050565b600080602083850312156111ff57600080fd5b823567ffffffffffffffff81111561121657600080fd5b611222858286016110da565b90969095509350505050565b73ffffffffffffffffffffffffffffffffffffffff81168114610a0a57600080fd5b6000806040838503121561126357600080fd5b8235915060208301356112758161122e565b809150509250929050565b60006020828403121561129257600080fd5b8135610e7e8161122e565b602080825282518282018190526000919060409081850190868401855b82811015611302578151805173ffffffffffffffffffffffffffffffffffffffff908116865287820151168786015285015185850152606090930192908501906001016112ba565b5091979650505050505050565b805161131a8161122e565b919050565b60006020828403121561133157600080fd5b8151610e7e8161122e565b7f4e487b7100000000000000000000000000000000000000000000000000000000600052604160045260246000fd5b7f4e487b7100000000000000000000000000000000000000000000000000000000600052603260045260246000fd5b600082357fffffffffffffffffffffffffffffffffffffffffffffffffffffffffffffffc18336030181126113ce57600080fd5b9190910192915050565b6040805190810167ffffffffffffffff811182821017156113fb576113fb61133c565b60405290565b6040516080810167ffffffffffffffff811182821017156113fb576113fb61133c565b604051610280810167ffffffffffffffff811182821017156113fb576113fb61133c565b604051610120810167ffffffffffffffff811182821017156113fb576113fb61133c565b604051601f82017fffffffffffffffffffffffffffffffffffffffffffffffffffffffffffffffe016810167ffffffffffffffff811182821017156114b3576114b361133c565b604052919050565b63ffffffff81168114610a0a57600080fd5b600060408083360312156114e057600080fd5b6114e86113d8565b83356114f38161122e565b815260208481013567ffffffffffffffff8082111561151157600080fd5b9086019036601f83011261152457600080fd5b8135818111156115365761153661133c565b611544848260051b0161146c565b818152848101925060079190911b83018401903682111561156457600080fd5b928401925b818410156115d457608084360312156115825760008081fd5b61158a611401565b84356115958161122e565b8152848601356115a4816114bb565b81870152848801356115b58161122e565b8189015260608581013590820152835260809093019291840191611569565b93850193909352509195945050505050565b60008151808452602080850194506020840160005b83811015611658578151805173ffffffffffffffffffffffffffffffffffffffff90811689528482015163ffffffff16858a01526040808301519091169089015260609081015190880152608090960195908201906001016115fb565b509495945050505050565b602081526000610e7e60208301846115e6565b848152600073ffffffffffffffffffffffffffffffffffffffff8086166020840152608060408401528085511660808401526020850151604060a08501526116c160c08501826115e6565b92505080841660608401525095945050505050565b6000602082840312156116e857600080fd5b5051919050565b8051801515811461131a57600080fd5b60006020828403121561171157600080fd5b610e7e826116ef565b805165ffffffffffff8116811461131a57600080fd5b805161131a816114bb565b80516dffffffffffffffffffffffffffff8116811461131a57600080fd5b805161ffff8116811461131a57600080fd5b6000610280828403121561177e57600080fd5b611786611424565b905061179182611759565b815261179f60208301611759565b60208201526117b060408301611730565b60408201526117c1606083016116ef565b60608201526117d2608083016116ef565b60808201526117e360a083016116ef565b60a08201526117f460c083016116ef565b60c082015261180560e083016116ef565b60e08201526101006118188184016116ef565b9082015261012061182a8382016116ef565b9082015261014061183c8382016116ef565b9082015261016061184e8382016116ef565b908201526101806118608382016116ef565b908201526101a06118728382016116ef565b908201526101c06118848382016116ef565b908201526101e06118968382016116ef565b908201526102006118a88382016116ef565b908201526102206118ba8382016116ef565b908201526102406118cc83820161130f565b908201526102606118de838201611759565b9082015292915050565b6000808284036103a08112156118fd57600080fd5b6101208082121561190d57600080fd5b611915611448565b91506119208561171a565b825261192e6020860161171a565b602083015261193f6040860161171a565b60408301526119506060860161171a565b606083015261196160808601611730565b608083015261197260a0860161173b565b60a083015261198360c08601611730565b60c083015261199460e0860161130f565b60e08301526101008086015181840152508193506119b48682870161176b565b92505050925092905056fea26469706673582212207340c30fd9159dad78881ce5528a1d02014d9759eed8dbe86e17911be454ee8d64736f6c63430008170033",
	"deployedBytecode": "0x608060405234801561001057600080fd5b50600436106100df5760003560e01c806388bc2ef31161008c578063c70fb6f611610066578063c70fb6f614610210578063f2fde38b14610230578063f434c91414610243578063f73ac20f1461026a57600080fd5b806388bc2ef3146101a85780638da5cb5b146101cf578063a1031a4f146101ed57600080fd5b8063669745a5116100bd578063669745a514610168578063715018a61461017d57806383db9d011461018557600080fd5b8063293c4999146100e45780632f3f50e0146101355780633d12cb8714610155575b600080fd5b61010b7f000000000000000000000000ecb62030e30bb027f672f24692111492ba2bbc8481565b60405173ffffffffffffffffffffffffffffffffffffffff90911681526020015b60405180910390f35b610148610143366004611126565b61027d565b60405161012c9190611179565b6101486101633660046111d3565b61065c565b61017b6101763660046111ec565b61067c565b005b61017b610753565b610198610193366004611250565b610767565b604051901515815260200161012c565b61010b7f000000000000000000000000e0b2860344ba476e12ed1d559656da9d04f1ad2281565b60005473ffffffffffffffffffffffffffffffffffffffff1661010b565b6101986101fb366004611280565b60016020526000908152604090205460ff1681565b61022361021e3660046111d3565b61078a565b60405161012c919061129d565b61017b61023e366004611280565b6109a9565b61010b7f0000000000000000000000004cdb4200e4e65a277676cd5e8d3c7c7c4da7fbe581565b61017b610278366004611280565b610a0d565b6040517f6352211e0000000000000000000000000000000000000000000000000000000081526004810185905260609061033b9073ffffffffffffffffffffffffffffffffffffffff7f000000000000000000000000ecb62030e30bb027f672f24692111492ba2bbc841690636352211e90602401602060405180830381865afa15801561030f573d6000803e3d6000fd5b505050506040513d601f19601f82011682018060405250810190610333919061131f565b86601d610aa0565b61034485610bfd565b8167ffffffffffffffff81111561035d5761035d61133c565b604051908082528060200260200182016040528015610386578160200160208202803683370190505b5060408051336020820152908101869052909150606001604080517fffffffffffffffffffffffffffffffffffffffffffffffffffffffffffffffe0818403018152919052805160209091012093508160005b818110156106525760008585838181106103f5576103f561136b565b9050602002810190610407919061139a565b610410906114cd565b805173ffffffffffffffffffffffffffffffffffffffff1660009081526001602052604090205490915060ff166104935780516040517f2223f10100000000000000000000000000000000000000000000000000000000815273ffffffffffffffffffffffffffffffffffffffff90911660048201526024015b60405180910390fd5b80516040517f12130366000000000000000000000000000000000000000000000000000000008152600481018a90526024810189905260009173ffffffffffffffffffffffffffffffffffffffff16906312130366906044016020604051808303816000875af115801561050b573d6000803e3d6000fd5b505050506040513d601f19601f8201168201806040525081019061052f919061131f565b9050808584815181106105445761054461136b565b73ffffffffffffffffffffffffffffffffffffffff90921660209283029190910182015260008a815260029091526040902061058290826001610e46565b5060208201516040517f2241dc5200000000000000000000000000000000000000000000000000000000815273ffffffffffffffffffffffffffffffffffffffff831691632241dc52916105d99190600401611663565b600060405180830381600087803b1580156105f357600080fd5b505af1158015610607573d6000803e3d6000fd5b505050507fc251bde8ae398be4a0f10fc061bb0cf6e5decd8860b54b7607d06bb6c142d018898284336040516106409493929190611676565b60405180910390a150506001016103d9565b5050949350505050565b600081815260026020526040902060609061067690610e71565b92915050565b610684610e85565b8060005b8181101561074d5760008484838181106106a4576106a461136b565b90506020020160208101906106b99190611280565b73ffffffffffffffffffffffffffffffffffffffff811660008181526001602081815260409283902080547fffffffffffffffffffffffffffffffffffffffffffffffffffffffffffffff0016909217909155815192835233908301529192507f47459529aa21b5f8615a27cd523fad12250733748e422c3eada707a36d3c49bc910160405180910390a150600101610688565b50505050565b61075b610e85565b6107656000610ed8565b565b60008281526002602052604081206001906107829084610f4d565b149392505050565b6000818152600260205260408120606091906107a590610e71565b80519091508067ffffffffffffffff8111156107c3576107c361133c565b60405190808252806020026020018201604052801561082c57816020015b60408051606081018252600080825260208083018290529282015282527fffffffffffffffffffffffffffffffffffffffffffffffffffffffffffffffff9092019101816107e15790505b50925060005b818110156109a157600083828151811061084e5761084e61136b565b6020026020010151905060405180606001604052808273ffffffffffffffffffffffffffffffffffffffff1681526020018273ffffffffffffffffffffffffffffffffffffffff1663ad42938b6040518163ffffffff1660e01b8152600401602060405180830381865afa1580156108ca573d6000803e3d6000fd5b505050506040513d601f19601f820116820180604052508101906108ee919061131f565b73ffffffffffffffffffffffffffffffffffffffff1681526020018273ffffffffffffffffffffffffffffffffffffffff1663cdfceeba6040518163ffffffff1660e01b8152600401602060405180830381865afa158015610954573d6000803e3d6000fd5b505050506040513d601f19601f8201168201806040525081019061097891906116d6565b81525085838151811061098d5761098d61136b565b602090810291909101015250600101610832565b505050919050565b6109b1610e85565b73ffffffffffffffffffffffffffffffffffffffff8116610a01576040517f1e4fbdf70000000000000000000000000000000000000000000000000000000081526000600482015260240161048a565b610a0a81610ed8565b50565b610a15610e85565b73ffffffffffffffffffffffffffffffffffffffff811660008181526001602081815260409283902080547fffffffffffffffffffffffffffffffffffffffffffffffffffffffffffffff0016909217909155815192835233908301527f47459529aa21b5f8615a27cd523fad12250733748e422c3eada707a36d3c49bc910160405180910390a150565b3373ffffffffffffffffffffffffffffffffffffffff84168114801590610b9857506040517f348b684e00000000000000000000000000000000000000000000000000000000815273ffffffffffffffffffffffffffffffffffffffff82811660048301528581166024830152604482018590526064820184905260016084830181905260a48301527f0000000000000000000000004cdb4200e4e65a277676cd5e8d3c7c7c4da7fbe5169063348b684e9060c401602060405180830381865afa158015610b72573d6000803e3d6000fd5b505050506040513d601f19601f82011682018060405250810190610b9691906116ff565b155b1561074d576040517f264deeaa00000000000000000000000000000000000000000000000000000000815273ffffffffffffffffffffffffffffffffffffffff808616600483015282166024820152604481018490526064810183905260840161048a565b6040517f5dd8f6aa000000000000000000000000000000000000000000000000000000008152600481018290526000907f000000000000000000000000e0b2860344ba476e12ed1d559656da9d04f1ad2273ffffffffffffffffffffffffffffffffffffffff1690635dd8f6aa90602401602060405180830381865afa158015610c8b573d6000803e3d6000fd5b505050506040513d601f19601f82011682018060405250810190610caf919061131f565b90506000808273ffffffffffffffffffffffffffffffffffffffff166341929626856040518263ffffffff1660e01b8152600401610cef91815260200190565b6103a060405180830381865afa158015610d0d573d6000803e3d6000fd5b505050506040513d601f19601f82011682018060405250810190610d3191906118e8565b915091506000826020015165ffffffffffff16600003610df7576040517fc02c63ad0000000000000000000000000000000000000000000000000000000081526004810186905273ffffffffffffffffffffffffffffffffffffffff85169063c02c63ad906024016103a060405180830381865afa158015610db7573d6000803e3d6000fd5b505050506040513d601f19601f82011682018060405250810190610ddb91906118e8565b508093505042836020015165ffffffffffff1603610df7575060015b80158015610e085750816101800151155b15610e3f576040517f828b19bd00000000000000000000000000000000000000000000000000000000815260040160405180910390fd5b5050505050565b6000610e698473ffffffffffffffffffffffffffffffffffffffff851684610f6f565b949350505050565b60606000610e7e83610f8c565b9392505050565b60005473ffffffffffffffffffffffffffffffffffffffff163314610765576040517f118cdaa700000000000000000000000000000000000000000000000000000000815233600482015260240161048a565b6000805473ffffffffffffffffffffffffffffffffffffffff8381167fffffffffffffffffffffffff0000000000000000000000000000000000000000831681178455604051919092169283917f8be0079c531659141344cd1fd0a4f28419497f9722a3daafe3b4186f6b6457e09190a35050565b6000610e7e8373ffffffffffffffffffffffffffffffffffffffff8416610f97565b60008281526002840160205260408120829055610e698484610ff7565b606061067682611003565b600081815260028301602052604081205480158015610fbd5750610fbb8484611010565b155b15610e7e576040517f02b566860000000000000000000000000000000000000000000000000000000081526004810184905260240161048a565b6000610e7e838361102f565b60606000610e7e8361107e565b6000610e7e838360008181526001830160205260408120541515610e7e565b600081815260018301602052604081205461107657508154600181810184556000848152602080822090930184905584548482528286019093526040902091909155610676565b506000610676565b6060816000018054806020026020016040519081016040528092919081815260200182805480156110ce57602002820191906000526020600020905b8154815260200190600101908083116110ba575b50505050509050919050565b60008083601f8401126110ec57600080fd5b50813567ffffffffffffffff81111561110457600080fd5b6020830191508360208260051b850101111561111f57600080fd5b9250929050565b6000806000806060858703121561113c57600080fd5b8435935060208501359250604085013567ffffffffffffffff81111561116157600080fd5b61116d878288016110da565b95989497509550505050565b6020808252825182820181905260009190848201906040850190845b818110156111c757835173ffffffffffffffffffffffffffffffffffffffff1683529284019291840191600101611195565b50909695505050505050565b6000602082840312156111e557600080fd5b5035919050565b600080602083850312156111ff57600080fd5b823567ffffffffffffffff81111561121657600080fd5b611222858286016110da565b90969095509350505050565b73ffffffffffffffffffffffffffffffffffffffff81168114610a0a57600080fd5b6000806040838503121561126357600080fd5b8235915060208301356112758161122e565b809150509250929050565b60006020828403121561129257600080fd5b8135610e7e8161122e565b602080825282518282018190526000919060409081850190868401855b82811015611302578151805173ffffffffffffffffffffffffffffffffffffffff908116865287820151168786015285015185850152606090930192908501906001016112ba565b5091979650505050505050565b805161131a8161122e565b919050565b60006020828403121561133157600080fd5b8151610e7e8161122e565b7f4e487b7100000000000000000000000000000000000000000000000000000000600052604160045260246000fd5b7f4e487b7100000000000000000000000000000000000000000000000000000000600052603260045260246000fd5b600082357fffffffffffffffffffffffffffffffffffffffffffffffffffffffffffffffc18336030181126113ce57600080fd5b9190910192915050565b6040805190810167ffffffffffffffff811182821017156113fb576113fb61133c565b60405290565b6040516080810167ffffffffffffffff811182821017156113fb576113fb61133c565b604051610280810167ffffffffffffffff811182821017156113fb576113fb61133c565b604051610120810167ffffffffffffffff811182821017156113fb576113fb61133c565b604051601f82017fffffffffffffffffffffffffffffffffffffffffffffffffffffffffffffffe016810167ffffffffffffffff811182821017156114b3576114b361133c565b604052919050565b63ffffffff81168114610a0a57600080fd5b600060408083360312156114e057600080fd5b6114e86113d8565b83356114f38161122e565b815260208481013567ffffffffffffffff8082111561151157600080fd5b9086019036601f83011261152457600080fd5b8135818111156115365761153661133c565b611544848260051b0161146c565b818152848101925060079190911b83018401903682111561156457600080fd5b928401925b818410156115d457608084360312156115825760008081fd5b61158a611401565b84356115958161122e565b8152848601356115a4816114bb565b81870152848801356115b58161122e565b8189015260608581013590820152835260809093019291840191611569565b93850193909352509195945050505050565b60008151808452602080850194506020840160005b83811015611658578151805173ffffffffffffffffffffffffffffffffffffffff90811689528482015163ffffffff16858a01526040808301519091169089015260609081015190880152608090960195908201906001016115fb565b509495945050505050565b602081526000610e7e60208301846115e6565b848152600073ffffffffffffffffffffffffffffffffffffffff8086166020840152608060408401528085511660808401526020850151604060a08501526116c160c08501826115e6565b92505080841660608401525095945050505050565b6000602082840312156116e857600080fd5b5051919050565b8051801515811461131a57600080fd5b60006020828403121561171157600080fd5b610e7e826116ef565b805165ffffffffffff8116811461131a57600080fd5b805161131a816114bb565b80516dffffffffffffffffffffffffffff8116811461131a57600080fd5b805161ffff8116811461131a57600080fd5b6000610280828403121561177e57600080fd5b611786611424565b905061179182611759565b815261179f60208301611759565b60208201526117b060408301611730565b60408201526117c1606083016116ef565b60608201526117d2608083016116ef565b60808201526117e360a083016116ef565b60a08201526117f460c083016116ef565b60c082015261180560e083016116ef565b60e08201526101006118188184016116ef565b9082015261012061182a8382016116ef565b9082015261014061183c8382016116ef565b9082015261016061184e8382016116ef565b908201526101806118608382016116ef565b908201526101a06118728382016116ef565b908201526101c06118848382016116ef565b908201526101e06118968382016116ef565b908201526102006118a88382016116ef565b908201526102206118ba8382016116ef565b908201526102406118cc83820161130f565b908201526102606118de838201611759565b9082015292915050565b6000808284036103a08112156118fd57600080fd5b6101208082121561190d57600080fd5b611915611448565b91506119208561171a565b825261192e6020860161171a565b602083015261193f6040860161171a565b60408301526119506060860161171a565b606083015261196160808601611730565b608083015261197260a0860161173b565b60a083015261198360c08601611730565b60c083015261199460e0860161130f565b60e08301526101008086015181840152508193506119b48682870161176b565b92505050925092905056fea26469706673582212207340c30fd9159dad78881ce5528a1d02014d9759eed8dbe86e17911be454ee8d64736f6c63430008170033",
	"devdoc": {
		"kind": "dev",
		"methods": {
			"allowSuckerDeployer(address)": {
				"details": "Can only be called by this contract's owner (initially project ID 1, or JuiceboxDAO).",
				"params": {
					"deployer": "The address of the deployer to add."
				}
			},
			"allowSuckerDeployers(address[])": {
				"details": "Can only be called by this contract's owner (initially project ID 1, or JuiceboxDAO).",
				"params": {
					"deployers": "The address of the deployer to add."
				}
			},
			"constructor": {
				"params": {
					"directory": "The juicebox directory.",
					"initialOwner": "The initial owner of this contract.",
					"permissions": "A contract storing permissions."
				}
			},
			"deploySuckersFor(uint256,bytes32,(address,(address,uint32,address,uint256)[])[])": {
				"details": "The caller must be the project's owner or have `JBPermissionIds.DEPLOY_SUCKERS` from the project's owner.",
				"params": {
					"configurations": "The sucker deployer configs to use to deploy the suckers.",
					"projectId": "The ID of the project to deploy suckers for.",
					"salt": "The salt used to deploy the contract. For the suckers to be peers, this must be the same value on each chain where suckers are deployed."
				},
				"returns": {
					"suckers": "The addresses of the deployed suckers."
				}
			},
			"getSuckerPairs(uint256)": {
				"params": {
					"projectId": "The ID of the project to get the suckers of."
				},
				"returns": {
					"pairs": "The pairs of suckers and their metadata."
				}
			},
			"isSuckerOf(uint256,address)": {
				"params": {
					"addr": "The address of the sucker to check.",
					"projectId": "The ID of the project to check for."
				},
				"returns": {
					"_0": "flag A flag indicating if the sucker belongs to the project, and was deployed through this registry."
				}
			},
			"owner()": {
				"details": "Returns the address of the current owner."
			},
			"renounceOwnership()": {
				"details": "Leaves the contract without owner. It will not be possible to call `onlyOwner` functions. Can only be called by the current owner. NOTE: Renouncing ownership will leave the contract without an owner, thereby disabling any functionality that is only available to the owner."
			},
			"suckersOf(uint256)": {
				"params": {
					"projectId": "The ID of the project to get the suckers of."
				},
				"returns": {
					"_0": "suckers The addresses of the suckers."
				}
			},
			"transferOwnership(address)": {
				"details": "Transfers ownership of the contract to a new account (`newOwner`). Can only be called by the current owner."
			}
		},
		"version": 1
	},
	"userdoc": {
		"kind": "user",
		"methods": {
			"DIRECTORY()": {
				"notice": "The juicebox directory."
			},
			"PERMISSIONS()": {
				"notice": "A contract storing permissions."
			},
			"PROJECTS()": {
				"notice": "A contract which mints ERC-721s that represent project ownership and transfers."
			},
			"allowSuckerDeployer(address)": {
				"notice": "Adds a suckers deployer to the allowlist."
			},
			"allowSuckerDeployers(address[])": {
				"notice": "Adds multiple suckers deployer to the allowlist."
			},
			"deploySuckersFor(uint256,bytes32,(address,(address,uint32,address,uint256)[])[])": {
				"notice": "Deploy one or more suckers for the specified project."
			},
			"getSuckerPairs(uint256)": {
				"notice": "Helper function for retrieving the projects suckers and their metadata."
			},
			"isSuckerOf(uint256,address)": {
				"notice": "Returns true if the specified sucker belongs to the specified project, and was deployed through this registry."
			},
			"suckerDeployerIsAllowed(address)": {
				"notice": "Tracks whether the specified sucker deployer is approved by this registry."
			},
			"suckersOf(uint256)": {
				"notice": "Gets all of the specified project's suckers which were deployed through this registry."
			}
		},
		"version": 1
	},
	"gitCommit": "4eddc42ccfc8ea088b46265d2ab7ffbd422a9748",
	"sourceName": "src/JBSuckerRegistry.sol",
	"chainId": "84532",
	"linkReferences": {},
	"deployedLinkReferences": {},
	"history": []
}