{
	"_format": "sphinx-sol-ct-artifact-1",
	"merkleRoot": "0x6cdbb283dddfa646675de2a310bad929f3d4edc1b525356857a4834545b85eeb",
	"contractName": "BPSuckerRegistry",
	"address": "0x3C6b3494C36511F9013dcb48862c16D9d1adfaC9",
	"abi": [
		{
			"type": "constructor",
			"inputs": [
				{
					"name": "projects",
					"type": "address",
					"internalType": "contract IJBProjects"
				},
				{
					"name": "permissions",
					"type": "address",
					"internalType": "contract IJBPermissions"
				},
				{
					"name": "_initialOwner",
					"type": "address",
					"internalType": "address"
				}
			],
			"stateMutability": "nonpayable"
		},
		{
			"type": "function",
			"name": "PERMISSIONS",
			"inputs": [],
			"outputs": [
				{
					"name": "",
					"type": "address",
					"internalType": "contract IJBPermissions"
				}
			],
			"stateMutability": "view"
		},
		{
			"type": "function",
			"name": "PROJECTS",
			"inputs": [],
			"outputs": [
				{
					"name": "",
					"type": "address",
					"internalType": "contract IJBProjects"
				}
			],
			"stateMutability": "view"
		},
		{
			"type": "function",
			"name": "allowSuckerDeployer",
			"inputs": [
				{
					"name": "deployer",
					"type": "address",
					"internalType": "address"
				}
			],
			"outputs": [],
			"stateMutability": "nonpayable"
		},
		{
			"type": "function",
			"name": "allowSuckerDeployers",
			"inputs": [
				{
					"name": "deployers",
					"type": "address[]",
					"internalType": "address[]"
				}
			],
			"outputs": [],
			"stateMutability": "nonpayable"
		},
		{
			"type": "function",
			"name": "deploySuckersFor",
			"inputs": [
				{
					"name": "projectId",
					"type": "uint256",
					"internalType": "uint256"
				},
				{
					"name": "salt",
					"type": "bytes32",
					"internalType": "bytes32"
				},
				{
					"name": "configurations",
					"type": "tuple[]",
					"internalType": "struct BPSuckerDeployerConfig[]",
					"components": [
						{
							"name": "deployer",
							"type": "address",
							"internalType": "contract IBPSuckerDeployer"
						},
						{
							"name": "mappings",
							"type": "tuple[]",
							"internalType": "struct BPTokenMapping[]",
							"components": [
								{
									"name": "localToken",
									"type": "address",
									"internalType": "address"
								},
								{
									"name": "minGas",
									"type": "uint32",
									"internalType": "uint32"
								},
								{
									"name": "remoteToken",
									"type": "address",
									"internalType": "address"
								},
								{
									"name": "minBridgeAmount",
									"type": "uint256",
									"internalType": "uint256"
								}
							]
						}
					]
				}
			],
			"outputs": [
				{
					"name": "suckers",
					"type": "address[]",
					"internalType": "address[]"
				}
			],
			"stateMutability": "nonpayable"
		},
		{
			"type": "function",
			"name": "isSuckerOf",
			"inputs": [
				{
					"name": "projectId",
					"type": "uint256",
					"internalType": "uint256"
				},
				{
					"name": "suckerAddress",
					"type": "address",
					"internalType": "address"
				}
			],
			"outputs": [
				{
					"name": "",
					"type": "bool",
					"internalType": "bool"
				}
			],
			"stateMutability": "view"
		},
		{
			"type": "function",
			"name": "jbOwner",
			"inputs": [],
			"outputs": [
				{
					"name": "owner",
					"type": "address",
					"internalType": "address"
				},
				{
					"name": "projectId",
					"type": "uint88",
					"internalType": "uint88"
				},
				{
					"name": "permissionId",
					"type": "uint8",
					"internalType": "uint8"
				}
			],
			"stateMutability": "view"
		},
		{
			"type": "function",
			"name": "owner",
			"inputs": [],
			"outputs": [
				{
					"name": "",
					"type": "address",
					"internalType": "address"
				}
			],
			"stateMutability": "view"
		},
		{
			"type": "function",
			"name": "renounceOwnership",
			"inputs": [],
			"outputs": [],
			"stateMutability": "nonpayable"
		},
		{
			"type": "function",
			"name": "setPermissionId",
			"inputs": [
				{
					"name": "permissionId",
					"type": "uint8",
					"internalType": "uint8"
				}
			],
			"outputs": [],
			"stateMutability": "nonpayable"
		},
		{
			"type": "function",
			"name": "suckerDeployerIsAllowed",
			"inputs": [
				{
					"name": "deployer",
					"type": "address",
					"internalType": "address"
				}
			],
			"outputs": [
				{
					"name": "",
					"type": "bool",
					"internalType": "bool"
				}
			],
			"stateMutability": "view"
		},
		{
			"type": "function",
			"name": "suckersOf",
			"inputs": [
				{
					"name": "projectId",
					"type": "uint256",
					"internalType": "uint256"
				}
			],
			"outputs": [
				{
					"name": "",
					"type": "address[]",
					"internalType": "address[]"
				}
			],
			"stateMutability": "view"
		},
		{
			"type": "function",
			"name": "transferOwnership",
			"inputs": [
				{
					"name": "newOwner",
					"type": "address",
					"internalType": "address"
				}
			],
			"outputs": [],
			"stateMutability": "nonpayable"
		},
		{
			"type": "function",
			"name": "transferOwnershipToProject",
			"inputs": [
				{
					"name": "projectId",
					"type": "uint256",
					"internalType": "uint256"
				}
			],
			"outputs": [],
			"stateMutability": "nonpayable"
		},
		{
			"type": "event",
			"name": "OwnershipTransferred",
			"inputs": [
				{
					"name": "previousOwner",
					"type": "address",
					"indexed": true,
					"internalType": "address"
				},
				{
					"name": "newOwner",
					"type": "address",
					"indexed": true,
					"internalType": "address"
				}
			],
			"anonymous": false
		},
		{
			"type": "event",
			"name": "PermissionIdChanged",
			"inputs": [
				{
					"name": "newIndex",
					"type": "uint8",
					"indexed": false,
					"internalType": "uint8"
				}
			],
			"anonymous": false
		},
		{
			"type": "event",
			"name": "SuckerDeployerAllowed",
			"inputs": [
				{
					"name": "deployer",
					"type": "address",
					"indexed": false,
					"internalType": "address"
				}
			],
			"anonymous": false
		},
		{
			"type": "event",
			"name": "SuckersDeployedFor",
			"inputs": [
				{
					"name": "projectId",
					"type": "uint256",
					"indexed": false,
					"internalType": "uint256"
				},
				{
					"name": "suckers",
					"type": "address[]",
					"indexed": false,
					"internalType": "address[]"
				}
			],
			"anonymous": false
		},
		{
			"type": "error",
			"name": "EnumerableMapNonexistentKey",
			"inputs": [
				{
					"name": "key",
					"type": "bytes32",
					"internalType": "bytes32"
				}
			]
		},
		{
			"type": "error",
			"name": "INVALID_DEPLOYER",
			"inputs": [
				{
					"name": "deployer",
					"type": "address",
					"internalType": "address"
				}
			]
		},
		{
			"type": "error",
			"name": "INVALID_NEW_OWNER",
			"inputs": []
		},
		{
			"type": "error",
			"name": "UNAUTHORIZED",
			"inputs": []
		}
	],
	"solcInputHash": "647076f1c719fbf4dda0cd87a3eed04c",
	"args": [
		"0xf9dadA4628Eb3992202CF253625d4ECebBC1592f",
		"0x1e2E8562b635fe19978640C784e47865A83d6605",
		"0x6a65B75A3f37C6702A117Fb87B6bCaC62657d216"
	],
	"bytecode": "0x60c06040523480156200001157600080fd5b50604051620017b3380380620017b383398101604081905262000034916200031f565b6001600160a01b03808316608052831660a0528282826000838383836001600160a01b038216620000785760405163ecb9b1c760e01b815260040160405180910390fd5b62000084828262000095565b50505050505050505050506200039a565b6001600160581b03811615801590620000b657506001600160a01b03821615155b15620000d55760405163ecb9b1c760e01b815260040160405180910390fd5b60408051606081018252600080546001600160a01b0381168352600160a01b81046001600160581b031660208401819052600160f81b90910460ff1693830193909352909115620001a45760a05160208301516040516331a9108f60e11b81526001600160581b0390911660048201526001600160a01b0390911690636352211e90602401602060405180830381865afa15801562000178573d6000803e3d6000fd5b505050506040513d601f19601f820116820180604052508101906200019e919062000373565b620001a7565b81515b604080516060810182526001600160a01b0387168082526001600160581b0387166020830181905260009290930182905281547fff000000000000000000000000000000000000000000000000000000000000001617600160a01b909202919091176001600160f81b0316905590506200022381858562000229565b50505050565b303b1562000301576001600160581b03811615620002bf5760a0516040516331a9108f60e11b81526001600160581b03831660048201526001600160a01b0390911690636352211e90602401602060405180830381865afa15801562000293573d6000803e3d6000fd5b505050506040513d601f19601f82011682018060405250810190620002b9919062000373565b620002c1565b815b6001600160a01b0316836001600160a01b03167f8be0079c531659141344cd1fd0a4f28419497f9722a3daafe3b4186f6b6457e060405160405180910390a35b505050565b6001600160a01b03811681146200031c57600080fd5b50565b6000806000606084860312156200033557600080fd5b8351620003428162000306565b6020850151909350620003558162000306565b6040850151909250620003688162000306565b809150509250925092565b6000602082840312156200038657600080fd5b8151620003938162000306565b9392505050565b60805160a0516113c3620003f06000396000818160f4015281816102c9015281816107dc01528181610b7001528181610cb20152610e5001526000818161026f015281816109940152610a3d01526113c36000f3fe608060405234801561001057600080fd5b50600436106100ea5760003560e01c8063a1031a4f1161008c578063c0fb5e8511610066578063c0fb5e8514610244578063f2fde38b14610257578063f434c9141461026a578063f73ac20f1461029157600080fd5b8063a1031a4f146101ae578063a220d696146101d1578063ba23c36e146101e457600080fd5b8063669745a5116100c8578063669745a514610166578063715018a61461017b57806383db9d01146101835780638da5cb5b146101a657600080fd5b8063293c4999146100ef5780632f3f50e0146101335780633d12cb8714610153575b600080fd5b6101167f000000000000000000000000000000000000000000000000000000000000000081565b6040516001600160a01b0390911681526020015b60405180910390f35b610146610141366004611084565b6102a4565b60405161012a919061111c565b61014661016136600461112f565b610639565b610179610174366004611148565b610659565b005b610179610731565b61019661019136600461119f565b610746565b604051901515815260200161012a565b610116610768565b6101966101bc3660046111cf565b60026020526000908152604090205460ff1681565b6101796101df36600461112f565b610855565b600054610214906001600160a01b03811690600160a01b81046001600160581b031690600160f81b900460ff1683565b604080516001600160a01b0390941684526001600160581b03909216602084015260ff169082015260600161012a565b6101796102523660046111ec565b61089c565b6101796102653660046111cf565b6108ad565b6101167f000000000000000000000000000000000000000000000000000000000000000081565b61017961029f3660046111cf565b6108e7565b6040516331a9108f60e11b81526004810185905260609061033c906001600160a01b037f00000000000000000000000000000000000000000000000000000000000000001690636352211e90602401602060405180830381865afa158015610310573d6000803e3d6000fd5b505050506040513d601f19601f82011682018060405250810190610334919061120f565b86601d61094a565b8167ffffffffffffffff8111156103555761035561122c565b60405190808252806020026020018201604052801561037e578160200160208202803683370190505b506040805133602082015290810186905290915060600160405160208183030381529060405280519060200120935060005b828110156105f757600260008585848181106103ce576103ce611242565b90506020028101906103e09190611258565b6103ee9060208101906111cf565b6001600160a01b0316815260208101919091526040016000205460ff1661046b5783838281811061042157610421611242565b90506020028101906104339190611258565b6104419060208101906111cf565b604051630f308fc760e31b81526001600160a01b0390911660048201526024015b60405180910390fd5b600084848381811061047f5761047f611242565b90506020028101906104919190611258565b61049f9060208101906111cf565b60405163090981b360e11b815260048101899052602481018890526001600160a01b0391909116906312130366906044016020604051808303816000875af11580156104ef573d6000803e3d6000fd5b505050506040513d601f19601f82011682018060405250810190610513919061120f565b90508083838151811061052857610528611242565b6001600160a01b03909216602092830291909101820152600088815260019182905260409020610559918390610ace565b50806001600160a01b0316632241dc5286868581811061057b5761057b611242565b905060200281019061058d9190611258565b61059b906020810190611278565b6040518363ffffffff1660e01b81526004016105b89291906112c2565b600060405180830381600087803b1580156105d257600080fd5b505af11580156105e6573d6000803e3d6000fd5b5050600190930192506103b0915050565b507fd982fdd7a5657847f0905ad1aff9ab6105d1ff64590493b3486837504dafe55a8582604051610629929190611352565b60405180910390a1949350505050565b600081815260016020526040902060609061065390610aec565b92915050565b610661610b00565b60005b8181101561072c5760016002600085858581811061068457610684611242565b905060200201602081019061069991906111cf565b6001600160a01b031681526020810191909152604001600020805460ff19169115159190911790557ff6e6facda29906a01d337146a9b928ac09b423901f28e0e001d43550448b370b8383838181106106f4576106f4611242565b905060200201602081019061070991906111cf565b6040516001600160a01b03909116815260200160405180910390a1600101610664565b505050565b610739610b00565b610744600080610c06565b565b600082815260016020819052604082206107609084610d8f565b149392505050565b60408051606081018252600080546001600160a01b0381168352600160a01b81046001600160581b031660208401819052600160f81b90910460ff16938301939093529182036107b85751919050565b60208101516040516331a9108f60e11b81526001600160581b0390911660048201527f00000000000000000000000000000000000000000000000000000000000000006001600160a01b031690636352211e90602401602060405180830381865afa15801561082b573d6000803e3d6000fd5b505050506040513d601f19601f8201168201806040525081019061084f919061120f565b91505090565b61085d610b00565b80158061087057506001600160581b0381115b1561088e5760405163ecb9b1c760e01b815260040160405180910390fd5b610899600082610c06565b50565b6108a4610b00565b61089981610da4565b6108b5610b00565b6001600160a01b0381166108dc5760405163ecb9b1c760e01b815260040160405180910390fd5b610899816000610c06565b6108ef610b00565b6001600160a01b038116600081815260026020908152604091829020805460ff1916600117905590519182527ff6e6facda29906a01d337146a9b928ac09b423901f28e0e001d43550448b370b91015b60405180910390a150565b336001600160a01b0384168114801590610a01575060405163c161c93f60e01b81526001600160a01b038281166004830152858116602483015260448201859052606482018490527f0000000000000000000000000000000000000000000000000000000000000000169063c161c93f90608401602060405180830381865afa1580156109db573d6000803e3d6000fd5b505050506040513d601f19601f820116820180604052508101906109ff919061136b565b155b8015610aaa575060405163c161c93f60e01b81526001600160a01b038281166004830152858116602483015260006044830152606482018490527f0000000000000000000000000000000000000000000000000000000000000000169063c161c93f90608401602060405180830381865afa158015610a84573d6000803e3d6000fd5b505050506040513d601f19601f82011682018060405250810190610aa8919061136b565b155b15610ac85760405163075fd2b160e01b815260040160405180910390fd5b50505050565b6000610ae4846001600160a01b03851684610df4565b949350505050565b60606000610af983610e11565b9392505050565b604080516060810182526000546001600160a01b0381168252600160a01b81046001600160581b031660208301819052600160f81b90910460ff1692820192909252906108999015610be85760208201516040516331a9108f60e11b81526001600160581b0390911660048201527f00000000000000000000000000000000000000000000000000000000000000006001600160a01b031690636352211e90602401602060405180830381865afa158015610bbf573d6000803e3d6000fd5b505050506040513d601f19601f82011682018060405250810190610be3919061120f565b610beb565b81515b82602001516001600160581b0316836040015160ff1661094a565b6001600160581b03811615801590610c2657506001600160a01b03821615155b15610c445760405163ecb9b1c760e01b815260040160405180910390fd5b60408051606081018252600080546001600160a01b0381168352600160a01b81046001600160581b031660208401819052600160f81b90910460ff1693830193909352909115610d2a5760208201516040516331a9108f60e11b81526001600160581b0390911660048201527f00000000000000000000000000000000000000000000000000000000000000006001600160a01b031690636352211e90602401602060405180830381865afa158015610d01573d6000803e3d6000fd5b505050506040513d601f19601f82011682018060405250810190610d25919061120f565b610d2d565b81515b604080516060810182526001600160a01b0387168082526001600160581b0387166020830181905260009290930182905281546001600160f81b03191617600160a01b909202919091176001600160f81b031690559050610ac8818585610e1c565b6000610af9836001600160a01b038416610f0e565b600080546001600160f81b0316600160f81b60ff8416908102919091179091556040519081527f6f4725627084d54c46c628b050805457a1cd38c5cd20c1f00132960f8b546fed9060200161093f565b60008281526002840160205260408120829055610ae48484610f55565b606061065382610f61565b303b1561072c576001600160581b03811615610ec8576040516331a9108f60e11b81526001600160581b03821660048201527f00000000000000000000000000000000000000000000000000000000000000006001600160a01b031690636352211e90602401602060405180830381865afa158015610e9f573d6000803e3d6000fd5b505050506040513d601f19601f82011682018060405250810190610ec3919061120f565b610eca565b815b6001600160a01b0316836001600160a01b03167f8be0079c531659141344cd1fd0a4f28419497f9722a3daafe3b4186f6b6457e060405160405180910390a3505050565b600081815260028301602052604081205480158015610f345750610f328484610f6e565b155b15610af95760405163015ab34360e11b815260048101849052602401610462565b6000610af98383610f8d565b60606000610af983610fdc565b6000610af9838360008181526001830160205260408120541515610af9565b6000818152600183016020526040812054610fd457508154600181810184556000848152602080822090930184905584548482528286019093526040902091909155610653565b506000610653565b60608160000180548060200260200160405190810160405280929190818152602001828054801561102c57602002820191906000526020600020905b815481526020019060010190808311611018575b50505050509050919050565b60008083601f84011261104a57600080fd5b50813567ffffffffffffffff81111561106257600080fd5b6020830191508360208260051b850101111561107d57600080fd5b9250929050565b6000806000806060858703121561109a57600080fd5b8435935060208501359250604085013567ffffffffffffffff8111156110bf57600080fd5b6110cb87828801611038565b95989497509550505050565b60008151808452602080850194506020840160005b838110156111115781516001600160a01b0316875295820195908201906001016110ec565b509495945050505050565b602081526000610af960208301846110d7565b60006020828403121561114157600080fd5b5035919050565b6000806020838503121561115b57600080fd5b823567ffffffffffffffff81111561117257600080fd5b61117e85828601611038565b90969095509350505050565b6001600160a01b038116811461089957600080fd5b600080604083850312156111b257600080fd5b8235915060208301356111c48161118a565b809150509250929050565b6000602082840312156111e157600080fd5b8135610af98161118a565b6000602082840312156111fe57600080fd5b813560ff81168114610af957600080fd5b60006020828403121561122157600080fd5b8151610af98161118a565b634e487b7160e01b600052604160045260246000fd5b634e487b7160e01b600052603260045260246000fd5b60008235603e1983360301811261126e57600080fd5b9190910192915050565b6000808335601e1984360301811261128f57600080fd5b83018035915067ffffffffffffffff8211156112aa57600080fd5b6020019150600781901b360382131561107d57600080fd5b602080825281810183905260009060408084018684805b888110156113445782356112ec8161118a565b6001600160a01b039081168552838701359063ffffffff8216808314611310578485fd5b868901528487013591506113238261118a565b168486015260608381013590850152608093840193909201916001016112d9565b509198975050505050505050565b828152604060208201526000610ae460408301846110d7565b60006020828403121561137d57600080fd5b81518015158114610af957600080fdfea2646970667358221220464319be1fddb73265b0ba6d4a795112a90732a1d5b3a78038fe5e96812d2a4764736f6c63430008170033",
	"deployedBytecode": "0x608060405234801561001057600080fd5b50600436106100ea5760003560e01c8063a1031a4f1161008c578063c0fb5e8511610066578063c0fb5e8514610244578063f2fde38b14610257578063f434c9141461026a578063f73ac20f1461029157600080fd5b8063a1031a4f146101ae578063a220d696146101d1578063ba23c36e146101e457600080fd5b8063669745a5116100c8578063669745a514610166578063715018a61461017b57806383db9d01146101835780638da5cb5b146101a657600080fd5b8063293c4999146100ef5780632f3f50e0146101335780633d12cb8714610153575b600080fd5b6101167f000000000000000000000000f9dada4628eb3992202cf253625d4ecebbc1592f81565b6040516001600160a01b0390911681526020015b60405180910390f35b610146610141366004611084565b6102a4565b60405161012a919061111c565b61014661016136600461112f565b610639565b610179610174366004611148565b610659565b005b610179610731565b61019661019136600461119f565b610746565b604051901515815260200161012a565b610116610768565b6101966101bc3660046111cf565b60026020526000908152604090205460ff1681565b6101796101df36600461112f565b610855565b600054610214906001600160a01b03811690600160a01b81046001600160581b031690600160f81b900460ff1683565b604080516001600160a01b0390941684526001600160581b03909216602084015260ff169082015260600161012a565b6101796102523660046111ec565b61089c565b6101796102653660046111cf565b6108ad565b6101167f0000000000000000000000001e2e8562b635fe19978640c784e47865a83d660581565b61017961029f3660046111cf565b6108e7565b6040516331a9108f60e11b81526004810185905260609061033c906001600160a01b037f000000000000000000000000f9dada4628eb3992202cf253625d4ecebbc1592f1690636352211e90602401602060405180830381865afa158015610310573d6000803e3d6000fd5b505050506040513d601f19601f82011682018060405250810190610334919061120f565b86601d61094a565b8167ffffffffffffffff8111156103555761035561122c565b60405190808252806020026020018201604052801561037e578160200160208202803683370190505b506040805133602082015290810186905290915060600160405160208183030381529060405280519060200120935060005b828110156105f757600260008585848181106103ce576103ce611242565b90506020028101906103e09190611258565b6103ee9060208101906111cf565b6001600160a01b0316815260208101919091526040016000205460ff1661046b5783838281811061042157610421611242565b90506020028101906104339190611258565b6104419060208101906111cf565b604051630f308fc760e31b81526001600160a01b0390911660048201526024015b60405180910390fd5b600084848381811061047f5761047f611242565b90506020028101906104919190611258565b61049f9060208101906111cf565b60405163090981b360e11b815260048101899052602481018890526001600160a01b0391909116906312130366906044016020604051808303816000875af11580156104ef573d6000803e3d6000fd5b505050506040513d601f19601f82011682018060405250810190610513919061120f565b90508083838151811061052857610528611242565b6001600160a01b03909216602092830291909101820152600088815260019182905260409020610559918390610ace565b50806001600160a01b0316632241dc5286868581811061057b5761057b611242565b905060200281019061058d9190611258565b61059b906020810190611278565b6040518363ffffffff1660e01b81526004016105b89291906112c2565b600060405180830381600087803b1580156105d257600080fd5b505af11580156105e6573d6000803e3d6000fd5b5050600190930192506103b0915050565b507fd982fdd7a5657847f0905ad1aff9ab6105d1ff64590493b3486837504dafe55a8582604051610629929190611352565b60405180910390a1949350505050565b600081815260016020526040902060609061065390610aec565b92915050565b610661610b00565b60005b8181101561072c5760016002600085858581811061068457610684611242565b905060200201602081019061069991906111cf565b6001600160a01b031681526020810191909152604001600020805460ff19169115159190911790557ff6e6facda29906a01d337146a9b928ac09b423901f28e0e001d43550448b370b8383838181106106f4576106f4611242565b905060200201602081019061070991906111cf565b6040516001600160a01b03909116815260200160405180910390a1600101610664565b505050565b610739610b00565b610744600080610c06565b565b600082815260016020819052604082206107609084610d8f565b149392505050565b60408051606081018252600080546001600160a01b0381168352600160a01b81046001600160581b031660208401819052600160f81b90910460ff16938301939093529182036107b85751919050565b60208101516040516331a9108f60e11b81526001600160581b0390911660048201527f000000000000000000000000f9dada4628eb3992202cf253625d4ecebbc1592f6001600160a01b031690636352211e90602401602060405180830381865afa15801561082b573d6000803e3d6000fd5b505050506040513d601f19601f8201168201806040525081019061084f919061120f565b91505090565b61085d610b00565b80158061087057506001600160581b0381115b1561088e5760405163ecb9b1c760e01b815260040160405180910390fd5b610899600082610c06565b50565b6108a4610b00565b61089981610da4565b6108b5610b00565b6001600160a01b0381166108dc5760405163ecb9b1c760e01b815260040160405180910390fd5b610899816000610c06565b6108ef610b00565b6001600160a01b038116600081815260026020908152604091829020805460ff1916600117905590519182527ff6e6facda29906a01d337146a9b928ac09b423901f28e0e001d43550448b370b91015b60405180910390a150565b336001600160a01b0384168114801590610a01575060405163c161c93f60e01b81526001600160a01b038281166004830152858116602483015260448201859052606482018490527f0000000000000000000000001e2e8562b635fe19978640c784e47865a83d6605169063c161c93f90608401602060405180830381865afa1580156109db573d6000803e3d6000fd5b505050506040513d601f19601f820116820180604052508101906109ff919061136b565b155b8015610aaa575060405163c161c93f60e01b81526001600160a01b038281166004830152858116602483015260006044830152606482018490527f0000000000000000000000001e2e8562b635fe19978640c784e47865a83d6605169063c161c93f90608401602060405180830381865afa158015610a84573d6000803e3d6000fd5b505050506040513d601f19601f82011682018060405250810190610aa8919061136b565b155b15610ac85760405163075fd2b160e01b815260040160405180910390fd5b50505050565b6000610ae4846001600160a01b03851684610df4565b949350505050565b60606000610af983610e11565b9392505050565b604080516060810182526000546001600160a01b0381168252600160a01b81046001600160581b031660208301819052600160f81b90910460ff1692820192909252906108999015610be85760208201516040516331a9108f60e11b81526001600160581b0390911660048201527f000000000000000000000000f9dada4628eb3992202cf253625d4ecebbc1592f6001600160a01b031690636352211e90602401602060405180830381865afa158015610bbf573d6000803e3d6000fd5b505050506040513d601f19601f82011682018060405250810190610be3919061120f565b610beb565b81515b82602001516001600160581b0316836040015160ff1661094a565b6001600160581b03811615801590610c2657506001600160a01b03821615155b15610c445760405163ecb9b1c760e01b815260040160405180910390fd5b60408051606081018252600080546001600160a01b0381168352600160a01b81046001600160581b031660208401819052600160f81b90910460ff1693830193909352909115610d2a5760208201516040516331a9108f60e11b81526001600160581b0390911660048201527f000000000000000000000000f9dada4628eb3992202cf253625d4ecebbc1592f6001600160a01b031690636352211e90602401602060405180830381865afa158015610d01573d6000803e3d6000fd5b505050506040513d601f19601f82011682018060405250810190610d25919061120f565b610d2d565b81515b604080516060810182526001600160a01b0387168082526001600160581b0387166020830181905260009290930182905281546001600160f81b03191617600160a01b909202919091176001600160f81b031690559050610ac8818585610e1c565b6000610af9836001600160a01b038416610f0e565b600080546001600160f81b0316600160f81b60ff8416908102919091179091556040519081527f6f4725627084d54c46c628b050805457a1cd38c5cd20c1f00132960f8b546fed9060200161093f565b60008281526002840160205260408120829055610ae48484610f55565b606061065382610f61565b303b1561072c576001600160581b03811615610ec8576040516331a9108f60e11b81526001600160581b03821660048201527f000000000000000000000000f9dada4628eb3992202cf253625d4ecebbc1592f6001600160a01b031690636352211e90602401602060405180830381865afa158015610e9f573d6000803e3d6000fd5b505050506040513d601f19601f82011682018060405250810190610ec3919061120f565b610eca565b815b6001600160a01b0316836001600160a01b03167f8be0079c531659141344cd1fd0a4f28419497f9722a3daafe3b4186f6b6457e060405160405180910390a3505050565b600081815260028301602052604081205480158015610f345750610f328484610f6e565b155b15610af95760405163015ab34360e11b815260048101849052602401610462565b6000610af98383610f8d565b60606000610af983610fdc565b6000610af9838360008181526001830160205260408120541515610af9565b6000818152600183016020526040812054610fd457508154600181810184556000848152602080822090930184905584548482528286019093526040902091909155610653565b506000610653565b60608160000180548060200260200160405190810160405280929190818152602001828054801561102c57602002820191906000526020600020905b815481526020019060010190808311611018575b50505050509050919050565b60008083601f84011261104a57600080fd5b50813567ffffffffffffffff81111561106257600080fd5b6020830191508360208260051b850101111561107d57600080fd5b9250929050565b6000806000806060858703121561109a57600080fd5b8435935060208501359250604085013567ffffffffffffffff8111156110bf57600080fd5b6110cb87828801611038565b95989497509550505050565b60008151808452602080850194506020840160005b838110156111115781516001600160a01b0316875295820195908201906001016110ec565b509495945050505050565b602081526000610af960208301846110d7565b60006020828403121561114157600080fd5b5035919050565b6000806020838503121561115b57600080fd5b823567ffffffffffffffff81111561117257600080fd5b61117e85828601611038565b90969095509350505050565b6001600160a01b038116811461089957600080fd5b600080604083850312156111b257600080fd5b8235915060208301356111c48161118a565b809150509250929050565b6000602082840312156111e157600080fd5b8135610af98161118a565b6000602082840312156111fe57600080fd5b813560ff81168114610af957600080fd5b60006020828403121561122157600080fd5b8151610af98161118a565b634e487b7160e01b600052604160045260246000fd5b634e487b7160e01b600052603260045260246000fd5b60008235603e1983360301811261126e57600080fd5b9190910192915050565b6000808335601e1984360301811261128f57600080fd5b83018035915067ffffffffffffffff8211156112aa57600080fd5b6020019150600781901b360382131561107d57600080fd5b602080825281810183905260009060408084018684805b888110156113445782356112ec8161118a565b6001600160a01b039081168552838701359063ffffffff8216808314611310578485fd5b868901528487013591506113238261118a565b168486015260608381013590850152608093840193909201916001016112d9565b509198975050505050505050565b828152604060208201526000610ae460408301846110d7565b60006020828403121561137d57600080fd5b81518015158114610af957600080fdfea2646970667358221220464319be1fddb73265b0ba6d4a795112a90732a1d5b3a78038fe5e96812d2a4764736f6c63430008170033",
	"devdoc": {
		"kind": "dev",
		"methods": {
			"allowSuckerDeployer(address)": {
				"details": "Can only be called by this contract's owner (initially project ID 1, or JuiceboxDAO).",
				"params": {
					"deployer": "The address of the deployer to add."
				}
			},
			"allowSuckerDeployers(address[])": {
				"details": "Can only be called by this contract's owner (initially project ID 1, or JuiceboxDAO).",
				"params": {
					"deployers": "The address of the deployer to add."
				}
			},
			"deploySuckersFor(uint256,bytes32,(address,(address,uint32,address,uint256)[])[])": {
				"details": "The caller must be the project's owner or have `JBPermissionIds.DEPLOY_SUCKERS` from the project's owner.",
				"params": {
					"configurations": "The sucker deployer configs to use to deploy the suckers.",
					"projectId": "The ID of the project to deploy suckers for.",
					"salt": "The salt used to deploy the contract. For the suckers to be peers, this must be the same value on each chain where suckers are deployed."
				},
				"returns": {
					"suckers": "The addresses of the deployed suckers."
				}
			},
			"isSuckerOf(uint256,address)": {
				"params": {
					"projectId": "The ID of the project to check for.",
					"suckerAddress": "The address of the sucker to check."
				}
			},
			"setPermissionId(uint8)": {
				"params": {
					"permissionId": "The ID of the permission to use for `onlyOwner`."
				}
			},
			"suckersOf(uint256)": {
				"params": {
					"projectId": "The ID of the project to get the suckers of."
				}
			},
			"transferOwnership(address)": {
				"params": {
					"newOwner": "The address that should receive ownership of this contract."
				}
			},
			"transferOwnershipToProject(uint256)": {
				"details": "The `projectId` must fit within a `uint88`.",
				"params": {
					"projectId": "The ID of the project that should receive ownership of this contract."
				}
			}
		},
		"version": 1
	},
	"userdoc": {
		"kind": "user",
		"methods": {
			"PERMISSIONS()": {
				"notice": "A contract storing permissions."
			},
			"PROJECTS()": {
				"notice": "Mints ERC-721s that represent project ownership and transfers."
			},
			"allowSuckerDeployer(address)": {
				"notice": "Adds a suckers deployer to the allowlist."
			},
			"allowSuckerDeployers(address[])": {
				"notice": "Adds multiple suckers deployer to the allowlist."
			},
			"deploySuckersFor(uint256,bytes32,(address,(address,uint32,address,uint256)[])[])": {
				"notice": "Deploy one or more suckers for the specified project."
			},
			"isSuckerOf(uint256,address)": {
				"notice": "Returns true if the specified sucker belongs to the specified project, and was deployed through this registry."
			},
			"jbOwner()": {
				"notice": "This contract's owner information."
			},
			"owner()": {
				"notice": "Returns the owner's address based on this contract's `JBOwner` owner information."
			},
			"renounceOwnership()": {
				"notice": "Gives up ownership of this contract, making it impossible to call `onlyOwner`/`_checkOwner` functions. Can only be called by the current owner."
			},
			"setPermissionId(uint8)": {
				"notice": "Sets the permission ID which, when granted from the owner, allows other addresses to perform operations on their behalf."
			},
			"suckerDeployerIsAllowed(address)": {
				"notice": "Tracks whether the specified sucker deployer is approved by this registry."
			},
			"suckersOf(uint256)": {
				"notice": "Gets all of the specified project's suckers which were deployed through this registry."
			},
			"transferOwnership(address)": {
				"notice": "Transfers ownership of this contract to a new account (the `newOwner`). Can only be called by the current owner."
			},
			"transferOwnershipToProject(uint256)": {
				"notice": "Transfer ownership of this contract to a new Juicebox project."
			}
		},
		"version": 1
	},
	"gitCommit": "d5bddfe8fea06c5a2093abc681b2459a7f8607fd",
	"sourceName": "src/BPSuckerRegistry.sol",
	"chainId": "421614",
	"linkReferences": {},
	"deployedLinkReferences": {},
	"history": [
		{
			"_format": "sphinx-sol-ct-artifact-1",
			"merkleRoot": "0x2d4ca00627c459de699f5e6d80f06fa7c9de5e9f4b50c7bfe3f3a0ab31867acc",
			"contractName": "BPSuckerRegistry",
			"address": "0x3F209aB51b59Bc6C2c9C2f2147d3d51E29A862d7",
			"abi": [
				{
					"type": "constructor",
					"inputs": [
						{
							"name": "projects",
							"type": "address",
							"internalType": "contract IJBProjects"
						},
						{
							"name": "permissions",
							"type": "address",
							"internalType": "contract IJBPermissions"
						},
						{
							"name": "_initialOwner",
							"type": "address",
							"internalType": "address"
						}
					],
					"stateMutability": "nonpayable"
				},
				{
					"type": "function",
					"name": "PERMISSIONS",
					"inputs": [],
					"outputs": [
						{
							"name": "",
							"type": "address",
							"internalType": "contract IJBPermissions"
						}
					],
					"stateMutability": "view"
				},
				{
					"type": "function",
					"name": "PROJECTS",
					"inputs": [],
					"outputs": [
						{
							"name": "",
							"type": "address",
							"internalType": "contract IJBProjects"
						}
					],
					"stateMutability": "view"
				},
				{
					"type": "function",
					"name": "allowSuckerDeployer",
					"inputs": [
						{
							"name": "deployer",
							"type": "address",
							"internalType": "address"
						}
					],
					"outputs": [],
					"stateMutability": "nonpayable"
				},
				{
					"type": "function",
					"name": "allowSuckerDeployers",
					"inputs": [
						{
							"name": "deployers",
							"type": "address[]",
							"internalType": "address[]"
						}
					],
					"outputs": [],
					"stateMutability": "nonpayable"
				},
				{
					"type": "function",
					"name": "deploySuckersFor",
					"inputs": [
						{
							"name": "projectId",
							"type": "uint256",
							"internalType": "uint256"
						},
						{
							"name": "salt",
							"type": "bytes32",
							"internalType": "bytes32"
						},
						{
							"name": "configurations",
							"type": "tuple[]",
							"internalType": "struct BPSuckerDeployerConfig[]",
							"components": [
								{
									"name": "deployer",
									"type": "address",
									"internalType": "contract IBPSuckerDeployer"
								},
								{
									"name": "mappings",
									"type": "tuple[]",
									"internalType": "struct BPTokenMapping[]",
									"components": [
										{
											"name": "localToken",
											"type": "address",
											"internalType": "address"
										},
										{
											"name": "minGas",
											"type": "uint32",
											"internalType": "uint32"
										},
										{
											"name": "remoteToken",
											"type": "address",
											"internalType": "address"
										},
										{
											"name": "minBridgeAmount",
											"type": "uint256",
											"internalType": "uint256"
										}
									]
								}
							]
						}
					],
					"outputs": [
						{
							"name": "suckers",
							"type": "address[]",
							"internalType": "address[]"
						}
					],
					"stateMutability": "nonpayable"
				},
				{
					"type": "function",
					"name": "isSuckerOf",
					"inputs": [
						{
							"name": "projectId",
							"type": "uint256",
							"internalType": "uint256"
						},
						{
							"name": "suckerAddress",
							"type": "address",
							"internalType": "address"
						}
					],
					"outputs": [
						{
							"name": "",
							"type": "bool",
							"internalType": "bool"
						}
					],
					"stateMutability": "view"
				},
				{
					"type": "function",
					"name": "jbOwner",
					"inputs": [],
					"outputs": [
						{
							"name": "owner",
							"type": "address",
							"internalType": "address"
						},
						{
							"name": "projectId",
							"type": "uint88",
							"internalType": "uint88"
						},
						{
							"name": "permissionId",
							"type": "uint8",
							"internalType": "uint8"
						}
					],
					"stateMutability": "view"
				},
				{
					"type": "function",
					"name": "owner",
					"inputs": [],
					"outputs": [
						{
							"name": "",
							"type": "address",
							"internalType": "address"
						}
					],
					"stateMutability": "view"
				},
				{
					"type": "function",
					"name": "renounceOwnership",
					"inputs": [],
					"outputs": [],
					"stateMutability": "nonpayable"
				},
				{
					"type": "function",
					"name": "setPermissionId",
					"inputs": [
						{
							"name": "permissionId",
							"type": "uint8",
							"internalType": "uint8"
						}
					],
					"outputs": [],
					"stateMutability": "nonpayable"
				},
				{
					"type": "function",
					"name": "suckerDeployerIsAllowed",
					"inputs": [
						{
							"name": "deployer",
							"type": "address",
							"internalType": "address"
						}
					],
					"outputs": [
						{
							"name": "",
							"type": "bool",
							"internalType": "bool"
						}
					],
					"stateMutability": "view"
				},
				{
					"type": "function",
					"name": "suckersOf",
					"inputs": [
						{
							"name": "projectId",
							"type": "uint256",
							"internalType": "uint256"
						}
					],
					"outputs": [
						{
							"name": "",
							"type": "address[]",
							"internalType": "address[]"
						}
					],
					"stateMutability": "view"
				},
				{
					"type": "function",
					"name": "transferOwnership",
					"inputs": [
						{
							"name": "newOwner",
							"type": "address",
							"internalType": "address"
						}
					],
					"outputs": [],
					"stateMutability": "nonpayable"
				},
				{
					"type": "function",
					"name": "transferOwnershipToProject",
					"inputs": [
						{
							"name": "projectId",
							"type": "uint256",
							"internalType": "uint256"
						}
					],
					"outputs": [],
					"stateMutability": "nonpayable"
				},
				{
					"type": "event",
					"name": "OwnershipTransferred",
					"inputs": [
						{
							"name": "previousOwner",
							"type": "address",
							"indexed": true,
							"internalType": "address"
						},
						{
							"name": "newOwner",
							"type": "address",
							"indexed": true,
							"internalType": "address"
						}
					],
					"anonymous": false
				},
				{
					"type": "event",
					"name": "PermissionIdChanged",
					"inputs": [
						{
							"name": "newIndex",
							"type": "uint8",
							"indexed": false,
							"internalType": "uint8"
						}
					],
					"anonymous": false
				},
				{
					"type": "event",
					"name": "SuckerDeployerAllowed",
					"inputs": [
						{
							"name": "deployer",
							"type": "address",
							"indexed": false,
							"internalType": "address"
						}
					],
					"anonymous": false
				},
				{
					"type": "event",
					"name": "SuckersDeployedFor",
					"inputs": [
						{
							"name": "projectId",
							"type": "uint256",
							"indexed": false,
							"internalType": "uint256"
						},
						{
							"name": "suckers",
							"type": "address[]",
							"indexed": false,
							"internalType": "address[]"
						}
					],
					"anonymous": false
				},
				{
					"type": "error",
					"name": "EnumerableMapNonexistentKey",
					"inputs": [
						{
							"name": "key",
							"type": "bytes32",
							"internalType": "bytes32"
						}
					]
				},
				{
					"type": "error",
					"name": "INVALID_DEPLOYER",
					"inputs": [
						{
							"name": "deployer",
							"type": "address",
							"internalType": "address"
						}
					]
				},
				{
					"type": "error",
					"name": "INVALID_NEW_OWNER",
					"inputs": []
				},
				{
					"type": "error",
					"name": "UNAUTHORIZED",
					"inputs": []
				}
			],
			"solcInputHash": "be814d998db9158d32a9e143edcd7c88",
			"receipt": {
				"blockHash": "0x94f11b1bfddd93e94797bff7dc800e4e6ae1fc3a93d80f1ec8d6749af4742dc6",
				"blockNumber": 36133277,
				"contractAddress": null,
				"cumulativeGasUsed": "1543318",
				"from": "0xC034550B542b83BA1De312b21d1C94a9a52B1595",
				"gasPrice": "1247610000",
				"gasUsed": "1308402",
				"hash": "0xb1ac2fd48fe1a18bc0686624cc4e309b40ec8dad5d34e06b3da94969663007b9",
				"index": 4,
				"logs": [
					{
						"address": "0xB5E96127D417b1B3ef8438496a38A143167209c7",
						"blockHash": "0x94f11b1bfddd93e94797bff7dc800e4e6ae1fc3a93d80f1ec8d6749af4742dc6",
						"blockNumber": 36133277,
						"data": "0x0000000000000000000000000000000000000000000000000000000000000000",
						"index": 5,
						"topics": [
							"0x572f161235911da04685a68c06adf558fc7e4a36909dca394650e0adc19cc93d",
							"0x000000000000000000000000c034550b542b83ba1de312b21d1c94a9a52b1595",
							"0x0000000000000000000000002251543da4a5ef946705b931c7e8b74756764a18",
							"0xfde701de1ad7a29bff14f9d1ba7d5be8b654eb9160360c49475f033a5adf7950"
						],
						"transactionHash": "0xb1ac2fd48fe1a18bc0686624cc4e309b40ec8dad5d34e06b3da94969663007b9",
						"transactionIndex": 4
					},
					{
						"address": "0x6a65B75A3f37C6702A117Fb87B6bCaC62657d216",
						"blockHash": "0x94f11b1bfddd93e94797bff7dc800e4e6ae1fc3a93d80f1ec8d6749af4742dc6",
						"blockNumber": 36133277,
						"data": "0x",
						"index": 6,
						"topics": [
							"0x6895c13664aa4f67288b25d7a21d7aaa34916e355fb9b6fae0a139a9085becb8",
							"0x0000000000000000000000002251543da4a5ef946705b931c7e8b74756764a18"
						],
						"transactionHash": "0xb1ac2fd48fe1a18bc0686624cc4e309b40ec8dad5d34e06b3da94969663007b9",
						"transactionIndex": 4
					},
					{
						"address": "0x2251543Da4A5eF946705B931C7e8b74756764a18",
						"blockHash": "0x94f11b1bfddd93e94797bff7dc800e4e6ae1fc3a93d80f1ec8d6749af4742dc6",
						"blockNumber": 36133277,
						"data": "0x0000000000000000000000000000000000000000000000000000000000000002",
						"index": 7,
						"topics": [
							"0xa65fb05c5808f5f389d72edeaf719ce38f4cc55c1f69ca3cbfb31c21501caa07",
							"0x2d4ca00627c459de699f5e6d80f06fa7c9de5e9f4b50c7bfe3f3a0ab31867acc"
						],
						"transactionHash": "0xb1ac2fd48fe1a18bc0686624cc4e309b40ec8dad5d34e06b3da94969663007b9",
						"transactionIndex": 4
					}
				],
				"logsBloom": "0x0000000008001000000000000008000000020000404800000000000000400000000000000000000000000000004001000000000000000000000000000000000000000000000020000000000000000000000000000000000000000000000800000000000000000800000000200000000020000000000000000000000000000000000000000000000040010000000000000000000000000000000000000000000000c000000010000000001000000000020200000000000000001000000004000000000000000000000008000008000000000000000000000010000000000000000000000000000000000200000000000200000000000000000000000000000000",
				"status": 1,
				"to": "0xB5E96127D417b1B3ef8438496a38A143167209c7"
			},
			"metadata": "{\"compiler\":{\"version\":\"0.8.23+commit.f704f362\"},\"language\":\"Solidity\",\"output\":{\"abi\":[{\"inputs\":[{\"internalType\":\"contract IJBProjects\",\"name\":\"projects\",\"type\":\"address\"},{\"internalType\":\"contract IJBPermissions\",\"name\":\"permissions\",\"type\":\"address\"},{\"internalType\":\"address\",\"name\":\"_initialOwner\",\"type\":\"address\"}],\"stateMutability\":\"nonpayable\",\"type\":\"constructor\"},{\"inputs\":[{\"internalType\":\"bytes32\",\"name\":\"key\",\"type\":\"bytes32\"}],\"type\":\"error\",\"name\":\"EnumerableMapNonexistentKey\"},{\"inputs\":[{\"internalType\":\"address\",\"name\":\"deployer\",\"type\":\"address\"}],\"type\":\"error\",\"name\":\"INVALID_DEPLOYER\"},{\"inputs\":[],\"type\":\"error\",\"name\":\"INVALID_NEW_OWNER\"},{\"inputs\":[],\"type\":\"error\",\"name\":\"UNAUTHORIZED\"},{\"inputs\":[{\"internalType\":\"address\",\"name\":\"previousOwner\",\"type\":\"address\",\"indexed\":true},{\"internalType\":\"address\",\"name\":\"newOwner\",\"type\":\"address\",\"indexed\":true}],\"type\":\"event\",\"name\":\"OwnershipTransferred\",\"anonymous\":false},{\"inputs\":[{\"internalType\":\"uint8\",\"name\":\"newIndex\",\"type\":\"uint8\",\"indexed\":false}],\"type\":\"event\",\"name\":\"PermissionIdChanged\",\"anonymous\":false},{\"inputs\":[{\"internalType\":\"address\",\"name\":\"deployer\",\"type\":\"address\",\"indexed\":false}],\"type\":\"event\",\"name\":\"SuckerDeployerAllowed\",\"anonymous\":false},{\"inputs\":[{\"internalType\":\"uint256\",\"name\":\"projectId\",\"type\":\"uint256\",\"indexed\":false},{\"internalType\":\"address[]\",\"name\":\"suckers\",\"type\":\"address[]\",\"indexed\":false}],\"type\":\"event\",\"name\":\"SuckersDeployedFor\",\"anonymous\":false},{\"inputs\":[],\"stateMutability\":\"view\",\"type\":\"function\",\"name\":\"PERMISSIONS\",\"outputs\":[{\"internalType\":\"contract IJBPermissions\",\"name\":\"\",\"type\":\"address\"}]},{\"inputs\":[],\"stateMutability\":\"view\",\"type\":\"function\",\"name\":\"PROJECTS\",\"outputs\":[{\"internalType\":\"contract IJBProjects\",\"name\":\"\",\"type\":\"address\"}]},{\"inputs\":[{\"internalType\":\"address\",\"name\":\"deployer\",\"type\":\"address\"}],\"stateMutability\":\"nonpayable\",\"type\":\"function\",\"name\":\"allowSuckerDeployer\"},{\"inputs\":[{\"internalType\":\"address[]\",\"name\":\"deployers\",\"type\":\"address[]\"}],\"stateMutability\":\"nonpayable\",\"type\":\"function\",\"name\":\"allowSuckerDeployers\"},{\"inputs\":[{\"internalType\":\"uint256\",\"name\":\"projectId\",\"type\":\"uint256\"},{\"internalType\":\"bytes32\",\"name\":\"salt\",\"type\":\"bytes32\"},{\"internalType\":\"struct BPSuckerDeployerConfig[]\",\"name\":\"configurations\",\"type\":\"tuple[]\",\"components\":[{\"internalType\":\"contract IBPSuckerDeployer\",\"name\":\"deployer\",\"type\":\"address\"},{\"internalType\":\"struct BPTokenMapping[]\",\"name\":\"mappings\",\"type\":\"tuple[]\",\"components\":[{\"internalType\":\"address\",\"name\":\"localToken\",\"type\":\"address\"},{\"internalType\":\"uint32\",\"name\":\"minGas\",\"type\":\"uint32\"},{\"internalType\":\"address\",\"name\":\"remoteToken\",\"type\":\"address\"},{\"internalType\":\"uint256\",\"name\":\"minBridgeAmount\",\"type\":\"uint256\"}]}]}],\"stateMutability\":\"nonpayable\",\"type\":\"function\",\"name\":\"deploySuckersFor\",\"outputs\":[{\"internalType\":\"address[]\",\"name\":\"suckers\",\"type\":\"address[]\"}]},{\"inputs\":[{\"internalType\":\"uint256\",\"name\":\"projectId\",\"type\":\"uint256\"},{\"internalType\":\"address\",\"name\":\"suckerAddress\",\"type\":\"address\"}],\"stateMutability\":\"view\",\"type\":\"function\",\"name\":\"isSuckerOf\",\"outputs\":[{\"internalType\":\"bool\",\"name\":\"\",\"type\":\"bool\"}]},{\"inputs\":[],\"stateMutability\":\"view\",\"type\":\"function\",\"name\":\"jbOwner\",\"outputs\":[{\"internalType\":\"address\",\"name\":\"owner\",\"type\":\"address\"},{\"internalType\":\"uint88\",\"name\":\"projectId\",\"type\":\"uint88\"},{\"internalType\":\"uint8\",\"name\":\"permissionId\",\"type\":\"uint8\"}]},{\"inputs\":[],\"stateMutability\":\"view\",\"type\":\"function\",\"name\":\"owner\",\"outputs\":[{\"internalType\":\"address\",\"name\":\"\",\"type\":\"address\"}]},{\"inputs\":[],\"stateMutability\":\"nonpayable\",\"type\":\"function\",\"name\":\"renounceOwnership\"},{\"inputs\":[{\"internalType\":\"uint8\",\"name\":\"permissionId\",\"type\":\"uint8\"}],\"stateMutability\":\"nonpayable\",\"type\":\"function\",\"name\":\"setPermissionId\"},{\"inputs\":[{\"internalType\":\"address\",\"name\":\"deployer\",\"type\":\"address\"}],\"stateMutability\":\"view\",\"type\":\"function\",\"name\":\"suckerDeployerIsAllowed\",\"outputs\":[{\"internalType\":\"bool\",\"name\":\"\",\"type\":\"bool\"}]},{\"inputs\":[{\"internalType\":\"uint256\",\"name\":\"projectId\",\"type\":\"uint256\"}],\"stateMutability\":\"view\",\"type\":\"function\",\"name\":\"suckersOf\",\"outputs\":[{\"internalType\":\"address[]\",\"name\":\"\",\"type\":\"address[]\"}]},{\"inputs\":[{\"internalType\":\"address\",\"name\":\"newOwner\",\"type\":\"address\"}],\"stateMutability\":\"nonpayable\",\"type\":\"function\",\"name\":\"transferOwnership\"},{\"inputs\":[{\"internalType\":\"uint256\",\"name\":\"projectId\",\"type\":\"uint256\"}],\"stateMutability\":\"nonpayable\",\"type\":\"function\",\"name\":\"transferOwnershipToProject\"}],\"devdoc\":{\"kind\":\"dev\",\"methods\":{\"allowSuckerDeployer(address)\":{\"details\":\"Can only be called by this contract's owner (initially project ID 1, or JuiceboxDAO).\",\"params\":{\"deployer\":\"The address of the deployer to add.\"}},\"allowSuckerDeployers(address[])\":{\"details\":\"Can only be called by this contract's owner (initially project ID 1, or JuiceboxDAO).\",\"params\":{\"deployers\":\"The address of the deployer to add.\"}},\"deploySuckersFor(uint256,bytes32,(address,(address,uint32,address,uint256)[])[])\":{\"details\":\"The caller must be the project's owner or have `JBPermissionIds.DEPLOY_SUCKERS` from the project's owner.\",\"params\":{\"configurations\":\"The sucker deployer configs to use to deploy the suckers.\",\"projectId\":\"The ID of the project to deploy suckers for.\",\"salt\":\"The salt used to deploy the contract. For the suckers to be peers, this must be the same value on each chain where suckers are deployed.\"},\"returns\":{\"suckers\":\"The addresses of the deployed suckers.\"}},\"isSuckerOf(uint256,address)\":{\"params\":{\"projectId\":\"The ID of the project to check for.\",\"suckerAddress\":\"The address of the sucker to check.\"}},\"setPermissionId(uint8)\":{\"params\":{\"permissionId\":\"The ID of the permission to use for `onlyOwner`.\"}},\"suckersOf(uint256)\":{\"params\":{\"projectId\":\"The ID of the project to get the suckers of.\"}},\"transferOwnership(address)\":{\"params\":{\"newOwner\":\"The address that should receive ownership of this contract.\"}},\"transferOwnershipToProject(uint256)\":{\"details\":\"The `projectId` must fit within a `uint88`.\",\"params\":{\"projectId\":\"The ID of the project that should receive ownership of this contract.\"}}},\"version\":1},\"userdoc\":{\"kind\":\"user\",\"methods\":{\"PERMISSIONS()\":{\"notice\":\"A contract storing permissions.\"},\"PROJECTS()\":{\"notice\":\"Mints ERC-721s that represent project ownership and transfers.\"},\"allowSuckerDeployer(address)\":{\"notice\":\"Adds a suckers deployer to the allowlist.\"},\"allowSuckerDeployers(address[])\":{\"notice\":\"Adds multiple suckers deployer to the allowlist.\"},\"deploySuckersFor(uint256,bytes32,(address,(address,uint32,address,uint256)[])[])\":{\"notice\":\"Deploy one or more suckers for the specified project.\"},\"isSuckerOf(uint256,address)\":{\"notice\":\"Returns true if the specified sucker belongs to the specified project, and was deployed through this registry.\"},\"jbOwner()\":{\"notice\":\"This contract's owner information.\"},\"owner()\":{\"notice\":\"Returns the owner's address based on this contract's `JBOwner` owner information.\"},\"renounceOwnership()\":{\"notice\":\"Gives up ownership of this contract, making it impossible to call `onlyOwner`/`_checkOwner` functions. Can only be called by the current owner.\"},\"setPermissionId(uint8)\":{\"notice\":\"Sets the permission ID which, when granted from the owner, allows other addresses to perform operations on their behalf.\"},\"suckerDeployerIsAllowed(address)\":{\"notice\":\"Tracks whether the specified sucker deployer is approved by this registry.\"},\"suckersOf(uint256)\":{\"notice\":\"Gets all of the specified project's suckers which were deployed through this registry.\"},\"transferOwnership(address)\":{\"notice\":\"Transfers ownership of this contract to a new account (the `newOwner`). Can only be called by the current owner.\"},\"transferOwnershipToProject(uint256)\":{\"notice\":\"Transfer ownership of this contract to a new Juicebox project.\"}},\"version\":1}},\"settings\":{\"remappings\":[\"@arbitrum/=node_modules/@arbitrum/\",\"@bananapus/=node_modules/@bananapus/\",\"@chainlink/=node_modules/@chainlink/\",\"@eth-optimism/=node_modules/@eth-optimism/\",\"@offchainlabs/=node_modules/@offchainlabs/\",\"@openzeppelin/=node_modules/@openzeppelin/\",\"@prb/=node_modules/@prb/\",\"@scroll-tech/=node_modules/@scroll-tech/\",\"@sphinx-labs/contracts/=node_modules/@sphinx-labs/contracts/contracts/foundry/\",\"@uniswap/=node_modules/@uniswap/\",\"ds-test/=lib/forge-std/lib/ds-test/src/\",\"forge-std/=lib/forge-std/src/\",\"hardhat/=node_modules/hardhat/\",\"solmate/=node_modules/solmate/\",\"sphinx/=lib/sphinx/packages/contracts/contracts/forge-std/src/\"],\"optimizer\":{\"enabled\":true,\"runs\":200},\"metadata\":{\"bytecodeHash\":\"ipfs\"},\"compilationTarget\":{\"src/BPSuckerRegistry.sol\":\"BPSuckerRegistry\"},\"evmVersion\":\"paris\",\"libraries\":{}},\"sources\":{\"node_modules/@bananapus/core/src/abstract/JBPermissioned.sol\":{\"keccak256\":\"0xe08c8a7eeac9d1c7c2e0db6d5b98d1af09889300835a3d47d9f29319fecce703\",\"urls\":[\"bzz-raw://42645cf52bcc45053ef650790916faed5d0a74cecef336b217433fdd2c5c4166\",\"dweb:/ipfs/QmdMmxG1tSGucQwz4LYbVnuj7HU23YvqLH6xfrNWv5Bmus\"],\"license\":\"MIT\"},\"node_modules/@bananapus/core/src/interfaces/IJBPermissioned.sol\":{\"keccak256\":\"0x5b038d4dee116584e88b230920e56d48e135053e3f7e5642eaea14a775c1dad7\",\"urls\":[\"bzz-raw://19e43102f349fd4a1da1c0943ffb8f2950007fe4bb4bb7e8f74fc142575d091b\",\"dweb:/ipfs/QmXHAt4KzDTdDZgDDefEXH2WKi7NcfkJb9R7nxW5uDqsNp\"],\"license\":\"MIT\"},\"node_modules/@bananapus/core/src/interfaces/IJBPermissions.sol\":{\"keccak256\":\"0x18870e500edf0fbadc353e273a5574701fb80466376b908c65e7cc3f11044d4d\",\"urls\":[\"bzz-raw://352a47c45853aec80e7acf0d286ade3106eb4cb456776b28a3c2f3f1091bed90\",\"dweb:/ipfs/QmQeYd3YbudYZy2hfbfht9kwhxhw4tuuLKMEYy9UY6dcSy\"],\"license\":\"MIT\"},\"node_modules/@bananapus/core/src/interfaces/IJBProjects.sol\":{\"keccak256\":\"0x735c2fb8f1fa827f054ee77f7a0ae4b312656217acb75b624d2c8fd9dc40151b\",\"urls\":[\"bzz-raw://ee7fc92299a8633a80693ae63ab494dcd125f1789487a54a39dc0e5696e5996f\",\"dweb:/ipfs/QmX7YJD4pS2XhgQb7p3JbBAXynT7YGPXcZe92BiWWRrsCL\"],\"license\":\"MIT\"},\"node_modules/@bananapus/core/src/interfaces/IJBTokenUriResolver.sol\":{\"keccak256\":\"0xfa5cb00dcd6085d1ef912d071fe73c63f9478a2cd0f9d8bddaf659b6af2d0967\",\"urls\":[\"bzz-raw://282e4e7c342d65f77cde0e9a08fcaf20ef5cf379c7a48b639842c0ffd0b2afb8\",\"dweb:/ipfs/QmbnN3PEQeZaXdPLT75V1J79kMg7KqSMru37RHrL3z8Yf2\"],\"license\":\"MIT\"},\"node_modules/@bananapus/core/src/structs/JBPermissionsData.sol\":{\"keccak256\":\"0x8f0f69a6ebf5f3704e3dfcb3712fb9d3f94ae7c1ab89bf3e37bad42a3e7a0487\",\"urls\":[\"bzz-raw://57b0c5e52843e2217082889ed47b4da3943e0da4590d5768dcebfe3edad4a6b8\",\"dweb:/ipfs/QmRz48vuWLw81kUP836rh1qzqWiJFGbksgRUA9xGEDNKTY\"],\"license\":\"MIT\"},\"node_modules/@bananapus/ownable/src/JBOwnable.sol\":{\"keccak256\":\"0x5b0aec2bc7164bdb972bfb9f71660c887308cf3a72738c7469d03bf264cf0d54\",\"urls\":[\"bzz-raw://bf4f60cebc0a707004371425aa3c8751b6a84dfb4fc9bf788160ae9ac1e906f6\",\"dweb:/ipfs/QmegUfWLhKuByQTkfMkmwkEs2Tk5ZEuR56DqQw5kxFzP3d\"],\"license\":\"MIT\"},\"node_modules/@bananapus/ownable/src/JBOwnableOverrides.sol\":{\"keccak256\":\"0x70a7c55f2a0f4324b63afe61e9d0de6e54396073e431844a19936d2aaaf6d7dd\",\"urls\":[\"bzz-raw://94c55139a8e974e2a88c6f0fc7594be3044742cfc499c989051eaf6664ec7dab\",\"dweb:/ipfs/QmQPnLAootqEGzpHRdhsYGBU3cqicRYLAe6bTti2UCBHyS\"],\"license\":\"MIT\"},\"node_modules/@bananapus/ownable/src/interfaces/IJBOwnable.sol\":{\"keccak256\":\"0x2c513558439d763df03e8a68c1aef698618182fd44c285405c35597d52c65ad1\",\"urls\":[\"bzz-raw://11cc25c41fccc20cca29f93dd120e67760188fd2040ef0330a093d37fbfa2f8f\",\"dweb:/ipfs/QmWpxcv41eYmsNYT3ph1nts5pC7sp3EzwJxKDGebMqEbsH\"],\"license\":\"MIT\"},\"node_modules/@bananapus/ownable/src/struct/JBOwner.sol\":{\"keccak256\":\"0x5624ba356f01f722984c1b857a106f413b12e57bae1f762a81c16ee511e3325a\",\"urls\":[\"bzz-raw://3120b5649ac8b55158df138dcac03f6850fc988cc5a24a7cb06e6581265ca284\",\"dweb:/ipfs/QmQBSLxRT9j1MEERUt8dWbSsAjianbHpM2CFwciLK7MwaP\"],\"license\":\"MIT\"},\"node_modules/@bananapus/permission-ids/src/JBPermissionIds.sol\":{\"keccak256\":\"0xf61109f6b217a80d5e5391f548fb6f2e451f7dbee3fabfc04cf17e88722203bc\",\"urls\":[\"bzz-raw://ac776ab1cd621c22bd7973471acdfa187f3abc659ad9a3ef6ed10b6447dfcf9c\",\"dweb:/ipfs/QmYLbaHt68qcuMzkiKpe96jMjiWUq1F3u8yMhxmZ3pnnWu\"],\"license\":\"MIT\"},\"node_modules/@openzeppelin/contracts/token/ERC721/IERC721.sol\":{\"keccak256\":\"0x5ef46daa3b58ef2702279d514780316efaa952915ee1aa3396f041ee2982b0b4\",\"urls\":[\"bzz-raw://2f8f2a76e23b02fc69e8cd24c3cb47da6c7af3a2d6c3a382f8ac25c6e094ade7\",\"dweb:/ipfs/QmPV4ZS4tPVv4mTCf9ejyZ1ai57EEibDRj7mN2ARDCLV5n\"],\"license\":\"MIT\"},\"node_modules/@openzeppelin/contracts/utils/Context.sol\":{\"keccak256\":\"0x493033a8d1b176a037b2cc6a04dad01a5c157722049bbecf632ca876224dd4b2\",\"urls\":[\"bzz-raw://6a708e8a5bdb1011c2c381c9a5cfd8a9a956d7d0a9dc1bd8bcdaf52f76ef2f12\",\"dweb:/ipfs/Qmax9WHBnVsZP46ZxEMNRQpLQnrdE4dK8LehML1Py8FowF\"],\"license\":\"MIT\"},\"node_modules/@openzeppelin/contracts/utils/introspection/IERC165.sol\":{\"keccak256\":\"0x4296879f55019b23e135000eb36896057e7101fb7fb859c5ef690cf14643757b\",\"urls\":[\"bzz-raw://87b3541437c8c443ccd36795e56a338ed12855eec17f8da624511b8d1a7e14df\",\"dweb:/ipfs/QmeJQCtZrQjtJLr6u7ZHWeH3pBnjtLWzvRrKViAi7UZqxL\"],\"license\":\"MIT\"},\"node_modules/@openzeppelin/contracts/utils/structs/EnumerableMap.sol\":{\"keccak256\":\"0xa3edd94148e931d8a37353624ea57afa1c679b6fe06b7059ccdc8da78a90c123\",\"urls\":[\"bzz-raw://0041d5bae8c6115c3378532d5b7cfbb1a288780279a3873334e49785b65a1b9d\",\"dweb:/ipfs/QmQTGDrQSZkzRbFZWAhysaeCvKnP7wPh2VSPkN4J323QmZ\"],\"license\":\"MIT\"},\"node_modules/@openzeppelin/contracts/utils/structs/EnumerableSet.sol\":{\"keccak256\":\"0x86c1470cbfd878491e5de030072b647352d36bd27122cffb928970b1945282aa\",\"urls\":[\"bzz-raw://ad85dd393ee0a1917c57046abc5155f51f77844b2c6a42c05c1b8dd26d6ff3c1\",\"dweb:/ipfs/QmNqYc8To2NdnpP6E1tGz7t6A7beuENde5yovwov5pW1fA\"],\"license\":\"MIT\"},\"src/BPSuckerRegistry.sol\":{\"keccak256\":\"0xc6a21eb870c0c7400c8cf0acf09a84d91bdc6032c1f18786a26d2133284adc40\",\"urls\":[\"bzz-raw://3dd6f7fc225b5f2907381bd7c6452f3729cc458cdbda4798d56541960f3c41f1\",\"dweb:/ipfs/QmYKQygucYkuivpAhkHhbFi2FhyVNWu13wdhEnUjiAPJA2\"],\"license\":\"UNLICENSED\"},\"src/interfaces/IBPSucker.sol\":{\"keccak256\":\"0x2a3136ea5608c3e76b9f3114a470980f2a96427535aaccbd65dcc37d3a3dd0f8\",\"urls\":[\"bzz-raw://8cc997a396b183525892a0640ce03aee9fa3f15971266c826a308f6c74ff63f2\",\"dweb:/ipfs/QmZcoMkGbujqLm5B9v5urpFwUVg2uoG7ybPHX8RRxsygpe\"],\"license\":\"MIT\"},\"src/interfaces/IBPSuckerDeployer.sol\":{\"keccak256\":\"0xe252e890c4b5e12d5fa537a11cd2fad936f41be80240301ace8afca3de481222\",\"urls\":[\"bzz-raw://730855964dd0629f3d514ed52f59d80d02786733c3b8b5cf21e69524de7f8829\",\"dweb:/ipfs/QmUuoYEmnzUNn3hANGrg8sDZdjoaEbgWMWLepsSQt9MUyw\"],\"license\":\"MIT\"},\"src/interfaces/IBPSuckerRegistry.sol\":{\"keccak256\":\"0xaed1d396dd1748585f4f16cd72519efadcb089ecd9b8a1786d3d353cffb6218a\",\"urls\":[\"bzz-raw://94de3a0692ac733ab780449431dea24e402b41c7c768fc7868bf0f259a65d80d\",\"dweb:/ipfs/QmR3STDP2YbPi7LTsAC3XSv2gT7GMD83krYeReFVDE4eKU\"],\"license\":\"UNLICENSED\"},\"src/structs/BPSuckerDeployerConfig.sol\":{\"keccak256\":\"0x867e10bc73a07ab19cf5511d047dc885e3cfae58fc5f3441f6a5d3174afe6b78\",\"urls\":[\"bzz-raw://b8c3e72e57958bb2e2b8072ac6055804598c080a748fbc2f40a783575435809e\",\"dweb:/ipfs/QmbY7W6i5qAAj42EsQX8yt8M8nXArXByEGosnHWyxs4BE7\"],\"license\":\"MIT\"},\"src/structs/BPTokenMapping.sol\":{\"keccak256\":\"0x84865bda925cdc9a608cbbfc487619acba391f98ae12bbbfdbc5779d617a17d9\",\"urls\":[\"bzz-raw://3bbc1fdd38feaf64fd4914bddb62cda7e5b8ee0f046a0eac8cfcb15f9493bcc5\",\"dweb:/ipfs/QmXgAx7sr1M8r71YrSeQJGAB1uhvdxpQyS633UgJvLCQfb\"],\"license\":\"MIT\"}},\"version\":1}",
			"args": [
				"0xf9dadA4628Eb3992202CF253625d4ECebBC1592f",
				"0x1e2E8562b635fe19978640C784e47865A83d6605",
				"0x6a65B75A3f37C6702A117Fb87B6bCaC62657d216"
			],
			"bytecode": "0x60c06040523480156200001157600080fd5b50604051620017b3380380620017b383398101604081905262000034916200031f565b6001600160a01b03808316608052831660a0528282826000838383836001600160a01b038216620000785760405163ecb9b1c760e01b815260040160405180910390fd5b62000084828262000095565b50505050505050505050506200039a565b6001600160581b03811615801590620000b657506001600160a01b03821615155b15620000d55760405163ecb9b1c760e01b815260040160405180910390fd5b60408051606081018252600080546001600160a01b0381168352600160a01b81046001600160581b031660208401819052600160f81b90910460ff1693830193909352909115620001a45760a05160208301516040516331a9108f60e11b81526001600160581b0390911660048201526001600160a01b0390911690636352211e90602401602060405180830381865afa15801562000178573d6000803e3d6000fd5b505050506040513d601f19601f820116820180604052508101906200019e919062000373565b620001a7565b81515b604080516060810182526001600160a01b0387168082526001600160581b0387166020830181905260009290930182905281547fff000000000000000000000000000000000000000000000000000000000000001617600160a01b909202919091176001600160f81b0316905590506200022381858562000229565b50505050565b303b1562000301576001600160581b03811615620002bf5760a0516040516331a9108f60e11b81526001600160581b03831660048201526001600160a01b0390911690636352211e90602401602060405180830381865afa15801562000293573d6000803e3d6000fd5b505050506040513d601f19601f82011682018060405250810190620002b9919062000373565b620002c1565b815b6001600160a01b0316836001600160a01b03167f8be0079c531659141344cd1fd0a4f28419497f9722a3daafe3b4186f6b6457e060405160405180910390a35b505050565b6001600160a01b03811681146200031c57600080fd5b50565b6000806000606084860312156200033557600080fd5b8351620003428162000306565b6020850151909350620003558162000306565b6040850151909250620003688162000306565b809150509250925092565b6000602082840312156200038657600080fd5b8151620003938162000306565b9392505050565b60805160a0516113c3620003f06000396000818160f4015281816102c9015281816107dc01528181610b7001528181610cb20152610e5001526000818161026f015281816109940152610a3d01526113c36000f3fe608060405234801561001057600080fd5b50600436106100ea5760003560e01c8063a1031a4f1161008c578063c0fb5e8511610066578063c0fb5e8514610244578063f2fde38b14610257578063f434c9141461026a578063f73ac20f1461029157600080fd5b8063a1031a4f146101ae578063a220d696146101d1578063ba23c36e146101e457600080fd5b8063669745a5116100c8578063669745a514610166578063715018a61461017b57806383db9d01146101835780638da5cb5b146101a657600080fd5b8063293c4999146100ef5780632f3f50e0146101335780633d12cb8714610153575b600080fd5b6101167f000000000000000000000000000000000000000000000000000000000000000081565b6040516001600160a01b0390911681526020015b60405180910390f35b610146610141366004611084565b6102a4565b60405161012a919061111c565b61014661016136600461112f565b610639565b610179610174366004611148565b610659565b005b610179610731565b61019661019136600461119f565b610746565b604051901515815260200161012a565b610116610768565b6101966101bc3660046111cf565b60026020526000908152604090205460ff1681565b6101796101df36600461112f565b610855565b600054610214906001600160a01b03811690600160a01b81046001600160581b031690600160f81b900460ff1683565b604080516001600160a01b0390941684526001600160581b03909216602084015260ff169082015260600161012a565b6101796102523660046111ec565b61089c565b6101796102653660046111cf565b6108ad565b6101167f000000000000000000000000000000000000000000000000000000000000000081565b61017961029f3660046111cf565b6108e7565b6040516331a9108f60e11b81526004810185905260609061033c906001600160a01b037f00000000000000000000000000000000000000000000000000000000000000001690636352211e90602401602060405180830381865afa158015610310573d6000803e3d6000fd5b505050506040513d601f19601f82011682018060405250810190610334919061120f565b86601d61094a565b8167ffffffffffffffff8111156103555761035561122c565b60405190808252806020026020018201604052801561037e578160200160208202803683370190505b506040805133602082015290810186905290915060600160405160208183030381529060405280519060200120935060005b828110156105f757600260008585848181106103ce576103ce611242565b90506020028101906103e09190611258565b6103ee9060208101906111cf565b6001600160a01b0316815260208101919091526040016000205460ff1661046b5783838281811061042157610421611242565b90506020028101906104339190611258565b6104419060208101906111cf565b604051630f308fc760e31b81526001600160a01b0390911660048201526024015b60405180910390fd5b600084848381811061047f5761047f611242565b90506020028101906104919190611258565b61049f9060208101906111cf565b60405163090981b360e11b815260048101899052602481018890526001600160a01b0391909116906312130366906044016020604051808303816000875af11580156104ef573d6000803e3d6000fd5b505050506040513d601f19601f82011682018060405250810190610513919061120f565b90508083838151811061052857610528611242565b6001600160a01b03909216602092830291909101820152600088815260019182905260409020610559918390610ace565b50806001600160a01b0316632241dc5286868581811061057b5761057b611242565b905060200281019061058d9190611258565b61059b906020810190611278565b6040518363ffffffff1660e01b81526004016105b89291906112c2565b600060405180830381600087803b1580156105d257600080fd5b505af11580156105e6573d6000803e3d6000fd5b5050600190930192506103b0915050565b507fd982fdd7a5657847f0905ad1aff9ab6105d1ff64590493b3486837504dafe55a8582604051610629929190611352565b60405180910390a1949350505050565b600081815260016020526040902060609061065390610aec565b92915050565b610661610b00565b60005b8181101561072c5760016002600085858581811061068457610684611242565b905060200201602081019061069991906111cf565b6001600160a01b031681526020810191909152604001600020805460ff19169115159190911790557ff6e6facda29906a01d337146a9b928ac09b423901f28e0e001d43550448b370b8383838181106106f4576106f4611242565b905060200201602081019061070991906111cf565b6040516001600160a01b03909116815260200160405180910390a1600101610664565b505050565b610739610b00565b610744600080610c06565b565b600082815260016020819052604082206107609084610d8f565b149392505050565b60408051606081018252600080546001600160a01b0381168352600160a01b81046001600160581b031660208401819052600160f81b90910460ff16938301939093529182036107b85751919050565b60208101516040516331a9108f60e11b81526001600160581b0390911660048201527f00000000000000000000000000000000000000000000000000000000000000006001600160a01b031690636352211e90602401602060405180830381865afa15801561082b573d6000803e3d6000fd5b505050506040513d601f19601f8201168201806040525081019061084f919061120f565b91505090565b61085d610b00565b80158061087057506001600160581b0381115b1561088e5760405163ecb9b1c760e01b815260040160405180910390fd5b610899600082610c06565b50565b6108a4610b00565b61089981610da4565b6108b5610b00565b6001600160a01b0381166108dc5760405163ecb9b1c760e01b815260040160405180910390fd5b610899816000610c06565b6108ef610b00565b6001600160a01b038116600081815260026020908152604091829020805460ff1916600117905590519182527ff6e6facda29906a01d337146a9b928ac09b423901f28e0e001d43550448b370b91015b60405180910390a150565b336001600160a01b0384168114801590610a01575060405163c161c93f60e01b81526001600160a01b038281166004830152858116602483015260448201859052606482018490527f0000000000000000000000000000000000000000000000000000000000000000169063c161c93f90608401602060405180830381865afa1580156109db573d6000803e3d6000fd5b505050506040513d601f19601f820116820180604052508101906109ff919061136b565b155b8015610aaa575060405163c161c93f60e01b81526001600160a01b038281166004830152858116602483015260006044830152606482018490527f0000000000000000000000000000000000000000000000000000000000000000169063c161c93f90608401602060405180830381865afa158015610a84573d6000803e3d6000fd5b505050506040513d601f19601f82011682018060405250810190610aa8919061136b565b155b15610ac85760405163075fd2b160e01b815260040160405180910390fd5b50505050565b6000610ae4846001600160a01b03851684610df4565b949350505050565b60606000610af983610e11565b9392505050565b604080516060810182526000546001600160a01b0381168252600160a01b81046001600160581b031660208301819052600160f81b90910460ff1692820192909252906108999015610be85760208201516040516331a9108f60e11b81526001600160581b0390911660048201527f00000000000000000000000000000000000000000000000000000000000000006001600160a01b031690636352211e90602401602060405180830381865afa158015610bbf573d6000803e3d6000fd5b505050506040513d601f19601f82011682018060405250810190610be3919061120f565b610beb565b81515b82602001516001600160581b0316836040015160ff1661094a565b6001600160581b03811615801590610c2657506001600160a01b03821615155b15610c445760405163ecb9b1c760e01b815260040160405180910390fd5b60408051606081018252600080546001600160a01b0381168352600160a01b81046001600160581b031660208401819052600160f81b90910460ff1693830193909352909115610d2a5760208201516040516331a9108f60e11b81526001600160581b0390911660048201527f00000000000000000000000000000000000000000000000000000000000000006001600160a01b031690636352211e90602401602060405180830381865afa158015610d01573d6000803e3d6000fd5b505050506040513d601f19601f82011682018060405250810190610d25919061120f565b610d2d565b81515b604080516060810182526001600160a01b0387168082526001600160581b0387166020830181905260009290930182905281546001600160f81b03191617600160a01b909202919091176001600160f81b031690559050610ac8818585610e1c565b6000610af9836001600160a01b038416610f0e565b600080546001600160f81b0316600160f81b60ff8416908102919091179091556040519081527f6f4725627084d54c46c628b050805457a1cd38c5cd20c1f00132960f8b546fed9060200161093f565b60008281526002840160205260408120829055610ae48484610f55565b606061065382610f61565b303b1561072c576001600160581b03811615610ec8576040516331a9108f60e11b81526001600160581b03821660048201527f00000000000000000000000000000000000000000000000000000000000000006001600160a01b031690636352211e90602401602060405180830381865afa158015610e9f573d6000803e3d6000fd5b505050506040513d601f19601f82011682018060405250810190610ec3919061120f565b610eca565b815b6001600160a01b0316836001600160a01b03167f8be0079c531659141344cd1fd0a4f28419497f9722a3daafe3b4186f6b6457e060405160405180910390a3505050565b600081815260028301602052604081205480158015610f345750610f328484610f6e565b155b15610af95760405163015ab34360e11b815260048101849052602401610462565b6000610af98383610f8d565b60606000610af983610fdc565b6000610af9838360008181526001830160205260408120541515610af9565b6000818152600183016020526040812054610fd457508154600181810184556000848152602080822090930184905584548482528286019093526040902091909155610653565b506000610653565b60608160000180548060200260200160405190810160405280929190818152602001828054801561102c57602002820191906000526020600020905b815481526020019060010190808311611018575b50505050509050919050565b60008083601f84011261104a57600080fd5b50813567ffffffffffffffff81111561106257600080fd5b6020830191508360208260051b850101111561107d57600080fd5b9250929050565b6000806000806060858703121561109a57600080fd5b8435935060208501359250604085013567ffffffffffffffff8111156110bf57600080fd5b6110cb87828801611038565b95989497509550505050565b60008151808452602080850194506020840160005b838110156111115781516001600160a01b0316875295820195908201906001016110ec565b509495945050505050565b602081526000610af960208301846110d7565b60006020828403121561114157600080fd5b5035919050565b6000806020838503121561115b57600080fd5b823567ffffffffffffffff81111561117257600080fd5b61117e85828601611038565b90969095509350505050565b6001600160a01b038116811461089957600080fd5b600080604083850312156111b257600080fd5b8235915060208301356111c48161118a565b809150509250929050565b6000602082840312156111e157600080fd5b8135610af98161118a565b6000602082840312156111fe57600080fd5b813560ff81168114610af957600080fd5b60006020828403121561122157600080fd5b8151610af98161118a565b634e487b7160e01b600052604160045260246000fd5b634e487b7160e01b600052603260045260246000fd5b60008235603e1983360301811261126e57600080fd5b9190910192915050565b6000808335601e1984360301811261128f57600080fd5b83018035915067ffffffffffffffff8211156112aa57600080fd5b6020019150600781901b360382131561107d57600080fd5b602080825281810183905260009060408084018684805b888110156113445782356112ec8161118a565b6001600160a01b039081168552838701359063ffffffff8216808314611310578485fd5b868901528487013591506113238261118a565b168486015260608381013590850152608093840193909201916001016112d9565b509198975050505050505050565b828152604060208201526000610ae460408301846110d7565b60006020828403121561137d57600080fd5b81518015158114610af957600080fdfea26469706673582212205d728ad6cc6b8f7330c51fe248aff4335ab3b8bd06b09f79daebea54abaaa6f664736f6c63430008170033",
			"deployedBytecode": "0x608060405234801561001057600080fd5b50600436106100ea5760003560e01c8063a1031a4f1161008c578063c0fb5e8511610066578063c0fb5e8514610244578063f2fde38b14610257578063f434c9141461026a578063f73ac20f1461029157600080fd5b8063a1031a4f146101ae578063a220d696146101d1578063ba23c36e146101e457600080fd5b8063669745a5116100c8578063669745a514610166578063715018a61461017b57806383db9d01146101835780638da5cb5b146101a657600080fd5b8063293c4999146100ef5780632f3f50e0146101335780633d12cb8714610153575b600080fd5b6101167f000000000000000000000000f9dada4628eb3992202cf253625d4ecebbc1592f81565b6040516001600160a01b0390911681526020015b60405180910390f35b610146610141366004611084565b6102a4565b60405161012a919061111c565b61014661016136600461112f565b610639565b610179610174366004611148565b610659565b005b610179610731565b61019661019136600461119f565b610746565b604051901515815260200161012a565b610116610768565b6101966101bc3660046111cf565b60026020526000908152604090205460ff1681565b6101796101df36600461112f565b610855565b600054610214906001600160a01b03811690600160a01b81046001600160581b031690600160f81b900460ff1683565b604080516001600160a01b0390941684526001600160581b03909216602084015260ff169082015260600161012a565b6101796102523660046111ec565b61089c565b6101796102653660046111cf565b6108ad565b6101167f0000000000000000000000001e2e8562b635fe19978640c784e47865a83d660581565b61017961029f3660046111cf565b6108e7565b6040516331a9108f60e11b81526004810185905260609061033c906001600160a01b037f000000000000000000000000f9dada4628eb3992202cf253625d4ecebbc1592f1690636352211e90602401602060405180830381865afa158015610310573d6000803e3d6000fd5b505050506040513d601f19601f82011682018060405250810190610334919061120f565b86601d61094a565b8167ffffffffffffffff8111156103555761035561122c565b60405190808252806020026020018201604052801561037e578160200160208202803683370190505b506040805133602082015290810186905290915060600160405160208183030381529060405280519060200120935060005b828110156105f757600260008585848181106103ce576103ce611242565b90506020028101906103e09190611258565b6103ee9060208101906111cf565b6001600160a01b0316815260208101919091526040016000205460ff1661046b5783838281811061042157610421611242565b90506020028101906104339190611258565b6104419060208101906111cf565b604051630f308fc760e31b81526001600160a01b0390911660048201526024015b60405180910390fd5b600084848381811061047f5761047f611242565b90506020028101906104919190611258565b61049f9060208101906111cf565b60405163090981b360e11b815260048101899052602481018890526001600160a01b0391909116906312130366906044016020604051808303816000875af11580156104ef573d6000803e3d6000fd5b505050506040513d601f19601f82011682018060405250810190610513919061120f565b90508083838151811061052857610528611242565b6001600160a01b03909216602092830291909101820152600088815260019182905260409020610559918390610ace565b50806001600160a01b0316632241dc5286868581811061057b5761057b611242565b905060200281019061058d9190611258565b61059b906020810190611278565b6040518363ffffffff1660e01b81526004016105b89291906112c2565b600060405180830381600087803b1580156105d257600080fd5b505af11580156105e6573d6000803e3d6000fd5b5050600190930192506103b0915050565b507fd982fdd7a5657847f0905ad1aff9ab6105d1ff64590493b3486837504dafe55a8582604051610629929190611352565b60405180910390a1949350505050565b600081815260016020526040902060609061065390610aec565b92915050565b610661610b00565b60005b8181101561072c5760016002600085858581811061068457610684611242565b905060200201602081019061069991906111cf565b6001600160a01b031681526020810191909152604001600020805460ff19169115159190911790557ff6e6facda29906a01d337146a9b928ac09b423901f28e0e001d43550448b370b8383838181106106f4576106f4611242565b905060200201602081019061070991906111cf565b6040516001600160a01b03909116815260200160405180910390a1600101610664565b505050565b610739610b00565b610744600080610c06565b565b600082815260016020819052604082206107609084610d8f565b149392505050565b60408051606081018252600080546001600160a01b0381168352600160a01b81046001600160581b031660208401819052600160f81b90910460ff16938301939093529182036107b85751919050565b60208101516040516331a9108f60e11b81526001600160581b0390911660048201527f000000000000000000000000f9dada4628eb3992202cf253625d4ecebbc1592f6001600160a01b031690636352211e90602401602060405180830381865afa15801561082b573d6000803e3d6000fd5b505050506040513d601f19601f8201168201806040525081019061084f919061120f565b91505090565b61085d610b00565b80158061087057506001600160581b0381115b1561088e5760405163ecb9b1c760e01b815260040160405180910390fd5b610899600082610c06565b50565b6108a4610b00565b61089981610da4565b6108b5610b00565b6001600160a01b0381166108dc5760405163ecb9b1c760e01b815260040160405180910390fd5b610899816000610c06565b6108ef610b00565b6001600160a01b038116600081815260026020908152604091829020805460ff1916600117905590519182527ff6e6facda29906a01d337146a9b928ac09b423901f28e0e001d43550448b370b91015b60405180910390a150565b336001600160a01b0384168114801590610a01575060405163c161c93f60e01b81526001600160a01b038281166004830152858116602483015260448201859052606482018490527f0000000000000000000000001e2e8562b635fe19978640c784e47865a83d6605169063c161c93f90608401602060405180830381865afa1580156109db573d6000803e3d6000fd5b505050506040513d601f19601f820116820180604052508101906109ff919061136b565b155b8015610aaa575060405163c161c93f60e01b81526001600160a01b038281166004830152858116602483015260006044830152606482018490527f0000000000000000000000001e2e8562b635fe19978640c784e47865a83d6605169063c161c93f90608401602060405180830381865afa158015610a84573d6000803e3d6000fd5b505050506040513d601f19601f82011682018060405250810190610aa8919061136b565b155b15610ac85760405163075fd2b160e01b815260040160405180910390fd5b50505050565b6000610ae4846001600160a01b03851684610df4565b949350505050565b60606000610af983610e11565b9392505050565b604080516060810182526000546001600160a01b0381168252600160a01b81046001600160581b031660208301819052600160f81b90910460ff1692820192909252906108999015610be85760208201516040516331a9108f60e11b81526001600160581b0390911660048201527f000000000000000000000000f9dada4628eb3992202cf253625d4ecebbc1592f6001600160a01b031690636352211e90602401602060405180830381865afa158015610bbf573d6000803e3d6000fd5b505050506040513d601f19601f82011682018060405250810190610be3919061120f565b610beb565b81515b82602001516001600160581b0316836040015160ff1661094a565b6001600160581b03811615801590610c2657506001600160a01b03821615155b15610c445760405163ecb9b1c760e01b815260040160405180910390fd5b60408051606081018252600080546001600160a01b0381168352600160a01b81046001600160581b031660208401819052600160f81b90910460ff1693830193909352909115610d2a5760208201516040516331a9108f60e11b81526001600160581b0390911660048201527f000000000000000000000000f9dada4628eb3992202cf253625d4ecebbc1592f6001600160a01b031690636352211e90602401602060405180830381865afa158015610d01573d6000803e3d6000fd5b505050506040513d601f19601f82011682018060405250810190610d25919061120f565b610d2d565b81515b604080516060810182526001600160a01b0387168082526001600160581b0387166020830181905260009290930182905281546001600160f81b03191617600160a01b909202919091176001600160f81b031690559050610ac8818585610e1c565b6000610af9836001600160a01b038416610f0e565b600080546001600160f81b0316600160f81b60ff8416908102919091179091556040519081527f6f4725627084d54c46c628b050805457a1cd38c5cd20c1f00132960f8b546fed9060200161093f565b60008281526002840160205260408120829055610ae48484610f55565b606061065382610f61565b303b1561072c576001600160581b03811615610ec8576040516331a9108f60e11b81526001600160581b03821660048201527f000000000000000000000000f9dada4628eb3992202cf253625d4ecebbc1592f6001600160a01b031690636352211e90602401602060405180830381865afa158015610e9f573d6000803e3d6000fd5b505050506040513d601f19601f82011682018060405250810190610ec3919061120f565b610eca565b815b6001600160a01b0316836001600160a01b03167f8be0079c531659141344cd1fd0a4f28419497f9722a3daafe3b4186f6b6457e060405160405180910390a3505050565b600081815260028301602052604081205480158015610f345750610f328484610f6e565b155b15610af95760405163015ab34360e11b815260048101849052602401610462565b6000610af98383610f8d565b60606000610af983610fdc565b6000610af9838360008181526001830160205260408120541515610af9565b6000818152600183016020526040812054610fd457508154600181810184556000848152602080822090930184905584548482528286019093526040902091909155610653565b506000610653565b60608160000180548060200260200160405190810160405280929190818152602001828054801561102c57602002820191906000526020600020905b815481526020019060010190808311611018575b50505050509050919050565b60008083601f84011261104a57600080fd5b50813567ffffffffffffffff81111561106257600080fd5b6020830191508360208260051b850101111561107d57600080fd5b9250929050565b6000806000806060858703121561109a57600080fd5b8435935060208501359250604085013567ffffffffffffffff8111156110bf57600080fd5b6110cb87828801611038565b95989497509550505050565b60008151808452602080850194506020840160005b838110156111115781516001600160a01b0316875295820195908201906001016110ec565b509495945050505050565b602081526000610af960208301846110d7565b60006020828403121561114157600080fd5b5035919050565b6000806020838503121561115b57600080fd5b823567ffffffffffffffff81111561117257600080fd5b61117e85828601611038565b90969095509350505050565b6001600160a01b038116811461089957600080fd5b600080604083850312156111b257600080fd5b8235915060208301356111c48161118a565b809150509250929050565b6000602082840312156111e157600080fd5b8135610af98161118a565b6000602082840312156111fe57600080fd5b813560ff81168114610af957600080fd5b60006020828403121561122157600080fd5b8151610af98161118a565b634e487b7160e01b600052604160045260246000fd5b634e487b7160e01b600052603260045260246000fd5b60008235603e1983360301811261126e57600080fd5b9190910192915050565b6000808335601e1984360301811261128f57600080fd5b83018035915067ffffffffffffffff8211156112aa57600080fd5b6020019150600781901b360382131561107d57600080fd5b602080825281810183905260009060408084018684805b888110156113445782356112ec8161118a565b6001600160a01b039081168552838701359063ffffffff8216808314611310578485fd5b868901528487013591506113238261118a565b168486015260608381013590850152608093840193909201916001016112d9565b509198975050505050505050565b828152604060208201526000610ae460408301846110d7565b60006020828403121561137d57600080fd5b81518015158114610af957600080fdfea26469706673582212205d728ad6cc6b8f7330c51fe248aff4335ab3b8bd06b09f79daebea54abaaa6f664736f6c63430008170033",
			"devdoc": {
				"kind": "dev",
				"methods": {
					"allowSuckerDeployer(address)": {
						"details": "Can only be called by this contract's owner (initially project ID 1, or JuiceboxDAO).",
						"params": {
							"deployer": "The address of the deployer to add."
						}
					},
					"allowSuckerDeployers(address[])": {
						"details": "Can only be called by this contract's owner (initially project ID 1, or JuiceboxDAO).",
						"params": {
							"deployers": "The address of the deployer to add."
						}
					},
					"deploySuckersFor(uint256,bytes32,(address,(address,uint32,address,uint256)[])[])": {
						"details": "The caller must be the project's owner or have `JBPermissionIds.DEPLOY_SUCKERS` from the project's owner.",
						"params": {
							"configurations": "The sucker deployer configs to use to deploy the suckers.",
							"projectId": "The ID of the project to deploy suckers for.",
							"salt": "The salt used to deploy the contract. For the suckers to be peers, this must be the same value on each chain where suckers are deployed."
						},
						"returns": {
							"suckers": "The addresses of the deployed suckers."
						}
					},
					"isSuckerOf(uint256,address)": {
						"params": {
							"projectId": "The ID of the project to check for.",
							"suckerAddress": "The address of the sucker to check."
						}
					},
					"setPermissionId(uint8)": {
						"params": {
							"permissionId": "The ID of the permission to use for `onlyOwner`."
						}
					},
					"suckersOf(uint256)": {
						"params": {
							"projectId": "The ID of the project to get the suckers of."
						}
					},
					"transferOwnership(address)": {
						"params": {
							"newOwner": "The address that should receive ownership of this contract."
						}
					},
					"transferOwnershipToProject(uint256)": {
						"details": "The `projectId` must fit within a `uint88`.",
						"params": {
							"projectId": "The ID of the project that should receive ownership of this contract."
						}
					}
				},
				"version": 1
			},
			"userdoc": {
				"kind": "user",
				"methods": {
					"PERMISSIONS()": {
						"notice": "A contract storing permissions."
					},
					"PROJECTS()": {
						"notice": "Mints ERC-721s that represent project ownership and transfers."
					},
					"allowSuckerDeployer(address)": {
						"notice": "Adds a suckers deployer to the allowlist."
					},
					"allowSuckerDeployers(address[])": {
						"notice": "Adds multiple suckers deployer to the allowlist."
					},
					"deploySuckersFor(uint256,bytes32,(address,(address,uint32,address,uint256)[])[])": {
						"notice": "Deploy one or more suckers for the specified project."
					},
					"isSuckerOf(uint256,address)": {
						"notice": "Returns true if the specified sucker belongs to the specified project, and was deployed through this registry."
					},
					"jbOwner()": {
						"notice": "This contract's owner information."
					},
					"owner()": {
						"notice": "Returns the owner's address based on this contract's `JBOwner` owner information."
					},
					"renounceOwnership()": {
						"notice": "Gives up ownership of this contract, making it impossible to call `onlyOwner`/`_checkOwner` functions. Can only be called by the current owner."
					},
					"setPermissionId(uint8)": {
						"notice": "Sets the permission ID which, when granted from the owner, allows other addresses to perform operations on their behalf."
					},
					"suckerDeployerIsAllowed(address)": {
						"notice": "Tracks whether the specified sucker deployer is approved by this registry."
					},
					"suckersOf(uint256)": {
						"notice": "Gets all of the specified project's suckers which were deployed through this registry."
					},
					"transferOwnership(address)": {
						"notice": "Transfers ownership of this contract to a new account (the `newOwner`). Can only be called by the current owner."
					},
					"transferOwnershipToProject(uint256)": {
						"notice": "Transfer ownership of this contract to a new Juicebox project."
					}
				},
				"version": 1
			},
			"gitCommit": "7d1e170198d655b28588d06b0c8c3cbb79082b17",
			"sourceName": "src/BPSuckerRegistry.sol",
			"chainId": "421614",
			"linkReferences": {},
			"deployedLinkReferences": {}
		}
	]
}