{
	"format": "sphinx-sol-ct-artifact-1",
	"merkleRoot": "0xe51b4ec8049762768ee1e74175cc677453cfd48e9031b7abf73679aabb9235cd",
	"address": "0x2aa1146b81bfaf1730bb7685bd384908d4bee51d",
	"sourceName": "src/JBArbitrumSucker.sol",
	"contractName": "JBArbitrumSucker",
	"chainId": "0x66eee",
	"abi": [
		{
			"inputs": [
				{
					"internalType": "contract JBArbitrumSuckerDeployer",
					"name": "deployer",
					"type": "address"
				},
				{
					"internalType": "contract IJBDirectory",
					"name": "directory",
					"type": "address"
				},
				{
					"internalType": "contract IJBPermissions",
					"name": "permissions",
					"type": "address"
				},
				{
					"internalType": "contract IJBTokens",
					"name": "tokens",
					"type": "address"
				},
				{
					"internalType": "enum JBAddToBalanceMode",
					"name": "addToBalanceMode",
					"type": "uint8"
				},
				{
					"internalType": "address",
					"name": "trusted_forwarder",
					"type": "address"
				}
			],
			"stateMutability": "nonpayable",
			"type": "constructor"
		},
		{
			"stateMutability": "payable",
			"type": "receive"
		},
		{
			"inputs": [],
			"name": "ADD_TO_BALANCE_MODE",
			"outputs": [
				{
					"internalType": "enum JBAddToBalanceMode",
					"name": "",
					"type": "uint8"
				}
			],
			"stateMutability": "view",
			"type": "function"
		},
		{
			"inputs": [],
			"name": "ARBINBOX",
			"outputs": [
				{
					"internalType": "contract IInbox",
					"name": "",
					"type": "address"
				}
			],
			"stateMutability": "view",
			"type": "function"
		},
		{
			"inputs": [],
			"name": "DEPLOYER",
			"outputs": [
				{
					"internalType": "address",
					"name": "",
					"type": "address"
				}
			],
			"stateMutability": "view",
			"type": "function"
		},
		{
			"inputs": [],
			"name": "DIRECTORY",
			"outputs": [
				{
					"internalType": "contract IJBDirectory",
					"name": "",
					"type": "address"
				}
			],
			"stateMutability": "view",
			"type": "function"
		},
		{
			"inputs": [],
			"name": "GATEWAYROUTER",
			"outputs": [
				{
					"internalType": "contract IArbGatewayRouter",
					"name": "",
					"type": "address"
				}
			],
			"stateMutability": "view",
			"type": "function"
		},
		{
			"inputs": [],
			"name": "LAYER",
			"outputs": [
				{
					"internalType": "enum JBLayer",
					"name": "",
					"type": "uint8"
				}
			],
			"stateMutability": "view",
			"type": "function"
		},
		{
			"inputs": [],
			"name": "MESSENGER_BASE_GAS_LIMIT",
			"outputs": [
				{
					"internalType": "uint32",
					"name": "",
					"type": "uint32"
				}
			],
			"stateMutability": "view",
			"type": "function"
		},
		{
			"inputs": [],
			"name": "MESSENGER_ERC20_MIN_GAS_LIMIT",
			"outputs": [
				{
					"internalType": "uint32",
					"name": "",
					"type": "uint32"
				}
			],
			"stateMutability": "view",
			"type": "function"
		},
		{
			"inputs": [],
			"name": "PERMISSIONS",
			"outputs": [
				{
					"internalType": "contract IJBPermissions",
					"name": "",
					"type": "address"
				}
			],
			"stateMutability": "view",
			"type": "function"
		},
		{
			"inputs": [],
			"name": "TOKENS",
			"outputs": [
				{
					"internalType": "contract IJBTokens",
					"name": "",
					"type": "address"
				}
			],
			"stateMutability": "view",
			"type": "function"
		},
		{
			"inputs": [
				{
					"internalType": "address",
					"name": "token",
					"type": "address"
				}
			],
			"name": "addOutstandingAmountToBalance",
			"outputs": [],
			"stateMutability": "nonpayable",
			"type": "function"
		},
		{
			"inputs": [
				{
					"internalType": "address",
					"name": "token",
					"type": "address"
				}
			],
			"name": "amountToAddToBalanceOf",
			"outputs": [
				{
					"internalType": "uint256",
					"name": "",
					"type": "uint256"
				}
			],
			"stateMutability": "view",
			"type": "function"
		},
		{
			"inputs": [
				{
					"components": [
						{
							"internalType": "address",
							"name": "token",
							"type": "address"
						},
						{
							"components": [
								{
									"internalType": "uint256",
									"name": "index",
									"type": "uint256"
								},
								{
									"internalType": "address",
									"name": "beneficiary",
									"type": "address"
								},
								{
									"internalType": "uint256",
									"name": "projectTokenCount",
									"type": "uint256"
								},
								{
									"internalType": "uint256",
									"name": "terminalTokenAmount",
									"type": "uint256"
								}
							],
							"internalType": "struct JBLeaf",
							"name": "leaf",
							"type": "tuple"
						},
						{
							"internalType": "bytes32[32]",
							"name": "proof",
							"type": "bytes32[32]"
						}
					],
					"internalType": "struct JBClaim",
					"name": "claimData",
					"type": "tuple"
				}
			],
			"name": "claim",
			"outputs": [],
			"stateMutability": "nonpayable",
			"type": "function"
		},
		{
			"inputs": [
				{
					"components": [
						{
							"internalType": "address",
							"name": "token",
							"type": "address"
						},
						{
							"components": [
								{
									"internalType": "uint256",
									"name": "index",
									"type": "uint256"
								},
								{
									"internalType": "address",
									"name": "beneficiary",
									"type": "address"
								},
								{
									"internalType": "uint256",
									"name": "projectTokenCount",
									"type": "uint256"
								},
								{
									"internalType": "uint256",
									"name": "terminalTokenAmount",
									"type": "uint256"
								}
							],
							"internalType": "struct JBLeaf",
							"name": "leaf",
							"type": "tuple"
						},
						{
							"internalType": "bytes32[32]",
							"name": "proof",
							"type": "bytes32[32]"
						}
					],
					"internalType": "struct JBClaim[]",
					"name": "claims",
					"type": "tuple[]"
				}
			],
			"name": "claim",
			"outputs": [],
			"stateMutability": "nonpayable",
			"type": "function"
		},
		{
			"inputs": [
				{
					"internalType": "address[]",
					"name": "tokens",
					"type": "address[]"
				}
			],
			"name": "enableEmergencyHatchFor",
			"outputs": [],
			"stateMutability": "nonpayable",
			"type": "function"
		},
		{
			"inputs": [
				{
					"components": [
						{
							"internalType": "address",
							"name": "token",
							"type": "address"
						},
						{
							"components": [
								{
									"internalType": "uint256",
									"name": "index",
									"type": "uint256"
								},
								{
									"internalType": "address",
									"name": "beneficiary",
									"type": "address"
								},
								{
									"internalType": "uint256",
									"name": "projectTokenCount",
									"type": "uint256"
								},
								{
									"internalType": "uint256",
									"name": "terminalTokenAmount",
									"type": "uint256"
								}
							],
							"internalType": "struct JBLeaf",
							"name": "leaf",
							"type": "tuple"
						},
						{
							"internalType": "bytes32[32]",
							"name": "proof",
							"type": "bytes32[32]"
						}
					],
					"internalType": "struct JBClaim",
					"name": "claimData",
					"type": "tuple"
				}
			],
			"name": "exitThroughEmergencyHatch",
			"outputs": [],
			"stateMutability": "nonpayable",
			"type": "function"
		},
		{
			"inputs": [
				{
					"components": [
						{
							"internalType": "address",
							"name": "token",
							"type": "address"
						},
						{
							"internalType": "uint256",
							"name": "amount",
							"type": "uint256"
						},
						{
							"components": [
								{
									"internalType": "uint64",
									"name": "nonce",
									"type": "uint64"
								},
								{
									"internalType": "bytes32",
									"name": "root",
									"type": "bytes32"
								}
							],
							"internalType": "struct JBInboxTreeRoot",
							"name": "remoteRoot",
							"type": "tuple"
						}
					],
					"internalType": "struct JBMessageRoot",
					"name": "root",
					"type": "tuple"
				}
			],
			"name": "fromRemote",
			"outputs": [],
			"stateMutability": "payable",
			"type": "function"
		},
		{
			"inputs": [
				{
					"internalType": "address",
					"name": "token",
					"type": "address"
				}
			],
			"name": "inboxOf",
			"outputs": [
				{
					"components": [
						{
							"internalType": "uint64",
							"name": "nonce",
							"type": "uint64"
						},
						{
							"internalType": "bytes32",
							"name": "root",
							"type": "bytes32"
						}
					],
					"internalType": "struct JBInboxTreeRoot",
					"name": "",
					"type": "tuple"
				}
			],
			"stateMutability": "view",
			"type": "function"
		},
		{
			"inputs": [
				{
					"internalType": "uint256",
					"name": "__projectId",
					"type": "uint256"
				}
			],
			"name": "initialize",
			"outputs": [],
			"stateMutability": "nonpayable",
			"type": "function"
		},
		{
			"inputs": [
				{
					"internalType": "address",
					"name": "token",
					"type": "address"
				}
			],
			"name": "isMapped",
			"outputs": [
				{
					"internalType": "bool",
					"name": "",
					"type": "bool"
				}
			],
			"stateMutability": "view",
			"type": "function"
		},
		{
			"inputs": [
				{
					"internalType": "address",
					"name": "forwarder",
					"type": "address"
				}
			],
			"name": "isTrustedForwarder",
			"outputs": [
				{
					"internalType": "bool",
					"name": "",
					"type": "bool"
				}
			],
			"stateMutability": "view",
			"type": "function"
		},
		{
			"inputs": [
				{
					"components": [
						{
							"internalType": "address",
							"name": "localToken",
							"type": "address"
						},
						{
							"internalType": "uint32",
							"name": "minGas",
							"type": "uint32"
						},
						{
							"internalType": "address",
							"name": "remoteToken",
							"type": "address"
						},
						{
							"internalType": "uint256",
							"name": "minBridgeAmount",
							"type": "uint256"
						}
					],
					"internalType": "struct JBTokenMapping",
					"name": "map",
					"type": "tuple"
				}
			],
			"name": "mapToken",
			"outputs": [],
			"stateMutability": "payable",
			"type": "function"
		},
		{
			"inputs": [
				{
					"components": [
						{
							"internalType": "address",
							"name": "localToken",
							"type": "address"
						},
						{
							"internalType": "uint32",
							"name": "minGas",
							"type": "uint32"
						},
						{
							"internalType": "address",
							"name": "remoteToken",
							"type": "address"
						},
						{
							"internalType": "uint256",
							"name": "minBridgeAmount",
							"type": "uint256"
						}
					],
					"internalType": "struct JBTokenMapping[]",
					"name": "maps",
					"type": "tuple[]"
				}
			],
			"name": "mapTokens",
			"outputs": [],
			"stateMutability": "payable",
			"type": "function"
		},
		{
			"inputs": [
				{
					"internalType": "address",
					"name": "token",
					"type": "address"
				}
			],
			"name": "outboxOf",
			"outputs": [
				{
					"components": [
						{
							"internalType": "uint64",
							"name": "nonce",
							"type": "uint64"
						},
						{
							"internalType": "uint256",
							"name": "balance",
							"type": "uint256"
						},
						{
							"components": [
								{
									"internalType": "bytes32[32]",
									"name": "branch",
									"type": "bytes32[32]"
								},
								{
									"internalType": "uint256",
									"name": "count",
									"type": "uint256"
								}
							],
							"internalType": "struct MerkleLib.Tree",
							"name": "tree",
							"type": "tuple"
						},
						{
							"internalType": "uint256",
							"name": "numberOfClaimsSent",
							"type": "uint256"
						}
					],
					"internalType": "struct JBOutboxTree",
					"name": "",
					"type": "tuple"
				}
			],
			"stateMutability": "view",
			"type": "function"
		},
		{
			"inputs": [],
			"name": "peer",
			"outputs": [
				{
					"internalType": "address",
					"name": "",
					"type": "address"
				}
			],
			"stateMutability": "view",
			"type": "function"
		},
		{
			"inputs": [],
			"name": "peerChainId",
			"outputs": [
				{
					"internalType": "uint256",
					"name": "",
					"type": "uint256"
				}
			],
			"stateMutability": "view",
			"type": "function"
		},
		{
			"inputs": [
				{
					"internalType": "uint256",
					"name": "projectTokenCount",
					"type": "uint256"
				},
				{
					"internalType": "address",
					"name": "beneficiary",
					"type": "address"
				},
				{
					"internalType": "uint256",
					"name": "minTokensReclaimed",
					"type": "uint256"
				},
				{
					"internalType": "address",
					"name": "token",
					"type": "address"
				}
			],
			"name": "prepare",
			"outputs": [],
			"stateMutability": "nonpayable",
			"type": "function"
		},
		{
			"inputs": [],
			"name": "projectId",
			"outputs": [
				{
					"internalType": "uint256",
					"name": "",
					"type": "uint256"
				}
			],
			"stateMutability": "view",
			"type": "function"
		},
		{
			"inputs": [
				{
					"internalType": "address",
					"name": "token",
					"type": "address"
				}
			],
			"name": "remoteTokenFor",
			"outputs": [
				{
					"components": [
						{
							"internalType": "bool",
							"name": "enabled",
							"type": "bool"
						},
						{
							"internalType": "bool",
							"name": "emergencyHatch",
							"type": "bool"
						},
						{
							"internalType": "uint32",
							"name": "minGas",
							"type": "uint32"
						},
						{
							"internalType": "address",
							"name": "addr",
							"type": "address"
						},
						{
							"internalType": "uint256",
							"name": "minBridgeAmount",
							"type": "uint256"
						}
					],
					"internalType": "struct JBRemoteToken",
					"name": "",
					"type": "tuple"
				}
			],
			"stateMutability": "view",
			"type": "function"
		},
		{
			"inputs": [
				{
					"internalType": "uint40",
					"name": "timestamp",
					"type": "uint40"
				}
			],
			"name": "setDeprecation",
			"outputs": [],
			"stateMutability": "nonpayable",
			"type": "function"
		},
		{
			"inputs": [],
			"name": "state",
			"outputs": [
				{
					"internalType": "enum JBSuckerState",
					"name": "",
					"type": "uint8"
				}
			],
			"stateMutability": "view",
			"type": "function"
		},
		{
			"inputs": [
				{
					"internalType": "bytes4",
					"name": "interfaceId",
					"type": "bytes4"
				}
			],
			"name": "supportsInterface",
			"outputs": [
				{
					"internalType": "bool",
					"name": "",
					"type": "bool"
				}
			],
			"stateMutability": "view",
			"type": "function"
		},
		{
			"inputs": [
				{
					"internalType": "address",
					"name": "token",
					"type": "address"
				}
			],
			"name": "toRemote",
			"outputs": [],
			"stateMutability": "payable",
			"type": "function"
		},
		{
			"inputs": [],
			"name": "trustedForwarder",
			"outputs": [
				{
					"internalType": "address",
					"name": "",
					"type": "address"
				}
			],
			"stateMutability": "view",
			"type": "function"
		},
		{
			"anonymous": false,
			"inputs": [
				{
					"indexed": false,
					"internalType": "address",
					"name": "beneficiary",
					"type": "address"
				},
				{
					"indexed": false,
					"internalType": "address",
					"name": "token",
					"type": "address"
				},
				{
					"indexed": false,
					"internalType": "uint256",
					"name": "projectTokenCount",
					"type": "uint256"
				},
				{
					"indexed": false,
					"internalType": "uint256",
					"name": "terminalTokenAmount",
					"type": "uint256"
				},
				{
					"indexed": false,
					"internalType": "uint256",
					"name": "index",
					"type": "uint256"
				},
				{
					"indexed": false,
					"internalType": "bool",
					"name": "autoAddedToBalance",
					"type": "bool"
				},
				{
					"indexed": false,
					"internalType": "address",
					"name": "caller",
					"type": "address"
				}
			],
			"name": "Claimed",
			"type": "event"
		},
		{
			"anonymous": false,
			"inputs": [
				{
					"indexed": false,
					"internalType": "uint40",
					"name": "timestamp",
					"type": "uint40"
				},
				{
					"indexed": false,
					"internalType": "address",
					"name": "caller",
					"type": "address"
				}
			],
			"name": "DeprecationTimeUpdated",
			"type": "event"
		},
		{
			"anonymous": false,
			"inputs": [
				{
					"indexed": false,
					"internalType": "address[]",
					"name": "tokens",
					"type": "address[]"
				},
				{
					"indexed": false,
					"internalType": "address",
					"name": "caller",
					"type": "address"
				}
			],
			"name": "EmergencyHatchOpened",
			"type": "event"
		},
		{
			"anonymous": false,
			"inputs": [
				{
					"indexed": false,
					"internalType": "uint64",
					"name": "version",
					"type": "uint64"
				}
			],
			"name": "Initialized",
			"type": "event"
		},
		{
			"anonymous": false,
			"inputs": [
				{
					"indexed": true,
					"internalType": "address",
					"name": "beneficiary",
					"type": "address"
				},
				{
					"indexed": true,
					"internalType": "address",
					"name": "token",
					"type": "address"
				},
				{
					"indexed": false,
					"internalType": "bytes32",
					"name": "hashed",
					"type": "bytes32"
				},
				{
					"indexed": false,
					"internalType": "uint256",
					"name": "index",
					"type": "uint256"
				},
				{
					"indexed": false,
					"internalType": "bytes32",
					"name": "root",
					"type": "bytes32"
				},
				{
					"indexed": false,
					"internalType": "uint256",
					"name": "projectTokenCount",
					"type": "uint256"
				},
				{
					"indexed": false,
					"internalType": "uint256",
					"name": "terminalTokenAmount",
					"type": "uint256"
				},
				{
					"indexed": false,
					"internalType": "address",
					"name": "caller",
					"type": "address"
				}
			],
			"name": "InsertToOutboxTree",
			"type": "event"
		},
		{
			"anonymous": false,
			"inputs": [
				{
					"indexed": true,
					"internalType": "address",
					"name": "token",
					"type": "address"
				},
				{
					"indexed": false,
					"internalType": "uint64",
					"name": "nonce",
					"type": "uint64"
				},
				{
					"indexed": false,
					"internalType": "bytes32",
					"name": "root",
					"type": "bytes32"
				},
				{
					"indexed": false,
					"internalType": "address",
					"name": "caller",
					"type": "address"
				}
			],
			"name": "NewInboxTreeRoot",
			"type": "event"
		},
		{
			"anonymous": false,
			"inputs": [
				{
					"indexed": true,
					"internalType": "bytes32",
					"name": "root",
					"type": "bytes32"
				},
				{
					"indexed": true,
					"internalType": "address",
					"name": "token",
					"type": "address"
				},
				{
					"indexed": false,
					"internalType": "uint256",
					"name": "index",
					"type": "uint256"
				},
				{
					"indexed": false,
					"internalType": "uint64",
					"name": "nonce",
					"type": "uint64"
				},
				{
					"indexed": false,
					"internalType": "address",
					"name": "caller",
					"type": "address"
				}
			],
			"name": "RootToRemote",
			"type": "event"
		},
		{
			"inputs": [],
			"name": "InvalidInitialization",
			"type": "error"
		},
		{
			"inputs": [
				{
					"internalType": "uint256",
					"name": "chainId",
					"type": "uint256"
				}
			],
			"name": "JBArbitrumSucker_ChainNotSupported",
			"type": "error"
		},
		{
			"inputs": [
				{
					"internalType": "uint256",
					"name": "payment",
					"type": "uint256"
				},
				{
					"internalType": "uint256",
					"name": "cost",
					"type": "uint256"
				}
			],
			"name": "JBArbitrumSucker_NotEnoughGas",
			"type": "error"
		},
		{
			"inputs": [
				{
					"internalType": "address",
					"name": "account",
					"type": "address"
				},
				{
					"internalType": "address",
					"name": "sender",
					"type": "address"
				},
				{
					"internalType": "uint256",
					"name": "projectId",
					"type": "uint256"
				},
				{
					"internalType": "uint256",
					"name": "permissionId",
					"type": "uint256"
				}
			],
			"name": "JBPermissioned_Unauthorized",
			"type": "error"
		},
		{
			"inputs": [
				{
					"internalType": "uint256",
					"name": "minGas",
					"type": "uint256"
				},
				{
					"internalType": "uint256",
					"name": "minGasLimit",
					"type": "uint256"
				}
			],
			"name": "JBSucker_BelowMinGas",
			"type": "error"
		},
		{
			"inputs": [],
			"name": "JBSucker_Deprecated",
			"type": "error"
		},
		{
			"inputs": [
				{
					"internalType": "uint256",
					"name": "givenTime",
					"type": "uint256"
				},
				{
					"internalType": "uint256",
					"name": "minimumTime",
					"type": "uint256"
				}
			],
			"name": "JBSucker_DeprecationTimestampTooSoon",
			"type": "error"
		},
		{
			"inputs": [],
			"name": "JBSucker_ExpectedMsgValue",
			"type": "error"
		},
		{
			"inputs": [
				{
					"internalType": "uint256",
					"name": "amount",
					"type": "uint256"
				},
				{
					"internalType": "uint256",
					"name": "balance",
					"type": "uint256"
				}
			],
			"name": "JBSucker_InsufficientBalance",
			"type": "error"
		},
		{
			"inputs": [
				{
					"internalType": "uint256",
					"name": "received",
					"type": "uint256"
				},
				{
					"internalType": "uint256",
					"name": "expected",
					"type": "uint256"
				}
			],
			"name": "JBSucker_InsufficientMsgValue",
			"type": "error"
		},
		{
			"inputs": [
				{
					"internalType": "address",
					"name": "remoteToken",
					"type": "address"
				}
			],
			"name": "JBSucker_InvalidNativeRemoteAddress",
			"type": "error"
		},
		{
			"inputs": [
				{
					"internalType": "bytes32",
					"name": "root",
					"type": "bytes32"
				},
				{
					"internalType": "bytes32",
					"name": "inboxRoot",
					"type": "bytes32"
				}
			],
			"name": "JBSucker_InvalidProof",
			"type": "error"
		},
		{
			"inputs": [
				{
					"internalType": "address",
					"name": "token",
					"type": "address"
				},
				{
					"internalType": "uint256",
					"name": "index",
					"type": "uint256"
				}
			],
			"name": "JBSucker_LeafAlreadyExecuted",
			"type": "error"
		},
		{
			"inputs": [
				{
					"internalType": "enum JBAddToBalanceMode",
					"name": "mode",
					"type": "uint8"
				}
			],
			"name": "JBSucker_ManualNotAllowed",
			"type": "error"
		},
		{
			"inputs": [
				{
					"internalType": "uint256",
					"name": "projectId",
					"type": "uint256"
				},
				{
					"internalType": "address",
					"name": "token",
					"type": "address"
				}
			],
			"name": "JBSucker_NoTerminalForToken",
			"type": "error"
		},
		{
			"inputs": [
				{
					"internalType": "address",
					"name": "caller",
					"type": "address"
				}
			],
			"name": "JBSucker_NotPeer",
			"type": "error"
		},
		{
			"inputs": [
				{
					"internalType": "uint256",
					"name": "amount",
					"type": "uint256"
				},
				{
					"internalType": "uint256",
					"name": "minimumAmount",
					"type": "uint256"
				}
			],
			"name": "JBSucker_QueueInsufficientSize",
			"type": "error"
		},
		{
			"inputs": [
				{
					"internalType": "address",
					"name": "localToken",
					"type": "address"
				},
				{
					"internalType": "address",
					"name": "mappedTo",
					"type": "address"
				}
			],
			"name": "JBSucker_TokenAlreadyMapped",
			"type": "error"
		},
		{
			"inputs": [
				{
					"internalType": "address",
					"name": "token",
					"type": "address"
				}
			],
			"name": "JBSucker_TokenHasInvalidEmergencyHatchState",
			"type": "error"
		},
		{
			"inputs": [
				{
					"internalType": "address",
					"name": "token",
					"type": "address"
				}
			],
			"name": "JBSucker_TokenNotMapped",
			"type": "error"
		},
		{
			"inputs": [
				{
					"internalType": "uint256",
					"name": "value",
					"type": "uint256"
				}
			],
			"name": "JBSucker_UnexpectedMsgValue",
			"type": "error"
		},
		{
			"inputs": [],
			"name": "JBSucker_ZeroBeneficiary",
			"type": "error"
		},
		{
			"inputs": [],
			"name": "JBSucker_ZeroERC20Token",
			"type": "error"
		},
		{
			"inputs": [],
			"name": "MerkleLib__insert_treeIsFull",
			"type": "error"
		},
		{
			"inputs": [],
			"name": "NotInitializing",
			"type": "error"
		},
		{
			"inputs": [
				{
					"internalType": "address",
					"name": "token",
					"type": "address"
				}
			],
			"name": "SafeERC20FailedOperation",
			"type": "error"
		}
	],
	"args": [],
	"solcInputHash": "53fa016c092dda117e332e7aba6a9761",
	"bytecode": "0x6101a06040523480156200001257600080fd5b50604051620064ea380380620064ea833981016040819052620000359162000314565b6001600160a01b0380821660805280851660a052808616610100528316610120523360e0528484848484816001811115620000745762000074620003a8565b60c08160018111156200008b576200008b620003a8565b905250620000986200023c565b5050505050856001600160a01b03166307fada496040518163ffffffff1660e01b8152600401602060405180830381865afa158015620000dc573d6000803e3d6000fd5b505050506040513d601f19601f82011682018060405250810190620001029190620003be565b6001600160a01b0316610160816001600160a01b031681525050856001600160a01b031663557819a46040518163ffffffff1660e01b8152600401602060405180830381865afa1580156200015b573d6000803e3d6000fd5b505050506040513d601f19601f82011682018060405250810190620001819190620003be565b6001600160a01b0316610140816001600160a01b031681525050856001600160a01b03166370a2b8db6040518163ffffffff1660e01b8152600401602060405180830381865afa158015620001da573d6000803e3d6000fd5b505050506040513d601f19601f82011682018060405250810190620002009190620003e5565b6001811115620002145762000214620003a8565b6101808160018111156200022c576200022c620003a8565b8152505050505050505062000405565b7ff0c57e16840df040f15088dc2f81fe391c3923bec73e23a9662efc9c229c6a00805468010000000000000000900460ff16156200028d5760405163f92ee8a960e01b815260040160405180910390fd5b80546001600160401b0390811614620002ed5780546001600160401b0319166001600160401b0390811782556040519081527fc7f505b2f371ae2175ee4913f4499e1f2633a7b5936321eed1cdaeb6115181d29060200160405180910390a15b50565b6001600160a01b0381168114620002ed57600080fd5b60028110620002ed57600080fd5b60008060008060008060c087890312156200032e57600080fd5b86516200033b81620002f0565b60208801519096506200034e81620002f0565b60408801519095506200036181620002f0565b60608801519094506200037481620002f0565b6080880151909350620003878162000306565b60a08801519092506200039a81620002f0565b809150509295509295509295565b634e487b7160e01b600052602160045260246000fd5b600060208284031215620003d157600080fd5b8151620003de81620002f0565b9392505050565b600060208284031215620003f857600080fd5b8151620003de8162000306565b60805160a05160c05160e0516101005161012051610140516101605161018051615fcc6200051e600039600081816107c001528181612b4f0152818161495f0152614a39015260008181610809015281816150bd01528181615130015281816153a5015261541801526000818161065d01528181612b8801528181614e6801528181614f5001526152650152600081816102b90152610bc30152600081816105f201528181610e770152818161129301528181611c4d01528181611e49015281816122e001526127f20152600061074b01526000818161077f015281816110480152818161107f015281816115750152611bc501526000818161083d015261268c0152600081816104870152610db60152615fcc6000f3fe60806040526004361061021d5760003560e01c8063802c8fa01161011d578063c1854129116100b0578063c86719b71161007f578063defbb69711610064578063defbb697146107f7578063f434c9141461082b578063fe4b84df1461085f57600080fd5b8063c86719b7146107ae578063cdfceeba146107e257600080fd5b8063c1854129146106f7578063c19d93fb14610717578063c1b8411a14610739578063c6525f2c1461076d57600080fd5b8063b1012368116100ec578063b10123681461064b578063b59ef50f1461067f578063b71c11791461069f578063bf557aee146106b257600080fd5b8063802c8fa0146105b357806388bc2ef3146105e057806392ee1ea7146106145780639e6d7d431461062b57600080fd5b8063551ebbf0116101b057806369d31fdd1161017f578063754515591161016457806375451559146104585780637da0a877146104785780637de6fba2146104ab57600080fd5b806369d31fdd146103cc5780636d9e384b146103df57600080fd5b8063551ebbf01461034c578063572b6c051461036c5780636284386a1461038c57806369ce2233146103ac57600080fd5b80632241dc52116101ec5780632241dc52146102db57806338eb2044146102ee5780633a5de07d146103015780633fafa1271461032d57600080fd5b806301ffc9a7146102295780630f6482141461025e57806311cda415146102805780631d831d5c146102a757600080fd5b3661022457005b600080fd5b34801561023557600080fd5b5061024961024436600461561f565b61087f565b60405190151581526020015b60405180910390f35b34801561026a57600080fd5b5061027e610279366004615661565b6109b0565b005b34801561028c57600080fd5b50305b6040516001600160a01b039091168152602001610255565b3480156102b357600080fd5b5061028f7f000000000000000000000000000000000000000000000000000000000000000081565b61027e6102e936600461567a565b610a67565b61027e6102fc366004615701565b610b75565b34801561030d57600080fd5b5061031862030d4081565b60405163ffffffff9091168152602001610255565b34801561033957600080fd5b506001545b604051908152602001610255565b34801561035857600080fd5b5061027e610367366004615732565b610b7f565b34801561037857600080fd5b5061024961038736600461577c565b610db2565b34801561039857600080fd5b5061027e6103a7366004615799565b610df1565b3480156103b857600080fd5b5061027e6103c736600461577c565b611044565b61027e6103da366004615701565b6110e3565b3480156103eb57600080fd5b5061044b6103fa36600461577c565b6040805180820190915260008082526020820152506001600160a01b03166000908152600360209081526040918290208251808401909352805467ffffffffffffffff168352600101549082015290565b60405161025591906157c0565b34801561046457600080fd5b5061027e6104733660046157e1565b611281565b34801561048457600080fd5b507f000000000000000000000000000000000000000000000000000000000000000061028f565b3480156104b757600080fd5b5061055e6104c636600461577c565b6040805160a0808201835260008083526020808401829052838501829052606080850183905260809485018390526001600160a01b039687168352600582529185902085519384018652805460ff8082161515865261010082041615159285019290925262010000820463ffffffff169584019590955266010000000000009004909416938101939093526001909101549082015290565b6040516102559190600060a08201905082511515825260208301511515602083015263ffffffff60408401511660408301526001600160a01b0360608401511660608301526080830151608083015292915050565b3480156105bf57600080fd5b506105d36105ce36600461577c565b61141c565b6040516102559190615844565b3480156105ec57600080fd5b5061028f7f000000000000000000000000000000000000000000000000000000000000000081565b34801561062057600080fd5b50610318620493e081565b34801561063757600080fd5b5061033e61064636600461577c565b6114bc565b34801561065757600080fd5b5061028f7f000000000000000000000000000000000000000000000000000000000000000081565b34801561068b57600080fd5b5061027e61069a366004615661565b6114ec565b61027e6106ad36600461577c565b611612565b3480156106be57600080fd5b506102496106cd36600461577c565b6001600160a01b039081166000908152600560205260409020546601000000000000900416151590565b34801561070357600080fd5b5061027e6107123660046158ab565b611755565b34801561072357600080fd5b5061072c61178e565b6040516102559190615925565b34801561074557600080fd5b5061028f7f000000000000000000000000000000000000000000000000000000000000000081565b34801561077957600080fd5b506107a17f000000000000000000000000000000000000000000000000000000000000000081565b604051610255919061594f565b3480156107ba57600080fd5b506107a17f000000000000000000000000000000000000000000000000000000000000000081565b3480156107ee57600080fd5b5061033e6117d5565b34801561080357600080fd5b5061028f7f000000000000000000000000000000000000000000000000000000000000000081565b34801561083757600080fd5b5061028f7f000000000000000000000000000000000000000000000000000000000000000081565b34801561086b57600080fd5b5061027e61087a36600461595c565b61182b565b60007fffffffff0000000000000000000000000000000000000000000000000000000082167f18a5af2700000000000000000000000000000000000000000000000000000000148061091257507fffffffff0000000000000000000000000000000000000000000000000000000082167f4c74205e00000000000000000000000000000000000000000000000000000000145b8061095e57507fffffffff0000000000000000000000000000000000000000000000000000000082167ff434c91400000000000000000000000000000000000000000000000000000000145b806109aa57507f01ffc9a7000000000000000000000000000000000000000000000000000000007fffffffff000000000000000000000000000000000000000000000000000000008316145b92915050565b6109e860608201356109c5602084018461577c565b60808401356109da606086016040870161577c565b602086013560a08701611990565b6080810135600460006109fe602085018561577c565b6001600160a01b03166001600160a01b031681526020019081526020016000206001016000828254610a30919061598b565b90915550610a649050610a46602083018361577c565b608083013560608401803590610a5f906040870161577c565b611bc1565b50565b6000805b82811015610b2257600060046000868685818110610a8b57610a8b61599e565b610aa1926020608090920201908101915061577c565b6001600160a01b03168152602081019190915260400160009081209150858584818110610ad057610ad061599e565b9050608002016040016020810190610ae8919061577c565b6001600160a01b0316148015610b0657506022810154602382015414155b15610b195782610b15816159b4565b9350505b50600101610a6b565b5060005b82811015610b6f57610b67848483818110610b4357610b4361599e565b90506080020160008411610b58576000611d6a565b610b6284346159ce565b611d6a565b600101610b26565b50505050565b610a648134611d6a565b6001600160a01b038316610bbf576040517f8d3329cd00000000000000000000000000000000000000000000000000000000815260040160405180910390fd5b60007f00000000000000000000000000000000000000000000000000000000000000006001600160a01b031663ea78803f610bf960015490565b6040518263ffffffff1660e01b8152600401610c1791815260200190565b602060405180830381865afa158015610c34573d6000803e3d6000fd5b505050506040513d601f19601f82011682018060405250810190610c5891906159f0565b90506001600160a01b038116610c9a576040517fcaa06d2000000000000000000000000000000000000000000000000000000000815260040160405180910390fd5b6001600160a01b03821660009081526005602052604090205460ff16610cfc576040517f04fdbe060000000000000000000000000000000000000000000000000000000081526001600160a01b03831660048201526024015b60405180910390fd5b6000610d0661178e565b90506003816003811115610d1c57610d1c61590f565b1480610d3957506002816003811115610d3757610d3761590f565b145b15610d70576040517fb10f8cca00000000000000000000000000000000000000000000000000000000815260040160405180910390fd5b610d8d610d7b612204565b6001600160a01b038416903089612213565b6000610d9b8388868861228f565b9050610da98785838961247d565b50505050505050565b60007f00000000000000000000000000000000000000000000000000000000000000005b6001600160a01b0316826001600160a01b0316149050919050565b6000610dfb61178e565b90506003816003811115610e1157610e1161590f565b1480610e2e57506002816003811115610e2c57610e2c61590f565b145b15610e65576040517fb10f8cca00000000000000000000000000000000000000000000000000000000815260040160405180910390fd5b6000610e7060015490565b9050610f6d7f00000000000000000000000000000000000000000000000000000000000000006001600160a01b031663293c49996040518163ffffffff1660e01b8152600401602060405180830381865afa158015610ed3573d6000803e3d6000fd5b505050506040513d601f19601f82011682018060405250810190610ef791906159f0565b6001600160a01b0316636352211e836040518263ffffffff1660e01b8152600401610f2491815260200190565b602060405180830381865afa158015610f41573d6000803e3d6000fd5b505050506040513d601f19601f82011682018060405250810190610f6591906159f0565b82601e612607565b6000610f7c6212750042615a0d565b905064ffffffffff841615801590610f9a5750808464ffffffffff16105b15610fe1576040517f044691ac00000000000000000000000000000000000000000000000000000000815264ffffffffff8516600482015260248101829052604401610cf3565b64ffffffffff84166000557f455efa76af2a8686dc0dd3041bda89ece5ba4691277d525e2161003bbca8b24584611016612204565b6040805164ffffffffff90931683526001600160a01b0390911660208301520160405180910390a150505050565b60007f000000000000000000000000000000000000000000000000000000000000000060018111156110785761107861590f565b146110d1577f00000000000000000000000000000000000000000000000000000000000000006040517fb039c395000000000000000000000000000000000000000000000000000000008152600401610cf3919061594f565b610a64816110de836114bc565b612751565b6110f36110ee612204565b612b4a565b61113d576110ff612204565b6040517f36183c8f0000000000000000000000000000000000000000000000000000000081526001600160a01b039091166004820152602401610cf3565b600060038161114f602085018561577c565b6001600160a01b0316815260208101919091526040908101600020805490925067ffffffffffffffff169061118a9060608501908501615a20565b67ffffffffffffffff161180156111ba575060036111a661178e565b60038111156111b7576111b761590f565b14155b1561127d576111cf6060830160408401615a20565b815467ffffffffffffffff191667ffffffffffffffff9190911617815560608201356001820155611203602083018361577c565b6001600160a01b03167fc69d3412489554fb7820c4c2784cb644b6c79bfc117444b93977d3d33a9b8eac61123d6060850160408601615a20565b606085013561124a612204565b6040805167ffffffffffffffff909416845260208401929092526001600160a01b03169082015260600160405180910390a25b5050565b600061128c60015490565b90506112ef7f00000000000000000000000000000000000000000000000000000000000000006001600160a01b031663293c49996040518163ffffffff1660e01b8152600401602060405180830381865afa158015610ed3573d6000803e3d6000fd5b60005b828110156113d4576000600560008686858181106113125761131261599e565b9050602002016020810190611327919061577c565b6001600160a01b031681526020810191909152604001600090812080547fffffffffffffffffffffffffffffffffffffffffffffffffffffffffffffff0016921515929092179091556001906005908686858181106113885761138861599e565b905060200201602081019061139d919061577c565b6001600160a01b03168152602081019190915260400160002080549115156101000261ff00199092169190911790556001016112f2565b507f8021bce60b20a9afb57085869a3552e0ee5b272b868df894fb30c5e90e74c0728383611400612204565b60405161140f93929190615a4a565b60405180910390a1505050565b61142461556e565b6001600160a01b0382166000908152600460209081526040918290208251608081018452815467ffffffffffffffff1681526001820154818401528351610440810180865291949293858401939192600286019284929083019184919082845b815481526020019060010190808311611484575050509183525050602091820154908201529082526023929092015491015292915050565b6001600160a01b0381166000908152600460205260408120600101546114e28330612d21565b6109aa919061598b565b6115246060820135611501602084018461577c565b6080840135611516606086016040870161577c565b602086013560a08701612de7565b7faaca6f6829d340365b5e6599e0d513cbb4602b94f58ccf16ac77d8d3ae7139ef611555606083016040840161577c565b611562602084018461577c565b60608401356080850135602086013560017f000000000000000000000000000000000000000000000000000000000000000060018111156115a5576115a561590f565b146115b15760006115b4565b60015b6115bc612204565b604080516001600160a01b039889168152968816602088015286019490945260608501929092526080840152151560a083015290911660c082015260e00160405180910390a1610a64610a46602083018361577c565b6001600160a01b03808216600090815260056020908152604091829020825160a081018452815460ff808216151583526101008204161580159483019490945263ffffffff6201000082041694820194909452660100000000000090930490931660608301526001909201546080820152906116c5576040517f4bba81f00000000000000000000000000000000000000000000000000000000081526001600160a01b0383166004820152602401610cf3565b60808101516001600160a01b038316600090815260046020526040902060010154101561174a576001600160a01b03821660009081526004602081905260409182902060010154608084015192517fc3e11b79000000000000000000000000000000000000000000000000000000008152918201526024810191909152604401610cf3565b61127d348383612ebd565b60005b81811015611789576117818383838181106117755761177561599e565b90506104a002016114ec565b600101611758565b505050565b600080548082036117a157600091505090565b6117ae621275008261598b565b4210156117bd57600191505090565b804210156117cd57600291505090565b600391505090565b60004660001981016117ea5761a4b191505090565b61a4b181036117fb57600191505090565b62aa36a7810361180f5762066eee91505090565b62066eee81036118235762aa36a791505090565b600091505090565b7ff0c57e16840df040f15088dc2f81fe391c3923bec73e23a9662efc9c229c6a00805468010000000000000000810460ff16159067ffffffffffffffff166000811580156118765750825b905060008267ffffffffffffffff1660011480156118935750303b155b9050811580156118a1575080155b156118d8576040517ff92ee8a900000000000000000000000000000000000000000000000000000000815260040160405180910390fd5b845467ffffffffffffffff1916600117855583156119225784547fffffffffffffffffffffffffffffffffffffffffffffff00ffffffffffffffff16680100000000000000001785555b600186905583156119885784547fffffffffffffffffffffffffffffffffffffffffffffff00ffffffffffffffff168555604051600181527fc7f505b2f371ae2175ee4913f4499e1f2633a7b5936321eed1cdaeb6115181d29060200160405180910390a15b505050505050565b600061199a61178e565b905060038160038111156119b0576119b061590f565b141580156119d0575060028160038111156119cd576119cd61590f565b14155b80156119fa57506001600160a01b038616600090815260056020526040902054610100900460ff16155b15611a3c576040517f4bba81f00000000000000000000000000000000000000000000000000000000081526001600160a01b0387166004820152602401610cf3565b6001600160a01b0386166000908152600460205260409020602381015415801590611a7757508360018260230154611a74919061598b565b10155b15611ac0576040517fa4e6bcec0000000000000000000000000000000000000000000000000000000081526001600160a01b038816600482015260248101859052604401610cf3565b604080516001600160a01b03891660208201526000910160408051808303601f19018152918152815160209283012060601c60008181526002845282812060088a901c8252909352912054909150600160ff87161b1615611b5f576040517fa4e6bcec0000000000000000000000000000000000000000000000000000000081526001600160a01b038916600482015260248101869052604401610cf3565b6001600160a01b03908116600090815260026020818152604080842060088a901c855282528084208054600160ff8c161b179055938b16835260049052919020611bb791611bad91016130dd565b8988888888614493565b5050505050505050565b60017f00000000000000000000000000000000000000000000000000000000000000006001811115611bf557611bf561590f565b148015611c0157508215155b15611c1057611c108484612751565b6000611c1b60015490565b6040517f5dd8f6aa000000000000000000000000000000000000000000000000000000008152600481018290529091507f00000000000000000000000000000000000000000000000000000000000000006001600160a01b031690635dd8f6aa90602401602060405180830381865afa158015611c9c573d6000803e3d6000fd5b505050506040513d601f19601f82011682018060405250810190611cc091906159f0565b6040517fc7fb92de00000000000000000000000000000000000000000000000000000000815260048101839052602481018590526001600160a01b03848116604483015260a06064830152600060a483018190526084830152919091169063c7fb92de9060c4016020604051808303816000875af1158015611d46573d6000803e3d6000fd5b505050506040513d601f19601f820116820180604052508101906119889190615aaa565b6000611d79602084018461577c565b6001600160a01b03808216600090815260056020908152604091829020825160a081018452815460ff808216151583526101008204161580159483019490945263ffffffff6201000082041694820194909452660100000000000090930490931660608301526001909201546080820152919250611e2e576040517f4bba81f00000000000000000000000000000000000000000000000000000000081526001600160a01b0383166004820152602401610cf3565b611e3784614545565b6000611e4260015490565b9050611f3f7f00000000000000000000000000000000000000000000000000000000000000006001600160a01b031663293c49996040518163ffffffff1660e01b8152600401602060405180830381865afa158015611ea5573d6000803e3d6000fd5b505050506040513d601f19601f82011682018060405250810190611ec991906159f0565b6001600160a01b0316636352211e836040518263ffffffff1660e01b8152600401611ef691815260200190565b602060405180830381865afa158015611f13573d6000803e3d6000fd5b505050506040513d601f19601f82011682018060405250810190611f3791906159f0565b82601c612607565b60608201516001600160a01b031615801590611f805750611f66606086016040870161577c565b6001600160a01b031682606001516001600160a01b031614155b8015611fa557506000611f99606087016040880161577c565b6001600160a01b031614155b8015611fcb57506001600160a01b03831660009081526004602052604090206022015415155b1561201b5760608201516040517f1460b5460000000000000000000000000000000000000000000000000000000081526001600160a01b0380861660048301529091166024820152604401610cf3565b600061202d606087016040880161577c565b6001600160a01b031614801561206457506001600160a01b0383166000908152600460205260409020602281015460239091015414155b1561207457612074848484612ebd565b6040518060a0016040528060006001600160a01b031687604001602081019061209d919061577c565b6001600160a01b03161415151581526020016000151581526020018660200160208101906120cb9190615ac3565b63ffffffff16815260200160006120e86060890160408a0161577c565b6001600160a01b03161461210b57612106606088016040890161577c565b612111565b83606001515b6001600160a01b039081168252606097880135602092830152948516600090815260058252604090819020835181549385015192850151998501517fffffffffffffffffffffffffffffffffffffffffffffffffffffffffffff000090941690151561ff0019161761010092151592909202919091177fffffffffffff000000000000000000000000000000000000000000000000ffff166201000063ffffffff909916989098027fffffffffffff0000000000000000000000000000000000000000ffffffffffff16979097176601000000000000919095160293909317855550506080015160019092019190915550565b600061220e614680565b905090565b6040516001600160a01b038481166024830152838116604483015260648201839052610b6f9186918216906323b872dd906084015b604051602081830303815290604052915060e01b6020820180517bffffffffffffffffffffffffffffffffffffffffffffffffffffffff83818316178352505050506146d2565b60008061229b60015490565b6040517f86202650000000000000000000000000000000000000000000000000000000008152600481018290526001600160a01b0386811660248301529192506000917f00000000000000000000000000000000000000000000000000000000000000001690638620265090604401602060405180830381865afa158015612327573d6000803e3d6000fd5b505050506040513d601f19601f8201168201806040525081019061234b91906159f0565b90506001600160a01b03811661239f576040517fb61c181f000000000000000000000000000000000000000000000000000000008152600481018390526001600160a01b0386166024820152604401610cf3565b60006123ab8630612d21565b604080516020810182526000815290517f13da83170000000000000000000000000000000000000000000000000000000081529192506001600160a01b038416916313da83179161240a91309188918d918d918d918691600401615b39565b6020604051808303816000875af1158015612429573d6000803e3d6000fd5b505050506040513d601f19601f8201168201806040525081019061244d9190615aaa565b93508061245a8730612d21565b612464919061598b565b841461247257612472615b8c565b505050949350505050565b6040805160208082018790528183018590526001600160a01b03841660608084019190915283518084039091018152608090920190925280519101206000906001600160a01b03851660009081526004602090815260408083208151610440810180845295965090946125269387936002880192849291830191849182845b8154815260200190600101908083116124fc5750505091835250506020918201549101529061475c565b80519091508190600284019061253f908290602061559a565b5060208201518160200155905050848260010160008282546125619190615a0d565b92505081905550856001600160a01b0316846001600160a01b03167f584a41ff082fad99bb6e50c5767c347c762057fe5726539f0a8de49d84549c2385600185602001516125af919061598b565b6125bb876002016130dd565b8c8b6125c5612204565b60408051968752602087019590955293850192909252606084015260808301526001600160a01b031660a082015260c00160405180910390a350505050505050565b6000612611612204565b9050836001600160a01b0316816001600160a01b0316141580156126f957506040517f348b684e0000000000000000000000000000000000000000000000000000000081526001600160a01b0382811660048301528581166024830152604482018590526064820184905260016084830181905260a48301527f0000000000000000000000000000000000000000000000000000000000000000169063348b684e9060c401602060405180830381865afa1580156126d3573d6000803e3d6000fd5b505050506040513d601f19601f820116820180604052508101906126f79190615ba2565b155b15610b6f576040517f264deeaa0000000000000000000000000000000000000000000000000000000081526001600160a01b038086166004830152821660248201526044810184905260648101839052608401610cf3565b600061275c836114bc565b9050808211156127a2576040517f60ec3e710000000000000000000000000000000000000000000000000000000081526004810183905260248101829052604401610cf3565b60006127ad60015490565b6040517f86202650000000000000000000000000000000000000000000000000000000008152600481018290526001600160a01b0386811660248301529192506000917f00000000000000000000000000000000000000000000000000000000000000001690638620265090604401602060405180830381865afa158015612839573d6000803e3d6000fd5b505050506040513d601f19601f8201168201806040525081019061285d91906159f0565b90506001600160a01b0381166128b1576040517fb61c181f000000000000000000000000000000000000000000000000000000008152600481018390526001600160a01b0386166024820152604401610cf3565b6001600160a01b03851661eeee14612a9a576040517f70a082310000000000000000000000000000000000000000000000000000000081523060048201526000906001600160a01b038716906370a0823190602401602060405180830381865afa158015612923573d6000803e3d6000fd5b505050506040513d601f19601f820116820180604052508101906129479190615aaa565b9050612954868387614894565b6040517f9e6eec05000000000000000000000000000000000000000000000000000000008152600481018490526001600160a01b0387811660248301526044820187905260006064830181905260c0608484015260c4830181905260e060a484015260e4830152831690639e6eec059061010401600060405180830381600087803b1580156129e257600080fd5b505af11580156129f6573d6000803e3d6000fd5b505050508481612a06919061598b565b6040517f70a082310000000000000000000000000000000000000000000000000000000081523060048201526001600160a01b038816906370a0823190602401602060405180830381865afa158015612a63573d6000803e3d6000fd5b505050506040513d601f19601f82011682018060405250810190612a879190615aaa565b14612a9457612a94615b8c565b50612b43565b6040517f9e6eec05000000000000000000000000000000000000000000000000000000008152600481018390526001600160a01b0386811660248301526044820186905260006064830181905260c0608484015260c4830181905260e060a484015260e4830152821690639e6eec05908690610104016000604051808303818588803b158015612b2957600080fd5b505af1158015612b3d573d6000803e3d6000fd5b50505050505b5050505050565b6000807f00000000000000000000000000000000000000000000000000000000000000006001811115612b7f57612b7f61590f565b03612d055760007f00000000000000000000000000000000000000000000000000000000000000006001600160a01b031663e78cea926040518163ffffffff1660e01b8152600401602060405180830381865afa158015612be4573d6000803e3d6000fd5b505050506040513d601f19601f82011682018060405250810190612c0891906159f0565b9050806001600160a01b0316836001600160a01b0316148015612cfe5750806001600160a01b031663ab5d89436040518163ffffffff1660e01b8152600401602060405180830381865afa158015612c64573d6000803e3d6000fd5b505050506040513d601f19601f82011682018060405250810190612c8891906159f0565b6001600160a01b03166380648b026040518163ffffffff1660e01b8152600401602060405180830381865afa158015612cc5573d6000803e3d6000fd5b505050506040513d601f19601f82011682018060405250810190612ce991906159f0565b6001600160a01b0316306001600160a01b0316145b9392505050565b7311110000000000000000000000000000000011113001610dd6565b60007fffffffffffffffffffffffffffffffffffffffffffffffffffffffffffff11126001600160a01b03841601612d6457506001600160a01b038116316109aa565b6040517f70a082310000000000000000000000000000000000000000000000000000000081526001600160a01b0383811660048301528416906370a0823190602401602060405180830381865afa158015612dc3573d6000803e3d6000fd5b505050506040513d601f19601f82011682018060405250810190612cfe9190615aaa565b6001600160a01b0385166000908152600260209081526040808320600886901c8452909152902054600160ff84161b1615612e60576040517fa4e6bcec0000000000000000000000000000000000000000000000000000000081526001600160a01b038616600482015260248101839052604401610cf3565b6001600160a01b0385166000908152600260209081526040808320600886901c845290915290208054600160ff85161b1790556001600160a01b038516600090815260036020526040902060010154611988908786868686614493565b60608101516001600160a01b0316612f0c576040517f04fdbe060000000000000000000000000000000000000000000000000000000081526001600160a01b0383166004820152602401610cf3565b6000612f1661178e565b90506003816003811115612f2c57612f2c61590f565b1480612f4957506002816003811115612f4757612f4761590f565b145b15612f80576040517fb10f8cca00000000000000000000000000000000000000000000000000000000815260040160405180910390fd5b6001600160a01b03831660009081526004602052604081206001810180549083905581549192909183908290612fbf9067ffffffffffffffff16615bc4565b91906101000a81548167ffffffffffffffff021916908367ffffffffffffffff160217905590506000612ff4846002016130dd565b602285015460238601819055909150600061301060018361598b565b9050886001600160a01b0316837f47c5615513b0f669da2dd7e3362a34610ca2695d0a0e2da2160cee952eab203c8387613048612204565b6040805193845267ffffffffffffffff90921660208401526001600160a01b03169082015260600160405180910390a3600060405180606001604052808a606001516001600160a01b0316815260200187815260200160405180604001604052808867ffffffffffffffff1681526020018781525081525090506130d08b838c898d86614952565b5050505050505050505050565b602081015460009080820361311457507f27ae5ba08d7291c96c8cbddcc148bf48a6d68c7974b94356f53754ef6171d75792915050565b60008360018316156131365780546000526000602052604060002093506139e9565b600283161561317b5760018101546000527fad3228b676f7d3cd4284a5443f17f1962b36e491b30a40b2405849e597ba5fb560205260406000209350600191506139e9565b60048316156131c05760028101546000527fb4c11951957c6f8f642c4af61cd6b24640fec6dc7fc607ee8206a99e92410d3060205260406000209350600291506139e9565b60088316156132055760038101546000527f21ddb9a356815c3fac1026b6dec5df3124afbadb485c9ba5a3e3398a04b7ba8560205260406000209350600391506139e9565b601083161561324a5760048101546000527fe58769b32a1beaf1ea27375a44095a0d1fb664ce2dd358e7fcbfb78c26a1934460205260406000209350600491506139e9565b602083161561328f5760058101546000527f0eb01ebfc9ed27500cd4dfc979272d1f0913cc9f66540d7e8005811109e1cf2d60205260406000209350600591506139e9565b60408316156132d45760068101546000527f887c22bd8750d34016ac3c66b5ff102dacdd73f6b014e710b51e8022af9a196860205260406000209350600691506139e9565b60808316156133195760078101546000527fffd70157e48063fc33c97a050f7f640233bf646cc98d9524c6b92bcf3ab56f8360205260406000209350600791506139e9565b61010083161561335f5760088101546000527f9867cc5f7f196b93bae1e27e6320742445d290f2263827498b54fec539f756af60205260406000209350600891506139e9565b6102008316156133a55760098101546000527fcefad4e508c098b9a7e1d8feb19955fb02ba9675585078710969d3440f5054e060205260406000209350600991506139e9565b6104008316156133eb57600a8101546000527ff9dc3e7fe016e050eff260334f18a5d4fe391d82092319f5964f2e2eb7c1c3a560205260406000209350600a91506139e9565b61080083161561343157600b8101546000527ff8b13a49e282f609c317a833fb8d976d11517c571d1221a265d25af778ecf89260205260406000209350600b91506139e9565b61100083161561347757600c8101546000527f3490c6ceeb450aecdc82e28293031d10c7d73bf85e57bf041a97360aa2c5d99c60205260406000209350600c91506139e9565b6120008316156134bd57600d8101546000527fc1df82d9c4b87413eae2ef048f94b4d3554cea73d92b0f7af96e0271c691e2bb60205260406000209350600d91506139e9565b61400083161561350357600e8101546000527f5c67add7c6caf302256adedf7ab114da0acfe870d449a3a489f781d659e8becc60205260406000209350600e91506139e9565b61800083161561354957600f8101546000527fda7bce9f4e8618b6bd2f4132ce798cdc7a60e7e1460a7299e3c6342a579626d260205260406000209350600f91506139e9565b620100008316156135905760108101546000527f2733e50f526ec2fa19a22b31e8ed50f23cd1fdf94c9154ed3a7609a2f1ff981f60205260406000209350601091506139e9565b620200008316156135d75760118101546000527fe1d3b5c807b281e4683cc6d6315cf95b9ade8641defcb32372f1c126e398ef7a60205260406000209350601191506139e9565b6204000083161561361e5760128101546000527f5a2dce0a8a7f68bb74560f8f71837c2c2ebbcbf7fffb42ae1896f13f7c7479a060205260406000209350601291506139e9565b620800008316156136655760138101546000527fb46a28b6f55540f89444f63de0378e3d121be09e06cc9ded1c20e65876d36aa060205260406000209350601391506139e9565b621000008316156136ac5760148101546000527fc65e9645644786b620e2dd2ad648ddfcbf4a7e5b1a3a4ecfe7f64667a3f0b7e260205260406000209350601491506139e9565b622000008316156136f35760158101546000527ff4418588ed35a2458cffeb39b93d26f18d2ab13bdce6aee58e7b99359ec2dfd960205260406000209350601591506139e9565b6240000083161561373a5760168101546000527f5a9c16dc00d6ef18b7933a6f8dc65ccb55667138776f7dea101070dc8796e37760205260406000209350601691506139e9565b628000008316156137815760178101546000527f4df84f40ae0c8229d0d6069e5c8f39a7c299677a09d367fc7b05e3bc380ee65260205260406000209350601791506139e9565b63010000008316156137c95760188101546000527fcdc72595f74c7b1043d0e1ffbab734648c838dfb0527d971b602bc216c9619ef60205260406000209350601891506139e9565b63020000008316156138115760198101546000527f0abf5ac974a1ed57f4050aa510dd9c74f508277b39d7973bb2dfccc5eeb0618d60205260406000209350601991506139e9565b630400000083161561385957601a8101546000527fb8cd74046ff337f0a7bf2c8e03e10f642c1886798d71806ab1e888d9e5ee87d060205260406000209350601a91506139e9565b63080000008316156138a157601b8101546000527f838c5655cb21c6cb83313b5a631175dff4963772cce9108188b34ac87c81c41e60205260406000209350601b91506139e9565b63100000008316156138e957601c8101546000527f662ee4dd2dd7b2bc707961b1e646c4047669dcb6584f0d8d770daf5d7e7deb2e60205260406000209350601c91506139e9565b632000000083161561393157601d8101546000527f388ab20e2573d171a88108e79d820e98f26c0b84aa8b2f4aa4968dbb818ea32260205260406000209350601d91506139e9565b634000000083161561397957601e8101546000527f93237c50ba75ee485f4c22adf2f741400bdf8d6a9cc7df7ecae576221665d73560205260406000209350601e91506139e9565b63800000008316156139c157601f8101546000527f8448818bb4ae4562849e949e17ac16e0be16688e156b5cf15e098c627c0056a960205260406000209350601f91506139e9565b7f27ae5ba08d7291c96c8cbddcc148bf48a6d68c7974b94356f53754ef6171d7579350602091505b601e821161448b576001821015613a4757600283168015613a1557600182015460005284602052613a3e565b846000527fad3228b676f7d3cd4284a5443f17f1962b36e491b30a40b2405849e597ba5fb56020525b50604060002093505b6002821015613a9d57600483168015613a6b57600282015460005284602052613a94565b846000527fb4c11951957c6f8f642c4af61cd6b24640fec6dc7fc607ee8206a99e92410d306020525b50604060002093505b6003821015613af357600883168015613ac157600382015460005284602052613aea565b846000527f21ddb9a356815c3fac1026b6dec5df3124afbadb485c9ba5a3e3398a04b7ba856020525b50604060002093505b6004821015613b4957601083168015613b1757600482015460005284602052613b40565b846000527fe58769b32a1beaf1ea27375a44095a0d1fb664ce2dd358e7fcbfb78c26a193446020525b50604060002093505b6005821015613b9f57602083168015613b6d57600582015460005284602052613b96565b846000527f0eb01ebfc9ed27500cd4dfc979272d1f0913cc9f66540d7e8005811109e1cf2d6020525b50604060002093505b6006821015613bf557604083168015613bc357600682015460005284602052613bec565b846000527f887c22bd8750d34016ac3c66b5ff102dacdd73f6b014e710b51e8022af9a19686020525b50604060002093505b6007821015613c4b57608083168015613c1957600782015460005284602052613c42565b846000527fffd70157e48063fc33c97a050f7f640233bf646cc98d9524c6b92bcf3ab56f836020525b50604060002093505b6008821015613ca25761010083168015613c7057600882015460005284602052613c99565b846000527f9867cc5f7f196b93bae1e27e6320742445d290f2263827498b54fec539f756af6020525b50604060002093505b6009821015613cf95761020083168015613cc757600982015460005284602052613cf0565b846000527fcefad4e508c098b9a7e1d8feb19955fb02ba9675585078710969d3440f5054e06020525b50604060002093505b600a821015613d505761040083168015613d1e57600a82015460005284602052613d47565b846000527ff9dc3e7fe016e050eff260334f18a5d4fe391d82092319f5964f2e2eb7c1c3a56020525b50604060002093505b600b821015613da75761080083168015613d7557600b82015460005284602052613d9e565b846000527ff8b13a49e282f609c317a833fb8d976d11517c571d1221a265d25af778ecf8926020525b50604060002093505b600c821015613dfe5761100083168015613dcc57600c82015460005284602052613df5565b846000527f3490c6ceeb450aecdc82e28293031d10c7d73bf85e57bf041a97360aa2c5d99c6020525b50604060002093505b600d821015613e555761200083168015613e2357600d82015460005284602052613e4c565b846000527fc1df82d9c4b87413eae2ef048f94b4d3554cea73d92b0f7af96e0271c691e2bb6020525b50604060002093505b600e821015613eac5761400083168015613e7a57600e82015460005284602052613ea3565b846000527f5c67add7c6caf302256adedf7ab114da0acfe870d449a3a489f781d659e8becc6020525b50604060002093505b600f821015613f035761800083168015613ed157600f82015460005284602052613efa565b846000527fda7bce9f4e8618b6bd2f4132ce798cdc7a60e7e1460a7299e3c6342a579626d26020525b50604060002093505b6010821015613f5b576201000083168015613f2957601082015460005284602052613f52565b846000527f2733e50f526ec2fa19a22b31e8ed50f23cd1fdf94c9154ed3a7609a2f1ff981f6020525b50604060002093505b6011821015613fb3576202000083168015613f8157601182015460005284602052613faa565b846000527fe1d3b5c807b281e4683cc6d6315cf95b9ade8641defcb32372f1c126e398ef7a6020525b50604060002093505b601282101561400b576204000083168015613fd957601282015460005284602052614002565b846000527f5a2dce0a8a7f68bb74560f8f71837c2c2ebbcbf7fffb42ae1896f13f7c7479a06020525b50604060002093505b60138210156140635762080000831680156140315760138201546000528460205261405a565b846000527fb46a28b6f55540f89444f63de0378e3d121be09e06cc9ded1c20e65876d36aa06020525b50604060002093505b60148210156140bb576210000083168015614089576014820154600052846020526140b2565b846000527fc65e9645644786b620e2dd2ad648ddfcbf4a7e5b1a3a4ecfe7f64667a3f0b7e26020525b50604060002093505b60158210156141135762200000831680156140e15760158201546000528460205261410a565b846000527ff4418588ed35a2458cffeb39b93d26f18d2ab13bdce6aee58e7b99359ec2dfd96020525b50604060002093505b601682101561416b57624000008316801561413957601682015460005284602052614162565b846000527f5a9c16dc00d6ef18b7933a6f8dc65ccb55667138776f7dea101070dc8796e3776020525b50604060002093505b60178210156141c3576280000083168015614191576017820154600052846020526141ba565b846000527f4df84f40ae0c8229d0d6069e5c8f39a7c299677a09d367fc7b05e3bc380ee6526020525b50604060002093505b601882101561421c576301000000831680156141ea57601882015460005284602052614213565b846000527fcdc72595f74c7b1043d0e1ffbab734648c838dfb0527d971b602bc216c9619ef6020525b50604060002093505b6019821015614275576302000000831680156142435760198201546000528460205261426c565b846000527f0abf5ac974a1ed57f4050aa510dd9c74f508277b39d7973bb2dfccc5eeb0618d6020525b50604060002093505b601a8210156142ce5763040000008316801561429c57601a820154600052846020526142c5565b846000527fb8cd74046ff337f0a7bf2c8e03e10f642c1886798d71806ab1e888d9e5ee87d06020525b50604060002093505b601b821015614327576308000000831680156142f557601b8201546000528460205261431e565b846000527f838c5655cb21c6cb83313b5a631175dff4963772cce9108188b34ac87c81c41e6020525b50604060002093505b601c8210156143805763100000008316801561434e57601c82015460005284602052614377565b846000527f662ee4dd2dd7b2bc707961b1e646c4047669dcb6584f0d8d770daf5d7e7deb2e6020525b50604060002093505b601d8210156143d9576320000000831680156143a757601d820154600052846020526143d0565b846000527f388ab20e2573d171a88108e79d820e98f26c0b84aa8b2f4aa4968dbb818ea3226020525b50604060002093505b601e8210156144325763400000008316801561440057601e82015460005284602052614429565b846000527f93237c50ba75ee485f4c22adf2f741400bdf8d6a9cc7df7ecae576221665d7356020525b50604060002093505b601f82101561448b5763800000008316801561445957601f82015460005284602052614482565b846000527f8448818bb4ae4562849e949e17ac16e0be16688e156b5cf15e098c627c0056a96020525b50604060002093505b505050919050565b6040805160208082018890528183018790526001600160a01b038616606080840191909152835180840390910181526080830180855281519183019190912061048090930190935260009261450192918590828261040080828437600092019190915250879150614a8c9050565b9050868114610da9576040517ee587d20000000000000000000000000000000000000000000000000000000081526004810182905260248101889052604401610cf3565b600061eeee614557602084018461577c565b6001600160a01b031614905080801561458a575061eeee61457e606084016040850161577c565b6001600160a01b031614155b80156145af575060006145a3606084016040850161577c565b6001600160a01b031614155b15614602576145c4606083016040840161577c565b6040517ff41f6def0000000000000000000000000000000000000000000000000000000081526001600160a01b039091166004820152602401610cf3565b62030d406146166040840160208501615ac3565b63ffffffff16108015614627575080155b1561127d5761463c6040830160208401615ac3565b6040517f555d0f1000000000000000000000000000000000000000000000000000000000815263ffffffff909116600482015262030d406024820152604401610cf3565b600036601461468e33610db2565b801561469a5750808210155b156146ca576000366146ac838561598b565b6146b7928290615beb565b6146c091615c15565b60601c9250505090565b339250505090565b600080602060008451602086016000885af1806146f5576040513d6000823e3d81fd5b50506000513d9150811561470d57806001141561471a565b6001600160a01b0384163b155b15610b6f576040517f5274afe70000000000000000000000000000000000000000000000000000000081526001600160a01b0385166004820152602401610cf3565b6147646155d8565b6000836020018051614775906159b4565b908190529050600161478960206002615d41565b614793919061598b565b8111156147cc576040517f8eab04bb00000000000000000000000000000000000000000000000000000000815260040160405180910390fd5b60005b60208110156148615781600116600103614808578451849082602081106147f8576147f861599e565b6020020152508391506109aa9050565b8451816020811061481b5761481b61599e565b60200201518460405160200161483b929190918252602082015260400190565b60408051601f1981840301815291905280516020909101209350600191821c91016147cf565b506040517f8eab04bb00000000000000000000000000000000000000000000000000000000815260040160405180910390fd5b604080516001600160a01b038416602482015260448082018490528251808303909101815260649091019091526020810180517bffffffffffffffffffffffffffffffffffffffffffffffffffffffff167f095ea7b3000000000000000000000000000000000000000000000000000000001790526149138482614dda565b610b6f576040516001600160a01b0384811660248301526000604483015261494891869182169063095ea7b390606401612248565b610b6f84826146d2565b85158015614991575060007f0000000000000000000000000000000000000000000000000000000000000000600181111561498f5761498f61590f565b145b156149c8576040517f3cb7b09b00000000000000000000000000000000000000000000000000000000815260040160405180910390fd5b6000816040516024016149db9190615d4d565b60408051601f198184030181529190526020810180517bffffffffffffffffffffffffffffffffffffffffffffffffffffffff167f69d31fdd00000000000000000000000000000000000000000000000000000000179052905060007f00000000000000000000000000000000000000000000000000000000000000006001811115614a6957614a6961590f565b03614a8057614a7b8588868487614e29565b610da9565b610da98585838661530c565b6020600582811b8216948552835194820394909452604060008181206002851615871b808503919091528386015190528181206004851615871b808503919091528286015190528181206008851615871b80850391909152606086015190528181206010851615871b8085039190915260808087015190915282822084861615881b8086039190915260a0870151905282822083861615881b8086039190915260c0870151905282822090851615871b8085039190915260e0860151905281812061010080861615881b80860392909252860151905281812061020080861615881b80860392909252610120870151909152828220610400861615881b808603919091526101408701519052828220610800861615881b808603919091526101608701519052828220611000861615881b808603919091526101808701519052828220612000861615881b808603919091526101a08701519052828220614000861615881b808603919091526101c08701519052828220618000861615881b808603919091526101e0870151905282822062010000861615881b8086039190915290860151905281812062020000851615871b80850391909152610220860151905281812062040000851615871b80850391909152610240860151905281812062080000851615871b80850391909152610260860151905281812062100000851615871b80850391909152610280860151905281812062200000851615871b808503919091526102a0860151905281812062400000851615871b808503919091526102c0860151905281812062800000851615871b808503919091526102e086015190528181206301000000851615871b8085039190915261030086015190528181206302000000851615871b8085039190915261032086015190528181206304000000851615871b8085039190915261034086015190528181206308000000851615871b8085039190915261036086015190528181206310000000851615871b8085039190915261038086015190528181206320000000851615871b808503919091526103a086015190528181206340000000851615871b808503919091526103c0860151905281812063800000009094161590951b91829003929092526103e090920151909152902090565b6000806000806020600086516020880160008a5af192503d91506000519050828015614e1f57508115614e105780600114614e1f565b6000866001600160a01b03163b115b9695505050505050565b81516040517fa66b327d0000000000000000000000000000000000000000000000000000000081526004810191909152486024820181905260009182907f00000000000000000000000000000000000000000000000000000000000000006001600160a01b03169063a66b327d90604401602060405180830381865afa158015614eb7573d6000803e3d6000fd5b505050506040513d601f19601f82011682018060405250810190614edb9190615aaa565b90506000614eec83620493e0615d99565b614ef69083615a0d565b90506001600160a01b03891661eeee14801590614f1257508615155b15615211576040517fa66b327d00000000000000000000000000000000000000000000000000000000815260606004820152602481018490526000907f00000000000000000000000000000000000000000000000000000000000000006001600160a01b03169063a66b327d90604401602060405180830381865afa158015614f9f573d6000803e3d6000fd5b505050506040513d601f19601f82011682018060405250810190614fc39190615aaa565b9050600084876040015163ffffffff16614fdd9190615d99565b614fe79083615a0d565b9050614ff38184615a0d565b8a101561504057896150058285615a0d565b6040517f514f519600000000000000000000000000000000000000000000000000000000815260048101929092526024820152604401610cf3565b600060028261504f868e61598b565b615059919061598b565b61506391906159ce565b905061506f8183615a0d565b915061507b8185615a0d565b6040517fbda009fe0000000000000000000000000000000000000000000000000000000081526001600160a01b03808f16600483015291955061512e92508d917f0000000000000000000000000000000000000000000000000000000000000000169063bda009fe90602401602060405180830381865afa158015615104573d6000803e3d6000fd5b505050506040513d601f19601f8201168201806040525081019061512891906159f0565b8b614894565b7f00000000000000000000000000000000000000000000000000000000000000006001600160a01b0316634fb1a07b828d615167612204565b308e8d604001518c8a60405180602001604052806000815250604051602001615191929190615db0565b6040516020818303038152906040526040518963ffffffff1660e01b81526004016151c29796959493929190615dd1565b60006040518083038185885af11580156151e0573d6000803e3d6000fd5b50505050506040513d6000823e601f3d908101601f191682016040526152099190810190615e33565b50505061525b565b80881015615255576040517f514f51960000000000000000000000000000000000000000000000000000000081526004810189905260248101829052604401610cf3565b50859250865b6001600160a01b037f000000000000000000000000000000000000000000000000000000000000000016636e6e8a6a6152948684615a0d565b30878661529f612204565b30620493e08b8f6040518a63ffffffff1660e01b81526004016152c9989796959493929190615ee0565b60206040518083038185885af11580156152e7573d6000803e3d6000fd5b50505050506040513d601f19601f82011682018060405250810190612b3d9190615aaa565b60003415615348576040517fd7468c32000000000000000000000000000000000000000000000000000000008152346004820152602401610cf3565b6001600160a01b03851661eeee1480159061536257508315155b156154e7576040517fbda009fe0000000000000000000000000000000000000000000000000000000081526001600160a01b0380871660048301526154169187917f0000000000000000000000000000000000000000000000000000000000000000169063bda009fe90602401602060405180830381865afa1580156153ec573d6000803e3d6000fd5b505050506040513d601f19601f8201168201806040525081019061541091906159f0565b86614894565b7f00000000000000000000000000000000000000000000000000000000000000006001600160a01b0316637b3a3c8b83606001516154513090565b604080516020810182526000815290517fffffffff0000000000000000000000000000000000000000000000000000000060e086901b16815261549a9392918a91600401615f42565b6000604051808303816000875af11580156154b9573d6000803e3d6000fd5b505050506040513d6000823e601f3d908101601f191682016040526154e19190810190615e33565b506154ea565b50825b6040517f928c169a00000000000000000000000000000000000000000000000000000000815260649063928c169a90839061552b9030908890600401615f74565b60206040518083038185885af1158015615549573d6000803e3d6000fd5b50505050506040513d601f19601f820116820180604052508101906119889190615aaa565b604080516080810182526000808252602082015290810161558d6155d8565b8152602001600081525090565b82602081019282156155c8579160200282015b828111156155c85782518255916020019190600101906155ad565b506155d49291506155eb565b5090565b604051806040016040528061558d615600565b5b808211156155d457600081556001016155ec565b6040518061040001604052806020906020820280368337509192915050565b60006020828403121561563157600080fd5b81357fffffffff0000000000000000000000000000000000000000000000000000000081168114612cfe57600080fd5b60006104a0828403121561567457600080fd5b50919050565b6000806020838503121561568d57600080fd5b823567ffffffffffffffff808211156156a557600080fd5b818501915085601f8301126156b957600080fd5b8135818111156156c857600080fd5b8660208260071b85010111156156dd57600080fd5b60209290920196919550909350505050565b60006080828403121561567457600080fd5b60006080828403121561571357600080fd5b612cfe83836156ef565b6001600160a01b0381168114610a6457600080fd5b6000806000806080858703121561574857600080fd5b84359350602085013561575a8161571d565b92506040850135915060608501356157718161571d565b939692955090935050565b60006020828403121561578e57600080fd5b8135612cfe8161571d565b6000602082840312156157ab57600080fd5b813564ffffffffff81168114612cfe57600080fd5b815167ffffffffffffffff16815260208083015190820152604081016109aa565b600080602083850312156157f457600080fd5b823567ffffffffffffffff8082111561580c57600080fd5b818501915085601f83011261582057600080fd5b81358181111561582f57600080fd5b8660208260051b85010111156156dd57600080fd5b815167ffffffffffffffff1681526020808301518183015260408084015180516104808501939260009086015b8482101561588f578251815291840191600191909101908401615871565b5050500151610440830152606092909201516104609091015290565b600080602083850312156158be57600080fd5b823567ffffffffffffffff808211156158d657600080fd5b818501915085601f8301126158ea57600080fd5b8135818111156158f957600080fd5b8660206104a0830285010111156156dd57600080fd5b634e487b7160e01b600052602160045260246000fd5b60208101600483106159395761593961590f565b91905290565b60028110610a6457610a6461590f565b602081016159398361593f565b60006020828403121561596e57600080fd5b5035919050565b634e487b7160e01b600052601160045260246000fd5b818103818111156109aa576109aa615975565b634e487b7160e01b600052603260045260246000fd5b600060001982036159c7576159c7615975565b5060010190565b6000826159eb57634e487b7160e01b600052601260045260246000fd5b500490565b600060208284031215615a0257600080fd5b8151612cfe8161571d565b808201808211156109aa576109aa615975565b600060208284031215615a3257600080fd5b813567ffffffffffffffff81168114612cfe57600080fd5b6040808252810183905260008460608301825b86811015615a8d578235615a708161571d565b6001600160a01b0316825260209283019290910190600101615a5d565b5080925050506001600160a01b0383166020830152949350505050565b600060208284031215615abc57600080fd5b5051919050565b600060208284031215615ad557600080fd5b813563ffffffff81168114612cfe57600080fd5b60005b83811015615b04578181015183820152602001615aec565b50506000910152565b60008151808452615b25816020860160208601615ae9565b601f01601f19169290920160200192915050565b60006001600160a01b03808a168352886020840152876040840152808716606084015285608084015280851660a08401525060e060c0830152615b7f60e0830184615b0d565b9998505050505050505050565b634e487b7160e01b600052600160045260246000fd5b600060208284031215615bb457600080fd5b81518015158114612cfe57600080fd5b600067ffffffffffffffff808316818103615be157615be1615975565b6001019392505050565b60008085851115615bfb57600080fd5b83861115615c0857600080fd5b5050820193919092039150565b7fffffffffffffffffffffffffffffffffffffffff0000000000000000000000008135818116916014851015615c555780818660140360031b1b83161692505b505092915050565b600181815b80851115615c98578160001904821115615c7e57615c7e615975565b80851615615c8b57918102915b93841c9390800290615c62565b509250929050565b600082615caf575060016109aa565b81615cbc575060006109aa565b8160018114615cd25760028114615cdc57615cf8565b60019150506109aa565b60ff841115615ced57615ced615975565b50506001821b6109aa565b5060208310610133831016604e8410600b8410161715615d1b575081810a6109aa565b615d258383615c5d565b8060001904821115615d3957615d39615975565b029392505050565b6000612cfe8383615ca0565b60006080820190506001600160a01b038351168252602083015160208301526040830151615d926040840182805167ffffffffffffffff168252602090810151910152565b5092915050565b80820281158282048414176109aa576109aa615975565b828152604060208201526000615dc96040830184615b0d565b949350505050565b60006001600160a01b03808a168352808916602084015280881660408401525085606083015263ffffffff851660808301528360a083015260e060c0830152615b7f60e0830184615b0d565b634e487b7160e01b600052604160045260246000fd5b600060208284031215615e4557600080fd5b815167ffffffffffffffff80821115615e5d57600080fd5b818401915084601f830112615e7157600080fd5b815181811115615e8357615e83615e1d565b604051601f8201601f19908116603f01168101908382118183101715615eab57615eab615e1d565b81604052828152876020848701011115615ec457600080fd5b615ed5836020830160208801615ae9565b979650505050505050565b60006101006001600160a01b03808c1684528a6020850152896040850152808916606085015280881660808501525063ffffffff861660a08401528460c08401528060e0840152615f3381840185615b0d565b9b9a5050505050505050505050565b60006001600160a01b03808716835280861660208401525083604083015260806060830152614e1f6080830184615b0d565b6001600160a01b0383168152604060208201526000615dc96040830184615b0d56fea26469706673582212200500c61273e2b021941d820a5227bf4f73cb001d4c644416d8de435d591a313464736f6c63430008170033",
	"deployedBytecode": "0x60806040526004361061021d5760003560e01c8063802c8fa01161011d578063c1854129116100b0578063c86719b71161007f578063defbb69711610064578063defbb697146107f7578063f434c9141461082b578063fe4b84df1461085f57600080fd5b8063c86719b7146107ae578063cdfceeba146107e257600080fd5b8063c1854129146106f7578063c19d93fb14610717578063c1b8411a14610739578063c6525f2c1461076d57600080fd5b8063b1012368116100ec578063b10123681461064b578063b59ef50f1461067f578063b71c11791461069f578063bf557aee146106b257600080fd5b8063802c8fa0146105b357806388bc2ef3146105e057806392ee1ea7146106145780639e6d7d431461062b57600080fd5b8063551ebbf0116101b057806369d31fdd1161017f578063754515591161016457806375451559146104585780637da0a877146104785780637de6fba2146104ab57600080fd5b806369d31fdd146103cc5780636d9e384b146103df57600080fd5b8063551ebbf01461034c578063572b6c051461036c5780636284386a1461038c57806369ce2233146103ac57600080fd5b80632241dc52116101ec5780632241dc52146102db57806338eb2044146102ee5780633a5de07d146103015780633fafa1271461032d57600080fd5b806301ffc9a7146102295780630f6482141461025e57806311cda415146102805780631d831d5c146102a757600080fd5b3661022457005b600080fd5b34801561023557600080fd5b5061024961024436600461561f565b61087f565b60405190151581526020015b60405180910390f35b34801561026a57600080fd5b5061027e610279366004615661565b6109b0565b005b34801561028c57600080fd5b50305b6040516001600160a01b039091168152602001610255565b3480156102b357600080fd5b5061028f7f000000000000000000000000a59e9f424901fb9dbd8913a9a32a081f9425bf3681565b61027e6102e936600461567a565b610a67565b61027e6102fc366004615701565b610b75565b34801561030d57600080fd5b5061031862030d4081565b60405163ffffffff9091168152602001610255565b34801561033957600080fd5b506001545b604051908152602001610255565b34801561035857600080fd5b5061027e610367366004615732565b610b7f565b34801561037857600080fd5b5061024961038736600461577c565b610db2565b34801561039857600080fd5b5061027e6103a7366004615799565b610df1565b3480156103b857600080fd5b5061027e6103c736600461577c565b611044565b61027e6103da366004615701565b6110e3565b3480156103eb57600080fd5b5061044b6103fa36600461577c565b6040805180820190915260008082526020820152506001600160a01b03166000908152600360209081526040918290208251808401909352805467ffffffffffffffff168352600101549082015290565b60405161025591906157c0565b34801561046457600080fd5b5061027e6104733660046157e1565b611281565b34801561048457600080fd5b507f0000000000000000000000008a5ba591ed2bed5691a378c65611ed492500f88761028f565b3480156104b757600080fd5b5061055e6104c636600461577c565b6040805160a0808201835260008083526020808401829052838501829052606080850183905260809485018390526001600160a01b039687168352600582529185902085519384018652805460ff8082161515865261010082041615159285019290925262010000820463ffffffff169584019590955266010000000000009004909416938101939093526001909101549082015290565b6040516102559190600060a08201905082511515825260208301511515602083015263ffffffff60408401511660408301526001600160a01b0360608401511660608301526080830151608083015292915050565b3480156105bf57600080fd5b506105d36105ce36600461577c565b61141c565b6040516102559190615844565b3480156105ec57600080fd5b5061028f7f0000000000000000000000000bc9f153dee4d3d474ce0903775b9b2aaae9aa4181565b34801561062057600080fd5b50610318620493e081565b34801561063757600080fd5b5061033e61064636600461577c565b6114bc565b34801561065757600080fd5b5061028f7f000000000000000000000000000000000000000000000000000000000000000081565b34801561068b57600080fd5b5061027e61069a366004615661565b6114ec565b61027e6106ad36600461577c565b611612565b3480156106be57600080fd5b506102496106cd36600461577c565b6001600160a01b039081166000908152600560205260409020546601000000000000900416151590565b34801561070357600080fd5b5061027e6107123660046158ab565b611755565b34801561072357600080fd5b5061072c61178e565b6040516102559190615925565b34801561074557600080fd5b5061028f7f0000000000000000000000004e59b44847b379578588920ca78fbf26c0b4956c81565b34801561077957600080fd5b506107a17f000000000000000000000000000000000000000000000000000000000000000081565b604051610255919061594f565b3480156107ba57600080fd5b506107a17f000000000000000000000000000000000000000000000000000000000000000181565b3480156107ee57600080fd5b5061033e6117d5565b34801561080357600080fd5b5061028f7f0000000000000000000000009fdd1c4e4aa24eec1d913fabea925594a20d43c781565b34801561083757600080fd5b5061028f7f000000000000000000000000f5ca295dc286a176e35ebb7833031fd95550eb1481565b34801561086b57600080fd5b5061027e61087a36600461595c565b61182b565b60007fffffffff0000000000000000000000000000000000000000000000000000000082167f18a5af2700000000000000000000000000000000000000000000000000000000148061091257507fffffffff0000000000000000000000000000000000000000000000000000000082167f4c74205e00000000000000000000000000000000000000000000000000000000145b8061095e57507fffffffff0000000000000000000000000000000000000000000000000000000082167ff434c91400000000000000000000000000000000000000000000000000000000145b806109aa57507f01ffc9a7000000000000000000000000000000000000000000000000000000007fffffffff000000000000000000000000000000000000000000000000000000008316145b92915050565b6109e860608201356109c5602084018461577c565b60808401356109da606086016040870161577c565b602086013560a08701611990565b6080810135600460006109fe602085018561577c565b6001600160a01b03166001600160a01b031681526020019081526020016000206001016000828254610a30919061598b565b90915550610a649050610a46602083018361577c565b608083013560608401803590610a5f906040870161577c565b611bc1565b50565b6000805b82811015610b2257600060046000868685818110610a8b57610a8b61599e565b610aa1926020608090920201908101915061577c565b6001600160a01b03168152602081019190915260400160009081209150858584818110610ad057610ad061599e565b9050608002016040016020810190610ae8919061577c565b6001600160a01b0316148015610b0657506022810154602382015414155b15610b195782610b15816159b4565b9350505b50600101610a6b565b5060005b82811015610b6f57610b67848483818110610b4357610b4361599e565b90506080020160008411610b58576000611d6a565b610b6284346159ce565b611d6a565b600101610b26565b50505050565b610a648134611d6a565b6001600160a01b038316610bbf576040517f8d3329cd00000000000000000000000000000000000000000000000000000000815260040160405180910390fd5b60007f000000000000000000000000a59e9f424901fb9dbd8913a9a32a081f9425bf366001600160a01b031663ea78803f610bf960015490565b6040518263ffffffff1660e01b8152600401610c1791815260200190565b602060405180830381865afa158015610c34573d6000803e3d6000fd5b505050506040513d601f19601f82011682018060405250810190610c5891906159f0565b90506001600160a01b038116610c9a576040517fcaa06d2000000000000000000000000000000000000000000000000000000000815260040160405180910390fd5b6001600160a01b03821660009081526005602052604090205460ff16610cfc576040517f04fdbe060000000000000000000000000000000000000000000000000000000081526001600160a01b03831660048201526024015b60405180910390fd5b6000610d0661178e565b90506003816003811115610d1c57610d1c61590f565b1480610d3957506002816003811115610d3757610d3761590f565b145b15610d70576040517fb10f8cca00000000000000000000000000000000000000000000000000000000815260040160405180910390fd5b610d8d610d7b612204565b6001600160a01b038416903089612213565b6000610d9b8388868861228f565b9050610da98785838961247d565b50505050505050565b60007f0000000000000000000000008a5ba591ed2bed5691a378c65611ed492500f8875b6001600160a01b0316826001600160a01b0316149050919050565b6000610dfb61178e565b90506003816003811115610e1157610e1161590f565b1480610e2e57506002816003811115610e2c57610e2c61590f565b145b15610e65576040517fb10f8cca00000000000000000000000000000000000000000000000000000000815260040160405180910390fd5b6000610e7060015490565b9050610f6d7f0000000000000000000000000bc9f153dee4d3d474ce0903775b9b2aaae9aa416001600160a01b031663293c49996040518163ffffffff1660e01b8152600401602060405180830381865afa158015610ed3573d6000803e3d6000fd5b505050506040513d601f19601f82011682018060405250810190610ef791906159f0565b6001600160a01b0316636352211e836040518263ffffffff1660e01b8152600401610f2491815260200190565b602060405180830381865afa158015610f41573d6000803e3d6000fd5b505050506040513d601f19601f82011682018060405250810190610f6591906159f0565b82601e612607565b6000610f7c6212750042615a0d565b905064ffffffffff841615801590610f9a5750808464ffffffffff16105b15610fe1576040517f044691ac00000000000000000000000000000000000000000000000000000000815264ffffffffff8516600482015260248101829052604401610cf3565b64ffffffffff84166000557f455efa76af2a8686dc0dd3041bda89ece5ba4691277d525e2161003bbca8b24584611016612204565b6040805164ffffffffff90931683526001600160a01b0390911660208301520160405180910390a150505050565b60007f000000000000000000000000000000000000000000000000000000000000000060018111156110785761107861590f565b146110d1577f00000000000000000000000000000000000000000000000000000000000000006040517fb039c395000000000000000000000000000000000000000000000000000000008152600401610cf3919061594f565b610a64816110de836114bc565b612751565b6110f36110ee612204565b612b4a565b61113d576110ff612204565b6040517f36183c8f0000000000000000000000000000000000000000000000000000000081526001600160a01b039091166004820152602401610cf3565b600060038161114f602085018561577c565b6001600160a01b0316815260208101919091526040908101600020805490925067ffffffffffffffff169061118a9060608501908501615a20565b67ffffffffffffffff161180156111ba575060036111a661178e565b60038111156111b7576111b761590f565b14155b1561127d576111cf6060830160408401615a20565b815467ffffffffffffffff191667ffffffffffffffff9190911617815560608201356001820155611203602083018361577c565b6001600160a01b03167fc69d3412489554fb7820c4c2784cb644b6c79bfc117444b93977d3d33a9b8eac61123d6060850160408601615a20565b606085013561124a612204565b6040805167ffffffffffffffff909416845260208401929092526001600160a01b03169082015260600160405180910390a25b5050565b600061128c60015490565b90506112ef7f0000000000000000000000000bc9f153dee4d3d474ce0903775b9b2aaae9aa416001600160a01b031663293c49996040518163ffffffff1660e01b8152600401602060405180830381865afa158015610ed3573d6000803e3d6000fd5b60005b828110156113d4576000600560008686858181106113125761131261599e565b9050602002016020810190611327919061577c565b6001600160a01b031681526020810191909152604001600090812080547fffffffffffffffffffffffffffffffffffffffffffffffffffffffffffffff0016921515929092179091556001906005908686858181106113885761138861599e565b905060200201602081019061139d919061577c565b6001600160a01b03168152602081019190915260400160002080549115156101000261ff00199092169190911790556001016112f2565b507f8021bce60b20a9afb57085869a3552e0ee5b272b868df894fb30c5e90e74c0728383611400612204565b60405161140f93929190615a4a565b60405180910390a1505050565b61142461556e565b6001600160a01b0382166000908152600460209081526040918290208251608081018452815467ffffffffffffffff1681526001820154818401528351610440810180865291949293858401939192600286019284929083019184919082845b815481526020019060010190808311611484575050509183525050602091820154908201529082526023929092015491015292915050565b6001600160a01b0381166000908152600460205260408120600101546114e28330612d21565b6109aa919061598b565b6115246060820135611501602084018461577c565b6080840135611516606086016040870161577c565b602086013560a08701612de7565b7faaca6f6829d340365b5e6599e0d513cbb4602b94f58ccf16ac77d8d3ae7139ef611555606083016040840161577c565b611562602084018461577c565b60608401356080850135602086013560017f000000000000000000000000000000000000000000000000000000000000000060018111156115a5576115a561590f565b146115b15760006115b4565b60015b6115bc612204565b604080516001600160a01b039889168152968816602088015286019490945260608501929092526080840152151560a083015290911660c082015260e00160405180910390a1610a64610a46602083018361577c565b6001600160a01b03808216600090815260056020908152604091829020825160a081018452815460ff808216151583526101008204161580159483019490945263ffffffff6201000082041694820194909452660100000000000090930490931660608301526001909201546080820152906116c5576040517f4bba81f00000000000000000000000000000000000000000000000000000000081526001600160a01b0383166004820152602401610cf3565b60808101516001600160a01b038316600090815260046020526040902060010154101561174a576001600160a01b03821660009081526004602081905260409182902060010154608084015192517fc3e11b79000000000000000000000000000000000000000000000000000000008152918201526024810191909152604401610cf3565b61127d348383612ebd565b60005b81811015611789576117818383838181106117755761177561599e565b90506104a002016114ec565b600101611758565b505050565b600080548082036117a157600091505090565b6117ae621275008261598b565b4210156117bd57600191505090565b804210156117cd57600291505090565b600391505090565b60004660001981016117ea5761a4b191505090565b61a4b181036117fb57600191505090565b62aa36a7810361180f5762066eee91505090565b62066eee81036118235762aa36a791505090565b600091505090565b7ff0c57e16840df040f15088dc2f81fe391c3923bec73e23a9662efc9c229c6a00805468010000000000000000810460ff16159067ffffffffffffffff166000811580156118765750825b905060008267ffffffffffffffff1660011480156118935750303b155b9050811580156118a1575080155b156118d8576040517ff92ee8a900000000000000000000000000000000000000000000000000000000815260040160405180910390fd5b845467ffffffffffffffff1916600117855583156119225784547fffffffffffffffffffffffffffffffffffffffffffffff00ffffffffffffffff16680100000000000000001785555b600186905583156119885784547fffffffffffffffffffffffffffffffffffffffffffffff00ffffffffffffffff168555604051600181527fc7f505b2f371ae2175ee4913f4499e1f2633a7b5936321eed1cdaeb6115181d29060200160405180910390a15b505050505050565b600061199a61178e565b905060038160038111156119b0576119b061590f565b141580156119d0575060028160038111156119cd576119cd61590f565b14155b80156119fa57506001600160a01b038616600090815260056020526040902054610100900460ff16155b15611a3c576040517f4bba81f00000000000000000000000000000000000000000000000000000000081526001600160a01b0387166004820152602401610cf3565b6001600160a01b0386166000908152600460205260409020602381015415801590611a7757508360018260230154611a74919061598b565b10155b15611ac0576040517fa4e6bcec0000000000000000000000000000000000000000000000000000000081526001600160a01b038816600482015260248101859052604401610cf3565b604080516001600160a01b03891660208201526000910160408051808303601f19018152918152815160209283012060601c60008181526002845282812060088a901c8252909352912054909150600160ff87161b1615611b5f576040517fa4e6bcec0000000000000000000000000000000000000000000000000000000081526001600160a01b038916600482015260248101869052604401610cf3565b6001600160a01b03908116600090815260026020818152604080842060088a901c855282528084208054600160ff8c161b179055938b16835260049052919020611bb791611bad91016130dd565b8988888888614493565b5050505050505050565b60017f00000000000000000000000000000000000000000000000000000000000000006001811115611bf557611bf561590f565b148015611c0157508215155b15611c1057611c108484612751565b6000611c1b60015490565b6040517f5dd8f6aa000000000000000000000000000000000000000000000000000000008152600481018290529091507f0000000000000000000000000bc9f153dee4d3d474ce0903775b9b2aaae9aa416001600160a01b031690635dd8f6aa90602401602060405180830381865afa158015611c9c573d6000803e3d6000fd5b505050506040513d601f19601f82011682018060405250810190611cc091906159f0565b6040517fc7fb92de00000000000000000000000000000000000000000000000000000000815260048101839052602481018590526001600160a01b03848116604483015260a06064830152600060a483018190526084830152919091169063c7fb92de9060c4016020604051808303816000875af1158015611d46573d6000803e3d6000fd5b505050506040513d601f19601f820116820180604052508101906119889190615aaa565b6000611d79602084018461577c565b6001600160a01b03808216600090815260056020908152604091829020825160a081018452815460ff808216151583526101008204161580159483019490945263ffffffff6201000082041694820194909452660100000000000090930490931660608301526001909201546080820152919250611e2e576040517f4bba81f00000000000000000000000000000000000000000000000000000000081526001600160a01b0383166004820152602401610cf3565b611e3784614545565b6000611e4260015490565b9050611f3f7f0000000000000000000000000bc9f153dee4d3d474ce0903775b9b2aaae9aa416001600160a01b031663293c49996040518163ffffffff1660e01b8152600401602060405180830381865afa158015611ea5573d6000803e3d6000fd5b505050506040513d601f19601f82011682018060405250810190611ec991906159f0565b6001600160a01b0316636352211e836040518263ffffffff1660e01b8152600401611ef691815260200190565b602060405180830381865afa158015611f13573d6000803e3d6000fd5b505050506040513d601f19601f82011682018060405250810190611f3791906159f0565b82601c612607565b60608201516001600160a01b031615801590611f805750611f66606086016040870161577c565b6001600160a01b031682606001516001600160a01b031614155b8015611fa557506000611f99606087016040880161577c565b6001600160a01b031614155b8015611fcb57506001600160a01b03831660009081526004602052604090206022015415155b1561201b5760608201516040517f1460b5460000000000000000000000000000000000000000000000000000000081526001600160a01b0380861660048301529091166024820152604401610cf3565b600061202d606087016040880161577c565b6001600160a01b031614801561206457506001600160a01b0383166000908152600460205260409020602281015460239091015414155b1561207457612074848484612ebd565b6040518060a0016040528060006001600160a01b031687604001602081019061209d919061577c565b6001600160a01b03161415151581526020016000151581526020018660200160208101906120cb9190615ac3565b63ffffffff16815260200160006120e86060890160408a0161577c565b6001600160a01b03161461210b57612106606088016040890161577c565b612111565b83606001515b6001600160a01b039081168252606097880135602092830152948516600090815260058252604090819020835181549385015192850151998501517fffffffffffffffffffffffffffffffffffffffffffffffffffffffffffff000090941690151561ff0019161761010092151592909202919091177fffffffffffff000000000000000000000000000000000000000000000000ffff166201000063ffffffff909916989098027fffffffffffff0000000000000000000000000000000000000000ffffffffffff16979097176601000000000000919095160293909317855550506080015160019092019190915550565b600061220e614680565b905090565b6040516001600160a01b038481166024830152838116604483015260648201839052610b6f9186918216906323b872dd906084015b604051602081830303815290604052915060e01b6020820180517bffffffffffffffffffffffffffffffffffffffffffffffffffffffff83818316178352505050506146d2565b60008061229b60015490565b6040517f86202650000000000000000000000000000000000000000000000000000000008152600481018290526001600160a01b0386811660248301529192506000917f0000000000000000000000000bc9f153dee4d3d474ce0903775b9b2aaae9aa411690638620265090604401602060405180830381865afa158015612327573d6000803e3d6000fd5b505050506040513d601f19601f8201168201806040525081019061234b91906159f0565b90506001600160a01b03811661239f576040517fb61c181f000000000000000000000000000000000000000000000000000000008152600481018390526001600160a01b0386166024820152604401610cf3565b60006123ab8630612d21565b604080516020810182526000815290517f13da83170000000000000000000000000000000000000000000000000000000081529192506001600160a01b038416916313da83179161240a91309188918d918d918d918691600401615b39565b6020604051808303816000875af1158015612429573d6000803e3d6000fd5b505050506040513d601f19601f8201168201806040525081019061244d9190615aaa565b93508061245a8730612d21565b612464919061598b565b841461247257612472615b8c565b505050949350505050565b6040805160208082018790528183018590526001600160a01b03841660608084019190915283518084039091018152608090920190925280519101206000906001600160a01b03851660009081526004602090815260408083208151610440810180845295965090946125269387936002880192849291830191849182845b8154815260200190600101908083116124fc5750505091835250506020918201549101529061475c565b80519091508190600284019061253f908290602061559a565b5060208201518160200155905050848260010160008282546125619190615a0d565b92505081905550856001600160a01b0316846001600160a01b03167f584a41ff082fad99bb6e50c5767c347c762057fe5726539f0a8de49d84549c2385600185602001516125af919061598b565b6125bb876002016130dd565b8c8b6125c5612204565b60408051968752602087019590955293850192909252606084015260808301526001600160a01b031660a082015260c00160405180910390a350505050505050565b6000612611612204565b9050836001600160a01b0316816001600160a01b0316141580156126f957506040517f348b684e0000000000000000000000000000000000000000000000000000000081526001600160a01b0382811660048301528581166024830152604482018590526064820184905260016084830181905260a48301527f000000000000000000000000f5ca295dc286a176e35ebb7833031fd95550eb14169063348b684e9060c401602060405180830381865afa1580156126d3573d6000803e3d6000fd5b505050506040513d601f19601f820116820180604052508101906126f79190615ba2565b155b15610b6f576040517f264deeaa0000000000000000000000000000000000000000000000000000000081526001600160a01b038086166004830152821660248201526044810184905260648101839052608401610cf3565b600061275c836114bc565b9050808211156127a2576040517f60ec3e710000000000000000000000000000000000000000000000000000000081526004810183905260248101829052604401610cf3565b60006127ad60015490565b6040517f86202650000000000000000000000000000000000000000000000000000000008152600481018290526001600160a01b0386811660248301529192506000917f0000000000000000000000000bc9f153dee4d3d474ce0903775b9b2aaae9aa411690638620265090604401602060405180830381865afa158015612839573d6000803e3d6000fd5b505050506040513d601f19601f8201168201806040525081019061285d91906159f0565b90506001600160a01b0381166128b1576040517fb61c181f000000000000000000000000000000000000000000000000000000008152600481018390526001600160a01b0386166024820152604401610cf3565b6001600160a01b03851661eeee14612a9a576040517f70a082310000000000000000000000000000000000000000000000000000000081523060048201526000906001600160a01b038716906370a0823190602401602060405180830381865afa158015612923573d6000803e3d6000fd5b505050506040513d601f19601f820116820180604052508101906129479190615aaa565b9050612954868387614894565b6040517f9e6eec05000000000000000000000000000000000000000000000000000000008152600481018490526001600160a01b0387811660248301526044820187905260006064830181905260c0608484015260c4830181905260e060a484015260e4830152831690639e6eec059061010401600060405180830381600087803b1580156129e257600080fd5b505af11580156129f6573d6000803e3d6000fd5b505050508481612a06919061598b565b6040517f70a082310000000000000000000000000000000000000000000000000000000081523060048201526001600160a01b038816906370a0823190602401602060405180830381865afa158015612a63573d6000803e3d6000fd5b505050506040513d601f19601f82011682018060405250810190612a879190615aaa565b14612a9457612a94615b8c565b50612b43565b6040517f9e6eec05000000000000000000000000000000000000000000000000000000008152600481018390526001600160a01b0386811660248301526044820186905260006064830181905260c0608484015260c4830181905260e060a484015260e4830152821690639e6eec05908690610104016000604051808303818588803b158015612b2957600080fd5b505af1158015612b3d573d6000803e3d6000fd5b50505050505b5050505050565b6000807f00000000000000000000000000000000000000000000000000000000000000016001811115612b7f57612b7f61590f565b03612d055760007f00000000000000000000000000000000000000000000000000000000000000006001600160a01b031663e78cea926040518163ffffffff1660e01b8152600401602060405180830381865afa158015612be4573d6000803e3d6000fd5b505050506040513d601f19601f82011682018060405250810190612c0891906159f0565b9050806001600160a01b0316836001600160a01b0316148015612cfe5750806001600160a01b031663ab5d89436040518163ffffffff1660e01b8152600401602060405180830381865afa158015612c64573d6000803e3d6000fd5b505050506040513d601f19601f82011682018060405250810190612c8891906159f0565b6001600160a01b03166380648b026040518163ffffffff1660e01b8152600401602060405180830381865afa158015612cc5573d6000803e3d6000fd5b505050506040513d601f19601f82011682018060405250810190612ce991906159f0565b6001600160a01b0316306001600160a01b0316145b9392505050565b7311110000000000000000000000000000000011113001610dd6565b60007fffffffffffffffffffffffffffffffffffffffffffffffffffffffffffff11126001600160a01b03841601612d6457506001600160a01b038116316109aa565b6040517f70a082310000000000000000000000000000000000000000000000000000000081526001600160a01b0383811660048301528416906370a0823190602401602060405180830381865afa158015612dc3573d6000803e3d6000fd5b505050506040513d601f19601f82011682018060405250810190612cfe9190615aaa565b6001600160a01b0385166000908152600260209081526040808320600886901c8452909152902054600160ff84161b1615612e60576040517fa4e6bcec0000000000000000000000000000000000000000000000000000000081526001600160a01b038616600482015260248101839052604401610cf3565b6001600160a01b0385166000908152600260209081526040808320600886901c845290915290208054600160ff85161b1790556001600160a01b038516600090815260036020526040902060010154611988908786868686614493565b60608101516001600160a01b0316612f0c576040517f04fdbe060000000000000000000000000000000000000000000000000000000081526001600160a01b0383166004820152602401610cf3565b6000612f1661178e565b90506003816003811115612f2c57612f2c61590f565b1480612f4957506002816003811115612f4757612f4761590f565b145b15612f80576040517fb10f8cca00000000000000000000000000000000000000000000000000000000815260040160405180910390fd5b6001600160a01b03831660009081526004602052604081206001810180549083905581549192909183908290612fbf9067ffffffffffffffff16615bc4565b91906101000a81548167ffffffffffffffff021916908367ffffffffffffffff160217905590506000612ff4846002016130dd565b602285015460238601819055909150600061301060018361598b565b9050886001600160a01b0316837f47c5615513b0f669da2dd7e3362a34610ca2695d0a0e2da2160cee952eab203c8387613048612204565b6040805193845267ffffffffffffffff90921660208401526001600160a01b03169082015260600160405180910390a3600060405180606001604052808a606001516001600160a01b0316815260200187815260200160405180604001604052808867ffffffffffffffff1681526020018781525081525090506130d08b838c898d86614952565b5050505050505050505050565b602081015460009080820361311457507f27ae5ba08d7291c96c8cbddcc148bf48a6d68c7974b94356f53754ef6171d75792915050565b60008360018316156131365780546000526000602052604060002093506139e9565b600283161561317b5760018101546000527fad3228b676f7d3cd4284a5443f17f1962b36e491b30a40b2405849e597ba5fb560205260406000209350600191506139e9565b60048316156131c05760028101546000527fb4c11951957c6f8f642c4af61cd6b24640fec6dc7fc607ee8206a99e92410d3060205260406000209350600291506139e9565b60088316156132055760038101546000527f21ddb9a356815c3fac1026b6dec5df3124afbadb485c9ba5a3e3398a04b7ba8560205260406000209350600391506139e9565b601083161561324a5760048101546000527fe58769b32a1beaf1ea27375a44095a0d1fb664ce2dd358e7fcbfb78c26a1934460205260406000209350600491506139e9565b602083161561328f5760058101546000527f0eb01ebfc9ed27500cd4dfc979272d1f0913cc9f66540d7e8005811109e1cf2d60205260406000209350600591506139e9565b60408316156132d45760068101546000527f887c22bd8750d34016ac3c66b5ff102dacdd73f6b014e710b51e8022af9a196860205260406000209350600691506139e9565b60808316156133195760078101546000527fffd70157e48063fc33c97a050f7f640233bf646cc98d9524c6b92bcf3ab56f8360205260406000209350600791506139e9565b61010083161561335f5760088101546000527f9867cc5f7f196b93bae1e27e6320742445d290f2263827498b54fec539f756af60205260406000209350600891506139e9565b6102008316156133a55760098101546000527fcefad4e508c098b9a7e1d8feb19955fb02ba9675585078710969d3440f5054e060205260406000209350600991506139e9565b6104008316156133eb57600a8101546000527ff9dc3e7fe016e050eff260334f18a5d4fe391d82092319f5964f2e2eb7c1c3a560205260406000209350600a91506139e9565b61080083161561343157600b8101546000527ff8b13a49e282f609c317a833fb8d976d11517c571d1221a265d25af778ecf89260205260406000209350600b91506139e9565b61100083161561347757600c8101546000527f3490c6ceeb450aecdc82e28293031d10c7d73bf85e57bf041a97360aa2c5d99c60205260406000209350600c91506139e9565b6120008316156134bd57600d8101546000527fc1df82d9c4b87413eae2ef048f94b4d3554cea73d92b0f7af96e0271c691e2bb60205260406000209350600d91506139e9565b61400083161561350357600e8101546000527f5c67add7c6caf302256adedf7ab114da0acfe870d449a3a489f781d659e8becc60205260406000209350600e91506139e9565b61800083161561354957600f8101546000527fda7bce9f4e8618b6bd2f4132ce798cdc7a60e7e1460a7299e3c6342a579626d260205260406000209350600f91506139e9565b620100008316156135905760108101546000527f2733e50f526ec2fa19a22b31e8ed50f23cd1fdf94c9154ed3a7609a2f1ff981f60205260406000209350601091506139e9565b620200008316156135d75760118101546000527fe1d3b5c807b281e4683cc6d6315cf95b9ade8641defcb32372f1c126e398ef7a60205260406000209350601191506139e9565b6204000083161561361e5760128101546000527f5a2dce0a8a7f68bb74560f8f71837c2c2ebbcbf7fffb42ae1896f13f7c7479a060205260406000209350601291506139e9565b620800008316156136655760138101546000527fb46a28b6f55540f89444f63de0378e3d121be09e06cc9ded1c20e65876d36aa060205260406000209350601391506139e9565b621000008316156136ac5760148101546000527fc65e9645644786b620e2dd2ad648ddfcbf4a7e5b1a3a4ecfe7f64667a3f0b7e260205260406000209350601491506139e9565b622000008316156136f35760158101546000527ff4418588ed35a2458cffeb39b93d26f18d2ab13bdce6aee58e7b99359ec2dfd960205260406000209350601591506139e9565b6240000083161561373a5760168101546000527f5a9c16dc00d6ef18b7933a6f8dc65ccb55667138776f7dea101070dc8796e37760205260406000209350601691506139e9565b628000008316156137815760178101546000527f4df84f40ae0c8229d0d6069e5c8f39a7c299677a09d367fc7b05e3bc380ee65260205260406000209350601791506139e9565b63010000008316156137c95760188101546000527fcdc72595f74c7b1043d0e1ffbab734648c838dfb0527d971b602bc216c9619ef60205260406000209350601891506139e9565b63020000008316156138115760198101546000527f0abf5ac974a1ed57f4050aa510dd9c74f508277b39d7973bb2dfccc5eeb0618d60205260406000209350601991506139e9565b630400000083161561385957601a8101546000527fb8cd74046ff337f0a7bf2c8e03e10f642c1886798d71806ab1e888d9e5ee87d060205260406000209350601a91506139e9565b63080000008316156138a157601b8101546000527f838c5655cb21c6cb83313b5a631175dff4963772cce9108188b34ac87c81c41e60205260406000209350601b91506139e9565b63100000008316156138e957601c8101546000527f662ee4dd2dd7b2bc707961b1e646c4047669dcb6584f0d8d770daf5d7e7deb2e60205260406000209350601c91506139e9565b632000000083161561393157601d8101546000527f388ab20e2573d171a88108e79d820e98f26c0b84aa8b2f4aa4968dbb818ea32260205260406000209350601d91506139e9565b634000000083161561397957601e8101546000527f93237c50ba75ee485f4c22adf2f741400bdf8d6a9cc7df7ecae576221665d73560205260406000209350601e91506139e9565b63800000008316156139c157601f8101546000527f8448818bb4ae4562849e949e17ac16e0be16688e156b5cf15e098c627c0056a960205260406000209350601f91506139e9565b7f27ae5ba08d7291c96c8cbddcc148bf48a6d68c7974b94356f53754ef6171d7579350602091505b601e821161448b576001821015613a4757600283168015613a1557600182015460005284602052613a3e565b846000527fad3228b676f7d3cd4284a5443f17f1962b36e491b30a40b2405849e597ba5fb56020525b50604060002093505b6002821015613a9d57600483168015613a6b57600282015460005284602052613a94565b846000527fb4c11951957c6f8f642c4af61cd6b24640fec6dc7fc607ee8206a99e92410d306020525b50604060002093505b6003821015613af357600883168015613ac157600382015460005284602052613aea565b846000527f21ddb9a356815c3fac1026b6dec5df3124afbadb485c9ba5a3e3398a04b7ba856020525b50604060002093505b6004821015613b4957601083168015613b1757600482015460005284602052613b40565b846000527fe58769b32a1beaf1ea27375a44095a0d1fb664ce2dd358e7fcbfb78c26a193446020525b50604060002093505b6005821015613b9f57602083168015613b6d57600582015460005284602052613b96565b846000527f0eb01ebfc9ed27500cd4dfc979272d1f0913cc9f66540d7e8005811109e1cf2d6020525b50604060002093505b6006821015613bf557604083168015613bc357600682015460005284602052613bec565b846000527f887c22bd8750d34016ac3c66b5ff102dacdd73f6b014e710b51e8022af9a19686020525b50604060002093505b6007821015613c4b57608083168015613c1957600782015460005284602052613c42565b846000527fffd70157e48063fc33c97a050f7f640233bf646cc98d9524c6b92bcf3ab56f836020525b50604060002093505b6008821015613ca25761010083168015613c7057600882015460005284602052613c99565b846000527f9867cc5f7f196b93bae1e27e6320742445d290f2263827498b54fec539f756af6020525b50604060002093505b6009821015613cf95761020083168015613cc757600982015460005284602052613cf0565b846000527fcefad4e508c098b9a7e1d8feb19955fb02ba9675585078710969d3440f5054e06020525b50604060002093505b600a821015613d505761040083168015613d1e57600a82015460005284602052613d47565b846000527ff9dc3e7fe016e050eff260334f18a5d4fe391d82092319f5964f2e2eb7c1c3a56020525b50604060002093505b600b821015613da75761080083168015613d7557600b82015460005284602052613d9e565b846000527ff8b13a49e282f609c317a833fb8d976d11517c571d1221a265d25af778ecf8926020525b50604060002093505b600c821015613dfe5761100083168015613dcc57600c82015460005284602052613df5565b846000527f3490c6ceeb450aecdc82e28293031d10c7d73bf85e57bf041a97360aa2c5d99c6020525b50604060002093505b600d821015613e555761200083168015613e2357600d82015460005284602052613e4c565b846000527fc1df82d9c4b87413eae2ef048f94b4d3554cea73d92b0f7af96e0271c691e2bb6020525b50604060002093505b600e821015613eac5761400083168015613e7a57600e82015460005284602052613ea3565b846000527f5c67add7c6caf302256adedf7ab114da0acfe870d449a3a489f781d659e8becc6020525b50604060002093505b600f821015613f035761800083168015613ed157600f82015460005284602052613efa565b846000527fda7bce9f4e8618b6bd2f4132ce798cdc7a60e7e1460a7299e3c6342a579626d26020525b50604060002093505b6010821015613f5b576201000083168015613f2957601082015460005284602052613f52565b846000527f2733e50f526ec2fa19a22b31e8ed50f23cd1fdf94c9154ed3a7609a2f1ff981f6020525b50604060002093505b6011821015613fb3576202000083168015613f8157601182015460005284602052613faa565b846000527fe1d3b5c807b281e4683cc6d6315cf95b9ade8641defcb32372f1c126e398ef7a6020525b50604060002093505b601282101561400b576204000083168015613fd957601282015460005284602052614002565b846000527f5a2dce0a8a7f68bb74560f8f71837c2c2ebbcbf7fffb42ae1896f13f7c7479a06020525b50604060002093505b60138210156140635762080000831680156140315760138201546000528460205261405a565b846000527fb46a28b6f55540f89444f63de0378e3d121be09e06cc9ded1c20e65876d36aa06020525b50604060002093505b60148210156140bb576210000083168015614089576014820154600052846020526140b2565b846000527fc65e9645644786b620e2dd2ad648ddfcbf4a7e5b1a3a4ecfe7f64667a3f0b7e26020525b50604060002093505b60158210156141135762200000831680156140e15760158201546000528460205261410a565b846000527ff4418588ed35a2458cffeb39b93d26f18d2ab13bdce6aee58e7b99359ec2dfd96020525b50604060002093505b601682101561416b57624000008316801561413957601682015460005284602052614162565b846000527f5a9c16dc00d6ef18b7933a6f8dc65ccb55667138776f7dea101070dc8796e3776020525b50604060002093505b60178210156141c3576280000083168015614191576017820154600052846020526141ba565b846000527f4df84f40ae0c8229d0d6069e5c8f39a7c299677a09d367fc7b05e3bc380ee6526020525b50604060002093505b601882101561421c576301000000831680156141ea57601882015460005284602052614213565b846000527fcdc72595f74c7b1043d0e1ffbab734648c838dfb0527d971b602bc216c9619ef6020525b50604060002093505b6019821015614275576302000000831680156142435760198201546000528460205261426c565b846000527f0abf5ac974a1ed57f4050aa510dd9c74f508277b39d7973bb2dfccc5eeb0618d6020525b50604060002093505b601a8210156142ce5763040000008316801561429c57601a820154600052846020526142c5565b846000527fb8cd74046ff337f0a7bf2c8e03e10f642c1886798d71806ab1e888d9e5ee87d06020525b50604060002093505b601b821015614327576308000000831680156142f557601b8201546000528460205261431e565b846000527f838c5655cb21c6cb83313b5a631175dff4963772cce9108188b34ac87c81c41e6020525b50604060002093505b601c8210156143805763100000008316801561434e57601c82015460005284602052614377565b846000527f662ee4dd2dd7b2bc707961b1e646c4047669dcb6584f0d8d770daf5d7e7deb2e6020525b50604060002093505b601d8210156143d9576320000000831680156143a757601d820154600052846020526143d0565b846000527f388ab20e2573d171a88108e79d820e98f26c0b84aa8b2f4aa4968dbb818ea3226020525b50604060002093505b601e8210156144325763400000008316801561440057601e82015460005284602052614429565b846000527f93237c50ba75ee485f4c22adf2f741400bdf8d6a9cc7df7ecae576221665d7356020525b50604060002093505b601f82101561448b5763800000008316801561445957601f82015460005284602052614482565b846000527f8448818bb4ae4562849e949e17ac16e0be16688e156b5cf15e098c627c0056a96020525b50604060002093505b505050919050565b6040805160208082018890528183018790526001600160a01b038616606080840191909152835180840390910181526080830180855281519183019190912061048090930190935260009261450192918590828261040080828437600092019190915250879150614a8c9050565b9050868114610da9576040517ee587d20000000000000000000000000000000000000000000000000000000081526004810182905260248101889052604401610cf3565b600061eeee614557602084018461577c565b6001600160a01b031614905080801561458a575061eeee61457e606084016040850161577c565b6001600160a01b031614155b80156145af575060006145a3606084016040850161577c565b6001600160a01b031614155b15614602576145c4606083016040840161577c565b6040517ff41f6def0000000000000000000000000000000000000000000000000000000081526001600160a01b039091166004820152602401610cf3565b62030d406146166040840160208501615ac3565b63ffffffff16108015614627575080155b1561127d5761463c6040830160208401615ac3565b6040517f555d0f1000000000000000000000000000000000000000000000000000000000815263ffffffff909116600482015262030d406024820152604401610cf3565b600036601461468e33610db2565b801561469a5750808210155b156146ca576000366146ac838561598b565b6146b7928290615beb565b6146c091615c15565b60601c9250505090565b339250505090565b600080602060008451602086016000885af1806146f5576040513d6000823e3d81fd5b50506000513d9150811561470d57806001141561471a565b6001600160a01b0384163b155b15610b6f576040517f5274afe70000000000000000000000000000000000000000000000000000000081526001600160a01b0385166004820152602401610cf3565b6147646155d8565b6000836020018051614775906159b4565b908190529050600161478960206002615d41565b614793919061598b565b8111156147cc576040517f8eab04bb00000000000000000000000000000000000000000000000000000000815260040160405180910390fd5b60005b60208110156148615781600116600103614808578451849082602081106147f8576147f861599e565b6020020152508391506109aa9050565b8451816020811061481b5761481b61599e565b60200201518460405160200161483b929190918252602082015260400190565b60408051601f1981840301815291905280516020909101209350600191821c91016147cf565b506040517f8eab04bb00000000000000000000000000000000000000000000000000000000815260040160405180910390fd5b604080516001600160a01b038416602482015260448082018490528251808303909101815260649091019091526020810180517bffffffffffffffffffffffffffffffffffffffffffffffffffffffff167f095ea7b3000000000000000000000000000000000000000000000000000000001790526149138482614dda565b610b6f576040516001600160a01b0384811660248301526000604483015261494891869182169063095ea7b390606401612248565b610b6f84826146d2565b85158015614991575060007f0000000000000000000000000000000000000000000000000000000000000001600181111561498f5761498f61590f565b145b156149c8576040517f3cb7b09b00000000000000000000000000000000000000000000000000000000815260040160405180910390fd5b6000816040516024016149db9190615d4d565b60408051601f198184030181529190526020810180517bffffffffffffffffffffffffffffffffffffffffffffffffffffffff167f69d31fdd00000000000000000000000000000000000000000000000000000000179052905060007f00000000000000000000000000000000000000000000000000000000000000016001811115614a6957614a6961590f565b03614a8057614a7b8588868487614e29565b610da9565b610da98585838661530c565b6020600582811b8216948552835194820394909452604060008181206002851615871b808503919091528386015190528181206004851615871b808503919091528286015190528181206008851615871b80850391909152606086015190528181206010851615871b8085039190915260808087015190915282822084861615881b8086039190915260a0870151905282822083861615881b8086039190915260c0870151905282822090851615871b8085039190915260e0860151905281812061010080861615881b80860392909252860151905281812061020080861615881b80860392909252610120870151909152828220610400861615881b808603919091526101408701519052828220610800861615881b808603919091526101608701519052828220611000861615881b808603919091526101808701519052828220612000861615881b808603919091526101a08701519052828220614000861615881b808603919091526101c08701519052828220618000861615881b808603919091526101e0870151905282822062010000861615881b8086039190915290860151905281812062020000851615871b80850391909152610220860151905281812062040000851615871b80850391909152610240860151905281812062080000851615871b80850391909152610260860151905281812062100000851615871b80850391909152610280860151905281812062200000851615871b808503919091526102a0860151905281812062400000851615871b808503919091526102c0860151905281812062800000851615871b808503919091526102e086015190528181206301000000851615871b8085039190915261030086015190528181206302000000851615871b8085039190915261032086015190528181206304000000851615871b8085039190915261034086015190528181206308000000851615871b8085039190915261036086015190528181206310000000851615871b8085039190915261038086015190528181206320000000851615871b808503919091526103a086015190528181206340000000851615871b808503919091526103c0860151905281812063800000009094161590951b91829003929092526103e090920151909152902090565b6000806000806020600086516020880160008a5af192503d91506000519050828015614e1f57508115614e105780600114614e1f565b6000866001600160a01b03163b115b9695505050505050565b81516040517fa66b327d0000000000000000000000000000000000000000000000000000000081526004810191909152486024820181905260009182907f00000000000000000000000000000000000000000000000000000000000000006001600160a01b03169063a66b327d90604401602060405180830381865afa158015614eb7573d6000803e3d6000fd5b505050506040513d601f19601f82011682018060405250810190614edb9190615aaa565b90506000614eec83620493e0615d99565b614ef69083615a0d565b90506001600160a01b03891661eeee14801590614f1257508615155b15615211576040517fa66b327d00000000000000000000000000000000000000000000000000000000815260606004820152602481018490526000907f00000000000000000000000000000000000000000000000000000000000000006001600160a01b03169063a66b327d90604401602060405180830381865afa158015614f9f573d6000803e3d6000fd5b505050506040513d601f19601f82011682018060405250810190614fc39190615aaa565b9050600084876040015163ffffffff16614fdd9190615d99565b614fe79083615a0d565b9050614ff38184615a0d565b8a101561504057896150058285615a0d565b6040517f514f519600000000000000000000000000000000000000000000000000000000815260048101929092526024820152604401610cf3565b600060028261504f868e61598b565b615059919061598b565b61506391906159ce565b905061506f8183615a0d565b915061507b8185615a0d565b6040517fbda009fe0000000000000000000000000000000000000000000000000000000081526001600160a01b03808f16600483015291955061512e92508d917f0000000000000000000000009fdd1c4e4aa24eec1d913fabea925594a20d43c7169063bda009fe90602401602060405180830381865afa158015615104573d6000803e3d6000fd5b505050506040513d601f19601f8201168201806040525081019061512891906159f0565b8b614894565b7f0000000000000000000000009fdd1c4e4aa24eec1d913fabea925594a20d43c76001600160a01b0316634fb1a07b828d615167612204565b308e8d604001518c8a60405180602001604052806000815250604051602001615191929190615db0565b6040516020818303038152906040526040518963ffffffff1660e01b81526004016151c29796959493929190615dd1565b60006040518083038185885af11580156151e0573d6000803e3d6000fd5b50505050506040513d6000823e601f3d908101601f191682016040526152099190810190615e33565b50505061525b565b80881015615255576040517f514f51960000000000000000000000000000000000000000000000000000000081526004810189905260248101829052604401610cf3565b50859250865b6001600160a01b037f000000000000000000000000000000000000000000000000000000000000000016636e6e8a6a6152948684615a0d565b30878661529f612204565b30620493e08b8f6040518a63ffffffff1660e01b81526004016152c9989796959493929190615ee0565b60206040518083038185885af11580156152e7573d6000803e3d6000fd5b50505050506040513d601f19601f82011682018060405250810190612b3d9190615aaa565b60003415615348576040517fd7468c32000000000000000000000000000000000000000000000000000000008152346004820152602401610cf3565b6001600160a01b03851661eeee1480159061536257508315155b156154e7576040517fbda009fe0000000000000000000000000000000000000000000000000000000081526001600160a01b0380871660048301526154169187917f0000000000000000000000009fdd1c4e4aa24eec1d913fabea925594a20d43c7169063bda009fe90602401602060405180830381865afa1580156153ec573d6000803e3d6000fd5b505050506040513d601f19601f8201168201806040525081019061541091906159f0565b86614894565b7f0000000000000000000000009fdd1c4e4aa24eec1d913fabea925594a20d43c76001600160a01b0316637b3a3c8b83606001516154513090565b604080516020810182526000815290517fffffffff0000000000000000000000000000000000000000000000000000000060e086901b16815261549a9392918a91600401615f42565b6000604051808303816000875af11580156154b9573d6000803e3d6000fd5b505050506040513d6000823e601f3d908101601f191682016040526154e19190810190615e33565b506154ea565b50825b6040517f928c169a00000000000000000000000000000000000000000000000000000000815260649063928c169a90839061552b9030908890600401615f74565b60206040518083038185885af1158015615549573d6000803e3d6000fd5b50505050506040513d601f19601f820116820180604052508101906119889190615aaa565b604080516080810182526000808252602082015290810161558d6155d8565b8152602001600081525090565b82602081019282156155c8579160200282015b828111156155c85782518255916020019190600101906155ad565b506155d49291506155eb565b5090565b604051806040016040528061558d615600565b5b808211156155d457600081556001016155ec565b6040518061040001604052806020906020820280368337509192915050565b60006020828403121561563157600080fd5b81357fffffffff0000000000000000000000000000000000000000000000000000000081168114612cfe57600080fd5b60006104a0828403121561567457600080fd5b50919050565b6000806020838503121561568d57600080fd5b823567ffffffffffffffff808211156156a557600080fd5b818501915085601f8301126156b957600080fd5b8135818111156156c857600080fd5b8660208260071b85010111156156dd57600080fd5b60209290920196919550909350505050565b60006080828403121561567457600080fd5b60006080828403121561571357600080fd5b612cfe83836156ef565b6001600160a01b0381168114610a6457600080fd5b6000806000806080858703121561574857600080fd5b84359350602085013561575a8161571d565b92506040850135915060608501356157718161571d565b939692955090935050565b60006020828403121561578e57600080fd5b8135612cfe8161571d565b6000602082840312156157ab57600080fd5b813564ffffffffff81168114612cfe57600080fd5b815167ffffffffffffffff16815260208083015190820152604081016109aa565b600080602083850312156157f457600080fd5b823567ffffffffffffffff8082111561580c57600080fd5b818501915085601f83011261582057600080fd5b81358181111561582f57600080fd5b8660208260051b85010111156156dd57600080fd5b815167ffffffffffffffff1681526020808301518183015260408084015180516104808501939260009086015b8482101561588f578251815291840191600191909101908401615871565b5050500151610440830152606092909201516104609091015290565b600080602083850312156158be57600080fd5b823567ffffffffffffffff808211156158d657600080fd5b818501915085601f8301126158ea57600080fd5b8135818111156158f957600080fd5b8660206104a0830285010111156156dd57600080fd5b634e487b7160e01b600052602160045260246000fd5b60208101600483106159395761593961590f565b91905290565b60028110610a6457610a6461590f565b602081016159398361593f565b60006020828403121561596e57600080fd5b5035919050565b634e487b7160e01b600052601160045260246000fd5b818103818111156109aa576109aa615975565b634e487b7160e01b600052603260045260246000fd5b600060001982036159c7576159c7615975565b5060010190565b6000826159eb57634e487b7160e01b600052601260045260246000fd5b500490565b600060208284031215615a0257600080fd5b8151612cfe8161571d565b808201808211156109aa576109aa615975565b600060208284031215615a3257600080fd5b813567ffffffffffffffff81168114612cfe57600080fd5b6040808252810183905260008460608301825b86811015615a8d578235615a708161571d565b6001600160a01b0316825260209283019290910190600101615a5d565b5080925050506001600160a01b0383166020830152949350505050565b600060208284031215615abc57600080fd5b5051919050565b600060208284031215615ad557600080fd5b813563ffffffff81168114612cfe57600080fd5b60005b83811015615b04578181015183820152602001615aec565b50506000910152565b60008151808452615b25816020860160208601615ae9565b601f01601f19169290920160200192915050565b60006001600160a01b03808a168352886020840152876040840152808716606084015285608084015280851660a08401525060e060c0830152615b7f60e0830184615b0d565b9998505050505050505050565b634e487b7160e01b600052600160045260246000fd5b600060208284031215615bb457600080fd5b81518015158114612cfe57600080fd5b600067ffffffffffffffff808316818103615be157615be1615975565b6001019392505050565b60008085851115615bfb57600080fd5b83861115615c0857600080fd5b5050820193919092039150565b7fffffffffffffffffffffffffffffffffffffffff0000000000000000000000008135818116916014851015615c555780818660140360031b1b83161692505b505092915050565b600181815b80851115615c98578160001904821115615c7e57615c7e615975565b80851615615c8b57918102915b93841c9390800290615c62565b509250929050565b600082615caf575060016109aa565b81615cbc575060006109aa565b8160018114615cd25760028114615cdc57615cf8565b60019150506109aa565b60ff841115615ced57615ced615975565b50506001821b6109aa565b5060208310610133831016604e8410600b8410161715615d1b575081810a6109aa565b615d258383615c5d565b8060001904821115615d3957615d39615975565b029392505050565b6000612cfe8383615ca0565b60006080820190506001600160a01b038351168252602083015160208301526040830151615d926040840182805167ffffffffffffffff168252602090810151910152565b5092915050565b80820281158282048414176109aa576109aa615975565b828152604060208201526000615dc96040830184615b0d565b949350505050565b60006001600160a01b03808a168352808916602084015280881660408401525085606083015263ffffffff851660808301528360a083015260e060c0830152615b7f60e0830184615b0d565b634e487b7160e01b600052604160045260246000fd5b600060208284031215615e4557600080fd5b815167ffffffffffffffff80821115615e5d57600080fd5b818401915084601f830112615e7157600080fd5b815181811115615e8357615e83615e1d565b604051601f8201601f19908116603f01168101908382118183101715615eab57615eab615e1d565b81604052828152876020848701011115615ec457600080fd5b615ed5836020830160208801615ae9565b979650505050505050565b60006101006001600160a01b03808c1684528a6020850152896040850152808916606085015280881660808501525063ffffffff861660a08401528460c08401528060e0840152615f3381840185615b0d565b9b9a5050505050505050505050565b60006001600160a01b03808716835280861660208401525083604083015260806060830152614e1f6080830184615b0d565b6001600160a01b0383168152604060208201526000615dc96040830184615b0d56fea26469706673582212200500c61273e2b021941d820a5227bf4f73cb001d4c644416d8de435d591a313464736f6c63430008170033",
	"gitCommit": "c51336d74edd86d463402733d2c082dfa66596ff",
	"history": []
}