{
	"format": "sphinx-sol-ct-artifact-1",
	"merkleRoot": "0xaf5e28bbeeb8122b7e38bf2cb4c20e25753886f2cc3a4b8bc8ead5d3ccb5c985",
	"address": "0xfb63658838ccb6ff40733e2688b3e73298bcdecf",
	"sourceName": "src/JBArbitrumSucker.sol",
	"contractName": "JBArbitrumSucker",
	"chainId": "0x66eee",
	"abi": [
		{
			"inputs": [
				{
					"internalType": "contract JBArbitrumSuckerDeployer",
					"name": "deployer",
					"type": "address"
				},
				{
					"internalType": "contract IJBDirectory",
					"name": "directory",
					"type": "address"
				},
				{
					"internalType": "contract IJBPermissions",
					"name": "permissions",
					"type": "address"
				},
				{
					"internalType": "contract IJBTokens",
					"name": "tokens",
					"type": "address"
				},
				{
					"internalType": "enum JBAddToBalanceMode",
					"name": "addToBalanceMode",
					"type": "uint8"
				},
				{
					"internalType": "address",
					"name": "trusted_forwarder",
					"type": "address"
				}
			],
			"stateMutability": "nonpayable",
			"type": "constructor"
		},
		{
			"stateMutability": "payable",
			"type": "receive"
		},
		{
			"inputs": [],
			"name": "ADD_TO_BALANCE_MODE",
			"outputs": [
				{
					"internalType": "enum JBAddToBalanceMode",
					"name": "",
					"type": "uint8"
				}
			],
			"stateMutability": "view",
			"type": "function"
		},
		{
			"inputs": [],
			"name": "ARBINBOX",
			"outputs": [
				{
					"internalType": "contract IInbox",
					"name": "",
					"type": "address"
				}
			],
			"stateMutability": "view",
			"type": "function"
		},
		{
			"inputs": [],
			"name": "DIRECTORY",
			"outputs": [
				{
					"internalType": "contract IJBDirectory",
					"name": "",
					"type": "address"
				}
			],
			"stateMutability": "view",
			"type": "function"
		},
		{
			"inputs": [],
			"name": "GATEWAYROUTER",
			"outputs": [
				{
					"internalType": "contract IArbGatewayRouter",
					"name": "",
					"type": "address"
				}
			],
			"stateMutability": "view",
			"type": "function"
		},
		{
			"inputs": [],
			"name": "LAYER",
			"outputs": [
				{
					"internalType": "enum JBLayer",
					"name": "",
					"type": "uint8"
				}
			],
			"stateMutability": "view",
			"type": "function"
		},
		{
			"inputs": [],
			"name": "MESSENGER_BASE_GAS_LIMIT",
			"outputs": [
				{
					"internalType": "uint32",
					"name": "",
					"type": "uint32"
				}
			],
			"stateMutability": "view",
			"type": "function"
		},
		{
			"inputs": [],
			"name": "MESSENGER_ERC20_MIN_GAS_LIMIT",
			"outputs": [
				{
					"internalType": "uint32",
					"name": "",
					"type": "uint32"
				}
			],
			"stateMutability": "view",
			"type": "function"
		},
		{
			"inputs": [],
			"name": "PERMISSIONS",
			"outputs": [
				{
					"internalType": "contract IJBPermissions",
					"name": "",
					"type": "address"
				}
			],
			"stateMutability": "view",
			"type": "function"
		},
		{
			"inputs": [],
			"name": "TOKENS",
			"outputs": [
				{
					"internalType": "contract IJBTokens",
					"name": "",
					"type": "address"
				}
			],
			"stateMutability": "view",
			"type": "function"
		},
		{
			"inputs": [
				{
					"internalType": "address",
					"name": "token",
					"type": "address"
				}
			],
			"name": "addOutstandingAmountToBalance",
			"outputs": [],
			"stateMutability": "nonpayable",
			"type": "function"
		},
		{
			"inputs": [
				{
					"internalType": "address",
					"name": "token",
					"type": "address"
				}
			],
			"name": "amountToAddToBalanceOf",
			"outputs": [
				{
					"internalType": "uint256",
					"name": "",
					"type": "uint256"
				}
			],
			"stateMutability": "view",
			"type": "function"
		},
		{
			"inputs": [
				{
					"components": [
						{
							"internalType": "address",
							"name": "token",
							"type": "address"
						},
						{
							"components": [
								{
									"internalType": "uint256",
									"name": "index",
									"type": "uint256"
								},
								{
									"internalType": "address",
									"name": "beneficiary",
									"type": "address"
								},
								{
									"internalType": "uint256",
									"name": "projectTokenCount",
									"type": "uint256"
								},
								{
									"internalType": "uint256",
									"name": "terminalTokenAmount",
									"type": "uint256"
								}
							],
							"internalType": "struct JBLeaf",
							"name": "leaf",
							"type": "tuple"
						},
						{
							"internalType": "bytes32[32]",
							"name": "proof",
							"type": "bytes32[32]"
						}
					],
					"internalType": "struct JBClaim",
					"name": "claimData",
					"type": "tuple"
				}
			],
			"name": "claim",
			"outputs": [],
			"stateMutability": "nonpayable",
			"type": "function"
		},
		{
			"inputs": [
				{
					"components": [
						{
							"internalType": "address",
							"name": "token",
							"type": "address"
						},
						{
							"components": [
								{
									"internalType": "uint256",
									"name": "index",
									"type": "uint256"
								},
								{
									"internalType": "address",
									"name": "beneficiary",
									"type": "address"
								},
								{
									"internalType": "uint256",
									"name": "projectTokenCount",
									"type": "uint256"
								},
								{
									"internalType": "uint256",
									"name": "terminalTokenAmount",
									"type": "uint256"
								}
							],
							"internalType": "struct JBLeaf",
							"name": "leaf",
							"type": "tuple"
						},
						{
							"internalType": "bytes32[32]",
							"name": "proof",
							"type": "bytes32[32]"
						}
					],
					"internalType": "struct JBClaim[]",
					"name": "claims",
					"type": "tuple[]"
				}
			],
			"name": "claim",
			"outputs": [],
			"stateMutability": "nonpayable",
			"type": "function"
		},
		{
			"inputs": [],
			"name": "deployer",
			"outputs": [
				{
					"internalType": "address",
					"name": "",
					"type": "address"
				}
			],
			"stateMutability": "view",
			"type": "function"
		},
		{
			"inputs": [
				{
					"internalType": "address[]",
					"name": "tokens",
					"type": "address[]"
				}
			],
			"name": "enableEmergencyHatchFor",
			"outputs": [],
			"stateMutability": "nonpayable",
			"type": "function"
		},
		{
			"inputs": [
				{
					"components": [
						{
							"internalType": "address",
							"name": "token",
							"type": "address"
						},
						{
							"components": [
								{
									"internalType": "uint256",
									"name": "index",
									"type": "uint256"
								},
								{
									"internalType": "address",
									"name": "beneficiary",
									"type": "address"
								},
								{
									"internalType": "uint256",
									"name": "projectTokenCount",
									"type": "uint256"
								},
								{
									"internalType": "uint256",
									"name": "terminalTokenAmount",
									"type": "uint256"
								}
							],
							"internalType": "struct JBLeaf",
							"name": "leaf",
							"type": "tuple"
						},
						{
							"internalType": "bytes32[32]",
							"name": "proof",
							"type": "bytes32[32]"
						}
					],
					"internalType": "struct JBClaim",
					"name": "claimData",
					"type": "tuple"
				}
			],
			"name": "exitThroughEmergencyHatch",
			"outputs": [],
			"stateMutability": "nonpayable",
			"type": "function"
		},
		{
			"inputs": [
				{
					"components": [
						{
							"internalType": "address",
							"name": "token",
							"type": "address"
						},
						{
							"internalType": "uint256",
							"name": "amount",
							"type": "uint256"
						},
						{
							"components": [
								{
									"internalType": "uint64",
									"name": "nonce",
									"type": "uint64"
								},
								{
									"internalType": "bytes32",
									"name": "root",
									"type": "bytes32"
								}
							],
							"internalType": "struct JBInboxTreeRoot",
							"name": "remoteRoot",
							"type": "tuple"
						}
					],
					"internalType": "struct JBMessageRoot",
					"name": "root",
					"type": "tuple"
				}
			],
			"name": "fromRemote",
			"outputs": [],
			"stateMutability": "payable",
			"type": "function"
		},
		{
			"inputs": [
				{
					"internalType": "address",
					"name": "token",
					"type": "address"
				}
			],
			"name": "inboxOf",
			"outputs": [
				{
					"components": [
						{
							"internalType": "uint64",
							"name": "nonce",
							"type": "uint64"
						},
						{
							"internalType": "bytes32",
							"name": "root",
							"type": "bytes32"
						}
					],
					"internalType": "struct JBInboxTreeRoot",
					"name": "",
					"type": "tuple"
				}
			],
			"stateMutability": "view",
			"type": "function"
		},
		{
			"inputs": [
				{
					"internalType": "uint256",
					"name": "_projectId",
					"type": "uint256"
				}
			],
			"name": "initialize",
			"outputs": [],
			"stateMutability": "nonpayable",
			"type": "function"
		},
		{
			"inputs": [
				{
					"internalType": "address",
					"name": "token",
					"type": "address"
				}
			],
			"name": "isMapped",
			"outputs": [
				{
					"internalType": "bool",
					"name": "",
					"type": "bool"
				}
			],
			"stateMutability": "view",
			"type": "function"
		},
		{
			"inputs": [
				{
					"internalType": "address",
					"name": "forwarder",
					"type": "address"
				}
			],
			"name": "isTrustedForwarder",
			"outputs": [
				{
					"internalType": "bool",
					"name": "",
					"type": "bool"
				}
			],
			"stateMutability": "view",
			"type": "function"
		},
		{
			"inputs": [
				{
					"components": [
						{
							"internalType": "address",
							"name": "localToken",
							"type": "address"
						},
						{
							"internalType": "uint32",
							"name": "minGas",
							"type": "uint32"
						},
						{
							"internalType": "address",
							"name": "remoteToken",
							"type": "address"
						},
						{
							"internalType": "uint256",
							"name": "minBridgeAmount",
							"type": "uint256"
						}
					],
					"internalType": "struct JBTokenMapping",
					"name": "map",
					"type": "tuple"
				}
			],
			"name": "mapToken",
			"outputs": [],
			"stateMutability": "payable",
			"type": "function"
		},
		{
			"inputs": [
				{
					"components": [
						{
							"internalType": "address",
							"name": "localToken",
							"type": "address"
						},
						{
							"internalType": "uint32",
							"name": "minGas",
							"type": "uint32"
						},
						{
							"internalType": "address",
							"name": "remoteToken",
							"type": "address"
						},
						{
							"internalType": "uint256",
							"name": "minBridgeAmount",
							"type": "uint256"
						}
					],
					"internalType": "struct JBTokenMapping[]",
					"name": "maps",
					"type": "tuple[]"
				}
			],
			"name": "mapTokens",
			"outputs": [],
			"stateMutability": "payable",
			"type": "function"
		},
		{
			"inputs": [
				{
					"internalType": "address",
					"name": "token",
					"type": "address"
				}
			],
			"name": "outboxOf",
			"outputs": [
				{
					"components": [
						{
							"internalType": "uint64",
							"name": "nonce",
							"type": "uint64"
						},
						{
							"internalType": "uint256",
							"name": "balance",
							"type": "uint256"
						},
						{
							"components": [
								{
									"internalType": "bytes32[32]",
									"name": "branch",
									"type": "bytes32[32]"
								},
								{
									"internalType": "uint256",
									"name": "count",
									"type": "uint256"
								}
							],
							"internalType": "struct MerkleLib.Tree",
							"name": "tree",
							"type": "tuple"
						},
						{
							"internalType": "uint256",
							"name": "numberOfClaimsSent",
							"type": "uint256"
						}
					],
					"internalType": "struct JBOutboxTree",
					"name": "",
					"type": "tuple"
				}
			],
			"stateMutability": "view",
			"type": "function"
		},
		{
			"inputs": [],
			"name": "peer",
			"outputs": [
				{
					"internalType": "address",
					"name": "",
					"type": "address"
				}
			],
			"stateMutability": "view",
			"type": "function"
		},
		{
			"inputs": [],
			"name": "peerChainId",
			"outputs": [
				{
					"internalType": "uint256",
					"name": "",
					"type": "uint256"
				}
			],
			"stateMutability": "view",
			"type": "function"
		},
		{
			"inputs": [
				{
					"internalType": "uint256",
					"name": "projectTokenCount",
					"type": "uint256"
				},
				{
					"internalType": "address",
					"name": "beneficiary",
					"type": "address"
				},
				{
					"internalType": "uint256",
					"name": "minTokensReclaimed",
					"type": "uint256"
				},
				{
					"internalType": "address",
					"name": "token",
					"type": "address"
				}
			],
			"name": "prepare",
			"outputs": [],
			"stateMutability": "nonpayable",
			"type": "function"
		},
		{
			"inputs": [],
			"name": "projectId",
			"outputs": [
				{
					"internalType": "uint256",
					"name": "",
					"type": "uint256"
				}
			],
			"stateMutability": "view",
			"type": "function"
		},
		{
			"inputs": [
				{
					"internalType": "address",
					"name": "token",
					"type": "address"
				}
			],
			"name": "remoteTokenFor",
			"outputs": [
				{
					"components": [
						{
							"internalType": "bool",
							"name": "enabled",
							"type": "bool"
						},
						{
							"internalType": "bool",
							"name": "emergencyHatch",
							"type": "bool"
						},
						{
							"internalType": "uint32",
							"name": "minGas",
							"type": "uint32"
						},
						{
							"internalType": "address",
							"name": "addr",
							"type": "address"
						},
						{
							"internalType": "uint256",
							"name": "minBridgeAmount",
							"type": "uint256"
						}
					],
					"internalType": "struct JBRemoteToken",
					"name": "",
					"type": "tuple"
				}
			],
			"stateMutability": "view",
			"type": "function"
		},
		{
			"inputs": [
				{
					"internalType": "uint40",
					"name": "timestamp",
					"type": "uint40"
				}
			],
			"name": "setDeprecation",
			"outputs": [],
			"stateMutability": "nonpayable",
			"type": "function"
		},
		{
			"inputs": [],
			"name": "state",
			"outputs": [
				{
					"internalType": "enum JBSuckerState",
					"name": "",
					"type": "uint8"
				}
			],
			"stateMutability": "view",
			"type": "function"
		},
		{
			"inputs": [
				{
					"internalType": "bytes4",
					"name": "interfaceId",
					"type": "bytes4"
				}
			],
			"name": "supportsInterface",
			"outputs": [
				{
					"internalType": "bool",
					"name": "",
					"type": "bool"
				}
			],
			"stateMutability": "view",
			"type": "function"
		},
		{
			"inputs": [
				{
					"internalType": "address",
					"name": "token",
					"type": "address"
				}
			],
			"name": "toRemote",
			"outputs": [],
			"stateMutability": "payable",
			"type": "function"
		},
		{
			"inputs": [],
			"name": "trustedForwarder",
			"outputs": [
				{
					"internalType": "address",
					"name": "",
					"type": "address"
				}
			],
			"stateMutability": "view",
			"type": "function"
		},
		{
			"anonymous": false,
			"inputs": [
				{
					"indexed": false,
					"internalType": "address",
					"name": "beneficiary",
					"type": "address"
				},
				{
					"indexed": false,
					"internalType": "address",
					"name": "token",
					"type": "address"
				},
				{
					"indexed": false,
					"internalType": "uint256",
					"name": "projectTokenCount",
					"type": "uint256"
				},
				{
					"indexed": false,
					"internalType": "uint256",
					"name": "terminalTokenAmount",
					"type": "uint256"
				},
				{
					"indexed": false,
					"internalType": "uint256",
					"name": "index",
					"type": "uint256"
				},
				{
					"indexed": false,
					"internalType": "bool",
					"name": "autoAddedToBalance",
					"type": "bool"
				},
				{
					"indexed": false,
					"internalType": "address",
					"name": "caller",
					"type": "address"
				}
			],
			"name": "Claimed",
			"type": "event"
		},
		{
			"anonymous": false,
			"inputs": [
				{
					"indexed": false,
					"internalType": "uint40",
					"name": "timestamp",
					"type": "uint40"
				},
				{
					"indexed": false,
					"internalType": "address",
					"name": "caller",
					"type": "address"
				}
			],
			"name": "DeprecationTimeUpdated",
			"type": "event"
		},
		{
			"anonymous": false,
			"inputs": [
				{
					"indexed": false,
					"internalType": "address[]",
					"name": "tokens",
					"type": "address[]"
				},
				{
					"indexed": false,
					"internalType": "address",
					"name": "caller",
					"type": "address"
				}
			],
			"name": "EmergencyHatchOpened",
			"type": "event"
		},
		{
			"anonymous": false,
			"inputs": [
				{
					"indexed": false,
					"internalType": "uint64",
					"name": "version",
					"type": "uint64"
				}
			],
			"name": "Initialized",
			"type": "event"
		},
		{
			"anonymous": false,
			"inputs": [
				{
					"indexed": true,
					"internalType": "address",
					"name": "beneficiary",
					"type": "address"
				},
				{
					"indexed": true,
					"internalType": "address",
					"name": "token",
					"type": "address"
				},
				{
					"indexed": false,
					"internalType": "bytes32",
					"name": "hashed",
					"type": "bytes32"
				},
				{
					"indexed": false,
					"internalType": "uint256",
					"name": "index",
					"type": "uint256"
				},
				{
					"indexed": false,
					"internalType": "bytes32",
					"name": "root",
					"type": "bytes32"
				},
				{
					"indexed": false,
					"internalType": "uint256",
					"name": "projectTokenCount",
					"type": "uint256"
				},
				{
					"indexed": false,
					"internalType": "uint256",
					"name": "terminalTokenAmount",
					"type": "uint256"
				},
				{
					"indexed": false,
					"internalType": "address",
					"name": "caller",
					"type": "address"
				}
			],
			"name": "InsertToOutboxTree",
			"type": "event"
		},
		{
			"anonymous": false,
			"inputs": [
				{
					"indexed": true,
					"internalType": "address",
					"name": "token",
					"type": "address"
				},
				{
					"indexed": false,
					"internalType": "uint64",
					"name": "nonce",
					"type": "uint64"
				},
				{
					"indexed": false,
					"internalType": "bytes32",
					"name": "root",
					"type": "bytes32"
				},
				{
					"indexed": false,
					"internalType": "address",
					"name": "caller",
					"type": "address"
				}
			],
			"name": "NewInboxTreeRoot",
			"type": "event"
		},
		{
			"anonymous": false,
			"inputs": [
				{
					"indexed": true,
					"internalType": "bytes32",
					"name": "root",
					"type": "bytes32"
				},
				{
					"indexed": true,
					"internalType": "address",
					"name": "token",
					"type": "address"
				},
				{
					"indexed": false,
					"internalType": "uint256",
					"name": "index",
					"type": "uint256"
				},
				{
					"indexed": false,
					"internalType": "uint64",
					"name": "nonce",
					"type": "uint64"
				},
				{
					"indexed": false,
					"internalType": "address",
					"name": "caller",
					"type": "address"
				}
			],
			"name": "RootToRemote",
			"type": "event"
		},
		{
			"inputs": [],
			"name": "InvalidInitialization",
			"type": "error"
		},
		{
			"inputs": [
				{
					"internalType": "uint256",
					"name": "chainId",
					"type": "uint256"
				}
			],
			"name": "JBArbitrumSucker_ChainNotSupported",
			"type": "error"
		},
		{
			"inputs": [
				{
					"internalType": "uint256",
					"name": "payment",
					"type": "uint256"
				},
				{
					"internalType": "uint256",
					"name": "cost",
					"type": "uint256"
				}
			],
			"name": "JBArbitrumSucker_NotEnoughGas",
			"type": "error"
		},
		{
			"inputs": [
				{
					"internalType": "address",
					"name": "account",
					"type": "address"
				},
				{
					"internalType": "address",
					"name": "sender",
					"type": "address"
				},
				{
					"internalType": "uint256",
					"name": "projectId",
					"type": "uint256"
				},
				{
					"internalType": "uint256",
					"name": "permissionId",
					"type": "uint256"
				}
			],
			"name": "JBPermissioned_Unauthorized",
			"type": "error"
		},
		{
			"inputs": [
				{
					"internalType": "uint256",
					"name": "minGas",
					"type": "uint256"
				},
				{
					"internalType": "uint256",
					"name": "minGasLimit",
					"type": "uint256"
				}
			],
			"name": "JBSucker_BelowMinGas",
			"type": "error"
		},
		{
			"inputs": [],
			"name": "JBSucker_Deprecated",
			"type": "error"
		},
		{
			"inputs": [
				{
					"internalType": "uint256",
					"name": "givenTime",
					"type": "uint256"
				},
				{
					"internalType": "uint256",
					"name": "minimumTime",
					"type": "uint256"
				}
			],
			"name": "JBSucker_DeprecationTimestampTooSoon",
			"type": "error"
		},
		{
			"inputs": [],
			"name": "JBSucker_ExpectedMsgValue",
			"type": "error"
		},
		{
			"inputs": [
				{
					"internalType": "uint256",
					"name": "amount",
					"type": "uint256"
				},
				{
					"internalType": "uint256",
					"name": "balance",
					"type": "uint256"
				}
			],
			"name": "JBSucker_InsufficientBalance",
			"type": "error"
		},
		{
			"inputs": [
				{
					"internalType": "uint256",
					"name": "received",
					"type": "uint256"
				},
				{
					"internalType": "uint256",
					"name": "expected",
					"type": "uint256"
				}
			],
			"name": "JBSucker_InsufficientMsgValue",
			"type": "error"
		},
		{
			"inputs": [
				{
					"internalType": "address",
					"name": "remoteToken",
					"type": "address"
				}
			],
			"name": "JBSucker_InvalidNativeRemoteAddress",
			"type": "error"
		},
		{
			"inputs": [
				{
					"internalType": "bytes32",
					"name": "root",
					"type": "bytes32"
				},
				{
					"internalType": "bytes32",
					"name": "inboxRoot",
					"type": "bytes32"
				}
			],
			"name": "JBSucker_InvalidProof",
			"type": "error"
		},
		{
			"inputs": [
				{
					"internalType": "address",
					"name": "token",
					"type": "address"
				},
				{
					"internalType": "uint256",
					"name": "index",
					"type": "uint256"
				}
			],
			"name": "JBSucker_LeafAlreadyExecuted",
			"type": "error"
		},
		{
			"inputs": [
				{
					"internalType": "enum JBAddToBalanceMode",
					"name": "mode",
					"type": "uint8"
				}
			],
			"name": "JBSucker_ManualNotAllowed",
			"type": "error"
		},
		{
			"inputs": [
				{
					"internalType": "uint256",
					"name": "projectId",
					"type": "uint256"
				},
				{
					"internalType": "address",
					"name": "token",
					"type": "address"
				}
			],
			"name": "JBSucker_NoTerminalForToken",
			"type": "error"
		},
		{
			"inputs": [
				{
					"internalType": "address",
					"name": "caller",
					"type": "address"
				}
			],
			"name": "JBSucker_NotPeer",
			"type": "error"
		},
		{
			"inputs": [
				{
					"internalType": "uint256",
					"name": "amount",
					"type": "uint256"
				},
				{
					"internalType": "uint256",
					"name": "minimumAmount",
					"type": "uint256"
				}
			],
			"name": "JBSucker_QueueInsufficientSize",
			"type": "error"
		},
		{
			"inputs": [
				{
					"internalType": "address",
					"name": "localToken",
					"type": "address"
				},
				{
					"internalType": "address",
					"name": "mappedTo",
					"type": "address"
				}
			],
			"name": "JBSucker_TokenAlreadyMapped",
			"type": "error"
		},
		{
			"inputs": [
				{
					"internalType": "address",
					"name": "token",
					"type": "address"
				}
			],
			"name": "JBSucker_TokenHasInvalidEmergencyHatchState",
			"type": "error"
		},
		{
			"inputs": [
				{
					"internalType": "address",
					"name": "token",
					"type": "address"
				}
			],
			"name": "JBSucker_TokenNotMapped",
			"type": "error"
		},
		{
			"inputs": [
				{
					"internalType": "uint256",
					"name": "value",
					"type": "uint256"
				}
			],
			"name": "JBSucker_UnexpectedMsgValue",
			"type": "error"
		},
		{
			"inputs": [],
			"name": "JBSucker_ZeroBeneficiary",
			"type": "error"
		},
		{
			"inputs": [],
			"name": "JBSucker_ZeroERC20Token",
			"type": "error"
		},
		{
			"inputs": [],
			"name": "MerkleLib__insert_treeIsFull",
			"type": "error"
		},
		{
			"inputs": [],
			"name": "NotInitializing",
			"type": "error"
		},
		{
			"inputs": [
				{
					"internalType": "address",
					"name": "token",
					"type": "address"
				}
			],
			"name": "SafeERC20FailedOperation",
			"type": "error"
		}
	],
	"args": [],
	"solcInputHash": "14ce4938174f25cdd1fbe9b98155e159",
	"bytecode": "0x6101806040523480156200001257600080fd5b50604051620064f2380380620064f283398101604081905262000035916200030f565b6001600160a01b0380821660805280851660a05280861660e05283166101005284848484848160018111156200006f576200006f620003a3565b60c0816001811115620000865762000086620003a3565b9052506200009362000237565b5050505050856001600160a01b03166307fada496040518163ffffffff1660e01b8152600401602060405180830381865afa158015620000d7573d6000803e3d6000fd5b505050506040513d601f19601f82011682018060405250810190620000fd9190620003b9565b6001600160a01b0316610140816001600160a01b031681525050856001600160a01b031663557819a46040518163ffffffff1660e01b8152600401602060405180830381865afa15801562000156573d6000803e3d6000fd5b505050506040513d601f19601f820116820180604052508101906200017c9190620003b9565b6001600160a01b0316610120816001600160a01b031681525050856001600160a01b03166370a2b8db6040518163ffffffff1660e01b8152600401602060405180830381865afa158015620001d5573d6000803e3d6000fd5b505050506040513d601f19601f82011682018060405250810190620001fb9190620003e0565b60018111156200020f576200020f620003a3565b610160816001811115620002275762000227620003a3565b8152505050505050505062000400565b7ff0c57e16840df040f15088dc2f81fe391c3923bec73e23a9662efc9c229c6a00805468010000000000000000900460ff1615620002885760405163f92ee8a960e01b815260040160405180910390fd5b80546001600160401b0390811614620002e85780546001600160401b0319166001600160401b0390811782556040519081527fc7f505b2f371ae2175ee4913f4499e1f2633a7b5936321eed1cdaeb6115181d29060200160405180910390a15b50565b6001600160a01b0381168114620002e857600080fd5b60028110620002e857600080fd5b60008060008060008060c087890312156200032957600080fd5b86516200033681620002eb565b60208801519096506200034981620002eb565b60408801519095506200035c81620002eb565b60608801519094506200036f81620002eb565b6080880151909350620003828162000301565b60a08801519092506200039581620002eb565b809150509295509295509295565b634e487b7160e01b600052602160045260246000fd5b600060208284031215620003cc57600080fd5b8151620003d981620002eb565b9392505050565b600060208284031215620003f357600080fd5b8151620003d98162000301565b60805160a05160c05160e05161010051610120516101405161016051615fe46200050e6000396000818161078c01528181612b67015281816149770152614a510152600081816107f5015281816150d501528181615148015281816153bd015261543001526000818161065d01528181612ba001528181614e8001528181614f68015261527d0152600081816102b90152610baf0152600081816105f201528181610e630152818161127f01528181611c6501528181611e61015281816122f8015261280a01526000818161074b015281816110340152818161106b015281816115610152611bdd01526000818161082901526126a40152600081816104870152610da20152615fe46000f3fe60806040526004361061021d5760003560e01c8063802c8fa01161011d578063c1854129116100b0578063cdfceeba1161007f578063defbb69711610064578063defbb697146107e3578063f434c91414610817578063fe4b84df1461084b57600080fd5b8063cdfceeba146107ae578063d5f39488146107c357600080fd5b8063c1854129146106f7578063c19d93fb14610717578063c6525f2c14610739578063c86719b71461077a57600080fd5b8063b1012368116100ec578063b10123681461064b578063b59ef50f1461067f578063b71c11791461069f578063bf557aee146106b257600080fd5b8063802c8fa0146105b357806388bc2ef3146105e057806392ee1ea7146106145780639e6d7d431461062b57600080fd5b8063551ebbf0116101b057806369d31fdd1161017f578063754515591161016457806375451559146104585780637da0a877146104785780637de6fba2146104ab57600080fd5b806369d31fdd146103cc5780636d9e384b146103df57600080fd5b8063551ebbf01461034c578063572b6c051461036c5780636284386a1461038c57806369ce2233146103ac57600080fd5b80632241dc52116101ec5780632241dc52146102db57806338eb2044146102ee5780633a5de07d146103015780633fafa1271461032d57600080fd5b806301ffc9a7146102295780630f6482141461025e57806311cda415146102805780631d831d5c146102a757600080fd5b3661022457005b600080fd5b34801561023557600080fd5b50610249610244366004615637565b61086b565b60405190151581526020015b60405180910390f35b34801561026a57600080fd5b5061027e610279366004615679565b61099c565b005b34801561028c57600080fd5b50305b6040516001600160a01b039091168152602001610255565b3480156102b357600080fd5b5061028f7f000000000000000000000000000000000000000000000000000000000000000081565b61027e6102e9366004615692565b610a53565b61027e6102fc366004615719565b610b61565b34801561030d57600080fd5b5061031862030d4081565b60405163ffffffff9091168152602001610255565b34801561033957600080fd5b506002545b604051908152602001610255565b34801561035857600080fd5b5061027e61036736600461574a565b610b6b565b34801561037857600080fd5b50610249610387366004615794565b610d9e565b34801561039857600080fd5b5061027e6103a73660046157b1565b610ddd565b3480156103b857600080fd5b5061027e6103c7366004615794565b611030565b61027e6103da366004615719565b6110cf565b3480156103eb57600080fd5b5061044b6103fa366004615794565b6040805180820190915260008082526020820152506001600160a01b03166000908152600460209081526040918290208251808401909352805467ffffffffffffffff168352600101549082015290565b60405161025591906157d8565b34801561046457600080fd5b5061027e6104733660046157f9565b61126d565b34801561048457600080fd5b507f000000000000000000000000000000000000000000000000000000000000000061028f565b3480156104b757600080fd5b5061055e6104c6366004615794565b6040805160a0808201835260008083526020808401829052838501829052606080850183905260809485018390526001600160a01b039687168352600682529185902085519384018652805460ff8082161515865261010082041615159285019290925262010000820463ffffffff169584019590955266010000000000009004909416938101939093526001909101549082015290565b6040516102559190600060a08201905082511515825260208301511515602083015263ffffffff60408401511660408301526001600160a01b0360608401511660608301526080830151608083015292915050565b3480156105bf57600080fd5b506105d36105ce366004615794565b611408565b604051610255919061585c565b3480156105ec57600080fd5b5061028f7f000000000000000000000000000000000000000000000000000000000000000081565b34801561062057600080fd5b50610318620493e081565b34801561063757600080fd5b5061033e610646366004615794565b6114a8565b34801561065757600080fd5b5061028f7f000000000000000000000000000000000000000000000000000000000000000081565b34801561068b57600080fd5b5061027e61069a366004615679565b6114d8565b61027e6106ad366004615794565b6115fe565b3480156106be57600080fd5b506102496106cd366004615794565b6001600160a01b039081166000908152600660205260409020546601000000000000900416151590565b34801561070357600080fd5b5061027e6107123660046158c3565b611741565b34801561072357600080fd5b5061072c61177a565b604051610255919061593d565b34801561074557600080fd5b5061076d7f000000000000000000000000000000000000000000000000000000000000000081565b6040516102559190615967565b34801561078657600080fd5b5061076d7f000000000000000000000000000000000000000000000000000000000000000081565b3480156107ba57600080fd5b5061033e6117c3565b3480156107cf57600080fd5b5060005461028f906001600160a01b031681565b3480156107ef57600080fd5b5061028f7f000000000000000000000000000000000000000000000000000000000000000081565b34801561082357600080fd5b5061028f7f000000000000000000000000000000000000000000000000000000000000000081565b34801561085757600080fd5b5061027e610866366004615974565b611819565b60007fffffffff0000000000000000000000000000000000000000000000000000000082167f18a5af270000000000000000000000000000000000000000000000000000000014806108fe57507fffffffff0000000000000000000000000000000000000000000000000000000082167f583ff5cc00000000000000000000000000000000000000000000000000000000145b8061094a57507fffffffff0000000000000000000000000000000000000000000000000000000082167ff434c91400000000000000000000000000000000000000000000000000000000145b8061099657507f01ffc9a7000000000000000000000000000000000000000000000000000000007fffffffff000000000000000000000000000000000000000000000000000000008316145b92915050565b6109d460608201356109b16020840184615794565b60808401356109c66060860160408701615794565b602086013560a087016119a8565b6080810135600560006109ea6020850185615794565b6001600160a01b03166001600160a01b031681526020019081526020016000206001016000828254610a1c91906159a3565b90915550610a509050610a326020830183615794565b608083013560608401803590610a4b9060408701615794565b611bd9565b50565b6000805b82811015610b0e57600060056000868685818110610a7757610a776159b6565b610a8d9260206080909202019081019150615794565b6001600160a01b03168152602081019190915260400160009081209150858584818110610abc57610abc6159b6565b9050608002016040016020810190610ad49190615794565b6001600160a01b0316148015610af257506022810154602382015414155b15610b055782610b01816159cc565b9350505b50600101610a57565b5060005b82811015610b5b57610b53848483818110610b2f57610b2f6159b6565b90506080020160008411610b44576000611d82565b610b4e84346159e6565b611d82565b600101610b12565b50505050565b610a508134611d82565b6001600160a01b038316610bab576040517f8d3329cd00000000000000000000000000000000000000000000000000000000815260040160405180910390fd5b60007f00000000000000000000000000000000000000000000000000000000000000006001600160a01b031663ea78803f610be560025490565b6040518263ffffffff1660e01b8152600401610c0391815260200190565b602060405180830381865afa158015610c20573d6000803e3d6000fd5b505050506040513d601f19601f82011682018060405250810190610c449190615a08565b90506001600160a01b038116610c86576040517fcaa06d2000000000000000000000000000000000000000000000000000000000815260040160405180910390fd5b6001600160a01b03821660009081526006602052604090205460ff16610ce8576040517f04fdbe060000000000000000000000000000000000000000000000000000000081526001600160a01b03831660048201526024015b60405180910390fd5b6000610cf261177a565b90506003816003811115610d0857610d08615927565b1480610d2557506002816003811115610d2357610d23615927565b145b15610d5c576040517fb10f8cca00000000000000000000000000000000000000000000000000000000815260040160405180910390fd5b610d79610d6761221c565b6001600160a01b03841690308961222b565b6000610d87838886886122a7565b9050610d9587858389612495565b50505050505050565b60007f00000000000000000000000000000000000000000000000000000000000000005b6001600160a01b0316826001600160a01b0316149050919050565b6000610de761177a565b90506003816003811115610dfd57610dfd615927565b1480610e1a57506002816003811115610e1857610e18615927565b145b15610e51576040517fb10f8cca00000000000000000000000000000000000000000000000000000000815260040160405180910390fd5b6000610e5c60025490565b9050610f597f00000000000000000000000000000000000000000000000000000000000000006001600160a01b031663293c49996040518163ffffffff1660e01b8152600401602060405180830381865afa158015610ebf573d6000803e3d6000fd5b505050506040513d601f19601f82011682018060405250810190610ee39190615a08565b6001600160a01b0316636352211e836040518263ffffffff1660e01b8152600401610f1091815260200190565b602060405180830381865afa158015610f2d573d6000803e3d6000fd5b505050506040513d601f19601f82011682018060405250810190610f519190615a08565b82601e61261f565b6000610f686212750042615a25565b905064ffffffffff841615801590610f865750808464ffffffffff16105b15610fcd576040517f044691ac00000000000000000000000000000000000000000000000000000000815264ffffffffff8516600482015260248101829052604401610cdf565b64ffffffffff84166001557f455efa76af2a8686dc0dd3041bda89ece5ba4691277d525e2161003bbca8b2458461100261221c565b6040805164ffffffffff90931683526001600160a01b0390911660208301520160405180910390a150505050565b60007f0000000000000000000000000000000000000000000000000000000000000000600181111561106457611064615927565b146110bd577f00000000000000000000000000000000000000000000000000000000000000006040517fb039c395000000000000000000000000000000000000000000000000000000008152600401610cdf9190615967565b610a50816110ca836114a8565b612769565b6110df6110da61221c565b612b62565b611129576110eb61221c565b6040517f36183c8f0000000000000000000000000000000000000000000000000000000081526001600160a01b039091166004820152602401610cdf565b600060048161113b6020850185615794565b6001600160a01b0316815260208101919091526040908101600020805490925067ffffffffffffffff16906111769060608501908501615a38565b67ffffffffffffffff161180156111a65750600361119261177a565b60038111156111a3576111a3615927565b14155b15611269576111bb6060830160408401615a38565b815467ffffffffffffffff191667ffffffffffffffff91909116178155606082013560018201556111ef6020830183615794565b6001600160a01b03167fc69d3412489554fb7820c4c2784cb644b6c79bfc117444b93977d3d33a9b8eac6112296060850160408601615a38565b606085013561123661221c565b6040805167ffffffffffffffff909416845260208401929092526001600160a01b03169082015260600160405180910390a25b5050565b600061127860025490565b90506112db7f00000000000000000000000000000000000000000000000000000000000000006001600160a01b031663293c49996040518163ffffffff1660e01b8152600401602060405180830381865afa158015610ebf573d6000803e3d6000fd5b60005b828110156113c0576000600660008686858181106112fe576112fe6159b6565b90506020020160208101906113139190615794565b6001600160a01b031681526020810191909152604001600090812080547fffffffffffffffffffffffffffffffffffffffffffffffffffffffffffffff001692151592909217909155600190600690868685818110611374576113746159b6565b90506020020160208101906113899190615794565b6001600160a01b03168152602081019190915260400160002080549115156101000261ff00199092169190911790556001016112de565b507f8021bce60b20a9afb57085869a3552e0ee5b272b868df894fb30c5e90e74c07283836113ec61221c565b6040516113fb93929190615a62565b60405180910390a1505050565b611410615586565b6001600160a01b0382166000908152600560209081526040918290208251608081018452815467ffffffffffffffff1681526001820154818401528351610440810180865291949293858401939192600286019284929083019184919082845b815481526020019060010190808311611470575050509183525050602091820154908201529082526023929092015491015292915050565b6001600160a01b0381166000908152600560205260408120600101546114ce8330612d39565b61099691906159a3565b61151060608201356114ed6020840184615794565b60808401356115026060860160408701615794565b602086013560a08701612dff565b7faaca6f6829d340365b5e6599e0d513cbb4602b94f58ccf16ac77d8d3ae7139ef6115416060830160408401615794565b61154e6020840184615794565b60608401356080850135602086013560017f0000000000000000000000000000000000000000000000000000000000000000600181111561159157611591615927565b1461159d5760006115a0565b60015b6115a861221c565b604080516001600160a01b039889168152968816602088015286019490945260608501929092526080840152151560a083015290911660c082015260e00160405180910390a1610a50610a326020830183615794565b6001600160a01b03808216600090815260066020908152604091829020825160a081018452815460ff808216151583526101008204161580159483019490945263ffffffff6201000082041694820194909452660100000000000090930490931660608301526001909201546080820152906116b1576040517f4bba81f00000000000000000000000000000000000000000000000000000000081526001600160a01b0383166004820152602401610cdf565b60808101516001600160a01b0383166000908152600560205260409020600101541015611736576001600160a01b0382166000908152600560205260409081902060010154608083015191517fc3e11b79000000000000000000000000000000000000000000000000000000008152610cdf9290600401918252602082015260400190565b611269348383612ed5565b60005b818110156117755761176d838383818110611761576117616159b6565b90506104a002016114d8565b600101611744565b505050565b60015460009080820361178f57600091505090565b61179c62127500826159a3565b4210156117ab57600191505090565b804210156117bb57600291505090565b600391505090565b60004660001981016117d85761a4b191505090565b61a4b181036117e957600191505090565b62aa36a781036117fd5762066eee91505090565b62066eee81036118115762aa36a791505090565b600091505090565b7ff0c57e16840df040f15088dc2f81fe391c3923bec73e23a9662efc9c229c6a00805468010000000000000000810460ff16159067ffffffffffffffff166000811580156118645750825b905060008267ffffffffffffffff1660011480156118815750303b155b90508115801561188f575080155b156118c6576040517ff92ee8a900000000000000000000000000000000000000000000000000000000815260040160405180910390fd5b845467ffffffffffffffff1916600117855583156119105784547fffffffffffffffffffffffffffffffffffffffffffffff00ffffffffffffffff16680100000000000000001785555b6002869055600080547fffffffffffffffffffffffff0000000000000000000000000000000000000000163317905583156119a05784547fffffffffffffffffffffffffffffffffffffffffffffff00ffffffffffffffff168555604051600181527fc7f505b2f371ae2175ee4913f4499e1f2633a7b5936321eed1cdaeb6115181d29060200160405180910390a15b505050505050565b60006119b261177a565b905060038160038111156119c8576119c8615927565b141580156119e8575060028160038111156119e5576119e5615927565b14155b8015611a1257506001600160a01b038616600090815260066020526040902054610100900460ff16155b15611a54576040517f4bba81f00000000000000000000000000000000000000000000000000000000081526001600160a01b0387166004820152602401610cdf565b6001600160a01b0386166000908152600560205260409020602381015415801590611a8f57508360018260230154611a8c91906159a3565b10155b15611ad8576040517fa4e6bcec0000000000000000000000000000000000000000000000000000000081526001600160a01b038816600482015260248101859052604401610cdf565b604080516001600160a01b03891660208201526000910160408051808303601f19018152918152815160209283012060601c60008181526003845282812060088a901c8252909352912054909150600160ff87161b1615611b77576040517fa4e6bcec0000000000000000000000000000000000000000000000000000000081526001600160a01b038916600482015260248101869052604401610cdf565b6001600160a01b039081166000908152600360209081526040808320600889901c845282528083208054600160ff8b161b179055928a1682526005905220611bcf90611bc5906002016130f5565b89888888886144ab565b5050505050505050565b60017f00000000000000000000000000000000000000000000000000000000000000006001811115611c0d57611c0d615927565b148015611c1957508215155b15611c2857611c288484612769565b6000611c3360025490565b6040517f5dd8f6aa000000000000000000000000000000000000000000000000000000008152600481018290529091507f00000000000000000000000000000000000000000000000000000000000000006001600160a01b031690635dd8f6aa90602401602060405180830381865afa158015611cb4573d6000803e3d6000fd5b505050506040513d601f19601f82011682018060405250810190611cd89190615a08565b6040517fc7fb92de00000000000000000000000000000000000000000000000000000000815260048101839052602481018590526001600160a01b03848116604483015260a06064830152600060a483018190526084830152919091169063c7fb92de9060c4016020604051808303816000875af1158015611d5e573d6000803e3d6000fd5b505050506040513d601f19601f820116820180604052508101906119a09190615ac2565b6000611d916020840184615794565b6001600160a01b03808216600090815260066020908152604091829020825160a081018452815460ff808216151583526101008204161580159483019490945263ffffffff6201000082041694820194909452660100000000000090930490931660608301526001909201546080820152919250611e46576040517f4bba81f00000000000000000000000000000000000000000000000000000000081526001600160a01b0383166004820152602401610cdf565b611e4f8461455d565b6000611e5a60025490565b9050611f577f00000000000000000000000000000000000000000000000000000000000000006001600160a01b031663293c49996040518163ffffffff1660e01b8152600401602060405180830381865afa158015611ebd573d6000803e3d6000fd5b505050506040513d601f19601f82011682018060405250810190611ee19190615a08565b6001600160a01b0316636352211e836040518263ffffffff1660e01b8152600401611f0e91815260200190565b602060405180830381865afa158015611f2b573d6000803e3d6000fd5b505050506040513d601f19601f82011682018060405250810190611f4f9190615a08565b82601c61261f565b60608201516001600160a01b031615801590611f985750611f7e6060860160408701615794565b6001600160a01b031682606001516001600160a01b031614155b8015611fbd57506000611fb16060870160408801615794565b6001600160a01b031614155b8015611fe357506001600160a01b03831660009081526005602052604090206022015415155b156120335760608201516040517f1460b5460000000000000000000000000000000000000000000000000000000081526001600160a01b0380861660048301529091166024820152604401610cdf565b60006120456060870160408801615794565b6001600160a01b031614801561207c57506001600160a01b0383166000908152600560205260409020602281015460239091015414155b1561208c5761208c848484612ed5565b6040518060a0016040528060006001600160a01b03168760400160208101906120b59190615794565b6001600160a01b03161415151581526020016000151581526020018660200160208101906120e39190615adb565b63ffffffff16815260200160006121006060890160408a01615794565b6001600160a01b0316146121235761211e6060880160408901615794565b612129565b83606001515b6001600160a01b039081168252606097880135602092830152948516600090815260068252604090819020835181549385015192850151998501517fffffffffffffffffffffffffffffffffffffffffffffffffffffffffffff000090941690151561ff0019161761010092151592909202919091177fffffffffffff000000000000000000000000000000000000000000000000ffff166201000063ffffffff909916989098027fffffffffffff0000000000000000000000000000000000000000ffffffffffff16979097176601000000000000919095160293909317855550506080015160019092019190915550565b6000612226614698565b905090565b6040516001600160a01b038481166024830152838116604483015260648201839052610b5b9186918216906323b872dd906084015b604051602081830303815290604052915060e01b6020820180517bffffffffffffffffffffffffffffffffffffffffffffffffffffffff83818316178352505050506146ea565b6000806122b360025490565b6040517f86202650000000000000000000000000000000000000000000000000000000008152600481018290526001600160a01b0386811660248301529192506000917f00000000000000000000000000000000000000000000000000000000000000001690638620265090604401602060405180830381865afa15801561233f573d6000803e3d6000fd5b505050506040513d601f19601f820116820180604052508101906123639190615a08565b90506001600160a01b0381166123b7576040517fb61c181f000000000000000000000000000000000000000000000000000000008152600481018390526001600160a01b0386166024820152604401610cdf565b60006123c38630612d39565b604080516020810182526000815290517f13da83170000000000000000000000000000000000000000000000000000000081529192506001600160a01b038416916313da83179161242291309188918d918d918d918691600401615b51565b6020604051808303816000875af1158015612441573d6000803e3d6000fd5b505050506040513d601f19601f820116820180604052508101906124659190615ac2565b9350806124728730612d39565b61247c91906159a3565b841461248a5761248a615ba4565b505050949350505050565b6040805160208082018790528183018590526001600160a01b03841660608084019190915283518084039091018152608090920190925280519101206000906001600160a01b038516600090815260056020908152604080832081516104408101808452959650909461253e9387936002880192849291830191849182845b81548152602001906001019080831161251457505050918352505060209182015491015290614774565b80519091508190600284019061255790829060206155b2565b5060208201518160200155905050848260010160008282546125799190615a25565b92505081905550856001600160a01b0316846001600160a01b03167f584a41ff082fad99bb6e50c5767c347c762057fe5726539f0a8de49d84549c2385600185602001516125c791906159a3565b6125d3876002016130f5565b8c8b6125dd61221c565b60408051968752602087019590955293850192909252606084015260808301526001600160a01b031660a082015260c00160405180910390a350505050505050565b600061262961221c565b9050836001600160a01b0316816001600160a01b03161415801561271157506040517f348b684e0000000000000000000000000000000000000000000000000000000081526001600160a01b0382811660048301528581166024830152604482018590526064820184905260016084830181905260a48301527f0000000000000000000000000000000000000000000000000000000000000000169063348b684e9060c401602060405180830381865afa1580156126eb573d6000803e3d6000fd5b505050506040513d601f19601f8201168201806040525081019061270f9190615bba565b155b15610b5b576040517f264deeaa0000000000000000000000000000000000000000000000000000000081526001600160a01b038086166004830152821660248201526044810184905260648101839052608401610cdf565b6000612774836114a8565b9050808211156127ba576040517f60ec3e710000000000000000000000000000000000000000000000000000000081526004810183905260248101829052604401610cdf565b60006127c560025490565b6040517f86202650000000000000000000000000000000000000000000000000000000008152600481018290526001600160a01b0386811660248301529192506000917f00000000000000000000000000000000000000000000000000000000000000001690638620265090604401602060405180830381865afa158015612851573d6000803e3d6000fd5b505050506040513d601f19601f820116820180604052508101906128759190615a08565b90506001600160a01b0381166128c9576040517fb61c181f000000000000000000000000000000000000000000000000000000008152600481018390526001600160a01b0386166024820152604401610cdf565b6001600160a01b03851661eeee14612ab2576040517f70a082310000000000000000000000000000000000000000000000000000000081523060048201526000906001600160a01b038716906370a0823190602401602060405180830381865afa15801561293b573d6000803e3d6000fd5b505050506040513d601f19601f8201168201806040525081019061295f9190615ac2565b905061296c8683876148ac565b6040517f9e6eec05000000000000000000000000000000000000000000000000000000008152600481018490526001600160a01b0387811660248301526044820187905260006064830181905260c0608484015260c4830181905260e060a484015260e4830152831690639e6eec059061010401600060405180830381600087803b1580156129fa57600080fd5b505af1158015612a0e573d6000803e3d6000fd5b505050508481612a1e91906159a3565b6040517f70a082310000000000000000000000000000000000000000000000000000000081523060048201526001600160a01b038816906370a0823190602401602060405180830381865afa158015612a7b573d6000803e3d6000fd5b505050506040513d601f19601f82011682018060405250810190612a9f9190615ac2565b14612aac57612aac615ba4565b50612b5b565b6040517f9e6eec05000000000000000000000000000000000000000000000000000000008152600481018390526001600160a01b0386811660248301526044820186905260006064830181905260c0608484015260c4830181905260e060a484015260e4830152821690639e6eec05908690610104016000604051808303818588803b158015612b4157600080fd5b505af1158015612b55573d6000803e3d6000fd5b50505050505b5050505050565b6000807f00000000000000000000000000000000000000000000000000000000000000006001811115612b9757612b97615927565b03612d1d5760007f00000000000000000000000000000000000000000000000000000000000000006001600160a01b031663e78cea926040518163ffffffff1660e01b8152600401602060405180830381865afa158015612bfc573d6000803e3d6000fd5b505050506040513d601f19601f82011682018060405250810190612c209190615a08565b9050806001600160a01b0316836001600160a01b0316148015612d165750806001600160a01b031663ab5d89436040518163ffffffff1660e01b8152600401602060405180830381865afa158015612c7c573d6000803e3d6000fd5b505050506040513d601f19601f82011682018060405250810190612ca09190615a08565b6001600160a01b03166380648b026040518163ffffffff1660e01b8152600401602060405180830381865afa158015612cdd573d6000803e3d6000fd5b505050506040513d601f19601f82011682018060405250810190612d019190615a08565b6001600160a01b0316306001600160a01b0316145b9392505050565b7311110000000000000000000000000000000011113001610dc2565b60007fffffffffffffffffffffffffffffffffffffffffffffffffffffffffffff11126001600160a01b03841601612d7c57506001600160a01b03811631610996565b6040517f70a082310000000000000000000000000000000000000000000000000000000081526001600160a01b0383811660048301528416906370a0823190602401602060405180830381865afa158015612ddb573d6000803e3d6000fd5b505050506040513d601f19601f82011682018060405250810190612d169190615ac2565b6001600160a01b0385166000908152600360209081526040808320600886901c8452909152902054600160ff84161b1615612e78576040517fa4e6bcec0000000000000000000000000000000000000000000000000000000081526001600160a01b038616600482015260248101839052604401610cdf565b6001600160a01b0385166000908152600360209081526040808320600886901c845290915290208054600160ff85161b1790556001600160a01b0385166000908152600460205260409020600101546119a09087868686866144ab565b60608101516001600160a01b0316612f24576040517f04fdbe060000000000000000000000000000000000000000000000000000000081526001600160a01b0383166004820152602401610cdf565b6000612f2e61177a565b90506003816003811115612f4457612f44615927565b1480612f6157506002816003811115612f5f57612f5f615927565b145b15612f98576040517fb10f8cca00000000000000000000000000000000000000000000000000000000815260040160405180910390fd5b6001600160a01b03831660009081526005602052604081206001810180549083905581549192909183908290612fd79067ffffffffffffffff16615bdc565b91906101000a81548167ffffffffffffffff021916908367ffffffffffffffff16021790559050600061300c846002016130f5565b60228501546023860181905590915060006130286001836159a3565b9050886001600160a01b0316837f47c5615513b0f669da2dd7e3362a34610ca2695d0a0e2da2160cee952eab203c838761306061221c565b6040805193845267ffffffffffffffff90921660208401526001600160a01b03169082015260600160405180910390a3600060405180606001604052808a606001516001600160a01b0316815260200187815260200160405180604001604052808867ffffffffffffffff1681526020018781525081525090506130e88b838c898d8661496a565b5050505050505050505050565b602081015460009080820361312c57507f27ae5ba08d7291c96c8cbddcc148bf48a6d68c7974b94356f53754ef6171d75792915050565b600083600183161561314e578054600052600060205260406000209350613a01565b60028316156131935760018101546000527fad3228b676f7d3cd4284a5443f17f1962b36e491b30a40b2405849e597ba5fb56020526040600020935060019150613a01565b60048316156131d85760028101546000527fb4c11951957c6f8f642c4af61cd6b24640fec6dc7fc607ee8206a99e92410d306020526040600020935060029150613a01565b600883161561321d5760038101546000527f21ddb9a356815c3fac1026b6dec5df3124afbadb485c9ba5a3e3398a04b7ba856020526040600020935060039150613a01565b60108316156132625760048101546000527fe58769b32a1beaf1ea27375a44095a0d1fb664ce2dd358e7fcbfb78c26a193446020526040600020935060049150613a01565b60208316156132a75760058101546000527f0eb01ebfc9ed27500cd4dfc979272d1f0913cc9f66540d7e8005811109e1cf2d6020526040600020935060059150613a01565b60408316156132ec5760068101546000527f887c22bd8750d34016ac3c66b5ff102dacdd73f6b014e710b51e8022af9a19686020526040600020935060069150613a01565b60808316156133315760078101546000527fffd70157e48063fc33c97a050f7f640233bf646cc98d9524c6b92bcf3ab56f836020526040600020935060079150613a01565b6101008316156133775760088101546000527f9867cc5f7f196b93bae1e27e6320742445d290f2263827498b54fec539f756af6020526040600020935060089150613a01565b6102008316156133bd5760098101546000527fcefad4e508c098b9a7e1d8feb19955fb02ba9675585078710969d3440f5054e06020526040600020935060099150613a01565b61040083161561340357600a8101546000527ff9dc3e7fe016e050eff260334f18a5d4fe391d82092319f5964f2e2eb7c1c3a560205260406000209350600a9150613a01565b61080083161561344957600b8101546000527ff8b13a49e282f609c317a833fb8d976d11517c571d1221a265d25af778ecf89260205260406000209350600b9150613a01565b61100083161561348f57600c8101546000527f3490c6ceeb450aecdc82e28293031d10c7d73bf85e57bf041a97360aa2c5d99c60205260406000209350600c9150613a01565b6120008316156134d557600d8101546000527fc1df82d9c4b87413eae2ef048f94b4d3554cea73d92b0f7af96e0271c691e2bb60205260406000209350600d9150613a01565b61400083161561351b57600e8101546000527f5c67add7c6caf302256adedf7ab114da0acfe870d449a3a489f781d659e8becc60205260406000209350600e9150613a01565b61800083161561356157600f8101546000527fda7bce9f4e8618b6bd2f4132ce798cdc7a60e7e1460a7299e3c6342a579626d260205260406000209350600f9150613a01565b620100008316156135a85760108101546000527f2733e50f526ec2fa19a22b31e8ed50f23cd1fdf94c9154ed3a7609a2f1ff981f6020526040600020935060109150613a01565b620200008316156135ef5760118101546000527fe1d3b5c807b281e4683cc6d6315cf95b9ade8641defcb32372f1c126e398ef7a6020526040600020935060119150613a01565b620400008316156136365760128101546000527f5a2dce0a8a7f68bb74560f8f71837c2c2ebbcbf7fffb42ae1896f13f7c7479a06020526040600020935060129150613a01565b6208000083161561367d5760138101546000527fb46a28b6f55540f89444f63de0378e3d121be09e06cc9ded1c20e65876d36aa06020526040600020935060139150613a01565b621000008316156136c45760148101546000527fc65e9645644786b620e2dd2ad648ddfcbf4a7e5b1a3a4ecfe7f64667a3f0b7e26020526040600020935060149150613a01565b6220000083161561370b5760158101546000527ff4418588ed35a2458cffeb39b93d26f18d2ab13bdce6aee58e7b99359ec2dfd96020526040600020935060159150613a01565b624000008316156137525760168101546000527f5a9c16dc00d6ef18b7933a6f8dc65ccb55667138776f7dea101070dc8796e3776020526040600020935060169150613a01565b628000008316156137995760178101546000527f4df84f40ae0c8229d0d6069e5c8f39a7c299677a09d367fc7b05e3bc380ee6526020526040600020935060179150613a01565b63010000008316156137e15760188101546000527fcdc72595f74c7b1043d0e1ffbab734648c838dfb0527d971b602bc216c9619ef6020526040600020935060189150613a01565b63020000008316156138295760198101546000527f0abf5ac974a1ed57f4050aa510dd9c74f508277b39d7973bb2dfccc5eeb0618d6020526040600020935060199150613a01565b630400000083161561387157601a8101546000527fb8cd74046ff337f0a7bf2c8e03e10f642c1886798d71806ab1e888d9e5ee87d060205260406000209350601a9150613a01565b63080000008316156138b957601b8101546000527f838c5655cb21c6cb83313b5a631175dff4963772cce9108188b34ac87c81c41e60205260406000209350601b9150613a01565b631000000083161561390157601c8101546000527f662ee4dd2dd7b2bc707961b1e646c4047669dcb6584f0d8d770daf5d7e7deb2e60205260406000209350601c9150613a01565b632000000083161561394957601d8101546000527f388ab20e2573d171a88108e79d820e98f26c0b84aa8b2f4aa4968dbb818ea32260205260406000209350601d9150613a01565b634000000083161561399157601e8101546000527f93237c50ba75ee485f4c22adf2f741400bdf8d6a9cc7df7ecae576221665d73560205260406000209350601e9150613a01565b63800000008316156139d957601f8101546000527f8448818bb4ae4562849e949e17ac16e0be16688e156b5cf15e098c627c0056a960205260406000209350601f9150613a01565b7f27ae5ba08d7291c96c8cbddcc148bf48a6d68c7974b94356f53754ef6171d7579350602091505b601e82116144a3576001821015613a5f57600283168015613a2d57600182015460005284602052613a56565b846000527fad3228b676f7d3cd4284a5443f17f1962b36e491b30a40b2405849e597ba5fb56020525b50604060002093505b6002821015613ab557600483168015613a8357600282015460005284602052613aac565b846000527fb4c11951957c6f8f642c4af61cd6b24640fec6dc7fc607ee8206a99e92410d306020525b50604060002093505b6003821015613b0b57600883168015613ad957600382015460005284602052613b02565b846000527f21ddb9a356815c3fac1026b6dec5df3124afbadb485c9ba5a3e3398a04b7ba856020525b50604060002093505b6004821015613b6157601083168015613b2f57600482015460005284602052613b58565b846000527fe58769b32a1beaf1ea27375a44095a0d1fb664ce2dd358e7fcbfb78c26a193446020525b50604060002093505b6005821015613bb757602083168015613b8557600582015460005284602052613bae565b846000527f0eb01ebfc9ed27500cd4dfc979272d1f0913cc9f66540d7e8005811109e1cf2d6020525b50604060002093505b6006821015613c0d57604083168015613bdb57600682015460005284602052613c04565b846000527f887c22bd8750d34016ac3c66b5ff102dacdd73f6b014e710b51e8022af9a19686020525b50604060002093505b6007821015613c6357608083168015613c3157600782015460005284602052613c5a565b846000527fffd70157e48063fc33c97a050f7f640233bf646cc98d9524c6b92bcf3ab56f836020525b50604060002093505b6008821015613cba5761010083168015613c8857600882015460005284602052613cb1565b846000527f9867cc5f7f196b93bae1e27e6320742445d290f2263827498b54fec539f756af6020525b50604060002093505b6009821015613d115761020083168015613cdf57600982015460005284602052613d08565b846000527fcefad4e508c098b9a7e1d8feb19955fb02ba9675585078710969d3440f5054e06020525b50604060002093505b600a821015613d685761040083168015613d3657600a82015460005284602052613d5f565b846000527ff9dc3e7fe016e050eff260334f18a5d4fe391d82092319f5964f2e2eb7c1c3a56020525b50604060002093505b600b821015613dbf5761080083168015613d8d57600b82015460005284602052613db6565b846000527ff8b13a49e282f609c317a833fb8d976d11517c571d1221a265d25af778ecf8926020525b50604060002093505b600c821015613e165761100083168015613de457600c82015460005284602052613e0d565b846000527f3490c6ceeb450aecdc82e28293031d10c7d73bf85e57bf041a97360aa2c5d99c6020525b50604060002093505b600d821015613e6d5761200083168015613e3b57600d82015460005284602052613e64565b846000527fc1df82d9c4b87413eae2ef048f94b4d3554cea73d92b0f7af96e0271c691e2bb6020525b50604060002093505b600e821015613ec45761400083168015613e9257600e82015460005284602052613ebb565b846000527f5c67add7c6caf302256adedf7ab114da0acfe870d449a3a489f781d659e8becc6020525b50604060002093505b600f821015613f1b5761800083168015613ee957600f82015460005284602052613f12565b846000527fda7bce9f4e8618b6bd2f4132ce798cdc7a60e7e1460a7299e3c6342a579626d26020525b50604060002093505b6010821015613f73576201000083168015613f4157601082015460005284602052613f6a565b846000527f2733e50f526ec2fa19a22b31e8ed50f23cd1fdf94c9154ed3a7609a2f1ff981f6020525b50604060002093505b6011821015613fcb576202000083168015613f9957601182015460005284602052613fc2565b846000527fe1d3b5c807b281e4683cc6d6315cf95b9ade8641defcb32372f1c126e398ef7a6020525b50604060002093505b6012821015614023576204000083168015613ff15760128201546000528460205261401a565b846000527f5a2dce0a8a7f68bb74560f8f71837c2c2ebbcbf7fffb42ae1896f13f7c7479a06020525b50604060002093505b601382101561407b57620800008316801561404957601382015460005284602052614072565b846000527fb46a28b6f55540f89444f63de0378e3d121be09e06cc9ded1c20e65876d36aa06020525b50604060002093505b60148210156140d35762100000831680156140a1576014820154600052846020526140ca565b846000527fc65e9645644786b620e2dd2ad648ddfcbf4a7e5b1a3a4ecfe7f64667a3f0b7e26020525b50604060002093505b601582101561412b5762200000831680156140f957601582015460005284602052614122565b846000527ff4418588ed35a2458cffeb39b93d26f18d2ab13bdce6aee58e7b99359ec2dfd96020525b50604060002093505b60168210156141835762400000831680156141515760168201546000528460205261417a565b846000527f5a9c16dc00d6ef18b7933a6f8dc65ccb55667138776f7dea101070dc8796e3776020525b50604060002093505b60178210156141db5762800000831680156141a9576017820154600052846020526141d2565b846000527f4df84f40ae0c8229d0d6069e5c8f39a7c299677a09d367fc7b05e3bc380ee6526020525b50604060002093505b6018821015614234576301000000831680156142025760188201546000528460205261422b565b846000527fcdc72595f74c7b1043d0e1ffbab734648c838dfb0527d971b602bc216c9619ef6020525b50604060002093505b601982101561428d5763020000008316801561425b57601982015460005284602052614284565b846000527f0abf5ac974a1ed57f4050aa510dd9c74f508277b39d7973bb2dfccc5eeb0618d6020525b50604060002093505b601a8210156142e6576304000000831680156142b457601a820154600052846020526142dd565b846000527fb8cd74046ff337f0a7bf2c8e03e10f642c1886798d71806ab1e888d9e5ee87d06020525b50604060002093505b601b82101561433f5763080000008316801561430d57601b82015460005284602052614336565b846000527f838c5655cb21c6cb83313b5a631175dff4963772cce9108188b34ac87c81c41e6020525b50604060002093505b601c8210156143985763100000008316801561436657601c8201546000528460205261438f565b846000527f662ee4dd2dd7b2bc707961b1e646c4047669dcb6584f0d8d770daf5d7e7deb2e6020525b50604060002093505b601d8210156143f1576320000000831680156143bf57601d820154600052846020526143e8565b846000527f388ab20e2573d171a88108e79d820e98f26c0b84aa8b2f4aa4968dbb818ea3226020525b50604060002093505b601e82101561444a5763400000008316801561441857601e82015460005284602052614441565b846000527f93237c50ba75ee485f4c22adf2f741400bdf8d6a9cc7df7ecae576221665d7356020525b50604060002093505b601f8210156144a35763800000008316801561447157601f8201546000528460205261449a565b846000527f8448818bb4ae4562849e949e17ac16e0be16688e156b5cf15e098c627c0056a96020525b50604060002093505b505050919050565b6040805160208082018890528183018790526001600160a01b038616606080840191909152835180840390910181526080830180855281519183019190912061048090930190935260009261451992918590828261040080828437600092019190915250879150614aa49050565b9050868114610d95576040517ee587d20000000000000000000000000000000000000000000000000000000081526004810182905260248101889052604401610cdf565b600061eeee61456f6020840184615794565b6001600160a01b03161490508080156145a2575061eeee6145966060840160408501615794565b6001600160a01b031614155b80156145c7575060006145bb6060840160408501615794565b6001600160a01b031614155b1561461a576145dc6060830160408401615794565b6040517ff41f6def0000000000000000000000000000000000000000000000000000000081526001600160a01b039091166004820152602401610cdf565b62030d4061462e6040840160208501615adb565b63ffffffff1610801561463f575080155b15611269576146546040830160208401615adb565b6040517f555d0f1000000000000000000000000000000000000000000000000000000000815263ffffffff909116600482015262030d406024820152604401610cdf565b60003660146146a633610d9e565b80156146b25750808210155b156146e2576000366146c483856159a3565b6146cf928290615c03565b6146d891615c2d565b60601c9250505090565b339250505090565b600080602060008451602086016000885af18061470d576040513d6000823e3d81fd5b50506000513d91508115614725578060011415614732565b6001600160a01b0384163b155b15610b5b576040517f5274afe70000000000000000000000000000000000000000000000000000000081526001600160a01b0385166004820152602401610cdf565b61477c6155f0565b600083602001805161478d906159cc565b90819052905060016147a160206002615d59565b6147ab91906159a3565b8111156147e4576040517f8eab04bb00000000000000000000000000000000000000000000000000000000815260040160405180910390fd5b60005b6020811015614879578160011660010361482057845184908260208110614810576148106159b6565b6020020152508391506109969050565b84518160208110614833576148336159b6565b602002015184604051602001614853929190918252602082015260400190565b60408051601f1981840301815291905280516020909101209350600191821c91016147e7565b506040517f8eab04bb00000000000000000000000000000000000000000000000000000000815260040160405180910390fd5b604080516001600160a01b038416602482015260448082018490528251808303909101815260649091019091526020810180517bffffffffffffffffffffffffffffffffffffffffffffffffffffffff167f095ea7b30000000000000000000000000000000000000000000000000000000017905261492b8482614df2565b610b5b576040516001600160a01b0384811660248301526000604483015261496091869182169063095ea7b390606401612260565b610b5b84826146ea565b851580156149a9575060007f000000000000000000000000000000000000000000000000000000000000000060018111156149a7576149a7615927565b145b156149e0576040517f3cb7b09b00000000000000000000000000000000000000000000000000000000815260040160405180910390fd5b6000816040516024016149f39190615d65565b60408051601f198184030181529190526020810180517bffffffffffffffffffffffffffffffffffffffffffffffffffffffff167f69d31fdd00000000000000000000000000000000000000000000000000000000179052905060007f00000000000000000000000000000000000000000000000000000000000000006001811115614a8157614a81615927565b03614a9857614a938588868487614e41565b610d95565b610d9585858386615324565b6020600582811b8216948552835194820394909452604060008181206002851615871b808503919091528386015190528181206004851615871b808503919091528286015190528181206008851615871b80850391909152606086015190528181206010851615871b8085039190915260808087015190915282822084861615881b8086039190915260a0870151905282822083861615881b8086039190915260c0870151905282822090851615871b8085039190915260e0860151905281812061010080861615881b80860392909252860151905281812061020080861615881b80860392909252610120870151909152828220610400861615881b808603919091526101408701519052828220610800861615881b808603919091526101608701519052828220611000861615881b808603919091526101808701519052828220612000861615881b808603919091526101a08701519052828220614000861615881b808603919091526101c08701519052828220618000861615881b808603919091526101e0870151905282822062010000861615881b8086039190915290860151905281812062020000851615871b80850391909152610220860151905281812062040000851615871b80850391909152610240860151905281812062080000851615871b80850391909152610260860151905281812062100000851615871b80850391909152610280860151905281812062200000851615871b808503919091526102a0860151905281812062400000851615871b808503919091526102c0860151905281812062800000851615871b808503919091526102e086015190528181206301000000851615871b8085039190915261030086015190528181206302000000851615871b8085039190915261032086015190528181206304000000851615871b8085039190915261034086015190528181206308000000851615871b8085039190915261036086015190528181206310000000851615871b8085039190915261038086015190528181206320000000851615871b808503919091526103a086015190528181206340000000851615871b808503919091526103c0860151905281812063800000009094161590951b91829003929092526103e090920151909152902090565b6000806000806020600086516020880160008a5af192503d91506000519050828015614e3757508115614e285780600114614e37565b6000866001600160a01b03163b115b9695505050505050565b81516040517fa66b327d0000000000000000000000000000000000000000000000000000000081526004810191909152486024820181905260009182907f00000000000000000000000000000000000000000000000000000000000000006001600160a01b03169063a66b327d90604401602060405180830381865afa158015614ecf573d6000803e3d6000fd5b505050506040513d601f19601f82011682018060405250810190614ef39190615ac2565b90506000614f0483620493e0615db1565b614f0e9083615a25565b90506001600160a01b03891661eeee14801590614f2a57508615155b15615229576040517fa66b327d00000000000000000000000000000000000000000000000000000000815260606004820152602481018490526000907f00000000000000000000000000000000000000000000000000000000000000006001600160a01b03169063a66b327d90604401602060405180830381865afa158015614fb7573d6000803e3d6000fd5b505050506040513d601f19601f82011682018060405250810190614fdb9190615ac2565b9050600084876040015163ffffffff16614ff59190615db1565b614fff9083615a25565b905061500b8184615a25565b8a1015615058578961501d8285615a25565b6040517f514f519600000000000000000000000000000000000000000000000000000000815260048101929092526024820152604401610cdf565b6000600282615067868e6159a3565b61507191906159a3565b61507b91906159e6565b90506150878183615a25565b91506150938185615a25565b6040517fbda009fe0000000000000000000000000000000000000000000000000000000081526001600160a01b03808f16600483015291955061514692508d917f0000000000000000000000000000000000000000000000000000000000000000169063bda009fe90602401602060405180830381865afa15801561511c573d6000803e3d6000fd5b505050506040513d601f19601f820116820180604052508101906151409190615a08565b8b6148ac565b7f00000000000000000000000000000000000000000000000000000000000000006001600160a01b0316634fb1a07b828d61517f61221c565b308e8d604001518c8a604051806020016040528060008152506040516020016151a9929190615dc8565b6040516020818303038152906040526040518963ffffffff1660e01b81526004016151da9796959493929190615de9565b60006040518083038185885af11580156151f8573d6000803e3d6000fd5b50505050506040513d6000823e601f3d908101601f191682016040526152219190810190615e4b565b505050615273565b8088101561526d576040517f514f51960000000000000000000000000000000000000000000000000000000081526004810189905260248101829052604401610cdf565b50859250865b6001600160a01b037f000000000000000000000000000000000000000000000000000000000000000016636e6e8a6a6152ac8684615a25565b3087866152b761221c565b30620493e08b8f6040518a63ffffffff1660e01b81526004016152e1989796959493929190615ef8565b60206040518083038185885af11580156152ff573d6000803e3d6000fd5b50505050506040513d601f19601f82011682018060405250810190612b559190615ac2565b60003415615360576040517fd7468c32000000000000000000000000000000000000000000000000000000008152346004820152602401610cdf565b6001600160a01b03851661eeee1480159061537a57508315155b156154ff576040517fbda009fe0000000000000000000000000000000000000000000000000000000081526001600160a01b03808716600483015261542e9187917f0000000000000000000000000000000000000000000000000000000000000000169063bda009fe90602401602060405180830381865afa158015615404573d6000803e3d6000fd5b505050506040513d601f19601f820116820180604052508101906154289190615a08565b866148ac565b7f00000000000000000000000000000000000000000000000000000000000000006001600160a01b0316637b3a3c8b83606001516154693090565b604080516020810182526000815290517fffffffff0000000000000000000000000000000000000000000000000000000060e086901b1681526154b29392918a91600401615f5a565b6000604051808303816000875af11580156154d1573d6000803e3d6000fd5b505050506040513d6000823e601f3d908101601f191682016040526154f99190810190615e4b565b50615502565b50825b6040517f928c169a00000000000000000000000000000000000000000000000000000000815260649063928c169a9083906155439030908890600401615f8c565b60206040518083038185885af1158015615561573d6000803e3d6000fd5b50505050506040513d601f19601f820116820180604052508101906119a09190615ac2565b60408051608081018252600080825260208201529081016155a56155f0565b8152602001600081525090565b82602081019282156155e0579160200282015b828111156155e05782518255916020019190600101906155c5565b506155ec929150615603565b5090565b60405180604001604052806155a5615618565b5b808211156155ec5760008155600101615604565b6040518061040001604052806020906020820280368337509192915050565b60006020828403121561564957600080fd5b81357fffffffff0000000000000000000000000000000000000000000000000000000081168114612d1657600080fd5b60006104a0828403121561568c57600080fd5b50919050565b600080602083850312156156a557600080fd5b823567ffffffffffffffff808211156156bd57600080fd5b818501915085601f8301126156d157600080fd5b8135818111156156e057600080fd5b8660208260071b85010111156156f557600080fd5b60209290920196919550909350505050565b60006080828403121561568c57600080fd5b60006080828403121561572b57600080fd5b612d168383615707565b6001600160a01b0381168114610a5057600080fd5b6000806000806080858703121561576057600080fd5b84359350602085013561577281615735565b925060408501359150606085013561578981615735565b939692955090935050565b6000602082840312156157a657600080fd5b8135612d1681615735565b6000602082840312156157c357600080fd5b813564ffffffffff81168114612d1657600080fd5b815167ffffffffffffffff1681526020808301519082015260408101610996565b6000806020838503121561580c57600080fd5b823567ffffffffffffffff8082111561582457600080fd5b818501915085601f83011261583857600080fd5b81358181111561584757600080fd5b8660208260051b85010111156156f557600080fd5b815167ffffffffffffffff1681526020808301518183015260408084015180516104808501939260009086015b848210156158a7578251815291840191600191909101908401615889565b5050500151610440830152606092909201516104609091015290565b600080602083850312156158d657600080fd5b823567ffffffffffffffff808211156158ee57600080fd5b818501915085601f83011261590257600080fd5b81358181111561591157600080fd5b8660206104a0830285010111156156f557600080fd5b634e487b7160e01b600052602160045260246000fd5b602081016004831061595157615951615927565b91905290565b60028110610a5057610a50615927565b6020810161595183615957565b60006020828403121561598657600080fd5b5035919050565b634e487b7160e01b600052601160045260246000fd5b818103818111156109965761099661598d565b634e487b7160e01b600052603260045260246000fd5b600060001982036159df576159df61598d565b5060010190565b600082615a0357634e487b7160e01b600052601260045260246000fd5b500490565b600060208284031215615a1a57600080fd5b8151612d1681615735565b808201808211156109965761099661598d565b600060208284031215615a4a57600080fd5b813567ffffffffffffffff81168114612d1657600080fd5b6040808252810183905260008460608301825b86811015615aa5578235615a8881615735565b6001600160a01b0316825260209283019290910190600101615a75565b5080925050506001600160a01b0383166020830152949350505050565b600060208284031215615ad457600080fd5b5051919050565b600060208284031215615aed57600080fd5b813563ffffffff81168114612d1657600080fd5b60005b83811015615b1c578181015183820152602001615b04565b50506000910152565b60008151808452615b3d816020860160208601615b01565b601f01601f19169290920160200192915050565b60006001600160a01b03808a168352886020840152876040840152808716606084015285608084015280851660a08401525060e060c0830152615b9760e0830184615b25565b9998505050505050505050565b634e487b7160e01b600052600160045260246000fd5b600060208284031215615bcc57600080fd5b81518015158114612d1657600080fd5b600067ffffffffffffffff808316818103615bf957615bf961598d565b6001019392505050565b60008085851115615c1357600080fd5b83861115615c2057600080fd5b5050820193919092039150565b7fffffffffffffffffffffffffffffffffffffffff0000000000000000000000008135818116916014851015615c6d5780818660140360031b1b83161692505b505092915050565b600181815b80851115615cb0578160001904821115615c9657615c9661598d565b80851615615ca357918102915b93841c9390800290615c7a565b509250929050565b600082615cc757506001610996565b81615cd457506000610996565b8160018114615cea5760028114615cf457615d10565b6001915050610996565b60ff841115615d0557615d0561598d565b50506001821b610996565b5060208310610133831016604e8410600b8410161715615d33575081810a610996565b615d3d8383615c75565b8060001904821115615d5157615d5161598d565b029392505050565b6000612d168383615cb8565b60006080820190506001600160a01b038351168252602083015160208301526040830151615daa6040840182805167ffffffffffffffff168252602090810151910152565b5092915050565b80820281158282048414176109965761099661598d565b828152604060208201526000615de16040830184615b25565b949350505050565b60006001600160a01b03808a168352808916602084015280881660408401525085606083015263ffffffff851660808301528360a083015260e060c0830152615b9760e0830184615b25565b634e487b7160e01b600052604160045260246000fd5b600060208284031215615e5d57600080fd5b815167ffffffffffffffff80821115615e7557600080fd5b818401915084601f830112615e8957600080fd5b815181811115615e9b57615e9b615e35565b604051601f8201601f19908116603f01168101908382118183101715615ec357615ec3615e35565b81604052828152876020848701011115615edc57600080fd5b615eed836020830160208801615b01565b979650505050505050565b60006101006001600160a01b03808c1684528a6020850152896040850152808916606085015280881660808501525063ffffffff861660a08401528460c08401528060e0840152615f4b81840185615b25565b9b9a5050505050505050505050565b60006001600160a01b03808716835280861660208401525083604083015260806060830152614e376080830184615b25565b6001600160a01b0383168152604060208201526000615de16040830184615b2556fea2646970667358221220e36c3a37ad02e31b40907826cff34d3f0945bd4e2aeafaa5630e4eb1d871cd7b64736f6c63430008170033",
	"deployedBytecode": "0x60806040526004361061021d5760003560e01c8063802c8fa01161011d578063c1854129116100b0578063cdfceeba1161007f578063defbb69711610064578063defbb697146107e3578063f434c91414610817578063fe4b84df1461084b57600080fd5b8063cdfceeba146107ae578063d5f39488146107c357600080fd5b8063c1854129146106f7578063c19d93fb14610717578063c6525f2c14610739578063c86719b71461077a57600080fd5b8063b1012368116100ec578063b10123681461064b578063b59ef50f1461067f578063b71c11791461069f578063bf557aee146106b257600080fd5b8063802c8fa0146105b357806388bc2ef3146105e057806392ee1ea7146106145780639e6d7d431461062b57600080fd5b8063551ebbf0116101b057806369d31fdd1161017f578063754515591161016457806375451559146104585780637da0a877146104785780637de6fba2146104ab57600080fd5b806369d31fdd146103cc5780636d9e384b146103df57600080fd5b8063551ebbf01461034c578063572b6c051461036c5780636284386a1461038c57806369ce2233146103ac57600080fd5b80632241dc52116101ec5780632241dc52146102db57806338eb2044146102ee5780633a5de07d146103015780633fafa1271461032d57600080fd5b806301ffc9a7146102295780630f6482141461025e57806311cda415146102805780631d831d5c146102a757600080fd5b3661022457005b600080fd5b34801561023557600080fd5b50610249610244366004615637565b61086b565b60405190151581526020015b60405180910390f35b34801561026a57600080fd5b5061027e610279366004615679565b61099c565b005b34801561028c57600080fd5b50305b6040516001600160a01b039091168152602001610255565b3480156102b357600080fd5b5061028f7f0000000000000000000000004d0edd347fb1fa21589c1e109b3474924be8763681565b61027e6102e9366004615692565b610a53565b61027e6102fc366004615719565b610b61565b34801561030d57600080fd5b5061031862030d4081565b60405163ffffffff9091168152602001610255565b34801561033957600080fd5b506002545b604051908152602001610255565b34801561035857600080fd5b5061027e61036736600461574a565b610b6b565b34801561037857600080fd5b50610249610387366004615794565b610d9e565b34801561039857600080fd5b5061027e6103a73660046157b1565b610ddd565b3480156103b857600080fd5b5061027e6103c7366004615794565b611030565b61027e6103da366004615719565b6110cf565b3480156103eb57600080fd5b5061044b6103fa366004615794565b6040805180820190915260008082526020820152506001600160a01b03166000908152600460209081526040918290208251808401909352805467ffffffffffffffff168352600101549082015290565b60405161025591906157d8565b34801561046457600080fd5b5061027e6104733660046157f9565b61126d565b34801561048457600080fd5b507f000000000000000000000000c29d6995ab3b0df4650ad643adeac55e7acbb56661028f565b3480156104b757600080fd5b5061055e6104c6366004615794565b6040805160a0808201835260008083526020808401829052838501829052606080850183905260809485018390526001600160a01b039687168352600682529185902085519384018652805460ff8082161515865261010082041615159285019290925262010000820463ffffffff169584019590955266010000000000009004909416938101939093526001909101549082015290565b6040516102559190600060a08201905082511515825260208301511515602083015263ffffffff60408401511660408301526001600160a01b0360608401511660608301526080830151608083015292915050565b3480156105bf57600080fd5b506105d36105ce366004615794565b611408565b604051610255919061585c565b3480156105ec57600080fd5b5061028f7f0000000000000000000000000061e516886a0540f63157f112c0588ee0651dcf81565b34801561062057600080fd5b50610318620493e081565b34801561063757600080fd5b5061033e610646366004615794565b6114a8565b34801561065757600080fd5b5061028f7f000000000000000000000000000000000000000000000000000000000000000081565b34801561068b57600080fd5b5061027e61069a366004615679565b6114d8565b61027e6106ad366004615794565b6115fe565b3480156106be57600080fd5b506102496106cd366004615794565b6001600160a01b039081166000908152600660205260409020546601000000000000900416151590565b34801561070357600080fd5b5061027e6107123660046158c3565b611741565b34801561072357600080fd5b5061072c61177a565b604051610255919061593d565b34801561074557600080fd5b5061076d7f000000000000000000000000000000000000000000000000000000000000000181565b6040516102559190615967565b34801561078657600080fd5b5061076d7f000000000000000000000000000000000000000000000000000000000000000181565b3480156107ba57600080fd5b5061033e6117c3565b3480156107cf57600080fd5b5060005461028f906001600160a01b031681565b3480156107ef57600080fd5b5061028f7f0000000000000000000000009fdd1c4e4aa24eec1d913fabea925594a20d43c781565b34801561082357600080fd5b5061028f7f00000000000000000000000004fd6913d6c32d8c216e153a43c04b1857a7793d81565b34801561085757600080fd5b5061027e610866366004615974565b611819565b60007fffffffff0000000000000000000000000000000000000000000000000000000082167f18a5af270000000000000000000000000000000000000000000000000000000014806108fe57507fffffffff0000000000000000000000000000000000000000000000000000000082167f583ff5cc00000000000000000000000000000000000000000000000000000000145b8061094a57507fffffffff0000000000000000000000000000000000000000000000000000000082167ff434c91400000000000000000000000000000000000000000000000000000000145b8061099657507f01ffc9a7000000000000000000000000000000000000000000000000000000007fffffffff000000000000000000000000000000000000000000000000000000008316145b92915050565b6109d460608201356109b16020840184615794565b60808401356109c66060860160408701615794565b602086013560a087016119a8565b6080810135600560006109ea6020850185615794565b6001600160a01b03166001600160a01b031681526020019081526020016000206001016000828254610a1c91906159a3565b90915550610a509050610a326020830183615794565b608083013560608401803590610a4b9060408701615794565b611bd9565b50565b6000805b82811015610b0e57600060056000868685818110610a7757610a776159b6565b610a8d9260206080909202019081019150615794565b6001600160a01b03168152602081019190915260400160009081209150858584818110610abc57610abc6159b6565b9050608002016040016020810190610ad49190615794565b6001600160a01b0316148015610af257506022810154602382015414155b15610b055782610b01816159cc565b9350505b50600101610a57565b5060005b82811015610b5b57610b53848483818110610b2f57610b2f6159b6565b90506080020160008411610b44576000611d82565b610b4e84346159e6565b611d82565b600101610b12565b50505050565b610a508134611d82565b6001600160a01b038316610bab576040517f8d3329cd00000000000000000000000000000000000000000000000000000000815260040160405180910390fd5b60007f0000000000000000000000004d0edd347fb1fa21589c1e109b3474924be876366001600160a01b031663ea78803f610be560025490565b6040518263ffffffff1660e01b8152600401610c0391815260200190565b602060405180830381865afa158015610c20573d6000803e3d6000fd5b505050506040513d601f19601f82011682018060405250810190610c449190615a08565b90506001600160a01b038116610c86576040517fcaa06d2000000000000000000000000000000000000000000000000000000000815260040160405180910390fd5b6001600160a01b03821660009081526006602052604090205460ff16610ce8576040517f04fdbe060000000000000000000000000000000000000000000000000000000081526001600160a01b03831660048201526024015b60405180910390fd5b6000610cf261177a565b90506003816003811115610d0857610d08615927565b1480610d2557506002816003811115610d2357610d23615927565b145b15610d5c576040517fb10f8cca00000000000000000000000000000000000000000000000000000000815260040160405180910390fd5b610d79610d6761221c565b6001600160a01b03841690308961222b565b6000610d87838886886122a7565b9050610d9587858389612495565b50505050505050565b60007f000000000000000000000000c29d6995ab3b0df4650ad643adeac55e7acbb5665b6001600160a01b0316826001600160a01b0316149050919050565b6000610de761177a565b90506003816003811115610dfd57610dfd615927565b1480610e1a57506002816003811115610e1857610e18615927565b145b15610e51576040517fb10f8cca00000000000000000000000000000000000000000000000000000000815260040160405180910390fd5b6000610e5c60025490565b9050610f597f0000000000000000000000000061e516886a0540f63157f112c0588ee0651dcf6001600160a01b031663293c49996040518163ffffffff1660e01b8152600401602060405180830381865afa158015610ebf573d6000803e3d6000fd5b505050506040513d601f19601f82011682018060405250810190610ee39190615a08565b6001600160a01b0316636352211e836040518263ffffffff1660e01b8152600401610f1091815260200190565b602060405180830381865afa158015610f2d573d6000803e3d6000fd5b505050506040513d601f19601f82011682018060405250810190610f519190615a08565b82601e61261f565b6000610f686212750042615a25565b905064ffffffffff841615801590610f865750808464ffffffffff16105b15610fcd576040517f044691ac00000000000000000000000000000000000000000000000000000000815264ffffffffff8516600482015260248101829052604401610cdf565b64ffffffffff84166001557f455efa76af2a8686dc0dd3041bda89ece5ba4691277d525e2161003bbca8b2458461100261221c565b6040805164ffffffffff90931683526001600160a01b0390911660208301520160405180910390a150505050565b60007f0000000000000000000000000000000000000000000000000000000000000001600181111561106457611064615927565b146110bd577f00000000000000000000000000000000000000000000000000000000000000016040517fb039c395000000000000000000000000000000000000000000000000000000008152600401610cdf9190615967565b610a50816110ca836114a8565b612769565b6110df6110da61221c565b612b62565b611129576110eb61221c565b6040517f36183c8f0000000000000000000000000000000000000000000000000000000081526001600160a01b039091166004820152602401610cdf565b600060048161113b6020850185615794565b6001600160a01b0316815260208101919091526040908101600020805490925067ffffffffffffffff16906111769060608501908501615a38565b67ffffffffffffffff161180156111a65750600361119261177a565b60038111156111a3576111a3615927565b14155b15611269576111bb6060830160408401615a38565b815467ffffffffffffffff191667ffffffffffffffff91909116178155606082013560018201556111ef6020830183615794565b6001600160a01b03167fc69d3412489554fb7820c4c2784cb644b6c79bfc117444b93977d3d33a9b8eac6112296060850160408601615a38565b606085013561123661221c565b6040805167ffffffffffffffff909416845260208401929092526001600160a01b03169082015260600160405180910390a25b5050565b600061127860025490565b90506112db7f0000000000000000000000000061e516886a0540f63157f112c0588ee0651dcf6001600160a01b031663293c49996040518163ffffffff1660e01b8152600401602060405180830381865afa158015610ebf573d6000803e3d6000fd5b60005b828110156113c0576000600660008686858181106112fe576112fe6159b6565b90506020020160208101906113139190615794565b6001600160a01b031681526020810191909152604001600090812080547fffffffffffffffffffffffffffffffffffffffffffffffffffffffffffffff001692151592909217909155600190600690868685818110611374576113746159b6565b90506020020160208101906113899190615794565b6001600160a01b03168152602081019190915260400160002080549115156101000261ff00199092169190911790556001016112de565b507f8021bce60b20a9afb57085869a3552e0ee5b272b868df894fb30c5e90e74c07283836113ec61221c565b6040516113fb93929190615a62565b60405180910390a1505050565b611410615586565b6001600160a01b0382166000908152600560209081526040918290208251608081018452815467ffffffffffffffff1681526001820154818401528351610440810180865291949293858401939192600286019284929083019184919082845b815481526020019060010190808311611470575050509183525050602091820154908201529082526023929092015491015292915050565b6001600160a01b0381166000908152600560205260408120600101546114ce8330612d39565b61099691906159a3565b61151060608201356114ed6020840184615794565b60808401356115026060860160408701615794565b602086013560a08701612dff565b7faaca6f6829d340365b5e6599e0d513cbb4602b94f58ccf16ac77d8d3ae7139ef6115416060830160408401615794565b61154e6020840184615794565b60608401356080850135602086013560017f0000000000000000000000000000000000000000000000000000000000000001600181111561159157611591615927565b1461159d5760006115a0565b60015b6115a861221c565b604080516001600160a01b039889168152968816602088015286019490945260608501929092526080840152151560a083015290911660c082015260e00160405180910390a1610a50610a326020830183615794565b6001600160a01b03808216600090815260066020908152604091829020825160a081018452815460ff808216151583526101008204161580159483019490945263ffffffff6201000082041694820194909452660100000000000090930490931660608301526001909201546080820152906116b1576040517f4bba81f00000000000000000000000000000000000000000000000000000000081526001600160a01b0383166004820152602401610cdf565b60808101516001600160a01b0383166000908152600560205260409020600101541015611736576001600160a01b0382166000908152600560205260409081902060010154608083015191517fc3e11b79000000000000000000000000000000000000000000000000000000008152610cdf9290600401918252602082015260400190565b611269348383612ed5565b60005b818110156117755761176d838383818110611761576117616159b6565b90506104a002016114d8565b600101611744565b505050565b60015460009080820361178f57600091505090565b61179c62127500826159a3565b4210156117ab57600191505090565b804210156117bb57600291505090565b600391505090565b60004660001981016117d85761a4b191505090565b61a4b181036117e957600191505090565b62aa36a781036117fd5762066eee91505090565b62066eee81036118115762aa36a791505090565b600091505090565b7ff0c57e16840df040f15088dc2f81fe391c3923bec73e23a9662efc9c229c6a00805468010000000000000000810460ff16159067ffffffffffffffff166000811580156118645750825b905060008267ffffffffffffffff1660011480156118815750303b155b90508115801561188f575080155b156118c6576040517ff92ee8a900000000000000000000000000000000000000000000000000000000815260040160405180910390fd5b845467ffffffffffffffff1916600117855583156119105784547fffffffffffffffffffffffffffffffffffffffffffffff00ffffffffffffffff16680100000000000000001785555b6002869055600080547fffffffffffffffffffffffff0000000000000000000000000000000000000000163317905583156119a05784547fffffffffffffffffffffffffffffffffffffffffffffff00ffffffffffffffff168555604051600181527fc7f505b2f371ae2175ee4913f4499e1f2633a7b5936321eed1cdaeb6115181d29060200160405180910390a15b505050505050565b60006119b261177a565b905060038160038111156119c8576119c8615927565b141580156119e8575060028160038111156119e5576119e5615927565b14155b8015611a1257506001600160a01b038616600090815260066020526040902054610100900460ff16155b15611a54576040517f4bba81f00000000000000000000000000000000000000000000000000000000081526001600160a01b0387166004820152602401610cdf565b6001600160a01b0386166000908152600560205260409020602381015415801590611a8f57508360018260230154611a8c91906159a3565b10155b15611ad8576040517fa4e6bcec0000000000000000000000000000000000000000000000000000000081526001600160a01b038816600482015260248101859052604401610cdf565b604080516001600160a01b03891660208201526000910160408051808303601f19018152918152815160209283012060601c60008181526003845282812060088a901c8252909352912054909150600160ff87161b1615611b77576040517fa4e6bcec0000000000000000000000000000000000000000000000000000000081526001600160a01b038916600482015260248101869052604401610cdf565b6001600160a01b039081166000908152600360209081526040808320600889901c845282528083208054600160ff8b161b179055928a1682526005905220611bcf90611bc5906002016130f5565b89888888886144ab565b5050505050505050565b60017f00000000000000000000000000000000000000000000000000000000000000016001811115611c0d57611c0d615927565b148015611c1957508215155b15611c2857611c288484612769565b6000611c3360025490565b6040517f5dd8f6aa000000000000000000000000000000000000000000000000000000008152600481018290529091507f0000000000000000000000000061e516886a0540f63157f112c0588ee0651dcf6001600160a01b031690635dd8f6aa90602401602060405180830381865afa158015611cb4573d6000803e3d6000fd5b505050506040513d601f19601f82011682018060405250810190611cd89190615a08565b6040517fc7fb92de00000000000000000000000000000000000000000000000000000000815260048101839052602481018590526001600160a01b03848116604483015260a06064830152600060a483018190526084830152919091169063c7fb92de9060c4016020604051808303816000875af1158015611d5e573d6000803e3d6000fd5b505050506040513d601f19601f820116820180604052508101906119a09190615ac2565b6000611d916020840184615794565b6001600160a01b03808216600090815260066020908152604091829020825160a081018452815460ff808216151583526101008204161580159483019490945263ffffffff6201000082041694820194909452660100000000000090930490931660608301526001909201546080820152919250611e46576040517f4bba81f00000000000000000000000000000000000000000000000000000000081526001600160a01b0383166004820152602401610cdf565b611e4f8461455d565b6000611e5a60025490565b9050611f577f0000000000000000000000000061e516886a0540f63157f112c0588ee0651dcf6001600160a01b031663293c49996040518163ffffffff1660e01b8152600401602060405180830381865afa158015611ebd573d6000803e3d6000fd5b505050506040513d601f19601f82011682018060405250810190611ee19190615a08565b6001600160a01b0316636352211e836040518263ffffffff1660e01b8152600401611f0e91815260200190565b602060405180830381865afa158015611f2b573d6000803e3d6000fd5b505050506040513d601f19601f82011682018060405250810190611f4f9190615a08565b82601c61261f565b60608201516001600160a01b031615801590611f985750611f7e6060860160408701615794565b6001600160a01b031682606001516001600160a01b031614155b8015611fbd57506000611fb16060870160408801615794565b6001600160a01b031614155b8015611fe357506001600160a01b03831660009081526005602052604090206022015415155b156120335760608201516040517f1460b5460000000000000000000000000000000000000000000000000000000081526001600160a01b0380861660048301529091166024820152604401610cdf565b60006120456060870160408801615794565b6001600160a01b031614801561207c57506001600160a01b0383166000908152600560205260409020602281015460239091015414155b1561208c5761208c848484612ed5565b6040518060a0016040528060006001600160a01b03168760400160208101906120b59190615794565b6001600160a01b03161415151581526020016000151581526020018660200160208101906120e39190615adb565b63ffffffff16815260200160006121006060890160408a01615794565b6001600160a01b0316146121235761211e6060880160408901615794565b612129565b83606001515b6001600160a01b039081168252606097880135602092830152948516600090815260068252604090819020835181549385015192850151998501517fffffffffffffffffffffffffffffffffffffffffffffffffffffffffffff000090941690151561ff0019161761010092151592909202919091177fffffffffffff000000000000000000000000000000000000000000000000ffff166201000063ffffffff909916989098027fffffffffffff0000000000000000000000000000000000000000ffffffffffff16979097176601000000000000919095160293909317855550506080015160019092019190915550565b6000612226614698565b905090565b6040516001600160a01b038481166024830152838116604483015260648201839052610b5b9186918216906323b872dd906084015b604051602081830303815290604052915060e01b6020820180517bffffffffffffffffffffffffffffffffffffffffffffffffffffffff83818316178352505050506146ea565b6000806122b360025490565b6040517f86202650000000000000000000000000000000000000000000000000000000008152600481018290526001600160a01b0386811660248301529192506000917f0000000000000000000000000061e516886a0540f63157f112c0588ee0651dcf1690638620265090604401602060405180830381865afa15801561233f573d6000803e3d6000fd5b505050506040513d601f19601f820116820180604052508101906123639190615a08565b90506001600160a01b0381166123b7576040517fb61c181f000000000000000000000000000000000000000000000000000000008152600481018390526001600160a01b0386166024820152604401610cdf565b60006123c38630612d39565b604080516020810182526000815290517f13da83170000000000000000000000000000000000000000000000000000000081529192506001600160a01b038416916313da83179161242291309188918d918d918d918691600401615b51565b6020604051808303816000875af1158015612441573d6000803e3d6000fd5b505050506040513d601f19601f820116820180604052508101906124659190615ac2565b9350806124728730612d39565b61247c91906159a3565b841461248a5761248a615ba4565b505050949350505050565b6040805160208082018790528183018590526001600160a01b03841660608084019190915283518084039091018152608090920190925280519101206000906001600160a01b038516600090815260056020908152604080832081516104408101808452959650909461253e9387936002880192849291830191849182845b81548152602001906001019080831161251457505050918352505060209182015491015290614774565b80519091508190600284019061255790829060206155b2565b5060208201518160200155905050848260010160008282546125799190615a25565b92505081905550856001600160a01b0316846001600160a01b03167f584a41ff082fad99bb6e50c5767c347c762057fe5726539f0a8de49d84549c2385600185602001516125c791906159a3565b6125d3876002016130f5565b8c8b6125dd61221c565b60408051968752602087019590955293850192909252606084015260808301526001600160a01b031660a082015260c00160405180910390a350505050505050565b600061262961221c565b9050836001600160a01b0316816001600160a01b03161415801561271157506040517f348b684e0000000000000000000000000000000000000000000000000000000081526001600160a01b0382811660048301528581166024830152604482018590526064820184905260016084830181905260a48301527f00000000000000000000000004fd6913d6c32d8c216e153a43c04b1857a7793d169063348b684e9060c401602060405180830381865afa1580156126eb573d6000803e3d6000fd5b505050506040513d601f19601f8201168201806040525081019061270f9190615bba565b155b15610b5b576040517f264deeaa0000000000000000000000000000000000000000000000000000000081526001600160a01b038086166004830152821660248201526044810184905260648101839052608401610cdf565b6000612774836114a8565b9050808211156127ba576040517f60ec3e710000000000000000000000000000000000000000000000000000000081526004810183905260248101829052604401610cdf565b60006127c560025490565b6040517f86202650000000000000000000000000000000000000000000000000000000008152600481018290526001600160a01b0386811660248301529192506000917f0000000000000000000000000061e516886a0540f63157f112c0588ee0651dcf1690638620265090604401602060405180830381865afa158015612851573d6000803e3d6000fd5b505050506040513d601f19601f820116820180604052508101906128759190615a08565b90506001600160a01b0381166128c9576040517fb61c181f000000000000000000000000000000000000000000000000000000008152600481018390526001600160a01b0386166024820152604401610cdf565b6001600160a01b03851661eeee14612ab2576040517f70a082310000000000000000000000000000000000000000000000000000000081523060048201526000906001600160a01b038716906370a0823190602401602060405180830381865afa15801561293b573d6000803e3d6000fd5b505050506040513d601f19601f8201168201806040525081019061295f9190615ac2565b905061296c8683876148ac565b6040517f9e6eec05000000000000000000000000000000000000000000000000000000008152600481018490526001600160a01b0387811660248301526044820187905260006064830181905260c0608484015260c4830181905260e060a484015260e4830152831690639e6eec059061010401600060405180830381600087803b1580156129fa57600080fd5b505af1158015612a0e573d6000803e3d6000fd5b505050508481612a1e91906159a3565b6040517f70a082310000000000000000000000000000000000000000000000000000000081523060048201526001600160a01b038816906370a0823190602401602060405180830381865afa158015612a7b573d6000803e3d6000fd5b505050506040513d601f19601f82011682018060405250810190612a9f9190615ac2565b14612aac57612aac615ba4565b50612b5b565b6040517f9e6eec05000000000000000000000000000000000000000000000000000000008152600481018390526001600160a01b0386811660248301526044820186905260006064830181905260c0608484015260c4830181905260e060a484015260e4830152821690639e6eec05908690610104016000604051808303818588803b158015612b4157600080fd5b505af1158015612b55573d6000803e3d6000fd5b50505050505b5050505050565b6000807f00000000000000000000000000000000000000000000000000000000000000016001811115612b9757612b97615927565b03612d1d5760007f00000000000000000000000000000000000000000000000000000000000000006001600160a01b031663e78cea926040518163ffffffff1660e01b8152600401602060405180830381865afa158015612bfc573d6000803e3d6000fd5b505050506040513d601f19601f82011682018060405250810190612c209190615a08565b9050806001600160a01b0316836001600160a01b0316148015612d165750806001600160a01b031663ab5d89436040518163ffffffff1660e01b8152600401602060405180830381865afa158015612c7c573d6000803e3d6000fd5b505050506040513d601f19601f82011682018060405250810190612ca09190615a08565b6001600160a01b03166380648b026040518163ffffffff1660e01b8152600401602060405180830381865afa158015612cdd573d6000803e3d6000fd5b505050506040513d601f19601f82011682018060405250810190612d019190615a08565b6001600160a01b0316306001600160a01b0316145b9392505050565b7311110000000000000000000000000000000011113001610dc2565b60007fffffffffffffffffffffffffffffffffffffffffffffffffffffffffffff11126001600160a01b03841601612d7c57506001600160a01b03811631610996565b6040517f70a082310000000000000000000000000000000000000000000000000000000081526001600160a01b0383811660048301528416906370a0823190602401602060405180830381865afa158015612ddb573d6000803e3d6000fd5b505050506040513d601f19601f82011682018060405250810190612d169190615ac2565b6001600160a01b0385166000908152600360209081526040808320600886901c8452909152902054600160ff84161b1615612e78576040517fa4e6bcec0000000000000000000000000000000000000000000000000000000081526001600160a01b038616600482015260248101839052604401610cdf565b6001600160a01b0385166000908152600360209081526040808320600886901c845290915290208054600160ff85161b1790556001600160a01b0385166000908152600460205260409020600101546119a09087868686866144ab565b60608101516001600160a01b0316612f24576040517f04fdbe060000000000000000000000000000000000000000000000000000000081526001600160a01b0383166004820152602401610cdf565b6000612f2e61177a565b90506003816003811115612f4457612f44615927565b1480612f6157506002816003811115612f5f57612f5f615927565b145b15612f98576040517fb10f8cca00000000000000000000000000000000000000000000000000000000815260040160405180910390fd5b6001600160a01b03831660009081526005602052604081206001810180549083905581549192909183908290612fd79067ffffffffffffffff16615bdc565b91906101000a81548167ffffffffffffffff021916908367ffffffffffffffff16021790559050600061300c846002016130f5565b60228501546023860181905590915060006130286001836159a3565b9050886001600160a01b0316837f47c5615513b0f669da2dd7e3362a34610ca2695d0a0e2da2160cee952eab203c838761306061221c565b6040805193845267ffffffffffffffff90921660208401526001600160a01b03169082015260600160405180910390a3600060405180606001604052808a606001516001600160a01b0316815260200187815260200160405180604001604052808867ffffffffffffffff1681526020018781525081525090506130e88b838c898d8661496a565b5050505050505050505050565b602081015460009080820361312c57507f27ae5ba08d7291c96c8cbddcc148bf48a6d68c7974b94356f53754ef6171d75792915050565b600083600183161561314e578054600052600060205260406000209350613a01565b60028316156131935760018101546000527fad3228b676f7d3cd4284a5443f17f1962b36e491b30a40b2405849e597ba5fb56020526040600020935060019150613a01565b60048316156131d85760028101546000527fb4c11951957c6f8f642c4af61cd6b24640fec6dc7fc607ee8206a99e92410d306020526040600020935060029150613a01565b600883161561321d5760038101546000527f21ddb9a356815c3fac1026b6dec5df3124afbadb485c9ba5a3e3398a04b7ba856020526040600020935060039150613a01565b60108316156132625760048101546000527fe58769b32a1beaf1ea27375a44095a0d1fb664ce2dd358e7fcbfb78c26a193446020526040600020935060049150613a01565b60208316156132a75760058101546000527f0eb01ebfc9ed27500cd4dfc979272d1f0913cc9f66540d7e8005811109e1cf2d6020526040600020935060059150613a01565b60408316156132ec5760068101546000527f887c22bd8750d34016ac3c66b5ff102dacdd73f6b014e710b51e8022af9a19686020526040600020935060069150613a01565b60808316156133315760078101546000527fffd70157e48063fc33c97a050f7f640233bf646cc98d9524c6b92bcf3ab56f836020526040600020935060079150613a01565b6101008316156133775760088101546000527f9867cc5f7f196b93bae1e27e6320742445d290f2263827498b54fec539f756af6020526040600020935060089150613a01565b6102008316156133bd5760098101546000527fcefad4e508c098b9a7e1d8feb19955fb02ba9675585078710969d3440f5054e06020526040600020935060099150613a01565b61040083161561340357600a8101546000527ff9dc3e7fe016e050eff260334f18a5d4fe391d82092319f5964f2e2eb7c1c3a560205260406000209350600a9150613a01565b61080083161561344957600b8101546000527ff8b13a49e282f609c317a833fb8d976d11517c571d1221a265d25af778ecf89260205260406000209350600b9150613a01565b61100083161561348f57600c8101546000527f3490c6ceeb450aecdc82e28293031d10c7d73bf85e57bf041a97360aa2c5d99c60205260406000209350600c9150613a01565b6120008316156134d557600d8101546000527fc1df82d9c4b87413eae2ef048f94b4d3554cea73d92b0f7af96e0271c691e2bb60205260406000209350600d9150613a01565b61400083161561351b57600e8101546000527f5c67add7c6caf302256adedf7ab114da0acfe870d449a3a489f781d659e8becc60205260406000209350600e9150613a01565b61800083161561356157600f8101546000527fda7bce9f4e8618b6bd2f4132ce798cdc7a60e7e1460a7299e3c6342a579626d260205260406000209350600f9150613a01565b620100008316156135a85760108101546000527f2733e50f526ec2fa19a22b31e8ed50f23cd1fdf94c9154ed3a7609a2f1ff981f6020526040600020935060109150613a01565b620200008316156135ef5760118101546000527fe1d3b5c807b281e4683cc6d6315cf95b9ade8641defcb32372f1c126e398ef7a6020526040600020935060119150613a01565b620400008316156136365760128101546000527f5a2dce0a8a7f68bb74560f8f71837c2c2ebbcbf7fffb42ae1896f13f7c7479a06020526040600020935060129150613a01565b6208000083161561367d5760138101546000527fb46a28b6f55540f89444f63de0378e3d121be09e06cc9ded1c20e65876d36aa06020526040600020935060139150613a01565b621000008316156136c45760148101546000527fc65e9645644786b620e2dd2ad648ddfcbf4a7e5b1a3a4ecfe7f64667a3f0b7e26020526040600020935060149150613a01565b6220000083161561370b5760158101546000527ff4418588ed35a2458cffeb39b93d26f18d2ab13bdce6aee58e7b99359ec2dfd96020526040600020935060159150613a01565b624000008316156137525760168101546000527f5a9c16dc00d6ef18b7933a6f8dc65ccb55667138776f7dea101070dc8796e3776020526040600020935060169150613a01565b628000008316156137995760178101546000527f4df84f40ae0c8229d0d6069e5c8f39a7c299677a09d367fc7b05e3bc380ee6526020526040600020935060179150613a01565b63010000008316156137e15760188101546000527fcdc72595f74c7b1043d0e1ffbab734648c838dfb0527d971b602bc216c9619ef6020526040600020935060189150613a01565b63020000008316156138295760198101546000527f0abf5ac974a1ed57f4050aa510dd9c74f508277b39d7973bb2dfccc5eeb0618d6020526040600020935060199150613a01565b630400000083161561387157601a8101546000527fb8cd74046ff337f0a7bf2c8e03e10f642c1886798d71806ab1e888d9e5ee87d060205260406000209350601a9150613a01565b63080000008316156138b957601b8101546000527f838c5655cb21c6cb83313b5a631175dff4963772cce9108188b34ac87c81c41e60205260406000209350601b9150613a01565b631000000083161561390157601c8101546000527f662ee4dd2dd7b2bc707961b1e646c4047669dcb6584f0d8d770daf5d7e7deb2e60205260406000209350601c9150613a01565b632000000083161561394957601d8101546000527f388ab20e2573d171a88108e79d820e98f26c0b84aa8b2f4aa4968dbb818ea32260205260406000209350601d9150613a01565b634000000083161561399157601e8101546000527f93237c50ba75ee485f4c22adf2f741400bdf8d6a9cc7df7ecae576221665d73560205260406000209350601e9150613a01565b63800000008316156139d957601f8101546000527f8448818bb4ae4562849e949e17ac16e0be16688e156b5cf15e098c627c0056a960205260406000209350601f9150613a01565b7f27ae5ba08d7291c96c8cbddcc148bf48a6d68c7974b94356f53754ef6171d7579350602091505b601e82116144a3576001821015613a5f57600283168015613a2d57600182015460005284602052613a56565b846000527fad3228b676f7d3cd4284a5443f17f1962b36e491b30a40b2405849e597ba5fb56020525b50604060002093505b6002821015613ab557600483168015613a8357600282015460005284602052613aac565b846000527fb4c11951957c6f8f642c4af61cd6b24640fec6dc7fc607ee8206a99e92410d306020525b50604060002093505b6003821015613b0b57600883168015613ad957600382015460005284602052613b02565b846000527f21ddb9a356815c3fac1026b6dec5df3124afbadb485c9ba5a3e3398a04b7ba856020525b50604060002093505b6004821015613b6157601083168015613b2f57600482015460005284602052613b58565b846000527fe58769b32a1beaf1ea27375a44095a0d1fb664ce2dd358e7fcbfb78c26a193446020525b50604060002093505b6005821015613bb757602083168015613b8557600582015460005284602052613bae565b846000527f0eb01ebfc9ed27500cd4dfc979272d1f0913cc9f66540d7e8005811109e1cf2d6020525b50604060002093505b6006821015613c0d57604083168015613bdb57600682015460005284602052613c04565b846000527f887c22bd8750d34016ac3c66b5ff102dacdd73f6b014e710b51e8022af9a19686020525b50604060002093505b6007821015613c6357608083168015613c3157600782015460005284602052613c5a565b846000527fffd70157e48063fc33c97a050f7f640233bf646cc98d9524c6b92bcf3ab56f836020525b50604060002093505b6008821015613cba5761010083168015613c8857600882015460005284602052613cb1565b846000527f9867cc5f7f196b93bae1e27e6320742445d290f2263827498b54fec539f756af6020525b50604060002093505b6009821015613d115761020083168015613cdf57600982015460005284602052613d08565b846000527fcefad4e508c098b9a7e1d8feb19955fb02ba9675585078710969d3440f5054e06020525b50604060002093505b600a821015613d685761040083168015613d3657600a82015460005284602052613d5f565b846000527ff9dc3e7fe016e050eff260334f18a5d4fe391d82092319f5964f2e2eb7c1c3a56020525b50604060002093505b600b821015613dbf5761080083168015613d8d57600b82015460005284602052613db6565b846000527ff8b13a49e282f609c317a833fb8d976d11517c571d1221a265d25af778ecf8926020525b50604060002093505b600c821015613e165761100083168015613de457600c82015460005284602052613e0d565b846000527f3490c6ceeb450aecdc82e28293031d10c7d73bf85e57bf041a97360aa2c5d99c6020525b50604060002093505b600d821015613e6d5761200083168015613e3b57600d82015460005284602052613e64565b846000527fc1df82d9c4b87413eae2ef048f94b4d3554cea73d92b0f7af96e0271c691e2bb6020525b50604060002093505b600e821015613ec45761400083168015613e9257600e82015460005284602052613ebb565b846000527f5c67add7c6caf302256adedf7ab114da0acfe870d449a3a489f781d659e8becc6020525b50604060002093505b600f821015613f1b5761800083168015613ee957600f82015460005284602052613f12565b846000527fda7bce9f4e8618b6bd2f4132ce798cdc7a60e7e1460a7299e3c6342a579626d26020525b50604060002093505b6010821015613f73576201000083168015613f4157601082015460005284602052613f6a565b846000527f2733e50f526ec2fa19a22b31e8ed50f23cd1fdf94c9154ed3a7609a2f1ff981f6020525b50604060002093505b6011821015613fcb576202000083168015613f9957601182015460005284602052613fc2565b846000527fe1d3b5c807b281e4683cc6d6315cf95b9ade8641defcb32372f1c126e398ef7a6020525b50604060002093505b6012821015614023576204000083168015613ff15760128201546000528460205261401a565b846000527f5a2dce0a8a7f68bb74560f8f71837c2c2ebbcbf7fffb42ae1896f13f7c7479a06020525b50604060002093505b601382101561407b57620800008316801561404957601382015460005284602052614072565b846000527fb46a28b6f55540f89444f63de0378e3d121be09e06cc9ded1c20e65876d36aa06020525b50604060002093505b60148210156140d35762100000831680156140a1576014820154600052846020526140ca565b846000527fc65e9645644786b620e2dd2ad648ddfcbf4a7e5b1a3a4ecfe7f64667a3f0b7e26020525b50604060002093505b601582101561412b5762200000831680156140f957601582015460005284602052614122565b846000527ff4418588ed35a2458cffeb39b93d26f18d2ab13bdce6aee58e7b99359ec2dfd96020525b50604060002093505b60168210156141835762400000831680156141515760168201546000528460205261417a565b846000527f5a9c16dc00d6ef18b7933a6f8dc65ccb55667138776f7dea101070dc8796e3776020525b50604060002093505b60178210156141db5762800000831680156141a9576017820154600052846020526141d2565b846000527f4df84f40ae0c8229d0d6069e5c8f39a7c299677a09d367fc7b05e3bc380ee6526020525b50604060002093505b6018821015614234576301000000831680156142025760188201546000528460205261422b565b846000527fcdc72595f74c7b1043d0e1ffbab734648c838dfb0527d971b602bc216c9619ef6020525b50604060002093505b601982101561428d5763020000008316801561425b57601982015460005284602052614284565b846000527f0abf5ac974a1ed57f4050aa510dd9c74f508277b39d7973bb2dfccc5eeb0618d6020525b50604060002093505b601a8210156142e6576304000000831680156142b457601a820154600052846020526142dd565b846000527fb8cd74046ff337f0a7bf2c8e03e10f642c1886798d71806ab1e888d9e5ee87d06020525b50604060002093505b601b82101561433f5763080000008316801561430d57601b82015460005284602052614336565b846000527f838c5655cb21c6cb83313b5a631175dff4963772cce9108188b34ac87c81c41e6020525b50604060002093505b601c8210156143985763100000008316801561436657601c8201546000528460205261438f565b846000527f662ee4dd2dd7b2bc707961b1e646c4047669dcb6584f0d8d770daf5d7e7deb2e6020525b50604060002093505b601d8210156143f1576320000000831680156143bf57601d820154600052846020526143e8565b846000527f388ab20e2573d171a88108e79d820e98f26c0b84aa8b2f4aa4968dbb818ea3226020525b50604060002093505b601e82101561444a5763400000008316801561441857601e82015460005284602052614441565b846000527f93237c50ba75ee485f4c22adf2f741400bdf8d6a9cc7df7ecae576221665d7356020525b50604060002093505b601f8210156144a35763800000008316801561447157601f8201546000528460205261449a565b846000527f8448818bb4ae4562849e949e17ac16e0be16688e156b5cf15e098c627c0056a96020525b50604060002093505b505050919050565b6040805160208082018890528183018790526001600160a01b038616606080840191909152835180840390910181526080830180855281519183019190912061048090930190935260009261451992918590828261040080828437600092019190915250879150614aa49050565b9050868114610d95576040517ee587d20000000000000000000000000000000000000000000000000000000081526004810182905260248101889052604401610cdf565b600061eeee61456f6020840184615794565b6001600160a01b03161490508080156145a2575061eeee6145966060840160408501615794565b6001600160a01b031614155b80156145c7575060006145bb6060840160408501615794565b6001600160a01b031614155b1561461a576145dc6060830160408401615794565b6040517ff41f6def0000000000000000000000000000000000000000000000000000000081526001600160a01b039091166004820152602401610cdf565b62030d4061462e6040840160208501615adb565b63ffffffff1610801561463f575080155b15611269576146546040830160208401615adb565b6040517f555d0f1000000000000000000000000000000000000000000000000000000000815263ffffffff909116600482015262030d406024820152604401610cdf565b60003660146146a633610d9e565b80156146b25750808210155b156146e2576000366146c483856159a3565b6146cf928290615c03565b6146d891615c2d565b60601c9250505090565b339250505090565b600080602060008451602086016000885af18061470d576040513d6000823e3d81fd5b50506000513d91508115614725578060011415614732565b6001600160a01b0384163b155b15610b5b576040517f5274afe70000000000000000000000000000000000000000000000000000000081526001600160a01b0385166004820152602401610cdf565b61477c6155f0565b600083602001805161478d906159cc565b90819052905060016147a160206002615d59565b6147ab91906159a3565b8111156147e4576040517f8eab04bb00000000000000000000000000000000000000000000000000000000815260040160405180910390fd5b60005b6020811015614879578160011660010361482057845184908260208110614810576148106159b6565b6020020152508391506109969050565b84518160208110614833576148336159b6565b602002015184604051602001614853929190918252602082015260400190565b60408051601f1981840301815291905280516020909101209350600191821c91016147e7565b506040517f8eab04bb00000000000000000000000000000000000000000000000000000000815260040160405180910390fd5b604080516001600160a01b038416602482015260448082018490528251808303909101815260649091019091526020810180517bffffffffffffffffffffffffffffffffffffffffffffffffffffffff167f095ea7b30000000000000000000000000000000000000000000000000000000017905261492b8482614df2565b610b5b576040516001600160a01b0384811660248301526000604483015261496091869182169063095ea7b390606401612260565b610b5b84826146ea565b851580156149a9575060007f000000000000000000000000000000000000000000000000000000000000000160018111156149a7576149a7615927565b145b156149e0576040517f3cb7b09b00000000000000000000000000000000000000000000000000000000815260040160405180910390fd5b6000816040516024016149f39190615d65565b60408051601f198184030181529190526020810180517bffffffffffffffffffffffffffffffffffffffffffffffffffffffff167f69d31fdd00000000000000000000000000000000000000000000000000000000179052905060007f00000000000000000000000000000000000000000000000000000000000000016001811115614a8157614a81615927565b03614a9857614a938588868487614e41565b610d95565b610d9585858386615324565b6020600582811b8216948552835194820394909452604060008181206002851615871b808503919091528386015190528181206004851615871b808503919091528286015190528181206008851615871b80850391909152606086015190528181206010851615871b8085039190915260808087015190915282822084861615881b8086039190915260a0870151905282822083861615881b8086039190915260c0870151905282822090851615871b8085039190915260e0860151905281812061010080861615881b80860392909252860151905281812061020080861615881b80860392909252610120870151909152828220610400861615881b808603919091526101408701519052828220610800861615881b808603919091526101608701519052828220611000861615881b808603919091526101808701519052828220612000861615881b808603919091526101a08701519052828220614000861615881b808603919091526101c08701519052828220618000861615881b808603919091526101e0870151905282822062010000861615881b8086039190915290860151905281812062020000851615871b80850391909152610220860151905281812062040000851615871b80850391909152610240860151905281812062080000851615871b80850391909152610260860151905281812062100000851615871b80850391909152610280860151905281812062200000851615871b808503919091526102a0860151905281812062400000851615871b808503919091526102c0860151905281812062800000851615871b808503919091526102e086015190528181206301000000851615871b8085039190915261030086015190528181206302000000851615871b8085039190915261032086015190528181206304000000851615871b8085039190915261034086015190528181206308000000851615871b8085039190915261036086015190528181206310000000851615871b8085039190915261038086015190528181206320000000851615871b808503919091526103a086015190528181206340000000851615871b808503919091526103c0860151905281812063800000009094161590951b91829003929092526103e090920151909152902090565b6000806000806020600086516020880160008a5af192503d91506000519050828015614e3757508115614e285780600114614e37565b6000866001600160a01b03163b115b9695505050505050565b81516040517fa66b327d0000000000000000000000000000000000000000000000000000000081526004810191909152486024820181905260009182907f00000000000000000000000000000000000000000000000000000000000000006001600160a01b03169063a66b327d90604401602060405180830381865afa158015614ecf573d6000803e3d6000fd5b505050506040513d601f19601f82011682018060405250810190614ef39190615ac2565b90506000614f0483620493e0615db1565b614f0e9083615a25565b90506001600160a01b03891661eeee14801590614f2a57508615155b15615229576040517fa66b327d00000000000000000000000000000000000000000000000000000000815260606004820152602481018490526000907f00000000000000000000000000000000000000000000000000000000000000006001600160a01b03169063a66b327d90604401602060405180830381865afa158015614fb7573d6000803e3d6000fd5b505050506040513d601f19601f82011682018060405250810190614fdb9190615ac2565b9050600084876040015163ffffffff16614ff59190615db1565b614fff9083615a25565b905061500b8184615a25565b8a1015615058578961501d8285615a25565b6040517f514f519600000000000000000000000000000000000000000000000000000000815260048101929092526024820152604401610cdf565b6000600282615067868e6159a3565b61507191906159a3565b61507b91906159e6565b90506150878183615a25565b91506150938185615a25565b6040517fbda009fe0000000000000000000000000000000000000000000000000000000081526001600160a01b03808f16600483015291955061514692508d917f0000000000000000000000009fdd1c4e4aa24eec1d913fabea925594a20d43c7169063bda009fe90602401602060405180830381865afa15801561511c573d6000803e3d6000fd5b505050506040513d601f19601f820116820180604052508101906151409190615a08565b8b6148ac565b7f0000000000000000000000009fdd1c4e4aa24eec1d913fabea925594a20d43c76001600160a01b0316634fb1a07b828d61517f61221c565b308e8d604001518c8a604051806020016040528060008152506040516020016151a9929190615dc8565b6040516020818303038152906040526040518963ffffffff1660e01b81526004016151da9796959493929190615de9565b60006040518083038185885af11580156151f8573d6000803e3d6000fd5b50505050506040513d6000823e601f3d908101601f191682016040526152219190810190615e4b565b505050615273565b8088101561526d576040517f514f51960000000000000000000000000000000000000000000000000000000081526004810189905260248101829052604401610cdf565b50859250865b6001600160a01b037f000000000000000000000000000000000000000000000000000000000000000016636e6e8a6a6152ac8684615a25565b3087866152b761221c565b30620493e08b8f6040518a63ffffffff1660e01b81526004016152e1989796959493929190615ef8565b60206040518083038185885af11580156152ff573d6000803e3d6000fd5b50505050506040513d601f19601f82011682018060405250810190612b559190615ac2565b60003415615360576040517fd7468c32000000000000000000000000000000000000000000000000000000008152346004820152602401610cdf565b6001600160a01b03851661eeee1480159061537a57508315155b156154ff576040517fbda009fe0000000000000000000000000000000000000000000000000000000081526001600160a01b03808716600483015261542e9187917f0000000000000000000000009fdd1c4e4aa24eec1d913fabea925594a20d43c7169063bda009fe90602401602060405180830381865afa158015615404573d6000803e3d6000fd5b505050506040513d601f19601f820116820180604052508101906154289190615a08565b866148ac565b7f0000000000000000000000009fdd1c4e4aa24eec1d913fabea925594a20d43c76001600160a01b0316637b3a3c8b83606001516154693090565b604080516020810182526000815290517fffffffff0000000000000000000000000000000000000000000000000000000060e086901b1681526154b29392918a91600401615f5a565b6000604051808303816000875af11580156154d1573d6000803e3d6000fd5b505050506040513d6000823e601f3d908101601f191682016040526154f99190810190615e4b565b50615502565b50825b6040517f928c169a00000000000000000000000000000000000000000000000000000000815260649063928c169a9083906155439030908890600401615f8c565b60206040518083038185885af1158015615561573d6000803e3d6000fd5b50505050506040513d601f19601f820116820180604052508101906119a09190615ac2565b60408051608081018252600080825260208201529081016155a56155f0565b8152602001600081525090565b82602081019282156155e0579160200282015b828111156155e05782518255916020019190600101906155c5565b506155ec929150615603565b5090565b60405180604001604052806155a5615618565b5b808211156155ec5760008155600101615604565b6040518061040001604052806020906020820280368337509192915050565b60006020828403121561564957600080fd5b81357fffffffff0000000000000000000000000000000000000000000000000000000081168114612d1657600080fd5b60006104a0828403121561568c57600080fd5b50919050565b600080602083850312156156a557600080fd5b823567ffffffffffffffff808211156156bd57600080fd5b818501915085601f8301126156d157600080fd5b8135818111156156e057600080fd5b8660208260071b85010111156156f557600080fd5b60209290920196919550909350505050565b60006080828403121561568c57600080fd5b60006080828403121561572b57600080fd5b612d168383615707565b6001600160a01b0381168114610a5057600080fd5b6000806000806080858703121561576057600080fd5b84359350602085013561577281615735565b925060408501359150606085013561578981615735565b939692955090935050565b6000602082840312156157a657600080fd5b8135612d1681615735565b6000602082840312156157c357600080fd5b813564ffffffffff81168114612d1657600080fd5b815167ffffffffffffffff1681526020808301519082015260408101610996565b6000806020838503121561580c57600080fd5b823567ffffffffffffffff8082111561582457600080fd5b818501915085601f83011261583857600080fd5b81358181111561584757600080fd5b8660208260051b85010111156156f557600080fd5b815167ffffffffffffffff1681526020808301518183015260408084015180516104808501939260009086015b848210156158a7578251815291840191600191909101908401615889565b5050500151610440830152606092909201516104609091015290565b600080602083850312156158d657600080fd5b823567ffffffffffffffff808211156158ee57600080fd5b818501915085601f83011261590257600080fd5b81358181111561591157600080fd5b8660206104a0830285010111156156f557600080fd5b634e487b7160e01b600052602160045260246000fd5b602081016004831061595157615951615927565b91905290565b60028110610a5057610a50615927565b6020810161595183615957565b60006020828403121561598657600080fd5b5035919050565b634e487b7160e01b600052601160045260246000fd5b818103818111156109965761099661598d565b634e487b7160e01b600052603260045260246000fd5b600060001982036159df576159df61598d565b5060010190565b600082615a0357634e487b7160e01b600052601260045260246000fd5b500490565b600060208284031215615a1a57600080fd5b8151612d1681615735565b808201808211156109965761099661598d565b600060208284031215615a4a57600080fd5b813567ffffffffffffffff81168114612d1657600080fd5b6040808252810183905260008460608301825b86811015615aa5578235615a8881615735565b6001600160a01b0316825260209283019290910190600101615a75565b5080925050506001600160a01b0383166020830152949350505050565b600060208284031215615ad457600080fd5b5051919050565b600060208284031215615aed57600080fd5b813563ffffffff81168114612d1657600080fd5b60005b83811015615b1c578181015183820152602001615b04565b50506000910152565b60008151808452615b3d816020860160208601615b01565b601f01601f19169290920160200192915050565b60006001600160a01b03808a168352886020840152876040840152808716606084015285608084015280851660a08401525060e060c0830152615b9760e0830184615b25565b9998505050505050505050565b634e487b7160e01b600052600160045260246000fd5b600060208284031215615bcc57600080fd5b81518015158114612d1657600080fd5b600067ffffffffffffffff808316818103615bf957615bf961598d565b6001019392505050565b60008085851115615c1357600080fd5b83861115615c2057600080fd5b5050820193919092039150565b7fffffffffffffffffffffffffffffffffffffffff0000000000000000000000008135818116916014851015615c6d5780818660140360031b1b83161692505b505092915050565b600181815b80851115615cb0578160001904821115615c9657615c9661598d565b80851615615ca357918102915b93841c9390800290615c7a565b509250929050565b600082615cc757506001610996565b81615cd457506000610996565b8160018114615cea5760028114615cf457615d10565b6001915050610996565b60ff841115615d0557615d0561598d565b50506001821b610996565b5060208310610133831016604e8410600b8410161715615d33575081810a610996565b615d3d8383615c75565b8060001904821115615d5157615d5161598d565b029392505050565b6000612d168383615cb8565b60006080820190506001600160a01b038351168252602083015160208301526040830151615daa6040840182805167ffffffffffffffff168252602090810151910152565b5092915050565b80820281158282048414176109965761099661598d565b828152604060208201526000615de16040830184615b25565b949350505050565b60006001600160a01b03808a168352808916602084015280881660408401525085606083015263ffffffff851660808301528360a083015260e060c0830152615b9760e0830184615b25565b634e487b7160e01b600052604160045260246000fd5b600060208284031215615e5d57600080fd5b815167ffffffffffffffff80821115615e7557600080fd5b818401915084601f830112615e8957600080fd5b815181811115615e9b57615e9b615e35565b604051601f8201601f19908116603f01168101908382118183101715615ec357615ec3615e35565b81604052828152876020848701011115615edc57600080fd5b615eed836020830160208801615b01565b979650505050505050565b60006101006001600160a01b03808c1684528a6020850152896040850152808916606085015280881660808501525063ffffffff861660a08401528460c08401528060e0840152615f4b81840185615b25565b9b9a5050505050505050505050565b60006001600160a01b03808716835280861660208401525083604083015260806060830152614e376080830184615b25565b6001600160a01b0383168152604060208201526000615de16040830184615b2556fea2646970667358221220e36c3a37ad02e31b40907826cff34d3f0945bd4e2aeafaa5630e4eb1d871cd7b64736f6c63430008170033",
	"gitCommit": "15954670a31005d16a26229742a824cdc93eee06",
	"history": []
}