{
	"format": "sphinx-sol-ct-artifact-1",
	"merkleRoot": "0xaf5e28bbeeb8122b7e38bf2cb4c20e25753886f2cc3a4b8bc8ead5d3ccb5c985",
	"address": "0x795a16e538ff5a5e17c07a684b9aeaa0c85a1036",
	"sourceName": "src/JBOptimismSucker.sol",
	"contractName": "JBOptimismSucker",
	"chainId": "0xaa36a7",
	"abi": [
		{
			"inputs": [
				{
					"internalType": "contract JBOptimismSuckerDeployer",
					"name": "deployer",
					"type": "address"
				},
				{
					"internalType": "contract IJBDirectory",
					"name": "directory",
					"type": "address"
				},
				{
					"internalType": "contract IJBPermissions",
					"name": "permissions",
					"type": "address"
				},
				{
					"internalType": "contract IJBTokens",
					"name": "tokens",
					"type": "address"
				},
				{
					"internalType": "enum JBAddToBalanceMode",
					"name": "addToBalanceMode",
					"type": "uint8"
				},
				{
					"internalType": "address",
					"name": "trusted_forwarder",
					"type": "address"
				}
			],
			"stateMutability": "nonpayable",
			"type": "constructor"
		},
		{
			"stateMutability": "payable",
			"type": "receive"
		},
		{
			"inputs": [],
			"name": "ADD_TO_BALANCE_MODE",
			"outputs": [
				{
					"internalType": "enum JBAddToBalanceMode",
					"name": "",
					"type": "uint8"
				}
			],
			"stateMutability": "view",
			"type": "function"
		},
		{
			"inputs": [],
			"name": "DIRECTORY",
			"outputs": [
				{
					"internalType": "contract IJBDirectory",
					"name": "",
					"type": "address"
				}
			],
			"stateMutability": "view",
			"type": "function"
		},
		{
			"inputs": [],
			"name": "MESSENGER_BASE_GAS_LIMIT",
			"outputs": [
				{
					"internalType": "uint32",
					"name": "",
					"type": "uint32"
				}
			],
			"stateMutability": "view",
			"type": "function"
		},
		{
			"inputs": [],
			"name": "MESSENGER_ERC20_MIN_GAS_LIMIT",
			"outputs": [
				{
					"internalType": "uint32",
					"name": "",
					"type": "uint32"
				}
			],
			"stateMutability": "view",
			"type": "function"
		},
		{
			"inputs": [],
			"name": "OPBRIDGE",
			"outputs": [
				{
					"internalType": "contract IOPStandardBridge",
					"name": "",
					"type": "address"
				}
			],
			"stateMutability": "view",
			"type": "function"
		},
		{
			"inputs": [],
			"name": "OPMESSENGER",
			"outputs": [
				{
					"internalType": "contract IOPMessenger",
					"name": "",
					"type": "address"
				}
			],
			"stateMutability": "view",
			"type": "function"
		},
		{
			"inputs": [],
			"name": "PERMISSIONS",
			"outputs": [
				{
					"internalType": "contract IJBPermissions",
					"name": "",
					"type": "address"
				}
			],
			"stateMutability": "view",
			"type": "function"
		},
		{
			"inputs": [],
			"name": "TOKENS",
			"outputs": [
				{
					"internalType": "contract IJBTokens",
					"name": "",
					"type": "address"
				}
			],
			"stateMutability": "view",
			"type": "function"
		},
		{
			"inputs": [
				{
					"internalType": "address",
					"name": "token",
					"type": "address"
				}
			],
			"name": "addOutstandingAmountToBalance",
			"outputs": [],
			"stateMutability": "nonpayable",
			"type": "function"
		},
		{
			"inputs": [
				{
					"internalType": "address",
					"name": "token",
					"type": "address"
				}
			],
			"name": "amountToAddToBalanceOf",
			"outputs": [
				{
					"internalType": "uint256",
					"name": "",
					"type": "uint256"
				}
			],
			"stateMutability": "view",
			"type": "function"
		},
		{
			"inputs": [
				{
					"components": [
						{
							"internalType": "address",
							"name": "token",
							"type": "address"
						},
						{
							"components": [
								{
									"internalType": "uint256",
									"name": "index",
									"type": "uint256"
								},
								{
									"internalType": "address",
									"name": "beneficiary",
									"type": "address"
								},
								{
									"internalType": "uint256",
									"name": "projectTokenCount",
									"type": "uint256"
								},
								{
									"internalType": "uint256",
									"name": "terminalTokenAmount",
									"type": "uint256"
								}
							],
							"internalType": "struct JBLeaf",
							"name": "leaf",
							"type": "tuple"
						},
						{
							"internalType": "bytes32[32]",
							"name": "proof",
							"type": "bytes32[32]"
						}
					],
					"internalType": "struct JBClaim",
					"name": "claimData",
					"type": "tuple"
				}
			],
			"name": "claim",
			"outputs": [],
			"stateMutability": "nonpayable",
			"type": "function"
		},
		{
			"inputs": [
				{
					"components": [
						{
							"internalType": "address",
							"name": "token",
							"type": "address"
						},
						{
							"components": [
								{
									"internalType": "uint256",
									"name": "index",
									"type": "uint256"
								},
								{
									"internalType": "address",
									"name": "beneficiary",
									"type": "address"
								},
								{
									"internalType": "uint256",
									"name": "projectTokenCount",
									"type": "uint256"
								},
								{
									"internalType": "uint256",
									"name": "terminalTokenAmount",
									"type": "uint256"
								}
							],
							"internalType": "struct JBLeaf",
							"name": "leaf",
							"type": "tuple"
						},
						{
							"internalType": "bytes32[32]",
							"name": "proof",
							"type": "bytes32[32]"
						}
					],
					"internalType": "struct JBClaim[]",
					"name": "claims",
					"type": "tuple[]"
				}
			],
			"name": "claim",
			"outputs": [],
			"stateMutability": "nonpayable",
			"type": "function"
		},
		{
			"inputs": [],
			"name": "deployer",
			"outputs": [
				{
					"internalType": "address",
					"name": "",
					"type": "address"
				}
			],
			"stateMutability": "view",
			"type": "function"
		},
		{
			"inputs": [
				{
					"internalType": "address[]",
					"name": "tokens",
					"type": "address[]"
				}
			],
			"name": "enableEmergencyHatchFor",
			"outputs": [],
			"stateMutability": "nonpayable",
			"type": "function"
		},
		{
			"inputs": [
				{
					"components": [
						{
							"internalType": "address",
							"name": "token",
							"type": "address"
						},
						{
							"components": [
								{
									"internalType": "uint256",
									"name": "index",
									"type": "uint256"
								},
								{
									"internalType": "address",
									"name": "beneficiary",
									"type": "address"
								},
								{
									"internalType": "uint256",
									"name": "projectTokenCount",
									"type": "uint256"
								},
								{
									"internalType": "uint256",
									"name": "terminalTokenAmount",
									"type": "uint256"
								}
							],
							"internalType": "struct JBLeaf",
							"name": "leaf",
							"type": "tuple"
						},
						{
							"internalType": "bytes32[32]",
							"name": "proof",
							"type": "bytes32[32]"
						}
					],
					"internalType": "struct JBClaim",
					"name": "claimData",
					"type": "tuple"
				}
			],
			"name": "exitThroughEmergencyHatch",
			"outputs": [],
			"stateMutability": "nonpayable",
			"type": "function"
		},
		{
			"inputs": [
				{
					"components": [
						{
							"internalType": "address",
							"name": "token",
							"type": "address"
						},
						{
							"internalType": "uint256",
							"name": "amount",
							"type": "uint256"
						},
						{
							"components": [
								{
									"internalType": "uint64",
									"name": "nonce",
									"type": "uint64"
								},
								{
									"internalType": "bytes32",
									"name": "root",
									"type": "bytes32"
								}
							],
							"internalType": "struct JBInboxTreeRoot",
							"name": "remoteRoot",
							"type": "tuple"
						}
					],
					"internalType": "struct JBMessageRoot",
					"name": "root",
					"type": "tuple"
				}
			],
			"name": "fromRemote",
			"outputs": [],
			"stateMutability": "payable",
			"type": "function"
		},
		{
			"inputs": [
				{
					"internalType": "address",
					"name": "token",
					"type": "address"
				}
			],
			"name": "inboxOf",
			"outputs": [
				{
					"components": [
						{
							"internalType": "uint64",
							"name": "nonce",
							"type": "uint64"
						},
						{
							"internalType": "bytes32",
							"name": "root",
							"type": "bytes32"
						}
					],
					"internalType": "struct JBInboxTreeRoot",
					"name": "",
					"type": "tuple"
				}
			],
			"stateMutability": "view",
			"type": "function"
		},
		{
			"inputs": [
				{
					"internalType": "uint256",
					"name": "_projectId",
					"type": "uint256"
				}
			],
			"name": "initialize",
			"outputs": [],
			"stateMutability": "nonpayable",
			"type": "function"
		},
		{
			"inputs": [
				{
					"internalType": "address",
					"name": "token",
					"type": "address"
				}
			],
			"name": "isMapped",
			"outputs": [
				{
					"internalType": "bool",
					"name": "",
					"type": "bool"
				}
			],
			"stateMutability": "view",
			"type": "function"
		},
		{
			"inputs": [
				{
					"internalType": "address",
					"name": "forwarder",
					"type": "address"
				}
			],
			"name": "isTrustedForwarder",
			"outputs": [
				{
					"internalType": "bool",
					"name": "",
					"type": "bool"
				}
			],
			"stateMutability": "view",
			"type": "function"
		},
		{
			"inputs": [
				{
					"components": [
						{
							"internalType": "address",
							"name": "localToken",
							"type": "address"
						},
						{
							"internalType": "uint32",
							"name": "minGas",
							"type": "uint32"
						},
						{
							"internalType": "address",
							"name": "remoteToken",
							"type": "address"
						},
						{
							"internalType": "uint256",
							"name": "minBridgeAmount",
							"type": "uint256"
						}
					],
					"internalType": "struct JBTokenMapping",
					"name": "map",
					"type": "tuple"
				}
			],
			"name": "mapToken",
			"outputs": [],
			"stateMutability": "payable",
			"type": "function"
		},
		{
			"inputs": [
				{
					"components": [
						{
							"internalType": "address",
							"name": "localToken",
							"type": "address"
						},
						{
							"internalType": "uint32",
							"name": "minGas",
							"type": "uint32"
						},
						{
							"internalType": "address",
							"name": "remoteToken",
							"type": "address"
						},
						{
							"internalType": "uint256",
							"name": "minBridgeAmount",
							"type": "uint256"
						}
					],
					"internalType": "struct JBTokenMapping[]",
					"name": "maps",
					"type": "tuple[]"
				}
			],
			"name": "mapTokens",
			"outputs": [],
			"stateMutability": "payable",
			"type": "function"
		},
		{
			"inputs": [
				{
					"internalType": "address",
					"name": "token",
					"type": "address"
				}
			],
			"name": "outboxOf",
			"outputs": [
				{
					"components": [
						{
							"internalType": "uint64",
							"name": "nonce",
							"type": "uint64"
						},
						{
							"internalType": "uint256",
							"name": "balance",
							"type": "uint256"
						},
						{
							"components": [
								{
									"internalType": "bytes32[32]",
									"name": "branch",
									"type": "bytes32[32]"
								},
								{
									"internalType": "uint256",
									"name": "count",
									"type": "uint256"
								}
							],
							"internalType": "struct MerkleLib.Tree",
							"name": "tree",
							"type": "tuple"
						},
						{
							"internalType": "uint256",
							"name": "numberOfClaimsSent",
							"type": "uint256"
						}
					],
					"internalType": "struct JBOutboxTree",
					"name": "",
					"type": "tuple"
				}
			],
			"stateMutability": "view",
			"type": "function"
		},
		{
			"inputs": [],
			"name": "peer",
			"outputs": [
				{
					"internalType": "address",
					"name": "",
					"type": "address"
				}
			],
			"stateMutability": "view",
			"type": "function"
		},
		{
			"inputs": [],
			"name": "peerChainId",
			"outputs": [
				{
					"internalType": "uint256",
					"name": "",
					"type": "uint256"
				}
			],
			"stateMutability": "view",
			"type": "function"
		},
		{
			"inputs": [
				{
					"internalType": "uint256",
					"name": "projectTokenCount",
					"type": "uint256"
				},
				{
					"internalType": "address",
					"name": "beneficiary",
					"type": "address"
				},
				{
					"internalType": "uint256",
					"name": "minTokensReclaimed",
					"type": "uint256"
				},
				{
					"internalType": "address",
					"name": "token",
					"type": "address"
				}
			],
			"name": "prepare",
			"outputs": [],
			"stateMutability": "nonpayable",
			"type": "function"
		},
		{
			"inputs": [],
			"name": "projectId",
			"outputs": [
				{
					"internalType": "uint256",
					"name": "",
					"type": "uint256"
				}
			],
			"stateMutability": "view",
			"type": "function"
		},
		{
			"inputs": [
				{
					"internalType": "address",
					"name": "token",
					"type": "address"
				}
			],
			"name": "remoteTokenFor",
			"outputs": [
				{
					"components": [
						{
							"internalType": "bool",
							"name": "enabled",
							"type": "bool"
						},
						{
							"internalType": "bool",
							"name": "emergencyHatch",
							"type": "bool"
						},
						{
							"internalType": "uint32",
							"name": "minGas",
							"type": "uint32"
						},
						{
							"internalType": "address",
							"name": "addr",
							"type": "address"
						},
						{
							"internalType": "uint256",
							"name": "minBridgeAmount",
							"type": "uint256"
						}
					],
					"internalType": "struct JBRemoteToken",
					"name": "",
					"type": "tuple"
				}
			],
			"stateMutability": "view",
			"type": "function"
		},
		{
			"inputs": [
				{
					"internalType": "uint40",
					"name": "timestamp",
					"type": "uint40"
				}
			],
			"name": "setDeprecation",
			"outputs": [],
			"stateMutability": "nonpayable",
			"type": "function"
		},
		{
			"inputs": [],
			"name": "state",
			"outputs": [
				{
					"internalType": "enum JBSuckerState",
					"name": "",
					"type": "uint8"
				}
			],
			"stateMutability": "view",
			"type": "function"
		},
		{
			"inputs": [
				{
					"internalType": "bytes4",
					"name": "interfaceId",
					"type": "bytes4"
				}
			],
			"name": "supportsInterface",
			"outputs": [
				{
					"internalType": "bool",
					"name": "",
					"type": "bool"
				}
			],
			"stateMutability": "view",
			"type": "function"
		},
		{
			"inputs": [
				{
					"internalType": "address",
					"name": "token",
					"type": "address"
				}
			],
			"name": "toRemote",
			"outputs": [],
			"stateMutability": "payable",
			"type": "function"
		},
		{
			"inputs": [],
			"name": "trustedForwarder",
			"outputs": [
				{
					"internalType": "address",
					"name": "",
					"type": "address"
				}
			],
			"stateMutability": "view",
			"type": "function"
		},
		{
			"anonymous": false,
			"inputs": [
				{
					"indexed": false,
					"internalType": "address",
					"name": "beneficiary",
					"type": "address"
				},
				{
					"indexed": false,
					"internalType": "address",
					"name": "token",
					"type": "address"
				},
				{
					"indexed": false,
					"internalType": "uint256",
					"name": "projectTokenCount",
					"type": "uint256"
				},
				{
					"indexed": false,
					"internalType": "uint256",
					"name": "terminalTokenAmount",
					"type": "uint256"
				},
				{
					"indexed": false,
					"internalType": "uint256",
					"name": "index",
					"type": "uint256"
				},
				{
					"indexed": false,
					"internalType": "bool",
					"name": "autoAddedToBalance",
					"type": "bool"
				},
				{
					"indexed": false,
					"internalType": "address",
					"name": "caller",
					"type": "address"
				}
			],
			"name": "Claimed",
			"type": "event"
		},
		{
			"anonymous": false,
			"inputs": [
				{
					"indexed": false,
					"internalType": "uint40",
					"name": "timestamp",
					"type": "uint40"
				},
				{
					"indexed": false,
					"internalType": "address",
					"name": "caller",
					"type": "address"
				}
			],
			"name": "DeprecationTimeUpdated",
			"type": "event"
		},
		{
			"anonymous": false,
			"inputs": [
				{
					"indexed": false,
					"internalType": "address[]",
					"name": "tokens",
					"type": "address[]"
				},
				{
					"indexed": false,
					"internalType": "address",
					"name": "caller",
					"type": "address"
				}
			],
			"name": "EmergencyHatchOpened",
			"type": "event"
		},
		{
			"anonymous": false,
			"inputs": [
				{
					"indexed": false,
					"internalType": "uint64",
					"name": "version",
					"type": "uint64"
				}
			],
			"name": "Initialized",
			"type": "event"
		},
		{
			"anonymous": false,
			"inputs": [
				{
					"indexed": true,
					"internalType": "address",
					"name": "beneficiary",
					"type": "address"
				},
				{
					"indexed": true,
					"internalType": "address",
					"name": "token",
					"type": "address"
				},
				{
					"indexed": false,
					"internalType": "bytes32",
					"name": "hashed",
					"type": "bytes32"
				},
				{
					"indexed": false,
					"internalType": "uint256",
					"name": "index",
					"type": "uint256"
				},
				{
					"indexed": false,
					"internalType": "bytes32",
					"name": "root",
					"type": "bytes32"
				},
				{
					"indexed": false,
					"internalType": "uint256",
					"name": "projectTokenCount",
					"type": "uint256"
				},
				{
					"indexed": false,
					"internalType": "uint256",
					"name": "terminalTokenAmount",
					"type": "uint256"
				},
				{
					"indexed": false,
					"internalType": "address",
					"name": "caller",
					"type": "address"
				}
			],
			"name": "InsertToOutboxTree",
			"type": "event"
		},
		{
			"anonymous": false,
			"inputs": [
				{
					"indexed": true,
					"internalType": "address",
					"name": "token",
					"type": "address"
				},
				{
					"indexed": false,
					"internalType": "uint64",
					"name": "nonce",
					"type": "uint64"
				},
				{
					"indexed": false,
					"internalType": "bytes32",
					"name": "root",
					"type": "bytes32"
				},
				{
					"indexed": false,
					"internalType": "address",
					"name": "caller",
					"type": "address"
				}
			],
			"name": "NewInboxTreeRoot",
			"type": "event"
		},
		{
			"anonymous": false,
			"inputs": [
				{
					"indexed": true,
					"internalType": "bytes32",
					"name": "root",
					"type": "bytes32"
				},
				{
					"indexed": true,
					"internalType": "address",
					"name": "token",
					"type": "address"
				},
				{
					"indexed": false,
					"internalType": "uint256",
					"name": "index",
					"type": "uint256"
				},
				{
					"indexed": false,
					"internalType": "uint64",
					"name": "nonce",
					"type": "uint64"
				},
				{
					"indexed": false,
					"internalType": "address",
					"name": "caller",
					"type": "address"
				}
			],
			"name": "RootToRemote",
			"type": "event"
		},
		{
			"inputs": [],
			"name": "InvalidInitialization",
			"type": "error"
		},
		{
			"inputs": [
				{
					"internalType": "address",
					"name": "account",
					"type": "address"
				},
				{
					"internalType": "address",
					"name": "sender",
					"type": "address"
				},
				{
					"internalType": "uint256",
					"name": "projectId",
					"type": "uint256"
				},
				{
					"internalType": "uint256",
					"name": "permissionId",
					"type": "uint256"
				}
			],
			"name": "JBPermissioned_Unauthorized",
			"type": "error"
		},
		{
			"inputs": [
				{
					"internalType": "uint256",
					"name": "minGas",
					"type": "uint256"
				},
				{
					"internalType": "uint256",
					"name": "minGasLimit",
					"type": "uint256"
				}
			],
			"name": "JBSucker_BelowMinGas",
			"type": "error"
		},
		{
			"inputs": [],
			"name": "JBSucker_Deprecated",
			"type": "error"
		},
		{
			"inputs": [
				{
					"internalType": "uint256",
					"name": "givenTime",
					"type": "uint256"
				},
				{
					"internalType": "uint256",
					"name": "minimumTime",
					"type": "uint256"
				}
			],
			"name": "JBSucker_DeprecationTimestampTooSoon",
			"type": "error"
		},
		{
			"inputs": [],
			"name": "JBSucker_ExpectedMsgValue",
			"type": "error"
		},
		{
			"inputs": [
				{
					"internalType": "uint256",
					"name": "amount",
					"type": "uint256"
				},
				{
					"internalType": "uint256",
					"name": "balance",
					"type": "uint256"
				}
			],
			"name": "JBSucker_InsufficientBalance",
			"type": "error"
		},
		{
			"inputs": [
				{
					"internalType": "uint256",
					"name": "received",
					"type": "uint256"
				},
				{
					"internalType": "uint256",
					"name": "expected",
					"type": "uint256"
				}
			],
			"name": "JBSucker_InsufficientMsgValue",
			"type": "error"
		},
		{
			"inputs": [
				{
					"internalType": "address",
					"name": "remoteToken",
					"type": "address"
				}
			],
			"name": "JBSucker_InvalidNativeRemoteAddress",
			"type": "error"
		},
		{
			"inputs": [
				{
					"internalType": "bytes32",
					"name": "root",
					"type": "bytes32"
				},
				{
					"internalType": "bytes32",
					"name": "inboxRoot",
					"type": "bytes32"
				}
			],
			"name": "JBSucker_InvalidProof",
			"type": "error"
		},
		{
			"inputs": [
				{
					"internalType": "address",
					"name": "token",
					"type": "address"
				},
				{
					"internalType": "uint256",
					"name": "index",
					"type": "uint256"
				}
			],
			"name": "JBSucker_LeafAlreadyExecuted",
			"type": "error"
		},
		{
			"inputs": [
				{
					"internalType": "enum JBAddToBalanceMode",
					"name": "mode",
					"type": "uint8"
				}
			],
			"name": "JBSucker_ManualNotAllowed",
			"type": "error"
		},
		{
			"inputs": [
				{
					"internalType": "uint256",
					"name": "projectId",
					"type": "uint256"
				},
				{
					"internalType": "address",
					"name": "token",
					"type": "address"
				}
			],
			"name": "JBSucker_NoTerminalForToken",
			"type": "error"
		},
		{
			"inputs": [
				{
					"internalType": "address",
					"name": "caller",
					"type": "address"
				}
			],
			"name": "JBSucker_NotPeer",
			"type": "error"
		},
		{
			"inputs": [
				{
					"internalType": "uint256",
					"name": "amount",
					"type": "uint256"
				},
				{
					"internalType": "uint256",
					"name": "minimumAmount",
					"type": "uint256"
				}
			],
			"name": "JBSucker_QueueInsufficientSize",
			"type": "error"
		},
		{
			"inputs": [
				{
					"internalType": "address",
					"name": "localToken",
					"type": "address"
				},
				{
					"internalType": "address",
					"name": "mappedTo",
					"type": "address"
				}
			],
			"name": "JBSucker_TokenAlreadyMapped",
			"type": "error"
		},
		{
			"inputs": [
				{
					"internalType": "address",
					"name": "token",
					"type": "address"
				}
			],
			"name": "JBSucker_TokenHasInvalidEmergencyHatchState",
			"type": "error"
		},
		{
			"inputs": [
				{
					"internalType": "address",
					"name": "token",
					"type": "address"
				}
			],
			"name": "JBSucker_TokenNotMapped",
			"type": "error"
		},
		{
			"inputs": [
				{
					"internalType": "uint256",
					"name": "value",
					"type": "uint256"
				}
			],
			"name": "JBSucker_UnexpectedMsgValue",
			"type": "error"
		},
		{
			"inputs": [],
			"name": "JBSucker_ZeroBeneficiary",
			"type": "error"
		},
		{
			"inputs": [],
			"name": "JBSucker_ZeroERC20Token",
			"type": "error"
		},
		{
			"inputs": [],
			"name": "MerkleLib__insert_treeIsFull",
			"type": "error"
		},
		{
			"inputs": [],
			"name": "NotInitializing",
			"type": "error"
		},
		{
			"inputs": [
				{
					"internalType": "address",
					"name": "token",
					"type": "address"
				}
			],
			"name": "SafeERC20FailedOperation",
			"type": "error"
		}
	],
	"args": [],
	"solcInputHash": "14ce4938174f25cdd1fbe9b98155e159",
	"bytecode": "0x6101606040523480156200001257600080fd5b5060405162005b1d38038062005b1d833981016040819052620000359162000260565b6001600160a01b0380821660805280851660a05280861660e05283166101005284848484848160018111156200006f576200006f620002f7565b60c0816001811115620000865762000086620002f7565b9052506200009362000196565b5050505050856001600160a01b03166328db992a6040518163ffffffff1660e01b8152600401602060405180830381865afa158015620000d7573d6000803e3d6000fd5b505050506040513d601f19601f82011682018060405250810190620000fd91906200030d565b6001600160a01b0316610120816001600160a01b031681525050856001600160a01b031663516bf2f36040518163ffffffff1660e01b8152600401602060405180830381865afa15801562000156573d6000803e3d6000fd5b505050506040513d601f19601f820116820180604052508101906200017c91906200030d565b6001600160a01b0316610140525062000334945050505050565b7ff0c57e16840df040f15088dc2f81fe391c3923bec73e23a9662efc9c229c6a00805468010000000000000000900460ff1615620001e75760405163f92ee8a960e01b815260040160405180910390fd5b80546001600160401b0390811614620002475780546001600160401b0319166001600160401b0390811782556040519081527fc7f505b2f371ae2175ee4913f4499e1f2633a7b5936321eed1cdaeb6115181d29060200160405180910390a15b50565b6001600160a01b03811681146200024757600080fd5b60008060008060008060c087890312156200027a57600080fd5b865162000287816200024a565b60208801519096506200029a816200024a565b6040880151909550620002ad816200024a565b6060880151909450620002c0816200024a565b608088015190935060028110620002d657600080fd5b60a0880151909250620002e9816200024a565b809150509295509295509295565b634e487b7160e01b600052602160045260246000fd5b6000602082840312156200032057600080fd5b81516200032d816200024a565b9392505050565b60805160a05160c05160e051610100516101205161014051615709620004146000396000818161080701528181612b0301528181612b49015261498c0152600081816102e50152818161489801526148bf01526000818161029e0152610b8d01526000818161063801528181610e020152818161121e01528181611c0201528181611dfe0152818161229501526127a701526000818161075d01528181610fd30152818161100a015281816115000152611b7a0152600081816107d301526126410152600081816103a2015281816104cd015261455101526157096000f3fe6080604052600436106102025760003560e01c80637da0a8771161011d578063bf557aee116100b0578063cdfceeba1161007f578063f434c91411610064578063f434c914146107c1578063fc8fa43d146107f5578063fe4b84df1461082957600080fd5b8063cdfceeba1461078c578063d5f39488146107a157600080fd5b8063bf557aee146106c4578063c185412914610709578063c19d93fb14610729578063c6525f2c1461074b57600080fd5b806392ee1ea7116100ec57806392ee1ea71461065a5780639e6d7d4314610671578063b59ef50f14610691578063b71c1179146106b157600080fd5b80637da0a877146104be5780637de6fba2146104f1578063802c8fa0146105f957806388bc2ef31461062657600080fd5b80633fafa1271161019557806369ce22331161016457806369ce2233146103f257806369d31fdd146104125780636d9e384b14610425578063754515591461049e57600080fd5b80633fafa12714610346578063551ebbf014610365578063572b6c05146103855780636284386a146103d257600080fd5b80632241dc52116101d15780632241dc52146102c05780632847f1f3146102d357806338eb2044146103075780633a5de07d1461031a57600080fd5b806301ffc9a71461020e5780630f6482141461024357806311cda415146102655780631d831d5c1461028c57600080fd5b3661020957005b600080fd5b34801561021a57600080fd5b5061022e610229366004614ee2565b610849565b60405190151581526020015b60405180910390f35b34801561024f57600080fd5b5061026361025e366004614f24565b61097a565b005b34801561027157600080fd5b50305b6040516001600160a01b03909116815260200161023a565b34801561029857600080fd5b506102747f000000000000000000000000000000000000000000000000000000000000000081565b6102636102ce366004614f3d565b610a31565b3480156102df57600080fd5b506102747f000000000000000000000000000000000000000000000000000000000000000081565b610263610315366004614fc4565b610b3f565b34801561032657600080fd5b5061033162030d4081565b60405163ffffffff909116815260200161023a565b34801561035257600080fd5b506002545b60405190815260200161023a565b34801561037157600080fd5b50610263610380366004614ff5565b610b49565b34801561039157600080fd5b5061022e6103a036600461503f565b7f00000000000000000000000000000000000000000000000000000000000000006001600160a01b0390811691161490565b3480156103de57600080fd5b506102636103ed36600461505c565b610d7c565b3480156103fe57600080fd5b5061026361040d36600461503f565b610fcf565b610263610420366004614fc4565b61106e565b34801561043157600080fd5b5061049161044036600461503f565b6040805180820190915260008082526020820152506001600160a01b03166000908152600460209081526040918290208251808401909352805467ffffffffffffffff168352600101549082015290565b60405161023a9190615083565b3480156104aa57600080fd5b506102636104b93660046150a4565b61120c565b3480156104ca57600080fd5b507f0000000000000000000000000000000000000000000000000000000000000000610274565b3480156104fd57600080fd5b506105a461050c36600461503f565b6040805160a0808201835260008083526020808401829052838501829052606080850183905260809485018390526001600160a01b039687168352600682529185902085519384018652805460ff8082161515865261010082041615159285019290925262010000820463ffffffff169584019590955266010000000000009004909416938101939093526001909101549082015290565b60405161023a9190600060a08201905082511515825260208301511515602083015263ffffffff60408401511660408301526001600160a01b0360608401511660608301526080830151608083015292915050565b34801561060557600080fd5b5061061961061436600461503f565b6113a7565b60405161023a9190615107565b34801561063257600080fd5b506102747f000000000000000000000000000000000000000000000000000000000000000081565b34801561066657600080fd5b50610331620493e081565b34801561067d57600080fd5b5061035761068c36600461503f565b611447565b34801561069d57600080fd5b506102636106ac366004614f24565b611477565b6102636106bf36600461503f565b61159d565b3480156106d057600080fd5b5061022e6106df36600461503f565b6001600160a01b039081166000908152600660205260409020546601000000000000900416151590565b34801561071557600080fd5b5061026361072436600461516e565b6116e0565b34801561073557600080fd5b5061073e611719565b60405161023a91906151e8565b34801561075757600080fd5b5061077f7f000000000000000000000000000000000000000000000000000000000000000081565b60405161023a9190615202565b34801561079857600080fd5b50610357611762565b3480156107ad57600080fd5b50600054610274906001600160a01b031681565b3480156107cd57600080fd5b506102747f000000000000000000000000000000000000000000000000000000000000000081565b34801561080157600080fd5b506102747f000000000000000000000000000000000000000000000000000000000000000081565b34801561083557600080fd5b50610263610844366004615216565b6117b6565b60007fffffffff0000000000000000000000000000000000000000000000000000000082167f18a5af270000000000000000000000000000000000000000000000000000000014806108dc57507fffffffff0000000000000000000000000000000000000000000000000000000082167f583ff5cc00000000000000000000000000000000000000000000000000000000145b8061092857507fffffffff0000000000000000000000000000000000000000000000000000000082167ff434c91400000000000000000000000000000000000000000000000000000000145b8061097457507f01ffc9a7000000000000000000000000000000000000000000000000000000007fffffffff000000000000000000000000000000000000000000000000000000008316145b92915050565b6109b2606082013561098f602084018461503f565b60808401356109a4606086016040870161503f565b602086013560a08701611945565b6080810135600560006109c8602085018561503f565b6001600160a01b03166001600160a01b0316815260200190815260200160002060010160008282546109fa9190615245565b90915550610a2e9050610a10602083018361503f565b608083013560608401803590610a29906040870161503f565b611b76565b50565b6000805b82811015610aec57600060056000868685818110610a5557610a55615258565b610a6b926020608090920201908101915061503f565b6001600160a01b03168152602081019190915260400160009081209150858584818110610a9a57610a9a615258565b9050608002016040016020810190610ab2919061503f565b6001600160a01b0316148015610ad057506022810154602382015414155b15610ae35782610adf8161526e565b9350505b50600101610a35565b5060005b82811015610b3957610b31848483818110610b0d57610b0d615258565b90506080020160008411610b22576000611d1f565b610b2c8434615288565b611d1f565b600101610af0565b50505050565b610a2e8134611d1f565b6001600160a01b038316610b89576040517f8d3329cd00000000000000000000000000000000000000000000000000000000815260040160405180910390fd5b60007f00000000000000000000000000000000000000000000000000000000000000006001600160a01b031663ea78803f610bc360025490565b6040518263ffffffff1660e01b8152600401610be191815260200190565b602060405180830381865afa158015610bfe573d6000803e3d6000fd5b505050506040513d601f19601f82011682018060405250810190610c2291906152aa565b90506001600160a01b038116610c64576040517fcaa06d2000000000000000000000000000000000000000000000000000000000815260040160405180910390fd5b6001600160a01b03821660009081526006602052604090205460ff16610cc6576040517f04fdbe060000000000000000000000000000000000000000000000000000000081526001600160a01b03831660048201526024015b60405180910390fd5b6000610cd0611719565b90506003816003811115610ce657610ce66151d2565b1480610d0357506002816003811115610d0157610d016151d2565b145b15610d3a576040517fb10f8cca00000000000000000000000000000000000000000000000000000000815260040160405180910390fd5b610d57610d456121b9565b6001600160a01b0384169030896121c8565b6000610d6583888688612244565b9050610d7387858389612432565b50505050505050565b6000610d86611719565b90506003816003811115610d9c57610d9c6151d2565b1480610db957506002816003811115610db757610db76151d2565b145b15610df0576040517fb10f8cca00000000000000000000000000000000000000000000000000000000815260040160405180910390fd5b6000610dfb60025490565b9050610ef87f00000000000000000000000000000000000000000000000000000000000000006001600160a01b031663293c49996040518163ffffffff1660e01b8152600401602060405180830381865afa158015610e5e573d6000803e3d6000fd5b505050506040513d601f19601f82011682018060405250810190610e8291906152aa565b6001600160a01b0316636352211e836040518263ffffffff1660e01b8152600401610eaf91815260200190565b602060405180830381865afa158015610ecc573d6000803e3d6000fd5b505050506040513d601f19601f82011682018060405250810190610ef091906152aa565b82601e6125bc565b6000610f0762127500426152c7565b905064ffffffffff841615801590610f255750808464ffffffffff16105b15610f6c576040517f044691ac00000000000000000000000000000000000000000000000000000000815264ffffffffff8516600482015260248101829052604401610cbd565b64ffffffffff84166001557f455efa76af2a8686dc0dd3041bda89ece5ba4691277d525e2161003bbca8b24584610fa16121b9565b6040805164ffffffffff90931683526001600160a01b0390911660208301520160405180910390a150505050565b60007f00000000000000000000000000000000000000000000000000000000000000006001811115611003576110036151d2565b1461105c577f00000000000000000000000000000000000000000000000000000000000000006040517fb039c395000000000000000000000000000000000000000000000000000000008152600401610cbd9190615202565b610a2e8161106983611447565b612706565b61107e6110796121b9565b612aff565b6110c85761108a6121b9565b6040517f36183c8f0000000000000000000000000000000000000000000000000000000081526001600160a01b039091166004820152602401610cbd565b60006004816110da602085018561503f565b6001600160a01b0316815260208101919091526040908101600020805490925067ffffffffffffffff169061111590606085019085016152da565b67ffffffffffffffff1611801561114557506003611131611719565b6003811115611142576111426151d2565b14155b156112085761115a60608301604084016152da565b815467ffffffffffffffff191667ffffffffffffffff919091161781556060820135600182015561118e602083018361503f565b6001600160a01b03167fc69d3412489554fb7820c4c2784cb644b6c79bfc117444b93977d3d33a9b8eac6111c860608501604086016152da565b60608501356111d56121b9565b6040805167ffffffffffffffff909416845260208401929092526001600160a01b03169082015260600160405180910390a25b5050565b600061121760025490565b905061127a7f00000000000000000000000000000000000000000000000000000000000000006001600160a01b031663293c49996040518163ffffffff1660e01b8152600401602060405180830381865afa158015610e5e573d6000803e3d6000fd5b60005b8281101561135f5760006006600086868581811061129d5761129d615258565b90506020020160208101906112b2919061503f565b6001600160a01b031681526020810191909152604001600090812080547fffffffffffffffffffffffffffffffffffffffffffffffffffffffffffffff00169215159290921790915560019060069086868581811061131357611313615258565b9050602002016020810190611328919061503f565b6001600160a01b03168152602081019190915260400160002080549115156101000261ff001990921691909117905560010161127d565b507f8021bce60b20a9afb57085869a3552e0ee5b272b868df894fb30c5e90e74c072838361138b6121b9565b60405161139a93929190615304565b60405180910390a1505050565b6113af614e31565b6001600160a01b0382166000908152600560209081526040918290208251608081018452815467ffffffffffffffff1681526001820154818401528351610440810180865291949293858401939192600286019284929083019184919082845b81548152602001906001019080831161140f575050509183525050602091820154908201529082526023929092015491015292915050565b6001600160a01b03811660009081526005602052604081206001015461146d8330612bdb565b6109749190615245565b6114af606082013561148c602084018461503f565b60808401356114a1606086016040870161503f565b602086013560a08701612ca8565b7faaca6f6829d340365b5e6599e0d513cbb4602b94f58ccf16ac77d8d3ae7139ef6114e0606083016040840161503f565b6114ed602084018461503f565b60608401356080850135602086013560017f00000000000000000000000000000000000000000000000000000000000000006001811115611530576115306151d2565b1461153c57600061153f565b60015b6115476121b9565b604080516001600160a01b039889168152968816602088015286019490945260608501929092526080840152151560a083015290911660c082015260e00160405180910390a1610a2e610a10602083018361503f565b6001600160a01b03808216600090815260066020908152604091829020825160a081018452815460ff808216151583526101008204161580159483019490945263ffffffff620100008204169482019490945266010000000000009093049093166060830152600190920154608082015290611650576040517f4bba81f00000000000000000000000000000000000000000000000000000000081526001600160a01b0383166004820152602401610cbd565b60808101516001600160a01b03831660009081526005602052604090206001015410156116d5576001600160a01b0382166000908152600560205260409081902060010154608083015191517fc3e11b79000000000000000000000000000000000000000000000000000000008152610cbd9290600401918252602082015260400190565b611208348383612d7e565b60005b818110156117145761170c83838381811061170057611700615258565b90506104a00201611477565b6001016116e3565b505050565b60015460009080820361172e57600091505090565b61173b6212750082615245565b42101561174a57600191505090565b8042101561175a57600291505090565b600391505090565b600046600181900361177657600a91505090565b80600a0361178657600191505090565b8062aa36a70361179a5762aa37dc91505090565b8062aa37dc036117ae5762aa36a791505090565b600091505090565b7ff0c57e16840df040f15088dc2f81fe391c3923bec73e23a9662efc9c229c6a00805468010000000000000000810460ff16159067ffffffffffffffff166000811580156118015750825b905060008267ffffffffffffffff16600114801561181e5750303b155b90508115801561182c575080155b15611863576040517ff92ee8a900000000000000000000000000000000000000000000000000000000815260040160405180910390fd5b845467ffffffffffffffff1916600117855583156118ad5784547fffffffffffffffffffffffffffffffffffffffffffffff00ffffffffffffffff16680100000000000000001785555b6002869055600080547fffffffffffffffffffffffff00000000000000000000000000000000000000001633179055831561193d5784547fffffffffffffffffffffffffffffffffffffffffffffff00ffffffffffffffff168555604051600181527fc7f505b2f371ae2175ee4913f4499e1f2633a7b5936321eed1cdaeb6115181d29060200160405180910390a15b505050505050565b600061194f611719565b90506003816003811115611965576119656151d2565b1415801561198557506002816003811115611982576119826151d2565b14155b80156119af57506001600160a01b038616600090815260066020526040902054610100900460ff16155b156119f1576040517f4bba81f00000000000000000000000000000000000000000000000000000000081526001600160a01b0387166004820152602401610cbd565b6001600160a01b0386166000908152600560205260409020602381015415801590611a2c57508360018260230154611a299190615245565b10155b15611a75576040517fa4e6bcec0000000000000000000000000000000000000000000000000000000081526001600160a01b038816600482015260248101859052604401610cbd565b604080516001600160a01b03891660208201526000910160408051808303601f19018152918152815160209283012060601c60008181526003845282812060088a901c8252909352912054909150600160ff87161b1615611b14576040517fa4e6bcec0000000000000000000000000000000000000000000000000000000081526001600160a01b038916600482015260248101869052604401610cbd565b6001600160a01b039081166000908152600360209081526040808320600889901c845282528083208054600160ff8b161b179055928a1682526005905220611b6c90611b6290600201612f9e565b8988888888614354565b5050505050505050565b60017f00000000000000000000000000000000000000000000000000000000000000006001811115611baa57611baa6151d2565b148015611bb657508215155b15611bc557611bc58484612706565b6000611bd060025490565b6040517f5dd8f6aa000000000000000000000000000000000000000000000000000000008152600481018290529091507f00000000000000000000000000000000000000000000000000000000000000006001600160a01b031690635dd8f6aa90602401602060405180830381865afa158015611c51573d6000803e3d6000fd5b505050506040513d601f19601f82011682018060405250810190611c7591906152aa565b6040517fc7fb92de00000000000000000000000000000000000000000000000000000000815260048101839052602481018590526001600160a01b03848116604483015260a06064830152600060a483018190526084830152919091169063c7fb92de9060c4016020604051808303816000875af1158015611cfb573d6000803e3d6000fd5b505050506040513d601f19601f8201168201806040525081019061193d9190615364565b6000611d2e602084018461503f565b6001600160a01b03808216600090815260066020908152604091829020825160a081018452815460ff808216151583526101008204161580159483019490945263ffffffff6201000082041694820194909452660100000000000090930490931660608301526001909201546080820152919250611de3576040517f4bba81f00000000000000000000000000000000000000000000000000000000081526001600160a01b0383166004820152602401610cbd565b611dec84614406565b6000611df760025490565b9050611ef47f00000000000000000000000000000000000000000000000000000000000000006001600160a01b031663293c49996040518163ffffffff1660e01b8152600401602060405180830381865afa158015611e5a573d6000803e3d6000fd5b505050506040513d601f19601f82011682018060405250810190611e7e91906152aa565b6001600160a01b0316636352211e836040518263ffffffff1660e01b8152600401611eab91815260200190565b602060405180830381865afa158015611ec8573d6000803e3d6000fd5b505050506040513d601f19601f82011682018060405250810190611eec91906152aa565b82601c6125bc565b60608201516001600160a01b031615801590611f355750611f1b606086016040870161503f565b6001600160a01b031682606001516001600160a01b031614155b8015611f5a57506000611f4e606087016040880161503f565b6001600160a01b031614155b8015611f8057506001600160a01b03831660009081526005602052604090206022015415155b15611fd05760608201516040517f1460b5460000000000000000000000000000000000000000000000000000000081526001600160a01b0380861660048301529091166024820152604401610cbd565b6000611fe2606087016040880161503f565b6001600160a01b031614801561201957506001600160a01b0383166000908152600560205260409020602281015460239091015414155b1561202957612029848484612d7e565b6040518060a0016040528060006001600160a01b0316876040016020810190612052919061503f565b6001600160a01b0316141515158152602001600015158152602001866020016020810190612080919061537d565b63ffffffff168152602001600061209d6060890160408a0161503f565b6001600160a01b0316146120c0576120bb606088016040890161503f565b6120c6565b83606001515b6001600160a01b039081168252606097880135602092830152948516600090815260068252604090819020835181549385015192850151998501517fffffffffffffffffffffffffffffffffffffffffffffffffffffffffffff000090941690151561ff0019161761010092151592909202919091177fffffffffffff000000000000000000000000000000000000000000000000ffff166201000063ffffffff909916989098027fffffffffffff0000000000000000000000000000000000000000ffffffffffff16979097176601000000000000919095160293909317855550506080015160019092019190915550565b60006121c3614541565b905090565b6040516001600160a01b038481166024830152838116604483015260648201839052610b399186918216906323b872dd906084015b604051602081830303815290604052915060e01b6020820180517bffffffffffffffffffffffffffffffffffffffffffffffffffffffff83818316178352505050506145b6565b60008061225060025490565b6040517f86202650000000000000000000000000000000000000000000000000000000008152600481018290526001600160a01b0386811660248301529192506000917f00000000000000000000000000000000000000000000000000000000000000001690638620265090604401602060405180830381865afa1580156122dc573d6000803e3d6000fd5b505050506040513d601f19601f8201168201806040525081019061230091906152aa565b90506001600160a01b038116612354576040517fb61c181f000000000000000000000000000000000000000000000000000000008152600481018390526001600160a01b0386166024820152604401610cbd565b60006123608630612bdb565b604080516020810182526000815290517f13da83170000000000000000000000000000000000000000000000000000000081529192506001600160a01b038416916313da8317916123bf91309188918d918d918d9186916004016153e9565b6020604051808303816000875af11580156123de573d6000803e3d6000fd5b505050506040513d601f19601f820116820180604052508101906124029190615364565b93508061240f8730612bdb565b6124199190615245565b84146124275761242761543c565b505050949350505050565b6040805160208082018790528183018590526001600160a01b03841660608084019190915283518084039091018152608090920190925280519101206000906001600160a01b03851660009081526005602090815260408083208151610440810180845295965090946124db9387936002880192849291830191849182845b8154815260200190600101908083116124b157505050918352505060209182015491015290614640565b8051909150819060028401906124f49082906020614e5d565b50602082015181602001559050508482600101600082825461251691906152c7565b92505081905550856001600160a01b0316846001600160a01b03167f584a41ff082fad99bb6e50c5767c347c762057fe5726539f0a8de49d84549c2385600185602001516125649190615245565b61257087600201612f9e565b8c8b61257a6121b9565b60408051968752602087019590955293850192909252606084015260808301526001600160a01b031660a082015260c00160405180910390a350505050505050565b60006125c66121b9565b9050836001600160a01b0316816001600160a01b0316141580156126ae57506040517f348b684e0000000000000000000000000000000000000000000000000000000081526001600160a01b0382811660048301528581166024830152604482018590526064820184905260016084830181905260a48301527f0000000000000000000000000000000000000000000000000000000000000000169063348b684e9060c401602060405180830381865afa158015612688573d6000803e3d6000fd5b505050506040513d601f19601f820116820180604052508101906126ac9190615452565b155b15610b39576040517f264deeaa0000000000000000000000000000000000000000000000000000000081526001600160a01b038086166004830152821660248201526044810184905260648101839052608401610cbd565b600061271183611447565b905080821115612757576040517f60ec3e710000000000000000000000000000000000000000000000000000000081526004810183905260248101829052604401610cbd565b600061276260025490565b6040517f86202650000000000000000000000000000000000000000000000000000000008152600481018290526001600160a01b0386811660248301529192506000917f00000000000000000000000000000000000000000000000000000000000000001690638620265090604401602060405180830381865afa1580156127ee573d6000803e3d6000fd5b505050506040513d601f19601f8201168201806040525081019061281291906152aa565b90506001600160a01b038116612866576040517fb61c181f000000000000000000000000000000000000000000000000000000008152600481018390526001600160a01b0386166024820152604401610cbd565b6001600160a01b03851661eeee14612a4f576040517f70a082310000000000000000000000000000000000000000000000000000000081523060048201526000906001600160a01b038716906370a0823190602401602060405180830381865afa1580156128d8573d6000803e3d6000fd5b505050506040513d601f19601f820116820180604052508101906128fc9190615364565b9050612909868387614778565b6040517f9e6eec05000000000000000000000000000000000000000000000000000000008152600481018490526001600160a01b0387811660248301526044820187905260006064830181905260c0608484015260c4830181905260e060a484015260e4830152831690639e6eec059061010401600060405180830381600087803b15801561299757600080fd5b505af11580156129ab573d6000803e3d6000fd5b5050505084816129bb9190615245565b6040517f70a082310000000000000000000000000000000000000000000000000000000081523060048201526001600160a01b038816906370a0823190602401602060405180830381865afa158015612a18573d6000803e3d6000fd5b505050506040513d601f19601f82011682018060405250810190612a3c9190615364565b14612a4957612a4961543c565b50612af8565b6040517f9e6eec05000000000000000000000000000000000000000000000000000000008152600481018390526001600160a01b0386811660248301526044820186905260006064830181905260c0608484015260c4830181905260e060a484015260e4830152821690639e6eec05908690610104016000604051808303818588803b158015612ade57600080fd5b505af1158015612af2573d6000803e3d6000fd5b50505050505b5050505050565b60007f00000000000000000000000000000000000000000000000000000000000000006001600160a01b0316826001600160a01b03161480156109745750306001600160a01b03167f00000000000000000000000000000000000000000000000000000000000000006001600160a01b0316636e296e456040518163ffffffff1660e01b81526004016020604051808303816000875af1158015612ba7573d6000803e3d6000fd5b505050506040513d601f19601f82011682018060405250810190612bcb91906152aa565b6001600160a01b03161492915050565b60007fffffffffffffffffffffffffffffffffffffffffffffffffffffffffffff11126001600160a01b03841601612c1e57506001600160a01b03811631610974565b6040517f70a082310000000000000000000000000000000000000000000000000000000081526001600160a01b0383811660048301528416906370a0823190602401602060405180830381865afa158015612c7d573d6000803e3d6000fd5b505050506040513d601f19601f82011682018060405250810190612ca19190615364565b9392505050565b6001600160a01b0385166000908152600360209081526040808320600886901c8452909152902054600160ff84161b1615612d21576040517fa4e6bcec0000000000000000000000000000000000000000000000000000000081526001600160a01b038616600482015260248101839052604401610cbd565b6001600160a01b0385166000908152600360209081526040808320600886901c845290915290208054600160ff85161b1790556001600160a01b03851660009081526004602052604090206001015461193d908786868686614354565b60608101516001600160a01b0316612dcd576040517f04fdbe060000000000000000000000000000000000000000000000000000000081526001600160a01b0383166004820152602401610cbd565b6000612dd7611719565b90506003816003811115612ded57612ded6151d2565b1480612e0a57506002816003811115612e0857612e086151d2565b145b15612e41576040517fb10f8cca00000000000000000000000000000000000000000000000000000000815260040160405180910390fd5b6001600160a01b03831660009081526005602052604081206001810180549083905581549192909183908290612e809067ffffffffffffffff16615474565b91906101000a81548167ffffffffffffffff021916908367ffffffffffffffff160217905590506000612eb584600201612f9e565b6022850154602386018190559091506000612ed1600183615245565b9050886001600160a01b0316837f47c5615513b0f669da2dd7e3362a34610ca2695d0a0e2da2160cee952eab203c8387612f096121b9565b6040805193845267ffffffffffffffff90921660208401526001600160a01b03169082015260600160405180910390a3600060405180606001604052808a606001516001600160a01b0316815260200187815260200160405180604001604052808867ffffffffffffffff168152602001878152508152509050612f918b838c898d86614836565b5050505050505050505050565b6020810154600090808203612fd557507f27ae5ba08d7291c96c8cbddcc148bf48a6d68c7974b94356f53754ef6171d75792915050565b6000836001831615612ff75780546000526000602052604060002093506138aa565b600283161561303c5760018101546000527fad3228b676f7d3cd4284a5443f17f1962b36e491b30a40b2405849e597ba5fb560205260406000209350600191506138aa565b60048316156130815760028101546000527fb4c11951957c6f8f642c4af61cd6b24640fec6dc7fc607ee8206a99e92410d3060205260406000209350600291506138aa565b60088316156130c65760038101546000527f21ddb9a356815c3fac1026b6dec5df3124afbadb485c9ba5a3e3398a04b7ba8560205260406000209350600391506138aa565b601083161561310b5760048101546000527fe58769b32a1beaf1ea27375a44095a0d1fb664ce2dd358e7fcbfb78c26a1934460205260406000209350600491506138aa565b60208316156131505760058101546000527f0eb01ebfc9ed27500cd4dfc979272d1f0913cc9f66540d7e8005811109e1cf2d60205260406000209350600591506138aa565b60408316156131955760068101546000527f887c22bd8750d34016ac3c66b5ff102dacdd73f6b014e710b51e8022af9a196860205260406000209350600691506138aa565b60808316156131da5760078101546000527fffd70157e48063fc33c97a050f7f640233bf646cc98d9524c6b92bcf3ab56f8360205260406000209350600791506138aa565b6101008316156132205760088101546000527f9867cc5f7f196b93bae1e27e6320742445d290f2263827498b54fec539f756af60205260406000209350600891506138aa565b6102008316156132665760098101546000527fcefad4e508c098b9a7e1d8feb19955fb02ba9675585078710969d3440f5054e060205260406000209350600991506138aa565b6104008316156132ac57600a8101546000527ff9dc3e7fe016e050eff260334f18a5d4fe391d82092319f5964f2e2eb7c1c3a560205260406000209350600a91506138aa565b6108008316156132f257600b8101546000527ff8b13a49e282f609c317a833fb8d976d11517c571d1221a265d25af778ecf89260205260406000209350600b91506138aa565b61100083161561333857600c8101546000527f3490c6ceeb450aecdc82e28293031d10c7d73bf85e57bf041a97360aa2c5d99c60205260406000209350600c91506138aa565b61200083161561337e57600d8101546000527fc1df82d9c4b87413eae2ef048f94b4d3554cea73d92b0f7af96e0271c691e2bb60205260406000209350600d91506138aa565b6140008316156133c457600e8101546000527f5c67add7c6caf302256adedf7ab114da0acfe870d449a3a489f781d659e8becc60205260406000209350600e91506138aa565b61800083161561340a57600f8101546000527fda7bce9f4e8618b6bd2f4132ce798cdc7a60e7e1460a7299e3c6342a579626d260205260406000209350600f91506138aa565b620100008316156134515760108101546000527f2733e50f526ec2fa19a22b31e8ed50f23cd1fdf94c9154ed3a7609a2f1ff981f60205260406000209350601091506138aa565b620200008316156134985760118101546000527fe1d3b5c807b281e4683cc6d6315cf95b9ade8641defcb32372f1c126e398ef7a60205260406000209350601191506138aa565b620400008316156134df5760128101546000527f5a2dce0a8a7f68bb74560f8f71837c2c2ebbcbf7fffb42ae1896f13f7c7479a060205260406000209350601291506138aa565b620800008316156135265760138101546000527fb46a28b6f55540f89444f63de0378e3d121be09e06cc9ded1c20e65876d36aa060205260406000209350601391506138aa565b6210000083161561356d5760148101546000527fc65e9645644786b620e2dd2ad648ddfcbf4a7e5b1a3a4ecfe7f64667a3f0b7e260205260406000209350601491506138aa565b622000008316156135b45760158101546000527ff4418588ed35a2458cffeb39b93d26f18d2ab13bdce6aee58e7b99359ec2dfd960205260406000209350601591506138aa565b624000008316156135fb5760168101546000527f5a9c16dc00d6ef18b7933a6f8dc65ccb55667138776f7dea101070dc8796e37760205260406000209350601691506138aa565b628000008316156136425760178101546000527f4df84f40ae0c8229d0d6069e5c8f39a7c299677a09d367fc7b05e3bc380ee65260205260406000209350601791506138aa565b630100000083161561368a5760188101546000527fcdc72595f74c7b1043d0e1ffbab734648c838dfb0527d971b602bc216c9619ef60205260406000209350601891506138aa565b63020000008316156136d25760198101546000527f0abf5ac974a1ed57f4050aa510dd9c74f508277b39d7973bb2dfccc5eeb0618d60205260406000209350601991506138aa565b630400000083161561371a57601a8101546000527fb8cd74046ff337f0a7bf2c8e03e10f642c1886798d71806ab1e888d9e5ee87d060205260406000209350601a91506138aa565b630800000083161561376257601b8101546000527f838c5655cb21c6cb83313b5a631175dff4963772cce9108188b34ac87c81c41e60205260406000209350601b91506138aa565b63100000008316156137aa57601c8101546000527f662ee4dd2dd7b2bc707961b1e646c4047669dcb6584f0d8d770daf5d7e7deb2e60205260406000209350601c91506138aa565b63200000008316156137f257601d8101546000527f388ab20e2573d171a88108e79d820e98f26c0b84aa8b2f4aa4968dbb818ea32260205260406000209350601d91506138aa565b634000000083161561383a57601e8101546000527f93237c50ba75ee485f4c22adf2f741400bdf8d6a9cc7df7ecae576221665d73560205260406000209350601e91506138aa565b638000000083161561388257601f8101546000527f8448818bb4ae4562849e949e17ac16e0be16688e156b5cf15e098c627c0056a960205260406000209350601f91506138aa565b7f27ae5ba08d7291c96c8cbddcc148bf48a6d68c7974b94356f53754ef6171d7579350602091505b601e821161434c576001821015613908576002831680156138d6576001820154600052846020526138ff565b846000527fad3228b676f7d3cd4284a5443f17f1962b36e491b30a40b2405849e597ba5fb56020525b50604060002093505b600282101561395e5760048316801561392c57600282015460005284602052613955565b846000527fb4c11951957c6f8f642c4af61cd6b24640fec6dc7fc607ee8206a99e92410d306020525b50604060002093505b60038210156139b457600883168015613982576003820154600052846020526139ab565b846000527f21ddb9a356815c3fac1026b6dec5df3124afbadb485c9ba5a3e3398a04b7ba856020525b50604060002093505b6004821015613a0a576010831680156139d857600482015460005284602052613a01565b846000527fe58769b32a1beaf1ea27375a44095a0d1fb664ce2dd358e7fcbfb78c26a193446020525b50604060002093505b6005821015613a6057602083168015613a2e57600582015460005284602052613a57565b846000527f0eb01ebfc9ed27500cd4dfc979272d1f0913cc9f66540d7e8005811109e1cf2d6020525b50604060002093505b6006821015613ab657604083168015613a8457600682015460005284602052613aad565b846000527f887c22bd8750d34016ac3c66b5ff102dacdd73f6b014e710b51e8022af9a19686020525b50604060002093505b6007821015613b0c57608083168015613ada57600782015460005284602052613b03565b846000527fffd70157e48063fc33c97a050f7f640233bf646cc98d9524c6b92bcf3ab56f836020525b50604060002093505b6008821015613b635761010083168015613b3157600882015460005284602052613b5a565b846000527f9867cc5f7f196b93bae1e27e6320742445d290f2263827498b54fec539f756af6020525b50604060002093505b6009821015613bba5761020083168015613b8857600982015460005284602052613bb1565b846000527fcefad4e508c098b9a7e1d8feb19955fb02ba9675585078710969d3440f5054e06020525b50604060002093505b600a821015613c115761040083168015613bdf57600a82015460005284602052613c08565b846000527ff9dc3e7fe016e050eff260334f18a5d4fe391d82092319f5964f2e2eb7c1c3a56020525b50604060002093505b600b821015613c685761080083168015613c3657600b82015460005284602052613c5f565b846000527ff8b13a49e282f609c317a833fb8d976d11517c571d1221a265d25af778ecf8926020525b50604060002093505b600c821015613cbf5761100083168015613c8d57600c82015460005284602052613cb6565b846000527f3490c6ceeb450aecdc82e28293031d10c7d73bf85e57bf041a97360aa2c5d99c6020525b50604060002093505b600d821015613d165761200083168015613ce457600d82015460005284602052613d0d565b846000527fc1df82d9c4b87413eae2ef048f94b4d3554cea73d92b0f7af96e0271c691e2bb6020525b50604060002093505b600e821015613d6d5761400083168015613d3b57600e82015460005284602052613d64565b846000527f5c67add7c6caf302256adedf7ab114da0acfe870d449a3a489f781d659e8becc6020525b50604060002093505b600f821015613dc45761800083168015613d9257600f82015460005284602052613dbb565b846000527fda7bce9f4e8618b6bd2f4132ce798cdc7a60e7e1460a7299e3c6342a579626d26020525b50604060002093505b6010821015613e1c576201000083168015613dea57601082015460005284602052613e13565b846000527f2733e50f526ec2fa19a22b31e8ed50f23cd1fdf94c9154ed3a7609a2f1ff981f6020525b50604060002093505b6011821015613e74576202000083168015613e4257601182015460005284602052613e6b565b846000527fe1d3b5c807b281e4683cc6d6315cf95b9ade8641defcb32372f1c126e398ef7a6020525b50604060002093505b6012821015613ecc576204000083168015613e9a57601282015460005284602052613ec3565b846000527f5a2dce0a8a7f68bb74560f8f71837c2c2ebbcbf7fffb42ae1896f13f7c7479a06020525b50604060002093505b6013821015613f24576208000083168015613ef257601382015460005284602052613f1b565b846000527fb46a28b6f55540f89444f63de0378e3d121be09e06cc9ded1c20e65876d36aa06020525b50604060002093505b6014821015613f7c576210000083168015613f4a57601482015460005284602052613f73565b846000527fc65e9645644786b620e2dd2ad648ddfcbf4a7e5b1a3a4ecfe7f64667a3f0b7e26020525b50604060002093505b6015821015613fd4576220000083168015613fa257601582015460005284602052613fcb565b846000527ff4418588ed35a2458cffeb39b93d26f18d2ab13bdce6aee58e7b99359ec2dfd96020525b50604060002093505b601682101561402c576240000083168015613ffa57601682015460005284602052614023565b846000527f5a9c16dc00d6ef18b7933a6f8dc65ccb55667138776f7dea101070dc8796e3776020525b50604060002093505b60178210156140845762800000831680156140525760178201546000528460205261407b565b846000527f4df84f40ae0c8229d0d6069e5c8f39a7c299677a09d367fc7b05e3bc380ee6526020525b50604060002093505b60188210156140dd576301000000831680156140ab576018820154600052846020526140d4565b846000527fcdc72595f74c7b1043d0e1ffbab734648c838dfb0527d971b602bc216c9619ef6020525b50604060002093505b6019821015614136576302000000831680156141045760198201546000528460205261412d565b846000527f0abf5ac974a1ed57f4050aa510dd9c74f508277b39d7973bb2dfccc5eeb0618d6020525b50604060002093505b601a82101561418f5763040000008316801561415d57601a82015460005284602052614186565b846000527fb8cd74046ff337f0a7bf2c8e03e10f642c1886798d71806ab1e888d9e5ee87d06020525b50604060002093505b601b8210156141e8576308000000831680156141b657601b820154600052846020526141df565b846000527f838c5655cb21c6cb83313b5a631175dff4963772cce9108188b34ac87c81c41e6020525b50604060002093505b601c8210156142415763100000008316801561420f57601c82015460005284602052614238565b846000527f662ee4dd2dd7b2bc707961b1e646c4047669dcb6584f0d8d770daf5d7e7deb2e6020525b50604060002093505b601d82101561429a5763200000008316801561426857601d82015460005284602052614291565b846000527f388ab20e2573d171a88108e79d820e98f26c0b84aa8b2f4aa4968dbb818ea3226020525b50604060002093505b601e8210156142f3576340000000831680156142c157601e820154600052846020526142ea565b846000527f93237c50ba75ee485f4c22adf2f741400bdf8d6a9cc7df7ecae576221665d7356020525b50604060002093505b601f82101561434c5763800000008316801561431a57601f82015460005284602052614343565b846000527f8448818bb4ae4562849e949e17ac16e0be16688e156b5cf15e098c627c0056a96020525b50604060002093505b505050919050565b6040805160208082018890528183018790526001600160a01b03861660608084019190915283518084039091018152608083018085528151918301919091206104809093019093526000926143c292918590828261040080828437600092019190915250879150614a949050565b9050868114610d73576040517ee587d20000000000000000000000000000000000000000000000000000000081526004810182905260248101889052604401610cbd565b600061eeee614418602084018461503f565b6001600160a01b031614905080801561444b575061eeee61443f606084016040850161503f565b6001600160a01b031614155b801561447057506000614464606084016040850161503f565b6001600160a01b031614155b156144c357614485606083016040840161503f565b6040517ff41f6def0000000000000000000000000000000000000000000000000000000081526001600160a01b039091166004820152602401610cbd565b62030d406144d7604084016020850161537d565b63ffffffff161080156144e8575080155b15611208576144fd604083016020840161537d565b6040517f555d0f1000000000000000000000000000000000000000000000000000000000815263ffffffff909116600482015262030d406024820152604401610cbd565b6000366014336001600160a01b037f00000000000000000000000000000000000000000000000000000000000000001614801561457e5750808210155b156145ae576000366145908385615245565b61459b92829061549b565b6145a4916154c5565b60601c9250505090565b339250505090565b600080602060008451602086016000885af1806145d9576040513d6000823e3d81fd5b50506000513d915081156145f15780600114156145fe565b6001600160a01b0384163b155b15610b39576040517f5274afe70000000000000000000000000000000000000000000000000000000081526001600160a01b0385166004820152602401610cbd565b614648614e9b565b60008360200180516146599061526e565b908190529050600161466d602060026155f1565b6146779190615245565b8111156146b0576040517f8eab04bb00000000000000000000000000000000000000000000000000000000815260040160405180910390fd5b60005b602081101561474557816001166001036146ec578451849082602081106146dc576146dc615258565b6020020152508391506109749050565b845181602081106146ff576146ff615258565b60200201518460405160200161471f929190918252602082015260400190565b60408051601f1981840301815291905280516020909101209350600191821c91016146b3565b506040517f8eab04bb00000000000000000000000000000000000000000000000000000000815260040160405180910390fd5b604080516001600160a01b038416602482015260448082018490528251808303909101815260649091019091526020810180517bffffffffffffffffffffffffffffffffffffffffffffffffffffffff167f095ea7b3000000000000000000000000000000000000000000000000000000001790526147f78482614de2565b610b39576040516001600160a01b0384811660248301526000604483015261482c91869182169063095ea7b3906064016121fd565b610b3984826145b6565b60008615614873576040517fd7468c3200000000000000000000000000000000000000000000000000000000815260048101889052602401610cbd565b6001600160a01b03851661eeee1480159061488d57508315155b1561497f576148bd857f000000000000000000000000000000000000000000000000000000000000000086614778565b7f00000000000000000000000000000000000000000000000000000000000000006001600160a01b031663540abf738685606001516148f93090565b60408089015181516020810183526000815291517fffffffff0000000000000000000000000000000000000000000000000000000060e088901b168152614948959493928c92916004016155fd565b600060405180830381600087803b15801561496257600080fd5b505af1158015614976573d6000803e3d6000fd5b50505050614982565b50825b6001600160a01b037f000000000000000000000000000000000000000000000000000000000000000016633dbb202b8230856040516024016149c4919061564f565b60408051601f198184030181529181526020820180517bffffffffffffffffffffffffffffffffffffffffffffffffffffffff167f69d31fdd00000000000000000000000000000000000000000000000000000000179052517fffffffff0000000000000000000000000000000000000000000000000000000060e086901b168152614a59929190620493e09060040161569b565b6000604051808303818588803b158015614a7257600080fd5b505af1158015614a86573d6000803e3d6000fd5b505050505050505050505050565b6020600582811b8216948552835194820394909452604060008181206002851615871b808503919091528386015190528181206004851615871b808503919091528286015190528181206008851615871b80850391909152606086015190528181206010851615871b8085039190915260808087015190915282822084861615881b8086039190915260a0870151905282822083861615881b8086039190915260c0870151905282822090851615871b8085039190915260e0860151905281812061010080861615881b80860392909252860151905281812061020080861615881b80860392909252610120870151909152828220610400861615881b808603919091526101408701519052828220610800861615881b808603919091526101608701519052828220611000861615881b808603919091526101808701519052828220612000861615881b808603919091526101a08701519052828220614000861615881b808603919091526101c08701519052828220618000861615881b808603919091526101e0870151905282822062010000861615881b8086039190915290860151905281812062020000851615871b80850391909152610220860151905281812062040000851615871b80850391909152610240860151905281812062080000851615871b80850391909152610260860151905281812062100000851615871b80850391909152610280860151905281812062200000851615871b808503919091526102a0860151905281812062400000851615871b808503919091526102c0860151905281812062800000851615871b808503919091526102e086015190528181206301000000851615871b8085039190915261030086015190528181206302000000851615871b8085039190915261032086015190528181206304000000851615871b8085039190915261034086015190528181206308000000851615871b8085039190915261036086015190528181206310000000851615871b8085039190915261038086015190528181206320000000851615871b808503919091526103a086015190528181206340000000851615871b808503919091526103c0860151905281812063800000009094161590951b91829003929092526103e090920151909152902090565b6000806000806020600086516020880160008a5af192503d91506000519050828015614e2757508115614e185780600114614e27565b6000866001600160a01b03163b115b9695505050505050565b6040805160808101825260008082526020820152908101614e50614e9b565b8152602001600081525090565b8260208101928215614e8b579160200282015b82811115614e8b578251825591602001919060010190614e70565b50614e97929150614eae565b5090565b6040518060400160405280614e50614ec3565b5b80821115614e975760008155600101614eaf565b6040518061040001604052806020906020820280368337509192915050565b600060208284031215614ef457600080fd5b81357fffffffff0000000000000000000000000000000000000000000000000000000081168114612ca157600080fd5b60006104a08284031215614f3757600080fd5b50919050565b60008060208385031215614f5057600080fd5b823567ffffffffffffffff80821115614f6857600080fd5b818501915085601f830112614f7c57600080fd5b813581811115614f8b57600080fd5b8660208260071b8501011115614fa057600080fd5b60209290920196919550909350505050565b600060808284031215614f3757600080fd5b600060808284031215614fd657600080fd5b612ca18383614fb2565b6001600160a01b0381168114610a2e57600080fd5b6000806000806080858703121561500b57600080fd5b84359350602085013561501d81614fe0565b925060408501359150606085013561503481614fe0565b939692955090935050565b60006020828403121561505157600080fd5b8135612ca181614fe0565b60006020828403121561506e57600080fd5b813564ffffffffff81168114612ca157600080fd5b815167ffffffffffffffff1681526020808301519082015260408101610974565b600080602083850312156150b757600080fd5b823567ffffffffffffffff808211156150cf57600080fd5b818501915085601f8301126150e357600080fd5b8135818111156150f257600080fd5b8660208260051b8501011115614fa057600080fd5b815167ffffffffffffffff1681526020808301518183015260408084015180516104808501939260009086015b84821015615152578251815291840191600191909101908401615134565b5050500151610440830152606092909201516104609091015290565b6000806020838503121561518157600080fd5b823567ffffffffffffffff8082111561519957600080fd5b818501915085601f8301126151ad57600080fd5b8135818111156151bc57600080fd5b8660206104a083028501011115614fa057600080fd5b634e487b7160e01b600052602160045260246000fd5b60208101600483106151fc576151fc6151d2565b91905290565b60208101600283106151fc576151fc6151d2565b60006020828403121561522857600080fd5b5035919050565b634e487b7160e01b600052601160045260246000fd5b818103818111156109745761097461522f565b634e487b7160e01b600052603260045260246000fd5b600060001982036152815761528161522f565b5060010190565b6000826152a557634e487b7160e01b600052601260045260246000fd5b500490565b6000602082840312156152bc57600080fd5b8151612ca181614fe0565b808201808211156109745761097461522f565b6000602082840312156152ec57600080fd5b813567ffffffffffffffff81168114612ca157600080fd5b6040808252810183905260008460608301825b8681101561534757823561532a81614fe0565b6001600160a01b0316825260209283019290910190600101615317565b5080925050506001600160a01b0383166020830152949350505050565b60006020828403121561537657600080fd5b5051919050565b60006020828403121561538f57600080fd5b813563ffffffff81168114612ca157600080fd5b6000815180845260005b818110156153c9576020818501810151868301820152016153ad565b506000602082860101526020601f19601f83011685010191505092915050565b60006001600160a01b03808a168352886020840152876040840152808716606084015285608084015280851660a08401525060e060c083015261542f60e08301846153a3565b9998505050505050505050565b634e487b7160e01b600052600160045260246000fd5b60006020828403121561546457600080fd5b81518015158114612ca157600080fd5b600067ffffffffffffffff8083168181036154915761549161522f565b6001019392505050565b600080858511156154ab57600080fd5b838611156154b857600080fd5b5050820193919092039150565b7fffffffffffffffffffffffffffffffffffffffff00000000000000000000000081358181169160148510156155055780818660140360031b1b83161692505b505092915050565b600181815b8085111561554857816000190482111561552e5761552e61522f565b8085161561553b57918102915b93841c9390800290615512565b509250929050565b60008261555f57506001610974565b8161556c57506000610974565b8160018114615582576002811461558c576155a8565b6001915050610974565b60ff84111561559d5761559d61522f565b50506001821b610974565b5060208310610133831016604e8410600b84101617156155cb575081810a610974565b6155d5838361550d565b80600019048211156155e9576155e961522f565b029392505050565b6000612ca18383615550565b60006001600160a01b038089168352808816602084015280871660408401525084606083015263ffffffff8416608083015260c060a083015261564360c08301846153a3565b98975050505050505050565b60006080820190506001600160a01b0383511682526020830151602083015260408301516156946040840182805167ffffffffffffffff168252602090810151910152565b5092915050565b6001600160a01b03841681526060602082015260006156bd60608301856153a3565b905063ffffffff8316604083015294935050505056fea26469706673582212206ca1edf7fda30c95e98cdf08ea8df70b3d5ab50126c02a93de2b5a3f71af622d64736f6c63430008170033",
	"deployedBytecode": "0x6080604052600436106102025760003560e01c80637da0a8771161011d578063bf557aee116100b0578063cdfceeba1161007f578063f434c91411610064578063f434c914146107c1578063fc8fa43d146107f5578063fe4b84df1461082957600080fd5b8063cdfceeba1461078c578063d5f39488146107a157600080fd5b8063bf557aee146106c4578063c185412914610709578063c19d93fb14610729578063c6525f2c1461074b57600080fd5b806392ee1ea7116100ec57806392ee1ea71461065a5780639e6d7d4314610671578063b59ef50f14610691578063b71c1179146106b157600080fd5b80637da0a877146104be5780637de6fba2146104f1578063802c8fa0146105f957806388bc2ef31461062657600080fd5b80633fafa1271161019557806369ce22331161016457806369ce2233146103f257806369d31fdd146104125780636d9e384b14610425578063754515591461049e57600080fd5b80633fafa12714610346578063551ebbf014610365578063572b6c05146103855780636284386a146103d257600080fd5b80632241dc52116101d15780632241dc52146102c05780632847f1f3146102d357806338eb2044146103075780633a5de07d1461031a57600080fd5b806301ffc9a71461020e5780630f6482141461024357806311cda415146102655780631d831d5c1461028c57600080fd5b3661020957005b600080fd5b34801561021a57600080fd5b5061022e610229366004614ee2565b610849565b60405190151581526020015b60405180910390f35b34801561024f57600080fd5b5061026361025e366004614f24565b61097a565b005b34801561027157600080fd5b50305b6040516001600160a01b03909116815260200161023a565b34801561029857600080fd5b506102747f0000000000000000000000004d0edd347fb1fa21589c1e109b3474924be8763681565b6102636102ce366004614f3d565b610a31565b3480156102df57600080fd5b506102747f000000000000000000000000fbb0621e0b23b5478b630bd55a5f21f67730b0f181565b610263610315366004614fc4565b610b3f565b34801561032657600080fd5b5061033162030d4081565b60405163ffffffff909116815260200161023a565b34801561035257600080fd5b506002545b60405190815260200161023a565b34801561037157600080fd5b50610263610380366004614ff5565b610b49565b34801561039157600080fd5b5061022e6103a036600461503f565b7f000000000000000000000000c29d6995ab3b0df4650ad643adeac55e7acbb5666001600160a01b0390811691161490565b3480156103de57600080fd5b506102636103ed36600461505c565b610d7c565b3480156103fe57600080fd5b5061026361040d36600461503f565b610fcf565b610263610420366004614fc4565b61106e565b34801561043157600080fd5b5061049161044036600461503f565b6040805180820190915260008082526020820152506001600160a01b03166000908152600460209081526040918290208251808401909352805467ffffffffffffffff168352600101549082015290565b60405161023a9190615083565b3480156104aa57600080fd5b506102636104b93660046150a4565b61120c565b3480156104ca57600080fd5b507f000000000000000000000000c29d6995ab3b0df4650ad643adeac55e7acbb566610274565b3480156104fd57600080fd5b506105a461050c36600461503f565b6040805160a0808201835260008083526020808401829052838501829052606080850183905260809485018390526001600160a01b039687168352600682529185902085519384018652805460ff8082161515865261010082041615159285019290925262010000820463ffffffff169584019590955266010000000000009004909416938101939093526001909101549082015290565b60405161023a9190600060a08201905082511515825260208301511515602083015263ffffffff60408401511660408301526001600160a01b0360608401511660608301526080830151608083015292915050565b34801561060557600080fd5b5061061961061436600461503f565b6113a7565b60405161023a9190615107565b34801561063257600080fd5b506102747f0000000000000000000000000061e516886a0540f63157f112c0588ee0651dcf81565b34801561066657600080fd5b50610331620493e081565b34801561067d57600080fd5b5061035761068c36600461503f565b611447565b34801561069d57600080fd5b506102636106ac366004614f24565b611477565b6102636106bf36600461503f565b61159d565b3480156106d057600080fd5b5061022e6106df36600461503f565b6001600160a01b039081166000908152600660205260409020546601000000000000900416151590565b34801561071557600080fd5b5061026361072436600461516e565b6116e0565b34801561073557600080fd5b5061073e611719565b60405161023a91906151e8565b34801561075757600080fd5b5061077f7f000000000000000000000000000000000000000000000000000000000000000181565b60405161023a9190615202565b34801561079857600080fd5b50610357611762565b3480156107ad57600080fd5b50600054610274906001600160a01b031681565b3480156107cd57600080fd5b506102747f00000000000000000000000004fd6913d6c32d8c216e153a43c04b1857a7793d81565b34801561080157600080fd5b506102747f00000000000000000000000058cc85b8d04ea49cc6dbd3cbffd00b4b8d6cb3ef81565b34801561083557600080fd5b50610263610844366004615216565b6117b6565b60007fffffffff0000000000000000000000000000000000000000000000000000000082167f18a5af270000000000000000000000000000000000000000000000000000000014806108dc57507fffffffff0000000000000000000000000000000000000000000000000000000082167f583ff5cc00000000000000000000000000000000000000000000000000000000145b8061092857507fffffffff0000000000000000000000000000000000000000000000000000000082167ff434c91400000000000000000000000000000000000000000000000000000000145b8061097457507f01ffc9a7000000000000000000000000000000000000000000000000000000007fffffffff000000000000000000000000000000000000000000000000000000008316145b92915050565b6109b2606082013561098f602084018461503f565b60808401356109a4606086016040870161503f565b602086013560a08701611945565b6080810135600560006109c8602085018561503f565b6001600160a01b03166001600160a01b0316815260200190815260200160002060010160008282546109fa9190615245565b90915550610a2e9050610a10602083018361503f565b608083013560608401803590610a29906040870161503f565b611b76565b50565b6000805b82811015610aec57600060056000868685818110610a5557610a55615258565b610a6b926020608090920201908101915061503f565b6001600160a01b03168152602081019190915260400160009081209150858584818110610a9a57610a9a615258565b9050608002016040016020810190610ab2919061503f565b6001600160a01b0316148015610ad057506022810154602382015414155b15610ae35782610adf8161526e565b9350505b50600101610a35565b5060005b82811015610b3957610b31848483818110610b0d57610b0d615258565b90506080020160008411610b22576000611d1f565b610b2c8434615288565b611d1f565b600101610af0565b50505050565b610a2e8134611d1f565b6001600160a01b038316610b89576040517f8d3329cd00000000000000000000000000000000000000000000000000000000815260040160405180910390fd5b60007f0000000000000000000000004d0edd347fb1fa21589c1e109b3474924be876366001600160a01b031663ea78803f610bc360025490565b6040518263ffffffff1660e01b8152600401610be191815260200190565b602060405180830381865afa158015610bfe573d6000803e3d6000fd5b505050506040513d601f19601f82011682018060405250810190610c2291906152aa565b90506001600160a01b038116610c64576040517fcaa06d2000000000000000000000000000000000000000000000000000000000815260040160405180910390fd5b6001600160a01b03821660009081526006602052604090205460ff16610cc6576040517f04fdbe060000000000000000000000000000000000000000000000000000000081526001600160a01b03831660048201526024015b60405180910390fd5b6000610cd0611719565b90506003816003811115610ce657610ce66151d2565b1480610d0357506002816003811115610d0157610d016151d2565b145b15610d3a576040517fb10f8cca00000000000000000000000000000000000000000000000000000000815260040160405180910390fd5b610d57610d456121b9565b6001600160a01b0384169030896121c8565b6000610d6583888688612244565b9050610d7387858389612432565b50505050505050565b6000610d86611719565b90506003816003811115610d9c57610d9c6151d2565b1480610db957506002816003811115610db757610db76151d2565b145b15610df0576040517fb10f8cca00000000000000000000000000000000000000000000000000000000815260040160405180910390fd5b6000610dfb60025490565b9050610ef87f0000000000000000000000000061e516886a0540f63157f112c0588ee0651dcf6001600160a01b031663293c49996040518163ffffffff1660e01b8152600401602060405180830381865afa158015610e5e573d6000803e3d6000fd5b505050506040513d601f19601f82011682018060405250810190610e8291906152aa565b6001600160a01b0316636352211e836040518263ffffffff1660e01b8152600401610eaf91815260200190565b602060405180830381865afa158015610ecc573d6000803e3d6000fd5b505050506040513d601f19601f82011682018060405250810190610ef091906152aa565b82601e6125bc565b6000610f0762127500426152c7565b905064ffffffffff841615801590610f255750808464ffffffffff16105b15610f6c576040517f044691ac00000000000000000000000000000000000000000000000000000000815264ffffffffff8516600482015260248101829052604401610cbd565b64ffffffffff84166001557f455efa76af2a8686dc0dd3041bda89ece5ba4691277d525e2161003bbca8b24584610fa16121b9565b6040805164ffffffffff90931683526001600160a01b0390911660208301520160405180910390a150505050565b60007f00000000000000000000000000000000000000000000000000000000000000016001811115611003576110036151d2565b1461105c577f00000000000000000000000000000000000000000000000000000000000000016040517fb039c395000000000000000000000000000000000000000000000000000000008152600401610cbd9190615202565b610a2e8161106983611447565b612706565b61107e6110796121b9565b612aff565b6110c85761108a6121b9565b6040517f36183c8f0000000000000000000000000000000000000000000000000000000081526001600160a01b039091166004820152602401610cbd565b60006004816110da602085018561503f565b6001600160a01b0316815260208101919091526040908101600020805490925067ffffffffffffffff169061111590606085019085016152da565b67ffffffffffffffff1611801561114557506003611131611719565b6003811115611142576111426151d2565b14155b156112085761115a60608301604084016152da565b815467ffffffffffffffff191667ffffffffffffffff919091161781556060820135600182015561118e602083018361503f565b6001600160a01b03167fc69d3412489554fb7820c4c2784cb644b6c79bfc117444b93977d3d33a9b8eac6111c860608501604086016152da565b60608501356111d56121b9565b6040805167ffffffffffffffff909416845260208401929092526001600160a01b03169082015260600160405180910390a25b5050565b600061121760025490565b905061127a7f0000000000000000000000000061e516886a0540f63157f112c0588ee0651dcf6001600160a01b031663293c49996040518163ffffffff1660e01b8152600401602060405180830381865afa158015610e5e573d6000803e3d6000fd5b60005b8281101561135f5760006006600086868581811061129d5761129d615258565b90506020020160208101906112b2919061503f565b6001600160a01b031681526020810191909152604001600090812080547fffffffffffffffffffffffffffffffffffffffffffffffffffffffffffffff00169215159290921790915560019060069086868581811061131357611313615258565b9050602002016020810190611328919061503f565b6001600160a01b03168152602081019190915260400160002080549115156101000261ff001990921691909117905560010161127d565b507f8021bce60b20a9afb57085869a3552e0ee5b272b868df894fb30c5e90e74c072838361138b6121b9565b60405161139a93929190615304565b60405180910390a1505050565b6113af614e31565b6001600160a01b0382166000908152600560209081526040918290208251608081018452815467ffffffffffffffff1681526001820154818401528351610440810180865291949293858401939192600286019284929083019184919082845b81548152602001906001019080831161140f575050509183525050602091820154908201529082526023929092015491015292915050565b6001600160a01b03811660009081526005602052604081206001015461146d8330612bdb565b6109749190615245565b6114af606082013561148c602084018461503f565b60808401356114a1606086016040870161503f565b602086013560a08701612ca8565b7faaca6f6829d340365b5e6599e0d513cbb4602b94f58ccf16ac77d8d3ae7139ef6114e0606083016040840161503f565b6114ed602084018461503f565b60608401356080850135602086013560017f00000000000000000000000000000000000000000000000000000000000000016001811115611530576115306151d2565b1461153c57600061153f565b60015b6115476121b9565b604080516001600160a01b039889168152968816602088015286019490945260608501929092526080840152151560a083015290911660c082015260e00160405180910390a1610a2e610a10602083018361503f565b6001600160a01b03808216600090815260066020908152604091829020825160a081018452815460ff808216151583526101008204161580159483019490945263ffffffff620100008204169482019490945266010000000000009093049093166060830152600190920154608082015290611650576040517f4bba81f00000000000000000000000000000000000000000000000000000000081526001600160a01b0383166004820152602401610cbd565b60808101516001600160a01b03831660009081526005602052604090206001015410156116d5576001600160a01b0382166000908152600560205260409081902060010154608083015191517fc3e11b79000000000000000000000000000000000000000000000000000000008152610cbd9290600401918252602082015260400190565b611208348383612d7e565b60005b818110156117145761170c83838381811061170057611700615258565b90506104a00201611477565b6001016116e3565b505050565b60015460009080820361172e57600091505090565b61173b6212750082615245565b42101561174a57600191505090565b8042101561175a57600291505090565b600391505090565b600046600181900361177657600a91505090565b80600a0361178657600191505090565b8062aa36a70361179a5762aa37dc91505090565b8062aa37dc036117ae5762aa36a791505090565b600091505090565b7ff0c57e16840df040f15088dc2f81fe391c3923bec73e23a9662efc9c229c6a00805468010000000000000000810460ff16159067ffffffffffffffff166000811580156118015750825b905060008267ffffffffffffffff16600114801561181e5750303b155b90508115801561182c575080155b15611863576040517ff92ee8a900000000000000000000000000000000000000000000000000000000815260040160405180910390fd5b845467ffffffffffffffff1916600117855583156118ad5784547fffffffffffffffffffffffffffffffffffffffffffffff00ffffffffffffffff16680100000000000000001785555b6002869055600080547fffffffffffffffffffffffff00000000000000000000000000000000000000001633179055831561193d5784547fffffffffffffffffffffffffffffffffffffffffffffff00ffffffffffffffff168555604051600181527fc7f505b2f371ae2175ee4913f4499e1f2633a7b5936321eed1cdaeb6115181d29060200160405180910390a15b505050505050565b600061194f611719565b90506003816003811115611965576119656151d2565b1415801561198557506002816003811115611982576119826151d2565b14155b80156119af57506001600160a01b038616600090815260066020526040902054610100900460ff16155b156119f1576040517f4bba81f00000000000000000000000000000000000000000000000000000000081526001600160a01b0387166004820152602401610cbd565b6001600160a01b0386166000908152600560205260409020602381015415801590611a2c57508360018260230154611a299190615245565b10155b15611a75576040517fa4e6bcec0000000000000000000000000000000000000000000000000000000081526001600160a01b038816600482015260248101859052604401610cbd565b604080516001600160a01b03891660208201526000910160408051808303601f19018152918152815160209283012060601c60008181526003845282812060088a901c8252909352912054909150600160ff87161b1615611b14576040517fa4e6bcec0000000000000000000000000000000000000000000000000000000081526001600160a01b038916600482015260248101869052604401610cbd565b6001600160a01b039081166000908152600360209081526040808320600889901c845282528083208054600160ff8b161b179055928a1682526005905220611b6c90611b6290600201612f9e565b8988888888614354565b5050505050505050565b60017f00000000000000000000000000000000000000000000000000000000000000016001811115611baa57611baa6151d2565b148015611bb657508215155b15611bc557611bc58484612706565b6000611bd060025490565b6040517f5dd8f6aa000000000000000000000000000000000000000000000000000000008152600481018290529091507f0000000000000000000000000061e516886a0540f63157f112c0588ee0651dcf6001600160a01b031690635dd8f6aa90602401602060405180830381865afa158015611c51573d6000803e3d6000fd5b505050506040513d601f19601f82011682018060405250810190611c7591906152aa565b6040517fc7fb92de00000000000000000000000000000000000000000000000000000000815260048101839052602481018590526001600160a01b03848116604483015260a06064830152600060a483018190526084830152919091169063c7fb92de9060c4016020604051808303816000875af1158015611cfb573d6000803e3d6000fd5b505050506040513d601f19601f8201168201806040525081019061193d9190615364565b6000611d2e602084018461503f565b6001600160a01b03808216600090815260066020908152604091829020825160a081018452815460ff808216151583526101008204161580159483019490945263ffffffff6201000082041694820194909452660100000000000090930490931660608301526001909201546080820152919250611de3576040517f4bba81f00000000000000000000000000000000000000000000000000000000081526001600160a01b0383166004820152602401610cbd565b611dec84614406565b6000611df760025490565b9050611ef47f0000000000000000000000000061e516886a0540f63157f112c0588ee0651dcf6001600160a01b031663293c49996040518163ffffffff1660e01b8152600401602060405180830381865afa158015611e5a573d6000803e3d6000fd5b505050506040513d601f19601f82011682018060405250810190611e7e91906152aa565b6001600160a01b0316636352211e836040518263ffffffff1660e01b8152600401611eab91815260200190565b602060405180830381865afa158015611ec8573d6000803e3d6000fd5b505050506040513d601f19601f82011682018060405250810190611eec91906152aa565b82601c6125bc565b60608201516001600160a01b031615801590611f355750611f1b606086016040870161503f565b6001600160a01b031682606001516001600160a01b031614155b8015611f5a57506000611f4e606087016040880161503f565b6001600160a01b031614155b8015611f8057506001600160a01b03831660009081526005602052604090206022015415155b15611fd05760608201516040517f1460b5460000000000000000000000000000000000000000000000000000000081526001600160a01b0380861660048301529091166024820152604401610cbd565b6000611fe2606087016040880161503f565b6001600160a01b031614801561201957506001600160a01b0383166000908152600560205260409020602281015460239091015414155b1561202957612029848484612d7e565b6040518060a0016040528060006001600160a01b0316876040016020810190612052919061503f565b6001600160a01b0316141515158152602001600015158152602001866020016020810190612080919061537d565b63ffffffff168152602001600061209d6060890160408a0161503f565b6001600160a01b0316146120c0576120bb606088016040890161503f565b6120c6565b83606001515b6001600160a01b039081168252606097880135602092830152948516600090815260068252604090819020835181549385015192850151998501517fffffffffffffffffffffffffffffffffffffffffffffffffffffffffffff000090941690151561ff0019161761010092151592909202919091177fffffffffffff000000000000000000000000000000000000000000000000ffff166201000063ffffffff909916989098027fffffffffffff0000000000000000000000000000000000000000ffffffffffff16979097176601000000000000919095160293909317855550506080015160019092019190915550565b60006121c3614541565b905090565b6040516001600160a01b038481166024830152838116604483015260648201839052610b399186918216906323b872dd906084015b604051602081830303815290604052915060e01b6020820180517bffffffffffffffffffffffffffffffffffffffffffffffffffffffff83818316178352505050506145b6565b60008061225060025490565b6040517f86202650000000000000000000000000000000000000000000000000000000008152600481018290526001600160a01b0386811660248301529192506000917f0000000000000000000000000061e516886a0540f63157f112c0588ee0651dcf1690638620265090604401602060405180830381865afa1580156122dc573d6000803e3d6000fd5b505050506040513d601f19601f8201168201806040525081019061230091906152aa565b90506001600160a01b038116612354576040517fb61c181f000000000000000000000000000000000000000000000000000000008152600481018390526001600160a01b0386166024820152604401610cbd565b60006123608630612bdb565b604080516020810182526000815290517f13da83170000000000000000000000000000000000000000000000000000000081529192506001600160a01b038416916313da8317916123bf91309188918d918d918d9186916004016153e9565b6020604051808303816000875af11580156123de573d6000803e3d6000fd5b505050506040513d601f19601f820116820180604052508101906124029190615364565b93508061240f8730612bdb565b6124199190615245565b84146124275761242761543c565b505050949350505050565b6040805160208082018790528183018590526001600160a01b03841660608084019190915283518084039091018152608090920190925280519101206000906001600160a01b03851660009081526005602090815260408083208151610440810180845295965090946124db9387936002880192849291830191849182845b8154815260200190600101908083116124b157505050918352505060209182015491015290614640565b8051909150819060028401906124f49082906020614e5d565b50602082015181602001559050508482600101600082825461251691906152c7565b92505081905550856001600160a01b0316846001600160a01b03167f584a41ff082fad99bb6e50c5767c347c762057fe5726539f0a8de49d84549c2385600185602001516125649190615245565b61257087600201612f9e565b8c8b61257a6121b9565b60408051968752602087019590955293850192909252606084015260808301526001600160a01b031660a082015260c00160405180910390a350505050505050565b60006125c66121b9565b9050836001600160a01b0316816001600160a01b0316141580156126ae57506040517f348b684e0000000000000000000000000000000000000000000000000000000081526001600160a01b0382811660048301528581166024830152604482018590526064820184905260016084830181905260a48301527f00000000000000000000000004fd6913d6c32d8c216e153a43c04b1857a7793d169063348b684e9060c401602060405180830381865afa158015612688573d6000803e3d6000fd5b505050506040513d601f19601f820116820180604052508101906126ac9190615452565b155b15610b39576040517f264deeaa0000000000000000000000000000000000000000000000000000000081526001600160a01b038086166004830152821660248201526044810184905260648101839052608401610cbd565b600061271183611447565b905080821115612757576040517f60ec3e710000000000000000000000000000000000000000000000000000000081526004810183905260248101829052604401610cbd565b600061276260025490565b6040517f86202650000000000000000000000000000000000000000000000000000000008152600481018290526001600160a01b0386811660248301529192506000917f0000000000000000000000000061e516886a0540f63157f112c0588ee0651dcf1690638620265090604401602060405180830381865afa1580156127ee573d6000803e3d6000fd5b505050506040513d601f19601f8201168201806040525081019061281291906152aa565b90506001600160a01b038116612866576040517fb61c181f000000000000000000000000000000000000000000000000000000008152600481018390526001600160a01b0386166024820152604401610cbd565b6001600160a01b03851661eeee14612a4f576040517f70a082310000000000000000000000000000000000000000000000000000000081523060048201526000906001600160a01b038716906370a0823190602401602060405180830381865afa1580156128d8573d6000803e3d6000fd5b505050506040513d601f19601f820116820180604052508101906128fc9190615364565b9050612909868387614778565b6040517f9e6eec05000000000000000000000000000000000000000000000000000000008152600481018490526001600160a01b0387811660248301526044820187905260006064830181905260c0608484015260c4830181905260e060a484015260e4830152831690639e6eec059061010401600060405180830381600087803b15801561299757600080fd5b505af11580156129ab573d6000803e3d6000fd5b5050505084816129bb9190615245565b6040517f70a082310000000000000000000000000000000000000000000000000000000081523060048201526001600160a01b038816906370a0823190602401602060405180830381865afa158015612a18573d6000803e3d6000fd5b505050506040513d601f19601f82011682018060405250810190612a3c9190615364565b14612a4957612a4961543c565b50612af8565b6040517f9e6eec05000000000000000000000000000000000000000000000000000000008152600481018390526001600160a01b0386811660248301526044820186905260006064830181905260c0608484015260c4830181905260e060a484015260e4830152821690639e6eec05908690610104016000604051808303818588803b158015612ade57600080fd5b505af1158015612af2573d6000803e3d6000fd5b50505050505b5050505050565b60007f00000000000000000000000058cc85b8d04ea49cc6dbd3cbffd00b4b8d6cb3ef6001600160a01b0316826001600160a01b03161480156109745750306001600160a01b03167f00000000000000000000000058cc85b8d04ea49cc6dbd3cbffd00b4b8d6cb3ef6001600160a01b0316636e296e456040518163ffffffff1660e01b81526004016020604051808303816000875af1158015612ba7573d6000803e3d6000fd5b505050506040513d601f19601f82011682018060405250810190612bcb91906152aa565b6001600160a01b03161492915050565b60007fffffffffffffffffffffffffffffffffffffffffffffffffffffffffffff11126001600160a01b03841601612c1e57506001600160a01b03811631610974565b6040517f70a082310000000000000000000000000000000000000000000000000000000081526001600160a01b0383811660048301528416906370a0823190602401602060405180830381865afa158015612c7d573d6000803e3d6000fd5b505050506040513d601f19601f82011682018060405250810190612ca19190615364565b9392505050565b6001600160a01b0385166000908152600360209081526040808320600886901c8452909152902054600160ff84161b1615612d21576040517fa4e6bcec0000000000000000000000000000000000000000000000000000000081526001600160a01b038616600482015260248101839052604401610cbd565b6001600160a01b0385166000908152600360209081526040808320600886901c845290915290208054600160ff85161b1790556001600160a01b03851660009081526004602052604090206001015461193d908786868686614354565b60608101516001600160a01b0316612dcd576040517f04fdbe060000000000000000000000000000000000000000000000000000000081526001600160a01b0383166004820152602401610cbd565b6000612dd7611719565b90506003816003811115612ded57612ded6151d2565b1480612e0a57506002816003811115612e0857612e086151d2565b145b15612e41576040517fb10f8cca00000000000000000000000000000000000000000000000000000000815260040160405180910390fd5b6001600160a01b03831660009081526005602052604081206001810180549083905581549192909183908290612e809067ffffffffffffffff16615474565b91906101000a81548167ffffffffffffffff021916908367ffffffffffffffff160217905590506000612eb584600201612f9e565b6022850154602386018190559091506000612ed1600183615245565b9050886001600160a01b0316837f47c5615513b0f669da2dd7e3362a34610ca2695d0a0e2da2160cee952eab203c8387612f096121b9565b6040805193845267ffffffffffffffff90921660208401526001600160a01b03169082015260600160405180910390a3600060405180606001604052808a606001516001600160a01b0316815260200187815260200160405180604001604052808867ffffffffffffffff168152602001878152508152509050612f918b838c898d86614836565b5050505050505050505050565b6020810154600090808203612fd557507f27ae5ba08d7291c96c8cbddcc148bf48a6d68c7974b94356f53754ef6171d75792915050565b6000836001831615612ff75780546000526000602052604060002093506138aa565b600283161561303c5760018101546000527fad3228b676f7d3cd4284a5443f17f1962b36e491b30a40b2405849e597ba5fb560205260406000209350600191506138aa565b60048316156130815760028101546000527fb4c11951957c6f8f642c4af61cd6b24640fec6dc7fc607ee8206a99e92410d3060205260406000209350600291506138aa565b60088316156130c65760038101546000527f21ddb9a356815c3fac1026b6dec5df3124afbadb485c9ba5a3e3398a04b7ba8560205260406000209350600391506138aa565b601083161561310b5760048101546000527fe58769b32a1beaf1ea27375a44095a0d1fb664ce2dd358e7fcbfb78c26a1934460205260406000209350600491506138aa565b60208316156131505760058101546000527f0eb01ebfc9ed27500cd4dfc979272d1f0913cc9f66540d7e8005811109e1cf2d60205260406000209350600591506138aa565b60408316156131955760068101546000527f887c22bd8750d34016ac3c66b5ff102dacdd73f6b014e710b51e8022af9a196860205260406000209350600691506138aa565b60808316156131da5760078101546000527fffd70157e48063fc33c97a050f7f640233bf646cc98d9524c6b92bcf3ab56f8360205260406000209350600791506138aa565b6101008316156132205760088101546000527f9867cc5f7f196b93bae1e27e6320742445d290f2263827498b54fec539f756af60205260406000209350600891506138aa565b6102008316156132665760098101546000527fcefad4e508c098b9a7e1d8feb19955fb02ba9675585078710969d3440f5054e060205260406000209350600991506138aa565b6104008316156132ac57600a8101546000527ff9dc3e7fe016e050eff260334f18a5d4fe391d82092319f5964f2e2eb7c1c3a560205260406000209350600a91506138aa565b6108008316156132f257600b8101546000527ff8b13a49e282f609c317a833fb8d976d11517c571d1221a265d25af778ecf89260205260406000209350600b91506138aa565b61100083161561333857600c8101546000527f3490c6ceeb450aecdc82e28293031d10c7d73bf85e57bf041a97360aa2c5d99c60205260406000209350600c91506138aa565b61200083161561337e57600d8101546000527fc1df82d9c4b87413eae2ef048f94b4d3554cea73d92b0f7af96e0271c691e2bb60205260406000209350600d91506138aa565b6140008316156133c457600e8101546000527f5c67add7c6caf302256adedf7ab114da0acfe870d449a3a489f781d659e8becc60205260406000209350600e91506138aa565b61800083161561340a57600f8101546000527fda7bce9f4e8618b6bd2f4132ce798cdc7a60e7e1460a7299e3c6342a579626d260205260406000209350600f91506138aa565b620100008316156134515760108101546000527f2733e50f526ec2fa19a22b31e8ed50f23cd1fdf94c9154ed3a7609a2f1ff981f60205260406000209350601091506138aa565b620200008316156134985760118101546000527fe1d3b5c807b281e4683cc6d6315cf95b9ade8641defcb32372f1c126e398ef7a60205260406000209350601191506138aa565b620400008316156134df5760128101546000527f5a2dce0a8a7f68bb74560f8f71837c2c2ebbcbf7fffb42ae1896f13f7c7479a060205260406000209350601291506138aa565b620800008316156135265760138101546000527fb46a28b6f55540f89444f63de0378e3d121be09e06cc9ded1c20e65876d36aa060205260406000209350601391506138aa565b6210000083161561356d5760148101546000527fc65e9645644786b620e2dd2ad648ddfcbf4a7e5b1a3a4ecfe7f64667a3f0b7e260205260406000209350601491506138aa565b622000008316156135b45760158101546000527ff4418588ed35a2458cffeb39b93d26f18d2ab13bdce6aee58e7b99359ec2dfd960205260406000209350601591506138aa565b624000008316156135fb5760168101546000527f5a9c16dc00d6ef18b7933a6f8dc65ccb55667138776f7dea101070dc8796e37760205260406000209350601691506138aa565b628000008316156136425760178101546000527f4df84f40ae0c8229d0d6069e5c8f39a7c299677a09d367fc7b05e3bc380ee65260205260406000209350601791506138aa565b630100000083161561368a5760188101546000527fcdc72595f74c7b1043d0e1ffbab734648c838dfb0527d971b602bc216c9619ef60205260406000209350601891506138aa565b63020000008316156136d25760198101546000527f0abf5ac974a1ed57f4050aa510dd9c74f508277b39d7973bb2dfccc5eeb0618d60205260406000209350601991506138aa565b630400000083161561371a57601a8101546000527fb8cd74046ff337f0a7bf2c8e03e10f642c1886798d71806ab1e888d9e5ee87d060205260406000209350601a91506138aa565b630800000083161561376257601b8101546000527f838c5655cb21c6cb83313b5a631175dff4963772cce9108188b34ac87c81c41e60205260406000209350601b91506138aa565b63100000008316156137aa57601c8101546000527f662ee4dd2dd7b2bc707961b1e646c4047669dcb6584f0d8d770daf5d7e7deb2e60205260406000209350601c91506138aa565b63200000008316156137f257601d8101546000527f388ab20e2573d171a88108e79d820e98f26c0b84aa8b2f4aa4968dbb818ea32260205260406000209350601d91506138aa565b634000000083161561383a57601e8101546000527f93237c50ba75ee485f4c22adf2f741400bdf8d6a9cc7df7ecae576221665d73560205260406000209350601e91506138aa565b638000000083161561388257601f8101546000527f8448818bb4ae4562849e949e17ac16e0be16688e156b5cf15e098c627c0056a960205260406000209350601f91506138aa565b7f27ae5ba08d7291c96c8cbddcc148bf48a6d68c7974b94356f53754ef6171d7579350602091505b601e821161434c576001821015613908576002831680156138d6576001820154600052846020526138ff565b846000527fad3228b676f7d3cd4284a5443f17f1962b36e491b30a40b2405849e597ba5fb56020525b50604060002093505b600282101561395e5760048316801561392c57600282015460005284602052613955565b846000527fb4c11951957c6f8f642c4af61cd6b24640fec6dc7fc607ee8206a99e92410d306020525b50604060002093505b60038210156139b457600883168015613982576003820154600052846020526139ab565b846000527f21ddb9a356815c3fac1026b6dec5df3124afbadb485c9ba5a3e3398a04b7ba856020525b50604060002093505b6004821015613a0a576010831680156139d857600482015460005284602052613a01565b846000527fe58769b32a1beaf1ea27375a44095a0d1fb664ce2dd358e7fcbfb78c26a193446020525b50604060002093505b6005821015613a6057602083168015613a2e57600582015460005284602052613a57565b846000527f0eb01ebfc9ed27500cd4dfc979272d1f0913cc9f66540d7e8005811109e1cf2d6020525b50604060002093505b6006821015613ab657604083168015613a8457600682015460005284602052613aad565b846000527f887c22bd8750d34016ac3c66b5ff102dacdd73f6b014e710b51e8022af9a19686020525b50604060002093505b6007821015613b0c57608083168015613ada57600782015460005284602052613b03565b846000527fffd70157e48063fc33c97a050f7f640233bf646cc98d9524c6b92bcf3ab56f836020525b50604060002093505b6008821015613b635761010083168015613b3157600882015460005284602052613b5a565b846000527f9867cc5f7f196b93bae1e27e6320742445d290f2263827498b54fec539f756af6020525b50604060002093505b6009821015613bba5761020083168015613b8857600982015460005284602052613bb1565b846000527fcefad4e508c098b9a7e1d8feb19955fb02ba9675585078710969d3440f5054e06020525b50604060002093505b600a821015613c115761040083168015613bdf57600a82015460005284602052613c08565b846000527ff9dc3e7fe016e050eff260334f18a5d4fe391d82092319f5964f2e2eb7c1c3a56020525b50604060002093505b600b821015613c685761080083168015613c3657600b82015460005284602052613c5f565b846000527ff8b13a49e282f609c317a833fb8d976d11517c571d1221a265d25af778ecf8926020525b50604060002093505b600c821015613cbf5761100083168015613c8d57600c82015460005284602052613cb6565b846000527f3490c6ceeb450aecdc82e28293031d10c7d73bf85e57bf041a97360aa2c5d99c6020525b50604060002093505b600d821015613d165761200083168015613ce457600d82015460005284602052613d0d565b846000527fc1df82d9c4b87413eae2ef048f94b4d3554cea73d92b0f7af96e0271c691e2bb6020525b50604060002093505b600e821015613d6d5761400083168015613d3b57600e82015460005284602052613d64565b846000527f5c67add7c6caf302256adedf7ab114da0acfe870d449a3a489f781d659e8becc6020525b50604060002093505b600f821015613dc45761800083168015613d9257600f82015460005284602052613dbb565b846000527fda7bce9f4e8618b6bd2f4132ce798cdc7a60e7e1460a7299e3c6342a579626d26020525b50604060002093505b6010821015613e1c576201000083168015613dea57601082015460005284602052613e13565b846000527f2733e50f526ec2fa19a22b31e8ed50f23cd1fdf94c9154ed3a7609a2f1ff981f6020525b50604060002093505b6011821015613e74576202000083168015613e4257601182015460005284602052613e6b565b846000527fe1d3b5c807b281e4683cc6d6315cf95b9ade8641defcb32372f1c126e398ef7a6020525b50604060002093505b6012821015613ecc576204000083168015613e9a57601282015460005284602052613ec3565b846000527f5a2dce0a8a7f68bb74560f8f71837c2c2ebbcbf7fffb42ae1896f13f7c7479a06020525b50604060002093505b6013821015613f24576208000083168015613ef257601382015460005284602052613f1b565b846000527fb46a28b6f55540f89444f63de0378e3d121be09e06cc9ded1c20e65876d36aa06020525b50604060002093505b6014821015613f7c576210000083168015613f4a57601482015460005284602052613f73565b846000527fc65e9645644786b620e2dd2ad648ddfcbf4a7e5b1a3a4ecfe7f64667a3f0b7e26020525b50604060002093505b6015821015613fd4576220000083168015613fa257601582015460005284602052613fcb565b846000527ff4418588ed35a2458cffeb39b93d26f18d2ab13bdce6aee58e7b99359ec2dfd96020525b50604060002093505b601682101561402c576240000083168015613ffa57601682015460005284602052614023565b846000527f5a9c16dc00d6ef18b7933a6f8dc65ccb55667138776f7dea101070dc8796e3776020525b50604060002093505b60178210156140845762800000831680156140525760178201546000528460205261407b565b846000527f4df84f40ae0c8229d0d6069e5c8f39a7c299677a09d367fc7b05e3bc380ee6526020525b50604060002093505b60188210156140dd576301000000831680156140ab576018820154600052846020526140d4565b846000527fcdc72595f74c7b1043d0e1ffbab734648c838dfb0527d971b602bc216c9619ef6020525b50604060002093505b6019821015614136576302000000831680156141045760198201546000528460205261412d565b846000527f0abf5ac974a1ed57f4050aa510dd9c74f508277b39d7973bb2dfccc5eeb0618d6020525b50604060002093505b601a82101561418f5763040000008316801561415d57601a82015460005284602052614186565b846000527fb8cd74046ff337f0a7bf2c8e03e10f642c1886798d71806ab1e888d9e5ee87d06020525b50604060002093505b601b8210156141e8576308000000831680156141b657601b820154600052846020526141df565b846000527f838c5655cb21c6cb83313b5a631175dff4963772cce9108188b34ac87c81c41e6020525b50604060002093505b601c8210156142415763100000008316801561420f57601c82015460005284602052614238565b846000527f662ee4dd2dd7b2bc707961b1e646c4047669dcb6584f0d8d770daf5d7e7deb2e6020525b50604060002093505b601d82101561429a5763200000008316801561426857601d82015460005284602052614291565b846000527f388ab20e2573d171a88108e79d820e98f26c0b84aa8b2f4aa4968dbb818ea3226020525b50604060002093505b601e8210156142f3576340000000831680156142c157601e820154600052846020526142ea565b846000527f93237c50ba75ee485f4c22adf2f741400bdf8d6a9cc7df7ecae576221665d7356020525b50604060002093505b601f82101561434c5763800000008316801561431a57601f82015460005284602052614343565b846000527f8448818bb4ae4562849e949e17ac16e0be16688e156b5cf15e098c627c0056a96020525b50604060002093505b505050919050565b6040805160208082018890528183018790526001600160a01b03861660608084019190915283518084039091018152608083018085528151918301919091206104809093019093526000926143c292918590828261040080828437600092019190915250879150614a949050565b9050868114610d73576040517ee587d20000000000000000000000000000000000000000000000000000000081526004810182905260248101889052604401610cbd565b600061eeee614418602084018461503f565b6001600160a01b031614905080801561444b575061eeee61443f606084016040850161503f565b6001600160a01b031614155b801561447057506000614464606084016040850161503f565b6001600160a01b031614155b156144c357614485606083016040840161503f565b6040517ff41f6def0000000000000000000000000000000000000000000000000000000081526001600160a01b039091166004820152602401610cbd565b62030d406144d7604084016020850161537d565b63ffffffff161080156144e8575080155b15611208576144fd604083016020840161537d565b6040517f555d0f1000000000000000000000000000000000000000000000000000000000815263ffffffff909116600482015262030d406024820152604401610cbd565b6000366014336001600160a01b037f000000000000000000000000c29d6995ab3b0df4650ad643adeac55e7acbb5661614801561457e5750808210155b156145ae576000366145908385615245565b61459b92829061549b565b6145a4916154c5565b60601c9250505090565b339250505090565b600080602060008451602086016000885af1806145d9576040513d6000823e3d81fd5b50506000513d915081156145f15780600114156145fe565b6001600160a01b0384163b155b15610b39576040517f5274afe70000000000000000000000000000000000000000000000000000000081526001600160a01b0385166004820152602401610cbd565b614648614e9b565b60008360200180516146599061526e565b908190529050600161466d602060026155f1565b6146779190615245565b8111156146b0576040517f8eab04bb00000000000000000000000000000000000000000000000000000000815260040160405180910390fd5b60005b602081101561474557816001166001036146ec578451849082602081106146dc576146dc615258565b6020020152508391506109749050565b845181602081106146ff576146ff615258565b60200201518460405160200161471f929190918252602082015260400190565b60408051601f1981840301815291905280516020909101209350600191821c91016146b3565b506040517f8eab04bb00000000000000000000000000000000000000000000000000000000815260040160405180910390fd5b604080516001600160a01b038416602482015260448082018490528251808303909101815260649091019091526020810180517bffffffffffffffffffffffffffffffffffffffffffffffffffffffff167f095ea7b3000000000000000000000000000000000000000000000000000000001790526147f78482614de2565b610b39576040516001600160a01b0384811660248301526000604483015261482c91869182169063095ea7b3906064016121fd565b610b3984826145b6565b60008615614873576040517fd7468c3200000000000000000000000000000000000000000000000000000000815260048101889052602401610cbd565b6001600160a01b03851661eeee1480159061488d57508315155b1561497f576148bd857f000000000000000000000000fbb0621e0b23b5478b630bd55a5f21f67730b0f186614778565b7f000000000000000000000000fbb0621e0b23b5478b630bd55a5f21f67730b0f16001600160a01b031663540abf738685606001516148f93090565b60408089015181516020810183526000815291517fffffffff0000000000000000000000000000000000000000000000000000000060e088901b168152614948959493928c92916004016155fd565b600060405180830381600087803b15801561496257600080fd5b505af1158015614976573d6000803e3d6000fd5b50505050614982565b50825b6001600160a01b037f00000000000000000000000058cc85b8d04ea49cc6dbd3cbffd00b4b8d6cb3ef16633dbb202b8230856040516024016149c4919061564f565b60408051601f198184030181529181526020820180517bffffffffffffffffffffffffffffffffffffffffffffffffffffffff167f69d31fdd00000000000000000000000000000000000000000000000000000000179052517fffffffff0000000000000000000000000000000000000000000000000000000060e086901b168152614a59929190620493e09060040161569b565b6000604051808303818588803b158015614a7257600080fd5b505af1158015614a86573d6000803e3d6000fd5b505050505050505050505050565b6020600582811b8216948552835194820394909452604060008181206002851615871b808503919091528386015190528181206004851615871b808503919091528286015190528181206008851615871b80850391909152606086015190528181206010851615871b8085039190915260808087015190915282822084861615881b8086039190915260a0870151905282822083861615881b8086039190915260c0870151905282822090851615871b8085039190915260e0860151905281812061010080861615881b80860392909252860151905281812061020080861615881b80860392909252610120870151909152828220610400861615881b808603919091526101408701519052828220610800861615881b808603919091526101608701519052828220611000861615881b808603919091526101808701519052828220612000861615881b808603919091526101a08701519052828220614000861615881b808603919091526101c08701519052828220618000861615881b808603919091526101e0870151905282822062010000861615881b8086039190915290860151905281812062020000851615871b80850391909152610220860151905281812062040000851615871b80850391909152610240860151905281812062080000851615871b80850391909152610260860151905281812062100000851615871b80850391909152610280860151905281812062200000851615871b808503919091526102a0860151905281812062400000851615871b808503919091526102c0860151905281812062800000851615871b808503919091526102e086015190528181206301000000851615871b8085039190915261030086015190528181206302000000851615871b8085039190915261032086015190528181206304000000851615871b8085039190915261034086015190528181206308000000851615871b8085039190915261036086015190528181206310000000851615871b8085039190915261038086015190528181206320000000851615871b808503919091526103a086015190528181206340000000851615871b808503919091526103c0860151905281812063800000009094161590951b91829003929092526103e090920151909152902090565b6000806000806020600086516020880160008a5af192503d91506000519050828015614e2757508115614e185780600114614e27565b6000866001600160a01b03163b115b9695505050505050565b6040805160808101825260008082526020820152908101614e50614e9b565b8152602001600081525090565b8260208101928215614e8b579160200282015b82811115614e8b578251825591602001919060010190614e70565b50614e97929150614eae565b5090565b6040518060400160405280614e50614ec3565b5b80821115614e975760008155600101614eaf565b6040518061040001604052806020906020820280368337509192915050565b600060208284031215614ef457600080fd5b81357fffffffff0000000000000000000000000000000000000000000000000000000081168114612ca157600080fd5b60006104a08284031215614f3757600080fd5b50919050565b60008060208385031215614f5057600080fd5b823567ffffffffffffffff80821115614f6857600080fd5b818501915085601f830112614f7c57600080fd5b813581811115614f8b57600080fd5b8660208260071b8501011115614fa057600080fd5b60209290920196919550909350505050565b600060808284031215614f3757600080fd5b600060808284031215614fd657600080fd5b612ca18383614fb2565b6001600160a01b0381168114610a2e57600080fd5b6000806000806080858703121561500b57600080fd5b84359350602085013561501d81614fe0565b925060408501359150606085013561503481614fe0565b939692955090935050565b60006020828403121561505157600080fd5b8135612ca181614fe0565b60006020828403121561506e57600080fd5b813564ffffffffff81168114612ca157600080fd5b815167ffffffffffffffff1681526020808301519082015260408101610974565b600080602083850312156150b757600080fd5b823567ffffffffffffffff808211156150cf57600080fd5b818501915085601f8301126150e357600080fd5b8135818111156150f257600080fd5b8660208260051b8501011115614fa057600080fd5b815167ffffffffffffffff1681526020808301518183015260408084015180516104808501939260009086015b84821015615152578251815291840191600191909101908401615134565b5050500151610440830152606092909201516104609091015290565b6000806020838503121561518157600080fd5b823567ffffffffffffffff8082111561519957600080fd5b818501915085601f8301126151ad57600080fd5b8135818111156151bc57600080fd5b8660206104a083028501011115614fa057600080fd5b634e487b7160e01b600052602160045260246000fd5b60208101600483106151fc576151fc6151d2565b91905290565b60208101600283106151fc576151fc6151d2565b60006020828403121561522857600080fd5b5035919050565b634e487b7160e01b600052601160045260246000fd5b818103818111156109745761097461522f565b634e487b7160e01b600052603260045260246000fd5b600060001982036152815761528161522f565b5060010190565b6000826152a557634e487b7160e01b600052601260045260246000fd5b500490565b6000602082840312156152bc57600080fd5b8151612ca181614fe0565b808201808211156109745761097461522f565b6000602082840312156152ec57600080fd5b813567ffffffffffffffff81168114612ca157600080fd5b6040808252810183905260008460608301825b8681101561534757823561532a81614fe0565b6001600160a01b0316825260209283019290910190600101615317565b5080925050506001600160a01b0383166020830152949350505050565b60006020828403121561537657600080fd5b5051919050565b60006020828403121561538f57600080fd5b813563ffffffff81168114612ca157600080fd5b6000815180845260005b818110156153c9576020818501810151868301820152016153ad565b506000602082860101526020601f19601f83011685010191505092915050565b60006001600160a01b03808a168352886020840152876040840152808716606084015285608084015280851660a08401525060e060c083015261542f60e08301846153a3565b9998505050505050505050565b634e487b7160e01b600052600160045260246000fd5b60006020828403121561546457600080fd5b81518015158114612ca157600080fd5b600067ffffffffffffffff8083168181036154915761549161522f565b6001019392505050565b600080858511156154ab57600080fd5b838611156154b857600080fd5b5050820193919092039150565b7fffffffffffffffffffffffffffffffffffffffff00000000000000000000000081358181169160148510156155055780818660140360031b1b83161692505b505092915050565b600181815b8085111561554857816000190482111561552e5761552e61522f565b8085161561553b57918102915b93841c9390800290615512565b509250929050565b60008261555f57506001610974565b8161556c57506000610974565b8160018114615582576002811461558c576155a8565b6001915050610974565b60ff84111561559d5761559d61522f565b50506001821b610974565b5060208310610133831016604e8410600b84101617156155cb575081810a610974565b6155d5838361550d565b80600019048211156155e9576155e961522f565b029392505050565b6000612ca18383615550565b60006001600160a01b038089168352808816602084015280871660408401525084606083015263ffffffff8416608083015260c060a083015261564360c08301846153a3565b98975050505050505050565b60006080820190506001600160a01b0383511682526020830151602083015260408301516156946040840182805167ffffffffffffffff168252602090810151910152565b5092915050565b6001600160a01b03841681526060602082015260006156bd60608301856153a3565b905063ffffffff8316604083015294935050505056fea26469706673582212206ca1edf7fda30c95e98cdf08ea8df70b3d5ab50126c02a93de2b5a3f71af622d64736f6c63430008170033",
	"gitCommit": "15954670a31005d16a26229742a824cdc93eee06",
	"history": []
}