{
	"_format": "sphinx-sol-ct-artifact-1",
	"merkleRoot": "0xff72f276254b899f69846b0f1325072cbc5287f2b32cf22d0b777ef3e059919b",
	"contractName": "BPOptimismSuckerDeployer",
	"address": "0x024d04722a8Fd6B98668c64e56B3F47357Fa86a4",
	"abi": [
		{
			"type": "constructor",
			"inputs": [
				{
					"name": "directory",
					"type": "address",
					"internalType": "contract IJBDirectory"
				},
				{
					"name": "tokens",
					"type": "address",
					"internalType": "contract IJBTokens"
				},
				{
					"name": "permissions",
					"type": "address",
					"internalType": "contract IJBPermissions"
				},
				{
					"name": "_configurator",
					"type": "address",
					"internalType": "address"
				}
			],
			"stateMutability": "nonpayable"
		},
		{
			"type": "function",
			"name": "BRIDGE",
			"inputs": [],
			"outputs": [
				{
					"name": "",
					"type": "address",
					"internalType": "contract OPStandardBridge"
				}
			],
			"stateMutability": "view"
		},
		{
			"type": "function",
			"name": "MESSENGER",
			"inputs": [],
			"outputs": [
				{
					"name": "",
					"type": "address",
					"internalType": "contract OPMessenger"
				}
			],
			"stateMutability": "view"
		},
		{
			"type": "function",
			"name": "PERMISSIONS",
			"inputs": [],
			"outputs": [
				{
					"name": "",
					"type": "address",
					"internalType": "contract IJBPermissions"
				}
			],
			"stateMutability": "view"
		},
		{
			"type": "function",
			"name": "configureLayerSpecific",
			"inputs": [
				{
					"name": "messenger",
					"type": "address",
					"internalType": "contract OPMessenger"
				},
				{
					"name": "bridge",
					"type": "address",
					"internalType": "contract OPStandardBridge"
				}
			],
			"outputs": [],
			"stateMutability": "nonpayable"
		},
		{
			"type": "function",
			"name": "createForSender",
			"inputs": [
				{
					"name": "localProjectId",
					"type": "uint256",
					"internalType": "uint256"
				},
				{
					"name": "salt",
					"type": "bytes32",
					"internalType": "bytes32"
				}
			],
			"outputs": [
				{
					"name": "sucker",
					"type": "address",
					"internalType": "contract IBPSucker"
				}
			],
			"stateMutability": "nonpayable"
		},
		{
			"type": "function",
			"name": "isSucker",
			"inputs": [
				{
					"name": "",
					"type": "address",
					"internalType": "address"
				}
			],
			"outputs": [
				{
					"name": "",
					"type": "bool",
					"internalType": "bool"
				}
			],
			"stateMutability": "view"
		},
		{
			"type": "error",
			"name": "ALREADY_CONFIGURED",
			"inputs": []
		},
		{
			"type": "error",
			"name": "ONLY_SUCKERS",
			"inputs": []
		},
		{
			"type": "error",
			"name": "UNAUTHORIZED",
			"inputs": []
		}
	],
	"solcInputHash": "7e868af3cf6590a40a7501a0082df0ee",
	"args": [
		"0x44d360C8c4105f180e07668bd3374c7A6F812FAF",
		"0xee922D1cb6551D45E2d9B197EC423Fb8C3C85d50",
		"0x711eda44F3D42F3d255846b5EE36Cf70Fd912E50",
		"0x6a65B75A3f37C6702A117Fb87B6bCaC62657d216"
	],
	"bytecode": "0x61010060405234801561001157600080fd5b50604051614ad6380380614ad68339810160408190526100309161006a565b6001600160a01b03918216608052811660e05291821660a0521660c0526100c9565b6001600160a01b038116811461006757600080fd5b50565b6000806000806080858703121561008057600080fd5b845161008b81610052565b602086015190945061009c81610052565b60408601519093506100ad81610052565b60608601519092506100be81610052565b939692955090935050565b60805160a05160c05160e0516149d06101066000396000505060006101900152600061016f01526000818161010a01526101b101526149d06000f3fe608060405234801561001057600080fd5b50600436106100625760003560e01c80631213036614610067578063927ede2d14610097578063c39ec124146100aa578063cc8b6f4f146100dd578063ee9a31a2146100f2578063f434c91414610105575b600080fd5b61007a6100753660046102b7565b61012c565b6040516001600160a01b0390911681526020015b60405180910390f35b60005461007a906001600160a01b031681565b6100cd6100b83660046102f1565b60026020526000908152604090205460ff1681565b604051901515815260200161008e565b6100f06100eb366004610315565b61023b565b005b60015461007a906001600160a01b031681565b61007a7f000000000000000000000000000000000000000000000000000000000000000081565b6040516bffffffffffffffffffffffff193360601b16602082015260348101829052600090605401604051602081830303815290604052805190602001209150817f00000000000000000000000000000000000000000000000000000000000000007f00000000000000000000000000000000000000000000000000000000000000007f000000000000000000000000000000000000000000000000000000000000000060008760006040516101e1906102aa565b6101f09695949392919061034e565b8190604051809103906000f5905080158015610210573d6000803e3d6000fd5b506001600160a01b0381166000908152600260205260409020805460ff191660011790559392505050565b6000546001600160a01b031615158061025e57506001546001600160a01b031615155b1561027c5760405163ccbe17fd60e01b815260040160405180910390fd5b600080546001600160a01b039384166001600160a01b03199182161790915560018054929093169116179055565b6145ee806103ad83390190565b600080604083850312156102ca57600080fd5b50508035926020909101359150565b6001600160a01b03811681146102ee57600080fd5b50565b60006020828403121561030357600080fd5b813561030e816102d9565b9392505050565b6000806040838503121561032857600080fd5b8235610333816102d9565b91506020830135610343816102d9565b809150509250929050565b6001600160a01b03878116825286811660208301528581166040830152841660608201526080810183905260c081016002831061039b57634e487b7160e01b600052602160045260246000fd5b8260a083015297965050505050505056fe6101a06040523480156200001257600080fd5b50604051620045ee380380620045ee8339810160408190526200003591620001c1565b6001600160a01b0380851660805280871660c05280861660e0528690869086908690869086908316156200006a57826200006c565b305b6001600160a01b03166101205261014082905233610100528060018111156200009957620000996200024c565b60a0816001811115620000b057620000b06200024c565b905250505050505050336001600160a01b031663927ede2d6040518163ffffffff1660e01b8152600401602060405180830381865afa158015620000f8573d6000803e3d6000fd5b505050506040513d601f19601f820116820180604052508101906200011e919062000262565b6001600160a01b0316610160526040805163774d18d160e11b81529051339163ee9a31a29160048083019260209291908290030181865afa15801562000168573d6000803e3d6000fd5b505050506040513d601f19601f820116820180604052508101906200018e919062000262565b6001600160a01b0316610180525062000289945050505050565b6001600160a01b0381168114620001be57600080fd5b50565b60008060008060008060c08789031215620001db57600080fd5b8651620001e881620001a8565b6020880151909650620001fb81620001a8565b60408801519095506200020e81620001a8565b60608801519094506200022181620001a8565b608088015160a08901519194509250600281106200023e57600080fd5b809150509295509295509295565b634e487b7160e01b600052602160045260246000fd5b6000602082840312156200027557600080fd5b81516200028281620001a8565b9392505050565b60805160a05160c05160e0516101005161012051610140516101605161018051614229620003c5600039600081816101d50152818161131801526113670152600081816105bd015281816114bc01528181611d770152611ddd015260008181610249015281816107cc01528181610849015281816109e601528181610e6d01528181610f16015281816116590152818161171e0152818161179b01528181611a2701528181611ae001528181611be20152611d0a0152600081816103ae01528181611398015281816114e70152611db3015260006104880152600081816101620152610a0f01526000818161037a0152818161073d01528181610e93015281816116940152611a560152600081816104bc01528181610b830152610e0f0152600081816105890152818161110201526111ab01526142296000f3fe6080604052600436106101445760003560e01c806388bc2ef3116100b6578063c1b8411a1161006f578063c1b8411a14610476578063c6525f2c146104aa578063e7f82c75146104eb578063ed0e26b914610518578063f434c91414610577578063fc8fa43d146105ab57600080fd5b806388bc2ef314610368578063ad42938b1461039c578063b59ef50f146103d0578063b71c1179146103f0578063bf557aee14610403578063c18541291461045657600080fd5b806356539f391161010857806356539f391461023757806361c864171461027957806369ce22331461028e57806369d31fdd146102ae5780636dfa7268146102c15780637de6fba2146102f057600080fd5b80631d831d5c146101505780632241dc52146101a15780632847f1f3146101c357806338eb2044146101f7578063551ebbf01461021757600080fd5b3661014b57005b600080fd5b34801561015c57600080fd5b506101847f000000000000000000000000000000000000000000000000000000000000000081565b6040516001600160a01b0390911681526020015b60405180910390f35b3480156101ad57600080fd5b506101c16101bc366004613bb6565b6105df565b005b3480156101cf57600080fd5b506101847f000000000000000000000000000000000000000000000000000000000000000081565b34801561020357600080fd5b506101c1610212366004613c42565b610617565b34801561022357600080fd5b506101c1610232366004613c73565b6109b0565b34801561024357600080fd5b5061026b7f000000000000000000000000000000000000000000000000000000000000000081565b604051908152602001610198565b34801561028557600080fd5b5061026b610b2f565b34801561029a57600080fd5b506101c16102a9366004613cbd565b610b7f565b6101c16102bc366004613c42565b610bf8565b3480156102cd57600080fd5b506102e16102dc366004613cbd565b610d69565b60405161019893929190613cda565b3480156102fc57600080fd5b5061033e61030b366004613cbd565b6003602052600090815260409020805460019091015463ffffffff82169164010000000090046001600160a01b03169083565b6040805163ffffffff90941684526001600160a01b03909216602084015290820152606001610198565b34801561037457600080fd5b506101847f000000000000000000000000000000000000000000000000000000000000000081565b3480156103a857600080fd5b506101847f000000000000000000000000000000000000000000000000000000000000000081565b3480156103dc57600080fd5b506101c16103eb366004613d33565b610dd3565b6101c16103fe366004613cbd565b610fda565b34801561040f57600080fd5b5061044661041e366004613cbd565b6001600160a01b03908116600090815260036020526040902054640100000000900416151590565b6040519015158152602001610198565b34801561046257600080fd5b506101c1610471366004613d46565b611084565b34801561048257600080fd5b506101847f000000000000000000000000000000000000000000000000000000000000000081565b3480156104b657600080fd5b506104de7f000000000000000000000000000000000000000000000000000000000000000081565b6040516101989190613dbf565b3480156104f757600080fd5b5061026b610506366004613cbd565b60026020526000908152604090205481565b34801561052457600080fd5b50610558610533366004613cbd565b600160208190526000918252604090912080549101546001600160401b039091169082565b604080516001600160401b039093168352602083019190915201610198565b34801561058357600080fd5b506101847f000000000000000000000000000000000000000000000000000000000000000081565b3480156105b757600080fd5b506101847f000000000000000000000000000000000000000000000000000000000000000081565b60005b818110156106125761060a8383838181106105ff576105ff613de7565b905060800201610617565b6001016105e2565b505050565b60006106266020830183613cbd565b9050600061eeee61063a6020850185613cbd565b6001600160a01b031614905080801561066d575061eeee6106616060850160408601613cbd565b6001600160a01b031614155b8015610692575060006106866060850160408601613cbd565b6001600160a01b031614155b156106d1576106a76060840160408501613cbd565b604051630a0a3b6b60e31b81526001600160a01b0390911660048201526024015b60405180910390fd5b62030d406106e56040850160208601613dfd565b63ffffffff161080156106f6575080155b156107385762030d4061070f6040850160208601613dfd565b604051634f3dbeb360e11b815263ffffffff9283166004820152911660248201526044016106c8565b61086f7f00000000000000000000000000000000000000000000000000000000000000006001600160a01b031663293c49996040518163ffffffff1660e01b8152600401602060405180830381865afa158015610799573d6000803e3d6000fd5b505050506040513d601f19601f820116820180604052508101906107bd9190613e23565b6040516331a9108f60e11b81527f000000000000000000000000000000000000000000000000000000000000000060048201526001600160a01b039190911690636352211e90602401602060405180830381865afa158015610823573d6000803e3d6000fd5b505050506040513d601f19601f820116820180604052508101906108479190613e23565b7f0000000000000000000000000000000000000000000000000000000000000000601c6110b8565b60006108816060850160408601613cbd565b6001600160a01b03161480156108b157506001600160a01b03821660009081526020819052604090206001015415155b1561090c576001600160a01b0380831660009081526003602090815260408083208151606081018352815463ffffffff811682526401000000009004909516928501929092526001909101549083015261090c91849061123c565b604051806060016040528084602001602081019061092a9190613dfd565b63ffffffff1681526020016109456060860160408701613cbd565b6001600160a01b0390811682526060909501356020918201529284166000908152600384526040908190208251815495840151909616640100000000026001600160c01b031990951663ffffffff909616959095179390931784559091015160019092019190915550565b6001600160a01b0383166109d7576040516309a9c30b60e41b815260040160405180910390fd5b60405163ea78803f60e01b81527f000000000000000000000000000000000000000000000000000000000000000060048201526000907f00000000000000000000000000000000000000000000000000000000000000006001600160a01b03169063ea78803f90602401602060405180830381865afa158015610a5e573d6000803e3d6000fd5b505050506040513d601f19601f82011682018060405250810190610a829190613e23565b90506001600160a01b038116610aab57604051635a33845560e01b815260040160405180910390fd5b6001600160a01b03828116600090815260036020526040902054640100000000900416610af65760405163393e175160e01b81526001600160a01b03831660048201526024016106c8565b610b0b6001600160a01b0382163330886115e3565b6000610b198287858761164a565b9050610b278684838861183d565b505050505050565b6000466001819003610b4357600a91505090565b80600a03610b5357600191505090565b8062aa36a703610b675762aa37dc91505090565b8062aa37dc03610b7b5762aa36a791505090565b5090565b60007f00000000000000000000000000000000000000000000000000000000000000006001811115610bb357610bb3613da9565b14610bd15760405163218a9a2d60e11b815260040160405180910390fd5b6001600160a01b038116600090815260026020526040902054610bf59082906119c1565b50565b610c0133611d73565b610c1e57604051630439dbd360e51b815260040160405180910390fd5b60208101803590600290600090610c359085613cbd565b6001600160a01b03166001600160a01b031681526020019081526020016000206000828254610c649190613e56565b90915550600190506000610c7b6020840184613cbd565b6001600160a01b0316815260208101919091526040908101600020546001600160401b031690610cb19060608401908401613e7e565b6001600160401b03161115610bf5576040810160016000610cd56020850185613cbd565b6001600160a01b031681526020810191909152604001600020610cf88282613e9b565b50610d0890506020820182613cbd565b6001600160a01b03167f551b6b99b4c48e3265d2885ab0d93779be2402293261e074f7bf74b2c8f45b6f610d426060840160408501613e7e565b604080516001600160401b039092168252606085013560208301520160405180910390a250565b6000602081815291815260409081902080546001820154835161044081018086526001600160401b0390931695919490926002850192849283019184919082845b815481526020019060010190808311610daa575050509183525050602091820154910152905083565b610e0b6060820135610de86020840184613cbd565b6080840135610dfd6060860160408701613cbd565b602086013560a08701611e70565b60017f00000000000000000000000000000000000000000000000000000000000000006001811115610e3f57610e3f613da9565b03610e5e57610e5e610e546020830183613cbd565b60808301356119c1565b604051632eec7b5560e11b81527f000000000000000000000000000000000000000000000000000000000000000060048201527f00000000000000000000000000000000000000000000000000000000000000006001600160a01b031690635dd8f6aa90602401602060405180830381865afa158015610ee2573d6000803e3d6000fd5b505050506040513d601f19601f82011682018060405250810190610f069190613e23565b6001600160a01b031663c7fb92de7f000000000000000000000000000000000000000000000000000000000000000060608401803590610f499060408701613cbd565b6040516001600160e01b031960e086901b168152600481019390935260248301919091526001600160a01b0316604482015260a06064820152600060a48201819052608482015260c4016020604051808303816000875af1158015610fb2573d6000803e3d6000fd5b505050506040513d601f19601f82011682018060405250810190610fd69190613ece565b5050565b6001600160a01b0380821660008181526003602090815260408083208151606081018352815463ffffffff811682526401000000009004909616868401526001908101548683018190529484529183905290912001541015611079576040808201516001600160a01b0384166000908152602081905282902060010154915163091df9e560e31b81526106c89290600401918252602082015260400190565b610fd634838361123c565b60005b81811015610612576110b08383838181106110a4576110a4613de7565b90506104a00201610dd3565b600101611087565b336001600160a01b038416811480159061116f575060405163c161c93f60e01b81526001600160a01b038281166004830152858116602483015260448201859052606482018490527f0000000000000000000000000000000000000000000000000000000000000000169063c161c93f90608401602060405180830381865afa158015611149573d6000803e3d6000fd5b505050506040513d601f19601f8201168201806040525081019061116d9190613ee7565b155b8015611218575060405163c161c93f60e01b81526001600160a01b038281166004830152858116602483015260006044830152606482018490527f0000000000000000000000000000000000000000000000000000000000000000169063c161c93f90608401602060405180830381865afa1580156111f2573d6000803e3d6000fd5b505050506040513d601f19601f820116820180604052508101906112169190613ee7565b155b156112365760405163075fd2b160e01b815260040160405180910390fd5b50505050565b6000831561125d576040516352864b0160e11b815260040160405180910390fd5b6001600160a01b0383166000908152602081905260408120600181018054908390558154909291908290611299906001600160401b0316613f09565b91906101000a8154816001600160401b0302191690836001600160401b031602179055905060006001600160a01b031684602001516001600160a01b0316036113005760405163393e175160e01b81526001600160a01b03861660048201526024016106c8565b6001600160a01b03851661eeee146113fb5761133d857f000000000000000000000000000000000000000000000000000000000000000084611fa0565b6020808501518551604080519384018152600084525163540abf7360e01b81526001600160a01b037f0000000000000000000000000000000000000000000000000000000000000000169363540abf73936113c4938b9391927f0000000000000000000000000000000000000000000000000000000000000000928a929190600401613f7f565b600060405180830381600087803b1580156113de57600080fd5b505af11580156113f2573d6000803e3d6000fd5b505050506113ff565b8192505b6001600160a01b038516600090815260208190526040812061142390600201612030565b6001600160a01b0387166000908152602081905260408120602201549192509061144f90600190613fd2565b604080516060810182526020808a01516001600160a01b039081168352818301898152845180860186526001600160401b03808b1682528185018a9052858701918252955194518316602486015290516044850152518051909416606484015292015160848201529192507f00000000000000000000000000000000000000000000000000000000000000001690633dbb202b9087907f00000000000000000000000000000000000000000000000000000000000000009060a40160408051601f198184030181529181526020820180516001600160e01b03166369d31fdd60e01b179052516001600160e01b031960e086901b168152611559929190620493e090600401613fe5565b6000604051808303818588803b15801561157257600080fd5b505af1158015611586573d6000803e3d6000fd5b5050604080518581526001600160401b03881660208201526001600160a01b038c1694508693507f3e069c1f498cba23d7d2b74b84311469e8da6e527cade62061d642c61b64e0de92500160405180910390a35050505050505050565b6040516001600160a01b0384811660248301528381166044830152606482018390526112369186918216906323b872dd906084015b604051602081830303815290604052915060e01b6020820180516001600160e01b0383818316178352505050506133e6565b604051630862026560e41b81527f000000000000000000000000000000000000000000000000000000000000000060048201526001600160a01b03838116602483015260009182917f00000000000000000000000000000000000000000000000000000000000000001690638620265090604401602060405180830381865afa1580156116db573d6000803e3d6000fd5b505050506040513d601f19601f820116820180604052508101906116ff9190613e23565b90506001600160a01b03811661175957604051630c9ae01360e01b81527f000000000000000000000000000000000000000000000000000000000000000060048201526001600160a01b03851660248201526044016106c8565b60006117658530613449565b60408051602081018252600081529051635db90a7f60e11b81529192506001600160a01b0384169163bb7214fe916117cb9130917f0000000000000000000000000000000000000000000000000000000000000000918b918d918c91869160040161401f565b6020604051808303816000875af11580156117ea573d6000803e3d6000fd5b505050506040513d601f19601f8201168201806040525081019061180e9190613ece565b92508061181b8630613449565b6118259190613fd2565b831461183357611833614071565b5050949350505050565b600061184a8584846134e0565b6001600160a01b0385166000908152602081815260408083208151610440810180845295965093946118b59487949093600290930192849290830191849182845b81548152602001906001019080831161188b57505050918352505060209182015491015290613525565b6001600160a01b038616600090815260208181526040909120825192935083926002909101916118e6918391613b28565b50602091820151908201556001600160a01b03861660009081529081905260408120600101805486929061191b908490613e56565b92505081905550846001600160a01b0316836001600160a01b03167f7b58dbb78e7edc690b0688a53dea0c443d630c4a5db66c3c47d4ff2044c9772884600185602001516119699190613fd2565b6001600160a01b038a16600090815260208190526040902061198d90600201612030565b60408051938452602084019290925290820152606081018a90526080810188905260a00160405180910390a3505050505050565b6001600160a01b038216600090815260026020526040902054808211156119fb57604051632858f9ab60e11b815260040160405180910390fd5b6001600160a01b03838116600081815260026020526040808220868603905551630862026560e41b81527f000000000000000000000000000000000000000000000000000000000000000060048201526024810192909252917f00000000000000000000000000000000000000000000000000000000000000001690638620265090604401602060405180830381865afa158015611a9d573d6000803e3d6000fd5b505050506040513d601f19601f82011682018060405250810190611ac19190613e23565b90506001600160a01b038116611b1b57604051630c9ae01360e01b81527f000000000000000000000000000000000000000000000000000000000000000060048201526001600160a01b03851660248201526044016106c8565b6001600160a01b03841661eeee14611ccb576040516370a0823160e01b81523060048201526000906001600160a01b038616906370a0823190602401602060405180830381865afa158015611b74573d6000803e3d6000fd5b505050506040513d601f19601f82011682018060405250810190611b989190613ece565b9050611ba5858386611fa0565b60408051602080820183526000808352835191820184528082529251639e6eec0560e01b81526001600160a01b03861693639e6eec0593611c12937f0000000000000000000000000000000000000000000000000000000000000000938c938c9390929091600401614087565b600060405180830381600087803b158015611c2c57600080fd5b505af1158015611c40573d6000803e3d6000fd5b505050508381611c509190613fd2565b6040516370a0823160e01b81523060048201526001600160a01b038716906370a0823190602401602060405180830381865afa158015611c94573d6000803e3d6000fd5b505050506040513d601f19601f82011682018060405250810190611cb89190613ece565b14611cc557611cc5614071565b50611236565b60408051602080820183526000808352835191820184528082529251639e6eec0560e01b81526001600160a01b03851693639e6eec05938893611d3b937f0000000000000000000000000000000000000000000000000000000000000000938c9387939192909190600401614087565b6000604051808303818588803b158015611d5457600080fd5b505af1158015611d68573d6000803e3d6000fd5b505050505050505050565b60007f00000000000000000000000000000000000000000000000000000000000000006001600160a01b0316826001600160a01b0316148015611e6a57507f00000000000000000000000000000000000000000000000000000000000000006001600160a01b03167f00000000000000000000000000000000000000000000000000000000000000006001600160a01b0316636e296e456040518163ffffffff1660e01b81526004016020604051808303816000875af1158015611e3b573d6000803e3d6000fd5b505050506040513d601f19601f82011682018060405250810190611e5f9190613e23565b6001600160a01b0316145b92915050565b6001600160a01b0385166000908152600460209081526040808320600886901c8452909152902054600160ff84161b1615611ec15760405163ed9bdd0760e01b8152600481018390526024016106c8565b6001600160a01b0385166000908152600460209081526040808320600886901c845290915281208054600160ff86161b179055611f30611f028887876134e0565b60408051610400818101909252908590602090839083908082843760009201919091525087915061362b9050565b6001600160a01b038716600090815260016020819052604090912001549091508114611f97576001600160a01b0386166000908152600160208190526040918290200154905163286f87c960e21b81526004810191909152602481018290526044016106c8565b50505050505050565b604080516001600160a01b038416602482015260448082018490528251808303909101815260649091019091526020810180516001600160e01b031663095ea7b360e01b179052611ff18482613979565b611236576040516001600160a01b0384811660248301526000604483015261202691869182169063095ea7b390606401611618565b61123684826133e6565b602081015460009080820361206757507f27ae5ba08d7291c96c8cbddcc148bf48a6d68c7974b94356f53754ef6171d75792915050565b600083600183161561208957805460005260006020526040600020935061293c565b60028316156120ce5760018101546000527fad3228b676f7d3cd4284a5443f17f1962b36e491b30a40b2405849e597ba5fb5602052604060002093506001915061293c565b60048316156121135760028101546000527fb4c11951957c6f8f642c4af61cd6b24640fec6dc7fc607ee8206a99e92410d30602052604060002093506002915061293c565b60088316156121585760038101546000527f21ddb9a356815c3fac1026b6dec5df3124afbadb485c9ba5a3e3398a04b7ba85602052604060002093506003915061293c565b601083161561219d5760048101546000527fe58769b32a1beaf1ea27375a44095a0d1fb664ce2dd358e7fcbfb78c26a19344602052604060002093506004915061293c565b60208316156121e25760058101546000527f0eb01ebfc9ed27500cd4dfc979272d1f0913cc9f66540d7e8005811109e1cf2d602052604060002093506005915061293c565b60408316156122275760068101546000527f887c22bd8750d34016ac3c66b5ff102dacdd73f6b014e710b51e8022af9a1968602052604060002093506006915061293c565b608083161561226c5760078101546000527fffd70157e48063fc33c97a050f7f640233bf646cc98d9524c6b92bcf3ab56f83602052604060002093506007915061293c565b6101008316156122b25760088101546000527f9867cc5f7f196b93bae1e27e6320742445d290f2263827498b54fec539f756af602052604060002093506008915061293c565b6102008316156122f85760098101546000527fcefad4e508c098b9a7e1d8feb19955fb02ba9675585078710969d3440f5054e0602052604060002093506009915061293c565b61040083161561233e57600a8101546000527ff9dc3e7fe016e050eff260334f18a5d4fe391d82092319f5964f2e2eb7c1c3a560205260406000209350600a915061293c565b61080083161561238457600b8101546000527ff8b13a49e282f609c317a833fb8d976d11517c571d1221a265d25af778ecf89260205260406000209350600b915061293c565b6110008316156123ca57600c8101546000527f3490c6ceeb450aecdc82e28293031d10c7d73bf85e57bf041a97360aa2c5d99c60205260406000209350600c915061293c565b61200083161561241057600d8101546000527fc1df82d9c4b87413eae2ef048f94b4d3554cea73d92b0f7af96e0271c691e2bb60205260406000209350600d915061293c565b61400083161561245657600e8101546000527f5c67add7c6caf302256adedf7ab114da0acfe870d449a3a489f781d659e8becc60205260406000209350600e915061293c565b61800083161561249c57600f8101546000527fda7bce9f4e8618b6bd2f4132ce798cdc7a60e7e1460a7299e3c6342a579626d260205260406000209350600f915061293c565b620100008316156124e35760108101546000527f2733e50f526ec2fa19a22b31e8ed50f23cd1fdf94c9154ed3a7609a2f1ff981f602052604060002093506010915061293c565b6202000083161561252a5760118101546000527fe1d3b5c807b281e4683cc6d6315cf95b9ade8641defcb32372f1c126e398ef7a602052604060002093506011915061293c565b620400008316156125715760128101546000527f5a2dce0a8a7f68bb74560f8f71837c2c2ebbcbf7fffb42ae1896f13f7c7479a0602052604060002093506012915061293c565b620800008316156125b85760138101546000527fb46a28b6f55540f89444f63de0378e3d121be09e06cc9ded1c20e65876d36aa0602052604060002093506013915061293c565b621000008316156125ff5760148101546000527fc65e9645644786b620e2dd2ad648ddfcbf4a7e5b1a3a4ecfe7f64667a3f0b7e2602052604060002093506014915061293c565b622000008316156126465760158101546000527ff4418588ed35a2458cffeb39b93d26f18d2ab13bdce6aee58e7b99359ec2dfd9602052604060002093506015915061293c565b6240000083161561268d5760168101546000527f5a9c16dc00d6ef18b7933a6f8dc65ccb55667138776f7dea101070dc8796e377602052604060002093506016915061293c565b628000008316156126d45760178101546000527f4df84f40ae0c8229d0d6069e5c8f39a7c299677a09d367fc7b05e3bc380ee652602052604060002093506017915061293c565b630100000083161561271c5760188101546000527fcdc72595f74c7b1043d0e1ffbab734648c838dfb0527d971b602bc216c9619ef602052604060002093506018915061293c565b63020000008316156127645760198101546000527f0abf5ac974a1ed57f4050aa510dd9c74f508277b39d7973bb2dfccc5eeb0618d602052604060002093506019915061293c565b63040000008316156127ac57601a8101546000527fb8cd74046ff337f0a7bf2c8e03e10f642c1886798d71806ab1e888d9e5ee87d060205260406000209350601a915061293c565b63080000008316156127f457601b8101546000527f838c5655cb21c6cb83313b5a631175dff4963772cce9108188b34ac87c81c41e60205260406000209350601b915061293c565b631000000083161561283c57601c8101546000527f662ee4dd2dd7b2bc707961b1e646c4047669dcb6584f0d8d770daf5d7e7deb2e60205260406000209350601c915061293c565b632000000083161561288457601d8101546000527f388ab20e2573d171a88108e79d820e98f26c0b84aa8b2f4aa4968dbb818ea32260205260406000209350601d915061293c565b63400000008316156128cc57601e8101546000527f93237c50ba75ee485f4c22adf2f741400bdf8d6a9cc7df7ecae576221665d73560205260406000209350601e915061293c565b638000000083161561291457601f8101546000527f8448818bb4ae4562849e949e17ac16e0be16688e156b5cf15e098c627c0056a960205260406000209350601f915061293c565b7f27ae5ba08d7291c96c8cbddcc148bf48a6d68c7974b94356f53754ef6171d7579350602091505b601e82116133de57600182101561299a5760028316801561296857600182015460005284602052612991565b846000527fad3228b676f7d3cd4284a5443f17f1962b36e491b30a40b2405849e597ba5fb56020525b50604060002093505b60028210156129f0576004831680156129be576002820154600052846020526129e7565b846000527fb4c11951957c6f8f642c4af61cd6b24640fec6dc7fc607ee8206a99e92410d306020525b50604060002093505b6003821015612a4657600883168015612a1457600382015460005284602052612a3d565b846000527f21ddb9a356815c3fac1026b6dec5df3124afbadb485c9ba5a3e3398a04b7ba856020525b50604060002093505b6004821015612a9c57601083168015612a6a57600482015460005284602052612a93565b846000527fe58769b32a1beaf1ea27375a44095a0d1fb664ce2dd358e7fcbfb78c26a193446020525b50604060002093505b6005821015612af257602083168015612ac057600582015460005284602052612ae9565b846000527f0eb01ebfc9ed27500cd4dfc979272d1f0913cc9f66540d7e8005811109e1cf2d6020525b50604060002093505b6006821015612b4857604083168015612b1657600682015460005284602052612b3f565b846000527f887c22bd8750d34016ac3c66b5ff102dacdd73f6b014e710b51e8022af9a19686020525b50604060002093505b6007821015612b9e57608083168015612b6c57600782015460005284602052612b95565b846000527fffd70157e48063fc33c97a050f7f640233bf646cc98d9524c6b92bcf3ab56f836020525b50604060002093505b6008821015612bf55761010083168015612bc357600882015460005284602052612bec565b846000527f9867cc5f7f196b93bae1e27e6320742445d290f2263827498b54fec539f756af6020525b50604060002093505b6009821015612c4c5761020083168015612c1a57600982015460005284602052612c43565b846000527fcefad4e508c098b9a7e1d8feb19955fb02ba9675585078710969d3440f5054e06020525b50604060002093505b600a821015612ca35761040083168015612c7157600a82015460005284602052612c9a565b846000527ff9dc3e7fe016e050eff260334f18a5d4fe391d82092319f5964f2e2eb7c1c3a56020525b50604060002093505b600b821015612cfa5761080083168015612cc857600b82015460005284602052612cf1565b846000527ff8b13a49e282f609c317a833fb8d976d11517c571d1221a265d25af778ecf8926020525b50604060002093505b600c821015612d515761100083168015612d1f57600c82015460005284602052612d48565b846000527f3490c6ceeb450aecdc82e28293031d10c7d73bf85e57bf041a97360aa2c5d99c6020525b50604060002093505b600d821015612da85761200083168015612d7657600d82015460005284602052612d9f565b846000527fc1df82d9c4b87413eae2ef048f94b4d3554cea73d92b0f7af96e0271c691e2bb6020525b50604060002093505b600e821015612dff5761400083168015612dcd57600e82015460005284602052612df6565b846000527f5c67add7c6caf302256adedf7ab114da0acfe870d449a3a489f781d659e8becc6020525b50604060002093505b600f821015612e565761800083168015612e2457600f82015460005284602052612e4d565b846000527fda7bce9f4e8618b6bd2f4132ce798cdc7a60e7e1460a7299e3c6342a579626d26020525b50604060002093505b6010821015612eae576201000083168015612e7c57601082015460005284602052612ea5565b846000527f2733e50f526ec2fa19a22b31e8ed50f23cd1fdf94c9154ed3a7609a2f1ff981f6020525b50604060002093505b6011821015612f06576202000083168015612ed457601182015460005284602052612efd565b846000527fe1d3b5c807b281e4683cc6d6315cf95b9ade8641defcb32372f1c126e398ef7a6020525b50604060002093505b6012821015612f5e576204000083168015612f2c57601282015460005284602052612f55565b846000527f5a2dce0a8a7f68bb74560f8f71837c2c2ebbcbf7fffb42ae1896f13f7c7479a06020525b50604060002093505b6013821015612fb6576208000083168015612f8457601382015460005284602052612fad565b846000527fb46a28b6f55540f89444f63de0378e3d121be09e06cc9ded1c20e65876d36aa06020525b50604060002093505b601482101561300e576210000083168015612fdc57601482015460005284602052613005565b846000527fc65e9645644786b620e2dd2ad648ddfcbf4a7e5b1a3a4ecfe7f64667a3f0b7e26020525b50604060002093505b60158210156130665762200000831680156130345760158201546000528460205261305d565b846000527ff4418588ed35a2458cffeb39b93d26f18d2ab13bdce6aee58e7b99359ec2dfd96020525b50604060002093505b60168210156130be57624000008316801561308c576016820154600052846020526130b5565b846000527f5a9c16dc00d6ef18b7933a6f8dc65ccb55667138776f7dea101070dc8796e3776020525b50604060002093505b60178210156131165762800000831680156130e45760178201546000528460205261310d565b846000527f4df84f40ae0c8229d0d6069e5c8f39a7c299677a09d367fc7b05e3bc380ee6526020525b50604060002093505b601882101561316f5763010000008316801561313d57601882015460005284602052613166565b846000527fcdc72595f74c7b1043d0e1ffbab734648c838dfb0527d971b602bc216c9619ef6020525b50604060002093505b60198210156131c857630200000083168015613196576019820154600052846020526131bf565b846000527f0abf5ac974a1ed57f4050aa510dd9c74f508277b39d7973bb2dfccc5eeb0618d6020525b50604060002093505b601a821015613221576304000000831680156131ef57601a82015460005284602052613218565b846000527fb8cd74046ff337f0a7bf2c8e03e10f642c1886798d71806ab1e888d9e5ee87d06020525b50604060002093505b601b82101561327a5763080000008316801561324857601b82015460005284602052613271565b846000527f838c5655cb21c6cb83313b5a631175dff4963772cce9108188b34ac87c81c41e6020525b50604060002093505b601c8210156132d3576310000000831680156132a157601c820154600052846020526132ca565b846000527f662ee4dd2dd7b2bc707961b1e646c4047669dcb6584f0d8d770daf5d7e7deb2e6020525b50604060002093505b601d82101561332c576320000000831680156132fa57601d82015460005284602052613323565b846000527f388ab20e2573d171a88108e79d820e98f26c0b84aa8b2f4aa4968dbb818ea3226020525b50604060002093505b601e8210156133855763400000008316801561335357601e8201546000528460205261337c565b846000527f93237c50ba75ee485f4c22adf2f741400bdf8d6a9cc7df7ecae576221665d7356020525b50604060002093505b601f8210156133de576380000000831680156133ac57601f820154600052846020526133d5565b846000527f8448818bb4ae4562849e949e17ac16e0be16688e156b5cf15e098c627c0056a96020525b50604060002093505b505050919050565b60006133fb6001600160a01b03841683613a21565b9050805160001415801561342057508080602001905181019061341e9190613ee7565b155b1561061257604051635274afe760e01b81526001600160a01b03841660048201526024016106c8565b600061eeed196001600160a01b0384160161346f57506001600160a01b03811631611e6a565b6040516370a0823160e01b81526001600160a01b0383811660048301528416906370a0823190602401602060405180830381865afa1580156134b5573d6000803e3d6000fd5b505050506040513d601f19601f820116820180604052508101906134d99190613ece565b9392505050565b60408051602081018590529081018390526001600160a01b03821660608201526000906080016040516020818303038152906040528051906020012090509392505050565b61352d613b62565b600083602001805161353e906140ce565b9081905290506001613552602060026141cb565b61355c9190613fd2565b81111561357c57604051638eab04bb60e01b815260040160405180910390fd5b60005b602081101561361157816001166001036135b8578451849082602081106135a8576135a8613de7565b602002015250839150611e6a9050565b845181602081106135cb576135cb613de7565b6020020151846040516020016135eb929190918252602082015260400190565b60408051601f1981840301815291905280516020909101209350600191821c910161357f565b50604051638eab04bb60e01b815260040160405180910390fd5b6020600582811b8216948552835194820394909452604060008181206002851615871b808503919091528386015190528181206004851615871b808503919091528286015190528181206008851615871b80850391909152606086015190528181206010851615871b8085039190915260808087015190915282822084861615881b8086039190915260a0870151905282822083861615881b8086039190915260c0870151905282822090851615871b8085039190915260e0860151905281812061010080861615881b80860392909252860151905281812061020080861615881b80860392909252610120870151909152828220610400861615881b808603919091526101408701519052828220610800861615881b808603919091526101608701519052828220611000861615881b808603919091526101808701519052828220612000861615881b808603919091526101a08701519052828220614000861615881b808603919091526101c08701519052828220618000861615881b808603919091526101e0870151905282822062010000861615881b8086039190915290860151905281812062020000851615871b80850391909152610220860151905281812062040000851615871b80850391909152610240860151905281812062080000851615871b80850391909152610260860151905281812062100000851615871b80850391909152610280860151905281812062200000851615871b808503919091526102a0860151905281812062400000851615871b808503919091526102c0860151905281812062800000851615871b808503919091526102e086015190528181206301000000851615871b8085039190915261030086015190528181206302000000851615871b8085039190915261032086015190528181206304000000851615871b8085039190915261034086015190528181206308000000851615871b8085039190915261036086015190528181206310000000851615871b8085039190915261038086015190528181206320000000851615871b808503919091526103a086015190528181206340000000851615871b808503919091526103c0860151905281812063800000009094161590951b91829003929092526103e090920151909152902090565b6000806000846001600160a01b03168460405161399691906141d7565b6000604051808303816000865af19150503d80600081146139d3576040519150601f19603f3d011682016040523d82523d6000602084013e6139d8565b606091505b5091509150818015613a02575080511580613a02575080806020019051810190613a029190613ee7565b8015613a1857506000856001600160a01b03163b115b95945050505050565b60606134d98383600084600080856001600160a01b03168486604051613a4791906141d7565b60006040518083038185875af1925050503d8060008114613a84576040519150601f19603f3d011682016040523d82523d6000602084013e613a89565b606091505b5091509150613a99868383613aa3565b9695505050505050565b606082613ab857613ab382613aff565b6134d9565b8151158015613acf57506001600160a01b0384163b155b15613af857604051639996b31560e01b81526001600160a01b03851660048201526024016106c8565b50806134d9565b805115613b0f5780518082602001fd5b604051630a12f52160e11b815260040160405180910390fd5b8260208101928215613b56579160200282015b82811115613b56578251825591602001919060010190613b3b565b50610b7b929150613b82565b6040518060400160405280613b75613b97565b8152602001600081525090565b5b80821115610b7b5760008155600101613b83565b6040518061040001604052806020906020820280368337509192915050565b60008060208385031215613bc957600080fd5b82356001600160401b0380821115613be057600080fd5b818501915085601f830112613bf457600080fd5b813581811115613c0357600080fd5b8660208260071b8501011115613c1857600080fd5b60209290920196919550909350505050565b600060808284031215613c3c57600080fd5b50919050565b600060808284031215613c5457600080fd5b6134d98383613c2a565b6001600160a01b0381168114610bf557600080fd5b60008060008060808587031215613c8957600080fd5b843593506020850135613c9b81613c5e565b9250604085013591506060850135613cb281613c5e565b939692955090935050565b600060208284031215613ccf57600080fd5b81356134d981613c5e565b6001600160401b038416815260208082018490528251610460830191906000604085015b83821015613d1c578251815291830191600191909101908301613cfe565b505050506020830151610440830152949350505050565b60006104a08284031215613c3c57600080fd5b60008060208385031215613d5957600080fd5b82356001600160401b0380821115613d7057600080fd5b818501915085601f830112613d8457600080fd5b813581811115613d9357600080fd5b8660206104a083028501011115613c1857600080fd5b634e487b7160e01b600052602160045260246000fd5b6020810160028310613de157634e487b7160e01b600052602160045260246000fd5b91905290565b634e487b7160e01b600052603260045260246000fd5b600060208284031215613e0f57600080fd5b813563ffffffff811681146134d957600080fd5b600060208284031215613e3557600080fd5b81516134d981613c5e565b634e487b7160e01b600052601160045260246000fd5b80820180821115611e6a57611e6a613e40565b6001600160401b0381168114610bf557600080fd5b600060208284031215613e9057600080fd5b81356134d981613e69565b8135613ea681613e69565b6001600160401b0381166001600160401b031983541617825550602082013560018201555050565b600060208284031215613ee057600080fd5b5051919050565b600060208284031215613ef957600080fd5b815180151581146134d957600080fd5b60006001600160401b03808316818103613f2557613f25613e40565b6001019392505050565b60005b83811015613f4a578181015183820152602001613f32565b50506000910152565b60008151808452613f6b816020860160208601613f2f565b601f01601f19169290920160200192915050565b6001600160a01b0387811682528681166020830152851660408201526060810184905263ffffffff8316608082015260c060a08201819052600090613fc690830184613f53565b98975050505050505050565b81810381811115611e6a57611e6a613e40565b6001600160a01b038416815260606020820181905260009061400990830185613f53565b905063ffffffff83166040830152949350505050565b600060018060a01b03808a168352886020840152808816604084015286606084015285608084015280851660a08401525060e060c083015261406460e0830184613f53565b9998505050505050505050565b634e487b7160e01b600052600160045260246000fd5b86815260018060a01b0386166020820152846040820152831515606082015260c0608082015260006140bc60c0830185613f53565b82810360a08401526140648185613f53565b6000600182016140e0576140e0613e40565b5060010190565b600181815b8085111561412257816000190482111561410857614108613e40565b8085161561411557918102915b93841c93908002906140ec565b509250929050565b60008261413957506001611e6a565b8161414657506000611e6a565b816001811461415c576002811461416657614182565b6001915050611e6a565b60ff84111561417757614177613e40565b50506001821b611e6a565b5060208310610133831016604e8410600b84101617156141a5575081810a611e6a565b6141af83836140e7565b80600019048211156141c3576141c3613e40565b029392505050565b60006134d9838361412a565b600082516141e9818460208701613f2f565b919091019291505056fea2646970667358221220323d3e589f2f36893695abe76901f81ffe89ea25d149f9258a5c294c4d22cd6564736f6c63430008170033a2646970667358221220ecd6bdab14ee0b1a07064b4ca88e3006bf547134adc855ca60a14e7c9c9c474664736f6c63430008170033",
	"deployedBytecode": "0x608060405234801561001057600080fd5b50600436106100625760003560e01c80631213036614610067578063927ede2d14610097578063c39ec124146100aa578063cc8b6f4f146100dd578063ee9a31a2146100f2578063f434c91414610105575b600080fd5b61007a6100753660046102b7565b61012c565b6040516001600160a01b0390911681526020015b60405180910390f35b60005461007a906001600160a01b031681565b6100cd6100b83660046102f1565b60026020526000908152604090205460ff1681565b604051901515815260200161008e565b6100f06100eb366004610315565b61023b565b005b60015461007a906001600160a01b031681565b61007a7f000000000000000000000000711eda44f3d42f3d255846b5ee36cf70fd912e5081565b6040516bffffffffffffffffffffffff193360601b16602082015260348101829052600090605401604051602081830303815290604052805190602001209150817f00000000000000000000000044d360c8c4105f180e07668bd3374c7a6f812faf7f000000000000000000000000ee922d1cb6551d45e2d9b197ec423fb8c3c85d507f000000000000000000000000711eda44f3d42f3d255846b5ee36cf70fd912e5060008760006040516101e1906102aa565b6101f09695949392919061034e565b8190604051809103906000f5905080158015610210573d6000803e3d6000fd5b506001600160a01b0381166000908152600260205260409020805460ff191660011790559392505050565b6000546001600160a01b031615158061025e57506001546001600160a01b031615155b1561027c5760405163ccbe17fd60e01b815260040160405180910390fd5b600080546001600160a01b039384166001600160a01b03199182161790915560018054929093169116179055565b6145ee806103ad83390190565b600080604083850312156102ca57600080fd5b50508035926020909101359150565b6001600160a01b03811681146102ee57600080fd5b50565b60006020828403121561030357600080fd5b813561030e816102d9565b9392505050565b6000806040838503121561032857600080fd5b8235610333816102d9565b91506020830135610343816102d9565b809150509250929050565b6001600160a01b03878116825286811660208301528581166040830152841660608201526080810183905260c081016002831061039b57634e487b7160e01b600052602160045260246000fd5b8260a083015297965050505050505056fe6101a06040523480156200001257600080fd5b50604051620045ee380380620045ee8339810160408190526200003591620001c1565b6001600160a01b0380851660805280871660c05280861660e0528690869086908690869086908316156200006a57826200006c565b305b6001600160a01b03166101205261014082905233610100528060018111156200009957620000996200024c565b60a0816001811115620000b057620000b06200024c565b905250505050505050336001600160a01b031663927ede2d6040518163ffffffff1660e01b8152600401602060405180830381865afa158015620000f8573d6000803e3d6000fd5b505050506040513d601f19601f820116820180604052508101906200011e919062000262565b6001600160a01b0316610160526040805163774d18d160e11b81529051339163ee9a31a29160048083019260209291908290030181865afa15801562000168573d6000803e3d6000fd5b505050506040513d601f19601f820116820180604052508101906200018e919062000262565b6001600160a01b0316610180525062000289945050505050565b6001600160a01b0381168114620001be57600080fd5b50565b60008060008060008060c08789031215620001db57600080fd5b8651620001e881620001a8565b6020880151909650620001fb81620001a8565b60408801519095506200020e81620001a8565b60608801519094506200022181620001a8565b608088015160a08901519194509250600281106200023e57600080fd5b809150509295509295509295565b634e487b7160e01b600052602160045260246000fd5b6000602082840312156200027557600080fd5b81516200028281620001a8565b9392505050565b60805160a05160c05160e0516101005161012051610140516101605161018051614229620003c5600039600081816101d50152818161131801526113670152600081816105bd015281816114bc01528181611d770152611ddd015260008181610249015281816107cc01528181610849015281816109e601528181610e6d01528181610f16015281816116590152818161171e0152818161179b01528181611a2701528181611ae001528181611be20152611d0a0152600081816103ae01528181611398015281816114e70152611db3015260006104880152600081816101620152610a0f01526000818161037a0152818161073d01528181610e93015281816116940152611a560152600081816104bc01528181610b830152610e0f0152600081816105890152818161110201526111ab01526142296000f3fe6080604052600436106101445760003560e01c806388bc2ef3116100b6578063c1b8411a1161006f578063c1b8411a14610476578063c6525f2c146104aa578063e7f82c75146104eb578063ed0e26b914610518578063f434c91414610577578063fc8fa43d146105ab57600080fd5b806388bc2ef314610368578063ad42938b1461039c578063b59ef50f146103d0578063b71c1179146103f0578063bf557aee14610403578063c18541291461045657600080fd5b806356539f391161010857806356539f391461023757806361c864171461027957806369ce22331461028e57806369d31fdd146102ae5780636dfa7268146102c15780637de6fba2146102f057600080fd5b80631d831d5c146101505780632241dc52146101a15780632847f1f3146101c357806338eb2044146101f7578063551ebbf01461021757600080fd5b3661014b57005b600080fd5b34801561015c57600080fd5b506101847f000000000000000000000000000000000000000000000000000000000000000081565b6040516001600160a01b0390911681526020015b60405180910390f35b3480156101ad57600080fd5b506101c16101bc366004613bb6565b6105df565b005b3480156101cf57600080fd5b506101847f000000000000000000000000000000000000000000000000000000000000000081565b34801561020357600080fd5b506101c1610212366004613c42565b610617565b34801561022357600080fd5b506101c1610232366004613c73565b6109b0565b34801561024357600080fd5b5061026b7f000000000000000000000000000000000000000000000000000000000000000081565b604051908152602001610198565b34801561028557600080fd5b5061026b610b2f565b34801561029a57600080fd5b506101c16102a9366004613cbd565b610b7f565b6101c16102bc366004613c42565b610bf8565b3480156102cd57600080fd5b506102e16102dc366004613cbd565b610d69565b60405161019893929190613cda565b3480156102fc57600080fd5b5061033e61030b366004613cbd565b6003602052600090815260409020805460019091015463ffffffff82169164010000000090046001600160a01b03169083565b6040805163ffffffff90941684526001600160a01b03909216602084015290820152606001610198565b34801561037457600080fd5b506101847f000000000000000000000000000000000000000000000000000000000000000081565b3480156103a857600080fd5b506101847f000000000000000000000000000000000000000000000000000000000000000081565b3480156103dc57600080fd5b506101c16103eb366004613d33565b610dd3565b6101c16103fe366004613cbd565b610fda565b34801561040f57600080fd5b5061044661041e366004613cbd565b6001600160a01b03908116600090815260036020526040902054640100000000900416151590565b6040519015158152602001610198565b34801561046257600080fd5b506101c1610471366004613d46565b611084565b34801561048257600080fd5b506101847f000000000000000000000000000000000000000000000000000000000000000081565b3480156104b657600080fd5b506104de7f000000000000000000000000000000000000000000000000000000000000000081565b6040516101989190613dbf565b3480156104f757600080fd5b5061026b610506366004613cbd565b60026020526000908152604090205481565b34801561052457600080fd5b50610558610533366004613cbd565b600160208190526000918252604090912080549101546001600160401b039091169082565b604080516001600160401b039093168352602083019190915201610198565b34801561058357600080fd5b506101847f000000000000000000000000000000000000000000000000000000000000000081565b3480156105b757600080fd5b506101847f000000000000000000000000000000000000000000000000000000000000000081565b60005b818110156106125761060a8383838181106105ff576105ff613de7565b905060800201610617565b6001016105e2565b505050565b60006106266020830183613cbd565b9050600061eeee61063a6020850185613cbd565b6001600160a01b031614905080801561066d575061eeee6106616060850160408601613cbd565b6001600160a01b031614155b8015610692575060006106866060850160408601613cbd565b6001600160a01b031614155b156106d1576106a76060840160408501613cbd565b604051630a0a3b6b60e31b81526001600160a01b0390911660048201526024015b60405180910390fd5b62030d406106e56040850160208601613dfd565b63ffffffff161080156106f6575080155b156107385762030d4061070f6040850160208601613dfd565b604051634f3dbeb360e11b815263ffffffff9283166004820152911660248201526044016106c8565b61086f7f00000000000000000000000000000000000000000000000000000000000000006001600160a01b031663293c49996040518163ffffffff1660e01b8152600401602060405180830381865afa158015610799573d6000803e3d6000fd5b505050506040513d601f19601f820116820180604052508101906107bd9190613e23565b6040516331a9108f60e11b81527f000000000000000000000000000000000000000000000000000000000000000060048201526001600160a01b039190911690636352211e90602401602060405180830381865afa158015610823573d6000803e3d6000fd5b505050506040513d601f19601f820116820180604052508101906108479190613e23565b7f0000000000000000000000000000000000000000000000000000000000000000601c6110b8565b60006108816060850160408601613cbd565b6001600160a01b03161480156108b157506001600160a01b03821660009081526020819052604090206001015415155b1561090c576001600160a01b0380831660009081526003602090815260408083208151606081018352815463ffffffff811682526401000000009004909516928501929092526001909101549083015261090c91849061123c565b604051806060016040528084602001602081019061092a9190613dfd565b63ffffffff1681526020016109456060860160408701613cbd565b6001600160a01b0390811682526060909501356020918201529284166000908152600384526040908190208251815495840151909616640100000000026001600160c01b031990951663ffffffff909616959095179390931784559091015160019092019190915550565b6001600160a01b0383166109d7576040516309a9c30b60e41b815260040160405180910390fd5b60405163ea78803f60e01b81527f000000000000000000000000000000000000000000000000000000000000000060048201526000907f00000000000000000000000000000000000000000000000000000000000000006001600160a01b03169063ea78803f90602401602060405180830381865afa158015610a5e573d6000803e3d6000fd5b505050506040513d601f19601f82011682018060405250810190610a829190613e23565b90506001600160a01b038116610aab57604051635a33845560e01b815260040160405180910390fd5b6001600160a01b03828116600090815260036020526040902054640100000000900416610af65760405163393e175160e01b81526001600160a01b03831660048201526024016106c8565b610b0b6001600160a01b0382163330886115e3565b6000610b198287858761164a565b9050610b278684838861183d565b505050505050565b6000466001819003610b4357600a91505090565b80600a03610b5357600191505090565b8062aa36a703610b675762aa37dc91505090565b8062aa37dc03610b7b5762aa36a791505090565b5090565b60007f00000000000000000000000000000000000000000000000000000000000000006001811115610bb357610bb3613da9565b14610bd15760405163218a9a2d60e11b815260040160405180910390fd5b6001600160a01b038116600090815260026020526040902054610bf59082906119c1565b50565b610c0133611d73565b610c1e57604051630439dbd360e51b815260040160405180910390fd5b60208101803590600290600090610c359085613cbd565b6001600160a01b03166001600160a01b031681526020019081526020016000206000828254610c649190613e56565b90915550600190506000610c7b6020840184613cbd565b6001600160a01b0316815260208101919091526040908101600020546001600160401b031690610cb19060608401908401613e7e565b6001600160401b03161115610bf5576040810160016000610cd56020850185613cbd565b6001600160a01b031681526020810191909152604001600020610cf88282613e9b565b50610d0890506020820182613cbd565b6001600160a01b03167f551b6b99b4c48e3265d2885ab0d93779be2402293261e074f7bf74b2c8f45b6f610d426060840160408501613e7e565b604080516001600160401b039092168252606085013560208301520160405180910390a250565b6000602081815291815260409081902080546001820154835161044081018086526001600160401b0390931695919490926002850192849283019184919082845b815481526020019060010190808311610daa575050509183525050602091820154910152905083565b610e0b6060820135610de86020840184613cbd565b6080840135610dfd6060860160408701613cbd565b602086013560a08701611e70565b60017f00000000000000000000000000000000000000000000000000000000000000006001811115610e3f57610e3f613da9565b03610e5e57610e5e610e546020830183613cbd565b60808301356119c1565b604051632eec7b5560e11b81527f000000000000000000000000000000000000000000000000000000000000000060048201527f00000000000000000000000000000000000000000000000000000000000000006001600160a01b031690635dd8f6aa90602401602060405180830381865afa158015610ee2573d6000803e3d6000fd5b505050506040513d601f19601f82011682018060405250810190610f069190613e23565b6001600160a01b031663c7fb92de7f000000000000000000000000000000000000000000000000000000000000000060608401803590610f499060408701613cbd565b6040516001600160e01b031960e086901b168152600481019390935260248301919091526001600160a01b0316604482015260a06064820152600060a48201819052608482015260c4016020604051808303816000875af1158015610fb2573d6000803e3d6000fd5b505050506040513d601f19601f82011682018060405250810190610fd69190613ece565b5050565b6001600160a01b0380821660008181526003602090815260408083208151606081018352815463ffffffff811682526401000000009004909616868401526001908101548683018190529484529183905290912001541015611079576040808201516001600160a01b0384166000908152602081905282902060010154915163091df9e560e31b81526106c89290600401918252602082015260400190565b610fd634838361123c565b60005b81811015610612576110b08383838181106110a4576110a4613de7565b90506104a00201610dd3565b600101611087565b336001600160a01b038416811480159061116f575060405163c161c93f60e01b81526001600160a01b038281166004830152858116602483015260448201859052606482018490527f0000000000000000000000000000000000000000000000000000000000000000169063c161c93f90608401602060405180830381865afa158015611149573d6000803e3d6000fd5b505050506040513d601f19601f8201168201806040525081019061116d9190613ee7565b155b8015611218575060405163c161c93f60e01b81526001600160a01b038281166004830152858116602483015260006044830152606482018490527f0000000000000000000000000000000000000000000000000000000000000000169063c161c93f90608401602060405180830381865afa1580156111f2573d6000803e3d6000fd5b505050506040513d601f19601f820116820180604052508101906112169190613ee7565b155b156112365760405163075fd2b160e01b815260040160405180910390fd5b50505050565b6000831561125d576040516352864b0160e11b815260040160405180910390fd5b6001600160a01b0383166000908152602081905260408120600181018054908390558154909291908290611299906001600160401b0316613f09565b91906101000a8154816001600160401b0302191690836001600160401b031602179055905060006001600160a01b031684602001516001600160a01b0316036113005760405163393e175160e01b81526001600160a01b03861660048201526024016106c8565b6001600160a01b03851661eeee146113fb5761133d857f000000000000000000000000000000000000000000000000000000000000000084611fa0565b6020808501518551604080519384018152600084525163540abf7360e01b81526001600160a01b037f0000000000000000000000000000000000000000000000000000000000000000169363540abf73936113c4938b9391927f0000000000000000000000000000000000000000000000000000000000000000928a929190600401613f7f565b600060405180830381600087803b1580156113de57600080fd5b505af11580156113f2573d6000803e3d6000fd5b505050506113ff565b8192505b6001600160a01b038516600090815260208190526040812061142390600201612030565b6001600160a01b0387166000908152602081905260408120602201549192509061144f90600190613fd2565b604080516060810182526020808a01516001600160a01b039081168352818301898152845180860186526001600160401b03808b1682528185018a9052858701918252955194518316602486015290516044850152518051909416606484015292015160848201529192507f00000000000000000000000000000000000000000000000000000000000000001690633dbb202b9087907f00000000000000000000000000000000000000000000000000000000000000009060a40160408051601f198184030181529181526020820180516001600160e01b03166369d31fdd60e01b179052516001600160e01b031960e086901b168152611559929190620493e090600401613fe5565b6000604051808303818588803b15801561157257600080fd5b505af1158015611586573d6000803e3d6000fd5b5050604080518581526001600160401b03881660208201526001600160a01b038c1694508693507f3e069c1f498cba23d7d2b74b84311469e8da6e527cade62061d642c61b64e0de92500160405180910390a35050505050505050565b6040516001600160a01b0384811660248301528381166044830152606482018390526112369186918216906323b872dd906084015b604051602081830303815290604052915060e01b6020820180516001600160e01b0383818316178352505050506133e6565b604051630862026560e41b81527f000000000000000000000000000000000000000000000000000000000000000060048201526001600160a01b03838116602483015260009182917f00000000000000000000000000000000000000000000000000000000000000001690638620265090604401602060405180830381865afa1580156116db573d6000803e3d6000fd5b505050506040513d601f19601f820116820180604052508101906116ff9190613e23565b90506001600160a01b03811661175957604051630c9ae01360e01b81527f000000000000000000000000000000000000000000000000000000000000000060048201526001600160a01b03851660248201526044016106c8565b60006117658530613449565b60408051602081018252600081529051635db90a7f60e11b81529192506001600160a01b0384169163bb7214fe916117cb9130917f0000000000000000000000000000000000000000000000000000000000000000918b918d918c91869160040161401f565b6020604051808303816000875af11580156117ea573d6000803e3d6000fd5b505050506040513d601f19601f8201168201806040525081019061180e9190613ece565b92508061181b8630613449565b6118259190613fd2565b831461183357611833614071565b5050949350505050565b600061184a8584846134e0565b6001600160a01b0385166000908152602081815260408083208151610440810180845295965093946118b59487949093600290930192849290830191849182845b81548152602001906001019080831161188b57505050918352505060209182015491015290613525565b6001600160a01b038616600090815260208181526040909120825192935083926002909101916118e6918391613b28565b50602091820151908201556001600160a01b03861660009081529081905260408120600101805486929061191b908490613e56565b92505081905550846001600160a01b0316836001600160a01b03167f7b58dbb78e7edc690b0688a53dea0c443d630c4a5db66c3c47d4ff2044c9772884600185602001516119699190613fd2565b6001600160a01b038a16600090815260208190526040902061198d90600201612030565b60408051938452602084019290925290820152606081018a90526080810188905260a00160405180910390a3505050505050565b6001600160a01b038216600090815260026020526040902054808211156119fb57604051632858f9ab60e11b815260040160405180910390fd5b6001600160a01b03838116600081815260026020526040808220868603905551630862026560e41b81527f000000000000000000000000000000000000000000000000000000000000000060048201526024810192909252917f00000000000000000000000000000000000000000000000000000000000000001690638620265090604401602060405180830381865afa158015611a9d573d6000803e3d6000fd5b505050506040513d601f19601f82011682018060405250810190611ac19190613e23565b90506001600160a01b038116611b1b57604051630c9ae01360e01b81527f000000000000000000000000000000000000000000000000000000000000000060048201526001600160a01b03851660248201526044016106c8565b6001600160a01b03841661eeee14611ccb576040516370a0823160e01b81523060048201526000906001600160a01b038616906370a0823190602401602060405180830381865afa158015611b74573d6000803e3d6000fd5b505050506040513d601f19601f82011682018060405250810190611b989190613ece565b9050611ba5858386611fa0565b60408051602080820183526000808352835191820184528082529251639e6eec0560e01b81526001600160a01b03861693639e6eec0593611c12937f0000000000000000000000000000000000000000000000000000000000000000938c938c9390929091600401614087565b600060405180830381600087803b158015611c2c57600080fd5b505af1158015611c40573d6000803e3d6000fd5b505050508381611c509190613fd2565b6040516370a0823160e01b81523060048201526001600160a01b038716906370a0823190602401602060405180830381865afa158015611c94573d6000803e3d6000fd5b505050506040513d601f19601f82011682018060405250810190611cb89190613ece565b14611cc557611cc5614071565b50611236565b60408051602080820183526000808352835191820184528082529251639e6eec0560e01b81526001600160a01b03851693639e6eec05938893611d3b937f0000000000000000000000000000000000000000000000000000000000000000938c9387939192909190600401614087565b6000604051808303818588803b158015611d5457600080fd5b505af1158015611d68573d6000803e3d6000fd5b505050505050505050565b60007f00000000000000000000000000000000000000000000000000000000000000006001600160a01b0316826001600160a01b0316148015611e6a57507f00000000000000000000000000000000000000000000000000000000000000006001600160a01b03167f00000000000000000000000000000000000000000000000000000000000000006001600160a01b0316636e296e456040518163ffffffff1660e01b81526004016020604051808303816000875af1158015611e3b573d6000803e3d6000fd5b505050506040513d601f19601f82011682018060405250810190611e5f9190613e23565b6001600160a01b0316145b92915050565b6001600160a01b0385166000908152600460209081526040808320600886901c8452909152902054600160ff84161b1615611ec15760405163ed9bdd0760e01b8152600481018390526024016106c8565b6001600160a01b0385166000908152600460209081526040808320600886901c845290915281208054600160ff86161b179055611f30611f028887876134e0565b60408051610400818101909252908590602090839083908082843760009201919091525087915061362b9050565b6001600160a01b038716600090815260016020819052604090912001549091508114611f97576001600160a01b0386166000908152600160208190526040918290200154905163286f87c960e21b81526004810191909152602481018290526044016106c8565b50505050505050565b604080516001600160a01b038416602482015260448082018490528251808303909101815260649091019091526020810180516001600160e01b031663095ea7b360e01b179052611ff18482613979565b611236576040516001600160a01b0384811660248301526000604483015261202691869182169063095ea7b390606401611618565b61123684826133e6565b602081015460009080820361206757507f27ae5ba08d7291c96c8cbddcc148bf48a6d68c7974b94356f53754ef6171d75792915050565b600083600183161561208957805460005260006020526040600020935061293c565b60028316156120ce5760018101546000527fad3228b676f7d3cd4284a5443f17f1962b36e491b30a40b2405849e597ba5fb5602052604060002093506001915061293c565b60048316156121135760028101546000527fb4c11951957c6f8f642c4af61cd6b24640fec6dc7fc607ee8206a99e92410d30602052604060002093506002915061293c565b60088316156121585760038101546000527f21ddb9a356815c3fac1026b6dec5df3124afbadb485c9ba5a3e3398a04b7ba85602052604060002093506003915061293c565b601083161561219d5760048101546000527fe58769b32a1beaf1ea27375a44095a0d1fb664ce2dd358e7fcbfb78c26a19344602052604060002093506004915061293c565b60208316156121e25760058101546000527f0eb01ebfc9ed27500cd4dfc979272d1f0913cc9f66540d7e8005811109e1cf2d602052604060002093506005915061293c565b60408316156122275760068101546000527f887c22bd8750d34016ac3c66b5ff102dacdd73f6b014e710b51e8022af9a1968602052604060002093506006915061293c565b608083161561226c5760078101546000527fffd70157e48063fc33c97a050f7f640233bf646cc98d9524c6b92bcf3ab56f83602052604060002093506007915061293c565b6101008316156122b25760088101546000527f9867cc5f7f196b93bae1e27e6320742445d290f2263827498b54fec539f756af602052604060002093506008915061293c565b6102008316156122f85760098101546000527fcefad4e508c098b9a7e1d8feb19955fb02ba9675585078710969d3440f5054e0602052604060002093506009915061293c565b61040083161561233e57600a8101546000527ff9dc3e7fe016e050eff260334f18a5d4fe391d82092319f5964f2e2eb7c1c3a560205260406000209350600a915061293c565b61080083161561238457600b8101546000527ff8b13a49e282f609c317a833fb8d976d11517c571d1221a265d25af778ecf89260205260406000209350600b915061293c565b6110008316156123ca57600c8101546000527f3490c6ceeb450aecdc82e28293031d10c7d73bf85e57bf041a97360aa2c5d99c60205260406000209350600c915061293c565b61200083161561241057600d8101546000527fc1df82d9c4b87413eae2ef048f94b4d3554cea73d92b0f7af96e0271c691e2bb60205260406000209350600d915061293c565b61400083161561245657600e8101546000527f5c67add7c6caf302256adedf7ab114da0acfe870d449a3a489f781d659e8becc60205260406000209350600e915061293c565b61800083161561249c57600f8101546000527fda7bce9f4e8618b6bd2f4132ce798cdc7a60e7e1460a7299e3c6342a579626d260205260406000209350600f915061293c565b620100008316156124e35760108101546000527f2733e50f526ec2fa19a22b31e8ed50f23cd1fdf94c9154ed3a7609a2f1ff981f602052604060002093506010915061293c565b6202000083161561252a5760118101546000527fe1d3b5c807b281e4683cc6d6315cf95b9ade8641defcb32372f1c126e398ef7a602052604060002093506011915061293c565b620400008316156125715760128101546000527f5a2dce0a8a7f68bb74560f8f71837c2c2ebbcbf7fffb42ae1896f13f7c7479a0602052604060002093506012915061293c565b620800008316156125b85760138101546000527fb46a28b6f55540f89444f63de0378e3d121be09e06cc9ded1c20e65876d36aa0602052604060002093506013915061293c565b621000008316156125ff5760148101546000527fc65e9645644786b620e2dd2ad648ddfcbf4a7e5b1a3a4ecfe7f64667a3f0b7e2602052604060002093506014915061293c565b622000008316156126465760158101546000527ff4418588ed35a2458cffeb39b93d26f18d2ab13bdce6aee58e7b99359ec2dfd9602052604060002093506015915061293c565b6240000083161561268d5760168101546000527f5a9c16dc00d6ef18b7933a6f8dc65ccb55667138776f7dea101070dc8796e377602052604060002093506016915061293c565b628000008316156126d45760178101546000527f4df84f40ae0c8229d0d6069e5c8f39a7c299677a09d367fc7b05e3bc380ee652602052604060002093506017915061293c565b630100000083161561271c5760188101546000527fcdc72595f74c7b1043d0e1ffbab734648c838dfb0527d971b602bc216c9619ef602052604060002093506018915061293c565b63020000008316156127645760198101546000527f0abf5ac974a1ed57f4050aa510dd9c74f508277b39d7973bb2dfccc5eeb0618d602052604060002093506019915061293c565b63040000008316156127ac57601a8101546000527fb8cd74046ff337f0a7bf2c8e03e10f642c1886798d71806ab1e888d9e5ee87d060205260406000209350601a915061293c565b63080000008316156127f457601b8101546000527f838c5655cb21c6cb83313b5a631175dff4963772cce9108188b34ac87c81c41e60205260406000209350601b915061293c565b631000000083161561283c57601c8101546000527f662ee4dd2dd7b2bc707961b1e646c4047669dcb6584f0d8d770daf5d7e7deb2e60205260406000209350601c915061293c565b632000000083161561288457601d8101546000527f388ab20e2573d171a88108e79d820e98f26c0b84aa8b2f4aa4968dbb818ea32260205260406000209350601d915061293c565b63400000008316156128cc57601e8101546000527f93237c50ba75ee485f4c22adf2f741400bdf8d6a9cc7df7ecae576221665d73560205260406000209350601e915061293c565b638000000083161561291457601f8101546000527f8448818bb4ae4562849e949e17ac16e0be16688e156b5cf15e098c627c0056a960205260406000209350601f915061293c565b7f27ae5ba08d7291c96c8cbddcc148bf48a6d68c7974b94356f53754ef6171d7579350602091505b601e82116133de57600182101561299a5760028316801561296857600182015460005284602052612991565b846000527fad3228b676f7d3cd4284a5443f17f1962b36e491b30a40b2405849e597ba5fb56020525b50604060002093505b60028210156129f0576004831680156129be576002820154600052846020526129e7565b846000527fb4c11951957c6f8f642c4af61cd6b24640fec6dc7fc607ee8206a99e92410d306020525b50604060002093505b6003821015612a4657600883168015612a1457600382015460005284602052612a3d565b846000527f21ddb9a356815c3fac1026b6dec5df3124afbadb485c9ba5a3e3398a04b7ba856020525b50604060002093505b6004821015612a9c57601083168015612a6a57600482015460005284602052612a93565b846000527fe58769b32a1beaf1ea27375a44095a0d1fb664ce2dd358e7fcbfb78c26a193446020525b50604060002093505b6005821015612af257602083168015612ac057600582015460005284602052612ae9565b846000527f0eb01ebfc9ed27500cd4dfc979272d1f0913cc9f66540d7e8005811109e1cf2d6020525b50604060002093505b6006821015612b4857604083168015612b1657600682015460005284602052612b3f565b846000527f887c22bd8750d34016ac3c66b5ff102dacdd73f6b014e710b51e8022af9a19686020525b50604060002093505b6007821015612b9e57608083168015612b6c57600782015460005284602052612b95565b846000527fffd70157e48063fc33c97a050f7f640233bf646cc98d9524c6b92bcf3ab56f836020525b50604060002093505b6008821015612bf55761010083168015612bc357600882015460005284602052612bec565b846000527f9867cc5f7f196b93bae1e27e6320742445d290f2263827498b54fec539f756af6020525b50604060002093505b6009821015612c4c5761020083168015612c1a57600982015460005284602052612c43565b846000527fcefad4e508c098b9a7e1d8feb19955fb02ba9675585078710969d3440f5054e06020525b50604060002093505b600a821015612ca35761040083168015612c7157600a82015460005284602052612c9a565b846000527ff9dc3e7fe016e050eff260334f18a5d4fe391d82092319f5964f2e2eb7c1c3a56020525b50604060002093505b600b821015612cfa5761080083168015612cc857600b82015460005284602052612cf1565b846000527ff8b13a49e282f609c317a833fb8d976d11517c571d1221a265d25af778ecf8926020525b50604060002093505b600c821015612d515761100083168015612d1f57600c82015460005284602052612d48565b846000527f3490c6ceeb450aecdc82e28293031d10c7d73bf85e57bf041a97360aa2c5d99c6020525b50604060002093505b600d821015612da85761200083168015612d7657600d82015460005284602052612d9f565b846000527fc1df82d9c4b87413eae2ef048f94b4d3554cea73d92b0f7af96e0271c691e2bb6020525b50604060002093505b600e821015612dff5761400083168015612dcd57600e82015460005284602052612df6565b846000527f5c67add7c6caf302256adedf7ab114da0acfe870d449a3a489f781d659e8becc6020525b50604060002093505b600f821015612e565761800083168015612e2457600f82015460005284602052612e4d565b846000527fda7bce9f4e8618b6bd2f4132ce798cdc7a60e7e1460a7299e3c6342a579626d26020525b50604060002093505b6010821015612eae576201000083168015612e7c57601082015460005284602052612ea5565b846000527f2733e50f526ec2fa19a22b31e8ed50f23cd1fdf94c9154ed3a7609a2f1ff981f6020525b50604060002093505b6011821015612f06576202000083168015612ed457601182015460005284602052612efd565b846000527fe1d3b5c807b281e4683cc6d6315cf95b9ade8641defcb32372f1c126e398ef7a6020525b50604060002093505b6012821015612f5e576204000083168015612f2c57601282015460005284602052612f55565b846000527f5a2dce0a8a7f68bb74560f8f71837c2c2ebbcbf7fffb42ae1896f13f7c7479a06020525b50604060002093505b6013821015612fb6576208000083168015612f8457601382015460005284602052612fad565b846000527fb46a28b6f55540f89444f63de0378e3d121be09e06cc9ded1c20e65876d36aa06020525b50604060002093505b601482101561300e576210000083168015612fdc57601482015460005284602052613005565b846000527fc65e9645644786b620e2dd2ad648ddfcbf4a7e5b1a3a4ecfe7f64667a3f0b7e26020525b50604060002093505b60158210156130665762200000831680156130345760158201546000528460205261305d565b846000527ff4418588ed35a2458cffeb39b93d26f18d2ab13bdce6aee58e7b99359ec2dfd96020525b50604060002093505b60168210156130be57624000008316801561308c576016820154600052846020526130b5565b846000527f5a9c16dc00d6ef18b7933a6f8dc65ccb55667138776f7dea101070dc8796e3776020525b50604060002093505b60178210156131165762800000831680156130e45760178201546000528460205261310d565b846000527f4df84f40ae0c8229d0d6069e5c8f39a7c299677a09d367fc7b05e3bc380ee6526020525b50604060002093505b601882101561316f5763010000008316801561313d57601882015460005284602052613166565b846000527fcdc72595f74c7b1043d0e1ffbab734648c838dfb0527d971b602bc216c9619ef6020525b50604060002093505b60198210156131c857630200000083168015613196576019820154600052846020526131bf565b846000527f0abf5ac974a1ed57f4050aa510dd9c74f508277b39d7973bb2dfccc5eeb0618d6020525b50604060002093505b601a821015613221576304000000831680156131ef57601a82015460005284602052613218565b846000527fb8cd74046ff337f0a7bf2c8e03e10f642c1886798d71806ab1e888d9e5ee87d06020525b50604060002093505b601b82101561327a5763080000008316801561324857601b82015460005284602052613271565b846000527f838c5655cb21c6cb83313b5a631175dff4963772cce9108188b34ac87c81c41e6020525b50604060002093505b601c8210156132d3576310000000831680156132a157601c820154600052846020526132ca565b846000527f662ee4dd2dd7b2bc707961b1e646c4047669dcb6584f0d8d770daf5d7e7deb2e6020525b50604060002093505b601d82101561332c576320000000831680156132fa57601d82015460005284602052613323565b846000527f388ab20e2573d171a88108e79d820e98f26c0b84aa8b2f4aa4968dbb818ea3226020525b50604060002093505b601e8210156133855763400000008316801561335357601e8201546000528460205261337c565b846000527f93237c50ba75ee485f4c22adf2f741400bdf8d6a9cc7df7ecae576221665d7356020525b50604060002093505b601f8210156133de576380000000831680156133ac57601f820154600052846020526133d5565b846000527f8448818bb4ae4562849e949e17ac16e0be16688e156b5cf15e098c627c0056a96020525b50604060002093505b505050919050565b60006133fb6001600160a01b03841683613a21565b9050805160001415801561342057508080602001905181019061341e9190613ee7565b155b1561061257604051635274afe760e01b81526001600160a01b03841660048201526024016106c8565b600061eeed196001600160a01b0384160161346f57506001600160a01b03811631611e6a565b6040516370a0823160e01b81526001600160a01b0383811660048301528416906370a0823190602401602060405180830381865afa1580156134b5573d6000803e3d6000fd5b505050506040513d601f19601f820116820180604052508101906134d99190613ece565b9392505050565b60408051602081018590529081018390526001600160a01b03821660608201526000906080016040516020818303038152906040528051906020012090509392505050565b61352d613b62565b600083602001805161353e906140ce565b9081905290506001613552602060026141cb565b61355c9190613fd2565b81111561357c57604051638eab04bb60e01b815260040160405180910390fd5b60005b602081101561361157816001166001036135b8578451849082602081106135a8576135a8613de7565b602002015250839150611e6a9050565b845181602081106135cb576135cb613de7565b6020020151846040516020016135eb929190918252602082015260400190565b60408051601f1981840301815291905280516020909101209350600191821c910161357f565b50604051638eab04bb60e01b815260040160405180910390fd5b6020600582811b8216948552835194820394909452604060008181206002851615871b808503919091528386015190528181206004851615871b808503919091528286015190528181206008851615871b80850391909152606086015190528181206010851615871b8085039190915260808087015190915282822084861615881b8086039190915260a0870151905282822083861615881b8086039190915260c0870151905282822090851615871b8085039190915260e0860151905281812061010080861615881b80860392909252860151905281812061020080861615881b80860392909252610120870151909152828220610400861615881b808603919091526101408701519052828220610800861615881b808603919091526101608701519052828220611000861615881b808603919091526101808701519052828220612000861615881b808603919091526101a08701519052828220614000861615881b808603919091526101c08701519052828220618000861615881b808603919091526101e0870151905282822062010000861615881b8086039190915290860151905281812062020000851615871b80850391909152610220860151905281812062040000851615871b80850391909152610240860151905281812062080000851615871b80850391909152610260860151905281812062100000851615871b80850391909152610280860151905281812062200000851615871b808503919091526102a0860151905281812062400000851615871b808503919091526102c0860151905281812062800000851615871b808503919091526102e086015190528181206301000000851615871b8085039190915261030086015190528181206302000000851615871b8085039190915261032086015190528181206304000000851615871b8085039190915261034086015190528181206308000000851615871b8085039190915261036086015190528181206310000000851615871b8085039190915261038086015190528181206320000000851615871b808503919091526103a086015190528181206340000000851615871b808503919091526103c0860151905281812063800000009094161590951b91829003929092526103e090920151909152902090565b6000806000846001600160a01b03168460405161399691906141d7565b6000604051808303816000865af19150503d80600081146139d3576040519150601f19603f3d011682016040523d82523d6000602084013e6139d8565b606091505b5091509150818015613a02575080511580613a02575080806020019051810190613a029190613ee7565b8015613a1857506000856001600160a01b03163b115b95945050505050565b60606134d98383600084600080856001600160a01b03168486604051613a4791906141d7565b60006040518083038185875af1925050503d8060008114613a84576040519150601f19603f3d011682016040523d82523d6000602084013e613a89565b606091505b5091509150613a99868383613aa3565b9695505050505050565b606082613ab857613ab382613aff565b6134d9565b8151158015613acf57506001600160a01b0384163b155b15613af857604051639996b31560e01b81526001600160a01b03851660048201526024016106c8565b50806134d9565b805115613b0f5780518082602001fd5b604051630a12f52160e11b815260040160405180910390fd5b8260208101928215613b56579160200282015b82811115613b56578251825591602001919060010190613b3b565b50610b7b929150613b82565b6040518060400160405280613b75613b97565b8152602001600081525090565b5b80821115610b7b5760008155600101613b83565b6040518061040001604052806020906020820280368337509192915050565b60008060208385031215613bc957600080fd5b82356001600160401b0380821115613be057600080fd5b818501915085601f830112613bf457600080fd5b813581811115613c0357600080fd5b8660208260071b8501011115613c1857600080fd5b60209290920196919550909350505050565b600060808284031215613c3c57600080fd5b50919050565b600060808284031215613c5457600080fd5b6134d98383613c2a565b6001600160a01b0381168114610bf557600080fd5b60008060008060808587031215613c8957600080fd5b843593506020850135613c9b81613c5e565b9250604085013591506060850135613cb281613c5e565b939692955090935050565b600060208284031215613ccf57600080fd5b81356134d981613c5e565b6001600160401b038416815260208082018490528251610460830191906000604085015b83821015613d1c578251815291830191600191909101908301613cfe565b505050506020830151610440830152949350505050565b60006104a08284031215613c3c57600080fd5b60008060208385031215613d5957600080fd5b82356001600160401b0380821115613d7057600080fd5b818501915085601f830112613d8457600080fd5b813581811115613d9357600080fd5b8660206104a083028501011115613c1857600080fd5b634e487b7160e01b600052602160045260246000fd5b6020810160028310613de157634e487b7160e01b600052602160045260246000fd5b91905290565b634e487b7160e01b600052603260045260246000fd5b600060208284031215613e0f57600080fd5b813563ffffffff811681146134d957600080fd5b600060208284031215613e3557600080fd5b81516134d981613c5e565b634e487b7160e01b600052601160045260246000fd5b80820180821115611e6a57611e6a613e40565b6001600160401b0381168114610bf557600080fd5b600060208284031215613e9057600080fd5b81356134d981613e69565b8135613ea681613e69565b6001600160401b0381166001600160401b031983541617825550602082013560018201555050565b600060208284031215613ee057600080fd5b5051919050565b600060208284031215613ef957600080fd5b815180151581146134d957600080fd5b60006001600160401b03808316818103613f2557613f25613e40565b6001019392505050565b60005b83811015613f4a578181015183820152602001613f32565b50506000910152565b60008151808452613f6b816020860160208601613f2f565b601f01601f19169290920160200192915050565b6001600160a01b0387811682528681166020830152851660408201526060810184905263ffffffff8316608082015260c060a08201819052600090613fc690830184613f53565b98975050505050505050565b81810381811115611e6a57611e6a613e40565b6001600160a01b038416815260606020820181905260009061400990830185613f53565b905063ffffffff83166040830152949350505050565b600060018060a01b03808a168352886020840152808816604084015286606084015285608084015280851660a08401525060e060c083015261406460e0830184613f53565b9998505050505050505050565b634e487b7160e01b600052600160045260246000fd5b86815260018060a01b0386166020820152846040820152831515606082015260c0608082015260006140bc60c0830185613f53565b82810360a08401526140648185613f53565b6000600182016140e0576140e0613e40565b5060010190565b600181815b8085111561412257816000190482111561410857614108613e40565b8085161561411557918102915b93841c93908002906140ec565b509250929050565b60008261413957506001611e6a565b8161414657506000611e6a565b816001811461415c576002811461416657614182565b6001915050611e6a565b60ff84111561417757614177613e40565b50506001821b611e6a565b5060208310610133831016604e8410600b84101617156141a5575081810a611e6a565b6141af83836140e7565b80600019048211156141c3576141c3613e40565b029392505050565b60006134d9838361412a565b600082516141e9818460208701613f2f565b919091019291505056fea2646970667358221220323d3e589f2f36893695abe76901f81ffe89ea25d149f9258a5c294c4d22cd6564736f6c63430008170033a2646970667358221220ecd6bdab14ee0b1a07064b4ca88e3006bf547134adc855ca60a14e7c9c9c474664736f6c63430008170033",
	"devdoc": {
		"kind": "dev",
		"methods": {
			"createForSender(uint256,bytes32)": {
				"details": "Uses the sender address as the salt, which means the same sender must call this function on both chains.",
				"params": {
					"localProjectId": "The project's ID on the local chain.",
					"salt": "The salt to use for the `create2` address."
				},
				"returns": {
					"sucker": "The address of the new sucker."
				}
			}
		},
		"version": 1
	},
	"userdoc": {
		"kind": "user",
		"methods": {
			"BRIDGE()": {
				"notice": "The bridge used to bridge tokens between the local and remote chain."
			},
			"MESSENGER()": {
				"notice": "The messenger used to send messages between the local and remote sucker."
			},
			"PERMISSIONS()": {
				"notice": "A contract storing permissions."
			},
			"configureLayerSpecific(address,address)": {
				"notice": "handles some layer specific configuration that can't be done in the constructor otherwise deployment addresses would change.messenger the OPMesssenger on this layer.bridge the OPStandardBridge on this layer."
			},
			"createForSender(uint256,bytes32)": {
				"notice": "Create a new `BPSucker` for a specific project."
			},
			"isSucker(address)": {
				"notice": "A mapping of suckers deployed by this contract."
			}
		},
		"version": 1
	},
	"gitCommit": "bba96e863e226f15600b9a3af7d174731433e687",
	"sourceName": "src/deployers/BPOptimismSuckerDeployer.sol",
	"chainId": "11155420",
	"linkReferences": {},
	"deployedLinkReferences": {},
	"history": [
		{
			"_format": "sphinx-sol-ct-artifact-1",
			"merkleRoot": "0x75f4f83937fbaf3bdaf806a1687af681ee192e2a8cec235c61e4962233bccba2",
			"contractName": "BPOptimismSuckerDeployer",
			"address": "0xC72502282Acb59D63cde258b34c71EFffbC4Ee97",
			"abi": [
				{
					"type": "constructor",
					"inputs": [
						{
							"name": "prices",
							"type": "address",
							"internalType": "contract IJBPrices"
						},
						{
							"name": "rulesets",
							"type": "address",
							"internalType": "contract IJBRulesets"
						},
						{
							"name": "directory",
							"type": "address",
							"internalType": "contract IJBDirectory"
						},
						{
							"name": "tokens",
							"type": "address",
							"internalType": "contract IJBTokens"
						},
						{
							"name": "permissions",
							"type": "address",
							"internalType": "contract IJBPermissions"
						}
					],
					"stateMutability": "nonpayable"
				},
				{
					"type": "function",
					"name": "BRIDGE",
					"inputs": [],
					"outputs": [
						{
							"name": "",
							"type": "address",
							"internalType": "contract OPStandardBridge"
						}
					],
					"stateMutability": "view"
				},
				{
					"type": "function",
					"name": "MESSENGER",
					"inputs": [],
					"outputs": [
						{
							"name": "",
							"type": "address",
							"internalType": "contract OPMessenger"
						}
					],
					"stateMutability": "view"
				},
				{
					"type": "function",
					"name": "PERMISSIONS",
					"inputs": [],
					"outputs": [
						{
							"name": "",
							"type": "address",
							"internalType": "contract IJBPermissions"
						}
					],
					"stateMutability": "view"
				},
				{
					"type": "function",
					"name": "configureLayerSpecific",
					"inputs": [
						{
							"name": "messenger",
							"type": "address",
							"internalType": "contract OPMessenger"
						},
						{
							"name": "bridge",
							"type": "address",
							"internalType": "contract OPStandardBridge"
						}
					],
					"outputs": [],
					"stateMutability": "nonpayable"
				},
				{
					"type": "function",
					"name": "createForSender",
					"inputs": [
						{
							"name": "localProjectId",
							"type": "uint256",
							"internalType": "uint256"
						},
						{
							"name": "salt",
							"type": "bytes32",
							"internalType": "bytes32"
						}
					],
					"outputs": [
						{
							"name": "sucker",
							"type": "address",
							"internalType": "contract IBPSucker"
						}
					],
					"stateMutability": "nonpayable"
				},
				{
					"type": "function",
					"name": "isSucker",
					"inputs": [
						{
							"name": "",
							"type": "address",
							"internalType": "address"
						}
					],
					"outputs": [
						{
							"name": "",
							"type": "bool",
							"internalType": "bool"
						}
					],
					"stateMutability": "view"
				},
				{
					"type": "function",
					"name": "useAllowanceFeeless",
					"inputs": [
						{
							"name": "projectId",
							"type": "uint256",
							"internalType": "uint256"
						},
						{
							"name": "terminal",
							"type": "address",
							"internalType": "contract IJBPayoutTerminal"
						},
						{
							"name": "token",
							"type": "address",
							"internalType": "address"
						},
						{
							"name": "currency",
							"type": "uint32",
							"internalType": "uint32"
						},
						{
							"name": "amount",
							"type": "uint256",
							"internalType": "uint256"
						},
						{
							"name": "minReceivedTokens",
							"type": "uint256",
							"internalType": "uint256"
						}
					],
					"outputs": [
						{
							"name": "",
							"type": "uint256",
							"internalType": "uint256"
						}
					],
					"stateMutability": "nonpayable"
				},
				{
					"type": "error",
					"name": "ALREADY_CONFIGURED",
					"inputs": []
				},
				{
					"type": "error",
					"name": "ONLY_SUCKERS",
					"inputs": []
				},
				{
					"type": "error",
					"name": "UNAUTHORIZED",
					"inputs": []
				}
			],
			"solcInputHash": "81d7eb0337c2ab730c7ae21c6b54a37b",
			"receipt": {
				"blockHash": "0x46fa1a4b668cf370a1f6ed17da42f836f31ec9662b26603dfb8ebd2e173dddac",
				"blockNumber": 9198987,
				"contractAddress": null,
				"cumulativeGasUsed": "6998645",
				"from": "0xC034550B542b83BA1De312b21d1C94a9a52B1595",
				"gasPrice": "1000252",
				"gasUsed": "6848760",
				"hash": "0x4ea9dde8517ef4f9ed795f1ff590f69de6296c135c4d085d5883e06d77d8543b",
				"index": 3,
				"logs": [
					{
						"address": "0xB5E96127D417b1B3ef8438496a38A143167209c7",
						"blockHash": "0x46fa1a4b668cf370a1f6ed17da42f836f31ec9662b26603dfb8ebd2e173dddac",
						"blockNumber": 9198987,
						"data": "0x0000000000000000000000000000000000000000000000000000000000000000",
						"index": 2,
						"topics": [
							"0x572f161235911da04685a68c06adf558fc7e4a36909dca394650e0adc19cc93d",
							"0x000000000000000000000000c034550b542b83ba1de312b21d1c94a9a52b1595",
							"0x0000000000000000000000002251543da4a5ef946705b931c7e8b74756764a18",
							"0x0967fbb69dd51440c454650681c067761f8cbd287d3dcb441add41580399d1b3"
						],
						"transactionHash": "0x4ea9dde8517ef4f9ed795f1ff590f69de6296c135c4d085d5883e06d77d8543b",
						"transactionIndex": 3
					},
					{
						"address": "0x6a65B75A3f37C6702A117Fb87B6bCaC62657d216",
						"blockHash": "0x46fa1a4b668cf370a1f6ed17da42f836f31ec9662b26603dfb8ebd2e173dddac",
						"blockNumber": 9198987,
						"data": "0x",
						"index": 3,
						"topics": [
							"0x6895c13664aa4f67288b25d7a21d7aaa34916e355fb9b6fae0a139a9085becb8",
							"0x0000000000000000000000002251543da4a5ef946705b931c7e8b74756764a18"
						],
						"transactionHash": "0x4ea9dde8517ef4f9ed795f1ff590f69de6296c135c4d085d5883e06d77d8543b",
						"transactionIndex": 3
					},
					{
						"address": "0x2251543Da4A5eF946705B931C7e8b74756764a18",
						"blockHash": "0x46fa1a4b668cf370a1f6ed17da42f836f31ec9662b26603dfb8ebd2e173dddac",
						"blockNumber": 9198987,
						"data": "0x0000000000000000000000000000000000000000000000000000000000000001",
						"index": 4,
						"topics": [
							"0xa65fb05c5808f5f389d72edeaf719ce38f4cc55c1f69ca3cbfb31c21501caa07",
							"0x75f4f83937fbaf3bdaf806a1687af681ee192e2a8cec235c61e4962233bccba2"
						],
						"transactionHash": "0x4ea9dde8517ef4f9ed795f1ff590f69de6296c135c4d085d5883e06d77d8543b",
						"transactionIndex": 3
					},
					{
						"address": "0x6a65B75A3f37C6702A117Fb87B6bCaC62657d216",
						"blockHash": "0x46fa1a4b668cf370a1f6ed17da42f836f31ec9662b26603dfb8ebd2e173dddac",
						"blockNumber": 9198987,
						"data": "0x",
						"index": 5,
						"topics": [
							"0x6895c13664aa4f67288b25d7a21d7aaa34916e355fb9b6fae0a139a9085becb8",
							"0x0000000000000000000000002251543da4a5ef946705b931c7e8b74756764a18"
						],
						"transactionHash": "0x4ea9dde8517ef4f9ed795f1ff590f69de6296c135c4d085d5883e06d77d8543b",
						"transactionIndex": 3
					},
					{
						"address": "0x2251543Da4A5eF946705B931C7e8b74756764a18",
						"blockHash": "0x46fa1a4b668cf370a1f6ed17da42f836f31ec9662b26603dfb8ebd2e173dddac",
						"blockNumber": 9198987,
						"data": "0x0000000000000000000000000000000000000000000000000000000000000002",
						"index": 6,
						"topics": [
							"0xa65fb05c5808f5f389d72edeaf719ce38f4cc55c1f69ca3cbfb31c21501caa07",
							"0x75f4f83937fbaf3bdaf806a1687af681ee192e2a8cec235c61e4962233bccba2"
						],
						"transactionHash": "0x4ea9dde8517ef4f9ed795f1ff590f69de6296c135c4d085d5883e06d77d8543b",
						"transactionIndex": 3
					},
					{
						"address": "0x4Be9d88bE6e7A38644EA746cF78cB1BF30051C76",
						"blockHash": "0x46fa1a4b668cf370a1f6ed17da42f836f31ec9662b26603dfb8ebd2e173dddac",
						"blockNumber": 9198987,
						"data": "0x",
						"index": 7,
						"topics": [
							"0x8be0079c531659141344cd1fd0a4f28419497f9722a3daafe3b4186f6b6457e0",
							"0x0000000000000000000000004e59b44847b379578588920ca78fbf26c0b4956c",
							"0x0000000000000000000000006a65b75a3f37c6702a117fb87b6bcac62657d216"
						],
						"transactionHash": "0x4ea9dde8517ef4f9ed795f1ff590f69de6296c135c4d085d5883e06d77d8543b",
						"transactionIndex": 3
					},
					{
						"address": "0x6a65B75A3f37C6702A117Fb87B6bCaC62657d216",
						"blockHash": "0x46fa1a4b668cf370a1f6ed17da42f836f31ec9662b26603dfb8ebd2e173dddac",
						"blockNumber": 9198987,
						"data": "0x",
						"index": 8,
						"topics": [
							"0x6895c13664aa4f67288b25d7a21d7aaa34916e355fb9b6fae0a139a9085becb8",
							"0x0000000000000000000000002251543da4a5ef946705b931c7e8b74756764a18"
						],
						"transactionHash": "0x4ea9dde8517ef4f9ed795f1ff590f69de6296c135c4d085d5883e06d77d8543b",
						"transactionIndex": 3
					},
					{
						"address": "0x2251543Da4A5eF946705B931C7e8b74756764a18",
						"blockHash": "0x46fa1a4b668cf370a1f6ed17da42f836f31ec9662b26603dfb8ebd2e173dddac",
						"blockNumber": 9198987,
						"data": "0x0000000000000000000000000000000000000000000000000000000000000003",
						"index": 9,
						"topics": [
							"0xa65fb05c5808f5f389d72edeaf719ce38f4cc55c1f69ca3cbfb31c21501caa07",
							"0x75f4f83937fbaf3bdaf806a1687af681ee192e2a8cec235c61e4962233bccba2"
						],
						"transactionHash": "0x4ea9dde8517ef4f9ed795f1ff590f69de6296c135c4d085d5883e06d77d8543b",
						"transactionIndex": 3
					},
					{
						"address": "0x4Be9d88bE6e7A38644EA746cF78cB1BF30051C76",
						"blockHash": "0x46fa1a4b668cf370a1f6ed17da42f836f31ec9662b26603dfb8ebd2e173dddac",
						"blockNumber": 9198987,
						"data": "0x000000000000000000000000c72502282acb59d63cde258b34c71efffbc4ee97",
						"index": 10,
						"topics": [
							"0xf6e6facda29906a01d337146a9b928ac09b423901f28e0e001d43550448b370b"
						],
						"transactionHash": "0x4ea9dde8517ef4f9ed795f1ff590f69de6296c135c4d085d5883e06d77d8543b",
						"transactionIndex": 3
					},
					{
						"address": "0x6a65B75A3f37C6702A117Fb87B6bCaC62657d216",
						"blockHash": "0x46fa1a4b668cf370a1f6ed17da42f836f31ec9662b26603dfb8ebd2e173dddac",
						"blockNumber": 9198987,
						"data": "0x",
						"index": 11,
						"topics": [
							"0x6895c13664aa4f67288b25d7a21d7aaa34916e355fb9b6fae0a139a9085becb8",
							"0x0000000000000000000000002251543da4a5ef946705b931c7e8b74756764a18"
						],
						"transactionHash": "0x4ea9dde8517ef4f9ed795f1ff590f69de6296c135c4d085d5883e06d77d8543b",
						"transactionIndex": 3
					},
					{
						"address": "0x2251543Da4A5eF946705B931C7e8b74756764a18",
						"blockHash": "0x46fa1a4b668cf370a1f6ed17da42f836f31ec9662b26603dfb8ebd2e173dddac",
						"blockNumber": 9198987,
						"data": "0x0000000000000000000000000000000000000000000000000000000000000004",
						"index": 12,
						"topics": [
							"0xa65fb05c5808f5f389d72edeaf719ce38f4cc55c1f69ca3cbfb31c21501caa07",
							"0x75f4f83937fbaf3bdaf806a1687af681ee192e2a8cec235c61e4962233bccba2"
						],
						"transactionHash": "0x4ea9dde8517ef4f9ed795f1ff590f69de6296c135c4d085d5883e06d77d8543b",
						"transactionIndex": 3
					},
					{
						"address": "0x6a65B75A3f37C6702A117Fb87B6bCaC62657d216",
						"blockHash": "0x46fa1a4b668cf370a1f6ed17da42f836f31ec9662b26603dfb8ebd2e173dddac",
						"blockNumber": 9198987,
						"data": "0x",
						"index": 13,
						"topics": [
							"0x6895c13664aa4f67288b25d7a21d7aaa34916e355fb9b6fae0a139a9085becb8",
							"0x0000000000000000000000002251543da4a5ef946705b931c7e8b74756764a18"
						],
						"transactionHash": "0x4ea9dde8517ef4f9ed795f1ff590f69de6296c135c4d085d5883e06d77d8543b",
						"transactionIndex": 3
					},
					{
						"address": "0x2251543Da4A5eF946705B931C7e8b74756764a18",
						"blockHash": "0x46fa1a4b668cf370a1f6ed17da42f836f31ec9662b26603dfb8ebd2e173dddac",
						"blockNumber": 9198987,
						"data": "0x0000000000000000000000000000000000000000000000000000000000000005",
						"index": 14,
						"topics": [
							"0xa65fb05c5808f5f389d72edeaf719ce38f4cc55c1f69ca3cbfb31c21501caa07",
							"0x75f4f83937fbaf3bdaf806a1687af681ee192e2a8cec235c61e4962233bccba2"
						],
						"transactionHash": "0x4ea9dde8517ef4f9ed795f1ff590f69de6296c135c4d085d5883e06d77d8543b",
						"transactionIndex": 3
					},
					{
						"address": "0x2251543Da4A5eF946705B931C7e8b74756764a18",
						"blockHash": "0x46fa1a4b668cf370a1f6ed17da42f836f31ec9662b26603dfb8ebd2e173dddac",
						"blockNumber": 9198987,
						"data": "0x",
						"index": 15,
						"topics": [
							"0x4383d976757d67ca920616be0b6430a681ea9d3dcce8d6d61d4603ca4a9bff63",
							"0x75f4f83937fbaf3bdaf806a1687af681ee192e2a8cec235c61e4962233bccba2"
						],
						"transactionHash": "0x4ea9dde8517ef4f9ed795f1ff590f69de6296c135c4d085d5883e06d77d8543b",
						"transactionIndex": 3
					}
				],
				"logsBloom": "0x0000000008005000000800000008000000020000404800000880000000404000000000000000000000000000004001000000000000080000000000000000000000000000000020000000000002000000000100000000000000000400000800000000000000000000000000000000000020000000000000002000000000000040000000000000000000010004000000000000000000300000000000000000000000c000800011000000001000000000020208000000000000000000000004000000000000000000000008040008000000000000000002000000000000100000000000000000000008000000000000000280000000000000000000000208000000",
				"status": 1,
				"to": "0xB5E96127D417b1B3ef8438496a38A143167209c7"
			},
			"metadata": "{\"compiler\":{\"version\":\"0.8.23+commit.f704f362\"},\"language\":\"Solidity\",\"output\":{\"abi\":[{\"inputs\":[{\"internalType\":\"contract IJBPrices\",\"name\":\"prices\",\"type\":\"address\"},{\"internalType\":\"contract IJBRulesets\",\"name\":\"rulesets\",\"type\":\"address\"},{\"internalType\":\"contract IJBDirectory\",\"name\":\"directory\",\"type\":\"address\"},{\"internalType\":\"contract IJBTokens\",\"name\":\"tokens\",\"type\":\"address\"},{\"internalType\":\"contract IJBPermissions\",\"name\":\"permissions\",\"type\":\"address\"}],\"stateMutability\":\"nonpayable\",\"type\":\"constructor\"},{\"inputs\":[],\"type\":\"error\",\"name\":\"ALREADY_CONFIGURED\"},{\"inputs\":[],\"type\":\"error\",\"name\":\"ONLY_SUCKERS\"},{\"inputs\":[],\"type\":\"error\",\"name\":\"UNAUTHORIZED\"},{\"inputs\":[],\"stateMutability\":\"view\",\"type\":\"function\",\"name\":\"BRIDGE\",\"outputs\":[{\"internalType\":\"contract OPStandardBridge\",\"name\":\"\",\"type\":\"address\"}]},{\"inputs\":[],\"stateMutability\":\"view\",\"type\":\"function\",\"name\":\"MESSENGER\",\"outputs\":[{\"internalType\":\"contract OPMessenger\",\"name\":\"\",\"type\":\"address\"}]},{\"inputs\":[],\"stateMutability\":\"view\",\"type\":\"function\",\"name\":\"PERMISSIONS\",\"outputs\":[{\"internalType\":\"contract IJBPermissions\",\"name\":\"\",\"type\":\"address\"}]},{\"inputs\":[{\"internalType\":\"contract OPMessenger\",\"name\":\"messenger\",\"type\":\"address\"},{\"internalType\":\"contract OPStandardBridge\",\"name\":\"bridge\",\"type\":\"address\"}],\"stateMutability\":\"nonpayable\",\"type\":\"function\",\"name\":\"configureLayerSpecific\"},{\"inputs\":[{\"internalType\":\"uint256\",\"name\":\"localProjectId\",\"type\":\"uint256\"},{\"internalType\":\"bytes32\",\"name\":\"salt\",\"type\":\"bytes32\"}],\"stateMutability\":\"nonpayable\",\"type\":\"function\",\"name\":\"createForSender\",\"outputs\":[{\"internalType\":\"contract IBPSucker\",\"name\":\"sucker\",\"type\":\"address\"}]},{\"inputs\":[{\"internalType\":\"address\",\"name\":\"\",\"type\":\"address\"}],\"stateMutability\":\"view\",\"type\":\"function\",\"name\":\"isSucker\",\"outputs\":[{\"internalType\":\"bool\",\"name\":\"\",\"type\":\"bool\"}]},{\"inputs\":[{\"internalType\":\"uint256\",\"name\":\"projectId\",\"type\":\"uint256\"},{\"internalType\":\"contract IJBPayoutTerminal\",\"name\":\"terminal\",\"type\":\"address\"},{\"internalType\":\"address\",\"name\":\"token\",\"type\":\"address\"},{\"internalType\":\"uint32\",\"name\":\"currency\",\"type\":\"uint32\"},{\"internalType\":\"uint256\",\"name\":\"amount\",\"type\":\"uint256\"},{\"internalType\":\"uint256\",\"name\":\"minReceivedTokens\",\"type\":\"uint256\"}],\"stateMutability\":\"nonpayable\",\"type\":\"function\",\"name\":\"useAllowanceFeeless\",\"outputs\":[{\"internalType\":\"uint256\",\"name\":\"\",\"type\":\"uint256\"}]}],\"devdoc\":{\"kind\":\"dev\",\"methods\":{\"createForSender(uint256,bytes32)\":{\"details\":\"Uses the sender address as the salt, which means the same sender must call this function on both chains.\",\"params\":{\"localProjectId\":\"The project's ID on the local chain.\",\"salt\":\"The salt to use for the `create2` address.\"},\"returns\":{\"sucker\":\"The address of the new sucker.\"}},\"useAllowanceFeeless(uint256,address,address,uint32,uint256,uint256)\":{\"details\":\"This function can only be called by suckers deployed by this contract.This function can only be called by suckers with `JBPermissionIds.USE_ALLOWANCE` permission from the project's owner.This function is not necessarily feeless, as it still requires JuiceboxDAO to set the address as feeless.\",\"params\":{\"amount\":\"The amount to use from the terminal, denominated in the `currency`.\",\"currency\":\"The currency that the `amount` is denominated in.\",\"minReceivedTokens\":\"The minimum amount of terminal tokens to receive. If the terminal returns less than this amount, the transaction will revert.\",\"projectId\":\"The project's ID.\",\"terminal\":\"The terminal to use the surplus allowance from.\",\"token\":\"The token that the surplus is in.\"},\"returns\":{\"_0\":\"The amount of tokens received.\"}}},\"version\":1},\"userdoc\":{\"kind\":\"user\",\"methods\":{\"BRIDGE()\":{\"notice\":\"The bridge used to bridge tokens between the local and remote chain.\"},\"MESSENGER()\":{\"notice\":\"The messenger used to send messages between the local and remote sucker.\"},\"PERMISSIONS()\":{\"notice\":\"A contract storing permissions.\"},\"createForSender(uint256,bytes32)\":{\"notice\":\"Create a new `BPSucker` for a specific project.\"},\"isSucker(address)\":{\"notice\":\"A mapping of suckers deployed by this contract.\"},\"useAllowanceFeeless(uint256,address,address,uint32,uint256,uint256)\":{\"notice\":\"Use a project's surplus allowance without paying exit fees.\"}},\"version\":1}},\"settings\":{\"remappings\":[\"@arbitrum/=node_modules/@arbitrum/\",\"@bananapus/=node_modules/@bananapus/\",\"@chainlink/=node_modules/@chainlink/\",\"@eth-optimism/=node_modules/@eth-optimism/\",\"@gnosis.pm/=node_modules/@gnosis.pm/\",\"@offchainlabs/=node_modules/@offchainlabs/\",\"@openzeppelin/=node_modules/@openzeppelin/\",\"@prb/=node_modules/@prb/\",\"@sphinx-labs/contracts/=node_modules/@sphinx-labs/contracts/contracts/foundry/\",\"@uniswap/=node_modules/@uniswap/\",\"ds-test/=lib/forge-std/lib/ds-test/src/\",\"forge-std/=lib/forge-std/src/\",\"hardhat/=node_modules/hardhat/\",\"solmate/=node_modules/solmate/\",\"sphinx-forge-std/=node_modules/sphinx-forge-std/\",\"sphinx-solmate/=node_modules/sphinx-solmate/\",\"sphinx/=lib/sphinx/packages/contracts/contracts/forge-std/src/\"],\"optimizer\":{\"enabled\":true,\"runs\":200},\"metadata\":{\"bytecodeHash\":\"ipfs\"},\"compilationTarget\":{\"src/deployers/BPOptimismSuckerDeployer.sol\":\"BPOptimismSuckerDeployer\"},\"evmVersion\":\"paris\",\"libraries\":{}},\"sources\":{\"node_modules/@bananapus/core/src/abstract/JBPermissioned.sol\":{\"keccak256\":\"0xbe593894bc9893f7fe5c96f14c013add8f50df762538e3d7cb96ed39ad195664\",\"urls\":[\"bzz-raw://efb81264b24776e6be537680abaeb8c4893e70d8a62231748d860e25a7c2340d\",\"dweb:/ipfs/QmacN9gFgPqkhTEwRD7Zben3whq9DRr2ZkSmScGvioTXXR\"],\"license\":\"MIT\"},\"node_modules/@bananapus/core/src/enums/JBApprovalStatus.sol\":{\"keccak256\":\"0x61c69b6bac7d24b566d87cda23a77e4ca9cdb87200b106aba8534cb9a0973e33\",\"urls\":[\"bzz-raw://6a9ca7249de76f77a8252eefe6bd1b63d47952f25a2acfa2c8db967cdff4470c\",\"dweb:/ipfs/QmaxSxptRQNj8bNy96EreENmrnRWdKmhyihBcxyWzBX5BN\"],\"license\":\"MIT\"},\"node_modules/@bananapus/core/src/interfaces/IJBControlled.sol\":{\"keccak256\":\"0x79fb8de7b3f809f1c3c7189f578b7331ec4dfe3350151d5b50240ecb3a2a907b\",\"urls\":[\"bzz-raw://45c82240dd4f0e9aec00d0d86f6b44bdda231db098ebdac17e922771b3e6f342\",\"dweb:/ipfs/QmPUvT8HZeVenrZDpP14HsZofaXPJjih8UAd35rTg3tU7E\"],\"license\":\"MIT\"},\"node_modules/@bananapus/core/src/interfaces/IJBController.sol\":{\"keccak256\":\"0xfe88b4ddf528542fde8f8fcc650281f48ca291d5432ec3f02cf8f064ecd79b22\",\"urls\":[\"bzz-raw://f71da06a55abca8cdcc447fd554df2fa2377a276679b2113f2cec8db635d70a4\",\"dweb:/ipfs/QmT3H3aWByCVVAhiB1DrPuG1Scm4GtyXWVcEP1p7GCmVJA\"],\"license\":\"MIT\"},\"node_modules/@bananapus/core/src/interfaces/IJBDirectory.sol\":{\"keccak256\":\"0xd15957cc32974cde4f9f194b92574df2ad8a7aeec049d947136ce3381f9145f6\",\"urls\":[\"bzz-raw://7543e5cbde75ff777b16067016ff9ac5e995752842f03662137eb4ef3fc3c868\",\"dweb:/ipfs/QmPJZAmqNKRcj1JQ4Kc9hExbMtPPzrRB5hZ787utCfBmXg\"],\"license\":\"MIT\"},\"node_modules/@bananapus/core/src/interfaces/IJBDirectoryAccessControl.sol\":{\"keccak256\":\"0x1e67f56849320a46f834aaa9bd62b170ff8ada7b224b4a81136193740fa0be4d\",\"urls\":[\"bzz-raw://ea8fbcec44abfe49d137bcae129b67e5479d6b17879301f88534c8a7fab00be4\",\"dweb:/ipfs/QmT6wrtYX4GRpffHUzupNwYebJ1dqkkKZLEewWsoyunsqw\"],\"license\":\"MIT\"},\"node_modules/@bananapus/core/src/interfaces/IJBFundAccessLimits.sol\":{\"keccak256\":\"0x2a2ece23837bedde2fddb728476e558bc37c644f641d397a8e08e8a1a85ea390\",\"urls\":[\"bzz-raw://f44187b5a720cdbe5af325331a5e351fc8504853836fb54b997c597949246726\",\"dweb:/ipfs/QmSKM2aMpnof458iCeui2Wkf7S8FfBRGs9zF3QG5DJLf7C\"],\"license\":\"MIT\"},\"node_modules/@bananapus/core/src/interfaces/IJBMigratable.sol\":{\"keccak256\":\"0xd69bd5aba01a68d82c303ef3adde47532abcace030a94296c3ea6988b401789c\",\"urls\":[\"bzz-raw://88f11a1c89899327746beba4fc830abf3ac2eb9c152c778e884a6eed6564971f\",\"dweb:/ipfs/QmTpKhSTVewpz7VyKcz6BJwH2LFKMwT7Qi5HNWmjEjwsdK\"],\"license\":\"MIT\"},\"node_modules/@bananapus/core/src/interfaces/IJBPayHook.sol\":{\"keccak256\":\"0xe24aa2ca52f7a5f24f24ccae101cfc94d0f76705b2d23222f87c7852f8be4267\",\"urls\":[\"bzz-raw://6888140e9a7d4156fd22635654d5d08e21819af8b0356b5415f37b75083b3eb9\",\"dweb:/ipfs/QmbuwBNhar7rEbRhTJPiyo5PVsfaM5nqLow9NAkHhyvjV5\"],\"license\":\"MIT\"},\"node_modules/@bananapus/core/src/interfaces/IJBPermissioned.sol\":{\"keccak256\":\"0x5b038d4dee116584e88b230920e56d48e135053e3f7e5642eaea14a775c1dad7\",\"urls\":[\"bzz-raw://19e43102f349fd4a1da1c0943ffb8f2950007fe4bb4bb7e8f74fc142575d091b\",\"dweb:/ipfs/QmXHAt4KzDTdDZgDDefEXH2WKi7NcfkJb9R7nxW5uDqsNp\"],\"license\":\"MIT\"},\"node_modules/@bananapus/core/src/interfaces/IJBPermissions.sol\":{\"keccak256\":\"0x18870e500edf0fbadc353e273a5574701fb80466376b908c65e7cc3f11044d4d\",\"urls\":[\"bzz-raw://352a47c45853aec80e7acf0d286ade3106eb4cb456776b28a3c2f3f1091bed90\",\"dweb:/ipfs/QmQeYd3YbudYZy2hfbfht9kwhxhw4tuuLKMEYy9UY6dcSy\"],\"license\":\"MIT\"},\"node_modules/@bananapus/core/src/interfaces/IJBPriceFeed.sol\":{\"keccak256\":\"0x4bd84c0f1a5d4729ed709bcddd43f4c50ec4a165ece79780af8dce482ed07d4a\",\"urls\":[\"bzz-raw://62bac4bfb6982fb002f620c77e5c445e62d50241a5aa64a07e51d929f5a42180\",\"dweb:/ipfs/QmWgJUDreVY2BuMX38a1iUUR5kNbMwGnKG3VvurB7oZtuM\"],\"license\":\"MIT\"},\"node_modules/@bananapus/core/src/interfaces/IJBPrices.sol\":{\"keccak256\":\"0x99525f31440b955742dce84ba57de9fc1221139b5367c1f834723bef9e13e6e1\",\"urls\":[\"bzz-raw://6fa03f0cd4ad87dd7cbae7bf7f54463450874291773c8f70f2c31ef2cae62bb0\",\"dweb:/ipfs/QmSPajPV5ismteJuB6Spzm9VmhTj2iS3eVrfpJC1Zuzg8n\"],\"license\":\"MIT\"},\"node_modules/@bananapus/core/src/interfaces/IJBProjectUriRegistry.sol\":{\"keccak256\":\"0x2799475228987e4f8334ac33d3935f759c9b8133db7383b4f622dde7a5dc0502\",\"urls\":[\"bzz-raw://d751731740f45df74eea48c9667e847ee2cddb2980ab4939c86bd17e6c6ed89b\",\"dweb:/ipfs/QmXW8SLTuhdUpfn7pRpdsYdcyuim8RTyagU37ULcj5UZhT\"],\"license\":\"MIT\"},\"node_modules/@bananapus/core/src/interfaces/IJBProjects.sol\":{\"keccak256\":\"0x85539f72c5871c53a919edc7db78931155464e9e00fccd30079b17e75820ddb9\",\"urls\":[\"bzz-raw://505466dbfbdeec77f948ce065676897a5b4a74b70bb234c1053b893c4849f3a1\",\"dweb:/ipfs/QmYBpZQub3Mv19xsRWqvzgiQSBAp4UNaKcqWQ2wwH62H95\"],\"license\":\"MIT\"},\"node_modules/@bananapus/core/src/interfaces/IJBRedeemHook.sol\":{\"keccak256\":\"0x4ea5b7ed510c9d29aca47ae3f8b41ef075dff4b9909779ec2c0e5b7bc30250c6\",\"urls\":[\"bzz-raw://770b785134ba71e3284dc7e05e44f429e7a8393423ad45cf8fe540408a5b9633\",\"dweb:/ipfs/QmRjXJxZPA1qZos7QjeCxJZ8sCfXfkyDFbzkdqzaqCD9Ds\"],\"license\":\"MIT\"},\"node_modules/@bananapus/core/src/interfaces/IJBRulesetApprovalHook.sol\":{\"keccak256\":\"0x5e9f921a6aa5d9396a12bbc0a878c3f5e8ae0a4ce8a3abe0de12e300718838d7\",\"urls\":[\"bzz-raw://6c9f0610f5bbe07554a1bdc39041be1284c20d81d930bec1eee2d374b86e03f4\",\"dweb:/ipfs/QmPH57wBoPERwDWkBCcj9c5tEUdeeLNe2kv1oFM7cTKVrd\"],\"license\":\"MIT\"},\"node_modules/@bananapus/core/src/interfaces/IJBRulesetDataHook.sol\":{\"keccak256\":\"0x3fea9fcab6f0335e67f0f052cf5d3446e9310808f88b5878d21586be00f89f85\",\"urls\":[\"bzz-raw://5506848f471d308a14523f91202d76d960f8255e227d29d34b0892ef70315cae\",\"dweb:/ipfs/QmakRKFctSZobpem1caU2zXqhiPQnaYVa7Y6NdAPAonHaU\"],\"license\":\"MIT\"},\"node_modules/@bananapus/core/src/interfaces/IJBRulesets.sol\":{\"keccak256\":\"0xda1a9aef337cf9fede3f638ffa58aea2815b87fde0f79628834aa03af9f582d7\",\"urls\":[\"bzz-raw://7941690ba6d94500474978ff0f02ecc56335eae5937759878e25cc1ac30a8ecc\",\"dweb:/ipfs/QmZFc7wof6PzfBTkVyNkjaQrQbjc36CK4uC3Ee2vgihqyK\"],\"license\":\"MIT\"},\"node_modules/@bananapus/core/src/interfaces/IJBSplitHook.sol\":{\"keccak256\":\"0xc99bb76736acc5c6409d1ff54cb90218b547fdf7f8a7c0d03ddb7ac9eb35645e\",\"urls\":[\"bzz-raw://7fa7e56f426a758e6125e58d81137569964e46bdfeaf9ea081b9382d80b536a9\",\"dweb:/ipfs/Qmc1wwfBP4xoGKe4BcDnwL11y3Gvk4Dk8r6qqWD4jbdKK4\"],\"license\":\"MIT\"},\"node_modules/@bananapus/core/src/interfaces/IJBSplits.sol\":{\"keccak256\":\"0x2f415b55c1d7b7fdd9ee938897a8a2b5b1c81d2ab2233d678953ea8ab9b3fb24\",\"urls\":[\"bzz-raw://f7cd02ef943cb49db501b300cbe56d5d62e4ac59caef5c38d697fdbdd21d5f9a\",\"dweb:/ipfs/QmXcxH6gBiBLes2kzSNDvPqVuDZxu1xyDPjfEziARMJhHb\"],\"license\":\"MIT\"},\"node_modules/@bananapus/core/src/interfaces/IJBToken.sol\":{\"keccak256\":\"0x911c93ec0053c1ce3c3a82ddefc8a2911f244b159b1b88fa2a7697b5455d67e0\",\"urls\":[\"bzz-raw://a29b34338ffe4310d6fa012cce351a8db98ad84dac40b6886fcbaa76145eefb2\",\"dweb:/ipfs/QmctiW2p99TaZLGBnavS3gE89p2KFoPfCPPpPvZDXsyMq9\"],\"license\":\"MIT\"},\"node_modules/@bananapus/core/src/interfaces/IJBTokenUriResolver.sol\":{\"keccak256\":\"0xfa5cb00dcd6085d1ef912d071fe73c63f9478a2cd0f9d8bddaf659b6af2d0967\",\"urls\":[\"bzz-raw://282e4e7c342d65f77cde0e9a08fcaf20ef5cf379c7a48b639842c0ffd0b2afb8\",\"dweb:/ipfs/QmbnN3PEQeZaXdPLT75V1J79kMg7KqSMru37RHrL3z8Yf2\"],\"license\":\"MIT\"},\"node_modules/@bananapus/core/src/interfaces/IJBTokens.sol\":{\"keccak256\":\"0xbbb3764d6b9d253f7a2b4e13636bf1d523d72be87b144dea6bbd7177b0953ffe\",\"urls\":[\"bzz-raw://417cdba44cf58c833785ec180918d297fcda2539d8476a978cd7d1d39c4b33d2\",\"dweb:/ipfs/QmSewvgMsjqS2fek8LXc4dNGBKhX6odnyNpzr9UmDX3WXE\"],\"license\":\"MIT\"},\"node_modules/@bananapus/core/src/interfaces/terminal/IJBPayoutTerminal.sol\":{\"keccak256\":\"0x69b290ddc214def38e69711ff2cfdf1c571d33653b25520efd98469f6b49c7fa\",\"urls\":[\"bzz-raw://93703189aa74008878f20d2917e14bc6c1572ebd05a5f1e4e28bf255603d86af\",\"dweb:/ipfs/QmTpopL7jfS3GJNgTjTBcSaFcdGGuynQPwuMZR6UjJXJjh\"],\"license\":\"MIT\"},\"node_modules/@bananapus/core/src/interfaces/terminal/IJBRedeemTerminal.sol\":{\"keccak256\":\"0xf43f5c6fb4d2de1b547ecfbf662f48c5cbd7d0bf79c4b784e566cb4b71ad7da7\",\"urls\":[\"bzz-raw://0ded83cc745fab54a035614b845a984933a57056ee27adbd60f5896f47015270\",\"dweb:/ipfs/QmWH19MehMdwgnprq6M3JmZVCaLQSd25ZPwhA5tap2PEKL\"],\"license\":\"MIT\"},\"node_modules/@bananapus/core/src/interfaces/terminal/IJBTerminal.sol\":{\"keccak256\":\"0x36f23bc27e56fa86d100281a75f5a6ce73f39f32e6a1667ce69f902da1d005ee\",\"urls\":[\"bzz-raw://e8ffa2e264fa12444799cb5706ca577034f3f8be9ff7a2f072981de6a61d706d\",\"dweb:/ipfs/QmR6gQDymvk8JQ77J8VxpFD1Hnxga4w7LLiRvAT3m4LG6T\"],\"license\":\"MIT\"},\"node_modules/@bananapus/core/src/libraries/JBConstants.sol\":{\"keccak256\":\"0x9d3a9a953f859d8ec79a599577f8972de6da7199cc1bfa7fdad017d4d722bcb4\",\"urls\":[\"bzz-raw://f151fcb53a8d2684eff8b9e56ac790bcbcadd8199a4fd4d17c5b224b22936722\",\"dweb:/ipfs/QmdAz1ZtCE8nTiC4AxQNLfJhnY3ndGum2Lbef7seKdvTdR\"],\"license\":\"MIT\"},\"node_modules/@bananapus/core/src/libraries/JBRulesetMetadataResolver.sol\":{\"keccak256\":\"0x83f25c531d9e212379b4326fd93bf658a0f6d0e839bbd67bff7b66b9b55fb670\",\"urls\":[\"bzz-raw://3eb4a41ececec705febac7b799d7224e67f12761ae3975d49dd8bddaac608ecd\",\"dweb:/ipfs/QmNgL5VccDhP5xofEcGWNKk3v4KG23wGF9vc3d4YJ5MLnv\"],\"license\":\"MIT\"},\"node_modules/@bananapus/core/src/structs/JBAccountingContext.sol\":{\"keccak256\":\"0x2907ff54d1e903cc7e0390dd88c3975884702dc2673642aacbe22b66560b56de\",\"urls\":[\"bzz-raw://a66a5381ce877b32f0e0058ceeaf843e9b6b2bc8af666c0c9f4a9d01091da004\",\"dweb:/ipfs/QmQynCetUr37dBkS1YwDS8evxuXGiqanW6THmeUxXtim8w\"],\"license\":\"MIT\"},\"node_modules/@bananapus/core/src/structs/JBAfterPayRecordedContext.sol\":{\"keccak256\":\"0xd26c3a774ff38be79064085970454fe2603a23a638c76270d5b1b3829206c3e8\",\"urls\":[\"bzz-raw://3b55dbe3bf1ef625b7ca04efab3de35406e6041d5b3d82c7265469c500e2b702\",\"dweb:/ipfs/QmUdBDo4Lt3mcsFcsXT2mqq3czFwZjQJFPLM89YA2VtD7k\"],\"license\":\"MIT\"},\"node_modules/@bananapus/core/src/structs/JBAfterRedeemRecordedContext.sol\":{\"keccak256\":\"0x521f5d23a36f0da72362cd84890cc867bd83baa8dc836ba6c5066d51dba2f163\",\"urls\":[\"bzz-raw://6cc461313286dde62d045d6288e87bae5032e035796326f5b1ed6218e58aa9da\",\"dweb:/ipfs/QmQS2AkQwf2ANQieDuaUnpJEdXChoLv4CCbZqHkfywYPSR\"],\"license\":\"MIT\"},\"node_modules/@bananapus/core/src/structs/JBBeforePayRecordedContext.sol\":{\"keccak256\":\"0x5b04e814da83c7e83ff892ab07eaad6abce6f7b85a75f8da9380e9fc3470bc81\",\"urls\":[\"bzz-raw://11c889aab993fce3e3cc2dedc15fc30dd367e7fef9b7b1bfd6a6a9f248781731\",\"dweb:/ipfs/QmVVtydCD1azeWhGLxA1hthxfLyKzMHZ1eVzCz3a3R5dLy\"],\"license\":\"MIT\"},\"node_modules/@bananapus/core/src/structs/JBBeforeRedeemRecordedContext.sol\":{\"keccak256\":\"0x73eadaf6827e82f6ccbe3a1e2b2b7fc6c59cef471f73335041b30ddcc000989d\",\"urls\":[\"bzz-raw://2f3ee84662eed565dbdaed406ef836fffaf55cccd417575578152e5085d0b1f2\",\"dweb:/ipfs/QmaJGFS7hxJsiUdKvbv5BKhSwceDEzKBnt7t5YeNWvYgMK\"],\"license\":\"MIT\"},\"node_modules/@bananapus/core/src/structs/JBCurrencyAmount.sol\":{\"keccak256\":\"0x12fe4b43f4824994624d4fe0abbd88c3fe7867fd637edb65c7f456dab27e2d6e\",\"urls\":[\"bzz-raw://8003a3e8f932cf891e86b827e67c9d31b0d34c2712e18c2bc333cfe5284ba6d5\",\"dweb:/ipfs/QmSoA6RsDcSnNzk6CB7KZtALkHmeSDAi2g6fg3TDmLDkWX\"],\"license\":\"MIT\"},\"node_modules/@bananapus/core/src/structs/JBFundAccessLimitGroup.sol\":{\"keccak256\":\"0x9fdaa8d017b72da25f583700a444a86849df053f7fb8eac874ec5139bcf651e5\",\"urls\":[\"bzz-raw://c8e44c49ee444a98424a0dbeb6897a76a0bf00d88a613f62ac2012afdac754ee\",\"dweb:/ipfs/QmdYkAiRi5bXM1YYNkc7BiqimHSFodMGn1cjHR5hcpm4xH\"],\"license\":\"MIT\"},\"node_modules/@bananapus/core/src/structs/JBPayHookSpecification.sol\":{\"keccak256\":\"0x955f0bfca97300b9e5927dc181753830ee362f83fa9ca32a90daade32aa0cfd5\",\"urls\":[\"bzz-raw://f517af1597c7c40f8d3da53f7a6684a3e162950a16559d6bf6ea3b727bb11546\",\"dweb:/ipfs/QmRWo2ZTYXmVZTzNJDYhsJNsEaHphjpUfx9eNz2cciyz86\"],\"license\":\"MIT\"},\"node_modules/@bananapus/core/src/structs/JBPermissionsData.sol\":{\"keccak256\":\"0x8f0f69a6ebf5f3704e3dfcb3712fb9d3f94ae7c1ab89bf3e37bad42a3e7a0487\",\"urls\":[\"bzz-raw://57b0c5e52843e2217082889ed47b4da3943e0da4590d5768dcebfe3edad4a6b8\",\"dweb:/ipfs/QmRz48vuWLw81kUP836rh1qzqWiJFGbksgRUA9xGEDNKTY\"],\"license\":\"MIT\"},\"node_modules/@bananapus/core/src/structs/JBRedeemHookSpecification.sol\":{\"keccak256\":\"0x673d16ee1a91bf8de3b37e57284e60451b70a9c2d748c9cdc7a151f5624af18f\",\"urls\":[\"bzz-raw://ceeb5e81effa0f076c5630c756dfcf1548d09f822b255a0a6ee01e54de8c8ae2\",\"dweb:/ipfs/QmSMoMNPRhPMnuJNvWa6S59XRfycGz9o2ApNp63bUW6TdX\"],\"license\":\"MIT\"},\"node_modules/@bananapus/core/src/structs/JBRuleset.sol\":{\"keccak256\":\"0x15b2bf3174d84846a91ccbf5a344dfb125b55ed9cf50102db8d6868844225189\",\"urls\":[\"bzz-raw://647416b025dbd941094db89cbc69f755c155bd6c87be3f322394ccc4a8e0442d\",\"dweb:/ipfs/QmTCL9xcHnxQ4t5AmCPoZvXDUPW5xhzhyyXYbkMdyg44au\"],\"license\":\"MIT\"},\"node_modules/@bananapus/core/src/structs/JBRulesetConfig.sol\":{\"keccak256\":\"0x344405b459a345fa2cb072b162422b4e85e435ff6ee82eb2c382bf52db929f10\",\"urls\":[\"bzz-raw://e067a0c3fd190cd00177800f8f065264985d4f6737a758f068a8bf5ed1cfdad0\",\"dweb:/ipfs/QmPAMiyfi1cDtandkMSXgoNdo3WLvwmvdcPGeKiot9TTaz\"],\"license\":\"MIT\"},\"node_modules/@bananapus/core/src/structs/JBRulesetMetadata.sol\":{\"keccak256\":\"0xfea54c9f98416d2aa05309e7ff76967d6968a614850a1e33e48fde793ea8b514\",\"urls\":[\"bzz-raw://bf55386cbab90dbc1296b2b0cbfdc217a4500d67702e4a093a4c78bd127ecd5c\",\"dweb:/ipfs/QmTRq9mZrNSXu7oCZwti4JbBFrbY6A5msRqi9RbtL49NAj\"],\"license\":\"MIT\"},\"node_modules/@bananapus/core/src/structs/JBRulesetWithMetadata.sol\":{\"keccak256\":\"0x1bcfadf20488f6df65227f8d4d0fbf9b7539456a2389567f7fe3900d23289bc3\",\"urls\":[\"bzz-raw://0a15c399a71e5373f8c0484c6d6b83521eda31e063a2c53e4c5cec4e74550343\",\"dweb:/ipfs/QmQwi8zkjoTVXbK89NeETYimWCacTrNsesJdpLSvGdqMPX\"],\"license\":\"MIT\"},\"node_modules/@bananapus/core/src/structs/JBSplit.sol\":{\"keccak256\":\"0x1d40fa4f1c911a53b9139f3d44d27cb58fa5c5d2cd793c7a21ccf52b9e61f848\",\"urls\":[\"bzz-raw://9897d2c29fc65fe16e4eac0b7b8b6fd8ef0b0cc501986f7f0c3a78c4ec1dbb60\",\"dweb:/ipfs/QmXcHoVjCYWWCz4hm2KZ6JxtB4YNq7jmXa2evLkga59Xwq\"],\"license\":\"MIT\"},\"node_modules/@bananapus/core/src/structs/JBSplitGroup.sol\":{\"keccak256\":\"0xda7da6e88aac2906c7ea4027660088daf217edc632bebca4d72795aae8921564\",\"urls\":[\"bzz-raw://ae1939d17e94cb51484f31ce64cf0df990445a338fb9b38d39a7baf28275ae4a\",\"dweb:/ipfs/QmUhPnJiWnYhFdtLvZnrPopAdbYXxETpGjvxjPDignpTGY\"],\"license\":\"MIT\"},\"node_modules/@bananapus/core/src/structs/JBSplitHookContext.sol\":{\"keccak256\":\"0xfe34e6860b00ca93d71f44e72882281b2c57c31303151af05795c74cfdd2e51d\",\"urls\":[\"bzz-raw://08acab094888e9c929b6f6f972d89ddbb31e5867675e7e7c602d25fcb2c0f402\",\"dweb:/ipfs/QmPNdXM185cTyXQSodVr4JMviHx88jrWu7dipgkp9xTNgJ\"],\"license\":\"MIT\"},\"node_modules/@bananapus/core/src/structs/JBTerminalConfig.sol\":{\"keccak256\":\"0x141b5d45c0b58dcddb1eeab34ec00c18c60415f8e594d1852c53e6f79dfe53ee\",\"urls\":[\"bzz-raw://ca995ea354eac6f5ebc8ef4fd5c8ece8c88698bac96da65c7aaa497a7bc0f582\",\"dweb:/ipfs/Qmf2BS1LHXtoQJuUYt4UisvYpA5dmieSq1gs51iQjNh2bw\"],\"license\":\"MIT\"},\"node_modules/@bananapus/core/src/structs/JBTokenAmount.sol\":{\"keccak256\":\"0x5cf0626b73a596c1e2da17c89ae039a7c0374310b060d48568d3b6c11fbe6180\",\"urls\":[\"bzz-raw://63348b50be95e2995409394a17caffc563a646f0972650a1230bf864fbd3219b\",\"dweb:/ipfs/QmZXZpS3SbFD5nWaCauf6AqbEhLURv5qsKHpThBvQgDU6u\"],\"license\":\"MIT\"},\"node_modules/@bananapus/permission-ids/src/JBPermissionIds.sol\":{\"keccak256\":\"0xa21681d89f2cf9265a10e6fa63301658ccc62635058cd3c8307aaaec1a045ff3\",\"urls\":[\"bzz-raw://0c825382afb76e79feb81425991637d50d1f1fc4ccaa12953f1e1042853db8d3\",\"dweb:/ipfs/QmPAsLuTziQx8R5PzYrLYDKybc6Ykq8fwG46ofRxQwdjgn\"],\"license\":\"UNLICENSED\"},\"node_modules/@openzeppelin/contracts/token/ERC20/IERC20.sol\":{\"keccak256\":\"0xc6a8ff0ea489379b61faa647490411b80102578440ab9d84e9a957cc12164e70\",\"urls\":[\"bzz-raw://0ea104e577e63faea3b69c415637e99e755dcbf64c5833d7140c35a714d6d90c\",\"dweb:/ipfs/Qmau6x4Ns9XdyynRCNNp3RhLqijJjFm7z5fyZazfYFGYdq\"],\"license\":\"MIT\"},\"node_modules/@openzeppelin/contracts/token/ERC20/extensions/IERC20Permit.sol\":{\"keccak256\":\"0x6008dabfe393240d73d7dd7688033f72740d570aa422254d29a7dce8568f3aff\",\"urls\":[\"bzz-raw://f5196ec75139918c6c7bb4251b36395e668f1fa6d206beba7e7520e74913940d\",\"dweb:/ipfs/QmSyqjksXxmm2mCG6qRd1yuwLykypkSVBbnBnGqJRcuJMi\"],\"license\":\"MIT\"},\"node_modules/@openzeppelin/contracts/token/ERC20/utils/SafeERC20.sol\":{\"keccak256\":\"0x37bb49513c49c87c4642a891b13b63571bc87013dde806617aa1efb54605f386\",\"urls\":[\"bzz-raw://b3036b3a83b7c48f96641f2a9002b9f2dcb6a5958dd670894ada21ae8229b3d0\",\"dweb:/ipfs/QmUNfSBdoVtjhETaUJCYcaC7pTMgbhht926tJ2uXJbiVd3\"],\"license\":\"MIT\"},\"node_modules/@openzeppelin/contracts/token/ERC721/IERC721.sol\":{\"keccak256\":\"0x5ef46daa3b58ef2702279d514780316efaa952915ee1aa3396f041ee2982b0b4\",\"urls\":[\"bzz-raw://2f8f2a76e23b02fc69e8cd24c3cb47da6c7af3a2d6c3a382f8ac25c6e094ade7\",\"dweb:/ipfs/QmPV4ZS4tPVv4mTCf9ejyZ1ai57EEibDRj7mN2ARDCLV5n\"],\"license\":\"MIT\"},\"node_modules/@openzeppelin/contracts/utils/Address.sol\":{\"keccak256\":\"0xaf28a975a78550e45f65e559a3ad6a5ad43b9b8a37366999abd1b7084eb70721\",\"urls\":[\"bzz-raw://b7bd24e224f67f65bfadf85dc2929fa965456bb2415478bd0125471b5ce35245\",\"dweb:/ipfs/QmRaydGr8BTHs1kvaZfsNU69pKzUAGFrvABn1KiRSbE51y\"],\"license\":\"MIT\"},\"node_modules/@openzeppelin/contracts/utils/Context.sol\":{\"keccak256\":\"0x493033a8d1b176a037b2cc6a04dad01a5c157722049bbecf632ca876224dd4b2\",\"urls\":[\"bzz-raw://6a708e8a5bdb1011c2c381c9a5cfd8a9a956d7d0a9dc1bd8bcdaf52f76ef2f12\",\"dweb:/ipfs/Qmax9WHBnVsZP46ZxEMNRQpLQnrdE4dK8LehML1Py8FowF\"],\"license\":\"MIT\"},\"node_modules/@openzeppelin/contracts/utils/Create2.sol\":{\"keccak256\":\"0x2b9807d194b92f1068d868e9587d27037264a9a067c778486f86ae21c61cbd5e\",\"urls\":[\"bzz-raw://22d71f40aa38a20cf466d8647452a6e3f746353474f8c8af40f03aa8cae38420\",\"dweb:/ipfs/QmQ752Hz5av7YDK8pFojzb5qgeXQvfsdkdwkHVzaXoYAZR\"],\"license\":\"MIT\"},\"node_modules/@openzeppelin/contracts/utils/introspection/ERC165.sol\":{\"keccak256\":\"0x9e8778b14317ba9e256c30a76fd6c32b960af621987f56069e1e819c77c6a133\",\"urls\":[\"bzz-raw://1777404f1dcd0fac188e55a288724ec3c67b45288e49cc64723e95e702b49ab8\",\"dweb:/ipfs/QmZFdC626GButBApwDUvvTnUzdinevC3B24d7yyh57XkiA\"],\"license\":\"MIT\"},\"node_modules/@openzeppelin/contracts/utils/introspection/ERC165Checker.sol\":{\"keccak256\":\"0xac3d50e321a48a40b4496970ce725900f13aeb2255b7c1203f5adbe98c4a911a\",\"urls\":[\"bzz-raw://1d7b235b578347dce2d831a76f122e820a7db7e73fd2e47f13bafdcd61c5b066\",\"dweb:/ipfs/QmVAELwambfJa55HfiCoz1kFFh7iYwRYeW5x8si6AFM4iX\"],\"license\":\"MIT\"},\"node_modules/@openzeppelin/contracts/utils/introspection/IERC165.sol\":{\"keccak256\":\"0x4296879f55019b23e135000eb36896057e7101fb7fb859c5ef690cf14643757b\",\"urls\":[\"bzz-raw://87b3541437c8c443ccd36795e56a338ed12855eec17f8da624511b8d1a7e14df\",\"dweb:/ipfs/QmeJQCtZrQjtJLr6u7ZHWeH3pBnjtLWzvRrKViAi7UZqxL\"],\"license\":\"MIT\"},\"node_modules/@openzeppelin/contracts/utils/structs/BitMaps.sol\":{\"keccak256\":\"0x3616f1b0d0a9ee1ca8f0953ecaceb9230e36f691c7974d30f964212acff52d2b\",\"urls\":[\"bzz-raw://d4bebdd07b31ac28e3e596ac6f0333da90a4e332405aa7d65f3a3a7e0b4cf15e\",\"dweb:/ipfs/QmckoDU5bBnye2UtPcrfJNahLD2FbxrnPP9nrREMWPpnug\"],\"license\":\"MIT\"},\"node_modules/@prb/math/src/Common.sol\":{\"keccak256\":\"0xaa374e2c26cc93e8c22a6953804ee05f811597ef5fa82f76824378b22944778b\",\"urls\":[\"bzz-raw://279c732e161d623cf4d8a9519ca4c42c0c2db99842d0eb2a20c10fde3fa722c9\",\"dweb:/ipfs/QmVViuUXbinQGqtG5M21SgVzKihiCbFUChd4tDhtvwRmxH\"],\"license\":\"MIT\"},\"src/BPOptimismSucker.sol\":{\"keccak256\":\"0x23434fe6d3a9f5ed050cc37d8daec0d454854c0711e81c17eee6e48985bb7b55\",\"urls\":[\"bzz-raw://8f6647dc861954ad472ed10955df0bf354a54595fa78ce30a88b079192ce0184\",\"dweb:/ipfs/QmXCjN3newueWV35NV941PTTwPdbqE4TDXnqoidqgT5i3j\"],\"license\":\"MIT\"},\"src/BPSucker.sol\":{\"keccak256\":\"0x6d572953457288fe8283f5fb7296b44e04b6dc15bced307f5bf27c823af55874\",\"urls\":[\"bzz-raw://fe49ba4a3941eab4d328ef4b7ed95981e550bf246c6cedc784e080e5eac85ba5\",\"dweb:/ipfs/QmVYBiDATAoAagzvZDbzeCgWatdYhoREk5J54K4WktsN2M\"],\"license\":\"MIT\"},\"src/BPSuckerHook.sol\":{\"keccak256\":\"0xac2b4ac60f45c40c01b626b0f9f7a5a4c0d02cff27b1cdd89eb60b55a7019d3c\",\"urls\":[\"bzz-raw://abcf3a4009b039ec4fd21e72317cb39c06a404387f985c0769219ec6a218c7aa\",\"dweb:/ipfs/QmaJTh5P8pKYrycdcRBCzegMfpUtTmzphWyQwobvAu99eP\"],\"license\":\"MIT\"},\"src/deployers/BPOptimismSuckerDeployer.sol\":{\"keccak256\":\"0xabd5631af266389a3f4f8baa26e20ec8ab66dc809c6d1f9be7326f147351e009\",\"urls\":[\"bzz-raw://d7439e620f49394afd0102e21daf0378317bb7bf649f3b7bccf1204b6da7d9aa\",\"dweb:/ipfs/QmSR19HWVtao4SwhKXBvY8kiz8cNbravY5dDNb7NXtGMtf\"],\"license\":\"MIT\"},\"src/enums/BPAddToBalanceMode.sol\":{\"keccak256\":\"0xa6dcd5c6225e2b697775d37a6f3a8ae4030f7af1a7cb4bb91d572eef65134e43\",\"urls\":[\"bzz-raw://583699b0f81837a739e5e54a1e0b0400a6021602bd7f48472c8785b22d3f25eb\",\"dweb:/ipfs/QmfL4Jr6p8B5q8uFX1ZfUS5vPsUxiGgMy5udVg9z2kPUQk\"],\"license\":\"MIT\"},\"src/interfaces/IBPSucker.sol\":{\"keccak256\":\"0x02a78d0c6d048fc4ead0fc2f0582bc81a216dc1f097d1e0e3a34a7b2c9490894\",\"urls\":[\"bzz-raw://173df43569bcb1a0daea23b997d67f4c68150cd722b2ce858e5c9fe01cf113e6\",\"dweb:/ipfs/QmaDXu6Xp9sRksBdry2p5turGJ5Uvhnzpwhs6UEXhqorM4\"],\"license\":\"MIT\"},\"src/interfaces/IBPSuckerDeployer.sol\":{\"keccak256\":\"0xe252e890c4b5e12d5fa537a11cd2fad936f41be80240301ace8afca3de481222\",\"urls\":[\"bzz-raw://730855964dd0629f3d514ed52f59d80d02786733c3b8b5cf21e69524de7f8829\",\"dweb:/ipfs/QmUuoYEmnzUNn3hANGrg8sDZdjoaEbgWMWLepsSQt9MUyw\"],\"license\":\"MIT\"},\"src/interfaces/IBPSuckerDeployerFeeless.sol\":{\"keccak256\":\"0xd340e0c2b46c43c1fd55e9f761c693a97a7a4fcd455a671623513ec0341b7c70\",\"urls\":[\"bzz-raw://6b152a3681fa5d749013f43c932ee2dcdb614ca163d10ac1d740c8dd9e0b0d65\",\"dweb:/ipfs/QmWUNd8eB4C7kGjeCrGiQR21sk33xSQTio79msoW5wNQW3\"],\"license\":\"MIT\"},\"src/interfaces/OPMessenger.sol\":{\"keccak256\":\"0x0be6648aa7ed6272db8d415992d16dc10b36a4a8ed2f8e3adac8433ca7834dae\",\"urls\":[\"bzz-raw://1a3aeecda2b108059ce2b271364121d69afa4afcd2d0341eae31d181d5a6881d\",\"dweb:/ipfs/QmcaB3EzUW8btTVa1FCgmhTFqTSAwdmK47K95cV88vg9J9\"],\"license\":\"MIT\"},\"src/interfaces/OPStandardBridge.sol\":{\"keccak256\":\"0xb5717563fc9dcbe47ab2ed8b98a1a5757b51935989b9a78091eb590c8dbb8d5a\",\"urls\":[\"bzz-raw://5d9acbe757d1103be408303d53c25ee8a6b6dc799e8dd58e4756ac4028b4ccd5\",\"dweb:/ipfs/QmVuqESXkFhrcRAAfTkXSXp7uWrN5QA7eAH6x3DpeAoAMe\"],\"license\":\"MIT\"},\"src/structs/BPClaim.sol\":{\"keccak256\":\"0x63a12013ec4c221781b057185a0e01c83ac19dcef115ad6238d25a22011da071\",\"urls\":[\"bzz-raw://0307e4377f2cbd3ec561405eb2ffa07e0d9fe2c39522eb0706e91b46efa1b2a7\",\"dweb:/ipfs/QmXKeKQ6mJGehNJt3v2fqE22MFoGjcpm2x9hHA25vu7xAH\"],\"license\":\"MIT\"},\"src/structs/BPInboxTreeRoot.sol\":{\"keccak256\":\"0xff494c45ee76d14e2ffb3cd0f22412b4a1a4d8e37b957a3ffb82b0b9db4f74ab\",\"urls\":[\"bzz-raw://a896310d4dcfecca8b1927bf82832c9b5de5a455228fd9aad2530729ce61739b\",\"dweb:/ipfs/QmUiep5HvdqgJZyJqt4kKxWuP2odhY5W9kX7pCuovTr3LM\"],\"license\":\"MIT\"},\"src/structs/BPLeaf.sol\":{\"keccak256\":\"0xaa2257b6d8fc05d9b37fdb40472cd2f4bed45e7ddc1ea9082ca5296215602bc8\",\"urls\":[\"bzz-raw://ebdf0d3c3961adb71fd7174f9a8eca8332202d07ee5a584abbb06b7c15db61d0\",\"dweb:/ipfs/QmWtqWUncWvZotfno2kiU5TeT3WTR9zfPzRTiktZskyS13\"],\"license\":\"MIT\"},\"src/structs/BPMessageRoot.sol\":{\"keccak256\":\"0xab832c9e92d412cc0d8e6758777694955fef6dcbc919f96b33052d68d0516d1d\",\"urls\":[\"bzz-raw://fa9fe2604015f05e1a4f2c1a92f4ef7b6cba3d08d9e7daa2b20190a9b1bce39c\",\"dweb:/ipfs/QmUDcrNmqnp1dPwkmPTjsu7Egbwtgsk42G9FNdrHk6JcB2\"],\"license\":\"MIT\"},\"src/structs/BPOutboxTree.sol\":{\"keccak256\":\"0xed569423f6ae3dafee5681a60b7c5d24b0c5f33ff0763937952e938be374d79e\",\"urls\":[\"bzz-raw://4dafb1348a51324105b2ee100e2174fee0f1397f0b2dd00483b2dcf049477ce4\",\"dweb:/ipfs/Qmcf8jizBW7BGGnHBVetaDvYcZ75ov8oYw8LubaNUHrHCv\"],\"license\":\"MIT\"},\"src/structs/BPRemoteToken.sol\":{\"keccak256\":\"0x703d0112f181683d9b3508bf9fc0ef2f5c3cac73de0a718d9f405561fad14622\",\"urls\":[\"bzz-raw://80c0dd5e9ef7648efc48306da2c50829490c41cf09292f0f82fa3e24ce9dbe37\",\"dweb:/ipfs/QmYTgR72bVH3r1xKvMaE1tRUAkqkZjZa2v1eki1973qn3U\"],\"license\":\"MIT\"},\"src/structs/BPTokenMapping.sol\":{\"keccak256\":\"0x84865bda925cdc9a608cbbfc487619acba391f98ae12bbbfdbc5779d617a17d9\",\"urls\":[\"bzz-raw://3bbc1fdd38feaf64fd4914bddb62cda7e5b8ee0f046a0eac8cfcb15f9493bcc5\",\"dweb:/ipfs/QmXgAx7sr1M8r71YrSeQJGAB1uhvdxpQyS633UgJvLCQfb\"],\"license\":\"MIT\"},\"src/utils/MerkleLib.sol\":{\"keccak256\":\"0x6803b76f79362d9b5cd8e32eb1da6ed675146554dcd2f77747c4406f5f7a25f4\",\"urls\":[\"bzz-raw://3db2984a7eae5e7dc78517fd3a696180e95fdf00bf3267b31d1dbaddb0865cab\",\"dweb:/ipfs/QmPG8Nxwcb5Q7unUzMLCwaaRv8MvR7rskfacSDqbDW5zPZ\"],\"license\":\"MIT OR Apache-2.0\"}},\"version\":1}",
			"args": [
				"0x0631183bd45c31F8645F9dCF8705951F730362E9",
				"0x1Eb7799d3A230A0440F0d6C477256Df8d425AdBb",
				"0x18017cfeD48E1dC0Adc445cEF8A9e6AfFCb330DA",
				"0x3295C9c7374E583cb2e6Ed455EAf9908022159D0",
				"0xBA24624AE5dc821866E9E71Ed050412Ef01E2fe6"
			],
			"bytecode": "0x61014060405234801561001157600080fd5b50604051615dfd380380615dfd83398101604081905261003091610076565b6001600160a01b03908116608052336101205293841660a05291831660c052821660e05216610100526100eb565b6001600160a01b038116811461007357600080fd5b50565b600080600080600060a0868803121561008e57600080fd5b85516100998161005e565b60208701519095506100aa8161005e565b60408701519094506100bb8161005e565b60608701519093506100cc8161005e565b60808701519092506100dd8161005e565b809150509295509295909350565b60805160a05160c05160e0516101005161012051615caa61015360003960005050600061020e0152600081816101ed015261031c015260006101cc015260006101ab0152600081816101460152818161022f0152818161055d01526106060152615caa6000f3fe608060405234801561001057600080fd5b506004361061007d5760003560e01c8063c39ec1241161005b578063c39ec124146100e6578063cc8b6f4f14610119578063ee9a31a21461012e578063f434c9141461014157600080fd5b806312130366146100825780632cdaa896146100b2578063927ede2d146100d3575b600080fd5b6100956100903660046106a5565b610168565b6040516001600160a01b0390911681526020015b60405180910390f35b6100c56100c03660046106df565b6102e7565b6040519081526020016100a9565b600054610095906001600160a01b031681565b6101096100f436600461074d565b60026020526000908152604090205460ff1681565b60405190151581526020016100a9565b61012c610127366004610771565b6104a4565b005b600154610095906001600160a01b031681565b6100957f000000000000000000000000000000000000000000000000000000000000000081565b6040516bffffffffffffffffffffffff193360601b16602082015260348101829052600090605401604051602081830303815290604052805190602001209150817f00000000000000000000000000000000000000000000000000000000000000007f00000000000000000000000000000000000000000000000000000000000000007f00000000000000000000000000000000000000000000000000000000000000007f00000000000000000000000000000000000000000000000000000000000000007f000000000000000000000000000000000000000000000000000000000000000060008960405161025d90610697565b6001600160a01b0397881681529587166020870152938616604086015291851660608501528416608084015290921660a082015260c081019190915260e0018190604051809103906000f59050801580156102bc573d6000803e3d6000fd5b506001600160a01b0381166000908152600260205260409020805460ff191660011790559392505050565b3360009081526002602052604081205460ff1661031757604051631199558960e11b815260040160405180910390fd5b6104127f00000000000000000000000000000000000000000000000000000000000000006001600160a01b031663293c49996040518163ffffffff1660e01b8152600401602060405180830381865afa158015610378573d6000803e3d6000fd5b505050506040513d601f19601f8201168201806040525081019061039c91906107aa565b6001600160a01b0316636352211e896040518263ffffffff1660e01b81526004016103c991815260200190565b602060405180830381865afa1580156103e6573d6000803e3d6000fd5b505050506040513d601f19601f8201168201806040525081019061040a91906107aa565b886011610513565b6040805160208101825260008152905163b62d17cf60e01b81526001600160a01b0388169163b62d17cf91610456918b918a9189918b918a913391906004016107c7565b6020604051808303816000875af1158015610475573d6000803e3d6000fd5b505050506040513d601f19601f820116820180604052508101906104999190610857565b979650505050505050565b6000546001600160a01b03161515806104c757506001546001600160a01b031615155b156104e55760405163ccbe17fd60e01b815260040160405180910390fd5b600080546001600160a01b039384166001600160a01b03199182161790915560018054929093169116179055565b336001600160a01b03841681148015906105ca575060405163c161c93f60e01b81526001600160a01b038281166004830152858116602483015260448201859052606482018490527f0000000000000000000000000000000000000000000000000000000000000000169063c161c93f90608401602060405180830381865afa1580156105a4573d6000803e3d6000fd5b505050506040513d601f19601f820116820180604052508101906105c89190610870565b155b8015610673575060405163c161c93f60e01b81526001600160a01b038281166004830152858116602483015260006044830152606482018490527f0000000000000000000000000000000000000000000000000000000000000000169063c161c93f90608401602060405180830381865afa15801561064d573d6000803e3d6000fd5b505050506040513d601f19601f820116820180604052508101906106719190610870565b155b156106915760405163075fd2b160e01b815260040160405180910390fd5b50505050565b6153e2806200089383390190565b600080604083850312156106b857600080fd5b50508035926020909101359150565b6001600160a01b03811681146106dc57600080fd5b50565b60008060008060008060c087890312156106f857600080fd5b86359550602087013561070a816106c7565b9450604087013561071a816106c7565b9350606087013563ffffffff8116811461073357600080fd5b9598949750929560808101359460a0909101359350915050565b60006020828403121561075f57600080fd5b813561076a816106c7565b9392505050565b6000806040838503121561078457600080fd5b823561078f816106c7565b9150602083013561079f816106c7565b809150509250929050565b6000602082840312156107bc57600080fd5b815161076a816106c7565b8781526000602060018060a01b03808a16602085015288604085015263ffffffff8816606085015286608085015280861660a08501525060e060c084015283518060e085015260005b8181101561082d5785810183015185820161010001528201610810565b506101009150600082828601015281601f19601f8301168501019250505098975050505050505050565b60006020828403121561086957600080fd5b5051919050565b60006020828403121561088257600080fd5b8151801515811461076a57600080fdfe6101e06040523480156200001257600080fd5b50604051620053e2380380620053e28339810160408190526200003591620001a6565b6001600160a01b0380841660805280861660c05280851660e05287908790879087908790879087908216156200006c57816200006e565b305b6001600160a01b03166101205261014081905233610100525050506001600160a01b0393841661018052505016610160526040805163927ede2d60e01b81529051339163927ede2d9160048083019260209291908290030181865afa158015620000dc573d6000803e3d6000fd5b505050506040513d601f19601f8201168201806040525081019062000102919062000245565b6001600160a01b03166101a0526040805163774d18d160e11b81529051339163ee9a31a29160048083019260209291908290030181865afa1580156200014c573d6000803e3d6000fd5b505050506040513d601f19601f8201168201806040525081019062000172919062000245565b6001600160a01b03166101c052506200026c95505050505050565b6001600160a01b0381168114620001a357600080fd5b50565b600080600080600080600060e0888a031215620001c257600080fd5b8751620001cf816200018d565b6020890151909750620001e2816200018d565b6040890151909650620001f5816200018d565b606089015190955062000208816200018d565b60808901519094506200021b816200018d565b60a08901519093506200022e816200018d565b8092505060c0880151905092959891949750929550565b6000602082840312156200025857600080fd5b815162000265816200018d565b9392505050565b60805160a05160c05160e05161010051610120516101405161016051610180516101a0516101c051614ffa620003e8600039600081816102bb01528181611c3c0152611c8b01526000818161074401528181611de0015281816126a3015261270901526000818161026501526115f301526000818161063d015261155601526000818161035d015281816109a501528181610a2201528181610b8d01528181610bc501528181610d8d01528181611237015281816112e001528181611fa0015281816120bc015281816123520152818161240c0152818161250e01526126360152600081816104ff01528181611cbc01528181611e0b01526126df015260006105c801526000818161021901528181610db6015261170401526000818161049b015281816109160152818161125d015281816114a00152818161180401528181611fdb01526123800152600081816105fc01528181610ed901526111d901526000818161071001528181611a260152611acf0152614ffa6000f3fe6080604052600436106101c65760003560e01c806388bc2ef3116100f7578063c1b8411a11610095578063ed0e26b911610064578063ed0e26b91461068c578063f3c57881146106eb578063f434c914146106fe578063fc8fa43d1461073257600080fd5b8063c1b8411a146105b6578063c6525f2c146105ea578063d4a1b4b11461062b578063e7f82c751461065f57600080fd5b8063b59ef50f116100d1578063b59ef50f14610521578063b71c117914610541578063bf557aee14610554578063c18541291461059657600080fd5b806388bc2ef314610489578063aaf320d7146104bd578063ad42938b146104ed57600080fd5b8063551ebbf01161016457806369ce22331161013e57806369ce2233146103b057806369d31fdd146103d05780636dfa7268146103e35780637de6fba21461041257600080fd5b8063551ebbf01461032b57806356539f391461034b578063677ce0881461038d57600080fd5b80632241dc52116101a05780632241dc52146102875780632847f1f3146102a957806338eb2044146102dd5780634c4ffc71146102fd57600080fd5b806301ffc9a7146101d25780631d831d5c146102075780631eabcd341461025357600080fd5b366101cd57005b600080fd5b3480156101de57600080fd5b506101f26101ed36600461466e565b610766565b60405190151581526020015b60405180910390f35b34801561021357600080fd5b5061023b7f000000000000000000000000000000000000000000000000000000000000000081565b6040516001600160a01b0390911681526020016101fe565b34801561025f57600080fd5b5061023b7f000000000000000000000000000000000000000000000000000000000000000081565b34801561029357600080fd5b506102a76102a2366004614698565b6107b8565b005b3480156102b557600080fd5b5061023b7f000000000000000000000000000000000000000000000000000000000000000081565b3480156102e957600080fd5b506102a76102f8366004614724565b6107f0565b34801561030957600080fd5b5061031d610318366004614740565b610b87565b6040516101fe9291906147cb565b34801561033757600080fd5b506102a7610346366004614871565b610d57565b34801561035757600080fd5b5061037f7f000000000000000000000000000000000000000000000000000000000000000081565b6040519081526020016101fe565b34801561039957600080fd5b506101f26103a83660046148bb565b600092915050565b3480156103bc57600080fd5b506102a76103cb3660046148eb565b610ed5565b6102a76103de366004614724565b610f4e565b3480156103ef57600080fd5b506104036103fe3660046148eb565b6110bf565b6040516101fe93929190614908565b34801561041e57600080fd5b5061045f61042d3660046148eb565b6003602052600090815260409020805460019091015463ffffffff821691600160201b90046001600160a01b03169083565b6040805163ffffffff90941684526001600160a01b039092166020840152908201526060016101fe565b34801561049557600080fd5b5061023b7f000000000000000000000000000000000000000000000000000000000000000081565b3480156104c957600080fd5b506104dd6104d8366004614961565b611129565b6040516101fe949392919061499c565b3480156104f957600080fd5b5061023b7f000000000000000000000000000000000000000000000000000000000000000081565b34801561052d57600080fd5b506102a761053c366004614a3c565b61119d565b6102a761054f3660046148eb565b6113a4565b34801561056057600080fd5b506101f261056f3660046148eb565b6001600160a01b03908116600090815260036020526040902054600160201b900416151590565b3480156105a257600080fd5b506102a76105b1366004614a4f565b61144d565b3480156105c257600080fd5b5061023b7f000000000000000000000000000000000000000000000000000000000000000081565b3480156105f657600080fd5b5061061e7f000000000000000000000000000000000000000000000000000000000000000081565b6040516101fe9190614ac8565b34801561063757600080fd5b5061023b7f000000000000000000000000000000000000000000000000000000000000000081565b34801561066b57600080fd5b5061037f61067a3660046148eb565b60026020526000908152604090205481565b34801561069857600080fd5b506106cc6106a73660046148eb565b600160208190526000918252604090912080549101546001600160401b039091169082565b604080516001600160401b0390931683526020830191909152016101fe565b6102a76106f9366004614af0565b611481565b34801561070a57600080fd5b5061023b7f000000000000000000000000000000000000000000000000000000000000000081565b34801561073e57600080fd5b5061023b7f000000000000000000000000000000000000000000000000000000000000000081565b60006001600160e01b031982166340e01e1760e11b148061079757506001600160e01b0319821663f3c5788160e01b145b806107b257506301ffc9a760e01b6001600160e01b03198316145b92915050565b60005b818110156107eb576107e38383838181106107d8576107d8614b2b565b9050608002016107f0565b6001016107bb565b505050565b60006107ff60208301836148eb565b9050600061eeee61081360208501856148eb565b6001600160a01b0316149050808015610846575061eeee61083a60608501604086016148eb565b6001600160a01b031614155b801561086b5750600061085f60608501604086016148eb565b6001600160a01b031614155b156108aa5761088060608401604085016148eb565b604051630a0a3b6b60e31b81526001600160a01b0390911660048201526024015b60405180910390fd5b62030d406108be6040850160208601614b41565b63ffffffff161080156108cf575080155b156109115762030d406108e86040850160208601614b41565b604051634f3dbeb360e11b815263ffffffff9283166004820152911660248201526044016108a1565b610a487f00000000000000000000000000000000000000000000000000000000000000006001600160a01b031663293c49996040518163ffffffff1660e01b8152600401602060405180830381865afa158015610972573d6000803e3d6000fd5b505050506040513d601f19601f820116820180604052508101906109969190614b67565b6040516331a9108f60e11b81527f000000000000000000000000000000000000000000000000000000000000000060048201526001600160a01b039190911690636352211e90602401602060405180830381865afa1580156109fc573d6000803e3d6000fd5b505050506040513d601f19601f82011682018060405250810190610a209190614b67565b7f0000000000000000000000000000000000000000000000000000000000000000601d6119dc565b6000610a5a60608501604086016148eb565b6001600160a01b0316148015610a8a57506001600160a01b03821660009081526020819052604090206001015415155b15610ae4576001600160a01b0380831660009081526003602090815260408083208151606081018352815463ffffffff81168252600160201b90049095169285019290925260019091015490830152610ae4918490611b60565b6040518060600160405280846020016020810190610b029190614b41565b63ffffffff168152602001610b1d60608601604087016148eb565b6001600160a01b0390811682526060909501356020918201529284166000908152600384526040908190208251815495840151909616600160201b026001600160c01b031990951663ffffffff909616959095179390931784559091015160019092019190915550565b600060607f00000000000000000000000000000000000000000000000000000000000000008360c0013514610bfb57604051632d7b333360e11b81527f0000000000000000000000000000000000000000000000000000000000000000600482015260c084013560248201526044016108a1565b6000610c0d60608501604086016148eb565b6001600160a01b03808216600090815260036020526040902054919250600160201b90910416158015610c5a5750610c58610c4b60208601866148eb565b635db90a7f60e11b611f07565b155b15610cb5576040805160008082526020820190925261012086013591610caa565b60408051606080820183526000808352602083015291810191909152815260200190600190039081610c7b5790505b509250925050915091565b60408051600180825281830190925290816020015b60408051606080820183526000808352602083015291810191909152815260200190600190039081610cca5790505091506040518060600160405280306001600160a01b03168152602001600081526020016040518060200160405280600081525081525082600081518110610d4257610d42614b2b565b60200260200101819052506000925050915091565b6001600160a01b038316610d7e576040516309a9c30b60e41b815260040160405180910390fd5b60405163ea78803f60e01b81527f000000000000000000000000000000000000000000000000000000000000000060048201526000907f00000000000000000000000000000000000000000000000000000000000000006001600160a01b03169063ea78803f90602401602060405180830381865afa158015610e05573d6000803e3d6000fd5b505050506040513d601f19601f82011682018060405250810190610e299190614b67565b90506001600160a01b038116610e5257604051635a33845560e01b815260040160405180910390fd5b6001600160a01b03828116600090815260036020526040902054600160201b900416610e9c5760405163393e175160e01b81526001600160a01b03831660048201526024016108a1565b610eb16001600160a01b038216333088611f2a565b6000610ebf82878587611f91565b9050610ecd8684838861215e565b505050505050565b60007f00000000000000000000000000000000000000000000000000000000000000006001811115610f0957610f09614ab2565b14610f275760405163218a9a2d60e11b815260040160405180910390fd5b6001600160a01b038116600090815260026020526040902054610f4b9082906122e2565b50565b610f573361269f565b610f7457604051630439dbd360e51b815260040160405180910390fd5b60208101803590600290600090610f8b90856148eb565b6001600160a01b03166001600160a01b031681526020019081526020016000206000828254610fba9190614b9a565b90915550600190506000610fd160208401846148eb565b6001600160a01b0316815260208101919091526040908101600020546001600160401b0316906110079060608401908401614bc2565b6001600160401b03161115610f4b57604081016001600061102b60208501856148eb565b6001600160a01b03168152602081019190915260400160002061104e8282614bdf565b5061105e905060208201826148eb565b6001600160a01b03167f551b6b99b4c48e3265d2885ab0d93779be2402293261e074f7bf74b2c8f45b6f6110986060840160408501614bc2565b604080516001600160401b039092168252606085013560208301520160405180910390a250565b6000602081815291815260409081902080546001820154835161044081018086526001600160401b0390931695919490926002850192849283019184919082845b815481526020019060010190808311611100575050509183525050602091820154910152905083565b600080806060610160850135608086013560a08701358460405190808252806020026020018201604052801561118d57816020015b6040805160608082018352600080835260208301529181019190915281526020019060019003908161115e5790505b5093509350935093509193509193565b6111d560608201356111b260208401846148eb565b60808401356111c760608601604087016148eb565b602086013560a0870161279b565b60017f0000000000000000000000000000000000000000000000000000000000000000600181111561120957611209614ab2565b036112285761122861121e60208301836148eb565b60808301356122e2565b604051632eec7b5560e11b81527f000000000000000000000000000000000000000000000000000000000000000060048201527f00000000000000000000000000000000000000000000000000000000000000006001600160a01b031690635dd8f6aa90602401602060405180830381865afa1580156112ac573d6000803e3d6000fd5b505050506040513d601f19601f820116820180604052508101906112d09190614b67565b6001600160a01b031663c7fb92de7f00000000000000000000000000000000000000000000000000000000000000006060840180359061131390604087016148eb565b6040516001600160e01b031960e086901b168152600481019390935260248301919091526001600160a01b0316604482015260a06064820152600060a48201819052608482015260c4016020604051808303816000875af115801561137c573d6000803e3d6000fd5b505050506040513d601f19601f820116820180604052508101906113a09190614c12565b5050565b6001600160a01b0380821660008181526003602090815260408083208151606081018352815463ffffffff81168252600160201b9004909616868401526001908101548683018190529484529183905290912001541015611442576040808201516001600160a01b0384166000908152602081905282902060010154915163091df9e560e31b81526108a19290600401918252602082015260400190565b6113a0348383611b60565b60005b818110156107eb5761147983838381811061146d5761146d614b2b565b90506104a0020161119d565b600101611450565b604051636e49181f60e01b8152602082013560048201523360248201527f00000000000000000000000000000000000000000000000000000000000000006001600160a01b031690636e49181f90604401602060405180830381865afa1580156114ef573d6000803e3d6000fd5b505050506040513d601f19601f820116820180604052508101906115139190614c2b565b61153057604051634ae18d2b60e11b815260040160405180910390fd5b60408051630969875760e21b8152602083013560048201529082013560248201526000907f00000000000000000000000000000000000000000000000000000000000000006001600160a01b0316906325a61d5c9060440161012060405180830381865afa1580156115a6573d6000803e3d6000fd5b505050506040513d601f19601f820116820180604052508101906115ca9190614c94565b61010081015190915060009060241c63ffffffff1660c0840135146116b6576001600160a01b037f000000000000000000000000000000000000000000000000000000000000000016633be273fa602085013560c086013561163a86610100015163ffffffff60249190911c1690565b60405160e085901b6001600160e01b031916815260048101939093526024830191909152604482015260a08601356064820152608401602060405180830381865afa15801561168d573d6000803e3d6000fd5b505050506040513d601f19601f820116820180604052508101906116b19190614c12565b6116c5565b6116c560a0840135600a614df8565b905060006116dd6080850135610160860135846128cb565b60405163ea78803f60e01b8152602086013560048201529091506000906001600160a01b037f0000000000000000000000000000000000000000000000000000000000000000169063ea78803f90602401602060405180830381865afa15801561174b573d6000803e3d6000fd5b505050506040513d601f19601f8201168201806040525081019061176f9190614b67565b6040516370a0823160e01b81523060048201529091506000906001600160a01b038316906370a0823190602401602060405180830381865afa1580156117b9573d6000803e3d6000fd5b505050506040513d601f19601f820116820180604052508101906117dd9190614c12565b604051632eec7b5560e11b8152602088013560048201529091506000906001600160a01b037f00000000000000000000000000000000000000000000000000000000000000001690635dd8f6aa90602401602060405180830381865afa15801561184b573d6000803e3d6000fd5b505050506040513d601f19601f8201168201806040525081019061186f9190614b67565b6040516363fdc96f60e11b8152602089013560048201526024810186905230604482015260a06064820152600060a4820152600160848201526001600160a01b03919091169063c7fb92de9060c4016020604051808303816000875af11580156118dd573d6000803e3d6000fd5b505050506040513d601f19601f820116820180604052508101906119019190614c12565b6040516370a0823160e01b815230600482015290915082906001600160a01b038516906370a0823190602401602060405180830381865afa15801561194a573d6000803e3d6000fd5b505050506040513d601f19601f8201168201806040525081019061196e9190614c12565b6119789190614e04565b811461198657611986614e17565b60006119a4848361199d60808c0160608d016148eb565b6000611f91565b90506119d2826119ba60808b0160608c016148eb565b836119cd6101c08d016101a08e016148eb565b61215e565b5050505050505050565b336001600160a01b0384168114801590611a93575060405163c161c93f60e01b81526001600160a01b038281166004830152858116602483015260448201859052606482018490527f0000000000000000000000000000000000000000000000000000000000000000169063c161c93f90608401602060405180830381865afa158015611a6d573d6000803e3d6000fd5b505050506040513d601f19601f82011682018060405250810190611a919190614c2b565b155b8015611b3c575060405163c161c93f60e01b81526001600160a01b038281166004830152858116602483015260006044830152606482018490527f0000000000000000000000000000000000000000000000000000000000000000169063c161c93f90608401602060405180830381865afa158015611b16573d6000803e3d6000fd5b505050506040513d601f19601f82011682018060405250810190611b3a9190614c2b565b155b15611b5a5760405163075fd2b160e01b815260040160405180910390fd5b50505050565b60008315611b81576040516352864b0160e11b815260040160405180910390fd5b6001600160a01b0383166000908152602081905260408120600181018054908390558154909291908290611bbd906001600160401b0316614e2d565b91906101000a8154816001600160401b0302191690836001600160401b031602179055905060006001600160a01b031684602001516001600160a01b031603611c245760405163393e175160e01b81526001600160a01b03861660048201526024016108a1565b6001600160a01b03851661eeee14611d1f57611c61857f00000000000000000000000000000000000000000000000000000000000000008461299e565b6020808501518551604080519384018152600084525163540abf7360e01b81526001600160a01b037f0000000000000000000000000000000000000000000000000000000000000000169363540abf7393611ce8938b9391927f0000000000000000000000000000000000000000000000000000000000000000928a929190600401614e53565b600060405180830381600087803b158015611d0257600080fd5b505af1158015611d16573d6000803e3d6000fd5b50505050611d23565b8192505b6001600160a01b0385166000908152602081905260408120611d4790600201612a2e565b6001600160a01b03871660009081526020819052604081206022015491925090611d7390600190614e04565b604080516060810182526020808a01516001600160a01b039081168352818301898152845180860186526001600160401b03808b1682528185018a9052858701918252955194518316602486015290516044850152518051909416606484015292015160848201529192507f00000000000000000000000000000000000000000000000000000000000000001690633dbb202b9087907f00000000000000000000000000000000000000000000000000000000000000009060a40160408051601f198184030181529181526020820180516001600160e01b03166369d31fdd60e01b179052516001600160e01b031960e086901b168152611e7d929190620493e090600401614ea6565b6000604051808303818588803b158015611e9657600080fd5b505af1158015611eaa573d6000803e3d6000fd5b5050604080518581526001600160401b03881660208201526001600160a01b038c1694508693507f3e069c1f498cba23d7d2b74b84311469e8da6e527cade62061d642c61b64e0de92500160405180910390a35050505050505050565b6000611f1283613de4565b8015611f235750611f238383613e17565b9392505050565b6040516001600160a01b038481166024830152838116604483015260648201839052611b5a9186918216906323b872dd906084015b604051602081830303815290604052915060e01b6020820180516001600160e01b038381831617835250505050613ea1565b604051630862026560e41b81527f000000000000000000000000000000000000000000000000000000000000000060048201526001600160a01b03838116602483015260009182917f00000000000000000000000000000000000000000000000000000000000000001690638620265090604401602060405180830381865afa158015612022573d6000803e3d6000fd5b505050506040513d601f19601f820116820180604052508101906120469190614b67565b90506001600160a01b03811661207a5760405163393e175160e01b81526001600160a01b03851660048201526024016108a1565b60006120868530613f04565b60408051602081018252600081529051635db90a7f60e11b81529192506001600160a01b0384169163bb7214fe916120ec9130917f0000000000000000000000000000000000000000000000000000000000000000918b918d918c918691600401614ee0565b6020604051808303816000875af115801561210b573d6000803e3d6000fd5b505050506040513d601f19601f8201168201806040525081019061212f9190614c12565b92508061213c8630613f04565b6121469190614e04565b831461215457612154614e17565b5050949350505050565b600061216b858484613f94565b6001600160a01b0385166000908152602081815260408083208151610440810180845295965093946121d69487949093600290930192849290830191849182845b8154815260200190600101908083116121ac57505050918352505060209182015491015290613fd9565b6001600160a01b038616600090815260208181526040909120825192935083926002909101916122079183916145dc565b50602091820151908201556001600160a01b03861660009081529081905260408120600101805486929061223c908490614b9a565b92505081905550846001600160a01b0316836001600160a01b03167f7b58dbb78e7edc690b0688a53dea0c443d630c4a5db66c3c47d4ff2044c97728846001856020015161228a9190614e04565b6001600160a01b038a1660009081526020819052604090206122ae90600201612a2e565b60408051938452602084019290925290820152606081018a90526080810188905260a00160405180910390a3505050505050565b6001600160a01b0382166000908152600260205260409020548082111561231c57604051632858f9ab60e11b815260040160405180910390fd5b6123268282614e04565b6001600160a01b03848116600081815260026020526040808220949094559251630862026560e41b81527f0000000000000000000000000000000000000000000000000000000000000000600482015260248101919091527f000000000000000000000000000000000000000000000000000000000000000090911690638620265090604401602060405180830381865afa1580156123c9573d6000803e3d6000fd5b505050506040513d601f19601f820116820180604052508101906123ed9190614b67565b90506001600160a01b03811661244757604051630c9ae01360e01b81527f000000000000000000000000000000000000000000000000000000000000000060048201526001600160a01b03851660248201526044016108a1565b6001600160a01b03841661eeee146125f7576040516370a0823160e01b81523060048201526000906001600160a01b038616906370a0823190602401602060405180830381865afa1580156124a0573d6000803e3d6000fd5b505050506040513d601f19601f820116820180604052508101906124c49190614c12565b90506124d185838661299e565b60408051602080820183526000808352835191820184528082529251639e6eec0560e01b81526001600160a01b03861693639e6eec059361253e937f0000000000000000000000000000000000000000000000000000000000000000938c938c9390929091600401614f32565b600060405180830381600087803b15801561255857600080fd5b505af115801561256c573d6000803e3d6000fd5b50505050838161257c9190614e04565b6040516370a0823160e01b81523060048201526001600160a01b038716906370a0823190602401602060405180830381865afa1580156125c0573d6000803e3d6000fd5b505050506040513d601f19601f820116820180604052508101906125e49190614c12565b146125f1576125f1614e17565b50611b5a565b60408051602080820183526000808352835191820184528082529251639e6eec0560e01b81526001600160a01b03851693639e6eec05938893612667937f0000000000000000000000000000000000000000000000000000000000000000938c9387939192909190600401614f32565b6000604051808303818588803b15801561268057600080fd5b505af1158015612694573d6000803e3d6000fd5b505050505050505050565b60007f00000000000000000000000000000000000000000000000000000000000000006001600160a01b0316826001600160a01b03161480156107b257507f00000000000000000000000000000000000000000000000000000000000000006001600160a01b03167f00000000000000000000000000000000000000000000000000000000000000006001600160a01b0316636e296e456040518163ffffffff1660e01b81526004016020604051808303816000875af1158015612767573d6000803e3d6000fd5b505050506040513d601f19601f8201168201806040525081019061278b9190614b67565b6001600160a01b03161492915050565b6001600160a01b0385166000908152600460209081526040808320600886901c8452909152902054600160ff84161b16156127ec5760405163ed9bdd0760e01b8152600481018390526024016108a1565b6001600160a01b0385166000908152600460209081526040808320600886901c845290915281208054600160ff86161b17905561285b61282d888787613f94565b6040805161040081810190925290859060209083908390808284376000920191909152508791506140df9050565b6001600160a01b0387166000908152600160208190526040909120015490915081146128c2576001600160a01b0386166000908152600160208190526040918290200154905163286f87c960e21b81526004810191909152602481018290526044016108a1565b50505050505050565b6000808060001985870985870292508281108382030391505080600003612905578382816128fb576128fb614f79565b0492505050611f23565b83811061293657604051630c740aef60e31b81526004810187905260248101869052604481018590526064016108a1565b600084868809600260036001881981018916988990049182028318808302840302808302840302808302840302808302840302808302840302918202909203026000889003889004909101858311909403939093029303949094049190911702949350505050565b604080516001600160a01b038416602482015260448082018490528251808303909101815260649091019091526020810180516001600160e01b031663095ea7b360e01b1790526129ef848261442d565b611b5a576040516001600160a01b03848116602483015260006044830152612a2491869182169063095ea7b390606401611f5f565b611b5a8482613ea1565b6020810154600090808203612a6557507f27ae5ba08d7291c96c8cbddcc148bf48a6d68c7974b94356f53754ef6171d75792915050565b6000836001831615612a8757805460005260006020526040600020935061333a565b6002831615612acc5760018101546000527fad3228b676f7d3cd4284a5443f17f1962b36e491b30a40b2405849e597ba5fb5602052604060002093506001915061333a565b6004831615612b115760028101546000527fb4c11951957c6f8f642c4af61cd6b24640fec6dc7fc607ee8206a99e92410d30602052604060002093506002915061333a565b6008831615612b565760038101546000527f21ddb9a356815c3fac1026b6dec5df3124afbadb485c9ba5a3e3398a04b7ba85602052604060002093506003915061333a565b6010831615612b9b5760048101546000527fe58769b32a1beaf1ea27375a44095a0d1fb664ce2dd358e7fcbfb78c26a19344602052604060002093506004915061333a565b6020831615612be05760058101546000527f0eb01ebfc9ed27500cd4dfc979272d1f0913cc9f66540d7e8005811109e1cf2d602052604060002093506005915061333a565b6040831615612c255760068101546000527f887c22bd8750d34016ac3c66b5ff102dacdd73f6b014e710b51e8022af9a1968602052604060002093506006915061333a565b6080831615612c6a5760078101546000527fffd70157e48063fc33c97a050f7f640233bf646cc98d9524c6b92bcf3ab56f83602052604060002093506007915061333a565b610100831615612cb05760088101546000527f9867cc5f7f196b93bae1e27e6320742445d290f2263827498b54fec539f756af602052604060002093506008915061333a565b610200831615612cf65760098101546000527fcefad4e508c098b9a7e1d8feb19955fb02ba9675585078710969d3440f5054e0602052604060002093506009915061333a565b610400831615612d3c57600a8101546000527ff9dc3e7fe016e050eff260334f18a5d4fe391d82092319f5964f2e2eb7c1c3a560205260406000209350600a915061333a565b610800831615612d8257600b8101546000527ff8b13a49e282f609c317a833fb8d976d11517c571d1221a265d25af778ecf89260205260406000209350600b915061333a565b611000831615612dc857600c8101546000527f3490c6ceeb450aecdc82e28293031d10c7d73bf85e57bf041a97360aa2c5d99c60205260406000209350600c915061333a565b612000831615612e0e57600d8101546000527fc1df82d9c4b87413eae2ef048f94b4d3554cea73d92b0f7af96e0271c691e2bb60205260406000209350600d915061333a565b614000831615612e5457600e8101546000527f5c67add7c6caf302256adedf7ab114da0acfe870d449a3a489f781d659e8becc60205260406000209350600e915061333a565b618000831615612e9a57600f8101546000527fda7bce9f4e8618b6bd2f4132ce798cdc7a60e7e1460a7299e3c6342a579626d260205260406000209350600f915061333a565b62010000831615612ee15760108101546000527f2733e50f526ec2fa19a22b31e8ed50f23cd1fdf94c9154ed3a7609a2f1ff981f602052604060002093506010915061333a565b62020000831615612f285760118101546000527fe1d3b5c807b281e4683cc6d6315cf95b9ade8641defcb32372f1c126e398ef7a602052604060002093506011915061333a565b62040000831615612f6f5760128101546000527f5a2dce0a8a7f68bb74560f8f71837c2c2ebbcbf7fffb42ae1896f13f7c7479a0602052604060002093506012915061333a565b62080000831615612fb65760138101546000527fb46a28b6f55540f89444f63de0378e3d121be09e06cc9ded1c20e65876d36aa0602052604060002093506013915061333a565b62100000831615612ffd5760148101546000527fc65e9645644786b620e2dd2ad648ddfcbf4a7e5b1a3a4ecfe7f64667a3f0b7e2602052604060002093506014915061333a565b622000008316156130445760158101546000527ff4418588ed35a2458cffeb39b93d26f18d2ab13bdce6aee58e7b99359ec2dfd9602052604060002093506015915061333a565b6240000083161561308b5760168101546000527f5a9c16dc00d6ef18b7933a6f8dc65ccb55667138776f7dea101070dc8796e377602052604060002093506016915061333a565b628000008316156130d25760178101546000527f4df84f40ae0c8229d0d6069e5c8f39a7c299677a09d367fc7b05e3bc380ee652602052604060002093506017915061333a565b630100000083161561311a5760188101546000527fcdc72595f74c7b1043d0e1ffbab734648c838dfb0527d971b602bc216c9619ef602052604060002093506018915061333a565b63020000008316156131625760198101546000527f0abf5ac974a1ed57f4050aa510dd9c74f508277b39d7973bb2dfccc5eeb0618d602052604060002093506019915061333a565b63040000008316156131aa57601a8101546000527fb8cd74046ff337f0a7bf2c8e03e10f642c1886798d71806ab1e888d9e5ee87d060205260406000209350601a915061333a565b63080000008316156131f257601b8101546000527f838c5655cb21c6cb83313b5a631175dff4963772cce9108188b34ac87c81c41e60205260406000209350601b915061333a565b631000000083161561323a57601c8101546000527f662ee4dd2dd7b2bc707961b1e646c4047669dcb6584f0d8d770daf5d7e7deb2e60205260406000209350601c915061333a565b632000000083161561328257601d8101546000527f388ab20e2573d171a88108e79d820e98f26c0b84aa8b2f4aa4968dbb818ea32260205260406000209350601d915061333a565b63400000008316156132ca57601e8101546000527f93237c50ba75ee485f4c22adf2f741400bdf8d6a9cc7df7ecae576221665d73560205260406000209350601e915061333a565b638000000083161561331257601f8101546000527f8448818bb4ae4562849e949e17ac16e0be16688e156b5cf15e098c627c0056a960205260406000209350601f915061333a565b7f27ae5ba08d7291c96c8cbddcc148bf48a6d68c7974b94356f53754ef6171d7579350602091505b601e8211613ddc576001821015613398576002831680156133665760018201546000528460205261338f565b846000527fad3228b676f7d3cd4284a5443f17f1962b36e491b30a40b2405849e597ba5fb56020525b50604060002093505b60028210156133ee576004831680156133bc576002820154600052846020526133e5565b846000527fb4c11951957c6f8f642c4af61cd6b24640fec6dc7fc607ee8206a99e92410d306020525b50604060002093505b6003821015613444576008831680156134125760038201546000528460205261343b565b846000527f21ddb9a356815c3fac1026b6dec5df3124afbadb485c9ba5a3e3398a04b7ba856020525b50604060002093505b600482101561349a5760108316801561346857600482015460005284602052613491565b846000527fe58769b32a1beaf1ea27375a44095a0d1fb664ce2dd358e7fcbfb78c26a193446020525b50604060002093505b60058210156134f0576020831680156134be576005820154600052846020526134e7565b846000527f0eb01ebfc9ed27500cd4dfc979272d1f0913cc9f66540d7e8005811109e1cf2d6020525b50604060002093505b6006821015613546576040831680156135145760068201546000528460205261353d565b846000527f887c22bd8750d34016ac3c66b5ff102dacdd73f6b014e710b51e8022af9a19686020525b50604060002093505b600782101561359c5760808316801561356a57600782015460005284602052613593565b846000527fffd70157e48063fc33c97a050f7f640233bf646cc98d9524c6b92bcf3ab56f836020525b50604060002093505b60088210156135f357610100831680156135c1576008820154600052846020526135ea565b846000527f9867cc5f7f196b93bae1e27e6320742445d290f2263827498b54fec539f756af6020525b50604060002093505b600982101561364a576102008316801561361857600982015460005284602052613641565b846000527fcefad4e508c098b9a7e1d8feb19955fb02ba9675585078710969d3440f5054e06020525b50604060002093505b600a8210156136a1576104008316801561366f57600a82015460005284602052613698565b846000527ff9dc3e7fe016e050eff260334f18a5d4fe391d82092319f5964f2e2eb7c1c3a56020525b50604060002093505b600b8210156136f857610800831680156136c657600b820154600052846020526136ef565b846000527ff8b13a49e282f609c317a833fb8d976d11517c571d1221a265d25af778ecf8926020525b50604060002093505b600c82101561374f576110008316801561371d57600c82015460005284602052613746565b846000527f3490c6ceeb450aecdc82e28293031d10c7d73bf85e57bf041a97360aa2c5d99c6020525b50604060002093505b600d8210156137a6576120008316801561377457600d8201546000528460205261379d565b846000527fc1df82d9c4b87413eae2ef048f94b4d3554cea73d92b0f7af96e0271c691e2bb6020525b50604060002093505b600e8210156137fd57614000831680156137cb57600e820154600052846020526137f4565b846000527f5c67add7c6caf302256adedf7ab114da0acfe870d449a3a489f781d659e8becc6020525b50604060002093505b600f821015613854576180008316801561382257600f8201546000528460205261384b565b846000527fda7bce9f4e8618b6bd2f4132ce798cdc7a60e7e1460a7299e3c6342a579626d26020525b50604060002093505b60108210156138ac57620100008316801561387a576010820154600052846020526138a3565b846000527f2733e50f526ec2fa19a22b31e8ed50f23cd1fdf94c9154ed3a7609a2f1ff981f6020525b50604060002093505b60118210156139045762020000831680156138d2576011820154600052846020526138fb565b846000527fe1d3b5c807b281e4683cc6d6315cf95b9ade8641defcb32372f1c126e398ef7a6020525b50604060002093505b601282101561395c57620400008316801561392a57601282015460005284602052613953565b846000527f5a2dce0a8a7f68bb74560f8f71837c2c2ebbcbf7fffb42ae1896f13f7c7479a06020525b50604060002093505b60138210156139b4576208000083168015613982576013820154600052846020526139ab565b846000527fb46a28b6f55540f89444f63de0378e3d121be09e06cc9ded1c20e65876d36aa06020525b50604060002093505b6014821015613a0c5762100000831680156139da57601482015460005284602052613a03565b846000527fc65e9645644786b620e2dd2ad648ddfcbf4a7e5b1a3a4ecfe7f64667a3f0b7e26020525b50604060002093505b6015821015613a64576220000083168015613a3257601582015460005284602052613a5b565b846000527ff4418588ed35a2458cffeb39b93d26f18d2ab13bdce6aee58e7b99359ec2dfd96020525b50604060002093505b6016821015613abc576240000083168015613a8a57601682015460005284602052613ab3565b846000527f5a9c16dc00d6ef18b7933a6f8dc65ccb55667138776f7dea101070dc8796e3776020525b50604060002093505b6017821015613b14576280000083168015613ae257601782015460005284602052613b0b565b846000527f4df84f40ae0c8229d0d6069e5c8f39a7c299677a09d367fc7b05e3bc380ee6526020525b50604060002093505b6018821015613b6d57630100000083168015613b3b57601882015460005284602052613b64565b846000527fcdc72595f74c7b1043d0e1ffbab734648c838dfb0527d971b602bc216c9619ef6020525b50604060002093505b6019821015613bc657630200000083168015613b9457601982015460005284602052613bbd565b846000527f0abf5ac974a1ed57f4050aa510dd9c74f508277b39d7973bb2dfccc5eeb0618d6020525b50604060002093505b601a821015613c1f57630400000083168015613bed57601a82015460005284602052613c16565b846000527fb8cd74046ff337f0a7bf2c8e03e10f642c1886798d71806ab1e888d9e5ee87d06020525b50604060002093505b601b821015613c7857630800000083168015613c4657601b82015460005284602052613c6f565b846000527f838c5655cb21c6cb83313b5a631175dff4963772cce9108188b34ac87c81c41e6020525b50604060002093505b601c821015613cd157631000000083168015613c9f57601c82015460005284602052613cc8565b846000527f662ee4dd2dd7b2bc707961b1e646c4047669dcb6584f0d8d770daf5d7e7deb2e6020525b50604060002093505b601d821015613d2a57632000000083168015613cf857601d82015460005284602052613d21565b846000527f388ab20e2573d171a88108e79d820e98f26c0b84aa8b2f4aa4968dbb818ea3226020525b50604060002093505b601e821015613d8357634000000083168015613d5157601e82015460005284602052613d7a565b846000527f93237c50ba75ee485f4c22adf2f741400bdf8d6a9cc7df7ecae576221665d7356020525b50604060002093505b601f821015613ddc57638000000083168015613daa57601f82015460005284602052613dd3565b846000527f8448818bb4ae4562849e949e17ac16e0be16688e156b5cf15e098c627c0056a96020525b50604060002093505b505050919050565b6000613df7826301ffc9a760e01b613e17565b80156107b25750613e10826001600160e01b0319613e17565b1592915050565b6040516001600160e01b031982166024820152600090819060440160408051601f19818403018152919052602080820180516001600160e01b03166301ffc9a760e01b178152825192935060009283928392909183918a617530fa92503d91506000519050828015613e8a575060208210155b8015613e965750600081115b979650505050505050565b6000613eb66001600160a01b038416836144d5565b90508051600014158015613edb575080806020019051810190613ed99190614c2b565b155b156107eb57604051635274afe760e01b81526001600160a01b03841660048201526024016108a1565b600061eeed196001600160a01b03841601613f2a57506001600160a01b038116316107b2565b6040516370a0823160e01b81526001600160a01b0383811660048301528416906370a0823190602401602060405180830381865afa158015613f70573d6000803e3d6000fd5b505050506040513d601f19601f82011682018060405250810190611f239190614c12565b60408051602081018590529081018390526001600160a01b03821660608201526000906080016040516020818303038152906040528051906020012090509392505050565b613fe161461a565b6000836020018051613ff290614f8f565b908190529050600161400660206002614df8565b6140109190614e04565b81111561403057604051638eab04bb60e01b815260040160405180910390fd5b60005b60208110156140c5578160011660010361406c5784518490826020811061405c5761405c614b2b565b6020020152508391506107b29050565b8451816020811061407f5761407f614b2b565b60200201518460405160200161409f929190918252602082015260400190565b60408051601f1981840301815291905280516020909101209350600191821c9101614033565b50604051638eab04bb60e01b815260040160405180910390fd5b6020600582811b8216948552835194820394909452604060008181206002851615871b808503919091528386015190528181206004851615871b808503919091528286015190528181206008851615871b80850391909152606086015190528181206010851615871b8085039190915260808087015190915282822084861615881b8086039190915260a0870151905282822083861615881b8086039190915260c0870151905282822090851615871b8085039190915260e0860151905281812061010080861615881b80860392909252860151905281812061020080861615881b80860392909252610120870151909152828220610400861615881b808603919091526101408701519052828220610800861615881b808603919091526101608701519052828220611000861615881b808603919091526101808701519052828220612000861615881b808603919091526101a08701519052828220614000861615881b808603919091526101c08701519052828220618000861615881b808603919091526101e0870151905282822062010000861615881b8086039190915290860151905281812062020000851615871b80850391909152610220860151905281812062040000851615871b80850391909152610240860151905281812062080000851615871b80850391909152610260860151905281812062100000851615871b80850391909152610280860151905281812062200000851615871b808503919091526102a0860151905281812062400000851615871b808503919091526102c0860151905281812062800000851615871b808503919091526102e086015190528181206301000000851615871b8085039190915261030086015190528181206302000000851615871b8085039190915261032086015190528181206304000000851615871b8085039190915261034086015190528181206308000000851615871b8085039190915261036086015190528181206310000000851615871b8085039190915261038086015190528181206320000000851615871b808503919091526103a086015190528181206340000000851615871b808503919091526103c0860151905281812063800000009094161590951b91829003929092526103e090920151909152902090565b6000806000846001600160a01b03168460405161444a9190614fa8565b6000604051808303816000865af19150503d8060008114614487576040519150601f19603f3d011682016040523d82523d6000602084013e61448c565b606091505b50915091508180156144b65750805115806144b65750808060200190518101906144b69190614c2b565b80156144cc57506000856001600160a01b03163b115b95945050505050565b6060611f238383600084600080856001600160a01b031684866040516144fb9190614fa8565b60006040518083038185875af1925050503d8060008114614538576040519150601f19603f3d011682016040523d82523d6000602084013e61453d565b606091505b509150915061454d868383614557565b9695505050505050565b60608261456c57614567826145b3565b611f23565b815115801561458357506001600160a01b0384163b155b156145ac57604051639996b31560e01b81526001600160a01b03851660048201526024016108a1565b5080611f23565b8051156145c35780518082602001fd5b604051630a12f52160e11b815260040160405180910390fd5b826020810192821561460a579160200282015b8281111561460a5782518255916020019190600101906145ef565b5061461692915061463a565b5090565b604051806040016040528061462d61464f565b8152602001600081525090565b5b80821115614616576000815560010161463b565b6040518061040001604052806020906020820280368337509192915050565b60006020828403121561468057600080fd5b81356001600160e01b031981168114611f2357600080fd5b600080602083850312156146ab57600080fd5b82356001600160401b03808211156146c257600080fd5b818501915085601f8301126146d657600080fd5b8135818111156146e557600080fd5b8660208260071b85010111156146fa57600080fd5b60209290920196919550909350505050565b60006080828403121561471e57600080fd5b50919050565b60006080828403121561473657600080fd5b611f23838361470c565b60006020828403121561475257600080fd5b81356001600160401b0381111561476857600080fd5b82016101808185031215611f2357600080fd5b60005b8381101561479657818101518382015260200161477e565b50506000910152565b600081518084526147b781602086016020860161477b565b601f01601f19169290920160200192915050565b6000604080830185845260206040818601528186518084526060935060608701915060608160051b88010183890160005b8381101561484c57898303605f19018552815180516001600160a01b0316845286810151878501528801518884018890526148398885018261479f565b95870195935050908501906001016147fc565b50909a9950505050505050505050565b6001600160a01b0381168114610f4b57600080fd5b6000806000806080858703121561488757600080fd5b8435935060208501356148998161485c565b92506040850135915060608501356148b08161485c565b939692955090935050565b600080604083850312156148ce57600080fd5b8235915060208301356148e08161485c565b809150509250929050565b6000602082840312156148fd57600080fd5b8135611f238161485c565b6001600160401b038416815260208082018490528251610460830191906000604085015b8382101561494a57825181529183019160019190910190830161492c565b505050506020830151610440830152949350505050565b60006020828403121561497357600080fd5b81356001600160401b0381111561498957600080fd5b82016101a08185031215611f2357600080fd5b60006080820186835260208681850152604086604086015260606080606087015283875180865260a08801915060a08160051b890101955084890160005b82811015614a2a57898803609f19018452815180516001600160a01b0316895287810151888a0152860151868901869052614a17868a018261479f565b98505092860192908601906001016149da565b50959c9b505050505050505050505050565b60006104a0828403121561471e57600080fd5b60008060208385031215614a6257600080fd5b82356001600160401b0380821115614a7957600080fd5b818501915085601f830112614a8d57600080fd5b813581811115614a9c57600080fd5b8660206104a0830285010111156146fa57600080fd5b634e487b7160e01b600052602160045260246000fd5b6020810160028310614aea57634e487b7160e01b600052602160045260246000fd5b91905290565b600060208284031215614b0257600080fd5b81356001600160401b03811115614b1857600080fd5b82016102008185031215611f2357600080fd5b634e487b7160e01b600052603260045260246000fd5b600060208284031215614b5357600080fd5b813563ffffffff81168114611f2357600080fd5b600060208284031215614b7957600080fd5b8151611f238161485c565b634e487b7160e01b600052601160045260246000fd5b808201808211156107b2576107b2614b84565b6001600160401b0381168114610f4b57600080fd5b600060208284031215614bd457600080fd5b8135611f2381614bad565b8135614bea81614bad565b6001600160401b0381166001600160401b031983541617825550602082013560018201555050565b600060208284031215614c2457600080fd5b5051919050565b600060208284031215614c3d57600080fd5b81518015158114611f2357600080fd5b60405161012081016001600160401b0381118282101715614c7e57634e487b7160e01b600052604160045260246000fd5b60405290565b8051614c8f8161485c565b919050565b60006101208284031215614ca757600080fd5b614caf614c4d565b825181526020830151602082015260408301516040820152606083015160608201526080830151608082015260a083015160a082015260c083015160c0820152614cfb60e08401614c84565b60e0820152610100928301519281019290925250919050565b600181815b80851115614d4f578160001904821115614d3557614d35614b84565b80851615614d4257918102915b93841c9390800290614d19565b509250929050565b600082614d66575060016107b2565b81614d73575060006107b2565b8160018114614d895760028114614d9357614daf565b60019150506107b2565b60ff841115614da457614da4614b84565b50506001821b6107b2565b5060208310610133831016604e8410600b8410161715614dd2575081810a6107b2565b614ddc8383614d14565b8060001904821115614df057614df0614b84565b029392505050565b6000611f238383614d57565b818103818111156107b2576107b2614b84565b634e487b7160e01b600052600160045260246000fd5b60006001600160401b03808316818103614e4957614e49614b84565b6001019392505050565b6001600160a01b0387811682528681166020830152851660408201526060810184905263ffffffff8316608082015260c060a08201819052600090614e9a9083018461479f565b98975050505050505050565b6001600160a01b0384168152606060208201819052600090614eca9083018561479f565b905063ffffffff83166040830152949350505050565b600060018060a01b03808a168352886020840152808816604084015286606084015285608084015280851660a08401525060e060c0830152614f2560e083018461479f565b9998505050505050505050565b86815260018060a01b0386166020820152846040820152831515606082015260c060808201526000614f6760c083018561479f565b82810360a0840152614f25818561479f565b634e487b7160e01b600052601260045260246000fd5b600060018201614fa157614fa1614b84565b5060010190565b60008251614fba81846020870161477b565b919091019291505056fea26469706673582212208714ceb1bc7a9eb8cee93b01971eeaf216aecef7f7dc417297a3a7e9df225bcc64736f6c63430008170033a2646970667358221220eca34b482119d0e8b06779479c60d0c95657445fd459f5cd91721eaea86a63d164736f6c63430008170033",
			"deployedBytecode": "0x608060405234801561001057600080fd5b506004361061007d5760003560e01c8063c39ec1241161005b578063c39ec124146100e6578063cc8b6f4f14610119578063ee9a31a21461012e578063f434c9141461014157600080fd5b806312130366146100825780632cdaa896146100b2578063927ede2d146100d3575b600080fd5b6100956100903660046106a5565b610168565b6040516001600160a01b0390911681526020015b60405180910390f35b6100c56100c03660046106df565b6102e7565b6040519081526020016100a9565b600054610095906001600160a01b031681565b6101096100f436600461074d565b60026020526000908152604090205460ff1681565b60405190151581526020016100a9565b61012c610127366004610771565b6104a4565b005b600154610095906001600160a01b031681565b6100957f000000000000000000000000ba24624ae5dc821866e9e71ed050412ef01e2fe681565b6040516bffffffffffffffffffffffff193360601b16602082015260348101829052600090605401604051602081830303815290604052805190602001209150817f0000000000000000000000000631183bd45c31f8645f9dcf8705951f730362e97f0000000000000000000000001eb7799d3a230a0440f0d6c477256df8d425adbb7f00000000000000000000000018017cfed48e1dc0adc445cef8a9e6affcb330da7f0000000000000000000000003295c9c7374e583cb2e6ed455eaf9908022159d07f000000000000000000000000ba24624ae5dc821866e9e71ed050412ef01e2fe660008960405161025d90610697565b6001600160a01b0397881681529587166020870152938616604086015291851660608501528416608084015290921660a082015260c081019190915260e0018190604051809103906000f59050801580156102bc573d6000803e3d6000fd5b506001600160a01b0381166000908152600260205260409020805460ff191660011790559392505050565b3360009081526002602052604081205460ff1661031757604051631199558960e11b815260040160405180910390fd5b6104127f00000000000000000000000018017cfed48e1dc0adc445cef8a9e6affcb330da6001600160a01b031663293c49996040518163ffffffff1660e01b8152600401602060405180830381865afa158015610378573d6000803e3d6000fd5b505050506040513d601f19601f8201168201806040525081019061039c91906107aa565b6001600160a01b0316636352211e896040518263ffffffff1660e01b81526004016103c991815260200190565b602060405180830381865afa1580156103e6573d6000803e3d6000fd5b505050506040513d601f19601f8201168201806040525081019061040a91906107aa565b886011610513565b6040805160208101825260008152905163b62d17cf60e01b81526001600160a01b0388169163b62d17cf91610456918b918a9189918b918a913391906004016107c7565b6020604051808303816000875af1158015610475573d6000803e3d6000fd5b505050506040513d601f19601f820116820180604052508101906104999190610857565b979650505050505050565b6000546001600160a01b03161515806104c757506001546001600160a01b031615155b156104e55760405163ccbe17fd60e01b815260040160405180910390fd5b600080546001600160a01b039384166001600160a01b03199182161790915560018054929093169116179055565b336001600160a01b03841681148015906105ca575060405163c161c93f60e01b81526001600160a01b038281166004830152858116602483015260448201859052606482018490527f000000000000000000000000ba24624ae5dc821866e9e71ed050412ef01e2fe6169063c161c93f90608401602060405180830381865afa1580156105a4573d6000803e3d6000fd5b505050506040513d601f19601f820116820180604052508101906105c89190610870565b155b8015610673575060405163c161c93f60e01b81526001600160a01b038281166004830152858116602483015260006044830152606482018490527f000000000000000000000000ba24624ae5dc821866e9e71ed050412ef01e2fe6169063c161c93f90608401602060405180830381865afa15801561064d573d6000803e3d6000fd5b505050506040513d601f19601f820116820180604052508101906106719190610870565b155b156106915760405163075fd2b160e01b815260040160405180910390fd5b50505050565b6153e2806200089383390190565b600080604083850312156106b857600080fd5b50508035926020909101359150565b6001600160a01b03811681146106dc57600080fd5b50565b60008060008060008060c087890312156106f857600080fd5b86359550602087013561070a816106c7565b9450604087013561071a816106c7565b9350606087013563ffffffff8116811461073357600080fd5b9598949750929560808101359460a0909101359350915050565b60006020828403121561075f57600080fd5b813561076a816106c7565b9392505050565b6000806040838503121561078457600080fd5b823561078f816106c7565b9150602083013561079f816106c7565b809150509250929050565b6000602082840312156107bc57600080fd5b815161076a816106c7565b8781526000602060018060a01b03808a16602085015288604085015263ffffffff8816606085015286608085015280861660a08501525060e060c084015283518060e085015260005b8181101561082d5785810183015185820161010001528201610810565b506101009150600082828601015281601f19601f8301168501019250505098975050505050505050565b60006020828403121561086957600080fd5b5051919050565b60006020828403121561088257600080fd5b8151801515811461076a57600080fdfe6101e06040523480156200001257600080fd5b50604051620053e2380380620053e28339810160408190526200003591620001a6565b6001600160a01b0380841660805280861660c05280851660e05287908790879087908790879087908216156200006c57816200006e565b305b6001600160a01b03166101205261014081905233610100525050506001600160a01b0393841661018052505016610160526040805163927ede2d60e01b81529051339163927ede2d9160048083019260209291908290030181865afa158015620000dc573d6000803e3d6000fd5b505050506040513d601f19601f8201168201806040525081019062000102919062000245565b6001600160a01b03166101a0526040805163774d18d160e11b81529051339163ee9a31a29160048083019260209291908290030181865afa1580156200014c573d6000803e3d6000fd5b505050506040513d601f19601f8201168201806040525081019062000172919062000245565b6001600160a01b03166101c052506200026c95505050505050565b6001600160a01b0381168114620001a357600080fd5b50565b600080600080600080600060e0888a031215620001c257600080fd5b8751620001cf816200018d565b6020890151909750620001e2816200018d565b6040890151909650620001f5816200018d565b606089015190955062000208816200018d565b60808901519094506200021b816200018d565b60a08901519093506200022e816200018d565b8092505060c0880151905092959891949750929550565b6000602082840312156200025857600080fd5b815162000265816200018d565b9392505050565b60805160a05160c05160e05161010051610120516101405161016051610180516101a0516101c051614ffa620003e8600039600081816102bb01528181611c3c0152611c8b01526000818161074401528181611de0015281816126a3015261270901526000818161026501526115f301526000818161063d015261155601526000818161035d015281816109a501528181610a2201528181610b8d01528181610bc501528181610d8d01528181611237015281816112e001528181611fa0015281816120bc015281816123520152818161240c0152818161250e01526126360152600081816104ff01528181611cbc01528181611e0b01526126df015260006105c801526000818161021901528181610db6015261170401526000818161049b015281816109160152818161125d015281816114a00152818161180401528181611fdb01526123800152600081816105fc01528181610ed901526111d901526000818161071001528181611a260152611acf0152614ffa6000f3fe6080604052600436106101c65760003560e01c806388bc2ef3116100f7578063c1b8411a11610095578063ed0e26b911610064578063ed0e26b91461068c578063f3c57881146106eb578063f434c914146106fe578063fc8fa43d1461073257600080fd5b8063c1b8411a146105b6578063c6525f2c146105ea578063d4a1b4b11461062b578063e7f82c751461065f57600080fd5b8063b59ef50f116100d1578063b59ef50f14610521578063b71c117914610541578063bf557aee14610554578063c18541291461059657600080fd5b806388bc2ef314610489578063aaf320d7146104bd578063ad42938b146104ed57600080fd5b8063551ebbf01161016457806369ce22331161013e57806369ce2233146103b057806369d31fdd146103d05780636dfa7268146103e35780637de6fba21461041257600080fd5b8063551ebbf01461032b57806356539f391461034b578063677ce0881461038d57600080fd5b80632241dc52116101a05780632241dc52146102875780632847f1f3146102a957806338eb2044146102dd5780634c4ffc71146102fd57600080fd5b806301ffc9a7146101d25780631d831d5c146102075780631eabcd341461025357600080fd5b366101cd57005b600080fd5b3480156101de57600080fd5b506101f26101ed36600461466e565b610766565b60405190151581526020015b60405180910390f35b34801561021357600080fd5b5061023b7f000000000000000000000000000000000000000000000000000000000000000081565b6040516001600160a01b0390911681526020016101fe565b34801561025f57600080fd5b5061023b7f000000000000000000000000000000000000000000000000000000000000000081565b34801561029357600080fd5b506102a76102a2366004614698565b6107b8565b005b3480156102b557600080fd5b5061023b7f000000000000000000000000000000000000000000000000000000000000000081565b3480156102e957600080fd5b506102a76102f8366004614724565b6107f0565b34801561030957600080fd5b5061031d610318366004614740565b610b87565b6040516101fe9291906147cb565b34801561033757600080fd5b506102a7610346366004614871565b610d57565b34801561035757600080fd5b5061037f7f000000000000000000000000000000000000000000000000000000000000000081565b6040519081526020016101fe565b34801561039957600080fd5b506101f26103a83660046148bb565b600092915050565b3480156103bc57600080fd5b506102a76103cb3660046148eb565b610ed5565b6102a76103de366004614724565b610f4e565b3480156103ef57600080fd5b506104036103fe3660046148eb565b6110bf565b6040516101fe93929190614908565b34801561041e57600080fd5b5061045f61042d3660046148eb565b6003602052600090815260409020805460019091015463ffffffff821691600160201b90046001600160a01b03169083565b6040805163ffffffff90941684526001600160a01b039092166020840152908201526060016101fe565b34801561049557600080fd5b5061023b7f000000000000000000000000000000000000000000000000000000000000000081565b3480156104c957600080fd5b506104dd6104d8366004614961565b611129565b6040516101fe949392919061499c565b3480156104f957600080fd5b5061023b7f000000000000000000000000000000000000000000000000000000000000000081565b34801561052d57600080fd5b506102a761053c366004614a3c565b61119d565b6102a761054f3660046148eb565b6113a4565b34801561056057600080fd5b506101f261056f3660046148eb565b6001600160a01b03908116600090815260036020526040902054600160201b900416151590565b3480156105a257600080fd5b506102a76105b1366004614a4f565b61144d565b3480156105c257600080fd5b5061023b7f000000000000000000000000000000000000000000000000000000000000000081565b3480156105f657600080fd5b5061061e7f000000000000000000000000000000000000000000000000000000000000000081565b6040516101fe9190614ac8565b34801561063757600080fd5b5061023b7f000000000000000000000000000000000000000000000000000000000000000081565b34801561066b57600080fd5b5061037f61067a3660046148eb565b60026020526000908152604090205481565b34801561069857600080fd5b506106cc6106a73660046148eb565b600160208190526000918252604090912080549101546001600160401b039091169082565b604080516001600160401b0390931683526020830191909152016101fe565b6102a76106f9366004614af0565b611481565b34801561070a57600080fd5b5061023b7f000000000000000000000000000000000000000000000000000000000000000081565b34801561073e57600080fd5b5061023b7f000000000000000000000000000000000000000000000000000000000000000081565b60006001600160e01b031982166340e01e1760e11b148061079757506001600160e01b0319821663f3c5788160e01b145b806107b257506301ffc9a760e01b6001600160e01b03198316145b92915050565b60005b818110156107eb576107e38383838181106107d8576107d8614b2b565b9050608002016107f0565b6001016107bb565b505050565b60006107ff60208301836148eb565b9050600061eeee61081360208501856148eb565b6001600160a01b0316149050808015610846575061eeee61083a60608501604086016148eb565b6001600160a01b031614155b801561086b5750600061085f60608501604086016148eb565b6001600160a01b031614155b156108aa5761088060608401604085016148eb565b604051630a0a3b6b60e31b81526001600160a01b0390911660048201526024015b60405180910390fd5b62030d406108be6040850160208601614b41565b63ffffffff161080156108cf575080155b156109115762030d406108e86040850160208601614b41565b604051634f3dbeb360e11b815263ffffffff9283166004820152911660248201526044016108a1565b610a487f00000000000000000000000000000000000000000000000000000000000000006001600160a01b031663293c49996040518163ffffffff1660e01b8152600401602060405180830381865afa158015610972573d6000803e3d6000fd5b505050506040513d601f19601f820116820180604052508101906109969190614b67565b6040516331a9108f60e11b81527f000000000000000000000000000000000000000000000000000000000000000060048201526001600160a01b039190911690636352211e90602401602060405180830381865afa1580156109fc573d6000803e3d6000fd5b505050506040513d601f19601f82011682018060405250810190610a209190614b67565b7f0000000000000000000000000000000000000000000000000000000000000000601d6119dc565b6000610a5a60608501604086016148eb565b6001600160a01b0316148015610a8a57506001600160a01b03821660009081526020819052604090206001015415155b15610ae4576001600160a01b0380831660009081526003602090815260408083208151606081018352815463ffffffff81168252600160201b90049095169285019290925260019091015490830152610ae4918490611b60565b6040518060600160405280846020016020810190610b029190614b41565b63ffffffff168152602001610b1d60608601604087016148eb565b6001600160a01b0390811682526060909501356020918201529284166000908152600384526040908190208251815495840151909616600160201b026001600160c01b031990951663ffffffff909616959095179390931784559091015160019092019190915550565b600060607f00000000000000000000000000000000000000000000000000000000000000008360c0013514610bfb57604051632d7b333360e11b81527f0000000000000000000000000000000000000000000000000000000000000000600482015260c084013560248201526044016108a1565b6000610c0d60608501604086016148eb565b6001600160a01b03808216600090815260036020526040902054919250600160201b90910416158015610c5a5750610c58610c4b60208601866148eb565b635db90a7f60e11b611f07565b155b15610cb5576040805160008082526020820190925261012086013591610caa565b60408051606080820183526000808352602083015291810191909152815260200190600190039081610c7b5790505b509250925050915091565b60408051600180825281830190925290816020015b60408051606080820183526000808352602083015291810191909152815260200190600190039081610cca5790505091506040518060600160405280306001600160a01b03168152602001600081526020016040518060200160405280600081525081525082600081518110610d4257610d42614b2b565b60200260200101819052506000925050915091565b6001600160a01b038316610d7e576040516309a9c30b60e41b815260040160405180910390fd5b60405163ea78803f60e01b81527f000000000000000000000000000000000000000000000000000000000000000060048201526000907f00000000000000000000000000000000000000000000000000000000000000006001600160a01b03169063ea78803f90602401602060405180830381865afa158015610e05573d6000803e3d6000fd5b505050506040513d601f19601f82011682018060405250810190610e299190614b67565b90506001600160a01b038116610e5257604051635a33845560e01b815260040160405180910390fd5b6001600160a01b03828116600090815260036020526040902054600160201b900416610e9c5760405163393e175160e01b81526001600160a01b03831660048201526024016108a1565b610eb16001600160a01b038216333088611f2a565b6000610ebf82878587611f91565b9050610ecd8684838861215e565b505050505050565b60007f00000000000000000000000000000000000000000000000000000000000000006001811115610f0957610f09614ab2565b14610f275760405163218a9a2d60e11b815260040160405180910390fd5b6001600160a01b038116600090815260026020526040902054610f4b9082906122e2565b50565b610f573361269f565b610f7457604051630439dbd360e51b815260040160405180910390fd5b60208101803590600290600090610f8b90856148eb565b6001600160a01b03166001600160a01b031681526020019081526020016000206000828254610fba9190614b9a565b90915550600190506000610fd160208401846148eb565b6001600160a01b0316815260208101919091526040908101600020546001600160401b0316906110079060608401908401614bc2565b6001600160401b03161115610f4b57604081016001600061102b60208501856148eb565b6001600160a01b03168152602081019190915260400160002061104e8282614bdf565b5061105e905060208201826148eb565b6001600160a01b03167f551b6b99b4c48e3265d2885ab0d93779be2402293261e074f7bf74b2c8f45b6f6110986060840160408501614bc2565b604080516001600160401b039092168252606085013560208301520160405180910390a250565b6000602081815291815260409081902080546001820154835161044081018086526001600160401b0390931695919490926002850192849283019184919082845b815481526020019060010190808311611100575050509183525050602091820154910152905083565b600080806060610160850135608086013560a08701358460405190808252806020026020018201604052801561118d57816020015b6040805160608082018352600080835260208301529181019190915281526020019060019003908161115e5790505b5093509350935093509193509193565b6111d560608201356111b260208401846148eb565b60808401356111c760608601604087016148eb565b602086013560a0870161279b565b60017f0000000000000000000000000000000000000000000000000000000000000000600181111561120957611209614ab2565b036112285761122861121e60208301836148eb565b60808301356122e2565b604051632eec7b5560e11b81527f000000000000000000000000000000000000000000000000000000000000000060048201527f00000000000000000000000000000000000000000000000000000000000000006001600160a01b031690635dd8f6aa90602401602060405180830381865afa1580156112ac573d6000803e3d6000fd5b505050506040513d601f19601f820116820180604052508101906112d09190614b67565b6001600160a01b031663c7fb92de7f00000000000000000000000000000000000000000000000000000000000000006060840180359061131390604087016148eb565b6040516001600160e01b031960e086901b168152600481019390935260248301919091526001600160a01b0316604482015260a06064820152600060a48201819052608482015260c4016020604051808303816000875af115801561137c573d6000803e3d6000fd5b505050506040513d601f19601f820116820180604052508101906113a09190614c12565b5050565b6001600160a01b0380821660008181526003602090815260408083208151606081018352815463ffffffff81168252600160201b9004909616868401526001908101548683018190529484529183905290912001541015611442576040808201516001600160a01b0384166000908152602081905282902060010154915163091df9e560e31b81526108a19290600401918252602082015260400190565b6113a0348383611b60565b60005b818110156107eb5761147983838381811061146d5761146d614b2b565b90506104a0020161119d565b600101611450565b604051636e49181f60e01b8152602082013560048201523360248201527f00000000000000000000000000000000000000000000000000000000000000006001600160a01b031690636e49181f90604401602060405180830381865afa1580156114ef573d6000803e3d6000fd5b505050506040513d601f19601f820116820180604052508101906115139190614c2b565b61153057604051634ae18d2b60e11b815260040160405180910390fd5b60408051630969875760e21b8152602083013560048201529082013560248201526000907f00000000000000000000000000000000000000000000000000000000000000006001600160a01b0316906325a61d5c9060440161012060405180830381865afa1580156115a6573d6000803e3d6000fd5b505050506040513d601f19601f820116820180604052508101906115ca9190614c94565b61010081015190915060009060241c63ffffffff1660c0840135146116b6576001600160a01b037f000000000000000000000000000000000000000000000000000000000000000016633be273fa602085013560c086013561163a86610100015163ffffffff60249190911c1690565b60405160e085901b6001600160e01b031916815260048101939093526024830191909152604482015260a08601356064820152608401602060405180830381865afa15801561168d573d6000803e3d6000fd5b505050506040513d601f19601f820116820180604052508101906116b19190614c12565b6116c5565b6116c560a0840135600a614df8565b905060006116dd6080850135610160860135846128cb565b60405163ea78803f60e01b8152602086013560048201529091506000906001600160a01b037f0000000000000000000000000000000000000000000000000000000000000000169063ea78803f90602401602060405180830381865afa15801561174b573d6000803e3d6000fd5b505050506040513d601f19601f8201168201806040525081019061176f9190614b67565b6040516370a0823160e01b81523060048201529091506000906001600160a01b038316906370a0823190602401602060405180830381865afa1580156117b9573d6000803e3d6000fd5b505050506040513d601f19601f820116820180604052508101906117dd9190614c12565b604051632eec7b5560e11b8152602088013560048201529091506000906001600160a01b037f00000000000000000000000000000000000000000000000000000000000000001690635dd8f6aa90602401602060405180830381865afa15801561184b573d6000803e3d6000fd5b505050506040513d601f19601f8201168201806040525081019061186f9190614b67565b6040516363fdc96f60e11b8152602089013560048201526024810186905230604482015260a06064820152600060a4820152600160848201526001600160a01b03919091169063c7fb92de9060c4016020604051808303816000875af11580156118dd573d6000803e3d6000fd5b505050506040513d601f19601f820116820180604052508101906119019190614c12565b6040516370a0823160e01b815230600482015290915082906001600160a01b038516906370a0823190602401602060405180830381865afa15801561194a573d6000803e3d6000fd5b505050506040513d601f19601f8201168201806040525081019061196e9190614c12565b6119789190614e04565b811461198657611986614e17565b60006119a4848361199d60808c0160608d016148eb565b6000611f91565b90506119d2826119ba60808b0160608c016148eb565b836119cd6101c08d016101a08e016148eb565b61215e565b5050505050505050565b336001600160a01b0384168114801590611a93575060405163c161c93f60e01b81526001600160a01b038281166004830152858116602483015260448201859052606482018490527f0000000000000000000000000000000000000000000000000000000000000000169063c161c93f90608401602060405180830381865afa158015611a6d573d6000803e3d6000fd5b505050506040513d601f19601f82011682018060405250810190611a919190614c2b565b155b8015611b3c575060405163c161c93f60e01b81526001600160a01b038281166004830152858116602483015260006044830152606482018490527f0000000000000000000000000000000000000000000000000000000000000000169063c161c93f90608401602060405180830381865afa158015611b16573d6000803e3d6000fd5b505050506040513d601f19601f82011682018060405250810190611b3a9190614c2b565b155b15611b5a5760405163075fd2b160e01b815260040160405180910390fd5b50505050565b60008315611b81576040516352864b0160e11b815260040160405180910390fd5b6001600160a01b0383166000908152602081905260408120600181018054908390558154909291908290611bbd906001600160401b0316614e2d565b91906101000a8154816001600160401b0302191690836001600160401b031602179055905060006001600160a01b031684602001516001600160a01b031603611c245760405163393e175160e01b81526001600160a01b03861660048201526024016108a1565b6001600160a01b03851661eeee14611d1f57611c61857f00000000000000000000000000000000000000000000000000000000000000008461299e565b6020808501518551604080519384018152600084525163540abf7360e01b81526001600160a01b037f0000000000000000000000000000000000000000000000000000000000000000169363540abf7393611ce8938b9391927f0000000000000000000000000000000000000000000000000000000000000000928a929190600401614e53565b600060405180830381600087803b158015611d0257600080fd5b505af1158015611d16573d6000803e3d6000fd5b50505050611d23565b8192505b6001600160a01b0385166000908152602081905260408120611d4790600201612a2e565b6001600160a01b03871660009081526020819052604081206022015491925090611d7390600190614e04565b604080516060810182526020808a01516001600160a01b039081168352818301898152845180860186526001600160401b03808b1682528185018a9052858701918252955194518316602486015290516044850152518051909416606484015292015160848201529192507f00000000000000000000000000000000000000000000000000000000000000001690633dbb202b9087907f00000000000000000000000000000000000000000000000000000000000000009060a40160408051601f198184030181529181526020820180516001600160e01b03166369d31fdd60e01b179052516001600160e01b031960e086901b168152611e7d929190620493e090600401614ea6565b6000604051808303818588803b158015611e9657600080fd5b505af1158015611eaa573d6000803e3d6000fd5b5050604080518581526001600160401b03881660208201526001600160a01b038c1694508693507f3e069c1f498cba23d7d2b74b84311469e8da6e527cade62061d642c61b64e0de92500160405180910390a35050505050505050565b6000611f1283613de4565b8015611f235750611f238383613e17565b9392505050565b6040516001600160a01b038481166024830152838116604483015260648201839052611b5a9186918216906323b872dd906084015b604051602081830303815290604052915060e01b6020820180516001600160e01b038381831617835250505050613ea1565b604051630862026560e41b81527f000000000000000000000000000000000000000000000000000000000000000060048201526001600160a01b03838116602483015260009182917f00000000000000000000000000000000000000000000000000000000000000001690638620265090604401602060405180830381865afa158015612022573d6000803e3d6000fd5b505050506040513d601f19601f820116820180604052508101906120469190614b67565b90506001600160a01b03811661207a5760405163393e175160e01b81526001600160a01b03851660048201526024016108a1565b60006120868530613f04565b60408051602081018252600081529051635db90a7f60e11b81529192506001600160a01b0384169163bb7214fe916120ec9130917f0000000000000000000000000000000000000000000000000000000000000000918b918d918c918691600401614ee0565b6020604051808303816000875af115801561210b573d6000803e3d6000fd5b505050506040513d601f19601f8201168201806040525081019061212f9190614c12565b92508061213c8630613f04565b6121469190614e04565b831461215457612154614e17565b5050949350505050565b600061216b858484613f94565b6001600160a01b0385166000908152602081815260408083208151610440810180845295965093946121d69487949093600290930192849290830191849182845b8154815260200190600101908083116121ac57505050918352505060209182015491015290613fd9565b6001600160a01b038616600090815260208181526040909120825192935083926002909101916122079183916145dc565b50602091820151908201556001600160a01b03861660009081529081905260408120600101805486929061223c908490614b9a565b92505081905550846001600160a01b0316836001600160a01b03167f7b58dbb78e7edc690b0688a53dea0c443d630c4a5db66c3c47d4ff2044c97728846001856020015161228a9190614e04565b6001600160a01b038a1660009081526020819052604090206122ae90600201612a2e565b60408051938452602084019290925290820152606081018a90526080810188905260a00160405180910390a3505050505050565b6001600160a01b0382166000908152600260205260409020548082111561231c57604051632858f9ab60e11b815260040160405180910390fd5b6123268282614e04565b6001600160a01b03848116600081815260026020526040808220949094559251630862026560e41b81527f0000000000000000000000000000000000000000000000000000000000000000600482015260248101919091527f000000000000000000000000000000000000000000000000000000000000000090911690638620265090604401602060405180830381865afa1580156123c9573d6000803e3d6000fd5b505050506040513d601f19601f820116820180604052508101906123ed9190614b67565b90506001600160a01b03811661244757604051630c9ae01360e01b81527f000000000000000000000000000000000000000000000000000000000000000060048201526001600160a01b03851660248201526044016108a1565b6001600160a01b03841661eeee146125f7576040516370a0823160e01b81523060048201526000906001600160a01b038616906370a0823190602401602060405180830381865afa1580156124a0573d6000803e3d6000fd5b505050506040513d601f19601f820116820180604052508101906124c49190614c12565b90506124d185838661299e565b60408051602080820183526000808352835191820184528082529251639e6eec0560e01b81526001600160a01b03861693639e6eec059361253e937f0000000000000000000000000000000000000000000000000000000000000000938c938c9390929091600401614f32565b600060405180830381600087803b15801561255857600080fd5b505af115801561256c573d6000803e3d6000fd5b50505050838161257c9190614e04565b6040516370a0823160e01b81523060048201526001600160a01b038716906370a0823190602401602060405180830381865afa1580156125c0573d6000803e3d6000fd5b505050506040513d601f19601f820116820180604052508101906125e49190614c12565b146125f1576125f1614e17565b50611b5a565b60408051602080820183526000808352835191820184528082529251639e6eec0560e01b81526001600160a01b03851693639e6eec05938893612667937f0000000000000000000000000000000000000000000000000000000000000000938c9387939192909190600401614f32565b6000604051808303818588803b15801561268057600080fd5b505af1158015612694573d6000803e3d6000fd5b505050505050505050565b60007f00000000000000000000000000000000000000000000000000000000000000006001600160a01b0316826001600160a01b03161480156107b257507f00000000000000000000000000000000000000000000000000000000000000006001600160a01b03167f00000000000000000000000000000000000000000000000000000000000000006001600160a01b0316636e296e456040518163ffffffff1660e01b81526004016020604051808303816000875af1158015612767573d6000803e3d6000fd5b505050506040513d601f19601f8201168201806040525081019061278b9190614b67565b6001600160a01b03161492915050565b6001600160a01b0385166000908152600460209081526040808320600886901c8452909152902054600160ff84161b16156127ec5760405163ed9bdd0760e01b8152600481018390526024016108a1565b6001600160a01b0385166000908152600460209081526040808320600886901c845290915281208054600160ff86161b17905561285b61282d888787613f94565b6040805161040081810190925290859060209083908390808284376000920191909152508791506140df9050565b6001600160a01b0387166000908152600160208190526040909120015490915081146128c2576001600160a01b0386166000908152600160208190526040918290200154905163286f87c960e21b81526004810191909152602481018290526044016108a1565b50505050505050565b6000808060001985870985870292508281108382030391505080600003612905578382816128fb576128fb614f79565b0492505050611f23565b83811061293657604051630c740aef60e31b81526004810187905260248101869052604481018590526064016108a1565b600084868809600260036001881981018916988990049182028318808302840302808302840302808302840302808302840302808302840302918202909203026000889003889004909101858311909403939093029303949094049190911702949350505050565b604080516001600160a01b038416602482015260448082018490528251808303909101815260649091019091526020810180516001600160e01b031663095ea7b360e01b1790526129ef848261442d565b611b5a576040516001600160a01b03848116602483015260006044830152612a2491869182169063095ea7b390606401611f5f565b611b5a8482613ea1565b6020810154600090808203612a6557507f27ae5ba08d7291c96c8cbddcc148bf48a6d68c7974b94356f53754ef6171d75792915050565b6000836001831615612a8757805460005260006020526040600020935061333a565b6002831615612acc5760018101546000527fad3228b676f7d3cd4284a5443f17f1962b36e491b30a40b2405849e597ba5fb5602052604060002093506001915061333a565b6004831615612b115760028101546000527fb4c11951957c6f8f642c4af61cd6b24640fec6dc7fc607ee8206a99e92410d30602052604060002093506002915061333a565b6008831615612b565760038101546000527f21ddb9a356815c3fac1026b6dec5df3124afbadb485c9ba5a3e3398a04b7ba85602052604060002093506003915061333a565b6010831615612b9b5760048101546000527fe58769b32a1beaf1ea27375a44095a0d1fb664ce2dd358e7fcbfb78c26a19344602052604060002093506004915061333a565b6020831615612be05760058101546000527f0eb01ebfc9ed27500cd4dfc979272d1f0913cc9f66540d7e8005811109e1cf2d602052604060002093506005915061333a565b6040831615612c255760068101546000527f887c22bd8750d34016ac3c66b5ff102dacdd73f6b014e710b51e8022af9a1968602052604060002093506006915061333a565b6080831615612c6a5760078101546000527fffd70157e48063fc33c97a050f7f640233bf646cc98d9524c6b92bcf3ab56f83602052604060002093506007915061333a565b610100831615612cb05760088101546000527f9867cc5f7f196b93bae1e27e6320742445d290f2263827498b54fec539f756af602052604060002093506008915061333a565b610200831615612cf65760098101546000527fcefad4e508c098b9a7e1d8feb19955fb02ba9675585078710969d3440f5054e0602052604060002093506009915061333a565b610400831615612d3c57600a8101546000527ff9dc3e7fe016e050eff260334f18a5d4fe391d82092319f5964f2e2eb7c1c3a560205260406000209350600a915061333a565b610800831615612d8257600b8101546000527ff8b13a49e282f609c317a833fb8d976d11517c571d1221a265d25af778ecf89260205260406000209350600b915061333a565b611000831615612dc857600c8101546000527f3490c6ceeb450aecdc82e28293031d10c7d73bf85e57bf041a97360aa2c5d99c60205260406000209350600c915061333a565b612000831615612e0e57600d8101546000527fc1df82d9c4b87413eae2ef048f94b4d3554cea73d92b0f7af96e0271c691e2bb60205260406000209350600d915061333a565b614000831615612e5457600e8101546000527f5c67add7c6caf302256adedf7ab114da0acfe870d449a3a489f781d659e8becc60205260406000209350600e915061333a565b618000831615612e9a57600f8101546000527fda7bce9f4e8618b6bd2f4132ce798cdc7a60e7e1460a7299e3c6342a579626d260205260406000209350600f915061333a565b62010000831615612ee15760108101546000527f2733e50f526ec2fa19a22b31e8ed50f23cd1fdf94c9154ed3a7609a2f1ff981f602052604060002093506010915061333a565b62020000831615612f285760118101546000527fe1d3b5c807b281e4683cc6d6315cf95b9ade8641defcb32372f1c126e398ef7a602052604060002093506011915061333a565b62040000831615612f6f5760128101546000527f5a2dce0a8a7f68bb74560f8f71837c2c2ebbcbf7fffb42ae1896f13f7c7479a0602052604060002093506012915061333a565b62080000831615612fb65760138101546000527fb46a28b6f55540f89444f63de0378e3d121be09e06cc9ded1c20e65876d36aa0602052604060002093506013915061333a565b62100000831615612ffd5760148101546000527fc65e9645644786b620e2dd2ad648ddfcbf4a7e5b1a3a4ecfe7f64667a3f0b7e2602052604060002093506014915061333a565b622000008316156130445760158101546000527ff4418588ed35a2458cffeb39b93d26f18d2ab13bdce6aee58e7b99359ec2dfd9602052604060002093506015915061333a565b6240000083161561308b5760168101546000527f5a9c16dc00d6ef18b7933a6f8dc65ccb55667138776f7dea101070dc8796e377602052604060002093506016915061333a565b628000008316156130d25760178101546000527f4df84f40ae0c8229d0d6069e5c8f39a7c299677a09d367fc7b05e3bc380ee652602052604060002093506017915061333a565b630100000083161561311a5760188101546000527fcdc72595f74c7b1043d0e1ffbab734648c838dfb0527d971b602bc216c9619ef602052604060002093506018915061333a565b63020000008316156131625760198101546000527f0abf5ac974a1ed57f4050aa510dd9c74f508277b39d7973bb2dfccc5eeb0618d602052604060002093506019915061333a565b63040000008316156131aa57601a8101546000527fb8cd74046ff337f0a7bf2c8e03e10f642c1886798d71806ab1e888d9e5ee87d060205260406000209350601a915061333a565b63080000008316156131f257601b8101546000527f838c5655cb21c6cb83313b5a631175dff4963772cce9108188b34ac87c81c41e60205260406000209350601b915061333a565b631000000083161561323a57601c8101546000527f662ee4dd2dd7b2bc707961b1e646c4047669dcb6584f0d8d770daf5d7e7deb2e60205260406000209350601c915061333a565b632000000083161561328257601d8101546000527f388ab20e2573d171a88108e79d820e98f26c0b84aa8b2f4aa4968dbb818ea32260205260406000209350601d915061333a565b63400000008316156132ca57601e8101546000527f93237c50ba75ee485f4c22adf2f741400bdf8d6a9cc7df7ecae576221665d73560205260406000209350601e915061333a565b638000000083161561331257601f8101546000527f8448818bb4ae4562849e949e17ac16e0be16688e156b5cf15e098c627c0056a960205260406000209350601f915061333a565b7f27ae5ba08d7291c96c8cbddcc148bf48a6d68c7974b94356f53754ef6171d7579350602091505b601e8211613ddc576001821015613398576002831680156133665760018201546000528460205261338f565b846000527fad3228b676f7d3cd4284a5443f17f1962b36e491b30a40b2405849e597ba5fb56020525b50604060002093505b60028210156133ee576004831680156133bc576002820154600052846020526133e5565b846000527fb4c11951957c6f8f642c4af61cd6b24640fec6dc7fc607ee8206a99e92410d306020525b50604060002093505b6003821015613444576008831680156134125760038201546000528460205261343b565b846000527f21ddb9a356815c3fac1026b6dec5df3124afbadb485c9ba5a3e3398a04b7ba856020525b50604060002093505b600482101561349a5760108316801561346857600482015460005284602052613491565b846000527fe58769b32a1beaf1ea27375a44095a0d1fb664ce2dd358e7fcbfb78c26a193446020525b50604060002093505b60058210156134f0576020831680156134be576005820154600052846020526134e7565b846000527f0eb01ebfc9ed27500cd4dfc979272d1f0913cc9f66540d7e8005811109e1cf2d6020525b50604060002093505b6006821015613546576040831680156135145760068201546000528460205261353d565b846000527f887c22bd8750d34016ac3c66b5ff102dacdd73f6b014e710b51e8022af9a19686020525b50604060002093505b600782101561359c5760808316801561356a57600782015460005284602052613593565b846000527fffd70157e48063fc33c97a050f7f640233bf646cc98d9524c6b92bcf3ab56f836020525b50604060002093505b60088210156135f357610100831680156135c1576008820154600052846020526135ea565b846000527f9867cc5f7f196b93bae1e27e6320742445d290f2263827498b54fec539f756af6020525b50604060002093505b600982101561364a576102008316801561361857600982015460005284602052613641565b846000527fcefad4e508c098b9a7e1d8feb19955fb02ba9675585078710969d3440f5054e06020525b50604060002093505b600a8210156136a1576104008316801561366f57600a82015460005284602052613698565b846000527ff9dc3e7fe016e050eff260334f18a5d4fe391d82092319f5964f2e2eb7c1c3a56020525b50604060002093505b600b8210156136f857610800831680156136c657600b820154600052846020526136ef565b846000527ff8b13a49e282f609c317a833fb8d976d11517c571d1221a265d25af778ecf8926020525b50604060002093505b600c82101561374f576110008316801561371d57600c82015460005284602052613746565b846000527f3490c6ceeb450aecdc82e28293031d10c7d73bf85e57bf041a97360aa2c5d99c6020525b50604060002093505b600d8210156137a6576120008316801561377457600d8201546000528460205261379d565b846000527fc1df82d9c4b87413eae2ef048f94b4d3554cea73d92b0f7af96e0271c691e2bb6020525b50604060002093505b600e8210156137fd57614000831680156137cb57600e820154600052846020526137f4565b846000527f5c67add7c6caf302256adedf7ab114da0acfe870d449a3a489f781d659e8becc6020525b50604060002093505b600f821015613854576180008316801561382257600f8201546000528460205261384b565b846000527fda7bce9f4e8618b6bd2f4132ce798cdc7a60e7e1460a7299e3c6342a579626d26020525b50604060002093505b60108210156138ac57620100008316801561387a576010820154600052846020526138a3565b846000527f2733e50f526ec2fa19a22b31e8ed50f23cd1fdf94c9154ed3a7609a2f1ff981f6020525b50604060002093505b60118210156139045762020000831680156138d2576011820154600052846020526138fb565b846000527fe1d3b5c807b281e4683cc6d6315cf95b9ade8641defcb32372f1c126e398ef7a6020525b50604060002093505b601282101561395c57620400008316801561392a57601282015460005284602052613953565b846000527f5a2dce0a8a7f68bb74560f8f71837c2c2ebbcbf7fffb42ae1896f13f7c7479a06020525b50604060002093505b60138210156139b4576208000083168015613982576013820154600052846020526139ab565b846000527fb46a28b6f55540f89444f63de0378e3d121be09e06cc9ded1c20e65876d36aa06020525b50604060002093505b6014821015613a0c5762100000831680156139da57601482015460005284602052613a03565b846000527fc65e9645644786b620e2dd2ad648ddfcbf4a7e5b1a3a4ecfe7f64667a3f0b7e26020525b50604060002093505b6015821015613a64576220000083168015613a3257601582015460005284602052613a5b565b846000527ff4418588ed35a2458cffeb39b93d26f18d2ab13bdce6aee58e7b99359ec2dfd96020525b50604060002093505b6016821015613abc576240000083168015613a8a57601682015460005284602052613ab3565b846000527f5a9c16dc00d6ef18b7933a6f8dc65ccb55667138776f7dea101070dc8796e3776020525b50604060002093505b6017821015613b14576280000083168015613ae257601782015460005284602052613b0b565b846000527f4df84f40ae0c8229d0d6069e5c8f39a7c299677a09d367fc7b05e3bc380ee6526020525b50604060002093505b6018821015613b6d57630100000083168015613b3b57601882015460005284602052613b64565b846000527fcdc72595f74c7b1043d0e1ffbab734648c838dfb0527d971b602bc216c9619ef6020525b50604060002093505b6019821015613bc657630200000083168015613b9457601982015460005284602052613bbd565b846000527f0abf5ac974a1ed57f4050aa510dd9c74f508277b39d7973bb2dfccc5eeb0618d6020525b50604060002093505b601a821015613c1f57630400000083168015613bed57601a82015460005284602052613c16565b846000527fb8cd74046ff337f0a7bf2c8e03e10f642c1886798d71806ab1e888d9e5ee87d06020525b50604060002093505b601b821015613c7857630800000083168015613c4657601b82015460005284602052613c6f565b846000527f838c5655cb21c6cb83313b5a631175dff4963772cce9108188b34ac87c81c41e6020525b50604060002093505b601c821015613cd157631000000083168015613c9f57601c82015460005284602052613cc8565b846000527f662ee4dd2dd7b2bc707961b1e646c4047669dcb6584f0d8d770daf5d7e7deb2e6020525b50604060002093505b601d821015613d2a57632000000083168015613cf857601d82015460005284602052613d21565b846000527f388ab20e2573d171a88108e79d820e98f26c0b84aa8b2f4aa4968dbb818ea3226020525b50604060002093505b601e821015613d8357634000000083168015613d5157601e82015460005284602052613d7a565b846000527f93237c50ba75ee485f4c22adf2f741400bdf8d6a9cc7df7ecae576221665d7356020525b50604060002093505b601f821015613ddc57638000000083168015613daa57601f82015460005284602052613dd3565b846000527f8448818bb4ae4562849e949e17ac16e0be16688e156b5cf15e098c627c0056a96020525b50604060002093505b505050919050565b6000613df7826301ffc9a760e01b613e17565b80156107b25750613e10826001600160e01b0319613e17565b1592915050565b6040516001600160e01b031982166024820152600090819060440160408051601f19818403018152919052602080820180516001600160e01b03166301ffc9a760e01b178152825192935060009283928392909183918a617530fa92503d91506000519050828015613e8a575060208210155b8015613e965750600081115b979650505050505050565b6000613eb66001600160a01b038416836144d5565b90508051600014158015613edb575080806020019051810190613ed99190614c2b565b155b156107eb57604051635274afe760e01b81526001600160a01b03841660048201526024016108a1565b600061eeed196001600160a01b03841601613f2a57506001600160a01b038116316107b2565b6040516370a0823160e01b81526001600160a01b0383811660048301528416906370a0823190602401602060405180830381865afa158015613f70573d6000803e3d6000fd5b505050506040513d601f19601f82011682018060405250810190611f239190614c12565b60408051602081018590529081018390526001600160a01b03821660608201526000906080016040516020818303038152906040528051906020012090509392505050565b613fe161461a565b6000836020018051613ff290614f8f565b908190529050600161400660206002614df8565b6140109190614e04565b81111561403057604051638eab04bb60e01b815260040160405180910390fd5b60005b60208110156140c5578160011660010361406c5784518490826020811061405c5761405c614b2b565b6020020152508391506107b29050565b8451816020811061407f5761407f614b2b565b60200201518460405160200161409f929190918252602082015260400190565b60408051601f1981840301815291905280516020909101209350600191821c9101614033565b50604051638eab04bb60e01b815260040160405180910390fd5b6020600582811b8216948552835194820394909452604060008181206002851615871b808503919091528386015190528181206004851615871b808503919091528286015190528181206008851615871b80850391909152606086015190528181206010851615871b8085039190915260808087015190915282822084861615881b8086039190915260a0870151905282822083861615881b8086039190915260c0870151905282822090851615871b8085039190915260e0860151905281812061010080861615881b80860392909252860151905281812061020080861615881b80860392909252610120870151909152828220610400861615881b808603919091526101408701519052828220610800861615881b808603919091526101608701519052828220611000861615881b808603919091526101808701519052828220612000861615881b808603919091526101a08701519052828220614000861615881b808603919091526101c08701519052828220618000861615881b808603919091526101e0870151905282822062010000861615881b8086039190915290860151905281812062020000851615871b80850391909152610220860151905281812062040000851615871b80850391909152610240860151905281812062080000851615871b80850391909152610260860151905281812062100000851615871b80850391909152610280860151905281812062200000851615871b808503919091526102a0860151905281812062400000851615871b808503919091526102c0860151905281812062800000851615871b808503919091526102e086015190528181206301000000851615871b8085039190915261030086015190528181206302000000851615871b8085039190915261032086015190528181206304000000851615871b8085039190915261034086015190528181206308000000851615871b8085039190915261036086015190528181206310000000851615871b8085039190915261038086015190528181206320000000851615871b808503919091526103a086015190528181206340000000851615871b808503919091526103c0860151905281812063800000009094161590951b91829003929092526103e090920151909152902090565b6000806000846001600160a01b03168460405161444a9190614fa8565b6000604051808303816000865af19150503d8060008114614487576040519150601f19603f3d011682016040523d82523d6000602084013e61448c565b606091505b50915091508180156144b65750805115806144b65750808060200190518101906144b69190614c2b565b80156144cc57506000856001600160a01b03163b115b95945050505050565b6060611f238383600084600080856001600160a01b031684866040516144fb9190614fa8565b60006040518083038185875af1925050503d8060008114614538576040519150601f19603f3d011682016040523d82523d6000602084013e61453d565b606091505b509150915061454d868383614557565b9695505050505050565b60608261456c57614567826145b3565b611f23565b815115801561458357506001600160a01b0384163b155b156145ac57604051639996b31560e01b81526001600160a01b03851660048201526024016108a1565b5080611f23565b8051156145c35780518082602001fd5b604051630a12f52160e11b815260040160405180910390fd5b826020810192821561460a579160200282015b8281111561460a5782518255916020019190600101906145ef565b5061461692915061463a565b5090565b604051806040016040528061462d61464f565b8152602001600081525090565b5b80821115614616576000815560010161463b565b6040518061040001604052806020906020820280368337509192915050565b60006020828403121561468057600080fd5b81356001600160e01b031981168114611f2357600080fd5b600080602083850312156146ab57600080fd5b82356001600160401b03808211156146c257600080fd5b818501915085601f8301126146d657600080fd5b8135818111156146e557600080fd5b8660208260071b85010111156146fa57600080fd5b60209290920196919550909350505050565b60006080828403121561471e57600080fd5b50919050565b60006080828403121561473657600080fd5b611f23838361470c565b60006020828403121561475257600080fd5b81356001600160401b0381111561476857600080fd5b82016101808185031215611f2357600080fd5b60005b8381101561479657818101518382015260200161477e565b50506000910152565b600081518084526147b781602086016020860161477b565b601f01601f19169290920160200192915050565b6000604080830185845260206040818601528186518084526060935060608701915060608160051b88010183890160005b8381101561484c57898303605f19018552815180516001600160a01b0316845286810151878501528801518884018890526148398885018261479f565b95870195935050908501906001016147fc565b50909a9950505050505050505050565b6001600160a01b0381168114610f4b57600080fd5b6000806000806080858703121561488757600080fd5b8435935060208501356148998161485c565b92506040850135915060608501356148b08161485c565b939692955090935050565b600080604083850312156148ce57600080fd5b8235915060208301356148e08161485c565b809150509250929050565b6000602082840312156148fd57600080fd5b8135611f238161485c565b6001600160401b038416815260208082018490528251610460830191906000604085015b8382101561494a57825181529183019160019190910190830161492c565b505050506020830151610440830152949350505050565b60006020828403121561497357600080fd5b81356001600160401b0381111561498957600080fd5b82016101a08185031215611f2357600080fd5b60006080820186835260208681850152604086604086015260606080606087015283875180865260a08801915060a08160051b890101955084890160005b82811015614a2a57898803609f19018452815180516001600160a01b0316895287810151888a0152860151868901869052614a17868a018261479f565b98505092860192908601906001016149da565b50959c9b505050505050505050505050565b60006104a0828403121561471e57600080fd5b60008060208385031215614a6257600080fd5b82356001600160401b0380821115614a7957600080fd5b818501915085601f830112614a8d57600080fd5b813581811115614a9c57600080fd5b8660206104a0830285010111156146fa57600080fd5b634e487b7160e01b600052602160045260246000fd5b6020810160028310614aea57634e487b7160e01b600052602160045260246000fd5b91905290565b600060208284031215614b0257600080fd5b81356001600160401b03811115614b1857600080fd5b82016102008185031215611f2357600080fd5b634e487b7160e01b600052603260045260246000fd5b600060208284031215614b5357600080fd5b813563ffffffff81168114611f2357600080fd5b600060208284031215614b7957600080fd5b8151611f238161485c565b634e487b7160e01b600052601160045260246000fd5b808201808211156107b2576107b2614b84565b6001600160401b0381168114610f4b57600080fd5b600060208284031215614bd457600080fd5b8135611f2381614bad565b8135614bea81614bad565b6001600160401b0381166001600160401b031983541617825550602082013560018201555050565b600060208284031215614c2457600080fd5b5051919050565b600060208284031215614c3d57600080fd5b81518015158114611f2357600080fd5b60405161012081016001600160401b0381118282101715614c7e57634e487b7160e01b600052604160045260246000fd5b60405290565b8051614c8f8161485c565b919050565b60006101208284031215614ca757600080fd5b614caf614c4d565b825181526020830151602082015260408301516040820152606083015160608201526080830151608082015260a083015160a082015260c083015160c0820152614cfb60e08401614c84565b60e0820152610100928301519281019290925250919050565b600181815b80851115614d4f578160001904821115614d3557614d35614b84565b80851615614d4257918102915b93841c9390800290614d19565b509250929050565b600082614d66575060016107b2565b81614d73575060006107b2565b8160018114614d895760028114614d9357614daf565b60019150506107b2565b60ff841115614da457614da4614b84565b50506001821b6107b2565b5060208310610133831016604e8410600b8410161715614dd2575081810a6107b2565b614ddc8383614d14565b8060001904821115614df057614df0614b84565b029392505050565b6000611f238383614d57565b818103818111156107b2576107b2614b84565b634e487b7160e01b600052600160045260246000fd5b60006001600160401b03808316818103614e4957614e49614b84565b6001019392505050565b6001600160a01b0387811682528681166020830152851660408201526060810184905263ffffffff8316608082015260c060a08201819052600090614e9a9083018461479f565b98975050505050505050565b6001600160a01b0384168152606060208201819052600090614eca9083018561479f565b905063ffffffff83166040830152949350505050565b600060018060a01b03808a168352886020840152808816604084015286606084015285608084015280851660a08401525060e060c0830152614f2560e083018461479f565b9998505050505050505050565b86815260018060a01b0386166020820152846040820152831515606082015260c060808201526000614f6760c083018561479f565b82810360a0840152614f25818561479f565b634e487b7160e01b600052601260045260246000fd5b600060018201614fa157614fa1614b84565b5060010190565b60008251614fba81846020870161477b565b919091019291505056fea26469706673582212208714ceb1bc7a9eb8cee93b01971eeaf216aecef7f7dc417297a3a7e9df225bcc64736f6c63430008170033a2646970667358221220eca34b482119d0e8b06779479c60d0c95657445fd459f5cd91721eaea86a63d164736f6c63430008170033",
			"devdoc": {
				"kind": "dev",
				"methods": {
					"createForSender(uint256,bytes32)": {
						"details": "Uses the sender address as the salt, which means the same sender must call this function on both chains.",
						"params": {
							"localProjectId": "The project's ID on the local chain.",
							"salt": "The salt to use for the `create2` address."
						},
						"returns": {
							"sucker": "The address of the new sucker."
						}
					},
					"useAllowanceFeeless(uint256,address,address,uint32,uint256,uint256)": {
						"details": "This function can only be called by suckers deployed by this contract.This function can only be called by suckers with `JBPermissionIds.USE_ALLOWANCE` permission from the project's owner.This function is not necessarily feeless, as it still requires JuiceboxDAO to set the address as feeless.",
						"params": {
							"amount": "The amount to use from the terminal, denominated in the `currency`.",
							"currency": "The currency that the `amount` is denominated in.",
							"minReceivedTokens": "The minimum amount of terminal tokens to receive. If the terminal returns less than this amount, the transaction will revert.",
							"projectId": "The project's ID.",
							"terminal": "The terminal to use the surplus allowance from.",
							"token": "The token that the surplus is in."
						},
						"returns": {
							"_0": "The amount of tokens received."
						}
					}
				},
				"version": 1
			},
			"userdoc": {
				"kind": "user",
				"methods": {
					"BRIDGE()": {
						"notice": "The bridge used to bridge tokens between the local and remote chain."
					},
					"MESSENGER()": {
						"notice": "The messenger used to send messages between the local and remote sucker."
					},
					"PERMISSIONS()": {
						"notice": "A contract storing permissions."
					},
					"createForSender(uint256,bytes32)": {
						"notice": "Create a new `BPSucker` for a specific project."
					},
					"isSucker(address)": {
						"notice": "A mapping of suckers deployed by this contract."
					},
					"useAllowanceFeeless(uint256,address,address,uint32,uint256,uint256)": {
						"notice": "Use a project's surplus allowance without paying exit fees."
					}
				},
				"version": 1
			},
			"gitCommit": "0a60f0f31058251fdf5ff5d9eae86ae30e88f8cb",
			"sourceName": "src/deployers/BPOptimismSuckerDeployer.sol",
			"chainId": "11155420",
			"linkReferences": {},
			"deployedLinkReferences": {}
		}
	]
}