{
	"_format": "sphinx-sol-ct-artifact-1",
	"merkleRoot": "0x6cdbb283dddfa646675de2a310bad929f3d4edc1b525356857a4834545b85eeb",
	"contractName": "BPOptimismSuckerDeployer",
	"address": "0xEac1EEB9E5Dd5C5a0ED25042b3A6b0B45237FC77",
	"abi": [
		{
			"type": "constructor",
			"inputs": [
				{
					"name": "directory",
					"type": "address",
					"internalType": "contract IJBDirectory"
				},
				{
					"name": "tokens",
					"type": "address",
					"internalType": "contract IJBTokens"
				},
				{
					"name": "permissions",
					"type": "address",
					"internalType": "contract IJBPermissions"
				},
				{
					"name": "_configurator",
					"type": "address",
					"internalType": "address"
				}
			],
			"stateMutability": "nonpayable"
		},
		{
			"type": "function",
			"name": "BRIDGE",
			"inputs": [],
			"outputs": [
				{
					"name": "",
					"type": "address",
					"internalType": "contract OPStandardBridge"
				}
			],
			"stateMutability": "view"
		},
		{
			"type": "function",
			"name": "MESSENGER",
			"inputs": [],
			"outputs": [
				{
					"name": "",
					"type": "address",
					"internalType": "contract OPMessenger"
				}
			],
			"stateMutability": "view"
		},
		{
			"type": "function",
			"name": "PERMISSIONS",
			"inputs": [],
			"outputs": [
				{
					"name": "",
					"type": "address",
					"internalType": "contract IJBPermissions"
				}
			],
			"stateMutability": "view"
		},
		{
			"type": "function",
			"name": "TEMP_ID_STORE",
			"inputs": [],
			"outputs": [
				{
					"name": "",
					"type": "uint256",
					"internalType": "uint256"
				}
			],
			"stateMutability": "view"
		},
		{
			"type": "function",
			"name": "configureLayerSpecific",
			"inputs": [
				{
					"name": "messenger",
					"type": "address",
					"internalType": "contract OPMessenger"
				},
				{
					"name": "bridge",
					"type": "address",
					"internalType": "contract OPStandardBridge"
				}
			],
			"outputs": [],
			"stateMutability": "nonpayable"
		},
		{
			"type": "function",
			"name": "createForSender",
			"inputs": [
				{
					"name": "localProjectId",
					"type": "uint256",
					"internalType": "uint256"
				},
				{
					"name": "salt",
					"type": "bytes32",
					"internalType": "bytes32"
				}
			],
			"outputs": [
				{
					"name": "sucker",
					"type": "address",
					"internalType": "contract IBPSucker"
				}
			],
			"stateMutability": "nonpayable"
		},
		{
			"type": "function",
			"name": "isSucker",
			"inputs": [
				{
					"name": "",
					"type": "address",
					"internalType": "address"
				}
			],
			"outputs": [
				{
					"name": "",
					"type": "bool",
					"internalType": "bool"
				}
			],
			"stateMutability": "view"
		},
		{
			"type": "error",
			"name": "ALREADY_CONFIGURED",
			"inputs": []
		},
		{
			"type": "error",
			"name": "ONLY_SUCKERS",
			"inputs": []
		},
		{
			"type": "error",
			"name": "UNAUTHORIZED",
			"inputs": []
		}
	],
	"solcInputHash": "647076f1c719fbf4dda0cd87a3eed04c",
	"args": [
		"0xCD8c4da77dfb15C05486D3F71Ee4C2C0dfdbc94e",
		"0x792b79adb4Aa06edDabd6ddef5EE06dCb946F436",
		"0x1e2E8562b635fe19978640C784e47865A83d6605",
		"0x6a65B75A3f37C6702A117Fb87B6bCaC62657d216"
	],
	"bytecode": "0x61010060405234801561001157600080fd5b50604051614c4b380380614c4b8339810160408190526100309161006a565b6001600160a01b03918216608052811660e05291821660a0521660c0526100c9565b6001600160a01b038116811461006757600080fd5b50565b6000806000806080858703121561008057600080fd5b845161008b81610052565b602086015190945061009c81610052565b60408601519093506100ad81610052565b60608601519092506100be81610052565b939692955090935050565b60805160a05160c05160e051614b456101066000396000505060006101c9015260006101a801526000818161013c01526101ea0152614b456000f3fe608060405234801561001057600080fd5b506004361061007d5760003560e01c8063c39ec1241161005b578063c39ec124146100dc578063cc8b6f4f1461010f578063ee9a31a214610124578063f434c9141461013757600080fd5b80631213036614610082578063927ede2d146100b2578063ba8b1d1a146100c5575b600080fd5b6100956100903660046102ed565b61015e565b6040516001600160a01b0390911681526020015b60405180910390f35b600054610095906001600160a01b031681565b6100ce60035481565b6040519081526020016100a9565b6100ff6100ea366004610327565b60026020526000908152604090205460ff1681565b60405190151581526020016100a9565b61012261011d36600461034b565b610271565b005b600154610095906001600160a01b031681565b6100957f000000000000000000000000000000000000000000000000000000000000000081565b6040516bffffffffffffffffffffffff193360601b1660208201526034810182905260009060540160405160208183030381529060405280519060200120915082600381905550817f00000000000000000000000000000000000000000000000000000000000000007f00000000000000000000000000000000000000000000000000000000000000007f0000000000000000000000000000000000000000000000000000000000000000600080604051610218906102e0565b610226959493929190610384565b8190604051809103906000f5905080158015610246573d6000803e3d6000fd5b506001600160a01b0381166000908152600260205260409020805460ff191660011790559392505050565b6000546001600160a01b031615158061029457506001546001600160a01b031615155b156102b25760405163ccbe17fd60e01b815260040160405180910390fd5b600080546001600160a01b039384166001600160a01b03199182161790915560018054929093169116179055565b614735806103db83390190565b6000806040838503121561030057600080fd5b50508035926020909101359150565b6001600160a01b038116811461032457600080fd5b50565b60006020828403121561033957600080fd5b81356103448161030f565b9392505050565b6000806040838503121561035e57600080fd5b82356103698161030f565b915060208301356103798161030f565b809150509250929050565b6001600160a01b038681168252858116602083015284811660408301528316606082015260a08101600283106103ca57634e487b7160e01b600052602160045260246000fd5b826080830152969550505050505056fe6101a06040523480156200001257600080fd5b50604051620047353803806200473583398101604081905262000035916200021e565b6001600160a01b0380841660805280861660c05280851660e052859085908590859085908216156200006857816200006a565b305b6001600160a01b03166101205260408051635d458e8d60e11b81529051339163ba8b1d1a9160048083019260209291908290030181865afa158015620000b4573d6000803e3d6000fd5b505050506040513d601f19601f82011682018060405250810190620000da9190620002a1565b610140523361010052806001811115620000f857620000f8620002bb565b60a08160018111156200010f576200010f620002bb565b9052505050505050336001600160a01b031663927ede2d6040518163ffffffff1660e01b8152600401602060405180830381865afa15801562000156573d6000803e3d6000fd5b505050506040513d601f19601f820116820180604052508101906200017c9190620002d1565b6001600160a01b0316610160526040805163774d18d160e11b81529051339163ee9a31a29160048083019260209291908290030181865afa158015620001c6573d6000803e3d6000fd5b505050506040513d601f19601f82011682018060405250810190620001ec9190620002d1565b6001600160a01b03166101805250620002f89350505050565b6001600160a01b03811681146200021b57600080fd5b50565b600080600080600060a086880312156200023757600080fd5b8551620002448162000205565b6020870151909550620002578162000205565b60408701519094506200026a8162000205565b60608701519093506200027d8162000205565b6080870151909250600281106200029357600080fd5b809150509295509295909350565b600060208284031215620002b457600080fd5b5051919050565b634e487b7160e01b600052602160045260246000fd5b600060208284031215620002e457600080fd5b8151620002f18162000205565b9392505050565b60805160a05160c05160e05161010051610120516101405161016051610180516142fa6200043b600039600081816101d5015281816113e901526114380152600081816105bd0152818161158d01528181611e480152611eae015260008181610249015281816107cc01528181610849015281816109e601528181610e6d01528181610f160152818161172a015281816117ef0152818161186c01528181611af801528181611bb101528181611cb30152611ddb0152600081816103ae01528181611469015281816115b80152611e84015260006104880152600081816101620152610a0f01526000818161037a0152818161073d01528181610e93015281816117650152611b270152600081816104bc01528181610b8301528181610e0f0152611028015260008181610589015281816111d3015261127c01526142fa6000f3fe6080604052600436106101445760003560e01c806388bc2ef3116100b6578063c1b8411a1161006f578063c1b8411a14610476578063c6525f2c146104aa578063e7f82c75146104eb578063ed0e26b914610518578063f434c91414610577578063fc8fa43d146105ab57600080fd5b806388bc2ef314610368578063ad42938b1461039c578063b59ef50f146103d0578063b71c1179146103f0578063bf557aee14610403578063c18541291461045657600080fd5b806356539f391161010857806356539f391461023757806361c864171461027957806369ce22331461028e57806369d31fdd146102ae5780636dfa7268146102c15780637de6fba2146102f057600080fd5b80631d831d5c146101505780632241dc52146101a15780632847f1f3146101c357806338eb2044146101f7578063551ebbf01461021757600080fd5b3661014b57005b600080fd5b34801561015c57600080fd5b506101847f000000000000000000000000000000000000000000000000000000000000000081565b6040516001600160a01b0390911681526020015b60405180910390f35b3480156101ad57600080fd5b506101c16101bc366004613c87565b6105df565b005b3480156101cf57600080fd5b506101847f000000000000000000000000000000000000000000000000000000000000000081565b34801561020357600080fd5b506101c1610212366004613d13565b610617565b34801561022357600080fd5b506101c1610232366004613d44565b6109b0565b34801561024357600080fd5b5061026b7f000000000000000000000000000000000000000000000000000000000000000081565b604051908152602001610198565b34801561028557600080fd5b5061026b610b2f565b34801561029a57600080fd5b506101c16102a9366004613d8e565b610b7f565b6101c16102bc366004613d13565b610bf8565b3480156102cd57600080fd5b506102e16102dc366004613d8e565b610d69565b60405161019893929190613dab565b3480156102fc57600080fd5b5061033e61030b366004613d8e565b6003602052600090815260409020805460019091015463ffffffff82169164010000000090046001600160a01b03169083565b6040805163ffffffff90941684526001600160a01b03909216602084015290820152606001610198565b34801561037457600080fd5b506101847f000000000000000000000000000000000000000000000000000000000000000081565b3480156103a857600080fd5b506101847f000000000000000000000000000000000000000000000000000000000000000081565b3480156103dc57600080fd5b506101c16103eb366004613e04565b610dd3565b6101c16103fe366004613d8e565b6110a7565b34801561040f57600080fd5b5061044661041e366004613d8e565b6001600160a01b03908116600090815260036020526040902054640100000000900416151590565b6040519015158152602001610198565b34801561046257600080fd5b506101c1610471366004613e17565b611155565b34801561048257600080fd5b506101847f000000000000000000000000000000000000000000000000000000000000000081565b3480156104b657600080fd5b506104de7f000000000000000000000000000000000000000000000000000000000000000081565b6040516101989190613e90565b3480156104f757600080fd5b5061026b610506366004613d8e565b60026020526000908152604090205481565b34801561052457600080fd5b50610558610533366004613d8e565b600160208190526000918252604090912080549101546001600160401b039091169082565b604080516001600160401b039093168352602083019190915201610198565b34801561058357600080fd5b506101847f000000000000000000000000000000000000000000000000000000000000000081565b3480156105b757600080fd5b506101847f000000000000000000000000000000000000000000000000000000000000000081565b60005b818110156106125761060a8383838181106105ff576105ff613eb8565b905060800201610617565b6001016105e2565b505050565b60006106266020830183613d8e565b9050600061eeee61063a6020850185613d8e565b6001600160a01b031614905080801561066d575061eeee6106616060850160408601613d8e565b6001600160a01b031614155b8015610692575060006106866060850160408601613d8e565b6001600160a01b031614155b156106d1576106a76060840160408501613d8e565b604051630a0a3b6b60e31b81526001600160a01b0390911660048201526024015b60405180910390fd5b62030d406106e56040850160208601613ece565b63ffffffff161080156106f6575080155b156107385762030d4061070f6040850160208601613ece565b604051634f3dbeb360e11b815263ffffffff9283166004820152911660248201526044016106c8565b61086f7f00000000000000000000000000000000000000000000000000000000000000006001600160a01b031663293c49996040518163ffffffff1660e01b8152600401602060405180830381865afa158015610799573d6000803e3d6000fd5b505050506040513d601f19601f820116820180604052508101906107bd9190613ef4565b6040516331a9108f60e11b81527f000000000000000000000000000000000000000000000000000000000000000060048201526001600160a01b039190911690636352211e90602401602060405180830381865afa158015610823573d6000803e3d6000fd5b505050506040513d601f19601f820116820180604052508101906108479190613ef4565b7f0000000000000000000000000000000000000000000000000000000000000000601c611189565b60006108816060850160408601613d8e565b6001600160a01b03161480156108b157506001600160a01b03821660009081526020819052604090206001015415155b1561090c576001600160a01b0380831660009081526003602090815260408083208151606081018352815463ffffffff811682526401000000009004909516928501929092526001909101549083015261090c91849061130d565b604051806060016040528084602001602081019061092a9190613ece565b63ffffffff1681526020016109456060860160408701613d8e565b6001600160a01b0390811682526060909501356020918201529284166000908152600384526040908190208251815495840151909616640100000000026001600160c01b031990951663ffffffff909616959095179390931784559091015160019092019190915550565b6001600160a01b0383166109d7576040516309a9c30b60e41b815260040160405180910390fd5b60405163ea78803f60e01b81527f000000000000000000000000000000000000000000000000000000000000000060048201526000907f00000000000000000000000000000000000000000000000000000000000000006001600160a01b03169063ea78803f90602401602060405180830381865afa158015610a5e573d6000803e3d6000fd5b505050506040513d601f19601f82011682018060405250810190610a829190613ef4565b90506001600160a01b038116610aab57604051635a33845560e01b815260040160405180910390fd5b6001600160a01b03828116600090815260036020526040902054640100000000900416610af65760405163393e175160e01b81526001600160a01b03831660048201526024016106c8565b610b0b6001600160a01b0382163330886116b4565b6000610b198287858761171b565b9050610b278684838861190e565b505050505050565b6000466001819003610b4357600a91505090565b80600a03610b5357600191505090565b8062aa36a703610b675762aa37dc91505090565b8062aa37dc03610b7b5762aa36a791505090565b5090565b60007f00000000000000000000000000000000000000000000000000000000000000006001811115610bb357610bb3613e7a565b14610bd15760405163218a9a2d60e11b815260040160405180910390fd5b6001600160a01b038116600090815260026020526040902054610bf5908290611a92565b50565b610c0133611e44565b610c1e57604051630439dbd360e51b815260040160405180910390fd5b60208101803590600290600090610c359085613d8e565b6001600160a01b03166001600160a01b031681526020019081526020016000206000828254610c649190613f27565b90915550600190506000610c7b6020840184613d8e565b6001600160a01b0316815260208101919091526040908101600020546001600160401b031690610cb19060608401908401613f4f565b6001600160401b03161115610bf5576040810160016000610cd56020850185613d8e565b6001600160a01b031681526020810191909152604001600020610cf88282613f6c565b50610d0890506020820182613d8e565b6001600160a01b03167f551b6b99b4c48e3265d2885ab0d93779be2402293261e074f7bf74b2c8f45b6f610d426060840160408501613f4f565b604080516001600160401b039092168252606085013560208301520160405180910390a250565b6000602081815291815260409081902080546001820154835161044081018086526001600160401b0390931695919490926002850192849283019184919082845b815481526020019060010190808311610daa575050509183525050602091820154910152905083565b610e0b6060820135610de86020840184613d8e565b6080840135610dfd6060860160408701613d8e565b602086013560a08701611f41565b60017f00000000000000000000000000000000000000000000000000000000000000006001811115610e3f57610e3f613e7a565b03610e5e57610e5e610e546020830183613d8e565b6080830135611a92565b604051632eec7b5560e11b81527f000000000000000000000000000000000000000000000000000000000000000060048201527f00000000000000000000000000000000000000000000000000000000000000006001600160a01b031690635dd8f6aa90602401602060405180830381865afa158015610ee2573d6000803e3d6000fd5b505050506040513d601f19601f82011682018060405250810190610f069190613ef4565b6001600160a01b031663c7fb92de7f000000000000000000000000000000000000000000000000000000000000000060608401803590610f499060408701613d8e565b6040516001600160e01b031960e086901b168152600481019390935260248301919091526001600160a01b0316604482015260a06064820152600060a48201819052608482015260c4016020604051808303816000875af1158015610fb2573d6000803e3d6000fd5b505050506040513d601f19601f82011682018060405250810190610fd69190613f9f565b507f487194902d206a126abe9f23a4e2b78d1600ed8034b1423290a13edd6ebc7d146110086060830160408401613d8e565b6110156020840184613d8e565b60608401356080850135602086013560017f0000000000000000000000000000000000000000000000000000000000000000600181111561105857611058613e7a565b14611064576000611067565b60015b604080516001600160a01b0397881681529690951660208701529385019290925260608401526080830152151560a082015260c00160405180910390a150565b6001600160a01b0380821660008181526003602090815260408083208151606081018352815463ffffffff811682526401000000009004909616868401526001908101548683018190529484529183905290912001541015611146576040808201516001600160a01b0384166000908152602081905282902060010154915163091df9e560e31b81526106c89290600401918252602082015260400190565b61115134838361130d565b5050565b60005b818110156106125761118183838381811061117557611175613eb8565b90506104a00201610dd3565b600101611158565b336001600160a01b0384168114801590611240575060405163c161c93f60e01b81526001600160a01b038281166004830152858116602483015260448201859052606482018490527f0000000000000000000000000000000000000000000000000000000000000000169063c161c93f90608401602060405180830381865afa15801561121a573d6000803e3d6000fd5b505050506040513d601f19601f8201168201806040525081019061123e9190613fb8565b155b80156112e9575060405163c161c93f60e01b81526001600160a01b038281166004830152858116602483015260006044830152606482018490527f0000000000000000000000000000000000000000000000000000000000000000169063c161c93f90608401602060405180830381865afa1580156112c3573d6000803e3d6000fd5b505050506040513d601f19601f820116820180604052508101906112e79190613fb8565b155b156113075760405163075fd2b160e01b815260040160405180910390fd5b50505050565b6000831561132e576040516352864b0160e11b815260040160405180910390fd5b6001600160a01b038316600090815260208190526040812060018101805490839055815490929190829061136a906001600160401b0316613fda565b91906101000a8154816001600160401b0302191690836001600160401b031602179055905060006001600160a01b031684602001516001600160a01b0316036113d15760405163393e175160e01b81526001600160a01b03861660048201526024016106c8565b6001600160a01b03851661eeee146114cc5761140e857f000000000000000000000000000000000000000000000000000000000000000084612071565b6020808501518551604080519384018152600084525163540abf7360e01b81526001600160a01b037f0000000000000000000000000000000000000000000000000000000000000000169363540abf7393611495938b9391927f0000000000000000000000000000000000000000000000000000000000000000928a929190600401614050565b600060405180830381600087803b1580156114af57600080fd5b505af11580156114c3573d6000803e3d6000fd5b505050506114d0565b8192505b6001600160a01b03851660009081526020819052604081206114f490600201612101565b6001600160a01b03871660009081526020819052604081206022015491925090611520906001906140a3565b604080516060810182526020808a01516001600160a01b039081168352818301898152845180860186526001600160401b03808b1682528185018a9052858701918252955194518316602486015290516044850152518051909416606484015292015160848201529192507f00000000000000000000000000000000000000000000000000000000000000001690633dbb202b9087907f00000000000000000000000000000000000000000000000000000000000000009060a40160408051601f198184030181529181526020820180516001600160e01b03166369d31fdd60e01b179052516001600160e01b031960e086901b16815261162a929190620493e0906004016140b6565b6000604051808303818588803b15801561164357600080fd5b505af1158015611657573d6000803e3d6000fd5b5050604080518581526001600160401b03881660208201526001600160a01b038c1694508693507f3e069c1f498cba23d7d2b74b84311469e8da6e527cade62061d642c61b64e0de92500160405180910390a35050505050505050565b6040516001600160a01b0384811660248301528381166044830152606482018390526113079186918216906323b872dd906084015b604051602081830303815290604052915060e01b6020820180516001600160e01b0383818316178352505050506134b7565b604051630862026560e41b81527f000000000000000000000000000000000000000000000000000000000000000060048201526001600160a01b03838116602483015260009182917f00000000000000000000000000000000000000000000000000000000000000001690638620265090604401602060405180830381865afa1580156117ac573d6000803e3d6000fd5b505050506040513d601f19601f820116820180604052508101906117d09190613ef4565b90506001600160a01b03811661182a57604051630c9ae01360e01b81527f000000000000000000000000000000000000000000000000000000000000000060048201526001600160a01b03851660248201526044016106c8565b6000611836853061351a565b60408051602081018252600081529051635db90a7f60e11b81529192506001600160a01b0384169163bb7214fe9161189c9130917f0000000000000000000000000000000000000000000000000000000000000000918b918d918c9186916004016140f0565b6020604051808303816000875af11580156118bb573d6000803e3d6000fd5b505050506040513d601f19601f820116820180604052508101906118df9190613f9f565b9250806118ec863061351a565b6118f691906140a3565b831461190457611904614142565b5050949350505050565b600061191b8584846135b1565b6001600160a01b0385166000908152602081815260408083208151610440810180845295965093946119869487949093600290930192849290830191849182845b81548152602001906001019080831161195c575050509183525050602091820154910152906135f6565b6001600160a01b038616600090815260208181526040909120825192935083926002909101916119b7918391613bf9565b50602091820151908201556001600160a01b0386166000908152908190526040812060010180548692906119ec908490613f27565b92505081905550846001600160a01b0316836001600160a01b03167f7b58dbb78e7edc690b0688a53dea0c443d630c4a5db66c3c47d4ff2044c977288460018560200151611a3a91906140a3565b6001600160a01b038a166000908152602081905260409020611a5e90600201612101565b60408051938452602084019290925290820152606081018a90526080810188905260a00160405180910390a3505050505050565b6001600160a01b03821660009081526002602052604090205480821115611acc57604051632858f9ab60e11b815260040160405180910390fd5b6001600160a01b03838116600081815260026020526040808220868603905551630862026560e41b81527f000000000000000000000000000000000000000000000000000000000000000060048201526024810192909252917f00000000000000000000000000000000000000000000000000000000000000001690638620265090604401602060405180830381865afa158015611b6e573d6000803e3d6000fd5b505050506040513d601f19601f82011682018060405250810190611b929190613ef4565b90506001600160a01b038116611bec57604051630c9ae01360e01b81527f000000000000000000000000000000000000000000000000000000000000000060048201526001600160a01b03851660248201526044016106c8565b6001600160a01b03841661eeee14611d9c576040516370a0823160e01b81523060048201526000906001600160a01b038616906370a0823190602401602060405180830381865afa158015611c45573d6000803e3d6000fd5b505050506040513d601f19601f82011682018060405250810190611c699190613f9f565b9050611c76858386612071565b60408051602080820183526000808352835191820184528082529251639e6eec0560e01b81526001600160a01b03861693639e6eec0593611ce3937f0000000000000000000000000000000000000000000000000000000000000000938c938c9390929091600401614158565b600060405180830381600087803b158015611cfd57600080fd5b505af1158015611d11573d6000803e3d6000fd5b505050508381611d2191906140a3565b6040516370a0823160e01b81523060048201526001600160a01b038716906370a0823190602401602060405180830381865afa158015611d65573d6000803e3d6000fd5b505050506040513d601f19601f82011682018060405250810190611d899190613f9f565b14611d9657611d96614142565b50611307565b60408051602080820183526000808352835191820184528082529251639e6eec0560e01b81526001600160a01b03851693639e6eec05938893611e0c937f0000000000000000000000000000000000000000000000000000000000000000938c9387939192909190600401614158565b6000604051808303818588803b158015611e2557600080fd5b505af1158015611e39573d6000803e3d6000fd5b505050505050505050565b60007f00000000000000000000000000000000000000000000000000000000000000006001600160a01b0316826001600160a01b0316148015611f3b57507f00000000000000000000000000000000000000000000000000000000000000006001600160a01b03167f00000000000000000000000000000000000000000000000000000000000000006001600160a01b0316636e296e456040518163ffffffff1660e01b81526004016020604051808303816000875af1158015611f0c573d6000803e3d6000fd5b505050506040513d601f19601f82011682018060405250810190611f309190613ef4565b6001600160a01b0316145b92915050565b6001600160a01b0385166000908152600460209081526040808320600886901c8452909152902054600160ff84161b1615611f925760405163ed9bdd0760e01b8152600481018390526024016106c8565b6001600160a01b0385166000908152600460209081526040808320600886901c845290915281208054600160ff86161b179055612001611fd38887876135b1565b6040805161040081810190925290859060209083908390808284376000920191909152508791506136fc9050565b6001600160a01b038716600090815260016020819052604090912001549091508114612068576001600160a01b0386166000908152600160208190526040918290200154905163286f87c960e21b81526004810191909152602481018290526044016106c8565b50505050505050565b604080516001600160a01b038416602482015260448082018490528251808303909101815260649091019091526020810180516001600160e01b031663095ea7b360e01b1790526120c28482613a4a565b611307576040516001600160a01b038481166024830152600060448301526120f791869182169063095ea7b3906064016116e9565b61130784826134b7565b602081015460009080820361213857507f27ae5ba08d7291c96c8cbddcc148bf48a6d68c7974b94356f53754ef6171d75792915050565b600083600183161561215a578054600052600060205260406000209350612a0d565b600283161561219f5760018101546000527fad3228b676f7d3cd4284a5443f17f1962b36e491b30a40b2405849e597ba5fb56020526040600020935060019150612a0d565b60048316156121e45760028101546000527fb4c11951957c6f8f642c4af61cd6b24640fec6dc7fc607ee8206a99e92410d306020526040600020935060029150612a0d565b60088316156122295760038101546000527f21ddb9a356815c3fac1026b6dec5df3124afbadb485c9ba5a3e3398a04b7ba856020526040600020935060039150612a0d565b601083161561226e5760048101546000527fe58769b32a1beaf1ea27375a44095a0d1fb664ce2dd358e7fcbfb78c26a193446020526040600020935060049150612a0d565b60208316156122b35760058101546000527f0eb01ebfc9ed27500cd4dfc979272d1f0913cc9f66540d7e8005811109e1cf2d6020526040600020935060059150612a0d565b60408316156122f85760068101546000527f887c22bd8750d34016ac3c66b5ff102dacdd73f6b014e710b51e8022af9a19686020526040600020935060069150612a0d565b608083161561233d5760078101546000527fffd70157e48063fc33c97a050f7f640233bf646cc98d9524c6b92bcf3ab56f836020526040600020935060079150612a0d565b6101008316156123835760088101546000527f9867cc5f7f196b93bae1e27e6320742445d290f2263827498b54fec539f756af6020526040600020935060089150612a0d565b6102008316156123c95760098101546000527fcefad4e508c098b9a7e1d8feb19955fb02ba9675585078710969d3440f5054e06020526040600020935060099150612a0d565b61040083161561240f57600a8101546000527ff9dc3e7fe016e050eff260334f18a5d4fe391d82092319f5964f2e2eb7c1c3a560205260406000209350600a9150612a0d565b61080083161561245557600b8101546000527ff8b13a49e282f609c317a833fb8d976d11517c571d1221a265d25af778ecf89260205260406000209350600b9150612a0d565b61100083161561249b57600c8101546000527f3490c6ceeb450aecdc82e28293031d10c7d73bf85e57bf041a97360aa2c5d99c60205260406000209350600c9150612a0d565b6120008316156124e157600d8101546000527fc1df82d9c4b87413eae2ef048f94b4d3554cea73d92b0f7af96e0271c691e2bb60205260406000209350600d9150612a0d565b61400083161561252757600e8101546000527f5c67add7c6caf302256adedf7ab114da0acfe870d449a3a489f781d659e8becc60205260406000209350600e9150612a0d565b61800083161561256d57600f8101546000527fda7bce9f4e8618b6bd2f4132ce798cdc7a60e7e1460a7299e3c6342a579626d260205260406000209350600f9150612a0d565b620100008316156125b45760108101546000527f2733e50f526ec2fa19a22b31e8ed50f23cd1fdf94c9154ed3a7609a2f1ff981f6020526040600020935060109150612a0d565b620200008316156125fb5760118101546000527fe1d3b5c807b281e4683cc6d6315cf95b9ade8641defcb32372f1c126e398ef7a6020526040600020935060119150612a0d565b620400008316156126425760128101546000527f5a2dce0a8a7f68bb74560f8f71837c2c2ebbcbf7fffb42ae1896f13f7c7479a06020526040600020935060129150612a0d565b620800008316156126895760138101546000527fb46a28b6f55540f89444f63de0378e3d121be09e06cc9ded1c20e65876d36aa06020526040600020935060139150612a0d565b621000008316156126d05760148101546000527fc65e9645644786b620e2dd2ad648ddfcbf4a7e5b1a3a4ecfe7f64667a3f0b7e26020526040600020935060149150612a0d565b622000008316156127175760158101546000527ff4418588ed35a2458cffeb39b93d26f18d2ab13bdce6aee58e7b99359ec2dfd96020526040600020935060159150612a0d565b6240000083161561275e5760168101546000527f5a9c16dc00d6ef18b7933a6f8dc65ccb55667138776f7dea101070dc8796e3776020526040600020935060169150612a0d565b628000008316156127a55760178101546000527f4df84f40ae0c8229d0d6069e5c8f39a7c299677a09d367fc7b05e3bc380ee6526020526040600020935060179150612a0d565b63010000008316156127ed5760188101546000527fcdc72595f74c7b1043d0e1ffbab734648c838dfb0527d971b602bc216c9619ef6020526040600020935060189150612a0d565b63020000008316156128355760198101546000527f0abf5ac974a1ed57f4050aa510dd9c74f508277b39d7973bb2dfccc5eeb0618d6020526040600020935060199150612a0d565b630400000083161561287d57601a8101546000527fb8cd74046ff337f0a7bf2c8e03e10f642c1886798d71806ab1e888d9e5ee87d060205260406000209350601a9150612a0d565b63080000008316156128c557601b8101546000527f838c5655cb21c6cb83313b5a631175dff4963772cce9108188b34ac87c81c41e60205260406000209350601b9150612a0d565b631000000083161561290d57601c8101546000527f662ee4dd2dd7b2bc707961b1e646c4047669dcb6584f0d8d770daf5d7e7deb2e60205260406000209350601c9150612a0d565b632000000083161561295557601d8101546000527f388ab20e2573d171a88108e79d820e98f26c0b84aa8b2f4aa4968dbb818ea32260205260406000209350601d9150612a0d565b634000000083161561299d57601e8101546000527f93237c50ba75ee485f4c22adf2f741400bdf8d6a9cc7df7ecae576221665d73560205260406000209350601e9150612a0d565b63800000008316156129e557601f8101546000527f8448818bb4ae4562849e949e17ac16e0be16688e156b5cf15e098c627c0056a960205260406000209350601f9150612a0d565b7f27ae5ba08d7291c96c8cbddcc148bf48a6d68c7974b94356f53754ef6171d7579350602091505b601e82116134af576001821015612a6b57600283168015612a3957600182015460005284602052612a62565b846000527fad3228b676f7d3cd4284a5443f17f1962b36e491b30a40b2405849e597ba5fb56020525b50604060002093505b6002821015612ac157600483168015612a8f57600282015460005284602052612ab8565b846000527fb4c11951957c6f8f642c4af61cd6b24640fec6dc7fc607ee8206a99e92410d306020525b50604060002093505b6003821015612b1757600883168015612ae557600382015460005284602052612b0e565b846000527f21ddb9a356815c3fac1026b6dec5df3124afbadb485c9ba5a3e3398a04b7ba856020525b50604060002093505b6004821015612b6d57601083168015612b3b57600482015460005284602052612b64565b846000527fe58769b32a1beaf1ea27375a44095a0d1fb664ce2dd358e7fcbfb78c26a193446020525b50604060002093505b6005821015612bc357602083168015612b9157600582015460005284602052612bba565b846000527f0eb01ebfc9ed27500cd4dfc979272d1f0913cc9f66540d7e8005811109e1cf2d6020525b50604060002093505b6006821015612c1957604083168015612be757600682015460005284602052612c10565b846000527f887c22bd8750d34016ac3c66b5ff102dacdd73f6b014e710b51e8022af9a19686020525b50604060002093505b6007821015612c6f57608083168015612c3d57600782015460005284602052612c66565b846000527fffd70157e48063fc33c97a050f7f640233bf646cc98d9524c6b92bcf3ab56f836020525b50604060002093505b6008821015612cc65761010083168015612c9457600882015460005284602052612cbd565b846000527f9867cc5f7f196b93bae1e27e6320742445d290f2263827498b54fec539f756af6020525b50604060002093505b6009821015612d1d5761020083168015612ceb57600982015460005284602052612d14565b846000527fcefad4e508c098b9a7e1d8feb19955fb02ba9675585078710969d3440f5054e06020525b50604060002093505b600a821015612d745761040083168015612d4257600a82015460005284602052612d6b565b846000527ff9dc3e7fe016e050eff260334f18a5d4fe391d82092319f5964f2e2eb7c1c3a56020525b50604060002093505b600b821015612dcb5761080083168015612d9957600b82015460005284602052612dc2565b846000527ff8b13a49e282f609c317a833fb8d976d11517c571d1221a265d25af778ecf8926020525b50604060002093505b600c821015612e225761100083168015612df057600c82015460005284602052612e19565b846000527f3490c6ceeb450aecdc82e28293031d10c7d73bf85e57bf041a97360aa2c5d99c6020525b50604060002093505b600d821015612e795761200083168015612e4757600d82015460005284602052612e70565b846000527fc1df82d9c4b87413eae2ef048f94b4d3554cea73d92b0f7af96e0271c691e2bb6020525b50604060002093505b600e821015612ed05761400083168015612e9e57600e82015460005284602052612ec7565b846000527f5c67add7c6caf302256adedf7ab114da0acfe870d449a3a489f781d659e8becc6020525b50604060002093505b600f821015612f275761800083168015612ef557600f82015460005284602052612f1e565b846000527fda7bce9f4e8618b6bd2f4132ce798cdc7a60e7e1460a7299e3c6342a579626d26020525b50604060002093505b6010821015612f7f576201000083168015612f4d57601082015460005284602052612f76565b846000527f2733e50f526ec2fa19a22b31e8ed50f23cd1fdf94c9154ed3a7609a2f1ff981f6020525b50604060002093505b6011821015612fd7576202000083168015612fa557601182015460005284602052612fce565b846000527fe1d3b5c807b281e4683cc6d6315cf95b9ade8641defcb32372f1c126e398ef7a6020525b50604060002093505b601282101561302f576204000083168015612ffd57601282015460005284602052613026565b846000527f5a2dce0a8a7f68bb74560f8f71837c2c2ebbcbf7fffb42ae1896f13f7c7479a06020525b50604060002093505b60138210156130875762080000831680156130555760138201546000528460205261307e565b846000527fb46a28b6f55540f89444f63de0378e3d121be09e06cc9ded1c20e65876d36aa06020525b50604060002093505b60148210156130df5762100000831680156130ad576014820154600052846020526130d6565b846000527fc65e9645644786b620e2dd2ad648ddfcbf4a7e5b1a3a4ecfe7f64667a3f0b7e26020525b50604060002093505b60158210156131375762200000831680156131055760158201546000528460205261312e565b846000527ff4418588ed35a2458cffeb39b93d26f18d2ab13bdce6aee58e7b99359ec2dfd96020525b50604060002093505b601682101561318f57624000008316801561315d57601682015460005284602052613186565b846000527f5a9c16dc00d6ef18b7933a6f8dc65ccb55667138776f7dea101070dc8796e3776020525b50604060002093505b60178210156131e75762800000831680156131b5576017820154600052846020526131de565b846000527f4df84f40ae0c8229d0d6069e5c8f39a7c299677a09d367fc7b05e3bc380ee6526020525b50604060002093505b60188210156132405763010000008316801561320e57601882015460005284602052613237565b846000527fcdc72595f74c7b1043d0e1ffbab734648c838dfb0527d971b602bc216c9619ef6020525b50604060002093505b60198210156132995763020000008316801561326757601982015460005284602052613290565b846000527f0abf5ac974a1ed57f4050aa510dd9c74f508277b39d7973bb2dfccc5eeb0618d6020525b50604060002093505b601a8210156132f2576304000000831680156132c057601a820154600052846020526132e9565b846000527fb8cd74046ff337f0a7bf2c8e03e10f642c1886798d71806ab1e888d9e5ee87d06020525b50604060002093505b601b82101561334b5763080000008316801561331957601b82015460005284602052613342565b846000527f838c5655cb21c6cb83313b5a631175dff4963772cce9108188b34ac87c81c41e6020525b50604060002093505b601c8210156133a45763100000008316801561337257601c8201546000528460205261339b565b846000527f662ee4dd2dd7b2bc707961b1e646c4047669dcb6584f0d8d770daf5d7e7deb2e6020525b50604060002093505b601d8210156133fd576320000000831680156133cb57601d820154600052846020526133f4565b846000527f388ab20e2573d171a88108e79d820e98f26c0b84aa8b2f4aa4968dbb818ea3226020525b50604060002093505b601e8210156134565763400000008316801561342457601e8201546000528460205261344d565b846000527f93237c50ba75ee485f4c22adf2f741400bdf8d6a9cc7df7ecae576221665d7356020525b50604060002093505b601f8210156134af5763800000008316801561347d57601f820154600052846020526134a6565b846000527f8448818bb4ae4562849e949e17ac16e0be16688e156b5cf15e098c627c0056a96020525b50604060002093505b505050919050565b60006134cc6001600160a01b03841683613af2565b905080516000141580156134f15750808060200190518101906134ef9190613fb8565b155b1561061257604051635274afe760e01b81526001600160a01b03841660048201526024016106c8565b600061eeed196001600160a01b0384160161354057506001600160a01b03811631611f3b565b6040516370a0823160e01b81526001600160a01b0383811660048301528416906370a0823190602401602060405180830381865afa158015613586573d6000803e3d6000fd5b505050506040513d601f19601f820116820180604052508101906135aa9190613f9f565b9392505050565b60408051602081018590529081018390526001600160a01b03821660608201526000906080016040516020818303038152906040528051906020012090509392505050565b6135fe613c33565b600083602001805161360f9061419f565b90819052905060016136236020600261429c565b61362d91906140a3565b81111561364d57604051638eab04bb60e01b815260040160405180910390fd5b60005b60208110156136e257816001166001036136895784518490826020811061367957613679613eb8565b602002015250839150611f3b9050565b8451816020811061369c5761369c613eb8565b6020020151846040516020016136bc929190918252602082015260400190565b60408051601f1981840301815291905280516020909101209350600191821c9101613650565b50604051638eab04bb60e01b815260040160405180910390fd5b6020600582811b8216948552835194820394909452604060008181206002851615871b808503919091528386015190528181206004851615871b808503919091528286015190528181206008851615871b80850391909152606086015190528181206010851615871b8085039190915260808087015190915282822084861615881b8086039190915260a0870151905282822083861615881b8086039190915260c0870151905282822090851615871b8085039190915260e0860151905281812061010080861615881b80860392909252860151905281812061020080861615881b80860392909252610120870151909152828220610400861615881b808603919091526101408701519052828220610800861615881b808603919091526101608701519052828220611000861615881b808603919091526101808701519052828220612000861615881b808603919091526101a08701519052828220614000861615881b808603919091526101c08701519052828220618000861615881b808603919091526101e0870151905282822062010000861615881b8086039190915290860151905281812062020000851615871b80850391909152610220860151905281812062040000851615871b80850391909152610240860151905281812062080000851615871b80850391909152610260860151905281812062100000851615871b80850391909152610280860151905281812062200000851615871b808503919091526102a0860151905281812062400000851615871b808503919091526102c0860151905281812062800000851615871b808503919091526102e086015190528181206301000000851615871b8085039190915261030086015190528181206302000000851615871b8085039190915261032086015190528181206304000000851615871b8085039190915261034086015190528181206308000000851615871b8085039190915261036086015190528181206310000000851615871b8085039190915261038086015190528181206320000000851615871b808503919091526103a086015190528181206340000000851615871b808503919091526103c0860151905281812063800000009094161590951b91829003929092526103e090920151909152902090565b6000806000846001600160a01b031684604051613a6791906142a8565b6000604051808303816000865af19150503d8060008114613aa4576040519150601f19603f3d011682016040523d82523d6000602084013e613aa9565b606091505b5091509150818015613ad3575080511580613ad3575080806020019051810190613ad39190613fb8565b8015613ae957506000856001600160a01b03163b115b95945050505050565b60606135aa8383600084600080856001600160a01b03168486604051613b1891906142a8565b60006040518083038185875af1925050503d8060008114613b55576040519150601f19603f3d011682016040523d82523d6000602084013e613b5a565b606091505b5091509150613b6a868383613b74565b9695505050505050565b606082613b8957613b8482613bd0565b6135aa565b8151158015613ba057506001600160a01b0384163b155b15613bc957604051639996b31560e01b81526001600160a01b03851660048201526024016106c8565b50806135aa565b805115613be05780518082602001fd5b604051630a12f52160e11b815260040160405180910390fd5b8260208101928215613c27579160200282015b82811115613c27578251825591602001919060010190613c0c565b50610b7b929150613c53565b6040518060400160405280613c46613c68565b8152602001600081525090565b5b80821115610b7b5760008155600101613c54565b6040518061040001604052806020906020820280368337509192915050565b60008060208385031215613c9a57600080fd5b82356001600160401b0380821115613cb157600080fd5b818501915085601f830112613cc557600080fd5b813581811115613cd457600080fd5b8660208260071b8501011115613ce957600080fd5b60209290920196919550909350505050565b600060808284031215613d0d57600080fd5b50919050565b600060808284031215613d2557600080fd5b6135aa8383613cfb565b6001600160a01b0381168114610bf557600080fd5b60008060008060808587031215613d5a57600080fd5b843593506020850135613d6c81613d2f565b9250604085013591506060850135613d8381613d2f565b939692955090935050565b600060208284031215613da057600080fd5b81356135aa81613d2f565b6001600160401b038416815260208082018490528251610460830191906000604085015b83821015613ded578251815291830191600191909101908301613dcf565b505050506020830151610440830152949350505050565b60006104a08284031215613d0d57600080fd5b60008060208385031215613e2a57600080fd5b82356001600160401b0380821115613e4157600080fd5b818501915085601f830112613e5557600080fd5b813581811115613e6457600080fd5b8660206104a083028501011115613ce957600080fd5b634e487b7160e01b600052602160045260246000fd5b6020810160028310613eb257634e487b7160e01b600052602160045260246000fd5b91905290565b634e487b7160e01b600052603260045260246000fd5b600060208284031215613ee057600080fd5b813563ffffffff811681146135aa57600080fd5b600060208284031215613f0657600080fd5b81516135aa81613d2f565b634e487b7160e01b600052601160045260246000fd5b80820180821115611f3b57611f3b613f11565b6001600160401b0381168114610bf557600080fd5b600060208284031215613f6157600080fd5b81356135aa81613f3a565b8135613f7781613f3a565b6001600160401b0381166001600160401b031983541617825550602082013560018201555050565b600060208284031215613fb157600080fd5b5051919050565b600060208284031215613fca57600080fd5b815180151581146135aa57600080fd5b60006001600160401b03808316818103613ff657613ff6613f11565b6001019392505050565b60005b8381101561401b578181015183820152602001614003565b50506000910152565b6000815180845261403c816020860160208601614000565b601f01601f19169290920160200192915050565b6001600160a01b0387811682528681166020830152851660408201526060810184905263ffffffff8316608082015260c060a0820181905260009061409790830184614024565b98975050505050505050565b81810381811115611f3b57611f3b613f11565b6001600160a01b03841681526060602082018190526000906140da90830185614024565b905063ffffffff83166040830152949350505050565b600060018060a01b03808a168352886020840152808816604084015286606084015285608084015280851660a08401525060e060c083015261413560e0830184614024565b9998505050505050505050565b634e487b7160e01b600052600160045260246000fd5b86815260018060a01b0386166020820152846040820152831515606082015260c06080820152600061418d60c0830185614024565b82810360a08401526141358185614024565b6000600182016141b1576141b1613f11565b5060010190565b600181815b808511156141f35781600019048211156141d9576141d9613f11565b808516156141e657918102915b93841c93908002906141bd565b509250929050565b60008261420a57506001611f3b565b8161421757506000611f3b565b816001811461422d576002811461423757614253565b6001915050611f3b565b60ff84111561424857614248613f11565b50506001821b611f3b565b5060208310610133831016604e8410600b8410161715614276575081810a611f3b565b61428083836141b8565b806000190482111561429457614294613f11565b029392505050565b60006135aa83836141fb565b600082516142ba818460208701614000565b919091019291505056fea26469706673582212203a41fe79f3688c253750856a78d1675d5ceaf2743bb86cffb442503f511832be64736f6c63430008170033a264697066735822122055032caaea6a1fac599e6b80c2c6394687a50146d132562347e04aef2a18f7fb64736f6c63430008170033",
	"deployedBytecode": "0x608060405234801561001057600080fd5b506004361061007d5760003560e01c8063c39ec1241161005b578063c39ec124146100dc578063cc8b6f4f1461010f578063ee9a31a214610124578063f434c9141461013757600080fd5b80631213036614610082578063927ede2d146100b2578063ba8b1d1a146100c5575b600080fd5b6100956100903660046102ed565b61015e565b6040516001600160a01b0390911681526020015b60405180910390f35b600054610095906001600160a01b031681565b6100ce60035481565b6040519081526020016100a9565b6100ff6100ea366004610327565b60026020526000908152604090205460ff1681565b60405190151581526020016100a9565b61012261011d36600461034b565b610271565b005b600154610095906001600160a01b031681565b6100957f0000000000000000000000001e2e8562b635fe19978640c784e47865a83d660581565b6040516bffffffffffffffffffffffff193360601b1660208201526034810182905260009060540160405160208183030381529060405280519060200120915082600381905550817f000000000000000000000000cd8c4da77dfb15c05486d3f71ee4c2c0dfdbc94e7f000000000000000000000000792b79adb4aa06eddabd6ddef5ee06dcb946f4367f0000000000000000000000001e2e8562b635fe19978640c784e47865a83d6605600080604051610218906102e0565b610226959493929190610384565b8190604051809103906000f5905080158015610246573d6000803e3d6000fd5b506001600160a01b0381166000908152600260205260409020805460ff191660011790559392505050565b6000546001600160a01b031615158061029457506001546001600160a01b031615155b156102b25760405163ccbe17fd60e01b815260040160405180910390fd5b600080546001600160a01b039384166001600160a01b03199182161790915560018054929093169116179055565b614735806103db83390190565b6000806040838503121561030057600080fd5b50508035926020909101359150565b6001600160a01b038116811461032457600080fd5b50565b60006020828403121561033957600080fd5b81356103448161030f565b9392505050565b6000806040838503121561035e57600080fd5b82356103698161030f565b915060208301356103798161030f565b809150509250929050565b6001600160a01b038681168252858116602083015284811660408301528316606082015260a08101600283106103ca57634e487b7160e01b600052602160045260246000fd5b826080830152969550505050505056fe6101a06040523480156200001257600080fd5b50604051620047353803806200473583398101604081905262000035916200021e565b6001600160a01b0380841660805280861660c05280851660e052859085908590859085908216156200006857816200006a565b305b6001600160a01b03166101205260408051635d458e8d60e11b81529051339163ba8b1d1a9160048083019260209291908290030181865afa158015620000b4573d6000803e3d6000fd5b505050506040513d601f19601f82011682018060405250810190620000da9190620002a1565b610140523361010052806001811115620000f857620000f8620002bb565b60a08160018111156200010f576200010f620002bb565b9052505050505050336001600160a01b031663927ede2d6040518163ffffffff1660e01b8152600401602060405180830381865afa15801562000156573d6000803e3d6000fd5b505050506040513d601f19601f820116820180604052508101906200017c9190620002d1565b6001600160a01b0316610160526040805163774d18d160e11b81529051339163ee9a31a29160048083019260209291908290030181865afa158015620001c6573d6000803e3d6000fd5b505050506040513d601f19601f82011682018060405250810190620001ec9190620002d1565b6001600160a01b03166101805250620002f89350505050565b6001600160a01b03811681146200021b57600080fd5b50565b600080600080600060a086880312156200023757600080fd5b8551620002448162000205565b6020870151909550620002578162000205565b60408701519094506200026a8162000205565b60608701519093506200027d8162000205565b6080870151909250600281106200029357600080fd5b809150509295509295909350565b600060208284031215620002b457600080fd5b5051919050565b634e487b7160e01b600052602160045260246000fd5b600060208284031215620002e457600080fd5b8151620002f18162000205565b9392505050565b60805160a05160c05160e05161010051610120516101405161016051610180516142fa6200043b600039600081816101d5015281816113e901526114380152600081816105bd0152818161158d01528181611e480152611eae015260008181610249015281816107cc01528181610849015281816109e601528181610e6d01528181610f160152818161172a015281816117ef0152818161186c01528181611af801528181611bb101528181611cb30152611ddb0152600081816103ae01528181611469015281816115b80152611e84015260006104880152600081816101620152610a0f01526000818161037a0152818161073d01528181610e93015281816117650152611b270152600081816104bc01528181610b8301528181610e0f0152611028015260008181610589015281816111d3015261127c01526142fa6000f3fe6080604052600436106101445760003560e01c806388bc2ef3116100b6578063c1b8411a1161006f578063c1b8411a14610476578063c6525f2c146104aa578063e7f82c75146104eb578063ed0e26b914610518578063f434c91414610577578063fc8fa43d146105ab57600080fd5b806388bc2ef314610368578063ad42938b1461039c578063b59ef50f146103d0578063b71c1179146103f0578063bf557aee14610403578063c18541291461045657600080fd5b806356539f391161010857806356539f391461023757806361c864171461027957806369ce22331461028e57806369d31fdd146102ae5780636dfa7268146102c15780637de6fba2146102f057600080fd5b80631d831d5c146101505780632241dc52146101a15780632847f1f3146101c357806338eb2044146101f7578063551ebbf01461021757600080fd5b3661014b57005b600080fd5b34801561015c57600080fd5b506101847f000000000000000000000000000000000000000000000000000000000000000081565b6040516001600160a01b0390911681526020015b60405180910390f35b3480156101ad57600080fd5b506101c16101bc366004613c87565b6105df565b005b3480156101cf57600080fd5b506101847f000000000000000000000000000000000000000000000000000000000000000081565b34801561020357600080fd5b506101c1610212366004613d13565b610617565b34801561022357600080fd5b506101c1610232366004613d44565b6109b0565b34801561024357600080fd5b5061026b7f000000000000000000000000000000000000000000000000000000000000000081565b604051908152602001610198565b34801561028557600080fd5b5061026b610b2f565b34801561029a57600080fd5b506101c16102a9366004613d8e565b610b7f565b6101c16102bc366004613d13565b610bf8565b3480156102cd57600080fd5b506102e16102dc366004613d8e565b610d69565b60405161019893929190613dab565b3480156102fc57600080fd5b5061033e61030b366004613d8e565b6003602052600090815260409020805460019091015463ffffffff82169164010000000090046001600160a01b03169083565b6040805163ffffffff90941684526001600160a01b03909216602084015290820152606001610198565b34801561037457600080fd5b506101847f000000000000000000000000000000000000000000000000000000000000000081565b3480156103a857600080fd5b506101847f000000000000000000000000000000000000000000000000000000000000000081565b3480156103dc57600080fd5b506101c16103eb366004613e04565b610dd3565b6101c16103fe366004613d8e565b6110a7565b34801561040f57600080fd5b5061044661041e366004613d8e565b6001600160a01b03908116600090815260036020526040902054640100000000900416151590565b6040519015158152602001610198565b34801561046257600080fd5b506101c1610471366004613e17565b611155565b34801561048257600080fd5b506101847f000000000000000000000000000000000000000000000000000000000000000081565b3480156104b657600080fd5b506104de7f000000000000000000000000000000000000000000000000000000000000000081565b6040516101989190613e90565b3480156104f757600080fd5b5061026b610506366004613d8e565b60026020526000908152604090205481565b34801561052457600080fd5b50610558610533366004613d8e565b600160208190526000918252604090912080549101546001600160401b039091169082565b604080516001600160401b039093168352602083019190915201610198565b34801561058357600080fd5b506101847f000000000000000000000000000000000000000000000000000000000000000081565b3480156105b757600080fd5b506101847f000000000000000000000000000000000000000000000000000000000000000081565b60005b818110156106125761060a8383838181106105ff576105ff613eb8565b905060800201610617565b6001016105e2565b505050565b60006106266020830183613d8e565b9050600061eeee61063a6020850185613d8e565b6001600160a01b031614905080801561066d575061eeee6106616060850160408601613d8e565b6001600160a01b031614155b8015610692575060006106866060850160408601613d8e565b6001600160a01b031614155b156106d1576106a76060840160408501613d8e565b604051630a0a3b6b60e31b81526001600160a01b0390911660048201526024015b60405180910390fd5b62030d406106e56040850160208601613ece565b63ffffffff161080156106f6575080155b156107385762030d4061070f6040850160208601613ece565b604051634f3dbeb360e11b815263ffffffff9283166004820152911660248201526044016106c8565b61086f7f00000000000000000000000000000000000000000000000000000000000000006001600160a01b031663293c49996040518163ffffffff1660e01b8152600401602060405180830381865afa158015610799573d6000803e3d6000fd5b505050506040513d601f19601f820116820180604052508101906107bd9190613ef4565b6040516331a9108f60e11b81527f000000000000000000000000000000000000000000000000000000000000000060048201526001600160a01b039190911690636352211e90602401602060405180830381865afa158015610823573d6000803e3d6000fd5b505050506040513d601f19601f820116820180604052508101906108479190613ef4565b7f0000000000000000000000000000000000000000000000000000000000000000601c611189565b60006108816060850160408601613d8e565b6001600160a01b03161480156108b157506001600160a01b03821660009081526020819052604090206001015415155b1561090c576001600160a01b0380831660009081526003602090815260408083208151606081018352815463ffffffff811682526401000000009004909516928501929092526001909101549083015261090c91849061130d565b604051806060016040528084602001602081019061092a9190613ece565b63ffffffff1681526020016109456060860160408701613d8e565b6001600160a01b0390811682526060909501356020918201529284166000908152600384526040908190208251815495840151909616640100000000026001600160c01b031990951663ffffffff909616959095179390931784559091015160019092019190915550565b6001600160a01b0383166109d7576040516309a9c30b60e41b815260040160405180910390fd5b60405163ea78803f60e01b81527f000000000000000000000000000000000000000000000000000000000000000060048201526000907f00000000000000000000000000000000000000000000000000000000000000006001600160a01b03169063ea78803f90602401602060405180830381865afa158015610a5e573d6000803e3d6000fd5b505050506040513d601f19601f82011682018060405250810190610a829190613ef4565b90506001600160a01b038116610aab57604051635a33845560e01b815260040160405180910390fd5b6001600160a01b03828116600090815260036020526040902054640100000000900416610af65760405163393e175160e01b81526001600160a01b03831660048201526024016106c8565b610b0b6001600160a01b0382163330886116b4565b6000610b198287858761171b565b9050610b278684838861190e565b505050505050565b6000466001819003610b4357600a91505090565b80600a03610b5357600191505090565b8062aa36a703610b675762aa37dc91505090565b8062aa37dc03610b7b5762aa36a791505090565b5090565b60007f00000000000000000000000000000000000000000000000000000000000000006001811115610bb357610bb3613e7a565b14610bd15760405163218a9a2d60e11b815260040160405180910390fd5b6001600160a01b038116600090815260026020526040902054610bf5908290611a92565b50565b610c0133611e44565b610c1e57604051630439dbd360e51b815260040160405180910390fd5b60208101803590600290600090610c359085613d8e565b6001600160a01b03166001600160a01b031681526020019081526020016000206000828254610c649190613f27565b90915550600190506000610c7b6020840184613d8e565b6001600160a01b0316815260208101919091526040908101600020546001600160401b031690610cb19060608401908401613f4f565b6001600160401b03161115610bf5576040810160016000610cd56020850185613d8e565b6001600160a01b031681526020810191909152604001600020610cf88282613f6c565b50610d0890506020820182613d8e565b6001600160a01b03167f551b6b99b4c48e3265d2885ab0d93779be2402293261e074f7bf74b2c8f45b6f610d426060840160408501613f4f565b604080516001600160401b039092168252606085013560208301520160405180910390a250565b6000602081815291815260409081902080546001820154835161044081018086526001600160401b0390931695919490926002850192849283019184919082845b815481526020019060010190808311610daa575050509183525050602091820154910152905083565b610e0b6060820135610de86020840184613d8e565b6080840135610dfd6060860160408701613d8e565b602086013560a08701611f41565b60017f00000000000000000000000000000000000000000000000000000000000000006001811115610e3f57610e3f613e7a565b03610e5e57610e5e610e546020830183613d8e565b6080830135611a92565b604051632eec7b5560e11b81527f000000000000000000000000000000000000000000000000000000000000000060048201527f00000000000000000000000000000000000000000000000000000000000000006001600160a01b031690635dd8f6aa90602401602060405180830381865afa158015610ee2573d6000803e3d6000fd5b505050506040513d601f19601f82011682018060405250810190610f069190613ef4565b6001600160a01b031663c7fb92de7f000000000000000000000000000000000000000000000000000000000000000060608401803590610f499060408701613d8e565b6040516001600160e01b031960e086901b168152600481019390935260248301919091526001600160a01b0316604482015260a06064820152600060a48201819052608482015260c4016020604051808303816000875af1158015610fb2573d6000803e3d6000fd5b505050506040513d601f19601f82011682018060405250810190610fd69190613f9f565b507f487194902d206a126abe9f23a4e2b78d1600ed8034b1423290a13edd6ebc7d146110086060830160408401613d8e565b6110156020840184613d8e565b60608401356080850135602086013560017f0000000000000000000000000000000000000000000000000000000000000000600181111561105857611058613e7a565b14611064576000611067565b60015b604080516001600160a01b0397881681529690951660208701529385019290925260608401526080830152151560a082015260c00160405180910390a150565b6001600160a01b0380821660008181526003602090815260408083208151606081018352815463ffffffff811682526401000000009004909616868401526001908101548683018190529484529183905290912001541015611146576040808201516001600160a01b0384166000908152602081905282902060010154915163091df9e560e31b81526106c89290600401918252602082015260400190565b61115134838361130d565b5050565b60005b818110156106125761118183838381811061117557611175613eb8565b90506104a00201610dd3565b600101611158565b336001600160a01b0384168114801590611240575060405163c161c93f60e01b81526001600160a01b038281166004830152858116602483015260448201859052606482018490527f0000000000000000000000000000000000000000000000000000000000000000169063c161c93f90608401602060405180830381865afa15801561121a573d6000803e3d6000fd5b505050506040513d601f19601f8201168201806040525081019061123e9190613fb8565b155b80156112e9575060405163c161c93f60e01b81526001600160a01b038281166004830152858116602483015260006044830152606482018490527f0000000000000000000000000000000000000000000000000000000000000000169063c161c93f90608401602060405180830381865afa1580156112c3573d6000803e3d6000fd5b505050506040513d601f19601f820116820180604052508101906112e79190613fb8565b155b156113075760405163075fd2b160e01b815260040160405180910390fd5b50505050565b6000831561132e576040516352864b0160e11b815260040160405180910390fd5b6001600160a01b038316600090815260208190526040812060018101805490839055815490929190829061136a906001600160401b0316613fda565b91906101000a8154816001600160401b0302191690836001600160401b031602179055905060006001600160a01b031684602001516001600160a01b0316036113d15760405163393e175160e01b81526001600160a01b03861660048201526024016106c8565b6001600160a01b03851661eeee146114cc5761140e857f000000000000000000000000000000000000000000000000000000000000000084612071565b6020808501518551604080519384018152600084525163540abf7360e01b81526001600160a01b037f0000000000000000000000000000000000000000000000000000000000000000169363540abf7393611495938b9391927f0000000000000000000000000000000000000000000000000000000000000000928a929190600401614050565b600060405180830381600087803b1580156114af57600080fd5b505af11580156114c3573d6000803e3d6000fd5b505050506114d0565b8192505b6001600160a01b03851660009081526020819052604081206114f490600201612101565b6001600160a01b03871660009081526020819052604081206022015491925090611520906001906140a3565b604080516060810182526020808a01516001600160a01b039081168352818301898152845180860186526001600160401b03808b1682528185018a9052858701918252955194518316602486015290516044850152518051909416606484015292015160848201529192507f00000000000000000000000000000000000000000000000000000000000000001690633dbb202b9087907f00000000000000000000000000000000000000000000000000000000000000009060a40160408051601f198184030181529181526020820180516001600160e01b03166369d31fdd60e01b179052516001600160e01b031960e086901b16815261162a929190620493e0906004016140b6565b6000604051808303818588803b15801561164357600080fd5b505af1158015611657573d6000803e3d6000fd5b5050604080518581526001600160401b03881660208201526001600160a01b038c1694508693507f3e069c1f498cba23d7d2b74b84311469e8da6e527cade62061d642c61b64e0de92500160405180910390a35050505050505050565b6040516001600160a01b0384811660248301528381166044830152606482018390526113079186918216906323b872dd906084015b604051602081830303815290604052915060e01b6020820180516001600160e01b0383818316178352505050506134b7565b604051630862026560e41b81527f000000000000000000000000000000000000000000000000000000000000000060048201526001600160a01b03838116602483015260009182917f00000000000000000000000000000000000000000000000000000000000000001690638620265090604401602060405180830381865afa1580156117ac573d6000803e3d6000fd5b505050506040513d601f19601f820116820180604052508101906117d09190613ef4565b90506001600160a01b03811661182a57604051630c9ae01360e01b81527f000000000000000000000000000000000000000000000000000000000000000060048201526001600160a01b03851660248201526044016106c8565b6000611836853061351a565b60408051602081018252600081529051635db90a7f60e11b81529192506001600160a01b0384169163bb7214fe9161189c9130917f0000000000000000000000000000000000000000000000000000000000000000918b918d918c9186916004016140f0565b6020604051808303816000875af11580156118bb573d6000803e3d6000fd5b505050506040513d601f19601f820116820180604052508101906118df9190613f9f565b9250806118ec863061351a565b6118f691906140a3565b831461190457611904614142565b5050949350505050565b600061191b8584846135b1565b6001600160a01b0385166000908152602081815260408083208151610440810180845295965093946119869487949093600290930192849290830191849182845b81548152602001906001019080831161195c575050509183525050602091820154910152906135f6565b6001600160a01b038616600090815260208181526040909120825192935083926002909101916119b7918391613bf9565b50602091820151908201556001600160a01b0386166000908152908190526040812060010180548692906119ec908490613f27565b92505081905550846001600160a01b0316836001600160a01b03167f7b58dbb78e7edc690b0688a53dea0c443d630c4a5db66c3c47d4ff2044c977288460018560200151611a3a91906140a3565b6001600160a01b038a166000908152602081905260409020611a5e90600201612101565b60408051938452602084019290925290820152606081018a90526080810188905260a00160405180910390a3505050505050565b6001600160a01b03821660009081526002602052604090205480821115611acc57604051632858f9ab60e11b815260040160405180910390fd5b6001600160a01b03838116600081815260026020526040808220868603905551630862026560e41b81527f000000000000000000000000000000000000000000000000000000000000000060048201526024810192909252917f00000000000000000000000000000000000000000000000000000000000000001690638620265090604401602060405180830381865afa158015611b6e573d6000803e3d6000fd5b505050506040513d601f19601f82011682018060405250810190611b929190613ef4565b90506001600160a01b038116611bec57604051630c9ae01360e01b81527f000000000000000000000000000000000000000000000000000000000000000060048201526001600160a01b03851660248201526044016106c8565b6001600160a01b03841661eeee14611d9c576040516370a0823160e01b81523060048201526000906001600160a01b038616906370a0823190602401602060405180830381865afa158015611c45573d6000803e3d6000fd5b505050506040513d601f19601f82011682018060405250810190611c699190613f9f565b9050611c76858386612071565b60408051602080820183526000808352835191820184528082529251639e6eec0560e01b81526001600160a01b03861693639e6eec0593611ce3937f0000000000000000000000000000000000000000000000000000000000000000938c938c9390929091600401614158565b600060405180830381600087803b158015611cfd57600080fd5b505af1158015611d11573d6000803e3d6000fd5b505050508381611d2191906140a3565b6040516370a0823160e01b81523060048201526001600160a01b038716906370a0823190602401602060405180830381865afa158015611d65573d6000803e3d6000fd5b505050506040513d601f19601f82011682018060405250810190611d899190613f9f565b14611d9657611d96614142565b50611307565b60408051602080820183526000808352835191820184528082529251639e6eec0560e01b81526001600160a01b03851693639e6eec05938893611e0c937f0000000000000000000000000000000000000000000000000000000000000000938c9387939192909190600401614158565b6000604051808303818588803b158015611e2557600080fd5b505af1158015611e39573d6000803e3d6000fd5b505050505050505050565b60007f00000000000000000000000000000000000000000000000000000000000000006001600160a01b0316826001600160a01b0316148015611f3b57507f00000000000000000000000000000000000000000000000000000000000000006001600160a01b03167f00000000000000000000000000000000000000000000000000000000000000006001600160a01b0316636e296e456040518163ffffffff1660e01b81526004016020604051808303816000875af1158015611f0c573d6000803e3d6000fd5b505050506040513d601f19601f82011682018060405250810190611f309190613ef4565b6001600160a01b0316145b92915050565b6001600160a01b0385166000908152600460209081526040808320600886901c8452909152902054600160ff84161b1615611f925760405163ed9bdd0760e01b8152600481018390526024016106c8565b6001600160a01b0385166000908152600460209081526040808320600886901c845290915281208054600160ff86161b179055612001611fd38887876135b1565b6040805161040081810190925290859060209083908390808284376000920191909152508791506136fc9050565b6001600160a01b038716600090815260016020819052604090912001549091508114612068576001600160a01b0386166000908152600160208190526040918290200154905163286f87c960e21b81526004810191909152602481018290526044016106c8565b50505050505050565b604080516001600160a01b038416602482015260448082018490528251808303909101815260649091019091526020810180516001600160e01b031663095ea7b360e01b1790526120c28482613a4a565b611307576040516001600160a01b038481166024830152600060448301526120f791869182169063095ea7b3906064016116e9565b61130784826134b7565b602081015460009080820361213857507f27ae5ba08d7291c96c8cbddcc148bf48a6d68c7974b94356f53754ef6171d75792915050565b600083600183161561215a578054600052600060205260406000209350612a0d565b600283161561219f5760018101546000527fad3228b676f7d3cd4284a5443f17f1962b36e491b30a40b2405849e597ba5fb56020526040600020935060019150612a0d565b60048316156121e45760028101546000527fb4c11951957c6f8f642c4af61cd6b24640fec6dc7fc607ee8206a99e92410d306020526040600020935060029150612a0d565b60088316156122295760038101546000527f21ddb9a356815c3fac1026b6dec5df3124afbadb485c9ba5a3e3398a04b7ba856020526040600020935060039150612a0d565b601083161561226e5760048101546000527fe58769b32a1beaf1ea27375a44095a0d1fb664ce2dd358e7fcbfb78c26a193446020526040600020935060049150612a0d565b60208316156122b35760058101546000527f0eb01ebfc9ed27500cd4dfc979272d1f0913cc9f66540d7e8005811109e1cf2d6020526040600020935060059150612a0d565b60408316156122f85760068101546000527f887c22bd8750d34016ac3c66b5ff102dacdd73f6b014e710b51e8022af9a19686020526040600020935060069150612a0d565b608083161561233d5760078101546000527fffd70157e48063fc33c97a050f7f640233bf646cc98d9524c6b92bcf3ab56f836020526040600020935060079150612a0d565b6101008316156123835760088101546000527f9867cc5f7f196b93bae1e27e6320742445d290f2263827498b54fec539f756af6020526040600020935060089150612a0d565b6102008316156123c95760098101546000527fcefad4e508c098b9a7e1d8feb19955fb02ba9675585078710969d3440f5054e06020526040600020935060099150612a0d565b61040083161561240f57600a8101546000527ff9dc3e7fe016e050eff260334f18a5d4fe391d82092319f5964f2e2eb7c1c3a560205260406000209350600a9150612a0d565b61080083161561245557600b8101546000527ff8b13a49e282f609c317a833fb8d976d11517c571d1221a265d25af778ecf89260205260406000209350600b9150612a0d565b61100083161561249b57600c8101546000527f3490c6ceeb450aecdc82e28293031d10c7d73bf85e57bf041a97360aa2c5d99c60205260406000209350600c9150612a0d565b6120008316156124e157600d8101546000527fc1df82d9c4b87413eae2ef048f94b4d3554cea73d92b0f7af96e0271c691e2bb60205260406000209350600d9150612a0d565b61400083161561252757600e8101546000527f5c67add7c6caf302256adedf7ab114da0acfe870d449a3a489f781d659e8becc60205260406000209350600e9150612a0d565b61800083161561256d57600f8101546000527fda7bce9f4e8618b6bd2f4132ce798cdc7a60e7e1460a7299e3c6342a579626d260205260406000209350600f9150612a0d565b620100008316156125b45760108101546000527f2733e50f526ec2fa19a22b31e8ed50f23cd1fdf94c9154ed3a7609a2f1ff981f6020526040600020935060109150612a0d565b620200008316156125fb5760118101546000527fe1d3b5c807b281e4683cc6d6315cf95b9ade8641defcb32372f1c126e398ef7a6020526040600020935060119150612a0d565b620400008316156126425760128101546000527f5a2dce0a8a7f68bb74560f8f71837c2c2ebbcbf7fffb42ae1896f13f7c7479a06020526040600020935060129150612a0d565b620800008316156126895760138101546000527fb46a28b6f55540f89444f63de0378e3d121be09e06cc9ded1c20e65876d36aa06020526040600020935060139150612a0d565b621000008316156126d05760148101546000527fc65e9645644786b620e2dd2ad648ddfcbf4a7e5b1a3a4ecfe7f64667a3f0b7e26020526040600020935060149150612a0d565b622000008316156127175760158101546000527ff4418588ed35a2458cffeb39b93d26f18d2ab13bdce6aee58e7b99359ec2dfd96020526040600020935060159150612a0d565b6240000083161561275e5760168101546000527f5a9c16dc00d6ef18b7933a6f8dc65ccb55667138776f7dea101070dc8796e3776020526040600020935060169150612a0d565b628000008316156127a55760178101546000527f4df84f40ae0c8229d0d6069e5c8f39a7c299677a09d367fc7b05e3bc380ee6526020526040600020935060179150612a0d565b63010000008316156127ed5760188101546000527fcdc72595f74c7b1043d0e1ffbab734648c838dfb0527d971b602bc216c9619ef6020526040600020935060189150612a0d565b63020000008316156128355760198101546000527f0abf5ac974a1ed57f4050aa510dd9c74f508277b39d7973bb2dfccc5eeb0618d6020526040600020935060199150612a0d565b630400000083161561287d57601a8101546000527fb8cd74046ff337f0a7bf2c8e03e10f642c1886798d71806ab1e888d9e5ee87d060205260406000209350601a9150612a0d565b63080000008316156128c557601b8101546000527f838c5655cb21c6cb83313b5a631175dff4963772cce9108188b34ac87c81c41e60205260406000209350601b9150612a0d565b631000000083161561290d57601c8101546000527f662ee4dd2dd7b2bc707961b1e646c4047669dcb6584f0d8d770daf5d7e7deb2e60205260406000209350601c9150612a0d565b632000000083161561295557601d8101546000527f388ab20e2573d171a88108e79d820e98f26c0b84aa8b2f4aa4968dbb818ea32260205260406000209350601d9150612a0d565b634000000083161561299d57601e8101546000527f93237c50ba75ee485f4c22adf2f741400bdf8d6a9cc7df7ecae576221665d73560205260406000209350601e9150612a0d565b63800000008316156129e557601f8101546000527f8448818bb4ae4562849e949e17ac16e0be16688e156b5cf15e098c627c0056a960205260406000209350601f9150612a0d565b7f27ae5ba08d7291c96c8cbddcc148bf48a6d68c7974b94356f53754ef6171d7579350602091505b601e82116134af576001821015612a6b57600283168015612a3957600182015460005284602052612a62565b846000527fad3228b676f7d3cd4284a5443f17f1962b36e491b30a40b2405849e597ba5fb56020525b50604060002093505b6002821015612ac157600483168015612a8f57600282015460005284602052612ab8565b846000527fb4c11951957c6f8f642c4af61cd6b24640fec6dc7fc607ee8206a99e92410d306020525b50604060002093505b6003821015612b1757600883168015612ae557600382015460005284602052612b0e565b846000527f21ddb9a356815c3fac1026b6dec5df3124afbadb485c9ba5a3e3398a04b7ba856020525b50604060002093505b6004821015612b6d57601083168015612b3b57600482015460005284602052612b64565b846000527fe58769b32a1beaf1ea27375a44095a0d1fb664ce2dd358e7fcbfb78c26a193446020525b50604060002093505b6005821015612bc357602083168015612b9157600582015460005284602052612bba565b846000527f0eb01ebfc9ed27500cd4dfc979272d1f0913cc9f66540d7e8005811109e1cf2d6020525b50604060002093505b6006821015612c1957604083168015612be757600682015460005284602052612c10565b846000527f887c22bd8750d34016ac3c66b5ff102dacdd73f6b014e710b51e8022af9a19686020525b50604060002093505b6007821015612c6f57608083168015612c3d57600782015460005284602052612c66565b846000527fffd70157e48063fc33c97a050f7f640233bf646cc98d9524c6b92bcf3ab56f836020525b50604060002093505b6008821015612cc65761010083168015612c9457600882015460005284602052612cbd565b846000527f9867cc5f7f196b93bae1e27e6320742445d290f2263827498b54fec539f756af6020525b50604060002093505b6009821015612d1d5761020083168015612ceb57600982015460005284602052612d14565b846000527fcefad4e508c098b9a7e1d8feb19955fb02ba9675585078710969d3440f5054e06020525b50604060002093505b600a821015612d745761040083168015612d4257600a82015460005284602052612d6b565b846000527ff9dc3e7fe016e050eff260334f18a5d4fe391d82092319f5964f2e2eb7c1c3a56020525b50604060002093505b600b821015612dcb5761080083168015612d9957600b82015460005284602052612dc2565b846000527ff8b13a49e282f609c317a833fb8d976d11517c571d1221a265d25af778ecf8926020525b50604060002093505b600c821015612e225761100083168015612df057600c82015460005284602052612e19565b846000527f3490c6ceeb450aecdc82e28293031d10c7d73bf85e57bf041a97360aa2c5d99c6020525b50604060002093505b600d821015612e795761200083168015612e4757600d82015460005284602052612e70565b846000527fc1df82d9c4b87413eae2ef048f94b4d3554cea73d92b0f7af96e0271c691e2bb6020525b50604060002093505b600e821015612ed05761400083168015612e9e57600e82015460005284602052612ec7565b846000527f5c67add7c6caf302256adedf7ab114da0acfe870d449a3a489f781d659e8becc6020525b50604060002093505b600f821015612f275761800083168015612ef557600f82015460005284602052612f1e565b846000527fda7bce9f4e8618b6bd2f4132ce798cdc7a60e7e1460a7299e3c6342a579626d26020525b50604060002093505b6010821015612f7f576201000083168015612f4d57601082015460005284602052612f76565b846000527f2733e50f526ec2fa19a22b31e8ed50f23cd1fdf94c9154ed3a7609a2f1ff981f6020525b50604060002093505b6011821015612fd7576202000083168015612fa557601182015460005284602052612fce565b846000527fe1d3b5c807b281e4683cc6d6315cf95b9ade8641defcb32372f1c126e398ef7a6020525b50604060002093505b601282101561302f576204000083168015612ffd57601282015460005284602052613026565b846000527f5a2dce0a8a7f68bb74560f8f71837c2c2ebbcbf7fffb42ae1896f13f7c7479a06020525b50604060002093505b60138210156130875762080000831680156130555760138201546000528460205261307e565b846000527fb46a28b6f55540f89444f63de0378e3d121be09e06cc9ded1c20e65876d36aa06020525b50604060002093505b60148210156130df5762100000831680156130ad576014820154600052846020526130d6565b846000527fc65e9645644786b620e2dd2ad648ddfcbf4a7e5b1a3a4ecfe7f64667a3f0b7e26020525b50604060002093505b60158210156131375762200000831680156131055760158201546000528460205261312e565b846000527ff4418588ed35a2458cffeb39b93d26f18d2ab13bdce6aee58e7b99359ec2dfd96020525b50604060002093505b601682101561318f57624000008316801561315d57601682015460005284602052613186565b846000527f5a9c16dc00d6ef18b7933a6f8dc65ccb55667138776f7dea101070dc8796e3776020525b50604060002093505b60178210156131e75762800000831680156131b5576017820154600052846020526131de565b846000527f4df84f40ae0c8229d0d6069e5c8f39a7c299677a09d367fc7b05e3bc380ee6526020525b50604060002093505b60188210156132405763010000008316801561320e57601882015460005284602052613237565b846000527fcdc72595f74c7b1043d0e1ffbab734648c838dfb0527d971b602bc216c9619ef6020525b50604060002093505b60198210156132995763020000008316801561326757601982015460005284602052613290565b846000527f0abf5ac974a1ed57f4050aa510dd9c74f508277b39d7973bb2dfccc5eeb0618d6020525b50604060002093505b601a8210156132f2576304000000831680156132c057601a820154600052846020526132e9565b846000527fb8cd74046ff337f0a7bf2c8e03e10f642c1886798d71806ab1e888d9e5ee87d06020525b50604060002093505b601b82101561334b5763080000008316801561331957601b82015460005284602052613342565b846000527f838c5655cb21c6cb83313b5a631175dff4963772cce9108188b34ac87c81c41e6020525b50604060002093505b601c8210156133a45763100000008316801561337257601c8201546000528460205261339b565b846000527f662ee4dd2dd7b2bc707961b1e646c4047669dcb6584f0d8d770daf5d7e7deb2e6020525b50604060002093505b601d8210156133fd576320000000831680156133cb57601d820154600052846020526133f4565b846000527f388ab20e2573d171a88108e79d820e98f26c0b84aa8b2f4aa4968dbb818ea3226020525b50604060002093505b601e8210156134565763400000008316801561342457601e8201546000528460205261344d565b846000527f93237c50ba75ee485f4c22adf2f741400bdf8d6a9cc7df7ecae576221665d7356020525b50604060002093505b601f8210156134af5763800000008316801561347d57601f820154600052846020526134a6565b846000527f8448818bb4ae4562849e949e17ac16e0be16688e156b5cf15e098c627c0056a96020525b50604060002093505b505050919050565b60006134cc6001600160a01b03841683613af2565b905080516000141580156134f15750808060200190518101906134ef9190613fb8565b155b1561061257604051635274afe760e01b81526001600160a01b03841660048201526024016106c8565b600061eeed196001600160a01b0384160161354057506001600160a01b03811631611f3b565b6040516370a0823160e01b81526001600160a01b0383811660048301528416906370a0823190602401602060405180830381865afa158015613586573d6000803e3d6000fd5b505050506040513d601f19601f820116820180604052508101906135aa9190613f9f565b9392505050565b60408051602081018590529081018390526001600160a01b03821660608201526000906080016040516020818303038152906040528051906020012090509392505050565b6135fe613c33565b600083602001805161360f9061419f565b90819052905060016136236020600261429c565b61362d91906140a3565b81111561364d57604051638eab04bb60e01b815260040160405180910390fd5b60005b60208110156136e257816001166001036136895784518490826020811061367957613679613eb8565b602002015250839150611f3b9050565b8451816020811061369c5761369c613eb8565b6020020151846040516020016136bc929190918252602082015260400190565b60408051601f1981840301815291905280516020909101209350600191821c9101613650565b50604051638eab04bb60e01b815260040160405180910390fd5b6020600582811b8216948552835194820394909452604060008181206002851615871b808503919091528386015190528181206004851615871b808503919091528286015190528181206008851615871b80850391909152606086015190528181206010851615871b8085039190915260808087015190915282822084861615881b8086039190915260a0870151905282822083861615881b8086039190915260c0870151905282822090851615871b8085039190915260e0860151905281812061010080861615881b80860392909252860151905281812061020080861615881b80860392909252610120870151909152828220610400861615881b808603919091526101408701519052828220610800861615881b808603919091526101608701519052828220611000861615881b808603919091526101808701519052828220612000861615881b808603919091526101a08701519052828220614000861615881b808603919091526101c08701519052828220618000861615881b808603919091526101e0870151905282822062010000861615881b8086039190915290860151905281812062020000851615871b80850391909152610220860151905281812062040000851615871b80850391909152610240860151905281812062080000851615871b80850391909152610260860151905281812062100000851615871b80850391909152610280860151905281812062200000851615871b808503919091526102a0860151905281812062400000851615871b808503919091526102c0860151905281812062800000851615871b808503919091526102e086015190528181206301000000851615871b8085039190915261030086015190528181206302000000851615871b8085039190915261032086015190528181206304000000851615871b8085039190915261034086015190528181206308000000851615871b8085039190915261036086015190528181206310000000851615871b8085039190915261038086015190528181206320000000851615871b808503919091526103a086015190528181206340000000851615871b808503919091526103c0860151905281812063800000009094161590951b91829003929092526103e090920151909152902090565b6000806000846001600160a01b031684604051613a6791906142a8565b6000604051808303816000865af19150503d8060008114613aa4576040519150601f19603f3d011682016040523d82523d6000602084013e613aa9565b606091505b5091509150818015613ad3575080511580613ad3575080806020019051810190613ad39190613fb8565b8015613ae957506000856001600160a01b03163b115b95945050505050565b60606135aa8383600084600080856001600160a01b03168486604051613b1891906142a8565b60006040518083038185875af1925050503d8060008114613b55576040519150601f19603f3d011682016040523d82523d6000602084013e613b5a565b606091505b5091509150613b6a868383613b74565b9695505050505050565b606082613b8957613b8482613bd0565b6135aa565b8151158015613ba057506001600160a01b0384163b155b15613bc957604051639996b31560e01b81526001600160a01b03851660048201526024016106c8565b50806135aa565b805115613be05780518082602001fd5b604051630a12f52160e11b815260040160405180910390fd5b8260208101928215613c27579160200282015b82811115613c27578251825591602001919060010190613c0c565b50610b7b929150613c53565b6040518060400160405280613c46613c68565b8152602001600081525090565b5b80821115610b7b5760008155600101613c54565b6040518061040001604052806020906020820280368337509192915050565b60008060208385031215613c9a57600080fd5b82356001600160401b0380821115613cb157600080fd5b818501915085601f830112613cc557600080fd5b813581811115613cd457600080fd5b8660208260071b8501011115613ce957600080fd5b60209290920196919550909350505050565b600060808284031215613d0d57600080fd5b50919050565b600060808284031215613d2557600080fd5b6135aa8383613cfb565b6001600160a01b0381168114610bf557600080fd5b60008060008060808587031215613d5a57600080fd5b843593506020850135613d6c81613d2f565b9250604085013591506060850135613d8381613d2f565b939692955090935050565b600060208284031215613da057600080fd5b81356135aa81613d2f565b6001600160401b038416815260208082018490528251610460830191906000604085015b83821015613ded578251815291830191600191909101908301613dcf565b505050506020830151610440830152949350505050565b60006104a08284031215613d0d57600080fd5b60008060208385031215613e2a57600080fd5b82356001600160401b0380821115613e4157600080fd5b818501915085601f830112613e5557600080fd5b813581811115613e6457600080fd5b8660206104a083028501011115613ce957600080fd5b634e487b7160e01b600052602160045260246000fd5b6020810160028310613eb257634e487b7160e01b600052602160045260246000fd5b91905290565b634e487b7160e01b600052603260045260246000fd5b600060208284031215613ee057600080fd5b813563ffffffff811681146135aa57600080fd5b600060208284031215613f0657600080fd5b81516135aa81613d2f565b634e487b7160e01b600052601160045260246000fd5b80820180821115611f3b57611f3b613f11565b6001600160401b0381168114610bf557600080fd5b600060208284031215613f6157600080fd5b81356135aa81613f3a565b8135613f7781613f3a565b6001600160401b0381166001600160401b031983541617825550602082013560018201555050565b600060208284031215613fb157600080fd5b5051919050565b600060208284031215613fca57600080fd5b815180151581146135aa57600080fd5b60006001600160401b03808316818103613ff657613ff6613f11565b6001019392505050565b60005b8381101561401b578181015183820152602001614003565b50506000910152565b6000815180845261403c816020860160208601614000565b601f01601f19169290920160200192915050565b6001600160a01b0387811682528681166020830152851660408201526060810184905263ffffffff8316608082015260c060a0820181905260009061409790830184614024565b98975050505050505050565b81810381811115611f3b57611f3b613f11565b6001600160a01b03841681526060602082018190526000906140da90830185614024565b905063ffffffff83166040830152949350505050565b600060018060a01b03808a168352886020840152808816604084015286606084015285608084015280851660a08401525060e060c083015261413560e0830184614024565b9998505050505050505050565b634e487b7160e01b600052600160045260246000fd5b86815260018060a01b0386166020820152846040820152831515606082015260c06080820152600061418d60c0830185614024565b82810360a08401526141358185614024565b6000600182016141b1576141b1613f11565b5060010190565b600181815b808511156141f35781600019048211156141d9576141d9613f11565b808516156141e657918102915b93841c93908002906141bd565b509250929050565b60008261420a57506001611f3b565b8161421757506000611f3b565b816001811461422d576002811461423757614253565b6001915050611f3b565b60ff84111561424857614248613f11565b50506001821b611f3b565b5060208310610133831016604e8410600b8410161715614276575081810a611f3b565b61428083836141b8565b806000190482111561429457614294613f11565b029392505050565b60006135aa83836141fb565b600082516142ba818460208701614000565b919091019291505056fea26469706673582212203a41fe79f3688c253750856a78d1675d5ceaf2743bb86cffb442503f511832be64736f6c63430008170033a264697066735822122055032caaea6a1fac599e6b80c2c6394687a50146d132562347e04aef2a18f7fb64736f6c63430008170033",
	"devdoc": {
		"kind": "dev",
		"methods": {
			"createForSender(uint256,bytes32)": {
				"details": "Uses the sender address as the salt, which means the same sender must call this function on both chains.",
				"params": {
					"localProjectId": "The project's ID on the local chain.",
					"salt": "The salt to use for the `create2` address."
				},
				"returns": {
					"sucker": "The address of the new sucker."
				}
			}
		},
		"version": 1
	},
	"userdoc": {
		"kind": "user",
		"methods": {
			"BRIDGE()": {
				"notice": "The bridge used to bridge tokens between the local and remote chain."
			},
			"MESSENGER()": {
				"notice": "The messenger used to send messages between the local and remote sucker."
			},
			"PERMISSIONS()": {
				"notice": "A contract storing permissions."
			},
			"TEMP_ID_STORE()": {
				"notice": "A temporary storage slot used by suckers to maintain deterministic deploys."
			},
			"configureLayerSpecific(address,address)": {
				"notice": "handles some layer specific configuration that can't be done in the constructor otherwise deployment addresses would change.messenger the OPMesssenger on this layer.bridge the OPStandardBridge on this layer."
			},
			"createForSender(uint256,bytes32)": {
				"notice": "Create a new `BPSucker` for a specific project."
			},
			"isSucker(address)": {
				"notice": "A mapping of suckers deployed by this contract."
			}
		},
		"version": 1
	},
	"gitCommit": "d5bddfe8fea06c5a2093abc681b2459a7f8607fd",
	"sourceName": "src/deployers/BPOptimismSuckerDeployer.sol",
	"chainId": "11155420",
	"linkReferences": {},
	"deployedLinkReferences": {},
	"history": [
		{
			"_format": "sphinx-sol-ct-artifact-1",
			"merkleRoot": "0x75f4f83937fbaf3bdaf806a1687af681ee192e2a8cec235c61e4962233bccba2",
			"contractName": "BPOptimismSuckerDeployer",
			"address": "0xC72502282Acb59D63cde258b34c71EFffbC4Ee97",
			"abi": [
				{
					"type": "constructor",
					"inputs": [
						{
							"name": "prices",
							"type": "address",
							"internalType": "contract IJBPrices"
						},
						{
							"name": "rulesets",
							"type": "address",
							"internalType": "contract IJBRulesets"
						},
						{
							"name": "directory",
							"type": "address",
							"internalType": "contract IJBDirectory"
						},
						{
							"name": "tokens",
							"type": "address",
							"internalType": "contract IJBTokens"
						},
						{
							"name": "permissions",
							"type": "address",
							"internalType": "contract IJBPermissions"
						}
					],
					"stateMutability": "nonpayable"
				},
				{
					"type": "function",
					"name": "BRIDGE",
					"inputs": [],
					"outputs": [
						{
							"name": "",
							"type": "address",
							"internalType": "contract OPStandardBridge"
						}
					],
					"stateMutability": "view"
				},
				{
					"type": "function",
					"name": "MESSENGER",
					"inputs": [],
					"outputs": [
						{
							"name": "",
							"type": "address",
							"internalType": "contract OPMessenger"
						}
					],
					"stateMutability": "view"
				},
				{
					"type": "function",
					"name": "PERMISSIONS",
					"inputs": [],
					"outputs": [
						{
							"name": "",
							"type": "address",
							"internalType": "contract IJBPermissions"
						}
					],
					"stateMutability": "view"
				},
				{
					"type": "function",
					"name": "configureLayerSpecific",
					"inputs": [
						{
							"name": "messenger",
							"type": "address",
							"internalType": "contract OPMessenger"
						},
						{
							"name": "bridge",
							"type": "address",
							"internalType": "contract OPStandardBridge"
						}
					],
					"outputs": [],
					"stateMutability": "nonpayable"
				},
				{
					"type": "function",
					"name": "createForSender",
					"inputs": [
						{
							"name": "localProjectId",
							"type": "uint256",
							"internalType": "uint256"
						},
						{
							"name": "salt",
							"type": "bytes32",
							"internalType": "bytes32"
						}
					],
					"outputs": [
						{
							"name": "sucker",
							"type": "address",
							"internalType": "contract IBPSucker"
						}
					],
					"stateMutability": "nonpayable"
				},
				{
					"type": "function",
					"name": "isSucker",
					"inputs": [
						{
							"name": "",
							"type": "address",
							"internalType": "address"
						}
					],
					"outputs": [
						{
							"name": "",
							"type": "bool",
							"internalType": "bool"
						}
					],
					"stateMutability": "view"
				},
				{
					"type": "function",
					"name": "useAllowanceFeeless",
					"inputs": [
						{
							"name": "projectId",
							"type": "uint256",
							"internalType": "uint256"
						},
						{
							"name": "terminal",
							"type": "address",
							"internalType": "contract IJBPayoutTerminal"
						},
						{
							"name": "token",
							"type": "address",
							"internalType": "address"
						},
						{
							"name": "currency",
							"type": "uint32",
							"internalType": "uint32"
						},
						{
							"name": "amount",
							"type": "uint256",
							"internalType": "uint256"
						},
						{
							"name": "minReceivedTokens",
							"type": "uint256",
							"internalType": "uint256"
						}
					],
					"outputs": [
						{
							"name": "",
							"type": "uint256",
							"internalType": "uint256"
						}
					],
					"stateMutability": "nonpayable"
				},
				{
					"type": "error",
					"name": "ALREADY_CONFIGURED",
					"inputs": []
				},
				{
					"type": "error",
					"name": "ONLY_SUCKERS",
					"inputs": []
				},
				{
					"type": "error",
					"name": "UNAUTHORIZED",
					"inputs": []
				}
			],
			"solcInputHash": "81d7eb0337c2ab730c7ae21c6b54a37b",
			"receipt": {
				"blockHash": "0x46fa1a4b668cf370a1f6ed17da42f836f31ec9662b26603dfb8ebd2e173dddac",
				"blockNumber": 9198987,
				"contractAddress": null,
				"cumulativeGasUsed": "6998645",
				"from": "0xC034550B542b83BA1De312b21d1C94a9a52B1595",
				"gasPrice": "1000252",
				"gasUsed": "6848760",
				"hash": "0x4ea9dde8517ef4f9ed795f1ff590f69de6296c135c4d085d5883e06d77d8543b",
				"index": 3,
				"logs": [
					{
						"address": "0xB5E96127D417b1B3ef8438496a38A143167209c7",
						"blockHash": "0x46fa1a4b668cf370a1f6ed17da42f836f31ec9662b26603dfb8ebd2e173dddac",
						"blockNumber": 9198987,
						"data": "0x0000000000000000000000000000000000000000000000000000000000000000",
						"index": 2,
						"topics": [
							"0x572f161235911da04685a68c06adf558fc7e4a36909dca394650e0adc19cc93d",
							"0x000000000000000000000000c034550b542b83ba1de312b21d1c94a9a52b1595",
							"0x0000000000000000000000002251543da4a5ef946705b931c7e8b74756764a18",
							"0x0967fbb69dd51440c454650681c067761f8cbd287d3dcb441add41580399d1b3"
						],
						"transactionHash": "0x4ea9dde8517ef4f9ed795f1ff590f69de6296c135c4d085d5883e06d77d8543b",
						"transactionIndex": 3
					},
					{
						"address": "0x6a65B75A3f37C6702A117Fb87B6bCaC62657d216",
						"blockHash": "0x46fa1a4b668cf370a1f6ed17da42f836f31ec9662b26603dfb8ebd2e173dddac",
						"blockNumber": 9198987,
						"data": "0x",
						"index": 3,
						"topics": [
							"0x6895c13664aa4f67288b25d7a21d7aaa34916e355fb9b6fae0a139a9085becb8",
							"0x0000000000000000000000002251543da4a5ef946705b931c7e8b74756764a18"
						],
						"transactionHash": "0x4ea9dde8517ef4f9ed795f1ff590f69de6296c135c4d085d5883e06d77d8543b",
						"transactionIndex": 3
					},
					{
						"address": "0x2251543Da4A5eF946705B931C7e8b74756764a18",
						"blockHash": "0x46fa1a4b668cf370a1f6ed17da42f836f31ec9662b26603dfb8ebd2e173dddac",
						"blockNumber": 9198987,
						"data": "0x0000000000000000000000000000000000000000000000000000000000000001",
						"index": 4,
						"topics": [
							"0xa65fb05c5808f5f389d72edeaf719ce38f4cc55c1f69ca3cbfb31c21501caa07",
							"0x75f4f83937fbaf3bdaf806a1687af681ee192e2a8cec235c61e4962233bccba2"
						],
						"transactionHash": "0x4ea9dde8517ef4f9ed795f1ff590f69de6296c135c4d085d5883e06d77d8543b",
						"transactionIndex": 3
					},
					{
						"address": "0x6a65B75A3f37C6702A117Fb87B6bCaC62657d216",
						"blockHash": "0x46fa1a4b668cf370a1f6ed17da42f836f31ec9662b26603dfb8ebd2e173dddac",
						"blockNumber": 9198987,
						"data": "0x",
						"index": 5,
						"topics": [
							"0x6895c13664aa4f67288b25d7a21d7aaa34916e355fb9b6fae0a139a9085becb8",
							"0x0000000000000000000000002251543da4a5ef946705b931c7e8b74756764a18"
						],
						"transactionHash": "0x4ea9dde8517ef4f9ed795f1ff590f69de6296c135c4d085d5883e06d77d8543b",
						"transactionIndex": 3
					},
					{
						"address": "0x2251543Da4A5eF946705B931C7e8b74756764a18",
						"blockHash": "0x46fa1a4b668cf370a1f6ed17da42f836f31ec9662b26603dfb8ebd2e173dddac",
						"blockNumber": 9198987,
						"data": "0x0000000000000000000000000000000000000000000000000000000000000002",
						"index": 6,
						"topics": [
							"0xa65fb05c5808f5f389d72edeaf719ce38f4cc55c1f69ca3cbfb31c21501caa07",
							"0x75f4f83937fbaf3bdaf806a1687af681ee192e2a8cec235c61e4962233bccba2"
						],
						"transactionHash": "0x4ea9dde8517ef4f9ed795f1ff590f69de6296c135c4d085d5883e06d77d8543b",
						"transactionIndex": 3
					},
					{
						"address": "0x4Be9d88bE6e7A38644EA746cF78cB1BF30051C76",
						"blockHash": "0x46fa1a4b668cf370a1f6ed17da42f836f31ec9662b26603dfb8ebd2e173dddac",
						"blockNumber": 9198987,
						"data": "0x",
						"index": 7,
						"topics": [
							"0x8be0079c531659141344cd1fd0a4f28419497f9722a3daafe3b4186f6b6457e0",
							"0x0000000000000000000000004e59b44847b379578588920ca78fbf26c0b4956c",
							"0x0000000000000000000000006a65b75a3f37c6702a117fb87b6bcac62657d216"
						],
						"transactionHash": "0x4ea9dde8517ef4f9ed795f1ff590f69de6296c135c4d085d5883e06d77d8543b",
						"transactionIndex": 3
					},
					{
						"address": "0x6a65B75A3f37C6702A117Fb87B6bCaC62657d216",
						"blockHash": "0x46fa1a4b668cf370a1f6ed17da42f836f31ec9662b26603dfb8ebd2e173dddac",
						"blockNumber": 9198987,
						"data": "0x",
						"index": 8,
						"topics": [
							"0x6895c13664aa4f67288b25d7a21d7aaa34916e355fb9b6fae0a139a9085becb8",
							"0x0000000000000000000000002251543da4a5ef946705b931c7e8b74756764a18"
						],
						"transactionHash": "0x4ea9dde8517ef4f9ed795f1ff590f69de6296c135c4d085d5883e06d77d8543b",
						"transactionIndex": 3
					},
					{
						"address": "0x2251543Da4A5eF946705B931C7e8b74756764a18",
						"blockHash": "0x46fa1a4b668cf370a1f6ed17da42f836f31ec9662b26603dfb8ebd2e173dddac",
						"blockNumber": 9198987,
						"data": "0x0000000000000000000000000000000000000000000000000000000000000003",
						"index": 9,
						"topics": [
							"0xa65fb05c5808f5f389d72edeaf719ce38f4cc55c1f69ca3cbfb31c21501caa07",
							"0x75f4f83937fbaf3bdaf806a1687af681ee192e2a8cec235c61e4962233bccba2"
						],
						"transactionHash": "0x4ea9dde8517ef4f9ed795f1ff590f69de6296c135c4d085d5883e06d77d8543b",
						"transactionIndex": 3
					},
					{
						"address": "0x4Be9d88bE6e7A38644EA746cF78cB1BF30051C76",
						"blockHash": "0x46fa1a4b668cf370a1f6ed17da42f836f31ec9662b26603dfb8ebd2e173dddac",
						"blockNumber": 9198987,
						"data": "0x000000000000000000000000c72502282acb59d63cde258b34c71efffbc4ee97",
						"index": 10,
						"topics": [
							"0xf6e6facda29906a01d337146a9b928ac09b423901f28e0e001d43550448b370b"
						],
						"transactionHash": "0x4ea9dde8517ef4f9ed795f1ff590f69de6296c135c4d085d5883e06d77d8543b",
						"transactionIndex": 3
					},
					{
						"address": "0x6a65B75A3f37C6702A117Fb87B6bCaC62657d216",
						"blockHash": "0x46fa1a4b668cf370a1f6ed17da42f836f31ec9662b26603dfb8ebd2e173dddac",
						"blockNumber": 9198987,
						"data": "0x",
						"index": 11,
						"topics": [
							"0x6895c13664aa4f67288b25d7a21d7aaa34916e355fb9b6fae0a139a9085becb8",
							"0x0000000000000000000000002251543da4a5ef946705b931c7e8b74756764a18"
						],
						"transactionHash": "0x4ea9dde8517ef4f9ed795f1ff590f69de6296c135c4d085d5883e06d77d8543b",
						"transactionIndex": 3
					},
					{
						"address": "0x2251543Da4A5eF946705B931C7e8b74756764a18",
						"blockHash": "0x46fa1a4b668cf370a1f6ed17da42f836f31ec9662b26603dfb8ebd2e173dddac",
						"blockNumber": 9198987,
						"data": "0x0000000000000000000000000000000000000000000000000000000000000004",
						"index": 12,
						"topics": [
							"0xa65fb05c5808f5f389d72edeaf719ce38f4cc55c1f69ca3cbfb31c21501caa07",
							"0x75f4f83937fbaf3bdaf806a1687af681ee192e2a8cec235c61e4962233bccba2"
						],
						"transactionHash": "0x4ea9dde8517ef4f9ed795f1ff590f69de6296c135c4d085d5883e06d77d8543b",
						"transactionIndex": 3
					},
					{
						"address": "0x6a65B75A3f37C6702A117Fb87B6bCaC62657d216",
						"blockHash": "0x46fa1a4b668cf370a1f6ed17da42f836f31ec9662b26603dfb8ebd2e173dddac",
						"blockNumber": 9198987,
						"data": "0x",
						"index": 13,
						"topics": [
							"0x6895c13664aa4f67288b25d7a21d7aaa34916e355fb9b6fae0a139a9085becb8",
							"0x0000000000000000000000002251543da4a5ef946705b931c7e8b74756764a18"
						],
						"transactionHash": "0x4ea9dde8517ef4f9ed795f1ff590f69de6296c135c4d085d5883e06d77d8543b",
						"transactionIndex": 3
					},
					{
						"address": "0x2251543Da4A5eF946705B931C7e8b74756764a18",
						"blockHash": "0x46fa1a4b668cf370a1f6ed17da42f836f31ec9662b26603dfb8ebd2e173dddac",
						"blockNumber": 9198987,
						"data": "0x0000000000000000000000000000000000000000000000000000000000000005",
						"index": 14,
						"topics": [
							"0xa65fb05c5808f5f389d72edeaf719ce38f4cc55c1f69ca3cbfb31c21501caa07",
							"0x75f4f83937fbaf3bdaf806a1687af681ee192e2a8cec235c61e4962233bccba2"
						],
						"transactionHash": "0x4ea9dde8517ef4f9ed795f1ff590f69de6296c135c4d085d5883e06d77d8543b",
						"transactionIndex": 3
					},
					{
						"address": "0x2251543Da4A5eF946705B931C7e8b74756764a18",
						"blockHash": "0x46fa1a4b668cf370a1f6ed17da42f836f31ec9662b26603dfb8ebd2e173dddac",
						"blockNumber": 9198987,
						"data": "0x",
						"index": 15,
						"topics": [
							"0x4383d976757d67ca920616be0b6430a681ea9d3dcce8d6d61d4603ca4a9bff63",
							"0x75f4f83937fbaf3bdaf806a1687af681ee192e2a8cec235c61e4962233bccba2"
						],
						"transactionHash": "0x4ea9dde8517ef4f9ed795f1ff590f69de6296c135c4d085d5883e06d77d8543b",
						"transactionIndex": 3
					}
				],
				"logsBloom": "0x0000000008005000000800000008000000020000404800000880000000404000000000000000000000000000004001000000000000080000000000000000000000000000000020000000000002000000000100000000000000000400000800000000000000000000000000000000000020000000000000002000000000000040000000000000000000010004000000000000000000300000000000000000000000c000800011000000001000000000020208000000000000000000000004000000000000000000000008040008000000000000000002000000000000100000000000000000000008000000000000000280000000000000000000000208000000",
				"status": 1,
				"to": "0xB5E96127D417b1B3ef8438496a38A143167209c7"
			},
			"metadata": "{\"compiler\":{\"version\":\"0.8.23+commit.f704f362\"},\"language\":\"Solidity\",\"output\":{\"abi\":[{\"inputs\":[{\"internalType\":\"contract IJBPrices\",\"name\":\"prices\",\"type\":\"address\"},{\"internalType\":\"contract IJBRulesets\",\"name\":\"rulesets\",\"type\":\"address\"},{\"internalType\":\"contract IJBDirectory\",\"name\":\"directory\",\"type\":\"address\"},{\"internalType\":\"contract IJBTokens\",\"name\":\"tokens\",\"type\":\"address\"},{\"internalType\":\"contract IJBPermissions\",\"name\":\"permissions\",\"type\":\"address\"}],\"stateMutability\":\"nonpayable\",\"type\":\"constructor\"},{\"inputs\":[],\"type\":\"error\",\"name\":\"ALREADY_CONFIGURED\"},{\"inputs\":[],\"type\":\"error\",\"name\":\"ONLY_SUCKERS\"},{\"inputs\":[],\"type\":\"error\",\"name\":\"UNAUTHORIZED\"},{\"inputs\":[],\"stateMutability\":\"view\",\"type\":\"function\",\"name\":\"BRIDGE\",\"outputs\":[{\"internalType\":\"contract OPStandardBridge\",\"name\":\"\",\"type\":\"address\"}]},{\"inputs\":[],\"stateMutability\":\"view\",\"type\":\"function\",\"name\":\"MESSENGER\",\"outputs\":[{\"internalType\":\"contract OPMessenger\",\"name\":\"\",\"type\":\"address\"}]},{\"inputs\":[],\"stateMutability\":\"view\",\"type\":\"function\",\"name\":\"PERMISSIONS\",\"outputs\":[{\"internalType\":\"contract IJBPermissions\",\"name\":\"\",\"type\":\"address\"}]},{\"inputs\":[{\"internalType\":\"contract OPMessenger\",\"name\":\"messenger\",\"type\":\"address\"},{\"internalType\":\"contract OPStandardBridge\",\"name\":\"bridge\",\"type\":\"address\"}],\"stateMutability\":\"nonpayable\",\"type\":\"function\",\"name\":\"configureLayerSpecific\"},{\"inputs\":[{\"internalType\":\"uint256\",\"name\":\"localProjectId\",\"type\":\"uint256\"},{\"internalType\":\"bytes32\",\"name\":\"salt\",\"type\":\"bytes32\"}],\"stateMutability\":\"nonpayable\",\"type\":\"function\",\"name\":\"createForSender\",\"outputs\":[{\"internalType\":\"contract IBPSucker\",\"name\":\"sucker\",\"type\":\"address\"}]},{\"inputs\":[{\"internalType\":\"address\",\"name\":\"\",\"type\":\"address\"}],\"stateMutability\":\"view\",\"type\":\"function\",\"name\":\"isSucker\",\"outputs\":[{\"internalType\":\"bool\",\"name\":\"\",\"type\":\"bool\"}]},{\"inputs\":[{\"internalType\":\"uint256\",\"name\":\"projectId\",\"type\":\"uint256\"},{\"internalType\":\"contract IJBPayoutTerminal\",\"name\":\"terminal\",\"type\":\"address\"},{\"internalType\":\"address\",\"name\":\"token\",\"type\":\"address\"},{\"internalType\":\"uint32\",\"name\":\"currency\",\"type\":\"uint32\"},{\"internalType\":\"uint256\",\"name\":\"amount\",\"type\":\"uint256\"},{\"internalType\":\"uint256\",\"name\":\"minReceivedTokens\",\"type\":\"uint256\"}],\"stateMutability\":\"nonpayable\",\"type\":\"function\",\"name\":\"useAllowanceFeeless\",\"outputs\":[{\"internalType\":\"uint256\",\"name\":\"\",\"type\":\"uint256\"}]}],\"devdoc\":{\"kind\":\"dev\",\"methods\":{\"createForSender(uint256,bytes32)\":{\"details\":\"Uses the sender address as the salt, which means the same sender must call this function on both chains.\",\"params\":{\"localProjectId\":\"The project's ID on the local chain.\",\"salt\":\"The salt to use for the `create2` address.\"},\"returns\":{\"sucker\":\"The address of the new sucker.\"}},\"useAllowanceFeeless(uint256,address,address,uint32,uint256,uint256)\":{\"details\":\"This function can only be called by suckers deployed by this contract.This function can only be called by suckers with `JBPermissionIds.USE_ALLOWANCE` permission from the project's owner.This function is not necessarily feeless, as it still requires JuiceboxDAO to set the address as feeless.\",\"params\":{\"amount\":\"The amount to use from the terminal, denominated in the `currency`.\",\"currency\":\"The currency that the `amount` is denominated in.\",\"minReceivedTokens\":\"The minimum amount of terminal tokens to receive. If the terminal returns less than this amount, the transaction will revert.\",\"projectId\":\"The project's ID.\",\"terminal\":\"The terminal to use the surplus allowance from.\",\"token\":\"The token that the surplus is in.\"},\"returns\":{\"_0\":\"The amount of tokens received.\"}}},\"version\":1},\"userdoc\":{\"kind\":\"user\",\"methods\":{\"BRIDGE()\":{\"notice\":\"The bridge used to bridge tokens between the local and remote chain.\"},\"MESSENGER()\":{\"notice\":\"The messenger used to send messages between the local and remote sucker.\"},\"PERMISSIONS()\":{\"notice\":\"A contract storing permissions.\"},\"createForSender(uint256,bytes32)\":{\"notice\":\"Create a new `BPSucker` for a specific project.\"},\"isSucker(address)\":{\"notice\":\"A mapping of suckers deployed by this contract.\"},\"useAllowanceFeeless(uint256,address,address,uint32,uint256,uint256)\":{\"notice\":\"Use a project's surplus allowance without paying exit fees.\"}},\"version\":1}},\"settings\":{\"remappings\":[\"@arbitrum/=node_modules/@arbitrum/\",\"@bananapus/=node_modules/@bananapus/\",\"@chainlink/=node_modules/@chainlink/\",\"@eth-optimism/=node_modules/@eth-optimism/\",\"@gnosis.pm/=node_modules/@gnosis.pm/\",\"@offchainlabs/=node_modules/@offchainlabs/\",\"@openzeppelin/=node_modules/@openzeppelin/\",\"@prb/=node_modules/@prb/\",\"@sphinx-labs/contracts/=node_modules/@sphinx-labs/contracts/contracts/foundry/\",\"@uniswap/=node_modules/@uniswap/\",\"ds-test/=lib/forge-std/lib/ds-test/src/\",\"forge-std/=lib/forge-std/src/\",\"hardhat/=node_modules/hardhat/\",\"solmate/=node_modules/solmate/\",\"sphinx-forge-std/=node_modules/sphinx-forge-std/\",\"sphinx-solmate/=node_modules/sphinx-solmate/\",\"sphinx/=lib/sphinx/packages/contracts/contracts/forge-std/src/\"],\"optimizer\":{\"enabled\":true,\"runs\":200},\"metadata\":{\"bytecodeHash\":\"ipfs\"},\"compilationTarget\":{\"src/deployers/BPOptimismSuckerDeployer.sol\":\"BPOptimismSuckerDeployer\"},\"evmVersion\":\"paris\",\"libraries\":{}},\"sources\":{\"node_modules/@bananapus/core/src/abstract/JBPermissioned.sol\":{\"keccak256\":\"0xbe593894bc9893f7fe5c96f14c013add8f50df762538e3d7cb96ed39ad195664\",\"urls\":[\"bzz-raw://efb81264b24776e6be537680abaeb8c4893e70d8a62231748d860e25a7c2340d\",\"dweb:/ipfs/QmacN9gFgPqkhTEwRD7Zben3whq9DRr2ZkSmScGvioTXXR\"],\"license\":\"MIT\"},\"node_modules/@bananapus/core/src/enums/JBApprovalStatus.sol\":{\"keccak256\":\"0x61c69b6bac7d24b566d87cda23a77e4ca9cdb87200b106aba8534cb9a0973e33\",\"urls\":[\"bzz-raw://6a9ca7249de76f77a8252eefe6bd1b63d47952f25a2acfa2c8db967cdff4470c\",\"dweb:/ipfs/QmaxSxptRQNj8bNy96EreENmrnRWdKmhyihBcxyWzBX5BN\"],\"license\":\"MIT\"},\"node_modules/@bananapus/core/src/interfaces/IJBControlled.sol\":{\"keccak256\":\"0x79fb8de7b3f809f1c3c7189f578b7331ec4dfe3350151d5b50240ecb3a2a907b\",\"urls\":[\"bzz-raw://45c82240dd4f0e9aec00d0d86f6b44bdda231db098ebdac17e922771b3e6f342\",\"dweb:/ipfs/QmPUvT8HZeVenrZDpP14HsZofaXPJjih8UAd35rTg3tU7E\"],\"license\":\"MIT\"},\"node_modules/@bananapus/core/src/interfaces/IJBController.sol\":{\"keccak256\":\"0xfe88b4ddf528542fde8f8fcc650281f48ca291d5432ec3f02cf8f064ecd79b22\",\"urls\":[\"bzz-raw://f71da06a55abca8cdcc447fd554df2fa2377a276679b2113f2cec8db635d70a4\",\"dweb:/ipfs/QmT3H3aWByCVVAhiB1DrPuG1Scm4GtyXWVcEP1p7GCmVJA\"],\"license\":\"MIT\"},\"node_modules/@bananapus/core/src/interfaces/IJBDirectory.sol\":{\"keccak256\":\"0xd15957cc32974cde4f9f194b92574df2ad8a7aeec049d947136ce3381f9145f6\",\"urls\":[\"bzz-raw://7543e5cbde75ff777b16067016ff9ac5e995752842f03662137eb4ef3fc3c868\",\"dweb:/ipfs/QmPJZAmqNKRcj1JQ4Kc9hExbMtPPzrRB5hZ787utCfBmXg\"],\"license\":\"MIT\"},\"node_modules/@bananapus/core/src/interfaces/IJBDirectoryAccessControl.sol\":{\"keccak256\":\"0x1e67f56849320a46f834aaa9bd62b170ff8ada7b224b4a81136193740fa0be4d\",\"urls\":[\"bzz-raw://ea8fbcec44abfe49d137bcae129b67e5479d6b17879301f88534c8a7fab00be4\",\"dweb:/ipfs/QmT6wrtYX4GRpffHUzupNwYebJ1dqkkKZLEewWsoyunsqw\"],\"license\":\"MIT\"},\"node_modules/@bananapus/core/src/interfaces/IJBFundAccessLimits.sol\":{\"keccak256\":\"0x2a2ece23837bedde2fddb728476e558bc37c644f641d397a8e08e8a1a85ea390\",\"urls\":[\"bzz-raw://f44187b5a720cdbe5af325331a5e351fc8504853836fb54b997c597949246726\",\"dweb:/ipfs/QmSKM2aMpnof458iCeui2Wkf7S8FfBRGs9zF3QG5DJLf7C\"],\"license\":\"MIT\"},\"node_modules/@bananapus/core/src/interfaces/IJBMigratable.sol\":{\"keccak256\":\"0xd69bd5aba01a68d82c303ef3adde47532abcace030a94296c3ea6988b401789c\",\"urls\":[\"bzz-raw://88f11a1c89899327746beba4fc830abf3ac2eb9c152c778e884a6eed6564971f\",\"dweb:/ipfs/QmTpKhSTVewpz7VyKcz6BJwH2LFKMwT7Qi5HNWmjEjwsdK\"],\"license\":\"MIT\"},\"node_modules/@bananapus/core/src/interfaces/IJBPayHook.sol\":{\"keccak256\":\"0xe24aa2ca52f7a5f24f24ccae101cfc94d0f76705b2d23222f87c7852f8be4267\",\"urls\":[\"bzz-raw://6888140e9a7d4156fd22635654d5d08e21819af8b0356b5415f37b75083b3eb9\",\"dweb:/ipfs/QmbuwBNhar7rEbRhTJPiyo5PVsfaM5nqLow9NAkHhyvjV5\"],\"license\":\"MIT\"},\"node_modules/@bananapus/core/src/interfaces/IJBPermissioned.sol\":{\"keccak256\":\"0x5b038d4dee116584e88b230920e56d48e135053e3f7e5642eaea14a775c1dad7\",\"urls\":[\"bzz-raw://19e43102f349fd4a1da1c0943ffb8f2950007fe4bb4bb7e8f74fc142575d091b\",\"dweb:/ipfs/QmXHAt4KzDTdDZgDDefEXH2WKi7NcfkJb9R7nxW5uDqsNp\"],\"license\":\"MIT\"},\"node_modules/@bananapus/core/src/interfaces/IJBPermissions.sol\":{\"keccak256\":\"0x18870e500edf0fbadc353e273a5574701fb80466376b908c65e7cc3f11044d4d\",\"urls\":[\"bzz-raw://352a47c45853aec80e7acf0d286ade3106eb4cb456776b28a3c2f3f1091bed90\",\"dweb:/ipfs/QmQeYd3YbudYZy2hfbfht9kwhxhw4tuuLKMEYy9UY6dcSy\"],\"license\":\"MIT\"},\"node_modules/@bananapus/core/src/interfaces/IJBPriceFeed.sol\":{\"keccak256\":\"0x4bd84c0f1a5d4729ed709bcddd43f4c50ec4a165ece79780af8dce482ed07d4a\",\"urls\":[\"bzz-raw://62bac4bfb6982fb002f620c77e5c445e62d50241a5aa64a07e51d929f5a42180\",\"dweb:/ipfs/QmWgJUDreVY2BuMX38a1iUUR5kNbMwGnKG3VvurB7oZtuM\"],\"license\":\"MIT\"},\"node_modules/@bananapus/core/src/interfaces/IJBPrices.sol\":{\"keccak256\":\"0x99525f31440b955742dce84ba57de9fc1221139b5367c1f834723bef9e13e6e1\",\"urls\":[\"bzz-raw://6fa03f0cd4ad87dd7cbae7bf7f54463450874291773c8f70f2c31ef2cae62bb0\",\"dweb:/ipfs/QmSPajPV5ismteJuB6Spzm9VmhTj2iS3eVrfpJC1Zuzg8n\"],\"license\":\"MIT\"},\"node_modules/@bananapus/core/src/interfaces/IJBProjectUriRegistry.sol\":{\"keccak256\":\"0x2799475228987e4f8334ac33d3935f759c9b8133db7383b4f622dde7a5dc0502\",\"urls\":[\"bzz-raw://d751731740f45df74eea48c9667e847ee2cddb2980ab4939c86bd17e6c6ed89b\",\"dweb:/ipfs/QmXW8SLTuhdUpfn7pRpdsYdcyuim8RTyagU37ULcj5UZhT\"],\"license\":\"MIT\"},\"node_modules/@bananapus/core/src/interfaces/IJBProjects.sol\":{\"keccak256\":\"0x85539f72c5871c53a919edc7db78931155464e9e00fccd30079b17e75820ddb9\",\"urls\":[\"bzz-raw://505466dbfbdeec77f948ce065676897a5b4a74b70bb234c1053b893c4849f3a1\",\"dweb:/ipfs/QmYBpZQub3Mv19xsRWqvzgiQSBAp4UNaKcqWQ2wwH62H95\"],\"license\":\"MIT\"},\"node_modules/@bananapus/core/src/interfaces/IJBRedeemHook.sol\":{\"keccak256\":\"0x4ea5b7ed510c9d29aca47ae3f8b41ef075dff4b9909779ec2c0e5b7bc30250c6\",\"urls\":[\"bzz-raw://770b785134ba71e3284dc7e05e44f429e7a8393423ad45cf8fe540408a5b9633\",\"dweb:/ipfs/QmRjXJxZPA1qZos7QjeCxJZ8sCfXfkyDFbzkdqzaqCD9Ds\"],\"license\":\"MIT\"},\"node_modules/@bananapus/core/src/interfaces/IJBRulesetApprovalHook.sol\":{\"keccak256\":\"0x5e9f921a6aa5d9396a12bbc0a878c3f5e8ae0a4ce8a3abe0de12e300718838d7\",\"urls\":[\"bzz-raw://6c9f0610f5bbe07554a1bdc39041be1284c20d81d930bec1eee2d374b86e03f4\",\"dweb:/ipfs/QmPH57wBoPERwDWkBCcj9c5tEUdeeLNe2kv1oFM7cTKVrd\"],\"license\":\"MIT\"},\"node_modules/@bananapus/core/src/interfaces/IJBRulesetDataHook.sol\":{\"keccak256\":\"0x3fea9fcab6f0335e67f0f052cf5d3446e9310808f88b5878d21586be00f89f85\",\"urls\":[\"bzz-raw://5506848f471d308a14523f91202d76d960f8255e227d29d34b0892ef70315cae\",\"dweb:/ipfs/QmakRKFctSZobpem1caU2zXqhiPQnaYVa7Y6NdAPAonHaU\"],\"license\":\"MIT\"},\"node_modules/@bananapus/core/src/interfaces/IJBRulesets.sol\":{\"keccak256\":\"0xda1a9aef337cf9fede3f638ffa58aea2815b87fde0f79628834aa03af9f582d7\",\"urls\":[\"bzz-raw://7941690ba6d94500474978ff0f02ecc56335eae5937759878e25cc1ac30a8ecc\",\"dweb:/ipfs/QmZFc7wof6PzfBTkVyNkjaQrQbjc36CK4uC3Ee2vgihqyK\"],\"license\":\"MIT\"},\"node_modules/@bananapus/core/src/interfaces/IJBSplitHook.sol\":{\"keccak256\":\"0xc99bb76736acc5c6409d1ff54cb90218b547fdf7f8a7c0d03ddb7ac9eb35645e\",\"urls\":[\"bzz-raw://7fa7e56f426a758e6125e58d81137569964e46bdfeaf9ea081b9382d80b536a9\",\"dweb:/ipfs/Qmc1wwfBP4xoGKe4BcDnwL11y3Gvk4Dk8r6qqWD4jbdKK4\"],\"license\":\"MIT\"},\"node_modules/@bananapus/core/src/interfaces/IJBSplits.sol\":{\"keccak256\":\"0x2f415b55c1d7b7fdd9ee938897a8a2b5b1c81d2ab2233d678953ea8ab9b3fb24\",\"urls\":[\"bzz-raw://f7cd02ef943cb49db501b300cbe56d5d62e4ac59caef5c38d697fdbdd21d5f9a\",\"dweb:/ipfs/QmXcxH6gBiBLes2kzSNDvPqVuDZxu1xyDPjfEziARMJhHb\"],\"license\":\"MIT\"},\"node_modules/@bananapus/core/src/interfaces/IJBToken.sol\":{\"keccak256\":\"0x911c93ec0053c1ce3c3a82ddefc8a2911f244b159b1b88fa2a7697b5455d67e0\",\"urls\":[\"bzz-raw://a29b34338ffe4310d6fa012cce351a8db98ad84dac40b6886fcbaa76145eefb2\",\"dweb:/ipfs/QmctiW2p99TaZLGBnavS3gE89p2KFoPfCPPpPvZDXsyMq9\"],\"license\":\"MIT\"},\"node_modules/@bananapus/core/src/interfaces/IJBTokenUriResolver.sol\":{\"keccak256\":\"0xfa5cb00dcd6085d1ef912d071fe73c63f9478a2cd0f9d8bddaf659b6af2d0967\",\"urls\":[\"bzz-raw://282e4e7c342d65f77cde0e9a08fcaf20ef5cf379c7a48b639842c0ffd0b2afb8\",\"dweb:/ipfs/QmbnN3PEQeZaXdPLT75V1J79kMg7KqSMru37RHrL3z8Yf2\"],\"license\":\"MIT\"},\"node_modules/@bananapus/core/src/interfaces/IJBTokens.sol\":{\"keccak256\":\"0xbbb3764d6b9d253f7a2b4e13636bf1d523d72be87b144dea6bbd7177b0953ffe\",\"urls\":[\"bzz-raw://417cdba44cf58c833785ec180918d297fcda2539d8476a978cd7d1d39c4b33d2\",\"dweb:/ipfs/QmSewvgMsjqS2fek8LXc4dNGBKhX6odnyNpzr9UmDX3WXE\"],\"license\":\"MIT\"},\"node_modules/@bananapus/core/src/interfaces/terminal/IJBPayoutTerminal.sol\":{\"keccak256\":\"0x69b290ddc214def38e69711ff2cfdf1c571d33653b25520efd98469f6b49c7fa\",\"urls\":[\"bzz-raw://93703189aa74008878f20d2917e14bc6c1572ebd05a5f1e4e28bf255603d86af\",\"dweb:/ipfs/QmTpopL7jfS3GJNgTjTBcSaFcdGGuynQPwuMZR6UjJXJjh\"],\"license\":\"MIT\"},\"node_modules/@bananapus/core/src/interfaces/terminal/IJBRedeemTerminal.sol\":{\"keccak256\":\"0xf43f5c6fb4d2de1b547ecfbf662f48c5cbd7d0bf79c4b784e566cb4b71ad7da7\",\"urls\":[\"bzz-raw://0ded83cc745fab54a035614b845a984933a57056ee27adbd60f5896f47015270\",\"dweb:/ipfs/QmWH19MehMdwgnprq6M3JmZVCaLQSd25ZPwhA5tap2PEKL\"],\"license\":\"MIT\"},\"node_modules/@bananapus/core/src/interfaces/terminal/IJBTerminal.sol\":{\"keccak256\":\"0x36f23bc27e56fa86d100281a75f5a6ce73f39f32e6a1667ce69f902da1d005ee\",\"urls\":[\"bzz-raw://e8ffa2e264fa12444799cb5706ca577034f3f8be9ff7a2f072981de6a61d706d\",\"dweb:/ipfs/QmR6gQDymvk8JQ77J8VxpFD1Hnxga4w7LLiRvAT3m4LG6T\"],\"license\":\"MIT\"},\"node_modules/@bananapus/core/src/libraries/JBConstants.sol\":{\"keccak256\":\"0x9d3a9a953f859d8ec79a599577f8972de6da7199cc1bfa7fdad017d4d722bcb4\",\"urls\":[\"bzz-raw://f151fcb53a8d2684eff8b9e56ac790bcbcadd8199a4fd4d17c5b224b22936722\",\"dweb:/ipfs/QmdAz1ZtCE8nTiC4AxQNLfJhnY3ndGum2Lbef7seKdvTdR\"],\"license\":\"MIT\"},\"node_modules/@bananapus/core/src/libraries/JBRulesetMetadataResolver.sol\":{\"keccak256\":\"0x83f25c531d9e212379b4326fd93bf658a0f6d0e839bbd67bff7b66b9b55fb670\",\"urls\":[\"bzz-raw://3eb4a41ececec705febac7b799d7224e67f12761ae3975d49dd8bddaac608ecd\",\"dweb:/ipfs/QmNgL5VccDhP5xofEcGWNKk3v4KG23wGF9vc3d4YJ5MLnv\"],\"license\":\"MIT\"},\"node_modules/@bananapus/core/src/structs/JBAccountingContext.sol\":{\"keccak256\":\"0x2907ff54d1e903cc7e0390dd88c3975884702dc2673642aacbe22b66560b56de\",\"urls\":[\"bzz-raw://a66a5381ce877b32f0e0058ceeaf843e9b6b2bc8af666c0c9f4a9d01091da004\",\"dweb:/ipfs/QmQynCetUr37dBkS1YwDS8evxuXGiqanW6THmeUxXtim8w\"],\"license\":\"MIT\"},\"node_modules/@bananapus/core/src/structs/JBAfterPayRecordedContext.sol\":{\"keccak256\":\"0xd26c3a774ff38be79064085970454fe2603a23a638c76270d5b1b3829206c3e8\",\"urls\":[\"bzz-raw://3b55dbe3bf1ef625b7ca04efab3de35406e6041d5b3d82c7265469c500e2b702\",\"dweb:/ipfs/QmUdBDo4Lt3mcsFcsXT2mqq3czFwZjQJFPLM89YA2VtD7k\"],\"license\":\"MIT\"},\"node_modules/@bananapus/core/src/structs/JBAfterRedeemRecordedContext.sol\":{\"keccak256\":\"0x521f5d23a36f0da72362cd84890cc867bd83baa8dc836ba6c5066d51dba2f163\",\"urls\":[\"bzz-raw://6cc461313286dde62d045d6288e87bae5032e035796326f5b1ed6218e58aa9da\",\"dweb:/ipfs/QmQS2AkQwf2ANQieDuaUnpJEdXChoLv4CCbZqHkfywYPSR\"],\"license\":\"MIT\"},\"node_modules/@bananapus/core/src/structs/JBBeforePayRecordedContext.sol\":{\"keccak256\":\"0x5b04e814da83c7e83ff892ab07eaad6abce6f7b85a75f8da9380e9fc3470bc81\",\"urls\":[\"bzz-raw://11c889aab993fce3e3cc2dedc15fc30dd367e7fef9b7b1bfd6a6a9f248781731\",\"dweb:/ipfs/QmVVtydCD1azeWhGLxA1hthxfLyKzMHZ1eVzCz3a3R5dLy\"],\"license\":\"MIT\"},\"node_modules/@bananapus/core/src/structs/JBBeforeRedeemRecordedContext.sol\":{\"keccak256\":\"0x73eadaf6827e82f6ccbe3a1e2b2b7fc6c59cef471f73335041b30ddcc000989d\",\"urls\":[\"bzz-raw://2f3ee84662eed565dbdaed406ef836fffaf55cccd417575578152e5085d0b1f2\",\"dweb:/ipfs/QmaJGFS7hxJsiUdKvbv5BKhSwceDEzKBnt7t5YeNWvYgMK\"],\"license\":\"MIT\"},\"node_modules/@bananapus/core/src/structs/JBCurrencyAmount.sol\":{\"keccak256\":\"0x12fe4b43f4824994624d4fe0abbd88c3fe7867fd637edb65c7f456dab27e2d6e\",\"urls\":[\"bzz-raw://8003a3e8f932cf891e86b827e67c9d31b0d34c2712e18c2bc333cfe5284ba6d5\",\"dweb:/ipfs/QmSoA6RsDcSnNzk6CB7KZtALkHmeSDAi2g6fg3TDmLDkWX\"],\"license\":\"MIT\"},\"node_modules/@bananapus/core/src/structs/JBFundAccessLimitGroup.sol\":{\"keccak256\":\"0x9fdaa8d017b72da25f583700a444a86849df053f7fb8eac874ec5139bcf651e5\",\"urls\":[\"bzz-raw://c8e44c49ee444a98424a0dbeb6897a76a0bf00d88a613f62ac2012afdac754ee\",\"dweb:/ipfs/QmdYkAiRi5bXM1YYNkc7BiqimHSFodMGn1cjHR5hcpm4xH\"],\"license\":\"MIT\"},\"node_modules/@bananapus/core/src/structs/JBPayHookSpecification.sol\":{\"keccak256\":\"0x955f0bfca97300b9e5927dc181753830ee362f83fa9ca32a90daade32aa0cfd5\",\"urls\":[\"bzz-raw://f517af1597c7c40f8d3da53f7a6684a3e162950a16559d6bf6ea3b727bb11546\",\"dweb:/ipfs/QmRWo2ZTYXmVZTzNJDYhsJNsEaHphjpUfx9eNz2cciyz86\"],\"license\":\"MIT\"},\"node_modules/@bananapus/core/src/structs/JBPermissionsData.sol\":{\"keccak256\":\"0x8f0f69a6ebf5f3704e3dfcb3712fb9d3f94ae7c1ab89bf3e37bad42a3e7a0487\",\"urls\":[\"bzz-raw://57b0c5e52843e2217082889ed47b4da3943e0da4590d5768dcebfe3edad4a6b8\",\"dweb:/ipfs/QmRz48vuWLw81kUP836rh1qzqWiJFGbksgRUA9xGEDNKTY\"],\"license\":\"MIT\"},\"node_modules/@bananapus/core/src/structs/JBRedeemHookSpecification.sol\":{\"keccak256\":\"0x673d16ee1a91bf8de3b37e57284e60451b70a9c2d748c9cdc7a151f5624af18f\",\"urls\":[\"bzz-raw://ceeb5e81effa0f076c5630c756dfcf1548d09f822b255a0a6ee01e54de8c8ae2\",\"dweb:/ipfs/QmSMoMNPRhPMnuJNvWa6S59XRfycGz9o2ApNp63bUW6TdX\"],\"license\":\"MIT\"},\"node_modules/@bananapus/core/src/structs/JBRuleset.sol\":{\"keccak256\":\"0x15b2bf3174d84846a91ccbf5a344dfb125b55ed9cf50102db8d6868844225189\",\"urls\":[\"bzz-raw://647416b025dbd941094db89cbc69f755c155bd6c87be3f322394ccc4a8e0442d\",\"dweb:/ipfs/QmTCL9xcHnxQ4t5AmCPoZvXDUPW5xhzhyyXYbkMdyg44au\"],\"license\":\"MIT\"},\"node_modules/@bananapus/core/src/structs/JBRulesetConfig.sol\":{\"keccak256\":\"0x344405b459a345fa2cb072b162422b4e85e435ff6ee82eb2c382bf52db929f10\",\"urls\":[\"bzz-raw://e067a0c3fd190cd00177800f8f065264985d4f6737a758f068a8bf5ed1cfdad0\",\"dweb:/ipfs/QmPAMiyfi1cDtandkMSXgoNdo3WLvwmvdcPGeKiot9TTaz\"],\"license\":\"MIT\"},\"node_modules/@bananapus/core/src/structs/JBRulesetMetadata.sol\":{\"keccak256\":\"0xfea54c9f98416d2aa05309e7ff76967d6968a614850a1e33e48fde793ea8b514\",\"urls\":[\"bzz-raw://bf55386cbab90dbc1296b2b0cbfdc217a4500d67702e4a093a4c78bd127ecd5c\",\"dweb:/ipfs/QmTRq9mZrNSXu7oCZwti4JbBFrbY6A5msRqi9RbtL49NAj\"],\"license\":\"MIT\"},\"node_modules/@bananapus/core/src/structs/JBRulesetWithMetadata.sol\":{\"keccak256\":\"0x1bcfadf20488f6df65227f8d4d0fbf9b7539456a2389567f7fe3900d23289bc3\",\"urls\":[\"bzz-raw://0a15c399a71e5373f8c0484c6d6b83521eda31e063a2c53e4c5cec4e74550343\",\"dweb:/ipfs/QmQwi8zkjoTVXbK89NeETYimWCacTrNsesJdpLSvGdqMPX\"],\"license\":\"MIT\"},\"node_modules/@bananapus/core/src/structs/JBSplit.sol\":{\"keccak256\":\"0x1d40fa4f1c911a53b9139f3d44d27cb58fa5c5d2cd793c7a21ccf52b9e61f848\",\"urls\":[\"bzz-raw://9897d2c29fc65fe16e4eac0b7b8b6fd8ef0b0cc501986f7f0c3a78c4ec1dbb60\",\"dweb:/ipfs/QmXcHoVjCYWWCz4hm2KZ6JxtB4YNq7jmXa2evLkga59Xwq\"],\"license\":\"MIT\"},\"node_modules/@bananapus/core/src/structs/JBSplitGroup.sol\":{\"keccak256\":\"0xda7da6e88aac2906c7ea4027660088daf217edc632bebca4d72795aae8921564\",\"urls\":[\"bzz-raw://ae1939d17e94cb51484f31ce64cf0df990445a338fb9b38d39a7baf28275ae4a\",\"dweb:/ipfs/QmUhPnJiWnYhFdtLvZnrPopAdbYXxETpGjvxjPDignpTGY\"],\"license\":\"MIT\"},\"node_modules/@bananapus/core/src/structs/JBSplitHookContext.sol\":{\"keccak256\":\"0xfe34e6860b00ca93d71f44e72882281b2c57c31303151af05795c74cfdd2e51d\",\"urls\":[\"bzz-raw://08acab094888e9c929b6f6f972d89ddbb31e5867675e7e7c602d25fcb2c0f402\",\"dweb:/ipfs/QmPNdXM185cTyXQSodVr4JMviHx88jrWu7dipgkp9xTNgJ\"],\"license\":\"MIT\"},\"node_modules/@bananapus/core/src/structs/JBTerminalConfig.sol\":{\"keccak256\":\"0x141b5d45c0b58dcddb1eeab34ec00c18c60415f8e594d1852c53e6f79dfe53ee\",\"urls\":[\"bzz-raw://ca995ea354eac6f5ebc8ef4fd5c8ece8c88698bac96da65c7aaa497a7bc0f582\",\"dweb:/ipfs/Qmf2BS1LHXtoQJuUYt4UisvYpA5dmieSq1gs51iQjNh2bw\"],\"license\":\"MIT\"},\"node_modules/@bananapus/core/src/structs/JBTokenAmount.sol\":{\"keccak256\":\"0x5cf0626b73a596c1e2da17c89ae039a7c0374310b060d48568d3b6c11fbe6180\",\"urls\":[\"bzz-raw://63348b50be95e2995409394a17caffc563a646f0972650a1230bf864fbd3219b\",\"dweb:/ipfs/QmZXZpS3SbFD5nWaCauf6AqbEhLURv5qsKHpThBvQgDU6u\"],\"license\":\"MIT\"},\"node_modules/@bananapus/permission-ids/src/JBPermissionIds.sol\":{\"keccak256\":\"0xa21681d89f2cf9265a10e6fa63301658ccc62635058cd3c8307aaaec1a045ff3\",\"urls\":[\"bzz-raw://0c825382afb76e79feb81425991637d50d1f1fc4ccaa12953f1e1042853db8d3\",\"dweb:/ipfs/QmPAsLuTziQx8R5PzYrLYDKybc6Ykq8fwG46ofRxQwdjgn\"],\"license\":\"UNLICENSED\"},\"node_modules/@openzeppelin/contracts/token/ERC20/IERC20.sol\":{\"keccak256\":\"0xc6a8ff0ea489379b61faa647490411b80102578440ab9d84e9a957cc12164e70\",\"urls\":[\"bzz-raw://0ea104e577e63faea3b69c415637e99e755dcbf64c5833d7140c35a714d6d90c\",\"dweb:/ipfs/Qmau6x4Ns9XdyynRCNNp3RhLqijJjFm7z5fyZazfYFGYdq\"],\"license\":\"MIT\"},\"node_modules/@openzeppelin/contracts/token/ERC20/extensions/IERC20Permit.sol\":{\"keccak256\":\"0x6008dabfe393240d73d7dd7688033f72740d570aa422254d29a7dce8568f3aff\",\"urls\":[\"bzz-raw://f5196ec75139918c6c7bb4251b36395e668f1fa6d206beba7e7520e74913940d\",\"dweb:/ipfs/QmSyqjksXxmm2mCG6qRd1yuwLykypkSVBbnBnGqJRcuJMi\"],\"license\":\"MIT\"},\"node_modules/@openzeppelin/contracts/token/ERC20/utils/SafeERC20.sol\":{\"keccak256\":\"0x37bb49513c49c87c4642a891b13b63571bc87013dde806617aa1efb54605f386\",\"urls\":[\"bzz-raw://b3036b3a83b7c48f96641f2a9002b9f2dcb6a5958dd670894ada21ae8229b3d0\",\"dweb:/ipfs/QmUNfSBdoVtjhETaUJCYcaC7pTMgbhht926tJ2uXJbiVd3\"],\"license\":\"MIT\"},\"node_modules/@openzeppelin/contracts/token/ERC721/IERC721.sol\":{\"keccak256\":\"0x5ef46daa3b58ef2702279d514780316efaa952915ee1aa3396f041ee2982b0b4\",\"urls\":[\"bzz-raw://2f8f2a76e23b02fc69e8cd24c3cb47da6c7af3a2d6c3a382f8ac25c6e094ade7\",\"dweb:/ipfs/QmPV4ZS4tPVv4mTCf9ejyZ1ai57EEibDRj7mN2ARDCLV5n\"],\"license\":\"MIT\"},\"node_modules/@openzeppelin/contracts/utils/Address.sol\":{\"keccak256\":\"0xaf28a975a78550e45f65e559a3ad6a5ad43b9b8a37366999abd1b7084eb70721\",\"urls\":[\"bzz-raw://b7bd24e224f67f65bfadf85dc2929fa965456bb2415478bd0125471b5ce35245\",\"dweb:/ipfs/QmRaydGr8BTHs1kvaZfsNU69pKzUAGFrvABn1KiRSbE51y\"],\"license\":\"MIT\"},\"node_modules/@openzeppelin/contracts/utils/Context.sol\":{\"keccak256\":\"0x493033a8d1b176a037b2cc6a04dad01a5c157722049bbecf632ca876224dd4b2\",\"urls\":[\"bzz-raw://6a708e8a5bdb1011c2c381c9a5cfd8a9a956d7d0a9dc1bd8bcdaf52f76ef2f12\",\"dweb:/ipfs/Qmax9WHBnVsZP46ZxEMNRQpLQnrdE4dK8LehML1Py8FowF\"],\"license\":\"MIT\"},\"node_modules/@openzeppelin/contracts/utils/Create2.sol\":{\"keccak256\":\"0x2b9807d194b92f1068d868e9587d27037264a9a067c778486f86ae21c61cbd5e\",\"urls\":[\"bzz-raw://22d71f40aa38a20cf466d8647452a6e3f746353474f8c8af40f03aa8cae38420\",\"dweb:/ipfs/QmQ752Hz5av7YDK8pFojzb5qgeXQvfsdkdwkHVzaXoYAZR\"],\"license\":\"MIT\"},\"node_modules/@openzeppelin/contracts/utils/introspection/ERC165.sol\":{\"keccak256\":\"0x9e8778b14317ba9e256c30a76fd6c32b960af621987f56069e1e819c77c6a133\",\"urls\":[\"bzz-raw://1777404f1dcd0fac188e55a288724ec3c67b45288e49cc64723e95e702b49ab8\",\"dweb:/ipfs/QmZFdC626GButBApwDUvvTnUzdinevC3B24d7yyh57XkiA\"],\"license\":\"MIT\"},\"node_modules/@openzeppelin/contracts/utils/introspection/ERC165Checker.sol\":{\"keccak256\":\"0xac3d50e321a48a40b4496970ce725900f13aeb2255b7c1203f5adbe98c4a911a\",\"urls\":[\"bzz-raw://1d7b235b578347dce2d831a76f122e820a7db7e73fd2e47f13bafdcd61c5b066\",\"dweb:/ipfs/QmVAELwambfJa55HfiCoz1kFFh7iYwRYeW5x8si6AFM4iX\"],\"license\":\"MIT\"},\"node_modules/@openzeppelin/contracts/utils/introspection/IERC165.sol\":{\"keccak256\":\"0x4296879f55019b23e135000eb36896057e7101fb7fb859c5ef690cf14643757b\",\"urls\":[\"bzz-raw://87b3541437c8c443ccd36795e56a338ed12855eec17f8da624511b8d1a7e14df\",\"dweb:/ipfs/QmeJQCtZrQjtJLr6u7ZHWeH3pBnjtLWzvRrKViAi7UZqxL\"],\"license\":\"MIT\"},\"node_modules/@openzeppelin/contracts/utils/structs/BitMaps.sol\":{\"keccak256\":\"0x3616f1b0d0a9ee1ca8f0953ecaceb9230e36f691c7974d30f964212acff52d2b\",\"urls\":[\"bzz-raw://d4bebdd07b31ac28e3e596ac6f0333da90a4e332405aa7d65f3a3a7e0b4cf15e\",\"dweb:/ipfs/QmckoDU5bBnye2UtPcrfJNahLD2FbxrnPP9nrREMWPpnug\"],\"license\":\"MIT\"},\"node_modules/@prb/math/src/Common.sol\":{\"keccak256\":\"0xaa374e2c26cc93e8c22a6953804ee05f811597ef5fa82f76824378b22944778b\",\"urls\":[\"bzz-raw://279c732e161d623cf4d8a9519ca4c42c0c2db99842d0eb2a20c10fde3fa722c9\",\"dweb:/ipfs/QmVViuUXbinQGqtG5M21SgVzKihiCbFUChd4tDhtvwRmxH\"],\"license\":\"MIT\"},\"src/BPOptimismSucker.sol\":{\"keccak256\":\"0x23434fe6d3a9f5ed050cc37d8daec0d454854c0711e81c17eee6e48985bb7b55\",\"urls\":[\"bzz-raw://8f6647dc861954ad472ed10955df0bf354a54595fa78ce30a88b079192ce0184\",\"dweb:/ipfs/QmXCjN3newueWV35NV941PTTwPdbqE4TDXnqoidqgT5i3j\"],\"license\":\"MIT\"},\"src/BPSucker.sol\":{\"keccak256\":\"0x6d572953457288fe8283f5fb7296b44e04b6dc15bced307f5bf27c823af55874\",\"urls\":[\"bzz-raw://fe49ba4a3941eab4d328ef4b7ed95981e550bf246c6cedc784e080e5eac85ba5\",\"dweb:/ipfs/QmVYBiDATAoAagzvZDbzeCgWatdYhoREk5J54K4WktsN2M\"],\"license\":\"MIT\"},\"src/BPSuckerHook.sol\":{\"keccak256\":\"0xac2b4ac60f45c40c01b626b0f9f7a5a4c0d02cff27b1cdd89eb60b55a7019d3c\",\"urls\":[\"bzz-raw://abcf3a4009b039ec4fd21e72317cb39c06a404387f985c0769219ec6a218c7aa\",\"dweb:/ipfs/QmaJTh5P8pKYrycdcRBCzegMfpUtTmzphWyQwobvAu99eP\"],\"license\":\"MIT\"},\"src/deployers/BPOptimismSuckerDeployer.sol\":{\"keccak256\":\"0xabd5631af266389a3f4f8baa26e20ec8ab66dc809c6d1f9be7326f147351e009\",\"urls\":[\"bzz-raw://d7439e620f49394afd0102e21daf0378317bb7bf649f3b7bccf1204b6da7d9aa\",\"dweb:/ipfs/QmSR19HWVtao4SwhKXBvY8kiz8cNbravY5dDNb7NXtGMtf\"],\"license\":\"MIT\"},\"src/enums/BPAddToBalanceMode.sol\":{\"keccak256\":\"0xa6dcd5c6225e2b697775d37a6f3a8ae4030f7af1a7cb4bb91d572eef65134e43\",\"urls\":[\"bzz-raw://583699b0f81837a739e5e54a1e0b0400a6021602bd7f48472c8785b22d3f25eb\",\"dweb:/ipfs/QmfL4Jr6p8B5q8uFX1ZfUS5vPsUxiGgMy5udVg9z2kPUQk\"],\"license\":\"MIT\"},\"src/interfaces/IBPSucker.sol\":{\"keccak256\":\"0x02a78d0c6d048fc4ead0fc2f0582bc81a216dc1f097d1e0e3a34a7b2c9490894\",\"urls\":[\"bzz-raw://173df43569bcb1a0daea23b997d67f4c68150cd722b2ce858e5c9fe01cf113e6\",\"dweb:/ipfs/QmaDXu6Xp9sRksBdry2p5turGJ5Uvhnzpwhs6UEXhqorM4\"],\"license\":\"MIT\"},\"src/interfaces/IBPSuckerDeployer.sol\":{\"keccak256\":\"0xe252e890c4b5e12d5fa537a11cd2fad936f41be80240301ace8afca3de481222\",\"urls\":[\"bzz-raw://730855964dd0629f3d514ed52f59d80d02786733c3b8b5cf21e69524de7f8829\",\"dweb:/ipfs/QmUuoYEmnzUNn3hANGrg8sDZdjoaEbgWMWLepsSQt9MUyw\"],\"license\":\"MIT\"},\"src/interfaces/IBPSuckerDeployerFeeless.sol\":{\"keccak256\":\"0xd340e0c2b46c43c1fd55e9f761c693a97a7a4fcd455a671623513ec0341b7c70\",\"urls\":[\"bzz-raw://6b152a3681fa5d749013f43c932ee2dcdb614ca163d10ac1d740c8dd9e0b0d65\",\"dweb:/ipfs/QmWUNd8eB4C7kGjeCrGiQR21sk33xSQTio79msoW5wNQW3\"],\"license\":\"MIT\"},\"src/interfaces/OPMessenger.sol\":{\"keccak256\":\"0x0be6648aa7ed6272db8d415992d16dc10b36a4a8ed2f8e3adac8433ca7834dae\",\"urls\":[\"bzz-raw://1a3aeecda2b108059ce2b271364121d69afa4afcd2d0341eae31d181d5a6881d\",\"dweb:/ipfs/QmcaB3EzUW8btTVa1FCgmhTFqTSAwdmK47K95cV88vg9J9\"],\"license\":\"MIT\"},\"src/interfaces/OPStandardBridge.sol\":{\"keccak256\":\"0xb5717563fc9dcbe47ab2ed8b98a1a5757b51935989b9a78091eb590c8dbb8d5a\",\"urls\":[\"bzz-raw://5d9acbe757d1103be408303d53c25ee8a6b6dc799e8dd58e4756ac4028b4ccd5\",\"dweb:/ipfs/QmVuqESXkFhrcRAAfTkXSXp7uWrN5QA7eAH6x3DpeAoAMe\"],\"license\":\"MIT\"},\"src/structs/BPClaim.sol\":{\"keccak256\":\"0x63a12013ec4c221781b057185a0e01c83ac19dcef115ad6238d25a22011da071\",\"urls\":[\"bzz-raw://0307e4377f2cbd3ec561405eb2ffa07e0d9fe2c39522eb0706e91b46efa1b2a7\",\"dweb:/ipfs/QmXKeKQ6mJGehNJt3v2fqE22MFoGjcpm2x9hHA25vu7xAH\"],\"license\":\"MIT\"},\"src/structs/BPInboxTreeRoot.sol\":{\"keccak256\":\"0xff494c45ee76d14e2ffb3cd0f22412b4a1a4d8e37b957a3ffb82b0b9db4f74ab\",\"urls\":[\"bzz-raw://a896310d4dcfecca8b1927bf82832c9b5de5a455228fd9aad2530729ce61739b\",\"dweb:/ipfs/QmUiep5HvdqgJZyJqt4kKxWuP2odhY5W9kX7pCuovTr3LM\"],\"license\":\"MIT\"},\"src/structs/BPLeaf.sol\":{\"keccak256\":\"0xaa2257b6d8fc05d9b37fdb40472cd2f4bed45e7ddc1ea9082ca5296215602bc8\",\"urls\":[\"bzz-raw://ebdf0d3c3961adb71fd7174f9a8eca8332202d07ee5a584abbb06b7c15db61d0\",\"dweb:/ipfs/QmWtqWUncWvZotfno2kiU5TeT3WTR9zfPzRTiktZskyS13\"],\"license\":\"MIT\"},\"src/structs/BPMessageRoot.sol\":{\"keccak256\":\"0xab832c9e92d412cc0d8e6758777694955fef6dcbc919f96b33052d68d0516d1d\",\"urls\":[\"bzz-raw://fa9fe2604015f05e1a4f2c1a92f4ef7b6cba3d08d9e7daa2b20190a9b1bce39c\",\"dweb:/ipfs/QmUDcrNmqnp1dPwkmPTjsu7Egbwtgsk42G9FNdrHk6JcB2\"],\"license\":\"MIT\"},\"src/structs/BPOutboxTree.sol\":{\"keccak256\":\"0xed569423f6ae3dafee5681a60b7c5d24b0c5f33ff0763937952e938be374d79e\",\"urls\":[\"bzz-raw://4dafb1348a51324105b2ee100e2174fee0f1397f0b2dd00483b2dcf049477ce4\",\"dweb:/ipfs/Qmcf8jizBW7BGGnHBVetaDvYcZ75ov8oYw8LubaNUHrHCv\"],\"license\":\"MIT\"},\"src/structs/BPRemoteToken.sol\":{\"keccak256\":\"0x703d0112f181683d9b3508bf9fc0ef2f5c3cac73de0a718d9f405561fad14622\",\"urls\":[\"bzz-raw://80c0dd5e9ef7648efc48306da2c50829490c41cf09292f0f82fa3e24ce9dbe37\",\"dweb:/ipfs/QmYTgR72bVH3r1xKvMaE1tRUAkqkZjZa2v1eki1973qn3U\"],\"license\":\"MIT\"},\"src/structs/BPTokenMapping.sol\":{\"keccak256\":\"0x84865bda925cdc9a608cbbfc487619acba391f98ae12bbbfdbc5779d617a17d9\",\"urls\":[\"bzz-raw://3bbc1fdd38feaf64fd4914bddb62cda7e5b8ee0f046a0eac8cfcb15f9493bcc5\",\"dweb:/ipfs/QmXgAx7sr1M8r71YrSeQJGAB1uhvdxpQyS633UgJvLCQfb\"],\"license\":\"MIT\"},\"src/utils/MerkleLib.sol\":{\"keccak256\":\"0x6803b76f79362d9b5cd8e32eb1da6ed675146554dcd2f77747c4406f5f7a25f4\",\"urls\":[\"bzz-raw://3db2984a7eae5e7dc78517fd3a696180e95fdf00bf3267b31d1dbaddb0865cab\",\"dweb:/ipfs/QmPG8Nxwcb5Q7unUzMLCwaaRv8MvR7rskfacSDqbDW5zPZ\"],\"license\":\"MIT OR Apache-2.0\"}},\"version\":1}",
			"args": [
				"0x0631183bd45c31F8645F9dCF8705951F730362E9",
				"0x1Eb7799d3A230A0440F0d6C477256Df8d425AdBb",
				"0x18017cfeD48E1dC0Adc445cEF8A9e6AfFCb330DA",
				"0x3295C9c7374E583cb2e6Ed455EAf9908022159D0",
				"0xBA24624AE5dc821866E9E71Ed050412Ef01E2fe6"
			],
			"bytecode": "0x61014060405234801561001157600080fd5b50604051615dfd380380615dfd83398101604081905261003091610076565b6001600160a01b03908116608052336101205293841660a05291831660c052821660e05216610100526100eb565b6001600160a01b038116811461007357600080fd5b50565b600080600080600060a0868803121561008e57600080fd5b85516100998161005e565b60208701519095506100aa8161005e565b60408701519094506100bb8161005e565b60608701519093506100cc8161005e565b60808701519092506100dd8161005e565b809150509295509295909350565b60805160a05160c05160e0516101005161012051615caa61015360003960005050600061020e0152600081816101ed015261031c015260006101cc015260006101ab0152600081816101460152818161022f0152818161055d01526106060152615caa6000f3fe608060405234801561001057600080fd5b506004361061007d5760003560e01c8063c39ec1241161005b578063c39ec124146100e6578063cc8b6f4f14610119578063ee9a31a21461012e578063f434c9141461014157600080fd5b806312130366146100825780632cdaa896146100b2578063927ede2d146100d3575b600080fd5b6100956100903660046106a5565b610168565b6040516001600160a01b0390911681526020015b60405180910390f35b6100c56100c03660046106df565b6102e7565b6040519081526020016100a9565b600054610095906001600160a01b031681565b6101096100f436600461074d565b60026020526000908152604090205460ff1681565b60405190151581526020016100a9565b61012c610127366004610771565b6104a4565b005b600154610095906001600160a01b031681565b6100957f000000000000000000000000000000000000000000000000000000000000000081565b6040516bffffffffffffffffffffffff193360601b16602082015260348101829052600090605401604051602081830303815290604052805190602001209150817f00000000000000000000000000000000000000000000000000000000000000007f00000000000000000000000000000000000000000000000000000000000000007f00000000000000000000000000000000000000000000000000000000000000007f00000000000000000000000000000000000000000000000000000000000000007f000000000000000000000000000000000000000000000000000000000000000060008960405161025d90610697565b6001600160a01b0397881681529587166020870152938616604086015291851660608501528416608084015290921660a082015260c081019190915260e0018190604051809103906000f59050801580156102bc573d6000803e3d6000fd5b506001600160a01b0381166000908152600260205260409020805460ff191660011790559392505050565b3360009081526002602052604081205460ff1661031757604051631199558960e11b815260040160405180910390fd5b6104127f00000000000000000000000000000000000000000000000000000000000000006001600160a01b031663293c49996040518163ffffffff1660e01b8152600401602060405180830381865afa158015610378573d6000803e3d6000fd5b505050506040513d601f19601f8201168201806040525081019061039c91906107aa565b6001600160a01b0316636352211e896040518263ffffffff1660e01b81526004016103c991815260200190565b602060405180830381865afa1580156103e6573d6000803e3d6000fd5b505050506040513d601f19601f8201168201806040525081019061040a91906107aa565b886011610513565b6040805160208101825260008152905163b62d17cf60e01b81526001600160a01b0388169163b62d17cf91610456918b918a9189918b918a913391906004016107c7565b6020604051808303816000875af1158015610475573d6000803e3d6000fd5b505050506040513d601f19601f820116820180604052508101906104999190610857565b979650505050505050565b6000546001600160a01b03161515806104c757506001546001600160a01b031615155b156104e55760405163ccbe17fd60e01b815260040160405180910390fd5b600080546001600160a01b039384166001600160a01b03199182161790915560018054929093169116179055565b336001600160a01b03841681148015906105ca575060405163c161c93f60e01b81526001600160a01b038281166004830152858116602483015260448201859052606482018490527f0000000000000000000000000000000000000000000000000000000000000000169063c161c93f90608401602060405180830381865afa1580156105a4573d6000803e3d6000fd5b505050506040513d601f19601f820116820180604052508101906105c89190610870565b155b8015610673575060405163c161c93f60e01b81526001600160a01b038281166004830152858116602483015260006044830152606482018490527f0000000000000000000000000000000000000000000000000000000000000000169063c161c93f90608401602060405180830381865afa15801561064d573d6000803e3d6000fd5b505050506040513d601f19601f820116820180604052508101906106719190610870565b155b156106915760405163075fd2b160e01b815260040160405180910390fd5b50505050565b6153e2806200089383390190565b600080604083850312156106b857600080fd5b50508035926020909101359150565b6001600160a01b03811681146106dc57600080fd5b50565b60008060008060008060c087890312156106f857600080fd5b86359550602087013561070a816106c7565b9450604087013561071a816106c7565b9350606087013563ffffffff8116811461073357600080fd5b9598949750929560808101359460a0909101359350915050565b60006020828403121561075f57600080fd5b813561076a816106c7565b9392505050565b6000806040838503121561078457600080fd5b823561078f816106c7565b9150602083013561079f816106c7565b809150509250929050565b6000602082840312156107bc57600080fd5b815161076a816106c7565b8781526000602060018060a01b03808a16602085015288604085015263ffffffff8816606085015286608085015280861660a08501525060e060c084015283518060e085015260005b8181101561082d5785810183015185820161010001528201610810565b506101009150600082828601015281601f19601f8301168501019250505098975050505050505050565b60006020828403121561086957600080fd5b5051919050565b60006020828403121561088257600080fd5b8151801515811461076a57600080fdfe6101e06040523480156200001257600080fd5b50604051620053e2380380620053e28339810160408190526200003591620001a6565b6001600160a01b0380841660805280861660c05280851660e05287908790879087908790879087908216156200006c57816200006e565b305b6001600160a01b03166101205261014081905233610100525050506001600160a01b0393841661018052505016610160526040805163927ede2d60e01b81529051339163927ede2d9160048083019260209291908290030181865afa158015620000dc573d6000803e3d6000fd5b505050506040513d601f19601f8201168201806040525081019062000102919062000245565b6001600160a01b03166101a0526040805163774d18d160e11b81529051339163ee9a31a29160048083019260209291908290030181865afa1580156200014c573d6000803e3d6000fd5b505050506040513d601f19601f8201168201806040525081019062000172919062000245565b6001600160a01b03166101c052506200026c95505050505050565b6001600160a01b0381168114620001a357600080fd5b50565b600080600080600080600060e0888a031215620001c257600080fd5b8751620001cf816200018d565b6020890151909750620001e2816200018d565b6040890151909650620001f5816200018d565b606089015190955062000208816200018d565b60808901519094506200021b816200018d565b60a08901519093506200022e816200018d565b8092505060c0880151905092959891949750929550565b6000602082840312156200025857600080fd5b815162000265816200018d565b9392505050565b60805160a05160c05160e05161010051610120516101405161016051610180516101a0516101c051614ffa620003e8600039600081816102bb01528181611c3c0152611c8b01526000818161074401528181611de0015281816126a3015261270901526000818161026501526115f301526000818161063d015261155601526000818161035d015281816109a501528181610a2201528181610b8d01528181610bc501528181610d8d01528181611237015281816112e001528181611fa0015281816120bc015281816123520152818161240c0152818161250e01526126360152600081816104ff01528181611cbc01528181611e0b01526126df015260006105c801526000818161021901528181610db6015261170401526000818161049b015281816109160152818161125d015281816114a00152818161180401528181611fdb01526123800152600081816105fc01528181610ed901526111d901526000818161071001528181611a260152611acf0152614ffa6000f3fe6080604052600436106101c65760003560e01c806388bc2ef3116100f7578063c1b8411a11610095578063ed0e26b911610064578063ed0e26b91461068c578063f3c57881146106eb578063f434c914146106fe578063fc8fa43d1461073257600080fd5b8063c1b8411a146105b6578063c6525f2c146105ea578063d4a1b4b11461062b578063e7f82c751461065f57600080fd5b8063b59ef50f116100d1578063b59ef50f14610521578063b71c117914610541578063bf557aee14610554578063c18541291461059657600080fd5b806388bc2ef314610489578063aaf320d7146104bd578063ad42938b146104ed57600080fd5b8063551ebbf01161016457806369ce22331161013e57806369ce2233146103b057806369d31fdd146103d05780636dfa7268146103e35780637de6fba21461041257600080fd5b8063551ebbf01461032b57806356539f391461034b578063677ce0881461038d57600080fd5b80632241dc52116101a05780632241dc52146102875780632847f1f3146102a957806338eb2044146102dd5780634c4ffc71146102fd57600080fd5b806301ffc9a7146101d25780631d831d5c146102075780631eabcd341461025357600080fd5b366101cd57005b600080fd5b3480156101de57600080fd5b506101f26101ed36600461466e565b610766565b60405190151581526020015b60405180910390f35b34801561021357600080fd5b5061023b7f000000000000000000000000000000000000000000000000000000000000000081565b6040516001600160a01b0390911681526020016101fe565b34801561025f57600080fd5b5061023b7f000000000000000000000000000000000000000000000000000000000000000081565b34801561029357600080fd5b506102a76102a2366004614698565b6107b8565b005b3480156102b557600080fd5b5061023b7f000000000000000000000000000000000000000000000000000000000000000081565b3480156102e957600080fd5b506102a76102f8366004614724565b6107f0565b34801561030957600080fd5b5061031d610318366004614740565b610b87565b6040516101fe9291906147cb565b34801561033757600080fd5b506102a7610346366004614871565b610d57565b34801561035757600080fd5b5061037f7f000000000000000000000000000000000000000000000000000000000000000081565b6040519081526020016101fe565b34801561039957600080fd5b506101f26103a83660046148bb565b600092915050565b3480156103bc57600080fd5b506102a76103cb3660046148eb565b610ed5565b6102a76103de366004614724565b610f4e565b3480156103ef57600080fd5b506104036103fe3660046148eb565b6110bf565b6040516101fe93929190614908565b34801561041e57600080fd5b5061045f61042d3660046148eb565b6003602052600090815260409020805460019091015463ffffffff821691600160201b90046001600160a01b03169083565b6040805163ffffffff90941684526001600160a01b039092166020840152908201526060016101fe565b34801561049557600080fd5b5061023b7f000000000000000000000000000000000000000000000000000000000000000081565b3480156104c957600080fd5b506104dd6104d8366004614961565b611129565b6040516101fe949392919061499c565b3480156104f957600080fd5b5061023b7f000000000000000000000000000000000000000000000000000000000000000081565b34801561052d57600080fd5b506102a761053c366004614a3c565b61119d565b6102a761054f3660046148eb565b6113a4565b34801561056057600080fd5b506101f261056f3660046148eb565b6001600160a01b03908116600090815260036020526040902054600160201b900416151590565b3480156105a257600080fd5b506102a76105b1366004614a4f565b61144d565b3480156105c257600080fd5b5061023b7f000000000000000000000000000000000000000000000000000000000000000081565b3480156105f657600080fd5b5061061e7f000000000000000000000000000000000000000000000000000000000000000081565b6040516101fe9190614ac8565b34801561063757600080fd5b5061023b7f000000000000000000000000000000000000000000000000000000000000000081565b34801561066b57600080fd5b5061037f61067a3660046148eb565b60026020526000908152604090205481565b34801561069857600080fd5b506106cc6106a73660046148eb565b600160208190526000918252604090912080549101546001600160401b039091169082565b604080516001600160401b0390931683526020830191909152016101fe565b6102a76106f9366004614af0565b611481565b34801561070a57600080fd5b5061023b7f000000000000000000000000000000000000000000000000000000000000000081565b34801561073e57600080fd5b5061023b7f000000000000000000000000000000000000000000000000000000000000000081565b60006001600160e01b031982166340e01e1760e11b148061079757506001600160e01b0319821663f3c5788160e01b145b806107b257506301ffc9a760e01b6001600160e01b03198316145b92915050565b60005b818110156107eb576107e38383838181106107d8576107d8614b2b565b9050608002016107f0565b6001016107bb565b505050565b60006107ff60208301836148eb565b9050600061eeee61081360208501856148eb565b6001600160a01b0316149050808015610846575061eeee61083a60608501604086016148eb565b6001600160a01b031614155b801561086b5750600061085f60608501604086016148eb565b6001600160a01b031614155b156108aa5761088060608401604085016148eb565b604051630a0a3b6b60e31b81526001600160a01b0390911660048201526024015b60405180910390fd5b62030d406108be6040850160208601614b41565b63ffffffff161080156108cf575080155b156109115762030d406108e86040850160208601614b41565b604051634f3dbeb360e11b815263ffffffff9283166004820152911660248201526044016108a1565b610a487f00000000000000000000000000000000000000000000000000000000000000006001600160a01b031663293c49996040518163ffffffff1660e01b8152600401602060405180830381865afa158015610972573d6000803e3d6000fd5b505050506040513d601f19601f820116820180604052508101906109969190614b67565b6040516331a9108f60e11b81527f000000000000000000000000000000000000000000000000000000000000000060048201526001600160a01b039190911690636352211e90602401602060405180830381865afa1580156109fc573d6000803e3d6000fd5b505050506040513d601f19601f82011682018060405250810190610a209190614b67565b7f0000000000000000000000000000000000000000000000000000000000000000601d6119dc565b6000610a5a60608501604086016148eb565b6001600160a01b0316148015610a8a57506001600160a01b03821660009081526020819052604090206001015415155b15610ae4576001600160a01b0380831660009081526003602090815260408083208151606081018352815463ffffffff81168252600160201b90049095169285019290925260019091015490830152610ae4918490611b60565b6040518060600160405280846020016020810190610b029190614b41565b63ffffffff168152602001610b1d60608601604087016148eb565b6001600160a01b0390811682526060909501356020918201529284166000908152600384526040908190208251815495840151909616600160201b026001600160c01b031990951663ffffffff909616959095179390931784559091015160019092019190915550565b600060607f00000000000000000000000000000000000000000000000000000000000000008360c0013514610bfb57604051632d7b333360e11b81527f0000000000000000000000000000000000000000000000000000000000000000600482015260c084013560248201526044016108a1565b6000610c0d60608501604086016148eb565b6001600160a01b03808216600090815260036020526040902054919250600160201b90910416158015610c5a5750610c58610c4b60208601866148eb565b635db90a7f60e11b611f07565b155b15610cb5576040805160008082526020820190925261012086013591610caa565b60408051606080820183526000808352602083015291810191909152815260200190600190039081610c7b5790505b509250925050915091565b60408051600180825281830190925290816020015b60408051606080820183526000808352602083015291810191909152815260200190600190039081610cca5790505091506040518060600160405280306001600160a01b03168152602001600081526020016040518060200160405280600081525081525082600081518110610d4257610d42614b2b565b60200260200101819052506000925050915091565b6001600160a01b038316610d7e576040516309a9c30b60e41b815260040160405180910390fd5b60405163ea78803f60e01b81527f000000000000000000000000000000000000000000000000000000000000000060048201526000907f00000000000000000000000000000000000000000000000000000000000000006001600160a01b03169063ea78803f90602401602060405180830381865afa158015610e05573d6000803e3d6000fd5b505050506040513d601f19601f82011682018060405250810190610e299190614b67565b90506001600160a01b038116610e5257604051635a33845560e01b815260040160405180910390fd5b6001600160a01b03828116600090815260036020526040902054600160201b900416610e9c5760405163393e175160e01b81526001600160a01b03831660048201526024016108a1565b610eb16001600160a01b038216333088611f2a565b6000610ebf82878587611f91565b9050610ecd8684838861215e565b505050505050565b60007f00000000000000000000000000000000000000000000000000000000000000006001811115610f0957610f09614ab2565b14610f275760405163218a9a2d60e11b815260040160405180910390fd5b6001600160a01b038116600090815260026020526040902054610f4b9082906122e2565b50565b610f573361269f565b610f7457604051630439dbd360e51b815260040160405180910390fd5b60208101803590600290600090610f8b90856148eb565b6001600160a01b03166001600160a01b031681526020019081526020016000206000828254610fba9190614b9a565b90915550600190506000610fd160208401846148eb565b6001600160a01b0316815260208101919091526040908101600020546001600160401b0316906110079060608401908401614bc2565b6001600160401b03161115610f4b57604081016001600061102b60208501856148eb565b6001600160a01b03168152602081019190915260400160002061104e8282614bdf565b5061105e905060208201826148eb565b6001600160a01b03167f551b6b99b4c48e3265d2885ab0d93779be2402293261e074f7bf74b2c8f45b6f6110986060840160408501614bc2565b604080516001600160401b039092168252606085013560208301520160405180910390a250565b6000602081815291815260409081902080546001820154835161044081018086526001600160401b0390931695919490926002850192849283019184919082845b815481526020019060010190808311611100575050509183525050602091820154910152905083565b600080806060610160850135608086013560a08701358460405190808252806020026020018201604052801561118d57816020015b6040805160608082018352600080835260208301529181019190915281526020019060019003908161115e5790505b5093509350935093509193509193565b6111d560608201356111b260208401846148eb565b60808401356111c760608601604087016148eb565b602086013560a0870161279b565b60017f0000000000000000000000000000000000000000000000000000000000000000600181111561120957611209614ab2565b036112285761122861121e60208301836148eb565b60808301356122e2565b604051632eec7b5560e11b81527f000000000000000000000000000000000000000000000000000000000000000060048201527f00000000000000000000000000000000000000000000000000000000000000006001600160a01b031690635dd8f6aa90602401602060405180830381865afa1580156112ac573d6000803e3d6000fd5b505050506040513d601f19601f820116820180604052508101906112d09190614b67565b6001600160a01b031663c7fb92de7f00000000000000000000000000000000000000000000000000000000000000006060840180359061131390604087016148eb565b6040516001600160e01b031960e086901b168152600481019390935260248301919091526001600160a01b0316604482015260a06064820152600060a48201819052608482015260c4016020604051808303816000875af115801561137c573d6000803e3d6000fd5b505050506040513d601f19601f820116820180604052508101906113a09190614c12565b5050565b6001600160a01b0380821660008181526003602090815260408083208151606081018352815463ffffffff81168252600160201b9004909616868401526001908101548683018190529484529183905290912001541015611442576040808201516001600160a01b0384166000908152602081905282902060010154915163091df9e560e31b81526108a19290600401918252602082015260400190565b6113a0348383611b60565b60005b818110156107eb5761147983838381811061146d5761146d614b2b565b90506104a0020161119d565b600101611450565b604051636e49181f60e01b8152602082013560048201523360248201527f00000000000000000000000000000000000000000000000000000000000000006001600160a01b031690636e49181f90604401602060405180830381865afa1580156114ef573d6000803e3d6000fd5b505050506040513d601f19601f820116820180604052508101906115139190614c2b565b61153057604051634ae18d2b60e11b815260040160405180910390fd5b60408051630969875760e21b8152602083013560048201529082013560248201526000907f00000000000000000000000000000000000000000000000000000000000000006001600160a01b0316906325a61d5c9060440161012060405180830381865afa1580156115a6573d6000803e3d6000fd5b505050506040513d601f19601f820116820180604052508101906115ca9190614c94565b61010081015190915060009060241c63ffffffff1660c0840135146116b6576001600160a01b037f000000000000000000000000000000000000000000000000000000000000000016633be273fa602085013560c086013561163a86610100015163ffffffff60249190911c1690565b60405160e085901b6001600160e01b031916815260048101939093526024830191909152604482015260a08601356064820152608401602060405180830381865afa15801561168d573d6000803e3d6000fd5b505050506040513d601f19601f820116820180604052508101906116b19190614c12565b6116c5565b6116c560a0840135600a614df8565b905060006116dd6080850135610160860135846128cb565b60405163ea78803f60e01b8152602086013560048201529091506000906001600160a01b037f0000000000000000000000000000000000000000000000000000000000000000169063ea78803f90602401602060405180830381865afa15801561174b573d6000803e3d6000fd5b505050506040513d601f19601f8201168201806040525081019061176f9190614b67565b6040516370a0823160e01b81523060048201529091506000906001600160a01b038316906370a0823190602401602060405180830381865afa1580156117b9573d6000803e3d6000fd5b505050506040513d601f19601f820116820180604052508101906117dd9190614c12565b604051632eec7b5560e11b8152602088013560048201529091506000906001600160a01b037f00000000000000000000000000000000000000000000000000000000000000001690635dd8f6aa90602401602060405180830381865afa15801561184b573d6000803e3d6000fd5b505050506040513d601f19601f8201168201806040525081019061186f9190614b67565b6040516363fdc96f60e11b8152602089013560048201526024810186905230604482015260a06064820152600060a4820152600160848201526001600160a01b03919091169063c7fb92de9060c4016020604051808303816000875af11580156118dd573d6000803e3d6000fd5b505050506040513d601f19601f820116820180604052508101906119019190614c12565b6040516370a0823160e01b815230600482015290915082906001600160a01b038516906370a0823190602401602060405180830381865afa15801561194a573d6000803e3d6000fd5b505050506040513d601f19601f8201168201806040525081019061196e9190614c12565b6119789190614e04565b811461198657611986614e17565b60006119a4848361199d60808c0160608d016148eb565b6000611f91565b90506119d2826119ba60808b0160608c016148eb565b836119cd6101c08d016101a08e016148eb565b61215e565b5050505050505050565b336001600160a01b0384168114801590611a93575060405163c161c93f60e01b81526001600160a01b038281166004830152858116602483015260448201859052606482018490527f0000000000000000000000000000000000000000000000000000000000000000169063c161c93f90608401602060405180830381865afa158015611a6d573d6000803e3d6000fd5b505050506040513d601f19601f82011682018060405250810190611a919190614c2b565b155b8015611b3c575060405163c161c93f60e01b81526001600160a01b038281166004830152858116602483015260006044830152606482018490527f0000000000000000000000000000000000000000000000000000000000000000169063c161c93f90608401602060405180830381865afa158015611b16573d6000803e3d6000fd5b505050506040513d601f19601f82011682018060405250810190611b3a9190614c2b565b155b15611b5a5760405163075fd2b160e01b815260040160405180910390fd5b50505050565b60008315611b81576040516352864b0160e11b815260040160405180910390fd5b6001600160a01b0383166000908152602081905260408120600181018054908390558154909291908290611bbd906001600160401b0316614e2d565b91906101000a8154816001600160401b0302191690836001600160401b031602179055905060006001600160a01b031684602001516001600160a01b031603611c245760405163393e175160e01b81526001600160a01b03861660048201526024016108a1565b6001600160a01b03851661eeee14611d1f57611c61857f00000000000000000000000000000000000000000000000000000000000000008461299e565b6020808501518551604080519384018152600084525163540abf7360e01b81526001600160a01b037f0000000000000000000000000000000000000000000000000000000000000000169363540abf7393611ce8938b9391927f0000000000000000000000000000000000000000000000000000000000000000928a929190600401614e53565b600060405180830381600087803b158015611d0257600080fd5b505af1158015611d16573d6000803e3d6000fd5b50505050611d23565b8192505b6001600160a01b0385166000908152602081905260408120611d4790600201612a2e565b6001600160a01b03871660009081526020819052604081206022015491925090611d7390600190614e04565b604080516060810182526020808a01516001600160a01b039081168352818301898152845180860186526001600160401b03808b1682528185018a9052858701918252955194518316602486015290516044850152518051909416606484015292015160848201529192507f00000000000000000000000000000000000000000000000000000000000000001690633dbb202b9087907f00000000000000000000000000000000000000000000000000000000000000009060a40160408051601f198184030181529181526020820180516001600160e01b03166369d31fdd60e01b179052516001600160e01b031960e086901b168152611e7d929190620493e090600401614ea6565b6000604051808303818588803b158015611e9657600080fd5b505af1158015611eaa573d6000803e3d6000fd5b5050604080518581526001600160401b03881660208201526001600160a01b038c1694508693507f3e069c1f498cba23d7d2b74b84311469e8da6e527cade62061d642c61b64e0de92500160405180910390a35050505050505050565b6000611f1283613de4565b8015611f235750611f238383613e17565b9392505050565b6040516001600160a01b038481166024830152838116604483015260648201839052611b5a9186918216906323b872dd906084015b604051602081830303815290604052915060e01b6020820180516001600160e01b038381831617835250505050613ea1565b604051630862026560e41b81527f000000000000000000000000000000000000000000000000000000000000000060048201526001600160a01b03838116602483015260009182917f00000000000000000000000000000000000000000000000000000000000000001690638620265090604401602060405180830381865afa158015612022573d6000803e3d6000fd5b505050506040513d601f19601f820116820180604052508101906120469190614b67565b90506001600160a01b03811661207a5760405163393e175160e01b81526001600160a01b03851660048201526024016108a1565b60006120868530613f04565b60408051602081018252600081529051635db90a7f60e11b81529192506001600160a01b0384169163bb7214fe916120ec9130917f0000000000000000000000000000000000000000000000000000000000000000918b918d918c918691600401614ee0565b6020604051808303816000875af115801561210b573d6000803e3d6000fd5b505050506040513d601f19601f8201168201806040525081019061212f9190614c12565b92508061213c8630613f04565b6121469190614e04565b831461215457612154614e17565b5050949350505050565b600061216b858484613f94565b6001600160a01b0385166000908152602081815260408083208151610440810180845295965093946121d69487949093600290930192849290830191849182845b8154815260200190600101908083116121ac57505050918352505060209182015491015290613fd9565b6001600160a01b038616600090815260208181526040909120825192935083926002909101916122079183916145dc565b50602091820151908201556001600160a01b03861660009081529081905260408120600101805486929061223c908490614b9a565b92505081905550846001600160a01b0316836001600160a01b03167f7b58dbb78e7edc690b0688a53dea0c443d630c4a5db66c3c47d4ff2044c97728846001856020015161228a9190614e04565b6001600160a01b038a1660009081526020819052604090206122ae90600201612a2e565b60408051938452602084019290925290820152606081018a90526080810188905260a00160405180910390a3505050505050565b6001600160a01b0382166000908152600260205260409020548082111561231c57604051632858f9ab60e11b815260040160405180910390fd5b6123268282614e04565b6001600160a01b03848116600081815260026020526040808220949094559251630862026560e41b81527f0000000000000000000000000000000000000000000000000000000000000000600482015260248101919091527f000000000000000000000000000000000000000000000000000000000000000090911690638620265090604401602060405180830381865afa1580156123c9573d6000803e3d6000fd5b505050506040513d601f19601f820116820180604052508101906123ed9190614b67565b90506001600160a01b03811661244757604051630c9ae01360e01b81527f000000000000000000000000000000000000000000000000000000000000000060048201526001600160a01b03851660248201526044016108a1565b6001600160a01b03841661eeee146125f7576040516370a0823160e01b81523060048201526000906001600160a01b038616906370a0823190602401602060405180830381865afa1580156124a0573d6000803e3d6000fd5b505050506040513d601f19601f820116820180604052508101906124c49190614c12565b90506124d185838661299e565b60408051602080820183526000808352835191820184528082529251639e6eec0560e01b81526001600160a01b03861693639e6eec059361253e937f0000000000000000000000000000000000000000000000000000000000000000938c938c9390929091600401614f32565b600060405180830381600087803b15801561255857600080fd5b505af115801561256c573d6000803e3d6000fd5b50505050838161257c9190614e04565b6040516370a0823160e01b81523060048201526001600160a01b038716906370a0823190602401602060405180830381865afa1580156125c0573d6000803e3d6000fd5b505050506040513d601f19601f820116820180604052508101906125e49190614c12565b146125f1576125f1614e17565b50611b5a565b60408051602080820183526000808352835191820184528082529251639e6eec0560e01b81526001600160a01b03851693639e6eec05938893612667937f0000000000000000000000000000000000000000000000000000000000000000938c9387939192909190600401614f32565b6000604051808303818588803b15801561268057600080fd5b505af1158015612694573d6000803e3d6000fd5b505050505050505050565b60007f00000000000000000000000000000000000000000000000000000000000000006001600160a01b0316826001600160a01b03161480156107b257507f00000000000000000000000000000000000000000000000000000000000000006001600160a01b03167f00000000000000000000000000000000000000000000000000000000000000006001600160a01b0316636e296e456040518163ffffffff1660e01b81526004016020604051808303816000875af1158015612767573d6000803e3d6000fd5b505050506040513d601f19601f8201168201806040525081019061278b9190614b67565b6001600160a01b03161492915050565b6001600160a01b0385166000908152600460209081526040808320600886901c8452909152902054600160ff84161b16156127ec5760405163ed9bdd0760e01b8152600481018390526024016108a1565b6001600160a01b0385166000908152600460209081526040808320600886901c845290915281208054600160ff86161b17905561285b61282d888787613f94565b6040805161040081810190925290859060209083908390808284376000920191909152508791506140df9050565b6001600160a01b0387166000908152600160208190526040909120015490915081146128c2576001600160a01b0386166000908152600160208190526040918290200154905163286f87c960e21b81526004810191909152602481018290526044016108a1565b50505050505050565b6000808060001985870985870292508281108382030391505080600003612905578382816128fb576128fb614f79565b0492505050611f23565b83811061293657604051630c740aef60e31b81526004810187905260248101869052604481018590526064016108a1565b600084868809600260036001881981018916988990049182028318808302840302808302840302808302840302808302840302808302840302918202909203026000889003889004909101858311909403939093029303949094049190911702949350505050565b604080516001600160a01b038416602482015260448082018490528251808303909101815260649091019091526020810180516001600160e01b031663095ea7b360e01b1790526129ef848261442d565b611b5a576040516001600160a01b03848116602483015260006044830152612a2491869182169063095ea7b390606401611f5f565b611b5a8482613ea1565b6020810154600090808203612a6557507f27ae5ba08d7291c96c8cbddcc148bf48a6d68c7974b94356f53754ef6171d75792915050565b6000836001831615612a8757805460005260006020526040600020935061333a565b6002831615612acc5760018101546000527fad3228b676f7d3cd4284a5443f17f1962b36e491b30a40b2405849e597ba5fb5602052604060002093506001915061333a565b6004831615612b115760028101546000527fb4c11951957c6f8f642c4af61cd6b24640fec6dc7fc607ee8206a99e92410d30602052604060002093506002915061333a565b6008831615612b565760038101546000527f21ddb9a356815c3fac1026b6dec5df3124afbadb485c9ba5a3e3398a04b7ba85602052604060002093506003915061333a565b6010831615612b9b5760048101546000527fe58769b32a1beaf1ea27375a44095a0d1fb664ce2dd358e7fcbfb78c26a19344602052604060002093506004915061333a565b6020831615612be05760058101546000527f0eb01ebfc9ed27500cd4dfc979272d1f0913cc9f66540d7e8005811109e1cf2d602052604060002093506005915061333a565b6040831615612c255760068101546000527f887c22bd8750d34016ac3c66b5ff102dacdd73f6b014e710b51e8022af9a1968602052604060002093506006915061333a565b6080831615612c6a5760078101546000527fffd70157e48063fc33c97a050f7f640233bf646cc98d9524c6b92bcf3ab56f83602052604060002093506007915061333a565b610100831615612cb05760088101546000527f9867cc5f7f196b93bae1e27e6320742445d290f2263827498b54fec539f756af602052604060002093506008915061333a565b610200831615612cf65760098101546000527fcefad4e508c098b9a7e1d8feb19955fb02ba9675585078710969d3440f5054e0602052604060002093506009915061333a565b610400831615612d3c57600a8101546000527ff9dc3e7fe016e050eff260334f18a5d4fe391d82092319f5964f2e2eb7c1c3a560205260406000209350600a915061333a565b610800831615612d8257600b8101546000527ff8b13a49e282f609c317a833fb8d976d11517c571d1221a265d25af778ecf89260205260406000209350600b915061333a565b611000831615612dc857600c8101546000527f3490c6ceeb450aecdc82e28293031d10c7d73bf85e57bf041a97360aa2c5d99c60205260406000209350600c915061333a565b612000831615612e0e57600d8101546000527fc1df82d9c4b87413eae2ef048f94b4d3554cea73d92b0f7af96e0271c691e2bb60205260406000209350600d915061333a565b614000831615612e5457600e8101546000527f5c67add7c6caf302256adedf7ab114da0acfe870d449a3a489f781d659e8becc60205260406000209350600e915061333a565b618000831615612e9a57600f8101546000527fda7bce9f4e8618b6bd2f4132ce798cdc7a60e7e1460a7299e3c6342a579626d260205260406000209350600f915061333a565b62010000831615612ee15760108101546000527f2733e50f526ec2fa19a22b31e8ed50f23cd1fdf94c9154ed3a7609a2f1ff981f602052604060002093506010915061333a565b62020000831615612f285760118101546000527fe1d3b5c807b281e4683cc6d6315cf95b9ade8641defcb32372f1c126e398ef7a602052604060002093506011915061333a565b62040000831615612f6f5760128101546000527f5a2dce0a8a7f68bb74560f8f71837c2c2ebbcbf7fffb42ae1896f13f7c7479a0602052604060002093506012915061333a565b62080000831615612fb65760138101546000527fb46a28b6f55540f89444f63de0378e3d121be09e06cc9ded1c20e65876d36aa0602052604060002093506013915061333a565b62100000831615612ffd5760148101546000527fc65e9645644786b620e2dd2ad648ddfcbf4a7e5b1a3a4ecfe7f64667a3f0b7e2602052604060002093506014915061333a565b622000008316156130445760158101546000527ff4418588ed35a2458cffeb39b93d26f18d2ab13bdce6aee58e7b99359ec2dfd9602052604060002093506015915061333a565b6240000083161561308b5760168101546000527f5a9c16dc00d6ef18b7933a6f8dc65ccb55667138776f7dea101070dc8796e377602052604060002093506016915061333a565b628000008316156130d25760178101546000527f4df84f40ae0c8229d0d6069e5c8f39a7c299677a09d367fc7b05e3bc380ee652602052604060002093506017915061333a565b630100000083161561311a5760188101546000527fcdc72595f74c7b1043d0e1ffbab734648c838dfb0527d971b602bc216c9619ef602052604060002093506018915061333a565b63020000008316156131625760198101546000527f0abf5ac974a1ed57f4050aa510dd9c74f508277b39d7973bb2dfccc5eeb0618d602052604060002093506019915061333a565b63040000008316156131aa57601a8101546000527fb8cd74046ff337f0a7bf2c8e03e10f642c1886798d71806ab1e888d9e5ee87d060205260406000209350601a915061333a565b63080000008316156131f257601b8101546000527f838c5655cb21c6cb83313b5a631175dff4963772cce9108188b34ac87c81c41e60205260406000209350601b915061333a565b631000000083161561323a57601c8101546000527f662ee4dd2dd7b2bc707961b1e646c4047669dcb6584f0d8d770daf5d7e7deb2e60205260406000209350601c915061333a565b632000000083161561328257601d8101546000527f388ab20e2573d171a88108e79d820e98f26c0b84aa8b2f4aa4968dbb818ea32260205260406000209350601d915061333a565b63400000008316156132ca57601e8101546000527f93237c50ba75ee485f4c22adf2f741400bdf8d6a9cc7df7ecae576221665d73560205260406000209350601e915061333a565b638000000083161561331257601f8101546000527f8448818bb4ae4562849e949e17ac16e0be16688e156b5cf15e098c627c0056a960205260406000209350601f915061333a565b7f27ae5ba08d7291c96c8cbddcc148bf48a6d68c7974b94356f53754ef6171d7579350602091505b601e8211613ddc576001821015613398576002831680156133665760018201546000528460205261338f565b846000527fad3228b676f7d3cd4284a5443f17f1962b36e491b30a40b2405849e597ba5fb56020525b50604060002093505b60028210156133ee576004831680156133bc576002820154600052846020526133e5565b846000527fb4c11951957c6f8f642c4af61cd6b24640fec6dc7fc607ee8206a99e92410d306020525b50604060002093505b6003821015613444576008831680156134125760038201546000528460205261343b565b846000527f21ddb9a356815c3fac1026b6dec5df3124afbadb485c9ba5a3e3398a04b7ba856020525b50604060002093505b600482101561349a5760108316801561346857600482015460005284602052613491565b846000527fe58769b32a1beaf1ea27375a44095a0d1fb664ce2dd358e7fcbfb78c26a193446020525b50604060002093505b60058210156134f0576020831680156134be576005820154600052846020526134e7565b846000527f0eb01ebfc9ed27500cd4dfc979272d1f0913cc9f66540d7e8005811109e1cf2d6020525b50604060002093505b6006821015613546576040831680156135145760068201546000528460205261353d565b846000527f887c22bd8750d34016ac3c66b5ff102dacdd73f6b014e710b51e8022af9a19686020525b50604060002093505b600782101561359c5760808316801561356a57600782015460005284602052613593565b846000527fffd70157e48063fc33c97a050f7f640233bf646cc98d9524c6b92bcf3ab56f836020525b50604060002093505b60088210156135f357610100831680156135c1576008820154600052846020526135ea565b846000527f9867cc5f7f196b93bae1e27e6320742445d290f2263827498b54fec539f756af6020525b50604060002093505b600982101561364a576102008316801561361857600982015460005284602052613641565b846000527fcefad4e508c098b9a7e1d8feb19955fb02ba9675585078710969d3440f5054e06020525b50604060002093505b600a8210156136a1576104008316801561366f57600a82015460005284602052613698565b846000527ff9dc3e7fe016e050eff260334f18a5d4fe391d82092319f5964f2e2eb7c1c3a56020525b50604060002093505b600b8210156136f857610800831680156136c657600b820154600052846020526136ef565b846000527ff8b13a49e282f609c317a833fb8d976d11517c571d1221a265d25af778ecf8926020525b50604060002093505b600c82101561374f576110008316801561371d57600c82015460005284602052613746565b846000527f3490c6ceeb450aecdc82e28293031d10c7d73bf85e57bf041a97360aa2c5d99c6020525b50604060002093505b600d8210156137a6576120008316801561377457600d8201546000528460205261379d565b846000527fc1df82d9c4b87413eae2ef048f94b4d3554cea73d92b0f7af96e0271c691e2bb6020525b50604060002093505b600e8210156137fd57614000831680156137cb57600e820154600052846020526137f4565b846000527f5c67add7c6caf302256adedf7ab114da0acfe870d449a3a489f781d659e8becc6020525b50604060002093505b600f821015613854576180008316801561382257600f8201546000528460205261384b565b846000527fda7bce9f4e8618b6bd2f4132ce798cdc7a60e7e1460a7299e3c6342a579626d26020525b50604060002093505b60108210156138ac57620100008316801561387a576010820154600052846020526138a3565b846000527f2733e50f526ec2fa19a22b31e8ed50f23cd1fdf94c9154ed3a7609a2f1ff981f6020525b50604060002093505b60118210156139045762020000831680156138d2576011820154600052846020526138fb565b846000527fe1d3b5c807b281e4683cc6d6315cf95b9ade8641defcb32372f1c126e398ef7a6020525b50604060002093505b601282101561395c57620400008316801561392a57601282015460005284602052613953565b846000527f5a2dce0a8a7f68bb74560f8f71837c2c2ebbcbf7fffb42ae1896f13f7c7479a06020525b50604060002093505b60138210156139b4576208000083168015613982576013820154600052846020526139ab565b846000527fb46a28b6f55540f89444f63de0378e3d121be09e06cc9ded1c20e65876d36aa06020525b50604060002093505b6014821015613a0c5762100000831680156139da57601482015460005284602052613a03565b846000527fc65e9645644786b620e2dd2ad648ddfcbf4a7e5b1a3a4ecfe7f64667a3f0b7e26020525b50604060002093505b6015821015613a64576220000083168015613a3257601582015460005284602052613a5b565b846000527ff4418588ed35a2458cffeb39b93d26f18d2ab13bdce6aee58e7b99359ec2dfd96020525b50604060002093505b6016821015613abc576240000083168015613a8a57601682015460005284602052613ab3565b846000527f5a9c16dc00d6ef18b7933a6f8dc65ccb55667138776f7dea101070dc8796e3776020525b50604060002093505b6017821015613b14576280000083168015613ae257601782015460005284602052613b0b565b846000527f4df84f40ae0c8229d0d6069e5c8f39a7c299677a09d367fc7b05e3bc380ee6526020525b50604060002093505b6018821015613b6d57630100000083168015613b3b57601882015460005284602052613b64565b846000527fcdc72595f74c7b1043d0e1ffbab734648c838dfb0527d971b602bc216c9619ef6020525b50604060002093505b6019821015613bc657630200000083168015613b9457601982015460005284602052613bbd565b846000527f0abf5ac974a1ed57f4050aa510dd9c74f508277b39d7973bb2dfccc5eeb0618d6020525b50604060002093505b601a821015613c1f57630400000083168015613bed57601a82015460005284602052613c16565b846000527fb8cd74046ff337f0a7bf2c8e03e10f642c1886798d71806ab1e888d9e5ee87d06020525b50604060002093505b601b821015613c7857630800000083168015613c4657601b82015460005284602052613c6f565b846000527f838c5655cb21c6cb83313b5a631175dff4963772cce9108188b34ac87c81c41e6020525b50604060002093505b601c821015613cd157631000000083168015613c9f57601c82015460005284602052613cc8565b846000527f662ee4dd2dd7b2bc707961b1e646c4047669dcb6584f0d8d770daf5d7e7deb2e6020525b50604060002093505b601d821015613d2a57632000000083168015613cf857601d82015460005284602052613d21565b846000527f388ab20e2573d171a88108e79d820e98f26c0b84aa8b2f4aa4968dbb818ea3226020525b50604060002093505b601e821015613d8357634000000083168015613d5157601e82015460005284602052613d7a565b846000527f93237c50ba75ee485f4c22adf2f741400bdf8d6a9cc7df7ecae576221665d7356020525b50604060002093505b601f821015613ddc57638000000083168015613daa57601f82015460005284602052613dd3565b846000527f8448818bb4ae4562849e949e17ac16e0be16688e156b5cf15e098c627c0056a96020525b50604060002093505b505050919050565b6000613df7826301ffc9a760e01b613e17565b80156107b25750613e10826001600160e01b0319613e17565b1592915050565b6040516001600160e01b031982166024820152600090819060440160408051601f19818403018152919052602080820180516001600160e01b03166301ffc9a760e01b178152825192935060009283928392909183918a617530fa92503d91506000519050828015613e8a575060208210155b8015613e965750600081115b979650505050505050565b6000613eb66001600160a01b038416836144d5565b90508051600014158015613edb575080806020019051810190613ed99190614c2b565b155b156107eb57604051635274afe760e01b81526001600160a01b03841660048201526024016108a1565b600061eeed196001600160a01b03841601613f2a57506001600160a01b038116316107b2565b6040516370a0823160e01b81526001600160a01b0383811660048301528416906370a0823190602401602060405180830381865afa158015613f70573d6000803e3d6000fd5b505050506040513d601f19601f82011682018060405250810190611f239190614c12565b60408051602081018590529081018390526001600160a01b03821660608201526000906080016040516020818303038152906040528051906020012090509392505050565b613fe161461a565b6000836020018051613ff290614f8f565b908190529050600161400660206002614df8565b6140109190614e04565b81111561403057604051638eab04bb60e01b815260040160405180910390fd5b60005b60208110156140c5578160011660010361406c5784518490826020811061405c5761405c614b2b565b6020020152508391506107b29050565b8451816020811061407f5761407f614b2b565b60200201518460405160200161409f929190918252602082015260400190565b60408051601f1981840301815291905280516020909101209350600191821c9101614033565b50604051638eab04bb60e01b815260040160405180910390fd5b6020600582811b8216948552835194820394909452604060008181206002851615871b808503919091528386015190528181206004851615871b808503919091528286015190528181206008851615871b80850391909152606086015190528181206010851615871b8085039190915260808087015190915282822084861615881b8086039190915260a0870151905282822083861615881b8086039190915260c0870151905282822090851615871b8085039190915260e0860151905281812061010080861615881b80860392909252860151905281812061020080861615881b80860392909252610120870151909152828220610400861615881b808603919091526101408701519052828220610800861615881b808603919091526101608701519052828220611000861615881b808603919091526101808701519052828220612000861615881b808603919091526101a08701519052828220614000861615881b808603919091526101c08701519052828220618000861615881b808603919091526101e0870151905282822062010000861615881b8086039190915290860151905281812062020000851615871b80850391909152610220860151905281812062040000851615871b80850391909152610240860151905281812062080000851615871b80850391909152610260860151905281812062100000851615871b80850391909152610280860151905281812062200000851615871b808503919091526102a0860151905281812062400000851615871b808503919091526102c0860151905281812062800000851615871b808503919091526102e086015190528181206301000000851615871b8085039190915261030086015190528181206302000000851615871b8085039190915261032086015190528181206304000000851615871b8085039190915261034086015190528181206308000000851615871b8085039190915261036086015190528181206310000000851615871b8085039190915261038086015190528181206320000000851615871b808503919091526103a086015190528181206340000000851615871b808503919091526103c0860151905281812063800000009094161590951b91829003929092526103e090920151909152902090565b6000806000846001600160a01b03168460405161444a9190614fa8565b6000604051808303816000865af19150503d8060008114614487576040519150601f19603f3d011682016040523d82523d6000602084013e61448c565b606091505b50915091508180156144b65750805115806144b65750808060200190518101906144b69190614c2b565b80156144cc57506000856001600160a01b03163b115b95945050505050565b6060611f238383600084600080856001600160a01b031684866040516144fb9190614fa8565b60006040518083038185875af1925050503d8060008114614538576040519150601f19603f3d011682016040523d82523d6000602084013e61453d565b606091505b509150915061454d868383614557565b9695505050505050565b60608261456c57614567826145b3565b611f23565b815115801561458357506001600160a01b0384163b155b156145ac57604051639996b31560e01b81526001600160a01b03851660048201526024016108a1565b5080611f23565b8051156145c35780518082602001fd5b604051630a12f52160e11b815260040160405180910390fd5b826020810192821561460a579160200282015b8281111561460a5782518255916020019190600101906145ef565b5061461692915061463a565b5090565b604051806040016040528061462d61464f565b8152602001600081525090565b5b80821115614616576000815560010161463b565b6040518061040001604052806020906020820280368337509192915050565b60006020828403121561468057600080fd5b81356001600160e01b031981168114611f2357600080fd5b600080602083850312156146ab57600080fd5b82356001600160401b03808211156146c257600080fd5b818501915085601f8301126146d657600080fd5b8135818111156146e557600080fd5b8660208260071b85010111156146fa57600080fd5b60209290920196919550909350505050565b60006080828403121561471e57600080fd5b50919050565b60006080828403121561473657600080fd5b611f23838361470c565b60006020828403121561475257600080fd5b81356001600160401b0381111561476857600080fd5b82016101808185031215611f2357600080fd5b60005b8381101561479657818101518382015260200161477e565b50506000910152565b600081518084526147b781602086016020860161477b565b601f01601f19169290920160200192915050565b6000604080830185845260206040818601528186518084526060935060608701915060608160051b88010183890160005b8381101561484c57898303605f19018552815180516001600160a01b0316845286810151878501528801518884018890526148398885018261479f565b95870195935050908501906001016147fc565b50909a9950505050505050505050565b6001600160a01b0381168114610f4b57600080fd5b6000806000806080858703121561488757600080fd5b8435935060208501356148998161485c565b92506040850135915060608501356148b08161485c565b939692955090935050565b600080604083850312156148ce57600080fd5b8235915060208301356148e08161485c565b809150509250929050565b6000602082840312156148fd57600080fd5b8135611f238161485c565b6001600160401b038416815260208082018490528251610460830191906000604085015b8382101561494a57825181529183019160019190910190830161492c565b505050506020830151610440830152949350505050565b60006020828403121561497357600080fd5b81356001600160401b0381111561498957600080fd5b82016101a08185031215611f2357600080fd5b60006080820186835260208681850152604086604086015260606080606087015283875180865260a08801915060a08160051b890101955084890160005b82811015614a2a57898803609f19018452815180516001600160a01b0316895287810151888a0152860151868901869052614a17868a018261479f565b98505092860192908601906001016149da565b50959c9b505050505050505050505050565b60006104a0828403121561471e57600080fd5b60008060208385031215614a6257600080fd5b82356001600160401b0380821115614a7957600080fd5b818501915085601f830112614a8d57600080fd5b813581811115614a9c57600080fd5b8660206104a0830285010111156146fa57600080fd5b634e487b7160e01b600052602160045260246000fd5b6020810160028310614aea57634e487b7160e01b600052602160045260246000fd5b91905290565b600060208284031215614b0257600080fd5b81356001600160401b03811115614b1857600080fd5b82016102008185031215611f2357600080fd5b634e487b7160e01b600052603260045260246000fd5b600060208284031215614b5357600080fd5b813563ffffffff81168114611f2357600080fd5b600060208284031215614b7957600080fd5b8151611f238161485c565b634e487b7160e01b600052601160045260246000fd5b808201808211156107b2576107b2614b84565b6001600160401b0381168114610f4b57600080fd5b600060208284031215614bd457600080fd5b8135611f2381614bad565b8135614bea81614bad565b6001600160401b0381166001600160401b031983541617825550602082013560018201555050565b600060208284031215614c2457600080fd5b5051919050565b600060208284031215614c3d57600080fd5b81518015158114611f2357600080fd5b60405161012081016001600160401b0381118282101715614c7e57634e487b7160e01b600052604160045260246000fd5b60405290565b8051614c8f8161485c565b919050565b60006101208284031215614ca757600080fd5b614caf614c4d565b825181526020830151602082015260408301516040820152606083015160608201526080830151608082015260a083015160a082015260c083015160c0820152614cfb60e08401614c84565b60e0820152610100928301519281019290925250919050565b600181815b80851115614d4f578160001904821115614d3557614d35614b84565b80851615614d4257918102915b93841c9390800290614d19565b509250929050565b600082614d66575060016107b2565b81614d73575060006107b2565b8160018114614d895760028114614d9357614daf565b60019150506107b2565b60ff841115614da457614da4614b84565b50506001821b6107b2565b5060208310610133831016604e8410600b8410161715614dd2575081810a6107b2565b614ddc8383614d14565b8060001904821115614df057614df0614b84565b029392505050565b6000611f238383614d57565b818103818111156107b2576107b2614b84565b634e487b7160e01b600052600160045260246000fd5b60006001600160401b03808316818103614e4957614e49614b84565b6001019392505050565b6001600160a01b0387811682528681166020830152851660408201526060810184905263ffffffff8316608082015260c060a08201819052600090614e9a9083018461479f565b98975050505050505050565b6001600160a01b0384168152606060208201819052600090614eca9083018561479f565b905063ffffffff83166040830152949350505050565b600060018060a01b03808a168352886020840152808816604084015286606084015285608084015280851660a08401525060e060c0830152614f2560e083018461479f565b9998505050505050505050565b86815260018060a01b0386166020820152846040820152831515606082015260c060808201526000614f6760c083018561479f565b82810360a0840152614f25818561479f565b634e487b7160e01b600052601260045260246000fd5b600060018201614fa157614fa1614b84565b5060010190565b60008251614fba81846020870161477b565b919091019291505056fea26469706673582212208714ceb1bc7a9eb8cee93b01971eeaf216aecef7f7dc417297a3a7e9df225bcc64736f6c63430008170033a2646970667358221220eca34b482119d0e8b06779479c60d0c95657445fd459f5cd91721eaea86a63d164736f6c63430008170033",
			"deployedBytecode": "0x608060405234801561001057600080fd5b506004361061007d5760003560e01c8063c39ec1241161005b578063c39ec124146100e6578063cc8b6f4f14610119578063ee9a31a21461012e578063f434c9141461014157600080fd5b806312130366146100825780632cdaa896146100b2578063927ede2d146100d3575b600080fd5b6100956100903660046106a5565b610168565b6040516001600160a01b0390911681526020015b60405180910390f35b6100c56100c03660046106df565b6102e7565b6040519081526020016100a9565b600054610095906001600160a01b031681565b6101096100f436600461074d565b60026020526000908152604090205460ff1681565b60405190151581526020016100a9565b61012c610127366004610771565b6104a4565b005b600154610095906001600160a01b031681565b6100957f000000000000000000000000ba24624ae5dc821866e9e71ed050412ef01e2fe681565b6040516bffffffffffffffffffffffff193360601b16602082015260348101829052600090605401604051602081830303815290604052805190602001209150817f0000000000000000000000000631183bd45c31f8645f9dcf8705951f730362e97f0000000000000000000000001eb7799d3a230a0440f0d6c477256df8d425adbb7f00000000000000000000000018017cfed48e1dc0adc445cef8a9e6affcb330da7f0000000000000000000000003295c9c7374e583cb2e6ed455eaf9908022159d07f000000000000000000000000ba24624ae5dc821866e9e71ed050412ef01e2fe660008960405161025d90610697565b6001600160a01b0397881681529587166020870152938616604086015291851660608501528416608084015290921660a082015260c081019190915260e0018190604051809103906000f59050801580156102bc573d6000803e3d6000fd5b506001600160a01b0381166000908152600260205260409020805460ff191660011790559392505050565b3360009081526002602052604081205460ff1661031757604051631199558960e11b815260040160405180910390fd5b6104127f00000000000000000000000018017cfed48e1dc0adc445cef8a9e6affcb330da6001600160a01b031663293c49996040518163ffffffff1660e01b8152600401602060405180830381865afa158015610378573d6000803e3d6000fd5b505050506040513d601f19601f8201168201806040525081019061039c91906107aa565b6001600160a01b0316636352211e896040518263ffffffff1660e01b81526004016103c991815260200190565b602060405180830381865afa1580156103e6573d6000803e3d6000fd5b505050506040513d601f19601f8201168201806040525081019061040a91906107aa565b886011610513565b6040805160208101825260008152905163b62d17cf60e01b81526001600160a01b0388169163b62d17cf91610456918b918a9189918b918a913391906004016107c7565b6020604051808303816000875af1158015610475573d6000803e3d6000fd5b505050506040513d601f19601f820116820180604052508101906104999190610857565b979650505050505050565b6000546001600160a01b03161515806104c757506001546001600160a01b031615155b156104e55760405163ccbe17fd60e01b815260040160405180910390fd5b600080546001600160a01b039384166001600160a01b03199182161790915560018054929093169116179055565b336001600160a01b03841681148015906105ca575060405163c161c93f60e01b81526001600160a01b038281166004830152858116602483015260448201859052606482018490527f000000000000000000000000ba24624ae5dc821866e9e71ed050412ef01e2fe6169063c161c93f90608401602060405180830381865afa1580156105a4573d6000803e3d6000fd5b505050506040513d601f19601f820116820180604052508101906105c89190610870565b155b8015610673575060405163c161c93f60e01b81526001600160a01b038281166004830152858116602483015260006044830152606482018490527f000000000000000000000000ba24624ae5dc821866e9e71ed050412ef01e2fe6169063c161c93f90608401602060405180830381865afa15801561064d573d6000803e3d6000fd5b505050506040513d601f19601f820116820180604052508101906106719190610870565b155b156106915760405163075fd2b160e01b815260040160405180910390fd5b50505050565b6153e2806200089383390190565b600080604083850312156106b857600080fd5b50508035926020909101359150565b6001600160a01b03811681146106dc57600080fd5b50565b60008060008060008060c087890312156106f857600080fd5b86359550602087013561070a816106c7565b9450604087013561071a816106c7565b9350606087013563ffffffff8116811461073357600080fd5b9598949750929560808101359460a0909101359350915050565b60006020828403121561075f57600080fd5b813561076a816106c7565b9392505050565b6000806040838503121561078457600080fd5b823561078f816106c7565b9150602083013561079f816106c7565b809150509250929050565b6000602082840312156107bc57600080fd5b815161076a816106c7565b8781526000602060018060a01b03808a16602085015288604085015263ffffffff8816606085015286608085015280861660a08501525060e060c084015283518060e085015260005b8181101561082d5785810183015185820161010001528201610810565b506101009150600082828601015281601f19601f8301168501019250505098975050505050505050565b60006020828403121561086957600080fd5b5051919050565b60006020828403121561088257600080fd5b8151801515811461076a57600080fdfe6101e06040523480156200001257600080fd5b50604051620053e2380380620053e28339810160408190526200003591620001a6565b6001600160a01b0380841660805280861660c05280851660e05287908790879087908790879087908216156200006c57816200006e565b305b6001600160a01b03166101205261014081905233610100525050506001600160a01b0393841661018052505016610160526040805163927ede2d60e01b81529051339163927ede2d9160048083019260209291908290030181865afa158015620000dc573d6000803e3d6000fd5b505050506040513d601f19601f8201168201806040525081019062000102919062000245565b6001600160a01b03166101a0526040805163774d18d160e11b81529051339163ee9a31a29160048083019260209291908290030181865afa1580156200014c573d6000803e3d6000fd5b505050506040513d601f19601f8201168201806040525081019062000172919062000245565b6001600160a01b03166101c052506200026c95505050505050565b6001600160a01b0381168114620001a357600080fd5b50565b600080600080600080600060e0888a031215620001c257600080fd5b8751620001cf816200018d565b6020890151909750620001e2816200018d565b6040890151909650620001f5816200018d565b606089015190955062000208816200018d565b60808901519094506200021b816200018d565b60a08901519093506200022e816200018d565b8092505060c0880151905092959891949750929550565b6000602082840312156200025857600080fd5b815162000265816200018d565b9392505050565b60805160a05160c05160e05161010051610120516101405161016051610180516101a0516101c051614ffa620003e8600039600081816102bb01528181611c3c0152611c8b01526000818161074401528181611de0015281816126a3015261270901526000818161026501526115f301526000818161063d015261155601526000818161035d015281816109a501528181610a2201528181610b8d01528181610bc501528181610d8d01528181611237015281816112e001528181611fa0015281816120bc015281816123520152818161240c0152818161250e01526126360152600081816104ff01528181611cbc01528181611e0b01526126df015260006105c801526000818161021901528181610db6015261170401526000818161049b015281816109160152818161125d015281816114a00152818161180401528181611fdb01526123800152600081816105fc01528181610ed901526111d901526000818161071001528181611a260152611acf0152614ffa6000f3fe6080604052600436106101c65760003560e01c806388bc2ef3116100f7578063c1b8411a11610095578063ed0e26b911610064578063ed0e26b91461068c578063f3c57881146106eb578063f434c914146106fe578063fc8fa43d1461073257600080fd5b8063c1b8411a146105b6578063c6525f2c146105ea578063d4a1b4b11461062b578063e7f82c751461065f57600080fd5b8063b59ef50f116100d1578063b59ef50f14610521578063b71c117914610541578063bf557aee14610554578063c18541291461059657600080fd5b806388bc2ef314610489578063aaf320d7146104bd578063ad42938b146104ed57600080fd5b8063551ebbf01161016457806369ce22331161013e57806369ce2233146103b057806369d31fdd146103d05780636dfa7268146103e35780637de6fba21461041257600080fd5b8063551ebbf01461032b57806356539f391461034b578063677ce0881461038d57600080fd5b80632241dc52116101a05780632241dc52146102875780632847f1f3146102a957806338eb2044146102dd5780634c4ffc71146102fd57600080fd5b806301ffc9a7146101d25780631d831d5c146102075780631eabcd341461025357600080fd5b366101cd57005b600080fd5b3480156101de57600080fd5b506101f26101ed36600461466e565b610766565b60405190151581526020015b60405180910390f35b34801561021357600080fd5b5061023b7f000000000000000000000000000000000000000000000000000000000000000081565b6040516001600160a01b0390911681526020016101fe565b34801561025f57600080fd5b5061023b7f000000000000000000000000000000000000000000000000000000000000000081565b34801561029357600080fd5b506102a76102a2366004614698565b6107b8565b005b3480156102b557600080fd5b5061023b7f000000000000000000000000000000000000000000000000000000000000000081565b3480156102e957600080fd5b506102a76102f8366004614724565b6107f0565b34801561030957600080fd5b5061031d610318366004614740565b610b87565b6040516101fe9291906147cb565b34801561033757600080fd5b506102a7610346366004614871565b610d57565b34801561035757600080fd5b5061037f7f000000000000000000000000000000000000000000000000000000000000000081565b6040519081526020016101fe565b34801561039957600080fd5b506101f26103a83660046148bb565b600092915050565b3480156103bc57600080fd5b506102a76103cb3660046148eb565b610ed5565b6102a76103de366004614724565b610f4e565b3480156103ef57600080fd5b506104036103fe3660046148eb565b6110bf565b6040516101fe93929190614908565b34801561041e57600080fd5b5061045f61042d3660046148eb565b6003602052600090815260409020805460019091015463ffffffff821691600160201b90046001600160a01b03169083565b6040805163ffffffff90941684526001600160a01b039092166020840152908201526060016101fe565b34801561049557600080fd5b5061023b7f000000000000000000000000000000000000000000000000000000000000000081565b3480156104c957600080fd5b506104dd6104d8366004614961565b611129565b6040516101fe949392919061499c565b3480156104f957600080fd5b5061023b7f000000000000000000000000000000000000000000000000000000000000000081565b34801561052d57600080fd5b506102a761053c366004614a3c565b61119d565b6102a761054f3660046148eb565b6113a4565b34801561056057600080fd5b506101f261056f3660046148eb565b6001600160a01b03908116600090815260036020526040902054600160201b900416151590565b3480156105a257600080fd5b506102a76105b1366004614a4f565b61144d565b3480156105c257600080fd5b5061023b7f000000000000000000000000000000000000000000000000000000000000000081565b3480156105f657600080fd5b5061061e7f000000000000000000000000000000000000000000000000000000000000000081565b6040516101fe9190614ac8565b34801561063757600080fd5b5061023b7f000000000000000000000000000000000000000000000000000000000000000081565b34801561066b57600080fd5b5061037f61067a3660046148eb565b60026020526000908152604090205481565b34801561069857600080fd5b506106cc6106a73660046148eb565b600160208190526000918252604090912080549101546001600160401b039091169082565b604080516001600160401b0390931683526020830191909152016101fe565b6102a76106f9366004614af0565b611481565b34801561070a57600080fd5b5061023b7f000000000000000000000000000000000000000000000000000000000000000081565b34801561073e57600080fd5b5061023b7f000000000000000000000000000000000000000000000000000000000000000081565b60006001600160e01b031982166340e01e1760e11b148061079757506001600160e01b0319821663f3c5788160e01b145b806107b257506301ffc9a760e01b6001600160e01b03198316145b92915050565b60005b818110156107eb576107e38383838181106107d8576107d8614b2b565b9050608002016107f0565b6001016107bb565b505050565b60006107ff60208301836148eb565b9050600061eeee61081360208501856148eb565b6001600160a01b0316149050808015610846575061eeee61083a60608501604086016148eb565b6001600160a01b031614155b801561086b5750600061085f60608501604086016148eb565b6001600160a01b031614155b156108aa5761088060608401604085016148eb565b604051630a0a3b6b60e31b81526001600160a01b0390911660048201526024015b60405180910390fd5b62030d406108be6040850160208601614b41565b63ffffffff161080156108cf575080155b156109115762030d406108e86040850160208601614b41565b604051634f3dbeb360e11b815263ffffffff9283166004820152911660248201526044016108a1565b610a487f00000000000000000000000000000000000000000000000000000000000000006001600160a01b031663293c49996040518163ffffffff1660e01b8152600401602060405180830381865afa158015610972573d6000803e3d6000fd5b505050506040513d601f19601f820116820180604052508101906109969190614b67565b6040516331a9108f60e11b81527f000000000000000000000000000000000000000000000000000000000000000060048201526001600160a01b039190911690636352211e90602401602060405180830381865afa1580156109fc573d6000803e3d6000fd5b505050506040513d601f19601f82011682018060405250810190610a209190614b67565b7f0000000000000000000000000000000000000000000000000000000000000000601d6119dc565b6000610a5a60608501604086016148eb565b6001600160a01b0316148015610a8a57506001600160a01b03821660009081526020819052604090206001015415155b15610ae4576001600160a01b0380831660009081526003602090815260408083208151606081018352815463ffffffff81168252600160201b90049095169285019290925260019091015490830152610ae4918490611b60565b6040518060600160405280846020016020810190610b029190614b41565b63ffffffff168152602001610b1d60608601604087016148eb565b6001600160a01b0390811682526060909501356020918201529284166000908152600384526040908190208251815495840151909616600160201b026001600160c01b031990951663ffffffff909616959095179390931784559091015160019092019190915550565b600060607f00000000000000000000000000000000000000000000000000000000000000008360c0013514610bfb57604051632d7b333360e11b81527f0000000000000000000000000000000000000000000000000000000000000000600482015260c084013560248201526044016108a1565b6000610c0d60608501604086016148eb565b6001600160a01b03808216600090815260036020526040902054919250600160201b90910416158015610c5a5750610c58610c4b60208601866148eb565b635db90a7f60e11b611f07565b155b15610cb5576040805160008082526020820190925261012086013591610caa565b60408051606080820183526000808352602083015291810191909152815260200190600190039081610c7b5790505b509250925050915091565b60408051600180825281830190925290816020015b60408051606080820183526000808352602083015291810191909152815260200190600190039081610cca5790505091506040518060600160405280306001600160a01b03168152602001600081526020016040518060200160405280600081525081525082600081518110610d4257610d42614b2b565b60200260200101819052506000925050915091565b6001600160a01b038316610d7e576040516309a9c30b60e41b815260040160405180910390fd5b60405163ea78803f60e01b81527f000000000000000000000000000000000000000000000000000000000000000060048201526000907f00000000000000000000000000000000000000000000000000000000000000006001600160a01b03169063ea78803f90602401602060405180830381865afa158015610e05573d6000803e3d6000fd5b505050506040513d601f19601f82011682018060405250810190610e299190614b67565b90506001600160a01b038116610e5257604051635a33845560e01b815260040160405180910390fd5b6001600160a01b03828116600090815260036020526040902054600160201b900416610e9c5760405163393e175160e01b81526001600160a01b03831660048201526024016108a1565b610eb16001600160a01b038216333088611f2a565b6000610ebf82878587611f91565b9050610ecd8684838861215e565b505050505050565b60007f00000000000000000000000000000000000000000000000000000000000000006001811115610f0957610f09614ab2565b14610f275760405163218a9a2d60e11b815260040160405180910390fd5b6001600160a01b038116600090815260026020526040902054610f4b9082906122e2565b50565b610f573361269f565b610f7457604051630439dbd360e51b815260040160405180910390fd5b60208101803590600290600090610f8b90856148eb565b6001600160a01b03166001600160a01b031681526020019081526020016000206000828254610fba9190614b9a565b90915550600190506000610fd160208401846148eb565b6001600160a01b0316815260208101919091526040908101600020546001600160401b0316906110079060608401908401614bc2565b6001600160401b03161115610f4b57604081016001600061102b60208501856148eb565b6001600160a01b03168152602081019190915260400160002061104e8282614bdf565b5061105e905060208201826148eb565b6001600160a01b03167f551b6b99b4c48e3265d2885ab0d93779be2402293261e074f7bf74b2c8f45b6f6110986060840160408501614bc2565b604080516001600160401b039092168252606085013560208301520160405180910390a250565b6000602081815291815260409081902080546001820154835161044081018086526001600160401b0390931695919490926002850192849283019184919082845b815481526020019060010190808311611100575050509183525050602091820154910152905083565b600080806060610160850135608086013560a08701358460405190808252806020026020018201604052801561118d57816020015b6040805160608082018352600080835260208301529181019190915281526020019060019003908161115e5790505b5093509350935093509193509193565b6111d560608201356111b260208401846148eb565b60808401356111c760608601604087016148eb565b602086013560a0870161279b565b60017f0000000000000000000000000000000000000000000000000000000000000000600181111561120957611209614ab2565b036112285761122861121e60208301836148eb565b60808301356122e2565b604051632eec7b5560e11b81527f000000000000000000000000000000000000000000000000000000000000000060048201527f00000000000000000000000000000000000000000000000000000000000000006001600160a01b031690635dd8f6aa90602401602060405180830381865afa1580156112ac573d6000803e3d6000fd5b505050506040513d601f19601f820116820180604052508101906112d09190614b67565b6001600160a01b031663c7fb92de7f00000000000000000000000000000000000000000000000000000000000000006060840180359061131390604087016148eb565b6040516001600160e01b031960e086901b168152600481019390935260248301919091526001600160a01b0316604482015260a06064820152600060a48201819052608482015260c4016020604051808303816000875af115801561137c573d6000803e3d6000fd5b505050506040513d601f19601f820116820180604052508101906113a09190614c12565b5050565b6001600160a01b0380821660008181526003602090815260408083208151606081018352815463ffffffff81168252600160201b9004909616868401526001908101548683018190529484529183905290912001541015611442576040808201516001600160a01b0384166000908152602081905282902060010154915163091df9e560e31b81526108a19290600401918252602082015260400190565b6113a0348383611b60565b60005b818110156107eb5761147983838381811061146d5761146d614b2b565b90506104a0020161119d565b600101611450565b604051636e49181f60e01b8152602082013560048201523360248201527f00000000000000000000000000000000000000000000000000000000000000006001600160a01b031690636e49181f90604401602060405180830381865afa1580156114ef573d6000803e3d6000fd5b505050506040513d601f19601f820116820180604052508101906115139190614c2b565b61153057604051634ae18d2b60e11b815260040160405180910390fd5b60408051630969875760e21b8152602083013560048201529082013560248201526000907f00000000000000000000000000000000000000000000000000000000000000006001600160a01b0316906325a61d5c9060440161012060405180830381865afa1580156115a6573d6000803e3d6000fd5b505050506040513d601f19601f820116820180604052508101906115ca9190614c94565b61010081015190915060009060241c63ffffffff1660c0840135146116b6576001600160a01b037f000000000000000000000000000000000000000000000000000000000000000016633be273fa602085013560c086013561163a86610100015163ffffffff60249190911c1690565b60405160e085901b6001600160e01b031916815260048101939093526024830191909152604482015260a08601356064820152608401602060405180830381865afa15801561168d573d6000803e3d6000fd5b505050506040513d601f19601f820116820180604052508101906116b19190614c12565b6116c5565b6116c560a0840135600a614df8565b905060006116dd6080850135610160860135846128cb565b60405163ea78803f60e01b8152602086013560048201529091506000906001600160a01b037f0000000000000000000000000000000000000000000000000000000000000000169063ea78803f90602401602060405180830381865afa15801561174b573d6000803e3d6000fd5b505050506040513d601f19601f8201168201806040525081019061176f9190614b67565b6040516370a0823160e01b81523060048201529091506000906001600160a01b038316906370a0823190602401602060405180830381865afa1580156117b9573d6000803e3d6000fd5b505050506040513d601f19601f820116820180604052508101906117dd9190614c12565b604051632eec7b5560e11b8152602088013560048201529091506000906001600160a01b037f00000000000000000000000000000000000000000000000000000000000000001690635dd8f6aa90602401602060405180830381865afa15801561184b573d6000803e3d6000fd5b505050506040513d601f19601f8201168201806040525081019061186f9190614b67565b6040516363fdc96f60e11b8152602089013560048201526024810186905230604482015260a06064820152600060a4820152600160848201526001600160a01b03919091169063c7fb92de9060c4016020604051808303816000875af11580156118dd573d6000803e3d6000fd5b505050506040513d601f19601f820116820180604052508101906119019190614c12565b6040516370a0823160e01b815230600482015290915082906001600160a01b038516906370a0823190602401602060405180830381865afa15801561194a573d6000803e3d6000fd5b505050506040513d601f19601f8201168201806040525081019061196e9190614c12565b6119789190614e04565b811461198657611986614e17565b60006119a4848361199d60808c0160608d016148eb565b6000611f91565b90506119d2826119ba60808b0160608c016148eb565b836119cd6101c08d016101a08e016148eb565b61215e565b5050505050505050565b336001600160a01b0384168114801590611a93575060405163c161c93f60e01b81526001600160a01b038281166004830152858116602483015260448201859052606482018490527f0000000000000000000000000000000000000000000000000000000000000000169063c161c93f90608401602060405180830381865afa158015611a6d573d6000803e3d6000fd5b505050506040513d601f19601f82011682018060405250810190611a919190614c2b565b155b8015611b3c575060405163c161c93f60e01b81526001600160a01b038281166004830152858116602483015260006044830152606482018490527f0000000000000000000000000000000000000000000000000000000000000000169063c161c93f90608401602060405180830381865afa158015611b16573d6000803e3d6000fd5b505050506040513d601f19601f82011682018060405250810190611b3a9190614c2b565b155b15611b5a5760405163075fd2b160e01b815260040160405180910390fd5b50505050565b60008315611b81576040516352864b0160e11b815260040160405180910390fd5b6001600160a01b0383166000908152602081905260408120600181018054908390558154909291908290611bbd906001600160401b0316614e2d565b91906101000a8154816001600160401b0302191690836001600160401b031602179055905060006001600160a01b031684602001516001600160a01b031603611c245760405163393e175160e01b81526001600160a01b03861660048201526024016108a1565b6001600160a01b03851661eeee14611d1f57611c61857f00000000000000000000000000000000000000000000000000000000000000008461299e565b6020808501518551604080519384018152600084525163540abf7360e01b81526001600160a01b037f0000000000000000000000000000000000000000000000000000000000000000169363540abf7393611ce8938b9391927f0000000000000000000000000000000000000000000000000000000000000000928a929190600401614e53565b600060405180830381600087803b158015611d0257600080fd5b505af1158015611d16573d6000803e3d6000fd5b50505050611d23565b8192505b6001600160a01b0385166000908152602081905260408120611d4790600201612a2e565b6001600160a01b03871660009081526020819052604081206022015491925090611d7390600190614e04565b604080516060810182526020808a01516001600160a01b039081168352818301898152845180860186526001600160401b03808b1682528185018a9052858701918252955194518316602486015290516044850152518051909416606484015292015160848201529192507f00000000000000000000000000000000000000000000000000000000000000001690633dbb202b9087907f00000000000000000000000000000000000000000000000000000000000000009060a40160408051601f198184030181529181526020820180516001600160e01b03166369d31fdd60e01b179052516001600160e01b031960e086901b168152611e7d929190620493e090600401614ea6565b6000604051808303818588803b158015611e9657600080fd5b505af1158015611eaa573d6000803e3d6000fd5b5050604080518581526001600160401b03881660208201526001600160a01b038c1694508693507f3e069c1f498cba23d7d2b74b84311469e8da6e527cade62061d642c61b64e0de92500160405180910390a35050505050505050565b6000611f1283613de4565b8015611f235750611f238383613e17565b9392505050565b6040516001600160a01b038481166024830152838116604483015260648201839052611b5a9186918216906323b872dd906084015b604051602081830303815290604052915060e01b6020820180516001600160e01b038381831617835250505050613ea1565b604051630862026560e41b81527f000000000000000000000000000000000000000000000000000000000000000060048201526001600160a01b03838116602483015260009182917f00000000000000000000000000000000000000000000000000000000000000001690638620265090604401602060405180830381865afa158015612022573d6000803e3d6000fd5b505050506040513d601f19601f820116820180604052508101906120469190614b67565b90506001600160a01b03811661207a5760405163393e175160e01b81526001600160a01b03851660048201526024016108a1565b60006120868530613f04565b60408051602081018252600081529051635db90a7f60e11b81529192506001600160a01b0384169163bb7214fe916120ec9130917f0000000000000000000000000000000000000000000000000000000000000000918b918d918c918691600401614ee0565b6020604051808303816000875af115801561210b573d6000803e3d6000fd5b505050506040513d601f19601f8201168201806040525081019061212f9190614c12565b92508061213c8630613f04565b6121469190614e04565b831461215457612154614e17565b5050949350505050565b600061216b858484613f94565b6001600160a01b0385166000908152602081815260408083208151610440810180845295965093946121d69487949093600290930192849290830191849182845b8154815260200190600101908083116121ac57505050918352505060209182015491015290613fd9565b6001600160a01b038616600090815260208181526040909120825192935083926002909101916122079183916145dc565b50602091820151908201556001600160a01b03861660009081529081905260408120600101805486929061223c908490614b9a565b92505081905550846001600160a01b0316836001600160a01b03167f7b58dbb78e7edc690b0688a53dea0c443d630c4a5db66c3c47d4ff2044c97728846001856020015161228a9190614e04565b6001600160a01b038a1660009081526020819052604090206122ae90600201612a2e565b60408051938452602084019290925290820152606081018a90526080810188905260a00160405180910390a3505050505050565b6001600160a01b0382166000908152600260205260409020548082111561231c57604051632858f9ab60e11b815260040160405180910390fd5b6123268282614e04565b6001600160a01b03848116600081815260026020526040808220949094559251630862026560e41b81527f0000000000000000000000000000000000000000000000000000000000000000600482015260248101919091527f000000000000000000000000000000000000000000000000000000000000000090911690638620265090604401602060405180830381865afa1580156123c9573d6000803e3d6000fd5b505050506040513d601f19601f820116820180604052508101906123ed9190614b67565b90506001600160a01b03811661244757604051630c9ae01360e01b81527f000000000000000000000000000000000000000000000000000000000000000060048201526001600160a01b03851660248201526044016108a1565b6001600160a01b03841661eeee146125f7576040516370a0823160e01b81523060048201526000906001600160a01b038616906370a0823190602401602060405180830381865afa1580156124a0573d6000803e3d6000fd5b505050506040513d601f19601f820116820180604052508101906124c49190614c12565b90506124d185838661299e565b60408051602080820183526000808352835191820184528082529251639e6eec0560e01b81526001600160a01b03861693639e6eec059361253e937f0000000000000000000000000000000000000000000000000000000000000000938c938c9390929091600401614f32565b600060405180830381600087803b15801561255857600080fd5b505af115801561256c573d6000803e3d6000fd5b50505050838161257c9190614e04565b6040516370a0823160e01b81523060048201526001600160a01b038716906370a0823190602401602060405180830381865afa1580156125c0573d6000803e3d6000fd5b505050506040513d601f19601f820116820180604052508101906125e49190614c12565b146125f1576125f1614e17565b50611b5a565b60408051602080820183526000808352835191820184528082529251639e6eec0560e01b81526001600160a01b03851693639e6eec05938893612667937f0000000000000000000000000000000000000000000000000000000000000000938c9387939192909190600401614f32565b6000604051808303818588803b15801561268057600080fd5b505af1158015612694573d6000803e3d6000fd5b505050505050505050565b60007f00000000000000000000000000000000000000000000000000000000000000006001600160a01b0316826001600160a01b03161480156107b257507f00000000000000000000000000000000000000000000000000000000000000006001600160a01b03167f00000000000000000000000000000000000000000000000000000000000000006001600160a01b0316636e296e456040518163ffffffff1660e01b81526004016020604051808303816000875af1158015612767573d6000803e3d6000fd5b505050506040513d601f19601f8201168201806040525081019061278b9190614b67565b6001600160a01b03161492915050565b6001600160a01b0385166000908152600460209081526040808320600886901c8452909152902054600160ff84161b16156127ec5760405163ed9bdd0760e01b8152600481018390526024016108a1565b6001600160a01b0385166000908152600460209081526040808320600886901c845290915281208054600160ff86161b17905561285b61282d888787613f94565b6040805161040081810190925290859060209083908390808284376000920191909152508791506140df9050565b6001600160a01b0387166000908152600160208190526040909120015490915081146128c2576001600160a01b0386166000908152600160208190526040918290200154905163286f87c960e21b81526004810191909152602481018290526044016108a1565b50505050505050565b6000808060001985870985870292508281108382030391505080600003612905578382816128fb576128fb614f79565b0492505050611f23565b83811061293657604051630c740aef60e31b81526004810187905260248101869052604481018590526064016108a1565b600084868809600260036001881981018916988990049182028318808302840302808302840302808302840302808302840302808302840302918202909203026000889003889004909101858311909403939093029303949094049190911702949350505050565b604080516001600160a01b038416602482015260448082018490528251808303909101815260649091019091526020810180516001600160e01b031663095ea7b360e01b1790526129ef848261442d565b611b5a576040516001600160a01b03848116602483015260006044830152612a2491869182169063095ea7b390606401611f5f565b611b5a8482613ea1565b6020810154600090808203612a6557507f27ae5ba08d7291c96c8cbddcc148bf48a6d68c7974b94356f53754ef6171d75792915050565b6000836001831615612a8757805460005260006020526040600020935061333a565b6002831615612acc5760018101546000527fad3228b676f7d3cd4284a5443f17f1962b36e491b30a40b2405849e597ba5fb5602052604060002093506001915061333a565b6004831615612b115760028101546000527fb4c11951957c6f8f642c4af61cd6b24640fec6dc7fc607ee8206a99e92410d30602052604060002093506002915061333a565b6008831615612b565760038101546000527f21ddb9a356815c3fac1026b6dec5df3124afbadb485c9ba5a3e3398a04b7ba85602052604060002093506003915061333a565b6010831615612b9b5760048101546000527fe58769b32a1beaf1ea27375a44095a0d1fb664ce2dd358e7fcbfb78c26a19344602052604060002093506004915061333a565b6020831615612be05760058101546000527f0eb01ebfc9ed27500cd4dfc979272d1f0913cc9f66540d7e8005811109e1cf2d602052604060002093506005915061333a565b6040831615612c255760068101546000527f887c22bd8750d34016ac3c66b5ff102dacdd73f6b014e710b51e8022af9a1968602052604060002093506006915061333a565b6080831615612c6a5760078101546000527fffd70157e48063fc33c97a050f7f640233bf646cc98d9524c6b92bcf3ab56f83602052604060002093506007915061333a565b610100831615612cb05760088101546000527f9867cc5f7f196b93bae1e27e6320742445d290f2263827498b54fec539f756af602052604060002093506008915061333a565b610200831615612cf65760098101546000527fcefad4e508c098b9a7e1d8feb19955fb02ba9675585078710969d3440f5054e0602052604060002093506009915061333a565b610400831615612d3c57600a8101546000527ff9dc3e7fe016e050eff260334f18a5d4fe391d82092319f5964f2e2eb7c1c3a560205260406000209350600a915061333a565b610800831615612d8257600b8101546000527ff8b13a49e282f609c317a833fb8d976d11517c571d1221a265d25af778ecf89260205260406000209350600b915061333a565b611000831615612dc857600c8101546000527f3490c6ceeb450aecdc82e28293031d10c7d73bf85e57bf041a97360aa2c5d99c60205260406000209350600c915061333a565b612000831615612e0e57600d8101546000527fc1df82d9c4b87413eae2ef048f94b4d3554cea73d92b0f7af96e0271c691e2bb60205260406000209350600d915061333a565b614000831615612e5457600e8101546000527f5c67add7c6caf302256adedf7ab114da0acfe870d449a3a489f781d659e8becc60205260406000209350600e915061333a565b618000831615612e9a57600f8101546000527fda7bce9f4e8618b6bd2f4132ce798cdc7a60e7e1460a7299e3c6342a579626d260205260406000209350600f915061333a565b62010000831615612ee15760108101546000527f2733e50f526ec2fa19a22b31e8ed50f23cd1fdf94c9154ed3a7609a2f1ff981f602052604060002093506010915061333a565b62020000831615612f285760118101546000527fe1d3b5c807b281e4683cc6d6315cf95b9ade8641defcb32372f1c126e398ef7a602052604060002093506011915061333a565b62040000831615612f6f5760128101546000527f5a2dce0a8a7f68bb74560f8f71837c2c2ebbcbf7fffb42ae1896f13f7c7479a0602052604060002093506012915061333a565b62080000831615612fb65760138101546000527fb46a28b6f55540f89444f63de0378e3d121be09e06cc9ded1c20e65876d36aa0602052604060002093506013915061333a565b62100000831615612ffd5760148101546000527fc65e9645644786b620e2dd2ad648ddfcbf4a7e5b1a3a4ecfe7f64667a3f0b7e2602052604060002093506014915061333a565b622000008316156130445760158101546000527ff4418588ed35a2458cffeb39b93d26f18d2ab13bdce6aee58e7b99359ec2dfd9602052604060002093506015915061333a565b6240000083161561308b5760168101546000527f5a9c16dc00d6ef18b7933a6f8dc65ccb55667138776f7dea101070dc8796e377602052604060002093506016915061333a565b628000008316156130d25760178101546000527f4df84f40ae0c8229d0d6069e5c8f39a7c299677a09d367fc7b05e3bc380ee652602052604060002093506017915061333a565b630100000083161561311a5760188101546000527fcdc72595f74c7b1043d0e1ffbab734648c838dfb0527d971b602bc216c9619ef602052604060002093506018915061333a565b63020000008316156131625760198101546000527f0abf5ac974a1ed57f4050aa510dd9c74f508277b39d7973bb2dfccc5eeb0618d602052604060002093506019915061333a565b63040000008316156131aa57601a8101546000527fb8cd74046ff337f0a7bf2c8e03e10f642c1886798d71806ab1e888d9e5ee87d060205260406000209350601a915061333a565b63080000008316156131f257601b8101546000527f838c5655cb21c6cb83313b5a631175dff4963772cce9108188b34ac87c81c41e60205260406000209350601b915061333a565b631000000083161561323a57601c8101546000527f662ee4dd2dd7b2bc707961b1e646c4047669dcb6584f0d8d770daf5d7e7deb2e60205260406000209350601c915061333a565b632000000083161561328257601d8101546000527f388ab20e2573d171a88108e79d820e98f26c0b84aa8b2f4aa4968dbb818ea32260205260406000209350601d915061333a565b63400000008316156132ca57601e8101546000527f93237c50ba75ee485f4c22adf2f741400bdf8d6a9cc7df7ecae576221665d73560205260406000209350601e915061333a565b638000000083161561331257601f8101546000527f8448818bb4ae4562849e949e17ac16e0be16688e156b5cf15e098c627c0056a960205260406000209350601f915061333a565b7f27ae5ba08d7291c96c8cbddcc148bf48a6d68c7974b94356f53754ef6171d7579350602091505b601e8211613ddc576001821015613398576002831680156133665760018201546000528460205261338f565b846000527fad3228b676f7d3cd4284a5443f17f1962b36e491b30a40b2405849e597ba5fb56020525b50604060002093505b60028210156133ee576004831680156133bc576002820154600052846020526133e5565b846000527fb4c11951957c6f8f642c4af61cd6b24640fec6dc7fc607ee8206a99e92410d306020525b50604060002093505b6003821015613444576008831680156134125760038201546000528460205261343b565b846000527f21ddb9a356815c3fac1026b6dec5df3124afbadb485c9ba5a3e3398a04b7ba856020525b50604060002093505b600482101561349a5760108316801561346857600482015460005284602052613491565b846000527fe58769b32a1beaf1ea27375a44095a0d1fb664ce2dd358e7fcbfb78c26a193446020525b50604060002093505b60058210156134f0576020831680156134be576005820154600052846020526134e7565b846000527f0eb01ebfc9ed27500cd4dfc979272d1f0913cc9f66540d7e8005811109e1cf2d6020525b50604060002093505b6006821015613546576040831680156135145760068201546000528460205261353d565b846000527f887c22bd8750d34016ac3c66b5ff102dacdd73f6b014e710b51e8022af9a19686020525b50604060002093505b600782101561359c5760808316801561356a57600782015460005284602052613593565b846000527fffd70157e48063fc33c97a050f7f640233bf646cc98d9524c6b92bcf3ab56f836020525b50604060002093505b60088210156135f357610100831680156135c1576008820154600052846020526135ea565b846000527f9867cc5f7f196b93bae1e27e6320742445d290f2263827498b54fec539f756af6020525b50604060002093505b600982101561364a576102008316801561361857600982015460005284602052613641565b846000527fcefad4e508c098b9a7e1d8feb19955fb02ba9675585078710969d3440f5054e06020525b50604060002093505b600a8210156136a1576104008316801561366f57600a82015460005284602052613698565b846000527ff9dc3e7fe016e050eff260334f18a5d4fe391d82092319f5964f2e2eb7c1c3a56020525b50604060002093505b600b8210156136f857610800831680156136c657600b820154600052846020526136ef565b846000527ff8b13a49e282f609c317a833fb8d976d11517c571d1221a265d25af778ecf8926020525b50604060002093505b600c82101561374f576110008316801561371d57600c82015460005284602052613746565b846000527f3490c6ceeb450aecdc82e28293031d10c7d73bf85e57bf041a97360aa2c5d99c6020525b50604060002093505b600d8210156137a6576120008316801561377457600d8201546000528460205261379d565b846000527fc1df82d9c4b87413eae2ef048f94b4d3554cea73d92b0f7af96e0271c691e2bb6020525b50604060002093505b600e8210156137fd57614000831680156137cb57600e820154600052846020526137f4565b846000527f5c67add7c6caf302256adedf7ab114da0acfe870d449a3a489f781d659e8becc6020525b50604060002093505b600f821015613854576180008316801561382257600f8201546000528460205261384b565b846000527fda7bce9f4e8618b6bd2f4132ce798cdc7a60e7e1460a7299e3c6342a579626d26020525b50604060002093505b60108210156138ac57620100008316801561387a576010820154600052846020526138a3565b846000527f2733e50f526ec2fa19a22b31e8ed50f23cd1fdf94c9154ed3a7609a2f1ff981f6020525b50604060002093505b60118210156139045762020000831680156138d2576011820154600052846020526138fb565b846000527fe1d3b5c807b281e4683cc6d6315cf95b9ade8641defcb32372f1c126e398ef7a6020525b50604060002093505b601282101561395c57620400008316801561392a57601282015460005284602052613953565b846000527f5a2dce0a8a7f68bb74560f8f71837c2c2ebbcbf7fffb42ae1896f13f7c7479a06020525b50604060002093505b60138210156139b4576208000083168015613982576013820154600052846020526139ab565b846000527fb46a28b6f55540f89444f63de0378e3d121be09e06cc9ded1c20e65876d36aa06020525b50604060002093505b6014821015613a0c5762100000831680156139da57601482015460005284602052613a03565b846000527fc65e9645644786b620e2dd2ad648ddfcbf4a7e5b1a3a4ecfe7f64667a3f0b7e26020525b50604060002093505b6015821015613a64576220000083168015613a3257601582015460005284602052613a5b565b846000527ff4418588ed35a2458cffeb39b93d26f18d2ab13bdce6aee58e7b99359ec2dfd96020525b50604060002093505b6016821015613abc576240000083168015613a8a57601682015460005284602052613ab3565b846000527f5a9c16dc00d6ef18b7933a6f8dc65ccb55667138776f7dea101070dc8796e3776020525b50604060002093505b6017821015613b14576280000083168015613ae257601782015460005284602052613b0b565b846000527f4df84f40ae0c8229d0d6069e5c8f39a7c299677a09d367fc7b05e3bc380ee6526020525b50604060002093505b6018821015613b6d57630100000083168015613b3b57601882015460005284602052613b64565b846000527fcdc72595f74c7b1043d0e1ffbab734648c838dfb0527d971b602bc216c9619ef6020525b50604060002093505b6019821015613bc657630200000083168015613b9457601982015460005284602052613bbd565b846000527f0abf5ac974a1ed57f4050aa510dd9c74f508277b39d7973bb2dfccc5eeb0618d6020525b50604060002093505b601a821015613c1f57630400000083168015613bed57601a82015460005284602052613c16565b846000527fb8cd74046ff337f0a7bf2c8e03e10f642c1886798d71806ab1e888d9e5ee87d06020525b50604060002093505b601b821015613c7857630800000083168015613c4657601b82015460005284602052613c6f565b846000527f838c5655cb21c6cb83313b5a631175dff4963772cce9108188b34ac87c81c41e6020525b50604060002093505b601c821015613cd157631000000083168015613c9f57601c82015460005284602052613cc8565b846000527f662ee4dd2dd7b2bc707961b1e646c4047669dcb6584f0d8d770daf5d7e7deb2e6020525b50604060002093505b601d821015613d2a57632000000083168015613cf857601d82015460005284602052613d21565b846000527f388ab20e2573d171a88108e79d820e98f26c0b84aa8b2f4aa4968dbb818ea3226020525b50604060002093505b601e821015613d8357634000000083168015613d5157601e82015460005284602052613d7a565b846000527f93237c50ba75ee485f4c22adf2f741400bdf8d6a9cc7df7ecae576221665d7356020525b50604060002093505b601f821015613ddc57638000000083168015613daa57601f82015460005284602052613dd3565b846000527f8448818bb4ae4562849e949e17ac16e0be16688e156b5cf15e098c627c0056a96020525b50604060002093505b505050919050565b6000613df7826301ffc9a760e01b613e17565b80156107b25750613e10826001600160e01b0319613e17565b1592915050565b6040516001600160e01b031982166024820152600090819060440160408051601f19818403018152919052602080820180516001600160e01b03166301ffc9a760e01b178152825192935060009283928392909183918a617530fa92503d91506000519050828015613e8a575060208210155b8015613e965750600081115b979650505050505050565b6000613eb66001600160a01b038416836144d5565b90508051600014158015613edb575080806020019051810190613ed99190614c2b565b155b156107eb57604051635274afe760e01b81526001600160a01b03841660048201526024016108a1565b600061eeed196001600160a01b03841601613f2a57506001600160a01b038116316107b2565b6040516370a0823160e01b81526001600160a01b0383811660048301528416906370a0823190602401602060405180830381865afa158015613f70573d6000803e3d6000fd5b505050506040513d601f19601f82011682018060405250810190611f239190614c12565b60408051602081018590529081018390526001600160a01b03821660608201526000906080016040516020818303038152906040528051906020012090509392505050565b613fe161461a565b6000836020018051613ff290614f8f565b908190529050600161400660206002614df8565b6140109190614e04565b81111561403057604051638eab04bb60e01b815260040160405180910390fd5b60005b60208110156140c5578160011660010361406c5784518490826020811061405c5761405c614b2b565b6020020152508391506107b29050565b8451816020811061407f5761407f614b2b565b60200201518460405160200161409f929190918252602082015260400190565b60408051601f1981840301815291905280516020909101209350600191821c9101614033565b50604051638eab04bb60e01b815260040160405180910390fd5b6020600582811b8216948552835194820394909452604060008181206002851615871b808503919091528386015190528181206004851615871b808503919091528286015190528181206008851615871b80850391909152606086015190528181206010851615871b8085039190915260808087015190915282822084861615881b8086039190915260a0870151905282822083861615881b8086039190915260c0870151905282822090851615871b8085039190915260e0860151905281812061010080861615881b80860392909252860151905281812061020080861615881b80860392909252610120870151909152828220610400861615881b808603919091526101408701519052828220610800861615881b808603919091526101608701519052828220611000861615881b808603919091526101808701519052828220612000861615881b808603919091526101a08701519052828220614000861615881b808603919091526101c08701519052828220618000861615881b808603919091526101e0870151905282822062010000861615881b8086039190915290860151905281812062020000851615871b80850391909152610220860151905281812062040000851615871b80850391909152610240860151905281812062080000851615871b80850391909152610260860151905281812062100000851615871b80850391909152610280860151905281812062200000851615871b808503919091526102a0860151905281812062400000851615871b808503919091526102c0860151905281812062800000851615871b808503919091526102e086015190528181206301000000851615871b8085039190915261030086015190528181206302000000851615871b8085039190915261032086015190528181206304000000851615871b8085039190915261034086015190528181206308000000851615871b8085039190915261036086015190528181206310000000851615871b8085039190915261038086015190528181206320000000851615871b808503919091526103a086015190528181206340000000851615871b808503919091526103c0860151905281812063800000009094161590951b91829003929092526103e090920151909152902090565b6000806000846001600160a01b03168460405161444a9190614fa8565b6000604051808303816000865af19150503d8060008114614487576040519150601f19603f3d011682016040523d82523d6000602084013e61448c565b606091505b50915091508180156144b65750805115806144b65750808060200190518101906144b69190614c2b565b80156144cc57506000856001600160a01b03163b115b95945050505050565b6060611f238383600084600080856001600160a01b031684866040516144fb9190614fa8565b60006040518083038185875af1925050503d8060008114614538576040519150601f19603f3d011682016040523d82523d6000602084013e61453d565b606091505b509150915061454d868383614557565b9695505050505050565b60608261456c57614567826145b3565b611f23565b815115801561458357506001600160a01b0384163b155b156145ac57604051639996b31560e01b81526001600160a01b03851660048201526024016108a1565b5080611f23565b8051156145c35780518082602001fd5b604051630a12f52160e11b815260040160405180910390fd5b826020810192821561460a579160200282015b8281111561460a5782518255916020019190600101906145ef565b5061461692915061463a565b5090565b604051806040016040528061462d61464f565b8152602001600081525090565b5b80821115614616576000815560010161463b565b6040518061040001604052806020906020820280368337509192915050565b60006020828403121561468057600080fd5b81356001600160e01b031981168114611f2357600080fd5b600080602083850312156146ab57600080fd5b82356001600160401b03808211156146c257600080fd5b818501915085601f8301126146d657600080fd5b8135818111156146e557600080fd5b8660208260071b85010111156146fa57600080fd5b60209290920196919550909350505050565b60006080828403121561471e57600080fd5b50919050565b60006080828403121561473657600080fd5b611f23838361470c565b60006020828403121561475257600080fd5b81356001600160401b0381111561476857600080fd5b82016101808185031215611f2357600080fd5b60005b8381101561479657818101518382015260200161477e565b50506000910152565b600081518084526147b781602086016020860161477b565b601f01601f19169290920160200192915050565b6000604080830185845260206040818601528186518084526060935060608701915060608160051b88010183890160005b8381101561484c57898303605f19018552815180516001600160a01b0316845286810151878501528801518884018890526148398885018261479f565b95870195935050908501906001016147fc565b50909a9950505050505050505050565b6001600160a01b0381168114610f4b57600080fd5b6000806000806080858703121561488757600080fd5b8435935060208501356148998161485c565b92506040850135915060608501356148b08161485c565b939692955090935050565b600080604083850312156148ce57600080fd5b8235915060208301356148e08161485c565b809150509250929050565b6000602082840312156148fd57600080fd5b8135611f238161485c565b6001600160401b038416815260208082018490528251610460830191906000604085015b8382101561494a57825181529183019160019190910190830161492c565b505050506020830151610440830152949350505050565b60006020828403121561497357600080fd5b81356001600160401b0381111561498957600080fd5b82016101a08185031215611f2357600080fd5b60006080820186835260208681850152604086604086015260606080606087015283875180865260a08801915060a08160051b890101955084890160005b82811015614a2a57898803609f19018452815180516001600160a01b0316895287810151888a0152860151868901869052614a17868a018261479f565b98505092860192908601906001016149da565b50959c9b505050505050505050505050565b60006104a0828403121561471e57600080fd5b60008060208385031215614a6257600080fd5b82356001600160401b0380821115614a7957600080fd5b818501915085601f830112614a8d57600080fd5b813581811115614a9c57600080fd5b8660206104a0830285010111156146fa57600080fd5b634e487b7160e01b600052602160045260246000fd5b6020810160028310614aea57634e487b7160e01b600052602160045260246000fd5b91905290565b600060208284031215614b0257600080fd5b81356001600160401b03811115614b1857600080fd5b82016102008185031215611f2357600080fd5b634e487b7160e01b600052603260045260246000fd5b600060208284031215614b5357600080fd5b813563ffffffff81168114611f2357600080fd5b600060208284031215614b7957600080fd5b8151611f238161485c565b634e487b7160e01b600052601160045260246000fd5b808201808211156107b2576107b2614b84565b6001600160401b0381168114610f4b57600080fd5b600060208284031215614bd457600080fd5b8135611f2381614bad565b8135614bea81614bad565b6001600160401b0381166001600160401b031983541617825550602082013560018201555050565b600060208284031215614c2457600080fd5b5051919050565b600060208284031215614c3d57600080fd5b81518015158114611f2357600080fd5b60405161012081016001600160401b0381118282101715614c7e57634e487b7160e01b600052604160045260246000fd5b60405290565b8051614c8f8161485c565b919050565b60006101208284031215614ca757600080fd5b614caf614c4d565b825181526020830151602082015260408301516040820152606083015160608201526080830151608082015260a083015160a082015260c083015160c0820152614cfb60e08401614c84565b60e0820152610100928301519281019290925250919050565b600181815b80851115614d4f578160001904821115614d3557614d35614b84565b80851615614d4257918102915b93841c9390800290614d19565b509250929050565b600082614d66575060016107b2565b81614d73575060006107b2565b8160018114614d895760028114614d9357614daf565b60019150506107b2565b60ff841115614da457614da4614b84565b50506001821b6107b2565b5060208310610133831016604e8410600b8410161715614dd2575081810a6107b2565b614ddc8383614d14565b8060001904821115614df057614df0614b84565b029392505050565b6000611f238383614d57565b818103818111156107b2576107b2614b84565b634e487b7160e01b600052600160045260246000fd5b60006001600160401b03808316818103614e4957614e49614b84565b6001019392505050565b6001600160a01b0387811682528681166020830152851660408201526060810184905263ffffffff8316608082015260c060a08201819052600090614e9a9083018461479f565b98975050505050505050565b6001600160a01b0384168152606060208201819052600090614eca9083018561479f565b905063ffffffff83166040830152949350505050565b600060018060a01b03808a168352886020840152808816604084015286606084015285608084015280851660a08401525060e060c0830152614f2560e083018461479f565b9998505050505050505050565b86815260018060a01b0386166020820152846040820152831515606082015260c060808201526000614f6760c083018561479f565b82810360a0840152614f25818561479f565b634e487b7160e01b600052601260045260246000fd5b600060018201614fa157614fa1614b84565b5060010190565b60008251614fba81846020870161477b565b919091019291505056fea26469706673582212208714ceb1bc7a9eb8cee93b01971eeaf216aecef7f7dc417297a3a7e9df225bcc64736f6c63430008170033a2646970667358221220eca34b482119d0e8b06779479c60d0c95657445fd459f5cd91721eaea86a63d164736f6c63430008170033",
			"devdoc": {
				"kind": "dev",
				"methods": {
					"createForSender(uint256,bytes32)": {
						"details": "Uses the sender address as the salt, which means the same sender must call this function on both chains.",
						"params": {
							"localProjectId": "The project's ID on the local chain.",
							"salt": "The salt to use for the `create2` address."
						},
						"returns": {
							"sucker": "The address of the new sucker."
						}
					},
					"useAllowanceFeeless(uint256,address,address,uint32,uint256,uint256)": {
						"details": "This function can only be called by suckers deployed by this contract.This function can only be called by suckers with `JBPermissionIds.USE_ALLOWANCE` permission from the project's owner.This function is not necessarily feeless, as it still requires JuiceboxDAO to set the address as feeless.",
						"params": {
							"amount": "The amount to use from the terminal, denominated in the `currency`.",
							"currency": "The currency that the `amount` is denominated in.",
							"minReceivedTokens": "The minimum amount of terminal tokens to receive. If the terminal returns less than this amount, the transaction will revert.",
							"projectId": "The project's ID.",
							"terminal": "The terminal to use the surplus allowance from.",
							"token": "The token that the surplus is in."
						},
						"returns": {
							"_0": "The amount of tokens received."
						}
					}
				},
				"version": 1
			},
			"userdoc": {
				"kind": "user",
				"methods": {
					"BRIDGE()": {
						"notice": "The bridge used to bridge tokens between the local and remote chain."
					},
					"MESSENGER()": {
						"notice": "The messenger used to send messages between the local and remote sucker."
					},
					"PERMISSIONS()": {
						"notice": "A contract storing permissions."
					},
					"createForSender(uint256,bytes32)": {
						"notice": "Create a new `BPSucker` for a specific project."
					},
					"isSucker(address)": {
						"notice": "A mapping of suckers deployed by this contract."
					},
					"useAllowanceFeeless(uint256,address,address,uint32,uint256,uint256)": {
						"notice": "Use a project's surplus allowance without paying exit fees."
					}
				},
				"version": 1
			},
			"gitCommit": "0a60f0f31058251fdf5ff5d9eae86ae30e88f8cb",
			"sourceName": "src/deployers/BPOptimismSuckerDeployer.sol",
			"chainId": "11155420",
			"linkReferences": {},
			"deployedLinkReferences": {}
		},
		{
			"_format": "sphinx-sol-ct-artifact-1",
			"merkleRoot": "0xb87e1e79df3f8d79c0214f4d67229a49adde87fcb419e3f569611241bb285dea",
			"contractName": "BPOptimismSuckerDeployer",
			"address": "0x4138AF5EDBD3b25493c1f9e094f9733771e816E0",
			"abi": [
				{
					"type": "constructor",
					"inputs": [
						{
							"name": "prices",
							"type": "address",
							"internalType": "contract IJBPrices"
						},
						{
							"name": "rulesets",
							"type": "address",
							"internalType": "contract IJBRulesets"
						},
						{
							"name": "directory",
							"type": "address",
							"internalType": "contract IJBDirectory"
						},
						{
							"name": "tokens",
							"type": "address",
							"internalType": "contract IJBTokens"
						},
						{
							"name": "permissions",
							"type": "address",
							"internalType": "contract IJBPermissions"
						}
					],
					"stateMutability": "nonpayable"
				},
				{
					"type": "function",
					"name": "BRIDGE",
					"inputs": [],
					"outputs": [
						{
							"name": "",
							"type": "address",
							"internalType": "contract OPStandardBridge"
						}
					],
					"stateMutability": "view"
				},
				{
					"type": "function",
					"name": "MESSENGER",
					"inputs": [],
					"outputs": [
						{
							"name": "",
							"type": "address",
							"internalType": "contract OPMessenger"
						}
					],
					"stateMutability": "view"
				},
				{
					"type": "function",
					"name": "PERMISSIONS",
					"inputs": [],
					"outputs": [
						{
							"name": "",
							"type": "address",
							"internalType": "contract IJBPermissions"
						}
					],
					"stateMutability": "view"
				},
				{
					"type": "function",
					"name": "configureLayerSpecific",
					"inputs": [
						{
							"name": "messenger",
							"type": "address",
							"internalType": "contract OPMessenger"
						},
						{
							"name": "bridge",
							"type": "address",
							"internalType": "contract OPStandardBridge"
						}
					],
					"outputs": [],
					"stateMutability": "nonpayable"
				},
				{
					"type": "function",
					"name": "createForSender",
					"inputs": [
						{
							"name": "localProjectId",
							"type": "uint256",
							"internalType": "uint256"
						},
						{
							"name": "salt",
							"type": "bytes32",
							"internalType": "bytes32"
						}
					],
					"outputs": [
						{
							"name": "sucker",
							"type": "address",
							"internalType": "contract IBPSucker"
						}
					],
					"stateMutability": "nonpayable"
				},
				{
					"type": "function",
					"name": "isSucker",
					"inputs": [
						{
							"name": "",
							"type": "address",
							"internalType": "address"
						}
					],
					"outputs": [
						{
							"name": "",
							"type": "bool",
							"internalType": "bool"
						}
					],
					"stateMutability": "view"
				},
				{
					"type": "function",
					"name": "useAllowanceFeeless",
					"inputs": [
						{
							"name": "projectId",
							"type": "uint256",
							"internalType": "uint256"
						},
						{
							"name": "terminal",
							"type": "address",
							"internalType": "contract IJBPayoutTerminal"
						},
						{
							"name": "token",
							"type": "address",
							"internalType": "address"
						},
						{
							"name": "currency",
							"type": "uint32",
							"internalType": "uint32"
						},
						{
							"name": "amount",
							"type": "uint256",
							"internalType": "uint256"
						},
						{
							"name": "minReceivedTokens",
							"type": "uint256",
							"internalType": "uint256"
						}
					],
					"outputs": [
						{
							"name": "",
							"type": "uint256",
							"internalType": "uint256"
						}
					],
					"stateMutability": "nonpayable"
				},
				{
					"type": "error",
					"name": "ALREADY_CONFIGURED",
					"inputs": []
				},
				{
					"type": "error",
					"name": "ONLY_SUCKERS",
					"inputs": []
				},
				{
					"type": "error",
					"name": "UNAUTHORIZED",
					"inputs": []
				}
			],
			"solcInputHash": "73a05e6763b454197df9834b96c1fc1e",
			"receipt": {
				"blockHash": "0x155335e61bf1d307611e4f7888a93eef7150d3729a463de3f3d008f2ef5040a8",
				"blockNumber": 9544594,
				"contractAddress": null,
				"cumulativeGasUsed": "6960697",
				"from": "0xC034550B542b83BA1De312b21d1C94a9a52B1595",
				"gasPrice": "1000252",
				"gasUsed": "6873692",
				"hash": "0xfe29f5f5b81d3ea978cc3f99c4f15e64d1a920b04ab624624024e07a312765e8",
				"index": 2,
				"logs": [
					{
						"address": "0xB5E96127D417b1B3ef8438496a38A143167209c7",
						"blockHash": "0x155335e61bf1d307611e4f7888a93eef7150d3729a463de3f3d008f2ef5040a8",
						"blockNumber": 9544594,
						"data": "0x0000000000000000000000000000000000000000000000000000000000000000",
						"index": 1,
						"topics": [
							"0x572f161235911da04685a68c06adf558fc7e4a36909dca394650e0adc19cc93d",
							"0x000000000000000000000000c034550b542b83ba1de312b21d1c94a9a52b1595",
							"0x0000000000000000000000002251543da4a5ef946705b931c7e8b74756764a18",
							"0x5fc2880fd02c1fe654445d50e30cacff6cdb056c33f052ff7b2c5623bc7ebd93"
						],
						"transactionHash": "0xfe29f5f5b81d3ea978cc3f99c4f15e64d1a920b04ab624624024e07a312765e8",
						"transactionIndex": 2
					},
					{
						"address": "0x6a65B75A3f37C6702A117Fb87B6bCaC62657d216",
						"blockHash": "0x155335e61bf1d307611e4f7888a93eef7150d3729a463de3f3d008f2ef5040a8",
						"blockNumber": 9544594,
						"data": "0x",
						"index": 2,
						"topics": [
							"0x6895c13664aa4f67288b25d7a21d7aaa34916e355fb9b6fae0a139a9085becb8",
							"0x0000000000000000000000002251543da4a5ef946705b931c7e8b74756764a18"
						],
						"transactionHash": "0xfe29f5f5b81d3ea978cc3f99c4f15e64d1a920b04ab624624024e07a312765e8",
						"transactionIndex": 2
					},
					{
						"address": "0x2251543Da4A5eF946705B931C7e8b74756764a18",
						"blockHash": "0x155335e61bf1d307611e4f7888a93eef7150d3729a463de3f3d008f2ef5040a8",
						"blockNumber": 9544594,
						"data": "0x0000000000000000000000000000000000000000000000000000000000000001",
						"index": 3,
						"topics": [
							"0xa65fb05c5808f5f389d72edeaf719ce38f4cc55c1f69ca3cbfb31c21501caa07",
							"0xb87e1e79df3f8d79c0214f4d67229a49adde87fcb419e3f569611241bb285dea"
						],
						"transactionHash": "0xfe29f5f5b81d3ea978cc3f99c4f15e64d1a920b04ab624624024e07a312765e8",
						"transactionIndex": 2
					},
					{
						"address": "0x6a65B75A3f37C6702A117Fb87B6bCaC62657d216",
						"blockHash": "0x155335e61bf1d307611e4f7888a93eef7150d3729a463de3f3d008f2ef5040a8",
						"blockNumber": 9544594,
						"data": "0x",
						"index": 4,
						"topics": [
							"0x6895c13664aa4f67288b25d7a21d7aaa34916e355fb9b6fae0a139a9085becb8",
							"0x0000000000000000000000002251543da4a5ef946705b931c7e8b74756764a18"
						],
						"transactionHash": "0xfe29f5f5b81d3ea978cc3f99c4f15e64d1a920b04ab624624024e07a312765e8",
						"transactionIndex": 2
					},
					{
						"address": "0x2251543Da4A5eF946705B931C7e8b74756764a18",
						"blockHash": "0x155335e61bf1d307611e4f7888a93eef7150d3729a463de3f3d008f2ef5040a8",
						"blockNumber": 9544594,
						"data": "0x0000000000000000000000000000000000000000000000000000000000000002",
						"index": 5,
						"topics": [
							"0xa65fb05c5808f5f389d72edeaf719ce38f4cc55c1f69ca3cbfb31c21501caa07",
							"0xb87e1e79df3f8d79c0214f4d67229a49adde87fcb419e3f569611241bb285dea"
						],
						"transactionHash": "0xfe29f5f5b81d3ea978cc3f99c4f15e64d1a920b04ab624624024e07a312765e8",
						"transactionIndex": 2
					},
					{
						"address": "0x5c94828C12604A92f39C6974f4cD964a702B81Dc",
						"blockHash": "0x155335e61bf1d307611e4f7888a93eef7150d3729a463de3f3d008f2ef5040a8",
						"blockNumber": 9544594,
						"data": "0x",
						"index": 6,
						"topics": [
							"0x8be0079c531659141344cd1fd0a4f28419497f9722a3daafe3b4186f6b6457e0",
							"0x0000000000000000000000004e59b44847b379578588920ca78fbf26c0b4956c",
							"0x0000000000000000000000006a65b75a3f37c6702a117fb87b6bcac62657d216"
						],
						"transactionHash": "0xfe29f5f5b81d3ea978cc3f99c4f15e64d1a920b04ab624624024e07a312765e8",
						"transactionIndex": 2
					},
					{
						"address": "0x6a65B75A3f37C6702A117Fb87B6bCaC62657d216",
						"blockHash": "0x155335e61bf1d307611e4f7888a93eef7150d3729a463de3f3d008f2ef5040a8",
						"blockNumber": 9544594,
						"data": "0x",
						"index": 7,
						"topics": [
							"0x6895c13664aa4f67288b25d7a21d7aaa34916e355fb9b6fae0a139a9085becb8",
							"0x0000000000000000000000002251543da4a5ef946705b931c7e8b74756764a18"
						],
						"transactionHash": "0xfe29f5f5b81d3ea978cc3f99c4f15e64d1a920b04ab624624024e07a312765e8",
						"transactionIndex": 2
					},
					{
						"address": "0x2251543Da4A5eF946705B931C7e8b74756764a18",
						"blockHash": "0x155335e61bf1d307611e4f7888a93eef7150d3729a463de3f3d008f2ef5040a8",
						"blockNumber": 9544594,
						"data": "0x0000000000000000000000000000000000000000000000000000000000000003",
						"index": 8,
						"topics": [
							"0xa65fb05c5808f5f389d72edeaf719ce38f4cc55c1f69ca3cbfb31c21501caa07",
							"0xb87e1e79df3f8d79c0214f4d67229a49adde87fcb419e3f569611241bb285dea"
						],
						"transactionHash": "0xfe29f5f5b81d3ea978cc3f99c4f15e64d1a920b04ab624624024e07a312765e8",
						"transactionIndex": 2
					},
					{
						"address": "0x5c94828C12604A92f39C6974f4cD964a702B81Dc",
						"blockHash": "0x155335e61bf1d307611e4f7888a93eef7150d3729a463de3f3d008f2ef5040a8",
						"blockNumber": 9544594,
						"data": "0x0000000000000000000000004138af5edbd3b25493c1f9e094f9733771e816e0",
						"index": 9,
						"topics": [
							"0xf6e6facda29906a01d337146a9b928ac09b423901f28e0e001d43550448b370b"
						],
						"transactionHash": "0xfe29f5f5b81d3ea978cc3f99c4f15e64d1a920b04ab624624024e07a312765e8",
						"transactionIndex": 2
					},
					{
						"address": "0x6a65B75A3f37C6702A117Fb87B6bCaC62657d216",
						"blockHash": "0x155335e61bf1d307611e4f7888a93eef7150d3729a463de3f3d008f2ef5040a8",
						"blockNumber": 9544594,
						"data": "0x",
						"index": 10,
						"topics": [
							"0x6895c13664aa4f67288b25d7a21d7aaa34916e355fb9b6fae0a139a9085becb8",
							"0x0000000000000000000000002251543da4a5ef946705b931c7e8b74756764a18"
						],
						"transactionHash": "0xfe29f5f5b81d3ea978cc3f99c4f15e64d1a920b04ab624624024e07a312765e8",
						"transactionIndex": 2
					},
					{
						"address": "0x2251543Da4A5eF946705B931C7e8b74756764a18",
						"blockHash": "0x155335e61bf1d307611e4f7888a93eef7150d3729a463de3f3d008f2ef5040a8",
						"blockNumber": 9544594,
						"data": "0x0000000000000000000000000000000000000000000000000000000000000004",
						"index": 11,
						"topics": [
							"0xa65fb05c5808f5f389d72edeaf719ce38f4cc55c1f69ca3cbfb31c21501caa07",
							"0xb87e1e79df3f8d79c0214f4d67229a49adde87fcb419e3f569611241bb285dea"
						],
						"transactionHash": "0xfe29f5f5b81d3ea978cc3f99c4f15e64d1a920b04ab624624024e07a312765e8",
						"transactionIndex": 2
					},
					{
						"address": "0x6a65B75A3f37C6702A117Fb87B6bCaC62657d216",
						"blockHash": "0x155335e61bf1d307611e4f7888a93eef7150d3729a463de3f3d008f2ef5040a8",
						"blockNumber": 9544594,
						"data": "0x",
						"index": 12,
						"topics": [
							"0x6895c13664aa4f67288b25d7a21d7aaa34916e355fb9b6fae0a139a9085becb8",
							"0x0000000000000000000000002251543da4a5ef946705b931c7e8b74756764a18"
						],
						"transactionHash": "0xfe29f5f5b81d3ea978cc3f99c4f15e64d1a920b04ab624624024e07a312765e8",
						"transactionIndex": 2
					},
					{
						"address": "0x2251543Da4A5eF946705B931C7e8b74756764a18",
						"blockHash": "0x155335e61bf1d307611e4f7888a93eef7150d3729a463de3f3d008f2ef5040a8",
						"blockNumber": 9544594,
						"data": "0x0000000000000000000000000000000000000000000000000000000000000005",
						"index": 13,
						"topics": [
							"0xa65fb05c5808f5f389d72edeaf719ce38f4cc55c1f69ca3cbfb31c21501caa07",
							"0xb87e1e79df3f8d79c0214f4d67229a49adde87fcb419e3f569611241bb285dea"
						],
						"transactionHash": "0xfe29f5f5b81d3ea978cc3f99c4f15e64d1a920b04ab624624024e07a312765e8",
						"transactionIndex": 2
					},
					{
						"address": "0x2251543Da4A5eF946705B931C7e8b74756764a18",
						"blockHash": "0x155335e61bf1d307611e4f7888a93eef7150d3729a463de3f3d008f2ef5040a8",
						"blockNumber": 9544594,
						"data": "0x",
						"index": 14,
						"topics": [
							"0x4383d976757d67ca920616be0b6430a681ea9d3dcce8d6d61d4603ca4a9bff63",
							"0xb87e1e79df3f8d79c0214f4d67229a49adde87fcb419e3f569611241bb285dea"
						],
						"transactionHash": "0xfe29f5f5b81d3ea978cc3f99c4f15e64d1a920b04ab624624024e07a312765e8",
						"transactionIndex": 2
					}
				],
				"logsBloom": "0x0000000008001008000000000008002000020000404800000080000000400000000000000800000004000000004001000000000000000000000000000000000000000000000020000000000000000000000100000000000000000400000800000000000000000040000000000000000020000000000000000000000000000040000000000000000000010000000400000000000000300000000000000000000000c000800011000000001000000000020208000000000000000000000004000000000000400000000008040008000000000000000002000000000000000002000000000000000008000000000000000280000000000020000000000208000000",
				"status": 1,
				"to": "0xB5E96127D417b1B3ef8438496a38A143167209c7"
			},
			"metadata": "{\"compiler\":{\"version\":\"0.8.23+commit.f704f362\"},\"language\":\"Solidity\",\"output\":{\"abi\":[{\"inputs\":[{\"internalType\":\"contract IJBPrices\",\"name\":\"prices\",\"type\":\"address\"},{\"internalType\":\"contract IJBRulesets\",\"name\":\"rulesets\",\"type\":\"address\"},{\"internalType\":\"contract IJBDirectory\",\"name\":\"directory\",\"type\":\"address\"},{\"internalType\":\"contract IJBTokens\",\"name\":\"tokens\",\"type\":\"address\"},{\"internalType\":\"contract IJBPermissions\",\"name\":\"permissions\",\"type\":\"address\"}],\"stateMutability\":\"nonpayable\",\"type\":\"constructor\"},{\"inputs\":[],\"type\":\"error\",\"name\":\"ALREADY_CONFIGURED\"},{\"inputs\":[],\"type\":\"error\",\"name\":\"ONLY_SUCKERS\"},{\"inputs\":[],\"type\":\"error\",\"name\":\"UNAUTHORIZED\"},{\"inputs\":[],\"stateMutability\":\"view\",\"type\":\"function\",\"name\":\"BRIDGE\",\"outputs\":[{\"internalType\":\"contract OPStandardBridge\",\"name\":\"\",\"type\":\"address\"}]},{\"inputs\":[],\"stateMutability\":\"view\",\"type\":\"function\",\"name\":\"MESSENGER\",\"outputs\":[{\"internalType\":\"contract OPMessenger\",\"name\":\"\",\"type\":\"address\"}]},{\"inputs\":[],\"stateMutability\":\"view\",\"type\":\"function\",\"name\":\"PERMISSIONS\",\"outputs\":[{\"internalType\":\"contract IJBPermissions\",\"name\":\"\",\"type\":\"address\"}]},{\"inputs\":[{\"internalType\":\"contract OPMessenger\",\"name\":\"messenger\",\"type\":\"address\"},{\"internalType\":\"contract OPStandardBridge\",\"name\":\"bridge\",\"type\":\"address\"}],\"stateMutability\":\"nonpayable\",\"type\":\"function\",\"name\":\"configureLayerSpecific\"},{\"inputs\":[{\"internalType\":\"uint256\",\"name\":\"localProjectId\",\"type\":\"uint256\"},{\"internalType\":\"bytes32\",\"name\":\"salt\",\"type\":\"bytes32\"}],\"stateMutability\":\"nonpayable\",\"type\":\"function\",\"name\":\"createForSender\",\"outputs\":[{\"internalType\":\"contract IBPSucker\",\"name\":\"sucker\",\"type\":\"address\"}]},{\"inputs\":[{\"internalType\":\"address\",\"name\":\"\",\"type\":\"address\"}],\"stateMutability\":\"view\",\"type\":\"function\",\"name\":\"isSucker\",\"outputs\":[{\"internalType\":\"bool\",\"name\":\"\",\"type\":\"bool\"}]},{\"inputs\":[{\"internalType\":\"uint256\",\"name\":\"projectId\",\"type\":\"uint256\"},{\"internalType\":\"contract IJBPayoutTerminal\",\"name\":\"terminal\",\"type\":\"address\"},{\"internalType\":\"address\",\"name\":\"token\",\"type\":\"address\"},{\"internalType\":\"uint32\",\"name\":\"currency\",\"type\":\"uint32\"},{\"internalType\":\"uint256\",\"name\":\"amount\",\"type\":\"uint256\"},{\"internalType\":\"uint256\",\"name\":\"minReceivedTokens\",\"type\":\"uint256\"}],\"stateMutability\":\"nonpayable\",\"type\":\"function\",\"name\":\"useAllowanceFeeless\",\"outputs\":[{\"internalType\":\"uint256\",\"name\":\"\",\"type\":\"uint256\"}]}],\"devdoc\":{\"kind\":\"dev\",\"methods\":{\"createForSender(uint256,bytes32)\":{\"details\":\"Uses the sender address as the salt, which means the same sender must call this function on both chains.\",\"params\":{\"localProjectId\":\"The project's ID on the local chain.\",\"salt\":\"The salt to use for the `create2` address.\"},\"returns\":{\"sucker\":\"The address of the new sucker.\"}},\"useAllowanceFeeless(uint256,address,address,uint32,uint256,uint256)\":{\"details\":\"This function can only be called by suckers deployed by this contract.This function can only be called by suckers with `JBPermissionIds.USE_ALLOWANCE` permission from the project's owner.This function is not necessarily feeless, as it still requires JuiceboxDAO to set the address as feeless.\",\"params\":{\"amount\":\"The amount to use from the terminal, denominated in the `currency`.\",\"currency\":\"The currency that the `amount` is denominated in.\",\"minReceivedTokens\":\"The minimum amount of terminal tokens to receive. If the terminal returns less than this amount, the transaction will revert.\",\"projectId\":\"The project's ID.\",\"terminal\":\"The terminal to use the surplus allowance from.\",\"token\":\"The token that the surplus is in.\"},\"returns\":{\"_0\":\"The amount of tokens received.\"}}},\"version\":1},\"userdoc\":{\"kind\":\"user\",\"methods\":{\"BRIDGE()\":{\"notice\":\"The bridge used to bridge tokens between the local and remote chain.\"},\"MESSENGER()\":{\"notice\":\"The messenger used to send messages between the local and remote sucker.\"},\"PERMISSIONS()\":{\"notice\":\"A contract storing permissions.\"},\"createForSender(uint256,bytes32)\":{\"notice\":\"Create a new `BPSucker` for a specific project.\"},\"isSucker(address)\":{\"notice\":\"A mapping of suckers deployed by this contract.\"},\"useAllowanceFeeless(uint256,address,address,uint32,uint256,uint256)\":{\"notice\":\"Use a project's surplus allowance without paying exit fees.\"}},\"version\":1}},\"settings\":{\"remappings\":[\"@arbitrum/=node_modules/@arbitrum/\",\"@bananapus/=node_modules/@bananapus/\",\"@chainlink/=node_modules/@chainlink/\",\"@eth-optimism/=node_modules/@eth-optimism/\",\"@gnosis.pm/=node_modules/@gnosis.pm/\",\"@offchainlabs/=node_modules/@offchainlabs/\",\"@openzeppelin/=node_modules/@openzeppelin/\",\"@prb/=node_modules/@prb/\",\"@sphinx-labs/contracts/=node_modules/@sphinx-labs/contracts/contracts/foundry/\",\"@uniswap/=node_modules/@uniswap/\",\"ds-test/=lib/forge-std/lib/ds-test/src/\",\"forge-std/=lib/forge-std/src/\",\"hardhat/=node_modules/hardhat/\",\"solmate/=node_modules/solmate/\",\"sphinx-forge-std/=node_modules/sphinx-forge-std/\",\"sphinx-solmate/=node_modules/sphinx-solmate/\",\"sphinx/=lib/sphinx/packages/contracts/contracts/forge-std/src/\"],\"optimizer\":{\"enabled\":true,\"runs\":200},\"metadata\":{\"bytecodeHash\":\"ipfs\"},\"compilationTarget\":{\"src/deployers/BPOptimismSuckerDeployer.sol\":\"BPOptimismSuckerDeployer\"},\"evmVersion\":\"paris\",\"libraries\":{}},\"sources\":{\"node_modules/@bananapus/core/src/abstract/JBPermissioned.sol\":{\"keccak256\":\"0xbe593894bc9893f7fe5c96f14c013add8f50df762538e3d7cb96ed39ad195664\",\"urls\":[\"bzz-raw://efb81264b24776e6be537680abaeb8c4893e70d8a62231748d860e25a7c2340d\",\"dweb:/ipfs/QmacN9gFgPqkhTEwRD7Zben3whq9DRr2ZkSmScGvioTXXR\"],\"license\":\"MIT\"},\"node_modules/@bananapus/core/src/enums/JBApprovalStatus.sol\":{\"keccak256\":\"0x61c69b6bac7d24b566d87cda23a77e4ca9cdb87200b106aba8534cb9a0973e33\",\"urls\":[\"bzz-raw://6a9ca7249de76f77a8252eefe6bd1b63d47952f25a2acfa2c8db967cdff4470c\",\"dweb:/ipfs/QmaxSxptRQNj8bNy96EreENmrnRWdKmhyihBcxyWzBX5BN\"],\"license\":\"MIT\"},\"node_modules/@bananapus/core/src/interfaces/IJBControlled.sol\":{\"keccak256\":\"0x79fb8de7b3f809f1c3c7189f578b7331ec4dfe3350151d5b50240ecb3a2a907b\",\"urls\":[\"bzz-raw://45c82240dd4f0e9aec00d0d86f6b44bdda231db098ebdac17e922771b3e6f342\",\"dweb:/ipfs/QmPUvT8HZeVenrZDpP14HsZofaXPJjih8UAd35rTg3tU7E\"],\"license\":\"MIT\"},\"node_modules/@bananapus/core/src/interfaces/IJBController.sol\":{\"keccak256\":\"0xfe88b4ddf528542fde8f8fcc650281f48ca291d5432ec3f02cf8f064ecd79b22\",\"urls\":[\"bzz-raw://f71da06a55abca8cdcc447fd554df2fa2377a276679b2113f2cec8db635d70a4\",\"dweb:/ipfs/QmT3H3aWByCVVAhiB1DrPuG1Scm4GtyXWVcEP1p7GCmVJA\"],\"license\":\"MIT\"},\"node_modules/@bananapus/core/src/interfaces/IJBDirectory.sol\":{\"keccak256\":\"0xd15957cc32974cde4f9f194b92574df2ad8a7aeec049d947136ce3381f9145f6\",\"urls\":[\"bzz-raw://7543e5cbde75ff777b16067016ff9ac5e995752842f03662137eb4ef3fc3c868\",\"dweb:/ipfs/QmPJZAmqNKRcj1JQ4Kc9hExbMtPPzrRB5hZ787utCfBmXg\"],\"license\":\"MIT\"},\"node_modules/@bananapus/core/src/interfaces/IJBDirectoryAccessControl.sol\":{\"keccak256\":\"0x1e67f56849320a46f834aaa9bd62b170ff8ada7b224b4a81136193740fa0be4d\",\"urls\":[\"bzz-raw://ea8fbcec44abfe49d137bcae129b67e5479d6b17879301f88534c8a7fab00be4\",\"dweb:/ipfs/QmT6wrtYX4GRpffHUzupNwYebJ1dqkkKZLEewWsoyunsqw\"],\"license\":\"MIT\"},\"node_modules/@bananapus/core/src/interfaces/IJBFundAccessLimits.sol\":{\"keccak256\":\"0x2a2ece23837bedde2fddb728476e558bc37c644f641d397a8e08e8a1a85ea390\",\"urls\":[\"bzz-raw://f44187b5a720cdbe5af325331a5e351fc8504853836fb54b997c597949246726\",\"dweb:/ipfs/QmSKM2aMpnof458iCeui2Wkf7S8FfBRGs9zF3QG5DJLf7C\"],\"license\":\"MIT\"},\"node_modules/@bananapus/core/src/interfaces/IJBMigratable.sol\":{\"keccak256\":\"0xd69bd5aba01a68d82c303ef3adde47532abcace030a94296c3ea6988b401789c\",\"urls\":[\"bzz-raw://88f11a1c89899327746beba4fc830abf3ac2eb9c152c778e884a6eed6564971f\",\"dweb:/ipfs/QmTpKhSTVewpz7VyKcz6BJwH2LFKMwT7Qi5HNWmjEjwsdK\"],\"license\":\"MIT\"},\"node_modules/@bananapus/core/src/interfaces/IJBPayHook.sol\":{\"keccak256\":\"0xe24aa2ca52f7a5f24f24ccae101cfc94d0f76705b2d23222f87c7852f8be4267\",\"urls\":[\"bzz-raw://6888140e9a7d4156fd22635654d5d08e21819af8b0356b5415f37b75083b3eb9\",\"dweb:/ipfs/QmbuwBNhar7rEbRhTJPiyo5PVsfaM5nqLow9NAkHhyvjV5\"],\"license\":\"MIT\"},\"node_modules/@bananapus/core/src/interfaces/IJBPermissioned.sol\":{\"keccak256\":\"0x5b038d4dee116584e88b230920e56d48e135053e3f7e5642eaea14a775c1dad7\",\"urls\":[\"bzz-raw://19e43102f349fd4a1da1c0943ffb8f2950007fe4bb4bb7e8f74fc142575d091b\",\"dweb:/ipfs/QmXHAt4KzDTdDZgDDefEXH2WKi7NcfkJb9R7nxW5uDqsNp\"],\"license\":\"MIT\"},\"node_modules/@bananapus/core/src/interfaces/IJBPermissions.sol\":{\"keccak256\":\"0x18870e500edf0fbadc353e273a5574701fb80466376b908c65e7cc3f11044d4d\",\"urls\":[\"bzz-raw://352a47c45853aec80e7acf0d286ade3106eb4cb456776b28a3c2f3f1091bed90\",\"dweb:/ipfs/QmQeYd3YbudYZy2hfbfht9kwhxhw4tuuLKMEYy9UY6dcSy\"],\"license\":\"MIT\"},\"node_modules/@bananapus/core/src/interfaces/IJBPriceFeed.sol\":{\"keccak256\":\"0x4bd84c0f1a5d4729ed709bcddd43f4c50ec4a165ece79780af8dce482ed07d4a\",\"urls\":[\"bzz-raw://62bac4bfb6982fb002f620c77e5c445e62d50241a5aa64a07e51d929f5a42180\",\"dweb:/ipfs/QmWgJUDreVY2BuMX38a1iUUR5kNbMwGnKG3VvurB7oZtuM\"],\"license\":\"MIT\"},\"node_modules/@bananapus/core/src/interfaces/IJBPrices.sol\":{\"keccak256\":\"0x99525f31440b955742dce84ba57de9fc1221139b5367c1f834723bef9e13e6e1\",\"urls\":[\"bzz-raw://6fa03f0cd4ad87dd7cbae7bf7f54463450874291773c8f70f2c31ef2cae62bb0\",\"dweb:/ipfs/QmSPajPV5ismteJuB6Spzm9VmhTj2iS3eVrfpJC1Zuzg8n\"],\"license\":\"MIT\"},\"node_modules/@bananapus/core/src/interfaces/IJBProjectUriRegistry.sol\":{\"keccak256\":\"0x2799475228987e4f8334ac33d3935f759c9b8133db7383b4f622dde7a5dc0502\",\"urls\":[\"bzz-raw://d751731740f45df74eea48c9667e847ee2cddb2980ab4939c86bd17e6c6ed89b\",\"dweb:/ipfs/QmXW8SLTuhdUpfn7pRpdsYdcyuim8RTyagU37ULcj5UZhT\"],\"license\":\"MIT\"},\"node_modules/@bananapus/core/src/interfaces/IJBProjects.sol\":{\"keccak256\":\"0x85539f72c5871c53a919edc7db78931155464e9e00fccd30079b17e75820ddb9\",\"urls\":[\"bzz-raw://505466dbfbdeec77f948ce065676897a5b4a74b70bb234c1053b893c4849f3a1\",\"dweb:/ipfs/QmYBpZQub3Mv19xsRWqvzgiQSBAp4UNaKcqWQ2wwH62H95\"],\"license\":\"MIT\"},\"node_modules/@bananapus/core/src/interfaces/IJBRedeemHook.sol\":{\"keccak256\":\"0x4ea5b7ed510c9d29aca47ae3f8b41ef075dff4b9909779ec2c0e5b7bc30250c6\",\"urls\":[\"bzz-raw://770b785134ba71e3284dc7e05e44f429e7a8393423ad45cf8fe540408a5b9633\",\"dweb:/ipfs/QmRjXJxZPA1qZos7QjeCxJZ8sCfXfkyDFbzkdqzaqCD9Ds\"],\"license\":\"MIT\"},\"node_modules/@bananapus/core/src/interfaces/IJBRulesetApprovalHook.sol\":{\"keccak256\":\"0x5e9f921a6aa5d9396a12bbc0a878c3f5e8ae0a4ce8a3abe0de12e300718838d7\",\"urls\":[\"bzz-raw://6c9f0610f5bbe07554a1bdc39041be1284c20d81d930bec1eee2d374b86e03f4\",\"dweb:/ipfs/QmPH57wBoPERwDWkBCcj9c5tEUdeeLNe2kv1oFM7cTKVrd\"],\"license\":\"MIT\"},\"node_modules/@bananapus/core/src/interfaces/IJBRulesetDataHook.sol\":{\"keccak256\":\"0x3fea9fcab6f0335e67f0f052cf5d3446e9310808f88b5878d21586be00f89f85\",\"urls\":[\"bzz-raw://5506848f471d308a14523f91202d76d960f8255e227d29d34b0892ef70315cae\",\"dweb:/ipfs/QmakRKFctSZobpem1caU2zXqhiPQnaYVa7Y6NdAPAonHaU\"],\"license\":\"MIT\"},\"node_modules/@bananapus/core/src/interfaces/IJBRulesets.sol\":{\"keccak256\":\"0xda1a9aef337cf9fede3f638ffa58aea2815b87fde0f79628834aa03af9f582d7\",\"urls\":[\"bzz-raw://7941690ba6d94500474978ff0f02ecc56335eae5937759878e25cc1ac30a8ecc\",\"dweb:/ipfs/QmZFc7wof6PzfBTkVyNkjaQrQbjc36CK4uC3Ee2vgihqyK\"],\"license\":\"MIT\"},\"node_modules/@bananapus/core/src/interfaces/IJBSplitHook.sol\":{\"keccak256\":\"0xc99bb76736acc5c6409d1ff54cb90218b547fdf7f8a7c0d03ddb7ac9eb35645e\",\"urls\":[\"bzz-raw://7fa7e56f426a758e6125e58d81137569964e46bdfeaf9ea081b9382d80b536a9\",\"dweb:/ipfs/Qmc1wwfBP4xoGKe4BcDnwL11y3Gvk4Dk8r6qqWD4jbdKK4\"],\"license\":\"MIT\"},\"node_modules/@bananapus/core/src/interfaces/IJBSplits.sol\":{\"keccak256\":\"0x2f415b55c1d7b7fdd9ee938897a8a2b5b1c81d2ab2233d678953ea8ab9b3fb24\",\"urls\":[\"bzz-raw://f7cd02ef943cb49db501b300cbe56d5d62e4ac59caef5c38d697fdbdd21d5f9a\",\"dweb:/ipfs/QmXcxH6gBiBLes2kzSNDvPqVuDZxu1xyDPjfEziARMJhHb\"],\"license\":\"MIT\"},\"node_modules/@bananapus/core/src/interfaces/IJBToken.sol\":{\"keccak256\":\"0x911c93ec0053c1ce3c3a82ddefc8a2911f244b159b1b88fa2a7697b5455d67e0\",\"urls\":[\"bzz-raw://a29b34338ffe4310d6fa012cce351a8db98ad84dac40b6886fcbaa76145eefb2\",\"dweb:/ipfs/QmctiW2p99TaZLGBnavS3gE89p2KFoPfCPPpPvZDXsyMq9\"],\"license\":\"MIT\"},\"node_modules/@bananapus/core/src/interfaces/IJBTokenUriResolver.sol\":{\"keccak256\":\"0xfa5cb00dcd6085d1ef912d071fe73c63f9478a2cd0f9d8bddaf659b6af2d0967\",\"urls\":[\"bzz-raw://282e4e7c342d65f77cde0e9a08fcaf20ef5cf379c7a48b639842c0ffd0b2afb8\",\"dweb:/ipfs/QmbnN3PEQeZaXdPLT75V1J79kMg7KqSMru37RHrL3z8Yf2\"],\"license\":\"MIT\"},\"node_modules/@bananapus/core/src/interfaces/IJBTokens.sol\":{\"keccak256\":\"0xbbb3764d6b9d253f7a2b4e13636bf1d523d72be87b144dea6bbd7177b0953ffe\",\"urls\":[\"bzz-raw://417cdba44cf58c833785ec180918d297fcda2539d8476a978cd7d1d39c4b33d2\",\"dweb:/ipfs/QmSewvgMsjqS2fek8LXc4dNGBKhX6odnyNpzr9UmDX3WXE\"],\"license\":\"MIT\"},\"node_modules/@bananapus/core/src/interfaces/terminal/IJBPayoutTerminal.sol\":{\"keccak256\":\"0x69b290ddc214def38e69711ff2cfdf1c571d33653b25520efd98469f6b49c7fa\",\"urls\":[\"bzz-raw://93703189aa74008878f20d2917e14bc6c1572ebd05a5f1e4e28bf255603d86af\",\"dweb:/ipfs/QmTpopL7jfS3GJNgTjTBcSaFcdGGuynQPwuMZR6UjJXJjh\"],\"license\":\"MIT\"},\"node_modules/@bananapus/core/src/interfaces/terminal/IJBRedeemTerminal.sol\":{\"keccak256\":\"0xf43f5c6fb4d2de1b547ecfbf662f48c5cbd7d0bf79c4b784e566cb4b71ad7da7\",\"urls\":[\"bzz-raw://0ded83cc745fab54a035614b845a984933a57056ee27adbd60f5896f47015270\",\"dweb:/ipfs/QmWH19MehMdwgnprq6M3JmZVCaLQSd25ZPwhA5tap2PEKL\"],\"license\":\"MIT\"},\"node_modules/@bananapus/core/src/interfaces/terminal/IJBTerminal.sol\":{\"keccak256\":\"0x36f23bc27e56fa86d100281a75f5a6ce73f39f32e6a1667ce69f902da1d005ee\",\"urls\":[\"bzz-raw://e8ffa2e264fa12444799cb5706ca577034f3f8be9ff7a2f072981de6a61d706d\",\"dweb:/ipfs/QmR6gQDymvk8JQ77J8VxpFD1Hnxga4w7LLiRvAT3m4LG6T\"],\"license\":\"MIT\"},\"node_modules/@bananapus/core/src/libraries/JBConstants.sol\":{\"keccak256\":\"0x9d3a9a953f859d8ec79a599577f8972de6da7199cc1bfa7fdad017d4d722bcb4\",\"urls\":[\"bzz-raw://f151fcb53a8d2684eff8b9e56ac790bcbcadd8199a4fd4d17c5b224b22936722\",\"dweb:/ipfs/QmdAz1ZtCE8nTiC4AxQNLfJhnY3ndGum2Lbef7seKdvTdR\"],\"license\":\"MIT\"},\"node_modules/@bananapus/core/src/libraries/JBRulesetMetadataResolver.sol\":{\"keccak256\":\"0x83f25c531d9e212379b4326fd93bf658a0f6d0e839bbd67bff7b66b9b55fb670\",\"urls\":[\"bzz-raw://3eb4a41ececec705febac7b799d7224e67f12761ae3975d49dd8bddaac608ecd\",\"dweb:/ipfs/QmNgL5VccDhP5xofEcGWNKk3v4KG23wGF9vc3d4YJ5MLnv\"],\"license\":\"MIT\"},\"node_modules/@bananapus/core/src/structs/JBAccountingContext.sol\":{\"keccak256\":\"0x2907ff54d1e903cc7e0390dd88c3975884702dc2673642aacbe22b66560b56de\",\"urls\":[\"bzz-raw://a66a5381ce877b32f0e0058ceeaf843e9b6b2bc8af666c0c9f4a9d01091da004\",\"dweb:/ipfs/QmQynCetUr37dBkS1YwDS8evxuXGiqanW6THmeUxXtim8w\"],\"license\":\"MIT\"},\"node_modules/@bananapus/core/src/structs/JBAfterPayRecordedContext.sol\":{\"keccak256\":\"0xd26c3a774ff38be79064085970454fe2603a23a638c76270d5b1b3829206c3e8\",\"urls\":[\"bzz-raw://3b55dbe3bf1ef625b7ca04efab3de35406e6041d5b3d82c7265469c500e2b702\",\"dweb:/ipfs/QmUdBDo4Lt3mcsFcsXT2mqq3czFwZjQJFPLM89YA2VtD7k\"],\"license\":\"MIT\"},\"node_modules/@bananapus/core/src/structs/JBAfterRedeemRecordedContext.sol\":{\"keccak256\":\"0x521f5d23a36f0da72362cd84890cc867bd83baa8dc836ba6c5066d51dba2f163\",\"urls\":[\"bzz-raw://6cc461313286dde62d045d6288e87bae5032e035796326f5b1ed6218e58aa9da\",\"dweb:/ipfs/QmQS2AkQwf2ANQieDuaUnpJEdXChoLv4CCbZqHkfywYPSR\"],\"license\":\"MIT\"},\"node_modules/@bananapus/core/src/structs/JBBeforePayRecordedContext.sol\":{\"keccak256\":\"0x5b04e814da83c7e83ff892ab07eaad6abce6f7b85a75f8da9380e9fc3470bc81\",\"urls\":[\"bzz-raw://11c889aab993fce3e3cc2dedc15fc30dd367e7fef9b7b1bfd6a6a9f248781731\",\"dweb:/ipfs/QmVVtydCD1azeWhGLxA1hthxfLyKzMHZ1eVzCz3a3R5dLy\"],\"license\":\"MIT\"},\"node_modules/@bananapus/core/src/structs/JBBeforeRedeemRecordedContext.sol\":{\"keccak256\":\"0x73eadaf6827e82f6ccbe3a1e2b2b7fc6c59cef471f73335041b30ddcc000989d\",\"urls\":[\"bzz-raw://2f3ee84662eed565dbdaed406ef836fffaf55cccd417575578152e5085d0b1f2\",\"dweb:/ipfs/QmaJGFS7hxJsiUdKvbv5BKhSwceDEzKBnt7t5YeNWvYgMK\"],\"license\":\"MIT\"},\"node_modules/@bananapus/core/src/structs/JBCurrencyAmount.sol\":{\"keccak256\":\"0x12fe4b43f4824994624d4fe0abbd88c3fe7867fd637edb65c7f456dab27e2d6e\",\"urls\":[\"bzz-raw://8003a3e8f932cf891e86b827e67c9d31b0d34c2712e18c2bc333cfe5284ba6d5\",\"dweb:/ipfs/QmSoA6RsDcSnNzk6CB7KZtALkHmeSDAi2g6fg3TDmLDkWX\"],\"license\":\"MIT\"},\"node_modules/@bananapus/core/src/structs/JBFundAccessLimitGroup.sol\":{\"keccak256\":\"0x9fdaa8d017b72da25f583700a444a86849df053f7fb8eac874ec5139bcf651e5\",\"urls\":[\"bzz-raw://c8e44c49ee444a98424a0dbeb6897a76a0bf00d88a613f62ac2012afdac754ee\",\"dweb:/ipfs/QmdYkAiRi5bXM1YYNkc7BiqimHSFodMGn1cjHR5hcpm4xH\"],\"license\":\"MIT\"},\"node_modules/@bananapus/core/src/structs/JBPayHookSpecification.sol\":{\"keccak256\":\"0x955f0bfca97300b9e5927dc181753830ee362f83fa9ca32a90daade32aa0cfd5\",\"urls\":[\"bzz-raw://f517af1597c7c40f8d3da53f7a6684a3e162950a16559d6bf6ea3b727bb11546\",\"dweb:/ipfs/QmRWo2ZTYXmVZTzNJDYhsJNsEaHphjpUfx9eNz2cciyz86\"],\"license\":\"MIT\"},\"node_modules/@bananapus/core/src/structs/JBPermissionsData.sol\":{\"keccak256\":\"0x8f0f69a6ebf5f3704e3dfcb3712fb9d3f94ae7c1ab89bf3e37bad42a3e7a0487\",\"urls\":[\"bzz-raw://57b0c5e52843e2217082889ed47b4da3943e0da4590d5768dcebfe3edad4a6b8\",\"dweb:/ipfs/QmRz48vuWLw81kUP836rh1qzqWiJFGbksgRUA9xGEDNKTY\"],\"license\":\"MIT\"},\"node_modules/@bananapus/core/src/structs/JBRedeemHookSpecification.sol\":{\"keccak256\":\"0x673d16ee1a91bf8de3b37e57284e60451b70a9c2d748c9cdc7a151f5624af18f\",\"urls\":[\"bzz-raw://ceeb5e81effa0f076c5630c756dfcf1548d09f822b255a0a6ee01e54de8c8ae2\",\"dweb:/ipfs/QmSMoMNPRhPMnuJNvWa6S59XRfycGz9o2ApNp63bUW6TdX\"],\"license\":\"MIT\"},\"node_modules/@bananapus/core/src/structs/JBRuleset.sol\":{\"keccak256\":\"0x15b2bf3174d84846a91ccbf5a344dfb125b55ed9cf50102db8d6868844225189\",\"urls\":[\"bzz-raw://647416b025dbd941094db89cbc69f755c155bd6c87be3f322394ccc4a8e0442d\",\"dweb:/ipfs/QmTCL9xcHnxQ4t5AmCPoZvXDUPW5xhzhyyXYbkMdyg44au\"],\"license\":\"MIT\"},\"node_modules/@bananapus/core/src/structs/JBRulesetConfig.sol\":{\"keccak256\":\"0x344405b459a345fa2cb072b162422b4e85e435ff6ee82eb2c382bf52db929f10\",\"urls\":[\"bzz-raw://e067a0c3fd190cd00177800f8f065264985d4f6737a758f068a8bf5ed1cfdad0\",\"dweb:/ipfs/QmPAMiyfi1cDtandkMSXgoNdo3WLvwmvdcPGeKiot9TTaz\"],\"license\":\"MIT\"},\"node_modules/@bananapus/core/src/structs/JBRulesetMetadata.sol\":{\"keccak256\":\"0xfea54c9f98416d2aa05309e7ff76967d6968a614850a1e33e48fde793ea8b514\",\"urls\":[\"bzz-raw://bf55386cbab90dbc1296b2b0cbfdc217a4500d67702e4a093a4c78bd127ecd5c\",\"dweb:/ipfs/QmTRq9mZrNSXu7oCZwti4JbBFrbY6A5msRqi9RbtL49NAj\"],\"license\":\"MIT\"},\"node_modules/@bananapus/core/src/structs/JBRulesetWithMetadata.sol\":{\"keccak256\":\"0x1bcfadf20488f6df65227f8d4d0fbf9b7539456a2389567f7fe3900d23289bc3\",\"urls\":[\"bzz-raw://0a15c399a71e5373f8c0484c6d6b83521eda31e063a2c53e4c5cec4e74550343\",\"dweb:/ipfs/QmQwi8zkjoTVXbK89NeETYimWCacTrNsesJdpLSvGdqMPX\"],\"license\":\"MIT\"},\"node_modules/@bananapus/core/src/structs/JBSplit.sol\":{\"keccak256\":\"0x1d40fa4f1c911a53b9139f3d44d27cb58fa5c5d2cd793c7a21ccf52b9e61f848\",\"urls\":[\"bzz-raw://9897d2c29fc65fe16e4eac0b7b8b6fd8ef0b0cc501986f7f0c3a78c4ec1dbb60\",\"dweb:/ipfs/QmXcHoVjCYWWCz4hm2KZ6JxtB4YNq7jmXa2evLkga59Xwq\"],\"license\":\"MIT\"},\"node_modules/@bananapus/core/src/structs/JBSplitGroup.sol\":{\"keccak256\":\"0xda7da6e88aac2906c7ea4027660088daf217edc632bebca4d72795aae8921564\",\"urls\":[\"bzz-raw://ae1939d17e94cb51484f31ce64cf0df990445a338fb9b38d39a7baf28275ae4a\",\"dweb:/ipfs/QmUhPnJiWnYhFdtLvZnrPopAdbYXxETpGjvxjPDignpTGY\"],\"license\":\"MIT\"},\"node_modules/@bananapus/core/src/structs/JBSplitHookContext.sol\":{\"keccak256\":\"0xfe34e6860b00ca93d71f44e72882281b2c57c31303151af05795c74cfdd2e51d\",\"urls\":[\"bzz-raw://08acab094888e9c929b6f6f972d89ddbb31e5867675e7e7c602d25fcb2c0f402\",\"dweb:/ipfs/QmPNdXM185cTyXQSodVr4JMviHx88jrWu7dipgkp9xTNgJ\"],\"license\":\"MIT\"},\"node_modules/@bananapus/core/src/structs/JBTerminalConfig.sol\":{\"keccak256\":\"0x141b5d45c0b58dcddb1eeab34ec00c18c60415f8e594d1852c53e6f79dfe53ee\",\"urls\":[\"bzz-raw://ca995ea354eac6f5ebc8ef4fd5c8ece8c88698bac96da65c7aaa497a7bc0f582\",\"dweb:/ipfs/Qmf2BS1LHXtoQJuUYt4UisvYpA5dmieSq1gs51iQjNh2bw\"],\"license\":\"MIT\"},\"node_modules/@bananapus/core/src/structs/JBTokenAmount.sol\":{\"keccak256\":\"0x5cf0626b73a596c1e2da17c89ae039a7c0374310b060d48568d3b6c11fbe6180\",\"urls\":[\"bzz-raw://63348b50be95e2995409394a17caffc563a646f0972650a1230bf864fbd3219b\",\"dweb:/ipfs/QmZXZpS3SbFD5nWaCauf6AqbEhLURv5qsKHpThBvQgDU6u\"],\"license\":\"MIT\"},\"node_modules/@bananapus/permission-ids/src/JBPermissionIds.sol\":{\"keccak256\":\"0xa21681d89f2cf9265a10e6fa63301658ccc62635058cd3c8307aaaec1a045ff3\",\"urls\":[\"bzz-raw://0c825382afb76e79feb81425991637d50d1f1fc4ccaa12953f1e1042853db8d3\",\"dweb:/ipfs/QmPAsLuTziQx8R5PzYrLYDKybc6Ykq8fwG46ofRxQwdjgn\"],\"license\":\"UNLICENSED\"},\"node_modules/@openzeppelin/contracts/token/ERC20/IERC20.sol\":{\"keccak256\":\"0xc6a8ff0ea489379b61faa647490411b80102578440ab9d84e9a957cc12164e70\",\"urls\":[\"bzz-raw://0ea104e577e63faea3b69c415637e99e755dcbf64c5833d7140c35a714d6d90c\",\"dweb:/ipfs/Qmau6x4Ns9XdyynRCNNp3RhLqijJjFm7z5fyZazfYFGYdq\"],\"license\":\"MIT\"},\"node_modules/@openzeppelin/contracts/token/ERC20/extensions/IERC20Permit.sol\":{\"keccak256\":\"0x6008dabfe393240d73d7dd7688033f72740d570aa422254d29a7dce8568f3aff\",\"urls\":[\"bzz-raw://f5196ec75139918c6c7bb4251b36395e668f1fa6d206beba7e7520e74913940d\",\"dweb:/ipfs/QmSyqjksXxmm2mCG6qRd1yuwLykypkSVBbnBnGqJRcuJMi\"],\"license\":\"MIT\"},\"node_modules/@openzeppelin/contracts/token/ERC20/utils/SafeERC20.sol\":{\"keccak256\":\"0x37bb49513c49c87c4642a891b13b63571bc87013dde806617aa1efb54605f386\",\"urls\":[\"bzz-raw://b3036b3a83b7c48f96641f2a9002b9f2dcb6a5958dd670894ada21ae8229b3d0\",\"dweb:/ipfs/QmUNfSBdoVtjhETaUJCYcaC7pTMgbhht926tJ2uXJbiVd3\"],\"license\":\"MIT\"},\"node_modules/@openzeppelin/contracts/token/ERC721/IERC721.sol\":{\"keccak256\":\"0x5ef46daa3b58ef2702279d514780316efaa952915ee1aa3396f041ee2982b0b4\",\"urls\":[\"bzz-raw://2f8f2a76e23b02fc69e8cd24c3cb47da6c7af3a2d6c3a382f8ac25c6e094ade7\",\"dweb:/ipfs/QmPV4ZS4tPVv4mTCf9ejyZ1ai57EEibDRj7mN2ARDCLV5n\"],\"license\":\"MIT\"},\"node_modules/@openzeppelin/contracts/utils/Address.sol\":{\"keccak256\":\"0xaf28a975a78550e45f65e559a3ad6a5ad43b9b8a37366999abd1b7084eb70721\",\"urls\":[\"bzz-raw://b7bd24e224f67f65bfadf85dc2929fa965456bb2415478bd0125471b5ce35245\",\"dweb:/ipfs/QmRaydGr8BTHs1kvaZfsNU69pKzUAGFrvABn1KiRSbE51y\"],\"license\":\"MIT\"},\"node_modules/@openzeppelin/contracts/utils/Context.sol\":{\"keccak256\":\"0x493033a8d1b176a037b2cc6a04dad01a5c157722049bbecf632ca876224dd4b2\",\"urls\":[\"bzz-raw://6a708e8a5bdb1011c2c381c9a5cfd8a9a956d7d0a9dc1bd8bcdaf52f76ef2f12\",\"dweb:/ipfs/Qmax9WHBnVsZP46ZxEMNRQpLQnrdE4dK8LehML1Py8FowF\"],\"license\":\"MIT\"},\"node_modules/@openzeppelin/contracts/utils/Create2.sol\":{\"keccak256\":\"0x2b9807d194b92f1068d868e9587d27037264a9a067c778486f86ae21c61cbd5e\",\"urls\":[\"bzz-raw://22d71f40aa38a20cf466d8647452a6e3f746353474f8c8af40f03aa8cae38420\",\"dweb:/ipfs/QmQ752Hz5av7YDK8pFojzb5qgeXQvfsdkdwkHVzaXoYAZR\"],\"license\":\"MIT\"},\"node_modules/@openzeppelin/contracts/utils/introspection/ERC165.sol\":{\"keccak256\":\"0x9e8778b14317ba9e256c30a76fd6c32b960af621987f56069e1e819c77c6a133\",\"urls\":[\"bzz-raw://1777404f1dcd0fac188e55a288724ec3c67b45288e49cc64723e95e702b49ab8\",\"dweb:/ipfs/QmZFdC626GButBApwDUvvTnUzdinevC3B24d7yyh57XkiA\"],\"license\":\"MIT\"},\"node_modules/@openzeppelin/contracts/utils/introspection/ERC165Checker.sol\":{\"keccak256\":\"0xac3d50e321a48a40b4496970ce725900f13aeb2255b7c1203f5adbe98c4a911a\",\"urls\":[\"bzz-raw://1d7b235b578347dce2d831a76f122e820a7db7e73fd2e47f13bafdcd61c5b066\",\"dweb:/ipfs/QmVAELwambfJa55HfiCoz1kFFh7iYwRYeW5x8si6AFM4iX\"],\"license\":\"MIT\"},\"node_modules/@openzeppelin/contracts/utils/introspection/IERC165.sol\":{\"keccak256\":\"0x4296879f55019b23e135000eb36896057e7101fb7fb859c5ef690cf14643757b\",\"urls\":[\"bzz-raw://87b3541437c8c443ccd36795e56a338ed12855eec17f8da624511b8d1a7e14df\",\"dweb:/ipfs/QmeJQCtZrQjtJLr6u7ZHWeH3pBnjtLWzvRrKViAi7UZqxL\"],\"license\":\"MIT\"},\"node_modules/@openzeppelin/contracts/utils/structs/BitMaps.sol\":{\"keccak256\":\"0x3616f1b0d0a9ee1ca8f0953ecaceb9230e36f691c7974d30f964212acff52d2b\",\"urls\":[\"bzz-raw://d4bebdd07b31ac28e3e596ac6f0333da90a4e332405aa7d65f3a3a7e0b4cf15e\",\"dweb:/ipfs/QmckoDU5bBnye2UtPcrfJNahLD2FbxrnPP9nrREMWPpnug\"],\"license\":\"MIT\"},\"node_modules/@prb/math/src/Common.sol\":{\"keccak256\":\"0xaa374e2c26cc93e8c22a6953804ee05f811597ef5fa82f76824378b22944778b\",\"urls\":[\"bzz-raw://279c732e161d623cf4d8a9519ca4c42c0c2db99842d0eb2a20c10fde3fa722c9\",\"dweb:/ipfs/QmVViuUXbinQGqtG5M21SgVzKihiCbFUChd4tDhtvwRmxH\"],\"license\":\"MIT\"},\"src/BPOptimismSucker.sol\":{\"keccak256\":\"0x04d44b9b8825314abdf608f02b5fd96a63b163335d2e7bdb70181dce06291bf4\",\"urls\":[\"bzz-raw://0585fba009ef55da8df7305939b01d58bddc2a3cdbf2d1d4857c5749daa9f6c9\",\"dweb:/ipfs/QmeuFEpW9h1pwGJzYwWWNSgKu7WXvhq7f9e86gJRuJf6nJ\"],\"license\":\"MIT\"},\"src/BPSucker.sol\":{\"keccak256\":\"0xa9f86a716cb341089101b9d31e29e0942ac00bd57cc8d808dccfbb617d4b6945\",\"urls\":[\"bzz-raw://26bd42e666fae834169950e039bc3050fd6060979dd065e70f3521d0fdca2a43\",\"dweb:/ipfs/QmREwEFVY4w6jwjSq32iaHsFkKWuX5QvLuGwyNWSJz26pw\"],\"license\":\"MIT\"},\"src/BPSuckerHook.sol\":{\"keccak256\":\"0xac2b4ac60f45c40c01b626b0f9f7a5a4c0d02cff27b1cdd89eb60b55a7019d3c\",\"urls\":[\"bzz-raw://abcf3a4009b039ec4fd21e72317cb39c06a404387f985c0769219ec6a218c7aa\",\"dweb:/ipfs/QmaJTh5P8pKYrycdcRBCzegMfpUtTmzphWyQwobvAu99eP\"],\"license\":\"MIT\"},\"src/deployers/BPOptimismSuckerDeployer.sol\":{\"keccak256\":\"0x3d23fd5162b4790de603865fd31d6f66eb7c2719169681bdd4b1e1ca4a071767\",\"urls\":[\"bzz-raw://0952c794c88e9775b47139afcac256468e20274023679c19dc9b7c4207667ced\",\"dweb:/ipfs/QmYAcJxFqy3qDrsx11WnM22Tq4vt1VzCjtzkzDdDQN2iwp\"],\"license\":\"MIT\"},\"src/enums/BPAddToBalanceMode.sol\":{\"keccak256\":\"0xa6dcd5c6225e2b697775d37a6f3a8ae4030f7af1a7cb4bb91d572eef65134e43\",\"urls\":[\"bzz-raw://583699b0f81837a739e5e54a1e0b0400a6021602bd7f48472c8785b22d3f25eb\",\"dweb:/ipfs/QmfL4Jr6p8B5q8uFX1ZfUS5vPsUxiGgMy5udVg9z2kPUQk\"],\"license\":\"MIT\"},\"src/interfaces/IBPSucker.sol\":{\"keccak256\":\"0xb0ce4e44f966d43f7ded2b59b98fc96a2a71522f44d06245882d2bbd89ff32d9\",\"urls\":[\"bzz-raw://290f1f3630d3749fc88f84944a2fd3a785bcb44a892844de1d0e1078829c7149\",\"dweb:/ipfs/QmcKDnSDxmkkex1Tr9t3ZU7SKNXXK2EtNowu3FZZYH9hZL\"],\"license\":\"MIT\"},\"src/interfaces/IBPSuckerDeployer.sol\":{\"keccak256\":\"0xe252e890c4b5e12d5fa537a11cd2fad936f41be80240301ace8afca3de481222\",\"urls\":[\"bzz-raw://730855964dd0629f3d514ed52f59d80d02786733c3b8b5cf21e69524de7f8829\",\"dweb:/ipfs/QmUuoYEmnzUNn3hANGrg8sDZdjoaEbgWMWLepsSQt9MUyw\"],\"license\":\"MIT\"},\"src/interfaces/IBPSuckerDeployerFeeless.sol\":{\"keccak256\":\"0xd340e0c2b46c43c1fd55e9f761c693a97a7a4fcd455a671623513ec0341b7c70\",\"urls\":[\"bzz-raw://6b152a3681fa5d749013f43c932ee2dcdb614ca163d10ac1d740c8dd9e0b0d65\",\"dweb:/ipfs/QmWUNd8eB4C7kGjeCrGiQR21sk33xSQTio79msoW5wNQW3\"],\"license\":\"MIT\"},\"src/interfaces/OPMessenger.sol\":{\"keccak256\":\"0x0be6648aa7ed6272db8d415992d16dc10b36a4a8ed2f8e3adac8433ca7834dae\",\"urls\":[\"bzz-raw://1a3aeecda2b108059ce2b271364121d69afa4afcd2d0341eae31d181d5a6881d\",\"dweb:/ipfs/QmcaB3EzUW8btTVa1FCgmhTFqTSAwdmK47K95cV88vg9J9\"],\"license\":\"MIT\"},\"src/interfaces/OPStandardBridge.sol\":{\"keccak256\":\"0xb5717563fc9dcbe47ab2ed8b98a1a5757b51935989b9a78091eb590c8dbb8d5a\",\"urls\":[\"bzz-raw://5d9acbe757d1103be408303d53c25ee8a6b6dc799e8dd58e4756ac4028b4ccd5\",\"dweb:/ipfs/QmVuqESXkFhrcRAAfTkXSXp7uWrN5QA7eAH6x3DpeAoAMe\"],\"license\":\"MIT\"},\"src/structs/BPClaim.sol\":{\"keccak256\":\"0x63a12013ec4c221781b057185a0e01c83ac19dcef115ad6238d25a22011da071\",\"urls\":[\"bzz-raw://0307e4377f2cbd3ec561405eb2ffa07e0d9fe2c39522eb0706e91b46efa1b2a7\",\"dweb:/ipfs/QmXKeKQ6mJGehNJt3v2fqE22MFoGjcpm2x9hHA25vu7xAH\"],\"license\":\"MIT\"},\"src/structs/BPInboxTreeRoot.sol\":{\"keccak256\":\"0xff494c45ee76d14e2ffb3cd0f22412b4a1a4d8e37b957a3ffb82b0b9db4f74ab\",\"urls\":[\"bzz-raw://a896310d4dcfecca8b1927bf82832c9b5de5a455228fd9aad2530729ce61739b\",\"dweb:/ipfs/QmUiep5HvdqgJZyJqt4kKxWuP2odhY5W9kX7pCuovTr3LM\"],\"license\":\"MIT\"},\"src/structs/BPLeaf.sol\":{\"keccak256\":\"0xaa2257b6d8fc05d9b37fdb40472cd2f4bed45e7ddc1ea9082ca5296215602bc8\",\"urls\":[\"bzz-raw://ebdf0d3c3961adb71fd7174f9a8eca8332202d07ee5a584abbb06b7c15db61d0\",\"dweb:/ipfs/QmWtqWUncWvZotfno2kiU5TeT3WTR9zfPzRTiktZskyS13\"],\"license\":\"MIT\"},\"src/structs/BPMessageRoot.sol\":{\"keccak256\":\"0xab832c9e92d412cc0d8e6758777694955fef6dcbc919f96b33052d68d0516d1d\",\"urls\":[\"bzz-raw://fa9fe2604015f05e1a4f2c1a92f4ef7b6cba3d08d9e7daa2b20190a9b1bce39c\",\"dweb:/ipfs/QmUDcrNmqnp1dPwkmPTjsu7Egbwtgsk42G9FNdrHk6JcB2\"],\"license\":\"MIT\"},\"src/structs/BPOutboxTree.sol\":{\"keccak256\":\"0xed569423f6ae3dafee5681a60b7c5d24b0c5f33ff0763937952e938be374d79e\",\"urls\":[\"bzz-raw://4dafb1348a51324105b2ee100e2174fee0f1397f0b2dd00483b2dcf049477ce4\",\"dweb:/ipfs/Qmcf8jizBW7BGGnHBVetaDvYcZ75ov8oYw8LubaNUHrHCv\"],\"license\":\"MIT\"},\"src/structs/BPRemoteToken.sol\":{\"keccak256\":\"0x703d0112f181683d9b3508bf9fc0ef2f5c3cac73de0a718d9f405561fad14622\",\"urls\":[\"bzz-raw://80c0dd5e9ef7648efc48306da2c50829490c41cf09292f0f82fa3e24ce9dbe37\",\"dweb:/ipfs/QmYTgR72bVH3r1xKvMaE1tRUAkqkZjZa2v1eki1973qn3U\"],\"license\":\"MIT\"},\"src/structs/BPTokenMapping.sol\":{\"keccak256\":\"0x84865bda925cdc9a608cbbfc487619acba391f98ae12bbbfdbc5779d617a17d9\",\"urls\":[\"bzz-raw://3bbc1fdd38feaf64fd4914bddb62cda7e5b8ee0f046a0eac8cfcb15f9493bcc5\",\"dweb:/ipfs/QmXgAx7sr1M8r71YrSeQJGAB1uhvdxpQyS633UgJvLCQfb\"],\"license\":\"MIT\"},\"src/utils/MerkleLib.sol\":{\"keccak256\":\"0x6803b76f79362d9b5cd8e32eb1da6ed675146554dcd2f77747c4406f5f7a25f4\",\"urls\":[\"bzz-raw://3db2984a7eae5e7dc78517fd3a696180e95fdf00bf3267b31d1dbaddb0865cab\",\"dweb:/ipfs/QmPG8Nxwcb5Q7unUzMLCwaaRv8MvR7rskfacSDqbDW5zPZ\"],\"license\":\"MIT OR Apache-2.0\"}},\"version\":1}",
			"args": [
				"0x801FF757D8Fd571934e306Df9282de42c901b835",
				"0xDef756Ef46098Cb2109128D3458e01bcf58411D1",
				"0x6A6988E79a621Fc7Ea74D67a31E9cefCcC98e949",
				"0x266b64c59E45CCCAEEa8d34758c495A0517139f0",
				"0xa1Ba58fcA530D0b011646167C9EB81F54d9C9dF6"
			],
			"bytecode": "0x61014060405234801561001157600080fd5b50604051615e69380380615e6983398101604081905261003091610076565b6001600160a01b03908116608052336101205293841660a05291831660c052821660e05216610100526100eb565b6001600160a01b038116811461007357600080fd5b50565b600080600080600060a0868803121561008e57600080fd5b85516100998161005e565b60208701519095506100aa8161005e565b60408701519094506100bb8161005e565b60608701519093506100cc8161005e565b60808701519092506100dd8161005e565b809150509295509295909350565b60805160a05160c05160e0516101005161012051615d1661015360003960005050600061020e0152600081816101ed015261031c015260006101cc015260006101ab0152600081816101460152818161022f0152818161055d01526106060152615d166000f3fe608060405234801561001057600080fd5b506004361061007d5760003560e01c8063c39ec1241161005b578063c39ec124146100e6578063cc8b6f4f14610119578063ee9a31a21461012e578063f434c9141461014157600080fd5b806312130366146100825780632cdaa896146100b2578063927ede2d146100d3575b600080fd5b6100956100903660046106a5565b610168565b6040516001600160a01b0390911681526020015b60405180910390f35b6100c56100c03660046106df565b6102e7565b6040519081526020016100a9565b600054610095906001600160a01b031681565b6101096100f436600461074d565b60026020526000908152604090205460ff1681565b60405190151581526020016100a9565b61012c610127366004610771565b6104a4565b005b600154610095906001600160a01b031681565b6100957f000000000000000000000000000000000000000000000000000000000000000081565b6040516bffffffffffffffffffffffff193360601b16602082015260348101829052600090605401604051602081830303815290604052805190602001209150817f00000000000000000000000000000000000000000000000000000000000000007f00000000000000000000000000000000000000000000000000000000000000007f00000000000000000000000000000000000000000000000000000000000000007f00000000000000000000000000000000000000000000000000000000000000007f000000000000000000000000000000000000000000000000000000000000000060008960405161025d90610697565b6001600160a01b0397881681529587166020870152938616604086015291851660608501528416608084015290921660a082015260c081019190915260e0018190604051809103906000f59050801580156102bc573d6000803e3d6000fd5b506001600160a01b0381166000908152600260205260409020805460ff191660011790559392505050565b3360009081526002602052604081205460ff1661031757604051631199558960e11b815260040160405180910390fd5b6104127f00000000000000000000000000000000000000000000000000000000000000006001600160a01b031663293c49996040518163ffffffff1660e01b8152600401602060405180830381865afa158015610378573d6000803e3d6000fd5b505050506040513d601f19601f8201168201806040525081019061039c91906107aa565b6001600160a01b0316636352211e896040518263ffffffff1660e01b81526004016103c991815260200190565b602060405180830381865afa1580156103e6573d6000803e3d6000fd5b505050506040513d601f19601f8201168201806040525081019061040a91906107aa565b886011610513565b6040805160208101825260008152905163b62d17cf60e01b81526001600160a01b0388169163b62d17cf91610456918b918a9189918b918a913391906004016107c7565b6020604051808303816000875af1158015610475573d6000803e3d6000fd5b505050506040513d601f19601f820116820180604052508101906104999190610857565b979650505050505050565b6000546001600160a01b03161515806104c757506001546001600160a01b031615155b156104e55760405163ccbe17fd60e01b815260040160405180910390fd5b600080546001600160a01b039384166001600160a01b03199182161790915560018054929093169116179055565b336001600160a01b03841681148015906105ca575060405163c161c93f60e01b81526001600160a01b038281166004830152858116602483015260448201859052606482018490527f0000000000000000000000000000000000000000000000000000000000000000169063c161c93f90608401602060405180830381865afa1580156105a4573d6000803e3d6000fd5b505050506040513d601f19601f820116820180604052508101906105c89190610870565b155b8015610673575060405163c161c93f60e01b81526001600160a01b038281166004830152858116602483015260006044830152606482018490527f0000000000000000000000000000000000000000000000000000000000000000169063c161c93f90608401602060405180830381865afa15801561064d573d6000803e3d6000fd5b505050506040513d601f19601f820116820180604052508101906106719190610870565b155b156106915760405163075fd2b160e01b815260040160405180910390fd5b50505050565b61544e806200089383390190565b600080604083850312156106b857600080fd5b50508035926020909101359150565b6001600160a01b03811681146106dc57600080fd5b50565b60008060008060008060c087890312156106f857600080fd5b86359550602087013561070a816106c7565b9450604087013561071a816106c7565b9350606087013563ffffffff8116811461073357600080fd5b9598949750929560808101359460a0909101359350915050565b60006020828403121561075f57600080fd5b813561076a816106c7565b9392505050565b6000806040838503121561078457600080fd5b823561078f816106c7565b9150602083013561079f816106c7565b809150509250929050565b6000602082840312156107bc57600080fd5b815161076a816106c7565b8781526000602060018060a01b03808a16602085015288604085015263ffffffff8816606085015286608085015280861660a08501525060e060c084015283518060e085015260005b8181101561082d5785810183015185820161010001528201610810565b506101009150600082828601015281601f19601f8301168501019250505098975050505050505050565b60006020828403121561086957600080fd5b5051919050565b60006020828403121561088257600080fd5b8151801515811461076a57600080fdfe6101e06040523480156200001257600080fd5b506040516200544e3803806200544e8339810160408190526200003591620001a6565b6001600160a01b0380841660805280861660c05280851660e05287908790879087908790879087908216156200006c57816200006e565b305b6001600160a01b03166101205261014081905233610100525050506001600160a01b0393841661018052505016610160526040805163927ede2d60e01b81529051339163927ede2d9160048083019260209291908290030181865afa158015620000dc573d6000803e3d6000fd5b505050506040513d601f19601f8201168201806040525081019062000102919062000245565b6001600160a01b03166101a0526040805163774d18d160e11b81529051339163ee9a31a29160048083019260209291908290030181865afa1580156200014c573d6000803e3d6000fd5b505050506040513d601f19601f8201168201806040525081019062000172919062000245565b6001600160a01b03166101c052506200026c95505050505050565b6001600160a01b0381168114620001a357600080fd5b50565b600080600080600080600060e0888a031215620001c257600080fd5b8751620001cf816200018d565b6020890151909750620001e2816200018d565b6040890151909650620001f5816200018d565b606089015190955062000208816200018d565b60808901519094506200021b816200018d565b60a08901519093506200022e816200018d565b8092505060c0880151905092959891949750929550565b6000602082840312156200025857600080fd5b815162000265816200018d565b9392505050565b60805160a05160c05160e05161010051610120516101405161016051610180516101a0516101c051615066620003e8600039600081816102c601528181611cac0152611cfb01526000818161076401528181611e50015281816127130152612779015260008181610270015261166301526000818161065d01526115c6015260008181610368015281816109c501528181610a4201528181610bad01528181610be501528181610dad015281816112a701528181611350015281816120100152818161212c015281816123c20152818161247c0152818161257e01526126a601526000818161051f01528181611d2c01528181611e7b015261274f015260006105e801526000818161022401528181610dd601526117740152600081816104bb01528181610936015281816112cd01528181611510015281816118740152818161204b01526123f001526000818161061c01528181610f49015261124901526000818161073001528181611a960152611b3f01526150666000f3fe6080604052600436106101d15760003560e01c806388bc2ef3116100f7578063c1b8411a11610095578063ed0e26b911610064578063ed0e26b9146106ac578063f3c578811461070b578063f434c9141461071e578063fc8fa43d1461075257600080fd5b8063c1b8411a146105d6578063c6525f2c1461060a578063d4a1b4b11461064b578063e7f82c751461067f57600080fd5b8063b59ef50f116100d1578063b59ef50f14610541578063b71c117914610561578063bf557aee14610574578063c1854129146105b657600080fd5b806388bc2ef3146104a9578063aaf320d7146104dd578063ad42938b1461050d57600080fd5b8063551ebbf01161016f57806369ce22331161013e57806369ce2233146103d057806369d31fdd146103f05780636dfa7268146104035780637de6fba21461043257600080fd5b8063551ebbf01461033657806356539f391461035657806361c8641714610398578063677ce088146103ad57600080fd5b80632241dc52116101ab5780632241dc52146102925780632847f1f3146102b457806338eb2044146102e85780634c4ffc711461030857600080fd5b806301ffc9a7146101dd5780631d831d5c146102125780631eabcd341461025e57600080fd5b366101d857005b600080fd5b3480156101e957600080fd5b506101fd6101f83660046146da565b610786565b60405190151581526020015b60405180910390f35b34801561021e57600080fd5b506102467f000000000000000000000000000000000000000000000000000000000000000081565b6040516001600160a01b039091168152602001610209565b34801561026a57600080fd5b506102467f000000000000000000000000000000000000000000000000000000000000000081565b34801561029e57600080fd5b506102b26102ad366004614704565b6107d8565b005b3480156102c057600080fd5b506102467f000000000000000000000000000000000000000000000000000000000000000081565b3480156102f457600080fd5b506102b2610303366004614790565b610810565b34801561031457600080fd5b506103286103233660046147ac565b610ba7565b604051610209929190614837565b34801561034257600080fd5b506102b26103513660046148dd565b610d77565b34801561036257600080fd5b5061038a7f000000000000000000000000000000000000000000000000000000000000000081565b604051908152602001610209565b3480156103a457600080fd5b5061038a610ef5565b3480156103b957600080fd5b506101fd6103c8366004614927565b600092915050565b3480156103dc57600080fd5b506102b26103eb366004614957565b610f45565b6102b26103fe366004614790565b610fbe565b34801561040f57600080fd5b5061042361041e366004614957565b61112f565b60405161020993929190614974565b34801561043e57600080fd5b5061047f61044d366004614957565b6003602052600090815260409020805460019091015463ffffffff821691600160201b90046001600160a01b03169083565b6040805163ffffffff90941684526001600160a01b03909216602084015290820152606001610209565b3480156104b557600080fd5b506102467f000000000000000000000000000000000000000000000000000000000000000081565b3480156104e957600080fd5b506104fd6104f83660046149cd565b611199565b6040516102099493929190614a08565b34801561051957600080fd5b506102467f000000000000000000000000000000000000000000000000000000000000000081565b34801561054d57600080fd5b506102b261055c366004614aa8565b61120d565b6102b261056f366004614957565b611414565b34801561058057600080fd5b506101fd61058f366004614957565b6001600160a01b03908116600090815260036020526040902054600160201b900416151590565b3480156105c257600080fd5b506102b26105d1366004614abb565b6114bd565b3480156105e257600080fd5b506102467f000000000000000000000000000000000000000000000000000000000000000081565b34801561061657600080fd5b5061063e7f000000000000000000000000000000000000000000000000000000000000000081565b6040516102099190614b34565b34801561065757600080fd5b506102467f000000000000000000000000000000000000000000000000000000000000000081565b34801561068b57600080fd5b5061038a61069a366004614957565b60026020526000908152604090205481565b3480156106b857600080fd5b506106ec6106c7366004614957565b600160208190526000918252604090912080549101546001600160401b039091169082565b604080516001600160401b039093168352602083019190915201610209565b6102b2610719366004614b5c565b6114f1565b34801561072a57600080fd5b506102467f000000000000000000000000000000000000000000000000000000000000000081565b34801561075e57600080fd5b506102467f000000000000000000000000000000000000000000000000000000000000000081565b60006001600160e01b031982166340e01e1760e11b14806107b757506001600160e01b0319821663f3c5788160e01b145b806107d257506301ffc9a760e01b6001600160e01b03198316145b92915050565b60005b8181101561080b576108038383838181106107f8576107f8614b97565b905060800201610810565b6001016107db565b505050565b600061081f6020830183614957565b9050600061eeee6108336020850185614957565b6001600160a01b0316149050808015610866575061eeee61085a6060850160408601614957565b6001600160a01b031614155b801561088b5750600061087f6060850160408601614957565b6001600160a01b031614155b156108ca576108a06060840160408501614957565b604051630a0a3b6b60e31b81526001600160a01b0390911660048201526024015b60405180910390fd5b62030d406108de6040850160208601614bad565b63ffffffff161080156108ef575080155b156109315762030d406109086040850160208601614bad565b604051634f3dbeb360e11b815263ffffffff9283166004820152911660248201526044016108c1565b610a687f00000000000000000000000000000000000000000000000000000000000000006001600160a01b031663293c49996040518163ffffffff1660e01b8152600401602060405180830381865afa158015610992573d6000803e3d6000fd5b505050506040513d601f19601f820116820180604052508101906109b69190614bd3565b6040516331a9108f60e11b81527f000000000000000000000000000000000000000000000000000000000000000060048201526001600160a01b039190911690636352211e90602401602060405180830381865afa158015610a1c573d6000803e3d6000fd5b505050506040513d601f19601f82011682018060405250810190610a409190614bd3565b7f0000000000000000000000000000000000000000000000000000000000000000601d611a4c565b6000610a7a6060850160408601614957565b6001600160a01b0316148015610aaa57506001600160a01b03821660009081526020819052604090206001015415155b15610b04576001600160a01b0380831660009081526003602090815260408083208151606081018352815463ffffffff81168252600160201b90049095169285019290925260019091015490830152610b04918490611bd0565b6040518060600160405280846020016020810190610b229190614bad565b63ffffffff168152602001610b3d6060860160408701614957565b6001600160a01b0390811682526060909501356020918201529284166000908152600384526040908190208251815495840151909616600160201b026001600160c01b031990951663ffffffff909616959095179390931784559091015160019092019190915550565b600060607f00000000000000000000000000000000000000000000000000000000000000008360c0013514610c1b57604051632d7b333360e11b81527f0000000000000000000000000000000000000000000000000000000000000000600482015260c084013560248201526044016108c1565b6000610c2d6060850160408601614957565b6001600160a01b03808216600090815260036020526040902054919250600160201b90910416158015610c7a5750610c78610c6b6020860186614957565b635db90a7f60e11b611f77565b155b15610cd5576040805160008082526020820190925261012086013591610cca565b60408051606080820183526000808352602083015291810191909152815260200190600190039081610c9b5790505b509250925050915091565b60408051600180825281830190925290816020015b60408051606080820183526000808352602083015291810191909152815260200190600190039081610cea5790505091506040518060600160405280306001600160a01b03168152602001600081526020016040518060200160405280600081525081525082600081518110610d6257610d62614b97565b60200260200101819052506000925050915091565b6001600160a01b038316610d9e576040516309a9c30b60e41b815260040160405180910390fd5b60405163ea78803f60e01b81527f000000000000000000000000000000000000000000000000000000000000000060048201526000907f00000000000000000000000000000000000000000000000000000000000000006001600160a01b03169063ea78803f90602401602060405180830381865afa158015610e25573d6000803e3d6000fd5b505050506040513d601f19601f82011682018060405250810190610e499190614bd3565b90506001600160a01b038116610e7257604051635a33845560e01b815260040160405180910390fd5b6001600160a01b03828116600090815260036020526040902054600160201b900416610ebc5760405163393e175160e01b81526001600160a01b03831660048201526024016108c1565b610ed16001600160a01b038216333088611f9a565b6000610edf82878587612001565b9050610eed868483886121ce565b505050505050565b6000466001819003610f0957600a91505090565b80600a03610f1957600191505090565b8062aa36a703610f2d5762aa37dc91505090565b8062aa37dc03610f415762aa36a791505090565b5090565b60007f00000000000000000000000000000000000000000000000000000000000000006001811115610f7957610f79614b1e565b14610f975760405163218a9a2d60e11b815260040160405180910390fd5b6001600160a01b038116600090815260026020526040902054610fbb908290612352565b50565b610fc73361270f565b610fe457604051630439dbd360e51b815260040160405180910390fd5b60208101803590600290600090610ffb9085614957565b6001600160a01b03166001600160a01b03168152602001908152602001600020600082825461102a9190614c06565b909155506001905060006110416020840184614957565b6001600160a01b0316815260208101919091526040908101600020546001600160401b0316906110779060608401908401614c2e565b6001600160401b03161115610fbb57604081016001600061109b6020850185614957565b6001600160a01b0316815260208101919091526040016000206110be8282614c4b565b506110ce90506020820182614957565b6001600160a01b03167f551b6b99b4c48e3265d2885ab0d93779be2402293261e074f7bf74b2c8f45b6f6111086060840160408501614c2e565b604080516001600160401b039092168252606085013560208301520160405180910390a250565b6000602081815291815260409081902080546001820154835161044081018086526001600160401b0390931695919490926002850192849283019184919082845b815481526020019060010190808311611170575050509183525050602091820154910152905083565b600080806060610160850135608086013560a0870135846040519080825280602002602001820160405280156111fd57816020015b604080516060808201835260008083526020830152918101919091528152602001906001900390816111ce5790505b5093509350935093509193509193565b61124560608201356112226020840184614957565b60808401356112376060860160408701614957565b602086013560a0870161280b565b60017f0000000000000000000000000000000000000000000000000000000000000000600181111561127957611279614b1e565b036112985761129861128e6020830183614957565b6080830135612352565b604051632eec7b5560e11b81527f000000000000000000000000000000000000000000000000000000000000000060048201527f00000000000000000000000000000000000000000000000000000000000000006001600160a01b031690635dd8f6aa90602401602060405180830381865afa15801561131c573d6000803e3d6000fd5b505050506040513d601f19601f820116820180604052508101906113409190614bd3565b6001600160a01b031663c7fb92de7f0000000000000000000000000000000000000000000000000000000000000000606084018035906113839060408701614957565b6040516001600160e01b031960e086901b168152600481019390935260248301919091526001600160a01b0316604482015260a06064820152600060a48201819052608482015260c4016020604051808303816000875af11580156113ec573d6000803e3d6000fd5b505050506040513d601f19601f820116820180604052508101906114109190614c7e565b5050565b6001600160a01b0380821660008181526003602090815260408083208151606081018352815463ffffffff81168252600160201b90049096168684015260019081015486830181905294845291839052909120015410156114b2576040808201516001600160a01b0384166000908152602081905282902060010154915163091df9e560e31b81526108c19290600401918252602082015260400190565b611410348383611bd0565b60005b8181101561080b576114e98383838181106114dd576114dd614b97565b90506104a0020161120d565b6001016114c0565b604051636e49181f60e01b8152602082013560048201523360248201527f00000000000000000000000000000000000000000000000000000000000000006001600160a01b031690636e49181f90604401602060405180830381865afa15801561155f573d6000803e3d6000fd5b505050506040513d601f19601f820116820180604052508101906115839190614c97565b6115a057604051634ae18d2b60e11b815260040160405180910390fd5b60408051630969875760e21b8152602083013560048201529082013560248201526000907f00000000000000000000000000000000000000000000000000000000000000006001600160a01b0316906325a61d5c9060440161012060405180830381865afa158015611616573d6000803e3d6000fd5b505050506040513d601f19601f8201168201806040525081019061163a9190614d00565b61010081015190915060009060241c63ffffffff1660c084013514611726576001600160a01b037f000000000000000000000000000000000000000000000000000000000000000016633be273fa602085013560c08601356116aa86610100015163ffffffff60249190911c1690565b60405160e085901b6001600160e01b031916815260048101939093526024830191909152604482015260a08601356064820152608401602060405180830381865afa1580156116fd573d6000803e3d6000fd5b505050506040513d601f19601f820116820180604052508101906117219190614c7e565b611735565b61173560a0840135600a614e64565b9050600061174d60808501356101608601358461293b565b60405163ea78803f60e01b8152602086013560048201529091506000906001600160a01b037f0000000000000000000000000000000000000000000000000000000000000000169063ea78803f90602401602060405180830381865afa1580156117bb573d6000803e3d6000fd5b505050506040513d601f19601f820116820180604052508101906117df9190614bd3565b6040516370a0823160e01b81523060048201529091506000906001600160a01b038316906370a0823190602401602060405180830381865afa158015611829573d6000803e3d6000fd5b505050506040513d601f19601f8201168201806040525081019061184d9190614c7e565b604051632eec7b5560e11b8152602088013560048201529091506000906001600160a01b037f00000000000000000000000000000000000000000000000000000000000000001690635dd8f6aa90602401602060405180830381865afa1580156118bb573d6000803e3d6000fd5b505050506040513d601f19601f820116820180604052508101906118df9190614bd3565b6040516363fdc96f60e11b8152602089013560048201526024810186905230604482015260a06064820152600060a4820152600160848201526001600160a01b03919091169063c7fb92de9060c4016020604051808303816000875af115801561194d573d6000803e3d6000fd5b505050506040513d601f19601f820116820180604052508101906119719190614c7e565b6040516370a0823160e01b815230600482015290915082906001600160a01b038516906370a0823190602401602060405180830381865afa1580156119ba573d6000803e3d6000fd5b505050506040513d601f19601f820116820180604052508101906119de9190614c7e565b6119e89190614e70565b81146119f6576119f6614e83565b6000611a148483611a0d60808c0160608d01614957565b6000612001565b9050611a4282611a2a60808b0160608c01614957565b83611a3d6101c08d016101a08e01614957565b6121ce565b5050505050505050565b336001600160a01b0384168114801590611b03575060405163c161c93f60e01b81526001600160a01b038281166004830152858116602483015260448201859052606482018490527f0000000000000000000000000000000000000000000000000000000000000000169063c161c93f90608401602060405180830381865afa158015611add573d6000803e3d6000fd5b505050506040513d601f19601f82011682018060405250810190611b019190614c97565b155b8015611bac575060405163c161c93f60e01b81526001600160a01b038281166004830152858116602483015260006044830152606482018490527f0000000000000000000000000000000000000000000000000000000000000000169063c161c93f90608401602060405180830381865afa158015611b86573d6000803e3d6000fd5b505050506040513d601f19601f82011682018060405250810190611baa9190614c97565b155b15611bca5760405163075fd2b160e01b815260040160405180910390fd5b50505050565b60008315611bf1576040516352864b0160e11b815260040160405180910390fd5b6001600160a01b0383166000908152602081905260408120600181018054908390558154909291908290611c2d906001600160401b0316614e99565b91906101000a8154816001600160401b0302191690836001600160401b031602179055905060006001600160a01b031684602001516001600160a01b031603611c945760405163393e175160e01b81526001600160a01b03861660048201526024016108c1565b6001600160a01b03851661eeee14611d8f57611cd1857f000000000000000000000000000000000000000000000000000000000000000084612a0e565b6020808501518551604080519384018152600084525163540abf7360e01b81526001600160a01b037f0000000000000000000000000000000000000000000000000000000000000000169363540abf7393611d58938b9391927f0000000000000000000000000000000000000000000000000000000000000000928a929190600401614ebf565b600060405180830381600087803b158015611d7257600080fd5b505af1158015611d86573d6000803e3d6000fd5b50505050611d93565b8192505b6001600160a01b0385166000908152602081905260408120611db790600201612a9e565b6001600160a01b03871660009081526020819052604081206022015491925090611de390600190614e70565b604080516060810182526020808a01516001600160a01b039081168352818301898152845180860186526001600160401b03808b1682528185018a9052858701918252955194518316602486015290516044850152518051909416606484015292015160848201529192507f00000000000000000000000000000000000000000000000000000000000000001690633dbb202b9087907f00000000000000000000000000000000000000000000000000000000000000009060a40160408051601f198184030181529181526020820180516001600160e01b03166369d31fdd60e01b179052516001600160e01b031960e086901b168152611eed929190620493e090600401614f12565b6000604051808303818588803b158015611f0657600080fd5b505af1158015611f1a573d6000803e3d6000fd5b5050604080518581526001600160401b03881660208201526001600160a01b038c1694508693507f3e069c1f498cba23d7d2b74b84311469e8da6e527cade62061d642c61b64e0de92500160405180910390a35050505050505050565b6000611f8283613e54565b8015611f935750611f938383613e87565b9392505050565b6040516001600160a01b038481166024830152838116604483015260648201839052611bca9186918216906323b872dd906084015b604051602081830303815290604052915060e01b6020820180516001600160e01b038381831617835250505050613f11565b604051630862026560e41b81527f000000000000000000000000000000000000000000000000000000000000000060048201526001600160a01b03838116602483015260009182917f00000000000000000000000000000000000000000000000000000000000000001690638620265090604401602060405180830381865afa158015612092573d6000803e3d6000fd5b505050506040513d601f19601f820116820180604052508101906120b69190614bd3565b90506001600160a01b0381166120ea5760405163393e175160e01b81526001600160a01b03851660048201526024016108c1565b60006120f68530613f74565b60408051602081018252600081529051635db90a7f60e11b81529192506001600160a01b0384169163bb7214fe9161215c9130917f0000000000000000000000000000000000000000000000000000000000000000918b918d918c918691600401614f4c565b6020604051808303816000875af115801561217b573d6000803e3d6000fd5b505050506040513d601f19601f8201168201806040525081019061219f9190614c7e565b9250806121ac8630613f74565b6121b69190614e70565b83146121c4576121c4614e83565b5050949350505050565b60006121db858484614004565b6001600160a01b0385166000908152602081815260408083208151610440810180845295965093946122469487949093600290930192849290830191849182845b81548152602001906001019080831161221c57505050918352505060209182015491015290614049565b6001600160a01b0386166000908152602081815260409091208251929350839260029091019161227791839161464c565b50602091820151908201556001600160a01b0386166000908152908190526040812060010180548692906122ac908490614c06565b92505081905550846001600160a01b0316836001600160a01b03167f7b58dbb78e7edc690b0688a53dea0c443d630c4a5db66c3c47d4ff2044c9772884600185602001516122fa9190614e70565b6001600160a01b038a16600090815260208190526040902061231e90600201612a9e565b60408051938452602084019290925290820152606081018a90526080810188905260a00160405180910390a3505050505050565b6001600160a01b0382166000908152600260205260409020548082111561238c57604051632858f9ab60e11b815260040160405180910390fd5b6123968282614e70565b6001600160a01b03848116600081815260026020526040808220949094559251630862026560e41b81527f0000000000000000000000000000000000000000000000000000000000000000600482015260248101919091527f000000000000000000000000000000000000000000000000000000000000000090911690638620265090604401602060405180830381865afa158015612439573d6000803e3d6000fd5b505050506040513d601f19601f8201168201806040525081019061245d9190614bd3565b90506001600160a01b0381166124b757604051630c9ae01360e01b81527f000000000000000000000000000000000000000000000000000000000000000060048201526001600160a01b03851660248201526044016108c1565b6001600160a01b03841661eeee14612667576040516370a0823160e01b81523060048201526000906001600160a01b038616906370a0823190602401602060405180830381865afa158015612510573d6000803e3d6000fd5b505050506040513d601f19601f820116820180604052508101906125349190614c7e565b9050612541858386612a0e565b60408051602080820183526000808352835191820184528082529251639e6eec0560e01b81526001600160a01b03861693639e6eec05936125ae937f0000000000000000000000000000000000000000000000000000000000000000938c938c9390929091600401614f9e565b600060405180830381600087803b1580156125c857600080fd5b505af11580156125dc573d6000803e3d6000fd5b5050505083816125ec9190614e70565b6040516370a0823160e01b81523060048201526001600160a01b038716906370a0823190602401602060405180830381865afa158015612630573d6000803e3d6000fd5b505050506040513d601f19601f820116820180604052508101906126549190614c7e565b1461266157612661614e83565b50611bca565b60408051602080820183526000808352835191820184528082529251639e6eec0560e01b81526001600160a01b03851693639e6eec059388936126d7937f0000000000000000000000000000000000000000000000000000000000000000938c9387939192909190600401614f9e565b6000604051808303818588803b1580156126f057600080fd5b505af1158015612704573d6000803e3d6000fd5b505050505050505050565b60007f00000000000000000000000000000000000000000000000000000000000000006001600160a01b0316826001600160a01b03161480156107d257507f00000000000000000000000000000000000000000000000000000000000000006001600160a01b03167f00000000000000000000000000000000000000000000000000000000000000006001600160a01b0316636e296e456040518163ffffffff1660e01b81526004016020604051808303816000875af11580156127d7573d6000803e3d6000fd5b505050506040513d601f19601f820116820180604052508101906127fb9190614bd3565b6001600160a01b03161492915050565b6001600160a01b0385166000908152600460209081526040808320600886901c8452909152902054600160ff84161b161561285c5760405163ed9bdd0760e01b8152600481018390526024016108c1565b6001600160a01b0385166000908152600460209081526040808320600886901c845290915281208054600160ff86161b1790556128cb61289d888787614004565b60408051610400818101909252908590602090839083908082843760009201919091525087915061414f9050565b6001600160a01b038716600090815260016020819052604090912001549091508114612932576001600160a01b0386166000908152600160208190526040918290200154905163286f87c960e21b81526004810191909152602481018290526044016108c1565b50505050505050565b60008080600019858709858702925082811083820303915050806000036129755783828161296b5761296b614fe5565b0492505050611f93565b8381106129a657604051630c740aef60e31b81526004810187905260248101869052604481018590526064016108c1565b600084868809600260036001881981018916988990049182028318808302840302808302840302808302840302808302840302808302840302918202909203026000889003889004909101858311909403939093029303949094049190911702949350505050565b604080516001600160a01b038416602482015260448082018490528251808303909101815260649091019091526020810180516001600160e01b031663095ea7b360e01b179052612a5f848261449d565b611bca576040516001600160a01b03848116602483015260006044830152612a9491869182169063095ea7b390606401611fcf565b611bca8482613f11565b6020810154600090808203612ad557507f27ae5ba08d7291c96c8cbddcc148bf48a6d68c7974b94356f53754ef6171d75792915050565b6000836001831615612af75780546000526000602052604060002093506133aa565b6002831615612b3c5760018101546000527fad3228b676f7d3cd4284a5443f17f1962b36e491b30a40b2405849e597ba5fb560205260406000209350600191506133aa565b6004831615612b815760028101546000527fb4c11951957c6f8f642c4af61cd6b24640fec6dc7fc607ee8206a99e92410d3060205260406000209350600291506133aa565b6008831615612bc65760038101546000527f21ddb9a356815c3fac1026b6dec5df3124afbadb485c9ba5a3e3398a04b7ba8560205260406000209350600391506133aa565b6010831615612c0b5760048101546000527fe58769b32a1beaf1ea27375a44095a0d1fb664ce2dd358e7fcbfb78c26a1934460205260406000209350600491506133aa565b6020831615612c505760058101546000527f0eb01ebfc9ed27500cd4dfc979272d1f0913cc9f66540d7e8005811109e1cf2d60205260406000209350600591506133aa565b6040831615612c955760068101546000527f887c22bd8750d34016ac3c66b5ff102dacdd73f6b014e710b51e8022af9a196860205260406000209350600691506133aa565b6080831615612cda5760078101546000527fffd70157e48063fc33c97a050f7f640233bf646cc98d9524c6b92bcf3ab56f8360205260406000209350600791506133aa565b610100831615612d205760088101546000527f9867cc5f7f196b93bae1e27e6320742445d290f2263827498b54fec539f756af60205260406000209350600891506133aa565b610200831615612d665760098101546000527fcefad4e508c098b9a7e1d8feb19955fb02ba9675585078710969d3440f5054e060205260406000209350600991506133aa565b610400831615612dac57600a8101546000527ff9dc3e7fe016e050eff260334f18a5d4fe391d82092319f5964f2e2eb7c1c3a560205260406000209350600a91506133aa565b610800831615612df257600b8101546000527ff8b13a49e282f609c317a833fb8d976d11517c571d1221a265d25af778ecf89260205260406000209350600b91506133aa565b611000831615612e3857600c8101546000527f3490c6ceeb450aecdc82e28293031d10c7d73bf85e57bf041a97360aa2c5d99c60205260406000209350600c91506133aa565b612000831615612e7e57600d8101546000527fc1df82d9c4b87413eae2ef048f94b4d3554cea73d92b0f7af96e0271c691e2bb60205260406000209350600d91506133aa565b614000831615612ec457600e8101546000527f5c67add7c6caf302256adedf7ab114da0acfe870d449a3a489f781d659e8becc60205260406000209350600e91506133aa565b618000831615612f0a57600f8101546000527fda7bce9f4e8618b6bd2f4132ce798cdc7a60e7e1460a7299e3c6342a579626d260205260406000209350600f91506133aa565b62010000831615612f515760108101546000527f2733e50f526ec2fa19a22b31e8ed50f23cd1fdf94c9154ed3a7609a2f1ff981f60205260406000209350601091506133aa565b62020000831615612f985760118101546000527fe1d3b5c807b281e4683cc6d6315cf95b9ade8641defcb32372f1c126e398ef7a60205260406000209350601191506133aa565b62040000831615612fdf5760128101546000527f5a2dce0a8a7f68bb74560f8f71837c2c2ebbcbf7fffb42ae1896f13f7c7479a060205260406000209350601291506133aa565b620800008316156130265760138101546000527fb46a28b6f55540f89444f63de0378e3d121be09e06cc9ded1c20e65876d36aa060205260406000209350601391506133aa565b6210000083161561306d5760148101546000527fc65e9645644786b620e2dd2ad648ddfcbf4a7e5b1a3a4ecfe7f64667a3f0b7e260205260406000209350601491506133aa565b622000008316156130b45760158101546000527ff4418588ed35a2458cffeb39b93d26f18d2ab13bdce6aee58e7b99359ec2dfd960205260406000209350601591506133aa565b624000008316156130fb5760168101546000527f5a9c16dc00d6ef18b7933a6f8dc65ccb55667138776f7dea101070dc8796e37760205260406000209350601691506133aa565b628000008316156131425760178101546000527f4df84f40ae0c8229d0d6069e5c8f39a7c299677a09d367fc7b05e3bc380ee65260205260406000209350601791506133aa565b630100000083161561318a5760188101546000527fcdc72595f74c7b1043d0e1ffbab734648c838dfb0527d971b602bc216c9619ef60205260406000209350601891506133aa565b63020000008316156131d25760198101546000527f0abf5ac974a1ed57f4050aa510dd9c74f508277b39d7973bb2dfccc5eeb0618d60205260406000209350601991506133aa565b630400000083161561321a57601a8101546000527fb8cd74046ff337f0a7bf2c8e03e10f642c1886798d71806ab1e888d9e5ee87d060205260406000209350601a91506133aa565b630800000083161561326257601b8101546000527f838c5655cb21c6cb83313b5a631175dff4963772cce9108188b34ac87c81c41e60205260406000209350601b91506133aa565b63100000008316156132aa57601c8101546000527f662ee4dd2dd7b2bc707961b1e646c4047669dcb6584f0d8d770daf5d7e7deb2e60205260406000209350601c91506133aa565b63200000008316156132f257601d8101546000527f388ab20e2573d171a88108e79d820e98f26c0b84aa8b2f4aa4968dbb818ea32260205260406000209350601d91506133aa565b634000000083161561333a57601e8101546000527f93237c50ba75ee485f4c22adf2f741400bdf8d6a9cc7df7ecae576221665d73560205260406000209350601e91506133aa565b638000000083161561338257601f8101546000527f8448818bb4ae4562849e949e17ac16e0be16688e156b5cf15e098c627c0056a960205260406000209350601f91506133aa565b7f27ae5ba08d7291c96c8cbddcc148bf48a6d68c7974b94356f53754ef6171d7579350602091505b601e8211613e4c576001821015613408576002831680156133d6576001820154600052846020526133ff565b846000527fad3228b676f7d3cd4284a5443f17f1962b36e491b30a40b2405849e597ba5fb56020525b50604060002093505b600282101561345e5760048316801561342c57600282015460005284602052613455565b846000527fb4c11951957c6f8f642c4af61cd6b24640fec6dc7fc607ee8206a99e92410d306020525b50604060002093505b60038210156134b457600883168015613482576003820154600052846020526134ab565b846000527f21ddb9a356815c3fac1026b6dec5df3124afbadb485c9ba5a3e3398a04b7ba856020525b50604060002093505b600482101561350a576010831680156134d857600482015460005284602052613501565b846000527fe58769b32a1beaf1ea27375a44095a0d1fb664ce2dd358e7fcbfb78c26a193446020525b50604060002093505b60058210156135605760208316801561352e57600582015460005284602052613557565b846000527f0eb01ebfc9ed27500cd4dfc979272d1f0913cc9f66540d7e8005811109e1cf2d6020525b50604060002093505b60068210156135b657604083168015613584576006820154600052846020526135ad565b846000527f887c22bd8750d34016ac3c66b5ff102dacdd73f6b014e710b51e8022af9a19686020525b50604060002093505b600782101561360c576080831680156135da57600782015460005284602052613603565b846000527fffd70157e48063fc33c97a050f7f640233bf646cc98d9524c6b92bcf3ab56f836020525b50604060002093505b600882101561366357610100831680156136315760088201546000528460205261365a565b846000527f9867cc5f7f196b93bae1e27e6320742445d290f2263827498b54fec539f756af6020525b50604060002093505b60098210156136ba5761020083168015613688576009820154600052846020526136b1565b846000527fcefad4e508c098b9a7e1d8feb19955fb02ba9675585078710969d3440f5054e06020525b50604060002093505b600a82101561371157610400831680156136df57600a82015460005284602052613708565b846000527ff9dc3e7fe016e050eff260334f18a5d4fe391d82092319f5964f2e2eb7c1c3a56020525b50604060002093505b600b821015613768576108008316801561373657600b8201546000528460205261375f565b846000527ff8b13a49e282f609c317a833fb8d976d11517c571d1221a265d25af778ecf8926020525b50604060002093505b600c8210156137bf576110008316801561378d57600c820154600052846020526137b6565b846000527f3490c6ceeb450aecdc82e28293031d10c7d73bf85e57bf041a97360aa2c5d99c6020525b50604060002093505b600d82101561381657612000831680156137e457600d8201546000528460205261380d565b846000527fc1df82d9c4b87413eae2ef048f94b4d3554cea73d92b0f7af96e0271c691e2bb6020525b50604060002093505b600e82101561386d576140008316801561383b57600e82015460005284602052613864565b846000527f5c67add7c6caf302256adedf7ab114da0acfe870d449a3a489f781d659e8becc6020525b50604060002093505b600f8210156138c4576180008316801561389257600f820154600052846020526138bb565b846000527fda7bce9f4e8618b6bd2f4132ce798cdc7a60e7e1460a7299e3c6342a579626d26020525b50604060002093505b601082101561391c5762010000831680156138ea57601082015460005284602052613913565b846000527f2733e50f526ec2fa19a22b31e8ed50f23cd1fdf94c9154ed3a7609a2f1ff981f6020525b50604060002093505b60118210156139745762020000831680156139425760118201546000528460205261396b565b846000527fe1d3b5c807b281e4683cc6d6315cf95b9ade8641defcb32372f1c126e398ef7a6020525b50604060002093505b60128210156139cc57620400008316801561399a576012820154600052846020526139c3565b846000527f5a2dce0a8a7f68bb74560f8f71837c2c2ebbcbf7fffb42ae1896f13f7c7479a06020525b50604060002093505b6013821015613a245762080000831680156139f257601382015460005284602052613a1b565b846000527fb46a28b6f55540f89444f63de0378e3d121be09e06cc9ded1c20e65876d36aa06020525b50604060002093505b6014821015613a7c576210000083168015613a4a57601482015460005284602052613a73565b846000527fc65e9645644786b620e2dd2ad648ddfcbf4a7e5b1a3a4ecfe7f64667a3f0b7e26020525b50604060002093505b6015821015613ad4576220000083168015613aa257601582015460005284602052613acb565b846000527ff4418588ed35a2458cffeb39b93d26f18d2ab13bdce6aee58e7b99359ec2dfd96020525b50604060002093505b6016821015613b2c576240000083168015613afa57601682015460005284602052613b23565b846000527f5a9c16dc00d6ef18b7933a6f8dc65ccb55667138776f7dea101070dc8796e3776020525b50604060002093505b6017821015613b84576280000083168015613b5257601782015460005284602052613b7b565b846000527f4df84f40ae0c8229d0d6069e5c8f39a7c299677a09d367fc7b05e3bc380ee6526020525b50604060002093505b6018821015613bdd57630100000083168015613bab57601882015460005284602052613bd4565b846000527fcdc72595f74c7b1043d0e1ffbab734648c838dfb0527d971b602bc216c9619ef6020525b50604060002093505b6019821015613c3657630200000083168015613c0457601982015460005284602052613c2d565b846000527f0abf5ac974a1ed57f4050aa510dd9c74f508277b39d7973bb2dfccc5eeb0618d6020525b50604060002093505b601a821015613c8f57630400000083168015613c5d57601a82015460005284602052613c86565b846000527fb8cd74046ff337f0a7bf2c8e03e10f642c1886798d71806ab1e888d9e5ee87d06020525b50604060002093505b601b821015613ce857630800000083168015613cb657601b82015460005284602052613cdf565b846000527f838c5655cb21c6cb83313b5a631175dff4963772cce9108188b34ac87c81c41e6020525b50604060002093505b601c821015613d4157631000000083168015613d0f57601c82015460005284602052613d38565b846000527f662ee4dd2dd7b2bc707961b1e646c4047669dcb6584f0d8d770daf5d7e7deb2e6020525b50604060002093505b601d821015613d9a57632000000083168015613d6857601d82015460005284602052613d91565b846000527f388ab20e2573d171a88108e79d820e98f26c0b84aa8b2f4aa4968dbb818ea3226020525b50604060002093505b601e821015613df357634000000083168015613dc157601e82015460005284602052613dea565b846000527f93237c50ba75ee485f4c22adf2f741400bdf8d6a9cc7df7ecae576221665d7356020525b50604060002093505b601f821015613e4c57638000000083168015613e1a57601f82015460005284602052613e43565b846000527f8448818bb4ae4562849e949e17ac16e0be16688e156b5cf15e098c627c0056a96020525b50604060002093505b505050919050565b6000613e67826301ffc9a760e01b613e87565b80156107d25750613e80826001600160e01b0319613e87565b1592915050565b6040516001600160e01b031982166024820152600090819060440160408051601f19818403018152919052602080820180516001600160e01b03166301ffc9a760e01b178152825192935060009283928392909183918a617530fa92503d91506000519050828015613efa575060208210155b8015613f065750600081115b979650505050505050565b6000613f266001600160a01b03841683614545565b90508051600014158015613f4b575080806020019051810190613f499190614c97565b155b1561080b57604051635274afe760e01b81526001600160a01b03841660048201526024016108c1565b600061eeed196001600160a01b03841601613f9a57506001600160a01b038116316107d2565b6040516370a0823160e01b81526001600160a01b0383811660048301528416906370a0823190602401602060405180830381865afa158015613fe0573d6000803e3d6000fd5b505050506040513d601f19601f82011682018060405250810190611f939190614c7e565b60408051602081018590529081018390526001600160a01b03821660608201526000906080016040516020818303038152906040528051906020012090509392505050565b614051614686565b600083602001805161406290614ffb565b908190529050600161407660206002614e64565b6140809190614e70565b8111156140a057604051638eab04bb60e01b815260040160405180910390fd5b60005b602081101561413557816001166001036140dc578451849082602081106140cc576140cc614b97565b6020020152508391506107d29050565b845181602081106140ef576140ef614b97565b60200201518460405160200161410f929190918252602082015260400190565b60408051601f1981840301815291905280516020909101209350600191821c91016140a3565b50604051638eab04bb60e01b815260040160405180910390fd5b6020600582811b8216948552835194820394909452604060008181206002851615871b808503919091528386015190528181206004851615871b808503919091528286015190528181206008851615871b80850391909152606086015190528181206010851615871b8085039190915260808087015190915282822084861615881b8086039190915260a0870151905282822083861615881b8086039190915260c0870151905282822090851615871b8085039190915260e0860151905281812061010080861615881b80860392909252860151905281812061020080861615881b80860392909252610120870151909152828220610400861615881b808603919091526101408701519052828220610800861615881b808603919091526101608701519052828220611000861615881b808603919091526101808701519052828220612000861615881b808603919091526101a08701519052828220614000861615881b808603919091526101c08701519052828220618000861615881b808603919091526101e0870151905282822062010000861615881b8086039190915290860151905281812062020000851615871b80850391909152610220860151905281812062040000851615871b80850391909152610240860151905281812062080000851615871b80850391909152610260860151905281812062100000851615871b80850391909152610280860151905281812062200000851615871b808503919091526102a0860151905281812062400000851615871b808503919091526102c0860151905281812062800000851615871b808503919091526102e086015190528181206301000000851615871b8085039190915261030086015190528181206302000000851615871b8085039190915261032086015190528181206304000000851615871b8085039190915261034086015190528181206308000000851615871b8085039190915261036086015190528181206310000000851615871b8085039190915261038086015190528181206320000000851615871b808503919091526103a086015190528181206340000000851615871b808503919091526103c0860151905281812063800000009094161590951b91829003929092526103e090920151909152902090565b6000806000846001600160a01b0316846040516144ba9190615014565b6000604051808303816000865af19150503d80600081146144f7576040519150601f19603f3d011682016040523d82523d6000602084013e6144fc565b606091505b50915091508180156145265750805115806145265750808060200190518101906145269190614c97565b801561453c57506000856001600160a01b03163b115b95945050505050565b6060611f938383600084600080856001600160a01b0316848660405161456b9190615014565b60006040518083038185875af1925050503d80600081146145a8576040519150601f19603f3d011682016040523d82523d6000602084013e6145ad565b606091505b50915091506145bd8683836145c7565b9695505050505050565b6060826145dc576145d782614623565b611f93565b81511580156145f357506001600160a01b0384163b155b1561461c57604051639996b31560e01b81526001600160a01b03851660048201526024016108c1565b5080611f93565b8051156146335780518082602001fd5b604051630a12f52160e11b815260040160405180910390fd5b826020810192821561467a579160200282015b8281111561467a57825182559160200191906001019061465f565b50610f419291506146a6565b60405180604001604052806146996146bb565b8152602001600081525090565b5b80821115610f4157600081556001016146a7565b6040518061040001604052806020906020820280368337509192915050565b6000602082840312156146ec57600080fd5b81356001600160e01b031981168114611f9357600080fd5b6000806020838503121561471757600080fd5b82356001600160401b038082111561472e57600080fd5b818501915085601f83011261474257600080fd5b81358181111561475157600080fd5b8660208260071b850101111561476657600080fd5b60209290920196919550909350505050565b60006080828403121561478a57600080fd5b50919050565b6000608082840312156147a257600080fd5b611f938383614778565b6000602082840312156147be57600080fd5b81356001600160401b038111156147d457600080fd5b82016101808185031215611f9357600080fd5b60005b838110156148025781810151838201526020016147ea565b50506000910152565b600081518084526148238160208601602086016147e7565b601f01601f19169290920160200192915050565b6000604080830185845260206040818601528186518084526060935060608701915060608160051b88010183890160005b838110156148b857898303605f19018552815180516001600160a01b0316845286810151878501528801518884018890526148a58885018261480b565b9587019593505090850190600101614868565b50909a9950505050505050505050565b6001600160a01b0381168114610fbb57600080fd5b600080600080608085870312156148f357600080fd5b843593506020850135614905816148c8565b925060408501359150606085013561491c816148c8565b939692955090935050565b6000806040838503121561493a57600080fd5b82359150602083013561494c816148c8565b809150509250929050565b60006020828403121561496957600080fd5b8135611f93816148c8565b6001600160401b038416815260208082018490528251610460830191906000604085015b838210156149b6578251815291830191600191909101908301614998565b505050506020830151610440830152949350505050565b6000602082840312156149df57600080fd5b81356001600160401b038111156149f557600080fd5b82016101a08185031215611f9357600080fd5b60006080820186835260208681850152604086604086015260606080606087015283875180865260a08801915060a08160051b890101955084890160005b82811015614a9657898803609f19018452815180516001600160a01b0316895287810151888a0152860151868901869052614a83868a018261480b565b9850509286019290860190600101614a46565b50959c9b505050505050505050505050565b60006104a0828403121561478a57600080fd5b60008060208385031215614ace57600080fd5b82356001600160401b0380821115614ae557600080fd5b818501915085601f830112614af957600080fd5b813581811115614b0857600080fd5b8660206104a08302850101111561476657600080fd5b634e487b7160e01b600052602160045260246000fd5b6020810160028310614b5657634e487b7160e01b600052602160045260246000fd5b91905290565b600060208284031215614b6e57600080fd5b81356001600160401b03811115614b8457600080fd5b82016102008185031215611f9357600080fd5b634e487b7160e01b600052603260045260246000fd5b600060208284031215614bbf57600080fd5b813563ffffffff81168114611f9357600080fd5b600060208284031215614be557600080fd5b8151611f93816148c8565b634e487b7160e01b600052601160045260246000fd5b808201808211156107d2576107d2614bf0565b6001600160401b0381168114610fbb57600080fd5b600060208284031215614c4057600080fd5b8135611f9381614c19565b8135614c5681614c19565b6001600160401b0381166001600160401b031983541617825550602082013560018201555050565b600060208284031215614c9057600080fd5b5051919050565b600060208284031215614ca957600080fd5b81518015158114611f9357600080fd5b60405161012081016001600160401b0381118282101715614cea57634e487b7160e01b600052604160045260246000fd5b60405290565b8051614cfb816148c8565b919050565b60006101208284031215614d1357600080fd5b614d1b614cb9565b825181526020830151602082015260408301516040820152606083015160608201526080830151608082015260a083015160a082015260c083015160c0820152614d6760e08401614cf0565b60e0820152610100928301519281019290925250919050565b600181815b80851115614dbb578160001904821115614da157614da1614bf0565b80851615614dae57918102915b93841c9390800290614d85565b509250929050565b600082614dd2575060016107d2565b81614ddf575060006107d2565b8160018114614df55760028114614dff57614e1b565b60019150506107d2565b60ff841115614e1057614e10614bf0565b50506001821b6107d2565b5060208310610133831016604e8410600b8410161715614e3e575081810a6107d2565b614e488383614d80565b8060001904821115614e5c57614e5c614bf0565b029392505050565b6000611f938383614dc3565b818103818111156107d2576107d2614bf0565b634e487b7160e01b600052600160045260246000fd5b60006001600160401b03808316818103614eb557614eb5614bf0565b6001019392505050565b6001600160a01b0387811682528681166020830152851660408201526060810184905263ffffffff8316608082015260c060a08201819052600090614f069083018461480b565b98975050505050505050565b6001600160a01b0384168152606060208201819052600090614f369083018561480b565b905063ffffffff83166040830152949350505050565b600060018060a01b03808a168352886020840152808816604084015286606084015285608084015280851660a08401525060e060c0830152614f9160e083018461480b565b9998505050505050505050565b86815260018060a01b0386166020820152846040820152831515606082015260c060808201526000614fd360c083018561480b565b82810360a0840152614f91818561480b565b634e487b7160e01b600052601260045260246000fd5b60006001820161500d5761500d614bf0565b5060010190565b600082516150268184602087016147e7565b919091019291505056fea264697066735822122048ba3935e23a529931e1dd1e5f5b045ca9c9be52a392e536f6c7ba230bc311bc64736f6c63430008170033a264697066735822122081ab4f110be5e51b1da07e034e0eaa28f34dc6042b51a5630c4f6bceab45063b64736f6c63430008170033",
			"deployedBytecode": "0x608060405234801561001057600080fd5b506004361061007d5760003560e01c8063c39ec1241161005b578063c39ec124146100e6578063cc8b6f4f14610119578063ee9a31a21461012e578063f434c9141461014157600080fd5b806312130366146100825780632cdaa896146100b2578063927ede2d146100d3575b600080fd5b6100956100903660046106a5565b610168565b6040516001600160a01b0390911681526020015b60405180910390f35b6100c56100c03660046106df565b6102e7565b6040519081526020016100a9565b600054610095906001600160a01b031681565b6101096100f436600461074d565b60026020526000908152604090205460ff1681565b60405190151581526020016100a9565b61012c610127366004610771565b6104a4565b005b600154610095906001600160a01b031681565b6100957f000000000000000000000000a1ba58fca530d0b011646167c9eb81f54d9c9df681565b6040516bffffffffffffffffffffffff193360601b16602082015260348101829052600090605401604051602081830303815290604052805190602001209150817f000000000000000000000000801ff757d8fd571934e306df9282de42c901b8357f000000000000000000000000def756ef46098cb2109128d3458e01bcf58411d17f0000000000000000000000006a6988e79a621fc7ea74d67a31e9cefccc98e9497f000000000000000000000000266b64c59e45cccaeea8d34758c495a0517139f07f000000000000000000000000a1ba58fca530d0b011646167c9eb81f54d9c9df660008960405161025d90610697565b6001600160a01b0397881681529587166020870152938616604086015291851660608501528416608084015290921660a082015260c081019190915260e0018190604051809103906000f59050801580156102bc573d6000803e3d6000fd5b506001600160a01b0381166000908152600260205260409020805460ff191660011790559392505050565b3360009081526002602052604081205460ff1661031757604051631199558960e11b815260040160405180910390fd5b6104127f0000000000000000000000006a6988e79a621fc7ea74d67a31e9cefccc98e9496001600160a01b031663293c49996040518163ffffffff1660e01b8152600401602060405180830381865afa158015610378573d6000803e3d6000fd5b505050506040513d601f19601f8201168201806040525081019061039c91906107aa565b6001600160a01b0316636352211e896040518263ffffffff1660e01b81526004016103c991815260200190565b602060405180830381865afa1580156103e6573d6000803e3d6000fd5b505050506040513d601f19601f8201168201806040525081019061040a91906107aa565b886011610513565b6040805160208101825260008152905163b62d17cf60e01b81526001600160a01b0388169163b62d17cf91610456918b918a9189918b918a913391906004016107c7565b6020604051808303816000875af1158015610475573d6000803e3d6000fd5b505050506040513d601f19601f820116820180604052508101906104999190610857565b979650505050505050565b6000546001600160a01b03161515806104c757506001546001600160a01b031615155b156104e55760405163ccbe17fd60e01b815260040160405180910390fd5b600080546001600160a01b039384166001600160a01b03199182161790915560018054929093169116179055565b336001600160a01b03841681148015906105ca575060405163c161c93f60e01b81526001600160a01b038281166004830152858116602483015260448201859052606482018490527f000000000000000000000000a1ba58fca530d0b011646167c9eb81f54d9c9df6169063c161c93f90608401602060405180830381865afa1580156105a4573d6000803e3d6000fd5b505050506040513d601f19601f820116820180604052508101906105c89190610870565b155b8015610673575060405163c161c93f60e01b81526001600160a01b038281166004830152858116602483015260006044830152606482018490527f000000000000000000000000a1ba58fca530d0b011646167c9eb81f54d9c9df6169063c161c93f90608401602060405180830381865afa15801561064d573d6000803e3d6000fd5b505050506040513d601f19601f820116820180604052508101906106719190610870565b155b156106915760405163075fd2b160e01b815260040160405180910390fd5b50505050565b61544e806200089383390190565b600080604083850312156106b857600080fd5b50508035926020909101359150565b6001600160a01b03811681146106dc57600080fd5b50565b60008060008060008060c087890312156106f857600080fd5b86359550602087013561070a816106c7565b9450604087013561071a816106c7565b9350606087013563ffffffff8116811461073357600080fd5b9598949750929560808101359460a0909101359350915050565b60006020828403121561075f57600080fd5b813561076a816106c7565b9392505050565b6000806040838503121561078457600080fd5b823561078f816106c7565b9150602083013561079f816106c7565b809150509250929050565b6000602082840312156107bc57600080fd5b815161076a816106c7565b8781526000602060018060a01b03808a16602085015288604085015263ffffffff8816606085015286608085015280861660a08501525060e060c084015283518060e085015260005b8181101561082d5785810183015185820161010001528201610810565b506101009150600082828601015281601f19601f8301168501019250505098975050505050505050565b60006020828403121561086957600080fd5b5051919050565b60006020828403121561088257600080fd5b8151801515811461076a57600080fdfe6101e06040523480156200001257600080fd5b506040516200544e3803806200544e8339810160408190526200003591620001a6565b6001600160a01b0380841660805280861660c05280851660e05287908790879087908790879087908216156200006c57816200006e565b305b6001600160a01b03166101205261014081905233610100525050506001600160a01b0393841661018052505016610160526040805163927ede2d60e01b81529051339163927ede2d9160048083019260209291908290030181865afa158015620000dc573d6000803e3d6000fd5b505050506040513d601f19601f8201168201806040525081019062000102919062000245565b6001600160a01b03166101a0526040805163774d18d160e11b81529051339163ee9a31a29160048083019260209291908290030181865afa1580156200014c573d6000803e3d6000fd5b505050506040513d601f19601f8201168201806040525081019062000172919062000245565b6001600160a01b03166101c052506200026c95505050505050565b6001600160a01b0381168114620001a357600080fd5b50565b600080600080600080600060e0888a031215620001c257600080fd5b8751620001cf816200018d565b6020890151909750620001e2816200018d565b6040890151909650620001f5816200018d565b606089015190955062000208816200018d565b60808901519094506200021b816200018d565b60a08901519093506200022e816200018d565b8092505060c0880151905092959891949750929550565b6000602082840312156200025857600080fd5b815162000265816200018d565b9392505050565b60805160a05160c05160e05161010051610120516101405161016051610180516101a0516101c051615066620003e8600039600081816102c601528181611cac0152611cfb01526000818161076401528181611e50015281816127130152612779015260008181610270015261166301526000818161065d01526115c6015260008181610368015281816109c501528181610a4201528181610bad01528181610be501528181610dad015281816112a701528181611350015281816120100152818161212c015281816123c20152818161247c0152818161257e01526126a601526000818161051f01528181611d2c01528181611e7b015261274f015260006105e801526000818161022401528181610dd601526117740152600081816104bb01528181610936015281816112cd01528181611510015281816118740152818161204b01526123f001526000818161061c01528181610f49015261124901526000818161073001528181611a960152611b3f01526150666000f3fe6080604052600436106101d15760003560e01c806388bc2ef3116100f7578063c1b8411a11610095578063ed0e26b911610064578063ed0e26b9146106ac578063f3c578811461070b578063f434c9141461071e578063fc8fa43d1461075257600080fd5b8063c1b8411a146105d6578063c6525f2c1461060a578063d4a1b4b11461064b578063e7f82c751461067f57600080fd5b8063b59ef50f116100d1578063b59ef50f14610541578063b71c117914610561578063bf557aee14610574578063c1854129146105b657600080fd5b806388bc2ef3146104a9578063aaf320d7146104dd578063ad42938b1461050d57600080fd5b8063551ebbf01161016f57806369ce22331161013e57806369ce2233146103d057806369d31fdd146103f05780636dfa7268146104035780637de6fba21461043257600080fd5b8063551ebbf01461033657806356539f391461035657806361c8641714610398578063677ce088146103ad57600080fd5b80632241dc52116101ab5780632241dc52146102925780632847f1f3146102b457806338eb2044146102e85780634c4ffc711461030857600080fd5b806301ffc9a7146101dd5780631d831d5c146102125780631eabcd341461025e57600080fd5b366101d857005b600080fd5b3480156101e957600080fd5b506101fd6101f83660046146da565b610786565b60405190151581526020015b60405180910390f35b34801561021e57600080fd5b506102467f000000000000000000000000000000000000000000000000000000000000000081565b6040516001600160a01b039091168152602001610209565b34801561026a57600080fd5b506102467f000000000000000000000000000000000000000000000000000000000000000081565b34801561029e57600080fd5b506102b26102ad366004614704565b6107d8565b005b3480156102c057600080fd5b506102467f000000000000000000000000000000000000000000000000000000000000000081565b3480156102f457600080fd5b506102b2610303366004614790565b610810565b34801561031457600080fd5b506103286103233660046147ac565b610ba7565b604051610209929190614837565b34801561034257600080fd5b506102b26103513660046148dd565b610d77565b34801561036257600080fd5b5061038a7f000000000000000000000000000000000000000000000000000000000000000081565b604051908152602001610209565b3480156103a457600080fd5b5061038a610ef5565b3480156103b957600080fd5b506101fd6103c8366004614927565b600092915050565b3480156103dc57600080fd5b506102b26103eb366004614957565b610f45565b6102b26103fe366004614790565b610fbe565b34801561040f57600080fd5b5061042361041e366004614957565b61112f565b60405161020993929190614974565b34801561043e57600080fd5b5061047f61044d366004614957565b6003602052600090815260409020805460019091015463ffffffff821691600160201b90046001600160a01b03169083565b6040805163ffffffff90941684526001600160a01b03909216602084015290820152606001610209565b3480156104b557600080fd5b506102467f000000000000000000000000000000000000000000000000000000000000000081565b3480156104e957600080fd5b506104fd6104f83660046149cd565b611199565b6040516102099493929190614a08565b34801561051957600080fd5b506102467f000000000000000000000000000000000000000000000000000000000000000081565b34801561054d57600080fd5b506102b261055c366004614aa8565b61120d565b6102b261056f366004614957565b611414565b34801561058057600080fd5b506101fd61058f366004614957565b6001600160a01b03908116600090815260036020526040902054600160201b900416151590565b3480156105c257600080fd5b506102b26105d1366004614abb565b6114bd565b3480156105e257600080fd5b506102467f000000000000000000000000000000000000000000000000000000000000000081565b34801561061657600080fd5b5061063e7f000000000000000000000000000000000000000000000000000000000000000081565b6040516102099190614b34565b34801561065757600080fd5b506102467f000000000000000000000000000000000000000000000000000000000000000081565b34801561068b57600080fd5b5061038a61069a366004614957565b60026020526000908152604090205481565b3480156106b857600080fd5b506106ec6106c7366004614957565b600160208190526000918252604090912080549101546001600160401b039091169082565b604080516001600160401b039093168352602083019190915201610209565b6102b2610719366004614b5c565b6114f1565b34801561072a57600080fd5b506102467f000000000000000000000000000000000000000000000000000000000000000081565b34801561075e57600080fd5b506102467f000000000000000000000000000000000000000000000000000000000000000081565b60006001600160e01b031982166340e01e1760e11b14806107b757506001600160e01b0319821663f3c5788160e01b145b806107d257506301ffc9a760e01b6001600160e01b03198316145b92915050565b60005b8181101561080b576108038383838181106107f8576107f8614b97565b905060800201610810565b6001016107db565b505050565b600061081f6020830183614957565b9050600061eeee6108336020850185614957565b6001600160a01b0316149050808015610866575061eeee61085a6060850160408601614957565b6001600160a01b031614155b801561088b5750600061087f6060850160408601614957565b6001600160a01b031614155b156108ca576108a06060840160408501614957565b604051630a0a3b6b60e31b81526001600160a01b0390911660048201526024015b60405180910390fd5b62030d406108de6040850160208601614bad565b63ffffffff161080156108ef575080155b156109315762030d406109086040850160208601614bad565b604051634f3dbeb360e11b815263ffffffff9283166004820152911660248201526044016108c1565b610a687f00000000000000000000000000000000000000000000000000000000000000006001600160a01b031663293c49996040518163ffffffff1660e01b8152600401602060405180830381865afa158015610992573d6000803e3d6000fd5b505050506040513d601f19601f820116820180604052508101906109b69190614bd3565b6040516331a9108f60e11b81527f000000000000000000000000000000000000000000000000000000000000000060048201526001600160a01b039190911690636352211e90602401602060405180830381865afa158015610a1c573d6000803e3d6000fd5b505050506040513d601f19601f82011682018060405250810190610a409190614bd3565b7f0000000000000000000000000000000000000000000000000000000000000000601d611a4c565b6000610a7a6060850160408601614957565b6001600160a01b0316148015610aaa57506001600160a01b03821660009081526020819052604090206001015415155b15610b04576001600160a01b0380831660009081526003602090815260408083208151606081018352815463ffffffff81168252600160201b90049095169285019290925260019091015490830152610b04918490611bd0565b6040518060600160405280846020016020810190610b229190614bad565b63ffffffff168152602001610b3d6060860160408701614957565b6001600160a01b0390811682526060909501356020918201529284166000908152600384526040908190208251815495840151909616600160201b026001600160c01b031990951663ffffffff909616959095179390931784559091015160019092019190915550565b600060607f00000000000000000000000000000000000000000000000000000000000000008360c0013514610c1b57604051632d7b333360e11b81527f0000000000000000000000000000000000000000000000000000000000000000600482015260c084013560248201526044016108c1565b6000610c2d6060850160408601614957565b6001600160a01b03808216600090815260036020526040902054919250600160201b90910416158015610c7a5750610c78610c6b6020860186614957565b635db90a7f60e11b611f77565b155b15610cd5576040805160008082526020820190925261012086013591610cca565b60408051606080820183526000808352602083015291810191909152815260200190600190039081610c9b5790505b509250925050915091565b60408051600180825281830190925290816020015b60408051606080820183526000808352602083015291810191909152815260200190600190039081610cea5790505091506040518060600160405280306001600160a01b03168152602001600081526020016040518060200160405280600081525081525082600081518110610d6257610d62614b97565b60200260200101819052506000925050915091565b6001600160a01b038316610d9e576040516309a9c30b60e41b815260040160405180910390fd5b60405163ea78803f60e01b81527f000000000000000000000000000000000000000000000000000000000000000060048201526000907f00000000000000000000000000000000000000000000000000000000000000006001600160a01b03169063ea78803f90602401602060405180830381865afa158015610e25573d6000803e3d6000fd5b505050506040513d601f19601f82011682018060405250810190610e499190614bd3565b90506001600160a01b038116610e7257604051635a33845560e01b815260040160405180910390fd5b6001600160a01b03828116600090815260036020526040902054600160201b900416610ebc5760405163393e175160e01b81526001600160a01b03831660048201526024016108c1565b610ed16001600160a01b038216333088611f9a565b6000610edf82878587612001565b9050610eed868483886121ce565b505050505050565b6000466001819003610f0957600a91505090565b80600a03610f1957600191505090565b8062aa36a703610f2d5762aa37dc91505090565b8062aa37dc03610f415762aa36a791505090565b5090565b60007f00000000000000000000000000000000000000000000000000000000000000006001811115610f7957610f79614b1e565b14610f975760405163218a9a2d60e11b815260040160405180910390fd5b6001600160a01b038116600090815260026020526040902054610fbb908290612352565b50565b610fc73361270f565b610fe457604051630439dbd360e51b815260040160405180910390fd5b60208101803590600290600090610ffb9085614957565b6001600160a01b03166001600160a01b03168152602001908152602001600020600082825461102a9190614c06565b909155506001905060006110416020840184614957565b6001600160a01b0316815260208101919091526040908101600020546001600160401b0316906110779060608401908401614c2e565b6001600160401b03161115610fbb57604081016001600061109b6020850185614957565b6001600160a01b0316815260208101919091526040016000206110be8282614c4b565b506110ce90506020820182614957565b6001600160a01b03167f551b6b99b4c48e3265d2885ab0d93779be2402293261e074f7bf74b2c8f45b6f6111086060840160408501614c2e565b604080516001600160401b039092168252606085013560208301520160405180910390a250565b6000602081815291815260409081902080546001820154835161044081018086526001600160401b0390931695919490926002850192849283019184919082845b815481526020019060010190808311611170575050509183525050602091820154910152905083565b600080806060610160850135608086013560a0870135846040519080825280602002602001820160405280156111fd57816020015b604080516060808201835260008083526020830152918101919091528152602001906001900390816111ce5790505b5093509350935093509193509193565b61124560608201356112226020840184614957565b60808401356112376060860160408701614957565b602086013560a0870161280b565b60017f0000000000000000000000000000000000000000000000000000000000000000600181111561127957611279614b1e565b036112985761129861128e6020830183614957565b6080830135612352565b604051632eec7b5560e11b81527f000000000000000000000000000000000000000000000000000000000000000060048201527f00000000000000000000000000000000000000000000000000000000000000006001600160a01b031690635dd8f6aa90602401602060405180830381865afa15801561131c573d6000803e3d6000fd5b505050506040513d601f19601f820116820180604052508101906113409190614bd3565b6001600160a01b031663c7fb92de7f0000000000000000000000000000000000000000000000000000000000000000606084018035906113839060408701614957565b6040516001600160e01b031960e086901b168152600481019390935260248301919091526001600160a01b0316604482015260a06064820152600060a48201819052608482015260c4016020604051808303816000875af11580156113ec573d6000803e3d6000fd5b505050506040513d601f19601f820116820180604052508101906114109190614c7e565b5050565b6001600160a01b0380821660008181526003602090815260408083208151606081018352815463ffffffff81168252600160201b90049096168684015260019081015486830181905294845291839052909120015410156114b2576040808201516001600160a01b0384166000908152602081905282902060010154915163091df9e560e31b81526108c19290600401918252602082015260400190565b611410348383611bd0565b60005b8181101561080b576114e98383838181106114dd576114dd614b97565b90506104a0020161120d565b6001016114c0565b604051636e49181f60e01b8152602082013560048201523360248201527f00000000000000000000000000000000000000000000000000000000000000006001600160a01b031690636e49181f90604401602060405180830381865afa15801561155f573d6000803e3d6000fd5b505050506040513d601f19601f820116820180604052508101906115839190614c97565b6115a057604051634ae18d2b60e11b815260040160405180910390fd5b60408051630969875760e21b8152602083013560048201529082013560248201526000907f00000000000000000000000000000000000000000000000000000000000000006001600160a01b0316906325a61d5c9060440161012060405180830381865afa158015611616573d6000803e3d6000fd5b505050506040513d601f19601f8201168201806040525081019061163a9190614d00565b61010081015190915060009060241c63ffffffff1660c084013514611726576001600160a01b037f000000000000000000000000000000000000000000000000000000000000000016633be273fa602085013560c08601356116aa86610100015163ffffffff60249190911c1690565b60405160e085901b6001600160e01b031916815260048101939093526024830191909152604482015260a08601356064820152608401602060405180830381865afa1580156116fd573d6000803e3d6000fd5b505050506040513d601f19601f820116820180604052508101906117219190614c7e565b611735565b61173560a0840135600a614e64565b9050600061174d60808501356101608601358461293b565b60405163ea78803f60e01b8152602086013560048201529091506000906001600160a01b037f0000000000000000000000000000000000000000000000000000000000000000169063ea78803f90602401602060405180830381865afa1580156117bb573d6000803e3d6000fd5b505050506040513d601f19601f820116820180604052508101906117df9190614bd3565b6040516370a0823160e01b81523060048201529091506000906001600160a01b038316906370a0823190602401602060405180830381865afa158015611829573d6000803e3d6000fd5b505050506040513d601f19601f8201168201806040525081019061184d9190614c7e565b604051632eec7b5560e11b8152602088013560048201529091506000906001600160a01b037f00000000000000000000000000000000000000000000000000000000000000001690635dd8f6aa90602401602060405180830381865afa1580156118bb573d6000803e3d6000fd5b505050506040513d601f19601f820116820180604052508101906118df9190614bd3565b6040516363fdc96f60e11b8152602089013560048201526024810186905230604482015260a06064820152600060a4820152600160848201526001600160a01b03919091169063c7fb92de9060c4016020604051808303816000875af115801561194d573d6000803e3d6000fd5b505050506040513d601f19601f820116820180604052508101906119719190614c7e565b6040516370a0823160e01b815230600482015290915082906001600160a01b038516906370a0823190602401602060405180830381865afa1580156119ba573d6000803e3d6000fd5b505050506040513d601f19601f820116820180604052508101906119de9190614c7e565b6119e89190614e70565b81146119f6576119f6614e83565b6000611a148483611a0d60808c0160608d01614957565b6000612001565b9050611a4282611a2a60808b0160608c01614957565b83611a3d6101c08d016101a08e01614957565b6121ce565b5050505050505050565b336001600160a01b0384168114801590611b03575060405163c161c93f60e01b81526001600160a01b038281166004830152858116602483015260448201859052606482018490527f0000000000000000000000000000000000000000000000000000000000000000169063c161c93f90608401602060405180830381865afa158015611add573d6000803e3d6000fd5b505050506040513d601f19601f82011682018060405250810190611b019190614c97565b155b8015611bac575060405163c161c93f60e01b81526001600160a01b038281166004830152858116602483015260006044830152606482018490527f0000000000000000000000000000000000000000000000000000000000000000169063c161c93f90608401602060405180830381865afa158015611b86573d6000803e3d6000fd5b505050506040513d601f19601f82011682018060405250810190611baa9190614c97565b155b15611bca5760405163075fd2b160e01b815260040160405180910390fd5b50505050565b60008315611bf1576040516352864b0160e11b815260040160405180910390fd5b6001600160a01b0383166000908152602081905260408120600181018054908390558154909291908290611c2d906001600160401b0316614e99565b91906101000a8154816001600160401b0302191690836001600160401b031602179055905060006001600160a01b031684602001516001600160a01b031603611c945760405163393e175160e01b81526001600160a01b03861660048201526024016108c1565b6001600160a01b03851661eeee14611d8f57611cd1857f000000000000000000000000000000000000000000000000000000000000000084612a0e565b6020808501518551604080519384018152600084525163540abf7360e01b81526001600160a01b037f0000000000000000000000000000000000000000000000000000000000000000169363540abf7393611d58938b9391927f0000000000000000000000000000000000000000000000000000000000000000928a929190600401614ebf565b600060405180830381600087803b158015611d7257600080fd5b505af1158015611d86573d6000803e3d6000fd5b50505050611d93565b8192505b6001600160a01b0385166000908152602081905260408120611db790600201612a9e565b6001600160a01b03871660009081526020819052604081206022015491925090611de390600190614e70565b604080516060810182526020808a01516001600160a01b039081168352818301898152845180860186526001600160401b03808b1682528185018a9052858701918252955194518316602486015290516044850152518051909416606484015292015160848201529192507f00000000000000000000000000000000000000000000000000000000000000001690633dbb202b9087907f00000000000000000000000000000000000000000000000000000000000000009060a40160408051601f198184030181529181526020820180516001600160e01b03166369d31fdd60e01b179052516001600160e01b031960e086901b168152611eed929190620493e090600401614f12565b6000604051808303818588803b158015611f0657600080fd5b505af1158015611f1a573d6000803e3d6000fd5b5050604080518581526001600160401b03881660208201526001600160a01b038c1694508693507f3e069c1f498cba23d7d2b74b84311469e8da6e527cade62061d642c61b64e0de92500160405180910390a35050505050505050565b6000611f8283613e54565b8015611f935750611f938383613e87565b9392505050565b6040516001600160a01b038481166024830152838116604483015260648201839052611bca9186918216906323b872dd906084015b604051602081830303815290604052915060e01b6020820180516001600160e01b038381831617835250505050613f11565b604051630862026560e41b81527f000000000000000000000000000000000000000000000000000000000000000060048201526001600160a01b03838116602483015260009182917f00000000000000000000000000000000000000000000000000000000000000001690638620265090604401602060405180830381865afa158015612092573d6000803e3d6000fd5b505050506040513d601f19601f820116820180604052508101906120b69190614bd3565b90506001600160a01b0381166120ea5760405163393e175160e01b81526001600160a01b03851660048201526024016108c1565b60006120f68530613f74565b60408051602081018252600081529051635db90a7f60e11b81529192506001600160a01b0384169163bb7214fe9161215c9130917f0000000000000000000000000000000000000000000000000000000000000000918b918d918c918691600401614f4c565b6020604051808303816000875af115801561217b573d6000803e3d6000fd5b505050506040513d601f19601f8201168201806040525081019061219f9190614c7e565b9250806121ac8630613f74565b6121b69190614e70565b83146121c4576121c4614e83565b5050949350505050565b60006121db858484614004565b6001600160a01b0385166000908152602081815260408083208151610440810180845295965093946122469487949093600290930192849290830191849182845b81548152602001906001019080831161221c57505050918352505060209182015491015290614049565b6001600160a01b0386166000908152602081815260409091208251929350839260029091019161227791839161464c565b50602091820151908201556001600160a01b0386166000908152908190526040812060010180548692906122ac908490614c06565b92505081905550846001600160a01b0316836001600160a01b03167f7b58dbb78e7edc690b0688a53dea0c443d630c4a5db66c3c47d4ff2044c9772884600185602001516122fa9190614e70565b6001600160a01b038a16600090815260208190526040902061231e90600201612a9e565b60408051938452602084019290925290820152606081018a90526080810188905260a00160405180910390a3505050505050565b6001600160a01b0382166000908152600260205260409020548082111561238c57604051632858f9ab60e11b815260040160405180910390fd5b6123968282614e70565b6001600160a01b03848116600081815260026020526040808220949094559251630862026560e41b81527f0000000000000000000000000000000000000000000000000000000000000000600482015260248101919091527f000000000000000000000000000000000000000000000000000000000000000090911690638620265090604401602060405180830381865afa158015612439573d6000803e3d6000fd5b505050506040513d601f19601f8201168201806040525081019061245d9190614bd3565b90506001600160a01b0381166124b757604051630c9ae01360e01b81527f000000000000000000000000000000000000000000000000000000000000000060048201526001600160a01b03851660248201526044016108c1565b6001600160a01b03841661eeee14612667576040516370a0823160e01b81523060048201526000906001600160a01b038616906370a0823190602401602060405180830381865afa158015612510573d6000803e3d6000fd5b505050506040513d601f19601f820116820180604052508101906125349190614c7e565b9050612541858386612a0e565b60408051602080820183526000808352835191820184528082529251639e6eec0560e01b81526001600160a01b03861693639e6eec05936125ae937f0000000000000000000000000000000000000000000000000000000000000000938c938c9390929091600401614f9e565b600060405180830381600087803b1580156125c857600080fd5b505af11580156125dc573d6000803e3d6000fd5b5050505083816125ec9190614e70565b6040516370a0823160e01b81523060048201526001600160a01b038716906370a0823190602401602060405180830381865afa158015612630573d6000803e3d6000fd5b505050506040513d601f19601f820116820180604052508101906126549190614c7e565b1461266157612661614e83565b50611bca565b60408051602080820183526000808352835191820184528082529251639e6eec0560e01b81526001600160a01b03851693639e6eec059388936126d7937f0000000000000000000000000000000000000000000000000000000000000000938c9387939192909190600401614f9e565b6000604051808303818588803b1580156126f057600080fd5b505af1158015612704573d6000803e3d6000fd5b505050505050505050565b60007f00000000000000000000000000000000000000000000000000000000000000006001600160a01b0316826001600160a01b03161480156107d257507f00000000000000000000000000000000000000000000000000000000000000006001600160a01b03167f00000000000000000000000000000000000000000000000000000000000000006001600160a01b0316636e296e456040518163ffffffff1660e01b81526004016020604051808303816000875af11580156127d7573d6000803e3d6000fd5b505050506040513d601f19601f820116820180604052508101906127fb9190614bd3565b6001600160a01b03161492915050565b6001600160a01b0385166000908152600460209081526040808320600886901c8452909152902054600160ff84161b161561285c5760405163ed9bdd0760e01b8152600481018390526024016108c1565b6001600160a01b0385166000908152600460209081526040808320600886901c845290915281208054600160ff86161b1790556128cb61289d888787614004565b60408051610400818101909252908590602090839083908082843760009201919091525087915061414f9050565b6001600160a01b038716600090815260016020819052604090912001549091508114612932576001600160a01b0386166000908152600160208190526040918290200154905163286f87c960e21b81526004810191909152602481018290526044016108c1565b50505050505050565b60008080600019858709858702925082811083820303915050806000036129755783828161296b5761296b614fe5565b0492505050611f93565b8381106129a657604051630c740aef60e31b81526004810187905260248101869052604481018590526064016108c1565b600084868809600260036001881981018916988990049182028318808302840302808302840302808302840302808302840302808302840302918202909203026000889003889004909101858311909403939093029303949094049190911702949350505050565b604080516001600160a01b038416602482015260448082018490528251808303909101815260649091019091526020810180516001600160e01b031663095ea7b360e01b179052612a5f848261449d565b611bca576040516001600160a01b03848116602483015260006044830152612a9491869182169063095ea7b390606401611fcf565b611bca8482613f11565b6020810154600090808203612ad557507f27ae5ba08d7291c96c8cbddcc148bf48a6d68c7974b94356f53754ef6171d75792915050565b6000836001831615612af75780546000526000602052604060002093506133aa565b6002831615612b3c5760018101546000527fad3228b676f7d3cd4284a5443f17f1962b36e491b30a40b2405849e597ba5fb560205260406000209350600191506133aa565b6004831615612b815760028101546000527fb4c11951957c6f8f642c4af61cd6b24640fec6dc7fc607ee8206a99e92410d3060205260406000209350600291506133aa565b6008831615612bc65760038101546000527f21ddb9a356815c3fac1026b6dec5df3124afbadb485c9ba5a3e3398a04b7ba8560205260406000209350600391506133aa565b6010831615612c0b5760048101546000527fe58769b32a1beaf1ea27375a44095a0d1fb664ce2dd358e7fcbfb78c26a1934460205260406000209350600491506133aa565b6020831615612c505760058101546000527f0eb01ebfc9ed27500cd4dfc979272d1f0913cc9f66540d7e8005811109e1cf2d60205260406000209350600591506133aa565b6040831615612c955760068101546000527f887c22bd8750d34016ac3c66b5ff102dacdd73f6b014e710b51e8022af9a196860205260406000209350600691506133aa565b6080831615612cda5760078101546000527fffd70157e48063fc33c97a050f7f640233bf646cc98d9524c6b92bcf3ab56f8360205260406000209350600791506133aa565b610100831615612d205760088101546000527f9867cc5f7f196b93bae1e27e6320742445d290f2263827498b54fec539f756af60205260406000209350600891506133aa565b610200831615612d665760098101546000527fcefad4e508c098b9a7e1d8feb19955fb02ba9675585078710969d3440f5054e060205260406000209350600991506133aa565b610400831615612dac57600a8101546000527ff9dc3e7fe016e050eff260334f18a5d4fe391d82092319f5964f2e2eb7c1c3a560205260406000209350600a91506133aa565b610800831615612df257600b8101546000527ff8b13a49e282f609c317a833fb8d976d11517c571d1221a265d25af778ecf89260205260406000209350600b91506133aa565b611000831615612e3857600c8101546000527f3490c6ceeb450aecdc82e28293031d10c7d73bf85e57bf041a97360aa2c5d99c60205260406000209350600c91506133aa565b612000831615612e7e57600d8101546000527fc1df82d9c4b87413eae2ef048f94b4d3554cea73d92b0f7af96e0271c691e2bb60205260406000209350600d91506133aa565b614000831615612ec457600e8101546000527f5c67add7c6caf302256adedf7ab114da0acfe870d449a3a489f781d659e8becc60205260406000209350600e91506133aa565b618000831615612f0a57600f8101546000527fda7bce9f4e8618b6bd2f4132ce798cdc7a60e7e1460a7299e3c6342a579626d260205260406000209350600f91506133aa565b62010000831615612f515760108101546000527f2733e50f526ec2fa19a22b31e8ed50f23cd1fdf94c9154ed3a7609a2f1ff981f60205260406000209350601091506133aa565b62020000831615612f985760118101546000527fe1d3b5c807b281e4683cc6d6315cf95b9ade8641defcb32372f1c126e398ef7a60205260406000209350601191506133aa565b62040000831615612fdf5760128101546000527f5a2dce0a8a7f68bb74560f8f71837c2c2ebbcbf7fffb42ae1896f13f7c7479a060205260406000209350601291506133aa565b620800008316156130265760138101546000527fb46a28b6f55540f89444f63de0378e3d121be09e06cc9ded1c20e65876d36aa060205260406000209350601391506133aa565b6210000083161561306d5760148101546000527fc65e9645644786b620e2dd2ad648ddfcbf4a7e5b1a3a4ecfe7f64667a3f0b7e260205260406000209350601491506133aa565b622000008316156130b45760158101546000527ff4418588ed35a2458cffeb39b93d26f18d2ab13bdce6aee58e7b99359ec2dfd960205260406000209350601591506133aa565b624000008316156130fb5760168101546000527f5a9c16dc00d6ef18b7933a6f8dc65ccb55667138776f7dea101070dc8796e37760205260406000209350601691506133aa565b628000008316156131425760178101546000527f4df84f40ae0c8229d0d6069e5c8f39a7c299677a09d367fc7b05e3bc380ee65260205260406000209350601791506133aa565b630100000083161561318a5760188101546000527fcdc72595f74c7b1043d0e1ffbab734648c838dfb0527d971b602bc216c9619ef60205260406000209350601891506133aa565b63020000008316156131d25760198101546000527f0abf5ac974a1ed57f4050aa510dd9c74f508277b39d7973bb2dfccc5eeb0618d60205260406000209350601991506133aa565b630400000083161561321a57601a8101546000527fb8cd74046ff337f0a7bf2c8e03e10f642c1886798d71806ab1e888d9e5ee87d060205260406000209350601a91506133aa565b630800000083161561326257601b8101546000527f838c5655cb21c6cb83313b5a631175dff4963772cce9108188b34ac87c81c41e60205260406000209350601b91506133aa565b63100000008316156132aa57601c8101546000527f662ee4dd2dd7b2bc707961b1e646c4047669dcb6584f0d8d770daf5d7e7deb2e60205260406000209350601c91506133aa565b63200000008316156132f257601d8101546000527f388ab20e2573d171a88108e79d820e98f26c0b84aa8b2f4aa4968dbb818ea32260205260406000209350601d91506133aa565b634000000083161561333a57601e8101546000527f93237c50ba75ee485f4c22adf2f741400bdf8d6a9cc7df7ecae576221665d73560205260406000209350601e91506133aa565b638000000083161561338257601f8101546000527f8448818bb4ae4562849e949e17ac16e0be16688e156b5cf15e098c627c0056a960205260406000209350601f91506133aa565b7f27ae5ba08d7291c96c8cbddcc148bf48a6d68c7974b94356f53754ef6171d7579350602091505b601e8211613e4c576001821015613408576002831680156133d6576001820154600052846020526133ff565b846000527fad3228b676f7d3cd4284a5443f17f1962b36e491b30a40b2405849e597ba5fb56020525b50604060002093505b600282101561345e5760048316801561342c57600282015460005284602052613455565b846000527fb4c11951957c6f8f642c4af61cd6b24640fec6dc7fc607ee8206a99e92410d306020525b50604060002093505b60038210156134b457600883168015613482576003820154600052846020526134ab565b846000527f21ddb9a356815c3fac1026b6dec5df3124afbadb485c9ba5a3e3398a04b7ba856020525b50604060002093505b600482101561350a576010831680156134d857600482015460005284602052613501565b846000527fe58769b32a1beaf1ea27375a44095a0d1fb664ce2dd358e7fcbfb78c26a193446020525b50604060002093505b60058210156135605760208316801561352e57600582015460005284602052613557565b846000527f0eb01ebfc9ed27500cd4dfc979272d1f0913cc9f66540d7e8005811109e1cf2d6020525b50604060002093505b60068210156135b657604083168015613584576006820154600052846020526135ad565b846000527f887c22bd8750d34016ac3c66b5ff102dacdd73f6b014e710b51e8022af9a19686020525b50604060002093505b600782101561360c576080831680156135da57600782015460005284602052613603565b846000527fffd70157e48063fc33c97a050f7f640233bf646cc98d9524c6b92bcf3ab56f836020525b50604060002093505b600882101561366357610100831680156136315760088201546000528460205261365a565b846000527f9867cc5f7f196b93bae1e27e6320742445d290f2263827498b54fec539f756af6020525b50604060002093505b60098210156136ba5761020083168015613688576009820154600052846020526136b1565b846000527fcefad4e508c098b9a7e1d8feb19955fb02ba9675585078710969d3440f5054e06020525b50604060002093505b600a82101561371157610400831680156136df57600a82015460005284602052613708565b846000527ff9dc3e7fe016e050eff260334f18a5d4fe391d82092319f5964f2e2eb7c1c3a56020525b50604060002093505b600b821015613768576108008316801561373657600b8201546000528460205261375f565b846000527ff8b13a49e282f609c317a833fb8d976d11517c571d1221a265d25af778ecf8926020525b50604060002093505b600c8210156137bf576110008316801561378d57600c820154600052846020526137b6565b846000527f3490c6ceeb450aecdc82e28293031d10c7d73bf85e57bf041a97360aa2c5d99c6020525b50604060002093505b600d82101561381657612000831680156137e457600d8201546000528460205261380d565b846000527fc1df82d9c4b87413eae2ef048f94b4d3554cea73d92b0f7af96e0271c691e2bb6020525b50604060002093505b600e82101561386d576140008316801561383b57600e82015460005284602052613864565b846000527f5c67add7c6caf302256adedf7ab114da0acfe870d449a3a489f781d659e8becc6020525b50604060002093505b600f8210156138c4576180008316801561389257600f820154600052846020526138bb565b846000527fda7bce9f4e8618b6bd2f4132ce798cdc7a60e7e1460a7299e3c6342a579626d26020525b50604060002093505b601082101561391c5762010000831680156138ea57601082015460005284602052613913565b846000527f2733e50f526ec2fa19a22b31e8ed50f23cd1fdf94c9154ed3a7609a2f1ff981f6020525b50604060002093505b60118210156139745762020000831680156139425760118201546000528460205261396b565b846000527fe1d3b5c807b281e4683cc6d6315cf95b9ade8641defcb32372f1c126e398ef7a6020525b50604060002093505b60128210156139cc57620400008316801561399a576012820154600052846020526139c3565b846000527f5a2dce0a8a7f68bb74560f8f71837c2c2ebbcbf7fffb42ae1896f13f7c7479a06020525b50604060002093505b6013821015613a245762080000831680156139f257601382015460005284602052613a1b565b846000527fb46a28b6f55540f89444f63de0378e3d121be09e06cc9ded1c20e65876d36aa06020525b50604060002093505b6014821015613a7c576210000083168015613a4a57601482015460005284602052613a73565b846000527fc65e9645644786b620e2dd2ad648ddfcbf4a7e5b1a3a4ecfe7f64667a3f0b7e26020525b50604060002093505b6015821015613ad4576220000083168015613aa257601582015460005284602052613acb565b846000527ff4418588ed35a2458cffeb39b93d26f18d2ab13bdce6aee58e7b99359ec2dfd96020525b50604060002093505b6016821015613b2c576240000083168015613afa57601682015460005284602052613b23565b846000527f5a9c16dc00d6ef18b7933a6f8dc65ccb55667138776f7dea101070dc8796e3776020525b50604060002093505b6017821015613b84576280000083168015613b5257601782015460005284602052613b7b565b846000527f4df84f40ae0c8229d0d6069e5c8f39a7c299677a09d367fc7b05e3bc380ee6526020525b50604060002093505b6018821015613bdd57630100000083168015613bab57601882015460005284602052613bd4565b846000527fcdc72595f74c7b1043d0e1ffbab734648c838dfb0527d971b602bc216c9619ef6020525b50604060002093505b6019821015613c3657630200000083168015613c0457601982015460005284602052613c2d565b846000527f0abf5ac974a1ed57f4050aa510dd9c74f508277b39d7973bb2dfccc5eeb0618d6020525b50604060002093505b601a821015613c8f57630400000083168015613c5d57601a82015460005284602052613c86565b846000527fb8cd74046ff337f0a7bf2c8e03e10f642c1886798d71806ab1e888d9e5ee87d06020525b50604060002093505b601b821015613ce857630800000083168015613cb657601b82015460005284602052613cdf565b846000527f838c5655cb21c6cb83313b5a631175dff4963772cce9108188b34ac87c81c41e6020525b50604060002093505b601c821015613d4157631000000083168015613d0f57601c82015460005284602052613d38565b846000527f662ee4dd2dd7b2bc707961b1e646c4047669dcb6584f0d8d770daf5d7e7deb2e6020525b50604060002093505b601d821015613d9a57632000000083168015613d6857601d82015460005284602052613d91565b846000527f388ab20e2573d171a88108e79d820e98f26c0b84aa8b2f4aa4968dbb818ea3226020525b50604060002093505b601e821015613df357634000000083168015613dc157601e82015460005284602052613dea565b846000527f93237c50ba75ee485f4c22adf2f741400bdf8d6a9cc7df7ecae576221665d7356020525b50604060002093505b601f821015613e4c57638000000083168015613e1a57601f82015460005284602052613e43565b846000527f8448818bb4ae4562849e949e17ac16e0be16688e156b5cf15e098c627c0056a96020525b50604060002093505b505050919050565b6000613e67826301ffc9a760e01b613e87565b80156107d25750613e80826001600160e01b0319613e87565b1592915050565b6040516001600160e01b031982166024820152600090819060440160408051601f19818403018152919052602080820180516001600160e01b03166301ffc9a760e01b178152825192935060009283928392909183918a617530fa92503d91506000519050828015613efa575060208210155b8015613f065750600081115b979650505050505050565b6000613f266001600160a01b03841683614545565b90508051600014158015613f4b575080806020019051810190613f499190614c97565b155b1561080b57604051635274afe760e01b81526001600160a01b03841660048201526024016108c1565b600061eeed196001600160a01b03841601613f9a57506001600160a01b038116316107d2565b6040516370a0823160e01b81526001600160a01b0383811660048301528416906370a0823190602401602060405180830381865afa158015613fe0573d6000803e3d6000fd5b505050506040513d601f19601f82011682018060405250810190611f939190614c7e565b60408051602081018590529081018390526001600160a01b03821660608201526000906080016040516020818303038152906040528051906020012090509392505050565b614051614686565b600083602001805161406290614ffb565b908190529050600161407660206002614e64565b6140809190614e70565b8111156140a057604051638eab04bb60e01b815260040160405180910390fd5b60005b602081101561413557816001166001036140dc578451849082602081106140cc576140cc614b97565b6020020152508391506107d29050565b845181602081106140ef576140ef614b97565b60200201518460405160200161410f929190918252602082015260400190565b60408051601f1981840301815291905280516020909101209350600191821c91016140a3565b50604051638eab04bb60e01b815260040160405180910390fd5b6020600582811b8216948552835194820394909452604060008181206002851615871b808503919091528386015190528181206004851615871b808503919091528286015190528181206008851615871b80850391909152606086015190528181206010851615871b8085039190915260808087015190915282822084861615881b8086039190915260a0870151905282822083861615881b8086039190915260c0870151905282822090851615871b8085039190915260e0860151905281812061010080861615881b80860392909252860151905281812061020080861615881b80860392909252610120870151909152828220610400861615881b808603919091526101408701519052828220610800861615881b808603919091526101608701519052828220611000861615881b808603919091526101808701519052828220612000861615881b808603919091526101a08701519052828220614000861615881b808603919091526101c08701519052828220618000861615881b808603919091526101e0870151905282822062010000861615881b8086039190915290860151905281812062020000851615871b80850391909152610220860151905281812062040000851615871b80850391909152610240860151905281812062080000851615871b80850391909152610260860151905281812062100000851615871b80850391909152610280860151905281812062200000851615871b808503919091526102a0860151905281812062400000851615871b808503919091526102c0860151905281812062800000851615871b808503919091526102e086015190528181206301000000851615871b8085039190915261030086015190528181206302000000851615871b8085039190915261032086015190528181206304000000851615871b8085039190915261034086015190528181206308000000851615871b8085039190915261036086015190528181206310000000851615871b8085039190915261038086015190528181206320000000851615871b808503919091526103a086015190528181206340000000851615871b808503919091526103c0860151905281812063800000009094161590951b91829003929092526103e090920151909152902090565b6000806000846001600160a01b0316846040516144ba9190615014565b6000604051808303816000865af19150503d80600081146144f7576040519150601f19603f3d011682016040523d82523d6000602084013e6144fc565b606091505b50915091508180156145265750805115806145265750808060200190518101906145269190614c97565b801561453c57506000856001600160a01b03163b115b95945050505050565b6060611f938383600084600080856001600160a01b0316848660405161456b9190615014565b60006040518083038185875af1925050503d80600081146145a8576040519150601f19603f3d011682016040523d82523d6000602084013e6145ad565b606091505b50915091506145bd8683836145c7565b9695505050505050565b6060826145dc576145d782614623565b611f93565b81511580156145f357506001600160a01b0384163b155b1561461c57604051639996b31560e01b81526001600160a01b03851660048201526024016108c1565b5080611f93565b8051156146335780518082602001fd5b604051630a12f52160e11b815260040160405180910390fd5b826020810192821561467a579160200282015b8281111561467a57825182559160200191906001019061465f565b50610f419291506146a6565b60405180604001604052806146996146bb565b8152602001600081525090565b5b80821115610f4157600081556001016146a7565b6040518061040001604052806020906020820280368337509192915050565b6000602082840312156146ec57600080fd5b81356001600160e01b031981168114611f9357600080fd5b6000806020838503121561471757600080fd5b82356001600160401b038082111561472e57600080fd5b818501915085601f83011261474257600080fd5b81358181111561475157600080fd5b8660208260071b850101111561476657600080fd5b60209290920196919550909350505050565b60006080828403121561478a57600080fd5b50919050565b6000608082840312156147a257600080fd5b611f938383614778565b6000602082840312156147be57600080fd5b81356001600160401b038111156147d457600080fd5b82016101808185031215611f9357600080fd5b60005b838110156148025781810151838201526020016147ea565b50506000910152565b600081518084526148238160208601602086016147e7565b601f01601f19169290920160200192915050565b6000604080830185845260206040818601528186518084526060935060608701915060608160051b88010183890160005b838110156148b857898303605f19018552815180516001600160a01b0316845286810151878501528801518884018890526148a58885018261480b565b9587019593505090850190600101614868565b50909a9950505050505050505050565b6001600160a01b0381168114610fbb57600080fd5b600080600080608085870312156148f357600080fd5b843593506020850135614905816148c8565b925060408501359150606085013561491c816148c8565b939692955090935050565b6000806040838503121561493a57600080fd5b82359150602083013561494c816148c8565b809150509250929050565b60006020828403121561496957600080fd5b8135611f93816148c8565b6001600160401b038416815260208082018490528251610460830191906000604085015b838210156149b6578251815291830191600191909101908301614998565b505050506020830151610440830152949350505050565b6000602082840312156149df57600080fd5b81356001600160401b038111156149f557600080fd5b82016101a08185031215611f9357600080fd5b60006080820186835260208681850152604086604086015260606080606087015283875180865260a08801915060a08160051b890101955084890160005b82811015614a9657898803609f19018452815180516001600160a01b0316895287810151888a0152860151868901869052614a83868a018261480b565b9850509286019290860190600101614a46565b50959c9b505050505050505050505050565b60006104a0828403121561478a57600080fd5b60008060208385031215614ace57600080fd5b82356001600160401b0380821115614ae557600080fd5b818501915085601f830112614af957600080fd5b813581811115614b0857600080fd5b8660206104a08302850101111561476657600080fd5b634e487b7160e01b600052602160045260246000fd5b6020810160028310614b5657634e487b7160e01b600052602160045260246000fd5b91905290565b600060208284031215614b6e57600080fd5b81356001600160401b03811115614b8457600080fd5b82016102008185031215611f9357600080fd5b634e487b7160e01b600052603260045260246000fd5b600060208284031215614bbf57600080fd5b813563ffffffff81168114611f9357600080fd5b600060208284031215614be557600080fd5b8151611f93816148c8565b634e487b7160e01b600052601160045260246000fd5b808201808211156107d2576107d2614bf0565b6001600160401b0381168114610fbb57600080fd5b600060208284031215614c4057600080fd5b8135611f9381614c19565b8135614c5681614c19565b6001600160401b0381166001600160401b031983541617825550602082013560018201555050565b600060208284031215614c9057600080fd5b5051919050565b600060208284031215614ca957600080fd5b81518015158114611f9357600080fd5b60405161012081016001600160401b0381118282101715614cea57634e487b7160e01b600052604160045260246000fd5b60405290565b8051614cfb816148c8565b919050565b60006101208284031215614d1357600080fd5b614d1b614cb9565b825181526020830151602082015260408301516040820152606083015160608201526080830151608082015260a083015160a082015260c083015160c0820152614d6760e08401614cf0565b60e0820152610100928301519281019290925250919050565b600181815b80851115614dbb578160001904821115614da157614da1614bf0565b80851615614dae57918102915b93841c9390800290614d85565b509250929050565b600082614dd2575060016107d2565b81614ddf575060006107d2565b8160018114614df55760028114614dff57614e1b565b60019150506107d2565b60ff841115614e1057614e10614bf0565b50506001821b6107d2565b5060208310610133831016604e8410600b8410161715614e3e575081810a6107d2565b614e488383614d80565b8060001904821115614e5c57614e5c614bf0565b029392505050565b6000611f938383614dc3565b818103818111156107d2576107d2614bf0565b634e487b7160e01b600052600160045260246000fd5b60006001600160401b03808316818103614eb557614eb5614bf0565b6001019392505050565b6001600160a01b0387811682528681166020830152851660408201526060810184905263ffffffff8316608082015260c060a08201819052600090614f069083018461480b565b98975050505050505050565b6001600160a01b0384168152606060208201819052600090614f369083018561480b565b905063ffffffff83166040830152949350505050565b600060018060a01b03808a168352886020840152808816604084015286606084015285608084015280851660a08401525060e060c0830152614f9160e083018461480b565b9998505050505050505050565b86815260018060a01b0386166020820152846040820152831515606082015260c060808201526000614fd360c083018561480b565b82810360a0840152614f91818561480b565b634e487b7160e01b600052601260045260246000fd5b60006001820161500d5761500d614bf0565b5060010190565b600082516150268184602087016147e7565b919091019291505056fea264697066735822122048ba3935e23a529931e1dd1e5f5b045ca9c9be52a392e536f6c7ba230bc311bc64736f6c63430008170033a264697066735822122081ab4f110be5e51b1da07e034e0eaa28f34dc6042b51a5630c4f6bceab45063b64736f6c63430008170033",
			"devdoc": {
				"kind": "dev",
				"methods": {
					"createForSender(uint256,bytes32)": {
						"details": "Uses the sender address as the salt, which means the same sender must call this function on both chains.",
						"params": {
							"localProjectId": "The project's ID on the local chain.",
							"salt": "The salt to use for the `create2` address."
						},
						"returns": {
							"sucker": "The address of the new sucker."
						}
					},
					"useAllowanceFeeless(uint256,address,address,uint32,uint256,uint256)": {
						"details": "This function can only be called by suckers deployed by this contract.This function can only be called by suckers with `JBPermissionIds.USE_ALLOWANCE` permission from the project's owner.This function is not necessarily feeless, as it still requires JuiceboxDAO to set the address as feeless.",
						"params": {
							"amount": "The amount to use from the terminal, denominated in the `currency`.",
							"currency": "The currency that the `amount` is denominated in.",
							"minReceivedTokens": "The minimum amount of terminal tokens to receive. If the terminal returns less than this amount, the transaction will revert.",
							"projectId": "The project's ID.",
							"terminal": "The terminal to use the surplus allowance from.",
							"token": "The token that the surplus is in."
						},
						"returns": {
							"_0": "The amount of tokens received."
						}
					}
				},
				"version": 1
			},
			"userdoc": {
				"kind": "user",
				"methods": {
					"BRIDGE()": {
						"notice": "The bridge used to bridge tokens between the local and remote chain."
					},
					"MESSENGER()": {
						"notice": "The messenger used to send messages between the local and remote sucker."
					},
					"PERMISSIONS()": {
						"notice": "A contract storing permissions."
					},
					"createForSender(uint256,bytes32)": {
						"notice": "Create a new `BPSucker` for a specific project."
					},
					"isSucker(address)": {
						"notice": "A mapping of suckers deployed by this contract."
					},
					"useAllowanceFeeless(uint256,address,address,uint32,uint256,uint256)": {
						"notice": "Use a project's surplus allowance without paying exit fees."
					}
				},
				"version": 1
			},
			"gitCommit": "409f1888f984b3f2eea6cbf8c28564d91dc89f2c",
			"sourceName": "src/deployers/BPOptimismSuckerDeployer.sol",
			"chainId": "11155420",
			"linkReferences": {},
			"deployedLinkReferences": {}
		},
		{
			"_format": "sphinx-sol-ct-artifact-1",
			"merkleRoot": "0x1587fc72ebefba55507f72c60971dba3222fbb2732b3ed2a661c3c32c08d00d6",
			"contractName": "BPOptimismSuckerDeployer",
			"address": "0x992bc3756D0E58f3a09002db8ea1b74061Ab6B21",
			"abi": [
				{
					"type": "constructor",
					"inputs": [
						{
							"name": "prices",
							"type": "address",
							"internalType": "contract IJBPrices"
						},
						{
							"name": "rulesets",
							"type": "address",
							"internalType": "contract IJBRulesets"
						},
						{
							"name": "directory",
							"type": "address",
							"internalType": "contract IJBDirectory"
						},
						{
							"name": "tokens",
							"type": "address",
							"internalType": "contract IJBTokens"
						},
						{
							"name": "permissions",
							"type": "address",
							"internalType": "contract IJBPermissions"
						},
						{
							"name": "_configurator",
							"type": "address",
							"internalType": "address"
						}
					],
					"stateMutability": "nonpayable"
				},
				{
					"type": "function",
					"name": "BRIDGE",
					"inputs": [],
					"outputs": [
						{
							"name": "",
							"type": "address",
							"internalType": "contract OPStandardBridge"
						}
					],
					"stateMutability": "view"
				},
				{
					"type": "function",
					"name": "MESSENGER",
					"inputs": [],
					"outputs": [
						{
							"name": "",
							"type": "address",
							"internalType": "contract OPMessenger"
						}
					],
					"stateMutability": "view"
				},
				{
					"type": "function",
					"name": "PERMISSIONS",
					"inputs": [],
					"outputs": [
						{
							"name": "",
							"type": "address",
							"internalType": "contract IJBPermissions"
						}
					],
					"stateMutability": "view"
				},
				{
					"type": "function",
					"name": "configureLayerSpecific",
					"inputs": [
						{
							"name": "messenger",
							"type": "address",
							"internalType": "contract OPMessenger"
						},
						{
							"name": "bridge",
							"type": "address",
							"internalType": "contract OPStandardBridge"
						}
					],
					"outputs": [],
					"stateMutability": "nonpayable"
				},
				{
					"type": "function",
					"name": "createForSender",
					"inputs": [
						{
							"name": "localProjectId",
							"type": "uint256",
							"internalType": "uint256"
						},
						{
							"name": "salt",
							"type": "bytes32",
							"internalType": "bytes32"
						}
					],
					"outputs": [
						{
							"name": "sucker",
							"type": "address",
							"internalType": "contract IBPSucker"
						}
					],
					"stateMutability": "nonpayable"
				},
				{
					"type": "function",
					"name": "isSucker",
					"inputs": [
						{
							"name": "",
							"type": "address",
							"internalType": "address"
						}
					],
					"outputs": [
						{
							"name": "",
							"type": "bool",
							"internalType": "bool"
						}
					],
					"stateMutability": "view"
				},
				{
					"type": "error",
					"name": "ALREADY_CONFIGURED",
					"inputs": []
				},
				{
					"type": "error",
					"name": "ONLY_SUCKERS",
					"inputs": []
				},
				{
					"type": "error",
					"name": "UNAUTHORIZED",
					"inputs": []
				}
			],
			"solcInputHash": "0cf5f0987e701c3270dc662f5eee5964",
			"receipt": {
				"blockHash": "0x30312ab3162f84092eb60c403ad3afa3a06e5f2c7872839343d7172d504c521a",
				"blockNumber": 10155436,
				"contractAddress": null,
				"cumulativeGasUsed": "6690270",
				"from": "0xC034550B542b83BA1De312b21d1C94a9a52B1595",
				"gasPrice": "1000252",
				"gasUsed": "6635231",
				"hash": "0xc39ea16152605ac0064c1eca0cdc6a394e3d121c0e85f43c77dfab4bbba63d3c",
				"index": 1,
				"logs": [
					{
						"address": "0xB5E96127D417b1B3ef8438496a38A143167209c7",
						"blockHash": "0x30312ab3162f84092eb60c403ad3afa3a06e5f2c7872839343d7172d504c521a",
						"blockNumber": 10155436,
						"data": "0x0000000000000000000000000000000000000000000000000000000000000000",
						"index": 0,
						"topics": [
							"0x572f161235911da04685a68c06adf558fc7e4a36909dca394650e0adc19cc93d",
							"0x000000000000000000000000c034550b542b83ba1de312b21d1c94a9a52b1595",
							"0x0000000000000000000000002251543da4a5ef946705b931c7e8b74756764a18",
							"0x61c1fcd1a1753afe6fb2664bffa7687eeb4dcac3f4b06d550e4b5534b312658a"
						],
						"transactionHash": "0xc39ea16152605ac0064c1eca0cdc6a394e3d121c0e85f43c77dfab4bbba63d3c",
						"transactionIndex": 1
					},
					{
						"address": "0x6a65B75A3f37C6702A117Fb87B6bCaC62657d216",
						"blockHash": "0x30312ab3162f84092eb60c403ad3afa3a06e5f2c7872839343d7172d504c521a",
						"blockNumber": 10155436,
						"data": "0x",
						"index": 1,
						"topics": [
							"0x6895c13664aa4f67288b25d7a21d7aaa34916e355fb9b6fae0a139a9085becb8",
							"0x0000000000000000000000002251543da4a5ef946705b931c7e8b74756764a18"
						],
						"transactionHash": "0xc39ea16152605ac0064c1eca0cdc6a394e3d121c0e85f43c77dfab4bbba63d3c",
						"transactionIndex": 1
					},
					{
						"address": "0x2251543Da4A5eF946705B931C7e8b74756764a18",
						"blockHash": "0x30312ab3162f84092eb60c403ad3afa3a06e5f2c7872839343d7172d504c521a",
						"blockNumber": 10155436,
						"data": "0x0000000000000000000000000000000000000000000000000000000000000001",
						"index": 2,
						"topics": [
							"0xa65fb05c5808f5f389d72edeaf719ce38f4cc55c1f69ca3cbfb31c21501caa07",
							"0x1587fc72ebefba55507f72c60971dba3222fbb2732b3ed2a661c3c32c08d00d6"
						],
						"transactionHash": "0xc39ea16152605ac0064c1eca0cdc6a394e3d121c0e85f43c77dfab4bbba63d3c",
						"transactionIndex": 1
					},
					{
						"address": "0x6a65B75A3f37C6702A117Fb87B6bCaC62657d216",
						"blockHash": "0x30312ab3162f84092eb60c403ad3afa3a06e5f2c7872839343d7172d504c521a",
						"blockNumber": 10155436,
						"data": "0x",
						"index": 3,
						"topics": [
							"0x6895c13664aa4f67288b25d7a21d7aaa34916e355fb9b6fae0a139a9085becb8",
							"0x0000000000000000000000002251543da4a5ef946705b931c7e8b74756764a18"
						],
						"transactionHash": "0xc39ea16152605ac0064c1eca0cdc6a394e3d121c0e85f43c77dfab4bbba63d3c",
						"transactionIndex": 1
					},
					{
						"address": "0x2251543Da4A5eF946705B931C7e8b74756764a18",
						"blockHash": "0x30312ab3162f84092eb60c403ad3afa3a06e5f2c7872839343d7172d504c521a",
						"blockNumber": 10155436,
						"data": "0x0000000000000000000000000000000000000000000000000000000000000002",
						"index": 4,
						"topics": [
							"0xa65fb05c5808f5f389d72edeaf719ce38f4cc55c1f69ca3cbfb31c21501caa07",
							"0x1587fc72ebefba55507f72c60971dba3222fbb2732b3ed2a661c3c32c08d00d6"
						],
						"transactionHash": "0xc39ea16152605ac0064c1eca0cdc6a394e3d121c0e85f43c77dfab4bbba63d3c",
						"transactionIndex": 1
					},
					{
						"address": "0x6a65B75A3f37C6702A117Fb87B6bCaC62657d216",
						"blockHash": "0x30312ab3162f84092eb60c403ad3afa3a06e5f2c7872839343d7172d504c521a",
						"blockNumber": 10155436,
						"data": "0x",
						"index": 5,
						"topics": [
							"0x6895c13664aa4f67288b25d7a21d7aaa34916e355fb9b6fae0a139a9085becb8",
							"0x0000000000000000000000002251543da4a5ef946705b931c7e8b74756764a18"
						],
						"transactionHash": "0xc39ea16152605ac0064c1eca0cdc6a394e3d121c0e85f43c77dfab4bbba63d3c",
						"transactionIndex": 1
					},
					{
						"address": "0x2251543Da4A5eF946705B931C7e8b74756764a18",
						"blockHash": "0x30312ab3162f84092eb60c403ad3afa3a06e5f2c7872839343d7172d504c521a",
						"blockNumber": 10155436,
						"data": "0x0000000000000000000000000000000000000000000000000000000000000003",
						"index": 6,
						"topics": [
							"0xa65fb05c5808f5f389d72edeaf719ce38f4cc55c1f69ca3cbfb31c21501caa07",
							"0x1587fc72ebefba55507f72c60971dba3222fbb2732b3ed2a661c3c32c08d00d6"
						],
						"transactionHash": "0xc39ea16152605ac0064c1eca0cdc6a394e3d121c0e85f43c77dfab4bbba63d3c",
						"transactionIndex": 1
					},
					{
						"address": "0x0279b704B409A70E23D6aB27544baDb568aA4930",
						"blockHash": "0x30312ab3162f84092eb60c403ad3afa3a06e5f2c7872839343d7172d504c521a",
						"blockNumber": 10155436,
						"data": "0x000000000000000000000000992bc3756d0e58f3a09002db8ea1b74061ab6b21",
						"index": 7,
						"topics": [
							"0xf6e6facda29906a01d337146a9b928ac09b423901f28e0e001d43550448b370b"
						],
						"transactionHash": "0xc39ea16152605ac0064c1eca0cdc6a394e3d121c0e85f43c77dfab4bbba63d3c",
						"transactionIndex": 1
					},
					{
						"address": "0x6a65B75A3f37C6702A117Fb87B6bCaC62657d216",
						"blockHash": "0x30312ab3162f84092eb60c403ad3afa3a06e5f2c7872839343d7172d504c521a",
						"blockNumber": 10155436,
						"data": "0x",
						"index": 8,
						"topics": [
							"0x6895c13664aa4f67288b25d7a21d7aaa34916e355fb9b6fae0a139a9085becb8",
							"0x0000000000000000000000002251543da4a5ef946705b931c7e8b74756764a18"
						],
						"transactionHash": "0xc39ea16152605ac0064c1eca0cdc6a394e3d121c0e85f43c77dfab4bbba63d3c",
						"transactionIndex": 1
					},
					{
						"address": "0x2251543Da4A5eF946705B931C7e8b74756764a18",
						"blockHash": "0x30312ab3162f84092eb60c403ad3afa3a06e5f2c7872839343d7172d504c521a",
						"blockNumber": 10155436,
						"data": "0x0000000000000000000000000000000000000000000000000000000000000004",
						"index": 9,
						"topics": [
							"0xa65fb05c5808f5f389d72edeaf719ce38f4cc55c1f69ca3cbfb31c21501caa07",
							"0x1587fc72ebefba55507f72c60971dba3222fbb2732b3ed2a661c3c32c08d00d6"
						],
						"transactionHash": "0xc39ea16152605ac0064c1eca0cdc6a394e3d121c0e85f43c77dfab4bbba63d3c",
						"transactionIndex": 1
					},
					{
						"address": "0x0279b704B409A70E23D6aB27544baDb568aA4930",
						"blockHash": "0x30312ab3162f84092eb60c403ad3afa3a06e5f2c7872839343d7172d504c521a",
						"blockNumber": 10155436,
						"data": "0x",
						"index": 10,
						"topics": [
							"0x8be0079c531659141344cd1fd0a4f28419497f9722a3daafe3b4186f6b6457e0",
							"0x0000000000000000000000006a65b75a3f37c6702a117fb87b6bcac62657d216",
							"0x0000000000000000000000001f96512db9a74b8805d900c8e553879c0cb8bb2a"
						],
						"transactionHash": "0xc39ea16152605ac0064c1eca0cdc6a394e3d121c0e85f43c77dfab4bbba63d3c",
						"transactionIndex": 1
					},
					{
						"address": "0x6a65B75A3f37C6702A117Fb87B6bCaC62657d216",
						"blockHash": "0x30312ab3162f84092eb60c403ad3afa3a06e5f2c7872839343d7172d504c521a",
						"blockNumber": 10155436,
						"data": "0x",
						"index": 11,
						"topics": [
							"0x6895c13664aa4f67288b25d7a21d7aaa34916e355fb9b6fae0a139a9085becb8",
							"0x0000000000000000000000002251543da4a5ef946705b931c7e8b74756764a18"
						],
						"transactionHash": "0xc39ea16152605ac0064c1eca0cdc6a394e3d121c0e85f43c77dfab4bbba63d3c",
						"transactionIndex": 1
					},
					{
						"address": "0x2251543Da4A5eF946705B931C7e8b74756764a18",
						"blockHash": "0x30312ab3162f84092eb60c403ad3afa3a06e5f2c7872839343d7172d504c521a",
						"blockNumber": 10155436,
						"data": "0x0000000000000000000000000000000000000000000000000000000000000005",
						"index": 12,
						"topics": [
							"0xa65fb05c5808f5f389d72edeaf719ce38f4cc55c1f69ca3cbfb31c21501caa07",
							"0x1587fc72ebefba55507f72c60971dba3222fbb2732b3ed2a661c3c32c08d00d6"
						],
						"transactionHash": "0xc39ea16152605ac0064c1eca0cdc6a394e3d121c0e85f43c77dfab4bbba63d3c",
						"transactionIndex": 1
					},
					{
						"address": "0x2251543Da4A5eF946705B931C7e8b74756764a18",
						"blockHash": "0x30312ab3162f84092eb60c403ad3afa3a06e5f2c7872839343d7172d504c521a",
						"blockNumber": 10155436,
						"data": "0x",
						"index": 13,
						"topics": [
							"0x4383d976757d67ca920616be0b6430a681ea9d3dcce8d6d61d4603ca4a9bff63",
							"0x1587fc72ebefba55507f72c60971dba3222fbb2732b3ed2a661c3c32c08d00d6"
						],
						"transactionHash": "0xc39ea16152605ac0064c1eca0cdc6a394e3d121c0e85f43c77dfab4bbba63d3c",
						"transactionIndex": 1
					}
				],
				"logsBloom": "0x0000000808001000000000000008000000020000404800000080000000400000000000000000000000000000004009000000000000000000080000000000000000000000000020000000000000000000000102000000000000000400010800400000000000000004000000000000000020000080000000000000000000000040000000000000000000010000000000000000000000200000000000000000000000c000800010000000001000000000020208000000000000000000000004000800000000000000000008040008000000800000000002000000000000000000000000000000000208000000000000000200000040000000000000000208000000",
				"status": 1,
				"to": "0xB5E96127D417b1B3ef8438496a38A143167209c7"
			},
			"metadata": "{\"compiler\":{\"version\":\"0.8.23+commit.f704f362\"},\"language\":\"Solidity\",\"output\":{\"abi\":[{\"inputs\":[{\"internalType\":\"contract IJBPrices\",\"name\":\"prices\",\"type\":\"address\"},{\"internalType\":\"contract IJBRulesets\",\"name\":\"rulesets\",\"type\":\"address\"},{\"internalType\":\"contract IJBDirectory\",\"name\":\"directory\",\"type\":\"address\"},{\"internalType\":\"contract IJBTokens\",\"name\":\"tokens\",\"type\":\"address\"},{\"internalType\":\"contract IJBPermissions\",\"name\":\"permissions\",\"type\":\"address\"},{\"internalType\":\"address\",\"name\":\"_configurator\",\"type\":\"address\"}],\"stateMutability\":\"nonpayable\",\"type\":\"constructor\"},{\"inputs\":[],\"type\":\"error\",\"name\":\"ALREADY_CONFIGURED\"},{\"inputs\":[],\"type\":\"error\",\"name\":\"ONLY_SUCKERS\"},{\"inputs\":[],\"type\":\"error\",\"name\":\"UNAUTHORIZED\"},{\"inputs\":[],\"stateMutability\":\"view\",\"type\":\"function\",\"name\":\"BRIDGE\",\"outputs\":[{\"internalType\":\"contract OPStandardBridge\",\"name\":\"\",\"type\":\"address\"}]},{\"inputs\":[],\"stateMutability\":\"view\",\"type\":\"function\",\"name\":\"MESSENGER\",\"outputs\":[{\"internalType\":\"contract OPMessenger\",\"name\":\"\",\"type\":\"address\"}]},{\"inputs\":[],\"stateMutability\":\"view\",\"type\":\"function\",\"name\":\"PERMISSIONS\",\"outputs\":[{\"internalType\":\"contract IJBPermissions\",\"name\":\"\",\"type\":\"address\"}]},{\"inputs\":[{\"internalType\":\"contract OPMessenger\",\"name\":\"messenger\",\"type\":\"address\"},{\"internalType\":\"contract OPStandardBridge\",\"name\":\"bridge\",\"type\":\"address\"}],\"stateMutability\":\"nonpayable\",\"type\":\"function\",\"name\":\"configureLayerSpecific\"},{\"inputs\":[{\"internalType\":\"uint256\",\"name\":\"localProjectId\",\"type\":\"uint256\"},{\"internalType\":\"bytes32\",\"name\":\"salt\",\"type\":\"bytes32\"}],\"stateMutability\":\"nonpayable\",\"type\":\"function\",\"name\":\"createForSender\",\"outputs\":[{\"internalType\":\"contract IBPSucker\",\"name\":\"sucker\",\"type\":\"address\"}]},{\"inputs\":[{\"internalType\":\"address\",\"name\":\"\",\"type\":\"address\"}],\"stateMutability\":\"view\",\"type\":\"function\",\"name\":\"isSucker\",\"outputs\":[{\"internalType\":\"bool\",\"name\":\"\",\"type\":\"bool\"}]}],\"devdoc\":{\"kind\":\"dev\",\"methods\":{\"createForSender(uint256,bytes32)\":{\"details\":\"Uses the sender address as the salt, which means the same sender must call this function on both chains.\",\"params\":{\"localProjectId\":\"The project's ID on the local chain.\",\"salt\":\"The salt to use for the `create2` address.\"},\"returns\":{\"sucker\":\"The address of the new sucker.\"}}},\"version\":1},\"userdoc\":{\"kind\":\"user\",\"methods\":{\"BRIDGE()\":{\"notice\":\"The bridge used to bridge tokens between the local and remote chain.\"},\"MESSENGER()\":{\"notice\":\"The messenger used to send messages between the local and remote sucker.\"},\"PERMISSIONS()\":{\"notice\":\"A contract storing permissions.\"},\"configureLayerSpecific(address,address)\":{\"notice\":\"handles some layer specific configuration that can't be done in the constructor otherwise deployment addresses would change.messenger the OPMesssenger on this layer.bridge the OPStandardBridge on this layer.\"},\"createForSender(uint256,bytes32)\":{\"notice\":\"Create a new `BPSucker` for a specific project.\"},\"isSucker(address)\":{\"notice\":\"A mapping of suckers deployed by this contract.\"}},\"version\":1}},\"settings\":{\"remappings\":[\"@arbitrum/=node_modules/@arbitrum/\",\"@bananapus/=node_modules/@bananapus/\",\"@chainlink/=node_modules/@chainlink/\",\"@eth-optimism/=node_modules/@eth-optimism/\",\"@gnosis.pm/=node_modules/@gnosis.pm/\",\"@offchainlabs/=node_modules/@offchainlabs/\",\"@openzeppelin/=node_modules/@openzeppelin/\",\"@prb/=node_modules/@prb/\",\"@sphinx-labs/contracts/=node_modules/@sphinx-labs/contracts/contracts/foundry/\",\"@uniswap/=node_modules/@uniswap/\",\"ds-test/=lib/forge-std/lib/ds-test/src/\",\"forge-std/=lib/forge-std/src/\",\"hardhat/=node_modules/hardhat/\",\"solmate/=node_modules/solmate/\",\"sphinx-forge-std/=node_modules/sphinx-forge-std/\",\"sphinx-solmate/=node_modules/sphinx-solmate/\",\"sphinx/=lib/sphinx/packages/contracts/contracts/forge-std/src/\"],\"optimizer\":{\"enabled\":true,\"runs\":200},\"metadata\":{\"bytecodeHash\":\"ipfs\"},\"compilationTarget\":{\"src/deployers/BPOptimismSuckerDeployer.sol\":\"BPOptimismSuckerDeployer\"},\"evmVersion\":\"paris\",\"libraries\":{}},\"sources\":{\"node_modules/@bananapus/core/src/abstract/JBPermissioned.sol\":{\"keccak256\":\"0xe08c8a7eeac9d1c7c2e0db6d5b98d1af09889300835a3d47d9f29319fecce703\",\"urls\":[\"bzz-raw://42645cf52bcc45053ef650790916faed5d0a74cecef336b217433fdd2c5c4166\",\"dweb:/ipfs/QmdMmxG1tSGucQwz4LYbVnuj7HU23YvqLH6xfrNWv5Bmus\"],\"license\":\"MIT\"},\"node_modules/@bananapus/core/src/enums/JBApprovalStatus.sol\":{\"keccak256\":\"0x61c69b6bac7d24b566d87cda23a77e4ca9cdb87200b106aba8534cb9a0973e33\",\"urls\":[\"bzz-raw://6a9ca7249de76f77a8252eefe6bd1b63d47952f25a2acfa2c8db967cdff4470c\",\"dweb:/ipfs/QmaxSxptRQNj8bNy96EreENmrnRWdKmhyihBcxyWzBX5BN\"],\"license\":\"MIT\"},\"node_modules/@bananapus/core/src/interfaces/IJBControlled.sol\":{\"keccak256\":\"0x79fb8de7b3f809f1c3c7189f578b7331ec4dfe3350151d5b50240ecb3a2a907b\",\"urls\":[\"bzz-raw://45c82240dd4f0e9aec00d0d86f6b44bdda231db098ebdac17e922771b3e6f342\",\"dweb:/ipfs/QmPUvT8HZeVenrZDpP14HsZofaXPJjih8UAd35rTg3tU7E\"],\"license\":\"MIT\"},\"node_modules/@bananapus/core/src/interfaces/IJBController.sol\":{\"keccak256\":\"0xe0b84058192f89e461c4b604388aa11a2f92f0f9969fb70fb3c18706d6f3e16b\",\"urls\":[\"bzz-raw://984fdcff63a17ccab65ff7723a628967e40965fcb4d47909cf8e314e8f044576\",\"dweb:/ipfs/QmaaHZWuaaH3oYxCDrip1rr4u4H1XtR3RcwwKAE73GAqkd\"],\"license\":\"MIT\"},\"node_modules/@bananapus/core/src/interfaces/IJBDirectory.sol\":{\"keccak256\":\"0x9cc380844aef60078ee47a61861e55a29c4a8c947efd556ebd36e6909f7b9d62\",\"urls\":[\"bzz-raw://9f5190ec8b6683d9781ee6e9eedcc91294753242748875d4a06349077e4cbaaf\",\"dweb:/ipfs/QmTQrPuXT9TCA4txwrperMeXSGvGxP8iokUK47f62F388i\"],\"license\":\"MIT\"},\"node_modules/@bananapus/core/src/interfaces/IJBDirectoryAccessControl.sol\":{\"keccak256\":\"0x1e67f56849320a46f834aaa9bd62b170ff8ada7b224b4a81136193740fa0be4d\",\"urls\":[\"bzz-raw://ea8fbcec44abfe49d137bcae129b67e5479d6b17879301f88534c8a7fab00be4\",\"dweb:/ipfs/QmT6wrtYX4GRpffHUzupNwYebJ1dqkkKZLEewWsoyunsqw\"],\"license\":\"MIT\"},\"node_modules/@bananapus/core/src/interfaces/IJBFundAccessLimits.sol\":{\"keccak256\":\"0x284cdb8cefd672f9d83216d73a7754149d061b573a33c62911f23635f3bcd54a\",\"urls\":[\"bzz-raw://e393e679d7f547884496737fc4eb87395d014217461a28dd6aac8e8f0cefd313\",\"dweb:/ipfs/QmRv9JFm4ajJqoVdDbQrFiVwNRzAkTcNNAAgn6K5RvDg6f\"],\"license\":\"MIT\"},\"node_modules/@bananapus/core/src/interfaces/IJBMigratable.sol\":{\"keccak256\":\"0xd69bd5aba01a68d82c303ef3adde47532abcace030a94296c3ea6988b401789c\",\"urls\":[\"bzz-raw://88f11a1c89899327746beba4fc830abf3ac2eb9c152c778e884a6eed6564971f\",\"dweb:/ipfs/QmTpKhSTVewpz7VyKcz6BJwH2LFKMwT7Qi5HNWmjEjwsdK\"],\"license\":\"MIT\"},\"node_modules/@bananapus/core/src/interfaces/IJBPayHook.sol\":{\"keccak256\":\"0x9438866782c652c2942f4d114e35f393cd3c8b0334abce8387eed90bca35e8b2\",\"urls\":[\"bzz-raw://cfd99daf57213f92325aad7d7d16e98476d38e870470e95ba01e3ae3cdecc95d\",\"dweb:/ipfs/QmUKKAVGf7ki8BHksr99tFcRW8APveeB5tNH63ctTbbCW8\"],\"license\":\"MIT\"},\"node_modules/@bananapus/core/src/interfaces/IJBPermissioned.sol\":{\"keccak256\":\"0x5b038d4dee116584e88b230920e56d48e135053e3f7e5642eaea14a775c1dad7\",\"urls\":[\"bzz-raw://19e43102f349fd4a1da1c0943ffb8f2950007fe4bb4bb7e8f74fc142575d091b\",\"dweb:/ipfs/QmXHAt4KzDTdDZgDDefEXH2WKi7NcfkJb9R7nxW5uDqsNp\"],\"license\":\"MIT\"},\"node_modules/@bananapus/core/src/interfaces/IJBPermissions.sol\":{\"keccak256\":\"0x18870e500edf0fbadc353e273a5574701fb80466376b908c65e7cc3f11044d4d\",\"urls\":[\"bzz-raw://352a47c45853aec80e7acf0d286ade3106eb4cb456776b28a3c2f3f1091bed90\",\"dweb:/ipfs/QmQeYd3YbudYZy2hfbfht9kwhxhw4tuuLKMEYy9UY6dcSy\"],\"license\":\"MIT\"},\"node_modules/@bananapus/core/src/interfaces/IJBPriceFeed.sol\":{\"keccak256\":\"0x4bd84c0f1a5d4729ed709bcddd43f4c50ec4a165ece79780af8dce482ed07d4a\",\"urls\":[\"bzz-raw://62bac4bfb6982fb002f620c77e5c445e62d50241a5aa64a07e51d929f5a42180\",\"dweb:/ipfs/QmWgJUDreVY2BuMX38a1iUUR5kNbMwGnKG3VvurB7oZtuM\"],\"license\":\"MIT\"},\"node_modules/@bananapus/core/src/interfaces/IJBPrices.sol\":{\"keccak256\":\"0x99525f31440b955742dce84ba57de9fc1221139b5367c1f834723bef9e13e6e1\",\"urls\":[\"bzz-raw://6fa03f0cd4ad87dd7cbae7bf7f54463450874291773c8f70f2c31ef2cae62bb0\",\"dweb:/ipfs/QmSPajPV5ismteJuB6Spzm9VmhTj2iS3eVrfpJC1Zuzg8n\"],\"license\":\"MIT\"},\"node_modules/@bananapus/core/src/interfaces/IJBProjectUriRegistry.sol\":{\"keccak256\":\"0x2799475228987e4f8334ac33d3935f759c9b8133db7383b4f622dde7a5dc0502\",\"urls\":[\"bzz-raw://d751731740f45df74eea48c9667e847ee2cddb2980ab4939c86bd17e6c6ed89b\",\"dweb:/ipfs/QmXW8SLTuhdUpfn7pRpdsYdcyuim8RTyagU37ULcj5UZhT\"],\"license\":\"MIT\"},\"node_modules/@bananapus/core/src/interfaces/IJBProjects.sol\":{\"keccak256\":\"0x735c2fb8f1fa827f054ee77f7a0ae4b312656217acb75b624d2c8fd9dc40151b\",\"urls\":[\"bzz-raw://ee7fc92299a8633a80693ae63ab494dcd125f1789487a54a39dc0e5696e5996f\",\"dweb:/ipfs/QmX7YJD4pS2XhgQb7p3JbBAXynT7YGPXcZe92BiWWRrsCL\"],\"license\":\"MIT\"},\"node_modules/@bananapus/core/src/interfaces/IJBRedeemHook.sol\":{\"keccak256\":\"0x8ab46fcd7d0e739661eb76056ad93ff99106f38420ef0b4eb97fa9f4bb71a68a\",\"urls\":[\"bzz-raw://0ef96fcb7ad26281d444d8e0c677b25114fdd63b1c172d477e030dce8ba53b62\",\"dweb:/ipfs/Qmcx1jRQuwU4pZFuLxsSsx4oMbRaDfktHrPnXextgbWc5m\"],\"license\":\"MIT\"},\"node_modules/@bananapus/core/src/interfaces/IJBRedeemTerminal.sol\":{\"keccak256\":\"0xd1b4aa38154e08f1474745ea6bc8f8823fe8aa68c124d596742597f2296ea16d\",\"urls\":[\"bzz-raw://9bd254e833702dfe5e28db5fee76478947ab45b501c966501f719e73bbf0397a\",\"dweb:/ipfs/QmZ3Ng7TmVxL6ozSUhx4kYdQdZhoYi4t43cYZVAMz7Fn5M\"],\"license\":\"MIT\"},\"node_modules/@bananapus/core/src/interfaces/IJBRulesetApprovalHook.sol\":{\"keccak256\":\"0x592e95d159494421c6b1bcb362d0cee1df0132921697351304e9cd7af4fbd386\",\"urls\":[\"bzz-raw://5bebfd5fa67c1b6ea16fa2e76e9520e9dfe52a579f48dd94d0c2ec45f78ad178\",\"dweb:/ipfs/QmRUawEGtfYoYSHmHELGhvJoWuMsxLPKtqAXgsrb7fJboP\"],\"license\":\"MIT\"},\"node_modules/@bananapus/core/src/interfaces/IJBRulesetDataHook.sol\":{\"keccak256\":\"0x13b4b9f4b847f62442da1c1a59b399f8f201b31a28edb96aa5a8a78ad57c24d0\",\"urls\":[\"bzz-raw://4fcd00b77d0f40cf6d5ee6590b6ef4ee1f606e89ae4c4faed3710fb462108f8e\",\"dweb:/ipfs/QmeoE54DQ3eGw9EDXfN7aTMmEjubAtirahmytDijo6GSeE\"],\"license\":\"MIT\"},\"node_modules/@bananapus/core/src/interfaces/IJBRulesets.sol\":{\"keccak256\":\"0xda1a9aef337cf9fede3f638ffa58aea2815b87fde0f79628834aa03af9f582d7\",\"urls\":[\"bzz-raw://7941690ba6d94500474978ff0f02ecc56335eae5937759878e25cc1ac30a8ecc\",\"dweb:/ipfs/QmZFc7wof6PzfBTkVyNkjaQrQbjc36CK4uC3Ee2vgihqyK\"],\"license\":\"MIT\"},\"node_modules/@bananapus/core/src/interfaces/IJBSplitHook.sol\":{\"keccak256\":\"0xeb8dfac7a4b81897a1c3b5d0d853a406bcff33720fb187d5ca5bb3dcc0ba3a12\",\"urls\":[\"bzz-raw://36aaeef6107cfe5b0127e063ea215aac7200f8af02e28a48e61111abd3254688\",\"dweb:/ipfs/QmQ8yQANXnhQCAWBGKsKCDsJ3A8hnTKNg5tyo79GfWXTcV\"],\"license\":\"MIT\"},\"node_modules/@bananapus/core/src/interfaces/IJBSplits.sol\":{\"keccak256\":\"0xd360bb3acf33dc1b39d14f5a9f07ad0684d0cba27fdf0a1c85bff188a4d6efde\",\"urls\":[\"bzz-raw://4bae346c94abea3680763c664f0e0f8748c249bef856db2a713c6661eb5fa671\",\"dweb:/ipfs/QmaAn3qzinU3a6NAdbAwCPb5hSPBiHttoRAEaoBNGkN99X\"],\"license\":\"MIT\"},\"node_modules/@bananapus/core/src/interfaces/IJBTerminal.sol\":{\"keccak256\":\"0x19dc9bf8cbdc8f13ee5da9dc3a87047eacb94a3fc19740a286c1f0bad2cc39ca\",\"urls\":[\"bzz-raw://0b05ae6fda9a85672508232fd992b8a5f5ffd8096622eeb12c8a7b3317eb3867\",\"dweb:/ipfs/QmNh9Quj37BXYGdTdcCD1Q58PchRsE5TLbEZep56qS3MpV\"],\"license\":\"MIT\"},\"node_modules/@bananapus/core/src/interfaces/IJBToken.sol\":{\"keccak256\":\"0x71b1f9c3a0edd41910f77396e0be2c65596571176d53eb87e887c3c0da56c0fb\",\"urls\":[\"bzz-raw://6e956f0582f4525e83d845ee9b4a89959abc4f821414f6accbbee5b38960482d\",\"dweb:/ipfs/QmbSvjgmCgnfVmcCTGu8XwrV1Rufsf3M8hB8unFq6fTMdH\"],\"license\":\"MIT\"},\"node_modules/@bananapus/core/src/interfaces/IJBTokenUriResolver.sol\":{\"keccak256\":\"0xfa5cb00dcd6085d1ef912d071fe73c63f9478a2cd0f9d8bddaf659b6af2d0967\",\"urls\":[\"bzz-raw://282e4e7c342d65f77cde0e9a08fcaf20ef5cf379c7a48b639842c0ffd0b2afb8\",\"dweb:/ipfs/QmbnN3PEQeZaXdPLT75V1J79kMg7KqSMru37RHrL3z8Yf2\"],\"license\":\"MIT\"},\"node_modules/@bananapus/core/src/interfaces/IJBTokens.sol\":{\"keccak256\":\"0x3bce94e52a53955fcf1c1a7b29ba4c16ac67473ff88ddc26c85b7989317aaaba\",\"urls\":[\"bzz-raw://78b979750c51857c44fe744fa2252794f826962ad977d55b60e0a9baee43df7f\",\"dweb:/ipfs/QmY1c6NDqtx8v9dEETChFFnY1Khm4ZWpkjUseFf8tLUmtX\"],\"license\":\"MIT\"},\"node_modules/@bananapus/core/src/libraries/JBConstants.sol\":{\"keccak256\":\"0x9d3a9a953f859d8ec79a599577f8972de6da7199cc1bfa7fdad017d4d722bcb4\",\"urls\":[\"bzz-raw://f151fcb53a8d2684eff8b9e56ac790bcbcadd8199a4fd4d17c5b224b22936722\",\"dweb:/ipfs/QmdAz1ZtCE8nTiC4AxQNLfJhnY3ndGum2Lbef7seKdvTdR\"],\"license\":\"MIT\"},\"node_modules/@bananapus/core/src/libraries/JBRulesetMetadataResolver.sol\":{\"keccak256\":\"0x83f25c531d9e212379b4326fd93bf658a0f6d0e839bbd67bff7b66b9b55fb670\",\"urls\":[\"bzz-raw://3eb4a41ececec705febac7b799d7224e67f12761ae3975d49dd8bddaac608ecd\",\"dweb:/ipfs/QmNgL5VccDhP5xofEcGWNKk3v4KG23wGF9vc3d4YJ5MLnv\"],\"license\":\"MIT\"},\"node_modules/@bananapus/core/src/structs/JBAccountingContext.sol\":{\"keccak256\":\"0x2907ff54d1e903cc7e0390dd88c3975884702dc2673642aacbe22b66560b56de\",\"urls\":[\"bzz-raw://a66a5381ce877b32f0e0058ceeaf843e9b6b2bc8af666c0c9f4a9d01091da004\",\"dweb:/ipfs/QmQynCetUr37dBkS1YwDS8evxuXGiqanW6THmeUxXtim8w\"],\"license\":\"MIT\"},\"node_modules/@bananapus/core/src/structs/JBAfterPayRecordedContext.sol\":{\"keccak256\":\"0xd26c3a774ff38be79064085970454fe2603a23a638c76270d5b1b3829206c3e8\",\"urls\":[\"bzz-raw://3b55dbe3bf1ef625b7ca04efab3de35406e6041d5b3d82c7265469c500e2b702\",\"dweb:/ipfs/QmUdBDo4Lt3mcsFcsXT2mqq3czFwZjQJFPLM89YA2VtD7k\"],\"license\":\"MIT\"},\"node_modules/@bananapus/core/src/structs/JBAfterRedeemRecordedContext.sol\":{\"keccak256\":\"0x521f5d23a36f0da72362cd84890cc867bd83baa8dc836ba6c5066d51dba2f163\",\"urls\":[\"bzz-raw://6cc461313286dde62d045d6288e87bae5032e035796326f5b1ed6218e58aa9da\",\"dweb:/ipfs/QmQS2AkQwf2ANQieDuaUnpJEdXChoLv4CCbZqHkfywYPSR\"],\"license\":\"MIT\"},\"node_modules/@bananapus/core/src/structs/JBBeforePayRecordedContext.sol\":{\"keccak256\":\"0x5b04e814da83c7e83ff892ab07eaad6abce6f7b85a75f8da9380e9fc3470bc81\",\"urls\":[\"bzz-raw://11c889aab993fce3e3cc2dedc15fc30dd367e7fef9b7b1bfd6a6a9f248781731\",\"dweb:/ipfs/QmVVtydCD1azeWhGLxA1hthxfLyKzMHZ1eVzCz3a3R5dLy\"],\"license\":\"MIT\"},\"node_modules/@bananapus/core/src/structs/JBBeforeRedeemRecordedContext.sol\":{\"keccak256\":\"0x73eadaf6827e82f6ccbe3a1e2b2b7fc6c59cef471f73335041b30ddcc000989d\",\"urls\":[\"bzz-raw://2f3ee84662eed565dbdaed406ef836fffaf55cccd417575578152e5085d0b1f2\",\"dweb:/ipfs/QmaJGFS7hxJsiUdKvbv5BKhSwceDEzKBnt7t5YeNWvYgMK\"],\"license\":\"MIT\"},\"node_modules/@bananapus/core/src/structs/JBCurrencyAmount.sol\":{\"keccak256\":\"0x12fe4b43f4824994624d4fe0abbd88c3fe7867fd637edb65c7f456dab27e2d6e\",\"urls\":[\"bzz-raw://8003a3e8f932cf891e86b827e67c9d31b0d34c2712e18c2bc333cfe5284ba6d5\",\"dweb:/ipfs/QmSoA6RsDcSnNzk6CB7KZtALkHmeSDAi2g6fg3TDmLDkWX\"],\"license\":\"MIT\"},\"node_modules/@bananapus/core/src/structs/JBFundAccessLimitGroup.sol\":{\"keccak256\":\"0x9fdaa8d017b72da25f583700a444a86849df053f7fb8eac874ec5139bcf651e5\",\"urls\":[\"bzz-raw://c8e44c49ee444a98424a0dbeb6897a76a0bf00d88a613f62ac2012afdac754ee\",\"dweb:/ipfs/QmdYkAiRi5bXM1YYNkc7BiqimHSFodMGn1cjHR5hcpm4xH\"],\"license\":\"MIT\"},\"node_modules/@bananapus/core/src/structs/JBPayHookSpecification.sol\":{\"keccak256\":\"0x955f0bfca97300b9e5927dc181753830ee362f83fa9ca32a90daade32aa0cfd5\",\"urls\":[\"bzz-raw://f517af1597c7c40f8d3da53f7a6684a3e162950a16559d6bf6ea3b727bb11546\",\"dweb:/ipfs/QmRWo2ZTYXmVZTzNJDYhsJNsEaHphjpUfx9eNz2cciyz86\"],\"license\":\"MIT\"},\"node_modules/@bananapus/core/src/structs/JBPermissionsData.sol\":{\"keccak256\":\"0x8f0f69a6ebf5f3704e3dfcb3712fb9d3f94ae7c1ab89bf3e37bad42a3e7a0487\",\"urls\":[\"bzz-raw://57b0c5e52843e2217082889ed47b4da3943e0da4590d5768dcebfe3edad4a6b8\",\"dweb:/ipfs/QmRz48vuWLw81kUP836rh1qzqWiJFGbksgRUA9xGEDNKTY\"],\"license\":\"MIT\"},\"node_modules/@bananapus/core/src/structs/JBRedeemHookSpecification.sol\":{\"keccak256\":\"0x673d16ee1a91bf8de3b37e57284e60451b70a9c2d748c9cdc7a151f5624af18f\",\"urls\":[\"bzz-raw://ceeb5e81effa0f076c5630c756dfcf1548d09f822b255a0a6ee01e54de8c8ae2\",\"dweb:/ipfs/QmSMoMNPRhPMnuJNvWa6S59XRfycGz9o2ApNp63bUW6TdX\"],\"license\":\"MIT\"},\"node_modules/@bananapus/core/src/structs/JBRuleset.sol\":{\"keccak256\":\"0x15b2bf3174d84846a91ccbf5a344dfb125b55ed9cf50102db8d6868844225189\",\"urls\":[\"bzz-raw://647416b025dbd941094db89cbc69f755c155bd6c87be3f322394ccc4a8e0442d\",\"dweb:/ipfs/QmTCL9xcHnxQ4t5AmCPoZvXDUPW5xhzhyyXYbkMdyg44au\"],\"license\":\"MIT\"},\"node_modules/@bananapus/core/src/structs/JBRulesetConfig.sol\":{\"keccak256\":\"0x0be470df286939259a6b98bc71459e661e81d56a58226d6a574ae1484f8f8e6c\",\"urls\":[\"bzz-raw://64592c279ba7518ac180c835a539897163f299a439065f2cc8aa54086a2c9ad7\",\"dweb:/ipfs/QmaEepVvFJdXcDBMMr7SQYjZSDJXPtCca95kQY5rZbra6U\"],\"license\":\"MIT\"},\"node_modules/@bananapus/core/src/structs/JBRulesetMetadata.sol\":{\"keccak256\":\"0xfea54c9f98416d2aa05309e7ff76967d6968a614850a1e33e48fde793ea8b514\",\"urls\":[\"bzz-raw://bf55386cbab90dbc1296b2b0cbfdc217a4500d67702e4a093a4c78bd127ecd5c\",\"dweb:/ipfs/QmTRq9mZrNSXu7oCZwti4JbBFrbY6A5msRqi9RbtL49NAj\"],\"license\":\"MIT\"},\"node_modules/@bananapus/core/src/structs/JBRulesetWithMetadata.sol\":{\"keccak256\":\"0x1bcfadf20488f6df65227f8d4d0fbf9b7539456a2389567f7fe3900d23289bc3\",\"urls\":[\"bzz-raw://0a15c399a71e5373f8c0484c6d6b83521eda31e063a2c53e4c5cec4e74550343\",\"dweb:/ipfs/QmQwi8zkjoTVXbK89NeETYimWCacTrNsesJdpLSvGdqMPX\"],\"license\":\"MIT\"},\"node_modules/@bananapus/core/src/structs/JBSplit.sol\":{\"keccak256\":\"0x1d40fa4f1c911a53b9139f3d44d27cb58fa5c5d2cd793c7a21ccf52b9e61f848\",\"urls\":[\"bzz-raw://9897d2c29fc65fe16e4eac0b7b8b6fd8ef0b0cc501986f7f0c3a78c4ec1dbb60\",\"dweb:/ipfs/QmXcHoVjCYWWCz4hm2KZ6JxtB4YNq7jmXa2evLkga59Xwq\"],\"license\":\"MIT\"},\"node_modules/@bananapus/core/src/structs/JBSplitGroup.sol\":{\"keccak256\":\"0xda7da6e88aac2906c7ea4027660088daf217edc632bebca4d72795aae8921564\",\"urls\":[\"bzz-raw://ae1939d17e94cb51484f31ce64cf0df990445a338fb9b38d39a7baf28275ae4a\",\"dweb:/ipfs/QmUhPnJiWnYhFdtLvZnrPopAdbYXxETpGjvxjPDignpTGY\"],\"license\":\"MIT\"},\"node_modules/@bananapus/core/src/structs/JBSplitHookContext.sol\":{\"keccak256\":\"0xfe34e6860b00ca93d71f44e72882281b2c57c31303151af05795c74cfdd2e51d\",\"urls\":[\"bzz-raw://08acab094888e9c929b6f6f972d89ddbb31e5867675e7e7c602d25fcb2c0f402\",\"dweb:/ipfs/QmPNdXM185cTyXQSodVr4JMviHx88jrWu7dipgkp9xTNgJ\"],\"license\":\"MIT\"},\"node_modules/@bananapus/core/src/structs/JBTerminalConfig.sol\":{\"keccak256\":\"0xd162f3821a1ccafbc8d7d108369e39ac3048445a8c7fe7a3fa97a6343f9eefaa\",\"urls\":[\"bzz-raw://82172ea0407b6d9edc45e408c7e8edb8e129adf49a94349fe3a5862da9bc044e\",\"dweb:/ipfs/QmWheF5Tjq2hcabnSzfYqdFHUA1YxYEdAPZaRw9N166V1d\"],\"license\":\"MIT\"},\"node_modules/@bananapus/core/src/structs/JBTokenAmount.sol\":{\"keccak256\":\"0x5cf0626b73a596c1e2da17c89ae039a7c0374310b060d48568d3b6c11fbe6180\",\"urls\":[\"bzz-raw://63348b50be95e2995409394a17caffc563a646f0972650a1230bf864fbd3219b\",\"dweb:/ipfs/QmZXZpS3SbFD5nWaCauf6AqbEhLURv5qsKHpThBvQgDU6u\"],\"license\":\"MIT\"},\"node_modules/@bananapus/permission-ids/src/JBPermissionIds.sol\":{\"keccak256\":\"0xf61109f6b217a80d5e5391f548fb6f2e451f7dbee3fabfc04cf17e88722203bc\",\"urls\":[\"bzz-raw://ac776ab1cd621c22bd7973471acdfa187f3abc659ad9a3ef6ed10b6447dfcf9c\",\"dweb:/ipfs/QmYLbaHt68qcuMzkiKpe96jMjiWUq1F3u8yMhxmZ3pnnWu\"],\"license\":\"MIT\"},\"node_modules/@openzeppelin/contracts/token/ERC20/IERC20.sol\":{\"keccak256\":\"0xc6a8ff0ea489379b61faa647490411b80102578440ab9d84e9a957cc12164e70\",\"urls\":[\"bzz-raw://0ea104e577e63faea3b69c415637e99e755dcbf64c5833d7140c35a714d6d90c\",\"dweb:/ipfs/Qmau6x4Ns9XdyynRCNNp3RhLqijJjFm7z5fyZazfYFGYdq\"],\"license\":\"MIT\"},\"node_modules/@openzeppelin/contracts/token/ERC20/extensions/IERC20Permit.sol\":{\"keccak256\":\"0x6008dabfe393240d73d7dd7688033f72740d570aa422254d29a7dce8568f3aff\",\"urls\":[\"bzz-raw://f5196ec75139918c6c7bb4251b36395e668f1fa6d206beba7e7520e74913940d\",\"dweb:/ipfs/QmSyqjksXxmm2mCG6qRd1yuwLykypkSVBbnBnGqJRcuJMi\"],\"license\":\"MIT\"},\"node_modules/@openzeppelin/contracts/token/ERC20/utils/SafeERC20.sol\":{\"keccak256\":\"0x37bb49513c49c87c4642a891b13b63571bc87013dde806617aa1efb54605f386\",\"urls\":[\"bzz-raw://b3036b3a83b7c48f96641f2a9002b9f2dcb6a5958dd670894ada21ae8229b3d0\",\"dweb:/ipfs/QmUNfSBdoVtjhETaUJCYcaC7pTMgbhht926tJ2uXJbiVd3\"],\"license\":\"MIT\"},\"node_modules/@openzeppelin/contracts/token/ERC721/IERC721.sol\":{\"keccak256\":\"0x5ef46daa3b58ef2702279d514780316efaa952915ee1aa3396f041ee2982b0b4\",\"urls\":[\"bzz-raw://2f8f2a76e23b02fc69e8cd24c3cb47da6c7af3a2d6c3a382f8ac25c6e094ade7\",\"dweb:/ipfs/QmPV4ZS4tPVv4mTCf9ejyZ1ai57EEibDRj7mN2ARDCLV5n\"],\"license\":\"MIT\"},\"node_modules/@openzeppelin/contracts/utils/Address.sol\":{\"keccak256\":\"0xaf28a975a78550e45f65e559a3ad6a5ad43b9b8a37366999abd1b7084eb70721\",\"urls\":[\"bzz-raw://b7bd24e224f67f65bfadf85dc2929fa965456bb2415478bd0125471b5ce35245\",\"dweb:/ipfs/QmRaydGr8BTHs1kvaZfsNU69pKzUAGFrvABn1KiRSbE51y\"],\"license\":\"MIT\"},\"node_modules/@openzeppelin/contracts/utils/Context.sol\":{\"keccak256\":\"0x493033a8d1b176a037b2cc6a04dad01a5c157722049bbecf632ca876224dd4b2\",\"urls\":[\"bzz-raw://6a708e8a5bdb1011c2c381c9a5cfd8a9a956d7d0a9dc1bd8bcdaf52f76ef2f12\",\"dweb:/ipfs/Qmax9WHBnVsZP46ZxEMNRQpLQnrdE4dK8LehML1Py8FowF\"],\"license\":\"MIT\"},\"node_modules/@openzeppelin/contracts/utils/Create2.sol\":{\"keccak256\":\"0x2b9807d194b92f1068d868e9587d27037264a9a067c778486f86ae21c61cbd5e\",\"urls\":[\"bzz-raw://22d71f40aa38a20cf466d8647452a6e3f746353474f8c8af40f03aa8cae38420\",\"dweb:/ipfs/QmQ752Hz5av7YDK8pFojzb5qgeXQvfsdkdwkHVzaXoYAZR\"],\"license\":\"MIT\"},\"node_modules/@openzeppelin/contracts/utils/introspection/ERC165.sol\":{\"keccak256\":\"0x9e8778b14317ba9e256c30a76fd6c32b960af621987f56069e1e819c77c6a133\",\"urls\":[\"bzz-raw://1777404f1dcd0fac188e55a288724ec3c67b45288e49cc64723e95e702b49ab8\",\"dweb:/ipfs/QmZFdC626GButBApwDUvvTnUzdinevC3B24d7yyh57XkiA\"],\"license\":\"MIT\"},\"node_modules/@openzeppelin/contracts/utils/introspection/ERC165Checker.sol\":{\"keccak256\":\"0xac3d50e321a48a40b4496970ce725900f13aeb2255b7c1203f5adbe98c4a911a\",\"urls\":[\"bzz-raw://1d7b235b578347dce2d831a76f122e820a7db7e73fd2e47f13bafdcd61c5b066\",\"dweb:/ipfs/QmVAELwambfJa55HfiCoz1kFFh7iYwRYeW5x8si6AFM4iX\"],\"license\":\"MIT\"},\"node_modules/@openzeppelin/contracts/utils/introspection/IERC165.sol\":{\"keccak256\":\"0x4296879f55019b23e135000eb36896057e7101fb7fb859c5ef690cf14643757b\",\"urls\":[\"bzz-raw://87b3541437c8c443ccd36795e56a338ed12855eec17f8da624511b8d1a7e14df\",\"dweb:/ipfs/QmeJQCtZrQjtJLr6u7ZHWeH3pBnjtLWzvRrKViAi7UZqxL\"],\"license\":\"MIT\"},\"node_modules/@openzeppelin/contracts/utils/structs/BitMaps.sol\":{\"keccak256\":\"0x3616f1b0d0a9ee1ca8f0953ecaceb9230e36f691c7974d30f964212acff52d2b\",\"urls\":[\"bzz-raw://d4bebdd07b31ac28e3e596ac6f0333da90a4e332405aa7d65f3a3a7e0b4cf15e\",\"dweb:/ipfs/QmckoDU5bBnye2UtPcrfJNahLD2FbxrnPP9nrREMWPpnug\"],\"license\":\"MIT\"},\"node_modules/@prb/math/src/Common.sol\":{\"keccak256\":\"0xaa374e2c26cc93e8c22a6953804ee05f811597ef5fa82f76824378b22944778b\",\"urls\":[\"bzz-raw://279c732e161d623cf4d8a9519ca4c42c0c2db99842d0eb2a20c10fde3fa722c9\",\"dweb:/ipfs/QmVViuUXbinQGqtG5M21SgVzKihiCbFUChd4tDhtvwRmxH\"],\"license\":\"MIT\"},\"src/BPOptimismSucker.sol\":{\"keccak256\":\"0x032889149d16abe489a92b085813c9317fbb7d8c81c14dca5e10edf75137710b\",\"urls\":[\"bzz-raw://6bee51773392530613cb9f5144d190fb5d63356f59c40dda02034c07c1b66222\",\"dweb:/ipfs/Qmeab5qbvwjk8bi4wrAWxpszd4dtoMz4YWVd77cNZkhQnR\"],\"license\":\"MIT\"},\"src/BPSucker.sol\":{\"keccak256\":\"0x5421bacf8c887ae23ad64bb1e85b2e21039f4a80d2ac6cac9ad0b0c5612438cf\",\"urls\":[\"bzz-raw://687070b292273b092a366882b63393bcaef3cd9ed83dc06fe55e135ed02d7f8e\",\"dweb:/ipfs/QmWkm8LpDXkvBEZ8wJh7aM6k9ydEivNTuQWkxb56ubkxMh\"],\"license\":\"MIT\"},\"src/BPSuckerHook.sol\":{\"keccak256\":\"0x91be415d661cf3db83a6b2381ddb245352fbf8ed3ecff0e2cc082fbeca754f75\",\"urls\":[\"bzz-raw://d3ad3bf429795eee8b34eb3525afcd63c0ab945a7c58f2f10e7e621c8232a0fa\",\"dweb:/ipfs/QmSWxCrrAGfVcGc1g3qrM6YcqTf9qf8GcNKRHVQppPVZ3q\"],\"license\":\"MIT\"},\"src/deployers/BPOptimismSuckerDeployer.sol\":{\"keccak256\":\"0x14c661ac58780d729c2f76d041e6b0649f80c168774f13cc91211b5815779299\",\"urls\":[\"bzz-raw://29313c42a92e25d6dea495da7dc60b7e40357bdc0537df1de5fde30cf85a321b\",\"dweb:/ipfs/QmVvoCvBLtAfcRmB75LMh2zXd4zxLqjg8zjLmz58wpFHGv\"],\"license\":\"MIT\"},\"src/enums/BPAddToBalanceMode.sol\":{\"keccak256\":\"0xa6dcd5c6225e2b697775d37a6f3a8ae4030f7af1a7cb4bb91d572eef65134e43\",\"urls\":[\"bzz-raw://583699b0f81837a739e5e54a1e0b0400a6021602bd7f48472c8785b22d3f25eb\",\"dweb:/ipfs/QmfL4Jr6p8B5q8uFX1ZfUS5vPsUxiGgMy5udVg9z2kPUQk\"],\"license\":\"MIT\"},\"src/interfaces/IBPSucker.sol\":{\"keccak256\":\"0xb0ce4e44f966d43f7ded2b59b98fc96a2a71522f44d06245882d2bbd89ff32d9\",\"urls\":[\"bzz-raw://290f1f3630d3749fc88f84944a2fd3a785bcb44a892844de1d0e1078829c7149\",\"dweb:/ipfs/QmcKDnSDxmkkex1Tr9t3ZU7SKNXXK2EtNowu3FZZYH9hZL\"],\"license\":\"MIT\"},\"src/interfaces/IBPSuckerDeployer.sol\":{\"keccak256\":\"0xe252e890c4b5e12d5fa537a11cd2fad936f41be80240301ace8afca3de481222\",\"urls\":[\"bzz-raw://730855964dd0629f3d514ed52f59d80d02786733c3b8b5cf21e69524de7f8829\",\"dweb:/ipfs/QmUuoYEmnzUNn3hANGrg8sDZdjoaEbgWMWLepsSQt9MUyw\"],\"license\":\"MIT\"},\"src/interfaces/OPMessenger.sol\":{\"keccak256\":\"0x0be6648aa7ed6272db8d415992d16dc10b36a4a8ed2f8e3adac8433ca7834dae\",\"urls\":[\"bzz-raw://1a3aeecda2b108059ce2b271364121d69afa4afcd2d0341eae31d181d5a6881d\",\"dweb:/ipfs/QmcaB3EzUW8btTVa1FCgmhTFqTSAwdmK47K95cV88vg9J9\"],\"license\":\"MIT\"},\"src/interfaces/OPStandardBridge.sol\":{\"keccak256\":\"0xb5717563fc9dcbe47ab2ed8b98a1a5757b51935989b9a78091eb590c8dbb8d5a\",\"urls\":[\"bzz-raw://5d9acbe757d1103be408303d53c25ee8a6b6dc799e8dd58e4756ac4028b4ccd5\",\"dweb:/ipfs/QmVuqESXkFhrcRAAfTkXSXp7uWrN5QA7eAH6x3DpeAoAMe\"],\"license\":\"MIT\"},\"src/structs/BPClaim.sol\":{\"keccak256\":\"0x63a12013ec4c221781b057185a0e01c83ac19dcef115ad6238d25a22011da071\",\"urls\":[\"bzz-raw://0307e4377f2cbd3ec561405eb2ffa07e0d9fe2c39522eb0706e91b46efa1b2a7\",\"dweb:/ipfs/QmXKeKQ6mJGehNJt3v2fqE22MFoGjcpm2x9hHA25vu7xAH\"],\"license\":\"MIT\"},\"src/structs/BPInboxTreeRoot.sol\":{\"keccak256\":\"0xff494c45ee76d14e2ffb3cd0f22412b4a1a4d8e37b957a3ffb82b0b9db4f74ab\",\"urls\":[\"bzz-raw://a896310d4dcfecca8b1927bf82832c9b5de5a455228fd9aad2530729ce61739b\",\"dweb:/ipfs/QmUiep5HvdqgJZyJqt4kKxWuP2odhY5W9kX7pCuovTr3LM\"],\"license\":\"MIT\"},\"src/structs/BPLeaf.sol\":{\"keccak256\":\"0xaa2257b6d8fc05d9b37fdb40472cd2f4bed45e7ddc1ea9082ca5296215602bc8\",\"urls\":[\"bzz-raw://ebdf0d3c3961adb71fd7174f9a8eca8332202d07ee5a584abbb06b7c15db61d0\",\"dweb:/ipfs/QmWtqWUncWvZotfno2kiU5TeT3WTR9zfPzRTiktZskyS13\"],\"license\":\"MIT\"},\"src/structs/BPMessageRoot.sol\":{\"keccak256\":\"0xab832c9e92d412cc0d8e6758777694955fef6dcbc919f96b33052d68d0516d1d\",\"urls\":[\"bzz-raw://fa9fe2604015f05e1a4f2c1a92f4ef7b6cba3d08d9e7daa2b20190a9b1bce39c\",\"dweb:/ipfs/QmUDcrNmqnp1dPwkmPTjsu7Egbwtgsk42G9FNdrHk6JcB2\"],\"license\":\"MIT\"},\"src/structs/BPOutboxTree.sol\":{\"keccak256\":\"0xed569423f6ae3dafee5681a60b7c5d24b0c5f33ff0763937952e938be374d79e\",\"urls\":[\"bzz-raw://4dafb1348a51324105b2ee100e2174fee0f1397f0b2dd00483b2dcf049477ce4\",\"dweb:/ipfs/Qmcf8jizBW7BGGnHBVetaDvYcZ75ov8oYw8LubaNUHrHCv\"],\"license\":\"MIT\"},\"src/structs/BPRemoteToken.sol\":{\"keccak256\":\"0x703d0112f181683d9b3508bf9fc0ef2f5c3cac73de0a718d9f405561fad14622\",\"urls\":[\"bzz-raw://80c0dd5e9ef7648efc48306da2c50829490c41cf09292f0f82fa3e24ce9dbe37\",\"dweb:/ipfs/QmYTgR72bVH3r1xKvMaE1tRUAkqkZjZa2v1eki1973qn3U\"],\"license\":\"MIT\"},\"src/structs/BPTokenMapping.sol\":{\"keccak256\":\"0x84865bda925cdc9a608cbbfc487619acba391f98ae12bbbfdbc5779d617a17d9\",\"urls\":[\"bzz-raw://3bbc1fdd38feaf64fd4914bddb62cda7e5b8ee0f046a0eac8cfcb15f9493bcc5\",\"dweb:/ipfs/QmXgAx7sr1M8r71YrSeQJGAB1uhvdxpQyS633UgJvLCQfb\"],\"license\":\"MIT\"},\"src/utils/MerkleLib.sol\":{\"keccak256\":\"0x6803b76f79362d9b5cd8e32eb1da6ed675146554dcd2f77747c4406f5f7a25f4\",\"urls\":[\"bzz-raw://3db2984a7eae5e7dc78517fd3a696180e95fdf00bf3267b31d1dbaddb0865cab\",\"dweb:/ipfs/QmPG8Nxwcb5Q7unUzMLCwaaRv8MvR7rskfacSDqbDW5zPZ\"],\"license\":\"MIT OR Apache-2.0\"}},\"version\":1}",
			"args": [
				"0x08A5638AE0efd3Aabc61622D1C46daA9b6DCEA09",
				"0x76C87701D0aD2C5C3B40C36617CEba566436A69f",
				"0x71Ff91C8A27b436f7025C053c01A3F6AAE3Fc62E",
				"0xF25dCe432B7ED1CCd5F0A2481f980862e359A092",
				"0x953AB7f10EfE861B21CfB9630768818A04742587",
				"0x6a65B75A3f37C6702A117Fb87B6bCaC62657d216"
			],
			"bytecode": "0x61014060405234801561001157600080fd5b50604051615a5c380380615a5c83398101604081905261003091610077565b6001600160a01b0391821660805281166101205293841660a05291831660c052821660e05216610100526100fe565b6001600160a01b038116811461007457600080fd5b50565b60008060008060008060c0878903121561009057600080fd5b865161009b8161005f565b60208801519096506100ac8161005f565b60408801519095506100bd8161005f565b60608801519094506100ce8161005f565b60808801519093506100df8161005f565b60a08801519092506100f08161005f565b809150509295509295509295565b60805160a05160c05160e051610100516101205161590b6101516000396000505060006101d2015260006101b1015260006101900152600061016f01526000818161010a01526101f3015261590b6000f3fe608060405234801561001057600080fd5b50600436106100625760003560e01c80631213036614610067578063927ede2d14610097578063c39ec124146100aa578063cc8b6f4f146100dd578063ee9a31a2146100f2578063f434c91414610105575b600080fd5b61007a6100753660046102fb565b61012c565b6040516001600160a01b0390911681526020015b60405180910390f35b60005461007a906001600160a01b031681565b6100cd6100b8366004610335565b60026020526000908152604090205460ff1681565b604051901515815260200161008e565b6100f06100eb366004610359565b61027f565b005b60015461007a906001600160a01b031681565b61007a7f000000000000000000000000000000000000000000000000000000000000000081565b6040516bffffffffffffffffffffffff193360601b16602082015260348101829052600090605401604051602081830303815290604052805190602001209150817f00000000000000000000000000000000000000000000000000000000000000007f00000000000000000000000000000000000000000000000000000000000000007f00000000000000000000000000000000000000000000000000000000000000007f00000000000000000000000000000000000000000000000000000000000000007f00000000000000000000000000000000000000000000000000000000000000006000896000604051610223906102ee565b610234989796959493929190610392565b8190604051809103906000f5905080158015610254573d6000803e3d6000fd5b506001600160a01b0381166000908152600260205260409020805460ff191660011790559392505050565b6000546001600160a01b03161515806102a257506001546001600160a01b031615155b156102c05760405163ccbe17fd60e01b815260040160405180910390fd5b600080546001600160a01b039384166001600160a01b03199182161790915560018054929093169116179055565b6154d28061040483390190565b6000806040838503121561030e57600080fd5b50508035926020909101359150565b6001600160a01b038116811461033257600080fd5b50565b60006020828403121561034757600080fd5b81356103528161031d565b9392505050565b6000806040838503121561036c57600080fd5b82356103778161031d565b915060208301356103878161031d565b809150509250929050565b6001600160a01b0389811682528881166020830152878116604083015286811660608301528581166080830152841660a082015260c081018390526101008101600283106103f057634e487b7160e01b600052602160045260246000fd5b8260e0830152999850505050505050505056fe6101e06040523480156200001257600080fd5b50604051620054d2380380620054d28339810160408190526200003591620001d9565b6001600160a01b0380851660805280871660c05280861660e052889088908890889088908890889088908316156200006e578262000070565b305b6001600160a01b03166101205261014082905233610100528060018111156200009d576200009d62000291565b60a0816001811115620000b457620000b462000291565b9052505050506001600160a01b039485166101805250505016610160526040805163927ede2d60e01b81529051339163927ede2d9160048083019260209291908290030181865afa1580156200010e573d6000803e3d6000fd5b505050506040513d601f19601f82011682018060405250810190620001349190620002a7565b6001600160a01b03166101a0526040805163774d18d160e11b81529051339163ee9a31a29160048083019260209291908290030181865afa1580156200017e573d6000803e3d6000fd5b505050506040513d601f19601f82011682018060405250810190620001a49190620002a7565b6001600160a01b03166101c05250620002ce9650505050505050565b6001600160a01b0381168114620001d657600080fd5b50565b600080600080600080600080610100898b031215620001f757600080fd5b88516200020481620001c0565b60208a01519098506200021781620001c0565b60408a01519097506200022a81620001c0565b60608a01519096506200023d81620001c0565b60808a01519095506200025081620001c0565b60a08a01519094506200026381620001c0565b60c08a015160e08b01519194509250600281106200028057600080fd5b809150509295985092959890939650565b634e487b7160e01b600052602160045260246000fd5b600060208284031215620002ba57600080fd5b8151620002c781620001c0565b9392505050565b60805160a05160c05160e05161010051610120516101405161016051610180516101a0516101c05161508162000451600039600081816102c601528181611cac0152611cfb01526000818161076401528181611e500152818161272e0152612794015260008181610270015261166301526000818161065d01526115c6015260008181610368015281816109c501528181610a4201528181610bad01528181610be501528181610dad015281816112a70152818161135001528181612010015281816120d501528181612152015281816123de015281816124970152818161259901526126c101526000818161051f01528181611d2c01528181611e7b015261276a015260006105e801526000818161022401528181610dd601526117740152600081816104bb01528181610936015281816112cd01528181611510015281816118740152818161204b015261240d01526000818161061c01528181610f49015261124901526000818161073001528181611a960152611b3f01526150816000f3fe6080604052600436106101d15760003560e01c806388bc2ef3116100f7578063c1b8411a11610095578063ed0e26b911610064578063ed0e26b9146106ac578063f3c578811461070b578063f434c9141461071e578063fc8fa43d1461075257600080fd5b8063c1b8411a146105d6578063c6525f2c1461060a578063d4a1b4b11461064b578063e7f82c751461067f57600080fd5b8063b59ef50f116100d1578063b59ef50f14610541578063b71c117914610561578063bf557aee14610574578063c1854129146105b657600080fd5b806388bc2ef3146104a9578063aaf320d7146104dd578063ad42938b1461050d57600080fd5b8063551ebbf01161016f57806369ce22331161013e57806369ce2233146103d057806369d31fdd146103f05780636dfa7268146104035780637de6fba21461043257600080fd5b8063551ebbf01461033657806356539f391461035657806361c8641714610398578063677ce088146103ad57600080fd5b80632241dc52116101ab5780632241dc52146102925780632847f1f3146102b457806338eb2044146102e85780634c4ffc711461030857600080fd5b806301ffc9a7146101dd5780631d831d5c146102125780631eabcd341461025e57600080fd5b366101d857005b600080fd5b3480156101e957600080fd5b506101fd6101f83660046146f5565b610786565b60405190151581526020015b60405180910390f35b34801561021e57600080fd5b506102467f000000000000000000000000000000000000000000000000000000000000000081565b6040516001600160a01b039091168152602001610209565b34801561026a57600080fd5b506102467f000000000000000000000000000000000000000000000000000000000000000081565b34801561029e57600080fd5b506102b26102ad36600461471f565b6107d8565b005b3480156102c057600080fd5b506102467f000000000000000000000000000000000000000000000000000000000000000081565b3480156102f457600080fd5b506102b26103033660046147ab565b610810565b34801561031457600080fd5b506103286103233660046147c7565b610ba7565b604051610209929190614852565b34801561034257600080fd5b506102b26103513660046148f8565b610d77565b34801561036257600080fd5b5061038a7f000000000000000000000000000000000000000000000000000000000000000081565b604051908152602001610209565b3480156103a457600080fd5b5061038a610ef5565b3480156103b957600080fd5b506101fd6103c8366004614942565b600092915050565b3480156103dc57600080fd5b506102b26103eb366004614972565b610f45565b6102b26103fe3660046147ab565b610fbe565b34801561040f57600080fd5b5061042361041e366004614972565b61112f565b6040516102099392919061498f565b34801561043e57600080fd5b5061047f61044d366004614972565b6003602052600090815260409020805460019091015463ffffffff821691600160201b90046001600160a01b03169083565b6040805163ffffffff90941684526001600160a01b03909216602084015290820152606001610209565b3480156104b557600080fd5b506102467f000000000000000000000000000000000000000000000000000000000000000081565b3480156104e957600080fd5b506104fd6104f83660046149e8565b611199565b6040516102099493929190614a23565b34801561051957600080fd5b506102467f000000000000000000000000000000000000000000000000000000000000000081565b34801561054d57600080fd5b506102b261055c366004614ac3565b61120d565b6102b261056f366004614972565b611414565b34801561058057600080fd5b506101fd61058f366004614972565b6001600160a01b03908116600090815260036020526040902054600160201b900416151590565b3480156105c257600080fd5b506102b26105d1366004614ad6565b6114bd565b3480156105e257600080fd5b506102467f000000000000000000000000000000000000000000000000000000000000000081565b34801561061657600080fd5b5061063e7f000000000000000000000000000000000000000000000000000000000000000081565b6040516102099190614b4f565b34801561065757600080fd5b506102467f000000000000000000000000000000000000000000000000000000000000000081565b34801561068b57600080fd5b5061038a61069a366004614972565b60026020526000908152604090205481565b3480156106b857600080fd5b506106ec6106c7366004614972565b600160208190526000918252604090912080549101546001600160401b039091169082565b604080516001600160401b039093168352602083019190915201610209565b6102b2610719366004614b77565b6114f1565b34801561072a57600080fd5b506102467f000000000000000000000000000000000000000000000000000000000000000081565b34801561075e57600080fd5b506102467f000000000000000000000000000000000000000000000000000000000000000081565b60006001600160e01b031982166340e01e1760e11b14806107b757506001600160e01b0319821663f3c5788160e01b145b806107d257506301ffc9a760e01b6001600160e01b03198316145b92915050565b60005b8181101561080b576108038383838181106107f8576107f8614bb2565b905060800201610810565b6001016107db565b505050565b600061081f6020830183614972565b9050600061eeee6108336020850185614972565b6001600160a01b0316149050808015610866575061eeee61085a6060850160408601614972565b6001600160a01b031614155b801561088b5750600061087f6060850160408601614972565b6001600160a01b031614155b156108ca576108a06060840160408501614972565b604051630a0a3b6b60e31b81526001600160a01b0390911660048201526024015b60405180910390fd5b62030d406108de6040850160208601614bc8565b63ffffffff161080156108ef575080155b156109315762030d406109086040850160208601614bc8565b604051634f3dbeb360e11b815263ffffffff9283166004820152911660248201526044016108c1565b610a687f00000000000000000000000000000000000000000000000000000000000000006001600160a01b031663293c49996040518163ffffffff1660e01b8152600401602060405180830381865afa158015610992573d6000803e3d6000fd5b505050506040513d601f19601f820116820180604052508101906109b69190614bee565b6040516331a9108f60e11b81527f000000000000000000000000000000000000000000000000000000000000000060048201526001600160a01b039190911690636352211e90602401602060405180830381865afa158015610a1c573d6000803e3d6000fd5b505050506040513d601f19601f82011682018060405250810190610a409190614bee565b7f0000000000000000000000000000000000000000000000000000000000000000601c611a4c565b6000610a7a6060850160408601614972565b6001600160a01b0316148015610aaa57506001600160a01b03821660009081526020819052604090206001015415155b15610b04576001600160a01b0380831660009081526003602090815260408083208151606081018352815463ffffffff81168252600160201b90049095169285019290925260019091015490830152610b04918490611bd0565b6040518060600160405280846020016020810190610b229190614bc8565b63ffffffff168152602001610b3d6060860160408701614972565b6001600160a01b0390811682526060909501356020918201529284166000908152600384526040908190208251815495840151909616600160201b026001600160c01b031990951663ffffffff909616959095179390931784559091015160019092019190915550565b600060607f00000000000000000000000000000000000000000000000000000000000000008360c0013514610c1b57604051632d7b333360e11b81527f0000000000000000000000000000000000000000000000000000000000000000600482015260c084013560248201526044016108c1565b6000610c2d6060850160408601614972565b6001600160a01b03808216600090815260036020526040902054919250600160201b90910416158015610c7a5750610c78610c6b6020860186614972565b635db90a7f60e11b611f77565b155b15610cd5576040805160008082526020820190925261012086013591610cca565b60408051606080820183526000808352602083015291810191909152815260200190600190039081610c9b5790505b509250925050915091565b60408051600180825281830190925290816020015b60408051606080820183526000808352602083015291810191909152815260200190600190039081610cea5790505091506040518060600160405280306001600160a01b03168152602001600081526020016040518060200160405280600081525081525082600081518110610d6257610d62614bb2565b60200260200101819052506000925050915091565b6001600160a01b038316610d9e576040516309a9c30b60e41b815260040160405180910390fd5b60405163ea78803f60e01b81527f000000000000000000000000000000000000000000000000000000000000000060048201526000907f00000000000000000000000000000000000000000000000000000000000000006001600160a01b03169063ea78803f90602401602060405180830381865afa158015610e25573d6000803e3d6000fd5b505050506040513d601f19601f82011682018060405250810190610e499190614bee565b90506001600160a01b038116610e7257604051635a33845560e01b815260040160405180910390fd5b6001600160a01b03828116600090815260036020526040902054600160201b900416610ebc5760405163393e175160e01b81526001600160a01b03831660048201526024016108c1565b610ed16001600160a01b038216333088611f9a565b6000610edf82878587612001565b9050610eed868483886121f4565b505050505050565b6000466001819003610f0957600a91505090565b80600a03610f1957600191505090565b8062aa36a703610f2d5762aa37dc91505090565b8062aa37dc03610f415762aa36a791505090565b5090565b60007f00000000000000000000000000000000000000000000000000000000000000006001811115610f7957610f79614b39565b14610f975760405163218a9a2d60e11b815260040160405180910390fd5b6001600160a01b038116600090815260026020526040902054610fbb908290612378565b50565b610fc73361272a565b610fe457604051630439dbd360e51b815260040160405180910390fd5b60208101803590600290600090610ffb9085614972565b6001600160a01b03166001600160a01b03168152602001908152602001600020600082825461102a9190614c21565b909155506001905060006110416020840184614972565b6001600160a01b0316815260208101919091526040908101600020546001600160401b0316906110779060608401908401614c49565b6001600160401b03161115610fbb57604081016001600061109b6020850185614972565b6001600160a01b0316815260208101919091526040016000206110be8282614c66565b506110ce90506020820182614972565b6001600160a01b03167f551b6b99b4c48e3265d2885ab0d93779be2402293261e074f7bf74b2c8f45b6f6111086060840160408501614c49565b604080516001600160401b039092168252606085013560208301520160405180910390a250565b6000602081815291815260409081902080546001820154835161044081018086526001600160401b0390931695919490926002850192849283019184919082845b815481526020019060010190808311611170575050509183525050602091820154910152905083565b600080806060610160850135608086013560a0870135846040519080825280602002602001820160405280156111fd57816020015b604080516060808201835260008083526020830152918101919091528152602001906001900390816111ce5790505b5093509350935093509193509193565b61124560608201356112226020840184614972565b60808401356112376060860160408701614972565b602086013560a08701612826565b60017f0000000000000000000000000000000000000000000000000000000000000000600181111561127957611279614b39565b036112985761129861128e6020830183614972565b6080830135612378565b604051632eec7b5560e11b81527f000000000000000000000000000000000000000000000000000000000000000060048201527f00000000000000000000000000000000000000000000000000000000000000006001600160a01b031690635dd8f6aa90602401602060405180830381865afa15801561131c573d6000803e3d6000fd5b505050506040513d601f19601f820116820180604052508101906113409190614bee565b6001600160a01b031663c7fb92de7f0000000000000000000000000000000000000000000000000000000000000000606084018035906113839060408701614972565b6040516001600160e01b031960e086901b168152600481019390935260248301919091526001600160a01b0316604482015260a06064820152600060a48201819052608482015260c4016020604051808303816000875af11580156113ec573d6000803e3d6000fd5b505050506040513d601f19601f820116820180604052508101906114109190614c99565b5050565b6001600160a01b0380821660008181526003602090815260408083208151606081018352815463ffffffff81168252600160201b90049096168684015260019081015486830181905294845291839052909120015410156114b2576040808201516001600160a01b0384166000908152602081905282902060010154915163091df9e560e31b81526108c19290600401918252602082015260400190565b611410348383611bd0565b60005b8181101561080b576114e98383838181106114dd576114dd614bb2565b90506104a0020161120d565b6001016114c0565b604051636e49181f60e01b8152602082013560048201523360248201527f00000000000000000000000000000000000000000000000000000000000000006001600160a01b031690636e49181f90604401602060405180830381865afa15801561155f573d6000803e3d6000fd5b505050506040513d601f19601f820116820180604052508101906115839190614cb2565b6115a057604051634ae18d2b60e11b815260040160405180910390fd5b60408051630969875760e21b8152602083013560048201529082013560248201526000907f00000000000000000000000000000000000000000000000000000000000000006001600160a01b0316906325a61d5c9060440161012060405180830381865afa158015611616573d6000803e3d6000fd5b505050506040513d601f19601f8201168201806040525081019061163a9190614d1b565b61010081015190915060009060241c63ffffffff1660c084013514611726576001600160a01b037f000000000000000000000000000000000000000000000000000000000000000016633be273fa602085013560c08601356116aa86610100015163ffffffff60249190911c1690565b60405160e085901b6001600160e01b031916815260048101939093526024830191909152604482015260a08601356064820152608401602060405180830381865afa1580156116fd573d6000803e3d6000fd5b505050506040513d601f19601f820116820180604052508101906117219190614c99565b611735565b61173560a0840135600a614e7f565b9050600061174d608085013561016086013584612956565b60405163ea78803f60e01b8152602086013560048201529091506000906001600160a01b037f0000000000000000000000000000000000000000000000000000000000000000169063ea78803f90602401602060405180830381865afa1580156117bb573d6000803e3d6000fd5b505050506040513d601f19601f820116820180604052508101906117df9190614bee565b6040516370a0823160e01b81523060048201529091506000906001600160a01b038316906370a0823190602401602060405180830381865afa158015611829573d6000803e3d6000fd5b505050506040513d601f19601f8201168201806040525081019061184d9190614c99565b604051632eec7b5560e11b8152602088013560048201529091506000906001600160a01b037f00000000000000000000000000000000000000000000000000000000000000001690635dd8f6aa90602401602060405180830381865afa1580156118bb573d6000803e3d6000fd5b505050506040513d601f19601f820116820180604052508101906118df9190614bee565b6040516363fdc96f60e11b8152602089013560048201526024810186905230604482015260a06064820152600060a4820152600160848201526001600160a01b03919091169063c7fb92de9060c4016020604051808303816000875af115801561194d573d6000803e3d6000fd5b505050506040513d601f19601f820116820180604052508101906119719190614c99565b6040516370a0823160e01b815230600482015290915082906001600160a01b038516906370a0823190602401602060405180830381865afa1580156119ba573d6000803e3d6000fd5b505050506040513d601f19601f820116820180604052508101906119de9190614c99565b6119e89190614e8b565b81146119f6576119f6614e9e565b6000611a148483611a0d60808c0160608d01614972565b6000612001565b9050611a4282611a2a60808b0160608c01614972565b83611a3d6101c08d016101a08e01614972565b6121f4565b5050505050505050565b336001600160a01b0384168114801590611b03575060405163c161c93f60e01b81526001600160a01b038281166004830152858116602483015260448201859052606482018490527f0000000000000000000000000000000000000000000000000000000000000000169063c161c93f90608401602060405180830381865afa158015611add573d6000803e3d6000fd5b505050506040513d601f19601f82011682018060405250810190611b019190614cb2565b155b8015611bac575060405163c161c93f60e01b81526001600160a01b038281166004830152858116602483015260006044830152606482018490527f0000000000000000000000000000000000000000000000000000000000000000169063c161c93f90608401602060405180830381865afa158015611b86573d6000803e3d6000fd5b505050506040513d601f19601f82011682018060405250810190611baa9190614cb2565b155b15611bca5760405163075fd2b160e01b815260040160405180910390fd5b50505050565b60008315611bf1576040516352864b0160e11b815260040160405180910390fd5b6001600160a01b0383166000908152602081905260408120600181018054908390558154909291908290611c2d906001600160401b0316614eb4565b91906101000a8154816001600160401b0302191690836001600160401b031602179055905060006001600160a01b031684602001516001600160a01b031603611c945760405163393e175160e01b81526001600160a01b03861660048201526024016108c1565b6001600160a01b03851661eeee14611d8f57611cd1857f000000000000000000000000000000000000000000000000000000000000000084612a29565b6020808501518551604080519384018152600084525163540abf7360e01b81526001600160a01b037f0000000000000000000000000000000000000000000000000000000000000000169363540abf7393611d58938b9391927f0000000000000000000000000000000000000000000000000000000000000000928a929190600401614eda565b600060405180830381600087803b158015611d7257600080fd5b505af1158015611d86573d6000803e3d6000fd5b50505050611d93565b8192505b6001600160a01b0385166000908152602081905260408120611db790600201612ab9565b6001600160a01b03871660009081526020819052604081206022015491925090611de390600190614e8b565b604080516060810182526020808a01516001600160a01b039081168352818301898152845180860186526001600160401b03808b1682528185018a9052858701918252955194518316602486015290516044850152518051909416606484015292015160848201529192507f00000000000000000000000000000000000000000000000000000000000000001690633dbb202b9087907f00000000000000000000000000000000000000000000000000000000000000009060a40160408051601f198184030181529181526020820180516001600160e01b03166369d31fdd60e01b179052516001600160e01b031960e086901b168152611eed929190620493e090600401614f2d565b6000604051808303818588803b158015611f0657600080fd5b505af1158015611f1a573d6000803e3d6000fd5b5050604080518581526001600160401b03881660208201526001600160a01b038c1694508693507f3e069c1f498cba23d7d2b74b84311469e8da6e527cade62061d642c61b64e0de92500160405180910390a35050505050505050565b6000611f8283613e6f565b8015611f935750611f938383613ea2565b9392505050565b6040516001600160a01b038481166024830152838116604483015260648201839052611bca9186918216906323b872dd906084015b604051602081830303815290604052915060e01b6020820180516001600160e01b038381831617835250505050613f2c565b604051630862026560e41b81527f000000000000000000000000000000000000000000000000000000000000000060048201526001600160a01b03838116602483015260009182917f00000000000000000000000000000000000000000000000000000000000000001690638620265090604401602060405180830381865afa158015612092573d6000803e3d6000fd5b505050506040513d601f19601f820116820180604052508101906120b69190614bee565b90506001600160a01b03811661211057604051630c9ae01360e01b81527f000000000000000000000000000000000000000000000000000000000000000060048201526001600160a01b03851660248201526044016108c1565b600061211c8530613f8f565b60408051602081018252600081529051635db90a7f60e11b81529192506001600160a01b0384169163bb7214fe916121829130917f0000000000000000000000000000000000000000000000000000000000000000918b918d918c918691600401614f67565b6020604051808303816000875af11580156121a1573d6000803e3d6000fd5b505050506040513d601f19601f820116820180604052508101906121c59190614c99565b9250806121d28630613f8f565b6121dc9190614e8b565b83146121ea576121ea614e9e565b5050949350505050565b600061220185848461401f565b6001600160a01b03851660009081526020818152604080832081516104408101808452959650939461226c9487949093600290930192849290830191849182845b81548152602001906001019080831161224257505050918352505060209182015491015290614064565b6001600160a01b0386166000908152602081815260409091208251929350839260029091019161229d918391614667565b50602091820151908201556001600160a01b0386166000908152908190526040812060010180548692906122d2908490614c21565b92505081905550846001600160a01b0316836001600160a01b03167f7b58dbb78e7edc690b0688a53dea0c443d630c4a5db66c3c47d4ff2044c9772884600185602001516123209190614e8b565b6001600160a01b038a16600090815260208190526040902061234490600201612ab9565b60408051938452602084019290925290820152606081018a90526080810188905260a00160405180910390a3505050505050565b6001600160a01b038216600090815260026020526040902054808211156123b257604051632858f9ab60e11b815260040160405180910390fd5b6001600160a01b03838116600081815260026020526040808220868603905551630862026560e41b81527f000000000000000000000000000000000000000000000000000000000000000060048201526024810192909252917f00000000000000000000000000000000000000000000000000000000000000001690638620265090604401602060405180830381865afa158015612454573d6000803e3d6000fd5b505050506040513d601f19601f820116820180604052508101906124789190614bee565b90506001600160a01b0381166124d257604051630c9ae01360e01b81527f000000000000000000000000000000000000000000000000000000000000000060048201526001600160a01b03851660248201526044016108c1565b6001600160a01b03841661eeee14612682576040516370a0823160e01b81523060048201526000906001600160a01b038616906370a0823190602401602060405180830381865afa15801561252b573d6000803e3d6000fd5b505050506040513d601f19601f8201168201806040525081019061254f9190614c99565b905061255c858386612a29565b60408051602080820183526000808352835191820184528082529251639e6eec0560e01b81526001600160a01b03861693639e6eec05936125c9937f0000000000000000000000000000000000000000000000000000000000000000938c938c9390929091600401614fb9565b600060405180830381600087803b1580156125e357600080fd5b505af11580156125f7573d6000803e3d6000fd5b5050505083816126079190614e8b565b6040516370a0823160e01b81523060048201526001600160a01b038716906370a0823190602401602060405180830381865afa15801561264b573d6000803e3d6000fd5b505050506040513d601f19601f8201168201806040525081019061266f9190614c99565b1461267c5761267c614e9e565b50611bca565b60408051602080820183526000808352835191820184528082529251639e6eec0560e01b81526001600160a01b03851693639e6eec059388936126f2937f0000000000000000000000000000000000000000000000000000000000000000938c9387939192909190600401614fb9565b6000604051808303818588803b15801561270b57600080fd5b505af115801561271f573d6000803e3d6000fd5b505050505050505050565b60007f00000000000000000000000000000000000000000000000000000000000000006001600160a01b0316826001600160a01b03161480156107d257507f00000000000000000000000000000000000000000000000000000000000000006001600160a01b03167f00000000000000000000000000000000000000000000000000000000000000006001600160a01b0316636e296e456040518163ffffffff1660e01b81526004016020604051808303816000875af11580156127f2573d6000803e3d6000fd5b505050506040513d601f19601f820116820180604052508101906128169190614bee565b6001600160a01b03161492915050565b6001600160a01b0385166000908152600460209081526040808320600886901c8452909152902054600160ff84161b16156128775760405163ed9bdd0760e01b8152600481018390526024016108c1565b6001600160a01b0385166000908152600460209081526040808320600886901c845290915281208054600160ff86161b1790556128e66128b888878761401f565b60408051610400818101909252908590602090839083908082843760009201919091525087915061416a9050565b6001600160a01b03871660009081526001602081905260409091200154909150811461294d576001600160a01b0386166000908152600160208190526040918290200154905163286f87c960e21b81526004810191909152602481018290526044016108c1565b50505050505050565b60008080600019858709858702925082811083820303915050806000036129905783828161298657612986615000565b0492505050611f93565b8381106129c157604051630c740aef60e31b81526004810187905260248101869052604481018590526064016108c1565b600084868809600260036001881981018916988990049182028318808302840302808302840302808302840302808302840302808302840302918202909203026000889003889004909101858311909403939093029303949094049190911702949350505050565b604080516001600160a01b038416602482015260448082018490528251808303909101815260649091019091526020810180516001600160e01b031663095ea7b360e01b179052612a7a84826144b8565b611bca576040516001600160a01b03848116602483015260006044830152612aaf91869182169063095ea7b390606401611fcf565b611bca8482613f2c565b6020810154600090808203612af057507f27ae5ba08d7291c96c8cbddcc148bf48a6d68c7974b94356f53754ef6171d75792915050565b6000836001831615612b125780546000526000602052604060002093506133c5565b6002831615612b575760018101546000527fad3228b676f7d3cd4284a5443f17f1962b36e491b30a40b2405849e597ba5fb560205260406000209350600191506133c5565b6004831615612b9c5760028101546000527fb4c11951957c6f8f642c4af61cd6b24640fec6dc7fc607ee8206a99e92410d3060205260406000209350600291506133c5565b6008831615612be15760038101546000527f21ddb9a356815c3fac1026b6dec5df3124afbadb485c9ba5a3e3398a04b7ba8560205260406000209350600391506133c5565b6010831615612c265760048101546000527fe58769b32a1beaf1ea27375a44095a0d1fb664ce2dd358e7fcbfb78c26a1934460205260406000209350600491506133c5565b6020831615612c6b5760058101546000527f0eb01ebfc9ed27500cd4dfc979272d1f0913cc9f66540d7e8005811109e1cf2d60205260406000209350600591506133c5565b6040831615612cb05760068101546000527f887c22bd8750d34016ac3c66b5ff102dacdd73f6b014e710b51e8022af9a196860205260406000209350600691506133c5565b6080831615612cf55760078101546000527fffd70157e48063fc33c97a050f7f640233bf646cc98d9524c6b92bcf3ab56f8360205260406000209350600791506133c5565b610100831615612d3b5760088101546000527f9867cc5f7f196b93bae1e27e6320742445d290f2263827498b54fec539f756af60205260406000209350600891506133c5565b610200831615612d815760098101546000527fcefad4e508c098b9a7e1d8feb19955fb02ba9675585078710969d3440f5054e060205260406000209350600991506133c5565b610400831615612dc757600a8101546000527ff9dc3e7fe016e050eff260334f18a5d4fe391d82092319f5964f2e2eb7c1c3a560205260406000209350600a91506133c5565b610800831615612e0d57600b8101546000527ff8b13a49e282f609c317a833fb8d976d11517c571d1221a265d25af778ecf89260205260406000209350600b91506133c5565b611000831615612e5357600c8101546000527f3490c6ceeb450aecdc82e28293031d10c7d73bf85e57bf041a97360aa2c5d99c60205260406000209350600c91506133c5565b612000831615612e9957600d8101546000527fc1df82d9c4b87413eae2ef048f94b4d3554cea73d92b0f7af96e0271c691e2bb60205260406000209350600d91506133c5565b614000831615612edf57600e8101546000527f5c67add7c6caf302256adedf7ab114da0acfe870d449a3a489f781d659e8becc60205260406000209350600e91506133c5565b618000831615612f2557600f8101546000527fda7bce9f4e8618b6bd2f4132ce798cdc7a60e7e1460a7299e3c6342a579626d260205260406000209350600f91506133c5565b62010000831615612f6c5760108101546000527f2733e50f526ec2fa19a22b31e8ed50f23cd1fdf94c9154ed3a7609a2f1ff981f60205260406000209350601091506133c5565b62020000831615612fb35760118101546000527fe1d3b5c807b281e4683cc6d6315cf95b9ade8641defcb32372f1c126e398ef7a60205260406000209350601191506133c5565b62040000831615612ffa5760128101546000527f5a2dce0a8a7f68bb74560f8f71837c2c2ebbcbf7fffb42ae1896f13f7c7479a060205260406000209350601291506133c5565b620800008316156130415760138101546000527fb46a28b6f55540f89444f63de0378e3d121be09e06cc9ded1c20e65876d36aa060205260406000209350601391506133c5565b621000008316156130885760148101546000527fc65e9645644786b620e2dd2ad648ddfcbf4a7e5b1a3a4ecfe7f64667a3f0b7e260205260406000209350601491506133c5565b622000008316156130cf5760158101546000527ff4418588ed35a2458cffeb39b93d26f18d2ab13bdce6aee58e7b99359ec2dfd960205260406000209350601591506133c5565b624000008316156131165760168101546000527f5a9c16dc00d6ef18b7933a6f8dc65ccb55667138776f7dea101070dc8796e37760205260406000209350601691506133c5565b6280000083161561315d5760178101546000527f4df84f40ae0c8229d0d6069e5c8f39a7c299677a09d367fc7b05e3bc380ee65260205260406000209350601791506133c5565b63010000008316156131a55760188101546000527fcdc72595f74c7b1043d0e1ffbab734648c838dfb0527d971b602bc216c9619ef60205260406000209350601891506133c5565b63020000008316156131ed5760198101546000527f0abf5ac974a1ed57f4050aa510dd9c74f508277b39d7973bb2dfccc5eeb0618d60205260406000209350601991506133c5565b630400000083161561323557601a8101546000527fb8cd74046ff337f0a7bf2c8e03e10f642c1886798d71806ab1e888d9e5ee87d060205260406000209350601a91506133c5565b630800000083161561327d57601b8101546000527f838c5655cb21c6cb83313b5a631175dff4963772cce9108188b34ac87c81c41e60205260406000209350601b91506133c5565b63100000008316156132c557601c8101546000527f662ee4dd2dd7b2bc707961b1e646c4047669dcb6584f0d8d770daf5d7e7deb2e60205260406000209350601c91506133c5565b632000000083161561330d57601d8101546000527f388ab20e2573d171a88108e79d820e98f26c0b84aa8b2f4aa4968dbb818ea32260205260406000209350601d91506133c5565b634000000083161561335557601e8101546000527f93237c50ba75ee485f4c22adf2f741400bdf8d6a9cc7df7ecae576221665d73560205260406000209350601e91506133c5565b638000000083161561339d57601f8101546000527f8448818bb4ae4562849e949e17ac16e0be16688e156b5cf15e098c627c0056a960205260406000209350601f91506133c5565b7f27ae5ba08d7291c96c8cbddcc148bf48a6d68c7974b94356f53754ef6171d7579350602091505b601e8211613e67576001821015613423576002831680156133f15760018201546000528460205261341a565b846000527fad3228b676f7d3cd4284a5443f17f1962b36e491b30a40b2405849e597ba5fb56020525b50604060002093505b60028210156134795760048316801561344757600282015460005284602052613470565b846000527fb4c11951957c6f8f642c4af61cd6b24640fec6dc7fc607ee8206a99e92410d306020525b50604060002093505b60038210156134cf5760088316801561349d576003820154600052846020526134c6565b846000527f21ddb9a356815c3fac1026b6dec5df3124afbadb485c9ba5a3e3398a04b7ba856020525b50604060002093505b6004821015613525576010831680156134f35760048201546000528460205261351c565b846000527fe58769b32a1beaf1ea27375a44095a0d1fb664ce2dd358e7fcbfb78c26a193446020525b50604060002093505b600582101561357b5760208316801561354957600582015460005284602052613572565b846000527f0eb01ebfc9ed27500cd4dfc979272d1f0913cc9f66540d7e8005811109e1cf2d6020525b50604060002093505b60068210156135d15760408316801561359f576006820154600052846020526135c8565b846000527f887c22bd8750d34016ac3c66b5ff102dacdd73f6b014e710b51e8022af9a19686020525b50604060002093505b6007821015613627576080831680156135f55760078201546000528460205261361e565b846000527fffd70157e48063fc33c97a050f7f640233bf646cc98d9524c6b92bcf3ab56f836020525b50604060002093505b600882101561367e576101008316801561364c57600882015460005284602052613675565b846000527f9867cc5f7f196b93bae1e27e6320742445d290f2263827498b54fec539f756af6020525b50604060002093505b60098210156136d557610200831680156136a3576009820154600052846020526136cc565b846000527fcefad4e508c098b9a7e1d8feb19955fb02ba9675585078710969d3440f5054e06020525b50604060002093505b600a82101561372c57610400831680156136fa57600a82015460005284602052613723565b846000527ff9dc3e7fe016e050eff260334f18a5d4fe391d82092319f5964f2e2eb7c1c3a56020525b50604060002093505b600b821015613783576108008316801561375157600b8201546000528460205261377a565b846000527ff8b13a49e282f609c317a833fb8d976d11517c571d1221a265d25af778ecf8926020525b50604060002093505b600c8210156137da57611000831680156137a857600c820154600052846020526137d1565b846000527f3490c6ceeb450aecdc82e28293031d10c7d73bf85e57bf041a97360aa2c5d99c6020525b50604060002093505b600d82101561383157612000831680156137ff57600d82015460005284602052613828565b846000527fc1df82d9c4b87413eae2ef048f94b4d3554cea73d92b0f7af96e0271c691e2bb6020525b50604060002093505b600e821015613888576140008316801561385657600e8201546000528460205261387f565b846000527f5c67add7c6caf302256adedf7ab114da0acfe870d449a3a489f781d659e8becc6020525b50604060002093505b600f8210156138df57618000831680156138ad57600f820154600052846020526138d6565b846000527fda7bce9f4e8618b6bd2f4132ce798cdc7a60e7e1460a7299e3c6342a579626d26020525b50604060002093505b60108210156139375762010000831680156139055760108201546000528460205261392e565b846000527f2733e50f526ec2fa19a22b31e8ed50f23cd1fdf94c9154ed3a7609a2f1ff981f6020525b50604060002093505b601182101561398f57620200008316801561395d57601182015460005284602052613986565b846000527fe1d3b5c807b281e4683cc6d6315cf95b9ade8641defcb32372f1c126e398ef7a6020525b50604060002093505b60128210156139e75762040000831680156139b5576012820154600052846020526139de565b846000527f5a2dce0a8a7f68bb74560f8f71837c2c2ebbcbf7fffb42ae1896f13f7c7479a06020525b50604060002093505b6013821015613a3f576208000083168015613a0d57601382015460005284602052613a36565b846000527fb46a28b6f55540f89444f63de0378e3d121be09e06cc9ded1c20e65876d36aa06020525b50604060002093505b6014821015613a97576210000083168015613a6557601482015460005284602052613a8e565b846000527fc65e9645644786b620e2dd2ad648ddfcbf4a7e5b1a3a4ecfe7f64667a3f0b7e26020525b50604060002093505b6015821015613aef576220000083168015613abd57601582015460005284602052613ae6565b846000527ff4418588ed35a2458cffeb39b93d26f18d2ab13bdce6aee58e7b99359ec2dfd96020525b50604060002093505b6016821015613b47576240000083168015613b1557601682015460005284602052613b3e565b846000527f5a9c16dc00d6ef18b7933a6f8dc65ccb55667138776f7dea101070dc8796e3776020525b50604060002093505b6017821015613b9f576280000083168015613b6d57601782015460005284602052613b96565b846000527f4df84f40ae0c8229d0d6069e5c8f39a7c299677a09d367fc7b05e3bc380ee6526020525b50604060002093505b6018821015613bf857630100000083168015613bc657601882015460005284602052613bef565b846000527fcdc72595f74c7b1043d0e1ffbab734648c838dfb0527d971b602bc216c9619ef6020525b50604060002093505b6019821015613c5157630200000083168015613c1f57601982015460005284602052613c48565b846000527f0abf5ac974a1ed57f4050aa510dd9c74f508277b39d7973bb2dfccc5eeb0618d6020525b50604060002093505b601a821015613caa57630400000083168015613c7857601a82015460005284602052613ca1565b846000527fb8cd74046ff337f0a7bf2c8e03e10f642c1886798d71806ab1e888d9e5ee87d06020525b50604060002093505b601b821015613d0357630800000083168015613cd157601b82015460005284602052613cfa565b846000527f838c5655cb21c6cb83313b5a631175dff4963772cce9108188b34ac87c81c41e6020525b50604060002093505b601c821015613d5c57631000000083168015613d2a57601c82015460005284602052613d53565b846000527f662ee4dd2dd7b2bc707961b1e646c4047669dcb6584f0d8d770daf5d7e7deb2e6020525b50604060002093505b601d821015613db557632000000083168015613d8357601d82015460005284602052613dac565b846000527f388ab20e2573d171a88108e79d820e98f26c0b84aa8b2f4aa4968dbb818ea3226020525b50604060002093505b601e821015613e0e57634000000083168015613ddc57601e82015460005284602052613e05565b846000527f93237c50ba75ee485f4c22adf2f741400bdf8d6a9cc7df7ecae576221665d7356020525b50604060002093505b601f821015613e6757638000000083168015613e3557601f82015460005284602052613e5e565b846000527f8448818bb4ae4562849e949e17ac16e0be16688e156b5cf15e098c627c0056a96020525b50604060002093505b505050919050565b6000613e82826301ffc9a760e01b613ea2565b80156107d25750613e9b826001600160e01b0319613ea2565b1592915050565b6040516001600160e01b031982166024820152600090819060440160408051601f19818403018152919052602080820180516001600160e01b03166301ffc9a760e01b178152825192935060009283928392909183918a617530fa92503d91506000519050828015613f15575060208210155b8015613f215750600081115b979650505050505050565b6000613f416001600160a01b03841683614560565b90508051600014158015613f66575080806020019051810190613f649190614cb2565b155b1561080b57604051635274afe760e01b81526001600160a01b03841660048201526024016108c1565b600061eeed196001600160a01b03841601613fb557506001600160a01b038116316107d2565b6040516370a0823160e01b81526001600160a01b0383811660048301528416906370a0823190602401602060405180830381865afa158015613ffb573d6000803e3d6000fd5b505050506040513d601f19601f82011682018060405250810190611f939190614c99565b60408051602081018590529081018390526001600160a01b03821660608201526000906080016040516020818303038152906040528051906020012090509392505050565b61406c6146a1565b600083602001805161407d90615016565b908190529050600161409160206002614e7f565b61409b9190614e8b565b8111156140bb57604051638eab04bb60e01b815260040160405180910390fd5b60005b602081101561415057816001166001036140f7578451849082602081106140e7576140e7614bb2565b6020020152508391506107d29050565b8451816020811061410a5761410a614bb2565b60200201518460405160200161412a929190918252602082015260400190565b60408051601f1981840301815291905280516020909101209350600191821c91016140be565b50604051638eab04bb60e01b815260040160405180910390fd5b6020600582811b8216948552835194820394909452604060008181206002851615871b808503919091528386015190528181206004851615871b808503919091528286015190528181206008851615871b80850391909152606086015190528181206010851615871b8085039190915260808087015190915282822084861615881b8086039190915260a0870151905282822083861615881b8086039190915260c0870151905282822090851615871b8085039190915260e0860151905281812061010080861615881b80860392909252860151905281812061020080861615881b80860392909252610120870151909152828220610400861615881b808603919091526101408701519052828220610800861615881b808603919091526101608701519052828220611000861615881b808603919091526101808701519052828220612000861615881b808603919091526101a08701519052828220614000861615881b808603919091526101c08701519052828220618000861615881b808603919091526101e0870151905282822062010000861615881b8086039190915290860151905281812062020000851615871b80850391909152610220860151905281812062040000851615871b80850391909152610240860151905281812062080000851615871b80850391909152610260860151905281812062100000851615871b80850391909152610280860151905281812062200000851615871b808503919091526102a0860151905281812062400000851615871b808503919091526102c0860151905281812062800000851615871b808503919091526102e086015190528181206301000000851615871b8085039190915261030086015190528181206302000000851615871b8085039190915261032086015190528181206304000000851615871b8085039190915261034086015190528181206308000000851615871b8085039190915261036086015190528181206310000000851615871b8085039190915261038086015190528181206320000000851615871b808503919091526103a086015190528181206340000000851615871b808503919091526103c0860151905281812063800000009094161590951b91829003929092526103e090920151909152902090565b6000806000846001600160a01b0316846040516144d5919061502f565b6000604051808303816000865af19150503d8060008114614512576040519150601f19603f3d011682016040523d82523d6000602084013e614517565b606091505b50915091508180156145415750805115806145415750808060200190518101906145419190614cb2565b801561455757506000856001600160a01b03163b115b95945050505050565b6060611f938383600084600080856001600160a01b03168486604051614586919061502f565b60006040518083038185875af1925050503d80600081146145c3576040519150601f19603f3d011682016040523d82523d6000602084013e6145c8565b606091505b50915091506145d88683836145e2565b9695505050505050565b6060826145f7576145f28261463e565b611f93565b815115801561460e57506001600160a01b0384163b155b1561463757604051639996b31560e01b81526001600160a01b03851660048201526024016108c1565b5080611f93565b80511561464e5780518082602001fd5b604051630a12f52160e11b815260040160405180910390fd5b8260208101928215614695579160200282015b8281111561469557825182559160200191906001019061467a565b50610f419291506146c1565b60405180604001604052806146b46146d6565b8152602001600081525090565b5b80821115610f4157600081556001016146c2565b6040518061040001604052806020906020820280368337509192915050565b60006020828403121561470757600080fd5b81356001600160e01b031981168114611f9357600080fd5b6000806020838503121561473257600080fd5b82356001600160401b038082111561474957600080fd5b818501915085601f83011261475d57600080fd5b81358181111561476c57600080fd5b8660208260071b850101111561478157600080fd5b60209290920196919550909350505050565b6000608082840312156147a557600080fd5b50919050565b6000608082840312156147bd57600080fd5b611f938383614793565b6000602082840312156147d957600080fd5b81356001600160401b038111156147ef57600080fd5b82016101808185031215611f9357600080fd5b60005b8381101561481d578181015183820152602001614805565b50506000910152565b6000815180845261483e816020860160208601614802565b601f01601f19169290920160200192915050565b6000604080830185845260206040818601528186518084526060935060608701915060608160051b88010183890160005b838110156148d357898303605f19018552815180516001600160a01b0316845286810151878501528801518884018890526148c088850182614826565b9587019593505090850190600101614883565b50909a9950505050505050505050565b6001600160a01b0381168114610fbb57600080fd5b6000806000806080858703121561490e57600080fd5b843593506020850135614920816148e3565b9250604085013591506060850135614937816148e3565b939692955090935050565b6000806040838503121561495557600080fd5b823591506020830135614967816148e3565b809150509250929050565b60006020828403121561498457600080fd5b8135611f93816148e3565b6001600160401b038416815260208082018490528251610460830191906000604085015b838210156149d15782518152918301916001919091019083016149b3565b505050506020830151610440830152949350505050565b6000602082840312156149fa57600080fd5b81356001600160401b03811115614a1057600080fd5b82016101a08185031215611f9357600080fd5b60006080820186835260208681850152604086604086015260606080606087015283875180865260a08801915060a08160051b890101955084890160005b82811015614ab157898803609f19018452815180516001600160a01b0316895287810151888a0152860151868901869052614a9e868a0182614826565b9850509286019290860190600101614a61565b50959c9b505050505050505050505050565b60006104a082840312156147a557600080fd5b60008060208385031215614ae957600080fd5b82356001600160401b0380821115614b0057600080fd5b818501915085601f830112614b1457600080fd5b813581811115614b2357600080fd5b8660206104a08302850101111561478157600080fd5b634e487b7160e01b600052602160045260246000fd5b6020810160028310614b7157634e487b7160e01b600052602160045260246000fd5b91905290565b600060208284031215614b8957600080fd5b81356001600160401b03811115614b9f57600080fd5b82016102008185031215611f9357600080fd5b634e487b7160e01b600052603260045260246000fd5b600060208284031215614bda57600080fd5b813563ffffffff81168114611f9357600080fd5b600060208284031215614c0057600080fd5b8151611f93816148e3565b634e487b7160e01b600052601160045260246000fd5b808201808211156107d2576107d2614c0b565b6001600160401b0381168114610fbb57600080fd5b600060208284031215614c5b57600080fd5b8135611f9381614c34565b8135614c7181614c34565b6001600160401b0381166001600160401b031983541617825550602082013560018201555050565b600060208284031215614cab57600080fd5b5051919050565b600060208284031215614cc457600080fd5b81518015158114611f9357600080fd5b60405161012081016001600160401b0381118282101715614d0557634e487b7160e01b600052604160045260246000fd5b60405290565b8051614d16816148e3565b919050565b60006101208284031215614d2e57600080fd5b614d36614cd4565b825181526020830151602082015260408301516040820152606083015160608201526080830151608082015260a083015160a082015260c083015160c0820152614d8260e08401614d0b565b60e0820152610100928301519281019290925250919050565b600181815b80851115614dd6578160001904821115614dbc57614dbc614c0b565b80851615614dc957918102915b93841c9390800290614da0565b509250929050565b600082614ded575060016107d2565b81614dfa575060006107d2565b8160018114614e105760028114614e1a57614e36565b60019150506107d2565b60ff841115614e2b57614e2b614c0b565b50506001821b6107d2565b5060208310610133831016604e8410600b8410161715614e59575081810a6107d2565b614e638383614d9b565b8060001904821115614e7757614e77614c0b565b029392505050565b6000611f938383614dde565b818103818111156107d2576107d2614c0b565b634e487b7160e01b600052600160045260246000fd5b60006001600160401b03808316818103614ed057614ed0614c0b565b6001019392505050565b6001600160a01b0387811682528681166020830152851660408201526060810184905263ffffffff8316608082015260c060a08201819052600090614f2190830184614826565b98975050505050505050565b6001600160a01b0384168152606060208201819052600090614f5190830185614826565b905063ffffffff83166040830152949350505050565b600060018060a01b03808a168352886020840152808816604084015286606084015285608084015280851660a08401525060e060c0830152614fac60e0830184614826565b9998505050505050505050565b86815260018060a01b0386166020820152846040820152831515606082015260c060808201526000614fee60c0830185614826565b82810360a0840152614fac8185614826565b634e487b7160e01b600052601260045260246000fd5b60006001820161502857615028614c0b565b5060010190565b60008251615041818460208701614802565b919091019291505056fea2646970667358221220b488103a67b41b29c062c17b3caaf7d57764bc102f27992ec39b49b209ddf5c964736f6c63430008170033a2646970667358221220774e6c5934cab9b43f97f05e0f129de085468dde9a78545227111ea096a908b064736f6c63430008170033",
			"deployedBytecode": "0x608060405234801561001057600080fd5b50600436106100625760003560e01c80631213036614610067578063927ede2d14610097578063c39ec124146100aa578063cc8b6f4f146100dd578063ee9a31a2146100f2578063f434c91414610105575b600080fd5b61007a6100753660046102fb565b61012c565b6040516001600160a01b0390911681526020015b60405180910390f35b60005461007a906001600160a01b031681565b6100cd6100b8366004610335565b60026020526000908152604090205460ff1681565b604051901515815260200161008e565b6100f06100eb366004610359565b61027f565b005b60015461007a906001600160a01b031681565b61007a7f000000000000000000000000953ab7f10efe861b21cfb9630768818a0474258781565b6040516bffffffffffffffffffffffff193360601b16602082015260348101829052600090605401604051602081830303815290604052805190602001209150817f00000000000000000000000008a5638ae0efd3aabc61622d1c46daa9b6dcea097f00000000000000000000000076c87701d0ad2c5c3b40c36617ceba566436a69f7f00000000000000000000000071ff91c8a27b436f7025c053c01a3f6aae3fc62e7f000000000000000000000000f25dce432b7ed1ccd5f0a2481f980862e359a0927f000000000000000000000000953ab7f10efe861b21cfb9630768818a047425876000896000604051610223906102ee565b610234989796959493929190610392565b8190604051809103906000f5905080158015610254573d6000803e3d6000fd5b506001600160a01b0381166000908152600260205260409020805460ff191660011790559392505050565b6000546001600160a01b03161515806102a257506001546001600160a01b031615155b156102c05760405163ccbe17fd60e01b815260040160405180910390fd5b600080546001600160a01b039384166001600160a01b03199182161790915560018054929093169116179055565b6154d28061040483390190565b6000806040838503121561030e57600080fd5b50508035926020909101359150565b6001600160a01b038116811461033257600080fd5b50565b60006020828403121561034757600080fd5b81356103528161031d565b9392505050565b6000806040838503121561036c57600080fd5b82356103778161031d565b915060208301356103878161031d565b809150509250929050565b6001600160a01b0389811682528881166020830152878116604083015286811660608301528581166080830152841660a082015260c081018390526101008101600283106103f057634e487b7160e01b600052602160045260246000fd5b8260e0830152999850505050505050505056fe6101e06040523480156200001257600080fd5b50604051620054d2380380620054d28339810160408190526200003591620001d9565b6001600160a01b0380851660805280871660c05280861660e052889088908890889088908890889088908316156200006e578262000070565b305b6001600160a01b03166101205261014082905233610100528060018111156200009d576200009d62000291565b60a0816001811115620000b457620000b462000291565b9052505050506001600160a01b039485166101805250505016610160526040805163927ede2d60e01b81529051339163927ede2d9160048083019260209291908290030181865afa1580156200010e573d6000803e3d6000fd5b505050506040513d601f19601f82011682018060405250810190620001349190620002a7565b6001600160a01b03166101a0526040805163774d18d160e11b81529051339163ee9a31a29160048083019260209291908290030181865afa1580156200017e573d6000803e3d6000fd5b505050506040513d601f19601f82011682018060405250810190620001a49190620002a7565b6001600160a01b03166101c05250620002ce9650505050505050565b6001600160a01b0381168114620001d657600080fd5b50565b600080600080600080600080610100898b031215620001f757600080fd5b88516200020481620001c0565b60208a01519098506200021781620001c0565b60408a01519097506200022a81620001c0565b60608a01519096506200023d81620001c0565b60808a01519095506200025081620001c0565b60a08a01519094506200026381620001c0565b60c08a015160e08b01519194509250600281106200028057600080fd5b809150509295985092959890939650565b634e487b7160e01b600052602160045260246000fd5b600060208284031215620002ba57600080fd5b8151620002c781620001c0565b9392505050565b60805160a05160c05160e05161010051610120516101405161016051610180516101a0516101c05161508162000451600039600081816102c601528181611cac0152611cfb01526000818161076401528181611e500152818161272e0152612794015260008181610270015261166301526000818161065d01526115c6015260008181610368015281816109c501528181610a4201528181610bad01528181610be501528181610dad015281816112a70152818161135001528181612010015281816120d501528181612152015281816123de015281816124970152818161259901526126c101526000818161051f01528181611d2c01528181611e7b015261276a015260006105e801526000818161022401528181610dd601526117740152600081816104bb01528181610936015281816112cd01528181611510015281816118740152818161204b015261240d01526000818161061c01528181610f49015261124901526000818161073001528181611a960152611b3f01526150816000f3fe6080604052600436106101d15760003560e01c806388bc2ef3116100f7578063c1b8411a11610095578063ed0e26b911610064578063ed0e26b9146106ac578063f3c578811461070b578063f434c9141461071e578063fc8fa43d1461075257600080fd5b8063c1b8411a146105d6578063c6525f2c1461060a578063d4a1b4b11461064b578063e7f82c751461067f57600080fd5b8063b59ef50f116100d1578063b59ef50f14610541578063b71c117914610561578063bf557aee14610574578063c1854129146105b657600080fd5b806388bc2ef3146104a9578063aaf320d7146104dd578063ad42938b1461050d57600080fd5b8063551ebbf01161016f57806369ce22331161013e57806369ce2233146103d057806369d31fdd146103f05780636dfa7268146104035780637de6fba21461043257600080fd5b8063551ebbf01461033657806356539f391461035657806361c8641714610398578063677ce088146103ad57600080fd5b80632241dc52116101ab5780632241dc52146102925780632847f1f3146102b457806338eb2044146102e85780634c4ffc711461030857600080fd5b806301ffc9a7146101dd5780631d831d5c146102125780631eabcd341461025e57600080fd5b366101d857005b600080fd5b3480156101e957600080fd5b506101fd6101f83660046146f5565b610786565b60405190151581526020015b60405180910390f35b34801561021e57600080fd5b506102467f000000000000000000000000000000000000000000000000000000000000000081565b6040516001600160a01b039091168152602001610209565b34801561026a57600080fd5b506102467f000000000000000000000000000000000000000000000000000000000000000081565b34801561029e57600080fd5b506102b26102ad36600461471f565b6107d8565b005b3480156102c057600080fd5b506102467f000000000000000000000000000000000000000000000000000000000000000081565b3480156102f457600080fd5b506102b26103033660046147ab565b610810565b34801561031457600080fd5b506103286103233660046147c7565b610ba7565b604051610209929190614852565b34801561034257600080fd5b506102b26103513660046148f8565b610d77565b34801561036257600080fd5b5061038a7f000000000000000000000000000000000000000000000000000000000000000081565b604051908152602001610209565b3480156103a457600080fd5b5061038a610ef5565b3480156103b957600080fd5b506101fd6103c8366004614942565b600092915050565b3480156103dc57600080fd5b506102b26103eb366004614972565b610f45565b6102b26103fe3660046147ab565b610fbe565b34801561040f57600080fd5b5061042361041e366004614972565b61112f565b6040516102099392919061498f565b34801561043e57600080fd5b5061047f61044d366004614972565b6003602052600090815260409020805460019091015463ffffffff821691600160201b90046001600160a01b03169083565b6040805163ffffffff90941684526001600160a01b03909216602084015290820152606001610209565b3480156104b557600080fd5b506102467f000000000000000000000000000000000000000000000000000000000000000081565b3480156104e957600080fd5b506104fd6104f83660046149e8565b611199565b6040516102099493929190614a23565b34801561051957600080fd5b506102467f000000000000000000000000000000000000000000000000000000000000000081565b34801561054d57600080fd5b506102b261055c366004614ac3565b61120d565b6102b261056f366004614972565b611414565b34801561058057600080fd5b506101fd61058f366004614972565b6001600160a01b03908116600090815260036020526040902054600160201b900416151590565b3480156105c257600080fd5b506102b26105d1366004614ad6565b6114bd565b3480156105e257600080fd5b506102467f000000000000000000000000000000000000000000000000000000000000000081565b34801561061657600080fd5b5061063e7f000000000000000000000000000000000000000000000000000000000000000081565b6040516102099190614b4f565b34801561065757600080fd5b506102467f000000000000000000000000000000000000000000000000000000000000000081565b34801561068b57600080fd5b5061038a61069a366004614972565b60026020526000908152604090205481565b3480156106b857600080fd5b506106ec6106c7366004614972565b600160208190526000918252604090912080549101546001600160401b039091169082565b604080516001600160401b039093168352602083019190915201610209565b6102b2610719366004614b77565b6114f1565b34801561072a57600080fd5b506102467f000000000000000000000000000000000000000000000000000000000000000081565b34801561075e57600080fd5b506102467f000000000000000000000000000000000000000000000000000000000000000081565b60006001600160e01b031982166340e01e1760e11b14806107b757506001600160e01b0319821663f3c5788160e01b145b806107d257506301ffc9a760e01b6001600160e01b03198316145b92915050565b60005b8181101561080b576108038383838181106107f8576107f8614bb2565b905060800201610810565b6001016107db565b505050565b600061081f6020830183614972565b9050600061eeee6108336020850185614972565b6001600160a01b0316149050808015610866575061eeee61085a6060850160408601614972565b6001600160a01b031614155b801561088b5750600061087f6060850160408601614972565b6001600160a01b031614155b156108ca576108a06060840160408501614972565b604051630a0a3b6b60e31b81526001600160a01b0390911660048201526024015b60405180910390fd5b62030d406108de6040850160208601614bc8565b63ffffffff161080156108ef575080155b156109315762030d406109086040850160208601614bc8565b604051634f3dbeb360e11b815263ffffffff9283166004820152911660248201526044016108c1565b610a687f00000000000000000000000000000000000000000000000000000000000000006001600160a01b031663293c49996040518163ffffffff1660e01b8152600401602060405180830381865afa158015610992573d6000803e3d6000fd5b505050506040513d601f19601f820116820180604052508101906109b69190614bee565b6040516331a9108f60e11b81527f000000000000000000000000000000000000000000000000000000000000000060048201526001600160a01b039190911690636352211e90602401602060405180830381865afa158015610a1c573d6000803e3d6000fd5b505050506040513d601f19601f82011682018060405250810190610a409190614bee565b7f0000000000000000000000000000000000000000000000000000000000000000601c611a4c565b6000610a7a6060850160408601614972565b6001600160a01b0316148015610aaa57506001600160a01b03821660009081526020819052604090206001015415155b15610b04576001600160a01b0380831660009081526003602090815260408083208151606081018352815463ffffffff81168252600160201b90049095169285019290925260019091015490830152610b04918490611bd0565b6040518060600160405280846020016020810190610b229190614bc8565b63ffffffff168152602001610b3d6060860160408701614972565b6001600160a01b0390811682526060909501356020918201529284166000908152600384526040908190208251815495840151909616600160201b026001600160c01b031990951663ffffffff909616959095179390931784559091015160019092019190915550565b600060607f00000000000000000000000000000000000000000000000000000000000000008360c0013514610c1b57604051632d7b333360e11b81527f0000000000000000000000000000000000000000000000000000000000000000600482015260c084013560248201526044016108c1565b6000610c2d6060850160408601614972565b6001600160a01b03808216600090815260036020526040902054919250600160201b90910416158015610c7a5750610c78610c6b6020860186614972565b635db90a7f60e11b611f77565b155b15610cd5576040805160008082526020820190925261012086013591610cca565b60408051606080820183526000808352602083015291810191909152815260200190600190039081610c9b5790505b509250925050915091565b60408051600180825281830190925290816020015b60408051606080820183526000808352602083015291810191909152815260200190600190039081610cea5790505091506040518060600160405280306001600160a01b03168152602001600081526020016040518060200160405280600081525081525082600081518110610d6257610d62614bb2565b60200260200101819052506000925050915091565b6001600160a01b038316610d9e576040516309a9c30b60e41b815260040160405180910390fd5b60405163ea78803f60e01b81527f000000000000000000000000000000000000000000000000000000000000000060048201526000907f00000000000000000000000000000000000000000000000000000000000000006001600160a01b03169063ea78803f90602401602060405180830381865afa158015610e25573d6000803e3d6000fd5b505050506040513d601f19601f82011682018060405250810190610e499190614bee565b90506001600160a01b038116610e7257604051635a33845560e01b815260040160405180910390fd5b6001600160a01b03828116600090815260036020526040902054600160201b900416610ebc5760405163393e175160e01b81526001600160a01b03831660048201526024016108c1565b610ed16001600160a01b038216333088611f9a565b6000610edf82878587612001565b9050610eed868483886121f4565b505050505050565b6000466001819003610f0957600a91505090565b80600a03610f1957600191505090565b8062aa36a703610f2d5762aa37dc91505090565b8062aa37dc03610f415762aa36a791505090565b5090565b60007f00000000000000000000000000000000000000000000000000000000000000006001811115610f7957610f79614b39565b14610f975760405163218a9a2d60e11b815260040160405180910390fd5b6001600160a01b038116600090815260026020526040902054610fbb908290612378565b50565b610fc73361272a565b610fe457604051630439dbd360e51b815260040160405180910390fd5b60208101803590600290600090610ffb9085614972565b6001600160a01b03166001600160a01b03168152602001908152602001600020600082825461102a9190614c21565b909155506001905060006110416020840184614972565b6001600160a01b0316815260208101919091526040908101600020546001600160401b0316906110779060608401908401614c49565b6001600160401b03161115610fbb57604081016001600061109b6020850185614972565b6001600160a01b0316815260208101919091526040016000206110be8282614c66565b506110ce90506020820182614972565b6001600160a01b03167f551b6b99b4c48e3265d2885ab0d93779be2402293261e074f7bf74b2c8f45b6f6111086060840160408501614c49565b604080516001600160401b039092168252606085013560208301520160405180910390a250565b6000602081815291815260409081902080546001820154835161044081018086526001600160401b0390931695919490926002850192849283019184919082845b815481526020019060010190808311611170575050509183525050602091820154910152905083565b600080806060610160850135608086013560a0870135846040519080825280602002602001820160405280156111fd57816020015b604080516060808201835260008083526020830152918101919091528152602001906001900390816111ce5790505b5093509350935093509193509193565b61124560608201356112226020840184614972565b60808401356112376060860160408701614972565b602086013560a08701612826565b60017f0000000000000000000000000000000000000000000000000000000000000000600181111561127957611279614b39565b036112985761129861128e6020830183614972565b6080830135612378565b604051632eec7b5560e11b81527f000000000000000000000000000000000000000000000000000000000000000060048201527f00000000000000000000000000000000000000000000000000000000000000006001600160a01b031690635dd8f6aa90602401602060405180830381865afa15801561131c573d6000803e3d6000fd5b505050506040513d601f19601f820116820180604052508101906113409190614bee565b6001600160a01b031663c7fb92de7f0000000000000000000000000000000000000000000000000000000000000000606084018035906113839060408701614972565b6040516001600160e01b031960e086901b168152600481019390935260248301919091526001600160a01b0316604482015260a06064820152600060a48201819052608482015260c4016020604051808303816000875af11580156113ec573d6000803e3d6000fd5b505050506040513d601f19601f820116820180604052508101906114109190614c99565b5050565b6001600160a01b0380821660008181526003602090815260408083208151606081018352815463ffffffff81168252600160201b90049096168684015260019081015486830181905294845291839052909120015410156114b2576040808201516001600160a01b0384166000908152602081905282902060010154915163091df9e560e31b81526108c19290600401918252602082015260400190565b611410348383611bd0565b60005b8181101561080b576114e98383838181106114dd576114dd614bb2565b90506104a0020161120d565b6001016114c0565b604051636e49181f60e01b8152602082013560048201523360248201527f00000000000000000000000000000000000000000000000000000000000000006001600160a01b031690636e49181f90604401602060405180830381865afa15801561155f573d6000803e3d6000fd5b505050506040513d601f19601f820116820180604052508101906115839190614cb2565b6115a057604051634ae18d2b60e11b815260040160405180910390fd5b60408051630969875760e21b8152602083013560048201529082013560248201526000907f00000000000000000000000000000000000000000000000000000000000000006001600160a01b0316906325a61d5c9060440161012060405180830381865afa158015611616573d6000803e3d6000fd5b505050506040513d601f19601f8201168201806040525081019061163a9190614d1b565b61010081015190915060009060241c63ffffffff1660c084013514611726576001600160a01b037f000000000000000000000000000000000000000000000000000000000000000016633be273fa602085013560c08601356116aa86610100015163ffffffff60249190911c1690565b60405160e085901b6001600160e01b031916815260048101939093526024830191909152604482015260a08601356064820152608401602060405180830381865afa1580156116fd573d6000803e3d6000fd5b505050506040513d601f19601f820116820180604052508101906117219190614c99565b611735565b61173560a0840135600a614e7f565b9050600061174d608085013561016086013584612956565b60405163ea78803f60e01b8152602086013560048201529091506000906001600160a01b037f0000000000000000000000000000000000000000000000000000000000000000169063ea78803f90602401602060405180830381865afa1580156117bb573d6000803e3d6000fd5b505050506040513d601f19601f820116820180604052508101906117df9190614bee565b6040516370a0823160e01b81523060048201529091506000906001600160a01b038316906370a0823190602401602060405180830381865afa158015611829573d6000803e3d6000fd5b505050506040513d601f19601f8201168201806040525081019061184d9190614c99565b604051632eec7b5560e11b8152602088013560048201529091506000906001600160a01b037f00000000000000000000000000000000000000000000000000000000000000001690635dd8f6aa90602401602060405180830381865afa1580156118bb573d6000803e3d6000fd5b505050506040513d601f19601f820116820180604052508101906118df9190614bee565b6040516363fdc96f60e11b8152602089013560048201526024810186905230604482015260a06064820152600060a4820152600160848201526001600160a01b03919091169063c7fb92de9060c4016020604051808303816000875af115801561194d573d6000803e3d6000fd5b505050506040513d601f19601f820116820180604052508101906119719190614c99565b6040516370a0823160e01b815230600482015290915082906001600160a01b038516906370a0823190602401602060405180830381865afa1580156119ba573d6000803e3d6000fd5b505050506040513d601f19601f820116820180604052508101906119de9190614c99565b6119e89190614e8b565b81146119f6576119f6614e9e565b6000611a148483611a0d60808c0160608d01614972565b6000612001565b9050611a4282611a2a60808b0160608c01614972565b83611a3d6101c08d016101a08e01614972565b6121f4565b5050505050505050565b336001600160a01b0384168114801590611b03575060405163c161c93f60e01b81526001600160a01b038281166004830152858116602483015260448201859052606482018490527f0000000000000000000000000000000000000000000000000000000000000000169063c161c93f90608401602060405180830381865afa158015611add573d6000803e3d6000fd5b505050506040513d601f19601f82011682018060405250810190611b019190614cb2565b155b8015611bac575060405163c161c93f60e01b81526001600160a01b038281166004830152858116602483015260006044830152606482018490527f0000000000000000000000000000000000000000000000000000000000000000169063c161c93f90608401602060405180830381865afa158015611b86573d6000803e3d6000fd5b505050506040513d601f19601f82011682018060405250810190611baa9190614cb2565b155b15611bca5760405163075fd2b160e01b815260040160405180910390fd5b50505050565b60008315611bf1576040516352864b0160e11b815260040160405180910390fd5b6001600160a01b0383166000908152602081905260408120600181018054908390558154909291908290611c2d906001600160401b0316614eb4565b91906101000a8154816001600160401b0302191690836001600160401b031602179055905060006001600160a01b031684602001516001600160a01b031603611c945760405163393e175160e01b81526001600160a01b03861660048201526024016108c1565b6001600160a01b03851661eeee14611d8f57611cd1857f000000000000000000000000000000000000000000000000000000000000000084612a29565b6020808501518551604080519384018152600084525163540abf7360e01b81526001600160a01b037f0000000000000000000000000000000000000000000000000000000000000000169363540abf7393611d58938b9391927f0000000000000000000000000000000000000000000000000000000000000000928a929190600401614eda565b600060405180830381600087803b158015611d7257600080fd5b505af1158015611d86573d6000803e3d6000fd5b50505050611d93565b8192505b6001600160a01b0385166000908152602081905260408120611db790600201612ab9565b6001600160a01b03871660009081526020819052604081206022015491925090611de390600190614e8b565b604080516060810182526020808a01516001600160a01b039081168352818301898152845180860186526001600160401b03808b1682528185018a9052858701918252955194518316602486015290516044850152518051909416606484015292015160848201529192507f00000000000000000000000000000000000000000000000000000000000000001690633dbb202b9087907f00000000000000000000000000000000000000000000000000000000000000009060a40160408051601f198184030181529181526020820180516001600160e01b03166369d31fdd60e01b179052516001600160e01b031960e086901b168152611eed929190620493e090600401614f2d565b6000604051808303818588803b158015611f0657600080fd5b505af1158015611f1a573d6000803e3d6000fd5b5050604080518581526001600160401b03881660208201526001600160a01b038c1694508693507f3e069c1f498cba23d7d2b74b84311469e8da6e527cade62061d642c61b64e0de92500160405180910390a35050505050505050565b6000611f8283613e6f565b8015611f935750611f938383613ea2565b9392505050565b6040516001600160a01b038481166024830152838116604483015260648201839052611bca9186918216906323b872dd906084015b604051602081830303815290604052915060e01b6020820180516001600160e01b038381831617835250505050613f2c565b604051630862026560e41b81527f000000000000000000000000000000000000000000000000000000000000000060048201526001600160a01b03838116602483015260009182917f00000000000000000000000000000000000000000000000000000000000000001690638620265090604401602060405180830381865afa158015612092573d6000803e3d6000fd5b505050506040513d601f19601f820116820180604052508101906120b69190614bee565b90506001600160a01b03811661211057604051630c9ae01360e01b81527f000000000000000000000000000000000000000000000000000000000000000060048201526001600160a01b03851660248201526044016108c1565b600061211c8530613f8f565b60408051602081018252600081529051635db90a7f60e11b81529192506001600160a01b0384169163bb7214fe916121829130917f0000000000000000000000000000000000000000000000000000000000000000918b918d918c918691600401614f67565b6020604051808303816000875af11580156121a1573d6000803e3d6000fd5b505050506040513d601f19601f820116820180604052508101906121c59190614c99565b9250806121d28630613f8f565b6121dc9190614e8b565b83146121ea576121ea614e9e565b5050949350505050565b600061220185848461401f565b6001600160a01b03851660009081526020818152604080832081516104408101808452959650939461226c9487949093600290930192849290830191849182845b81548152602001906001019080831161224257505050918352505060209182015491015290614064565b6001600160a01b0386166000908152602081815260409091208251929350839260029091019161229d918391614667565b50602091820151908201556001600160a01b0386166000908152908190526040812060010180548692906122d2908490614c21565b92505081905550846001600160a01b0316836001600160a01b03167f7b58dbb78e7edc690b0688a53dea0c443d630c4a5db66c3c47d4ff2044c9772884600185602001516123209190614e8b565b6001600160a01b038a16600090815260208190526040902061234490600201612ab9565b60408051938452602084019290925290820152606081018a90526080810188905260a00160405180910390a3505050505050565b6001600160a01b038216600090815260026020526040902054808211156123b257604051632858f9ab60e11b815260040160405180910390fd5b6001600160a01b03838116600081815260026020526040808220868603905551630862026560e41b81527f000000000000000000000000000000000000000000000000000000000000000060048201526024810192909252917f00000000000000000000000000000000000000000000000000000000000000001690638620265090604401602060405180830381865afa158015612454573d6000803e3d6000fd5b505050506040513d601f19601f820116820180604052508101906124789190614bee565b90506001600160a01b0381166124d257604051630c9ae01360e01b81527f000000000000000000000000000000000000000000000000000000000000000060048201526001600160a01b03851660248201526044016108c1565b6001600160a01b03841661eeee14612682576040516370a0823160e01b81523060048201526000906001600160a01b038616906370a0823190602401602060405180830381865afa15801561252b573d6000803e3d6000fd5b505050506040513d601f19601f8201168201806040525081019061254f9190614c99565b905061255c858386612a29565b60408051602080820183526000808352835191820184528082529251639e6eec0560e01b81526001600160a01b03861693639e6eec05936125c9937f0000000000000000000000000000000000000000000000000000000000000000938c938c9390929091600401614fb9565b600060405180830381600087803b1580156125e357600080fd5b505af11580156125f7573d6000803e3d6000fd5b5050505083816126079190614e8b565b6040516370a0823160e01b81523060048201526001600160a01b038716906370a0823190602401602060405180830381865afa15801561264b573d6000803e3d6000fd5b505050506040513d601f19601f8201168201806040525081019061266f9190614c99565b1461267c5761267c614e9e565b50611bca565b60408051602080820183526000808352835191820184528082529251639e6eec0560e01b81526001600160a01b03851693639e6eec059388936126f2937f0000000000000000000000000000000000000000000000000000000000000000938c9387939192909190600401614fb9565b6000604051808303818588803b15801561270b57600080fd5b505af115801561271f573d6000803e3d6000fd5b505050505050505050565b60007f00000000000000000000000000000000000000000000000000000000000000006001600160a01b0316826001600160a01b03161480156107d257507f00000000000000000000000000000000000000000000000000000000000000006001600160a01b03167f00000000000000000000000000000000000000000000000000000000000000006001600160a01b0316636e296e456040518163ffffffff1660e01b81526004016020604051808303816000875af11580156127f2573d6000803e3d6000fd5b505050506040513d601f19601f820116820180604052508101906128169190614bee565b6001600160a01b03161492915050565b6001600160a01b0385166000908152600460209081526040808320600886901c8452909152902054600160ff84161b16156128775760405163ed9bdd0760e01b8152600481018390526024016108c1565b6001600160a01b0385166000908152600460209081526040808320600886901c845290915281208054600160ff86161b1790556128e66128b888878761401f565b60408051610400818101909252908590602090839083908082843760009201919091525087915061416a9050565b6001600160a01b03871660009081526001602081905260409091200154909150811461294d576001600160a01b0386166000908152600160208190526040918290200154905163286f87c960e21b81526004810191909152602481018290526044016108c1565b50505050505050565b60008080600019858709858702925082811083820303915050806000036129905783828161298657612986615000565b0492505050611f93565b8381106129c157604051630c740aef60e31b81526004810187905260248101869052604481018590526064016108c1565b600084868809600260036001881981018916988990049182028318808302840302808302840302808302840302808302840302808302840302918202909203026000889003889004909101858311909403939093029303949094049190911702949350505050565b604080516001600160a01b038416602482015260448082018490528251808303909101815260649091019091526020810180516001600160e01b031663095ea7b360e01b179052612a7a84826144b8565b611bca576040516001600160a01b03848116602483015260006044830152612aaf91869182169063095ea7b390606401611fcf565b611bca8482613f2c565b6020810154600090808203612af057507f27ae5ba08d7291c96c8cbddcc148bf48a6d68c7974b94356f53754ef6171d75792915050565b6000836001831615612b125780546000526000602052604060002093506133c5565b6002831615612b575760018101546000527fad3228b676f7d3cd4284a5443f17f1962b36e491b30a40b2405849e597ba5fb560205260406000209350600191506133c5565b6004831615612b9c5760028101546000527fb4c11951957c6f8f642c4af61cd6b24640fec6dc7fc607ee8206a99e92410d3060205260406000209350600291506133c5565b6008831615612be15760038101546000527f21ddb9a356815c3fac1026b6dec5df3124afbadb485c9ba5a3e3398a04b7ba8560205260406000209350600391506133c5565b6010831615612c265760048101546000527fe58769b32a1beaf1ea27375a44095a0d1fb664ce2dd358e7fcbfb78c26a1934460205260406000209350600491506133c5565b6020831615612c6b5760058101546000527f0eb01ebfc9ed27500cd4dfc979272d1f0913cc9f66540d7e8005811109e1cf2d60205260406000209350600591506133c5565b6040831615612cb05760068101546000527f887c22bd8750d34016ac3c66b5ff102dacdd73f6b014e710b51e8022af9a196860205260406000209350600691506133c5565b6080831615612cf55760078101546000527fffd70157e48063fc33c97a050f7f640233bf646cc98d9524c6b92bcf3ab56f8360205260406000209350600791506133c5565b610100831615612d3b5760088101546000527f9867cc5f7f196b93bae1e27e6320742445d290f2263827498b54fec539f756af60205260406000209350600891506133c5565b610200831615612d815760098101546000527fcefad4e508c098b9a7e1d8feb19955fb02ba9675585078710969d3440f5054e060205260406000209350600991506133c5565b610400831615612dc757600a8101546000527ff9dc3e7fe016e050eff260334f18a5d4fe391d82092319f5964f2e2eb7c1c3a560205260406000209350600a91506133c5565b610800831615612e0d57600b8101546000527ff8b13a49e282f609c317a833fb8d976d11517c571d1221a265d25af778ecf89260205260406000209350600b91506133c5565b611000831615612e5357600c8101546000527f3490c6ceeb450aecdc82e28293031d10c7d73bf85e57bf041a97360aa2c5d99c60205260406000209350600c91506133c5565b612000831615612e9957600d8101546000527fc1df82d9c4b87413eae2ef048f94b4d3554cea73d92b0f7af96e0271c691e2bb60205260406000209350600d91506133c5565b614000831615612edf57600e8101546000527f5c67add7c6caf302256adedf7ab114da0acfe870d449a3a489f781d659e8becc60205260406000209350600e91506133c5565b618000831615612f2557600f8101546000527fda7bce9f4e8618b6bd2f4132ce798cdc7a60e7e1460a7299e3c6342a579626d260205260406000209350600f91506133c5565b62010000831615612f6c5760108101546000527f2733e50f526ec2fa19a22b31e8ed50f23cd1fdf94c9154ed3a7609a2f1ff981f60205260406000209350601091506133c5565b62020000831615612fb35760118101546000527fe1d3b5c807b281e4683cc6d6315cf95b9ade8641defcb32372f1c126e398ef7a60205260406000209350601191506133c5565b62040000831615612ffa5760128101546000527f5a2dce0a8a7f68bb74560f8f71837c2c2ebbcbf7fffb42ae1896f13f7c7479a060205260406000209350601291506133c5565b620800008316156130415760138101546000527fb46a28b6f55540f89444f63de0378e3d121be09e06cc9ded1c20e65876d36aa060205260406000209350601391506133c5565b621000008316156130885760148101546000527fc65e9645644786b620e2dd2ad648ddfcbf4a7e5b1a3a4ecfe7f64667a3f0b7e260205260406000209350601491506133c5565b622000008316156130cf5760158101546000527ff4418588ed35a2458cffeb39b93d26f18d2ab13bdce6aee58e7b99359ec2dfd960205260406000209350601591506133c5565b624000008316156131165760168101546000527f5a9c16dc00d6ef18b7933a6f8dc65ccb55667138776f7dea101070dc8796e37760205260406000209350601691506133c5565b6280000083161561315d5760178101546000527f4df84f40ae0c8229d0d6069e5c8f39a7c299677a09d367fc7b05e3bc380ee65260205260406000209350601791506133c5565b63010000008316156131a55760188101546000527fcdc72595f74c7b1043d0e1ffbab734648c838dfb0527d971b602bc216c9619ef60205260406000209350601891506133c5565b63020000008316156131ed5760198101546000527f0abf5ac974a1ed57f4050aa510dd9c74f508277b39d7973bb2dfccc5eeb0618d60205260406000209350601991506133c5565b630400000083161561323557601a8101546000527fb8cd74046ff337f0a7bf2c8e03e10f642c1886798d71806ab1e888d9e5ee87d060205260406000209350601a91506133c5565b630800000083161561327d57601b8101546000527f838c5655cb21c6cb83313b5a631175dff4963772cce9108188b34ac87c81c41e60205260406000209350601b91506133c5565b63100000008316156132c557601c8101546000527f662ee4dd2dd7b2bc707961b1e646c4047669dcb6584f0d8d770daf5d7e7deb2e60205260406000209350601c91506133c5565b632000000083161561330d57601d8101546000527f388ab20e2573d171a88108e79d820e98f26c0b84aa8b2f4aa4968dbb818ea32260205260406000209350601d91506133c5565b634000000083161561335557601e8101546000527f93237c50ba75ee485f4c22adf2f741400bdf8d6a9cc7df7ecae576221665d73560205260406000209350601e91506133c5565b638000000083161561339d57601f8101546000527f8448818bb4ae4562849e949e17ac16e0be16688e156b5cf15e098c627c0056a960205260406000209350601f91506133c5565b7f27ae5ba08d7291c96c8cbddcc148bf48a6d68c7974b94356f53754ef6171d7579350602091505b601e8211613e67576001821015613423576002831680156133f15760018201546000528460205261341a565b846000527fad3228b676f7d3cd4284a5443f17f1962b36e491b30a40b2405849e597ba5fb56020525b50604060002093505b60028210156134795760048316801561344757600282015460005284602052613470565b846000527fb4c11951957c6f8f642c4af61cd6b24640fec6dc7fc607ee8206a99e92410d306020525b50604060002093505b60038210156134cf5760088316801561349d576003820154600052846020526134c6565b846000527f21ddb9a356815c3fac1026b6dec5df3124afbadb485c9ba5a3e3398a04b7ba856020525b50604060002093505b6004821015613525576010831680156134f35760048201546000528460205261351c565b846000527fe58769b32a1beaf1ea27375a44095a0d1fb664ce2dd358e7fcbfb78c26a193446020525b50604060002093505b600582101561357b5760208316801561354957600582015460005284602052613572565b846000527f0eb01ebfc9ed27500cd4dfc979272d1f0913cc9f66540d7e8005811109e1cf2d6020525b50604060002093505b60068210156135d15760408316801561359f576006820154600052846020526135c8565b846000527f887c22bd8750d34016ac3c66b5ff102dacdd73f6b014e710b51e8022af9a19686020525b50604060002093505b6007821015613627576080831680156135f55760078201546000528460205261361e565b846000527fffd70157e48063fc33c97a050f7f640233bf646cc98d9524c6b92bcf3ab56f836020525b50604060002093505b600882101561367e576101008316801561364c57600882015460005284602052613675565b846000527f9867cc5f7f196b93bae1e27e6320742445d290f2263827498b54fec539f756af6020525b50604060002093505b60098210156136d557610200831680156136a3576009820154600052846020526136cc565b846000527fcefad4e508c098b9a7e1d8feb19955fb02ba9675585078710969d3440f5054e06020525b50604060002093505b600a82101561372c57610400831680156136fa57600a82015460005284602052613723565b846000527ff9dc3e7fe016e050eff260334f18a5d4fe391d82092319f5964f2e2eb7c1c3a56020525b50604060002093505b600b821015613783576108008316801561375157600b8201546000528460205261377a565b846000527ff8b13a49e282f609c317a833fb8d976d11517c571d1221a265d25af778ecf8926020525b50604060002093505b600c8210156137da57611000831680156137a857600c820154600052846020526137d1565b846000527f3490c6ceeb450aecdc82e28293031d10c7d73bf85e57bf041a97360aa2c5d99c6020525b50604060002093505b600d82101561383157612000831680156137ff57600d82015460005284602052613828565b846000527fc1df82d9c4b87413eae2ef048f94b4d3554cea73d92b0f7af96e0271c691e2bb6020525b50604060002093505b600e821015613888576140008316801561385657600e8201546000528460205261387f565b846000527f5c67add7c6caf302256adedf7ab114da0acfe870d449a3a489f781d659e8becc6020525b50604060002093505b600f8210156138df57618000831680156138ad57600f820154600052846020526138d6565b846000527fda7bce9f4e8618b6bd2f4132ce798cdc7a60e7e1460a7299e3c6342a579626d26020525b50604060002093505b60108210156139375762010000831680156139055760108201546000528460205261392e565b846000527f2733e50f526ec2fa19a22b31e8ed50f23cd1fdf94c9154ed3a7609a2f1ff981f6020525b50604060002093505b601182101561398f57620200008316801561395d57601182015460005284602052613986565b846000527fe1d3b5c807b281e4683cc6d6315cf95b9ade8641defcb32372f1c126e398ef7a6020525b50604060002093505b60128210156139e75762040000831680156139b5576012820154600052846020526139de565b846000527f5a2dce0a8a7f68bb74560f8f71837c2c2ebbcbf7fffb42ae1896f13f7c7479a06020525b50604060002093505b6013821015613a3f576208000083168015613a0d57601382015460005284602052613a36565b846000527fb46a28b6f55540f89444f63de0378e3d121be09e06cc9ded1c20e65876d36aa06020525b50604060002093505b6014821015613a97576210000083168015613a6557601482015460005284602052613a8e565b846000527fc65e9645644786b620e2dd2ad648ddfcbf4a7e5b1a3a4ecfe7f64667a3f0b7e26020525b50604060002093505b6015821015613aef576220000083168015613abd57601582015460005284602052613ae6565b846000527ff4418588ed35a2458cffeb39b93d26f18d2ab13bdce6aee58e7b99359ec2dfd96020525b50604060002093505b6016821015613b47576240000083168015613b1557601682015460005284602052613b3e565b846000527f5a9c16dc00d6ef18b7933a6f8dc65ccb55667138776f7dea101070dc8796e3776020525b50604060002093505b6017821015613b9f576280000083168015613b6d57601782015460005284602052613b96565b846000527f4df84f40ae0c8229d0d6069e5c8f39a7c299677a09d367fc7b05e3bc380ee6526020525b50604060002093505b6018821015613bf857630100000083168015613bc657601882015460005284602052613bef565b846000527fcdc72595f74c7b1043d0e1ffbab734648c838dfb0527d971b602bc216c9619ef6020525b50604060002093505b6019821015613c5157630200000083168015613c1f57601982015460005284602052613c48565b846000527f0abf5ac974a1ed57f4050aa510dd9c74f508277b39d7973bb2dfccc5eeb0618d6020525b50604060002093505b601a821015613caa57630400000083168015613c7857601a82015460005284602052613ca1565b846000527fb8cd74046ff337f0a7bf2c8e03e10f642c1886798d71806ab1e888d9e5ee87d06020525b50604060002093505b601b821015613d0357630800000083168015613cd157601b82015460005284602052613cfa565b846000527f838c5655cb21c6cb83313b5a631175dff4963772cce9108188b34ac87c81c41e6020525b50604060002093505b601c821015613d5c57631000000083168015613d2a57601c82015460005284602052613d53565b846000527f662ee4dd2dd7b2bc707961b1e646c4047669dcb6584f0d8d770daf5d7e7deb2e6020525b50604060002093505b601d821015613db557632000000083168015613d8357601d82015460005284602052613dac565b846000527f388ab20e2573d171a88108e79d820e98f26c0b84aa8b2f4aa4968dbb818ea3226020525b50604060002093505b601e821015613e0e57634000000083168015613ddc57601e82015460005284602052613e05565b846000527f93237c50ba75ee485f4c22adf2f741400bdf8d6a9cc7df7ecae576221665d7356020525b50604060002093505b601f821015613e6757638000000083168015613e3557601f82015460005284602052613e5e565b846000527f8448818bb4ae4562849e949e17ac16e0be16688e156b5cf15e098c627c0056a96020525b50604060002093505b505050919050565b6000613e82826301ffc9a760e01b613ea2565b80156107d25750613e9b826001600160e01b0319613ea2565b1592915050565b6040516001600160e01b031982166024820152600090819060440160408051601f19818403018152919052602080820180516001600160e01b03166301ffc9a760e01b178152825192935060009283928392909183918a617530fa92503d91506000519050828015613f15575060208210155b8015613f215750600081115b979650505050505050565b6000613f416001600160a01b03841683614560565b90508051600014158015613f66575080806020019051810190613f649190614cb2565b155b1561080b57604051635274afe760e01b81526001600160a01b03841660048201526024016108c1565b600061eeed196001600160a01b03841601613fb557506001600160a01b038116316107d2565b6040516370a0823160e01b81526001600160a01b0383811660048301528416906370a0823190602401602060405180830381865afa158015613ffb573d6000803e3d6000fd5b505050506040513d601f19601f82011682018060405250810190611f939190614c99565b60408051602081018590529081018390526001600160a01b03821660608201526000906080016040516020818303038152906040528051906020012090509392505050565b61406c6146a1565b600083602001805161407d90615016565b908190529050600161409160206002614e7f565b61409b9190614e8b565b8111156140bb57604051638eab04bb60e01b815260040160405180910390fd5b60005b602081101561415057816001166001036140f7578451849082602081106140e7576140e7614bb2565b6020020152508391506107d29050565b8451816020811061410a5761410a614bb2565b60200201518460405160200161412a929190918252602082015260400190565b60408051601f1981840301815291905280516020909101209350600191821c91016140be565b50604051638eab04bb60e01b815260040160405180910390fd5b6020600582811b8216948552835194820394909452604060008181206002851615871b808503919091528386015190528181206004851615871b808503919091528286015190528181206008851615871b80850391909152606086015190528181206010851615871b8085039190915260808087015190915282822084861615881b8086039190915260a0870151905282822083861615881b8086039190915260c0870151905282822090851615871b8085039190915260e0860151905281812061010080861615881b80860392909252860151905281812061020080861615881b80860392909252610120870151909152828220610400861615881b808603919091526101408701519052828220610800861615881b808603919091526101608701519052828220611000861615881b808603919091526101808701519052828220612000861615881b808603919091526101a08701519052828220614000861615881b808603919091526101c08701519052828220618000861615881b808603919091526101e0870151905282822062010000861615881b8086039190915290860151905281812062020000851615871b80850391909152610220860151905281812062040000851615871b80850391909152610240860151905281812062080000851615871b80850391909152610260860151905281812062100000851615871b80850391909152610280860151905281812062200000851615871b808503919091526102a0860151905281812062400000851615871b808503919091526102c0860151905281812062800000851615871b808503919091526102e086015190528181206301000000851615871b8085039190915261030086015190528181206302000000851615871b8085039190915261032086015190528181206304000000851615871b8085039190915261034086015190528181206308000000851615871b8085039190915261036086015190528181206310000000851615871b8085039190915261038086015190528181206320000000851615871b808503919091526103a086015190528181206340000000851615871b808503919091526103c0860151905281812063800000009094161590951b91829003929092526103e090920151909152902090565b6000806000846001600160a01b0316846040516144d5919061502f565b6000604051808303816000865af19150503d8060008114614512576040519150601f19603f3d011682016040523d82523d6000602084013e614517565b606091505b50915091508180156145415750805115806145415750808060200190518101906145419190614cb2565b801561455757506000856001600160a01b03163b115b95945050505050565b6060611f938383600084600080856001600160a01b03168486604051614586919061502f565b60006040518083038185875af1925050503d80600081146145c3576040519150601f19603f3d011682016040523d82523d6000602084013e6145c8565b606091505b50915091506145d88683836145e2565b9695505050505050565b6060826145f7576145f28261463e565b611f93565b815115801561460e57506001600160a01b0384163b155b1561463757604051639996b31560e01b81526001600160a01b03851660048201526024016108c1565b5080611f93565b80511561464e5780518082602001fd5b604051630a12f52160e11b815260040160405180910390fd5b8260208101928215614695579160200282015b8281111561469557825182559160200191906001019061467a565b50610f419291506146c1565b60405180604001604052806146b46146d6565b8152602001600081525090565b5b80821115610f4157600081556001016146c2565b6040518061040001604052806020906020820280368337509192915050565b60006020828403121561470757600080fd5b81356001600160e01b031981168114611f9357600080fd5b6000806020838503121561473257600080fd5b82356001600160401b038082111561474957600080fd5b818501915085601f83011261475d57600080fd5b81358181111561476c57600080fd5b8660208260071b850101111561478157600080fd5b60209290920196919550909350505050565b6000608082840312156147a557600080fd5b50919050565b6000608082840312156147bd57600080fd5b611f938383614793565b6000602082840312156147d957600080fd5b81356001600160401b038111156147ef57600080fd5b82016101808185031215611f9357600080fd5b60005b8381101561481d578181015183820152602001614805565b50506000910152565b6000815180845261483e816020860160208601614802565b601f01601f19169290920160200192915050565b6000604080830185845260206040818601528186518084526060935060608701915060608160051b88010183890160005b838110156148d357898303605f19018552815180516001600160a01b0316845286810151878501528801518884018890526148c088850182614826565b9587019593505090850190600101614883565b50909a9950505050505050505050565b6001600160a01b0381168114610fbb57600080fd5b6000806000806080858703121561490e57600080fd5b843593506020850135614920816148e3565b9250604085013591506060850135614937816148e3565b939692955090935050565b6000806040838503121561495557600080fd5b823591506020830135614967816148e3565b809150509250929050565b60006020828403121561498457600080fd5b8135611f93816148e3565b6001600160401b038416815260208082018490528251610460830191906000604085015b838210156149d15782518152918301916001919091019083016149b3565b505050506020830151610440830152949350505050565b6000602082840312156149fa57600080fd5b81356001600160401b03811115614a1057600080fd5b82016101a08185031215611f9357600080fd5b60006080820186835260208681850152604086604086015260606080606087015283875180865260a08801915060a08160051b890101955084890160005b82811015614ab157898803609f19018452815180516001600160a01b0316895287810151888a0152860151868901869052614a9e868a0182614826565b9850509286019290860190600101614a61565b50959c9b505050505050505050505050565b60006104a082840312156147a557600080fd5b60008060208385031215614ae957600080fd5b82356001600160401b0380821115614b0057600080fd5b818501915085601f830112614b1457600080fd5b813581811115614b2357600080fd5b8660206104a08302850101111561478157600080fd5b634e487b7160e01b600052602160045260246000fd5b6020810160028310614b7157634e487b7160e01b600052602160045260246000fd5b91905290565b600060208284031215614b8957600080fd5b81356001600160401b03811115614b9f57600080fd5b82016102008185031215611f9357600080fd5b634e487b7160e01b600052603260045260246000fd5b600060208284031215614bda57600080fd5b813563ffffffff81168114611f9357600080fd5b600060208284031215614c0057600080fd5b8151611f93816148e3565b634e487b7160e01b600052601160045260246000fd5b808201808211156107d2576107d2614c0b565b6001600160401b0381168114610fbb57600080fd5b600060208284031215614c5b57600080fd5b8135611f9381614c34565b8135614c7181614c34565b6001600160401b0381166001600160401b031983541617825550602082013560018201555050565b600060208284031215614cab57600080fd5b5051919050565b600060208284031215614cc457600080fd5b81518015158114611f9357600080fd5b60405161012081016001600160401b0381118282101715614d0557634e487b7160e01b600052604160045260246000fd5b60405290565b8051614d16816148e3565b919050565b60006101208284031215614d2e57600080fd5b614d36614cd4565b825181526020830151602082015260408301516040820152606083015160608201526080830151608082015260a083015160a082015260c083015160c0820152614d8260e08401614d0b565b60e0820152610100928301519281019290925250919050565b600181815b80851115614dd6578160001904821115614dbc57614dbc614c0b565b80851615614dc957918102915b93841c9390800290614da0565b509250929050565b600082614ded575060016107d2565b81614dfa575060006107d2565b8160018114614e105760028114614e1a57614e36565b60019150506107d2565b60ff841115614e2b57614e2b614c0b565b50506001821b6107d2565b5060208310610133831016604e8410600b8410161715614e59575081810a6107d2565b614e638383614d9b565b8060001904821115614e7757614e77614c0b565b029392505050565b6000611f938383614dde565b818103818111156107d2576107d2614c0b565b634e487b7160e01b600052600160045260246000fd5b60006001600160401b03808316818103614ed057614ed0614c0b565b6001019392505050565b6001600160a01b0387811682528681166020830152851660408201526060810184905263ffffffff8316608082015260c060a08201819052600090614f2190830184614826565b98975050505050505050565b6001600160a01b0384168152606060208201819052600090614f5190830185614826565b905063ffffffff83166040830152949350505050565b600060018060a01b03808a168352886020840152808816604084015286606084015285608084015280851660a08401525060e060c0830152614fac60e0830184614826565b9998505050505050505050565b86815260018060a01b0386166020820152846040820152831515606082015260c060808201526000614fee60c0830185614826565b82810360a0840152614fac8185614826565b634e487b7160e01b600052601260045260246000fd5b60006001820161502857615028614c0b565b5060010190565b60008251615041818460208701614802565b919091019291505056fea2646970667358221220b488103a67b41b29c062c17b3caaf7d57764bc102f27992ec39b49b209ddf5c964736f6c63430008170033a2646970667358221220774e6c5934cab9b43f97f05e0f129de085468dde9a78545227111ea096a908b064736f6c63430008170033",
			"devdoc": {
				"kind": "dev",
				"methods": {
					"createForSender(uint256,bytes32)": {
						"details": "Uses the sender address as the salt, which means the same sender must call this function on both chains.",
						"params": {
							"localProjectId": "The project's ID on the local chain.",
							"salt": "The salt to use for the `create2` address."
						},
						"returns": {
							"sucker": "The address of the new sucker."
						}
					}
				},
				"version": 1
			},
			"userdoc": {
				"kind": "user",
				"methods": {
					"BRIDGE()": {
						"notice": "The bridge used to bridge tokens between the local and remote chain."
					},
					"MESSENGER()": {
						"notice": "The messenger used to send messages between the local and remote sucker."
					},
					"PERMISSIONS()": {
						"notice": "A contract storing permissions."
					},
					"configureLayerSpecific(address,address)": {
						"notice": "handles some layer specific configuration that can't be done in the constructor otherwise deployment addresses would change.messenger the OPMesssenger on this layer.bridge the OPStandardBridge on this layer."
					},
					"createForSender(uint256,bytes32)": {
						"notice": "Create a new `BPSucker` for a specific project."
					},
					"isSucker(address)": {
						"notice": "A mapping of suckers deployed by this contract."
					}
				},
				"version": 1
			},
			"gitCommit": "01cf0bd4a5e2a172bcb0cabcd50c34849946547d",
			"sourceName": "src/deployers/BPOptimismSuckerDeployer.sol",
			"chainId": "11155420",
			"linkReferences": {},
			"deployedLinkReferences": {}
		},
		{
			"_format": "sphinx-sol-ct-artifact-1",
			"merkleRoot": "0xff72f276254b899f69846b0f1325072cbc5287f2b32cf22d0b777ef3e059919b",
			"contractName": "BPOptimismSuckerDeployer",
			"address": "0x024d04722a8Fd6B98668c64e56B3F47357Fa86a4",
			"abi": [
				{
					"type": "constructor",
					"inputs": [
						{
							"name": "directory",
							"type": "address",
							"internalType": "contract IJBDirectory"
						},
						{
							"name": "tokens",
							"type": "address",
							"internalType": "contract IJBTokens"
						},
						{
							"name": "permissions",
							"type": "address",
							"internalType": "contract IJBPermissions"
						},
						{
							"name": "_configurator",
							"type": "address",
							"internalType": "address"
						}
					],
					"stateMutability": "nonpayable"
				},
				{
					"type": "function",
					"name": "BRIDGE",
					"inputs": [],
					"outputs": [
						{
							"name": "",
							"type": "address",
							"internalType": "contract OPStandardBridge"
						}
					],
					"stateMutability": "view"
				},
				{
					"type": "function",
					"name": "MESSENGER",
					"inputs": [],
					"outputs": [
						{
							"name": "",
							"type": "address",
							"internalType": "contract OPMessenger"
						}
					],
					"stateMutability": "view"
				},
				{
					"type": "function",
					"name": "PERMISSIONS",
					"inputs": [],
					"outputs": [
						{
							"name": "",
							"type": "address",
							"internalType": "contract IJBPermissions"
						}
					],
					"stateMutability": "view"
				},
				{
					"type": "function",
					"name": "configureLayerSpecific",
					"inputs": [
						{
							"name": "messenger",
							"type": "address",
							"internalType": "contract OPMessenger"
						},
						{
							"name": "bridge",
							"type": "address",
							"internalType": "contract OPStandardBridge"
						}
					],
					"outputs": [],
					"stateMutability": "nonpayable"
				},
				{
					"type": "function",
					"name": "createForSender",
					"inputs": [
						{
							"name": "localProjectId",
							"type": "uint256",
							"internalType": "uint256"
						},
						{
							"name": "salt",
							"type": "bytes32",
							"internalType": "bytes32"
						}
					],
					"outputs": [
						{
							"name": "sucker",
							"type": "address",
							"internalType": "contract IBPSucker"
						}
					],
					"stateMutability": "nonpayable"
				},
				{
					"type": "function",
					"name": "isSucker",
					"inputs": [
						{
							"name": "",
							"type": "address",
							"internalType": "address"
						}
					],
					"outputs": [
						{
							"name": "",
							"type": "bool",
							"internalType": "bool"
						}
					],
					"stateMutability": "view"
				},
				{
					"type": "error",
					"name": "ALREADY_CONFIGURED",
					"inputs": []
				},
				{
					"type": "error",
					"name": "ONLY_SUCKERS",
					"inputs": []
				},
				{
					"type": "error",
					"name": "UNAUTHORIZED",
					"inputs": []
				}
			],
			"solcInputHash": "7e868af3cf6590a40a7501a0082df0ee",
			"receipt": {
				"blockHash": "0x49967490c700e6e41dc0d289cac9abaa1e1f56fd9a41824cc128898dc5531e19",
				"blockNumber": 10496614,
				"contractAddress": null,
				"cumulativeGasUsed": "6013851",
				"from": "0xC034550B542b83BA1De312b21d1C94a9a52B1595",
				"gasPrice": "1000252",
				"gasUsed": "5750516",
				"hash": "0x7a1453aba9040111831b5af17363353f9d1f7e91eb8cbfdab92a0af6d16c6cd3",
				"index": 3,
				"logs": [
					{
						"address": "0xB5E96127D417b1B3ef8438496a38A143167209c7",
						"blockHash": "0x49967490c700e6e41dc0d289cac9abaa1e1f56fd9a41824cc128898dc5531e19",
						"blockNumber": 10496614,
						"data": "0x0000000000000000000000000000000000000000000000000000000000000000",
						"index": 5,
						"topics": [
							"0x572f161235911da04685a68c06adf558fc7e4a36909dca394650e0adc19cc93d",
							"0x000000000000000000000000c034550b542b83ba1de312b21d1c94a9a52b1595",
							"0x0000000000000000000000002251543da4a5ef946705b931c7e8b74756764a18",
							"0x1d2750198a130fc6d43e0cce8262c7c4175521da6c31640616ec89a766948cd6"
						],
						"transactionHash": "0x7a1453aba9040111831b5af17363353f9d1f7e91eb8cbfdab92a0af6d16c6cd3",
						"transactionIndex": 3
					},
					{
						"address": "0x6a65B75A3f37C6702A117Fb87B6bCaC62657d216",
						"blockHash": "0x49967490c700e6e41dc0d289cac9abaa1e1f56fd9a41824cc128898dc5531e19",
						"blockNumber": 10496614,
						"data": "0x",
						"index": 6,
						"topics": [
							"0x6895c13664aa4f67288b25d7a21d7aaa34916e355fb9b6fae0a139a9085becb8",
							"0x0000000000000000000000002251543da4a5ef946705b931c7e8b74756764a18"
						],
						"transactionHash": "0x7a1453aba9040111831b5af17363353f9d1f7e91eb8cbfdab92a0af6d16c6cd3",
						"transactionIndex": 3
					},
					{
						"address": "0x2251543Da4A5eF946705B931C7e8b74756764a18",
						"blockHash": "0x49967490c700e6e41dc0d289cac9abaa1e1f56fd9a41824cc128898dc5531e19",
						"blockNumber": 10496614,
						"data": "0x0000000000000000000000000000000000000000000000000000000000000001",
						"index": 7,
						"topics": [
							"0xa65fb05c5808f5f389d72edeaf719ce38f4cc55c1f69ca3cbfb31c21501caa07",
							"0xff72f276254b899f69846b0f1325072cbc5287f2b32cf22d0b777ef3e059919b"
						],
						"transactionHash": "0x7a1453aba9040111831b5af17363353f9d1f7e91eb8cbfdab92a0af6d16c6cd3",
						"transactionIndex": 3
					},
					{
						"address": "0x6a65B75A3f37C6702A117Fb87B6bCaC62657d216",
						"blockHash": "0x49967490c700e6e41dc0d289cac9abaa1e1f56fd9a41824cc128898dc5531e19",
						"blockNumber": 10496614,
						"data": "0x",
						"index": 8,
						"topics": [
							"0x6895c13664aa4f67288b25d7a21d7aaa34916e355fb9b6fae0a139a9085becb8",
							"0x0000000000000000000000002251543da4a5ef946705b931c7e8b74756764a18"
						],
						"transactionHash": "0x7a1453aba9040111831b5af17363353f9d1f7e91eb8cbfdab92a0af6d16c6cd3",
						"transactionIndex": 3
					},
					{
						"address": "0x2251543Da4A5eF946705B931C7e8b74756764a18",
						"blockHash": "0x49967490c700e6e41dc0d289cac9abaa1e1f56fd9a41824cc128898dc5531e19",
						"blockNumber": 10496614,
						"data": "0x0000000000000000000000000000000000000000000000000000000000000002",
						"index": 9,
						"topics": [
							"0xa65fb05c5808f5f389d72edeaf719ce38f4cc55c1f69ca3cbfb31c21501caa07",
							"0xff72f276254b899f69846b0f1325072cbc5287f2b32cf22d0b777ef3e059919b"
						],
						"transactionHash": "0x7a1453aba9040111831b5af17363353f9d1f7e91eb8cbfdab92a0af6d16c6cd3",
						"transactionIndex": 3
					},
					{
						"address": "0x6a65B75A3f37C6702A117Fb87B6bCaC62657d216",
						"blockHash": "0x49967490c700e6e41dc0d289cac9abaa1e1f56fd9a41824cc128898dc5531e19",
						"blockNumber": 10496614,
						"data": "0x",
						"index": 10,
						"topics": [
							"0x6895c13664aa4f67288b25d7a21d7aaa34916e355fb9b6fae0a139a9085becb8",
							"0x0000000000000000000000002251543da4a5ef946705b931c7e8b74756764a18"
						],
						"transactionHash": "0x7a1453aba9040111831b5af17363353f9d1f7e91eb8cbfdab92a0af6d16c6cd3",
						"transactionIndex": 3
					},
					{
						"address": "0x2251543Da4A5eF946705B931C7e8b74756764a18",
						"blockHash": "0x49967490c700e6e41dc0d289cac9abaa1e1f56fd9a41824cc128898dc5531e19",
						"blockNumber": 10496614,
						"data": "0x0000000000000000000000000000000000000000000000000000000000000003",
						"index": 11,
						"topics": [
							"0xa65fb05c5808f5f389d72edeaf719ce38f4cc55c1f69ca3cbfb31c21501caa07",
							"0xff72f276254b899f69846b0f1325072cbc5287f2b32cf22d0b777ef3e059919b"
						],
						"transactionHash": "0x7a1453aba9040111831b5af17363353f9d1f7e91eb8cbfdab92a0af6d16c6cd3",
						"transactionIndex": 3
					},
					{
						"address": "0xF4C9957E2E1Fab09A8B48658F68b46e47b134724",
						"blockHash": "0x49967490c700e6e41dc0d289cac9abaa1e1f56fd9a41824cc128898dc5531e19",
						"blockNumber": 10496614,
						"data": "0x000000000000000000000000024d04722a8fd6b98668c64e56b3f47357fa86a4",
						"index": 12,
						"topics": [
							"0xf6e6facda29906a01d337146a9b928ac09b423901f28e0e001d43550448b370b"
						],
						"transactionHash": "0x7a1453aba9040111831b5af17363353f9d1f7e91eb8cbfdab92a0af6d16c6cd3",
						"transactionIndex": 3
					},
					{
						"address": "0x6a65B75A3f37C6702A117Fb87B6bCaC62657d216",
						"blockHash": "0x49967490c700e6e41dc0d289cac9abaa1e1f56fd9a41824cc128898dc5531e19",
						"blockNumber": 10496614,
						"data": "0x",
						"index": 13,
						"topics": [
							"0x6895c13664aa4f67288b25d7a21d7aaa34916e355fb9b6fae0a139a9085becb8",
							"0x0000000000000000000000002251543da4a5ef946705b931c7e8b74756764a18"
						],
						"transactionHash": "0x7a1453aba9040111831b5af17363353f9d1f7e91eb8cbfdab92a0af6d16c6cd3",
						"transactionIndex": 3
					},
					{
						"address": "0x2251543Da4A5eF946705B931C7e8b74756764a18",
						"blockHash": "0x49967490c700e6e41dc0d289cac9abaa1e1f56fd9a41824cc128898dc5531e19",
						"blockNumber": 10496614,
						"data": "0x0000000000000000000000000000000000000000000000000000000000000004",
						"index": 14,
						"topics": [
							"0xa65fb05c5808f5f389d72edeaf719ce38f4cc55c1f69ca3cbfb31c21501caa07",
							"0xff72f276254b899f69846b0f1325072cbc5287f2b32cf22d0b777ef3e059919b"
						],
						"transactionHash": "0x7a1453aba9040111831b5af17363353f9d1f7e91eb8cbfdab92a0af6d16c6cd3",
						"transactionIndex": 3
					},
					{
						"address": "0xF4C9957E2E1Fab09A8B48658F68b46e47b134724",
						"blockHash": "0x49967490c700e6e41dc0d289cac9abaa1e1f56fd9a41824cc128898dc5531e19",
						"blockNumber": 10496614,
						"data": "0x",
						"index": 15,
						"topics": [
							"0x8be0079c531659141344cd1fd0a4f28419497f9722a3daafe3b4186f6b6457e0",
							"0x0000000000000000000000006a65b75a3f37c6702a117fb87b6bcac62657d216",
							"0x0000000000000000000000001f96512db9a74b8805d900c8e553879c0cb8bb2a"
						],
						"transactionHash": "0x7a1453aba9040111831b5af17363353f9d1f7e91eb8cbfdab92a0af6d16c6cd3",
						"transactionIndex": 3
					},
					{
						"address": "0x6a65B75A3f37C6702A117Fb87B6bCaC62657d216",
						"blockHash": "0x49967490c700e6e41dc0d289cac9abaa1e1f56fd9a41824cc128898dc5531e19",
						"blockNumber": 10496614,
						"data": "0x",
						"index": 16,
						"topics": [
							"0x6895c13664aa4f67288b25d7a21d7aaa34916e355fb9b6fae0a139a9085becb8",
							"0x0000000000000000000000002251543da4a5ef946705b931c7e8b74756764a18"
						],
						"transactionHash": "0x7a1453aba9040111831b5af17363353f9d1f7e91eb8cbfdab92a0af6d16c6cd3",
						"transactionIndex": 3
					},
					{
						"address": "0x2251543Da4A5eF946705B931C7e8b74756764a18",
						"blockHash": "0x49967490c700e6e41dc0d289cac9abaa1e1f56fd9a41824cc128898dc5531e19",
						"blockNumber": 10496614,
						"data": "0x0000000000000000000000000000000000000000000000000000000000000005",
						"index": 17,
						"topics": [
							"0xa65fb05c5808f5f389d72edeaf719ce38f4cc55c1f69ca3cbfb31c21501caa07",
							"0xff72f276254b899f69846b0f1325072cbc5287f2b32cf22d0b777ef3e059919b"
						],
						"transactionHash": "0x7a1453aba9040111831b5af17363353f9d1f7e91eb8cbfdab92a0af6d16c6cd3",
						"transactionIndex": 3
					},
					{
						"address": "0x2251543Da4A5eF946705B931C7e8b74756764a18",
						"blockHash": "0x49967490c700e6e41dc0d289cac9abaa1e1f56fd9a41824cc128898dc5531e19",
						"blockNumber": 10496614,
						"data": "0x",
						"index": 18,
						"topics": [
							"0x4383d976757d67ca920616be0b6430a681ea9d3dcce8d6d61d4603ca4a9bff63",
							"0xff72f276254b899f69846b0f1325072cbc5287f2b32cf22d0b777ef3e059919b"
						],
						"transactionHash": "0x7a1453aba9040111831b5af17363353f9d1f7e91eb8cbfdab92a0af6d16c6cd3",
						"transactionIndex": 3
					}
				],
				"logsBloom": "0x0000000008001000000000000008000000020000404800000080000000400000000000100000000000000000004009000000000000008000000000002000000000000000000020000000000000000000000100000000000000000400000800000000000000000004000000000000000020000000000000008000000000000040000800000000000000010000000000000000020000200000000000000000000000c000800010000000001000000000020208000000000000000000000004000000000000000000000008040008000000000000000002000002000000000000000000000000000208040000000000000204000000000000000000000208000000",
				"status": 1,
				"to": "0xB5E96127D417b1B3ef8438496a38A143167209c7"
			},
			"metadata": "{\"compiler\":{\"version\":\"0.8.23+commit.f704f362\"},\"language\":\"Solidity\",\"output\":{\"abi\":[{\"inputs\":[{\"internalType\":\"contract IJBDirectory\",\"name\":\"directory\",\"type\":\"address\"},{\"internalType\":\"contract IJBTokens\",\"name\":\"tokens\",\"type\":\"address\"},{\"internalType\":\"contract IJBPermissions\",\"name\":\"permissions\",\"type\":\"address\"},{\"internalType\":\"address\",\"name\":\"_configurator\",\"type\":\"address\"}],\"stateMutability\":\"nonpayable\",\"type\":\"constructor\"},{\"inputs\":[],\"type\":\"error\",\"name\":\"ALREADY_CONFIGURED\"},{\"inputs\":[],\"type\":\"error\",\"name\":\"ONLY_SUCKERS\"},{\"inputs\":[],\"type\":\"error\",\"name\":\"UNAUTHORIZED\"},{\"inputs\":[],\"stateMutability\":\"view\",\"type\":\"function\",\"name\":\"BRIDGE\",\"outputs\":[{\"internalType\":\"contract OPStandardBridge\",\"name\":\"\",\"type\":\"address\"}]},{\"inputs\":[],\"stateMutability\":\"view\",\"type\":\"function\",\"name\":\"MESSENGER\",\"outputs\":[{\"internalType\":\"contract OPMessenger\",\"name\":\"\",\"type\":\"address\"}]},{\"inputs\":[],\"stateMutability\":\"view\",\"type\":\"function\",\"name\":\"PERMISSIONS\",\"outputs\":[{\"internalType\":\"contract IJBPermissions\",\"name\":\"\",\"type\":\"address\"}]},{\"inputs\":[{\"internalType\":\"contract OPMessenger\",\"name\":\"messenger\",\"type\":\"address\"},{\"internalType\":\"contract OPStandardBridge\",\"name\":\"bridge\",\"type\":\"address\"}],\"stateMutability\":\"nonpayable\",\"type\":\"function\",\"name\":\"configureLayerSpecific\"},{\"inputs\":[{\"internalType\":\"uint256\",\"name\":\"localProjectId\",\"type\":\"uint256\"},{\"internalType\":\"bytes32\",\"name\":\"salt\",\"type\":\"bytes32\"}],\"stateMutability\":\"nonpayable\",\"type\":\"function\",\"name\":\"createForSender\",\"outputs\":[{\"internalType\":\"contract IBPSucker\",\"name\":\"sucker\",\"type\":\"address\"}]},{\"inputs\":[{\"internalType\":\"address\",\"name\":\"\",\"type\":\"address\"}],\"stateMutability\":\"view\",\"type\":\"function\",\"name\":\"isSucker\",\"outputs\":[{\"internalType\":\"bool\",\"name\":\"\",\"type\":\"bool\"}]}],\"devdoc\":{\"kind\":\"dev\",\"methods\":{\"createForSender(uint256,bytes32)\":{\"details\":\"Uses the sender address as the salt, which means the same sender must call this function on both chains.\",\"params\":{\"localProjectId\":\"The project's ID on the local chain.\",\"salt\":\"The salt to use for the `create2` address.\"},\"returns\":{\"sucker\":\"The address of the new sucker.\"}}},\"version\":1},\"userdoc\":{\"kind\":\"user\",\"methods\":{\"BRIDGE()\":{\"notice\":\"The bridge used to bridge tokens between the local and remote chain.\"},\"MESSENGER()\":{\"notice\":\"The messenger used to send messages between the local and remote sucker.\"},\"PERMISSIONS()\":{\"notice\":\"A contract storing permissions.\"},\"configureLayerSpecific(address,address)\":{\"notice\":\"handles some layer specific configuration that can't be done in the constructor otherwise deployment addresses would change.messenger the OPMesssenger on this layer.bridge the OPStandardBridge on this layer.\"},\"createForSender(uint256,bytes32)\":{\"notice\":\"Create a new `BPSucker` for a specific project.\"},\"isSucker(address)\":{\"notice\":\"A mapping of suckers deployed by this contract.\"}},\"version\":1}},\"settings\":{\"remappings\":[\"@arbitrum/=node_modules/@arbitrum/\",\"@bananapus/=node_modules/@bananapus/\",\"@chainlink/=node_modules/@chainlink/\",\"@eth-optimism/=node_modules/@eth-optimism/\",\"@gnosis.pm/=node_modules/@gnosis.pm/\",\"@offchainlabs/=node_modules/@offchainlabs/\",\"@openzeppelin/=node_modules/@openzeppelin/\",\"@prb/=node_modules/@prb/\",\"@scroll-tech/=node_modules/@scroll-tech/\",\"@sphinx-labs/contracts/=node_modules/@sphinx-labs/contracts/contracts/foundry/\",\"@uniswap/=node_modules/@uniswap/\",\"ds-test/=lib/forge-std/lib/ds-test/src/\",\"forge-std/=lib/forge-std/src/\",\"hardhat/=node_modules/hardhat/\",\"solmate/=node_modules/solmate/\",\"sphinx-forge-std/=node_modules/sphinx-forge-std/\",\"sphinx-solmate/=node_modules/sphinx-solmate/\",\"sphinx/=lib/sphinx/packages/contracts/contracts/forge-std/src/\"],\"optimizer\":{\"enabled\":true,\"runs\":200},\"metadata\":{\"bytecodeHash\":\"ipfs\"},\"compilationTarget\":{\"src/deployers/BPOptimismSuckerDeployer.sol\":\"BPOptimismSuckerDeployer\"},\"evmVersion\":\"paris\",\"libraries\":{}},\"sources\":{\"node_modules/@bananapus/core/src/abstract/JBPermissioned.sol\":{\"keccak256\":\"0xe08c8a7eeac9d1c7c2e0db6d5b98d1af09889300835a3d47d9f29319fecce703\",\"urls\":[\"bzz-raw://42645cf52bcc45053ef650790916faed5d0a74cecef336b217433fdd2c5c4166\",\"dweb:/ipfs/QmdMmxG1tSGucQwz4LYbVnuj7HU23YvqLH6xfrNWv5Bmus\"],\"license\":\"MIT\"},\"node_modules/@bananapus/core/src/enums/JBApprovalStatus.sol\":{\"keccak256\":\"0x61c69b6bac7d24b566d87cda23a77e4ca9cdb87200b106aba8534cb9a0973e33\",\"urls\":[\"bzz-raw://6a9ca7249de76f77a8252eefe6bd1b63d47952f25a2acfa2c8db967cdff4470c\",\"dweb:/ipfs/QmaxSxptRQNj8bNy96EreENmrnRWdKmhyihBcxyWzBX5BN\"],\"license\":\"MIT\"},\"node_modules/@bananapus/core/src/interfaces/IJBController.sol\":{\"keccak256\":\"0xe0b84058192f89e461c4b604388aa11a2f92f0f9969fb70fb3c18706d6f3e16b\",\"urls\":[\"bzz-raw://984fdcff63a17ccab65ff7723a628967e40965fcb4d47909cf8e314e8f044576\",\"dweb:/ipfs/QmaaHZWuaaH3oYxCDrip1rr4u4H1XtR3RcwwKAE73GAqkd\"],\"license\":\"MIT\"},\"node_modules/@bananapus/core/src/interfaces/IJBDirectory.sol\":{\"keccak256\":\"0x9cc380844aef60078ee47a61861e55a29c4a8c947efd556ebd36e6909f7b9d62\",\"urls\":[\"bzz-raw://9f5190ec8b6683d9781ee6e9eedcc91294753242748875d4a06349077e4cbaaf\",\"dweb:/ipfs/QmTQrPuXT9TCA4txwrperMeXSGvGxP8iokUK47f62F388i\"],\"license\":\"MIT\"},\"node_modules/@bananapus/core/src/interfaces/IJBDirectoryAccessControl.sol\":{\"keccak256\":\"0x1e67f56849320a46f834aaa9bd62b170ff8ada7b224b4a81136193740fa0be4d\",\"urls\":[\"bzz-raw://ea8fbcec44abfe49d137bcae129b67e5479d6b17879301f88534c8a7fab00be4\",\"dweb:/ipfs/QmT6wrtYX4GRpffHUzupNwYebJ1dqkkKZLEewWsoyunsqw\"],\"license\":\"MIT\"},\"node_modules/@bananapus/core/src/interfaces/IJBFundAccessLimits.sol\":{\"keccak256\":\"0xf5fd6bdd723b60d490ccbe22cdf1cfe43663d23e6ee48badcd1b71e3282cb16b\",\"urls\":[\"bzz-raw://fe692f0b843ea5fccdfcb68f4ec16e1c0add945bb74b303c9866342be0e31fbf\",\"dweb:/ipfs/QmSRmzpgp3DhNEhNDiLsSu7yEiTeywbzEFbwyGyDazjgKt\"],\"license\":\"MIT\"},\"node_modules/@bananapus/core/src/interfaces/IJBMigratable.sol\":{\"keccak256\":\"0xd69bd5aba01a68d82c303ef3adde47532abcace030a94296c3ea6988b401789c\",\"urls\":[\"bzz-raw://88f11a1c89899327746beba4fc830abf3ac2eb9c152c778e884a6eed6564971f\",\"dweb:/ipfs/QmTpKhSTVewpz7VyKcz6BJwH2LFKMwT7Qi5HNWmjEjwsdK\"],\"license\":\"MIT\"},\"node_modules/@bananapus/core/src/interfaces/IJBPayHook.sol\":{\"keccak256\":\"0x9438866782c652c2942f4d114e35f393cd3c8b0334abce8387eed90bca35e8b2\",\"urls\":[\"bzz-raw://cfd99daf57213f92325aad7d7d16e98476d38e870470e95ba01e3ae3cdecc95d\",\"dweb:/ipfs/QmUKKAVGf7ki8BHksr99tFcRW8APveeB5tNH63ctTbbCW8\"],\"license\":\"MIT\"},\"node_modules/@bananapus/core/src/interfaces/IJBPermissioned.sol\":{\"keccak256\":\"0x5b038d4dee116584e88b230920e56d48e135053e3f7e5642eaea14a775c1dad7\",\"urls\":[\"bzz-raw://19e43102f349fd4a1da1c0943ffb8f2950007fe4bb4bb7e8f74fc142575d091b\",\"dweb:/ipfs/QmXHAt4KzDTdDZgDDefEXH2WKi7NcfkJb9R7nxW5uDqsNp\"],\"license\":\"MIT\"},\"node_modules/@bananapus/core/src/interfaces/IJBPermissions.sol\":{\"keccak256\":\"0x18870e500edf0fbadc353e273a5574701fb80466376b908c65e7cc3f11044d4d\",\"urls\":[\"bzz-raw://352a47c45853aec80e7acf0d286ade3106eb4cb456776b28a3c2f3f1091bed90\",\"dweb:/ipfs/QmQeYd3YbudYZy2hfbfht9kwhxhw4tuuLKMEYy9UY6dcSy\"],\"license\":\"MIT\"},\"node_modules/@bananapus/core/src/interfaces/IJBPriceFeed.sol\":{\"keccak256\":\"0x4bd84c0f1a5d4729ed709bcddd43f4c50ec4a165ece79780af8dce482ed07d4a\",\"urls\":[\"bzz-raw://62bac4bfb6982fb002f620c77e5c445e62d50241a5aa64a07e51d929f5a42180\",\"dweb:/ipfs/QmWgJUDreVY2BuMX38a1iUUR5kNbMwGnKG3VvurB7oZtuM\"],\"license\":\"MIT\"},\"node_modules/@bananapus/core/src/interfaces/IJBPrices.sol\":{\"keccak256\":\"0x99525f31440b955742dce84ba57de9fc1221139b5367c1f834723bef9e13e6e1\",\"urls\":[\"bzz-raw://6fa03f0cd4ad87dd7cbae7bf7f54463450874291773c8f70f2c31ef2cae62bb0\",\"dweb:/ipfs/QmSPajPV5ismteJuB6Spzm9VmhTj2iS3eVrfpJC1Zuzg8n\"],\"license\":\"MIT\"},\"node_modules/@bananapus/core/src/interfaces/IJBProjectUriRegistry.sol\":{\"keccak256\":\"0x2799475228987e4f8334ac33d3935f759c9b8133db7383b4f622dde7a5dc0502\",\"urls\":[\"bzz-raw://d751731740f45df74eea48c9667e847ee2cddb2980ab4939c86bd17e6c6ed89b\",\"dweb:/ipfs/QmXW8SLTuhdUpfn7pRpdsYdcyuim8RTyagU37ULcj5UZhT\"],\"license\":\"MIT\"},\"node_modules/@bananapus/core/src/interfaces/IJBProjects.sol\":{\"keccak256\":\"0x735c2fb8f1fa827f054ee77f7a0ae4b312656217acb75b624d2c8fd9dc40151b\",\"urls\":[\"bzz-raw://ee7fc92299a8633a80693ae63ab494dcd125f1789487a54a39dc0e5696e5996f\",\"dweb:/ipfs/QmX7YJD4pS2XhgQb7p3JbBAXynT7YGPXcZe92BiWWRrsCL\"],\"license\":\"MIT\"},\"node_modules/@bananapus/core/src/interfaces/IJBRedeemHook.sol\":{\"keccak256\":\"0x8ab46fcd7d0e739661eb76056ad93ff99106f38420ef0b4eb97fa9f4bb71a68a\",\"urls\":[\"bzz-raw://0ef96fcb7ad26281d444d8e0c677b25114fdd63b1c172d477e030dce8ba53b62\",\"dweb:/ipfs/Qmcx1jRQuwU4pZFuLxsSsx4oMbRaDfktHrPnXextgbWc5m\"],\"license\":\"MIT\"},\"node_modules/@bananapus/core/src/interfaces/IJBRedeemTerminal.sol\":{\"keccak256\":\"0xd1b4aa38154e08f1474745ea6bc8f8823fe8aa68c124d596742597f2296ea16d\",\"urls\":[\"bzz-raw://9bd254e833702dfe5e28db5fee76478947ab45b501c966501f719e73bbf0397a\",\"dweb:/ipfs/QmZ3Ng7TmVxL6ozSUhx4kYdQdZhoYi4t43cYZVAMz7Fn5M\"],\"license\":\"MIT\"},\"node_modules/@bananapus/core/src/interfaces/IJBRulesetApprovalHook.sol\":{\"keccak256\":\"0x592e95d159494421c6b1bcb362d0cee1df0132921697351304e9cd7af4fbd386\",\"urls\":[\"bzz-raw://5bebfd5fa67c1b6ea16fa2e76e9520e9dfe52a579f48dd94d0c2ec45f78ad178\",\"dweb:/ipfs/QmRUawEGtfYoYSHmHELGhvJoWuMsxLPKtqAXgsrb7fJboP\"],\"license\":\"MIT\"},\"node_modules/@bananapus/core/src/interfaces/IJBRulesets.sol\":{\"keccak256\":\"0xd3f817d22ecbe24da63c552c069bf0c4fbbf3bcd5c3b5633002afd24aacf6882\",\"urls\":[\"bzz-raw://c1185aec0f6b6f0f4d93ffeeed0972ccf38420b00fe570b5e1838ed2b1f5db49\",\"dweb:/ipfs/QmWz36azGTFnjFXpFSh6BHt4nactgjtF64L3PeTqs4ZqSR\"],\"license\":\"MIT\"},\"node_modules/@bananapus/core/src/interfaces/IJBSplitHook.sol\":{\"keccak256\":\"0xeb8dfac7a4b81897a1c3b5d0d853a406bcff33720fb187d5ca5bb3dcc0ba3a12\",\"urls\":[\"bzz-raw://36aaeef6107cfe5b0127e063ea215aac7200f8af02e28a48e61111abd3254688\",\"dweb:/ipfs/QmQ8yQANXnhQCAWBGKsKCDsJ3A8hnTKNg5tyo79GfWXTcV\"],\"license\":\"MIT\"},\"node_modules/@bananapus/core/src/interfaces/IJBSplits.sol\":{\"keccak256\":\"0x92deeb9e22ce2aaafc608b85e9250b8ea2deed1ebf64b7442038b157b2bfe0e6\",\"urls\":[\"bzz-raw://08bf29f0c13c2e8be46065277f67e44ecaea960cb5474f13775eece0672566c2\",\"dweb:/ipfs/QmeGu9C6tuBjfmeizmpzptxgGmch6Mbtm34NFwZxzMvqc4\"],\"license\":\"MIT\"},\"node_modules/@bananapus/core/src/interfaces/IJBTerminal.sol\":{\"keccak256\":\"0x19dc9bf8cbdc8f13ee5da9dc3a87047eacb94a3fc19740a286c1f0bad2cc39ca\",\"urls\":[\"bzz-raw://0b05ae6fda9a85672508232fd992b8a5f5ffd8096622eeb12c8a7b3317eb3867\",\"dweb:/ipfs/QmNh9Quj37BXYGdTdcCD1Q58PchRsE5TLbEZep56qS3MpV\"],\"license\":\"MIT\"},\"node_modules/@bananapus/core/src/interfaces/IJBToken.sol\":{\"keccak256\":\"0x71b1f9c3a0edd41910f77396e0be2c65596571176d53eb87e887c3c0da56c0fb\",\"urls\":[\"bzz-raw://6e956f0582f4525e83d845ee9b4a89959abc4f821414f6accbbee5b38960482d\",\"dweb:/ipfs/QmbSvjgmCgnfVmcCTGu8XwrV1Rufsf3M8hB8unFq6fTMdH\"],\"license\":\"MIT\"},\"node_modules/@bananapus/core/src/interfaces/IJBTokenUriResolver.sol\":{\"keccak256\":\"0xfa5cb00dcd6085d1ef912d071fe73c63f9478a2cd0f9d8bddaf659b6af2d0967\",\"urls\":[\"bzz-raw://282e4e7c342d65f77cde0e9a08fcaf20ef5cf379c7a48b639842c0ffd0b2afb8\",\"dweb:/ipfs/QmbnN3PEQeZaXdPLT75V1J79kMg7KqSMru37RHrL3z8Yf2\"],\"license\":\"MIT\"},\"node_modules/@bananapus/core/src/interfaces/IJBTokens.sol\":{\"keccak256\":\"0x6fd67af915dd541d9547c8297aa9ae269690e4ee23531db43f021bcacec6076f\",\"urls\":[\"bzz-raw://2e5e11954e9ab2319fffccb6563f3db400b8f7760d4ffe2165048a02c9c37fa6\",\"dweb:/ipfs/QmbDXtV83dK8EfiTjsTRf55R2XqPZzDKcjtYbW8sxQ5CFm\"],\"license\":\"MIT\"},\"node_modules/@bananapus/core/src/libraries/JBConstants.sol\":{\"keccak256\":\"0x9d3a9a953f859d8ec79a599577f8972de6da7199cc1bfa7fdad017d4d722bcb4\",\"urls\":[\"bzz-raw://f151fcb53a8d2684eff8b9e56ac790bcbcadd8199a4fd4d17c5b224b22936722\",\"dweb:/ipfs/QmdAz1ZtCE8nTiC4AxQNLfJhnY3ndGum2Lbef7seKdvTdR\"],\"license\":\"MIT\"},\"node_modules/@bananapus/core/src/structs/JBAccountingContext.sol\":{\"keccak256\":\"0x2907ff54d1e903cc7e0390dd88c3975884702dc2673642aacbe22b66560b56de\",\"urls\":[\"bzz-raw://a66a5381ce877b32f0e0058ceeaf843e9b6b2bc8af666c0c9f4a9d01091da004\",\"dweb:/ipfs/QmQynCetUr37dBkS1YwDS8evxuXGiqanW6THmeUxXtim8w\"],\"license\":\"MIT\"},\"node_modules/@bananapus/core/src/structs/JBAfterPayRecordedContext.sol\":{\"keccak256\":\"0xd26c3a774ff38be79064085970454fe2603a23a638c76270d5b1b3829206c3e8\",\"urls\":[\"bzz-raw://3b55dbe3bf1ef625b7ca04efab3de35406e6041d5b3d82c7265469c500e2b702\",\"dweb:/ipfs/QmUdBDo4Lt3mcsFcsXT2mqq3czFwZjQJFPLM89YA2VtD7k\"],\"license\":\"MIT\"},\"node_modules/@bananapus/core/src/structs/JBAfterRedeemRecordedContext.sol\":{\"keccak256\":\"0x521f5d23a36f0da72362cd84890cc867bd83baa8dc836ba6c5066d51dba2f163\",\"urls\":[\"bzz-raw://6cc461313286dde62d045d6288e87bae5032e035796326f5b1ed6218e58aa9da\",\"dweb:/ipfs/QmQS2AkQwf2ANQieDuaUnpJEdXChoLv4CCbZqHkfywYPSR\"],\"license\":\"MIT\"},\"node_modules/@bananapus/core/src/structs/JBCurrencyAmount.sol\":{\"keccak256\":\"0x12fe4b43f4824994624d4fe0abbd88c3fe7867fd637edb65c7f456dab27e2d6e\",\"urls\":[\"bzz-raw://8003a3e8f932cf891e86b827e67c9d31b0d34c2712e18c2bc333cfe5284ba6d5\",\"dweb:/ipfs/QmSoA6RsDcSnNzk6CB7KZtALkHmeSDAi2g6fg3TDmLDkWX\"],\"license\":\"MIT\"},\"node_modules/@bananapus/core/src/structs/JBFundAccessLimitGroup.sol\":{\"keccak256\":\"0x9fdaa8d017b72da25f583700a444a86849df053f7fb8eac874ec5139bcf651e5\",\"urls\":[\"bzz-raw://c8e44c49ee444a98424a0dbeb6897a76a0bf00d88a613f62ac2012afdac754ee\",\"dweb:/ipfs/QmdYkAiRi5bXM1YYNkc7BiqimHSFodMGn1cjHR5hcpm4xH\"],\"license\":\"MIT\"},\"node_modules/@bananapus/core/src/structs/JBPermissionsData.sol\":{\"keccak256\":\"0x8f0f69a6ebf5f3704e3dfcb3712fb9d3f94ae7c1ab89bf3e37bad42a3e7a0487\",\"urls\":[\"bzz-raw://57b0c5e52843e2217082889ed47b4da3943e0da4590d5768dcebfe3edad4a6b8\",\"dweb:/ipfs/QmRz48vuWLw81kUP836rh1qzqWiJFGbksgRUA9xGEDNKTY\"],\"license\":\"MIT\"},\"node_modules/@bananapus/core/src/structs/JBRuleset.sol\":{\"keccak256\":\"0x15b2bf3174d84846a91ccbf5a344dfb125b55ed9cf50102db8d6868844225189\",\"urls\":[\"bzz-raw://647416b025dbd941094db89cbc69f755c155bd6c87be3f322394ccc4a8e0442d\",\"dweb:/ipfs/QmTCL9xcHnxQ4t5AmCPoZvXDUPW5xhzhyyXYbkMdyg44au\"],\"license\":\"MIT\"},\"node_modules/@bananapus/core/src/structs/JBRulesetConfig.sol\":{\"keccak256\":\"0x0be470df286939259a6b98bc71459e661e81d56a58226d6a574ae1484f8f8e6c\",\"urls\":[\"bzz-raw://64592c279ba7518ac180c835a539897163f299a439065f2cc8aa54086a2c9ad7\",\"dweb:/ipfs/QmaEepVvFJdXcDBMMr7SQYjZSDJXPtCca95kQY5rZbra6U\"],\"license\":\"MIT\"},\"node_modules/@bananapus/core/src/structs/JBRulesetMetadata.sol\":{\"keccak256\":\"0xfea54c9f98416d2aa05309e7ff76967d6968a614850a1e33e48fde793ea8b514\",\"urls\":[\"bzz-raw://bf55386cbab90dbc1296b2b0cbfdc217a4500d67702e4a093a4c78bd127ecd5c\",\"dweb:/ipfs/QmTRq9mZrNSXu7oCZwti4JbBFrbY6A5msRqi9RbtL49NAj\"],\"license\":\"MIT\"},\"node_modules/@bananapus/core/src/structs/JBRulesetWithMetadata.sol\":{\"keccak256\":\"0x1bcfadf20488f6df65227f8d4d0fbf9b7539456a2389567f7fe3900d23289bc3\",\"urls\":[\"bzz-raw://0a15c399a71e5373f8c0484c6d6b83521eda31e063a2c53e4c5cec4e74550343\",\"dweb:/ipfs/QmQwi8zkjoTVXbK89NeETYimWCacTrNsesJdpLSvGdqMPX\"],\"license\":\"MIT\"},\"node_modules/@bananapus/core/src/structs/JBSplit.sol\":{\"keccak256\":\"0x1d40fa4f1c911a53b9139f3d44d27cb58fa5c5d2cd793c7a21ccf52b9e61f848\",\"urls\":[\"bzz-raw://9897d2c29fc65fe16e4eac0b7b8b6fd8ef0b0cc501986f7f0c3a78c4ec1dbb60\",\"dweb:/ipfs/QmXcHoVjCYWWCz4hm2KZ6JxtB4YNq7jmXa2evLkga59Xwq\"],\"license\":\"MIT\"},\"node_modules/@bananapus/core/src/structs/JBSplitGroup.sol\":{\"keccak256\":\"0xda7da6e88aac2906c7ea4027660088daf217edc632bebca4d72795aae8921564\",\"urls\":[\"bzz-raw://ae1939d17e94cb51484f31ce64cf0df990445a338fb9b38d39a7baf28275ae4a\",\"dweb:/ipfs/QmUhPnJiWnYhFdtLvZnrPopAdbYXxETpGjvxjPDignpTGY\"],\"license\":\"MIT\"},\"node_modules/@bananapus/core/src/structs/JBSplitHookContext.sol\":{\"keccak256\":\"0xfe34e6860b00ca93d71f44e72882281b2c57c31303151af05795c74cfdd2e51d\",\"urls\":[\"bzz-raw://08acab094888e9c929b6f6f972d89ddbb31e5867675e7e7c602d25fcb2c0f402\",\"dweb:/ipfs/QmPNdXM185cTyXQSodVr4JMviHx88jrWu7dipgkp9xTNgJ\"],\"license\":\"MIT\"},\"node_modules/@bananapus/core/src/structs/JBTerminalConfig.sol\":{\"keccak256\":\"0xd162f3821a1ccafbc8d7d108369e39ac3048445a8c7fe7a3fa97a6343f9eefaa\",\"urls\":[\"bzz-raw://82172ea0407b6d9edc45e408c7e8edb8e129adf49a94349fe3a5862da9bc044e\",\"dweb:/ipfs/QmWheF5Tjq2hcabnSzfYqdFHUA1YxYEdAPZaRw9N166V1d\"],\"license\":\"MIT\"},\"node_modules/@bananapus/core/src/structs/JBTokenAmount.sol\":{\"keccak256\":\"0x5cf0626b73a596c1e2da17c89ae039a7c0374310b060d48568d3b6c11fbe6180\",\"urls\":[\"bzz-raw://63348b50be95e2995409394a17caffc563a646f0972650a1230bf864fbd3219b\",\"dweb:/ipfs/QmZXZpS3SbFD5nWaCauf6AqbEhLURv5qsKHpThBvQgDU6u\"],\"license\":\"MIT\"},\"node_modules/@bananapus/permission-ids/src/JBPermissionIds.sol\":{\"keccak256\":\"0xf61109f6b217a80d5e5391f548fb6f2e451f7dbee3fabfc04cf17e88722203bc\",\"urls\":[\"bzz-raw://ac776ab1cd621c22bd7973471acdfa187f3abc659ad9a3ef6ed10b6447dfcf9c\",\"dweb:/ipfs/QmYLbaHt68qcuMzkiKpe96jMjiWUq1F3u8yMhxmZ3pnnWu\"],\"license\":\"MIT\"},\"node_modules/@openzeppelin/contracts/token/ERC20/IERC20.sol\":{\"keccak256\":\"0xc6a8ff0ea489379b61faa647490411b80102578440ab9d84e9a957cc12164e70\",\"urls\":[\"bzz-raw://0ea104e577e63faea3b69c415637e99e755dcbf64c5833d7140c35a714d6d90c\",\"dweb:/ipfs/Qmau6x4Ns9XdyynRCNNp3RhLqijJjFm7z5fyZazfYFGYdq\"],\"license\":\"MIT\"},\"node_modules/@openzeppelin/contracts/token/ERC20/extensions/IERC20Permit.sol\":{\"keccak256\":\"0x6008dabfe393240d73d7dd7688033f72740d570aa422254d29a7dce8568f3aff\",\"urls\":[\"bzz-raw://f5196ec75139918c6c7bb4251b36395e668f1fa6d206beba7e7520e74913940d\",\"dweb:/ipfs/QmSyqjksXxmm2mCG6qRd1yuwLykypkSVBbnBnGqJRcuJMi\"],\"license\":\"MIT\"},\"node_modules/@openzeppelin/contracts/token/ERC20/utils/SafeERC20.sol\":{\"keccak256\":\"0x37bb49513c49c87c4642a891b13b63571bc87013dde806617aa1efb54605f386\",\"urls\":[\"bzz-raw://b3036b3a83b7c48f96641f2a9002b9f2dcb6a5958dd670894ada21ae8229b3d0\",\"dweb:/ipfs/QmUNfSBdoVtjhETaUJCYcaC7pTMgbhht926tJ2uXJbiVd3\"],\"license\":\"MIT\"},\"node_modules/@openzeppelin/contracts/token/ERC721/IERC721.sol\":{\"keccak256\":\"0x5ef46daa3b58ef2702279d514780316efaa952915ee1aa3396f041ee2982b0b4\",\"urls\":[\"bzz-raw://2f8f2a76e23b02fc69e8cd24c3cb47da6c7af3a2d6c3a382f8ac25c6e094ade7\",\"dweb:/ipfs/QmPV4ZS4tPVv4mTCf9ejyZ1ai57EEibDRj7mN2ARDCLV5n\"],\"license\":\"MIT\"},\"node_modules/@openzeppelin/contracts/utils/Address.sol\":{\"keccak256\":\"0xaf28a975a78550e45f65e559a3ad6a5ad43b9b8a37366999abd1b7084eb70721\",\"urls\":[\"bzz-raw://b7bd24e224f67f65bfadf85dc2929fa965456bb2415478bd0125471b5ce35245\",\"dweb:/ipfs/QmRaydGr8BTHs1kvaZfsNU69pKzUAGFrvABn1KiRSbE51y\"],\"license\":\"MIT\"},\"node_modules/@openzeppelin/contracts/utils/Context.sol\":{\"keccak256\":\"0x493033a8d1b176a037b2cc6a04dad01a5c157722049bbecf632ca876224dd4b2\",\"urls\":[\"bzz-raw://6a708e8a5bdb1011c2c381c9a5cfd8a9a956d7d0a9dc1bd8bcdaf52f76ef2f12\",\"dweb:/ipfs/Qmax9WHBnVsZP46ZxEMNRQpLQnrdE4dK8LehML1Py8FowF\"],\"license\":\"MIT\"},\"node_modules/@openzeppelin/contracts/utils/Create2.sol\":{\"keccak256\":\"0x2b9807d194b92f1068d868e9587d27037264a9a067c778486f86ae21c61cbd5e\",\"urls\":[\"bzz-raw://22d71f40aa38a20cf466d8647452a6e3f746353474f8c8af40f03aa8cae38420\",\"dweb:/ipfs/QmQ752Hz5av7YDK8pFojzb5qgeXQvfsdkdwkHVzaXoYAZR\"],\"license\":\"MIT\"},\"node_modules/@openzeppelin/contracts/utils/introspection/IERC165.sol\":{\"keccak256\":\"0x4296879f55019b23e135000eb36896057e7101fb7fb859c5ef690cf14643757b\",\"urls\":[\"bzz-raw://87b3541437c8c443ccd36795e56a338ed12855eec17f8da624511b8d1a7e14df\",\"dweb:/ipfs/QmeJQCtZrQjtJLr6u7ZHWeH3pBnjtLWzvRrKViAi7UZqxL\"],\"license\":\"MIT\"},\"node_modules/@openzeppelin/contracts/utils/structs/BitMaps.sol\":{\"keccak256\":\"0x3616f1b0d0a9ee1ca8f0953ecaceb9230e36f691c7974d30f964212acff52d2b\",\"urls\":[\"bzz-raw://d4bebdd07b31ac28e3e596ac6f0333da90a4e332405aa7d65f3a3a7e0b4cf15e\",\"dweb:/ipfs/QmckoDU5bBnye2UtPcrfJNahLD2FbxrnPP9nrREMWPpnug\"],\"license\":\"MIT\"},\"src/BPOptimismSucker.sol\":{\"keccak256\":\"0x2ca90f2e2cbd6e06e63cd6b431490a5ca0b40db68478290774f773d4945b901b\",\"urls\":[\"bzz-raw://6266afde708b37aad572404bd7cebcfdd904a3479ce35de4e71f898d96986120\",\"dweb:/ipfs/QmcS6nB6tfjmjLjyoppdk3hhNFWaRmsA6sWpJVvM44aiFn\"],\"license\":\"MIT\"},\"src/BPSucker.sol\":{\"keccak256\":\"0x5421bacf8c887ae23ad64bb1e85b2e21039f4a80d2ac6cac9ad0b0c5612438cf\",\"urls\":[\"bzz-raw://687070b292273b092a366882b63393bcaef3cd9ed83dc06fe55e135ed02d7f8e\",\"dweb:/ipfs/QmWkm8LpDXkvBEZ8wJh7aM6k9ydEivNTuQWkxb56ubkxMh\"],\"license\":\"MIT\"},\"src/deployers/BPOptimismSuckerDeployer.sol\":{\"keccak256\":\"0xd6a092608391bf3642e8b3a780449cfba8cdacae0beacf40adbc3b53885c7863\",\"urls\":[\"bzz-raw://788e6366ffbc4a3847f637984e7d881371528374f5fbb6bb337a00e011a519ca\",\"dweb:/ipfs/QmZzChZYNm1C9LwboQReZ6FLiru5dqL8THPA85wGnsP95Q\"],\"license\":\"MIT\"},\"src/enums/BPAddToBalanceMode.sol\":{\"keccak256\":\"0xa6dcd5c6225e2b697775d37a6f3a8ae4030f7af1a7cb4bb91d572eef65134e43\",\"urls\":[\"bzz-raw://583699b0f81837a739e5e54a1e0b0400a6021602bd7f48472c8785b22d3f25eb\",\"dweb:/ipfs/QmfL4Jr6p8B5q8uFX1ZfUS5vPsUxiGgMy5udVg9z2kPUQk\"],\"license\":\"MIT\"},\"src/interfaces/IBPSucker.sol\":{\"keccak256\":\"0xb0ce4e44f966d43f7ded2b59b98fc96a2a71522f44d06245882d2bbd89ff32d9\",\"urls\":[\"bzz-raw://290f1f3630d3749fc88f84944a2fd3a785bcb44a892844de1d0e1078829c7149\",\"dweb:/ipfs/QmcKDnSDxmkkex1Tr9t3ZU7SKNXXK2EtNowu3FZZYH9hZL\"],\"license\":\"MIT\"},\"src/interfaces/IBPSuckerDeployer.sol\":{\"keccak256\":\"0xe252e890c4b5e12d5fa537a11cd2fad936f41be80240301ace8afca3de481222\",\"urls\":[\"bzz-raw://730855964dd0629f3d514ed52f59d80d02786733c3b8b5cf21e69524de7f8829\",\"dweb:/ipfs/QmUuoYEmnzUNn3hANGrg8sDZdjoaEbgWMWLepsSQt9MUyw\"],\"license\":\"MIT\"},\"src/interfaces/OPMessenger.sol\":{\"keccak256\":\"0x0be6648aa7ed6272db8d415992d16dc10b36a4a8ed2f8e3adac8433ca7834dae\",\"urls\":[\"bzz-raw://1a3aeecda2b108059ce2b271364121d69afa4afcd2d0341eae31d181d5a6881d\",\"dweb:/ipfs/QmcaB3EzUW8btTVa1FCgmhTFqTSAwdmK47K95cV88vg9J9\"],\"license\":\"MIT\"},\"src/interfaces/OPStandardBridge.sol\":{\"keccak256\":\"0xb5717563fc9dcbe47ab2ed8b98a1a5757b51935989b9a78091eb590c8dbb8d5a\",\"urls\":[\"bzz-raw://5d9acbe757d1103be408303d53c25ee8a6b6dc799e8dd58e4756ac4028b4ccd5\",\"dweb:/ipfs/QmVuqESXkFhrcRAAfTkXSXp7uWrN5QA7eAH6x3DpeAoAMe\"],\"license\":\"MIT\"},\"src/structs/BPClaim.sol\":{\"keccak256\":\"0x63a12013ec4c221781b057185a0e01c83ac19dcef115ad6238d25a22011da071\",\"urls\":[\"bzz-raw://0307e4377f2cbd3ec561405eb2ffa07e0d9fe2c39522eb0706e91b46efa1b2a7\",\"dweb:/ipfs/QmXKeKQ6mJGehNJt3v2fqE22MFoGjcpm2x9hHA25vu7xAH\"],\"license\":\"MIT\"},\"src/structs/BPInboxTreeRoot.sol\":{\"keccak256\":\"0xff494c45ee76d14e2ffb3cd0f22412b4a1a4d8e37b957a3ffb82b0b9db4f74ab\",\"urls\":[\"bzz-raw://a896310d4dcfecca8b1927bf82832c9b5de5a455228fd9aad2530729ce61739b\",\"dweb:/ipfs/QmUiep5HvdqgJZyJqt4kKxWuP2odhY5W9kX7pCuovTr3LM\"],\"license\":\"MIT\"},\"src/structs/BPLeaf.sol\":{\"keccak256\":\"0xaa2257b6d8fc05d9b37fdb40472cd2f4bed45e7ddc1ea9082ca5296215602bc8\",\"urls\":[\"bzz-raw://ebdf0d3c3961adb71fd7174f9a8eca8332202d07ee5a584abbb06b7c15db61d0\",\"dweb:/ipfs/QmWtqWUncWvZotfno2kiU5TeT3WTR9zfPzRTiktZskyS13\"],\"license\":\"MIT\"},\"src/structs/BPMessageRoot.sol\":{\"keccak256\":\"0xab832c9e92d412cc0d8e6758777694955fef6dcbc919f96b33052d68d0516d1d\",\"urls\":[\"bzz-raw://fa9fe2604015f05e1a4f2c1a92f4ef7b6cba3d08d9e7daa2b20190a9b1bce39c\",\"dweb:/ipfs/QmUDcrNmqnp1dPwkmPTjsu7Egbwtgsk42G9FNdrHk6JcB2\"],\"license\":\"MIT\"},\"src/structs/BPOutboxTree.sol\":{\"keccak256\":\"0xed569423f6ae3dafee5681a60b7c5d24b0c5f33ff0763937952e938be374d79e\",\"urls\":[\"bzz-raw://4dafb1348a51324105b2ee100e2174fee0f1397f0b2dd00483b2dcf049477ce4\",\"dweb:/ipfs/Qmcf8jizBW7BGGnHBVetaDvYcZ75ov8oYw8LubaNUHrHCv\"],\"license\":\"MIT\"},\"src/structs/BPRemoteToken.sol\":{\"keccak256\":\"0x703d0112f181683d9b3508bf9fc0ef2f5c3cac73de0a718d9f405561fad14622\",\"urls\":[\"bzz-raw://80c0dd5e9ef7648efc48306da2c50829490c41cf09292f0f82fa3e24ce9dbe37\",\"dweb:/ipfs/QmYTgR72bVH3r1xKvMaE1tRUAkqkZjZa2v1eki1973qn3U\"],\"license\":\"MIT\"},\"src/structs/BPTokenMapping.sol\":{\"keccak256\":\"0x84865bda925cdc9a608cbbfc487619acba391f98ae12bbbfdbc5779d617a17d9\",\"urls\":[\"bzz-raw://3bbc1fdd38feaf64fd4914bddb62cda7e5b8ee0f046a0eac8cfcb15f9493bcc5\",\"dweb:/ipfs/QmXgAx7sr1M8r71YrSeQJGAB1uhvdxpQyS633UgJvLCQfb\"],\"license\":\"MIT\"},\"src/utils/MerkleLib.sol\":{\"keccak256\":\"0x6803b76f79362d9b5cd8e32eb1da6ed675146554dcd2f77747c4406f5f7a25f4\",\"urls\":[\"bzz-raw://3db2984a7eae5e7dc78517fd3a696180e95fdf00bf3267b31d1dbaddb0865cab\",\"dweb:/ipfs/QmPG8Nxwcb5Q7unUzMLCwaaRv8MvR7rskfacSDqbDW5zPZ\"],\"license\":\"MIT OR Apache-2.0\"}},\"version\":1}",
			"args": [
				"0x44d360C8c4105f180e07668bd3374c7A6F812FAF",
				"0xee922D1cb6551D45E2d9B197EC423Fb8C3C85d50",
				"0x711eda44F3D42F3d255846b5EE36Cf70Fd912E50",
				"0x6a65B75A3f37C6702A117Fb87B6bCaC62657d216"
			],
			"bytecode": "0x61010060405234801561001157600080fd5b50604051614ad6380380614ad68339810160408190526100309161006a565b6001600160a01b03918216608052811660e05291821660a0521660c0526100c9565b6001600160a01b038116811461006757600080fd5b50565b6000806000806080858703121561008057600080fd5b845161008b81610052565b602086015190945061009c81610052565b60408601519093506100ad81610052565b60608601519092506100be81610052565b939692955090935050565b60805160a05160c05160e0516149d06101066000396000505060006101900152600061016f01526000818161010a01526101b101526149d06000f3fe608060405234801561001057600080fd5b50600436106100625760003560e01c80631213036614610067578063927ede2d14610097578063c39ec124146100aa578063cc8b6f4f146100dd578063ee9a31a2146100f2578063f434c91414610105575b600080fd5b61007a6100753660046102b7565b61012c565b6040516001600160a01b0390911681526020015b60405180910390f35b60005461007a906001600160a01b031681565b6100cd6100b83660046102f1565b60026020526000908152604090205460ff1681565b604051901515815260200161008e565b6100f06100eb366004610315565b61023b565b005b60015461007a906001600160a01b031681565b61007a7f000000000000000000000000000000000000000000000000000000000000000081565b6040516bffffffffffffffffffffffff193360601b16602082015260348101829052600090605401604051602081830303815290604052805190602001209150817f00000000000000000000000000000000000000000000000000000000000000007f00000000000000000000000000000000000000000000000000000000000000007f000000000000000000000000000000000000000000000000000000000000000060008760006040516101e1906102aa565b6101f09695949392919061034e565b8190604051809103906000f5905080158015610210573d6000803e3d6000fd5b506001600160a01b0381166000908152600260205260409020805460ff191660011790559392505050565b6000546001600160a01b031615158061025e57506001546001600160a01b031615155b1561027c5760405163ccbe17fd60e01b815260040160405180910390fd5b600080546001600160a01b039384166001600160a01b03199182161790915560018054929093169116179055565b6145ee806103ad83390190565b600080604083850312156102ca57600080fd5b50508035926020909101359150565b6001600160a01b03811681146102ee57600080fd5b50565b60006020828403121561030357600080fd5b813561030e816102d9565b9392505050565b6000806040838503121561032857600080fd5b8235610333816102d9565b91506020830135610343816102d9565b809150509250929050565b6001600160a01b03878116825286811660208301528581166040830152841660608201526080810183905260c081016002831061039b57634e487b7160e01b600052602160045260246000fd5b8260a083015297965050505050505056fe6101a06040523480156200001257600080fd5b50604051620045ee380380620045ee8339810160408190526200003591620001c1565b6001600160a01b0380851660805280871660c05280861660e0528690869086908690869086908316156200006a57826200006c565b305b6001600160a01b03166101205261014082905233610100528060018111156200009957620000996200024c565b60a0816001811115620000b057620000b06200024c565b905250505050505050336001600160a01b031663927ede2d6040518163ffffffff1660e01b8152600401602060405180830381865afa158015620000f8573d6000803e3d6000fd5b505050506040513d601f19601f820116820180604052508101906200011e919062000262565b6001600160a01b0316610160526040805163774d18d160e11b81529051339163ee9a31a29160048083019260209291908290030181865afa15801562000168573d6000803e3d6000fd5b505050506040513d601f19601f820116820180604052508101906200018e919062000262565b6001600160a01b0316610180525062000289945050505050565b6001600160a01b0381168114620001be57600080fd5b50565b60008060008060008060c08789031215620001db57600080fd5b8651620001e881620001a8565b6020880151909650620001fb81620001a8565b60408801519095506200020e81620001a8565b60608801519094506200022181620001a8565b608088015160a08901519194509250600281106200023e57600080fd5b809150509295509295509295565b634e487b7160e01b600052602160045260246000fd5b6000602082840312156200027557600080fd5b81516200028281620001a8565b9392505050565b60805160a05160c05160e0516101005161012051610140516101605161018051614229620003c5600039600081816101d50152818161131801526113670152600081816105bd015281816114bc01528181611d770152611ddd015260008181610249015281816107cc01528181610849015281816109e601528181610e6d01528181610f16015281816116590152818161171e0152818161179b01528181611a2701528181611ae001528181611be20152611d0a0152600081816103ae01528181611398015281816114e70152611db3015260006104880152600081816101620152610a0f01526000818161037a0152818161073d01528181610e93015281816116940152611a560152600081816104bc01528181610b830152610e0f0152600081816105890152818161110201526111ab01526142296000f3fe6080604052600436106101445760003560e01c806388bc2ef3116100b6578063c1b8411a1161006f578063c1b8411a14610476578063c6525f2c146104aa578063e7f82c75146104eb578063ed0e26b914610518578063f434c91414610577578063fc8fa43d146105ab57600080fd5b806388bc2ef314610368578063ad42938b1461039c578063b59ef50f146103d0578063b71c1179146103f0578063bf557aee14610403578063c18541291461045657600080fd5b806356539f391161010857806356539f391461023757806361c864171461027957806369ce22331461028e57806369d31fdd146102ae5780636dfa7268146102c15780637de6fba2146102f057600080fd5b80631d831d5c146101505780632241dc52146101a15780632847f1f3146101c357806338eb2044146101f7578063551ebbf01461021757600080fd5b3661014b57005b600080fd5b34801561015c57600080fd5b506101847f000000000000000000000000000000000000000000000000000000000000000081565b6040516001600160a01b0390911681526020015b60405180910390f35b3480156101ad57600080fd5b506101c16101bc366004613bb6565b6105df565b005b3480156101cf57600080fd5b506101847f000000000000000000000000000000000000000000000000000000000000000081565b34801561020357600080fd5b506101c1610212366004613c42565b610617565b34801561022357600080fd5b506101c1610232366004613c73565b6109b0565b34801561024357600080fd5b5061026b7f000000000000000000000000000000000000000000000000000000000000000081565b604051908152602001610198565b34801561028557600080fd5b5061026b610b2f565b34801561029a57600080fd5b506101c16102a9366004613cbd565b610b7f565b6101c16102bc366004613c42565b610bf8565b3480156102cd57600080fd5b506102e16102dc366004613cbd565b610d69565b60405161019893929190613cda565b3480156102fc57600080fd5b5061033e61030b366004613cbd565b6003602052600090815260409020805460019091015463ffffffff82169164010000000090046001600160a01b03169083565b6040805163ffffffff90941684526001600160a01b03909216602084015290820152606001610198565b34801561037457600080fd5b506101847f000000000000000000000000000000000000000000000000000000000000000081565b3480156103a857600080fd5b506101847f000000000000000000000000000000000000000000000000000000000000000081565b3480156103dc57600080fd5b506101c16103eb366004613d33565b610dd3565b6101c16103fe366004613cbd565b610fda565b34801561040f57600080fd5b5061044661041e366004613cbd565b6001600160a01b03908116600090815260036020526040902054640100000000900416151590565b6040519015158152602001610198565b34801561046257600080fd5b506101c1610471366004613d46565b611084565b34801561048257600080fd5b506101847f000000000000000000000000000000000000000000000000000000000000000081565b3480156104b657600080fd5b506104de7f000000000000000000000000000000000000000000000000000000000000000081565b6040516101989190613dbf565b3480156104f757600080fd5b5061026b610506366004613cbd565b60026020526000908152604090205481565b34801561052457600080fd5b50610558610533366004613cbd565b600160208190526000918252604090912080549101546001600160401b039091169082565b604080516001600160401b039093168352602083019190915201610198565b34801561058357600080fd5b506101847f000000000000000000000000000000000000000000000000000000000000000081565b3480156105b757600080fd5b506101847f000000000000000000000000000000000000000000000000000000000000000081565b60005b818110156106125761060a8383838181106105ff576105ff613de7565b905060800201610617565b6001016105e2565b505050565b60006106266020830183613cbd565b9050600061eeee61063a6020850185613cbd565b6001600160a01b031614905080801561066d575061eeee6106616060850160408601613cbd565b6001600160a01b031614155b8015610692575060006106866060850160408601613cbd565b6001600160a01b031614155b156106d1576106a76060840160408501613cbd565b604051630a0a3b6b60e31b81526001600160a01b0390911660048201526024015b60405180910390fd5b62030d406106e56040850160208601613dfd565b63ffffffff161080156106f6575080155b156107385762030d4061070f6040850160208601613dfd565b604051634f3dbeb360e11b815263ffffffff9283166004820152911660248201526044016106c8565b61086f7f00000000000000000000000000000000000000000000000000000000000000006001600160a01b031663293c49996040518163ffffffff1660e01b8152600401602060405180830381865afa158015610799573d6000803e3d6000fd5b505050506040513d601f19601f820116820180604052508101906107bd9190613e23565b6040516331a9108f60e11b81527f000000000000000000000000000000000000000000000000000000000000000060048201526001600160a01b039190911690636352211e90602401602060405180830381865afa158015610823573d6000803e3d6000fd5b505050506040513d601f19601f820116820180604052508101906108479190613e23565b7f0000000000000000000000000000000000000000000000000000000000000000601c6110b8565b60006108816060850160408601613cbd565b6001600160a01b03161480156108b157506001600160a01b03821660009081526020819052604090206001015415155b1561090c576001600160a01b0380831660009081526003602090815260408083208151606081018352815463ffffffff811682526401000000009004909516928501929092526001909101549083015261090c91849061123c565b604051806060016040528084602001602081019061092a9190613dfd565b63ffffffff1681526020016109456060860160408701613cbd565b6001600160a01b0390811682526060909501356020918201529284166000908152600384526040908190208251815495840151909616640100000000026001600160c01b031990951663ffffffff909616959095179390931784559091015160019092019190915550565b6001600160a01b0383166109d7576040516309a9c30b60e41b815260040160405180910390fd5b60405163ea78803f60e01b81527f000000000000000000000000000000000000000000000000000000000000000060048201526000907f00000000000000000000000000000000000000000000000000000000000000006001600160a01b03169063ea78803f90602401602060405180830381865afa158015610a5e573d6000803e3d6000fd5b505050506040513d601f19601f82011682018060405250810190610a829190613e23565b90506001600160a01b038116610aab57604051635a33845560e01b815260040160405180910390fd5b6001600160a01b03828116600090815260036020526040902054640100000000900416610af65760405163393e175160e01b81526001600160a01b03831660048201526024016106c8565b610b0b6001600160a01b0382163330886115e3565b6000610b198287858761164a565b9050610b278684838861183d565b505050505050565b6000466001819003610b4357600a91505090565b80600a03610b5357600191505090565b8062aa36a703610b675762aa37dc91505090565b8062aa37dc03610b7b5762aa36a791505090565b5090565b60007f00000000000000000000000000000000000000000000000000000000000000006001811115610bb357610bb3613da9565b14610bd15760405163218a9a2d60e11b815260040160405180910390fd5b6001600160a01b038116600090815260026020526040902054610bf59082906119c1565b50565b610c0133611d73565b610c1e57604051630439dbd360e51b815260040160405180910390fd5b60208101803590600290600090610c359085613cbd565b6001600160a01b03166001600160a01b031681526020019081526020016000206000828254610c649190613e56565b90915550600190506000610c7b6020840184613cbd565b6001600160a01b0316815260208101919091526040908101600020546001600160401b031690610cb19060608401908401613e7e565b6001600160401b03161115610bf5576040810160016000610cd56020850185613cbd565b6001600160a01b031681526020810191909152604001600020610cf88282613e9b565b50610d0890506020820182613cbd565b6001600160a01b03167f551b6b99b4c48e3265d2885ab0d93779be2402293261e074f7bf74b2c8f45b6f610d426060840160408501613e7e565b604080516001600160401b039092168252606085013560208301520160405180910390a250565b6000602081815291815260409081902080546001820154835161044081018086526001600160401b0390931695919490926002850192849283019184919082845b815481526020019060010190808311610daa575050509183525050602091820154910152905083565b610e0b6060820135610de86020840184613cbd565b6080840135610dfd6060860160408701613cbd565b602086013560a08701611e70565b60017f00000000000000000000000000000000000000000000000000000000000000006001811115610e3f57610e3f613da9565b03610e5e57610e5e610e546020830183613cbd565b60808301356119c1565b604051632eec7b5560e11b81527f000000000000000000000000000000000000000000000000000000000000000060048201527f00000000000000000000000000000000000000000000000000000000000000006001600160a01b031690635dd8f6aa90602401602060405180830381865afa158015610ee2573d6000803e3d6000fd5b505050506040513d601f19601f82011682018060405250810190610f069190613e23565b6001600160a01b031663c7fb92de7f000000000000000000000000000000000000000000000000000000000000000060608401803590610f499060408701613cbd565b6040516001600160e01b031960e086901b168152600481019390935260248301919091526001600160a01b0316604482015260a06064820152600060a48201819052608482015260c4016020604051808303816000875af1158015610fb2573d6000803e3d6000fd5b505050506040513d601f19601f82011682018060405250810190610fd69190613ece565b5050565b6001600160a01b0380821660008181526003602090815260408083208151606081018352815463ffffffff811682526401000000009004909616868401526001908101548683018190529484529183905290912001541015611079576040808201516001600160a01b0384166000908152602081905282902060010154915163091df9e560e31b81526106c89290600401918252602082015260400190565b610fd634838361123c565b60005b81811015610612576110b08383838181106110a4576110a4613de7565b90506104a00201610dd3565b600101611087565b336001600160a01b038416811480159061116f575060405163c161c93f60e01b81526001600160a01b038281166004830152858116602483015260448201859052606482018490527f0000000000000000000000000000000000000000000000000000000000000000169063c161c93f90608401602060405180830381865afa158015611149573d6000803e3d6000fd5b505050506040513d601f19601f8201168201806040525081019061116d9190613ee7565b155b8015611218575060405163c161c93f60e01b81526001600160a01b038281166004830152858116602483015260006044830152606482018490527f0000000000000000000000000000000000000000000000000000000000000000169063c161c93f90608401602060405180830381865afa1580156111f2573d6000803e3d6000fd5b505050506040513d601f19601f820116820180604052508101906112169190613ee7565b155b156112365760405163075fd2b160e01b815260040160405180910390fd5b50505050565b6000831561125d576040516352864b0160e11b815260040160405180910390fd5b6001600160a01b0383166000908152602081905260408120600181018054908390558154909291908290611299906001600160401b0316613f09565b91906101000a8154816001600160401b0302191690836001600160401b031602179055905060006001600160a01b031684602001516001600160a01b0316036113005760405163393e175160e01b81526001600160a01b03861660048201526024016106c8565b6001600160a01b03851661eeee146113fb5761133d857f000000000000000000000000000000000000000000000000000000000000000084611fa0565b6020808501518551604080519384018152600084525163540abf7360e01b81526001600160a01b037f0000000000000000000000000000000000000000000000000000000000000000169363540abf73936113c4938b9391927f0000000000000000000000000000000000000000000000000000000000000000928a929190600401613f7f565b600060405180830381600087803b1580156113de57600080fd5b505af11580156113f2573d6000803e3d6000fd5b505050506113ff565b8192505b6001600160a01b038516600090815260208190526040812061142390600201612030565b6001600160a01b0387166000908152602081905260408120602201549192509061144f90600190613fd2565b604080516060810182526020808a01516001600160a01b039081168352818301898152845180860186526001600160401b03808b1682528185018a9052858701918252955194518316602486015290516044850152518051909416606484015292015160848201529192507f00000000000000000000000000000000000000000000000000000000000000001690633dbb202b9087907f00000000000000000000000000000000000000000000000000000000000000009060a40160408051601f198184030181529181526020820180516001600160e01b03166369d31fdd60e01b179052516001600160e01b031960e086901b168152611559929190620493e090600401613fe5565b6000604051808303818588803b15801561157257600080fd5b505af1158015611586573d6000803e3d6000fd5b5050604080518581526001600160401b03881660208201526001600160a01b038c1694508693507f3e069c1f498cba23d7d2b74b84311469e8da6e527cade62061d642c61b64e0de92500160405180910390a35050505050505050565b6040516001600160a01b0384811660248301528381166044830152606482018390526112369186918216906323b872dd906084015b604051602081830303815290604052915060e01b6020820180516001600160e01b0383818316178352505050506133e6565b604051630862026560e41b81527f000000000000000000000000000000000000000000000000000000000000000060048201526001600160a01b03838116602483015260009182917f00000000000000000000000000000000000000000000000000000000000000001690638620265090604401602060405180830381865afa1580156116db573d6000803e3d6000fd5b505050506040513d601f19601f820116820180604052508101906116ff9190613e23565b90506001600160a01b03811661175957604051630c9ae01360e01b81527f000000000000000000000000000000000000000000000000000000000000000060048201526001600160a01b03851660248201526044016106c8565b60006117658530613449565b60408051602081018252600081529051635db90a7f60e11b81529192506001600160a01b0384169163bb7214fe916117cb9130917f0000000000000000000000000000000000000000000000000000000000000000918b918d918c91869160040161401f565b6020604051808303816000875af11580156117ea573d6000803e3d6000fd5b505050506040513d601f19601f8201168201806040525081019061180e9190613ece565b92508061181b8630613449565b6118259190613fd2565b831461183357611833614071565b5050949350505050565b600061184a8584846134e0565b6001600160a01b0385166000908152602081815260408083208151610440810180845295965093946118b59487949093600290930192849290830191849182845b81548152602001906001019080831161188b57505050918352505060209182015491015290613525565b6001600160a01b038616600090815260208181526040909120825192935083926002909101916118e6918391613b28565b50602091820151908201556001600160a01b03861660009081529081905260408120600101805486929061191b908490613e56565b92505081905550846001600160a01b0316836001600160a01b03167f7b58dbb78e7edc690b0688a53dea0c443d630c4a5db66c3c47d4ff2044c9772884600185602001516119699190613fd2565b6001600160a01b038a16600090815260208190526040902061198d90600201612030565b60408051938452602084019290925290820152606081018a90526080810188905260a00160405180910390a3505050505050565b6001600160a01b038216600090815260026020526040902054808211156119fb57604051632858f9ab60e11b815260040160405180910390fd5b6001600160a01b03838116600081815260026020526040808220868603905551630862026560e41b81527f000000000000000000000000000000000000000000000000000000000000000060048201526024810192909252917f00000000000000000000000000000000000000000000000000000000000000001690638620265090604401602060405180830381865afa158015611a9d573d6000803e3d6000fd5b505050506040513d601f19601f82011682018060405250810190611ac19190613e23565b90506001600160a01b038116611b1b57604051630c9ae01360e01b81527f000000000000000000000000000000000000000000000000000000000000000060048201526001600160a01b03851660248201526044016106c8565b6001600160a01b03841661eeee14611ccb576040516370a0823160e01b81523060048201526000906001600160a01b038616906370a0823190602401602060405180830381865afa158015611b74573d6000803e3d6000fd5b505050506040513d601f19601f82011682018060405250810190611b989190613ece565b9050611ba5858386611fa0565b60408051602080820183526000808352835191820184528082529251639e6eec0560e01b81526001600160a01b03861693639e6eec0593611c12937f0000000000000000000000000000000000000000000000000000000000000000938c938c9390929091600401614087565b600060405180830381600087803b158015611c2c57600080fd5b505af1158015611c40573d6000803e3d6000fd5b505050508381611c509190613fd2565b6040516370a0823160e01b81523060048201526001600160a01b038716906370a0823190602401602060405180830381865afa158015611c94573d6000803e3d6000fd5b505050506040513d601f19601f82011682018060405250810190611cb89190613ece565b14611cc557611cc5614071565b50611236565b60408051602080820183526000808352835191820184528082529251639e6eec0560e01b81526001600160a01b03851693639e6eec05938893611d3b937f0000000000000000000000000000000000000000000000000000000000000000938c9387939192909190600401614087565b6000604051808303818588803b158015611d5457600080fd5b505af1158015611d68573d6000803e3d6000fd5b505050505050505050565b60007f00000000000000000000000000000000000000000000000000000000000000006001600160a01b0316826001600160a01b0316148015611e6a57507f00000000000000000000000000000000000000000000000000000000000000006001600160a01b03167f00000000000000000000000000000000000000000000000000000000000000006001600160a01b0316636e296e456040518163ffffffff1660e01b81526004016020604051808303816000875af1158015611e3b573d6000803e3d6000fd5b505050506040513d601f19601f82011682018060405250810190611e5f9190613e23565b6001600160a01b0316145b92915050565b6001600160a01b0385166000908152600460209081526040808320600886901c8452909152902054600160ff84161b1615611ec15760405163ed9bdd0760e01b8152600481018390526024016106c8565b6001600160a01b0385166000908152600460209081526040808320600886901c845290915281208054600160ff86161b179055611f30611f028887876134e0565b60408051610400818101909252908590602090839083908082843760009201919091525087915061362b9050565b6001600160a01b038716600090815260016020819052604090912001549091508114611f97576001600160a01b0386166000908152600160208190526040918290200154905163286f87c960e21b81526004810191909152602481018290526044016106c8565b50505050505050565b604080516001600160a01b038416602482015260448082018490528251808303909101815260649091019091526020810180516001600160e01b031663095ea7b360e01b179052611ff18482613979565b611236576040516001600160a01b0384811660248301526000604483015261202691869182169063095ea7b390606401611618565b61123684826133e6565b602081015460009080820361206757507f27ae5ba08d7291c96c8cbddcc148bf48a6d68c7974b94356f53754ef6171d75792915050565b600083600183161561208957805460005260006020526040600020935061293c565b60028316156120ce5760018101546000527fad3228b676f7d3cd4284a5443f17f1962b36e491b30a40b2405849e597ba5fb5602052604060002093506001915061293c565b60048316156121135760028101546000527fb4c11951957c6f8f642c4af61cd6b24640fec6dc7fc607ee8206a99e92410d30602052604060002093506002915061293c565b60088316156121585760038101546000527f21ddb9a356815c3fac1026b6dec5df3124afbadb485c9ba5a3e3398a04b7ba85602052604060002093506003915061293c565b601083161561219d5760048101546000527fe58769b32a1beaf1ea27375a44095a0d1fb664ce2dd358e7fcbfb78c26a19344602052604060002093506004915061293c565b60208316156121e25760058101546000527f0eb01ebfc9ed27500cd4dfc979272d1f0913cc9f66540d7e8005811109e1cf2d602052604060002093506005915061293c565b60408316156122275760068101546000527f887c22bd8750d34016ac3c66b5ff102dacdd73f6b014e710b51e8022af9a1968602052604060002093506006915061293c565b608083161561226c5760078101546000527fffd70157e48063fc33c97a050f7f640233bf646cc98d9524c6b92bcf3ab56f83602052604060002093506007915061293c565b6101008316156122b25760088101546000527f9867cc5f7f196b93bae1e27e6320742445d290f2263827498b54fec539f756af602052604060002093506008915061293c565b6102008316156122f85760098101546000527fcefad4e508c098b9a7e1d8feb19955fb02ba9675585078710969d3440f5054e0602052604060002093506009915061293c565b61040083161561233e57600a8101546000527ff9dc3e7fe016e050eff260334f18a5d4fe391d82092319f5964f2e2eb7c1c3a560205260406000209350600a915061293c565b61080083161561238457600b8101546000527ff8b13a49e282f609c317a833fb8d976d11517c571d1221a265d25af778ecf89260205260406000209350600b915061293c565b6110008316156123ca57600c8101546000527f3490c6ceeb450aecdc82e28293031d10c7d73bf85e57bf041a97360aa2c5d99c60205260406000209350600c915061293c565b61200083161561241057600d8101546000527fc1df82d9c4b87413eae2ef048f94b4d3554cea73d92b0f7af96e0271c691e2bb60205260406000209350600d915061293c565b61400083161561245657600e8101546000527f5c67add7c6caf302256adedf7ab114da0acfe870d449a3a489f781d659e8becc60205260406000209350600e915061293c565b61800083161561249c57600f8101546000527fda7bce9f4e8618b6bd2f4132ce798cdc7a60e7e1460a7299e3c6342a579626d260205260406000209350600f915061293c565b620100008316156124e35760108101546000527f2733e50f526ec2fa19a22b31e8ed50f23cd1fdf94c9154ed3a7609a2f1ff981f602052604060002093506010915061293c565b6202000083161561252a5760118101546000527fe1d3b5c807b281e4683cc6d6315cf95b9ade8641defcb32372f1c126e398ef7a602052604060002093506011915061293c565b620400008316156125715760128101546000527f5a2dce0a8a7f68bb74560f8f71837c2c2ebbcbf7fffb42ae1896f13f7c7479a0602052604060002093506012915061293c565b620800008316156125b85760138101546000527fb46a28b6f55540f89444f63de0378e3d121be09e06cc9ded1c20e65876d36aa0602052604060002093506013915061293c565b621000008316156125ff5760148101546000527fc65e9645644786b620e2dd2ad648ddfcbf4a7e5b1a3a4ecfe7f64667a3f0b7e2602052604060002093506014915061293c565b622000008316156126465760158101546000527ff4418588ed35a2458cffeb39b93d26f18d2ab13bdce6aee58e7b99359ec2dfd9602052604060002093506015915061293c565b6240000083161561268d5760168101546000527f5a9c16dc00d6ef18b7933a6f8dc65ccb55667138776f7dea101070dc8796e377602052604060002093506016915061293c565b628000008316156126d45760178101546000527f4df84f40ae0c8229d0d6069e5c8f39a7c299677a09d367fc7b05e3bc380ee652602052604060002093506017915061293c565b630100000083161561271c5760188101546000527fcdc72595f74c7b1043d0e1ffbab734648c838dfb0527d971b602bc216c9619ef602052604060002093506018915061293c565b63020000008316156127645760198101546000527f0abf5ac974a1ed57f4050aa510dd9c74f508277b39d7973bb2dfccc5eeb0618d602052604060002093506019915061293c565b63040000008316156127ac57601a8101546000527fb8cd74046ff337f0a7bf2c8e03e10f642c1886798d71806ab1e888d9e5ee87d060205260406000209350601a915061293c565b63080000008316156127f457601b8101546000527f838c5655cb21c6cb83313b5a631175dff4963772cce9108188b34ac87c81c41e60205260406000209350601b915061293c565b631000000083161561283c57601c8101546000527f662ee4dd2dd7b2bc707961b1e646c4047669dcb6584f0d8d770daf5d7e7deb2e60205260406000209350601c915061293c565b632000000083161561288457601d8101546000527f388ab20e2573d171a88108e79d820e98f26c0b84aa8b2f4aa4968dbb818ea32260205260406000209350601d915061293c565b63400000008316156128cc57601e8101546000527f93237c50ba75ee485f4c22adf2f741400bdf8d6a9cc7df7ecae576221665d73560205260406000209350601e915061293c565b638000000083161561291457601f8101546000527f8448818bb4ae4562849e949e17ac16e0be16688e156b5cf15e098c627c0056a960205260406000209350601f915061293c565b7f27ae5ba08d7291c96c8cbddcc148bf48a6d68c7974b94356f53754ef6171d7579350602091505b601e82116133de57600182101561299a5760028316801561296857600182015460005284602052612991565b846000527fad3228b676f7d3cd4284a5443f17f1962b36e491b30a40b2405849e597ba5fb56020525b50604060002093505b60028210156129f0576004831680156129be576002820154600052846020526129e7565b846000527fb4c11951957c6f8f642c4af61cd6b24640fec6dc7fc607ee8206a99e92410d306020525b50604060002093505b6003821015612a4657600883168015612a1457600382015460005284602052612a3d565b846000527f21ddb9a356815c3fac1026b6dec5df3124afbadb485c9ba5a3e3398a04b7ba856020525b50604060002093505b6004821015612a9c57601083168015612a6a57600482015460005284602052612a93565b846000527fe58769b32a1beaf1ea27375a44095a0d1fb664ce2dd358e7fcbfb78c26a193446020525b50604060002093505b6005821015612af257602083168015612ac057600582015460005284602052612ae9565b846000527f0eb01ebfc9ed27500cd4dfc979272d1f0913cc9f66540d7e8005811109e1cf2d6020525b50604060002093505b6006821015612b4857604083168015612b1657600682015460005284602052612b3f565b846000527f887c22bd8750d34016ac3c66b5ff102dacdd73f6b014e710b51e8022af9a19686020525b50604060002093505b6007821015612b9e57608083168015612b6c57600782015460005284602052612b95565b846000527fffd70157e48063fc33c97a050f7f640233bf646cc98d9524c6b92bcf3ab56f836020525b50604060002093505b6008821015612bf55761010083168015612bc357600882015460005284602052612bec565b846000527f9867cc5f7f196b93bae1e27e6320742445d290f2263827498b54fec539f756af6020525b50604060002093505b6009821015612c4c5761020083168015612c1a57600982015460005284602052612c43565b846000527fcefad4e508c098b9a7e1d8feb19955fb02ba9675585078710969d3440f5054e06020525b50604060002093505b600a821015612ca35761040083168015612c7157600a82015460005284602052612c9a565b846000527ff9dc3e7fe016e050eff260334f18a5d4fe391d82092319f5964f2e2eb7c1c3a56020525b50604060002093505b600b821015612cfa5761080083168015612cc857600b82015460005284602052612cf1565b846000527ff8b13a49e282f609c317a833fb8d976d11517c571d1221a265d25af778ecf8926020525b50604060002093505b600c821015612d515761100083168015612d1f57600c82015460005284602052612d48565b846000527f3490c6ceeb450aecdc82e28293031d10c7d73bf85e57bf041a97360aa2c5d99c6020525b50604060002093505b600d821015612da85761200083168015612d7657600d82015460005284602052612d9f565b846000527fc1df82d9c4b87413eae2ef048f94b4d3554cea73d92b0f7af96e0271c691e2bb6020525b50604060002093505b600e821015612dff5761400083168015612dcd57600e82015460005284602052612df6565b846000527f5c67add7c6caf302256adedf7ab114da0acfe870d449a3a489f781d659e8becc6020525b50604060002093505b600f821015612e565761800083168015612e2457600f82015460005284602052612e4d565b846000527fda7bce9f4e8618b6bd2f4132ce798cdc7a60e7e1460a7299e3c6342a579626d26020525b50604060002093505b6010821015612eae576201000083168015612e7c57601082015460005284602052612ea5565b846000527f2733e50f526ec2fa19a22b31e8ed50f23cd1fdf94c9154ed3a7609a2f1ff981f6020525b50604060002093505b6011821015612f06576202000083168015612ed457601182015460005284602052612efd565b846000527fe1d3b5c807b281e4683cc6d6315cf95b9ade8641defcb32372f1c126e398ef7a6020525b50604060002093505b6012821015612f5e576204000083168015612f2c57601282015460005284602052612f55565b846000527f5a2dce0a8a7f68bb74560f8f71837c2c2ebbcbf7fffb42ae1896f13f7c7479a06020525b50604060002093505b6013821015612fb6576208000083168015612f8457601382015460005284602052612fad565b846000527fb46a28b6f55540f89444f63de0378e3d121be09e06cc9ded1c20e65876d36aa06020525b50604060002093505b601482101561300e576210000083168015612fdc57601482015460005284602052613005565b846000527fc65e9645644786b620e2dd2ad648ddfcbf4a7e5b1a3a4ecfe7f64667a3f0b7e26020525b50604060002093505b60158210156130665762200000831680156130345760158201546000528460205261305d565b846000527ff4418588ed35a2458cffeb39b93d26f18d2ab13bdce6aee58e7b99359ec2dfd96020525b50604060002093505b60168210156130be57624000008316801561308c576016820154600052846020526130b5565b846000527f5a9c16dc00d6ef18b7933a6f8dc65ccb55667138776f7dea101070dc8796e3776020525b50604060002093505b60178210156131165762800000831680156130e45760178201546000528460205261310d565b846000527f4df84f40ae0c8229d0d6069e5c8f39a7c299677a09d367fc7b05e3bc380ee6526020525b50604060002093505b601882101561316f5763010000008316801561313d57601882015460005284602052613166565b846000527fcdc72595f74c7b1043d0e1ffbab734648c838dfb0527d971b602bc216c9619ef6020525b50604060002093505b60198210156131c857630200000083168015613196576019820154600052846020526131bf565b846000527f0abf5ac974a1ed57f4050aa510dd9c74f508277b39d7973bb2dfccc5eeb0618d6020525b50604060002093505b601a821015613221576304000000831680156131ef57601a82015460005284602052613218565b846000527fb8cd74046ff337f0a7bf2c8e03e10f642c1886798d71806ab1e888d9e5ee87d06020525b50604060002093505b601b82101561327a5763080000008316801561324857601b82015460005284602052613271565b846000527f838c5655cb21c6cb83313b5a631175dff4963772cce9108188b34ac87c81c41e6020525b50604060002093505b601c8210156132d3576310000000831680156132a157601c820154600052846020526132ca565b846000527f662ee4dd2dd7b2bc707961b1e646c4047669dcb6584f0d8d770daf5d7e7deb2e6020525b50604060002093505b601d82101561332c576320000000831680156132fa57601d82015460005284602052613323565b846000527f388ab20e2573d171a88108e79d820e98f26c0b84aa8b2f4aa4968dbb818ea3226020525b50604060002093505b601e8210156133855763400000008316801561335357601e8201546000528460205261337c565b846000527f93237c50ba75ee485f4c22adf2f741400bdf8d6a9cc7df7ecae576221665d7356020525b50604060002093505b601f8210156133de576380000000831680156133ac57601f820154600052846020526133d5565b846000527f8448818bb4ae4562849e949e17ac16e0be16688e156b5cf15e098c627c0056a96020525b50604060002093505b505050919050565b60006133fb6001600160a01b03841683613a21565b9050805160001415801561342057508080602001905181019061341e9190613ee7565b155b1561061257604051635274afe760e01b81526001600160a01b03841660048201526024016106c8565b600061eeed196001600160a01b0384160161346f57506001600160a01b03811631611e6a565b6040516370a0823160e01b81526001600160a01b0383811660048301528416906370a0823190602401602060405180830381865afa1580156134b5573d6000803e3d6000fd5b505050506040513d601f19601f820116820180604052508101906134d99190613ece565b9392505050565b60408051602081018590529081018390526001600160a01b03821660608201526000906080016040516020818303038152906040528051906020012090509392505050565b61352d613b62565b600083602001805161353e906140ce565b9081905290506001613552602060026141cb565b61355c9190613fd2565b81111561357c57604051638eab04bb60e01b815260040160405180910390fd5b60005b602081101561361157816001166001036135b8578451849082602081106135a8576135a8613de7565b602002015250839150611e6a9050565b845181602081106135cb576135cb613de7565b6020020151846040516020016135eb929190918252602082015260400190565b60408051601f1981840301815291905280516020909101209350600191821c910161357f565b50604051638eab04bb60e01b815260040160405180910390fd5b6020600582811b8216948552835194820394909452604060008181206002851615871b808503919091528386015190528181206004851615871b808503919091528286015190528181206008851615871b80850391909152606086015190528181206010851615871b8085039190915260808087015190915282822084861615881b8086039190915260a0870151905282822083861615881b8086039190915260c0870151905282822090851615871b8085039190915260e0860151905281812061010080861615881b80860392909252860151905281812061020080861615881b80860392909252610120870151909152828220610400861615881b808603919091526101408701519052828220610800861615881b808603919091526101608701519052828220611000861615881b808603919091526101808701519052828220612000861615881b808603919091526101a08701519052828220614000861615881b808603919091526101c08701519052828220618000861615881b808603919091526101e0870151905282822062010000861615881b8086039190915290860151905281812062020000851615871b80850391909152610220860151905281812062040000851615871b80850391909152610240860151905281812062080000851615871b80850391909152610260860151905281812062100000851615871b80850391909152610280860151905281812062200000851615871b808503919091526102a0860151905281812062400000851615871b808503919091526102c0860151905281812062800000851615871b808503919091526102e086015190528181206301000000851615871b8085039190915261030086015190528181206302000000851615871b8085039190915261032086015190528181206304000000851615871b8085039190915261034086015190528181206308000000851615871b8085039190915261036086015190528181206310000000851615871b8085039190915261038086015190528181206320000000851615871b808503919091526103a086015190528181206340000000851615871b808503919091526103c0860151905281812063800000009094161590951b91829003929092526103e090920151909152902090565b6000806000846001600160a01b03168460405161399691906141d7565b6000604051808303816000865af19150503d80600081146139d3576040519150601f19603f3d011682016040523d82523d6000602084013e6139d8565b606091505b5091509150818015613a02575080511580613a02575080806020019051810190613a029190613ee7565b8015613a1857506000856001600160a01b03163b115b95945050505050565b60606134d98383600084600080856001600160a01b03168486604051613a4791906141d7565b60006040518083038185875af1925050503d8060008114613a84576040519150601f19603f3d011682016040523d82523d6000602084013e613a89565b606091505b5091509150613a99868383613aa3565b9695505050505050565b606082613ab857613ab382613aff565b6134d9565b8151158015613acf57506001600160a01b0384163b155b15613af857604051639996b31560e01b81526001600160a01b03851660048201526024016106c8565b50806134d9565b805115613b0f5780518082602001fd5b604051630a12f52160e11b815260040160405180910390fd5b8260208101928215613b56579160200282015b82811115613b56578251825591602001919060010190613b3b565b50610b7b929150613b82565b6040518060400160405280613b75613b97565b8152602001600081525090565b5b80821115610b7b5760008155600101613b83565b6040518061040001604052806020906020820280368337509192915050565b60008060208385031215613bc957600080fd5b82356001600160401b0380821115613be057600080fd5b818501915085601f830112613bf457600080fd5b813581811115613c0357600080fd5b8660208260071b8501011115613c1857600080fd5b60209290920196919550909350505050565b600060808284031215613c3c57600080fd5b50919050565b600060808284031215613c5457600080fd5b6134d98383613c2a565b6001600160a01b0381168114610bf557600080fd5b60008060008060808587031215613c8957600080fd5b843593506020850135613c9b81613c5e565b9250604085013591506060850135613cb281613c5e565b939692955090935050565b600060208284031215613ccf57600080fd5b81356134d981613c5e565b6001600160401b038416815260208082018490528251610460830191906000604085015b83821015613d1c578251815291830191600191909101908301613cfe565b505050506020830151610440830152949350505050565b60006104a08284031215613c3c57600080fd5b60008060208385031215613d5957600080fd5b82356001600160401b0380821115613d7057600080fd5b818501915085601f830112613d8457600080fd5b813581811115613d9357600080fd5b8660206104a083028501011115613c1857600080fd5b634e487b7160e01b600052602160045260246000fd5b6020810160028310613de157634e487b7160e01b600052602160045260246000fd5b91905290565b634e487b7160e01b600052603260045260246000fd5b600060208284031215613e0f57600080fd5b813563ffffffff811681146134d957600080fd5b600060208284031215613e3557600080fd5b81516134d981613c5e565b634e487b7160e01b600052601160045260246000fd5b80820180821115611e6a57611e6a613e40565b6001600160401b0381168114610bf557600080fd5b600060208284031215613e9057600080fd5b81356134d981613e69565b8135613ea681613e69565b6001600160401b0381166001600160401b031983541617825550602082013560018201555050565b600060208284031215613ee057600080fd5b5051919050565b600060208284031215613ef957600080fd5b815180151581146134d957600080fd5b60006001600160401b03808316818103613f2557613f25613e40565b6001019392505050565b60005b83811015613f4a578181015183820152602001613f32565b50506000910152565b60008151808452613f6b816020860160208601613f2f565b601f01601f19169290920160200192915050565b6001600160a01b0387811682528681166020830152851660408201526060810184905263ffffffff8316608082015260c060a08201819052600090613fc690830184613f53565b98975050505050505050565b81810381811115611e6a57611e6a613e40565b6001600160a01b038416815260606020820181905260009061400990830185613f53565b905063ffffffff83166040830152949350505050565b600060018060a01b03808a168352886020840152808816604084015286606084015285608084015280851660a08401525060e060c083015261406460e0830184613f53565b9998505050505050505050565b634e487b7160e01b600052600160045260246000fd5b86815260018060a01b0386166020820152846040820152831515606082015260c0608082015260006140bc60c0830185613f53565b82810360a08401526140648185613f53565b6000600182016140e0576140e0613e40565b5060010190565b600181815b8085111561412257816000190482111561410857614108613e40565b8085161561411557918102915b93841c93908002906140ec565b509250929050565b60008261413957506001611e6a565b8161414657506000611e6a565b816001811461415c576002811461416657614182565b6001915050611e6a565b60ff84111561417757614177613e40565b50506001821b611e6a565b5060208310610133831016604e8410600b84101617156141a5575081810a611e6a565b6141af83836140e7565b80600019048211156141c3576141c3613e40565b029392505050565b60006134d9838361412a565b600082516141e9818460208701613f2f565b919091019291505056fea2646970667358221220323d3e589f2f36893695abe76901f81ffe89ea25d149f9258a5c294c4d22cd6564736f6c63430008170033a2646970667358221220ecd6bdab14ee0b1a07064b4ca88e3006bf547134adc855ca60a14e7c9c9c474664736f6c63430008170033",
			"deployedBytecode": "0x608060405234801561001057600080fd5b50600436106100625760003560e01c80631213036614610067578063927ede2d14610097578063c39ec124146100aa578063cc8b6f4f146100dd578063ee9a31a2146100f2578063f434c91414610105575b600080fd5b61007a6100753660046102b7565b61012c565b6040516001600160a01b0390911681526020015b60405180910390f35b60005461007a906001600160a01b031681565b6100cd6100b83660046102f1565b60026020526000908152604090205460ff1681565b604051901515815260200161008e565b6100f06100eb366004610315565b61023b565b005b60015461007a906001600160a01b031681565b61007a7f000000000000000000000000711eda44f3d42f3d255846b5ee36cf70fd912e5081565b6040516bffffffffffffffffffffffff193360601b16602082015260348101829052600090605401604051602081830303815290604052805190602001209150817f00000000000000000000000044d360c8c4105f180e07668bd3374c7a6f812faf7f000000000000000000000000ee922d1cb6551d45e2d9b197ec423fb8c3c85d507f000000000000000000000000711eda44f3d42f3d255846b5ee36cf70fd912e5060008760006040516101e1906102aa565b6101f09695949392919061034e565b8190604051809103906000f5905080158015610210573d6000803e3d6000fd5b506001600160a01b0381166000908152600260205260409020805460ff191660011790559392505050565b6000546001600160a01b031615158061025e57506001546001600160a01b031615155b1561027c5760405163ccbe17fd60e01b815260040160405180910390fd5b600080546001600160a01b039384166001600160a01b03199182161790915560018054929093169116179055565b6145ee806103ad83390190565b600080604083850312156102ca57600080fd5b50508035926020909101359150565b6001600160a01b03811681146102ee57600080fd5b50565b60006020828403121561030357600080fd5b813561030e816102d9565b9392505050565b6000806040838503121561032857600080fd5b8235610333816102d9565b91506020830135610343816102d9565b809150509250929050565b6001600160a01b03878116825286811660208301528581166040830152841660608201526080810183905260c081016002831061039b57634e487b7160e01b600052602160045260246000fd5b8260a083015297965050505050505056fe6101a06040523480156200001257600080fd5b50604051620045ee380380620045ee8339810160408190526200003591620001c1565b6001600160a01b0380851660805280871660c05280861660e0528690869086908690869086908316156200006a57826200006c565b305b6001600160a01b03166101205261014082905233610100528060018111156200009957620000996200024c565b60a0816001811115620000b057620000b06200024c565b905250505050505050336001600160a01b031663927ede2d6040518163ffffffff1660e01b8152600401602060405180830381865afa158015620000f8573d6000803e3d6000fd5b505050506040513d601f19601f820116820180604052508101906200011e919062000262565b6001600160a01b0316610160526040805163774d18d160e11b81529051339163ee9a31a29160048083019260209291908290030181865afa15801562000168573d6000803e3d6000fd5b505050506040513d601f19601f820116820180604052508101906200018e919062000262565b6001600160a01b0316610180525062000289945050505050565b6001600160a01b0381168114620001be57600080fd5b50565b60008060008060008060c08789031215620001db57600080fd5b8651620001e881620001a8565b6020880151909650620001fb81620001a8565b60408801519095506200020e81620001a8565b60608801519094506200022181620001a8565b608088015160a08901519194509250600281106200023e57600080fd5b809150509295509295509295565b634e487b7160e01b600052602160045260246000fd5b6000602082840312156200027557600080fd5b81516200028281620001a8565b9392505050565b60805160a05160c05160e0516101005161012051610140516101605161018051614229620003c5600039600081816101d50152818161131801526113670152600081816105bd015281816114bc01528181611d770152611ddd015260008181610249015281816107cc01528181610849015281816109e601528181610e6d01528181610f16015281816116590152818161171e0152818161179b01528181611a2701528181611ae001528181611be20152611d0a0152600081816103ae01528181611398015281816114e70152611db3015260006104880152600081816101620152610a0f01526000818161037a0152818161073d01528181610e93015281816116940152611a560152600081816104bc01528181610b830152610e0f0152600081816105890152818161110201526111ab01526142296000f3fe6080604052600436106101445760003560e01c806388bc2ef3116100b6578063c1b8411a1161006f578063c1b8411a14610476578063c6525f2c146104aa578063e7f82c75146104eb578063ed0e26b914610518578063f434c91414610577578063fc8fa43d146105ab57600080fd5b806388bc2ef314610368578063ad42938b1461039c578063b59ef50f146103d0578063b71c1179146103f0578063bf557aee14610403578063c18541291461045657600080fd5b806356539f391161010857806356539f391461023757806361c864171461027957806369ce22331461028e57806369d31fdd146102ae5780636dfa7268146102c15780637de6fba2146102f057600080fd5b80631d831d5c146101505780632241dc52146101a15780632847f1f3146101c357806338eb2044146101f7578063551ebbf01461021757600080fd5b3661014b57005b600080fd5b34801561015c57600080fd5b506101847f000000000000000000000000000000000000000000000000000000000000000081565b6040516001600160a01b0390911681526020015b60405180910390f35b3480156101ad57600080fd5b506101c16101bc366004613bb6565b6105df565b005b3480156101cf57600080fd5b506101847f000000000000000000000000000000000000000000000000000000000000000081565b34801561020357600080fd5b506101c1610212366004613c42565b610617565b34801561022357600080fd5b506101c1610232366004613c73565b6109b0565b34801561024357600080fd5b5061026b7f000000000000000000000000000000000000000000000000000000000000000081565b604051908152602001610198565b34801561028557600080fd5b5061026b610b2f565b34801561029a57600080fd5b506101c16102a9366004613cbd565b610b7f565b6101c16102bc366004613c42565b610bf8565b3480156102cd57600080fd5b506102e16102dc366004613cbd565b610d69565b60405161019893929190613cda565b3480156102fc57600080fd5b5061033e61030b366004613cbd565b6003602052600090815260409020805460019091015463ffffffff82169164010000000090046001600160a01b03169083565b6040805163ffffffff90941684526001600160a01b03909216602084015290820152606001610198565b34801561037457600080fd5b506101847f000000000000000000000000000000000000000000000000000000000000000081565b3480156103a857600080fd5b506101847f000000000000000000000000000000000000000000000000000000000000000081565b3480156103dc57600080fd5b506101c16103eb366004613d33565b610dd3565b6101c16103fe366004613cbd565b610fda565b34801561040f57600080fd5b5061044661041e366004613cbd565b6001600160a01b03908116600090815260036020526040902054640100000000900416151590565b6040519015158152602001610198565b34801561046257600080fd5b506101c1610471366004613d46565b611084565b34801561048257600080fd5b506101847f000000000000000000000000000000000000000000000000000000000000000081565b3480156104b657600080fd5b506104de7f000000000000000000000000000000000000000000000000000000000000000081565b6040516101989190613dbf565b3480156104f757600080fd5b5061026b610506366004613cbd565b60026020526000908152604090205481565b34801561052457600080fd5b50610558610533366004613cbd565b600160208190526000918252604090912080549101546001600160401b039091169082565b604080516001600160401b039093168352602083019190915201610198565b34801561058357600080fd5b506101847f000000000000000000000000000000000000000000000000000000000000000081565b3480156105b757600080fd5b506101847f000000000000000000000000000000000000000000000000000000000000000081565b60005b818110156106125761060a8383838181106105ff576105ff613de7565b905060800201610617565b6001016105e2565b505050565b60006106266020830183613cbd565b9050600061eeee61063a6020850185613cbd565b6001600160a01b031614905080801561066d575061eeee6106616060850160408601613cbd565b6001600160a01b031614155b8015610692575060006106866060850160408601613cbd565b6001600160a01b031614155b156106d1576106a76060840160408501613cbd565b604051630a0a3b6b60e31b81526001600160a01b0390911660048201526024015b60405180910390fd5b62030d406106e56040850160208601613dfd565b63ffffffff161080156106f6575080155b156107385762030d4061070f6040850160208601613dfd565b604051634f3dbeb360e11b815263ffffffff9283166004820152911660248201526044016106c8565b61086f7f00000000000000000000000000000000000000000000000000000000000000006001600160a01b031663293c49996040518163ffffffff1660e01b8152600401602060405180830381865afa158015610799573d6000803e3d6000fd5b505050506040513d601f19601f820116820180604052508101906107bd9190613e23565b6040516331a9108f60e11b81527f000000000000000000000000000000000000000000000000000000000000000060048201526001600160a01b039190911690636352211e90602401602060405180830381865afa158015610823573d6000803e3d6000fd5b505050506040513d601f19601f820116820180604052508101906108479190613e23565b7f0000000000000000000000000000000000000000000000000000000000000000601c6110b8565b60006108816060850160408601613cbd565b6001600160a01b03161480156108b157506001600160a01b03821660009081526020819052604090206001015415155b1561090c576001600160a01b0380831660009081526003602090815260408083208151606081018352815463ffffffff811682526401000000009004909516928501929092526001909101549083015261090c91849061123c565b604051806060016040528084602001602081019061092a9190613dfd565b63ffffffff1681526020016109456060860160408701613cbd565b6001600160a01b0390811682526060909501356020918201529284166000908152600384526040908190208251815495840151909616640100000000026001600160c01b031990951663ffffffff909616959095179390931784559091015160019092019190915550565b6001600160a01b0383166109d7576040516309a9c30b60e41b815260040160405180910390fd5b60405163ea78803f60e01b81527f000000000000000000000000000000000000000000000000000000000000000060048201526000907f00000000000000000000000000000000000000000000000000000000000000006001600160a01b03169063ea78803f90602401602060405180830381865afa158015610a5e573d6000803e3d6000fd5b505050506040513d601f19601f82011682018060405250810190610a829190613e23565b90506001600160a01b038116610aab57604051635a33845560e01b815260040160405180910390fd5b6001600160a01b03828116600090815260036020526040902054640100000000900416610af65760405163393e175160e01b81526001600160a01b03831660048201526024016106c8565b610b0b6001600160a01b0382163330886115e3565b6000610b198287858761164a565b9050610b278684838861183d565b505050505050565b6000466001819003610b4357600a91505090565b80600a03610b5357600191505090565b8062aa36a703610b675762aa37dc91505090565b8062aa37dc03610b7b5762aa36a791505090565b5090565b60007f00000000000000000000000000000000000000000000000000000000000000006001811115610bb357610bb3613da9565b14610bd15760405163218a9a2d60e11b815260040160405180910390fd5b6001600160a01b038116600090815260026020526040902054610bf59082906119c1565b50565b610c0133611d73565b610c1e57604051630439dbd360e51b815260040160405180910390fd5b60208101803590600290600090610c359085613cbd565b6001600160a01b03166001600160a01b031681526020019081526020016000206000828254610c649190613e56565b90915550600190506000610c7b6020840184613cbd565b6001600160a01b0316815260208101919091526040908101600020546001600160401b031690610cb19060608401908401613e7e565b6001600160401b03161115610bf5576040810160016000610cd56020850185613cbd565b6001600160a01b031681526020810191909152604001600020610cf88282613e9b565b50610d0890506020820182613cbd565b6001600160a01b03167f551b6b99b4c48e3265d2885ab0d93779be2402293261e074f7bf74b2c8f45b6f610d426060840160408501613e7e565b604080516001600160401b039092168252606085013560208301520160405180910390a250565b6000602081815291815260409081902080546001820154835161044081018086526001600160401b0390931695919490926002850192849283019184919082845b815481526020019060010190808311610daa575050509183525050602091820154910152905083565b610e0b6060820135610de86020840184613cbd565b6080840135610dfd6060860160408701613cbd565b602086013560a08701611e70565b60017f00000000000000000000000000000000000000000000000000000000000000006001811115610e3f57610e3f613da9565b03610e5e57610e5e610e546020830183613cbd565b60808301356119c1565b604051632eec7b5560e11b81527f000000000000000000000000000000000000000000000000000000000000000060048201527f00000000000000000000000000000000000000000000000000000000000000006001600160a01b031690635dd8f6aa90602401602060405180830381865afa158015610ee2573d6000803e3d6000fd5b505050506040513d601f19601f82011682018060405250810190610f069190613e23565b6001600160a01b031663c7fb92de7f000000000000000000000000000000000000000000000000000000000000000060608401803590610f499060408701613cbd565b6040516001600160e01b031960e086901b168152600481019390935260248301919091526001600160a01b0316604482015260a06064820152600060a48201819052608482015260c4016020604051808303816000875af1158015610fb2573d6000803e3d6000fd5b505050506040513d601f19601f82011682018060405250810190610fd69190613ece565b5050565b6001600160a01b0380821660008181526003602090815260408083208151606081018352815463ffffffff811682526401000000009004909616868401526001908101548683018190529484529183905290912001541015611079576040808201516001600160a01b0384166000908152602081905282902060010154915163091df9e560e31b81526106c89290600401918252602082015260400190565b610fd634838361123c565b60005b81811015610612576110b08383838181106110a4576110a4613de7565b90506104a00201610dd3565b600101611087565b336001600160a01b038416811480159061116f575060405163c161c93f60e01b81526001600160a01b038281166004830152858116602483015260448201859052606482018490527f0000000000000000000000000000000000000000000000000000000000000000169063c161c93f90608401602060405180830381865afa158015611149573d6000803e3d6000fd5b505050506040513d601f19601f8201168201806040525081019061116d9190613ee7565b155b8015611218575060405163c161c93f60e01b81526001600160a01b038281166004830152858116602483015260006044830152606482018490527f0000000000000000000000000000000000000000000000000000000000000000169063c161c93f90608401602060405180830381865afa1580156111f2573d6000803e3d6000fd5b505050506040513d601f19601f820116820180604052508101906112169190613ee7565b155b156112365760405163075fd2b160e01b815260040160405180910390fd5b50505050565b6000831561125d576040516352864b0160e11b815260040160405180910390fd5b6001600160a01b0383166000908152602081905260408120600181018054908390558154909291908290611299906001600160401b0316613f09565b91906101000a8154816001600160401b0302191690836001600160401b031602179055905060006001600160a01b031684602001516001600160a01b0316036113005760405163393e175160e01b81526001600160a01b03861660048201526024016106c8565b6001600160a01b03851661eeee146113fb5761133d857f000000000000000000000000000000000000000000000000000000000000000084611fa0565b6020808501518551604080519384018152600084525163540abf7360e01b81526001600160a01b037f0000000000000000000000000000000000000000000000000000000000000000169363540abf73936113c4938b9391927f0000000000000000000000000000000000000000000000000000000000000000928a929190600401613f7f565b600060405180830381600087803b1580156113de57600080fd5b505af11580156113f2573d6000803e3d6000fd5b505050506113ff565b8192505b6001600160a01b038516600090815260208190526040812061142390600201612030565b6001600160a01b0387166000908152602081905260408120602201549192509061144f90600190613fd2565b604080516060810182526020808a01516001600160a01b039081168352818301898152845180860186526001600160401b03808b1682528185018a9052858701918252955194518316602486015290516044850152518051909416606484015292015160848201529192507f00000000000000000000000000000000000000000000000000000000000000001690633dbb202b9087907f00000000000000000000000000000000000000000000000000000000000000009060a40160408051601f198184030181529181526020820180516001600160e01b03166369d31fdd60e01b179052516001600160e01b031960e086901b168152611559929190620493e090600401613fe5565b6000604051808303818588803b15801561157257600080fd5b505af1158015611586573d6000803e3d6000fd5b5050604080518581526001600160401b03881660208201526001600160a01b038c1694508693507f3e069c1f498cba23d7d2b74b84311469e8da6e527cade62061d642c61b64e0de92500160405180910390a35050505050505050565b6040516001600160a01b0384811660248301528381166044830152606482018390526112369186918216906323b872dd906084015b604051602081830303815290604052915060e01b6020820180516001600160e01b0383818316178352505050506133e6565b604051630862026560e41b81527f000000000000000000000000000000000000000000000000000000000000000060048201526001600160a01b03838116602483015260009182917f00000000000000000000000000000000000000000000000000000000000000001690638620265090604401602060405180830381865afa1580156116db573d6000803e3d6000fd5b505050506040513d601f19601f820116820180604052508101906116ff9190613e23565b90506001600160a01b03811661175957604051630c9ae01360e01b81527f000000000000000000000000000000000000000000000000000000000000000060048201526001600160a01b03851660248201526044016106c8565b60006117658530613449565b60408051602081018252600081529051635db90a7f60e11b81529192506001600160a01b0384169163bb7214fe916117cb9130917f0000000000000000000000000000000000000000000000000000000000000000918b918d918c91869160040161401f565b6020604051808303816000875af11580156117ea573d6000803e3d6000fd5b505050506040513d601f19601f8201168201806040525081019061180e9190613ece565b92508061181b8630613449565b6118259190613fd2565b831461183357611833614071565b5050949350505050565b600061184a8584846134e0565b6001600160a01b0385166000908152602081815260408083208151610440810180845295965093946118b59487949093600290930192849290830191849182845b81548152602001906001019080831161188b57505050918352505060209182015491015290613525565b6001600160a01b038616600090815260208181526040909120825192935083926002909101916118e6918391613b28565b50602091820151908201556001600160a01b03861660009081529081905260408120600101805486929061191b908490613e56565b92505081905550846001600160a01b0316836001600160a01b03167f7b58dbb78e7edc690b0688a53dea0c443d630c4a5db66c3c47d4ff2044c9772884600185602001516119699190613fd2565b6001600160a01b038a16600090815260208190526040902061198d90600201612030565b60408051938452602084019290925290820152606081018a90526080810188905260a00160405180910390a3505050505050565b6001600160a01b038216600090815260026020526040902054808211156119fb57604051632858f9ab60e11b815260040160405180910390fd5b6001600160a01b03838116600081815260026020526040808220868603905551630862026560e41b81527f000000000000000000000000000000000000000000000000000000000000000060048201526024810192909252917f00000000000000000000000000000000000000000000000000000000000000001690638620265090604401602060405180830381865afa158015611a9d573d6000803e3d6000fd5b505050506040513d601f19601f82011682018060405250810190611ac19190613e23565b90506001600160a01b038116611b1b57604051630c9ae01360e01b81527f000000000000000000000000000000000000000000000000000000000000000060048201526001600160a01b03851660248201526044016106c8565b6001600160a01b03841661eeee14611ccb576040516370a0823160e01b81523060048201526000906001600160a01b038616906370a0823190602401602060405180830381865afa158015611b74573d6000803e3d6000fd5b505050506040513d601f19601f82011682018060405250810190611b989190613ece565b9050611ba5858386611fa0565b60408051602080820183526000808352835191820184528082529251639e6eec0560e01b81526001600160a01b03861693639e6eec0593611c12937f0000000000000000000000000000000000000000000000000000000000000000938c938c9390929091600401614087565b600060405180830381600087803b158015611c2c57600080fd5b505af1158015611c40573d6000803e3d6000fd5b505050508381611c509190613fd2565b6040516370a0823160e01b81523060048201526001600160a01b038716906370a0823190602401602060405180830381865afa158015611c94573d6000803e3d6000fd5b505050506040513d601f19601f82011682018060405250810190611cb89190613ece565b14611cc557611cc5614071565b50611236565b60408051602080820183526000808352835191820184528082529251639e6eec0560e01b81526001600160a01b03851693639e6eec05938893611d3b937f0000000000000000000000000000000000000000000000000000000000000000938c9387939192909190600401614087565b6000604051808303818588803b158015611d5457600080fd5b505af1158015611d68573d6000803e3d6000fd5b505050505050505050565b60007f00000000000000000000000000000000000000000000000000000000000000006001600160a01b0316826001600160a01b0316148015611e6a57507f00000000000000000000000000000000000000000000000000000000000000006001600160a01b03167f00000000000000000000000000000000000000000000000000000000000000006001600160a01b0316636e296e456040518163ffffffff1660e01b81526004016020604051808303816000875af1158015611e3b573d6000803e3d6000fd5b505050506040513d601f19601f82011682018060405250810190611e5f9190613e23565b6001600160a01b0316145b92915050565b6001600160a01b0385166000908152600460209081526040808320600886901c8452909152902054600160ff84161b1615611ec15760405163ed9bdd0760e01b8152600481018390526024016106c8565b6001600160a01b0385166000908152600460209081526040808320600886901c845290915281208054600160ff86161b179055611f30611f028887876134e0565b60408051610400818101909252908590602090839083908082843760009201919091525087915061362b9050565b6001600160a01b038716600090815260016020819052604090912001549091508114611f97576001600160a01b0386166000908152600160208190526040918290200154905163286f87c960e21b81526004810191909152602481018290526044016106c8565b50505050505050565b604080516001600160a01b038416602482015260448082018490528251808303909101815260649091019091526020810180516001600160e01b031663095ea7b360e01b179052611ff18482613979565b611236576040516001600160a01b0384811660248301526000604483015261202691869182169063095ea7b390606401611618565b61123684826133e6565b602081015460009080820361206757507f27ae5ba08d7291c96c8cbddcc148bf48a6d68c7974b94356f53754ef6171d75792915050565b600083600183161561208957805460005260006020526040600020935061293c565b60028316156120ce5760018101546000527fad3228b676f7d3cd4284a5443f17f1962b36e491b30a40b2405849e597ba5fb5602052604060002093506001915061293c565b60048316156121135760028101546000527fb4c11951957c6f8f642c4af61cd6b24640fec6dc7fc607ee8206a99e92410d30602052604060002093506002915061293c565b60088316156121585760038101546000527f21ddb9a356815c3fac1026b6dec5df3124afbadb485c9ba5a3e3398a04b7ba85602052604060002093506003915061293c565b601083161561219d5760048101546000527fe58769b32a1beaf1ea27375a44095a0d1fb664ce2dd358e7fcbfb78c26a19344602052604060002093506004915061293c565b60208316156121e25760058101546000527f0eb01ebfc9ed27500cd4dfc979272d1f0913cc9f66540d7e8005811109e1cf2d602052604060002093506005915061293c565b60408316156122275760068101546000527f887c22bd8750d34016ac3c66b5ff102dacdd73f6b014e710b51e8022af9a1968602052604060002093506006915061293c565b608083161561226c5760078101546000527fffd70157e48063fc33c97a050f7f640233bf646cc98d9524c6b92bcf3ab56f83602052604060002093506007915061293c565b6101008316156122b25760088101546000527f9867cc5f7f196b93bae1e27e6320742445d290f2263827498b54fec539f756af602052604060002093506008915061293c565b6102008316156122f85760098101546000527fcefad4e508c098b9a7e1d8feb19955fb02ba9675585078710969d3440f5054e0602052604060002093506009915061293c565b61040083161561233e57600a8101546000527ff9dc3e7fe016e050eff260334f18a5d4fe391d82092319f5964f2e2eb7c1c3a560205260406000209350600a915061293c565b61080083161561238457600b8101546000527ff8b13a49e282f609c317a833fb8d976d11517c571d1221a265d25af778ecf89260205260406000209350600b915061293c565b6110008316156123ca57600c8101546000527f3490c6ceeb450aecdc82e28293031d10c7d73bf85e57bf041a97360aa2c5d99c60205260406000209350600c915061293c565b61200083161561241057600d8101546000527fc1df82d9c4b87413eae2ef048f94b4d3554cea73d92b0f7af96e0271c691e2bb60205260406000209350600d915061293c565b61400083161561245657600e8101546000527f5c67add7c6caf302256adedf7ab114da0acfe870d449a3a489f781d659e8becc60205260406000209350600e915061293c565b61800083161561249c57600f8101546000527fda7bce9f4e8618b6bd2f4132ce798cdc7a60e7e1460a7299e3c6342a579626d260205260406000209350600f915061293c565b620100008316156124e35760108101546000527f2733e50f526ec2fa19a22b31e8ed50f23cd1fdf94c9154ed3a7609a2f1ff981f602052604060002093506010915061293c565b6202000083161561252a5760118101546000527fe1d3b5c807b281e4683cc6d6315cf95b9ade8641defcb32372f1c126e398ef7a602052604060002093506011915061293c565b620400008316156125715760128101546000527f5a2dce0a8a7f68bb74560f8f71837c2c2ebbcbf7fffb42ae1896f13f7c7479a0602052604060002093506012915061293c565b620800008316156125b85760138101546000527fb46a28b6f55540f89444f63de0378e3d121be09e06cc9ded1c20e65876d36aa0602052604060002093506013915061293c565b621000008316156125ff5760148101546000527fc65e9645644786b620e2dd2ad648ddfcbf4a7e5b1a3a4ecfe7f64667a3f0b7e2602052604060002093506014915061293c565b622000008316156126465760158101546000527ff4418588ed35a2458cffeb39b93d26f18d2ab13bdce6aee58e7b99359ec2dfd9602052604060002093506015915061293c565b6240000083161561268d5760168101546000527f5a9c16dc00d6ef18b7933a6f8dc65ccb55667138776f7dea101070dc8796e377602052604060002093506016915061293c565b628000008316156126d45760178101546000527f4df84f40ae0c8229d0d6069e5c8f39a7c299677a09d367fc7b05e3bc380ee652602052604060002093506017915061293c565b630100000083161561271c5760188101546000527fcdc72595f74c7b1043d0e1ffbab734648c838dfb0527d971b602bc216c9619ef602052604060002093506018915061293c565b63020000008316156127645760198101546000527f0abf5ac974a1ed57f4050aa510dd9c74f508277b39d7973bb2dfccc5eeb0618d602052604060002093506019915061293c565b63040000008316156127ac57601a8101546000527fb8cd74046ff337f0a7bf2c8e03e10f642c1886798d71806ab1e888d9e5ee87d060205260406000209350601a915061293c565b63080000008316156127f457601b8101546000527f838c5655cb21c6cb83313b5a631175dff4963772cce9108188b34ac87c81c41e60205260406000209350601b915061293c565b631000000083161561283c57601c8101546000527f662ee4dd2dd7b2bc707961b1e646c4047669dcb6584f0d8d770daf5d7e7deb2e60205260406000209350601c915061293c565b632000000083161561288457601d8101546000527f388ab20e2573d171a88108e79d820e98f26c0b84aa8b2f4aa4968dbb818ea32260205260406000209350601d915061293c565b63400000008316156128cc57601e8101546000527f93237c50ba75ee485f4c22adf2f741400bdf8d6a9cc7df7ecae576221665d73560205260406000209350601e915061293c565b638000000083161561291457601f8101546000527f8448818bb4ae4562849e949e17ac16e0be16688e156b5cf15e098c627c0056a960205260406000209350601f915061293c565b7f27ae5ba08d7291c96c8cbddcc148bf48a6d68c7974b94356f53754ef6171d7579350602091505b601e82116133de57600182101561299a5760028316801561296857600182015460005284602052612991565b846000527fad3228b676f7d3cd4284a5443f17f1962b36e491b30a40b2405849e597ba5fb56020525b50604060002093505b60028210156129f0576004831680156129be576002820154600052846020526129e7565b846000527fb4c11951957c6f8f642c4af61cd6b24640fec6dc7fc607ee8206a99e92410d306020525b50604060002093505b6003821015612a4657600883168015612a1457600382015460005284602052612a3d565b846000527f21ddb9a356815c3fac1026b6dec5df3124afbadb485c9ba5a3e3398a04b7ba856020525b50604060002093505b6004821015612a9c57601083168015612a6a57600482015460005284602052612a93565b846000527fe58769b32a1beaf1ea27375a44095a0d1fb664ce2dd358e7fcbfb78c26a193446020525b50604060002093505b6005821015612af257602083168015612ac057600582015460005284602052612ae9565b846000527f0eb01ebfc9ed27500cd4dfc979272d1f0913cc9f66540d7e8005811109e1cf2d6020525b50604060002093505b6006821015612b4857604083168015612b1657600682015460005284602052612b3f565b846000527f887c22bd8750d34016ac3c66b5ff102dacdd73f6b014e710b51e8022af9a19686020525b50604060002093505b6007821015612b9e57608083168015612b6c57600782015460005284602052612b95565b846000527fffd70157e48063fc33c97a050f7f640233bf646cc98d9524c6b92bcf3ab56f836020525b50604060002093505b6008821015612bf55761010083168015612bc357600882015460005284602052612bec565b846000527f9867cc5f7f196b93bae1e27e6320742445d290f2263827498b54fec539f756af6020525b50604060002093505b6009821015612c4c5761020083168015612c1a57600982015460005284602052612c43565b846000527fcefad4e508c098b9a7e1d8feb19955fb02ba9675585078710969d3440f5054e06020525b50604060002093505b600a821015612ca35761040083168015612c7157600a82015460005284602052612c9a565b846000527ff9dc3e7fe016e050eff260334f18a5d4fe391d82092319f5964f2e2eb7c1c3a56020525b50604060002093505b600b821015612cfa5761080083168015612cc857600b82015460005284602052612cf1565b846000527ff8b13a49e282f609c317a833fb8d976d11517c571d1221a265d25af778ecf8926020525b50604060002093505b600c821015612d515761100083168015612d1f57600c82015460005284602052612d48565b846000527f3490c6ceeb450aecdc82e28293031d10c7d73bf85e57bf041a97360aa2c5d99c6020525b50604060002093505b600d821015612da85761200083168015612d7657600d82015460005284602052612d9f565b846000527fc1df82d9c4b87413eae2ef048f94b4d3554cea73d92b0f7af96e0271c691e2bb6020525b50604060002093505b600e821015612dff5761400083168015612dcd57600e82015460005284602052612df6565b846000527f5c67add7c6caf302256adedf7ab114da0acfe870d449a3a489f781d659e8becc6020525b50604060002093505b600f821015612e565761800083168015612e2457600f82015460005284602052612e4d565b846000527fda7bce9f4e8618b6bd2f4132ce798cdc7a60e7e1460a7299e3c6342a579626d26020525b50604060002093505b6010821015612eae576201000083168015612e7c57601082015460005284602052612ea5565b846000527f2733e50f526ec2fa19a22b31e8ed50f23cd1fdf94c9154ed3a7609a2f1ff981f6020525b50604060002093505b6011821015612f06576202000083168015612ed457601182015460005284602052612efd565b846000527fe1d3b5c807b281e4683cc6d6315cf95b9ade8641defcb32372f1c126e398ef7a6020525b50604060002093505b6012821015612f5e576204000083168015612f2c57601282015460005284602052612f55565b846000527f5a2dce0a8a7f68bb74560f8f71837c2c2ebbcbf7fffb42ae1896f13f7c7479a06020525b50604060002093505b6013821015612fb6576208000083168015612f8457601382015460005284602052612fad565b846000527fb46a28b6f55540f89444f63de0378e3d121be09e06cc9ded1c20e65876d36aa06020525b50604060002093505b601482101561300e576210000083168015612fdc57601482015460005284602052613005565b846000527fc65e9645644786b620e2dd2ad648ddfcbf4a7e5b1a3a4ecfe7f64667a3f0b7e26020525b50604060002093505b60158210156130665762200000831680156130345760158201546000528460205261305d565b846000527ff4418588ed35a2458cffeb39b93d26f18d2ab13bdce6aee58e7b99359ec2dfd96020525b50604060002093505b60168210156130be57624000008316801561308c576016820154600052846020526130b5565b846000527f5a9c16dc00d6ef18b7933a6f8dc65ccb55667138776f7dea101070dc8796e3776020525b50604060002093505b60178210156131165762800000831680156130e45760178201546000528460205261310d565b846000527f4df84f40ae0c8229d0d6069e5c8f39a7c299677a09d367fc7b05e3bc380ee6526020525b50604060002093505b601882101561316f5763010000008316801561313d57601882015460005284602052613166565b846000527fcdc72595f74c7b1043d0e1ffbab734648c838dfb0527d971b602bc216c9619ef6020525b50604060002093505b60198210156131c857630200000083168015613196576019820154600052846020526131bf565b846000527f0abf5ac974a1ed57f4050aa510dd9c74f508277b39d7973bb2dfccc5eeb0618d6020525b50604060002093505b601a821015613221576304000000831680156131ef57601a82015460005284602052613218565b846000527fb8cd74046ff337f0a7bf2c8e03e10f642c1886798d71806ab1e888d9e5ee87d06020525b50604060002093505b601b82101561327a5763080000008316801561324857601b82015460005284602052613271565b846000527f838c5655cb21c6cb83313b5a631175dff4963772cce9108188b34ac87c81c41e6020525b50604060002093505b601c8210156132d3576310000000831680156132a157601c820154600052846020526132ca565b846000527f662ee4dd2dd7b2bc707961b1e646c4047669dcb6584f0d8d770daf5d7e7deb2e6020525b50604060002093505b601d82101561332c576320000000831680156132fa57601d82015460005284602052613323565b846000527f388ab20e2573d171a88108e79d820e98f26c0b84aa8b2f4aa4968dbb818ea3226020525b50604060002093505b601e8210156133855763400000008316801561335357601e8201546000528460205261337c565b846000527f93237c50ba75ee485f4c22adf2f741400bdf8d6a9cc7df7ecae576221665d7356020525b50604060002093505b601f8210156133de576380000000831680156133ac57601f820154600052846020526133d5565b846000527f8448818bb4ae4562849e949e17ac16e0be16688e156b5cf15e098c627c0056a96020525b50604060002093505b505050919050565b60006133fb6001600160a01b03841683613a21565b9050805160001415801561342057508080602001905181019061341e9190613ee7565b155b1561061257604051635274afe760e01b81526001600160a01b03841660048201526024016106c8565b600061eeed196001600160a01b0384160161346f57506001600160a01b03811631611e6a565b6040516370a0823160e01b81526001600160a01b0383811660048301528416906370a0823190602401602060405180830381865afa1580156134b5573d6000803e3d6000fd5b505050506040513d601f19601f820116820180604052508101906134d99190613ece565b9392505050565b60408051602081018590529081018390526001600160a01b03821660608201526000906080016040516020818303038152906040528051906020012090509392505050565b61352d613b62565b600083602001805161353e906140ce565b9081905290506001613552602060026141cb565b61355c9190613fd2565b81111561357c57604051638eab04bb60e01b815260040160405180910390fd5b60005b602081101561361157816001166001036135b8578451849082602081106135a8576135a8613de7565b602002015250839150611e6a9050565b845181602081106135cb576135cb613de7565b6020020151846040516020016135eb929190918252602082015260400190565b60408051601f1981840301815291905280516020909101209350600191821c910161357f565b50604051638eab04bb60e01b815260040160405180910390fd5b6020600582811b8216948552835194820394909452604060008181206002851615871b808503919091528386015190528181206004851615871b808503919091528286015190528181206008851615871b80850391909152606086015190528181206010851615871b8085039190915260808087015190915282822084861615881b8086039190915260a0870151905282822083861615881b8086039190915260c0870151905282822090851615871b8085039190915260e0860151905281812061010080861615881b80860392909252860151905281812061020080861615881b80860392909252610120870151909152828220610400861615881b808603919091526101408701519052828220610800861615881b808603919091526101608701519052828220611000861615881b808603919091526101808701519052828220612000861615881b808603919091526101a08701519052828220614000861615881b808603919091526101c08701519052828220618000861615881b808603919091526101e0870151905282822062010000861615881b8086039190915290860151905281812062020000851615871b80850391909152610220860151905281812062040000851615871b80850391909152610240860151905281812062080000851615871b80850391909152610260860151905281812062100000851615871b80850391909152610280860151905281812062200000851615871b808503919091526102a0860151905281812062400000851615871b808503919091526102c0860151905281812062800000851615871b808503919091526102e086015190528181206301000000851615871b8085039190915261030086015190528181206302000000851615871b8085039190915261032086015190528181206304000000851615871b8085039190915261034086015190528181206308000000851615871b8085039190915261036086015190528181206310000000851615871b8085039190915261038086015190528181206320000000851615871b808503919091526103a086015190528181206340000000851615871b808503919091526103c0860151905281812063800000009094161590951b91829003929092526103e090920151909152902090565b6000806000846001600160a01b03168460405161399691906141d7565b6000604051808303816000865af19150503d80600081146139d3576040519150601f19603f3d011682016040523d82523d6000602084013e6139d8565b606091505b5091509150818015613a02575080511580613a02575080806020019051810190613a029190613ee7565b8015613a1857506000856001600160a01b03163b115b95945050505050565b60606134d98383600084600080856001600160a01b03168486604051613a4791906141d7565b60006040518083038185875af1925050503d8060008114613a84576040519150601f19603f3d011682016040523d82523d6000602084013e613a89565b606091505b5091509150613a99868383613aa3565b9695505050505050565b606082613ab857613ab382613aff565b6134d9565b8151158015613acf57506001600160a01b0384163b155b15613af857604051639996b31560e01b81526001600160a01b03851660048201526024016106c8565b50806134d9565b805115613b0f5780518082602001fd5b604051630a12f52160e11b815260040160405180910390fd5b8260208101928215613b56579160200282015b82811115613b56578251825591602001919060010190613b3b565b50610b7b929150613b82565b6040518060400160405280613b75613b97565b8152602001600081525090565b5b80821115610b7b5760008155600101613b83565b6040518061040001604052806020906020820280368337509192915050565b60008060208385031215613bc957600080fd5b82356001600160401b0380821115613be057600080fd5b818501915085601f830112613bf457600080fd5b813581811115613c0357600080fd5b8660208260071b8501011115613c1857600080fd5b60209290920196919550909350505050565b600060808284031215613c3c57600080fd5b50919050565b600060808284031215613c5457600080fd5b6134d98383613c2a565b6001600160a01b0381168114610bf557600080fd5b60008060008060808587031215613c8957600080fd5b843593506020850135613c9b81613c5e565b9250604085013591506060850135613cb281613c5e565b939692955090935050565b600060208284031215613ccf57600080fd5b81356134d981613c5e565b6001600160401b038416815260208082018490528251610460830191906000604085015b83821015613d1c578251815291830191600191909101908301613cfe565b505050506020830151610440830152949350505050565b60006104a08284031215613c3c57600080fd5b60008060208385031215613d5957600080fd5b82356001600160401b0380821115613d7057600080fd5b818501915085601f830112613d8457600080fd5b813581811115613d9357600080fd5b8660206104a083028501011115613c1857600080fd5b634e487b7160e01b600052602160045260246000fd5b6020810160028310613de157634e487b7160e01b600052602160045260246000fd5b91905290565b634e487b7160e01b600052603260045260246000fd5b600060208284031215613e0f57600080fd5b813563ffffffff811681146134d957600080fd5b600060208284031215613e3557600080fd5b81516134d981613c5e565b634e487b7160e01b600052601160045260246000fd5b80820180821115611e6a57611e6a613e40565b6001600160401b0381168114610bf557600080fd5b600060208284031215613e9057600080fd5b81356134d981613e69565b8135613ea681613e69565b6001600160401b0381166001600160401b031983541617825550602082013560018201555050565b600060208284031215613ee057600080fd5b5051919050565b600060208284031215613ef957600080fd5b815180151581146134d957600080fd5b60006001600160401b03808316818103613f2557613f25613e40565b6001019392505050565b60005b83811015613f4a578181015183820152602001613f32565b50506000910152565b60008151808452613f6b816020860160208601613f2f565b601f01601f19169290920160200192915050565b6001600160a01b0387811682528681166020830152851660408201526060810184905263ffffffff8316608082015260c060a08201819052600090613fc690830184613f53565b98975050505050505050565b81810381811115611e6a57611e6a613e40565b6001600160a01b038416815260606020820181905260009061400990830185613f53565b905063ffffffff83166040830152949350505050565b600060018060a01b03808a168352886020840152808816604084015286606084015285608084015280851660a08401525060e060c083015261406460e0830184613f53565b9998505050505050505050565b634e487b7160e01b600052600160045260246000fd5b86815260018060a01b0386166020820152846040820152831515606082015260c0608082015260006140bc60c0830185613f53565b82810360a08401526140648185613f53565b6000600182016140e0576140e0613e40565b5060010190565b600181815b8085111561412257816000190482111561410857614108613e40565b8085161561411557918102915b93841c93908002906140ec565b509250929050565b60008261413957506001611e6a565b8161414657506000611e6a565b816001811461415c576002811461416657614182565b6001915050611e6a565b60ff84111561417757614177613e40565b50506001821b611e6a565b5060208310610133831016604e8410600b84101617156141a5575081810a611e6a565b6141af83836140e7565b80600019048211156141c3576141c3613e40565b029392505050565b60006134d9838361412a565b600082516141e9818460208701613f2f565b919091019291505056fea2646970667358221220323d3e589f2f36893695abe76901f81ffe89ea25d149f9258a5c294c4d22cd6564736f6c63430008170033a2646970667358221220ecd6bdab14ee0b1a07064b4ca88e3006bf547134adc855ca60a14e7c9c9c474664736f6c63430008170033",
			"devdoc": {
				"kind": "dev",
				"methods": {
					"createForSender(uint256,bytes32)": {
						"details": "Uses the sender address as the salt, which means the same sender must call this function on both chains.",
						"params": {
							"localProjectId": "The project's ID on the local chain.",
							"salt": "The salt to use for the `create2` address."
						},
						"returns": {
							"sucker": "The address of the new sucker."
						}
					}
				},
				"version": 1
			},
			"userdoc": {
				"kind": "user",
				"methods": {
					"BRIDGE()": {
						"notice": "The bridge used to bridge tokens between the local and remote chain."
					},
					"MESSENGER()": {
						"notice": "The messenger used to send messages between the local and remote sucker."
					},
					"PERMISSIONS()": {
						"notice": "A contract storing permissions."
					},
					"configureLayerSpecific(address,address)": {
						"notice": "handles some layer specific configuration that can't be done in the constructor otherwise deployment addresses would change.messenger the OPMesssenger on this layer.bridge the OPStandardBridge on this layer."
					},
					"createForSender(uint256,bytes32)": {
						"notice": "Create a new `BPSucker` for a specific project."
					},
					"isSucker(address)": {
						"notice": "A mapping of suckers deployed by this contract."
					}
				},
				"version": 1
			},
			"gitCommit": "bba96e863e226f15600b9a3af7d174731433e687",
			"sourceName": "src/deployers/BPOptimismSuckerDeployer.sol",
			"chainId": "11155420",
			"linkReferences": {},
			"deployedLinkReferences": {}
		},
		{
			"_format": "sphinx-sol-ct-artifact-1",
			"merkleRoot": "0x2d4ca00627c459de699f5e6d80f06fa7c9de5e9f4b50c7bfe3f3a0ab31867acc",
			"contractName": "BPOptimismSuckerDeployer",
			"address": "0xbD74A0450B51eDE3A990948A7F4c714e39C4cE5B",
			"abi": [
				{
					"type": "constructor",
					"inputs": [
						{
							"name": "directory",
							"type": "address",
							"internalType": "contract IJBDirectory"
						},
						{
							"name": "tokens",
							"type": "address",
							"internalType": "contract IJBTokens"
						},
						{
							"name": "permissions",
							"type": "address",
							"internalType": "contract IJBPermissions"
						},
						{
							"name": "_configurator",
							"type": "address",
							"internalType": "address"
						}
					],
					"stateMutability": "nonpayable"
				},
				{
					"type": "function",
					"name": "BRIDGE",
					"inputs": [],
					"outputs": [
						{
							"name": "",
							"type": "address",
							"internalType": "contract OPStandardBridge"
						}
					],
					"stateMutability": "view"
				},
				{
					"type": "function",
					"name": "MESSENGER",
					"inputs": [],
					"outputs": [
						{
							"name": "",
							"type": "address",
							"internalType": "contract OPMessenger"
						}
					],
					"stateMutability": "view"
				},
				{
					"type": "function",
					"name": "PERMISSIONS",
					"inputs": [],
					"outputs": [
						{
							"name": "",
							"type": "address",
							"internalType": "contract IJBPermissions"
						}
					],
					"stateMutability": "view"
				},
				{
					"type": "function",
					"name": "configureLayerSpecific",
					"inputs": [
						{
							"name": "messenger",
							"type": "address",
							"internalType": "contract OPMessenger"
						},
						{
							"name": "bridge",
							"type": "address",
							"internalType": "contract OPStandardBridge"
						}
					],
					"outputs": [],
					"stateMutability": "nonpayable"
				},
				{
					"type": "function",
					"name": "createForSender",
					"inputs": [
						{
							"name": "localProjectId",
							"type": "uint256",
							"internalType": "uint256"
						},
						{
							"name": "salt",
							"type": "bytes32",
							"internalType": "bytes32"
						}
					],
					"outputs": [
						{
							"name": "sucker",
							"type": "address",
							"internalType": "contract IBPSucker"
						}
					],
					"stateMutability": "nonpayable"
				},
				{
					"type": "function",
					"name": "isSucker",
					"inputs": [
						{
							"name": "",
							"type": "address",
							"internalType": "address"
						}
					],
					"outputs": [
						{
							"name": "",
							"type": "bool",
							"internalType": "bool"
						}
					],
					"stateMutability": "view"
				},
				{
					"type": "error",
					"name": "ALREADY_CONFIGURED",
					"inputs": []
				},
				{
					"type": "error",
					"name": "ONLY_SUCKERS",
					"inputs": []
				},
				{
					"type": "error",
					"name": "UNAUTHORIZED",
					"inputs": []
				}
			],
			"solcInputHash": "be814d998db9158d32a9e143edcd7c88",
			"receipt": {
				"blockHash": "0x08094ba036a1d9f45f1786198ed73935f3f2e520954ec23b7ab4d2512deddfb1",
				"blockNumber": 10968028,
				"contractAddress": null,
				"cumulativeGasUsed": "7274561",
				"from": "0xC034550B542b83BA1De312b21d1C94a9a52B1595",
				"gasPrice": "1000252",
				"gasUsed": "5827624",
				"hash": "0x87bc5288c9422edebc0b503b695eb573592cdbe85c5cb27e8aa8772941a70237",
				"index": 3,
				"logs": [
					{
						"address": "0xB5E96127D417b1B3ef8438496a38A143167209c7",
						"blockHash": "0x08094ba036a1d9f45f1786198ed73935f3f2e520954ec23b7ab4d2512deddfb1",
						"blockNumber": 10968028,
						"data": "0x0000000000000000000000000000000000000000000000000000000000000000",
						"index": 4,
						"topics": [
							"0x572f161235911da04685a68c06adf558fc7e4a36909dca394650e0adc19cc93d",
							"0x000000000000000000000000c034550b542b83ba1de312b21d1c94a9a52b1595",
							"0x0000000000000000000000002251543da4a5ef946705b931c7e8b74756764a18",
							"0x4c571798e6505a76f78bda1d05ae5fce44b5e05715fead2e6e7ddddd33dbc0ac"
						],
						"transactionHash": "0x87bc5288c9422edebc0b503b695eb573592cdbe85c5cb27e8aa8772941a70237",
						"transactionIndex": 3
					},
					{
						"address": "0x6a65B75A3f37C6702A117Fb87B6bCaC62657d216",
						"blockHash": "0x08094ba036a1d9f45f1786198ed73935f3f2e520954ec23b7ab4d2512deddfb1",
						"blockNumber": 10968028,
						"data": "0x",
						"index": 5,
						"topics": [
							"0x6895c13664aa4f67288b25d7a21d7aaa34916e355fb9b6fae0a139a9085becb8",
							"0x0000000000000000000000002251543da4a5ef946705b931c7e8b74756764a18"
						],
						"transactionHash": "0x87bc5288c9422edebc0b503b695eb573592cdbe85c5cb27e8aa8772941a70237",
						"transactionIndex": 3
					},
					{
						"address": "0x2251543Da4A5eF946705B931C7e8b74756764a18",
						"blockHash": "0x08094ba036a1d9f45f1786198ed73935f3f2e520954ec23b7ab4d2512deddfb1",
						"blockNumber": 10968028,
						"data": "0x0000000000000000000000000000000000000000000000000000000000000001",
						"index": 6,
						"topics": [
							"0xa65fb05c5808f5f389d72edeaf719ce38f4cc55c1f69ca3cbfb31c21501caa07",
							"0x2d4ca00627c459de699f5e6d80f06fa7c9de5e9f4b50c7bfe3f3a0ab31867acc"
						],
						"transactionHash": "0x87bc5288c9422edebc0b503b695eb573592cdbe85c5cb27e8aa8772941a70237",
						"transactionIndex": 3
					},
					{
						"address": "0x6a65B75A3f37C6702A117Fb87B6bCaC62657d216",
						"blockHash": "0x08094ba036a1d9f45f1786198ed73935f3f2e520954ec23b7ab4d2512deddfb1",
						"blockNumber": 10968028,
						"data": "0x",
						"index": 7,
						"topics": [
							"0x6895c13664aa4f67288b25d7a21d7aaa34916e355fb9b6fae0a139a9085becb8",
							"0x0000000000000000000000002251543da4a5ef946705b931c7e8b74756764a18"
						],
						"transactionHash": "0x87bc5288c9422edebc0b503b695eb573592cdbe85c5cb27e8aa8772941a70237",
						"transactionIndex": 3
					},
					{
						"address": "0x2251543Da4A5eF946705B931C7e8b74756764a18",
						"blockHash": "0x08094ba036a1d9f45f1786198ed73935f3f2e520954ec23b7ab4d2512deddfb1",
						"blockNumber": 10968028,
						"data": "0x0000000000000000000000000000000000000000000000000000000000000002",
						"index": 8,
						"topics": [
							"0xa65fb05c5808f5f389d72edeaf719ce38f4cc55c1f69ca3cbfb31c21501caa07",
							"0x2d4ca00627c459de699f5e6d80f06fa7c9de5e9f4b50c7bfe3f3a0ab31867acc"
						],
						"transactionHash": "0x87bc5288c9422edebc0b503b695eb573592cdbe85c5cb27e8aa8772941a70237",
						"transactionIndex": 3
					},
					{
						"address": "0x6a65B75A3f37C6702A117Fb87B6bCaC62657d216",
						"blockHash": "0x08094ba036a1d9f45f1786198ed73935f3f2e520954ec23b7ab4d2512deddfb1",
						"blockNumber": 10968028,
						"data": "0x",
						"index": 9,
						"topics": [
							"0x6895c13664aa4f67288b25d7a21d7aaa34916e355fb9b6fae0a139a9085becb8",
							"0x0000000000000000000000002251543da4a5ef946705b931c7e8b74756764a18"
						],
						"transactionHash": "0x87bc5288c9422edebc0b503b695eb573592cdbe85c5cb27e8aa8772941a70237",
						"transactionIndex": 3
					},
					{
						"address": "0x2251543Da4A5eF946705B931C7e8b74756764a18",
						"blockHash": "0x08094ba036a1d9f45f1786198ed73935f3f2e520954ec23b7ab4d2512deddfb1",
						"blockNumber": 10968028,
						"data": "0x0000000000000000000000000000000000000000000000000000000000000003",
						"index": 10,
						"topics": [
							"0xa65fb05c5808f5f389d72edeaf719ce38f4cc55c1f69ca3cbfb31c21501caa07",
							"0x2d4ca00627c459de699f5e6d80f06fa7c9de5e9f4b50c7bfe3f3a0ab31867acc"
						],
						"transactionHash": "0x87bc5288c9422edebc0b503b695eb573592cdbe85c5cb27e8aa8772941a70237",
						"transactionIndex": 3
					},
					{
						"address": "0x3F209aB51b59Bc6C2c9C2f2147d3d51E29A862d7",
						"blockHash": "0x08094ba036a1d9f45f1786198ed73935f3f2e520954ec23b7ab4d2512deddfb1",
						"blockNumber": 10968028,
						"data": "0x000000000000000000000000bd74a0450b51ede3a990948a7f4c714e39c4ce5b",
						"index": 11,
						"topics": [
							"0xf6e6facda29906a01d337146a9b928ac09b423901f28e0e001d43550448b370b"
						],
						"transactionHash": "0x87bc5288c9422edebc0b503b695eb573592cdbe85c5cb27e8aa8772941a70237",
						"transactionIndex": 3
					},
					{
						"address": "0x6a65B75A3f37C6702A117Fb87B6bCaC62657d216",
						"blockHash": "0x08094ba036a1d9f45f1786198ed73935f3f2e520954ec23b7ab4d2512deddfb1",
						"blockNumber": 10968028,
						"data": "0x",
						"index": 12,
						"topics": [
							"0x6895c13664aa4f67288b25d7a21d7aaa34916e355fb9b6fae0a139a9085becb8",
							"0x0000000000000000000000002251543da4a5ef946705b931c7e8b74756764a18"
						],
						"transactionHash": "0x87bc5288c9422edebc0b503b695eb573592cdbe85c5cb27e8aa8772941a70237",
						"transactionIndex": 3
					},
					{
						"address": "0x2251543Da4A5eF946705B931C7e8b74756764a18",
						"blockHash": "0x08094ba036a1d9f45f1786198ed73935f3f2e520954ec23b7ab4d2512deddfb1",
						"blockNumber": 10968028,
						"data": "0x0000000000000000000000000000000000000000000000000000000000000004",
						"index": 13,
						"topics": [
							"0xa65fb05c5808f5f389d72edeaf719ce38f4cc55c1f69ca3cbfb31c21501caa07",
							"0x2d4ca00627c459de699f5e6d80f06fa7c9de5e9f4b50c7bfe3f3a0ab31867acc"
						],
						"transactionHash": "0x87bc5288c9422edebc0b503b695eb573592cdbe85c5cb27e8aa8772941a70237",
						"transactionIndex": 3
					},
					{
						"address": "0x3F209aB51b59Bc6C2c9C2f2147d3d51E29A862d7",
						"blockHash": "0x08094ba036a1d9f45f1786198ed73935f3f2e520954ec23b7ab4d2512deddfb1",
						"blockNumber": 10968028,
						"data": "0x",
						"index": 14,
						"topics": [
							"0x8be0079c531659141344cd1fd0a4f28419497f9722a3daafe3b4186f6b6457e0",
							"0x0000000000000000000000006a65b75a3f37c6702a117fb87b6bcac62657d216",
							"0x0000000000000000000000001f96512db9a74b8805d900c8e553879c0cb8bb2a"
						],
						"transactionHash": "0x87bc5288c9422edebc0b503b695eb573592cdbe85c5cb27e8aa8772941a70237",
						"transactionIndex": 3
					},
					{
						"address": "0x6a65B75A3f37C6702A117Fb87B6bCaC62657d216",
						"blockHash": "0x08094ba036a1d9f45f1786198ed73935f3f2e520954ec23b7ab4d2512deddfb1",
						"blockNumber": 10968028,
						"data": "0x",
						"index": 15,
						"topics": [
							"0x6895c13664aa4f67288b25d7a21d7aaa34916e355fb9b6fae0a139a9085becb8",
							"0x0000000000000000000000002251543da4a5ef946705b931c7e8b74756764a18"
						],
						"transactionHash": "0x87bc5288c9422edebc0b503b695eb573592cdbe85c5cb27e8aa8772941a70237",
						"transactionIndex": 3
					},
					{
						"address": "0x2251543Da4A5eF946705B931C7e8b74756764a18",
						"blockHash": "0x08094ba036a1d9f45f1786198ed73935f3f2e520954ec23b7ab4d2512deddfb1",
						"blockNumber": 10968028,
						"data": "0x0000000000000000000000000000000000000000000000000000000000000005",
						"index": 16,
						"topics": [
							"0xa65fb05c5808f5f389d72edeaf719ce38f4cc55c1f69ca3cbfb31c21501caa07",
							"0x2d4ca00627c459de699f5e6d80f06fa7c9de5e9f4b50c7bfe3f3a0ab31867acc"
						],
						"transactionHash": "0x87bc5288c9422edebc0b503b695eb573592cdbe85c5cb27e8aa8772941a70237",
						"transactionIndex": 3
					},
					{
						"address": "0x2251543Da4A5eF946705B931C7e8b74756764a18",
						"blockHash": "0x08094ba036a1d9f45f1786198ed73935f3f2e520954ec23b7ab4d2512deddfb1",
						"blockNumber": 10968028,
						"data": "0x",
						"index": 17,
						"topics": [
							"0x4383d976757d67ca920616be0b6430a681ea9d3dcce8d6d61d4603ca4a9bff63",
							"0x2d4ca00627c459de699f5e6d80f06fa7c9de5e9f4b50c7bfe3f3a0ab31867acc"
						],
						"transactionHash": "0x87bc5288c9422edebc0b503b695eb573592cdbe85c5cb27e8aa8772941a70237",
						"transactionIndex": 3
					}
				],
				"logsBloom": "0x0000000008001000000000000008000000020000404800000080000001400000000000000000000000000000004009000000000000000000000000000000000000000000000020010000200000000000000100000000000000000400000800000000000000000804000000000000000020000000000000000000000000000040000000000000000040010000000000000000000000200000000000000000020000c000800010000000001000000000020608000000000000000000000004000000000000000000000008040008000000000000000002000010000000000000000000000000800208000000000000000200000000000000000000000208000000",
				"status": 1,
				"to": "0xB5E96127D417b1B3ef8438496a38A143167209c7"
			},
			"metadata": "{\"compiler\":{\"version\":\"0.8.23+commit.f704f362\"},\"language\":\"Solidity\",\"output\":{\"abi\":[{\"inputs\":[{\"internalType\":\"contract IJBDirectory\",\"name\":\"directory\",\"type\":\"address\"},{\"internalType\":\"contract IJBTokens\",\"name\":\"tokens\",\"type\":\"address\"},{\"internalType\":\"contract IJBPermissions\",\"name\":\"permissions\",\"type\":\"address\"},{\"internalType\":\"address\",\"name\":\"_configurator\",\"type\":\"address\"}],\"stateMutability\":\"nonpayable\",\"type\":\"constructor\"},{\"inputs\":[],\"type\":\"error\",\"name\":\"ALREADY_CONFIGURED\"},{\"inputs\":[],\"type\":\"error\",\"name\":\"ONLY_SUCKERS\"},{\"inputs\":[],\"type\":\"error\",\"name\":\"UNAUTHORIZED\"},{\"inputs\":[],\"stateMutability\":\"view\",\"type\":\"function\",\"name\":\"BRIDGE\",\"outputs\":[{\"internalType\":\"contract OPStandardBridge\",\"name\":\"\",\"type\":\"address\"}]},{\"inputs\":[],\"stateMutability\":\"view\",\"type\":\"function\",\"name\":\"MESSENGER\",\"outputs\":[{\"internalType\":\"contract OPMessenger\",\"name\":\"\",\"type\":\"address\"}]},{\"inputs\":[],\"stateMutability\":\"view\",\"type\":\"function\",\"name\":\"PERMISSIONS\",\"outputs\":[{\"internalType\":\"contract IJBPermissions\",\"name\":\"\",\"type\":\"address\"}]},{\"inputs\":[{\"internalType\":\"contract OPMessenger\",\"name\":\"messenger\",\"type\":\"address\"},{\"internalType\":\"contract OPStandardBridge\",\"name\":\"bridge\",\"type\":\"address\"}],\"stateMutability\":\"nonpayable\",\"type\":\"function\",\"name\":\"configureLayerSpecific\"},{\"inputs\":[{\"internalType\":\"uint256\",\"name\":\"localProjectId\",\"type\":\"uint256\"},{\"internalType\":\"bytes32\",\"name\":\"salt\",\"type\":\"bytes32\"}],\"stateMutability\":\"nonpayable\",\"type\":\"function\",\"name\":\"createForSender\",\"outputs\":[{\"internalType\":\"contract IBPSucker\",\"name\":\"sucker\",\"type\":\"address\"}]},{\"inputs\":[{\"internalType\":\"address\",\"name\":\"\",\"type\":\"address\"}],\"stateMutability\":\"view\",\"type\":\"function\",\"name\":\"isSucker\",\"outputs\":[{\"internalType\":\"bool\",\"name\":\"\",\"type\":\"bool\"}]}],\"devdoc\":{\"kind\":\"dev\",\"methods\":{\"createForSender(uint256,bytes32)\":{\"details\":\"Uses the sender address as the salt, which means the same sender must call this function on both chains.\",\"params\":{\"localProjectId\":\"The project's ID on the local chain.\",\"salt\":\"The salt to use for the `create2` address.\"},\"returns\":{\"sucker\":\"The address of the new sucker.\"}}},\"version\":1},\"userdoc\":{\"kind\":\"user\",\"methods\":{\"BRIDGE()\":{\"notice\":\"The bridge used to bridge tokens between the local and remote chain.\"},\"MESSENGER()\":{\"notice\":\"The messenger used to send messages between the local and remote sucker.\"},\"PERMISSIONS()\":{\"notice\":\"A contract storing permissions.\"},\"configureLayerSpecific(address,address)\":{\"notice\":\"handles some layer specific configuration that can't be done in the constructor otherwise deployment addresses would change.messenger the OPMesssenger on this layer.bridge the OPStandardBridge on this layer.\"},\"createForSender(uint256,bytes32)\":{\"notice\":\"Create a new `BPSucker` for a specific project.\"},\"isSucker(address)\":{\"notice\":\"A mapping of suckers deployed by this contract.\"}},\"version\":1}},\"settings\":{\"remappings\":[\"@arbitrum/=node_modules/@arbitrum/\",\"@bananapus/=node_modules/@bananapus/\",\"@chainlink/=node_modules/@chainlink/\",\"@eth-optimism/=node_modules/@eth-optimism/\",\"@offchainlabs/=node_modules/@offchainlabs/\",\"@openzeppelin/=node_modules/@openzeppelin/\",\"@prb/=node_modules/@prb/\",\"@scroll-tech/=node_modules/@scroll-tech/\",\"@sphinx-labs/contracts/=node_modules/@sphinx-labs/contracts/contracts/foundry/\",\"@uniswap/=node_modules/@uniswap/\",\"ds-test/=lib/forge-std/lib/ds-test/src/\",\"forge-std/=lib/forge-std/src/\",\"hardhat/=node_modules/hardhat/\",\"solmate/=node_modules/solmate/\",\"sphinx/=lib/sphinx/packages/contracts/contracts/forge-std/src/\"],\"optimizer\":{\"enabled\":true,\"runs\":200},\"metadata\":{\"bytecodeHash\":\"ipfs\"},\"compilationTarget\":{\"src/deployers/BPOptimismSuckerDeployer.sol\":\"BPOptimismSuckerDeployer\"},\"evmVersion\":\"paris\",\"libraries\":{}},\"sources\":{\"node_modules/@bananapus/core/src/abstract/JBPermissioned.sol\":{\"keccak256\":\"0xe08c8a7eeac9d1c7c2e0db6d5b98d1af09889300835a3d47d9f29319fecce703\",\"urls\":[\"bzz-raw://42645cf52bcc45053ef650790916faed5d0a74cecef336b217433fdd2c5c4166\",\"dweb:/ipfs/QmdMmxG1tSGucQwz4LYbVnuj7HU23YvqLH6xfrNWv5Bmus\"],\"license\":\"MIT\"},\"node_modules/@bananapus/core/src/enums/JBApprovalStatus.sol\":{\"keccak256\":\"0x61c69b6bac7d24b566d87cda23a77e4ca9cdb87200b106aba8534cb9a0973e33\",\"urls\":[\"bzz-raw://6a9ca7249de76f77a8252eefe6bd1b63d47952f25a2acfa2c8db967cdff4470c\",\"dweb:/ipfs/QmaxSxptRQNj8bNy96EreENmrnRWdKmhyihBcxyWzBX5BN\"],\"license\":\"MIT\"},\"node_modules/@bananapus/core/src/interfaces/IJBController.sol\":{\"keccak256\":\"0xe0b84058192f89e461c4b604388aa11a2f92f0f9969fb70fb3c18706d6f3e16b\",\"urls\":[\"bzz-raw://984fdcff63a17ccab65ff7723a628967e40965fcb4d47909cf8e314e8f044576\",\"dweb:/ipfs/QmaaHZWuaaH3oYxCDrip1rr4u4H1XtR3RcwwKAE73GAqkd\"],\"license\":\"MIT\"},\"node_modules/@bananapus/core/src/interfaces/IJBDirectory.sol\":{\"keccak256\":\"0x9cc380844aef60078ee47a61861e55a29c4a8c947efd556ebd36e6909f7b9d62\",\"urls\":[\"bzz-raw://9f5190ec8b6683d9781ee6e9eedcc91294753242748875d4a06349077e4cbaaf\",\"dweb:/ipfs/QmTQrPuXT9TCA4txwrperMeXSGvGxP8iokUK47f62F388i\"],\"license\":\"MIT\"},\"node_modules/@bananapus/core/src/interfaces/IJBDirectoryAccessControl.sol\":{\"keccak256\":\"0x1e67f56849320a46f834aaa9bd62b170ff8ada7b224b4a81136193740fa0be4d\",\"urls\":[\"bzz-raw://ea8fbcec44abfe49d137bcae129b67e5479d6b17879301f88534c8a7fab00be4\",\"dweb:/ipfs/QmT6wrtYX4GRpffHUzupNwYebJ1dqkkKZLEewWsoyunsqw\"],\"license\":\"MIT\"},\"node_modules/@bananapus/core/src/interfaces/IJBFundAccessLimits.sol\":{\"keccak256\":\"0xf5fd6bdd723b60d490ccbe22cdf1cfe43663d23e6ee48badcd1b71e3282cb16b\",\"urls\":[\"bzz-raw://fe692f0b843ea5fccdfcb68f4ec16e1c0add945bb74b303c9866342be0e31fbf\",\"dweb:/ipfs/QmSRmzpgp3DhNEhNDiLsSu7yEiTeywbzEFbwyGyDazjgKt\"],\"license\":\"MIT\"},\"node_modules/@bananapus/core/src/interfaces/IJBMigratable.sol\":{\"keccak256\":\"0xd69bd5aba01a68d82c303ef3adde47532abcace030a94296c3ea6988b401789c\",\"urls\":[\"bzz-raw://88f11a1c89899327746beba4fc830abf3ac2eb9c152c778e884a6eed6564971f\",\"dweb:/ipfs/QmTpKhSTVewpz7VyKcz6BJwH2LFKMwT7Qi5HNWmjEjwsdK\"],\"license\":\"MIT\"},\"node_modules/@bananapus/core/src/interfaces/IJBPayHook.sol\":{\"keccak256\":\"0x9438866782c652c2942f4d114e35f393cd3c8b0334abce8387eed90bca35e8b2\",\"urls\":[\"bzz-raw://cfd99daf57213f92325aad7d7d16e98476d38e870470e95ba01e3ae3cdecc95d\",\"dweb:/ipfs/QmUKKAVGf7ki8BHksr99tFcRW8APveeB5tNH63ctTbbCW8\"],\"license\":\"MIT\"},\"node_modules/@bananapus/core/src/interfaces/IJBPermissioned.sol\":{\"keccak256\":\"0x5b038d4dee116584e88b230920e56d48e135053e3f7e5642eaea14a775c1dad7\",\"urls\":[\"bzz-raw://19e43102f349fd4a1da1c0943ffb8f2950007fe4bb4bb7e8f74fc142575d091b\",\"dweb:/ipfs/QmXHAt4KzDTdDZgDDefEXH2WKi7NcfkJb9R7nxW5uDqsNp\"],\"license\":\"MIT\"},\"node_modules/@bananapus/core/src/interfaces/IJBPermissions.sol\":{\"keccak256\":\"0x18870e500edf0fbadc353e273a5574701fb80466376b908c65e7cc3f11044d4d\",\"urls\":[\"bzz-raw://352a47c45853aec80e7acf0d286ade3106eb4cb456776b28a3c2f3f1091bed90\",\"dweb:/ipfs/QmQeYd3YbudYZy2hfbfht9kwhxhw4tuuLKMEYy9UY6dcSy\"],\"license\":\"MIT\"},\"node_modules/@bananapus/core/src/interfaces/IJBPriceFeed.sol\":{\"keccak256\":\"0x4bd84c0f1a5d4729ed709bcddd43f4c50ec4a165ece79780af8dce482ed07d4a\",\"urls\":[\"bzz-raw://62bac4bfb6982fb002f620c77e5c445e62d50241a5aa64a07e51d929f5a42180\",\"dweb:/ipfs/QmWgJUDreVY2BuMX38a1iUUR5kNbMwGnKG3VvurB7oZtuM\"],\"license\":\"MIT\"},\"node_modules/@bananapus/core/src/interfaces/IJBPrices.sol\":{\"keccak256\":\"0x99525f31440b955742dce84ba57de9fc1221139b5367c1f834723bef9e13e6e1\",\"urls\":[\"bzz-raw://6fa03f0cd4ad87dd7cbae7bf7f54463450874291773c8f70f2c31ef2cae62bb0\",\"dweb:/ipfs/QmSPajPV5ismteJuB6Spzm9VmhTj2iS3eVrfpJC1Zuzg8n\"],\"license\":\"MIT\"},\"node_modules/@bananapus/core/src/interfaces/IJBProjectUriRegistry.sol\":{\"keccak256\":\"0x2799475228987e4f8334ac33d3935f759c9b8133db7383b4f622dde7a5dc0502\",\"urls\":[\"bzz-raw://d751731740f45df74eea48c9667e847ee2cddb2980ab4939c86bd17e6c6ed89b\",\"dweb:/ipfs/QmXW8SLTuhdUpfn7pRpdsYdcyuim8RTyagU37ULcj5UZhT\"],\"license\":\"MIT\"},\"node_modules/@bananapus/core/src/interfaces/IJBProjects.sol\":{\"keccak256\":\"0x735c2fb8f1fa827f054ee77f7a0ae4b312656217acb75b624d2c8fd9dc40151b\",\"urls\":[\"bzz-raw://ee7fc92299a8633a80693ae63ab494dcd125f1789487a54a39dc0e5696e5996f\",\"dweb:/ipfs/QmX7YJD4pS2XhgQb7p3JbBAXynT7YGPXcZe92BiWWRrsCL\"],\"license\":\"MIT\"},\"node_modules/@bananapus/core/src/interfaces/IJBRedeemHook.sol\":{\"keccak256\":\"0x8ab46fcd7d0e739661eb76056ad93ff99106f38420ef0b4eb97fa9f4bb71a68a\",\"urls\":[\"bzz-raw://0ef96fcb7ad26281d444d8e0c677b25114fdd63b1c172d477e030dce8ba53b62\",\"dweb:/ipfs/Qmcx1jRQuwU4pZFuLxsSsx4oMbRaDfktHrPnXextgbWc5m\"],\"license\":\"MIT\"},\"node_modules/@bananapus/core/src/interfaces/IJBRedeemTerminal.sol\":{\"keccak256\":\"0xd1b4aa38154e08f1474745ea6bc8f8823fe8aa68c124d596742597f2296ea16d\",\"urls\":[\"bzz-raw://9bd254e833702dfe5e28db5fee76478947ab45b501c966501f719e73bbf0397a\",\"dweb:/ipfs/QmZ3Ng7TmVxL6ozSUhx4kYdQdZhoYi4t43cYZVAMz7Fn5M\"],\"license\":\"MIT\"},\"node_modules/@bananapus/core/src/interfaces/IJBRulesetApprovalHook.sol\":{\"keccak256\":\"0x592e95d159494421c6b1bcb362d0cee1df0132921697351304e9cd7af4fbd386\",\"urls\":[\"bzz-raw://5bebfd5fa67c1b6ea16fa2e76e9520e9dfe52a579f48dd94d0c2ec45f78ad178\",\"dweb:/ipfs/QmRUawEGtfYoYSHmHELGhvJoWuMsxLPKtqAXgsrb7fJboP\"],\"license\":\"MIT\"},\"node_modules/@bananapus/core/src/interfaces/IJBRulesets.sol\":{\"keccak256\":\"0xd3f817d22ecbe24da63c552c069bf0c4fbbf3bcd5c3b5633002afd24aacf6882\",\"urls\":[\"bzz-raw://c1185aec0f6b6f0f4d93ffeeed0972ccf38420b00fe570b5e1838ed2b1f5db49\",\"dweb:/ipfs/QmWz36azGTFnjFXpFSh6BHt4nactgjtF64L3PeTqs4ZqSR\"],\"license\":\"MIT\"},\"node_modules/@bananapus/core/src/interfaces/IJBSplitHook.sol\":{\"keccak256\":\"0xeb8dfac7a4b81897a1c3b5d0d853a406bcff33720fb187d5ca5bb3dcc0ba3a12\",\"urls\":[\"bzz-raw://36aaeef6107cfe5b0127e063ea215aac7200f8af02e28a48e61111abd3254688\",\"dweb:/ipfs/QmQ8yQANXnhQCAWBGKsKCDsJ3A8hnTKNg5tyo79GfWXTcV\"],\"license\":\"MIT\"},\"node_modules/@bananapus/core/src/interfaces/IJBSplits.sol\":{\"keccak256\":\"0x92deeb9e22ce2aaafc608b85e9250b8ea2deed1ebf64b7442038b157b2bfe0e6\",\"urls\":[\"bzz-raw://08bf29f0c13c2e8be46065277f67e44ecaea960cb5474f13775eece0672566c2\",\"dweb:/ipfs/QmeGu9C6tuBjfmeizmpzptxgGmch6Mbtm34NFwZxzMvqc4\"],\"license\":\"MIT\"},\"node_modules/@bananapus/core/src/interfaces/IJBTerminal.sol\":{\"keccak256\":\"0x19dc9bf8cbdc8f13ee5da9dc3a87047eacb94a3fc19740a286c1f0bad2cc39ca\",\"urls\":[\"bzz-raw://0b05ae6fda9a85672508232fd992b8a5f5ffd8096622eeb12c8a7b3317eb3867\",\"dweb:/ipfs/QmNh9Quj37BXYGdTdcCD1Q58PchRsE5TLbEZep56qS3MpV\"],\"license\":\"MIT\"},\"node_modules/@bananapus/core/src/interfaces/IJBToken.sol\":{\"keccak256\":\"0x71b1f9c3a0edd41910f77396e0be2c65596571176d53eb87e887c3c0da56c0fb\",\"urls\":[\"bzz-raw://6e956f0582f4525e83d845ee9b4a89959abc4f821414f6accbbee5b38960482d\",\"dweb:/ipfs/QmbSvjgmCgnfVmcCTGu8XwrV1Rufsf3M8hB8unFq6fTMdH\"],\"license\":\"MIT\"},\"node_modules/@bananapus/core/src/interfaces/IJBTokenUriResolver.sol\":{\"keccak256\":\"0xfa5cb00dcd6085d1ef912d071fe73c63f9478a2cd0f9d8bddaf659b6af2d0967\",\"urls\":[\"bzz-raw://282e4e7c342d65f77cde0e9a08fcaf20ef5cf379c7a48b639842c0ffd0b2afb8\",\"dweb:/ipfs/QmbnN3PEQeZaXdPLT75V1J79kMg7KqSMru37RHrL3z8Yf2\"],\"license\":\"MIT\"},\"node_modules/@bananapus/core/src/interfaces/IJBTokens.sol\":{\"keccak256\":\"0x6fd67af915dd541d9547c8297aa9ae269690e4ee23531db43f021bcacec6076f\",\"urls\":[\"bzz-raw://2e5e11954e9ab2319fffccb6563f3db400b8f7760d4ffe2165048a02c9c37fa6\",\"dweb:/ipfs/QmbDXtV83dK8EfiTjsTRf55R2XqPZzDKcjtYbW8sxQ5CFm\"],\"license\":\"MIT\"},\"node_modules/@bananapus/core/src/libraries/JBConstants.sol\":{\"keccak256\":\"0x9d3a9a953f859d8ec79a599577f8972de6da7199cc1bfa7fdad017d4d722bcb4\",\"urls\":[\"bzz-raw://f151fcb53a8d2684eff8b9e56ac790bcbcadd8199a4fd4d17c5b224b22936722\",\"dweb:/ipfs/QmdAz1ZtCE8nTiC4AxQNLfJhnY3ndGum2Lbef7seKdvTdR\"],\"license\":\"MIT\"},\"node_modules/@bananapus/core/src/structs/JBAccountingContext.sol\":{\"keccak256\":\"0x2907ff54d1e903cc7e0390dd88c3975884702dc2673642aacbe22b66560b56de\",\"urls\":[\"bzz-raw://a66a5381ce877b32f0e0058ceeaf843e9b6b2bc8af666c0c9f4a9d01091da004\",\"dweb:/ipfs/QmQynCetUr37dBkS1YwDS8evxuXGiqanW6THmeUxXtim8w\"],\"license\":\"MIT\"},\"node_modules/@bananapus/core/src/structs/JBAfterPayRecordedContext.sol\":{\"keccak256\":\"0xd26c3a774ff38be79064085970454fe2603a23a638c76270d5b1b3829206c3e8\",\"urls\":[\"bzz-raw://3b55dbe3bf1ef625b7ca04efab3de35406e6041d5b3d82c7265469c500e2b702\",\"dweb:/ipfs/QmUdBDo4Lt3mcsFcsXT2mqq3czFwZjQJFPLM89YA2VtD7k\"],\"license\":\"MIT\"},\"node_modules/@bananapus/core/src/structs/JBAfterRedeemRecordedContext.sol\":{\"keccak256\":\"0x521f5d23a36f0da72362cd84890cc867bd83baa8dc836ba6c5066d51dba2f163\",\"urls\":[\"bzz-raw://6cc461313286dde62d045d6288e87bae5032e035796326f5b1ed6218e58aa9da\",\"dweb:/ipfs/QmQS2AkQwf2ANQieDuaUnpJEdXChoLv4CCbZqHkfywYPSR\"],\"license\":\"MIT\"},\"node_modules/@bananapus/core/src/structs/JBCurrencyAmount.sol\":{\"keccak256\":\"0x12fe4b43f4824994624d4fe0abbd88c3fe7867fd637edb65c7f456dab27e2d6e\",\"urls\":[\"bzz-raw://8003a3e8f932cf891e86b827e67c9d31b0d34c2712e18c2bc333cfe5284ba6d5\",\"dweb:/ipfs/QmSoA6RsDcSnNzk6CB7KZtALkHmeSDAi2g6fg3TDmLDkWX\"],\"license\":\"MIT\"},\"node_modules/@bananapus/core/src/structs/JBFundAccessLimitGroup.sol\":{\"keccak256\":\"0x9fdaa8d017b72da25f583700a444a86849df053f7fb8eac874ec5139bcf651e5\",\"urls\":[\"bzz-raw://c8e44c49ee444a98424a0dbeb6897a76a0bf00d88a613f62ac2012afdac754ee\",\"dweb:/ipfs/QmdYkAiRi5bXM1YYNkc7BiqimHSFodMGn1cjHR5hcpm4xH\"],\"license\":\"MIT\"},\"node_modules/@bananapus/core/src/structs/JBPermissionsData.sol\":{\"keccak256\":\"0x8f0f69a6ebf5f3704e3dfcb3712fb9d3f94ae7c1ab89bf3e37bad42a3e7a0487\",\"urls\":[\"bzz-raw://57b0c5e52843e2217082889ed47b4da3943e0da4590d5768dcebfe3edad4a6b8\",\"dweb:/ipfs/QmRz48vuWLw81kUP836rh1qzqWiJFGbksgRUA9xGEDNKTY\"],\"license\":\"MIT\"},\"node_modules/@bananapus/core/src/structs/JBRuleset.sol\":{\"keccak256\":\"0x15b2bf3174d84846a91ccbf5a344dfb125b55ed9cf50102db8d6868844225189\",\"urls\":[\"bzz-raw://647416b025dbd941094db89cbc69f755c155bd6c87be3f322394ccc4a8e0442d\",\"dweb:/ipfs/QmTCL9xcHnxQ4t5AmCPoZvXDUPW5xhzhyyXYbkMdyg44au\"],\"license\":\"MIT\"},\"node_modules/@bananapus/core/src/structs/JBRulesetConfig.sol\":{\"keccak256\":\"0x0be470df286939259a6b98bc71459e661e81d56a58226d6a574ae1484f8f8e6c\",\"urls\":[\"bzz-raw://64592c279ba7518ac180c835a539897163f299a439065f2cc8aa54086a2c9ad7\",\"dweb:/ipfs/QmaEepVvFJdXcDBMMr7SQYjZSDJXPtCca95kQY5rZbra6U\"],\"license\":\"MIT\"},\"node_modules/@bananapus/core/src/structs/JBRulesetMetadata.sol\":{\"keccak256\":\"0xfea54c9f98416d2aa05309e7ff76967d6968a614850a1e33e48fde793ea8b514\",\"urls\":[\"bzz-raw://bf55386cbab90dbc1296b2b0cbfdc217a4500d67702e4a093a4c78bd127ecd5c\",\"dweb:/ipfs/QmTRq9mZrNSXu7oCZwti4JbBFrbY6A5msRqi9RbtL49NAj\"],\"license\":\"MIT\"},\"node_modules/@bananapus/core/src/structs/JBRulesetWithMetadata.sol\":{\"keccak256\":\"0x1bcfadf20488f6df65227f8d4d0fbf9b7539456a2389567f7fe3900d23289bc3\",\"urls\":[\"bzz-raw://0a15c399a71e5373f8c0484c6d6b83521eda31e063a2c53e4c5cec4e74550343\",\"dweb:/ipfs/QmQwi8zkjoTVXbK89NeETYimWCacTrNsesJdpLSvGdqMPX\"],\"license\":\"MIT\"},\"node_modules/@bananapus/core/src/structs/JBSplit.sol\":{\"keccak256\":\"0x1d40fa4f1c911a53b9139f3d44d27cb58fa5c5d2cd793c7a21ccf52b9e61f848\",\"urls\":[\"bzz-raw://9897d2c29fc65fe16e4eac0b7b8b6fd8ef0b0cc501986f7f0c3a78c4ec1dbb60\",\"dweb:/ipfs/QmXcHoVjCYWWCz4hm2KZ6JxtB4YNq7jmXa2evLkga59Xwq\"],\"license\":\"MIT\"},\"node_modules/@bananapus/core/src/structs/JBSplitGroup.sol\":{\"keccak256\":\"0xda7da6e88aac2906c7ea4027660088daf217edc632bebca4d72795aae8921564\",\"urls\":[\"bzz-raw://ae1939d17e94cb51484f31ce64cf0df990445a338fb9b38d39a7baf28275ae4a\",\"dweb:/ipfs/QmUhPnJiWnYhFdtLvZnrPopAdbYXxETpGjvxjPDignpTGY\"],\"license\":\"MIT\"},\"node_modules/@bananapus/core/src/structs/JBSplitHookContext.sol\":{\"keccak256\":\"0xfe34e6860b00ca93d71f44e72882281b2c57c31303151af05795c74cfdd2e51d\",\"urls\":[\"bzz-raw://08acab094888e9c929b6f6f972d89ddbb31e5867675e7e7c602d25fcb2c0f402\",\"dweb:/ipfs/QmPNdXM185cTyXQSodVr4JMviHx88jrWu7dipgkp9xTNgJ\"],\"license\":\"MIT\"},\"node_modules/@bananapus/core/src/structs/JBTerminalConfig.sol\":{\"keccak256\":\"0xd162f3821a1ccafbc8d7d108369e39ac3048445a8c7fe7a3fa97a6343f9eefaa\",\"urls\":[\"bzz-raw://82172ea0407b6d9edc45e408c7e8edb8e129adf49a94349fe3a5862da9bc044e\",\"dweb:/ipfs/QmWheF5Tjq2hcabnSzfYqdFHUA1YxYEdAPZaRw9N166V1d\"],\"license\":\"MIT\"},\"node_modules/@bananapus/core/src/structs/JBTokenAmount.sol\":{\"keccak256\":\"0x5cf0626b73a596c1e2da17c89ae039a7c0374310b060d48568d3b6c11fbe6180\",\"urls\":[\"bzz-raw://63348b50be95e2995409394a17caffc563a646f0972650a1230bf864fbd3219b\",\"dweb:/ipfs/QmZXZpS3SbFD5nWaCauf6AqbEhLURv5qsKHpThBvQgDU6u\"],\"license\":\"MIT\"},\"node_modules/@bananapus/permission-ids/src/JBPermissionIds.sol\":{\"keccak256\":\"0xf61109f6b217a80d5e5391f548fb6f2e451f7dbee3fabfc04cf17e88722203bc\",\"urls\":[\"bzz-raw://ac776ab1cd621c22bd7973471acdfa187f3abc659ad9a3ef6ed10b6447dfcf9c\",\"dweb:/ipfs/QmYLbaHt68qcuMzkiKpe96jMjiWUq1F3u8yMhxmZ3pnnWu\"],\"license\":\"MIT\"},\"node_modules/@openzeppelin/contracts/token/ERC20/IERC20.sol\":{\"keccak256\":\"0xc6a8ff0ea489379b61faa647490411b80102578440ab9d84e9a957cc12164e70\",\"urls\":[\"bzz-raw://0ea104e577e63faea3b69c415637e99e755dcbf64c5833d7140c35a714d6d90c\",\"dweb:/ipfs/Qmau6x4Ns9XdyynRCNNp3RhLqijJjFm7z5fyZazfYFGYdq\"],\"license\":\"MIT\"},\"node_modules/@openzeppelin/contracts/token/ERC20/extensions/IERC20Permit.sol\":{\"keccak256\":\"0x6008dabfe393240d73d7dd7688033f72740d570aa422254d29a7dce8568f3aff\",\"urls\":[\"bzz-raw://f5196ec75139918c6c7bb4251b36395e668f1fa6d206beba7e7520e74913940d\",\"dweb:/ipfs/QmSyqjksXxmm2mCG6qRd1yuwLykypkSVBbnBnGqJRcuJMi\"],\"license\":\"MIT\"},\"node_modules/@openzeppelin/contracts/token/ERC20/utils/SafeERC20.sol\":{\"keccak256\":\"0x37bb49513c49c87c4642a891b13b63571bc87013dde806617aa1efb54605f386\",\"urls\":[\"bzz-raw://b3036b3a83b7c48f96641f2a9002b9f2dcb6a5958dd670894ada21ae8229b3d0\",\"dweb:/ipfs/QmUNfSBdoVtjhETaUJCYcaC7pTMgbhht926tJ2uXJbiVd3\"],\"license\":\"MIT\"},\"node_modules/@openzeppelin/contracts/token/ERC721/IERC721.sol\":{\"keccak256\":\"0x5ef46daa3b58ef2702279d514780316efaa952915ee1aa3396f041ee2982b0b4\",\"urls\":[\"bzz-raw://2f8f2a76e23b02fc69e8cd24c3cb47da6c7af3a2d6c3a382f8ac25c6e094ade7\",\"dweb:/ipfs/QmPV4ZS4tPVv4mTCf9ejyZ1ai57EEibDRj7mN2ARDCLV5n\"],\"license\":\"MIT\"},\"node_modules/@openzeppelin/contracts/utils/Address.sol\":{\"keccak256\":\"0xaf28a975a78550e45f65e559a3ad6a5ad43b9b8a37366999abd1b7084eb70721\",\"urls\":[\"bzz-raw://b7bd24e224f67f65bfadf85dc2929fa965456bb2415478bd0125471b5ce35245\",\"dweb:/ipfs/QmRaydGr8BTHs1kvaZfsNU69pKzUAGFrvABn1KiRSbE51y\"],\"license\":\"MIT\"},\"node_modules/@openzeppelin/contracts/utils/Context.sol\":{\"keccak256\":\"0x493033a8d1b176a037b2cc6a04dad01a5c157722049bbecf632ca876224dd4b2\",\"urls\":[\"bzz-raw://6a708e8a5bdb1011c2c381c9a5cfd8a9a956d7d0a9dc1bd8bcdaf52f76ef2f12\",\"dweb:/ipfs/Qmax9WHBnVsZP46ZxEMNRQpLQnrdE4dK8LehML1Py8FowF\"],\"license\":\"MIT\"},\"node_modules/@openzeppelin/contracts/utils/introspection/IERC165.sol\":{\"keccak256\":\"0x4296879f55019b23e135000eb36896057e7101fb7fb859c5ef690cf14643757b\",\"urls\":[\"bzz-raw://87b3541437c8c443ccd36795e56a338ed12855eec17f8da624511b8d1a7e14df\",\"dweb:/ipfs/QmeJQCtZrQjtJLr6u7ZHWeH3pBnjtLWzvRrKViAi7UZqxL\"],\"license\":\"MIT\"},\"node_modules/@openzeppelin/contracts/utils/structs/BitMaps.sol\":{\"keccak256\":\"0x3616f1b0d0a9ee1ca8f0953ecaceb9230e36f691c7974d30f964212acff52d2b\",\"urls\":[\"bzz-raw://d4bebdd07b31ac28e3e596ac6f0333da90a4e332405aa7d65f3a3a7e0b4cf15e\",\"dweb:/ipfs/QmckoDU5bBnye2UtPcrfJNahLD2FbxrnPP9nrREMWPpnug\"],\"license\":\"MIT\"},\"src/BPOptimismSucker.sol\":{\"keccak256\":\"0x2ca90f2e2cbd6e06e63cd6b431490a5ca0b40db68478290774f773d4945b901b\",\"urls\":[\"bzz-raw://6266afde708b37aad572404bd7cebcfdd904a3479ce35de4e71f898d96986120\",\"dweb:/ipfs/QmcS6nB6tfjmjLjyoppdk3hhNFWaRmsA6sWpJVvM44aiFn\"],\"license\":\"MIT\"},\"src/BPSucker.sol\":{\"keccak256\":\"0x5af69375acc2f22e3a198b6d20c873f15f8f5fabac461536f8337dd2bb8c7b34\",\"urls\":[\"bzz-raw://ce99483d7993d146ff614aaf4f6e326df283e73f3b8a372d9091949180fcbe9a\",\"dweb:/ipfs/Qmc5nMqVMXq6fGebQC5sZXGT87ZdLLsBwwTfYrfkotMUF6\"],\"license\":\"MIT\"},\"src/deployers/BPOptimismSuckerDeployer.sol\":{\"keccak256\":\"0xbf5592cf66c81dcafbe90962401d11b830fd4c8ede7d513e733a0f4ec75c7bd2\",\"urls\":[\"bzz-raw://d1979015a8dab8b36379f3aee1da7aa35d9677120a8c4ead7f7b4196f051c50d\",\"dweb:/ipfs/QmbGwxNX4fNkbbhwPp6rXSRKDgzsuWmKoQ5vbh3Bp1bSif\"],\"license\":\"MIT\"},\"src/enums/BPAddToBalanceMode.sol\":{\"keccak256\":\"0xa6dcd5c6225e2b697775d37a6f3a8ae4030f7af1a7cb4bb91d572eef65134e43\",\"urls\":[\"bzz-raw://583699b0f81837a739e5e54a1e0b0400a6021602bd7f48472c8785b22d3f25eb\",\"dweb:/ipfs/QmfL4Jr6p8B5q8uFX1ZfUS5vPsUxiGgMy5udVg9z2kPUQk\"],\"license\":\"MIT\"},\"src/interfaces/IBPSucker.sol\":{\"keccak256\":\"0x2a3136ea5608c3e76b9f3114a470980f2a96427535aaccbd65dcc37d3a3dd0f8\",\"urls\":[\"bzz-raw://8cc997a396b183525892a0640ce03aee9fa3f15971266c826a308f6c74ff63f2\",\"dweb:/ipfs/QmZcoMkGbujqLm5B9v5urpFwUVg2uoG7ybPHX8RRxsygpe\"],\"license\":\"MIT\"},\"src/interfaces/IBPSuckerDeployer.sol\":{\"keccak256\":\"0xe252e890c4b5e12d5fa537a11cd2fad936f41be80240301ace8afca3de481222\",\"urls\":[\"bzz-raw://730855964dd0629f3d514ed52f59d80d02786733c3b8b5cf21e69524de7f8829\",\"dweb:/ipfs/QmUuoYEmnzUNn3hANGrg8sDZdjoaEbgWMWLepsSQt9MUyw\"],\"license\":\"MIT\"},\"src/interfaces/OPMessenger.sol\":{\"keccak256\":\"0x0be6648aa7ed6272db8d415992d16dc10b36a4a8ed2f8e3adac8433ca7834dae\",\"urls\":[\"bzz-raw://1a3aeecda2b108059ce2b271364121d69afa4afcd2d0341eae31d181d5a6881d\",\"dweb:/ipfs/QmcaB3EzUW8btTVa1FCgmhTFqTSAwdmK47K95cV88vg9J9\"],\"license\":\"MIT\"},\"src/interfaces/OPStandardBridge.sol\":{\"keccak256\":\"0xb5717563fc9dcbe47ab2ed8b98a1a5757b51935989b9a78091eb590c8dbb8d5a\",\"urls\":[\"bzz-raw://5d9acbe757d1103be408303d53c25ee8a6b6dc799e8dd58e4756ac4028b4ccd5\",\"dweb:/ipfs/QmVuqESXkFhrcRAAfTkXSXp7uWrN5QA7eAH6x3DpeAoAMe\"],\"license\":\"MIT\"},\"src/structs/BPClaim.sol\":{\"keccak256\":\"0x63a12013ec4c221781b057185a0e01c83ac19dcef115ad6238d25a22011da071\",\"urls\":[\"bzz-raw://0307e4377f2cbd3ec561405eb2ffa07e0d9fe2c39522eb0706e91b46efa1b2a7\",\"dweb:/ipfs/QmXKeKQ6mJGehNJt3v2fqE22MFoGjcpm2x9hHA25vu7xAH\"],\"license\":\"MIT\"},\"src/structs/BPInboxTreeRoot.sol\":{\"keccak256\":\"0xff494c45ee76d14e2ffb3cd0f22412b4a1a4d8e37b957a3ffb82b0b9db4f74ab\",\"urls\":[\"bzz-raw://a896310d4dcfecca8b1927bf82832c9b5de5a455228fd9aad2530729ce61739b\",\"dweb:/ipfs/QmUiep5HvdqgJZyJqt4kKxWuP2odhY5W9kX7pCuovTr3LM\"],\"license\":\"MIT\"},\"src/structs/BPLeaf.sol\":{\"keccak256\":\"0xaa2257b6d8fc05d9b37fdb40472cd2f4bed45e7ddc1ea9082ca5296215602bc8\",\"urls\":[\"bzz-raw://ebdf0d3c3961adb71fd7174f9a8eca8332202d07ee5a584abbb06b7c15db61d0\",\"dweb:/ipfs/QmWtqWUncWvZotfno2kiU5TeT3WTR9zfPzRTiktZskyS13\"],\"license\":\"MIT\"},\"src/structs/BPMessageRoot.sol\":{\"keccak256\":\"0xab832c9e92d412cc0d8e6758777694955fef6dcbc919f96b33052d68d0516d1d\",\"urls\":[\"bzz-raw://fa9fe2604015f05e1a4f2c1a92f4ef7b6cba3d08d9e7daa2b20190a9b1bce39c\",\"dweb:/ipfs/QmUDcrNmqnp1dPwkmPTjsu7Egbwtgsk42G9FNdrHk6JcB2\"],\"license\":\"MIT\"},\"src/structs/BPOutboxTree.sol\":{\"keccak256\":\"0xed569423f6ae3dafee5681a60b7c5d24b0c5f33ff0763937952e938be374d79e\",\"urls\":[\"bzz-raw://4dafb1348a51324105b2ee100e2174fee0f1397f0b2dd00483b2dcf049477ce4\",\"dweb:/ipfs/Qmcf8jizBW7BGGnHBVetaDvYcZ75ov8oYw8LubaNUHrHCv\"],\"license\":\"MIT\"},\"src/structs/BPRemoteToken.sol\":{\"keccak256\":\"0x703d0112f181683d9b3508bf9fc0ef2f5c3cac73de0a718d9f405561fad14622\",\"urls\":[\"bzz-raw://80c0dd5e9ef7648efc48306da2c50829490c41cf09292f0f82fa3e24ce9dbe37\",\"dweb:/ipfs/QmYTgR72bVH3r1xKvMaE1tRUAkqkZjZa2v1eki1973qn3U\"],\"license\":\"MIT\"},\"src/structs/BPTokenMapping.sol\":{\"keccak256\":\"0x84865bda925cdc9a608cbbfc487619acba391f98ae12bbbfdbc5779d617a17d9\",\"urls\":[\"bzz-raw://3bbc1fdd38feaf64fd4914bddb62cda7e5b8ee0f046a0eac8cfcb15f9493bcc5\",\"dweb:/ipfs/QmXgAx7sr1M8r71YrSeQJGAB1uhvdxpQyS633UgJvLCQfb\"],\"license\":\"MIT\"},\"src/utils/MerkleLib.sol\":{\"keccak256\":\"0x6803b76f79362d9b5cd8e32eb1da6ed675146554dcd2f77747c4406f5f7a25f4\",\"urls\":[\"bzz-raw://3db2984a7eae5e7dc78517fd3a696180e95fdf00bf3267b31d1dbaddb0865cab\",\"dweb:/ipfs/QmPG8Nxwcb5Q7unUzMLCwaaRv8MvR7rskfacSDqbDW5zPZ\"],\"license\":\"MIT OR Apache-2.0\"}},\"version\":1}",
			"args": [
				"0xCD8c4da77dfb15C05486D3F71Ee4C2C0dfdbc94e",
				"0x792b79adb4Aa06edDabd6ddef5EE06dCb946F436",
				"0x1e2E8562b635fe19978640C784e47865A83d6605",
				"0x6a65B75A3f37C6702A117Fb87B6bCaC62657d216"
			],
			"bytecode": "0x61010060405234801561001157600080fd5b50604051614bae380380614bae8339810160408190526100309161006a565b6001600160a01b03918216608052811660e05291821660a0521660c0526100c9565b6001600160a01b038116811461006757600080fd5b50565b6000806000806080858703121561008057600080fd5b845161008b81610052565b602086015190945061009c81610052565b60408601519093506100ad81610052565b60608601519092506100be81610052565b939692955090935050565b60805160a05160c05160e051614aa86101066000396000505060006101900152600061016f01526000818161010a01526101b10152614aa86000f3fe608060405234801561001057600080fd5b50600436106100625760003560e01c80631213036614610067578063927ede2d14610097578063c39ec124146100aa578063cc8b6f4f146100dd578063ee9a31a2146100f2578063f434c91414610105575b600080fd5b61007a6100753660046102b7565b61012c565b6040516001600160a01b0390911681526020015b60405180910390f35b60005461007a906001600160a01b031681565b6100cd6100b83660046102f1565b60026020526000908152604090205460ff1681565b604051901515815260200161008e565b6100f06100eb366004610315565b61023b565b005b60015461007a906001600160a01b031681565b61007a7f000000000000000000000000000000000000000000000000000000000000000081565b6040516bffffffffffffffffffffffff193360601b16602082015260348101829052600090605401604051602081830303815290604052805190602001209150817f00000000000000000000000000000000000000000000000000000000000000007f00000000000000000000000000000000000000000000000000000000000000007f000000000000000000000000000000000000000000000000000000000000000060008760006040516101e1906102aa565b6101f09695949392919061034e565b8190604051809103906000f5905080158015610210573d6000803e3d6000fd5b506001600160a01b0381166000908152600260205260409020805460ff191660011790559392505050565b6000546001600160a01b031615158061025e57506001546001600160a01b031615155b1561027c5760405163ccbe17fd60e01b815260040160405180910390fd5b600080546001600160a01b039384166001600160a01b03199182161790915560018054929093169116179055565b6146c6806103ad83390190565b600080604083850312156102ca57600080fd5b50508035926020909101359150565b6001600160a01b03811681146102ee57600080fd5b50565b60006020828403121561030357600080fd5b813561030e816102d9565b9392505050565b6000806040838503121561032857600080fd5b8235610333816102d9565b91506020830135610343816102d9565b809150509250929050565b6001600160a01b03878116825286811660208301528581166040830152841660608201526080810183905260c081016002831061039b57634e487b7160e01b600052602160045260246000fd5b8260a083015297965050505050505056fe6101a06040523480156200001257600080fd5b50604051620046c6380380620046c68339810160408190526200003591620001c1565b6001600160a01b0380851660805280871660c05280861660e0528690869086908690869086908316156200006a57826200006c565b305b6001600160a01b03166101205261014082905233610100528060018111156200009957620000996200024c565b60a0816001811115620000b057620000b06200024c565b905250505050505050336001600160a01b031663927ede2d6040518163ffffffff1660e01b8152600401602060405180830381865afa158015620000f8573d6000803e3d6000fd5b505050506040513d601f19601f820116820180604052508101906200011e919062000262565b6001600160a01b0316610160526040805163774d18d160e11b81529051339163ee9a31a29160048083019260209291908290030181865afa15801562000168573d6000803e3d6000fd5b505050506040513d601f19601f820116820180604052508101906200018e919062000262565b6001600160a01b0316610180525062000289945050505050565b6001600160a01b0381168114620001be57600080fd5b50565b60008060008060008060c08789031215620001db57600080fd5b8651620001e881620001a8565b6020880151909650620001fb81620001a8565b60408801519095506200020e81620001a8565b60608801519094506200022181620001a8565b608088015160a08901519194509250600281106200023e57600080fd5b809150509295509295509295565b634e487b7160e01b600052602160045260246000fd5b6000602082840312156200027557600080fd5b81516200028281620001a8565b9392505050565b60805160a05160c05160e05161010051610120516101405161016051610180516142fa620003cc600039600081816101d5015281816113e901526114380152600081816105bd0152818161158d01528181611e480152611eae015260008181610249015281816107cc01528181610849015281816109e601528181610e6d01528181610f160152818161172a015281816117ef0152818161186c01528181611af801528181611bb101528181611cb30152611ddb0152600081816103ae01528181611469015281816115b80152611e84015260006104880152600081816101620152610a0f01526000818161037a0152818161073d01528181610e93015281816117650152611b270152600081816104bc01528181610b8301528181610e0f0152611028015260008181610589015281816111d3015261127c01526142fa6000f3fe6080604052600436106101445760003560e01c806388bc2ef3116100b6578063c1b8411a1161006f578063c1b8411a14610476578063c6525f2c146104aa578063e7f82c75146104eb578063ed0e26b914610518578063f434c91414610577578063fc8fa43d146105ab57600080fd5b806388bc2ef314610368578063ad42938b1461039c578063b59ef50f146103d0578063b71c1179146103f0578063bf557aee14610403578063c18541291461045657600080fd5b806356539f391161010857806356539f391461023757806361c864171461027957806369ce22331461028e57806369d31fdd146102ae5780636dfa7268146102c15780637de6fba2146102f057600080fd5b80631d831d5c146101505780632241dc52146101a15780632847f1f3146101c357806338eb2044146101f7578063551ebbf01461021757600080fd5b3661014b57005b600080fd5b34801561015c57600080fd5b506101847f000000000000000000000000000000000000000000000000000000000000000081565b6040516001600160a01b0390911681526020015b60405180910390f35b3480156101ad57600080fd5b506101c16101bc366004613c87565b6105df565b005b3480156101cf57600080fd5b506101847f000000000000000000000000000000000000000000000000000000000000000081565b34801561020357600080fd5b506101c1610212366004613d13565b610617565b34801561022357600080fd5b506101c1610232366004613d44565b6109b0565b34801561024357600080fd5b5061026b7f000000000000000000000000000000000000000000000000000000000000000081565b604051908152602001610198565b34801561028557600080fd5b5061026b610b2f565b34801561029a57600080fd5b506101c16102a9366004613d8e565b610b7f565b6101c16102bc366004613d13565b610bf8565b3480156102cd57600080fd5b506102e16102dc366004613d8e565b610d69565b60405161019893929190613dab565b3480156102fc57600080fd5b5061033e61030b366004613d8e565b6003602052600090815260409020805460019091015463ffffffff82169164010000000090046001600160a01b03169083565b6040805163ffffffff90941684526001600160a01b03909216602084015290820152606001610198565b34801561037457600080fd5b506101847f000000000000000000000000000000000000000000000000000000000000000081565b3480156103a857600080fd5b506101847f000000000000000000000000000000000000000000000000000000000000000081565b3480156103dc57600080fd5b506101c16103eb366004613e04565b610dd3565b6101c16103fe366004613d8e565b6110a7565b34801561040f57600080fd5b5061044661041e366004613d8e565b6001600160a01b03908116600090815260036020526040902054640100000000900416151590565b6040519015158152602001610198565b34801561046257600080fd5b506101c1610471366004613e17565b611155565b34801561048257600080fd5b506101847f000000000000000000000000000000000000000000000000000000000000000081565b3480156104b657600080fd5b506104de7f000000000000000000000000000000000000000000000000000000000000000081565b6040516101989190613e90565b3480156104f757600080fd5b5061026b610506366004613d8e565b60026020526000908152604090205481565b34801561052457600080fd5b50610558610533366004613d8e565b600160208190526000918252604090912080549101546001600160401b039091169082565b604080516001600160401b039093168352602083019190915201610198565b34801561058357600080fd5b506101847f000000000000000000000000000000000000000000000000000000000000000081565b3480156105b757600080fd5b506101847f000000000000000000000000000000000000000000000000000000000000000081565b60005b818110156106125761060a8383838181106105ff576105ff613eb8565b905060800201610617565b6001016105e2565b505050565b60006106266020830183613d8e565b9050600061eeee61063a6020850185613d8e565b6001600160a01b031614905080801561066d575061eeee6106616060850160408601613d8e565b6001600160a01b031614155b8015610692575060006106866060850160408601613d8e565b6001600160a01b031614155b156106d1576106a76060840160408501613d8e565b604051630a0a3b6b60e31b81526001600160a01b0390911660048201526024015b60405180910390fd5b62030d406106e56040850160208601613ece565b63ffffffff161080156106f6575080155b156107385762030d4061070f6040850160208601613ece565b604051634f3dbeb360e11b815263ffffffff9283166004820152911660248201526044016106c8565b61086f7f00000000000000000000000000000000000000000000000000000000000000006001600160a01b031663293c49996040518163ffffffff1660e01b8152600401602060405180830381865afa158015610799573d6000803e3d6000fd5b505050506040513d601f19601f820116820180604052508101906107bd9190613ef4565b6040516331a9108f60e11b81527f000000000000000000000000000000000000000000000000000000000000000060048201526001600160a01b039190911690636352211e90602401602060405180830381865afa158015610823573d6000803e3d6000fd5b505050506040513d601f19601f820116820180604052508101906108479190613ef4565b7f0000000000000000000000000000000000000000000000000000000000000000601c611189565b60006108816060850160408601613d8e565b6001600160a01b03161480156108b157506001600160a01b03821660009081526020819052604090206001015415155b1561090c576001600160a01b0380831660009081526003602090815260408083208151606081018352815463ffffffff811682526401000000009004909516928501929092526001909101549083015261090c91849061130d565b604051806060016040528084602001602081019061092a9190613ece565b63ffffffff1681526020016109456060860160408701613d8e565b6001600160a01b0390811682526060909501356020918201529284166000908152600384526040908190208251815495840151909616640100000000026001600160c01b031990951663ffffffff909616959095179390931784559091015160019092019190915550565b6001600160a01b0383166109d7576040516309a9c30b60e41b815260040160405180910390fd5b60405163ea78803f60e01b81527f000000000000000000000000000000000000000000000000000000000000000060048201526000907f00000000000000000000000000000000000000000000000000000000000000006001600160a01b03169063ea78803f90602401602060405180830381865afa158015610a5e573d6000803e3d6000fd5b505050506040513d601f19601f82011682018060405250810190610a829190613ef4565b90506001600160a01b038116610aab57604051635a33845560e01b815260040160405180910390fd5b6001600160a01b03828116600090815260036020526040902054640100000000900416610af65760405163393e175160e01b81526001600160a01b03831660048201526024016106c8565b610b0b6001600160a01b0382163330886116b4565b6000610b198287858761171b565b9050610b278684838861190e565b505050505050565b6000466001819003610b4357600a91505090565b80600a03610b5357600191505090565b8062aa36a703610b675762aa37dc91505090565b8062aa37dc03610b7b5762aa36a791505090565b5090565b60007f00000000000000000000000000000000000000000000000000000000000000006001811115610bb357610bb3613e7a565b14610bd15760405163218a9a2d60e11b815260040160405180910390fd5b6001600160a01b038116600090815260026020526040902054610bf5908290611a92565b50565b610c0133611e44565b610c1e57604051630439dbd360e51b815260040160405180910390fd5b60208101803590600290600090610c359085613d8e565b6001600160a01b03166001600160a01b031681526020019081526020016000206000828254610c649190613f27565b90915550600190506000610c7b6020840184613d8e565b6001600160a01b0316815260208101919091526040908101600020546001600160401b031690610cb19060608401908401613f4f565b6001600160401b03161115610bf5576040810160016000610cd56020850185613d8e565b6001600160a01b031681526020810191909152604001600020610cf88282613f6c565b50610d0890506020820182613d8e565b6001600160a01b03167f551b6b99b4c48e3265d2885ab0d93779be2402293261e074f7bf74b2c8f45b6f610d426060840160408501613f4f565b604080516001600160401b039092168252606085013560208301520160405180910390a250565b6000602081815291815260409081902080546001820154835161044081018086526001600160401b0390931695919490926002850192849283019184919082845b815481526020019060010190808311610daa575050509183525050602091820154910152905083565b610e0b6060820135610de86020840184613d8e565b6080840135610dfd6060860160408701613d8e565b602086013560a08701611f41565b60017f00000000000000000000000000000000000000000000000000000000000000006001811115610e3f57610e3f613e7a565b03610e5e57610e5e610e546020830183613d8e565b6080830135611a92565b604051632eec7b5560e11b81527f000000000000000000000000000000000000000000000000000000000000000060048201527f00000000000000000000000000000000000000000000000000000000000000006001600160a01b031690635dd8f6aa90602401602060405180830381865afa158015610ee2573d6000803e3d6000fd5b505050506040513d601f19601f82011682018060405250810190610f069190613ef4565b6001600160a01b031663c7fb92de7f000000000000000000000000000000000000000000000000000000000000000060608401803590610f499060408701613d8e565b6040516001600160e01b031960e086901b168152600481019390935260248301919091526001600160a01b0316604482015260a06064820152600060a48201819052608482015260c4016020604051808303816000875af1158015610fb2573d6000803e3d6000fd5b505050506040513d601f19601f82011682018060405250810190610fd69190613f9f565b507f487194902d206a126abe9f23a4e2b78d1600ed8034b1423290a13edd6ebc7d146110086060830160408401613d8e565b6110156020840184613d8e565b60608401356080850135602086013560017f0000000000000000000000000000000000000000000000000000000000000000600181111561105857611058613e7a565b14611064576000611067565b60015b604080516001600160a01b0397881681529690951660208701529385019290925260608401526080830152151560a082015260c00160405180910390a150565b6001600160a01b0380821660008181526003602090815260408083208151606081018352815463ffffffff811682526401000000009004909616868401526001908101548683018190529484529183905290912001541015611146576040808201516001600160a01b0384166000908152602081905282902060010154915163091df9e560e31b81526106c89290600401918252602082015260400190565b61115134838361130d565b5050565b60005b818110156106125761118183838381811061117557611175613eb8565b90506104a00201610dd3565b600101611158565b336001600160a01b0384168114801590611240575060405163c161c93f60e01b81526001600160a01b038281166004830152858116602483015260448201859052606482018490527f0000000000000000000000000000000000000000000000000000000000000000169063c161c93f90608401602060405180830381865afa15801561121a573d6000803e3d6000fd5b505050506040513d601f19601f8201168201806040525081019061123e9190613fb8565b155b80156112e9575060405163c161c93f60e01b81526001600160a01b038281166004830152858116602483015260006044830152606482018490527f0000000000000000000000000000000000000000000000000000000000000000169063c161c93f90608401602060405180830381865afa1580156112c3573d6000803e3d6000fd5b505050506040513d601f19601f820116820180604052508101906112e79190613fb8565b155b156113075760405163075fd2b160e01b815260040160405180910390fd5b50505050565b6000831561132e576040516352864b0160e11b815260040160405180910390fd5b6001600160a01b038316600090815260208190526040812060018101805490839055815490929190829061136a906001600160401b0316613fda565b91906101000a8154816001600160401b0302191690836001600160401b031602179055905060006001600160a01b031684602001516001600160a01b0316036113d15760405163393e175160e01b81526001600160a01b03861660048201526024016106c8565b6001600160a01b03851661eeee146114cc5761140e857f000000000000000000000000000000000000000000000000000000000000000084612071565b6020808501518551604080519384018152600084525163540abf7360e01b81526001600160a01b037f0000000000000000000000000000000000000000000000000000000000000000169363540abf7393611495938b9391927f0000000000000000000000000000000000000000000000000000000000000000928a929190600401614050565b600060405180830381600087803b1580156114af57600080fd5b505af11580156114c3573d6000803e3d6000fd5b505050506114d0565b8192505b6001600160a01b03851660009081526020819052604081206114f490600201612101565b6001600160a01b03871660009081526020819052604081206022015491925090611520906001906140a3565b604080516060810182526020808a01516001600160a01b039081168352818301898152845180860186526001600160401b03808b1682528185018a9052858701918252955194518316602486015290516044850152518051909416606484015292015160848201529192507f00000000000000000000000000000000000000000000000000000000000000001690633dbb202b9087907f00000000000000000000000000000000000000000000000000000000000000009060a40160408051601f198184030181529181526020820180516001600160e01b03166369d31fdd60e01b179052516001600160e01b031960e086901b16815261162a929190620493e0906004016140b6565b6000604051808303818588803b15801561164357600080fd5b505af1158015611657573d6000803e3d6000fd5b5050604080518581526001600160401b03881660208201526001600160a01b038c1694508693507f3e069c1f498cba23d7d2b74b84311469e8da6e527cade62061d642c61b64e0de92500160405180910390a35050505050505050565b6040516001600160a01b0384811660248301528381166044830152606482018390526113079186918216906323b872dd906084015b604051602081830303815290604052915060e01b6020820180516001600160e01b0383818316178352505050506134b7565b604051630862026560e41b81527f000000000000000000000000000000000000000000000000000000000000000060048201526001600160a01b03838116602483015260009182917f00000000000000000000000000000000000000000000000000000000000000001690638620265090604401602060405180830381865afa1580156117ac573d6000803e3d6000fd5b505050506040513d601f19601f820116820180604052508101906117d09190613ef4565b90506001600160a01b03811661182a57604051630c9ae01360e01b81527f000000000000000000000000000000000000000000000000000000000000000060048201526001600160a01b03851660248201526044016106c8565b6000611836853061351a565b60408051602081018252600081529051635db90a7f60e11b81529192506001600160a01b0384169163bb7214fe9161189c9130917f0000000000000000000000000000000000000000000000000000000000000000918b918d918c9186916004016140f0565b6020604051808303816000875af11580156118bb573d6000803e3d6000fd5b505050506040513d601f19601f820116820180604052508101906118df9190613f9f565b9250806118ec863061351a565b6118f691906140a3565b831461190457611904614142565b5050949350505050565b600061191b8584846135b1565b6001600160a01b0385166000908152602081815260408083208151610440810180845295965093946119869487949093600290930192849290830191849182845b81548152602001906001019080831161195c575050509183525050602091820154910152906135f6565b6001600160a01b038616600090815260208181526040909120825192935083926002909101916119b7918391613bf9565b50602091820151908201556001600160a01b0386166000908152908190526040812060010180548692906119ec908490613f27565b92505081905550846001600160a01b0316836001600160a01b03167f7b58dbb78e7edc690b0688a53dea0c443d630c4a5db66c3c47d4ff2044c977288460018560200151611a3a91906140a3565b6001600160a01b038a166000908152602081905260409020611a5e90600201612101565b60408051938452602084019290925290820152606081018a90526080810188905260a00160405180910390a3505050505050565b6001600160a01b03821660009081526002602052604090205480821115611acc57604051632858f9ab60e11b815260040160405180910390fd5b6001600160a01b03838116600081815260026020526040808220868603905551630862026560e41b81527f000000000000000000000000000000000000000000000000000000000000000060048201526024810192909252917f00000000000000000000000000000000000000000000000000000000000000001690638620265090604401602060405180830381865afa158015611b6e573d6000803e3d6000fd5b505050506040513d601f19601f82011682018060405250810190611b929190613ef4565b90506001600160a01b038116611bec57604051630c9ae01360e01b81527f000000000000000000000000000000000000000000000000000000000000000060048201526001600160a01b03851660248201526044016106c8565b6001600160a01b03841661eeee14611d9c576040516370a0823160e01b81523060048201526000906001600160a01b038616906370a0823190602401602060405180830381865afa158015611c45573d6000803e3d6000fd5b505050506040513d601f19601f82011682018060405250810190611c699190613f9f565b9050611c76858386612071565b60408051602080820183526000808352835191820184528082529251639e6eec0560e01b81526001600160a01b03861693639e6eec0593611ce3937f0000000000000000000000000000000000000000000000000000000000000000938c938c9390929091600401614158565b600060405180830381600087803b158015611cfd57600080fd5b505af1158015611d11573d6000803e3d6000fd5b505050508381611d2191906140a3565b6040516370a0823160e01b81523060048201526001600160a01b038716906370a0823190602401602060405180830381865afa158015611d65573d6000803e3d6000fd5b505050506040513d601f19601f82011682018060405250810190611d899190613f9f565b14611d9657611d96614142565b50611307565b60408051602080820183526000808352835191820184528082529251639e6eec0560e01b81526001600160a01b03851693639e6eec05938893611e0c937f0000000000000000000000000000000000000000000000000000000000000000938c9387939192909190600401614158565b6000604051808303818588803b158015611e2557600080fd5b505af1158015611e39573d6000803e3d6000fd5b505050505050505050565b60007f00000000000000000000000000000000000000000000000000000000000000006001600160a01b0316826001600160a01b0316148015611f3b57507f00000000000000000000000000000000000000000000000000000000000000006001600160a01b03167f00000000000000000000000000000000000000000000000000000000000000006001600160a01b0316636e296e456040518163ffffffff1660e01b81526004016020604051808303816000875af1158015611f0c573d6000803e3d6000fd5b505050506040513d601f19601f82011682018060405250810190611f309190613ef4565b6001600160a01b0316145b92915050565b6001600160a01b0385166000908152600460209081526040808320600886901c8452909152902054600160ff84161b1615611f925760405163ed9bdd0760e01b8152600481018390526024016106c8565b6001600160a01b0385166000908152600460209081526040808320600886901c845290915281208054600160ff86161b179055612001611fd38887876135b1565b6040805161040081810190925290859060209083908390808284376000920191909152508791506136fc9050565b6001600160a01b038716600090815260016020819052604090912001549091508114612068576001600160a01b0386166000908152600160208190526040918290200154905163286f87c960e21b81526004810191909152602481018290526044016106c8565b50505050505050565b604080516001600160a01b038416602482015260448082018490528251808303909101815260649091019091526020810180516001600160e01b031663095ea7b360e01b1790526120c28482613a4a565b611307576040516001600160a01b038481166024830152600060448301526120f791869182169063095ea7b3906064016116e9565b61130784826134b7565b602081015460009080820361213857507f27ae5ba08d7291c96c8cbddcc148bf48a6d68c7974b94356f53754ef6171d75792915050565b600083600183161561215a578054600052600060205260406000209350612a0d565b600283161561219f5760018101546000527fad3228b676f7d3cd4284a5443f17f1962b36e491b30a40b2405849e597ba5fb56020526040600020935060019150612a0d565b60048316156121e45760028101546000527fb4c11951957c6f8f642c4af61cd6b24640fec6dc7fc607ee8206a99e92410d306020526040600020935060029150612a0d565b60088316156122295760038101546000527f21ddb9a356815c3fac1026b6dec5df3124afbadb485c9ba5a3e3398a04b7ba856020526040600020935060039150612a0d565b601083161561226e5760048101546000527fe58769b32a1beaf1ea27375a44095a0d1fb664ce2dd358e7fcbfb78c26a193446020526040600020935060049150612a0d565b60208316156122b35760058101546000527f0eb01ebfc9ed27500cd4dfc979272d1f0913cc9f66540d7e8005811109e1cf2d6020526040600020935060059150612a0d565b60408316156122f85760068101546000527f887c22bd8750d34016ac3c66b5ff102dacdd73f6b014e710b51e8022af9a19686020526040600020935060069150612a0d565b608083161561233d5760078101546000527fffd70157e48063fc33c97a050f7f640233bf646cc98d9524c6b92bcf3ab56f836020526040600020935060079150612a0d565b6101008316156123835760088101546000527f9867cc5f7f196b93bae1e27e6320742445d290f2263827498b54fec539f756af6020526040600020935060089150612a0d565b6102008316156123c95760098101546000527fcefad4e508c098b9a7e1d8feb19955fb02ba9675585078710969d3440f5054e06020526040600020935060099150612a0d565b61040083161561240f57600a8101546000527ff9dc3e7fe016e050eff260334f18a5d4fe391d82092319f5964f2e2eb7c1c3a560205260406000209350600a9150612a0d565b61080083161561245557600b8101546000527ff8b13a49e282f609c317a833fb8d976d11517c571d1221a265d25af778ecf89260205260406000209350600b9150612a0d565b61100083161561249b57600c8101546000527f3490c6ceeb450aecdc82e28293031d10c7d73bf85e57bf041a97360aa2c5d99c60205260406000209350600c9150612a0d565b6120008316156124e157600d8101546000527fc1df82d9c4b87413eae2ef048f94b4d3554cea73d92b0f7af96e0271c691e2bb60205260406000209350600d9150612a0d565b61400083161561252757600e8101546000527f5c67add7c6caf302256adedf7ab114da0acfe870d449a3a489f781d659e8becc60205260406000209350600e9150612a0d565b61800083161561256d57600f8101546000527fda7bce9f4e8618b6bd2f4132ce798cdc7a60e7e1460a7299e3c6342a579626d260205260406000209350600f9150612a0d565b620100008316156125b45760108101546000527f2733e50f526ec2fa19a22b31e8ed50f23cd1fdf94c9154ed3a7609a2f1ff981f6020526040600020935060109150612a0d565b620200008316156125fb5760118101546000527fe1d3b5c807b281e4683cc6d6315cf95b9ade8641defcb32372f1c126e398ef7a6020526040600020935060119150612a0d565b620400008316156126425760128101546000527f5a2dce0a8a7f68bb74560f8f71837c2c2ebbcbf7fffb42ae1896f13f7c7479a06020526040600020935060129150612a0d565b620800008316156126895760138101546000527fb46a28b6f55540f89444f63de0378e3d121be09e06cc9ded1c20e65876d36aa06020526040600020935060139150612a0d565b621000008316156126d05760148101546000527fc65e9645644786b620e2dd2ad648ddfcbf4a7e5b1a3a4ecfe7f64667a3f0b7e26020526040600020935060149150612a0d565b622000008316156127175760158101546000527ff4418588ed35a2458cffeb39b93d26f18d2ab13bdce6aee58e7b99359ec2dfd96020526040600020935060159150612a0d565b6240000083161561275e5760168101546000527f5a9c16dc00d6ef18b7933a6f8dc65ccb55667138776f7dea101070dc8796e3776020526040600020935060169150612a0d565b628000008316156127a55760178101546000527f4df84f40ae0c8229d0d6069e5c8f39a7c299677a09d367fc7b05e3bc380ee6526020526040600020935060179150612a0d565b63010000008316156127ed5760188101546000527fcdc72595f74c7b1043d0e1ffbab734648c838dfb0527d971b602bc216c9619ef6020526040600020935060189150612a0d565b63020000008316156128355760198101546000527f0abf5ac974a1ed57f4050aa510dd9c74f508277b39d7973bb2dfccc5eeb0618d6020526040600020935060199150612a0d565b630400000083161561287d57601a8101546000527fb8cd74046ff337f0a7bf2c8e03e10f642c1886798d71806ab1e888d9e5ee87d060205260406000209350601a9150612a0d565b63080000008316156128c557601b8101546000527f838c5655cb21c6cb83313b5a631175dff4963772cce9108188b34ac87c81c41e60205260406000209350601b9150612a0d565b631000000083161561290d57601c8101546000527f662ee4dd2dd7b2bc707961b1e646c4047669dcb6584f0d8d770daf5d7e7deb2e60205260406000209350601c9150612a0d565b632000000083161561295557601d8101546000527f388ab20e2573d171a88108e79d820e98f26c0b84aa8b2f4aa4968dbb818ea32260205260406000209350601d9150612a0d565b634000000083161561299d57601e8101546000527f93237c50ba75ee485f4c22adf2f741400bdf8d6a9cc7df7ecae576221665d73560205260406000209350601e9150612a0d565b63800000008316156129e557601f8101546000527f8448818bb4ae4562849e949e17ac16e0be16688e156b5cf15e098c627c0056a960205260406000209350601f9150612a0d565b7f27ae5ba08d7291c96c8cbddcc148bf48a6d68c7974b94356f53754ef6171d7579350602091505b601e82116134af576001821015612a6b57600283168015612a3957600182015460005284602052612a62565b846000527fad3228b676f7d3cd4284a5443f17f1962b36e491b30a40b2405849e597ba5fb56020525b50604060002093505b6002821015612ac157600483168015612a8f57600282015460005284602052612ab8565b846000527fb4c11951957c6f8f642c4af61cd6b24640fec6dc7fc607ee8206a99e92410d306020525b50604060002093505b6003821015612b1757600883168015612ae557600382015460005284602052612b0e565b846000527f21ddb9a356815c3fac1026b6dec5df3124afbadb485c9ba5a3e3398a04b7ba856020525b50604060002093505b6004821015612b6d57601083168015612b3b57600482015460005284602052612b64565b846000527fe58769b32a1beaf1ea27375a44095a0d1fb664ce2dd358e7fcbfb78c26a193446020525b50604060002093505b6005821015612bc357602083168015612b9157600582015460005284602052612bba565b846000527f0eb01ebfc9ed27500cd4dfc979272d1f0913cc9f66540d7e8005811109e1cf2d6020525b50604060002093505b6006821015612c1957604083168015612be757600682015460005284602052612c10565b846000527f887c22bd8750d34016ac3c66b5ff102dacdd73f6b014e710b51e8022af9a19686020525b50604060002093505b6007821015612c6f57608083168015612c3d57600782015460005284602052612c66565b846000527fffd70157e48063fc33c97a050f7f640233bf646cc98d9524c6b92bcf3ab56f836020525b50604060002093505b6008821015612cc65761010083168015612c9457600882015460005284602052612cbd565b846000527f9867cc5f7f196b93bae1e27e6320742445d290f2263827498b54fec539f756af6020525b50604060002093505b6009821015612d1d5761020083168015612ceb57600982015460005284602052612d14565b846000527fcefad4e508c098b9a7e1d8feb19955fb02ba9675585078710969d3440f5054e06020525b50604060002093505b600a821015612d745761040083168015612d4257600a82015460005284602052612d6b565b846000527ff9dc3e7fe016e050eff260334f18a5d4fe391d82092319f5964f2e2eb7c1c3a56020525b50604060002093505b600b821015612dcb5761080083168015612d9957600b82015460005284602052612dc2565b846000527ff8b13a49e282f609c317a833fb8d976d11517c571d1221a265d25af778ecf8926020525b50604060002093505b600c821015612e225761100083168015612df057600c82015460005284602052612e19565b846000527f3490c6ceeb450aecdc82e28293031d10c7d73bf85e57bf041a97360aa2c5d99c6020525b50604060002093505b600d821015612e795761200083168015612e4757600d82015460005284602052612e70565b846000527fc1df82d9c4b87413eae2ef048f94b4d3554cea73d92b0f7af96e0271c691e2bb6020525b50604060002093505b600e821015612ed05761400083168015612e9e57600e82015460005284602052612ec7565b846000527f5c67add7c6caf302256adedf7ab114da0acfe870d449a3a489f781d659e8becc6020525b50604060002093505b600f821015612f275761800083168015612ef557600f82015460005284602052612f1e565b846000527fda7bce9f4e8618b6bd2f4132ce798cdc7a60e7e1460a7299e3c6342a579626d26020525b50604060002093505b6010821015612f7f576201000083168015612f4d57601082015460005284602052612f76565b846000527f2733e50f526ec2fa19a22b31e8ed50f23cd1fdf94c9154ed3a7609a2f1ff981f6020525b50604060002093505b6011821015612fd7576202000083168015612fa557601182015460005284602052612fce565b846000527fe1d3b5c807b281e4683cc6d6315cf95b9ade8641defcb32372f1c126e398ef7a6020525b50604060002093505b601282101561302f576204000083168015612ffd57601282015460005284602052613026565b846000527f5a2dce0a8a7f68bb74560f8f71837c2c2ebbcbf7fffb42ae1896f13f7c7479a06020525b50604060002093505b60138210156130875762080000831680156130555760138201546000528460205261307e565b846000527fb46a28b6f55540f89444f63de0378e3d121be09e06cc9ded1c20e65876d36aa06020525b50604060002093505b60148210156130df5762100000831680156130ad576014820154600052846020526130d6565b846000527fc65e9645644786b620e2dd2ad648ddfcbf4a7e5b1a3a4ecfe7f64667a3f0b7e26020525b50604060002093505b60158210156131375762200000831680156131055760158201546000528460205261312e565b846000527ff4418588ed35a2458cffeb39b93d26f18d2ab13bdce6aee58e7b99359ec2dfd96020525b50604060002093505b601682101561318f57624000008316801561315d57601682015460005284602052613186565b846000527f5a9c16dc00d6ef18b7933a6f8dc65ccb55667138776f7dea101070dc8796e3776020525b50604060002093505b60178210156131e75762800000831680156131b5576017820154600052846020526131de565b846000527f4df84f40ae0c8229d0d6069e5c8f39a7c299677a09d367fc7b05e3bc380ee6526020525b50604060002093505b60188210156132405763010000008316801561320e57601882015460005284602052613237565b846000527fcdc72595f74c7b1043d0e1ffbab734648c838dfb0527d971b602bc216c9619ef6020525b50604060002093505b60198210156132995763020000008316801561326757601982015460005284602052613290565b846000527f0abf5ac974a1ed57f4050aa510dd9c74f508277b39d7973bb2dfccc5eeb0618d6020525b50604060002093505b601a8210156132f2576304000000831680156132c057601a820154600052846020526132e9565b846000527fb8cd74046ff337f0a7bf2c8e03e10f642c1886798d71806ab1e888d9e5ee87d06020525b50604060002093505b601b82101561334b5763080000008316801561331957601b82015460005284602052613342565b846000527f838c5655cb21c6cb83313b5a631175dff4963772cce9108188b34ac87c81c41e6020525b50604060002093505b601c8210156133a45763100000008316801561337257601c8201546000528460205261339b565b846000527f662ee4dd2dd7b2bc707961b1e646c4047669dcb6584f0d8d770daf5d7e7deb2e6020525b50604060002093505b601d8210156133fd576320000000831680156133cb57601d820154600052846020526133f4565b846000527f388ab20e2573d171a88108e79d820e98f26c0b84aa8b2f4aa4968dbb818ea3226020525b50604060002093505b601e8210156134565763400000008316801561342457601e8201546000528460205261344d565b846000527f93237c50ba75ee485f4c22adf2f741400bdf8d6a9cc7df7ecae576221665d7356020525b50604060002093505b601f8210156134af5763800000008316801561347d57601f820154600052846020526134a6565b846000527f8448818bb4ae4562849e949e17ac16e0be16688e156b5cf15e098c627c0056a96020525b50604060002093505b505050919050565b60006134cc6001600160a01b03841683613af2565b905080516000141580156134f15750808060200190518101906134ef9190613fb8565b155b1561061257604051635274afe760e01b81526001600160a01b03841660048201526024016106c8565b600061eeed196001600160a01b0384160161354057506001600160a01b03811631611f3b565b6040516370a0823160e01b81526001600160a01b0383811660048301528416906370a0823190602401602060405180830381865afa158015613586573d6000803e3d6000fd5b505050506040513d601f19601f820116820180604052508101906135aa9190613f9f565b9392505050565b60408051602081018590529081018390526001600160a01b03821660608201526000906080016040516020818303038152906040528051906020012090509392505050565b6135fe613c33565b600083602001805161360f9061419f565b90819052905060016136236020600261429c565b61362d91906140a3565b81111561364d57604051638eab04bb60e01b815260040160405180910390fd5b60005b60208110156136e257816001166001036136895784518490826020811061367957613679613eb8565b602002015250839150611f3b9050565b8451816020811061369c5761369c613eb8565b6020020151846040516020016136bc929190918252602082015260400190565b60408051601f1981840301815291905280516020909101209350600191821c9101613650565b50604051638eab04bb60e01b815260040160405180910390fd5b6020600582811b8216948552835194820394909452604060008181206002851615871b808503919091528386015190528181206004851615871b808503919091528286015190528181206008851615871b80850391909152606086015190528181206010851615871b8085039190915260808087015190915282822084861615881b8086039190915260a0870151905282822083861615881b8086039190915260c0870151905282822090851615871b8085039190915260e0860151905281812061010080861615881b80860392909252860151905281812061020080861615881b80860392909252610120870151909152828220610400861615881b808603919091526101408701519052828220610800861615881b808603919091526101608701519052828220611000861615881b808603919091526101808701519052828220612000861615881b808603919091526101a08701519052828220614000861615881b808603919091526101c08701519052828220618000861615881b808603919091526101e0870151905282822062010000861615881b8086039190915290860151905281812062020000851615871b80850391909152610220860151905281812062040000851615871b80850391909152610240860151905281812062080000851615871b80850391909152610260860151905281812062100000851615871b80850391909152610280860151905281812062200000851615871b808503919091526102a0860151905281812062400000851615871b808503919091526102c0860151905281812062800000851615871b808503919091526102e086015190528181206301000000851615871b8085039190915261030086015190528181206302000000851615871b8085039190915261032086015190528181206304000000851615871b8085039190915261034086015190528181206308000000851615871b8085039190915261036086015190528181206310000000851615871b8085039190915261038086015190528181206320000000851615871b808503919091526103a086015190528181206340000000851615871b808503919091526103c0860151905281812063800000009094161590951b91829003929092526103e090920151909152902090565b6000806000846001600160a01b031684604051613a6791906142a8565b6000604051808303816000865af19150503d8060008114613aa4576040519150601f19603f3d011682016040523d82523d6000602084013e613aa9565b606091505b5091509150818015613ad3575080511580613ad3575080806020019051810190613ad39190613fb8565b8015613ae957506000856001600160a01b03163b115b95945050505050565b60606135aa8383600084600080856001600160a01b03168486604051613b1891906142a8565b60006040518083038185875af1925050503d8060008114613b55576040519150601f19603f3d011682016040523d82523d6000602084013e613b5a565b606091505b5091509150613b6a868383613b74565b9695505050505050565b606082613b8957613b8482613bd0565b6135aa565b8151158015613ba057506001600160a01b0384163b155b15613bc957604051639996b31560e01b81526001600160a01b03851660048201526024016106c8565b50806135aa565b805115613be05780518082602001fd5b604051630a12f52160e11b815260040160405180910390fd5b8260208101928215613c27579160200282015b82811115613c27578251825591602001919060010190613c0c565b50610b7b929150613c53565b6040518060400160405280613c46613c68565b8152602001600081525090565b5b80821115610b7b5760008155600101613c54565b6040518061040001604052806020906020820280368337509192915050565b60008060208385031215613c9a57600080fd5b82356001600160401b0380821115613cb157600080fd5b818501915085601f830112613cc557600080fd5b813581811115613cd457600080fd5b8660208260071b8501011115613ce957600080fd5b60209290920196919550909350505050565b600060808284031215613d0d57600080fd5b50919050565b600060808284031215613d2557600080fd5b6135aa8383613cfb565b6001600160a01b0381168114610bf557600080fd5b60008060008060808587031215613d5a57600080fd5b843593506020850135613d6c81613d2f565b9250604085013591506060850135613d8381613d2f565b939692955090935050565b600060208284031215613da057600080fd5b81356135aa81613d2f565b6001600160401b038416815260208082018490528251610460830191906000604085015b83821015613ded578251815291830191600191909101908301613dcf565b505050506020830151610440830152949350505050565b60006104a08284031215613d0d57600080fd5b60008060208385031215613e2a57600080fd5b82356001600160401b0380821115613e4157600080fd5b818501915085601f830112613e5557600080fd5b813581811115613e6457600080fd5b8660206104a083028501011115613ce957600080fd5b634e487b7160e01b600052602160045260246000fd5b6020810160028310613eb257634e487b7160e01b600052602160045260246000fd5b91905290565b634e487b7160e01b600052603260045260246000fd5b600060208284031215613ee057600080fd5b813563ffffffff811681146135aa57600080fd5b600060208284031215613f0657600080fd5b81516135aa81613d2f565b634e487b7160e01b600052601160045260246000fd5b80820180821115611f3b57611f3b613f11565b6001600160401b0381168114610bf557600080fd5b600060208284031215613f6157600080fd5b81356135aa81613f3a565b8135613f7781613f3a565b6001600160401b0381166001600160401b031983541617825550602082013560018201555050565b600060208284031215613fb157600080fd5b5051919050565b600060208284031215613fca57600080fd5b815180151581146135aa57600080fd5b60006001600160401b03808316818103613ff657613ff6613f11565b6001019392505050565b60005b8381101561401b578181015183820152602001614003565b50506000910152565b6000815180845261403c816020860160208601614000565b601f01601f19169290920160200192915050565b6001600160a01b0387811682528681166020830152851660408201526060810184905263ffffffff8316608082015260c060a0820181905260009061409790830184614024565b98975050505050505050565b81810381811115611f3b57611f3b613f11565b6001600160a01b03841681526060602082018190526000906140da90830185614024565b905063ffffffff83166040830152949350505050565b600060018060a01b03808a168352886020840152808816604084015286606084015285608084015280851660a08401525060e060c083015261413560e0830184614024565b9998505050505050505050565b634e487b7160e01b600052600160045260246000fd5b86815260018060a01b0386166020820152846040820152831515606082015260c06080820152600061418d60c0830185614024565b82810360a08401526141358185614024565b6000600182016141b1576141b1613f11565b5060010190565b600181815b808511156141f35781600019048211156141d9576141d9613f11565b808516156141e657918102915b93841c93908002906141bd565b509250929050565b60008261420a57506001611f3b565b8161421757506000611f3b565b816001811461422d576002811461423757614253565b6001915050611f3b565b60ff84111561424857614248613f11565b50506001821b611f3b565b5060208310610133831016604e8410600b8410161715614276575081810a611f3b565b61428083836141b8565b806000190482111561429457614294613f11565b029392505050565b60006135aa83836141fb565b600082516142ba818460208701614000565b919091019291505056fea2646970667358221220c268c5af07d139b6e196db4b02c3d5a0bcfba673056c0aa58803a29db8241b9f64736f6c63430008170033a2646970667358221220cc8ea6ac1c043d190cf486f4da48ace5e332aa92ba2fe83921cefc3b43e3600764736f6c63430008170033",
			"deployedBytecode": "0x608060405234801561001057600080fd5b50600436106100625760003560e01c80631213036614610067578063927ede2d14610097578063c39ec124146100aa578063cc8b6f4f146100dd578063ee9a31a2146100f2578063f434c91414610105575b600080fd5b61007a6100753660046102b7565b61012c565b6040516001600160a01b0390911681526020015b60405180910390f35b60005461007a906001600160a01b031681565b6100cd6100b83660046102f1565b60026020526000908152604090205460ff1681565b604051901515815260200161008e565b6100f06100eb366004610315565b61023b565b005b60015461007a906001600160a01b031681565b61007a7f0000000000000000000000001e2e8562b635fe19978640c784e47865a83d660581565b6040516bffffffffffffffffffffffff193360601b16602082015260348101829052600090605401604051602081830303815290604052805190602001209150817f000000000000000000000000cd8c4da77dfb15c05486d3f71ee4c2c0dfdbc94e7f000000000000000000000000792b79adb4aa06eddabd6ddef5ee06dcb946f4367f0000000000000000000000001e2e8562b635fe19978640c784e47865a83d660560008760006040516101e1906102aa565b6101f09695949392919061034e565b8190604051809103906000f5905080158015610210573d6000803e3d6000fd5b506001600160a01b0381166000908152600260205260409020805460ff191660011790559392505050565b6000546001600160a01b031615158061025e57506001546001600160a01b031615155b1561027c5760405163ccbe17fd60e01b815260040160405180910390fd5b600080546001600160a01b039384166001600160a01b03199182161790915560018054929093169116179055565b6146c6806103ad83390190565b600080604083850312156102ca57600080fd5b50508035926020909101359150565b6001600160a01b03811681146102ee57600080fd5b50565b60006020828403121561030357600080fd5b813561030e816102d9565b9392505050565b6000806040838503121561032857600080fd5b8235610333816102d9565b91506020830135610343816102d9565b809150509250929050565b6001600160a01b03878116825286811660208301528581166040830152841660608201526080810183905260c081016002831061039b57634e487b7160e01b600052602160045260246000fd5b8260a083015297965050505050505056fe6101a06040523480156200001257600080fd5b50604051620046c6380380620046c68339810160408190526200003591620001c1565b6001600160a01b0380851660805280871660c05280861660e0528690869086908690869086908316156200006a57826200006c565b305b6001600160a01b03166101205261014082905233610100528060018111156200009957620000996200024c565b60a0816001811115620000b057620000b06200024c565b905250505050505050336001600160a01b031663927ede2d6040518163ffffffff1660e01b8152600401602060405180830381865afa158015620000f8573d6000803e3d6000fd5b505050506040513d601f19601f820116820180604052508101906200011e919062000262565b6001600160a01b0316610160526040805163774d18d160e11b81529051339163ee9a31a29160048083019260209291908290030181865afa15801562000168573d6000803e3d6000fd5b505050506040513d601f19601f820116820180604052508101906200018e919062000262565b6001600160a01b0316610180525062000289945050505050565b6001600160a01b0381168114620001be57600080fd5b50565b60008060008060008060c08789031215620001db57600080fd5b8651620001e881620001a8565b6020880151909650620001fb81620001a8565b60408801519095506200020e81620001a8565b60608801519094506200022181620001a8565b608088015160a08901519194509250600281106200023e57600080fd5b809150509295509295509295565b634e487b7160e01b600052602160045260246000fd5b6000602082840312156200027557600080fd5b81516200028281620001a8565b9392505050565b60805160a05160c05160e05161010051610120516101405161016051610180516142fa620003cc600039600081816101d5015281816113e901526114380152600081816105bd0152818161158d01528181611e480152611eae015260008181610249015281816107cc01528181610849015281816109e601528181610e6d01528181610f160152818161172a015281816117ef0152818161186c01528181611af801528181611bb101528181611cb30152611ddb0152600081816103ae01528181611469015281816115b80152611e84015260006104880152600081816101620152610a0f01526000818161037a0152818161073d01528181610e93015281816117650152611b270152600081816104bc01528181610b8301528181610e0f0152611028015260008181610589015281816111d3015261127c01526142fa6000f3fe6080604052600436106101445760003560e01c806388bc2ef3116100b6578063c1b8411a1161006f578063c1b8411a14610476578063c6525f2c146104aa578063e7f82c75146104eb578063ed0e26b914610518578063f434c91414610577578063fc8fa43d146105ab57600080fd5b806388bc2ef314610368578063ad42938b1461039c578063b59ef50f146103d0578063b71c1179146103f0578063bf557aee14610403578063c18541291461045657600080fd5b806356539f391161010857806356539f391461023757806361c864171461027957806369ce22331461028e57806369d31fdd146102ae5780636dfa7268146102c15780637de6fba2146102f057600080fd5b80631d831d5c146101505780632241dc52146101a15780632847f1f3146101c357806338eb2044146101f7578063551ebbf01461021757600080fd5b3661014b57005b600080fd5b34801561015c57600080fd5b506101847f000000000000000000000000000000000000000000000000000000000000000081565b6040516001600160a01b0390911681526020015b60405180910390f35b3480156101ad57600080fd5b506101c16101bc366004613c87565b6105df565b005b3480156101cf57600080fd5b506101847f000000000000000000000000000000000000000000000000000000000000000081565b34801561020357600080fd5b506101c1610212366004613d13565b610617565b34801561022357600080fd5b506101c1610232366004613d44565b6109b0565b34801561024357600080fd5b5061026b7f000000000000000000000000000000000000000000000000000000000000000081565b604051908152602001610198565b34801561028557600080fd5b5061026b610b2f565b34801561029a57600080fd5b506101c16102a9366004613d8e565b610b7f565b6101c16102bc366004613d13565b610bf8565b3480156102cd57600080fd5b506102e16102dc366004613d8e565b610d69565b60405161019893929190613dab565b3480156102fc57600080fd5b5061033e61030b366004613d8e565b6003602052600090815260409020805460019091015463ffffffff82169164010000000090046001600160a01b03169083565b6040805163ffffffff90941684526001600160a01b03909216602084015290820152606001610198565b34801561037457600080fd5b506101847f000000000000000000000000000000000000000000000000000000000000000081565b3480156103a857600080fd5b506101847f000000000000000000000000000000000000000000000000000000000000000081565b3480156103dc57600080fd5b506101c16103eb366004613e04565b610dd3565b6101c16103fe366004613d8e565b6110a7565b34801561040f57600080fd5b5061044661041e366004613d8e565b6001600160a01b03908116600090815260036020526040902054640100000000900416151590565b6040519015158152602001610198565b34801561046257600080fd5b506101c1610471366004613e17565b611155565b34801561048257600080fd5b506101847f000000000000000000000000000000000000000000000000000000000000000081565b3480156104b657600080fd5b506104de7f000000000000000000000000000000000000000000000000000000000000000081565b6040516101989190613e90565b3480156104f757600080fd5b5061026b610506366004613d8e565b60026020526000908152604090205481565b34801561052457600080fd5b50610558610533366004613d8e565b600160208190526000918252604090912080549101546001600160401b039091169082565b604080516001600160401b039093168352602083019190915201610198565b34801561058357600080fd5b506101847f000000000000000000000000000000000000000000000000000000000000000081565b3480156105b757600080fd5b506101847f000000000000000000000000000000000000000000000000000000000000000081565b60005b818110156106125761060a8383838181106105ff576105ff613eb8565b905060800201610617565b6001016105e2565b505050565b60006106266020830183613d8e565b9050600061eeee61063a6020850185613d8e565b6001600160a01b031614905080801561066d575061eeee6106616060850160408601613d8e565b6001600160a01b031614155b8015610692575060006106866060850160408601613d8e565b6001600160a01b031614155b156106d1576106a76060840160408501613d8e565b604051630a0a3b6b60e31b81526001600160a01b0390911660048201526024015b60405180910390fd5b62030d406106e56040850160208601613ece565b63ffffffff161080156106f6575080155b156107385762030d4061070f6040850160208601613ece565b604051634f3dbeb360e11b815263ffffffff9283166004820152911660248201526044016106c8565b61086f7f00000000000000000000000000000000000000000000000000000000000000006001600160a01b031663293c49996040518163ffffffff1660e01b8152600401602060405180830381865afa158015610799573d6000803e3d6000fd5b505050506040513d601f19601f820116820180604052508101906107bd9190613ef4565b6040516331a9108f60e11b81527f000000000000000000000000000000000000000000000000000000000000000060048201526001600160a01b039190911690636352211e90602401602060405180830381865afa158015610823573d6000803e3d6000fd5b505050506040513d601f19601f820116820180604052508101906108479190613ef4565b7f0000000000000000000000000000000000000000000000000000000000000000601c611189565b60006108816060850160408601613d8e565b6001600160a01b03161480156108b157506001600160a01b03821660009081526020819052604090206001015415155b1561090c576001600160a01b0380831660009081526003602090815260408083208151606081018352815463ffffffff811682526401000000009004909516928501929092526001909101549083015261090c91849061130d565b604051806060016040528084602001602081019061092a9190613ece565b63ffffffff1681526020016109456060860160408701613d8e565b6001600160a01b0390811682526060909501356020918201529284166000908152600384526040908190208251815495840151909616640100000000026001600160c01b031990951663ffffffff909616959095179390931784559091015160019092019190915550565b6001600160a01b0383166109d7576040516309a9c30b60e41b815260040160405180910390fd5b60405163ea78803f60e01b81527f000000000000000000000000000000000000000000000000000000000000000060048201526000907f00000000000000000000000000000000000000000000000000000000000000006001600160a01b03169063ea78803f90602401602060405180830381865afa158015610a5e573d6000803e3d6000fd5b505050506040513d601f19601f82011682018060405250810190610a829190613ef4565b90506001600160a01b038116610aab57604051635a33845560e01b815260040160405180910390fd5b6001600160a01b03828116600090815260036020526040902054640100000000900416610af65760405163393e175160e01b81526001600160a01b03831660048201526024016106c8565b610b0b6001600160a01b0382163330886116b4565b6000610b198287858761171b565b9050610b278684838861190e565b505050505050565b6000466001819003610b4357600a91505090565b80600a03610b5357600191505090565b8062aa36a703610b675762aa37dc91505090565b8062aa37dc03610b7b5762aa36a791505090565b5090565b60007f00000000000000000000000000000000000000000000000000000000000000006001811115610bb357610bb3613e7a565b14610bd15760405163218a9a2d60e11b815260040160405180910390fd5b6001600160a01b038116600090815260026020526040902054610bf5908290611a92565b50565b610c0133611e44565b610c1e57604051630439dbd360e51b815260040160405180910390fd5b60208101803590600290600090610c359085613d8e565b6001600160a01b03166001600160a01b031681526020019081526020016000206000828254610c649190613f27565b90915550600190506000610c7b6020840184613d8e565b6001600160a01b0316815260208101919091526040908101600020546001600160401b031690610cb19060608401908401613f4f565b6001600160401b03161115610bf5576040810160016000610cd56020850185613d8e565b6001600160a01b031681526020810191909152604001600020610cf88282613f6c565b50610d0890506020820182613d8e565b6001600160a01b03167f551b6b99b4c48e3265d2885ab0d93779be2402293261e074f7bf74b2c8f45b6f610d426060840160408501613f4f565b604080516001600160401b039092168252606085013560208301520160405180910390a250565b6000602081815291815260409081902080546001820154835161044081018086526001600160401b0390931695919490926002850192849283019184919082845b815481526020019060010190808311610daa575050509183525050602091820154910152905083565b610e0b6060820135610de86020840184613d8e565b6080840135610dfd6060860160408701613d8e565b602086013560a08701611f41565b60017f00000000000000000000000000000000000000000000000000000000000000006001811115610e3f57610e3f613e7a565b03610e5e57610e5e610e546020830183613d8e565b6080830135611a92565b604051632eec7b5560e11b81527f000000000000000000000000000000000000000000000000000000000000000060048201527f00000000000000000000000000000000000000000000000000000000000000006001600160a01b031690635dd8f6aa90602401602060405180830381865afa158015610ee2573d6000803e3d6000fd5b505050506040513d601f19601f82011682018060405250810190610f069190613ef4565b6001600160a01b031663c7fb92de7f000000000000000000000000000000000000000000000000000000000000000060608401803590610f499060408701613d8e565b6040516001600160e01b031960e086901b168152600481019390935260248301919091526001600160a01b0316604482015260a06064820152600060a48201819052608482015260c4016020604051808303816000875af1158015610fb2573d6000803e3d6000fd5b505050506040513d601f19601f82011682018060405250810190610fd69190613f9f565b507f487194902d206a126abe9f23a4e2b78d1600ed8034b1423290a13edd6ebc7d146110086060830160408401613d8e565b6110156020840184613d8e565b60608401356080850135602086013560017f0000000000000000000000000000000000000000000000000000000000000000600181111561105857611058613e7a565b14611064576000611067565b60015b604080516001600160a01b0397881681529690951660208701529385019290925260608401526080830152151560a082015260c00160405180910390a150565b6001600160a01b0380821660008181526003602090815260408083208151606081018352815463ffffffff811682526401000000009004909616868401526001908101548683018190529484529183905290912001541015611146576040808201516001600160a01b0384166000908152602081905282902060010154915163091df9e560e31b81526106c89290600401918252602082015260400190565b61115134838361130d565b5050565b60005b818110156106125761118183838381811061117557611175613eb8565b90506104a00201610dd3565b600101611158565b336001600160a01b0384168114801590611240575060405163c161c93f60e01b81526001600160a01b038281166004830152858116602483015260448201859052606482018490527f0000000000000000000000000000000000000000000000000000000000000000169063c161c93f90608401602060405180830381865afa15801561121a573d6000803e3d6000fd5b505050506040513d601f19601f8201168201806040525081019061123e9190613fb8565b155b80156112e9575060405163c161c93f60e01b81526001600160a01b038281166004830152858116602483015260006044830152606482018490527f0000000000000000000000000000000000000000000000000000000000000000169063c161c93f90608401602060405180830381865afa1580156112c3573d6000803e3d6000fd5b505050506040513d601f19601f820116820180604052508101906112e79190613fb8565b155b156113075760405163075fd2b160e01b815260040160405180910390fd5b50505050565b6000831561132e576040516352864b0160e11b815260040160405180910390fd5b6001600160a01b038316600090815260208190526040812060018101805490839055815490929190829061136a906001600160401b0316613fda565b91906101000a8154816001600160401b0302191690836001600160401b031602179055905060006001600160a01b031684602001516001600160a01b0316036113d15760405163393e175160e01b81526001600160a01b03861660048201526024016106c8565b6001600160a01b03851661eeee146114cc5761140e857f000000000000000000000000000000000000000000000000000000000000000084612071565b6020808501518551604080519384018152600084525163540abf7360e01b81526001600160a01b037f0000000000000000000000000000000000000000000000000000000000000000169363540abf7393611495938b9391927f0000000000000000000000000000000000000000000000000000000000000000928a929190600401614050565b600060405180830381600087803b1580156114af57600080fd5b505af11580156114c3573d6000803e3d6000fd5b505050506114d0565b8192505b6001600160a01b03851660009081526020819052604081206114f490600201612101565b6001600160a01b03871660009081526020819052604081206022015491925090611520906001906140a3565b604080516060810182526020808a01516001600160a01b039081168352818301898152845180860186526001600160401b03808b1682528185018a9052858701918252955194518316602486015290516044850152518051909416606484015292015160848201529192507f00000000000000000000000000000000000000000000000000000000000000001690633dbb202b9087907f00000000000000000000000000000000000000000000000000000000000000009060a40160408051601f198184030181529181526020820180516001600160e01b03166369d31fdd60e01b179052516001600160e01b031960e086901b16815261162a929190620493e0906004016140b6565b6000604051808303818588803b15801561164357600080fd5b505af1158015611657573d6000803e3d6000fd5b5050604080518581526001600160401b03881660208201526001600160a01b038c1694508693507f3e069c1f498cba23d7d2b74b84311469e8da6e527cade62061d642c61b64e0de92500160405180910390a35050505050505050565b6040516001600160a01b0384811660248301528381166044830152606482018390526113079186918216906323b872dd906084015b604051602081830303815290604052915060e01b6020820180516001600160e01b0383818316178352505050506134b7565b604051630862026560e41b81527f000000000000000000000000000000000000000000000000000000000000000060048201526001600160a01b03838116602483015260009182917f00000000000000000000000000000000000000000000000000000000000000001690638620265090604401602060405180830381865afa1580156117ac573d6000803e3d6000fd5b505050506040513d601f19601f820116820180604052508101906117d09190613ef4565b90506001600160a01b03811661182a57604051630c9ae01360e01b81527f000000000000000000000000000000000000000000000000000000000000000060048201526001600160a01b03851660248201526044016106c8565b6000611836853061351a565b60408051602081018252600081529051635db90a7f60e11b81529192506001600160a01b0384169163bb7214fe9161189c9130917f0000000000000000000000000000000000000000000000000000000000000000918b918d918c9186916004016140f0565b6020604051808303816000875af11580156118bb573d6000803e3d6000fd5b505050506040513d601f19601f820116820180604052508101906118df9190613f9f565b9250806118ec863061351a565b6118f691906140a3565b831461190457611904614142565b5050949350505050565b600061191b8584846135b1565b6001600160a01b0385166000908152602081815260408083208151610440810180845295965093946119869487949093600290930192849290830191849182845b81548152602001906001019080831161195c575050509183525050602091820154910152906135f6565b6001600160a01b038616600090815260208181526040909120825192935083926002909101916119b7918391613bf9565b50602091820151908201556001600160a01b0386166000908152908190526040812060010180548692906119ec908490613f27565b92505081905550846001600160a01b0316836001600160a01b03167f7b58dbb78e7edc690b0688a53dea0c443d630c4a5db66c3c47d4ff2044c977288460018560200151611a3a91906140a3565b6001600160a01b038a166000908152602081905260409020611a5e90600201612101565b60408051938452602084019290925290820152606081018a90526080810188905260a00160405180910390a3505050505050565b6001600160a01b03821660009081526002602052604090205480821115611acc57604051632858f9ab60e11b815260040160405180910390fd5b6001600160a01b03838116600081815260026020526040808220868603905551630862026560e41b81527f000000000000000000000000000000000000000000000000000000000000000060048201526024810192909252917f00000000000000000000000000000000000000000000000000000000000000001690638620265090604401602060405180830381865afa158015611b6e573d6000803e3d6000fd5b505050506040513d601f19601f82011682018060405250810190611b929190613ef4565b90506001600160a01b038116611bec57604051630c9ae01360e01b81527f000000000000000000000000000000000000000000000000000000000000000060048201526001600160a01b03851660248201526044016106c8565b6001600160a01b03841661eeee14611d9c576040516370a0823160e01b81523060048201526000906001600160a01b038616906370a0823190602401602060405180830381865afa158015611c45573d6000803e3d6000fd5b505050506040513d601f19601f82011682018060405250810190611c699190613f9f565b9050611c76858386612071565b60408051602080820183526000808352835191820184528082529251639e6eec0560e01b81526001600160a01b03861693639e6eec0593611ce3937f0000000000000000000000000000000000000000000000000000000000000000938c938c9390929091600401614158565b600060405180830381600087803b158015611cfd57600080fd5b505af1158015611d11573d6000803e3d6000fd5b505050508381611d2191906140a3565b6040516370a0823160e01b81523060048201526001600160a01b038716906370a0823190602401602060405180830381865afa158015611d65573d6000803e3d6000fd5b505050506040513d601f19601f82011682018060405250810190611d899190613f9f565b14611d9657611d96614142565b50611307565b60408051602080820183526000808352835191820184528082529251639e6eec0560e01b81526001600160a01b03851693639e6eec05938893611e0c937f0000000000000000000000000000000000000000000000000000000000000000938c9387939192909190600401614158565b6000604051808303818588803b158015611e2557600080fd5b505af1158015611e39573d6000803e3d6000fd5b505050505050505050565b60007f00000000000000000000000000000000000000000000000000000000000000006001600160a01b0316826001600160a01b0316148015611f3b57507f00000000000000000000000000000000000000000000000000000000000000006001600160a01b03167f00000000000000000000000000000000000000000000000000000000000000006001600160a01b0316636e296e456040518163ffffffff1660e01b81526004016020604051808303816000875af1158015611f0c573d6000803e3d6000fd5b505050506040513d601f19601f82011682018060405250810190611f309190613ef4565b6001600160a01b0316145b92915050565b6001600160a01b0385166000908152600460209081526040808320600886901c8452909152902054600160ff84161b1615611f925760405163ed9bdd0760e01b8152600481018390526024016106c8565b6001600160a01b0385166000908152600460209081526040808320600886901c845290915281208054600160ff86161b179055612001611fd38887876135b1565b6040805161040081810190925290859060209083908390808284376000920191909152508791506136fc9050565b6001600160a01b038716600090815260016020819052604090912001549091508114612068576001600160a01b0386166000908152600160208190526040918290200154905163286f87c960e21b81526004810191909152602481018290526044016106c8565b50505050505050565b604080516001600160a01b038416602482015260448082018490528251808303909101815260649091019091526020810180516001600160e01b031663095ea7b360e01b1790526120c28482613a4a565b611307576040516001600160a01b038481166024830152600060448301526120f791869182169063095ea7b3906064016116e9565b61130784826134b7565b602081015460009080820361213857507f27ae5ba08d7291c96c8cbddcc148bf48a6d68c7974b94356f53754ef6171d75792915050565b600083600183161561215a578054600052600060205260406000209350612a0d565b600283161561219f5760018101546000527fad3228b676f7d3cd4284a5443f17f1962b36e491b30a40b2405849e597ba5fb56020526040600020935060019150612a0d565b60048316156121e45760028101546000527fb4c11951957c6f8f642c4af61cd6b24640fec6dc7fc607ee8206a99e92410d306020526040600020935060029150612a0d565b60088316156122295760038101546000527f21ddb9a356815c3fac1026b6dec5df3124afbadb485c9ba5a3e3398a04b7ba856020526040600020935060039150612a0d565b601083161561226e5760048101546000527fe58769b32a1beaf1ea27375a44095a0d1fb664ce2dd358e7fcbfb78c26a193446020526040600020935060049150612a0d565b60208316156122b35760058101546000527f0eb01ebfc9ed27500cd4dfc979272d1f0913cc9f66540d7e8005811109e1cf2d6020526040600020935060059150612a0d565b60408316156122f85760068101546000527f887c22bd8750d34016ac3c66b5ff102dacdd73f6b014e710b51e8022af9a19686020526040600020935060069150612a0d565b608083161561233d5760078101546000527fffd70157e48063fc33c97a050f7f640233bf646cc98d9524c6b92bcf3ab56f836020526040600020935060079150612a0d565b6101008316156123835760088101546000527f9867cc5f7f196b93bae1e27e6320742445d290f2263827498b54fec539f756af6020526040600020935060089150612a0d565b6102008316156123c95760098101546000527fcefad4e508c098b9a7e1d8feb19955fb02ba9675585078710969d3440f5054e06020526040600020935060099150612a0d565b61040083161561240f57600a8101546000527ff9dc3e7fe016e050eff260334f18a5d4fe391d82092319f5964f2e2eb7c1c3a560205260406000209350600a9150612a0d565b61080083161561245557600b8101546000527ff8b13a49e282f609c317a833fb8d976d11517c571d1221a265d25af778ecf89260205260406000209350600b9150612a0d565b61100083161561249b57600c8101546000527f3490c6ceeb450aecdc82e28293031d10c7d73bf85e57bf041a97360aa2c5d99c60205260406000209350600c9150612a0d565b6120008316156124e157600d8101546000527fc1df82d9c4b87413eae2ef048f94b4d3554cea73d92b0f7af96e0271c691e2bb60205260406000209350600d9150612a0d565b61400083161561252757600e8101546000527f5c67add7c6caf302256adedf7ab114da0acfe870d449a3a489f781d659e8becc60205260406000209350600e9150612a0d565b61800083161561256d57600f8101546000527fda7bce9f4e8618b6bd2f4132ce798cdc7a60e7e1460a7299e3c6342a579626d260205260406000209350600f9150612a0d565b620100008316156125b45760108101546000527f2733e50f526ec2fa19a22b31e8ed50f23cd1fdf94c9154ed3a7609a2f1ff981f6020526040600020935060109150612a0d565b620200008316156125fb5760118101546000527fe1d3b5c807b281e4683cc6d6315cf95b9ade8641defcb32372f1c126e398ef7a6020526040600020935060119150612a0d565b620400008316156126425760128101546000527f5a2dce0a8a7f68bb74560f8f71837c2c2ebbcbf7fffb42ae1896f13f7c7479a06020526040600020935060129150612a0d565b620800008316156126895760138101546000527fb46a28b6f55540f89444f63de0378e3d121be09e06cc9ded1c20e65876d36aa06020526040600020935060139150612a0d565b621000008316156126d05760148101546000527fc65e9645644786b620e2dd2ad648ddfcbf4a7e5b1a3a4ecfe7f64667a3f0b7e26020526040600020935060149150612a0d565b622000008316156127175760158101546000527ff4418588ed35a2458cffeb39b93d26f18d2ab13bdce6aee58e7b99359ec2dfd96020526040600020935060159150612a0d565b6240000083161561275e5760168101546000527f5a9c16dc00d6ef18b7933a6f8dc65ccb55667138776f7dea101070dc8796e3776020526040600020935060169150612a0d565b628000008316156127a55760178101546000527f4df84f40ae0c8229d0d6069e5c8f39a7c299677a09d367fc7b05e3bc380ee6526020526040600020935060179150612a0d565b63010000008316156127ed5760188101546000527fcdc72595f74c7b1043d0e1ffbab734648c838dfb0527d971b602bc216c9619ef6020526040600020935060189150612a0d565b63020000008316156128355760198101546000527f0abf5ac974a1ed57f4050aa510dd9c74f508277b39d7973bb2dfccc5eeb0618d6020526040600020935060199150612a0d565b630400000083161561287d57601a8101546000527fb8cd74046ff337f0a7bf2c8e03e10f642c1886798d71806ab1e888d9e5ee87d060205260406000209350601a9150612a0d565b63080000008316156128c557601b8101546000527f838c5655cb21c6cb83313b5a631175dff4963772cce9108188b34ac87c81c41e60205260406000209350601b9150612a0d565b631000000083161561290d57601c8101546000527f662ee4dd2dd7b2bc707961b1e646c4047669dcb6584f0d8d770daf5d7e7deb2e60205260406000209350601c9150612a0d565b632000000083161561295557601d8101546000527f388ab20e2573d171a88108e79d820e98f26c0b84aa8b2f4aa4968dbb818ea32260205260406000209350601d9150612a0d565b634000000083161561299d57601e8101546000527f93237c50ba75ee485f4c22adf2f741400bdf8d6a9cc7df7ecae576221665d73560205260406000209350601e9150612a0d565b63800000008316156129e557601f8101546000527f8448818bb4ae4562849e949e17ac16e0be16688e156b5cf15e098c627c0056a960205260406000209350601f9150612a0d565b7f27ae5ba08d7291c96c8cbddcc148bf48a6d68c7974b94356f53754ef6171d7579350602091505b601e82116134af576001821015612a6b57600283168015612a3957600182015460005284602052612a62565b846000527fad3228b676f7d3cd4284a5443f17f1962b36e491b30a40b2405849e597ba5fb56020525b50604060002093505b6002821015612ac157600483168015612a8f57600282015460005284602052612ab8565b846000527fb4c11951957c6f8f642c4af61cd6b24640fec6dc7fc607ee8206a99e92410d306020525b50604060002093505b6003821015612b1757600883168015612ae557600382015460005284602052612b0e565b846000527f21ddb9a356815c3fac1026b6dec5df3124afbadb485c9ba5a3e3398a04b7ba856020525b50604060002093505b6004821015612b6d57601083168015612b3b57600482015460005284602052612b64565b846000527fe58769b32a1beaf1ea27375a44095a0d1fb664ce2dd358e7fcbfb78c26a193446020525b50604060002093505b6005821015612bc357602083168015612b9157600582015460005284602052612bba565b846000527f0eb01ebfc9ed27500cd4dfc979272d1f0913cc9f66540d7e8005811109e1cf2d6020525b50604060002093505b6006821015612c1957604083168015612be757600682015460005284602052612c10565b846000527f887c22bd8750d34016ac3c66b5ff102dacdd73f6b014e710b51e8022af9a19686020525b50604060002093505b6007821015612c6f57608083168015612c3d57600782015460005284602052612c66565b846000527fffd70157e48063fc33c97a050f7f640233bf646cc98d9524c6b92bcf3ab56f836020525b50604060002093505b6008821015612cc65761010083168015612c9457600882015460005284602052612cbd565b846000527f9867cc5f7f196b93bae1e27e6320742445d290f2263827498b54fec539f756af6020525b50604060002093505b6009821015612d1d5761020083168015612ceb57600982015460005284602052612d14565b846000527fcefad4e508c098b9a7e1d8feb19955fb02ba9675585078710969d3440f5054e06020525b50604060002093505b600a821015612d745761040083168015612d4257600a82015460005284602052612d6b565b846000527ff9dc3e7fe016e050eff260334f18a5d4fe391d82092319f5964f2e2eb7c1c3a56020525b50604060002093505b600b821015612dcb5761080083168015612d9957600b82015460005284602052612dc2565b846000527ff8b13a49e282f609c317a833fb8d976d11517c571d1221a265d25af778ecf8926020525b50604060002093505b600c821015612e225761100083168015612df057600c82015460005284602052612e19565b846000527f3490c6ceeb450aecdc82e28293031d10c7d73bf85e57bf041a97360aa2c5d99c6020525b50604060002093505b600d821015612e795761200083168015612e4757600d82015460005284602052612e70565b846000527fc1df82d9c4b87413eae2ef048f94b4d3554cea73d92b0f7af96e0271c691e2bb6020525b50604060002093505b600e821015612ed05761400083168015612e9e57600e82015460005284602052612ec7565b846000527f5c67add7c6caf302256adedf7ab114da0acfe870d449a3a489f781d659e8becc6020525b50604060002093505b600f821015612f275761800083168015612ef557600f82015460005284602052612f1e565b846000527fda7bce9f4e8618b6bd2f4132ce798cdc7a60e7e1460a7299e3c6342a579626d26020525b50604060002093505b6010821015612f7f576201000083168015612f4d57601082015460005284602052612f76565b846000527f2733e50f526ec2fa19a22b31e8ed50f23cd1fdf94c9154ed3a7609a2f1ff981f6020525b50604060002093505b6011821015612fd7576202000083168015612fa557601182015460005284602052612fce565b846000527fe1d3b5c807b281e4683cc6d6315cf95b9ade8641defcb32372f1c126e398ef7a6020525b50604060002093505b601282101561302f576204000083168015612ffd57601282015460005284602052613026565b846000527f5a2dce0a8a7f68bb74560f8f71837c2c2ebbcbf7fffb42ae1896f13f7c7479a06020525b50604060002093505b60138210156130875762080000831680156130555760138201546000528460205261307e565b846000527fb46a28b6f55540f89444f63de0378e3d121be09e06cc9ded1c20e65876d36aa06020525b50604060002093505b60148210156130df5762100000831680156130ad576014820154600052846020526130d6565b846000527fc65e9645644786b620e2dd2ad648ddfcbf4a7e5b1a3a4ecfe7f64667a3f0b7e26020525b50604060002093505b60158210156131375762200000831680156131055760158201546000528460205261312e565b846000527ff4418588ed35a2458cffeb39b93d26f18d2ab13bdce6aee58e7b99359ec2dfd96020525b50604060002093505b601682101561318f57624000008316801561315d57601682015460005284602052613186565b846000527f5a9c16dc00d6ef18b7933a6f8dc65ccb55667138776f7dea101070dc8796e3776020525b50604060002093505b60178210156131e75762800000831680156131b5576017820154600052846020526131de565b846000527f4df84f40ae0c8229d0d6069e5c8f39a7c299677a09d367fc7b05e3bc380ee6526020525b50604060002093505b60188210156132405763010000008316801561320e57601882015460005284602052613237565b846000527fcdc72595f74c7b1043d0e1ffbab734648c838dfb0527d971b602bc216c9619ef6020525b50604060002093505b60198210156132995763020000008316801561326757601982015460005284602052613290565b846000527f0abf5ac974a1ed57f4050aa510dd9c74f508277b39d7973bb2dfccc5eeb0618d6020525b50604060002093505b601a8210156132f2576304000000831680156132c057601a820154600052846020526132e9565b846000527fb8cd74046ff337f0a7bf2c8e03e10f642c1886798d71806ab1e888d9e5ee87d06020525b50604060002093505b601b82101561334b5763080000008316801561331957601b82015460005284602052613342565b846000527f838c5655cb21c6cb83313b5a631175dff4963772cce9108188b34ac87c81c41e6020525b50604060002093505b601c8210156133a45763100000008316801561337257601c8201546000528460205261339b565b846000527f662ee4dd2dd7b2bc707961b1e646c4047669dcb6584f0d8d770daf5d7e7deb2e6020525b50604060002093505b601d8210156133fd576320000000831680156133cb57601d820154600052846020526133f4565b846000527f388ab20e2573d171a88108e79d820e98f26c0b84aa8b2f4aa4968dbb818ea3226020525b50604060002093505b601e8210156134565763400000008316801561342457601e8201546000528460205261344d565b846000527f93237c50ba75ee485f4c22adf2f741400bdf8d6a9cc7df7ecae576221665d7356020525b50604060002093505b601f8210156134af5763800000008316801561347d57601f820154600052846020526134a6565b846000527f8448818bb4ae4562849e949e17ac16e0be16688e156b5cf15e098c627c0056a96020525b50604060002093505b505050919050565b60006134cc6001600160a01b03841683613af2565b905080516000141580156134f15750808060200190518101906134ef9190613fb8565b155b1561061257604051635274afe760e01b81526001600160a01b03841660048201526024016106c8565b600061eeed196001600160a01b0384160161354057506001600160a01b03811631611f3b565b6040516370a0823160e01b81526001600160a01b0383811660048301528416906370a0823190602401602060405180830381865afa158015613586573d6000803e3d6000fd5b505050506040513d601f19601f820116820180604052508101906135aa9190613f9f565b9392505050565b60408051602081018590529081018390526001600160a01b03821660608201526000906080016040516020818303038152906040528051906020012090509392505050565b6135fe613c33565b600083602001805161360f9061419f565b90819052905060016136236020600261429c565b61362d91906140a3565b81111561364d57604051638eab04bb60e01b815260040160405180910390fd5b60005b60208110156136e257816001166001036136895784518490826020811061367957613679613eb8565b602002015250839150611f3b9050565b8451816020811061369c5761369c613eb8565b6020020151846040516020016136bc929190918252602082015260400190565b60408051601f1981840301815291905280516020909101209350600191821c9101613650565b50604051638eab04bb60e01b815260040160405180910390fd5b6020600582811b8216948552835194820394909452604060008181206002851615871b808503919091528386015190528181206004851615871b808503919091528286015190528181206008851615871b80850391909152606086015190528181206010851615871b8085039190915260808087015190915282822084861615881b8086039190915260a0870151905282822083861615881b8086039190915260c0870151905282822090851615871b8085039190915260e0860151905281812061010080861615881b80860392909252860151905281812061020080861615881b80860392909252610120870151909152828220610400861615881b808603919091526101408701519052828220610800861615881b808603919091526101608701519052828220611000861615881b808603919091526101808701519052828220612000861615881b808603919091526101a08701519052828220614000861615881b808603919091526101c08701519052828220618000861615881b808603919091526101e0870151905282822062010000861615881b8086039190915290860151905281812062020000851615871b80850391909152610220860151905281812062040000851615871b80850391909152610240860151905281812062080000851615871b80850391909152610260860151905281812062100000851615871b80850391909152610280860151905281812062200000851615871b808503919091526102a0860151905281812062400000851615871b808503919091526102c0860151905281812062800000851615871b808503919091526102e086015190528181206301000000851615871b8085039190915261030086015190528181206302000000851615871b8085039190915261032086015190528181206304000000851615871b8085039190915261034086015190528181206308000000851615871b8085039190915261036086015190528181206310000000851615871b8085039190915261038086015190528181206320000000851615871b808503919091526103a086015190528181206340000000851615871b808503919091526103c0860151905281812063800000009094161590951b91829003929092526103e090920151909152902090565b6000806000846001600160a01b031684604051613a6791906142a8565b6000604051808303816000865af19150503d8060008114613aa4576040519150601f19603f3d011682016040523d82523d6000602084013e613aa9565b606091505b5091509150818015613ad3575080511580613ad3575080806020019051810190613ad39190613fb8565b8015613ae957506000856001600160a01b03163b115b95945050505050565b60606135aa8383600084600080856001600160a01b03168486604051613b1891906142a8565b60006040518083038185875af1925050503d8060008114613b55576040519150601f19603f3d011682016040523d82523d6000602084013e613b5a565b606091505b5091509150613b6a868383613b74565b9695505050505050565b606082613b8957613b8482613bd0565b6135aa565b8151158015613ba057506001600160a01b0384163b155b15613bc957604051639996b31560e01b81526001600160a01b03851660048201526024016106c8565b50806135aa565b805115613be05780518082602001fd5b604051630a12f52160e11b815260040160405180910390fd5b8260208101928215613c27579160200282015b82811115613c27578251825591602001919060010190613c0c565b50610b7b929150613c53565b6040518060400160405280613c46613c68565b8152602001600081525090565b5b80821115610b7b5760008155600101613c54565b6040518061040001604052806020906020820280368337509192915050565b60008060208385031215613c9a57600080fd5b82356001600160401b0380821115613cb157600080fd5b818501915085601f830112613cc557600080fd5b813581811115613cd457600080fd5b8660208260071b8501011115613ce957600080fd5b60209290920196919550909350505050565b600060808284031215613d0d57600080fd5b50919050565b600060808284031215613d2557600080fd5b6135aa8383613cfb565b6001600160a01b0381168114610bf557600080fd5b60008060008060808587031215613d5a57600080fd5b843593506020850135613d6c81613d2f565b9250604085013591506060850135613d8381613d2f565b939692955090935050565b600060208284031215613da057600080fd5b81356135aa81613d2f565b6001600160401b038416815260208082018490528251610460830191906000604085015b83821015613ded578251815291830191600191909101908301613dcf565b505050506020830151610440830152949350505050565b60006104a08284031215613d0d57600080fd5b60008060208385031215613e2a57600080fd5b82356001600160401b0380821115613e4157600080fd5b818501915085601f830112613e5557600080fd5b813581811115613e6457600080fd5b8660206104a083028501011115613ce957600080fd5b634e487b7160e01b600052602160045260246000fd5b6020810160028310613eb257634e487b7160e01b600052602160045260246000fd5b91905290565b634e487b7160e01b600052603260045260246000fd5b600060208284031215613ee057600080fd5b813563ffffffff811681146135aa57600080fd5b600060208284031215613f0657600080fd5b81516135aa81613d2f565b634e487b7160e01b600052601160045260246000fd5b80820180821115611f3b57611f3b613f11565b6001600160401b0381168114610bf557600080fd5b600060208284031215613f6157600080fd5b81356135aa81613f3a565b8135613f7781613f3a565b6001600160401b0381166001600160401b031983541617825550602082013560018201555050565b600060208284031215613fb157600080fd5b5051919050565b600060208284031215613fca57600080fd5b815180151581146135aa57600080fd5b60006001600160401b03808316818103613ff657613ff6613f11565b6001019392505050565b60005b8381101561401b578181015183820152602001614003565b50506000910152565b6000815180845261403c816020860160208601614000565b601f01601f19169290920160200192915050565b6001600160a01b0387811682528681166020830152851660408201526060810184905263ffffffff8316608082015260c060a0820181905260009061409790830184614024565b98975050505050505050565b81810381811115611f3b57611f3b613f11565b6001600160a01b03841681526060602082018190526000906140da90830185614024565b905063ffffffff83166040830152949350505050565b600060018060a01b03808a168352886020840152808816604084015286606084015285608084015280851660a08401525060e060c083015261413560e0830184614024565b9998505050505050505050565b634e487b7160e01b600052600160045260246000fd5b86815260018060a01b0386166020820152846040820152831515606082015260c06080820152600061418d60c0830185614024565b82810360a08401526141358185614024565b6000600182016141b1576141b1613f11565b5060010190565b600181815b808511156141f35781600019048211156141d9576141d9613f11565b808516156141e657918102915b93841c93908002906141bd565b509250929050565b60008261420a57506001611f3b565b8161421757506000611f3b565b816001811461422d576002811461423757614253565b6001915050611f3b565b60ff84111561424857614248613f11565b50506001821b611f3b565b5060208310610133831016604e8410600b8410161715614276575081810a611f3b565b61428083836141b8565b806000190482111561429457614294613f11565b029392505050565b60006135aa83836141fb565b600082516142ba818460208701614000565b919091019291505056fea2646970667358221220c268c5af07d139b6e196db4b02c3d5a0bcfba673056c0aa58803a29db8241b9f64736f6c63430008170033a2646970667358221220cc8ea6ac1c043d190cf486f4da48ace5e332aa92ba2fe83921cefc3b43e3600764736f6c63430008170033",
			"devdoc": {
				"kind": "dev",
				"methods": {
					"createForSender(uint256,bytes32)": {
						"details": "Uses the sender address as the salt, which means the same sender must call this function on both chains.",
						"params": {
							"localProjectId": "The project's ID on the local chain.",
							"salt": "The salt to use for the `create2` address."
						},
						"returns": {
							"sucker": "The address of the new sucker."
						}
					}
				},
				"version": 1
			},
			"userdoc": {
				"kind": "user",
				"methods": {
					"BRIDGE()": {
						"notice": "The bridge used to bridge tokens between the local and remote chain."
					},
					"MESSENGER()": {
						"notice": "The messenger used to send messages between the local and remote sucker."
					},
					"PERMISSIONS()": {
						"notice": "A contract storing permissions."
					},
					"configureLayerSpecific(address,address)": {
						"notice": "handles some layer specific configuration that can't be done in the constructor otherwise deployment addresses would change.messenger the OPMesssenger on this layer.bridge the OPStandardBridge on this layer."
					},
					"createForSender(uint256,bytes32)": {
						"notice": "Create a new `BPSucker` for a specific project."
					},
					"isSucker(address)": {
						"notice": "A mapping of suckers deployed by this contract."
					}
				},
				"version": 1
			},
			"gitCommit": "7d1e170198d655b28588d06b0c8c3cbb79082b17",
			"sourceName": "src/deployers/BPOptimismSuckerDeployer.sol",
			"chainId": "11155420",
			"linkReferences": {},
			"deployedLinkReferences": {}
		}
	]
}