{
	"_format": "sphinx-sol-ct-artifact-1",
	"merkleRoot": "0x8b301a65089f933bbe7065207de564f31cf7fa4026a0dad20293e6755f8e2beb",
	"contractName": "JB721TiersHook",
	"address": "0x323Dd5A5ed60468401528f220CB8ADbB9F855920",
	"abi": [
		{
			"type": "constructor",
			"inputs": [
				{
					"name": "directory",
					"type": "address",
					"internalType": "contract IJBDirectory"
				},
				{
					"name": "permissions",
					"type": "address",
					"internalType": "contract IJBPermissions"
				}
			],
			"stateMutability": "nonpayable"
		},
		{
			"type": "function",
			"name": "CODE_ORIGIN",
			"inputs": [],
			"outputs": [
				{
					"name": "",
					"type": "address",
					"internalType": "address"
				}
			],
			"stateMutability": "view"
		},
		{
			"type": "function",
			"name": "DIRECTORY",
			"inputs": [],
			"outputs": [
				{
					"name": "",
					"type": "address",
					"internalType": "contract IJBDirectory"
				}
			],
			"stateMutability": "view"
		},
		{
			"type": "function",
			"name": "PERMISSIONS",
			"inputs": [],
			"outputs": [
				{
					"name": "",
					"type": "address",
					"internalType": "contract IJBPermissions"
				}
			],
			"stateMutability": "view"
		},
		{
			"type": "function",
			"name": "PROJECTS",
			"inputs": [],
			"outputs": [
				{
					"name": "",
					"type": "address",
					"internalType": "contract IJBProjects"
				}
			],
			"stateMutability": "view"
		},
		{
			"type": "function",
			"name": "RULESETS",
			"inputs": [],
			"outputs": [
				{
					"name": "",
					"type": "address",
					"internalType": "contract IJBRulesets"
				}
			],
			"stateMutability": "view"
		},
		{
			"type": "function",
			"name": "STORE",
			"inputs": [],
			"outputs": [
				{
					"name": "",
					"type": "address",
					"internalType": "contract IJB721TiersHookStore"
				}
			],
			"stateMutability": "view"
		},
		{
			"type": "function",
			"name": "adjustTiers",
			"inputs": [
				{
					"name": "tiersToAdd",
					"type": "tuple[]",
					"internalType": "struct JB721TierConfig[]",
					"components": [
						{
							"name": "price",
							"type": "uint104",
							"internalType": "uint104"
						},
						{
							"name": "initialSupply",
							"type": "uint32",
							"internalType": "uint32"
						},
						{
							"name": "votingUnits",
							"type": "uint32",
							"internalType": "uint32"
						},
						{
							"name": "reserveFrequency",
							"type": "uint16",
							"internalType": "uint16"
						},
						{
							"name": "reserveBeneficiary",
							"type": "address",
							"internalType": "address"
						},
						{
							"name": "encodedIPFSUri",
							"type": "bytes32",
							"internalType": "bytes32"
						},
						{
							"name": "category",
							"type": "uint24",
							"internalType": "uint24"
						},
						{
							"name": "allowOwnerMint",
							"type": "bool",
							"internalType": "bool"
						},
						{
							"name": "useReserveBeneficiaryAsDefault",
							"type": "bool",
							"internalType": "bool"
						},
						{
							"name": "transfersPausable",
							"type": "bool",
							"internalType": "bool"
						},
						{
							"name": "useVotingUnits",
							"type": "bool",
							"internalType": "bool"
						},
						{
							"name": "cannotBeRemoved",
							"type": "bool",
							"internalType": "bool"
						}
					]
				},
				{
					"name": "tierIdsToRemove",
					"type": "uint256[]",
					"internalType": "uint256[]"
				}
			],
			"outputs": [],
			"stateMutability": "nonpayable"
		},
		{
			"type": "function",
			"name": "afterPayRecordedWith",
			"inputs": [
				{
					"name": "context",
					"type": "tuple",
					"internalType": "struct JBAfterPayRecordedContext",
					"components": [
						{
							"name": "payer",
							"type": "address",
							"internalType": "address"
						},
						{
							"name": "projectId",
							"type": "uint256",
							"internalType": "uint256"
						},
						{
							"name": "rulesetId",
							"type": "uint256",
							"internalType": "uint256"
						},
						{
							"name": "amount",
							"type": "tuple",
							"internalType": "struct JBTokenAmount",
							"components": [
								{
									"name": "token",
									"type": "address",
									"internalType": "address"
								},
								{
									"name": "value",
									"type": "uint256",
									"internalType": "uint256"
								},
								{
									"name": "decimals",
									"type": "uint256",
									"internalType": "uint256"
								},
								{
									"name": "currency",
									"type": "uint256",
									"internalType": "uint256"
								}
							]
						},
						{
							"name": "forwardedAmount",
							"type": "tuple",
							"internalType": "struct JBTokenAmount",
							"components": [
								{
									"name": "token",
									"type": "address",
									"internalType": "address"
								},
								{
									"name": "value",
									"type": "uint256",
									"internalType": "uint256"
								},
								{
									"name": "decimals",
									"type": "uint256",
									"internalType": "uint256"
								},
								{
									"name": "currency",
									"type": "uint256",
									"internalType": "uint256"
								}
							]
						},
						{
							"name": "weight",
							"type": "uint256",
							"internalType": "uint256"
						},
						{
							"name": "projectTokenCount",
							"type": "uint256",
							"internalType": "uint256"
						},
						{
							"name": "beneficiary",
							"type": "address",
							"internalType": "address"
						},
						{
							"name": "hookMetadata",
							"type": "bytes",
							"internalType": "bytes"
						},
						{
							"name": "payerMetadata",
							"type": "bytes",
							"internalType": "bytes"
						}
					]
				}
			],
			"outputs": [],
			"stateMutability": "payable"
		},
		{
			"type": "function",
			"name": "afterRedeemRecordedWith",
			"inputs": [
				{
					"name": "context",
					"type": "tuple",
					"internalType": "struct JBAfterRedeemRecordedContext",
					"components": [
						{
							"name": "holder",
							"type": "address",
							"internalType": "address"
						},
						{
							"name": "projectId",
							"type": "uint256",
							"internalType": "uint256"
						},
						{
							"name": "rulesetId",
							"type": "uint256",
							"internalType": "uint256"
						},
						{
							"name": "redeemCount",
							"type": "uint256",
							"internalType": "uint256"
						},
						{
							"name": "reclaimedAmount",
							"type": "tuple",
							"internalType": "struct JBTokenAmount",
							"components": [
								{
									"name": "token",
									"type": "address",
									"internalType": "address"
								},
								{
									"name": "value",
									"type": "uint256",
									"internalType": "uint256"
								},
								{
									"name": "decimals",
									"type": "uint256",
									"internalType": "uint256"
								},
								{
									"name": "currency",
									"type": "uint256",
									"internalType": "uint256"
								}
							]
						},
						{
							"name": "forwardedAmount",
							"type": "tuple",
							"internalType": "struct JBTokenAmount",
							"components": [
								{
									"name": "token",
									"type": "address",
									"internalType": "address"
								},
								{
									"name": "value",
									"type": "uint256",
									"internalType": "uint256"
								},
								{
									"name": "decimals",
									"type": "uint256",
									"internalType": "uint256"
								},
								{
									"name": "currency",
									"type": "uint256",
									"internalType": "uint256"
								}
							]
						},
						{
							"name": "redemptionRate",
							"type": "uint256",
							"internalType": "uint256"
						},
						{
							"name": "beneficiary",
							"type": "address",
							"internalType": "address payable"
						},
						{
							"name": "hookMetadata",
							"type": "bytes",
							"internalType": "bytes"
						},
						{
							"name": "redeemerMetadata",
							"type": "bytes",
							"internalType": "bytes"
						}
					]
				}
			],
			"outputs": [],
			"stateMutability": "payable"
		},
		{
			"type": "function",
			"name": "approve",
			"inputs": [
				{
					"name": "to",
					"type": "address",
					"internalType": "address"
				},
				{
					"name": "tokenId",
					"type": "uint256",
					"internalType": "uint256"
				}
			],
			"outputs": [],
			"stateMutability": "nonpayable"
		},
		{
			"type": "function",
			"name": "balanceOf",
			"inputs": [
				{
					"name": "owner",
					"type": "address",
					"internalType": "address"
				}
			],
			"outputs": [
				{
					"name": "balance",
					"type": "uint256",
					"internalType": "uint256"
				}
			],
			"stateMutability": "view"
		},
		{
			"type": "function",
			"name": "baseURI",
			"inputs": [],
			"outputs": [
				{
					"name": "",
					"type": "string",
					"internalType": "string"
				}
			],
			"stateMutability": "view"
		},
		{
			"type": "function",
			"name": "beforePayRecordedWith",
			"inputs": [
				{
					"name": "context",
					"type": "tuple",
					"internalType": "struct JBBeforePayRecordedContext",
					"components": [
						{
							"name": "terminal",
							"type": "address",
							"internalType": "address"
						},
						{
							"name": "payer",
							"type": "address",
							"internalType": "address"
						},
						{
							"name": "amount",
							"type": "tuple",
							"internalType": "struct JBTokenAmount",
							"components": [
								{
									"name": "token",
									"type": "address",
									"internalType": "address"
								},
								{
									"name": "value",
									"type": "uint256",
									"internalType": "uint256"
								},
								{
									"name": "decimals",
									"type": "uint256",
									"internalType": "uint256"
								},
								{
									"name": "currency",
									"type": "uint256",
									"internalType": "uint256"
								}
							]
						},
						{
							"name": "projectId",
							"type": "uint256",
							"internalType": "uint256"
						},
						{
							"name": "rulesetId",
							"type": "uint256",
							"internalType": "uint256"
						},
						{
							"name": "beneficiary",
							"type": "address",
							"internalType": "address"
						},
						{
							"name": "weight",
							"type": "uint256",
							"internalType": "uint256"
						},
						{
							"name": "reservedRate",
							"type": "uint256",
							"internalType": "uint256"
						},
						{
							"name": "metadata",
							"type": "bytes",
							"internalType": "bytes"
						}
					]
				}
			],
			"outputs": [
				{
					"name": "weight",
					"type": "uint256",
					"internalType": "uint256"
				},
				{
					"name": "hookSpecifications",
					"type": "tuple[]",
					"internalType": "struct JBPayHookSpecification[]",
					"components": [
						{
							"name": "hook",
							"type": "address",
							"internalType": "contract IJBPayHook"
						},
						{
							"name": "amount",
							"type": "uint256",
							"internalType": "uint256"
						},
						{
							"name": "metadata",
							"type": "bytes",
							"internalType": "bytes"
						}
					]
				}
			],
			"stateMutability": "view"
		},
		{
			"type": "function",
			"name": "beforeRedeemRecordedWith",
			"inputs": [
				{
					"name": "context",
					"type": "tuple",
					"internalType": "struct JBBeforeRedeemRecordedContext",
					"components": [
						{
							"name": "terminal",
							"type": "address",
							"internalType": "address"
						},
						{
							"name": "holder",
							"type": "address",
							"internalType": "address"
						},
						{
							"name": "projectId",
							"type": "uint256",
							"internalType": "uint256"
						},
						{
							"name": "rulesetId",
							"type": "uint256",
							"internalType": "uint256"
						},
						{
							"name": "redeemCount",
							"type": "uint256",
							"internalType": "uint256"
						},
						{
							"name": "totalSupply",
							"type": "uint256",
							"internalType": "uint256"
						},
						{
							"name": "surplus",
							"type": "tuple",
							"internalType": "struct JBTokenAmount",
							"components": [
								{
									"name": "token",
									"type": "address",
									"internalType": "address"
								},
								{
									"name": "value",
									"type": "uint256",
									"internalType": "uint256"
								},
								{
									"name": "decimals",
									"type": "uint256",
									"internalType": "uint256"
								},
								{
									"name": "currency",
									"type": "uint256",
									"internalType": "uint256"
								}
							]
						},
						{
							"name": "useTotalSurplus",
							"type": "bool",
							"internalType": "bool"
						},
						{
							"name": "redemptionRate",
							"type": "uint256",
							"internalType": "uint256"
						},
						{
							"name": "metadata",
							"type": "bytes",
							"internalType": "bytes"
						}
					]
				}
			],
			"outputs": [
				{
					"name": "redemptionRate",
					"type": "uint256",
					"internalType": "uint256"
				},
				{
					"name": "redeemCount",
					"type": "uint256",
					"internalType": "uint256"
				},
				{
					"name": "totalSupply",
					"type": "uint256",
					"internalType": "uint256"
				},
				{
					"name": "hookSpecifications",
					"type": "tuple[]",
					"internalType": "struct JBRedeemHookSpecification[]",
					"components": [
						{
							"name": "hook",
							"type": "address",
							"internalType": "contract IJBRedeemHook"
						},
						{
							"name": "amount",
							"type": "uint256",
							"internalType": "uint256"
						},
						{
							"name": "metadata",
							"type": "bytes",
							"internalType": "bytes"
						}
					]
				}
			],
			"stateMutability": "view"
		},
		{
			"type": "function",
			"name": "contractURI",
			"inputs": [],
			"outputs": [
				{
					"name": "",
					"type": "string",
					"internalType": "string"
				}
			],
			"stateMutability": "view"
		},
		{
			"type": "function",
			"name": "firstOwnerOf",
			"inputs": [
				{
					"name": "tokenId",
					"type": "uint256",
					"internalType": "uint256"
				}
			],
			"outputs": [
				{
					"name": "",
					"type": "address",
					"internalType": "address"
				}
			],
			"stateMutability": "view"
		},
		{
			"type": "function",
			"name": "getApproved",
			"inputs": [
				{
					"name": "tokenId",
					"type": "uint256",
					"internalType": "uint256"
				}
			],
			"outputs": [
				{
					"name": "",
					"type": "address",
					"internalType": "address"
				}
			],
			"stateMutability": "view"
		},
		{
			"type": "function",
			"name": "hasMintPermissionFor",
			"inputs": [
				{
					"name": "",
					"type": "uint256",
					"internalType": "uint256"
				},
				{
					"name": "",
					"type": "address",
					"internalType": "address"
				}
			],
			"outputs": [
				{
					"name": "",
					"type": "bool",
					"internalType": "bool"
				}
			],
			"stateMutability": "pure"
		},
		{
			"type": "function",
			"name": "initialize",
			"inputs": [
				{
					"name": "projectId",
					"type": "uint256",
					"internalType": "uint256"
				},
				{
					"name": "name",
					"type": "string",
					"internalType": "string"
				},
				{
					"name": "symbol",
					"type": "string",
					"internalType": "string"
				},
				{
					"name": "rulesets",
					"type": "address",
					"internalType": "contract IJBRulesets"
				},
				{
					"name": "baseUri",
					"type": "string",
					"internalType": "string"
				},
				{
					"name": "tokenUriResolver",
					"type": "address",
					"internalType": "contract IJB721TokenUriResolver"
				},
				{
					"name": "contractUri",
					"type": "string",
					"internalType": "string"
				},
				{
					"name": "tiersConfig",
					"type": "tuple",
					"internalType": "struct JB721InitTiersConfig",
					"components": [
						{
							"name": "tiers",
							"type": "tuple[]",
							"internalType": "struct JB721TierConfig[]",
							"components": [
								{
									"name": "price",
									"type": "uint104",
									"internalType": "uint104"
								},
								{
									"name": "initialSupply",
									"type": "uint32",
									"internalType": "uint32"
								},
								{
									"name": "votingUnits",
									"type": "uint32",
									"internalType": "uint32"
								},
								{
									"name": "reserveFrequency",
									"type": "uint16",
									"internalType": "uint16"
								},
								{
									"name": "reserveBeneficiary",
									"type": "address",
									"internalType": "address"
								},
								{
									"name": "encodedIPFSUri",
									"type": "bytes32",
									"internalType": "bytes32"
								},
								{
									"name": "category",
									"type": "uint24",
									"internalType": "uint24"
								},
								{
									"name": "allowOwnerMint",
									"type": "bool",
									"internalType": "bool"
								},
								{
									"name": "useReserveBeneficiaryAsDefault",
									"type": "bool",
									"internalType": "bool"
								},
								{
									"name": "transfersPausable",
									"type": "bool",
									"internalType": "bool"
								},
								{
									"name": "useVotingUnits",
									"type": "bool",
									"internalType": "bool"
								},
								{
									"name": "cannotBeRemoved",
									"type": "bool",
									"internalType": "bool"
								}
							]
						},
						{
							"name": "currency",
							"type": "uint32",
							"internalType": "uint32"
						},
						{
							"name": "decimals",
							"type": "uint8",
							"internalType": "uint8"
						},
						{
							"name": "prices",
							"type": "address",
							"internalType": "contract IJBPrices"
						}
					]
				},
				{
					"name": "store",
					"type": "address",
					"internalType": "contract IJB721TiersHookStore"
				},
				{
					"name": "flags",
					"type": "tuple",
					"internalType": "struct JB721TiersHookFlags",
					"components": [
						{
							"name": "noNewTiersWithReserves",
							"type": "bool",
							"internalType": "bool"
						},
						{
							"name": "noNewTiersWithVotes",
							"type": "bool",
							"internalType": "bool"
						},
						{
							"name": "noNewTiersWithOwnerMinting",
							"type": "bool",
							"internalType": "bool"
						},
						{
							"name": "preventOverspending",
							"type": "bool",
							"internalType": "bool"
						}
					]
				}
			],
			"outputs": [],
			"stateMutability": "nonpayable"
		},
		{
			"type": "function",
			"name": "isApprovedForAll",
			"inputs": [
				{
					"name": "owner",
					"type": "address",
					"internalType": "address"
				},
				{
					"name": "operator",
					"type": "address",
					"internalType": "address"
				}
			],
			"outputs": [
				{
					"name": "",
					"type": "bool",
					"internalType": "bool"
				}
			],
			"stateMutability": "view"
		},
		{
			"type": "function",
			"name": "jbOwner",
			"inputs": [],
			"outputs": [
				{
					"name": "owner",
					"type": "address",
					"internalType": "address"
				},
				{
					"name": "projectId",
					"type": "uint88",
					"internalType": "uint88"
				},
				{
					"name": "permissionId",
					"type": "uint8",
					"internalType": "uint8"
				}
			],
			"stateMutability": "view"
		},
		{
			"type": "function",
			"name": "mintFor",
			"inputs": [
				{
					"name": "tierIds",
					"type": "uint16[]",
					"internalType": "uint16[]"
				},
				{
					"name": "beneficiary",
					"type": "address",
					"internalType": "address"
				}
			],
			"outputs": [
				{
					"name": "tokenIds",
					"type": "uint256[]",
					"internalType": "uint256[]"
				}
			],
			"stateMutability": "nonpayable"
		},
		{
			"type": "function",
			"name": "mintPendingReservesFor",
			"inputs": [
				{
					"name": "reserveMintConfigs",
					"type": "tuple[]",
					"internalType": "struct JB721TiersMintReservesConfig[]",
					"components": [
						{
							"name": "tierId",
							"type": "uint256",
							"internalType": "uint256"
						},
						{
							"name": "count",
							"type": "uint256",
							"internalType": "uint256"
						}
					]
				}
			],
			"outputs": [],
			"stateMutability": "nonpayable"
		},
		{
			"type": "function",
			"name": "mintPendingReservesFor",
			"inputs": [
				{
					"name": "tierId",
					"type": "uint256",
					"internalType": "uint256"
				},
				{
					"name": "count",
					"type": "uint256",
					"internalType": "uint256"
				}
			],
			"outputs": [],
			"stateMutability": "nonpayable"
		},
		{
			"type": "function",
			"name": "name",
			"inputs": [],
			"outputs": [
				{
					"name": "",
					"type": "string",
					"internalType": "string"
				}
			],
			"stateMutability": "view"
		},
		{
			"type": "function",
			"name": "owner",
			"inputs": [],
			"outputs": [
				{
					"name": "",
					"type": "address",
					"internalType": "address"
				}
			],
			"stateMutability": "view"
		},
		{
			"type": "function",
			"name": "ownerOf",
			"inputs": [
				{
					"name": "tokenId",
					"type": "uint256",
					"internalType": "uint256"
				}
			],
			"outputs": [
				{
					"name": "",
					"type": "address",
					"internalType": "address"
				}
			],
			"stateMutability": "view"
		},
		{
			"type": "function",
			"name": "payCreditsOf",
			"inputs": [
				{
					"name": "addr",
					"type": "address",
					"internalType": "address"
				}
			],
			"outputs": [
				{
					"name": "",
					"type": "uint256",
					"internalType": "uint256"
				}
			],
			"stateMutability": "view"
		},
		{
			"type": "function",
			"name": "pricingContext",
			"inputs": [],
			"outputs": [
				{
					"name": "currency",
					"type": "uint256",
					"internalType": "uint256"
				},
				{
					"name": "decimals",
					"type": "uint256",
					"internalType": "uint256"
				},
				{
					"name": "prices",
					"type": "address",
					"internalType": "contract IJBPrices"
				}
			],
			"stateMutability": "view"
		},
		{
			"type": "function",
			"name": "projectId",
			"inputs": [],
			"outputs": [
				{
					"name": "",
					"type": "uint256",
					"internalType": "uint256"
				}
			],
			"stateMutability": "view"
		},
		{
			"type": "function",
			"name": "redemptionWeightOf",
			"inputs": [
				{
					"name": "tokenIds",
					"type": "uint256[]",
					"internalType": "uint256[]"
				},
				{
					"name": "",
					"type": "tuple",
					"internalType": "struct JBBeforeRedeemRecordedContext",
					"components": [
						{
							"name": "terminal",
							"type": "address",
							"internalType": "address"
						},
						{
							"name": "holder",
							"type": "address",
							"internalType": "address"
						},
						{
							"name": "projectId",
							"type": "uint256",
							"internalType": "uint256"
						},
						{
							"name": "rulesetId",
							"type": "uint256",
							"internalType": "uint256"
						},
						{
							"name": "redeemCount",
							"type": "uint256",
							"internalType": "uint256"
						},
						{
							"name": "totalSupply",
							"type": "uint256",
							"internalType": "uint256"
						},
						{
							"name": "surplus",
							"type": "tuple",
							"internalType": "struct JBTokenAmount",
							"components": [
								{
									"name": "token",
									"type": "address",
									"internalType": "address"
								},
								{
									"name": "value",
									"type": "uint256",
									"internalType": "uint256"
								},
								{
									"name": "decimals",
									"type": "uint256",
									"internalType": "uint256"
								},
								{
									"name": "currency",
									"type": "uint256",
									"internalType": "uint256"
								}
							]
						},
						{
							"name": "useTotalSurplus",
							"type": "bool",
							"internalType": "bool"
						},
						{
							"name": "redemptionRate",
							"type": "uint256",
							"internalType": "uint256"
						},
						{
							"name": "metadata",
							"type": "bytes",
							"internalType": "bytes"
						}
					]
				}
			],
			"outputs": [
				{
					"name": "",
					"type": "uint256",
					"internalType": "uint256"
				}
			],
			"stateMutability": "view"
		},
		{
			"type": "function",
			"name": "renounceOwnership",
			"inputs": [],
			"outputs": [],
			"stateMutability": "nonpayable"
		},
		{
			"type": "function",
			"name": "safeTransferFrom",
			"inputs": [
				{
					"name": "from",
					"type": "address",
					"internalType": "address"
				},
				{
					"name": "to",
					"type": "address",
					"internalType": "address"
				},
				{
					"name": "tokenId",
					"type": "uint256",
					"internalType": "uint256"
				}
			],
			"outputs": [],
			"stateMutability": "nonpayable"
		},
		{
			"type": "function",
			"name": "safeTransferFrom",
			"inputs": [
				{
					"name": "from",
					"type": "address",
					"internalType": "address"
				},
				{
					"name": "to",
					"type": "address",
					"internalType": "address"
				},
				{
					"name": "tokenId",
					"type": "uint256",
					"internalType": "uint256"
				},
				{
					"name": "data",
					"type": "bytes",
					"internalType": "bytes"
				}
			],
			"outputs": [],
			"stateMutability": "nonpayable"
		},
		{
			"type": "function",
			"name": "setApprovalForAll",
			"inputs": [
				{
					"name": "operator",
					"type": "address",
					"internalType": "address"
				},
				{
					"name": "approved",
					"type": "bool",
					"internalType": "bool"
				}
			],
			"outputs": [],
			"stateMutability": "nonpayable"
		},
		{
			"type": "function",
			"name": "setMetadata",
			"inputs": [
				{
					"name": "baseUri",
					"type": "string",
					"internalType": "string"
				},
				{
					"name": "contractUri",
					"type": "string",
					"internalType": "string"
				},
				{
					"name": "tokenUriResolver",
					"type": "address",
					"internalType": "contract IJB721TokenUriResolver"
				},
				{
					"name": "encodedIPFSTUriTierId",
					"type": "uint256",
					"internalType": "uint256"
				},
				{
					"name": "encodedIPFSUri",
					"type": "bytes32",
					"internalType": "bytes32"
				}
			],
			"outputs": [],
			"stateMutability": "nonpayable"
		},
		{
			"type": "function",
			"name": "setPermissionId",
			"inputs": [
				{
					"name": "permissionId",
					"type": "uint8",
					"internalType": "uint8"
				}
			],
			"outputs": [],
			"stateMutability": "nonpayable"
		},
		{
			"type": "function",
			"name": "supportsInterface",
			"inputs": [
				{
					"name": "interfaceId",
					"type": "bytes4",
					"internalType": "bytes4"
				}
			],
			"outputs": [
				{
					"name": "",
					"type": "bool",
					"internalType": "bool"
				}
			],
			"stateMutability": "view"
		},
		{
			"type": "function",
			"name": "symbol",
			"inputs": [],
			"outputs": [
				{
					"name": "",
					"type": "string",
					"internalType": "string"
				}
			],
			"stateMutability": "view"
		},
		{
			"type": "function",
			"name": "tokenURI",
			"inputs": [
				{
					"name": "tokenId",
					"type": "uint256",
					"internalType": "uint256"
				}
			],
			"outputs": [
				{
					"name": "",
					"type": "string",
					"internalType": "string"
				}
			],
			"stateMutability": "view"
		},
		{
			"type": "function",
			"name": "totalRedemptionWeight",
			"inputs": [
				{
					"name": "",
					"type": "tuple",
					"internalType": "struct JBBeforeRedeemRecordedContext",
					"components": [
						{
							"name": "terminal",
							"type": "address",
							"internalType": "address"
						},
						{
							"name": "holder",
							"type": "address",
							"internalType": "address"
						},
						{
							"name": "projectId",
							"type": "uint256",
							"internalType": "uint256"
						},
						{
							"name": "rulesetId",
							"type": "uint256",
							"internalType": "uint256"
						},
						{
							"name": "redeemCount",
							"type": "uint256",
							"internalType": "uint256"
						},
						{
							"name": "totalSupply",
							"type": "uint256",
							"internalType": "uint256"
						},
						{
							"name": "surplus",
							"type": "tuple",
							"internalType": "struct JBTokenAmount",
							"components": [
								{
									"name": "token",
									"type": "address",
									"internalType": "address"
								},
								{
									"name": "value",
									"type": "uint256",
									"internalType": "uint256"
								},
								{
									"name": "decimals",
									"type": "uint256",
									"internalType": "uint256"
								},
								{
									"name": "currency",
									"type": "uint256",
									"internalType": "uint256"
								}
							]
						},
						{
							"name": "useTotalSurplus",
							"type": "bool",
							"internalType": "bool"
						},
						{
							"name": "redemptionRate",
							"type": "uint256",
							"internalType": "uint256"
						},
						{
							"name": "metadata",
							"type": "bytes",
							"internalType": "bytes"
						}
					]
				}
			],
			"outputs": [
				{
					"name": "",
					"type": "uint256",
					"internalType": "uint256"
				}
			],
			"stateMutability": "view"
		},
		{
			"type": "function",
			"name": "transferFrom",
			"inputs": [
				{
					"name": "from",
					"type": "address",
					"internalType": "address"
				},
				{
					"name": "to",
					"type": "address",
					"internalType": "address"
				},
				{
					"name": "tokenId",
					"type": "uint256",
					"internalType": "uint256"
				}
			],
			"outputs": [],
			"stateMutability": "nonpayable"
		},
		{
			"type": "function",
			"name": "transferOwnership",
			"inputs": [
				{
					"name": "newOwner",
					"type": "address",
					"internalType": "address"
				}
			],
			"outputs": [],
			"stateMutability": "nonpayable"
		},
		{
			"type": "function",
			"name": "transferOwnershipToProject",
			"inputs": [
				{
					"name": "projectId",
					"type": "uint256",
					"internalType": "uint256"
				}
			],
			"outputs": [],
			"stateMutability": "nonpayable"
		},
		{
			"type": "event",
			"name": "AddPayCredits",
			"inputs": [
				{
					"name": "amount",
					"type": "uint256",
					"indexed": true,
					"internalType": "uint256"
				},
				{
					"name": "newTotalCredits",
					"type": "uint256",
					"indexed": true,
					"internalType": "uint256"
				},
				{
					"name": "account",
					"type": "address",
					"indexed": true,
					"internalType": "address"
				},
				{
					"name": "caller",
					"type": "address",
					"indexed": false,
					"internalType": "address"
				}
			],
			"anonymous": false
		},
		{
			"type": "event",
			"name": "AddTier",
			"inputs": [
				{
					"name": "tierId",
					"type": "uint256",
					"indexed": true,
					"internalType": "uint256"
				},
				{
					"name": "tier",
					"type": "tuple",
					"indexed": false,
					"internalType": "struct JB721TierConfig",
					"components": [
						{
							"name": "price",
							"type": "uint104",
							"internalType": "uint104"
						},
						{
							"name": "initialSupply",
							"type": "uint32",
							"internalType": "uint32"
						},
						{
							"name": "votingUnits",
							"type": "uint32",
							"internalType": "uint32"
						},
						{
							"name": "reserveFrequency",
							"type": "uint16",
							"internalType": "uint16"
						},
						{
							"name": "reserveBeneficiary",
							"type": "address",
							"internalType": "address"
						},
						{
							"name": "encodedIPFSUri",
							"type": "bytes32",
							"internalType": "bytes32"
						},
						{
							"name": "category",
							"type": "uint24",
							"internalType": "uint24"
						},
						{
							"name": "allowOwnerMint",
							"type": "bool",
							"internalType": "bool"
						},
						{
							"name": "useReserveBeneficiaryAsDefault",
							"type": "bool",
							"internalType": "bool"
						},
						{
							"name": "transfersPausable",
							"type": "bool",
							"internalType": "bool"
						},
						{
							"name": "useVotingUnits",
							"type": "bool",
							"internalType": "bool"
						},
						{
							"name": "cannotBeRemoved",
							"type": "bool",
							"internalType": "bool"
						}
					]
				},
				{
					"name": "caller",
					"type": "address",
					"indexed": false,
					"internalType": "address"
				}
			],
			"anonymous": false
		},
		{
			"type": "event",
			"name": "Approval",
			"inputs": [
				{
					"name": "owner",
					"type": "address",
					"indexed": true,
					"internalType": "address"
				},
				{
					"name": "approved",
					"type": "address",
					"indexed": true,
					"internalType": "address"
				},
				{
					"name": "tokenId",
					"type": "uint256",
					"indexed": true,
					"internalType": "uint256"
				}
			],
			"anonymous": false
		},
		{
			"type": "event",
			"name": "ApprovalForAll",
			"inputs": [
				{
					"name": "owner",
					"type": "address",
					"indexed": true,
					"internalType": "address"
				},
				{
					"name": "operator",
					"type": "address",
					"indexed": true,
					"internalType": "address"
				},
				{
					"name": "approved",
					"type": "bool",
					"indexed": false,
					"internalType": "bool"
				}
			],
			"anonymous": false
		},
		{
			"type": "event",
			"name": "Mint",
			"inputs": [
				{
					"name": "tokenId",
					"type": "uint256",
					"indexed": true,
					"internalType": "uint256"
				},
				{
					"name": "tierId",
					"type": "uint256",
					"indexed": true,
					"internalType": "uint256"
				},
				{
					"name": "beneficiary",
					"type": "address",
					"indexed": true,
					"internalType": "address"
				},
				{
					"name": "totalAmountPaid",
					"type": "uint256",
					"indexed": false,
					"internalType": "uint256"
				},
				{
					"name": "caller",
					"type": "address",
					"indexed": false,
					"internalType": "address"
				}
			],
			"anonymous": false
		},
		{
			"type": "event",
			"name": "MintReservedNft",
			"inputs": [
				{
					"name": "tokenId",
					"type": "uint256",
					"indexed": true,
					"internalType": "uint256"
				},
				{
					"name": "tierId",
					"type": "uint256",
					"indexed": true,
					"internalType": "uint256"
				},
				{
					"name": "beneficiary",
					"type": "address",
					"indexed": true,
					"internalType": "address"
				},
				{
					"name": "caller",
					"type": "address",
					"indexed": false,
					"internalType": "address"
				}
			],
			"anonymous": false
		},
		{
			"type": "event",
			"name": "OwnershipTransferred",
			"inputs": [
				{
					"name": "previousOwner",
					"type": "address",
					"indexed": true,
					"internalType": "address"
				},
				{
					"name": "newOwner",
					"type": "address",
					"indexed": true,
					"internalType": "address"
				}
			],
			"anonymous": false
		},
		{
			"type": "event",
			"name": "PermissionIdChanged",
			"inputs": [
				{
					"name": "newIndex",
					"type": "uint8",
					"indexed": false,
					"internalType": "uint8"
				}
			],
			"anonymous": false
		},
		{
			"type": "event",
			"name": "RemoveTier",
			"inputs": [
				{
					"name": "tierId",
					"type": "uint256",
					"indexed": true,
					"internalType": "uint256"
				},
				{
					"name": "caller",
					"type": "address",
					"indexed": false,
					"internalType": "address"
				}
			],
			"anonymous": false
		},
		{
			"type": "event",
			"name": "SetBaseUri",
			"inputs": [
				{
					"name": "baseUri",
					"type": "string",
					"indexed": true,
					"internalType": "string"
				},
				{
					"name": "caller",
					"type": "address",
					"indexed": false,
					"internalType": "address"
				}
			],
			"anonymous": false
		},
		{
			"type": "event",
			"name": "SetContractUri",
			"inputs": [
				{
					"name": "contractUri",
					"type": "string",
					"indexed": true,
					"internalType": "string"
				},
				{
					"name": "caller",
					"type": "address",
					"indexed": false,
					"internalType": "address"
				}
			],
			"anonymous": false
		},
		{
			"type": "event",
			"name": "SetEncodedIPFSUri",
			"inputs": [
				{
					"name": "tierId",
					"type": "uint256",
					"indexed": true,
					"internalType": "uint256"
				},
				{
					"name": "encodedIPFSUri",
					"type": "bytes32",
					"indexed": false,
					"internalType": "bytes32"
				},
				{
					"name": "caller",
					"type": "address",
					"indexed": false,
					"internalType": "address"
				}
			],
			"anonymous": false
		},
		{
			"type": "event",
			"name": "SetTokenUriResolver",
			"inputs": [
				{
					"name": "newResolver",
					"type": "address",
					"indexed": true,
					"internalType": "contract IJB721TokenUriResolver"
				},
				{
					"name": "caller",
					"type": "address",
					"indexed": false,
					"internalType": "address"
				}
			],
			"anonymous": false
		},
		{
			"type": "event",
			"name": "Transfer",
			"inputs": [
				{
					"name": "from",
					"type": "address",
					"indexed": true,
					"internalType": "address"
				},
				{
					"name": "to",
					"type": "address",
					"indexed": true,
					"internalType": "address"
				},
				{
					"name": "tokenId",
					"type": "uint256",
					"indexed": true,
					"internalType": "uint256"
				}
			],
			"anonymous": false
		},
		{
			"type": "event",
			"name": "UsePayCredits",
			"inputs": [
				{
					"name": "amount",
					"type": "uint256",
					"indexed": true,
					"internalType": "uint256"
				},
				{
					"name": "newTotalCredits",
					"type": "uint256",
					"indexed": true,
					"internalType": "uint256"
				},
				{
					"name": "account",
					"type": "address",
					"indexed": true,
					"internalType": "address"
				},
				{
					"name": "caller",
					"type": "address",
					"indexed": false,
					"internalType": "address"
				}
			],
			"anonymous": false
		},
		{
			"type": "error",
			"name": "ERC721IncorrectOwner",
			"inputs": [
				{
					"name": "sender",
					"type": "address",
					"internalType": "address"
				},
				{
					"name": "tokenId",
					"type": "uint256",
					"internalType": "uint256"
				},
				{
					"name": "owner",
					"type": "address",
					"internalType": "address"
				}
			]
		},
		{
			"type": "error",
			"name": "ERC721InsufficientApproval",
			"inputs": [
				{
					"name": "operator",
					"type": "address",
					"internalType": "address"
				},
				{
					"name": "tokenId",
					"type": "uint256",
					"internalType": "uint256"
				}
			]
		},
		{
			"type": "error",
			"name": "ERC721InvalidApprover",
			"inputs": [
				{
					"name": "approver",
					"type": "address",
					"internalType": "address"
				}
			]
		},
		{
			"type": "error",
			"name": "ERC721InvalidOperator",
			"inputs": [
				{
					"name": "operator",
					"type": "address",
					"internalType": "address"
				}
			]
		},
		{
			"type": "error",
			"name": "ERC721InvalidOwner",
			"inputs": [
				{
					"name": "owner",
					"type": "address",
					"internalType": "address"
				}
			]
		},
		{
			"type": "error",
			"name": "ERC721InvalidReceiver",
			"inputs": [
				{
					"name": "receiver",
					"type": "address",
					"internalType": "address"
				}
			]
		},
		{
			"type": "error",
			"name": "ERC721InvalidSender",
			"inputs": [
				{
					"name": "sender",
					"type": "address",
					"internalType": "address"
				}
			]
		},
		{
			"type": "error",
			"name": "ERC721NonexistentToken",
			"inputs": [
				{
					"name": "tokenId",
					"type": "uint256",
					"internalType": "uint256"
				}
			]
		},
		{
			"type": "error",
			"name": "INVALID_NEW_OWNER",
			"inputs": []
		},
		{
			"type": "error",
			"name": "INVALID_PAY",
			"inputs": []
		},
		{
			"type": "error",
			"name": "INVALID_REDEEM",
			"inputs": []
		},
		{
			"type": "error",
			"name": "MINT_RESERVE_NFTS_PAUSED",
			"inputs": []
		},
		{
			"type": "error",
			"name": "OVERSPENDING",
			"inputs": []
		},
		{
			"type": "error",
			"name": "PRBMath_MulDiv_Overflow",
			"inputs": [
				{
					"name": "x",
					"type": "uint256",
					"internalType": "uint256"
				},
				{
					"name": "y",
					"type": "uint256",
					"internalType": "uint256"
				},
				{
					"name": "denominator",
					"type": "uint256",
					"internalType": "uint256"
				}
			]
		},
		{
			"type": "error",
			"name": "TIER_TRANSFERS_PAUSED",
			"inputs": []
		},
		{
			"type": "error",
			"name": "UNAUTHORIZED",
			"inputs": []
		},
		{
			"type": "error",
			"name": "UNAUTHORIZED_TOKEN",
			"inputs": [
				{
					"name": "tokenId",
					"type": "uint256",
					"internalType": "uint256"
				}
			]
		},
		{
			"type": "error",
			"name": "UNEXPECTED_TOKEN_REDEEMED",
			"inputs": []
		}
	],
	"solcInputHash": "2376904197f805d86033fd44ed669a72",
	"args": [
		"0x18017cfeD48E1dC0Adc445cEF8A9e6AfFCb330DA",
		"0xBA24624AE5dc821866E9E71Ed050412Ef01E2fe6"
	],
	"bytecode": "0x6101006040523480156200001257600080fd5b5060405162005e6c38038062005e6c833981016040819052620000359162000358565b81826001600160a01b031663293c49996040518163ffffffff1660e01b8152600401602060405180830381865afa15801562000075573d6000803e3d6000fd5b505050506040513d601f19601f820116820180604052508101906200009b919062000397565b6001600160a01b03808416608052811660a052828181620000bc33620000d8565b505050506001600160a01b031660c05250503060e052620003be565b620000e5816000620000e8565b50565b6001600160581b038116158015906200010957506001600160a01b03821615155b15620001285760405163ecb9b1c760e01b815260040160405180910390fd5b60408051606081018252600080546001600160a01b0381168352600160a01b81046001600160581b031660208401819052600160f81b90910460ff1693830193909352909115620001f75760a05160208301516040516331a9108f60e11b81526001600160581b0390911660048201526001600160a01b0390911690636352211e90602401602060405180830381865afa158015620001cb573d6000803e3d6000fd5b505050506040513d601f19601f82011682018060405250810190620001f1919062000397565b620001fa565b81515b604080516060810182526001600160a01b0387168082526001600160581b0387166020830181905260009290930182905281547fff000000000000000000000000000000000000000000000000000000000000001617600160a01b8302176001600160f81b03169055909150620002f890829015620002f15760a0516040516331a9108f60e11b81526001600160581b03871660048201526001600160a01b0390911690636352211e90602401602060405180830381865afa158015620002c5573d6000803e3d6000fd5b505050506040513d601f19601f82011682018060405250810190620002eb919062000397565b620002fe565b85620002fe565b50505050565b806001600160a01b0316826001600160a01b03167f8be0079c531659141344cd1fd0a4f28419497f9722a3daafe3b4186f6b6457e060405160405180910390a35050565b6001600160a01b0381168114620000e557600080fd5b600080604083850312156200036c57600080fd5b8251620003798162000342565b60208401519092506200038c8162000342565b809150509250929050565b600060208284031215620003aa57600080fd5b8151620003b78162000342565b9392505050565b60805160a05160c05160e051615a3c62000430600039600061064a01526000818161067e0152818161117f0152611eef0152600081816104570152818161170c01528181612aaa01528181612bfc0152612d1401526000818161093f01528181612362015261240b0152615a3c6000f3fe6080604052600436106102e75760003560e01c8063715018a611610184578063c07f2f9b116100d6578063e8a3d4851161008a578063f3c5788111610064578063f3c578811461091a578063f434c9141461092d578063fef508481461096157600080fd5b8063e8a3d4851461089c578063e985e9c5146108b1578063f2fde38b146108fa57600080fd5b8063c87b56dd116100bb578063c87b56dd1461082f578063d4a1b4b11461084f578063d95c9ae21461086f57600080fd5b8063c07f2f9b146107ef578063c0fb5e851461080f57600080fd5b8063a220d69611610138578063ade032ff11610112578063ade032ff1461073a578063b88d4fde1461075a578063ba23c36e1461077a57600080fd5b8063a220d696146106ca578063a22cb465146106ea578063aaf320d71461070a57600080fd5b806388bc2ef31161016957806388bc2ef31461066c5780638da5cb5b146106a057806395d89b41146106b557600080fd5b8063715018a6146106235780637bf94ac51461063857600080fd5b80634c4ffc711161023d57806366ec4cb4116101f15780636ac6d941116101cb5780636ac6d941146105c15780636c0360eb146105ee57806370a082311461060357600080fd5b806366ec4cb41461056b578063677ce0881461057e57806368f9c6bc146105a157600080fd5b806354c6d1f51161022257806354c6d1f51461050b578063613b856d1461052b5780636352211e1461054b57600080fd5b80634c4ffc71146104bd578063507f1465146104eb57600080fd5b80631435aad51161029f578063293c499911610279578063293c4999146104455780633fafa1271461047957806342842e0e1461049d57600080fd5b80631435aad5146103e55780631c52730b1461040557806323b872dd1461042557600080fd5b8063081812fc116102d0578063081812fc1461034357806308786b1a1461037b578063095ea7b3146103c357600080fd5b806301ffc9a7146102ec57806306fdde0314610321575b600080fd5b3480156102f857600080fd5b5061030c610307366004613f98565b610981565b60405190151581526020015b60405180910390f35b34801561032d57600080fd5b506103366109c5565b6040516103189190614005565b34801561034f57600080fd5b5061036361035e366004614018565b610a57565b6040516001600160a01b039091168152602001610318565b34801561038757600080fd5b5060095463ffffffff811690602081901c60ff169060281c6040805193845260208401929092526001600160a01b031690820152606001610318565b3480156103cf57600080fd5b506103e36103de366004614056565b610a80565b005b3480156103f157600080fd5b506103e36104003660046140c4565b610a8f565b34801561041157600080fd5b506103e361042036600461415a565b610ce5565b34801561043157600080fd5b506103e36104403660046141cf565b610d3e565b34801561045157600080fd5b506103637f000000000000000000000000000000000000000000000000000000000000000081565b34801561048557600080fd5b5061048f60075481565b604051908152602001610318565b3480156104a957600080fd5b506103e36104b83660046141cf565b610de1565b3480156104c957600080fd5b506104dd6104d8366004614210565b610e01565b60405161031892919061424c565b3480156104f757600080fd5b50600a54610363906001600160a01b031681565b34801561051757600080fd5b50610363610526366004614018565b610ea8565b34801561053757600080fd5b506103e36105463660046142dd565b610eec565b34801561055757600080fd5b50610363610566366004614018565b61114b565b6103e3610579366004614318565b611156565b34801561058a57600080fd5b5061030c61059936600461434d565b600092915050565b3480156105ad57600080fd5b5061048f6105bc366004614490565b61137e565b3480156105cd57600080fd5b506105e16105dc366004614593565b61140b565b6040516103189190614626565b3480156105fa57600080fd5b5061033661155e565b34801561060f57600080fd5b5061048f61061e366004614639565b6115ec565b34801561062f57600080fd5b506103e361167b565b34801561064457600080fd5b506103637f000000000000000000000000000000000000000000000000000000000000000081565b34801561067857600080fd5b506103637f000000000000000000000000000000000000000000000000000000000000000081565b3480156106ac57600080fd5b50610363611690565b3480156106c157600080fd5b50610336611785565b3480156106d657600080fd5b506103e36106e5366004614018565b611794565b3480156106f657600080fd5b506103e361070536600461466f565b6117df565b34801561071657600080fd5b5061072a61072536600461469d565b6117ea565b60405161031894939291906146d2565b34801561074657600080fd5b5061048f61075536600461469d565b61192b565b34801561076657600080fd5b506103e36107753660046147d3565b611975565b34801561078657600080fd5b506000546107bb906001600160a01b03811690600160a01b81046affffffffffffffffffffff1690600160f81b900460ff1683565b604080516001600160a01b0390941684526affffffffffffffffffffff909216602084015260ff1690820152606001610318565b3480156107fb57600080fd5b506103e361080a366004614ae7565b61198c565b34801561081b57600080fd5b506103e361082a366004614c08565b611c23565b34801561083b57600080fd5b5061033661084a366004614018565b611c34565b34801561085b57600080fd5b50600b54610363906001600160a01b031681565b34801561087b57600080fd5b5061048f61088a366004614639565b600c6020526000908152604090205481565b3480156108a857600080fd5b50610336611e80565b3480156108bd57600080fd5b5061030c6108cc366004614c23565b6001600160a01b03918216600090815260066020908152604080832093909416825291909152205460ff1690565b34801561090657600080fd5b506103e3610915366004614639565b611e8d565b6103e3610928366004614318565b611ec7565b34801561093957600080fd5b506103637f000000000000000000000000000000000000000000000000000000000000000081565b34801561096d57600080fd5b506103e361097c366004614c51565b611fb3565b60006001600160e01b031982167fc375dc530000000000000000000000000000000000000000000000000000000014806109bf57506109bf826121c4565b92915050565b6060600180546109d490614cec565b80601f0160208091040260200160405190810160405280929190818152602001828054610a0090614cec565b8015610a4d5780601f10610a2257610100808354040283529160200191610a4d565b820191906000526020600020905b815481529060010190602001808311610a3057829003601f168201915b5050505050905090565b6000610a62826122d2565b506000828152600560205260409020546001600160a01b03166109bf565b610a8b82823361230b565b5050565b610aa4610a9a611690565b6007546017612318565b8515610b0357600d610ab7878983614d70565b508686604051610ac8929190614e30565b604051908190038120338252907f7bc9110d5de090dd59e07912d2b93a5a27ac70a60c8d8e324db4f9ee8b8b5c139060200160405180910390a25b8315610b6257600e610b16858783614d70565b508484604051610b27929190614e30565b604051908190038120338252907fd36dc0c1a06103fdcaf15f3f6fb797d1a97997514c78de073640c8b5005454b89060200160405180910390a25b600a546001600160a01b039081169084163014610c135760405163036129cb60e61b81526001600160a01b03858116600483015282169063d84a72c090602401600060405180830381600087803b158015610bbc57600080fd5b505af1158015610bd0573d6000803e3d6000fd5b50506040513381526001600160a01b03871692507fe7784d93cfbfa4408e19577e6cc0436f4dbb51214b70e100905dfce9def88c16915060200160405180910390a25b8215801590610c2157508115155b15610cdb576040517f49bd1ac600000000000000000000000000000000000000000000000000000000815260048101849052602481018390526001600160a01b038216906349bd1ac690604401600060405180830381600087803b158015610c8857600080fd5b505af1158015610c9c573d6000803e3d6000fd5b5050604080518581523360208201528693507f677da4fed654db8e604791fa2582f342e2001aa217e27f6985eb3e0f67e5a7fc92500160405180910390a25b5050505050505050565b8060005b81811015610d38576000848483818110610d0557610d05614e40565b905060400201803603810190610d1b9190614e56565b9050610d2f81600001518260200151610eec565b50600101610ce9565b50505050565b6001600160a01b038216610d6d57604051633250574960e11b8152600060048201526024015b60405180910390fd5b6000610d7a8383336124af565b9050836001600160a01b0316816001600160a01b031614610d38576040517f64283d7b0000000000000000000000000000000000000000000000000000000081526001600160a01b0380861660048301526024820184905282166044820152606401610d64565b610dfc83838360405180602001604052806000815250611975565b505050565b6040805160018082528183019092526101208301359160609190816020015b60408051606080820183526000808352602083015291810191909152815260200190600190039081610e205790505090506040518060600160405280306001600160a01b03168152602001600081526020016040518060200160405280600081525081525081600081518110610e9857610e98614e40565b6020026020010181905250915091565b6000818152600860205260408120546001600160a01b03168015610ecc5792915050565b6000838152600360205260409020546001600160a01b03165b9392505050565b600b546007546040516321d1336160e11b815260048101919091526000916001600160a01b0316906343a266c29060240161012060405180830381865afa158015610f3b573d6000803e3d6000fd5b505050506040513d601f19601f82011682018060405250810190610f5f9190614eb0565b61010081015190915060f01c600190811603610fa7576040517f63a0ba3900000000000000000000000000000000000000000000000000000000815260040160405180910390fd5b600a546040517fbaa7e80e00000000000000000000000000000000000000000000000000000000815260048101859052602481018490526001600160a01b0390911690600090829063baa7e80e906044016000604051808303816000875af1158015611017573d6000803e3d6000fd5b505050506040513d6000823e601f3d908101601f1916820160405261103f9190810190614f9a565b6040517f03573004000000000000000000000000000000000000000000000000000000008152306004820152602481018790529091506000906001600160a01b03841690630357300490604401602060405180830381865afa1580156110a9573d6000803e3d6000fd5b505050506040513d601f19601f820116820180604052508101906110cd9190614fcf565b90506000805b86811015610cdb578381815181106110ed576110ed614e40565b602002602001015191506111018383612725565b6040513381526001600160a01b03841690899084907f80dd2efbbc431cde0164d84d638e44ba6e7a3ca5d532ceef1bb4efcc0948325d9060200160405180910390a46001016110d3565b60006109bf826122d2565b341515806111f45750600754604051636e49181f60e01b815260048101919091523360248201527f00000000000000000000000000000000000000000000000000000000000000006001600160a01b031690636e49181f90604401602060405180830381865afa1580156111ce573d6000803e3d6000fd5b505050506040513d601f19601f820116820180604052508101906111f29190614ff7565b155b806112055750600754816020013514155b1561123c576040517f835e522b00000000000000000000000000000000000000000000000000000000815260040160405180910390fd5b3060601b60008061128f836112556101e0870187615014565b8080601f0160208091040260200160405190810160405280939291908181526020018383808284376000920191909152506127a392505050565b91509150606082156112b257818060200190518101906112af9190614f9a565b90505b80516000805b8281101561136b578381815181106112d2576112d2614e40565b602002602001015191508760000160208101906112ef9190614639565b6001600160a01b0316611317836000908152600360205260409020546001600160a01b031690565b6001600160a01b03161461135a576040517f5caf197500000000000000000000000000000000000000000000000000000000815260048101839052602401610d64565b61136382612979565b6001016112b8565b50611375836129b4565b50505050505050565b600a546040517f144cc2d40000000000000000000000000000000000000000000000000000000081526000916001600160a01b03169063144cc2d4906113ca903090879060040161505b565b602060405180830381865afa1580156113e7573d6000803e3d6000fd5b505050506040513d601f19601f82011682018060405250810190610ee5919061507d565b6060611422611418611690565b6007546018612318565b600a5460405163eaa19ab360e01b81526001600160a01b039091169063eaa19ab39061145b906000199088908890600190600401615096565b6000604051808303816000875af115801561147a573d6000803e3d6000fd5b505050506040513d6000823e601f3d908101601f191682016040526114a291908101906150f5565b509050826000805b82811015611554578381815181106114c4576114c4614e40565b602002602001015191506114d88583612725565b846001600160a01b03168787838181106114f4576114f4614e40565b9050602002016020810190611509919061513c565b604080516000815233602082015261ffff929092169185917f598baf7bf150ca2f42be9e9f8f55e81d45f5715c3ff22bf46d697fabec7f31d6910160405180910390a46001016114aa565b5050509392505050565b600d805461156b90614cec565b80601f016020809104026020016040519081016040528092919081815260200182805461159790614cec565b80156115e45780601f106115b9576101008083540402835291602001916115e4565b820191906000526020600020905b8154815290600101906020018083116115c757829003601f168201915b505050505081565b600a546040517ff7888aec0000000000000000000000000000000000000000000000000000000081523060048201526001600160a01b038381166024830152600092169063f7888aec906044015b602060405180830381865afa158015611657573d6000803e3d6000fd5b505050506040513d601f19601f820116820180604052508101906109bf919061507d565b611683612a32565b61168e600080612b44565b565b60408051606081018252600080546001600160a01b0381168352600160a01b81046affffffffffffffffffffff1660208401819052600160f81b90910460ff16938301939093529182036116e45751919050565b60208101516040516331a9108f60e11b81526affffffffffffffffffffff90911660048201527f00000000000000000000000000000000000000000000000000000000000000006001600160a01b031690636352211e90602401602060405180830381865afa15801561175b573d6000803e3d6000fd5b505050506040513d601f19601f8201168201806040525081019061177f9190614fcf565b91505090565b6060600280546109d490614cec565b61179c612a32565b8015806117b357506affffffffffffffffffffff81115b156117d15760405163ecb9b1c760e01b815260040160405180910390fd5b6117dc600082612b44565b50565b610a8b338383612d92565b60008080606060808501351561182c576040517f4fc178d800000000000000000000000000000000000000000000000000000000815260040160405180910390fd5b3060601b600080611845836112556101808b018b615014565b604080516001808252818301909252929450909250816020015b6040805160608082018352600080835260208301529181019190915281526020019060019003908161185f5790505093506040518060600160405280306001600160a01b031681526020016000815260200160405180602001604052806000815250815250846000815181106118d7576118d7614e40565b60200260200101819052506060821561190157818060200190518101906118fe9190614f9a565b90505b61190b818a61137e565b96506119168961192b565b95508861016001359750505050509193509193565b600a546040517f2ae5e4920000000000000000000000000000000000000000000000000000000081523060048201526000916001600160a01b031690632ae5e4929060240161163a565b611980848484610d3e565b610d3884848484612e4a565b600a546001600160a01b0316156119a257600080fd5b6119ad8a8a8a612f6c565b600b80546001600160a01b03808a1673ffffffffffffffffffffffffffffffffffffffff1992831617909255600a8054928516929091169190911790556020808401516040850151606086015178ffffffffffffffffffffffffffffffffffffffff000000000060289190911b1664ff000000009190931b1663ffffffff90911617176009819055865115611a4a57600d611a488882615159565b505b845115611a5f57600e611a5d8682615159565b505b6001600160a01b03861615611aca5760405163036129cb60e61b81526001600160a01b03878116600483015284169063d84a72c090602401600060405180830381600087803b158015611ab157600080fd5b505af1158015611ac5573d6000803e3d6000fd5b505050505b83515115611b485783516040516349249dc160e01b81526001600160a01b038516916349249dc191611aff9190600401615219565b6000604051808303816000875af1158015611b1e573d6000803e3d6000fd5b505050506040513d6000823e601f3d908101601f19168201604052611b469190810190614f9a565b505b815180611b56575081602001515b80611b62575081604001515b80611b6e575081606001515b15611c0d57604080517fcb827e3200000000000000000000000000000000000000000000000000000000815283511515600482015260208401511515602482015290830151151560448201526060830151151560648201526001600160a01b0384169063cb827e3290608401600060405180830381600087803b158015611bf457600080fd5b505af1158015611c08573d6000803e3d6000fd5b505050505b611c1633611ebc565b5050505050505050505050565b611c2b612a32565b6117dc81612f7d565b600a546040517f0fab09470000000000000000000000000000000000000000000000000000000081523060048201526060916001600160a01b0316906000908290630fab094790602401602060405180830381865afa158015611c9b573d6000803e3d6000fd5b505050506040513d601f19601f82011682018060405250810190611cbf9190614fcf565b90506001600160a01b03811615611d64576040517f5e703e71000000000000000000000000000000000000000000000000000000008152306004820152602481018590526001600160a01b03821690635e703e7190604401600060405180830381865afa158015611d34573d6000803e3d6000fd5b505050506040513d6000823e601f3d908101601f19168201604052611d5c919081019061534b565b949350505050565b611d5c600d8054611d7490614cec565b80601f0160208091040260200160405190810160405280929190818152602001828054611da090614cec565b8015611ded5780601f10611dc257610100808354040283529160200191611ded565b820191906000526020600020905b815481529060010190602001808311611dd057829003601f168201915b50506040517fc8df1710000000000000000000000000000000000000000000000000000000008152306004820152602481018a90526001600160a01b038816935063c8df171092506044019050602060405180830381865afa158015611e57573d6000803e3d6000fd5b505050506040513d601f19601f82011682018060405250810190611e7b919061507d565b612fd3565b600e805461156b90614cec565b611e95612a32565b6001600160a01b038116611ebc5760405163ecb9b1c760e01b815260040160405180910390fd5b6117dc816000612b44565b60075434151580611f645750604051636e49181f60e01b8152600481018290523360248201527f00000000000000000000000000000000000000000000000000000000000000006001600160a01b031690636e49181f90604401602060405180830381865afa158015611f3e573d6000803e3d6000fd5b505050506040513d601f19601f82011682018060405250810190611f629190614ff7565b155b80611f73575080826020013514155b15611faa576040517f8a3ea1c800000000000000000000000000000000000000000000000000000000815260040160405180910390fd5b610a8b82613056565b611fc8611fbe611690565b6007546016612318565b600a54839082906001600160a01b031681156120bb576040517f20512ba10000000000000000000000000000000000000000000000000000000081526001600160a01b038216906320512ba1906120259088908890600401615380565b600060405180830381600087803b15801561203f57600080fd5b505af1158015612053573d6000803e3d6000fd5b5050505060005b828110156120b95785858281811061207457612074614e40565b60405133815260209182029390930135927f832d89d991be5351d793c20faf4b7dd44f8aa9ce39e3cb160c6317de6fbba72992500160405180910390a260010161205a565b505b8215611375576040516349249dc160e01b81526000906001600160a01b038316906349249dc1906120f2908b908b906004016154d8565b6000604051808303816000875af1158015612111573d6000803e3d6000fd5b505050506040513d6000823e601f3d908101601f191682016040526121399190810190614f9a565b905060005b848110156121b95781818151811061215857612158614e40565b60200260200101517f6c05e4bd067859371de8c0a303cf84af0ba782c3809f8fba14e6af4388894cf08a8a8481811061219357612193614e40565b90506101800201336040516121a992919061551b565b60405180910390a260010161213e565b505050505050505050565b60006001600160e01b031982167fb7138fd400000000000000000000000000000000000000000000000000000000148061222757506001600160e01b031982167f81c03c2e00000000000000000000000000000000000000000000000000000000145b8061225b57506001600160e01b031982167ff3c5788100000000000000000000000000000000000000000000000000000000145b8061228f57506001600160e01b031982167f66ec4cb400000000000000000000000000000000000000000000000000000000145b806122c357506001600160e01b031982167f2a55205a00000000000000000000000000000000000000000000000000000000145b806109bf57506109bf82613511565b6000818152600360205260408120546001600160a01b0316806109bf57604051637e27328960e01b815260048101849052602401610d64565b610dfc83838360016135ac565b336001600160a01b03841681148015906123cf575060405163c161c93f60e01b81526001600160a01b038281166004830152858116602483015260448201859052606482018490527f0000000000000000000000000000000000000000000000000000000000000000169063c161c93f90608401602060405180830381865afa1580156123a9573d6000803e3d6000fd5b505050506040513d601f19601f820116820180604052508101906123cd9190614ff7565b155b8015612478575060405163c161c93f60e01b81526001600160a01b038281166004830152858116602483015260006044830152606482018490527f0000000000000000000000000000000000000000000000000000000000000000169063c161c93f90608401602060405180830381865afa158015612452573d6000803e3d6000fd5b505050506040513d601f19601f820116820180604052508101906124769190614ff7565b155b15610d38576040517f075fd2b100000000000000000000000000000000000000000000000000000000815260040160405180910390fd5b600a546040517fc44a8e6d00000000000000000000000000000000000000000000000000000000815230600482015260248101849052600060448201819052916001600160a01b0316908290829063c44a8e6d90606401600060405180830381865afa158015612523573d6000803e3d6000fd5b505050506040513d6000823e601f3d908101601f1916820160405261254b9190810190615541565b90506125588686866136f7565b92506001600160a01b03831615612696578061014001511561264557600b546007546040516321d1336160e11b815260048101919091526000916001600160a01b0316906343a266c29060240161012060405180830381865afa1580156125c3573d6000803e3d6000fd5b505050506040513d601f19601f820116820180604052508101906125e79190614eb0565b90506001600160a01b0387161580159061260c575061010081015160ef1c6001908116145b15612643576040517ffa45ac2900000000000000000000000000000000000000000000000000000000815260040160405180910390fd5b505b6000858152600860205260409020546001600160a01b0316612696576000858152600860205260409020805473ffffffffffffffffffffffffffffffffffffffff19166001600160a01b0385161790555b80516040517fc2c55f9400000000000000000000000000000000000000000000000000000000815260048101919091526001600160a01b038481166024830152878116604483015283169063c2c55f9490606401600060405180830381600087803b15801561270457600080fd5b505af1158015612718573d6000803e3d6000fd5b5050505050509392505050565b6001600160a01b03821661274f57604051633250574960e11b815260006004820152602401610d64565b600061275d838360006124af565b90506001600160a01b03811615610dfc576040517f73c6ac6e00000000000000000000000000000000000000000000000000000000815260006004820152602401610d64565b6000606060258351116127c85750506040805160208101909152600080825290612972565b6000836127d760046020615662565b815181106127e7576127e7614e40565b0160209081015160f81c91505b600085612802600484615662565b8151811061281257612812614e40565b01602001517fff000000000000000000000000000000000000000000000000000000000000001614801590612850575061284d602083615675565b81105b1561296f57600085612863600484615662565b8151811061287357612873614e40565b016020908101518784019091015160f89190911c91506001600160e01b0319808916908216036129655760006128aa602086615675565b6128b5600986615662565b1015806129025750876128c9600986615662565b815181106128d9576128d9614e40565b01602001517fff0000000000000000000000000000000000000000000000000000000000000016155b61293b57602088612914600987615662565b8151811061292457612924614e40565b0160200151612936919060f81c615675565b61293e565b87515b9050600161295789612951602087615675565b846137fd565b965096505050505050612972565b50506005016127f4565b50505b9250929050565b600061298860008360006124af565b90506001600160a01b038116610a8b57604051637e27328960e01b815260048101839052602401610d64565b600a546040517f86bc2be30000000000000000000000000000000000000000000000000000000081526001600160a01b03909116906386bc2be3906129fd908490600401614626565b600060405180830381600087803b158015612a1757600080fd5b505af1158015612a2b573d6000803e3d6000fd5b5050505050565b604080516060810182526000546001600160a01b0381168252600160a01b81046affffffffffffffffffffff1660208301819052600160f81b90910460ff1692820192909252906117dc9015612b225760208201516040516331a9108f60e11b81526affffffffffffffffffffff90911660048201527f00000000000000000000000000000000000000000000000000000000000000006001600160a01b031690636352211e90602401602060405180830381865afa158015612af9573d6000803e3d6000fd5b505050506040513d601f19601f82011682018060405250810190612b1d9190614fcf565b612b25565b81515b82602001516affffffffffffffffffffff16836040015160ff16612318565b6affffffffffffffffffffff811615801590612b6857506001600160a01b03821615155b15612b865760405163ecb9b1c760e01b815260040160405180910390fd5b60408051606081018252600080546001600160a01b0381168352600160a01b81046affffffffffffffffffffff1660208401819052600160f81b90910460ff1693830193909352909115612c745760208201516040516331a9108f60e11b81526affffffffffffffffffffff90911660048201527f00000000000000000000000000000000000000000000000000000000000000006001600160a01b031690636352211e90602401602060405180830381865afa158015612c4b573d6000803e3d6000fd5b505050506040513d601f19601f82011682018060405250810190612c6f9190614fcf565b612c77565b81515b604080516060810182526001600160a01b0387168082526affffffffffffffffffffff87166020830181905260009290930182905281547fff000000000000000000000000000000000000000000000000000000000000001617600160a01b8302176001600160f81b03169055909150610d3890829015612d8c576040516331a9108f60e11b81526affffffffffffffffffffff861660048201527f00000000000000000000000000000000000000000000000000000000000000006001600160a01b031690636352211e90602401602060405180830381865afa158015612d63573d6000803e3d6000fd5b505050506040513d601f19601f82011682018060405250810190612d879190614fcf565b613839565b85613839565b6001600160a01b038216612ddd576040517f5b08ba180000000000000000000000000000000000000000000000000000000081526001600160a01b0383166004820152602401610d64565b6001600160a01b03838116600081815260066020908152604080832094871680845294825291829020805460ff191686151590811790915591519182527f17307eab39ab6107e8899845ad3d59bd9653f200f220920489ca2b5937696c31910160405180910390a3505050565b6001600160a01b0383163b15610d3857604051630a85bd0160e11b81526001600160a01b0384169063150b7a0290612e8c90339088908790879060040161568c565b6020604051808303816000875af1925050508015612ec7575060408051601f3d908101601f19168201909252612ec4918101906156c8565b60015b612f30573d808015612ef5576040519150601f19603f3d011682016040523d82523d6000602084013e612efa565b606091505b508051600003612f2857604051633250574960e11b81526001600160a01b0385166004820152602401610d64565b805181602001fd5b6001600160e01b03198116630a85bd0160e11b14612a2b57604051633250574960e11b81526001600160a01b0385166004820152602401610d64565b612f76828261387d565b5050600755565b600080546001600160f81b0316600160f81b60ff8416908102919091179091556040519081527f6f4725627084d54c46c628b050805457a1cd38c5cd20c1f00132960f8b546fed9060200160405180910390a150565b6040517f12200000000000000000000000000000000000000000000000000000000000006020820152602281018290526060906000906042016040516020818303038152906040529050600061302882613896565b9050848160405160200161303d9291906156e5565b6040516020818303038152906040529250505092915050565b60095460009063ffffffff811660c084013581900361307b5760808401359250613155565b602882901c6001600160a01b03811615612a2b5760ff602084901c1661315060808701356130aa83600a6157f8565b6007546040517f3be273fa000000000000000000000000000000000000000000000000000000008152600481019190915260c08a013560248201526044810187905260a08a013560648201526001600160a01b03861690633be273fa90608401602060405180830381865afa158015613127573d6000803e3d6000fd5b505050506040513d601f19601f8201168201806040525081019061314b919061507d565b613a2e565b945050505b5060009050600c8161316f6101c086016101a08701614639565b6001600160a01b031681526020810191909152604001600090812054915082906131a16101c086016101a08701614639565b6001600160a01b03166131b76020870187614639565b6001600160a01b0316036131ce57908201906131d1565b50815b60003060601b81806131eb836112556101e08c018c615014565b9150915081156132bf5760608180602001905181019061320b9190615804565b90955090508480156132895750600a54604051634228826f60e11b81523060048201526001600160a01b039091169063845104de90602401608060405180830381865afa158015613260573d6000803e3d6000fd5b505050506040513d601f19601f8201168201806040525081019061328491906158b5565b606001515b1561329357600094505b8051156132b9576132b687826132b16101c08e016101a08f01614639565b613b1b565b96505b50613338565b600a54604051634228826f60e11b81523060048201526001600160a01b039091169063845104de90602401608060405180830381865afa158015613307573d6000803e3d6000fd5b505050506040513d601f19601f8201168201806040525081019061332b91906158b5565b6060015161333857600193505b85156134755783613375576040517f6d5e09a400000000000000000000000000000000000000000000000000000000815260040160405180910390fd5b858501878111156133dd576133926101c08b016101a08c01614639565b6040513381526001600160a01b03919091169082908a8203907f7e71a5f6c04b0eb16949316623b9dda7bd103692f7d89678e2260afa1378a2d59060200160405180910390a461343e565b8088111561343e576133f76101c08b016101a08c01614639565b6040513381526001600160a01b0391909116908290818b03907f6276f0169fb8de712b2a6c02789f6115136c589ed491ac06f9e20f41877e41fe9060200160405180910390a45b80600c60006134556101c08e016101a08f01614639565b6001600160a01b03168152602081019190915260400160002055506121b9565b8487146121b95761348e6101c08a016101a08b01614639565b6001600160a01b0316856134a2818a61591c565b6040513381527f6276f0169fb8de712b2a6c02789f6115136c589ed491ac06f9e20f41877e41fe9060200160405180910390a484600c60006134ec6101c08d016101a08e01614639565b6001600160a01b03168152602081019190915260400160002055505050505050505050565b60006001600160e01b031982167f80ac58cd00000000000000000000000000000000000000000000000000000000148061357457506001600160e01b031982167f5b5e139f00000000000000000000000000000000000000000000000000000000145b806109bf57507f01ffc9a7000000000000000000000000000000000000000000000000000000006001600160e01b03198316146109bf565b80806135c057506001600160a01b03821615155b156136ba5760006135d0846122d2565b90506001600160a01b038316158015906135fc5750826001600160a01b0316816001600160a01b031614155b801561362e57506001600160a01b0380821660009081526006602090815260408083209387168352929052205460ff16155b15613670576040517fa9fbf51f0000000000000000000000000000000000000000000000000000000081526001600160a01b0384166004820152602401610d64565b81156136b85783856001600160a01b0316826001600160a01b03167f8c5be1e5ebec7d5bd14f71427d1e84f3dd0314c0f7b2291e5b200ac8c7c3b92560405160405180910390a45b505b50506000908152600560205260409020805473ffffffffffffffffffffffffffffffffffffffff19166001600160a01b0392909216919091179055565b6000828152600360205260408120546001600160a01b039081169083161561372457613724818486613c5d565b6001600160a01b03811615613762576137416000856000806135ac565b6001600160a01b038116600090815260046020526040902080546000190190555b6001600160a01b03851615613791576001600160a01b0385166000908152600460205260409020805460010190555b600084815260036020526040808220805473ffffffffffffffffffffffffffffffffffffffff19166001600160a01b0389811691821790925591518793918516917fddf252ad1be2c89b69c2b068fc378daa952ba7f163c4a11628f55a4df523b3ef91a4949350505050565b60608282036040519150602081830101604052808252508260208501016020820160005b84811015611554578281015182820152602001613821565b806001600160a01b0316826001600160a01b03167f8be0079c531659141344cd1fd0a4f28419497f9722a3daafe3b4186f6b6457e060405160405180910390a35050565b60016138898382615159565b506002610dfc8282615159565b606081516000036138b557505060408051600081526020810190915290565b60408051602e8082526105e08201909252600091602082016105c0803683370190505090506000816000815181106138ef576138ef614e40565b60ff90921660209283029190910190910152825160019060005b81811015613a0a57600086828151811061392557613925614e40565b016020015160f81c905060005b8460ff168110156139af57600886828151811061395157613951614e40565b602002602001015160ff16901b826139699190615662565b9150613976603a83615945565b86828151811061398857613988614e40565b60ff909216602092830291909101909101526139a5603a83615959565b9150600101613932565b505b8015613a01576139c2603a82615945565b858560ff16815181106139d7576139d7614e40565b60ff909216602092830291909101909101526001909301926139fa603a82615959565b90506139b1565b50600101613909565b50613a25613a20613a1b8585613cda565b613d82565b613e25565b95945050505050565b6000808060001985870985870292508281108382030391505080600003613a6857838281613a5e57613a5e61592f565b0492505050610ee5565b838110613ab2576040517f63a05778000000000000000000000000000000000000000000000000000000008152600481018790526024810186905260448101859052606401610d64565b60008486880960026001871981018816978890046003810283188082028403028082028403028082028403028082028403028082028403029081029092039091026000889003889004909101858311909403939093029303949094049190911702949350505050565b600a5460405163eaa19ab360e01b81526000916060916001600160a01b039091169063eaa19ab390613b559088908890879060040161596d565b6000604051808303816000875af1158015613b74573d6000803e3d6000fd5b505050506040513d6000823e601f3d908101601f19168201604052613b9c91908101906150f5565b81519093509091506000805b82811015613c5257838181518110613bc257613bc2614e40565b60200260200101519150613bd68683612725565b856001600160a01b0316878281518110613bf257613bf2614e40565b602002602001015161ffff16837f598baf7bf150ca2f42be9e9f8f55e81d45f5715c3ff22bf46d697fabec7f31d68b33604051613c429291909182526001600160a01b0316602082015260400190565b60405180910390a4600101613ba8565b505050509392505050565b613c68838383613eff565b610dfc576001600160a01b038316613c9657604051637e27328960e01b815260048101829052602401610d64565b6040517f177e802f0000000000000000000000000000000000000000000000000000000081526001600160a01b038316600482015260248101829052604401610d64565b606060008260ff1667ffffffffffffffff811115613cfa57613cfa61437d565b604051908082528060200260200182016040528015613d23578160200160208202803683370190505b50905060005b8360ff16811015613d7a57848181518110613d4657613d46614e40565b6020026020010151828281518110613d6057613d60614e40565b60ff90921660209283029190910190910152600101613d29565b509392505050565b805160609060008167ffffffffffffffff811115613da257613da261437d565b604051908082528060200260200182016040528015613dcb578160200160208202803683370190505b50905060005b82811015613d7a57848160018751030381518110613df157613df1614e40565b6020026020010151828281518110613e0b57613e0b614e40565b60ff90921660209283029190910190910152600101613dd1565b805160609060008167ffffffffffffffff811115613e4557613e4561437d565b6040519080825280601f01601f191660200182016040528015613e6f576020820181803683370190505b50905060005b82811015613d7a576040518060600160405280603a81526020016159cd603a9139858281518110613ea857613ea8614e40565b602002602001015160ff1681518110613ec357613ec3614e40565b602001015160f81c60f81b828281518110613ee057613ee0614e40565b60200101906001600160f81b031916908160001a905350600101613e75565b60006001600160a01b03831615801590611d5c5750826001600160a01b0316846001600160a01b03161480613f5957506001600160a01b0380851660009081526006602090815260408083209387168352929052205460ff165b80611d5c5750506000908152600560205260409020546001600160a01b03908116911614919050565b6001600160e01b0319811681146117dc57600080fd5b600060208284031215613faa57600080fd5b8135610ee581613f82565b60005b83811015613fd0578181015183820152602001613fb8565b50506000910152565b60008151808452613ff1816020860160208601613fb5565b601f01601f19169290920160200192915050565b602081526000610ee56020830184613fd9565b60006020828403121561402a57600080fd5b5035919050565b6001600160a01b03811681146117dc57600080fd5b803561405181614031565b919050565b6000806040838503121561406957600080fd5b823561407481614031565b946020939093013593505050565b60008083601f84011261409457600080fd5b50813567ffffffffffffffff8111156140ac57600080fd5b60208301915083602082850101111561297257600080fd5b600080600080600080600060a0888a0312156140df57600080fd5b873567ffffffffffffffff808211156140f757600080fd5b6141038b838c01614082565b909950975060208a013591508082111561411c57600080fd5b506141298a828b01614082565b909650945050604088013561413d81614031565b969995985093969295946060840135945060809093013592915050565b6000806020838503121561416d57600080fd5b823567ffffffffffffffff8082111561418557600080fd5b818501915085601f83011261419957600080fd5b8135818111156141a857600080fd5b8660208260061b85010111156141bd57600080fd5b60209290920196919550909350505050565b6000806000606084860312156141e457600080fd5b83356141ef81614031565b925060208401356141ff81614031565b929592945050506040919091013590565b60006020828403121561422257600080fd5b813567ffffffffffffffff81111561423957600080fd5b82016101808185031215610ee557600080fd5b6000604080830185845260206040818601528186518084526060935060608701915060608160051b88010183890160005b838110156142cd57898303605f19018552815180516001600160a01b0316845286810151878501528801518884018890526142ba88850182613fd9565b958701959350509085019060010161427d565b50909a9950505050505050505050565b600080604083850312156142f057600080fd5b50508035926020909101359150565b6000610200828403121561431257600080fd5b50919050565b60006020828403121561432a57600080fd5b813567ffffffffffffffff81111561434157600080fd5b611d5c848285016142ff565b6000806040838503121561436057600080fd5b82359150602083013561437281614031565b809150509250929050565b634e487b7160e01b600052604160045260246000fd5b6040516080810167ffffffffffffffff811182821017156143b6576143b661437d565b60405290565b604051610180810167ffffffffffffffff811182821017156143b6576143b661437d565b604051610120810167ffffffffffffffff811182821017156143b6576143b661437d565b6040516101a0810167ffffffffffffffff811182821017156143b6576143b661437d565b604051601f8201601f1916810167ffffffffffffffff811182821017156144515761445161437d565b604052919050565b600067ffffffffffffffff8211156144735761447361437d565b5060051b60200190565b60006101a0828403121561431257600080fd5b600080604083850312156144a357600080fd5b823567ffffffffffffffff808211156144bb57600080fd5b818501915085601f8301126144cf57600080fd5b813560206144e46144df83614459565b614428565b82815260059290921b8401810191818101908984111561450357600080fd5b948201945b8386101561452157853582529482019490820190614508565b9650508601359250508082111561453757600080fd5b506145448582860161447d565b9150509250929050565b60008083601f84011261456057600080fd5b50813567ffffffffffffffff81111561457857600080fd5b6020830191508360208260051b850101111561297257600080fd5b6000806000604084860312156145a857600080fd5b833567ffffffffffffffff8111156145bf57600080fd5b6145cb8682870161454e565b90945092505060208401356145df81614031565b809150509250925092565b60008151808452602080850194506020840160005b8381101561461b578151875295820195908201906001016145ff565b509495945050505050565b602081526000610ee560208301846145ea565b60006020828403121561464b57600080fd5b8135610ee581614031565b80151581146117dc57600080fd5b803561405181614656565b6000806040838503121561468257600080fd5b823561468d81614031565b9150602083013561437281614656565b6000602082840312156146af57600080fd5b813567ffffffffffffffff8111156146c657600080fd5b611d5c8482850161447d565b60006080820186835260208681850152604086604086015260606080606087015283875180865260a08801915060a08160051b890101955084890160005b8281101561476057898803609f19018452815180516001600160a01b0316895287810151888a015286015186890186905261474d868a0182613fd9565b9850509286019290860190600101614710565b50959c9b505050505050505050505050565b600067ffffffffffffffff82111561478c5761478c61437d565b50601f01601f191660200190565b60006147a86144df84614772565b90508281528383830111156147bc57600080fd5b828260208301376000602084830101529392505050565b600080600080608085870312156147e957600080fd5b84356147f481614031565b9350602085013561480481614031565b925060408501359150606085013567ffffffffffffffff81111561482757600080fd5b8501601f8101871361483857600080fd5b6148478782356020840161479a565b91505092959194509250565b600082601f83011261486457600080fd5b610ee58383356020850161479a565b80356cffffffffffffffffffffffffff8116811461405157600080fd5b803563ffffffff8116811461405157600080fd5b61ffff811681146117dc57600080fd5b8035614051816148a4565b803562ffffff8116811461405157600080fd5b803560ff8116811461405157600080fd5b600060808083850312156148f657600080fd5b6148fe614393565b9150823567ffffffffffffffff81111561491757600080fd5b8301601f8101851361492857600080fd5b803560206149386144df83614459565b828152610180928302840182019282820191908985111561495857600080fd5b948301945b84861015614a4b5780868b0312156149755760008081fd5b61497d6143bc565b61498687614873565b8152614993858801614890565b8582015260406149a4818901614890565b9082015260606149b58882016148b4565b908201526149c4878901614046565b8189015260a0878101359082015260c06149df8189016148bf565b9082015260e06149f0888201614664565b90820152610100614a02888201614664565b90820152610120614a14888201614664565b90820152610140614a26888201614664565b90820152610160614a38888201614664565b908201528352948501949183019161495d565b50865250614a5a868201614890565b8186015250505050614a6e604083016148d2565b6040820152614a7f60608301614046565b606082015292915050565b600060808284031215614a9c57600080fd5b614aa4614393565b90508135614ab181614656565b81526020820135614ac181614656565b60208201526040820135614ad481614656565b60408201526060820135614a7f81614656565b6000806000806000806000806000806101a08b8d031215614b0757600080fd5b8a35995060208b013567ffffffffffffffff80821115614b2657600080fd5b614b328e838f01614853565b9a5060408d0135915080821115614b4857600080fd5b614b548e838f01614853565b9950614b6260608e01614046565b985060808d0135915080821115614b7857600080fd5b614b848e838f01614853565b9750614b9260a08e01614046565b965060c08d0135915080821115614ba857600080fd5b614bb48e838f01614853565b955060e08d0135915080821115614bca57600080fd5b50614bd78d828e016148e3565b935050614be76101008c01614046565b9150614bf78c6101208d01614a8a565b90509295989b9194979a5092959850565b600060208284031215614c1a57600080fd5b610ee5826148d2565b60008060408385031215614c3657600080fd5b8235614c4181614031565b9150602083013561437281614031565b60008060008060408587031215614c6757600080fd5b843567ffffffffffffffff80821115614c7f57600080fd5b818701915087601f830112614c9357600080fd5b813581811115614ca257600080fd5b88602061018083028501011115614cb857600080fd5b602092830196509450908601359080821115614cd357600080fd5b50614ce08782880161454e565b95989497509550505050565b600181811c90821680614d0057607f821691505b60208210810361431257634e487b7160e01b600052602260045260246000fd5b601f821115610dfc576000816000526020600020601f850160051c81016020861015614d495750805b601f850160051c820191505b81811015614d6857828155600101614d55565b505050505050565b67ffffffffffffffff831115614d8857614d8861437d565b614d9c83614d968354614cec565b83614d20565b6000601f841160018114614dd05760008515614db85750838201355b600019600387901b1c1916600186901b178355612a2b565b600083815260209020601f19861690835b82811015614e015786850135825560209485019460019092019101614de1565b5086821015614e1e5760001960f88860031b161c19848701351681555b505060018560011b0183555050505050565b8183823760009101908152919050565b634e487b7160e01b600052603260045260246000fd5b600060408284031215614e6857600080fd5b6040516040810181811067ffffffffffffffff82111715614e8b57614e8b61437d565b604052823581526020928301359281019290925250919050565b805161405181614031565b60006101208284031215614ec357600080fd5b614ecb6143e0565b825181526020830151602082015260408301516040820152606083015160608201526080830151608082015260a083015160a082015260c083015160c0820152614f1760e08401614ea5565b60e0820152610100928301519281019290925250919050565b600082601f830112614f4157600080fd5b81516020614f516144df83614459565b8083825260208201915060208460051b870101935086841115614f7357600080fd5b602086015b84811015614f8f5780518352918301918301614f78565b509695505050505050565b600060208284031215614fac57600080fd5b815167ffffffffffffffff811115614fc357600080fd5b611d5c84828501614f30565b600060208284031215614fe157600080fd5b8151610ee581614031565b805161405181614656565b60006020828403121561500957600080fd5b8151610ee581614656565b6000808335601e1984360301811261502b57600080fd5b83018035915067ffffffffffffffff82111561504657600080fd5b60200191503681900382131561297257600080fd5b6001600160a01b0383168152604060208201526000611d5c60408301846145ea565b60006020828403121561508f57600080fd5b5051919050565b84815260606020808301829052908201849052600090859060808401835b878110156150dd5783356150c7816148a4565b61ffff16825292820192908201906001016150b4565b50809350505050821515604083015295945050505050565b6000806040838503121561510857600080fd5b825167ffffffffffffffff81111561511f57600080fd5b61512b85828601614f30565b925050602083015190509250929050565b60006020828403121561514e57600080fd5b8135610ee5816148a4565b815167ffffffffffffffff8111156151735761517361437d565b615187816151818454614cec565b84614d20565b602080601f8311600181146151bc57600084156151a45750858301515b600019600386901b1c1916600185901b178555614d68565b600085815260208120601f198616915b828110156151eb578886015182559484019460019091019084016151cc565b50858210156152095787850151600019600388901b60f8161c191681555b5050505050600190811b01905550565b602080825282518282018190526000919060409081850190868401855b828110156152f957815180516cffffffffffffffffffffffffff1685528681015163ffffffff9081168887015286820151168686015260608082015161ffff16908601526080808201516001600160a01b03169086015260a0808201519086015260c08082015162ffffff169086015260e080820151151590860152610100808201511515908601526101208082015115159086015261014080820151151590860152610160908101511515908501526101809093019290850190600101615236565b5091979650505050505050565b600082601f83011261531757600080fd5b81516153256144df82614772565b81815284602083860101111561533a57600080fd5b611d5c826020830160208701613fb5565b60006020828403121561535d57600080fd5b815167ffffffffffffffff81111561537457600080fd5b611d5c84828501615306565b6020815281602082015260007f07ffffffffffffffffffffffffffffffffffffffffffffffffffffffffffffff8311156153b957600080fd5b8260051b80856040850137919091016040019392505050565b6153f2826153df83614873565b6cffffffffffffffffffffffffff169052565b6153fe60208201614890565b63ffffffff16602083015261541560408201614890565b63ffffffff16604083015261542c606082016148b4565b61ffff16606083015261544160808201614046565b6001600160a01b0316608083015260a0818101359083015261546560c082016148bf565b62ffffff1660c083015261547b60e08201614664565b151560e0830152610100615490828201614664565b1515908301526101206154a4828201614664565b1515908301526101406154b8828201614664565b1515908301526101606154cc828201614664565b80151584830152610d38565b6020808252810182905260008360408301825b85811015615511576154fd82846153d2565b6101809283019291909101906001016154eb565b5095945050505050565b6101a0810161552a82856153d2565b6001600160a01b0383166101808301529392505050565b60006020828403121561555357600080fd5b815167ffffffffffffffff8082111561556b57600080fd5b908301906101a0828603121561558057600080fd5b615588614404565b825181526020830151602082015260408301516040820152606083015160608201526080830151608082015260a083015160a08201526155ca60c08401614ea5565b60c082015260e083015160e08201526101008084015181830152506101206155f3818501614fec565b90820152610140615605848201614fec565b90820152610160615617848201614fec565b90820152610180838101518381111561562f57600080fd5b61563b88828701615306565b918301919091525095945050505050565b634e487b7160e01b600052601160045260246000fd5b808201808211156109bf576109bf61564c565b80820281158282048414176109bf576109bf61564c565b60006001600160a01b038087168352808616602084015250836040830152608060608301526156be6080830184613fd9565b9695505050505050565b6000602082840312156156da57600080fd5b8151610ee581613f82565b600083516156f7818460208801613fb5565b83519083019061570b818360208801613fb5565b01949350505050565b600181815b8085111561574f5781600019048211156157355761573561564c565b8085161561574257918102915b93841c9390800290615719565b509250929050565b600082615766575060016109bf565b81615773575060006109bf565b81600181146157895760028114615793576157af565b60019150506109bf565b60ff8411156157a4576157a461564c565b50506001821b6109bf565b5060208310610133831016604e8410600b84101617156157d2575081810a6109bf565b6157dc8383615714565b80600019048211156157f0576157f061564c565b029392505050565b6000610ee58383615757565b6000806040838503121561581757600080fd5b825161582281614656565b8092505060208084015167ffffffffffffffff81111561584157600080fd5b8401601f8101861361585257600080fd5b80516158606144df82614459565b81815260059190911b8201830190838101908883111561587f57600080fd5b928401925b828410156158a6578351615897816148a4565b82529284019290840190615884565b80955050505050509250929050565b6000608082840312156158c757600080fd5b6158cf614393565b82516158da81614656565b815260208301516158ea81614656565b602082015260408301516158fd81614656565b6040820152606083015161591081614656565b60608201529392505050565b818103818111156109bf576109bf61564c565b634e487b7160e01b600052601260045260246000fd5b6000826159545761595461592f565b500690565b6000826159685761596861592f565b500490565b60006060820185835260206060602085015281865180845260808601915060208801935060005b818110156159b457845161ffff1683529383019391830191600101615994565b5050809350505050821515604083015294935050505056fe31323334353637383941424344454647484a4b4c4d4e505152535455565758595a6162636465666768696a6b6d6e6f707172737475767778797aa264697066735822122096bf9f27a7d191f62021e1cc275272e5fdf9a0df1d64cdc7f23cab7988f3a04e64736f6c63430008170033",
	"deployedBytecode": "0x6080604052600436106102e75760003560e01c8063715018a611610184578063c07f2f9b116100d6578063e8a3d4851161008a578063f3c5788111610064578063f3c578811461091a578063f434c9141461092d578063fef508481461096157600080fd5b8063e8a3d4851461089c578063e985e9c5146108b1578063f2fde38b146108fa57600080fd5b8063c87b56dd116100bb578063c87b56dd1461082f578063d4a1b4b11461084f578063d95c9ae21461086f57600080fd5b8063c07f2f9b146107ef578063c0fb5e851461080f57600080fd5b8063a220d69611610138578063ade032ff11610112578063ade032ff1461073a578063b88d4fde1461075a578063ba23c36e1461077a57600080fd5b8063a220d696146106ca578063a22cb465146106ea578063aaf320d71461070a57600080fd5b806388bc2ef31161016957806388bc2ef31461066c5780638da5cb5b146106a057806395d89b41146106b557600080fd5b8063715018a6146106235780637bf94ac51461063857600080fd5b80634c4ffc711161023d57806366ec4cb4116101f15780636ac6d941116101cb5780636ac6d941146105c15780636c0360eb146105ee57806370a082311461060357600080fd5b806366ec4cb41461056b578063677ce0881461057e57806368f9c6bc146105a157600080fd5b806354c6d1f51161022257806354c6d1f51461050b578063613b856d1461052b5780636352211e1461054b57600080fd5b80634c4ffc71146104bd578063507f1465146104eb57600080fd5b80631435aad51161029f578063293c499911610279578063293c4999146104455780633fafa1271461047957806342842e0e1461049d57600080fd5b80631435aad5146103e55780631c52730b1461040557806323b872dd1461042557600080fd5b8063081812fc116102d0578063081812fc1461034357806308786b1a1461037b578063095ea7b3146103c357600080fd5b806301ffc9a7146102ec57806306fdde0314610321575b600080fd5b3480156102f857600080fd5b5061030c610307366004613f98565b610981565b60405190151581526020015b60405180910390f35b34801561032d57600080fd5b506103366109c5565b6040516103189190614005565b34801561034f57600080fd5b5061036361035e366004614018565b610a57565b6040516001600160a01b039091168152602001610318565b34801561038757600080fd5b5060095463ffffffff811690602081901c60ff169060281c6040805193845260208401929092526001600160a01b031690820152606001610318565b3480156103cf57600080fd5b506103e36103de366004614056565b610a80565b005b3480156103f157600080fd5b506103e36104003660046140c4565b610a8f565b34801561041157600080fd5b506103e361042036600461415a565b610ce5565b34801561043157600080fd5b506103e36104403660046141cf565b610d3e565b34801561045157600080fd5b506103637f0000000000000000000000004d9207abeca883161a1eaee9dabedc0001c198d781565b34801561048557600080fd5b5061048f60075481565b604051908152602001610318565b3480156104a957600080fd5b506103e36104b83660046141cf565b610de1565b3480156104c957600080fd5b506104dd6104d8366004614210565b610e01565b60405161031892919061424c565b3480156104f757600080fd5b50600a54610363906001600160a01b031681565b34801561051757600080fd5b50610363610526366004614018565b610ea8565b34801561053757600080fd5b506103e36105463660046142dd565b610eec565b34801561055757600080fd5b50610363610566366004614018565b61114b565b6103e3610579366004614318565b611156565b34801561058a57600080fd5b5061030c61059936600461434d565b600092915050565b3480156105ad57600080fd5b5061048f6105bc366004614490565b61137e565b3480156105cd57600080fd5b506105e16105dc366004614593565b61140b565b6040516103189190614626565b3480156105fa57600080fd5b5061033661155e565b34801561060f57600080fd5b5061048f61061e366004614639565b6115ec565b34801561062f57600080fd5b506103e361167b565b34801561064457600080fd5b506103637f000000000000000000000000323dd5a5ed60468401528f220cb8adbb9f85592081565b34801561067857600080fd5b506103637f00000000000000000000000018017cfed48e1dc0adc445cef8a9e6affcb330da81565b3480156106ac57600080fd5b50610363611690565b3480156106c157600080fd5b50610336611785565b3480156106d657600080fd5b506103e36106e5366004614018565b611794565b3480156106f657600080fd5b506103e361070536600461466f565b6117df565b34801561071657600080fd5b5061072a61072536600461469d565b6117ea565b60405161031894939291906146d2565b34801561074657600080fd5b5061048f61075536600461469d565b61192b565b34801561076657600080fd5b506103e36107753660046147d3565b611975565b34801561078657600080fd5b506000546107bb906001600160a01b03811690600160a01b81046affffffffffffffffffffff1690600160f81b900460ff1683565b604080516001600160a01b0390941684526affffffffffffffffffffff909216602084015260ff1690820152606001610318565b3480156107fb57600080fd5b506103e361080a366004614ae7565b61198c565b34801561081b57600080fd5b506103e361082a366004614c08565b611c23565b34801561083b57600080fd5b5061033661084a366004614018565b611c34565b34801561085b57600080fd5b50600b54610363906001600160a01b031681565b34801561087b57600080fd5b5061048f61088a366004614639565b600c6020526000908152604090205481565b3480156108a857600080fd5b50610336611e80565b3480156108bd57600080fd5b5061030c6108cc366004614c23565b6001600160a01b03918216600090815260066020908152604080832093909416825291909152205460ff1690565b34801561090657600080fd5b506103e3610915366004614639565b611e8d565b6103e3610928366004614318565b611ec7565b34801561093957600080fd5b506103637f000000000000000000000000ba24624ae5dc821866e9e71ed050412ef01e2fe681565b34801561096d57600080fd5b506103e361097c366004614c51565b611fb3565b60006001600160e01b031982167fc375dc530000000000000000000000000000000000000000000000000000000014806109bf57506109bf826121c4565b92915050565b6060600180546109d490614cec565b80601f0160208091040260200160405190810160405280929190818152602001828054610a0090614cec565b8015610a4d5780601f10610a2257610100808354040283529160200191610a4d565b820191906000526020600020905b815481529060010190602001808311610a3057829003601f168201915b5050505050905090565b6000610a62826122d2565b506000828152600560205260409020546001600160a01b03166109bf565b610a8b82823361230b565b5050565b610aa4610a9a611690565b6007546017612318565b8515610b0357600d610ab7878983614d70565b508686604051610ac8929190614e30565b604051908190038120338252907f7bc9110d5de090dd59e07912d2b93a5a27ac70a60c8d8e324db4f9ee8b8b5c139060200160405180910390a25b8315610b6257600e610b16858783614d70565b508484604051610b27929190614e30565b604051908190038120338252907fd36dc0c1a06103fdcaf15f3f6fb797d1a97997514c78de073640c8b5005454b89060200160405180910390a25b600a546001600160a01b039081169084163014610c135760405163036129cb60e61b81526001600160a01b03858116600483015282169063d84a72c090602401600060405180830381600087803b158015610bbc57600080fd5b505af1158015610bd0573d6000803e3d6000fd5b50506040513381526001600160a01b03871692507fe7784d93cfbfa4408e19577e6cc0436f4dbb51214b70e100905dfce9def88c16915060200160405180910390a25b8215801590610c2157508115155b15610cdb576040517f49bd1ac600000000000000000000000000000000000000000000000000000000815260048101849052602481018390526001600160a01b038216906349bd1ac690604401600060405180830381600087803b158015610c8857600080fd5b505af1158015610c9c573d6000803e3d6000fd5b5050604080518581523360208201528693507f677da4fed654db8e604791fa2582f342e2001aa217e27f6985eb3e0f67e5a7fc92500160405180910390a25b5050505050505050565b8060005b81811015610d38576000848483818110610d0557610d05614e40565b905060400201803603810190610d1b9190614e56565b9050610d2f81600001518260200151610eec565b50600101610ce9565b50505050565b6001600160a01b038216610d6d57604051633250574960e11b8152600060048201526024015b60405180910390fd5b6000610d7a8383336124af565b9050836001600160a01b0316816001600160a01b031614610d38576040517f64283d7b0000000000000000000000000000000000000000000000000000000081526001600160a01b0380861660048301526024820184905282166044820152606401610d64565b610dfc83838360405180602001604052806000815250611975565b505050565b6040805160018082528183019092526101208301359160609190816020015b60408051606080820183526000808352602083015291810191909152815260200190600190039081610e205790505090506040518060600160405280306001600160a01b03168152602001600081526020016040518060200160405280600081525081525081600081518110610e9857610e98614e40565b6020026020010181905250915091565b6000818152600860205260408120546001600160a01b03168015610ecc5792915050565b6000838152600360205260409020546001600160a01b03165b9392505050565b600b546007546040516321d1336160e11b815260048101919091526000916001600160a01b0316906343a266c29060240161012060405180830381865afa158015610f3b573d6000803e3d6000fd5b505050506040513d601f19601f82011682018060405250810190610f5f9190614eb0565b61010081015190915060f01c600190811603610fa7576040517f63a0ba3900000000000000000000000000000000000000000000000000000000815260040160405180910390fd5b600a546040517fbaa7e80e00000000000000000000000000000000000000000000000000000000815260048101859052602481018490526001600160a01b0390911690600090829063baa7e80e906044016000604051808303816000875af1158015611017573d6000803e3d6000fd5b505050506040513d6000823e601f3d908101601f1916820160405261103f9190810190614f9a565b6040517f03573004000000000000000000000000000000000000000000000000000000008152306004820152602481018790529091506000906001600160a01b03841690630357300490604401602060405180830381865afa1580156110a9573d6000803e3d6000fd5b505050506040513d601f19601f820116820180604052508101906110cd9190614fcf565b90506000805b86811015610cdb578381815181106110ed576110ed614e40565b602002602001015191506111018383612725565b6040513381526001600160a01b03841690899084907f80dd2efbbc431cde0164d84d638e44ba6e7a3ca5d532ceef1bb4efcc0948325d9060200160405180910390a46001016110d3565b60006109bf826122d2565b341515806111f45750600754604051636e49181f60e01b815260048101919091523360248201527f00000000000000000000000018017cfed48e1dc0adc445cef8a9e6affcb330da6001600160a01b031690636e49181f90604401602060405180830381865afa1580156111ce573d6000803e3d6000fd5b505050506040513d601f19601f820116820180604052508101906111f29190614ff7565b155b806112055750600754816020013514155b1561123c576040517f835e522b00000000000000000000000000000000000000000000000000000000815260040160405180910390fd5b3060601b60008061128f836112556101e0870187615014565b8080601f0160208091040260200160405190810160405280939291908181526020018383808284376000920191909152506127a392505050565b91509150606082156112b257818060200190518101906112af9190614f9a565b90505b80516000805b8281101561136b578381815181106112d2576112d2614e40565b602002602001015191508760000160208101906112ef9190614639565b6001600160a01b0316611317836000908152600360205260409020546001600160a01b031690565b6001600160a01b03161461135a576040517f5caf197500000000000000000000000000000000000000000000000000000000815260048101839052602401610d64565b61136382612979565b6001016112b8565b50611375836129b4565b50505050505050565b600a546040517f144cc2d40000000000000000000000000000000000000000000000000000000081526000916001600160a01b03169063144cc2d4906113ca903090879060040161505b565b602060405180830381865afa1580156113e7573d6000803e3d6000fd5b505050506040513d601f19601f82011682018060405250810190610ee5919061507d565b6060611422611418611690565b6007546018612318565b600a5460405163eaa19ab360e01b81526001600160a01b039091169063eaa19ab39061145b906000199088908890600190600401615096565b6000604051808303816000875af115801561147a573d6000803e3d6000fd5b505050506040513d6000823e601f3d908101601f191682016040526114a291908101906150f5565b509050826000805b82811015611554578381815181106114c4576114c4614e40565b602002602001015191506114d88583612725565b846001600160a01b03168787838181106114f4576114f4614e40565b9050602002016020810190611509919061513c565b604080516000815233602082015261ffff929092169185917f598baf7bf150ca2f42be9e9f8f55e81d45f5715c3ff22bf46d697fabec7f31d6910160405180910390a46001016114aa565b5050509392505050565b600d805461156b90614cec565b80601f016020809104026020016040519081016040528092919081815260200182805461159790614cec565b80156115e45780601f106115b9576101008083540402835291602001916115e4565b820191906000526020600020905b8154815290600101906020018083116115c757829003601f168201915b505050505081565b600a546040517ff7888aec0000000000000000000000000000000000000000000000000000000081523060048201526001600160a01b038381166024830152600092169063f7888aec906044015b602060405180830381865afa158015611657573d6000803e3d6000fd5b505050506040513d601f19601f820116820180604052508101906109bf919061507d565b611683612a32565b61168e600080612b44565b565b60408051606081018252600080546001600160a01b0381168352600160a01b81046affffffffffffffffffffff1660208401819052600160f81b90910460ff16938301939093529182036116e45751919050565b60208101516040516331a9108f60e11b81526affffffffffffffffffffff90911660048201527f0000000000000000000000004d9207abeca883161a1eaee9dabedc0001c198d76001600160a01b031690636352211e90602401602060405180830381865afa15801561175b573d6000803e3d6000fd5b505050506040513d601f19601f8201168201806040525081019061177f9190614fcf565b91505090565b6060600280546109d490614cec565b61179c612a32565b8015806117b357506affffffffffffffffffffff81115b156117d15760405163ecb9b1c760e01b815260040160405180910390fd5b6117dc600082612b44565b50565b610a8b338383612d92565b60008080606060808501351561182c576040517f4fc178d800000000000000000000000000000000000000000000000000000000815260040160405180910390fd5b3060601b600080611845836112556101808b018b615014565b604080516001808252818301909252929450909250816020015b6040805160608082018352600080835260208301529181019190915281526020019060019003908161185f5790505093506040518060600160405280306001600160a01b031681526020016000815260200160405180602001604052806000815250815250846000815181106118d7576118d7614e40565b60200260200101819052506060821561190157818060200190518101906118fe9190614f9a565b90505b61190b818a61137e565b96506119168961192b565b95508861016001359750505050509193509193565b600a546040517f2ae5e4920000000000000000000000000000000000000000000000000000000081523060048201526000916001600160a01b031690632ae5e4929060240161163a565b611980848484610d3e565b610d3884848484612e4a565b600a546001600160a01b0316156119a257600080fd5b6119ad8a8a8a612f6c565b600b80546001600160a01b03808a1673ffffffffffffffffffffffffffffffffffffffff1992831617909255600a8054928516929091169190911790556020808401516040850151606086015178ffffffffffffffffffffffffffffffffffffffff000000000060289190911b1664ff000000009190931b1663ffffffff90911617176009819055865115611a4a57600d611a488882615159565b505b845115611a5f57600e611a5d8682615159565b505b6001600160a01b03861615611aca5760405163036129cb60e61b81526001600160a01b03878116600483015284169063d84a72c090602401600060405180830381600087803b158015611ab157600080fd5b505af1158015611ac5573d6000803e3d6000fd5b505050505b83515115611b485783516040516349249dc160e01b81526001600160a01b038516916349249dc191611aff9190600401615219565b6000604051808303816000875af1158015611b1e573d6000803e3d6000fd5b505050506040513d6000823e601f3d908101601f19168201604052611b469190810190614f9a565b505b815180611b56575081602001515b80611b62575081604001515b80611b6e575081606001515b15611c0d57604080517fcb827e3200000000000000000000000000000000000000000000000000000000815283511515600482015260208401511515602482015290830151151560448201526060830151151560648201526001600160a01b0384169063cb827e3290608401600060405180830381600087803b158015611bf457600080fd5b505af1158015611c08573d6000803e3d6000fd5b505050505b611c1633611ebc565b5050505050505050505050565b611c2b612a32565b6117dc81612f7d565b600a546040517f0fab09470000000000000000000000000000000000000000000000000000000081523060048201526060916001600160a01b0316906000908290630fab094790602401602060405180830381865afa158015611c9b573d6000803e3d6000fd5b505050506040513d601f19601f82011682018060405250810190611cbf9190614fcf565b90506001600160a01b03811615611d64576040517f5e703e71000000000000000000000000000000000000000000000000000000008152306004820152602481018590526001600160a01b03821690635e703e7190604401600060405180830381865afa158015611d34573d6000803e3d6000fd5b505050506040513d6000823e601f3d908101601f19168201604052611d5c919081019061534b565b949350505050565b611d5c600d8054611d7490614cec565b80601f0160208091040260200160405190810160405280929190818152602001828054611da090614cec565b8015611ded5780601f10611dc257610100808354040283529160200191611ded565b820191906000526020600020905b815481529060010190602001808311611dd057829003601f168201915b50506040517fc8df1710000000000000000000000000000000000000000000000000000000008152306004820152602481018a90526001600160a01b038816935063c8df171092506044019050602060405180830381865afa158015611e57573d6000803e3d6000fd5b505050506040513d601f19601f82011682018060405250810190611e7b919061507d565b612fd3565b600e805461156b90614cec565b611e95612a32565b6001600160a01b038116611ebc5760405163ecb9b1c760e01b815260040160405180910390fd5b6117dc816000612b44565b60075434151580611f645750604051636e49181f60e01b8152600481018290523360248201527f00000000000000000000000018017cfed48e1dc0adc445cef8a9e6affcb330da6001600160a01b031690636e49181f90604401602060405180830381865afa158015611f3e573d6000803e3d6000fd5b505050506040513d601f19601f82011682018060405250810190611f629190614ff7565b155b80611f73575080826020013514155b15611faa576040517f8a3ea1c800000000000000000000000000000000000000000000000000000000815260040160405180910390fd5b610a8b82613056565b611fc8611fbe611690565b6007546016612318565b600a54839082906001600160a01b031681156120bb576040517f20512ba10000000000000000000000000000000000000000000000000000000081526001600160a01b038216906320512ba1906120259088908890600401615380565b600060405180830381600087803b15801561203f57600080fd5b505af1158015612053573d6000803e3d6000fd5b5050505060005b828110156120b95785858281811061207457612074614e40565b60405133815260209182029390930135927f832d89d991be5351d793c20faf4b7dd44f8aa9ce39e3cb160c6317de6fbba72992500160405180910390a260010161205a565b505b8215611375576040516349249dc160e01b81526000906001600160a01b038316906349249dc1906120f2908b908b906004016154d8565b6000604051808303816000875af1158015612111573d6000803e3d6000fd5b505050506040513d6000823e601f3d908101601f191682016040526121399190810190614f9a565b905060005b848110156121b95781818151811061215857612158614e40565b60200260200101517f6c05e4bd067859371de8c0a303cf84af0ba782c3809f8fba14e6af4388894cf08a8a8481811061219357612193614e40565b90506101800201336040516121a992919061551b565b60405180910390a260010161213e565b505050505050505050565b60006001600160e01b031982167fb7138fd400000000000000000000000000000000000000000000000000000000148061222757506001600160e01b031982167f81c03c2e00000000000000000000000000000000000000000000000000000000145b8061225b57506001600160e01b031982167ff3c5788100000000000000000000000000000000000000000000000000000000145b8061228f57506001600160e01b031982167f66ec4cb400000000000000000000000000000000000000000000000000000000145b806122c357506001600160e01b031982167f2a55205a00000000000000000000000000000000000000000000000000000000145b806109bf57506109bf82613511565b6000818152600360205260408120546001600160a01b0316806109bf57604051637e27328960e01b815260048101849052602401610d64565b610dfc83838360016135ac565b336001600160a01b03841681148015906123cf575060405163c161c93f60e01b81526001600160a01b038281166004830152858116602483015260448201859052606482018490527f000000000000000000000000ba24624ae5dc821866e9e71ed050412ef01e2fe6169063c161c93f90608401602060405180830381865afa1580156123a9573d6000803e3d6000fd5b505050506040513d601f19601f820116820180604052508101906123cd9190614ff7565b155b8015612478575060405163c161c93f60e01b81526001600160a01b038281166004830152858116602483015260006044830152606482018490527f000000000000000000000000ba24624ae5dc821866e9e71ed050412ef01e2fe6169063c161c93f90608401602060405180830381865afa158015612452573d6000803e3d6000fd5b505050506040513d601f19601f820116820180604052508101906124769190614ff7565b155b15610d38576040517f075fd2b100000000000000000000000000000000000000000000000000000000815260040160405180910390fd5b600a546040517fc44a8e6d00000000000000000000000000000000000000000000000000000000815230600482015260248101849052600060448201819052916001600160a01b0316908290829063c44a8e6d90606401600060405180830381865afa158015612523573d6000803e3d6000fd5b505050506040513d6000823e601f3d908101601f1916820160405261254b9190810190615541565b90506125588686866136f7565b92506001600160a01b03831615612696578061014001511561264557600b546007546040516321d1336160e11b815260048101919091526000916001600160a01b0316906343a266c29060240161012060405180830381865afa1580156125c3573d6000803e3d6000fd5b505050506040513d601f19601f820116820180604052508101906125e79190614eb0565b90506001600160a01b0387161580159061260c575061010081015160ef1c6001908116145b15612643576040517ffa45ac2900000000000000000000000000000000000000000000000000000000815260040160405180910390fd5b505b6000858152600860205260409020546001600160a01b0316612696576000858152600860205260409020805473ffffffffffffffffffffffffffffffffffffffff19166001600160a01b0385161790555b80516040517fc2c55f9400000000000000000000000000000000000000000000000000000000815260048101919091526001600160a01b038481166024830152878116604483015283169063c2c55f9490606401600060405180830381600087803b15801561270457600080fd5b505af1158015612718573d6000803e3d6000fd5b5050505050509392505050565b6001600160a01b03821661274f57604051633250574960e11b815260006004820152602401610d64565b600061275d838360006124af565b90506001600160a01b03811615610dfc576040517f73c6ac6e00000000000000000000000000000000000000000000000000000000815260006004820152602401610d64565b6000606060258351116127c85750506040805160208101909152600080825290612972565b6000836127d760046020615662565b815181106127e7576127e7614e40565b0160209081015160f81c91505b600085612802600484615662565b8151811061281257612812614e40565b01602001517fff000000000000000000000000000000000000000000000000000000000000001614801590612850575061284d602083615675565b81105b1561296f57600085612863600484615662565b8151811061287357612873614e40565b016020908101518784019091015160f89190911c91506001600160e01b0319808916908216036129655760006128aa602086615675565b6128b5600986615662565b1015806129025750876128c9600986615662565b815181106128d9576128d9614e40565b01602001517fff0000000000000000000000000000000000000000000000000000000000000016155b61293b57602088612914600987615662565b8151811061292457612924614e40565b0160200151612936919060f81c615675565b61293e565b87515b9050600161295789612951602087615675565b846137fd565b965096505050505050612972565b50506005016127f4565b50505b9250929050565b600061298860008360006124af565b90506001600160a01b038116610a8b57604051637e27328960e01b815260048101839052602401610d64565b600a546040517f86bc2be30000000000000000000000000000000000000000000000000000000081526001600160a01b03909116906386bc2be3906129fd908490600401614626565b600060405180830381600087803b158015612a1757600080fd5b505af1158015612a2b573d6000803e3d6000fd5b5050505050565b604080516060810182526000546001600160a01b0381168252600160a01b81046affffffffffffffffffffff1660208301819052600160f81b90910460ff1692820192909252906117dc9015612b225760208201516040516331a9108f60e11b81526affffffffffffffffffffff90911660048201527f0000000000000000000000004d9207abeca883161a1eaee9dabedc0001c198d76001600160a01b031690636352211e90602401602060405180830381865afa158015612af9573d6000803e3d6000fd5b505050506040513d601f19601f82011682018060405250810190612b1d9190614fcf565b612b25565b81515b82602001516affffffffffffffffffffff16836040015160ff16612318565b6affffffffffffffffffffff811615801590612b6857506001600160a01b03821615155b15612b865760405163ecb9b1c760e01b815260040160405180910390fd5b60408051606081018252600080546001600160a01b0381168352600160a01b81046affffffffffffffffffffff1660208401819052600160f81b90910460ff1693830193909352909115612c745760208201516040516331a9108f60e11b81526affffffffffffffffffffff90911660048201527f0000000000000000000000004d9207abeca883161a1eaee9dabedc0001c198d76001600160a01b031690636352211e90602401602060405180830381865afa158015612c4b573d6000803e3d6000fd5b505050506040513d601f19601f82011682018060405250810190612c6f9190614fcf565b612c77565b81515b604080516060810182526001600160a01b0387168082526affffffffffffffffffffff87166020830181905260009290930182905281547fff000000000000000000000000000000000000000000000000000000000000001617600160a01b8302176001600160f81b03169055909150610d3890829015612d8c576040516331a9108f60e11b81526affffffffffffffffffffff861660048201527f0000000000000000000000004d9207abeca883161a1eaee9dabedc0001c198d76001600160a01b031690636352211e90602401602060405180830381865afa158015612d63573d6000803e3d6000fd5b505050506040513d601f19601f82011682018060405250810190612d879190614fcf565b613839565b85613839565b6001600160a01b038216612ddd576040517f5b08ba180000000000000000000000000000000000000000000000000000000081526001600160a01b0383166004820152602401610d64565b6001600160a01b03838116600081815260066020908152604080832094871680845294825291829020805460ff191686151590811790915591519182527f17307eab39ab6107e8899845ad3d59bd9653f200f220920489ca2b5937696c31910160405180910390a3505050565b6001600160a01b0383163b15610d3857604051630a85bd0160e11b81526001600160a01b0384169063150b7a0290612e8c90339088908790879060040161568c565b6020604051808303816000875af1925050508015612ec7575060408051601f3d908101601f19168201909252612ec4918101906156c8565b60015b612f30573d808015612ef5576040519150601f19603f3d011682016040523d82523d6000602084013e612efa565b606091505b508051600003612f2857604051633250574960e11b81526001600160a01b0385166004820152602401610d64565b805181602001fd5b6001600160e01b03198116630a85bd0160e11b14612a2b57604051633250574960e11b81526001600160a01b0385166004820152602401610d64565b612f76828261387d565b5050600755565b600080546001600160f81b0316600160f81b60ff8416908102919091179091556040519081527f6f4725627084d54c46c628b050805457a1cd38c5cd20c1f00132960f8b546fed9060200160405180910390a150565b6040517f12200000000000000000000000000000000000000000000000000000000000006020820152602281018290526060906000906042016040516020818303038152906040529050600061302882613896565b9050848160405160200161303d9291906156e5565b6040516020818303038152906040529250505092915050565b60095460009063ffffffff811660c084013581900361307b5760808401359250613155565b602882901c6001600160a01b03811615612a2b5760ff602084901c1661315060808701356130aa83600a6157f8565b6007546040517f3be273fa000000000000000000000000000000000000000000000000000000008152600481019190915260c08a013560248201526044810187905260a08a013560648201526001600160a01b03861690633be273fa90608401602060405180830381865afa158015613127573d6000803e3d6000fd5b505050506040513d601f19601f8201168201806040525081019061314b919061507d565b613a2e565b945050505b5060009050600c8161316f6101c086016101a08701614639565b6001600160a01b031681526020810191909152604001600090812054915082906131a16101c086016101a08701614639565b6001600160a01b03166131b76020870187614639565b6001600160a01b0316036131ce57908201906131d1565b50815b60003060601b81806131eb836112556101e08c018c615014565b9150915081156132bf5760608180602001905181019061320b9190615804565b90955090508480156132895750600a54604051634228826f60e11b81523060048201526001600160a01b039091169063845104de90602401608060405180830381865afa158015613260573d6000803e3d6000fd5b505050506040513d601f19601f8201168201806040525081019061328491906158b5565b606001515b1561329357600094505b8051156132b9576132b687826132b16101c08e016101a08f01614639565b613b1b565b96505b50613338565b600a54604051634228826f60e11b81523060048201526001600160a01b039091169063845104de90602401608060405180830381865afa158015613307573d6000803e3d6000fd5b505050506040513d601f19601f8201168201806040525081019061332b91906158b5565b6060015161333857600193505b85156134755783613375576040517f6d5e09a400000000000000000000000000000000000000000000000000000000815260040160405180910390fd5b858501878111156133dd576133926101c08b016101a08c01614639565b6040513381526001600160a01b03919091169082908a8203907f7e71a5f6c04b0eb16949316623b9dda7bd103692f7d89678e2260afa1378a2d59060200160405180910390a461343e565b8088111561343e576133f76101c08b016101a08c01614639565b6040513381526001600160a01b0391909116908290818b03907f6276f0169fb8de712b2a6c02789f6115136c589ed491ac06f9e20f41877e41fe9060200160405180910390a45b80600c60006134556101c08e016101a08f01614639565b6001600160a01b03168152602081019190915260400160002055506121b9565b8487146121b95761348e6101c08a016101a08b01614639565b6001600160a01b0316856134a2818a61591c565b6040513381527f6276f0169fb8de712b2a6c02789f6115136c589ed491ac06f9e20f41877e41fe9060200160405180910390a484600c60006134ec6101c08d016101a08e01614639565b6001600160a01b03168152602081019190915260400160002055505050505050505050565b60006001600160e01b031982167f80ac58cd00000000000000000000000000000000000000000000000000000000148061357457506001600160e01b031982167f5b5e139f00000000000000000000000000000000000000000000000000000000145b806109bf57507f01ffc9a7000000000000000000000000000000000000000000000000000000006001600160e01b03198316146109bf565b80806135c057506001600160a01b03821615155b156136ba5760006135d0846122d2565b90506001600160a01b038316158015906135fc5750826001600160a01b0316816001600160a01b031614155b801561362e57506001600160a01b0380821660009081526006602090815260408083209387168352929052205460ff16155b15613670576040517fa9fbf51f0000000000000000000000000000000000000000000000000000000081526001600160a01b0384166004820152602401610d64565b81156136b85783856001600160a01b0316826001600160a01b03167f8c5be1e5ebec7d5bd14f71427d1e84f3dd0314c0f7b2291e5b200ac8c7c3b92560405160405180910390a45b505b50506000908152600560205260409020805473ffffffffffffffffffffffffffffffffffffffff19166001600160a01b0392909216919091179055565b6000828152600360205260408120546001600160a01b039081169083161561372457613724818486613c5d565b6001600160a01b03811615613762576137416000856000806135ac565b6001600160a01b038116600090815260046020526040902080546000190190555b6001600160a01b03851615613791576001600160a01b0385166000908152600460205260409020805460010190555b600084815260036020526040808220805473ffffffffffffffffffffffffffffffffffffffff19166001600160a01b0389811691821790925591518793918516917fddf252ad1be2c89b69c2b068fc378daa952ba7f163c4a11628f55a4df523b3ef91a4949350505050565b60608282036040519150602081830101604052808252508260208501016020820160005b84811015611554578281015182820152602001613821565b806001600160a01b0316826001600160a01b03167f8be0079c531659141344cd1fd0a4f28419497f9722a3daafe3b4186f6b6457e060405160405180910390a35050565b60016138898382615159565b506002610dfc8282615159565b606081516000036138b557505060408051600081526020810190915290565b60408051602e8082526105e08201909252600091602082016105c0803683370190505090506000816000815181106138ef576138ef614e40565b60ff90921660209283029190910190910152825160019060005b81811015613a0a57600086828151811061392557613925614e40565b016020015160f81c905060005b8460ff168110156139af57600886828151811061395157613951614e40565b602002602001015160ff16901b826139699190615662565b9150613976603a83615945565b86828151811061398857613988614e40565b60ff909216602092830291909101909101526139a5603a83615959565b9150600101613932565b505b8015613a01576139c2603a82615945565b858560ff16815181106139d7576139d7614e40565b60ff909216602092830291909101909101526001909301926139fa603a82615959565b90506139b1565b50600101613909565b50613a25613a20613a1b8585613cda565b613d82565b613e25565b95945050505050565b6000808060001985870985870292508281108382030391505080600003613a6857838281613a5e57613a5e61592f565b0492505050610ee5565b838110613ab2576040517f63a05778000000000000000000000000000000000000000000000000000000008152600481018790526024810186905260448101859052606401610d64565b60008486880960026001871981018816978890046003810283188082028403028082028403028082028403028082028403028082028403029081029092039091026000889003889004909101858311909403939093029303949094049190911702949350505050565b600a5460405163eaa19ab360e01b81526000916060916001600160a01b039091169063eaa19ab390613b559088908890879060040161596d565b6000604051808303816000875af1158015613b74573d6000803e3d6000fd5b505050506040513d6000823e601f3d908101601f19168201604052613b9c91908101906150f5565b81519093509091506000805b82811015613c5257838181518110613bc257613bc2614e40565b60200260200101519150613bd68683612725565b856001600160a01b0316878281518110613bf257613bf2614e40565b602002602001015161ffff16837f598baf7bf150ca2f42be9e9f8f55e81d45f5715c3ff22bf46d697fabec7f31d68b33604051613c429291909182526001600160a01b0316602082015260400190565b60405180910390a4600101613ba8565b505050509392505050565b613c68838383613eff565b610dfc576001600160a01b038316613c9657604051637e27328960e01b815260048101829052602401610d64565b6040517f177e802f0000000000000000000000000000000000000000000000000000000081526001600160a01b038316600482015260248101829052604401610d64565b606060008260ff1667ffffffffffffffff811115613cfa57613cfa61437d565b604051908082528060200260200182016040528015613d23578160200160208202803683370190505b50905060005b8360ff16811015613d7a57848181518110613d4657613d46614e40565b6020026020010151828281518110613d6057613d60614e40565b60ff90921660209283029190910190910152600101613d29565b509392505050565b805160609060008167ffffffffffffffff811115613da257613da261437d565b604051908082528060200260200182016040528015613dcb578160200160208202803683370190505b50905060005b82811015613d7a57848160018751030381518110613df157613df1614e40565b6020026020010151828281518110613e0b57613e0b614e40565b60ff90921660209283029190910190910152600101613dd1565b805160609060008167ffffffffffffffff811115613e4557613e4561437d565b6040519080825280601f01601f191660200182016040528015613e6f576020820181803683370190505b50905060005b82811015613d7a576040518060600160405280603a81526020016159cd603a9139858281518110613ea857613ea8614e40565b602002602001015160ff1681518110613ec357613ec3614e40565b602001015160f81c60f81b828281518110613ee057613ee0614e40565b60200101906001600160f81b031916908160001a905350600101613e75565b60006001600160a01b03831615801590611d5c5750826001600160a01b0316846001600160a01b03161480613f5957506001600160a01b0380851660009081526006602090815260408083209387168352929052205460ff165b80611d5c5750506000908152600560205260409020546001600160a01b03908116911614919050565b6001600160e01b0319811681146117dc57600080fd5b600060208284031215613faa57600080fd5b8135610ee581613f82565b60005b83811015613fd0578181015183820152602001613fb8565b50506000910152565b60008151808452613ff1816020860160208601613fb5565b601f01601f19169290920160200192915050565b602081526000610ee56020830184613fd9565b60006020828403121561402a57600080fd5b5035919050565b6001600160a01b03811681146117dc57600080fd5b803561405181614031565b919050565b6000806040838503121561406957600080fd5b823561407481614031565b946020939093013593505050565b60008083601f84011261409457600080fd5b50813567ffffffffffffffff8111156140ac57600080fd5b60208301915083602082850101111561297257600080fd5b600080600080600080600060a0888a0312156140df57600080fd5b873567ffffffffffffffff808211156140f757600080fd5b6141038b838c01614082565b909950975060208a013591508082111561411c57600080fd5b506141298a828b01614082565b909650945050604088013561413d81614031565b969995985093969295946060840135945060809093013592915050565b6000806020838503121561416d57600080fd5b823567ffffffffffffffff8082111561418557600080fd5b818501915085601f83011261419957600080fd5b8135818111156141a857600080fd5b8660208260061b85010111156141bd57600080fd5b60209290920196919550909350505050565b6000806000606084860312156141e457600080fd5b83356141ef81614031565b925060208401356141ff81614031565b929592945050506040919091013590565b60006020828403121561422257600080fd5b813567ffffffffffffffff81111561423957600080fd5b82016101808185031215610ee557600080fd5b6000604080830185845260206040818601528186518084526060935060608701915060608160051b88010183890160005b838110156142cd57898303605f19018552815180516001600160a01b0316845286810151878501528801518884018890526142ba88850182613fd9565b958701959350509085019060010161427d565b50909a9950505050505050505050565b600080604083850312156142f057600080fd5b50508035926020909101359150565b6000610200828403121561431257600080fd5b50919050565b60006020828403121561432a57600080fd5b813567ffffffffffffffff81111561434157600080fd5b611d5c848285016142ff565b6000806040838503121561436057600080fd5b82359150602083013561437281614031565b809150509250929050565b634e487b7160e01b600052604160045260246000fd5b6040516080810167ffffffffffffffff811182821017156143b6576143b661437d565b60405290565b604051610180810167ffffffffffffffff811182821017156143b6576143b661437d565b604051610120810167ffffffffffffffff811182821017156143b6576143b661437d565b6040516101a0810167ffffffffffffffff811182821017156143b6576143b661437d565b604051601f8201601f1916810167ffffffffffffffff811182821017156144515761445161437d565b604052919050565b600067ffffffffffffffff8211156144735761447361437d565b5060051b60200190565b60006101a0828403121561431257600080fd5b600080604083850312156144a357600080fd5b823567ffffffffffffffff808211156144bb57600080fd5b818501915085601f8301126144cf57600080fd5b813560206144e46144df83614459565b614428565b82815260059290921b8401810191818101908984111561450357600080fd5b948201945b8386101561452157853582529482019490820190614508565b9650508601359250508082111561453757600080fd5b506145448582860161447d565b9150509250929050565b60008083601f84011261456057600080fd5b50813567ffffffffffffffff81111561457857600080fd5b6020830191508360208260051b850101111561297257600080fd5b6000806000604084860312156145a857600080fd5b833567ffffffffffffffff8111156145bf57600080fd5b6145cb8682870161454e565b90945092505060208401356145df81614031565b809150509250925092565b60008151808452602080850194506020840160005b8381101561461b578151875295820195908201906001016145ff565b509495945050505050565b602081526000610ee560208301846145ea565b60006020828403121561464b57600080fd5b8135610ee581614031565b80151581146117dc57600080fd5b803561405181614656565b6000806040838503121561468257600080fd5b823561468d81614031565b9150602083013561437281614656565b6000602082840312156146af57600080fd5b813567ffffffffffffffff8111156146c657600080fd5b611d5c8482850161447d565b60006080820186835260208681850152604086604086015260606080606087015283875180865260a08801915060a08160051b890101955084890160005b8281101561476057898803609f19018452815180516001600160a01b0316895287810151888a015286015186890186905261474d868a0182613fd9565b9850509286019290860190600101614710565b50959c9b505050505050505050505050565b600067ffffffffffffffff82111561478c5761478c61437d565b50601f01601f191660200190565b60006147a86144df84614772565b90508281528383830111156147bc57600080fd5b828260208301376000602084830101529392505050565b600080600080608085870312156147e957600080fd5b84356147f481614031565b9350602085013561480481614031565b925060408501359150606085013567ffffffffffffffff81111561482757600080fd5b8501601f8101871361483857600080fd5b6148478782356020840161479a565b91505092959194509250565b600082601f83011261486457600080fd5b610ee58383356020850161479a565b80356cffffffffffffffffffffffffff8116811461405157600080fd5b803563ffffffff8116811461405157600080fd5b61ffff811681146117dc57600080fd5b8035614051816148a4565b803562ffffff8116811461405157600080fd5b803560ff8116811461405157600080fd5b600060808083850312156148f657600080fd5b6148fe614393565b9150823567ffffffffffffffff81111561491757600080fd5b8301601f8101851361492857600080fd5b803560206149386144df83614459565b828152610180928302840182019282820191908985111561495857600080fd5b948301945b84861015614a4b5780868b0312156149755760008081fd5b61497d6143bc565b61498687614873565b8152614993858801614890565b8582015260406149a4818901614890565b9082015260606149b58882016148b4565b908201526149c4878901614046565b8189015260a0878101359082015260c06149df8189016148bf565b9082015260e06149f0888201614664565b90820152610100614a02888201614664565b90820152610120614a14888201614664565b90820152610140614a26888201614664565b90820152610160614a38888201614664565b908201528352948501949183019161495d565b50865250614a5a868201614890565b8186015250505050614a6e604083016148d2565b6040820152614a7f60608301614046565b606082015292915050565b600060808284031215614a9c57600080fd5b614aa4614393565b90508135614ab181614656565b81526020820135614ac181614656565b60208201526040820135614ad481614656565b60408201526060820135614a7f81614656565b6000806000806000806000806000806101a08b8d031215614b0757600080fd5b8a35995060208b013567ffffffffffffffff80821115614b2657600080fd5b614b328e838f01614853565b9a5060408d0135915080821115614b4857600080fd5b614b548e838f01614853565b9950614b6260608e01614046565b985060808d0135915080821115614b7857600080fd5b614b848e838f01614853565b9750614b9260a08e01614046565b965060c08d0135915080821115614ba857600080fd5b614bb48e838f01614853565b955060e08d0135915080821115614bca57600080fd5b50614bd78d828e016148e3565b935050614be76101008c01614046565b9150614bf78c6101208d01614a8a565b90509295989b9194979a5092959850565b600060208284031215614c1a57600080fd5b610ee5826148d2565b60008060408385031215614c3657600080fd5b8235614c4181614031565b9150602083013561437281614031565b60008060008060408587031215614c6757600080fd5b843567ffffffffffffffff80821115614c7f57600080fd5b818701915087601f830112614c9357600080fd5b813581811115614ca257600080fd5b88602061018083028501011115614cb857600080fd5b602092830196509450908601359080821115614cd357600080fd5b50614ce08782880161454e565b95989497509550505050565b600181811c90821680614d0057607f821691505b60208210810361431257634e487b7160e01b600052602260045260246000fd5b601f821115610dfc576000816000526020600020601f850160051c81016020861015614d495750805b601f850160051c820191505b81811015614d6857828155600101614d55565b505050505050565b67ffffffffffffffff831115614d8857614d8861437d565b614d9c83614d968354614cec565b83614d20565b6000601f841160018114614dd05760008515614db85750838201355b600019600387901b1c1916600186901b178355612a2b565b600083815260209020601f19861690835b82811015614e015786850135825560209485019460019092019101614de1565b5086821015614e1e5760001960f88860031b161c19848701351681555b505060018560011b0183555050505050565b8183823760009101908152919050565b634e487b7160e01b600052603260045260246000fd5b600060408284031215614e6857600080fd5b6040516040810181811067ffffffffffffffff82111715614e8b57614e8b61437d565b604052823581526020928301359281019290925250919050565b805161405181614031565b60006101208284031215614ec357600080fd5b614ecb6143e0565b825181526020830151602082015260408301516040820152606083015160608201526080830151608082015260a083015160a082015260c083015160c0820152614f1760e08401614ea5565b60e0820152610100928301519281019290925250919050565b600082601f830112614f4157600080fd5b81516020614f516144df83614459565b8083825260208201915060208460051b870101935086841115614f7357600080fd5b602086015b84811015614f8f5780518352918301918301614f78565b509695505050505050565b600060208284031215614fac57600080fd5b815167ffffffffffffffff811115614fc357600080fd5b611d5c84828501614f30565b600060208284031215614fe157600080fd5b8151610ee581614031565b805161405181614656565b60006020828403121561500957600080fd5b8151610ee581614656565b6000808335601e1984360301811261502b57600080fd5b83018035915067ffffffffffffffff82111561504657600080fd5b60200191503681900382131561297257600080fd5b6001600160a01b0383168152604060208201526000611d5c60408301846145ea565b60006020828403121561508f57600080fd5b5051919050565b84815260606020808301829052908201849052600090859060808401835b878110156150dd5783356150c7816148a4565b61ffff16825292820192908201906001016150b4565b50809350505050821515604083015295945050505050565b6000806040838503121561510857600080fd5b825167ffffffffffffffff81111561511f57600080fd5b61512b85828601614f30565b925050602083015190509250929050565b60006020828403121561514e57600080fd5b8135610ee5816148a4565b815167ffffffffffffffff8111156151735761517361437d565b615187816151818454614cec565b84614d20565b602080601f8311600181146151bc57600084156151a45750858301515b600019600386901b1c1916600185901b178555614d68565b600085815260208120601f198616915b828110156151eb578886015182559484019460019091019084016151cc565b50858210156152095787850151600019600388901b60f8161c191681555b5050505050600190811b01905550565b602080825282518282018190526000919060409081850190868401855b828110156152f957815180516cffffffffffffffffffffffffff1685528681015163ffffffff9081168887015286820151168686015260608082015161ffff16908601526080808201516001600160a01b03169086015260a0808201519086015260c08082015162ffffff169086015260e080820151151590860152610100808201511515908601526101208082015115159086015261014080820151151590860152610160908101511515908501526101809093019290850190600101615236565b5091979650505050505050565b600082601f83011261531757600080fd5b81516153256144df82614772565b81815284602083860101111561533a57600080fd5b611d5c826020830160208701613fb5565b60006020828403121561535d57600080fd5b815167ffffffffffffffff81111561537457600080fd5b611d5c84828501615306565b6020815281602082015260007f07ffffffffffffffffffffffffffffffffffffffffffffffffffffffffffffff8311156153b957600080fd5b8260051b80856040850137919091016040019392505050565b6153f2826153df83614873565b6cffffffffffffffffffffffffff169052565b6153fe60208201614890565b63ffffffff16602083015261541560408201614890565b63ffffffff16604083015261542c606082016148b4565b61ffff16606083015261544160808201614046565b6001600160a01b0316608083015260a0818101359083015261546560c082016148bf565b62ffffff1660c083015261547b60e08201614664565b151560e0830152610100615490828201614664565b1515908301526101206154a4828201614664565b1515908301526101406154b8828201614664565b1515908301526101606154cc828201614664565b80151584830152610d38565b6020808252810182905260008360408301825b85811015615511576154fd82846153d2565b6101809283019291909101906001016154eb565b5095945050505050565b6101a0810161552a82856153d2565b6001600160a01b0383166101808301529392505050565b60006020828403121561555357600080fd5b815167ffffffffffffffff8082111561556b57600080fd5b908301906101a0828603121561558057600080fd5b615588614404565b825181526020830151602082015260408301516040820152606083015160608201526080830151608082015260a083015160a08201526155ca60c08401614ea5565b60c082015260e083015160e08201526101008084015181830152506101206155f3818501614fec565b90820152610140615605848201614fec565b90820152610160615617848201614fec565b90820152610180838101518381111561562f57600080fd5b61563b88828701615306565b918301919091525095945050505050565b634e487b7160e01b600052601160045260246000fd5b808201808211156109bf576109bf61564c565b80820281158282048414176109bf576109bf61564c565b60006001600160a01b038087168352808616602084015250836040830152608060608301526156be6080830184613fd9565b9695505050505050565b6000602082840312156156da57600080fd5b8151610ee581613f82565b600083516156f7818460208801613fb5565b83519083019061570b818360208801613fb5565b01949350505050565b600181815b8085111561574f5781600019048211156157355761573561564c565b8085161561574257918102915b93841c9390800290615719565b509250929050565b600082615766575060016109bf565b81615773575060006109bf565b81600181146157895760028114615793576157af565b60019150506109bf565b60ff8411156157a4576157a461564c565b50506001821b6109bf565b5060208310610133831016604e8410600b84101617156157d2575081810a6109bf565b6157dc8383615714565b80600019048211156157f0576157f061564c565b029392505050565b6000610ee58383615757565b6000806040838503121561581757600080fd5b825161582281614656565b8092505060208084015167ffffffffffffffff81111561584157600080fd5b8401601f8101861361585257600080fd5b80516158606144df82614459565b81815260059190911b8201830190838101908883111561587f57600080fd5b928401925b828410156158a6578351615897816148a4565b82529284019290840190615884565b80955050505050509250929050565b6000608082840312156158c757600080fd5b6158cf614393565b82516158da81614656565b815260208301516158ea81614656565b602082015260408301516158fd81614656565b6040820152606083015161591081614656565b60608201529392505050565b818103818111156109bf576109bf61564c565b634e487b7160e01b600052601260045260246000fd5b6000826159545761595461592f565b500690565b6000826159685761596861592f565b500490565b60006060820185835260206060602085015281865180845260808601915060208801935060005b818110156159b457845161ffff1683529383019391830191600101615994565b5050809350505050821515604083015294935050505056fe31323334353637383941424344454647484a4b4c4d4e505152535455565758595a6162636465666768696a6b6d6e6f707172737475767778797aa264697066735822122096bf9f27a7d191f62021e1cc275272e5fdf9a0df1d64cdc7f23cab7988f3a04e64736f6c63430008170033",
	"devdoc": {
		"kind": "dev",
		"methods": {
			"adjustTiers((uint104,uint32,uint32,uint16,address,bytes32,uint24,bool,bool,bool,bool,bool)[],uint256[])": {
				"details": "Only the contract's owner or an operator with the `ADJUST_TIERS` permission from the owner can adjust the tiers.Any added tiers must adhere to this hook's `JB721TiersHookFlags`.",
				"params": {
					"tierIdsToRemove": "The tiers to remove, as an array of tier IDs.",
					"tiersToAdd": "The tiers to add, as an array of `JB721TierConfig` structs`."
				}
			},
			"afterPayRecordedWith((address,uint256,uint256,(address,uint256,uint256,uint256),(address,uint256,uint256,uint256),uint256,uint256,address,bytes,bytes))": {
				"details": "Reverts if the calling contract is not one of the project's terminals.",
				"params": {
					"context": "The payment context passed in by the terminal."
				}
			},
			"afterRedeemRecordedWith((address,uint256,uint256,uint256,(address,uint256,uint256,uint256),(address,uint256,uint256,uint256),uint256,address,bytes,bytes))": {
				"details": "Reverts if the calling contract is not one of the project's terminals.",
				"params": {
					"context": "The redemption context passed in by the terminal."
				}
			},
			"approve(address,uint256)": {
				"details": "See {IERC721-approve}."
			},
			"balanceOf(address)": {
				"params": {
					"owner": "The address to check the balance of."
				},
				"returns": {
					"balance": "The number of NFTs the address owns across this hook's tiers."
				}
			},
			"beforePayRecordedWith((address,address,(address,uint256,uint256,uint256),uint256,uint256,address,uint256,uint256,bytes))": {
				"details": "Sets this contract as the pay hook. Part of `IJBRulesetDataHook`.",
				"params": {
					"context": "The payment context passed to this contract by the `pay(...)` function."
				},
				"returns": {
					"hookSpecifications": "The amount and data to send to pay hooks (this contract) instead of adding to the terminal's balance.",
					"weight": "The new `weight` to use, overriding the ruleset's `weight`."
				}
			},
			"beforeRedeemRecordedWith((address,address,uint256,uint256,uint256,uint256,(address,uint256,uint256,uint256),bool,uint256,bytes))": {
				"details": "Sets this contract as the redeem hook. Part of `IJBRulesetDataHook`.This function is used for NFT redemptions, and will only be called if the project's ruleset has `useDataHookForRedeem` set to `true`.",
				"params": {
					"context": "The redemption context passed to this contract by the `redeemTokensOf(...)` function."
				},
				"returns": {
					"hookSpecifications": "The amount and data to send to redeem hooks (this contract) instead of returning to the beneficiary.",
					"redeemCount": "The amount of tokens that should be considered redeemed.",
					"redemptionRate": "The redemption rate influencing the reclaim amount.",
					"totalSupply": "The total amount of tokens that are considered to be existing."
				}
			},
			"constructor": {
				"params": {
					"directory": "A directory of terminals and controllers for projects.",
					"permissions": "A contract storing permissions."
				}
			},
			"firstOwnerOf(uint256)": {
				"details": "This is generally the address which paid for the NFT.",
				"params": {
					"tokenId": "The token ID of the NFT to get the first owner of."
				},
				"returns": {
					"_0": "The address of the NFT's first owner."
				}
			},
			"getApproved(uint256)": {
				"details": "See {IERC721-getApproved}."
			},
			"initialize(uint256,string,string,address,string,address,string,((uint104,uint32,uint32,uint16,address,bytes32,uint24,bool,bool,bool,bool,bool)[],uint32,uint8,address),address,(bool,bool,bool,bool))": {
				"params": {
					"baseUri": "The URI to use as a base for full NFT `tokenUri`s.",
					"contractUri": "A URI where this contract's metadata can be found.",
					"flags": "A set of additional options which dictate how the hook behaves.",
					"name": "The name of the NFT collection.",
					"projectId": "The ID of the project this this hook is associated with.",
					"rulesets": "A contract storing and managing project rulesets.",
					"store": "The contract which stores the NFT's data.",
					"symbol": "The symbol representing the NFT collection.",
					"tiersConfig": "The NFT tiers and pricing context to initialize the hook with. The tiers must be sorted by price (from least to greatest).",
					"tokenUriResolver": "An optional contract responsible for resolving the token URI for each NFT's token ID."
				}
			},
			"isApprovedForAll(address,address)": {
				"details": "See {IERC721-isApprovedForAll}."
			},
			"mintFor(uint16[],address)": {
				"params": {
					"beneficiary": "The address to mint to.",
					"tierIds": "The IDs of the tiers to mint from."
				},
				"returns": {
					"tokenIds": "The IDs of the newly minted tokens."
				}
			},
			"mintPendingReservesFor((uint256,uint256)[])": {
				"details": "\"Pending\" means that the NFTs have been reserved, but have not been minted yet.",
				"params": {
					"reserveMintConfigs": "Contains information about how many reserved tokens to mint for each tier."
				}
			},
			"mintPendingReservesFor(uint256,uint256)": {
				"details": "\"Pending\" means that the NFTs have been reserved, but have not been minted yet.",
				"params": {
					"count": "The number of reserved NFTs to mint.",
					"tierId": "The ID of the tier to mint reserved NFTs from."
				}
			},
			"name()": {
				"details": "See {IERC721Metadata-name}."
			},
			"ownerOf(uint256)": {
				"details": "See {IERC721-ownerOf}."
			},
			"pricingContext()": {
				"details": "If the `prices` contract is the zero address, this contract only accepts payments in the `currency` token.",
				"returns": {
					"currency": "The currency used for tier prices.",
					"decimals": "The amount of decimals being used in tier prices.",
					"prices": "The prices contract used to resolve the value of payments in currencies other than `currency`."
				}
			},
			"redemptionWeightOf(uint256[],(address,address,uint256,uint256,uint256,uint256,(address,uint256,uint256,uint256),bool,uint256,bytes))": {
				"details": "An NFT's redemption weight is its price.To get their relative redemption weight, divide the result by the `totalRedemptionWeight(...)`.",
				"params": {
					"tokenIds": "The token IDs of the NFTs to get the cumulative redemption weight of."
				},
				"returns": {
					"_0": "weight The redemption weight of the tokenIds."
				}
			},
			"safeTransferFrom(address,address,uint256)": {
				"details": "See {IERC721-safeTransferFrom}."
			},
			"safeTransferFrom(address,address,uint256,bytes)": {
				"details": "See {IERC721-safeTransferFrom}."
			},
			"setApprovalForAll(address,bool)": {
				"details": "See {IERC721-setApprovalForAll}."
			},
			"setMetadata(string,string,address,uint256,bytes32)": {
				"details": "Only this contract's owner can set the metadata.",
				"params": {
					"baseUri": "The new base URI.",
					"contractUri": "The new contract URI.",
					"encodedIPFSTUriTierId": "The ID of the tier to set the encoded IPFS URI of.",
					"encodedIPFSUri": "The encoded IPFS URI to set.",
					"tokenUriResolver": "The new URI resolver."
				}
			},
			"setPermissionId(uint8)": {
				"params": {
					"permissionId": "The ID of the permission to use for `onlyOwner`."
				}
			},
			"supportsInterface(bytes4)": {
				"details": "See {IERC165-supportsInterface}.",
				"params": {
					"interfaceId": "The ID of the interface to check for adherence to."
				}
			},
			"symbol()": {
				"details": "See {IERC721Metadata-symbol}."
			},
			"tokenURI(uint256)": {
				"details": "Defers to the `tokenUriResolver` if it is set. Otherwise, use the `tokenUri` corresponding with the NFT's tier.",
				"params": {
					"tokenId": "The token ID of the NFT to get the metadata URI of."
				},
				"returns": {
					"_0": "The token URI from the `tokenUriResolver` if it is set. If it isn't set, the token URI for the NFT's tier."
				}
			},
			"totalRedemptionWeight((address,address,uint256,uint256,uint256,uint256,(address,uint256,uint256,uint256),bool,uint256,bytes))": {
				"details": "An NFT's redemption weight is its price.",
				"returns": {
					"_0": "weight The total redemption weight."
				}
			},
			"transferFrom(address,address,uint256)": {
				"details": "See {IERC721-transferFrom}."
			},
			"transferOwnership(address)": {
				"params": {
					"newOwner": "The address that should receive ownership of this contract."
				}
			},
			"transferOwnershipToProject(uint256)": {
				"details": "The `projectId` must fit within a `uint88`.",
				"params": {
					"projectId": "The ID of the project that should receive ownership of this contract."
				}
			}
		},
		"version": 1
	},
	"userdoc": {
		"kind": "user",
		"methods": {
			"CODE_ORIGIN()": {
				"notice": "The address of the original `JB721TiersHook`."
			},
			"DIRECTORY()": {
				"notice": "The directory of terminals and controllers for projects."
			},
			"PERMISSIONS()": {
				"notice": "A contract storing permissions."
			},
			"PROJECTS()": {
				"notice": "Mints ERC-721s that represent project ownership and transfers."
			},
			"RULESETS()": {
				"notice": "The contract storing and managing project rulesets."
			},
			"STORE()": {
				"notice": "The contract that stores and manages data for this contract's NFTs."
			},
			"adjustTiers((uint104,uint32,uint32,uint16,address,bytes32,uint24,bool,bool,bool,bool,bool)[],uint256[])": {
				"notice": "Add or delete tiers."
			},
			"afterPayRecordedWith((address,uint256,uint256,(address,uint256,uint256,uint256),(address,uint256,uint256,uint256),uint256,uint256,address,bytes,bytes))": {
				"notice": "Mints one or more NFTs to the `context.benficiary` upon payment if conditions are met. Part of `IJBPayHook`."
			},
			"afterRedeemRecordedWith((address,uint256,uint256,uint256,(address,uint256,uint256,uint256),(address,uint256,uint256,uint256),uint256,address,bytes,bytes))": {
				"notice": "Burns the specified NFTs upon token holder redemption, reclaiming funds from the project's balance for `context.beneficiary`. Part of `IJBRedeemHook`."
			},
			"balanceOf(address)": {
				"notice": "The total number of this hook's NFTs that an address holds (from all tiers)."
			},
			"baseURI()": {
				"notice": "The base URI for the NFT `tokenUris`."
			},
			"beforePayRecordedWith((address,address,(address,uint256,uint256,uint256),uint256,uint256,address,uint256,uint256,bytes))": {
				"notice": "The data calculated before a payment is recorded in the terminal store. This data is provided to the terminal's `pay(...)` transaction."
			},
			"beforeRedeemRecordedWith((address,address,uint256,uint256,uint256,uint256,(address,uint256,uint256,uint256),bool,uint256,bytes))": {
				"notice": "The data calculated before a redemption is recorded in the terminal store. This data is provided to the terminal's `redeemTokensOf(...)` transaction."
			},
			"contractURI()": {
				"notice": "This contract's metadata URI."
			},
			"firstOwnerOf(uint256)": {
				"notice": "The first owner of an NFT."
			},
			"hasMintPermissionFor(uint256,address)": {
				"notice": "Required by the IJBRulesetDataHook interfaces. Return false to not leak any permissions."
			},
			"initialize(uint256,string,string,address,string,address,string,((uint104,uint32,uint32,uint16,address,bytes32,uint24,bool,bool,bool,bool,bool)[],uint32,uint8,address),address,(bool,bool,bool,bool))": {
				"notice": "Initializes a cloned copy of the original `JB721Hook` contract."
			},
			"jbOwner()": {
				"notice": "This contract's owner information."
			},
			"mintFor(uint16[],address)": {
				"notice": "Manually mint NFTs from the provided tiers ."
			},
			"mintPendingReservesFor((uint256,uint256)[])": {
				"notice": "Mint pending reserved NFTs based on the provided information."
			},
			"mintPendingReservesFor(uint256,uint256)": {
				"notice": "Mint reserved pending reserved NFTs within the provided tier."
			},
			"owner()": {
				"notice": "Returns the owner's address based on this contract's `JBOwner` owner information."
			},
			"payCreditsOf(address)": {
				"notice": "If an address pays more than the price of the NFT they received, the extra amount is stored as credits which can be redeemed to mint NFTs."
			},
			"pricingContext()": {
				"notice": "Context for the pricing of this hook's tiers."
			},
			"projectId()": {
				"notice": "The ID of the project that this contract is associated with."
			},
			"redemptionWeightOf(uint256[],(address,address,uint256,uint256,uint256,uint256,(address,uint256,uint256,uint256),bool,uint256,bytes))": {
				"notice": "The combined redemption weight of the NFTs with the specified token IDs."
			},
			"renounceOwnership()": {
				"notice": "Gives up ownership of this contract, making it impossible to call `onlyOwner`/`_checkOwner` functions. Can only be called by the current owner."
			},
			"setMetadata(string,string,address,uint256,bytes32)": {
				"notice": "Update this hook's URI metadata properties."
			},
			"setPermissionId(uint8)": {
				"notice": "Sets the permission ID which, when granted from the owner, allows other addresses to perform operations on their behalf."
			},
			"supportsInterface(bytes4)": {
				"notice": "Indicates if this contract adheres to the specified interface."
			},
			"tokenURI(uint256)": {
				"notice": "The metadata URI of the NFT with the specified token ID."
			},
			"totalRedemptionWeight((address,address,uint256,uint256,uint256,uint256,(address,uint256,uint256,uint256),bool,uint256,bytes))": {
				"notice": "The combined redemption weight of all outstanding NFTs."
			},
			"transferOwnership(address)": {
				"notice": "Transfers ownership of this contract to a new account (the `newOwner`). Can only be called by the current owner."
			},
			"transferOwnershipToProject(uint256)": {
				"notice": "Transfer ownership of this contract to a new Juicebox project."
			}
		},
		"version": 1
	},
	"gitCommit": "0ffcece295a2a9ff3878fbb9496ab6688eab8049",
	"sourceName": "src/JB721TiersHook.sol",
	"chainId": "11155111",
	"linkReferences": {},
	"deployedLinkReferences": {},
	"history": []
}