{
	"_format": "sphinx-sol-ct-artifact-1",
	"merkleRoot": "0x8b301a65089f933bbe7065207de564f31cf7fa4026a0dad20293e6755f8e2beb",
	"contractName": "JB721TiersHookStore",
	"address": "0x669e8E2D861D357434d95d4359BeF1fe4026E478",
	"abi": [
		{
			"type": "function",
			"name": "balanceOf",
			"inputs": [
				{
					"name": "hook",
					"type": "address",
					"internalType": "address"
				},
				{
					"name": "owner",
					"type": "address",
					"internalType": "address"
				}
			],
			"outputs": [
				{
					"name": "balance",
					"type": "uint256",
					"internalType": "uint256"
				}
			],
			"stateMutability": "view"
		},
		{
			"type": "function",
			"name": "cleanTiers",
			"inputs": [
				{
					"name": "hook",
					"type": "address",
					"internalType": "address"
				}
			],
			"outputs": [],
			"stateMutability": "nonpayable"
		},
		{
			"type": "function",
			"name": "defaultReserveBeneficiaryOf",
			"inputs": [
				{
					"name": "hook",
					"type": "address",
					"internalType": "address"
				}
			],
			"outputs": [
				{
					"name": "",
					"type": "address",
					"internalType": "address"
				}
			],
			"stateMutability": "view"
		},
		{
			"type": "function",
			"name": "encodedIPFSUriOf",
			"inputs": [
				{
					"name": "hook",
					"type": "address",
					"internalType": "address"
				},
				{
					"name": "tierId",
					"type": "uint256",
					"internalType": "uint256"
				}
			],
			"outputs": [
				{
					"name": "",
					"type": "bytes32",
					"internalType": "bytes32"
				}
			],
			"stateMutability": "view"
		},
		{
			"type": "function",
			"name": "encodedTierIPFSUriOf",
			"inputs": [
				{
					"name": "hook",
					"type": "address",
					"internalType": "address"
				},
				{
					"name": "tokenId",
					"type": "uint256",
					"internalType": "uint256"
				}
			],
			"outputs": [
				{
					"name": "",
					"type": "bytes32",
					"internalType": "bytes32"
				}
			],
			"stateMutability": "view"
		},
		{
			"type": "function",
			"name": "flagsOf",
			"inputs": [
				{
					"name": "hook",
					"type": "address",
					"internalType": "address"
				}
			],
			"outputs": [
				{
					"name": "",
					"type": "tuple",
					"internalType": "struct JB721TiersHookFlags",
					"components": [
						{
							"name": "noNewTiersWithReserves",
							"type": "bool",
							"internalType": "bool"
						},
						{
							"name": "noNewTiersWithVotes",
							"type": "bool",
							"internalType": "bool"
						},
						{
							"name": "noNewTiersWithOwnerMinting",
							"type": "bool",
							"internalType": "bool"
						},
						{
							"name": "preventOverspending",
							"type": "bool",
							"internalType": "bool"
						}
					]
				}
			],
			"stateMutability": "view"
		},
		{
			"type": "function",
			"name": "isTierRemoved",
			"inputs": [
				{
					"name": "hook",
					"type": "address",
					"internalType": "address"
				},
				{
					"name": "tierId",
					"type": "uint256",
					"internalType": "uint256"
				}
			],
			"outputs": [
				{
					"name": "",
					"type": "bool",
					"internalType": "bool"
				}
			],
			"stateMutability": "view"
		},
		{
			"type": "function",
			"name": "maxTierIdOf",
			"inputs": [
				{
					"name": "hook",
					"type": "address",
					"internalType": "address"
				}
			],
			"outputs": [
				{
					"name": "",
					"type": "uint256",
					"internalType": "uint256"
				}
			],
			"stateMutability": "view"
		},
		{
			"type": "function",
			"name": "numberOfBurnedFor",
			"inputs": [
				{
					"name": "hook",
					"type": "address",
					"internalType": "address"
				},
				{
					"name": "tierId",
					"type": "uint256",
					"internalType": "uint256"
				}
			],
			"outputs": [
				{
					"name": "",
					"type": "uint256",
					"internalType": "uint256"
				}
			],
			"stateMutability": "view"
		},
		{
			"type": "function",
			"name": "numberOfPendingReservesFor",
			"inputs": [
				{
					"name": "hook",
					"type": "address",
					"internalType": "address"
				},
				{
					"name": "tierId",
					"type": "uint256",
					"internalType": "uint256"
				}
			],
			"outputs": [
				{
					"name": "",
					"type": "uint256",
					"internalType": "uint256"
				}
			],
			"stateMutability": "view"
		},
		{
			"type": "function",
			"name": "numberOfReservesMintedFor",
			"inputs": [
				{
					"name": "hook",
					"type": "address",
					"internalType": "address"
				},
				{
					"name": "tierId",
					"type": "uint256",
					"internalType": "uint256"
				}
			],
			"outputs": [
				{
					"name": "",
					"type": "uint256",
					"internalType": "uint256"
				}
			],
			"stateMutability": "view"
		},
		{
			"type": "function",
			"name": "recordAddTiers",
			"inputs": [
				{
					"name": "tiersToAdd",
					"type": "tuple[]",
					"internalType": "struct JB721TierConfig[]",
					"components": [
						{
							"name": "price",
							"type": "uint104",
							"internalType": "uint104"
						},
						{
							"name": "initialSupply",
							"type": "uint32",
							"internalType": "uint32"
						},
						{
							"name": "votingUnits",
							"type": "uint32",
							"internalType": "uint32"
						},
						{
							"name": "reserveFrequency",
							"type": "uint16",
							"internalType": "uint16"
						},
						{
							"name": "reserveBeneficiary",
							"type": "address",
							"internalType": "address"
						},
						{
							"name": "encodedIPFSUri",
							"type": "bytes32",
							"internalType": "bytes32"
						},
						{
							"name": "category",
							"type": "uint24",
							"internalType": "uint24"
						},
						{
							"name": "allowOwnerMint",
							"type": "bool",
							"internalType": "bool"
						},
						{
							"name": "useReserveBeneficiaryAsDefault",
							"type": "bool",
							"internalType": "bool"
						},
						{
							"name": "transfersPausable",
							"type": "bool",
							"internalType": "bool"
						},
						{
							"name": "useVotingUnits",
							"type": "bool",
							"internalType": "bool"
						},
						{
							"name": "cannotBeRemoved",
							"type": "bool",
							"internalType": "bool"
						}
					]
				}
			],
			"outputs": [
				{
					"name": "tierIds",
					"type": "uint256[]",
					"internalType": "uint256[]"
				}
			],
			"stateMutability": "nonpayable"
		},
		{
			"type": "function",
			"name": "recordBurn",
			"inputs": [
				{
					"name": "tokenIds",
					"type": "uint256[]",
					"internalType": "uint256[]"
				}
			],
			"outputs": [],
			"stateMutability": "nonpayable"
		},
		{
			"type": "function",
			"name": "recordFlags",
			"inputs": [
				{
					"name": "flags",
					"type": "tuple",
					"internalType": "struct JB721TiersHookFlags",
					"components": [
						{
							"name": "noNewTiersWithReserves",
							"type": "bool",
							"internalType": "bool"
						},
						{
							"name": "noNewTiersWithVotes",
							"type": "bool",
							"internalType": "bool"
						},
						{
							"name": "noNewTiersWithOwnerMinting",
							"type": "bool",
							"internalType": "bool"
						},
						{
							"name": "preventOverspending",
							"type": "bool",
							"internalType": "bool"
						}
					]
				}
			],
			"outputs": [],
			"stateMutability": "nonpayable"
		},
		{
			"type": "function",
			"name": "recordMint",
			"inputs": [
				{
					"name": "amount",
					"type": "uint256",
					"internalType": "uint256"
				},
				{
					"name": "tierIds",
					"type": "uint16[]",
					"internalType": "uint16[]"
				},
				{
					"name": "isOwnerMint",
					"type": "bool",
					"internalType": "bool"
				}
			],
			"outputs": [
				{
					"name": "tokenIds",
					"type": "uint256[]",
					"internalType": "uint256[]"
				},
				{
					"name": "leftoverAmount",
					"type": "uint256",
					"internalType": "uint256"
				}
			],
			"stateMutability": "nonpayable"
		},
		{
			"type": "function",
			"name": "recordMintReservesFor",
			"inputs": [
				{
					"name": "tierId",
					"type": "uint256",
					"internalType": "uint256"
				},
				{
					"name": "count",
					"type": "uint256",
					"internalType": "uint256"
				}
			],
			"outputs": [
				{
					"name": "tokenIds",
					"type": "uint256[]",
					"internalType": "uint256[]"
				}
			],
			"stateMutability": "nonpayable"
		},
		{
			"type": "function",
			"name": "recordRemoveTierIds",
			"inputs": [
				{
					"name": "tierIds",
					"type": "uint256[]",
					"internalType": "uint256[]"
				}
			],
			"outputs": [],
			"stateMutability": "nonpayable"
		},
		{
			"type": "function",
			"name": "recordSetEncodedIPFSUriOf",
			"inputs": [
				{
					"name": "tierId",
					"type": "uint256",
					"internalType": "uint256"
				},
				{
					"name": "encodedIPFSUri",
					"type": "bytes32",
					"internalType": "bytes32"
				}
			],
			"outputs": [],
			"stateMutability": "nonpayable"
		},
		{
			"type": "function",
			"name": "recordSetTokenUriResolver",
			"inputs": [
				{
					"name": "resolver",
					"type": "address",
					"internalType": "contract IJB721TokenUriResolver"
				}
			],
			"outputs": [],
			"stateMutability": "nonpayable"
		},
		{
			"type": "function",
			"name": "recordTransferForTier",
			"inputs": [
				{
					"name": "tierId",
					"type": "uint256",
					"internalType": "uint256"
				},
				{
					"name": "from",
					"type": "address",
					"internalType": "address"
				},
				{
					"name": "to",
					"type": "address",
					"internalType": "address"
				}
			],
			"outputs": [],
			"stateMutability": "nonpayable"
		},
		{
			"type": "function",
			"name": "redemptionWeightOf",
			"inputs": [
				{
					"name": "hook",
					"type": "address",
					"internalType": "address"
				},
				{
					"name": "tokenIds",
					"type": "uint256[]",
					"internalType": "uint256[]"
				}
			],
			"outputs": [
				{
					"name": "weight",
					"type": "uint256",
					"internalType": "uint256"
				}
			],
			"stateMutability": "view"
		},
		{
			"type": "function",
			"name": "reserveBeneficiaryOf",
			"inputs": [
				{
					"name": "hook",
					"type": "address",
					"internalType": "address"
				},
				{
					"name": "tierId",
					"type": "uint256",
					"internalType": "uint256"
				}
			],
			"outputs": [
				{
					"name": "",
					"type": "address",
					"internalType": "address"
				}
			],
			"stateMutability": "view"
		},
		{
			"type": "function",
			"name": "tierBalanceOf",
			"inputs": [
				{
					"name": "hook",
					"type": "address",
					"internalType": "address"
				},
				{
					"name": "owner",
					"type": "address",
					"internalType": "address"
				},
				{
					"name": "tierId",
					"type": "uint256",
					"internalType": "uint256"
				}
			],
			"outputs": [
				{
					"name": "",
					"type": "uint256",
					"internalType": "uint256"
				}
			],
			"stateMutability": "view"
		},
		{
			"type": "function",
			"name": "tierIdOfToken",
			"inputs": [
				{
					"name": "tokenId",
					"type": "uint256",
					"internalType": "uint256"
				}
			],
			"outputs": [
				{
					"name": "",
					"type": "uint256",
					"internalType": "uint256"
				}
			],
			"stateMutability": "pure"
		},
		{
			"type": "function",
			"name": "tierOf",
			"inputs": [
				{
					"name": "hook",
					"type": "address",
					"internalType": "address"
				},
				{
					"name": "id",
					"type": "uint256",
					"internalType": "uint256"
				},
				{
					"name": "includeResolvedUri",
					"type": "bool",
					"internalType": "bool"
				}
			],
			"outputs": [
				{
					"name": "",
					"type": "tuple",
					"internalType": "struct JB721Tier",
					"components": [
						{
							"name": "id",
							"type": "uint256",
							"internalType": "uint256"
						},
						{
							"name": "price",
							"type": "uint256",
							"internalType": "uint256"
						},
						{
							"name": "remainingSupply",
							"type": "uint256",
							"internalType": "uint256"
						},
						{
							"name": "initialSupply",
							"type": "uint256",
							"internalType": "uint256"
						},
						{
							"name": "votingUnits",
							"type": "uint256",
							"internalType": "uint256"
						},
						{
							"name": "reserveFrequency",
							"type": "uint256",
							"internalType": "uint256"
						},
						{
							"name": "reserveBeneficiary",
							"type": "address",
							"internalType": "address"
						},
						{
							"name": "encodedIPFSUri",
							"type": "bytes32",
							"internalType": "bytes32"
						},
						{
							"name": "category",
							"type": "uint256",
							"internalType": "uint256"
						},
						{
							"name": "allowOwnerMint",
							"type": "bool",
							"internalType": "bool"
						},
						{
							"name": "transfersPausable",
							"type": "bool",
							"internalType": "bool"
						},
						{
							"name": "cannotBeRemoved",
							"type": "bool",
							"internalType": "bool"
						},
						{
							"name": "resolvedUri",
							"type": "string",
							"internalType": "string"
						}
					]
				}
			],
			"stateMutability": "view"
		},
		{
			"type": "function",
			"name": "tierOfTokenId",
			"inputs": [
				{
					"name": "hook",
					"type": "address",
					"internalType": "address"
				},
				{
					"name": "tokenId",
					"type": "uint256",
					"internalType": "uint256"
				},
				{
					"name": "includeResolvedUri",
					"type": "bool",
					"internalType": "bool"
				}
			],
			"outputs": [
				{
					"name": "",
					"type": "tuple",
					"internalType": "struct JB721Tier",
					"components": [
						{
							"name": "id",
							"type": "uint256",
							"internalType": "uint256"
						},
						{
							"name": "price",
							"type": "uint256",
							"internalType": "uint256"
						},
						{
							"name": "remainingSupply",
							"type": "uint256",
							"internalType": "uint256"
						},
						{
							"name": "initialSupply",
							"type": "uint256",
							"internalType": "uint256"
						},
						{
							"name": "votingUnits",
							"type": "uint256",
							"internalType": "uint256"
						},
						{
							"name": "reserveFrequency",
							"type": "uint256",
							"internalType": "uint256"
						},
						{
							"name": "reserveBeneficiary",
							"type": "address",
							"internalType": "address"
						},
						{
							"name": "encodedIPFSUri",
							"type": "bytes32",
							"internalType": "bytes32"
						},
						{
							"name": "category",
							"type": "uint256",
							"internalType": "uint256"
						},
						{
							"name": "allowOwnerMint",
							"type": "bool",
							"internalType": "bool"
						},
						{
							"name": "transfersPausable",
							"type": "bool",
							"internalType": "bool"
						},
						{
							"name": "cannotBeRemoved",
							"type": "bool",
							"internalType": "bool"
						},
						{
							"name": "resolvedUri",
							"type": "string",
							"internalType": "string"
						}
					]
				}
			],
			"stateMutability": "view"
		},
		{
			"type": "function",
			"name": "tierVotingUnitsOf",
			"inputs": [
				{
					"name": "hook",
					"type": "address",
					"internalType": "address"
				},
				{
					"name": "account",
					"type": "address",
					"internalType": "address"
				},
				{
					"name": "tierId",
					"type": "uint256",
					"internalType": "uint256"
				}
			],
			"outputs": [
				{
					"name": "",
					"type": "uint256",
					"internalType": "uint256"
				}
			],
			"stateMutability": "view"
		},
		{
			"type": "function",
			"name": "tiersOf",
			"inputs": [
				{
					"name": "hook",
					"type": "address",
					"internalType": "address"
				},
				{
					"name": "categories",
					"type": "uint256[]",
					"internalType": "uint256[]"
				},
				{
					"name": "includeResolvedUri",
					"type": "bool",
					"internalType": "bool"
				},
				{
					"name": "startingId",
					"type": "uint256",
					"internalType": "uint256"
				},
				{
					"name": "size",
					"type": "uint256",
					"internalType": "uint256"
				}
			],
			"outputs": [
				{
					"name": "tiers",
					"type": "tuple[]",
					"internalType": "struct JB721Tier[]",
					"components": [
						{
							"name": "id",
							"type": "uint256",
							"internalType": "uint256"
						},
						{
							"name": "price",
							"type": "uint256",
							"internalType": "uint256"
						},
						{
							"name": "remainingSupply",
							"type": "uint256",
							"internalType": "uint256"
						},
						{
							"name": "initialSupply",
							"type": "uint256",
							"internalType": "uint256"
						},
						{
							"name": "votingUnits",
							"type": "uint256",
							"internalType": "uint256"
						},
						{
							"name": "reserveFrequency",
							"type": "uint256",
							"internalType": "uint256"
						},
						{
							"name": "reserveBeneficiary",
							"type": "address",
							"internalType": "address"
						},
						{
							"name": "encodedIPFSUri",
							"type": "bytes32",
							"internalType": "bytes32"
						},
						{
							"name": "category",
							"type": "uint256",
							"internalType": "uint256"
						},
						{
							"name": "allowOwnerMint",
							"type": "bool",
							"internalType": "bool"
						},
						{
							"name": "transfersPausable",
							"type": "bool",
							"internalType": "bool"
						},
						{
							"name": "cannotBeRemoved",
							"type": "bool",
							"internalType": "bool"
						},
						{
							"name": "resolvedUri",
							"type": "string",
							"internalType": "string"
						}
					]
				}
			],
			"stateMutability": "view"
		},
		{
			"type": "function",
			"name": "tokenUriResolverOf",
			"inputs": [
				{
					"name": "hook",
					"type": "address",
					"internalType": "address"
				}
			],
			"outputs": [
				{
					"name": "",
					"type": "address",
					"internalType": "contract IJB721TokenUriResolver"
				}
			],
			"stateMutability": "view"
		},
		{
			"type": "function",
			"name": "totalRedemptionWeight",
			"inputs": [
				{
					"name": "hook",
					"type": "address",
					"internalType": "address"
				}
			],
			"outputs": [
				{
					"name": "weight",
					"type": "uint256",
					"internalType": "uint256"
				}
			],
			"stateMutability": "view"
		},
		{
			"type": "function",
			"name": "totalSupplyOf",
			"inputs": [
				{
					"name": "hook",
					"type": "address",
					"internalType": "address"
				}
			],
			"outputs": [
				{
					"name": "supply",
					"type": "uint256",
					"internalType": "uint256"
				}
			],
			"stateMutability": "view"
		},
		{
			"type": "function",
			"name": "votingUnitsOf",
			"inputs": [
				{
					"name": "hook",
					"type": "address",
					"internalType": "address"
				},
				{
					"name": "account",
					"type": "address",
					"internalType": "address"
				}
			],
			"outputs": [
				{
					"name": "units",
					"type": "uint256",
					"internalType": "uint256"
				}
			],
			"stateMutability": "view"
		},
		{
			"type": "event",
			"name": "CleanTiers",
			"inputs": [
				{
					"name": "hook",
					"type": "address",
					"indexed": true,
					"internalType": "address"
				},
				{
					"name": "caller",
					"type": "address",
					"indexed": false,
					"internalType": "address"
				}
			],
			"anonymous": false
		},
		{
			"type": "error",
			"name": "CANT_MINT_MANUALLY",
			"inputs": []
		},
		{
			"type": "error",
			"name": "CANT_REMOVE_TIER",
			"inputs": []
		},
		{
			"type": "error",
			"name": "INSUFFICIENT_PENDING_RESERVES",
			"inputs": []
		},
		{
			"type": "error",
			"name": "INSUFFICIENT_SUPPLY_REMAINING",
			"inputs": []
		},
		{
			"type": "error",
			"name": "INVALID_CATEGORY_SORT_ORDER",
			"inputs": []
		},
		{
			"type": "error",
			"name": "INVALID_QUANTITY",
			"inputs": []
		},
		{
			"type": "error",
			"name": "INVALID_TIER",
			"inputs": []
		},
		{
			"type": "error",
			"name": "MANUAL_MINTING_NOT_ALLOWED",
			"inputs": []
		},
		{
			"type": "error",
			"name": "MAX_TIERS_EXCEEDED",
			"inputs": []
		},
		{
			"type": "error",
			"name": "NO_SUPPLY",
			"inputs": []
		},
		{
			"type": "error",
			"name": "PRICE_EXCEEDS_AMOUNT",
			"inputs": []
		},
		{
			"type": "error",
			"name": "RESERVE_FREQUENCY_NOT_ALLOWED",
			"inputs": []
		},
		{
			"type": "error",
			"name": "TIER_REMOVED",
			"inputs": []
		},
		{
			"type": "error",
			"name": "VOTING_UNITS_NOT_ALLOWED",
			"inputs": []
		}
	],
	"solcInputHash": "2376904197f805d86033fd44ed669a72",
	"args": [],
	"bytecode": "0x608060405234801561001057600080fd5b5061376e806100206000396000f3fe608060405234801561001057600080fd5b50600436106101f05760003560e01c8063845104de1161010f578063c44a8e6d116100a2578063d84a72c011610071578063d84a72c0146105d6578063eaa19ab314610620578063f1bea54f14610641578063f7888aec1461066157600080fd5b8063c44a8e6d1461058a578063c8df17101461059d578063cb827e32146105b0578063cf9530d0146105c357600080fd5b80639403a74f116100de5780639403a74f14610519578063baa7e80e14610539578063bd51923c1461054c578063c2c55f941461057757600080fd5b8063845104de1461041057806386bc2be3146104e05780638f2b90a7146104f3578063933555781461050657600080fd5b80632e4d0ea81161018757806349bd1ac61161015657806349bd1ac6146103755780635f646611146103a257806364faa159146103c55780636825bb80146103e557600080fd5b80632e4d0ea8146102fe57806337f446521461031157806342f9914b1461034257806349249dc11461035557600080fd5b8063144cc2d4116101c3578063144cc2d41461028c57806320512ba1146102ad5780632ae5e492146102c05780632b7e6ef0146102d357600080fd5b806303573004146101f5578063086bb19a146102255780630fab09471461023a5780631140449214610263575b600080fd5b610208610203366004612d33565b610674565b6040516001600160a01b0390911681526020015b60405180910390f35b610238610233366004612d5f565b6106cd565b005b610208610248366004612d5f565b6005602052600090815260409020546001600160a01b031681565b610208610271366004612d5f565b6004602052600090815260409020546001600160a01b031681565b61029f61029a366004612dc8565b61082d565b60405190815260200161021c565b6102386102bb366004612e1d565b6108ab565b61029f6102ce366004612d5f565b610963565b61029f6102e1366004612d33565b600360209081526000928352604080842090915290825290205481565b61029f61030c366004612e5f565b610ad4565b61029f61031f366004612e5f565b600160209081526000938452604080852082529284528284209052825290205481565b61029f610350366004612ea0565b610bf8565b610368610363366004612eb9565b610c08565b60405161021c9190612f6b565b610238610383366004612f7e565b3360009081526006602090815260408083209483529390529190912055565b6103b56103b0366004612d33565b6115f5565b604051901515815260200161021c565b6103d86103d3366004612fb9565b61162d565b60405161021c91906130f6565b61029f6103f3366004612d33565b600260209081526000928352604080842090915290825290205481565b6104a561041e366004612d5f565b604080516080810182526000808252602082018190529181018290526060810191909152506001600160a01b03166000908152600a60209081526040918290208251608081018452905460ff808216151583526101008204811615159383019390935262010000810483161515938201939093526301000000909204161515606082015290565b60405161021c919081511515815260208083015115159082015260408083015115159082015260609182015115159181019190915260800190565b6102386104ee366004612e1d565b61175c565b61029f610501366004612d33565b61181f565b61029f610514366004613109565b6118d0565b61052c610527366004613142565b611a61565b60405161021c91906131bc565b610368610547366004612f7e565b611d7e565b61029f61055a366004612d33565b600660209081526000928352604080842090915290825290205481565b610238610585366004613220565b611f9d565b6103d8610598366004612fb9565b612032565b61029f6105ab366004612d33565b612178565b6102386105be366004613257565b6121b1565b61029f6105d1366004612d5f565b6121cc565b6102386105e4366004612d5f565b336000908152600560205260409020805473ffffffffffffffffffffffffffffffffffffffff19166001600160a01b0392909216919091179055565b61063361062e36600461326f565b6122ef565b60405161021c9291906132ce565b61029f61064f366004612d5f565b60006020819052908152604090205481565b61029f61066f366004613109565b61265e565b6001600160a01b03808316600090815260086020908152604080832085845290915281205490911680156106a95790506106c7565b50506001600160a01b03808316600090815260046020526040902054165b92915050565b60006106d8826126d3565b905060006106e7836000612714565b90506000610708604051806040016040528060008152602001600081525090565b82156107e85761071985848361277d565b6107d657610728826001613306565b8314610784576001600160a01b0385166000908152600760209081526040808320858452909152902054831461077f576001600160a01b038516600090815260076020908152604080832085845290915290208390555b6107d2565b6001600160a01b0385166000908152600760209081526040808320858452909152902054156107d2576001600160a01b03851660009081526007602090815260408083208584529091528120555b8291505b6107e18584866127d4565b9250610708565b6040513381526001600160a01b038616907f4a0f854ce3c180d56f3e9eb47eb064c595bf3de0ab9af45425291e5b1bb733a89060200160405180910390a25050505050565b600081815b818110156108a2576001600160a01b03861660009081526009602052604081209061087487878581811061086857610868613319565b90506020020135610bf8565b8152602081019190915260400160002054610898906001600160681b031684613306565b9250600101610832565b50509392505050565b806000805b8281101561095c578484828181106108ca576108ca613319565b336000908152600960209081526040808320938202959095013580835292905292909220805492945091600160f81b90046008161580159150610939576040517f750dccd600000000000000000000000000000000000000000000000000000000815260040160405180910390fd5b336000908152600b602052604090206109529085612821565b50506001016108b0565b5050505050565b6001600160a01b03811660009081526020818152604080832054815160e081018352848152928301849052908201839052606082018390526080820183905260a0820183905260c082018390529060005b82811015610acc576001600160a01b03851660009081526009602090815260408083206001858101855290835292819020815160e08101835290546001600160681b0381168252600160681b810463ffffffff90811694830194909452600160881b810490931691810191909152600160a81b820464ffffffffff166060820152600160d01b820462ffffff166080820152600160e81b820461ffff1660a0820152600160f81b90910460ff1660c08201529250610a7f908690610a79908490613306565b8461285a565b82602001518360400151610a93919061332f565b63ffffffff16610aa39190613306565b8251610ab891906001600160681b0316613353565b610ac29085613306565b93506001016109b4565b505050919050565b6001600160a01b0380841660009081526001602090815260408083209386168352928152828220848352905290812054808203610b15576000915050610bf1565b6001600160a01b0385166000908152600960209081526040808320868452825291829020825160e08101845290546001600160681b0381168252600160681b810463ffffffff90811693830193909352600160881b810490921692810192909252600160a81b810464ffffffffff166060830152600160d01b810462ffffff166080830152600160e81b810461ffff1660a0830152600160f81b900460ff811660c0830152600416151580610bcb578151610bd8565b816060015164ffffffffff165b610beb906001600160681b031684613353565b93505050505b9392505050565b60006106c7633b9aca0083613380565b33600090815260208190526040902054606090829061ffff610c2a8383613306565b1115610c62576040517f378d191600000000000000000000000000000000000000000000000000000000815260040160405180910390fd5b6000610c6d336126d3565b90508267ffffffffffffffff811115610c8857610c88613394565b604051908082528060200260200182016040528015610cb1578160200160208202803683370190505b50935060008215610ccc57610cc7336000612714565b610ccf565b60005b6040805161018081018252600080825260208201819052918101829052606081018290526080810182905260a0810182905260c0810182905260e08101829052610100810182905261012081018290526101408101829052610160810182905291925090336000908152600a602090815260408083208151608081018352905460ff80821615158352610100820481161515948301949094526201000081048416151592820192909252630100000090910490911615156060820152905b878110156115cc578a8a82818110610da757610da7613319565b90506101800201803603810190610dbe9190613424565b9250610dcf6001633b9aca00613509565b836020015163ffffffff161115610e12576040517f49016ea300000000000000000000000000000000000000000000000000000000815260040160405180910390fd5b6040805161018081018252600080825260208201819052918101829052606081018290526080810182905260a0810182905260c0810182905260e081018290526101008101829052610120810182905261014081018290526101608101919091528115610efa578b8b610e86600185613509565b818110610e9557610e95613319565b90506101800201803603810190610eac9190613424565b90508060c0015162ffffff168460c0015162ffffff161015610efa576040517f72afaf5400000000000000000000000000000000000000000000000000000000815260040160405180910390fd5b82602001518015610f4357508361014001518015610f215750604084015163ffffffff1615155b80610f435750836101400151158015610f43575083516001600160681b031615155b15610f7a576040517f0312400600000000000000000000000000000000000000000000000000000000815260040160405180910390fd5b825180610f8857508360e001515b8015610f9b5750606084015161ffff1615155b15610fd2576040517f2b200dcc00000000000000000000000000000000000000000000000000000000815260040160405180910390fd5b82604001518015610fe457508360e001515b1561101b576040517f30ec637f00000000000000000000000000000000000000000000000000000000815260040160405180910390fd5b836020015163ffffffff1660000361105f576040517fbcc08f2c00000000000000000000000000000000000000000000000000000000815260040160405180910390fd5b600061106b838a613306565b611076906001613306565b90506040518060e0016040528086600001516001600160681b03168152602001866020015163ffffffff168152602001866020015163ffffffff168152602001866040015163ffffffff1664ffffffffff1681526020018660c0015162ffffff168152602001866060015161ffff16815260200161111b8760e001518861012001518961014001518a610160015160031b60029190911b60019290921b909217171790565b60ff9081169091523360009081526009602090815260408083208684528252918290208451815492860151938601516060870151608088015160a089015160c0998a01516001600160681b039095167fffffffffffffffffffffffffffffff000000000000000000000000000000000090971696909617600160681b63ffffffff98891602177fffffffffffff000000000000000000ffffffffffffffffffffffffffffffffff16600160881b97909316969096027fffffffffffff0000000000ffffffffffffffffffffffffffffffffffffffffff1691909117600160a81b64ffffffffff90921691909102177fff0000000000ffffffffffffffffffffffffffffffffffffffffffffffffffff16600160d01b62ffffff958616027fff0000ffffffffffffffffffffffffffffffffffffffffffffffffffffffffff1617600160e81b61ffff90941693909302929092177effffffffffffffffffffffffffffffffffffffffffffffffffffffffffffff16600160f81b92909416919091029290921790915586820151918401519181169116148015906112c6575060c085015162ffffff1615155b156112f257336000908152600d6020908152604080832060c089015162ffffff16845290915290208190555b60808501516001600160a01b0316156113c5578461010001511561137b576080850151336000908152600460205260409020546001600160a01b03908116911614611376576080850151336000908152600460205260409020805473ffffffffffffffffffffffffffffffffffffffff19166001600160a01b039092169190911790555b6113c5565b60808501513360009081526008602090815260408083208584529091529020805473ffffffffffffffffffffffffffffffffffffffff19166001600160a01b039092169190911790555b60a0850151156113f05760a08501513360009081526006602090815260408083208584529091529020555b86156115a4578660005b81156115a15761140b33838c6127d4565b33600090815260096020908152604080832086845290915290205460c089015191925062ffffff600160d01b909104811691161180159061144c57508a8211155b156115255761145c836001613306565b82146114805733600090815260076020908152604080832086845290915290208290555b336000908152600c60205260409020548a146114a957336000908152600c602052604090208a90555b6114b4600184613509565b881415806114db57503360009081526007602090815260408083208b845290915290205415155b15611516576114eb600184613509565b88146114f757826114fa565b60005b3360009081526007602090815260408083208c84529091529020555b819850829750600091506113fa565b80158061153157508a81115b1561159857611541826001613306565b83146115655733600090815260076020908152604080832085845290915290208390555b336000908152600c602052604081205493995089939092501561159357336000908152600c60205260408120555b6113fa565b909650806113fa565b50505b808b84815181106115b7576115b7613319565b60209081029190910101525050600101610d8d565b506115d78787613306565b33600090815260208190526040902055509598975050505050505050565b6001600160a01b0382166000908152600b60205260408120819061161990846129c2565b90506116258184612a08565b949350505050565b6116aa604051806101a0016040528060008152602001600081526020016000815260200160008152602001600081526020016000815260200160006001600160a01b031681526020016000801916815260200160008152602001600015158152602001600015158152602001600015158152602001606081525090565b6001600160a01b0384166000908152600960209081526040808320868452825291829020825160e08101845290546001600160681b038116825263ffffffff600160681b8204811693830193909352600160881b81049092169281019290925264ffffffffff600160a81b820416606083015262ffffff600160d01b820416608083015261ffff600160e81b82041660a083015260ff600160f81b9091041660c0820152611625908590859085612a27565b806000805b8281101561095c5784848281811061177b5761177b613319565b905060200201359150600061178f83610bf8565b33600090815260036020908152604080832084845290915281208054929350906117b88361351c565b909155505033600090815260096020908152604080832084845290915290208054600160681b900463ffffffff1690600d6117f283613535565b91906101000a81548163ffffffff021916908363ffffffff16021790555050508080600101915050611761565b6001600160a01b03821660009081526009602090815260408083208484528252808320815160e08101835290546001600160681b0381168252600160681b810463ffffffff90811694830194909452600160881b810490931691810191909152600160a81b820464ffffffffff166060820152600160d01b820462ffffff166080820152600160e81b820461ffff1660a0820152600160f81b90910460ff1660c0820152610bf1908490849061285a565b6001600160a01b03821660009081526020818152604080832054815160e081018352848152928301849052908201839052606082018390526080820183905260a0820183905260c08201839052908290825b8015611a57576001600160a01b038088166000908152600160209081526040808320938a1683529281528282208483529052205492508215611a45576001600160a01b0387166000908152600960209081526040808320848452825291829020825160e08101845290546001600160681b0381168252600160681b810463ffffffff90811693830193909352600160881b810490921692810192909252600160a81b810464ffffffffff166060830152600160d01b810462ffffff166080830152600160e81b810461ffff1660a0830152600160f81b900460ff811660c0830152909250600416151580611a17578251611a24565b826060015164ffffffffff165b611a37906001600160681b031685613353565b611a419087613306565b9550505b80611a4f81613558565b915050611922565b5050505092915050565b60606000611a6e886126d3565b905080600003611a7e5750611d74565b8267ffffffffffffffff811115611a9757611a97613394565b604051908082528060200260200182016040528015611b4557816020015b611b32604051806101a0016040528060008152602001600081526020016000815260200160008152602001600081526020016000815260200160006001600160a01b031681526020016000801916815260200160008152602001600015158152602001600015158152602001600015158152602001606081525090565b815260200190600190039081611ab55790505b506040805160e081018252600080825260208201819052918101829052606081018290526080810182905260a0810182905260c0810182905291935090604080518082019091526000808252602082015260005b838714611d6357600088600003611bde57611bd98d8c15611bd2578d8d85818110611bc657611bc6613319565b90506020020135612714565b6000612714565b611be0565b885b90505b8015801590611bf157508785105b15611d5757611c018d828561277d565b611d45576001600160a01b038d166000908152600960209081526040808320848452825291829020825160e08101845290546001600160681b038116825263ffffffff600160681b8204811693830193909352600160881b81049092169281019290925264ffffffffff600160a81b820416606083015262ffffff600160d01b820416608083015261ffff600160e81b82041660a083015260ff600160f81b9091041660c082015293508a15801590611cda57508b8b83818110611cc757611cc7613319565b90506020020135846080015162ffffff16115b611d57578a1580611d0b57508b8b83818110611cf857611cf8613319565b90506020020135846080015162ffffff16145b15611d4557611d1c8d82868d612a27565b8786611d278161351c565b975081518110611d3957611d39613319565b60200260200101819052505b611d508d82886127d4565b9050611be3565b50600101898110611b99575b868414611d6e578386525b50505050505b9695505050505050565b3360008181526009602090815260408083208684528252808320815160e08101835281546001600160681b0381168252600160681b810463ffffffff90811695830195909552600160881b810490941692810192909252600160a81b830464ffffffffff16606080840191909152600160d01b840462ffffff166080840152600160e81b840461ffff1660a0840152600160f81b90930460ff1660c08301529193919291611e2d91879061285a565b905080841115611e68576040517e8403ce00000000000000000000000000000000000000000000000000000000815260040160405180910390fd5b33600090815260026020908152604080832088845290915281208054869290611e92908490613306565b9091555084905067ffffffffffffffff811115611eb157611eb1613394565b604051908082528060200260200182016040528015611eda578160200160208202803683370190505b503360009081526003602090815260408083208984529091528120549194505b85811015611a5757611f78878386600001600d81819054906101000a900463ffffffff16611f279061356f565b91906101000a81548163ffffffff021916908363ffffffff16021790558760000160119054906101000a900463ffffffff16611f63919061332f565b63ffffffff16611f739190613306565b612cdb565b858281518110611f8a57611f8a613319565b6020908102919091010152600101611efa565b6001600160a01b03821615611fea573360009081526001602090815260408083206001600160a01b0386168452825280832086845290915281208054909190611fe590613558565b909155505b6001600160a01b0381161561202d573360009081526001602081815260408084206001600160a01b03861685528252808420878552909152909120805490910190555b505050565b6120af604051806101a0016040528060008152602001600081526020016000815260200160008152602001600081526020016000815260200160006001600160a01b031681526020016000801916815260200160008152602001600015158152602001600015158152602001600015158152602001606081525090565b60006120ba84610bf8565b6001600160a01b0386166000908152600960209081526040808320848452825291829020825160e08101845290546001600160681b038116825263ffffffff600160681b8204811693830193909352600160881b81049092169281019290925264ffffffffff600160a81b820416606083015262ffffff600160d01b820416608083015261ffff600160e81b82041660a083015260ff600160f81b9091041660c082015290915061216f908690839086612a27565b95945050505050565b6001600160a01b03821660009081526006602052604081208161219a84610bf8565b815260200190815260200160002054905092915050565b336000908152600a60205260409020819061202d828261359c565b6040805160e08101825260008082526020808301829052828401829052606083018290526080830182905260a0830182905260c083018290526001600160a01b038516825281905291822054805b8015610acc576001600160a01b0385166000908152600960209081526040808320848452825291829020825160e08101845290546001600160681b038116825263ffffffff600160681b82048116938301849052600160881b82041693820184905264ffffffffff600160a81b820416606083015262ffffff600160d01b820416608083015261ffff600160e81b82041660a083015260ff600160f81b9091041660c082015294506122cb9161332f565b6122db9063ffffffff1685613306565b9350806122e781613558565b91505061221a565b606084836000808267ffffffffffffffff81111561230f5761230f613394565b604051908082528060200260200182016040528015612338578160200160208202803683370190505b509450612358604051806040016040528060008152602001600081525090565b60005b848110156126505789898281811061237557612375613319565b905060200201602081019061238a9190613639565b61ffff16925061239b33848461277d565b156123d2576040517fd32cb5c100000000000000000000000000000000000000000000000000000000815260040160405180910390fd5b33600090815260096020908152604080832086845290915290208054909450600160f81b90046001161515888015612408575080155b1561243f576040517f5ef25a7200000000000000000000000000000000000000000000000000000000815260040160405180910390fd5b8454600160881b900463ffffffff16600003612487576040517f0de5859f00000000000000000000000000000000000000000000000000000000815260040160405180910390fd5b84546001600160681b03168710156124cb576040517f0da0c78800000000000000000000000000000000000000000000000000000000815260040160405180910390fd5b6040805160e08101825286546001600160681b0381168252600160681b810463ffffffff9081166020840152600160881b82041692820192909252600160a81b820464ffffffffff166060820152600160d01b820462ffffff166080820152600160e81b820461ffff1660a0820152600160f81b90910460ff1660c0820152612557903390869061285a565b8554600160681b900463ffffffff161161259d576040517f620ae0c500000000000000000000000000000000000000000000000000000000815260040160405180910390fd5b336000908152600360209081526040808320878452909152902054855460001963ffffffff600160681b80840482169283018216027fffffffffffffffffffffffffffffff00000000ffffffffffffffffffffffffff9093169290921780895561261b938893600160881b9092048216929092036001011601612cdb565b88838151811061262d5761262d613319565b60209081029190910101525083546001600160681b03169095039460010161235b565b505050505094509492505050565b6001600160a01b038216600090815260208190526040812054805b80156126cb576001600160a01b0380861660009081526001602090815260408083209388168352928152828220848352905220546126b79084613306565b9250806126c381613558565b915050612679565b505092915050565b6001600160a01b0381166000908152600c60205260408120549081900361270f57506001600160a01b0381166000908152602081905260409020545b919050565b60008115612745576001600160a01b0383166000908152600d6020908152604080832085845290915290205461276a565b6001600160a01b03831660009081526007602090815260408083208380529091529020545b9050806000036106c75750600192915050565b60006127898284612cf6565b806127a0575081511580156127a057506020820151155b156127ca576001600160a01b0384166000908152600b602052604090206127c790846129c2565b91505b6116258284612a08565b60008183036127e557506000610bf1565b6001600160a01b03841660009081526007602090815260408083208684529091529020548015612816579050610bf1565b61216f846001613306565b600061282d8260081c90565b905061283b61010083613654565b6000918252602093909352604090208054600190931b90921790915550565b60008160a0015161ffff16600014806128865750816020015163ffffffff16826040015163ffffffff16145b806128a3575060006128988585610674565b6001600160a01b0316145b156128b057506000610bf1565b6001600160a01b0384166000908152600260209081526040808320868452825291829020549084015191840151909163ffffffff908116916128f491849116613509565b03612903576000915050610bf1565b600081846020015185604001510363ffffffff1603905060008460a0015161ffff16826129309190613380565b905060008560a0015161ffff16836129489190613654565b111561295a576129578161351c565b90505b846040015163ffffffff16818660a0015161ffff16876040015161297e9190613668565b63ffffffff1661298e9190613306565b11156129a15750602084015163ffffffff165b808311156129b55760009350505050610bf1565b9190910395945050505050565b604080518082019091526000808252602082015260006129e28360081c90565b604080518082018252600083815260209788529190912054815294850152509192915050565b6000612a1661010083613654565b83516001911c811614905092915050565b612aa4604051806101a0016040528060008152602001600081526020016000815260200160008152602001600081526020016000815260200160006001600160a01b031681526020016000801916815260200160008152602001600015158152602001600015158152602001600015158152602001606081525090565b6000612ab08686610674565b9050600080600080612adf8860c001516001811615159160028216151591600481161515916008909116151590565b9350935093509350604051806101a001604052808a815260200189600001516001600160681b03168152602001896020015163ffffffff168152602001896040015163ffffffff16815260200183612b38578951612b45565b896060015164ffffffffff165b6001600160681b031681526020016001600160a01b03871615612b6c578960a00151612b6f565b60005b61ffff1681526001600160a01b03808816602080840191909152908d1660009081526006825260408082208e835290925281902054908201526080808b015162ffffff1660608301528615159082015284151560a082015282151560c082015260e001881580612bf757506001600160a01b038c811660009081526005602052604090205416155b612cba576001600160a01b03808d1660009081526005602052604081205490911690635e703e71908e90612c2c908f90612cdb565b6040517fffffffff0000000000000000000000000000000000000000000000000000000060e085901b1681526001600160a01b0390921660048301526024820152604401600060405180830381865afa158015612c8d573d6000803e3d6000fd5b505050506040513d6000823e601f3d908101601f19168201604052612cb5919081019061368b565b612ccb565b604051806020016040528060008152505b90529a9950505050505050505050565b600081612cec633b9aca0085613353565b610bf19190613306565b60008260200151612d078360081c90565b14159392505050565b6001600160a01b0381168114612d2557600080fd5b50565b803561270f81612d10565b60008060408385031215612d4657600080fd5b8235612d5181612d10565b946020939093013593505050565b600060208284031215612d7157600080fd5b8135610bf181612d10565b60008083601f840112612d8e57600080fd5b50813567ffffffffffffffff811115612da657600080fd5b6020830191508360208260051b8501011115612dc157600080fd5b9250929050565b600080600060408486031215612ddd57600080fd5b8335612de881612d10565b9250602084013567ffffffffffffffff811115612e0457600080fd5b612e1086828701612d7c565b9497909650939450505050565b60008060208385031215612e3057600080fd5b823567ffffffffffffffff811115612e4757600080fd5b612e5385828601612d7c565b90969095509350505050565b600080600060608486031215612e7457600080fd5b8335612e7f81612d10565b92506020840135612e8f81612d10565b929592945050506040919091013590565b600060208284031215612eb257600080fd5b5035919050565b60008060208385031215612ecc57600080fd5b823567ffffffffffffffff80821115612ee457600080fd5b818501915085601f830112612ef857600080fd5b813581811115612f0757600080fd5b86602061018083028501011115612f1d57600080fd5b60209290920196919550909350505050565b60008151808452602080850194506020840160005b83811015612f6057815187529582019590820190600101612f44565b509495945050505050565b602081526000610bf16020830184612f2f565b60008060408385031215612f9157600080fd5b50508035926020909101359150565b8015158114612d2557600080fd5b803561270f81612fa0565b600080600060608486031215612fce57600080fd5b8335612fd981612d10565b9250602084013591506040840135612ff081612fa0565b809150509250925092565b60005b83811015613016578181015183820152602001612ffe565b50506000910152565b60008151808452613037816020860160208601612ffb565b601f01601f19169290920160200192915050565b60006101a0825184526020830151602085015260408301516040850152606083015160608501526080830151608085015260a083015160a085015260c08301516130a060c08601826001600160a01b03169052565b5060e08381015190850152610100808401519085015261012080840151151590850152610140808401511515908501526101608084015115159085015261018080840151818601839052611d748387018261301f565b602081526000610bf1602083018461304b565b6000806040838503121561311c57600080fd5b823561312781612d10565b9150602083013561313781612d10565b809150509250929050565b60008060008060008060a0878903121561315b57600080fd5b863561316681612d10565b9550602087013567ffffffffffffffff81111561318257600080fd5b61318e89828a01612d7c565b90965094505060408701356131a281612fa0565b959894975092956060810135946080909101359350915050565b600060208083016020845280855180835260408601915060408160051b87010192506020870160005b8281101561321357603f1988860301845261320185835161304b565b945092850192908501906001016131e5565b5092979650505050505050565b60008060006060848603121561323557600080fd5b83359250602084013561324781612d10565b91506040840135612ff081612d10565b60006080828403121561326957600080fd5b50919050565b6000806000806060858703121561328557600080fd5b84359350602085013567ffffffffffffffff8111156132a357600080fd5b6132af87828801612d7c565b90945092505060408501356132c381612fa0565b939692955090935050565b6040815260006132e16040830185612f2f565b90508260208301529392505050565b634e487b7160e01b600052601160045260246000fd5b808201808211156106c7576106c76132f0565b634e487b7160e01b600052603260045260246000fd5b63ffffffff82811682821603908082111561334c5761334c6132f0565b5092915050565b80820281158282048414176106c7576106c76132f0565b634e487b7160e01b600052601260045260246000fd5b60008261338f5761338f61336a565b500490565b634e487b7160e01b600052604160045260246000fd5b604051610180810167ffffffffffffffff811182821017156133ce576133ce613394565b60405290565b80356001600160681b038116811461270f57600080fd5b803563ffffffff8116811461270f57600080fd5b803561ffff8116811461270f57600080fd5b803562ffffff8116811461270f57600080fd5b6000610180828403121561343757600080fd5b61343f6133aa565b613448836133d4565b8152613456602084016133eb565b6020820152613467604084016133eb565b6040820152613478606084016133ff565b606082015261348960808401612d28565b608082015260a083013560a08201526134a460c08401613411565b60c08201526134b560e08401612fae565b60e08201526101006134c8818501612fae565b908201526101206134da848201612fae565b908201526101406134ec848201612fae565b908201526101606134fe848201612fae565b908201529392505050565b818103818111156106c7576106c76132f0565b60006001820161352e5761352e6132f0565b5060010190565b600063ffffffff80831681810361354e5761354e6132f0565b6001019392505050565b600081613567576135676132f0565b506000190190565b600063ffffffff821680613585576135856132f0565b6000190192915050565b600081356106c781612fa0565b81356135a781612fa0565b815460ff19811691151560ff16918217835560208401356135c781612fa0565b61ff0090151560081b1661ffff19821683178117845560408501356135eb81612fa0565b62ff000081151560101b168462ffffff198516178317178555505050506136356136176060840161358f565b82805463ff000000191691151560181b63ff00000016919091179055565b5050565b60006020828403121561364b57600080fd5b610bf1826133ff565b6000826136635761366361336a565b500690565b600063ffffffff8084168061367f5761367f61336a565b92169190910692915050565b60006020828403121561369d57600080fd5b815167ffffffffffffffff808211156136b557600080fd5b818401915084601f8301126136c957600080fd5b8151818111156136db576136db613394565b604051601f8201601f19908116603f0116810190838211818310171561370357613703613394565b8160405282815287602084870101111561371c57600080fd5b61372d836020830160208801612ffb565b97965050505050505056fea2646970667358221220301908cec9c43d1948c05637d352c3ba5a0797a956a63e99b62f94919ce80ce164736f6c63430008170033",
	"devdoc": {
		"kind": "dev",
		"methods": {
			"balanceOf(address,address)": {
				"params": {
					"hook": "The 721 contract to get the balance within.",
					"owner": "The address to check the balance of."
				},
				"returns": {
					"balance": "The number of NFTs the owner has from the 721 contract."
				}
			},
			"cleanTiers(address)": {
				"params": {
					"hook": "The 721 contract to clean tiers for."
				}
			},
			"encodedTierIPFSUriOf(address,uint256)": {
				"params": {
					"hook": "The 721 contract that the encoded IPFS URI belongs to.",
					"tokenId": "The token ID of the 721 to get the encoded tier IPFS URI of."
				},
				"returns": {
					"_0": "The encoded IPFS URI."
				}
			},
			"flagsOf(address)": {
				"params": {
					"hook": "The 721 contract to get the flags of."
				},
				"returns": {
					"_0": "The flags."
				}
			},
			"isTierRemoved(address,uint256)": {
				"params": {
					"hook": "The 721 contract the tier belongs to.",
					"tierId": "The ID of the tier to check the removal status of."
				},
				"returns": {
					"_0": "A bool which is `true` if the tier has been removed, and `false` otherwise."
				}
			},
			"numberOfPendingReservesFor(address,uint256)": {
				"details": "\"Pending\" means that the NFTs have been reserved, but have not been minted yet.",
				"params": {
					"hook": "The 721 contract to check for pending reserved NFTs.",
					"tierId": "The ID of the tier to get the number of pending reserves for."
				},
				"returns": {
					"_0": "The number of pending reserved NFTs."
				}
			},
			"recordAddTiers((uint104,uint32,uint32,uint16,address,bytes32,uint24,bool,bool,bool,bool,bool)[])": {
				"params": {
					"tiersToAdd": "The tiers to add."
				},
				"returns": {
					"tierIds": "The IDs of the tiers being added."
				}
			},
			"recordBurn(uint256[])": {
				"params": {
					"tokenIds": "The token IDs of the NFTs to burn."
				}
			},
			"recordFlags((bool,bool,bool,bool))": {
				"params": {
					"flags": "The flags to set."
				}
			},
			"recordMint(uint256,uint16[],bool)": {
				"params": {
					"amount": "The amount being spent on NFTs. The total price must not exceed this amount.",
					"isOwnerMint": "A flag indicating whether this function is being directly called by the 721 contract's owner.",
					"tierIds": "The IDs of the tiers to mint from."
				},
				"returns": {
					"leftoverAmount": "The `amount` remaining after minting.",
					"tokenIds": "The token IDs of the NFTs which were minted."
				}
			},
			"recordMintReservesFor(uint256,uint256)": {
				"params": {
					"count": "The number of reserve NFTs to mint.",
					"tierId": "The ID of the tier to mint reserves from."
				},
				"returns": {
					"tokenIds": "The token IDs of the reserve NFTs which were minted."
				}
			},
			"recordRemoveTierIds(uint256[])": {
				"params": {
					"tierIds": "The IDs of the tiers being removed."
				}
			},
			"recordSetEncodedIPFSUriOf(uint256,bytes32)": {
				"params": {
					"encodedIPFSUri": "The encoded IPFS URI to set for the tier.",
					"tierId": "The ID of the tier to set the encoded IPFS URI of."
				}
			},
			"recordSetTokenUriResolver(address)": {
				"params": {
					"resolver": "The resolver to set."
				}
			},
			"recordTransferForTier(uint256,address,address)": {
				"params": {
					"from": "The address that the 721 is being transferred from.",
					"tierId": "The ID of the tier that the 721 being transferred belongs to.",
					"to": "The address that the 721 is being transferred to."
				}
			},
			"redemptionWeightOf(address,uint256[])": {
				"details": "Redemption weight is based on 721 price.Divide this result by the `totalRedemptionWeight` to get the portion of funds that can be reclaimed by redeeming these NFTs.",
				"params": {
					"hook": "The 721 contract that the NFTs belong to.",
					"tokenIds": "The token IDs of the NFTs to get the redemption weight of."
				},
				"returns": {
					"weight": "The redemption weight."
				}
			},
			"reserveBeneficiaryOf(address,uint256)": {
				"params": {
					"hook": "The 721 contract that the tier belongs to.",
					"tierId": "The ID of the tier to get the reserve beneficiary of."
				},
				"returns": {
					"_0": "The reserve beneficiary for the tier."
				}
			},
			"tierIdOfToken(uint256)": {
				"details": "Tiers are 1-indexed from the `tiers` array, meaning the 0th element of the array is tier 1.",
				"params": {
					"tokenId": "The token ID of the 721 to get the tier ID of."
				},
				"returns": {
					"_0": "The ID of the 721's tier."
				}
			},
			"tierOf(address,uint256,bool)": {
				"params": {
					"hook": "The 721 contract to get the tier from.",
					"id": "The ID of the tier to get.",
					"includeResolvedUri": "If set to `true`, if the contract has a token URI resolver, its content will be resolved and included."
				},
				"returns": {
					"_0": "The tier."
				}
			},
			"tierOfTokenId(address,uint256,bool)": {
				"params": {
					"hook": "The 721 contract that the tier belongs to.",
					"includeResolvedUri": "If set to `true`, if the contract has a token URI resolver, its content will be resolved and included.",
					"tokenId": "The token ID of the 721 to get the tier of."
				},
				"returns": {
					"_0": "The tier."
				}
			},
			"tierVotingUnitsOf(address,address,uint256)": {
				"details": "NFTs have a tier-specific number of voting units. If the tier does not have a custom number of voting units, the price is used.",
				"params": {
					"account": "The address to get the voting units of within the tier.",
					"hook": "The 721 contract that the tier belongs to.",
					"tierId": "The ID of the tier to get voting units within."
				},
				"returns": {
					"_0": "The address' voting units within the tier."
				}
			},
			"tiersOf(address,uint256[],bool,uint256,uint256)": {
				"params": {
					"categories": "An array tier categories to get tiers from. Send an empty array to get all categories.",
					"hook": "The 721 contract to get the tiers of.",
					"includeResolvedUri": "If set to `true`, if the contract has a token URI resolver, its content will be resolved and included.",
					"size": "The number of tiers to include.",
					"startingId": "The ID of the first tier to get (sorted by price). Send 0 to get all active tiers."
				},
				"returns": {
					"tiers": "An array of active 721 tiers."
				}
			},
			"totalRedemptionWeight(address)": {
				"params": {
					"hook": "The 721 contract to get the total redemption weight of."
				},
				"returns": {
					"weight": "The total redemption weight."
				}
			},
			"totalSupplyOf(address)": {
				"params": {
					"hook": "The 721 contract to get a total supply of."
				},
				"returns": {
					"supply": "The total number of NFTs minted from all tiers on the contract."
				}
			},
			"votingUnitsOf(address,address)": {
				"details": "NFTs have a tier-specific number of voting units. If the tier does not have a custom number of voting units, the price is used.",
				"params": {
					"account": "The address to get the voting unit total of.",
					"hook": "The 721 contract to get the voting units within."
				},
				"returns": {
					"units": "The total voting units the address has within the 721 contract."
				}
			}
		},
		"version": 1
	},
	"userdoc": {
		"kind": "user",
		"methods": {
			"balanceOf(address,address)": {
				"notice": "Get the number of NFTs that the specified address has from the specified 721 contract (across all tiers)."
			},
			"cleanTiers(address)": {
				"notice": "Cleans an 721 contract's removed tiers from the tier sorting sequence."
			},
			"defaultReserveBeneficiaryOf(address)": {
				"notice": "Returns the default reserve beneficiary for the provided 721 contract."
			},
			"encodedIPFSUriOf(address,uint256)": {
				"notice": "Returns the encoded IPFS URI for the provided tier ID of the provided 721 contract."
			},
			"encodedTierIPFSUriOf(address,uint256)": {
				"notice": "Resolves the encoded IPFS URI for the tier of the 721 with the provided token ID from the provided 721 contract."
			},
			"flagsOf(address)": {
				"notice": "Get the flags that dictate the behavior of the provided 721 contract."
			},
			"isTierRemoved(address,uint256)": {
				"notice": "Check if the provided tier has been removed from the provided 721 contract."
			},
			"maxTierIdOf(address)": {
				"notice": "Returns the largest tier ID currently used on the provided 721 contract."
			},
			"numberOfBurnedFor(address,uint256)": {
				"notice": "Returns the number of NFTs which have been burned from the provided tier ID of the provided 721 contract."
			},
			"numberOfPendingReservesFor(address,uint256)": {
				"notice": "Get the number of pending reserve NFTs for the provided tier ID of the provided 721 contract."
			},
			"numberOfReservesMintedFor(address,uint256)": {
				"notice": "Returns the number of reserve NFTs which have been minted from the provided tier ID of the provided 721 contract."
			},
			"recordAddTiers((uint104,uint32,uint32,uint16,address,bytes32,uint24,bool,bool,bool,bool,bool)[])": {
				"notice": "Record newly added tiers."
			},
			"recordBurn(uint256[])": {
				"notice": "Records 721 burns."
			},
			"recordFlags((bool,bool,bool,bool))": {
				"notice": "Record newly set flags."
			},
			"recordMint(uint256,uint16[],bool)": {
				"notice": "Record 721 mints from the provided tiers."
			},
			"recordMintReservesFor(uint256,uint256)": {
				"notice": "Record reserve 721 minting for the provided tier ID on the provided 721 contract."
			},
			"recordRemoveTierIds(uint256[])": {
				"notice": "Record tiers being removed."
			},
			"recordSetEncodedIPFSUriOf(uint256,bytes32)": {
				"notice": "Record a new encoded IPFS URI for a tier."
			},
			"recordSetTokenUriResolver(address)": {
				"notice": "Record a newly set token URI resolver."
			},
			"recordTransferForTier(uint256,address,address)": {
				"notice": "Record an 721 transfer."
			},
			"redemptionWeightOf(address,uint256[])": {
				"notice": "The combined redemption weight of the NFTs with the provided token IDs."
			},
			"reserveBeneficiaryOf(address,uint256)": {
				"notice": "The reserve beneficiary for the provided tier ID on the provided 721 contract."
			},
			"tierBalanceOf(address,address,uint256)": {
				"notice": "Returns the number of NFTs which the provided owner address owns from the provided 721 contract and tier ID."
			},
			"tierIdOfToken(uint256)": {
				"notice": "The tier ID for the 721 with the provided token ID."
			},
			"tierOf(address,uint256,bool)": {
				"notice": "Get the tier with the provided ID from the provided 721 contract."
			},
			"tierOfTokenId(address,uint256,bool)": {
				"notice": "Get the tier of the 721 with the provided token ID in the provided 721 contract."
			},
			"tierVotingUnitsOf(address,address,uint256)": {
				"notice": "Returns the number of voting units an addresses has within the specified tier of the specified 721 contract."
			},
			"tiersOf(address,uint256[],bool,uint256,uint256)": {
				"notice": "Gets an array of currently active 721 tiers for the provided 721 contract."
			},
			"tokenUriResolverOf(address)": {
				"notice": "Returns the custom token URI resolver which overrides the default token URI resolver for the provided 721 contract."
			},
			"totalRedemptionWeight(address)": {
				"notice": "The combined redemption weight for all NFTs from the provided 721 contract."
			},
			"totalSupplyOf(address)": {
				"notice": "Get the number of NFTs which have been minted from the provided 721 contract (across all tiers)."
			},
			"votingUnitsOf(address,address)": {
				"notice": "Get the number of voting units the provided address has for the provided 721 contract (across all tiers)."
			}
		},
		"version": 1
	},
	"gitCommit": "0ffcece295a2a9ff3878fbb9496ab6688eab8049",
	"sourceName": "src/JB721TiersHookStore.sol",
	"chainId": "11155111",
	"linkReferences": {},
	"deployedLinkReferences": {},
	"history": []
}