{
	"_format": "sphinx-sol-ct-artifact-1",
	"merkleRoot": "0x8b301a65089f933bbe7065207de564f31cf7fa4026a0dad20293e6755f8e2beb",
	"contractName": "JB721TiersHookDeployer",
	"address": "0xcDFA45A183fa6841eD1Ef8550FCa0a8aAb42eC34",
	"abi": [
		{
			"type": "constructor",
			"inputs": [
				{
					"name": "hook",
					"type": "address",
					"internalType": "contract JB721TiersHook"
				},
				{
					"name": "store",
					"type": "address",
					"internalType": "contract IJB721TiersHookStore"
				},
				{
					"name": "addressRegistry",
					"type": "address",
					"internalType": "contract IJBAddressRegistry"
				}
			],
			"stateMutability": "nonpayable"
		},
		{
			"type": "function",
			"name": "ADDRESS_REGISTRY",
			"inputs": [],
			"outputs": [
				{
					"name": "",
					"type": "address",
					"internalType": "contract IJBAddressRegistry"
				}
			],
			"stateMutability": "view"
		},
		{
			"type": "function",
			"name": "HOOK",
			"inputs": [],
			"outputs": [
				{
					"name": "",
					"type": "address",
					"internalType": "contract JB721TiersHook"
				}
			],
			"stateMutability": "view"
		},
		{
			"type": "function",
			"name": "STORE",
			"inputs": [],
			"outputs": [
				{
					"name": "",
					"type": "address",
					"internalType": "contract IJB721TiersHookStore"
				}
			],
			"stateMutability": "view"
		},
		{
			"type": "function",
			"name": "deployHookFor",
			"inputs": [
				{
					"name": "projectId",
					"type": "uint256",
					"internalType": "uint256"
				},
				{
					"name": "deployTiersHookConfig",
					"type": "tuple",
					"internalType": "struct JBDeploy721TiersHookConfig",
					"components": [
						{
							"name": "name",
							"type": "string",
							"internalType": "string"
						},
						{
							"name": "symbol",
							"type": "string",
							"internalType": "string"
						},
						{
							"name": "rulesets",
							"type": "address",
							"internalType": "contract IJBRulesets"
						},
						{
							"name": "baseUri",
							"type": "string",
							"internalType": "string"
						},
						{
							"name": "tokenUriResolver",
							"type": "address",
							"internalType": "contract IJB721TokenUriResolver"
						},
						{
							"name": "contractUri",
							"type": "string",
							"internalType": "string"
						},
						{
							"name": "tiersConfig",
							"type": "tuple",
							"internalType": "struct JB721InitTiersConfig",
							"components": [
								{
									"name": "tiers",
									"type": "tuple[]",
									"internalType": "struct JB721TierConfig[]",
									"components": [
										{
											"name": "price",
											"type": "uint104",
											"internalType": "uint104"
										},
										{
											"name": "initialSupply",
											"type": "uint32",
											"internalType": "uint32"
										},
										{
											"name": "votingUnits",
											"type": "uint32",
											"internalType": "uint32"
										},
										{
											"name": "reserveFrequency",
											"type": "uint16",
											"internalType": "uint16"
										},
										{
											"name": "reserveBeneficiary",
											"type": "address",
											"internalType": "address"
										},
										{
											"name": "encodedIPFSUri",
											"type": "bytes32",
											"internalType": "bytes32"
										},
										{
											"name": "category",
											"type": "uint24",
											"internalType": "uint24"
										},
										{
											"name": "allowOwnerMint",
											"type": "bool",
											"internalType": "bool"
										},
										{
											"name": "useReserveBeneficiaryAsDefault",
											"type": "bool",
											"internalType": "bool"
										},
										{
											"name": "transfersPausable",
											"type": "bool",
											"internalType": "bool"
										},
										{
											"name": "useVotingUnits",
											"type": "bool",
											"internalType": "bool"
										},
										{
											"name": "cannotBeRemoved",
											"type": "bool",
											"internalType": "bool"
										}
									]
								},
								{
									"name": "currency",
									"type": "uint32",
									"internalType": "uint32"
								},
								{
									"name": "decimals",
									"type": "uint8",
									"internalType": "uint8"
								},
								{
									"name": "prices",
									"type": "address",
									"internalType": "contract IJBPrices"
								}
							]
						},
						{
							"name": "reserveBeneficiary",
							"type": "address",
							"internalType": "address"
						},
						{
							"name": "flags",
							"type": "tuple",
							"internalType": "struct JB721TiersHookFlags",
							"components": [
								{
									"name": "noNewTiersWithReserves",
									"type": "bool",
									"internalType": "bool"
								},
								{
									"name": "noNewTiersWithVotes",
									"type": "bool",
									"internalType": "bool"
								},
								{
									"name": "noNewTiersWithOwnerMinting",
									"type": "bool",
									"internalType": "bool"
								},
								{
									"name": "preventOverspending",
									"type": "bool",
									"internalType": "bool"
								}
							]
						}
					]
				}
			],
			"outputs": [
				{
					"name": "newHook",
					"type": "address",
					"internalType": "contract IJB721TiersHook"
				}
			],
			"stateMutability": "nonpayable"
		},
		{
			"type": "event",
			"name": "HookDeployed",
			"inputs": [
				{
					"name": "projectId",
					"type": "uint256",
					"indexed": true,
					"internalType": "uint256"
				},
				{
					"name": "newHook",
					"type": "address",
					"indexed": false,
					"internalType": "contract IJB721TiersHook"
				}
			],
			"anonymous": false
		},
		{
			"type": "error",
			"name": "ERC1167FailedCreateClone",
			"inputs": []
		}
	],
	"solcInputHash": "50e43c9821602488f9eafcf5de2f252e",
	"args": [
		"0x323Dd5A5ed60468401528f220CB8ADbB9F855920",
		"0x669e8E2D861D357434d95d4359BeF1fe4026E478",
		"0x2012f03C32098e0a045d3e44df5bAD538e23a5FF"
	],
	"bytecode": "0x60e060405234801561001057600080fd5b50604051610c91380380610c9183398101604081905261002f91610064565b6001600160a01b0392831660805290821660a0521660c0526100b1565b6001600160a01b038116811461006157600080fd5b50565b60008060006060848603121561007957600080fd5b83516100848161004c565b60208501519093506100958161004c565b60408501519092506100a68161004c565b809150509250925092565b60805160a05160c051610ba06100f16000396000818160ac01526102470152600081816085015261015701526000818160d3015260fc0152610ba06000f3fe608060405234801561001057600080fd5b506004361061004c5760003560e01c80632230819f14610051578063507f14651461008057806389a56bbc146100a7578063a54eb242146100ce575b600080fd5b61006461005f366004610795565b6100f5565b6040516001600160a01b03909116815260200160405180910390f35b6100647f000000000000000000000000000000000000000000000000000000000000000081565b6100647f000000000000000000000000000000000000000000000000000000000000000081565b6100647f000000000000000000000000000000000000000000000000000000000000000081565b60006101207f0000000000000000000000000000000000000000000000000000000000000000610342565b9050806001600160a01b031663c07f2f9b84846000015185602001518660400151876060015188608001518960a001518a60c001517f00000000000000000000000000000000000000000000000000000000000000008c61010001516040518b63ffffffff1660e01b81526004016101a19a9998979695949392919061092d565b600060405180830381600087803b1580156101bb57600080fd5b505af11580156101cf573d6000803e3d6000fd5b50506040517ff2fde38b0000000000000000000000000000000000000000000000000000000081523360048201526001600160a01b038416925063f2fde38b9150602401600060405180830381600087803b15801561022d57600080fd5b505af1158015610241573d6000803e3d6000fd5b505050507f00000000000000000000000000000000000000000000000000000000000000006001600160a01b031663b94417ab30600080815461028390610b43565b91829055506040517fffffffff0000000000000000000000000000000000000000000000000000000060e085901b1681526001600160a01b0390921660048301526024820152604401600060405180830381600087803b1580156102e657600080fd5b505af11580156102fa573d6000803e3d6000fd5b50506040516001600160a01b03841681528592507fa42f6bb68e81f4650a7966f109d861f6c3d2a477e608e30807f568bed1cebdb9915060200160405180910390a292915050565b6000763d602d80600a3d3981f3363d3d373d3d3d363d730000008260601b60e81c176000526e5af43d82803e903d91602b57fd5bf38260781b17602052603760096000f090506001600160a01b0381166103c8576040517fc2f868f400000000000000000000000000000000000000000000000000000000815260040160405180910390fd5b919050565b634e487b7160e01b600052604160045260246000fd5b6040516080810167ffffffffffffffff81118282101715610406576104066103cd565b60405290565b604051610180810167ffffffffffffffff81118282101715610406576104066103cd565b604051610120810167ffffffffffffffff81118282101715610406576104066103cd565b604051601f8201601f1916810167ffffffffffffffff8111828210171561047d5761047d6103cd565b604052919050565b600082601f83011261049657600080fd5b813567ffffffffffffffff8111156104b0576104b06103cd565b6104c3601f8201601f1916602001610454565b8181528460208386010111156104d857600080fd5b816020850160208301376000918101602001919091529392505050565b80356001600160a01b03811681146103c857600080fd5b80356cffffffffffffffffffffffffff811681146103c857600080fd5b803563ffffffff811681146103c857600080fd5b803561ffff811681146103c857600080fd5b803562ffffff811681146103c857600080fd5b803580151581146103c857600080fd5b803560ff811681146103c857600080fd5b6000608080838503121561059657600080fd5b61059e6103e3565b9150823567ffffffffffffffff808211156105b857600080fd5b818501915085601f8301126105cc57600080fd5b81356020828211156105e0576105e06103cd565b6105ee818360051b01610454565b828152818101935061018092830285018201928984111561060e57600080fd5b948201945b838610156107015780868b03121561062b5760008081fd5b61063361040c565b61063c8761050c565b8152610649848801610529565b84820152604061065a818901610529565b90820152606061066b88820161053d565b9082015261067a8789016104f5565b8189015260a0878101359082015260c061069581890161054f565b9082015260e06106a6888201610562565b908201526101006106b8888201610562565b908201526101206106ca888201610562565b908201526101406106dc888201610562565b908201526101606106ee888201610562565b9082015285529485019493820193610613565b50865261070f878201610529565b81870152505050505061072460408301610572565b6040820152610735606083016104f5565b606082015292915050565b60006080828403121561075257600080fd5b61075a6103e3565b905061076582610562565b815261077360208301610562565b602082015261078460408301610562565b604082015261073560608301610562565b600080604083850312156107a857600080fd5b82359150602083013567ffffffffffffffff808211156107c757600080fd5b9084019061018082870312156107dc57600080fd5b6107e4610430565b8235828111156107f357600080fd5b6107ff88828601610485565b82525060208301358281111561081457600080fd5b61082088828601610485565b602083015250610832604084016104f5565b604082015260608301358281111561084957600080fd5b61085588828601610485565b606083015250610867608084016104f5565b608082015260a08301358281111561087e57600080fd5b61088a88828601610485565b60a08301525060c0830135828111156108a257600080fd5b6108ae88828601610583565b60c0830152506108c060e084016104f5565b60e082015261010091506108d687838501610740565b828201528093505050509250929050565b6000815180845260005b8181101561090d576020818501810151868301820152016108f1565b506000602082860101526020601f19601f83011685010191505092915050565b60006101a08c8352602081818501526109488285018e6108e7565b9150838203604085015261095c828d6108e7565b915060606001600160a01b03808d16606087015260808685036080880152610984858e6108e7565b945060a0828d1660a089015260c0925087860360c08901526109a6868d6108e7565b955060e088870360e08a0152608087018c516080895281815180845260a08b0191508983019350600092505b80831015610a9e57835180516cffffffffffffffffffffffffff168352808b015163ffffffff8116848d0152506040810151610a16604085018263ffffffff169052565b508981015161ffff16838b0152878101516001600160a01b03168884015286810151878401528881015162ffffff168984015285810151151586840152610100808201511515908401526101208082015115159084015261014080820151151590840152610160908101511515908301529289019260019290920191610180909101906109d2565b508e89015163ffffffff81168b8b0152975060408f01519850610ac660408b018a60ff169052565b60608f01519850610ae260608b018a6001600160a01b03169052565b6001600160a01b038e166101008d01529950610b0398505050505050505050565b825115156101208301526020830151151561014083015260408301511515610160830152606083015115156101808301529b9a5050505050505050505050565b600060018201610b6357634e487b7160e01b600052601160045260246000fd5b506001019056fea2646970667358221220baefa12d0270e14d97d70c221ef2470e6cf7da7d2ed0e411660cddffdb9dcf4864736f6c63430008170033",
	"deployedBytecode": "0x608060405234801561001057600080fd5b506004361061004c5760003560e01c80632230819f14610051578063507f14651461008057806389a56bbc146100a7578063a54eb242146100ce575b600080fd5b61006461005f366004610795565b6100f5565b6040516001600160a01b03909116815260200160405180910390f35b6100647f000000000000000000000000669e8e2d861d357434d95d4359bef1fe4026e47881565b6100647f0000000000000000000000002012f03c32098e0a045d3e44df5bad538e23a5ff81565b6100647f000000000000000000000000323dd5a5ed60468401528f220cb8adbb9f85592081565b60006101207f000000000000000000000000323dd5a5ed60468401528f220cb8adbb9f855920610342565b9050806001600160a01b031663c07f2f9b84846000015185602001518660400151876060015188608001518960a001518a60c001517f000000000000000000000000669e8e2d861d357434d95d4359bef1fe4026e4788c61010001516040518b63ffffffff1660e01b81526004016101a19a9998979695949392919061092d565b600060405180830381600087803b1580156101bb57600080fd5b505af11580156101cf573d6000803e3d6000fd5b50506040517ff2fde38b0000000000000000000000000000000000000000000000000000000081523360048201526001600160a01b038416925063f2fde38b9150602401600060405180830381600087803b15801561022d57600080fd5b505af1158015610241573d6000803e3d6000fd5b505050507f0000000000000000000000002012f03c32098e0a045d3e44df5bad538e23a5ff6001600160a01b031663b94417ab30600080815461028390610b43565b91829055506040517fffffffff0000000000000000000000000000000000000000000000000000000060e085901b1681526001600160a01b0390921660048301526024820152604401600060405180830381600087803b1580156102e657600080fd5b505af11580156102fa573d6000803e3d6000fd5b50506040516001600160a01b03841681528592507fa42f6bb68e81f4650a7966f109d861f6c3d2a477e608e30807f568bed1cebdb9915060200160405180910390a292915050565b6000763d602d80600a3d3981f3363d3d373d3d3d363d730000008260601b60e81c176000526e5af43d82803e903d91602b57fd5bf38260781b17602052603760096000f090506001600160a01b0381166103c8576040517fc2f868f400000000000000000000000000000000000000000000000000000000815260040160405180910390fd5b919050565b634e487b7160e01b600052604160045260246000fd5b6040516080810167ffffffffffffffff81118282101715610406576104066103cd565b60405290565b604051610180810167ffffffffffffffff81118282101715610406576104066103cd565b604051610120810167ffffffffffffffff81118282101715610406576104066103cd565b604051601f8201601f1916810167ffffffffffffffff8111828210171561047d5761047d6103cd565b604052919050565b600082601f83011261049657600080fd5b813567ffffffffffffffff8111156104b0576104b06103cd565b6104c3601f8201601f1916602001610454565b8181528460208386010111156104d857600080fd5b816020850160208301376000918101602001919091529392505050565b80356001600160a01b03811681146103c857600080fd5b80356cffffffffffffffffffffffffff811681146103c857600080fd5b803563ffffffff811681146103c857600080fd5b803561ffff811681146103c857600080fd5b803562ffffff811681146103c857600080fd5b803580151581146103c857600080fd5b803560ff811681146103c857600080fd5b6000608080838503121561059657600080fd5b61059e6103e3565b9150823567ffffffffffffffff808211156105b857600080fd5b818501915085601f8301126105cc57600080fd5b81356020828211156105e0576105e06103cd565b6105ee818360051b01610454565b828152818101935061018092830285018201928984111561060e57600080fd5b948201945b838610156107015780868b03121561062b5760008081fd5b61063361040c565b61063c8761050c565b8152610649848801610529565b84820152604061065a818901610529565b90820152606061066b88820161053d565b9082015261067a8789016104f5565b8189015260a0878101359082015260c061069581890161054f565b9082015260e06106a6888201610562565b908201526101006106b8888201610562565b908201526101206106ca888201610562565b908201526101406106dc888201610562565b908201526101606106ee888201610562565b9082015285529485019493820193610613565b50865261070f878201610529565b81870152505050505061072460408301610572565b6040820152610735606083016104f5565b606082015292915050565b60006080828403121561075257600080fd5b61075a6103e3565b905061076582610562565b815261077360208301610562565b602082015261078460408301610562565b604082015261073560608301610562565b600080604083850312156107a857600080fd5b82359150602083013567ffffffffffffffff808211156107c757600080fd5b9084019061018082870312156107dc57600080fd5b6107e4610430565b8235828111156107f357600080fd5b6107ff88828601610485565b82525060208301358281111561081457600080fd5b61082088828601610485565b602083015250610832604084016104f5565b604082015260608301358281111561084957600080fd5b61085588828601610485565b606083015250610867608084016104f5565b608082015260a08301358281111561087e57600080fd5b61088a88828601610485565b60a08301525060c0830135828111156108a257600080fd5b6108ae88828601610583565b60c0830152506108c060e084016104f5565b60e082015261010091506108d687838501610740565b828201528093505050509250929050565b6000815180845260005b8181101561090d576020818501810151868301820152016108f1565b506000602082860101526020601f19601f83011685010191505092915050565b60006101a08c8352602081818501526109488285018e6108e7565b9150838203604085015261095c828d6108e7565b915060606001600160a01b03808d16606087015260808685036080880152610984858e6108e7565b945060a0828d1660a089015260c0925087860360c08901526109a6868d6108e7565b955060e088870360e08a0152608087018c516080895281815180845260a08b0191508983019350600092505b80831015610a9e57835180516cffffffffffffffffffffffffff168352808b015163ffffffff8116848d0152506040810151610a16604085018263ffffffff169052565b508981015161ffff16838b0152878101516001600160a01b03168884015286810151878401528881015162ffffff168984015285810151151586840152610100808201511515908401526101208082015115159084015261014080820151151590840152610160908101511515908301529289019260019290920191610180909101906109d2565b508e89015163ffffffff81168b8b0152975060408f01519850610ac660408b018a60ff169052565b60608f01519850610ae260608b018a6001600160a01b03169052565b6001600160a01b038e166101008d01529950610b0398505050505050505050565b825115156101208301526020830151151561014083015260408301511515610160830152606083015115156101808301529b9a5050505050505050505050565b600060018201610b6357634e487b7160e01b600052601160045260246000fd5b506001019056fea2646970667358221220baefa12d0270e14d97d70c221ef2470e6cf7da7d2ed0e411660cddffdb9dcf4864736f6c63430008170033",
	"devdoc": {
		"kind": "dev",
		"methods": {
			"constructor": {
				"params": {
					"addressRegistry": "A registry which stores references to contracts and their deployers.",
					"hook": "Reference copy of a hook."
				}
			},
			"deployHookFor(uint256,(string,string,address,string,address,string,((uint104,uint32,uint32,uint16,address,bytes32,uint24,bool,bool,bool,bool,bool)[],uint32,uint8,address),address,(bool,bool,bool,bool)))": {
				"params": {
					"deployTiersHookConfig": "The config to deploy the hook with, which determines its behavior.",
					"projectId": "The ID of the project to deploy the hook for."
				},
				"returns": {
					"newHook": "The address of the newly deployed hook."
				}
			}
		},
		"version": 1
	},
	"userdoc": {
		"kind": "user",
		"methods": {
			"ADDRESS_REGISTRY()": {
				"notice": "A registry which stores references to contracts and their deployers."
			},
			"HOOK()": {
				"notice": "A 721 tiers hook."
			},
			"STORE()": {
				"notice": "The contract that stores and manages data for this contract's NFTs."
			},
			"deployHookFor(uint256,(string,string,address,string,address,string,((uint104,uint32,uint32,uint16,address,bytes32,uint24,bool,bool,bool,bool,bool)[],uint32,uint8,address),address,(bool,bool,bool,bool)))": {
				"notice": "Deploys a 721 tiers hook for the specified project."
			}
		},
		"version": 1
	},
	"gitCommit": "0ffcece295a2a9ff3878fbb9496ab6688eab8049",
	"sourceName": "src/JB721TiersHookDeployer.sol",
	"chainId": "11155111",
	"linkReferences": {},
	"deployedLinkReferences": {},
	"history": []
}