{
	"_format": "sphinx-sol-ct-artifact-1",
	"merkleRoot": "0x8b301a65089f933bbe7065207de564f31cf7fa4026a0dad20293e6755f8e2beb",
	"contractName": "JBAddressRegistry",
	"address": "0x2012f03C32098e0a045d3e44df5bAD538e23a5FF",
	"abi": [
		{
			"type": "constructor",
			"inputs": [],
			"stateMutability": "nonpayable"
		},
		{
			"type": "function",
			"name": "deployerOf",
			"inputs": [
				{
					"name": "addr",
					"type": "address",
					"internalType": "address"
				}
			],
			"outputs": [
				{
					"name": "deployer",
					"type": "address",
					"internalType": "address"
				}
			],
			"stateMutability": "view"
		},
		{
			"type": "function",
			"name": "registerAddress",
			"inputs": [
				{
					"name": "deployer",
					"type": "address",
					"internalType": "address"
				},
				{
					"name": "nonce",
					"type": "uint256",
					"internalType": "uint256"
				}
			],
			"outputs": [],
			"stateMutability": "nonpayable"
		},
		{
			"type": "function",
			"name": "registerAddress",
			"inputs": [
				{
					"name": "deployer",
					"type": "address",
					"internalType": "address"
				},
				{
					"name": "salt",
					"type": "bytes32",
					"internalType": "bytes32"
				},
				{
					"name": "bytecode",
					"type": "bytes",
					"internalType": "bytes"
				}
			],
			"outputs": [],
			"stateMutability": "nonpayable"
		},
		{
			"type": "event",
			"name": "AddressRegistered",
			"inputs": [
				{
					"name": "addr",
					"type": "address",
					"indexed": true,
					"internalType": "address"
				},
				{
					"name": "deployer",
					"type": "address",
					"indexed": true,
					"internalType": "address"
				}
			],
			"anonymous": false
		}
	],
	"solcInputHash": "e9e77e2878df24a1da262ee8cc19618a",
	"args": [],
	"bytecode": "0x608060405234801561001057600080fd5b5061070d806100206000396000f3fe608060405234801561001057600080fd5b50600436106100415760003560e01c8063416dc73214610046578063b94417ab146100a5578063da3c8b0a146100ba575b600080fd5b61007c6100543660046105f4565b60006020819052908152604090205473ffffffffffffffffffffffffffffffffffffffff1681565b60405173ffffffffffffffffffffffffffffffffffffffff909116815260200160405180910390f35b6100b86100b3366004610616565b6100cd565b005b6100b86100c8366004610640565b6100ea565b60006100d98383610193565b90506100e5818461054f565b505050565b600060ff60f81b858585856040516101039291906106c7565b604051908190038120610167949392916020017fff0000000000000000000000000000000000000000000000000000000000000094909416845260609290921b6bffffffffffffffffffffffff191660018401526015830152603582015260550190565b6040516020818303038152906040528051906020012060001c905061018c818661054f565b5050505050565b600060608260000361020f57604051606b60f91b6020820152602560fa1b60218201526bffffffffffffffffffffffff19606086901b1660228201527f800000000000000000000000000000000000000000000000000000000000000060368201526037015b604051602081830303815290604052905061053b565b607f831161027b57604051606b60f91b6020820152602560fa1b60218201526bffffffffffffffffffffffff19606086901b16602282015260f884901b7fff000000000000000000000000000000000000000000000000000000000000001660368201526037016101f9565b60ff8311610329576040517fd7000000000000000000000000000000000000000000000000000000000000006020820152602560fa1b60218201526bffffffffffffffffffffffff19606086901b1660228201527f8100000000000000000000000000000000000000000000000000000000000000603682015260f884901b7fff000000000000000000000000000000000000000000000000000000000000001660378201526038016101f9565b61ffff83116103d8576040517fd8000000000000000000000000000000000000000000000000000000000000006020820152602560fa1b60218201526bffffffffffffffffffffffff19606086901b1660228201527f820000000000000000000000000000000000000000000000000000000000000060368201527fffff00000000000000000000000000000000000000000000000000000000000060f085901b1660378201526039016101f9565b62ffffff8311610488576040517fd9000000000000000000000000000000000000000000000000000000000000006020820152602560fa1b60218201526bffffffffffffffffffffffff19606086901b1660228201527f830000000000000000000000000000000000000000000000000000000000000060368201527fffffff000000000000000000000000000000000000000000000000000000000060e885901b166037820152603a016101f9565b6040517fda000000000000000000000000000000000000000000000000000000000000006020820152602560fa1b60218201526bffffffffffffffffffffffff19606086901b1660228201527f840000000000000000000000000000000000000000000000000000000000000060368201527fffffffff0000000000000000000000000000000000000000000000000000000060e085901b166037820152603b0160405160208183030381529060405290505b805160209091012060008190529392505050565b73ffffffffffffffffffffffffffffffffffffffff82811660008181526020819052604080822080547fffffffffffffffffffffffff0000000000000000000000000000000000000000169486169485179055517f72b627b4904fa8a0160a923aa5b142eb19f6e56dc75017884162206f8886df099190a35050565b803573ffffffffffffffffffffffffffffffffffffffff811681146105ef57600080fd5b919050565b60006020828403121561060657600080fd5b61060f826105cb565b9392505050565b6000806040838503121561062957600080fd5b610632836105cb565b946020939093013593505050565b6000806000806060858703121561065657600080fd5b61065f856105cb565b935060208501359250604085013567ffffffffffffffff8082111561068357600080fd5b818701915087601f83011261069757600080fd5b8135818111156106a657600080fd5b8860208285010111156106b857600080fd5b95989497505060200194505050565b818382376000910190815291905056fea264697066735822122087b16ed222ec895837695a834f677a4c5fd620b96d1850856e47c17d211e0d7d64736f6c63430008170033",
	"devdoc": {
		"kind": "dev",
		"methods": {
			"registerAddress(address,bytes32,bytes)": {
				"details": "The contract must be deployed using `create2`.The `create2` salt is determined by the deployer's logic. The deployment bytecode can be retrieved offchain (from the deployment transaction) or onchain (with `abi.encodePacked(type(deployedContract).creationCode, abi.encode(constructorArguments))`).",
				"params": {
					"bytecode": "The contract's deployment bytecode, including the constructor arguments.",
					"deployer": "The address which deployed the contract.",
					"salt": "The `create2` salt used to deploy the contract."
				}
			},
			"registerAddress(address,uint256)": {
				"details": "The contract must be deployed using `create`.",
				"params": {
					"deployer": "The address which deployed the contract.",
					"nonce": "The nonce used to deploy the contract."
				}
			}
		},
		"version": 1
	},
	"userdoc": {
		"kind": "user",
		"methods": {
			"deployerOf(address)": {
				"notice": "Returns the deployer of a given contract, contingent on the deployer registering the deployment."
			},
			"registerAddress(address,bytes32,bytes)": {
				"notice": "Add a contract address to the registry."
			},
			"registerAddress(address,uint256)": {
				"notice": "Add a contract address to the registry."
			}
		},
		"version": 1
	},
	"gitCommit": "0ffcece295a2a9ff3878fbb9496ab6688eab8049",
	"sourceName": "node_modules/@bananapus/address-registry/src/JBAddressRegistry.sol",
	"chainId": "11155111",
	"linkReferences": {},
	"deployedLinkReferences": {},
	"history": []
}