{
	"_format": "sphinx-sol-ct-artifact-1",
	"merkleRoot": "0x12b044e9fda9fd9fff36bce2ef37a06e24a74b0fff26e1556dcfc5f12207db4d",
	"contractName": "JBArbitrumSuckerDeployer",
	"address": "0x42113A4D075450b57AF4bC903f1cab763F71A108",
	"abi": [
		{
			"type": "constructor",
			"inputs": [
				{
					"name": "directory",
					"type": "address",
					"internalType": "contract IJBDirectory"
				},
				{
					"name": "tokens",
					"type": "address",
					"internalType": "contract IJBTokens"
				},
				{
					"name": "permissions",
					"type": "address",
					"internalType": "contract IJBPermissions"
				},
				{
					"name": "_configurator",
					"type": "address",
					"internalType": "address"
				}
			],
			"stateMutability": "nonpayable"
		},
		{
			"type": "function",
			"name": "LAYER",
			"inputs": [],
			"outputs": [
				{
					"name": "",
					"type": "uint8",
					"internalType": "enum JBLayer"
				}
			],
			"stateMutability": "view"
		},
		{
			"type": "function",
			"name": "PERMISSIONS",
			"inputs": [],
			"outputs": [
				{
					"name": "",
					"type": "address",
					"internalType": "contract IJBPermissions"
				}
			],
			"stateMutability": "view"
		},
		{
			"type": "function",
			"name": "TEMP_ID_STORE",
			"inputs": [],
			"outputs": [
				{
					"name": "",
					"type": "uint256",
					"internalType": "uint256"
				}
			],
			"stateMutability": "view"
		},
		{
			"type": "function",
			"name": "createForSender",
			"inputs": [
				{
					"name": "localProjectId",
					"type": "uint256",
					"internalType": "uint256"
				},
				{
					"name": "salt",
					"type": "bytes32",
					"internalType": "bytes32"
				}
			],
			"outputs": [
				{
					"name": "sucker",
					"type": "address",
					"internalType": "contract IJBSucker"
				}
			],
			"stateMutability": "nonpayable"
		},
		{
			"type": "function",
			"name": "gatewayRouter",
			"inputs": [],
			"outputs": [
				{
					"name": "gateway",
					"type": "address",
					"internalType": "contract IArbGatewayRouter"
				}
			],
			"stateMutability": "view"
		},
		{
			"type": "function",
			"name": "isSucker",
			"inputs": [
				{
					"name": "",
					"type": "address",
					"internalType": "address"
				}
			],
			"outputs": [
				{
					"name": "",
					"type": "bool",
					"internalType": "bool"
				}
			],
			"stateMutability": "view"
		},
		{
			"type": "error",
			"name": "ALREADY_CONFIGURED",
			"inputs": []
		},
		{
			"type": "error",
			"name": "ONLY_SUCKERS",
			"inputs": []
		},
		{
			"type": "error",
			"name": "UNAUTHORIZED",
			"inputs": []
		}
	],
	"solcInputHash": "e48cabaaa44eb11807a8aae51f81b610",
	"args": [
		"0x992f9e3a81c77Cb940A29311558343E1AC66c40F",
		"0x78BB9e2C5F534A7B94608becAfF491c57e2cD819",
		"0x9CA9BC9d5e7e20fC2f1D750807fA30c86b7989F8",
		"0x0FF306a08cf4E16570ab7a6bD95Ba52d2fe64D45"
	],
	"bytecode": "0x61012060405234801561001157600080fd5b506040516153d03803806153d08339810160408190526100309161006b565b6001600160a01b0391821660805281166101005291821660a0521660c0526100ca565b6001600160a01b038116811461006857600080fd5b50565b6000806000806080858703121561008157600080fd5b845161008c81610053565b602086015190945061009d81610053565b60408601519093506100ae81610053565b60608601519092506100bf81610053565b939692955090935050565b60805160a05160c05160e051610100516152bf61011160003960005050600060ee0152600061024801526000610227015260008181610122015261026901526152bf6000f3fe608060405234801561001057600080fd5b50600436106100625760003560e01c806303c85ea314610067578063121303661461008c578063ba8b1d1a1461009f578063c39ec124146100b6578063c86719b7146100e9578063f434c9141461011d575b600080fd5b61006f610144565b6040516001600160a01b0390911681526020015b60405180910390f35b61006f61009a3660046102fd565b6101dd565b6100a860015481565b604051908152602001610083565b6100d96100c436600461031f565b60006020819052908152604090205460ff1681565b6040519015158152602001610083565b6101107f000000000000000000000000000000000000000000000000000000000000000081565b6040516100839190610370565b61006f7f000000000000000000000000000000000000000000000000000000000000000081565b600046600019810161016b577372ce9c846789fdb6fc1f34ac4ad25dd9ef7031ef91505090565b61a4b1810361018f57735288c571fd7ad117bea99bf60fe0846c4e84f93391505090565b62aa36a781036101b45773ce18836b233c83325cc8848ca4487e94c628826491505090565b62066eee81036101d957739fdd1c4e4aa24eec1d913fabea925594a20d43c791505090565b5090565b6040516bffffffffffffffffffffffff193360601b1660208201526034810182905260009060540160405160208183030381529060405280519060200120915082600181905550817f00000000000000000000000000000000000000000000000000000000000000007f00000000000000000000000000000000000000000000000000000000000000007f0000000000000000000000000000000000000000000000000000000000000000600080604051610297906102f0565b6102a5959493929190610383565b8190604051809103906000f59050801580156102c5573d6000803e3d6000fd5b506001600160a01b0381166000908152602081905260409020805460ff191660011790559392505050565b614ec5806103c583390190565b6000806040838503121561031057600080fd5b50508035926020909101359150565b60006020828403121561033157600080fd5b81356001600160a01b038116811461034857600080fd5b9392505050565b6002811061036d57634e487b7160e01b600052602160045260246000fd5b50565b6020810161037d8361034f565b91905290565b6001600160a01b038681168252858116602083015284811660408301528316606082015260a081016103b48361034f565b826080830152969550505050505056fe6101c06040523480156200001257600080fd5b5060405162004ec538038062004ec5833981016040819052620000359162000298565b8484848484336001600160a01b031663ba8b1d1a6040518163ffffffff1660e01b8152600401602060405180830381865afa15801562000079573d6000803e3d6000fd5b505050506040513d601f19601f820116820180604052508101906200009f91906200031b565b6001600160a01b0380851660805286811660c05285811660e052831615620000c85782620000ca565b305b6001600160a01b0316610120526101408190523361010052816001811115620000f757620000f762000335565b60a08160018111156200010e576200010e62000335565b90525050469450620001279350849250506200024a9050565b620001455760405163f21c9f0760e01b815260040160405180910390fd5b600181148062000157575062aa36a781145b15620001ab57600061016052600181146200018d5773aae29b0366299461418f5324a79afc425be5ae216101a0819052620001a9565b734dbd4fc535ac27206064b68ffcf827b0a60bab3f6101a08190525b505b61a4b1811480620001be575062066eee81145b15620001cb576001610160525b336001600160a01b03166303c85ea36040518163ffffffff1660e01b8152600401602060405180830381865afa1580156200020a573d6000803e3d6000fd5b505050506040513d601f19601f820116820180604052508101906200023091906200034b565b6001600160a01b0316610180525062000372945050505050565b600060018214806200025e575062aa36a782145b806200026b575061a4b182145b8062000279575062066eee82145b92915050565b6001600160a01b03811681146200029557600080fd5b50565b600080600080600060a08688031215620002b157600080fd5b8551620002be816200027f565b6020870151909550620002d1816200027f565b6040870151909450620002e4816200027f565b6060870151909350620002f7816200027f565b6080870151909250600281106200030d57600080fd5b809150509295509295909350565b6000602082840312156200032e57600080fd5b5051919050565b634e487b7160e01b600052602160045260246000fd5b6000602082840312156200035e57600080fd5b81516200036b816200027f565b9392505050565b60805160a05160c05160e05161010051610120516101405161016051610180516101a0516149db620004ea600039600081816103b901528181611ce5015281816133ea015261366301526000818161053c015281816134d4015281816135470152818161377e0152613817015260008181610508015281816114390152611cac0152600081816102200152818161080b0152818161088801528181610a2501528181610eae01528181610f57015281816115980152818161165d015281816116da0152818161195b01528181611a1401528181611b160152611c3e01526000818161038501528181611e5101528181611e9901528181613579015281816136930152818161384601526138df0152600061049301526000818161016d0152610a4e0152600081816103510152818161077c01528181610ed4015281816115d3015261198a0152600081816104c701528181610bc401528181610e5001526110690152600081816105fc015261122201526149db6000f3fe60806040526004361061014f5760003560e01c8063b1012368116100b6578063c6525f2c1161006f578063c6525f2c146104b5578063c86719b7146104f6578063defbb6971461052a578063e7f82c751461055e578063ed0e26b91461058b578063f434c914146105ea57600080fd5b8063b1012368146103a7578063b59ef50f146103db578063b71c1179146103fb578063bf557aee1461040e578063c185412914610461578063c1b8411a1461048157600080fd5b806369ce22331161010857806369ce22331461026557806369d31fdd146102855780636dfa7268146102985780637de6fba2146102c757806388bc2ef31461033f578063ad42938b1461037357600080fd5b80631d831d5c1461015b5780632241dc52146101ac57806338eb2044146101ce578063551ebbf0146101ee57806356539f391461020e57806361c864171461025057600080fd5b3661015657005b600080fd5b34801561016757600080fd5b5061018f7f000000000000000000000000000000000000000000000000000000000000000081565b6040516001600160a01b0390911681526020015b60405180910390f35b3480156101b857600080fd5b506101cc6101c73660046141d7565b61061e565b005b3480156101da57600080fd5b506101cc6101e9366004614263565b610656565b3480156101fa57600080fd5b506101cc610209366004614294565b6109ef565b34801561021a57600080fd5b506102427f000000000000000000000000000000000000000000000000000000000000000081565b6040519081526020016101a3565b34801561025c57600080fd5b50610242610b6e565b34801561027157600080fd5b506101cc6102803660046142de565b610bc0565b6101cc610293366004614263565b610c39565b3480156102a457600080fd5b506102b86102b33660046142de565b610daa565b6040516101a3939291906142fb565b3480156102d357600080fd5b506103156102e23660046142de565b6003602052600090815260409020805460019091015463ffffffff82169164010000000090046001600160a01b03169083565b6040805163ffffffff90941684526001600160a01b039092166020840152908201526060016101a3565b34801561034b57600080fd5b5061018f7f000000000000000000000000000000000000000000000000000000000000000081565b34801561037f57600080fd5b5061018f7f000000000000000000000000000000000000000000000000000000000000000081565b3480156103b357600080fd5b5061018f7f000000000000000000000000000000000000000000000000000000000000000081565b3480156103e757600080fd5b506101cc6103f6366004614354565b610e14565b6101cc6104093660046142de565b6110e8565b34801561041a57600080fd5b506104516104293660046142de565b6001600160a01b03908116600090815260036020526040902054640100000000900416151590565b60405190151581526020016101a3565b34801561046d57600080fd5b506101cc61047c366004614367565b611196565b34801561048d57600080fd5b5061018f7f000000000000000000000000000000000000000000000000000000000000000081565b3480156104c157600080fd5b506104e97f000000000000000000000000000000000000000000000000000000000000000081565b6040516101a391906143fe565b34801561050257600080fd5b506104e97f000000000000000000000000000000000000000000000000000000000000000081565b34801561053657600080fd5b5061018f7f000000000000000000000000000000000000000000000000000000000000000081565b34801561056a57600080fd5b506102426105793660046142de565b60026020526000908152604090205481565b34801561059757600080fd5b506105cb6105a63660046142de565b600160208190526000918252604090912080549101546001600160401b039091169082565b604080516001600160401b0390931683526020830191909152016101a3565b3480156105f657600080fd5b5061018f7f000000000000000000000000000000000000000000000000000000000000000081565b60005b818110156106515761064983838381811061063e5761063e614411565b905060800201610656565b600101610621565b505050565b600061066560208301836142de565b9050600061eeee61067960208501856142de565b6001600160a01b03161490508080156106ac575061eeee6106a060608501604086016142de565b6001600160a01b031614155b80156106d1575060006106c560608501604086016142de565b6001600160a01b031614155b15610710576106e660608401604085016142de565b604051630a0a3b6b60e31b81526001600160a01b0390911660048201526024015b60405180910390fd5b62030d406107246040850160208601614427565b63ffffffff16108015610735575080155b156107775762030d4061074e6040850160208601614427565b604051634f3dbeb360e11b815263ffffffff928316600482015291166024820152604401610707565b6108ae7f00000000000000000000000000000000000000000000000000000000000000006001600160a01b031663293c49996040518163ffffffff1660e01b8152600401602060405180830381865afa1580156107d8573d6000803e3d6000fd5b505050506040513d601f19601f820116820180604052508101906107fc919061444d565b6040516331a9108f60e11b81527f000000000000000000000000000000000000000000000000000000000000000060048201526001600160a01b039190911690636352211e90602401602060405180830381865afa158015610862573d6000803e3d6000fd5b505050506040513d601f19601f82011682018060405250810190610886919061444d565b7f0000000000000000000000000000000000000000000000000000000000000000601b6111ca565b60006108c060608501604086016142de565b6001600160a01b03161480156108f057506001600160a01b03821660009081526020819052604090206001015415155b1561094b576001600160a01b0380831660009081526003602090815260408083208151606081018352815463ffffffff811682526401000000009004909516928501929092526001909101549083015261094b9184906112b3565b60405180606001604052808460200160208101906109699190614427565b63ffffffff16815260200161098460608601604087016142de565b6001600160a01b0390811682526060909501356020918201529284166000908152600384526040908190208251815495840151909616640100000000026001600160c01b031990951663ffffffff909616959095179390931784559091015160019092019190915550565b6001600160a01b038316610a16576040516309a9c30b60e41b815260040160405180910390fd5b60405163ea78803f60e01b81527f000000000000000000000000000000000000000000000000000000000000000060048201526000907f00000000000000000000000000000000000000000000000000000000000000006001600160a01b03169063ea78803f90602401602060405180830381865afa158015610a9d573d6000803e3d6000fd5b505050506040513d601f19601f82011682018060405250810190610ac1919061444d565b90506001600160a01b038116610aea57604051635a33845560e01b815260040160405180910390fd5b6001600160a01b03828116600090815260036020526040902054640100000000900416610b355760405163393e175160e01b81526001600160a01b0383166004820152602401610707565b610b4a6001600160a01b038216333088611522565b6000610b5882878587611589565b9050610b668684838861177c565b505050505050565b6000466000198101610b835761a4b191505090565b61a4b18103610b9457600191505090565b62aa36a78103610ba85762066eee91505090565b62066eee8103610bbc5762aa36a791505090565b5090565b60007f00000000000000000000000000000000000000000000000000000000000000006001811115610bf457610bf46143ca565b14610c125760405163218a9a2d60e11b815260040160405180910390fd5b6001600160a01b038116600090815260026020526040902054610c369082906118f5565b50565b610c4233611ca7565b610c5f57604051630439dbd360e51b815260040160405180910390fd5b60208101803590600290600090610c7690856142de565b6001600160a01b03166001600160a01b031681526020019081526020016000206000828254610ca59190614480565b90915550600190506000610cbc60208401846142de565b6001600160a01b0316815260208101919091526040908101600020546001600160401b031690610cf290606084019084016144a8565b6001600160401b03161115610c36576040810160016000610d1660208501856142de565b6001600160a01b031681526020810191909152604001600020610d3982826144c5565b50610d49905060208201826142de565b6001600160a01b03167f551b6b99b4c48e3265d2885ab0d93779be2402293261e074f7bf74b2c8f45b6f610d8360608401604085016144a8565b604080516001600160401b039092168252606085013560208301520160405180910390a250565b6000602081815291815260409081902080546001820154835161044081018086526001600160401b0390931695919490926002850192849283019184919082845b815481526020019060010190808311610deb575050509183525050602091820154910152905083565b610e4c6060820135610e2960208401846142de565b6080840135610e3e60608601604087016142de565b602086013560a08701611ed4565b60017f00000000000000000000000000000000000000000000000000000000000000006001811115610e8057610e806143ca565b03610e9f57610e9f610e9560208301836142de565b60808301356118f5565b604051632eec7b5560e11b81527f000000000000000000000000000000000000000000000000000000000000000060048201527f00000000000000000000000000000000000000000000000000000000000000006001600160a01b031690635dd8f6aa90602401602060405180830381865afa158015610f23573d6000803e3d6000fd5b505050506040513d601f19601f82011682018060405250810190610f47919061444d565b6001600160a01b031663c7fb92de7f000000000000000000000000000000000000000000000000000000000000000060608401803590610f8a90604087016142de565b6040516001600160e01b031960e086901b168152600481019390935260248301919091526001600160a01b0316604482015260a06064820152600060a48201819052608482015260c4016020604051808303816000875af1158015610ff3573d6000803e3d6000fd5b505050506040513d601f19601f8201168201806040525081019061101791906144f8565b507f487194902d206a126abe9f23a4e2b78d1600ed8034b1423290a13edd6ebc7d1461104960608301604084016142de565b61105660208401846142de565b60608401356080850135602086013560017f00000000000000000000000000000000000000000000000000000000000000006001811115611099576110996143ca565b146110a55760006110a8565b60015b604080516001600160a01b0397881681529690951660208701529385019290925260608401526080830152151560a082015260c00160405180910390a150565b6001600160a01b0380821660008181526003602090815260408083208151606081018352815463ffffffff811682526401000000009004909616868401526001908101548683018190529484529183905290912001541015611187576040808201516001600160a01b03841660009081526020819052829020600101549151632cec92e160e21b81526107079290600401918252602082015260400190565b6111923483836112b3565b5050565b60005b81811015610651576111c28383838181106111b6576111b6614411565b90506104a00201610e14565b600101611199565b336001600160a01b038416811480159061128f5750604051631a45b42760e11b81526001600160a01b0382811660048301528581166024830152604482018590526064820184905260016084830181905260a48301527f0000000000000000000000000000000000000000000000000000000000000000169063348b684e9060c401602060405180830381865afa158015611269573d6000803e3d6000fd5b505050506040513d601f19601f8201168201806040525081019061128d9190614511565b155b156112ad5760405163075fd2b160e01b815260040160405180910390fd5b50505050565b6001600160a01b03821660009081526020819052604081206001810180549083905581549092919082906112ef906001600160401b0316614533565b91906101000a8154816001600160401b0302191690836001600160401b031602179055905060006001600160a01b031683602001516001600160a01b0316036113565760405163393e175160e01b81526001600160a01b0385166004820152602401610707565b6000604051806060016040528085602001516001600160a01b031681526020018481526020016040518060400160405280856001600160401b031681526020016113c56000808b6001600160a01b03166001600160a01b03168152602001908152602001600020600201612004565b905290526040805182516001600160a01b031660248201526020808401516044830152929091015180516001600160401b0316606483015290910151608482015260a40160408051601f198184030181529190526020810180516001600160e01b03166369d31fdd60e01b179052905060007f00000000000000000000000000000000000000000000000000000000000000006001811115611469576114696143ca565b036114805761147b85878584886133ba565b61148c565b61148c85848387613726565b6001600160a01b03851660008181526020819052604090206114b090600201612004565b6001600160a01b0387166000908152602081905260409020602201547f3e069c1f498cba23d7d2b74b84311469e8da6e527cade62061d642c61b64e0de906114fa90600190614559565b604080519182526001600160401b0387166020830152015b60405180910390a3505050505050565b6040516001600160a01b0384811660248301528381166044830152606482018390526112ad9186918216906323b872dd906084015b604051602081830303815290604052915060e01b6020820180516001600160e01b03838183161783525050505061394c565b604051630862026560e41b81527f000000000000000000000000000000000000000000000000000000000000000060048201526001600160a01b03838116602483015260009182917f00000000000000000000000000000000000000000000000000000000000000001690638620265090604401602060405180830381865afa15801561161a573d6000803e3d6000fd5b505050506040513d601f19601f8201168201806040525081019061163e919061444d565b90506001600160a01b03811661169857604051630c9ae01360e01b81527f000000000000000000000000000000000000000000000000000000000000000060048201526001600160a01b0385166024820152604401610707565b60006116a485306139af565b60408051602081018252600081529051635db90a7f60e11b81529192506001600160a01b0384169163bb7214fe9161170a9130917f0000000000000000000000000000000000000000000000000000000000000000918b918d918c9186916004016145bc565b6020604051808303816000875af1158015611729573d6000803e3d6000fd5b505050506040513d601f19601f8201168201806040525081019061174d91906144f8565b92508061175a86306139af565b6117649190614559565b83146117725761177261460e565b5050949350505050565b6000611789858484613a48565b6001600160a01b0385166000908152602081815260408083208151610440810180845295965093946117f49487949093600290930192849290830191849182845b8154815260200190600101908083116117ca57505050918352505060209182015491015290613a8d565b6001600160a01b03861660009081526020818152604090912082519293508392600290910191611825918391614149565b50602091820151908201556001600160a01b03861660009081529081905260408120600101805486929061185a908490614480565b92505081905550846001600160a01b0316836001600160a01b03167f7b58dbb78e7edc690b0688a53dea0c443d630c4a5db66c3c47d4ff2044c9772884600185602001516118a89190614559565b6001600160a01b038a1660009081526020819052604090206118cc90600201612004565b60408051938452602084019290925290820152606081018a90526080810188905260a001611512565b6001600160a01b0382166000908152600260205260409020548082111561192f57604051632858f9ab60e11b815260040160405180910390fd5b6001600160a01b03838116600081815260026020526040808220868603905551630862026560e41b81527f000000000000000000000000000000000000000000000000000000000000000060048201526024810192909252917f00000000000000000000000000000000000000000000000000000000000000001690638620265090604401602060405180830381865afa1580156119d1573d6000803e3d6000fd5b505050506040513d601f19601f820116820180604052508101906119f5919061444d565b90506001600160a01b038116611a4f57604051630c9ae01360e01b81527f000000000000000000000000000000000000000000000000000000000000000060048201526001600160a01b0385166024820152604401610707565b6001600160a01b03841661eeee14611bff576040516370a0823160e01b81523060048201526000906001600160a01b038616906370a0823190602401602060405180830381865afa158015611aa8573d6000803e3d6000fd5b505050506040513d601f19601f82011682018060405250810190611acc91906144f8565b9050611ad9858386613b93565b60408051602080820183526000808352835191820184528082529251639e6eec0560e01b81526001600160a01b03861693639e6eec0593611b46937f0000000000000000000000000000000000000000000000000000000000000000938c938c9390929091600401614624565b600060405180830381600087803b158015611b6057600080fd5b505af1158015611b74573d6000803e3d6000fd5b505050508381611b849190614559565b6040516370a0823160e01b81523060048201526001600160a01b038716906370a0823190602401602060405180830381865afa158015611bc8573d6000803e3d6000fd5b505050506040513d601f19601f82011682018060405250810190611bec91906144f8565b14611bf957611bf961460e565b506112ad565b60408051602080820183526000808352835191820184528082529251639e6eec0560e01b81526001600160a01b03851693639e6eec05938893611c6f937f0000000000000000000000000000000000000000000000000000000000000000938c9387939192909190600401614624565b6000604051808303818588803b158015611c8857600080fd5b505af1158015611c9c573d6000803e3d6000fd5b505050505050505050565b6000807f00000000000000000000000000000000000000000000000000000000000000006001811115611cdc57611cdc6143ca565b03611e825760007f00000000000000000000000000000000000000000000000000000000000000006001600160a01b031663e78cea926040518163ffffffff1660e01b8152600401602060405180830381865afa158015611d41573d6000803e3d6000fd5b505050506040513d601f19601f82011682018060405250810190611d65919061444d565b9050806001600160a01b0316836001600160a01b0316148015611e7b5750806001600160a01b031663ab5d89436040518163ffffffff1660e01b8152600401602060405180830381865afa158015611dc1573d6000803e3d6000fd5b505050506040513d601f19601f82011682018060405250810190611de5919061444d565b6001600160a01b03166380648b026040518163ffffffff1660e01b8152600401602060405180830381865afa158015611e22573d6000803e3d6000fd5b505050506040513d601f19601f82011682018060405250810190611e46919061444d565b6001600160a01b03167f00000000000000000000000000000000000000000000000000000000000000006001600160a01b0316145b9392505050565b7311110000000000000000000000000000000011117f0000000000000000000000000000000000000000000000000000000000000000016001600160a01b0316826001600160a01b0316149050919050565b6001600160a01b0385166000908152600460209081526040808320600886901c8452909152902054600160ff84161b1615611f255760405163ed9bdd0760e01b815260048101839052602401610707565b6001600160a01b0385166000908152600460209081526040808320600886901c845290915281208054600160ff86161b179055611f94611f66888787613a48565b604080516104008181019092529085906020908390839080828437600092019190915250879150613c239050565b6001600160a01b038716600090815260016020819052604090912001549091508114611ffb576001600160a01b0386166000908152600160208190526040918290200154905163286f87c960e21b8152600481019190915260248101829052604401610707565b50505050505050565b602081015460009080820361203b57507f27ae5ba08d7291c96c8cbddcc148bf48a6d68c7974b94356f53754ef6171d75792915050565b600083600183161561205d578054600052600060205260406000209350612910565b60028316156120a25760018101546000527fad3228b676f7d3cd4284a5443f17f1962b36e491b30a40b2405849e597ba5fb56020526040600020935060019150612910565b60048316156120e75760028101546000527fb4c11951957c6f8f642c4af61cd6b24640fec6dc7fc607ee8206a99e92410d306020526040600020935060029150612910565b600883161561212c5760038101546000527f21ddb9a356815c3fac1026b6dec5df3124afbadb485c9ba5a3e3398a04b7ba856020526040600020935060039150612910565b60108316156121715760048101546000527fe58769b32a1beaf1ea27375a44095a0d1fb664ce2dd358e7fcbfb78c26a193446020526040600020935060049150612910565b60208316156121b65760058101546000527f0eb01ebfc9ed27500cd4dfc979272d1f0913cc9f66540d7e8005811109e1cf2d6020526040600020935060059150612910565b60408316156121fb5760068101546000527f887c22bd8750d34016ac3c66b5ff102dacdd73f6b014e710b51e8022af9a19686020526040600020935060069150612910565b60808316156122405760078101546000527fffd70157e48063fc33c97a050f7f640233bf646cc98d9524c6b92bcf3ab56f836020526040600020935060079150612910565b6101008316156122865760088101546000527f9867cc5f7f196b93bae1e27e6320742445d290f2263827498b54fec539f756af6020526040600020935060089150612910565b6102008316156122cc5760098101546000527fcefad4e508c098b9a7e1d8feb19955fb02ba9675585078710969d3440f5054e06020526040600020935060099150612910565b61040083161561231257600a8101546000527ff9dc3e7fe016e050eff260334f18a5d4fe391d82092319f5964f2e2eb7c1c3a560205260406000209350600a9150612910565b61080083161561235857600b8101546000527ff8b13a49e282f609c317a833fb8d976d11517c571d1221a265d25af778ecf89260205260406000209350600b9150612910565b61100083161561239e57600c8101546000527f3490c6ceeb450aecdc82e28293031d10c7d73bf85e57bf041a97360aa2c5d99c60205260406000209350600c9150612910565b6120008316156123e457600d8101546000527fc1df82d9c4b87413eae2ef048f94b4d3554cea73d92b0f7af96e0271c691e2bb60205260406000209350600d9150612910565b61400083161561242a57600e8101546000527f5c67add7c6caf302256adedf7ab114da0acfe870d449a3a489f781d659e8becc60205260406000209350600e9150612910565b61800083161561247057600f8101546000527fda7bce9f4e8618b6bd2f4132ce798cdc7a60e7e1460a7299e3c6342a579626d260205260406000209350600f9150612910565b620100008316156124b75760108101546000527f2733e50f526ec2fa19a22b31e8ed50f23cd1fdf94c9154ed3a7609a2f1ff981f6020526040600020935060109150612910565b620200008316156124fe5760118101546000527fe1d3b5c807b281e4683cc6d6315cf95b9ade8641defcb32372f1c126e398ef7a6020526040600020935060119150612910565b620400008316156125455760128101546000527f5a2dce0a8a7f68bb74560f8f71837c2c2ebbcbf7fffb42ae1896f13f7c7479a06020526040600020935060129150612910565b6208000083161561258c5760138101546000527fb46a28b6f55540f89444f63de0378e3d121be09e06cc9ded1c20e65876d36aa06020526040600020935060139150612910565b621000008316156125d35760148101546000527fc65e9645644786b620e2dd2ad648ddfcbf4a7e5b1a3a4ecfe7f64667a3f0b7e26020526040600020935060149150612910565b6220000083161561261a5760158101546000527ff4418588ed35a2458cffeb39b93d26f18d2ab13bdce6aee58e7b99359ec2dfd96020526040600020935060159150612910565b624000008316156126615760168101546000527f5a9c16dc00d6ef18b7933a6f8dc65ccb55667138776f7dea101070dc8796e3776020526040600020935060169150612910565b628000008316156126a85760178101546000527f4df84f40ae0c8229d0d6069e5c8f39a7c299677a09d367fc7b05e3bc380ee6526020526040600020935060179150612910565b63010000008316156126f05760188101546000527fcdc72595f74c7b1043d0e1ffbab734648c838dfb0527d971b602bc216c9619ef6020526040600020935060189150612910565b63020000008316156127385760198101546000527f0abf5ac974a1ed57f4050aa510dd9c74f508277b39d7973bb2dfccc5eeb0618d6020526040600020935060199150612910565b630400000083161561278057601a8101546000527fb8cd74046ff337f0a7bf2c8e03e10f642c1886798d71806ab1e888d9e5ee87d060205260406000209350601a9150612910565b63080000008316156127c857601b8101546000527f838c5655cb21c6cb83313b5a631175dff4963772cce9108188b34ac87c81c41e60205260406000209350601b9150612910565b631000000083161561281057601c8101546000527f662ee4dd2dd7b2bc707961b1e646c4047669dcb6584f0d8d770daf5d7e7deb2e60205260406000209350601c9150612910565b632000000083161561285857601d8101546000527f388ab20e2573d171a88108e79d820e98f26c0b84aa8b2f4aa4968dbb818ea32260205260406000209350601d9150612910565b63400000008316156128a057601e8101546000527f93237c50ba75ee485f4c22adf2f741400bdf8d6a9cc7df7ecae576221665d73560205260406000209350601e9150612910565b63800000008316156128e857601f8101546000527f8448818bb4ae4562849e949e17ac16e0be16688e156b5cf15e098c627c0056a960205260406000209350601f9150612910565b7f27ae5ba08d7291c96c8cbddcc148bf48a6d68c7974b94356f53754ef6171d7579350602091505b601e82116133b257600182101561296e5760028316801561293c57600182015460005284602052612965565b846000527fad3228b676f7d3cd4284a5443f17f1962b36e491b30a40b2405849e597ba5fb56020525b50604060002093505b60028210156129c457600483168015612992576002820154600052846020526129bb565b846000527fb4c11951957c6f8f642c4af61cd6b24640fec6dc7fc607ee8206a99e92410d306020525b50604060002093505b6003821015612a1a576008831680156129e857600382015460005284602052612a11565b846000527f21ddb9a356815c3fac1026b6dec5df3124afbadb485c9ba5a3e3398a04b7ba856020525b50604060002093505b6004821015612a7057601083168015612a3e57600482015460005284602052612a67565b846000527fe58769b32a1beaf1ea27375a44095a0d1fb664ce2dd358e7fcbfb78c26a193446020525b50604060002093505b6005821015612ac657602083168015612a9457600582015460005284602052612abd565b846000527f0eb01ebfc9ed27500cd4dfc979272d1f0913cc9f66540d7e8005811109e1cf2d6020525b50604060002093505b6006821015612b1c57604083168015612aea57600682015460005284602052612b13565b846000527f887c22bd8750d34016ac3c66b5ff102dacdd73f6b014e710b51e8022af9a19686020525b50604060002093505b6007821015612b7257608083168015612b4057600782015460005284602052612b69565b846000527fffd70157e48063fc33c97a050f7f640233bf646cc98d9524c6b92bcf3ab56f836020525b50604060002093505b6008821015612bc95761010083168015612b9757600882015460005284602052612bc0565b846000527f9867cc5f7f196b93bae1e27e6320742445d290f2263827498b54fec539f756af6020525b50604060002093505b6009821015612c205761020083168015612bee57600982015460005284602052612c17565b846000527fcefad4e508c098b9a7e1d8feb19955fb02ba9675585078710969d3440f5054e06020525b50604060002093505b600a821015612c775761040083168015612c4557600a82015460005284602052612c6e565b846000527ff9dc3e7fe016e050eff260334f18a5d4fe391d82092319f5964f2e2eb7c1c3a56020525b50604060002093505b600b821015612cce5761080083168015612c9c57600b82015460005284602052612cc5565b846000527ff8b13a49e282f609c317a833fb8d976d11517c571d1221a265d25af778ecf8926020525b50604060002093505b600c821015612d255761100083168015612cf357600c82015460005284602052612d1c565b846000527f3490c6ceeb450aecdc82e28293031d10c7d73bf85e57bf041a97360aa2c5d99c6020525b50604060002093505b600d821015612d7c5761200083168015612d4a57600d82015460005284602052612d73565b846000527fc1df82d9c4b87413eae2ef048f94b4d3554cea73d92b0f7af96e0271c691e2bb6020525b50604060002093505b600e821015612dd35761400083168015612da157600e82015460005284602052612dca565b846000527f5c67add7c6caf302256adedf7ab114da0acfe870d449a3a489f781d659e8becc6020525b50604060002093505b600f821015612e2a5761800083168015612df857600f82015460005284602052612e21565b846000527fda7bce9f4e8618b6bd2f4132ce798cdc7a60e7e1460a7299e3c6342a579626d26020525b50604060002093505b6010821015612e82576201000083168015612e5057601082015460005284602052612e79565b846000527f2733e50f526ec2fa19a22b31e8ed50f23cd1fdf94c9154ed3a7609a2f1ff981f6020525b50604060002093505b6011821015612eda576202000083168015612ea857601182015460005284602052612ed1565b846000527fe1d3b5c807b281e4683cc6d6315cf95b9ade8641defcb32372f1c126e398ef7a6020525b50604060002093505b6012821015612f32576204000083168015612f0057601282015460005284602052612f29565b846000527f5a2dce0a8a7f68bb74560f8f71837c2c2ebbcbf7fffb42ae1896f13f7c7479a06020525b50604060002093505b6013821015612f8a576208000083168015612f5857601382015460005284602052612f81565b846000527fb46a28b6f55540f89444f63de0378e3d121be09e06cc9ded1c20e65876d36aa06020525b50604060002093505b6014821015612fe2576210000083168015612fb057601482015460005284602052612fd9565b846000527fc65e9645644786b620e2dd2ad648ddfcbf4a7e5b1a3a4ecfe7f64667a3f0b7e26020525b50604060002093505b601582101561303a57622000008316801561300857601582015460005284602052613031565b846000527ff4418588ed35a2458cffeb39b93d26f18d2ab13bdce6aee58e7b99359ec2dfd96020525b50604060002093505b601682101561309257624000008316801561306057601682015460005284602052613089565b846000527f5a9c16dc00d6ef18b7933a6f8dc65ccb55667138776f7dea101070dc8796e3776020525b50604060002093505b60178210156130ea5762800000831680156130b8576017820154600052846020526130e1565b846000527f4df84f40ae0c8229d0d6069e5c8f39a7c299677a09d367fc7b05e3bc380ee6526020525b50604060002093505b6018821015613143576301000000831680156131115760188201546000528460205261313a565b846000527fcdc72595f74c7b1043d0e1ffbab734648c838dfb0527d971b602bc216c9619ef6020525b50604060002093505b601982101561319c5763020000008316801561316a57601982015460005284602052613193565b846000527f0abf5ac974a1ed57f4050aa510dd9c74f508277b39d7973bb2dfccc5eeb0618d6020525b50604060002093505b601a8210156131f5576304000000831680156131c357601a820154600052846020526131ec565b846000527fb8cd74046ff337f0a7bf2c8e03e10f642c1886798d71806ab1e888d9e5ee87d06020525b50604060002093505b601b82101561324e5763080000008316801561321c57601b82015460005284602052613245565b846000527f838c5655cb21c6cb83313b5a631175dff4963772cce9108188b34ac87c81c41e6020525b50604060002093505b601c8210156132a75763100000008316801561327557601c8201546000528460205261329e565b846000527f662ee4dd2dd7b2bc707961b1e646c4047669dcb6584f0d8d770daf5d7e7deb2e6020525b50604060002093505b601d821015613300576320000000831680156132ce57601d820154600052846020526132f7565b846000527f388ab20e2573d171a88108e79d820e98f26c0b84aa8b2f4aa4968dbb818ea3226020525b50604060002093505b601e8210156133595763400000008316801561332757601e82015460005284602052613350565b846000527f93237c50ba75ee485f4c22adf2f741400bdf8d6a9cc7df7ecae576221665d7356020525b50604060002093505b601f8210156133b25763800000008316801561338057601f820154600052846020526133a9565b846000527f8448818bb4ae4562849e949e17ac16e0be16688e156b5cf15e098c627c0056a96020525b50604060002093505b505050919050565b815160405163a66b327d60e01b81526004810191909152630bebc200602482015260009081906001600160a01b037f0000000000000000000000000000000000000000000000000000000000000000169063a66b327d90604401602060405180830381865afa158015613431573d6000803e3d6000fd5b505050506040513d601f19601f8201168201806040525081019061345591906144f8565b9050600061346a620493e0630bebc20061466b565b61347a9063ffffffff1683614480565b90508087101561349d57604051636eb14fc360e11b815260040160405180910390fd5b6001600160a01b03881661eeee1461363357604051635ed004ff60e11b81526001600160a01b03808a166004830152613545918a917f0000000000000000000000000000000000000000000000000000000000000000169063bda009fe90602401602060405180830381865afa15801561351b573d6000803e3d6000fd5b505050506040513d601f19601f8201168201806040525081019061353f919061444d565b88613b93565b7f00000000000000000000000000000000000000000000000000000000000000006001600160a01b0316634fb1a07b888a337f00000000000000000000000000000000000000000000000000000000000000008b620493e0630bebc2008a8e6040516020016135b5929190614693565b6040516020818303038152906040526040518963ffffffff1660e01b81526004016135e697969594939291906146b4565b60006040518083038185885af1158015613604573d6000803e3d6000fd5b50505050506040513d6000823e601f3d908101601f1916820160405261362d9190810190614718565b50613637565b8592505b866136428285614480565b111561366157604051636eb14fc360e11b815260040160405180910390fd5b7f00000000000000000000000000000000000000000000000000000000000000006001600160a01b031663679b6ded887f000000000000000000000000000000000000000000000000000000000000000086863333620493e0630bebc2008e6040518a63ffffffff1660e01b81526004016136e39897969594939291906147c4565b60206040518083038185885af1158015613701573d6000803e3d6000fd5b50505050506040513d601f19601f82011682018060405250810190611c9c91906144f8565b60003415613747576040516352864b0160e11b815260040160405180910390fd5b6001600160a01b03851661eeee146138be57604051635ed004ff60e11b81526001600160a01b0380871660048301526137ef9187917f0000000000000000000000000000000000000000000000000000000000000000169063bda009fe90602401602060405180830381865afa1580156137c5573d6000803e3d6000fd5b505050506040513d601f19601f820116820180604052508101906137e9919061444d565b86613b93565b6020808301516040805192830181526000835251637b3a3c8b60e01b81526001600160a01b037f00000000000000000000000000000000000000000000000000000000000000001692637b3a3c8b926138719290917f0000000000000000000000000000000000000000000000000000000000000000918a9190600401614829565b6000604051808303816000875af1158015613890573d6000803e3d6000fd5b505050506040513d6000823e601f3d908101601f191682016040526138b89190810190614718565b506138c1565b50825b6040516349460b4d60e11b815260649063928c169a908390613909907f000000000000000000000000000000000000000000000000000000000000000090889060040161485c565b60206040518083038185885af1158015613927573d6000803e3d6000fd5b50505050506040513d601f19601f82011682018060405250810190610b6691906144f8565b60006139616001600160a01b03841683613f71565b905080516000141580156139865750808060200190518101906139849190614511565b155b1561065157604051635274afe760e01b81526001600160a01b0384166004820152602401610707565b600061eeed196001600160a01b038416016139d557506001600160a01b03811631613a42565b6040516370a0823160e01b81526001600160a01b0383811660048301528416906370a0823190602401602060405180830381865afa158015613a1b573d6000803e3d6000fd5b505050506040513d601f19601f82011682018060405250810190613a3f91906144f8565b90505b92915050565b60408051602081018590529081018390526001600160a01b03821660608201526000906080016040516020818303038152906040528051906020012090509392505050565b613a95614183565b6000836020018051613aa690614880565b9081905290506001613aba6020600261497d565b613ac49190614559565b811115613ae457604051638eab04bb60e01b815260040160405180910390fd5b60005b6020811015613b795781600116600103613b2057845184908260208110613b1057613b10614411565b602002015250839150613a429050565b84518160208110613b3357613b33614411565b602002015184604051602001613b53929190918252602082015260400190565b60408051601f1981840301815291905280516020909101209350600191821c9101613ae7565b50604051638eab04bb60e01b815260040160405180910390fd5b604080516001600160a01b038416602482015260448082018490528251808303909101815260649091019091526020810180516001600160e01b031663095ea7b360e01b179052613be48482613f7f565b6112ad576040516001600160a01b03848116602483015260006044830152613c1991869182169063095ea7b390606401611557565b6112ad848261394c565b6020600582811b8216948552835194820394909452604060008181206002851615871b808503919091528386015190528181206004851615871b808503919091528286015190528181206008851615871b80850391909152606086015190528181206010851615871b8085039190915260808087015190915282822084861615881b8086039190915260a0870151905282822083861615881b8086039190915260c0870151905282822090851615871b8085039190915260e0860151905281812061010080861615881b80860392909252860151905281812061020080861615881b80860392909252610120870151909152828220610400861615881b808603919091526101408701519052828220610800861615881b808603919091526101608701519052828220611000861615881b808603919091526101808701519052828220612000861615881b808603919091526101a08701519052828220614000861615881b808603919091526101c08701519052828220618000861615881b808603919091526101e0870151905282822062010000861615881b8086039190915290860151905281812062020000851615871b80850391909152610220860151905281812062040000851615871b80850391909152610240860151905281812062080000851615871b80850391909152610260860151905281812062100000851615871b80850391909152610280860151905281812062200000851615871b808503919091526102a0860151905281812062400000851615871b808503919091526102c0860151905281812062800000851615871b808503919091526102e086015190528181206301000000851615871b8085039190915261030086015190528181206302000000851615871b8085039190915261032086015190528181206304000000851615871b8085039190915261034086015190528181206308000000851615871b8085039190915261036086015190528181206310000000851615871b8085039190915261038086015190528181206320000000851615871b808503919091526103a086015190528181206340000000851615871b808503919091526103c0860151905281812063800000009094161590951b91829003929092526103e090920151909152902090565b6060613a3f83836000614027565b6000806000846001600160a01b031684604051613f9c9190614989565b6000604051808303816000865af19150503d8060008114613fd9576040519150601f19603f3d011682016040523d82523d6000602084013e613fde565b606091505b50915091508180156140085750805115806140085750808060200190518101906140089190614511565b801561401e57506000856001600160a01b03163b115b95945050505050565b60608147101561404c5760405163cd78605960e01b8152306004820152602401610707565b600080856001600160a01b031684866040516140689190614989565b60006040518083038185875af1925050503d80600081146140a5576040519150601f19603f3d011682016040523d82523d6000602084013e6140aa565b606091505b50915091506140ba8683836140c4565b9695505050505050565b6060826140d9576140d482614120565b611e7b565b81511580156140f057506001600160a01b0384163b155b1561411957604051639996b31560e01b81526001600160a01b0385166004820152602401610707565b5080611e7b565b8051156141305780518082602001fd5b604051630a12f52160e11b815260040160405180910390fd5b8260208101928215614177579160200282015b8281111561417757825182559160200191906001019061415c565b50610bbc9291506141a3565b60405180604001604052806141966141b8565b8152602001600081525090565b5b80821115610bbc57600081556001016141a4565b6040518061040001604052806020906020820280368337509192915050565b600080602083850312156141ea57600080fd5b82356001600160401b038082111561420157600080fd5b818501915085601f83011261421557600080fd5b81358181111561422457600080fd5b8660208260071b850101111561423957600080fd5b60209290920196919550909350505050565b60006080828403121561425d57600080fd5b50919050565b60006080828403121561427557600080fd5b613a3f838361424b565b6001600160a01b0381168114610c3657600080fd5b600080600080608085870312156142aa57600080fd5b8435935060208501356142bc8161427f565b92506040850135915060608501356142d38161427f565b939692955090935050565b6000602082840312156142f057600080fd5b8135611e7b8161427f565b6001600160401b038416815260208082018490528251610460830191906000604085015b8382101561433d57825181529183019160019190910190830161431f565b505050506020830151610440830152949350505050565b60006104a0828403121561425d57600080fd5b6000806020838503121561437a57600080fd5b82356001600160401b038082111561439157600080fd5b818501915085601f8301126143a557600080fd5b8135818111156143b457600080fd5b8660206104a08302850101111561423957600080fd5b634e487b7160e01b600052602160045260246000fd5b60028110610c3657634e487b7160e01b600052602160045260246000fd5b6020810161440b836143e0565b91905290565b634e487b7160e01b600052603260045260246000fd5b60006020828403121561443957600080fd5b813563ffffffff81168114611e7b57600080fd5b60006020828403121561445f57600080fd5b8151611e7b8161427f565b634e487b7160e01b600052601160045260246000fd5b80820180821115613a4257613a4261446a565b6001600160401b0381168114610c3657600080fd5b6000602082840312156144ba57600080fd5b8135611e7b81614493565b81356144d081614493565b6001600160401b0381166001600160401b031983541617825550602082013560018201555050565b60006020828403121561450a57600080fd5b5051919050565b60006020828403121561452357600080fd5b81518015158114611e7b57600080fd5b60006001600160401b0380831681810361454f5761454f61446a565b6001019392505050565b81810381811115613a4257613a4261446a565b60005b8381101561458757818101518382015260200161456f565b50506000910152565b600081518084526145a881602086016020860161456c565b601f01601f19169290920160200192915050565b600060018060a01b03808a168352886020840152808816604084015286606084015285608084015280851660a08401525060e060c083015261460160e0830184614590565b9998505050505050505050565b634e487b7160e01b600052600160045260246000fd5b86815260018060a01b0386166020820152846040820152831515606082015260c06080820152600061465960c0830185614590565b82810360a08401526146018185614590565b63ffffffff81811683821602808216919082811461468b5761468b61446a565b505092915050565b8281526040602082015260006146ac6040830184614590565b949350505050565b6001600160a01b0388811682528781166020830152861660408201526060810185905263ffffffff8416608082015260a0810183905260e060c0820181905260009061460190830184614590565b634e487b7160e01b600052604160045260246000fd5b60006020828403121561472a57600080fd5b81516001600160401b038082111561474157600080fd5b818401915084601f83011261475557600080fd5b81518181111561476757614767614702565b604051601f8201601f19908116603f0116810190838211818310171561478f5761478f614702565b816040528281528760208487010111156147a857600080fd5b6147b983602083016020880161456c565b979650505050505050565b6001600160a01b038981168252602082018990526040820188905286811660608301528516608082015263ffffffff841660a082015260c0810183905261010060e0820181905260009061481a83820185614590565b9b9a5050505050505050505050565b6001600160a01b03858116825284166020820152604081018390526080606082018190526000906140ba90830184614590565b6001600160a01b03831681526040602082018190526000906146ac90830184614590565b6000600182016148925761489261446a565b5060010190565b600181815b808511156148d45781600019048211156148ba576148ba61446a565b808516156148c757918102915b93841c939080029061489e565b509250929050565b6000826148eb57506001613a42565b816148f857506000613a42565b816001811461490e576002811461491857614934565b6001915050613a42565b60ff8411156149295761492961446a565b50506001821b613a42565b5060208310610133831016604e8410600b8410161715614957575081810a613a42565b6149618383614899565b80600019048211156149755761497561446a565b029392505050565b6000613a3f83836148dc565b6000825161499b81846020870161456c565b919091019291505056fea2646970667358221220f91f8c85f8eaf61b3d7ff8ff90fa8e08fc522b195dd315b47e304e1a67b423eb64736f6c63430008170033a2646970667358221220067e8ce0824b816d875023f0ed384b9dc614953d39bfb2b2625d5fb384e99cc864736f6c63430008170033",
	"deployedBytecode": "0x608060405234801561001057600080fd5b50600436106100625760003560e01c806303c85ea314610067578063121303661461008c578063ba8b1d1a1461009f578063c39ec124146100b6578063c86719b7146100e9578063f434c9141461011d575b600080fd5b61006f610144565b6040516001600160a01b0390911681526020015b60405180910390f35b61006f61009a3660046102fd565b6101dd565b6100a860015481565b604051908152602001610083565b6100d96100c436600461031f565b60006020819052908152604090205460ff1681565b6040519015158152602001610083565b6101107f000000000000000000000000000000000000000000000000000000000000000081565b6040516100839190610370565b61006f7f0000000000000000000000009ca9bc9d5e7e20fc2f1d750807fa30c86b7989f881565b600046600019810161016b577372ce9c846789fdb6fc1f34ac4ad25dd9ef7031ef91505090565b61a4b1810361018f57735288c571fd7ad117bea99bf60fe0846c4e84f93391505090565b62aa36a781036101b45773ce18836b233c83325cc8848ca4487e94c628826491505090565b62066eee81036101d957739fdd1c4e4aa24eec1d913fabea925594a20d43c791505090565b5090565b6040516bffffffffffffffffffffffff193360601b1660208201526034810182905260009060540160405160208183030381529060405280519060200120915082600181905550817f000000000000000000000000992f9e3a81c77cb940a29311558343e1ac66c40f7f00000000000000000000000078bb9e2c5f534a7b94608becaff491c57e2cd8197f0000000000000000000000009ca9bc9d5e7e20fc2f1d750807fa30c86b7989f8600080604051610297906102f0565b6102a5959493929190610383565b8190604051809103906000f59050801580156102c5573d6000803e3d6000fd5b506001600160a01b0381166000908152602081905260409020805460ff191660011790559392505050565b614ec5806103c583390190565b6000806040838503121561031057600080fd5b50508035926020909101359150565b60006020828403121561033157600080fd5b81356001600160a01b038116811461034857600080fd5b9392505050565b6002811061036d57634e487b7160e01b600052602160045260246000fd5b50565b6020810161037d8361034f565b91905290565b6001600160a01b038681168252858116602083015284811660408301528316606082015260a081016103b48361034f565b826080830152969550505050505056fe6101c06040523480156200001257600080fd5b5060405162004ec538038062004ec5833981016040819052620000359162000298565b8484848484336001600160a01b031663ba8b1d1a6040518163ffffffff1660e01b8152600401602060405180830381865afa15801562000079573d6000803e3d6000fd5b505050506040513d601f19601f820116820180604052508101906200009f91906200031b565b6001600160a01b0380851660805286811660c05285811660e052831615620000c85782620000ca565b305b6001600160a01b0316610120526101408190523361010052816001811115620000f757620000f762000335565b60a08160018111156200010e576200010e62000335565b90525050469450620001279350849250506200024a9050565b620001455760405163f21c9f0760e01b815260040160405180910390fd5b600181148062000157575062aa36a781145b15620001ab57600061016052600181146200018d5773aae29b0366299461418f5324a79afc425be5ae216101a0819052620001a9565b734dbd4fc535ac27206064b68ffcf827b0a60bab3f6101a08190525b505b61a4b1811480620001be575062066eee81145b15620001cb576001610160525b336001600160a01b03166303c85ea36040518163ffffffff1660e01b8152600401602060405180830381865afa1580156200020a573d6000803e3d6000fd5b505050506040513d601f19601f820116820180604052508101906200023091906200034b565b6001600160a01b0316610180525062000372945050505050565b600060018214806200025e575062aa36a782145b806200026b575061a4b182145b8062000279575062066eee82145b92915050565b6001600160a01b03811681146200029557600080fd5b50565b600080600080600060a08688031215620002b157600080fd5b8551620002be816200027f565b6020870151909550620002d1816200027f565b6040870151909450620002e4816200027f565b6060870151909350620002f7816200027f565b6080870151909250600281106200030d57600080fd5b809150509295509295909350565b6000602082840312156200032e57600080fd5b5051919050565b634e487b7160e01b600052602160045260246000fd5b6000602082840312156200035e57600080fd5b81516200036b816200027f565b9392505050565b60805160a05160c05160e05161010051610120516101405161016051610180516101a0516149db620004ea600039600081816103b901528181611ce5015281816133ea015261366301526000818161053c015281816134d4015281816135470152818161377e0152613817015260008181610508015281816114390152611cac0152600081816102200152818161080b0152818161088801528181610a2501528181610eae01528181610f57015281816115980152818161165d015281816116da0152818161195b01528181611a1401528181611b160152611c3e01526000818161038501528181611e5101528181611e9901528181613579015281816136930152818161384601526138df0152600061049301526000818161016d0152610a4e0152600081816103510152818161077c01528181610ed4015281816115d3015261198a0152600081816104c701528181610bc401528181610e5001526110690152600081816105fc015261122201526149db6000f3fe60806040526004361061014f5760003560e01c8063b1012368116100b6578063c6525f2c1161006f578063c6525f2c146104b5578063c86719b7146104f6578063defbb6971461052a578063e7f82c751461055e578063ed0e26b91461058b578063f434c914146105ea57600080fd5b8063b1012368146103a7578063b59ef50f146103db578063b71c1179146103fb578063bf557aee1461040e578063c185412914610461578063c1b8411a1461048157600080fd5b806369ce22331161010857806369ce22331461026557806369d31fdd146102855780636dfa7268146102985780637de6fba2146102c757806388bc2ef31461033f578063ad42938b1461037357600080fd5b80631d831d5c1461015b5780632241dc52146101ac57806338eb2044146101ce578063551ebbf0146101ee57806356539f391461020e57806361c864171461025057600080fd5b3661015657005b600080fd5b34801561016757600080fd5b5061018f7f000000000000000000000000000000000000000000000000000000000000000081565b6040516001600160a01b0390911681526020015b60405180910390f35b3480156101b857600080fd5b506101cc6101c73660046141d7565b61061e565b005b3480156101da57600080fd5b506101cc6101e9366004614263565b610656565b3480156101fa57600080fd5b506101cc610209366004614294565b6109ef565b34801561021a57600080fd5b506102427f000000000000000000000000000000000000000000000000000000000000000081565b6040519081526020016101a3565b34801561025c57600080fd5b50610242610b6e565b34801561027157600080fd5b506101cc6102803660046142de565b610bc0565b6101cc610293366004614263565b610c39565b3480156102a457600080fd5b506102b86102b33660046142de565b610daa565b6040516101a3939291906142fb565b3480156102d357600080fd5b506103156102e23660046142de565b6003602052600090815260409020805460019091015463ffffffff82169164010000000090046001600160a01b03169083565b6040805163ffffffff90941684526001600160a01b039092166020840152908201526060016101a3565b34801561034b57600080fd5b5061018f7f000000000000000000000000000000000000000000000000000000000000000081565b34801561037f57600080fd5b5061018f7f000000000000000000000000000000000000000000000000000000000000000081565b3480156103b357600080fd5b5061018f7f000000000000000000000000000000000000000000000000000000000000000081565b3480156103e757600080fd5b506101cc6103f6366004614354565b610e14565b6101cc6104093660046142de565b6110e8565b34801561041a57600080fd5b506104516104293660046142de565b6001600160a01b03908116600090815260036020526040902054640100000000900416151590565b60405190151581526020016101a3565b34801561046d57600080fd5b506101cc61047c366004614367565b611196565b34801561048d57600080fd5b5061018f7f000000000000000000000000000000000000000000000000000000000000000081565b3480156104c157600080fd5b506104e97f000000000000000000000000000000000000000000000000000000000000000081565b6040516101a391906143fe565b34801561050257600080fd5b506104e97f000000000000000000000000000000000000000000000000000000000000000081565b34801561053657600080fd5b5061018f7f000000000000000000000000000000000000000000000000000000000000000081565b34801561056a57600080fd5b506102426105793660046142de565b60026020526000908152604090205481565b34801561059757600080fd5b506105cb6105a63660046142de565b600160208190526000918252604090912080549101546001600160401b039091169082565b604080516001600160401b0390931683526020830191909152016101a3565b3480156105f657600080fd5b5061018f7f000000000000000000000000000000000000000000000000000000000000000081565b60005b818110156106515761064983838381811061063e5761063e614411565b905060800201610656565b600101610621565b505050565b600061066560208301836142de565b9050600061eeee61067960208501856142de565b6001600160a01b03161490508080156106ac575061eeee6106a060608501604086016142de565b6001600160a01b031614155b80156106d1575060006106c560608501604086016142de565b6001600160a01b031614155b15610710576106e660608401604085016142de565b604051630a0a3b6b60e31b81526001600160a01b0390911660048201526024015b60405180910390fd5b62030d406107246040850160208601614427565b63ffffffff16108015610735575080155b156107775762030d4061074e6040850160208601614427565b604051634f3dbeb360e11b815263ffffffff928316600482015291166024820152604401610707565b6108ae7f00000000000000000000000000000000000000000000000000000000000000006001600160a01b031663293c49996040518163ffffffff1660e01b8152600401602060405180830381865afa1580156107d8573d6000803e3d6000fd5b505050506040513d601f19601f820116820180604052508101906107fc919061444d565b6040516331a9108f60e11b81527f000000000000000000000000000000000000000000000000000000000000000060048201526001600160a01b039190911690636352211e90602401602060405180830381865afa158015610862573d6000803e3d6000fd5b505050506040513d601f19601f82011682018060405250810190610886919061444d565b7f0000000000000000000000000000000000000000000000000000000000000000601b6111ca565b60006108c060608501604086016142de565b6001600160a01b03161480156108f057506001600160a01b03821660009081526020819052604090206001015415155b1561094b576001600160a01b0380831660009081526003602090815260408083208151606081018352815463ffffffff811682526401000000009004909516928501929092526001909101549083015261094b9184906112b3565b60405180606001604052808460200160208101906109699190614427565b63ffffffff16815260200161098460608601604087016142de565b6001600160a01b0390811682526060909501356020918201529284166000908152600384526040908190208251815495840151909616640100000000026001600160c01b031990951663ffffffff909616959095179390931784559091015160019092019190915550565b6001600160a01b038316610a16576040516309a9c30b60e41b815260040160405180910390fd5b60405163ea78803f60e01b81527f000000000000000000000000000000000000000000000000000000000000000060048201526000907f00000000000000000000000000000000000000000000000000000000000000006001600160a01b03169063ea78803f90602401602060405180830381865afa158015610a9d573d6000803e3d6000fd5b505050506040513d601f19601f82011682018060405250810190610ac1919061444d565b90506001600160a01b038116610aea57604051635a33845560e01b815260040160405180910390fd5b6001600160a01b03828116600090815260036020526040902054640100000000900416610b355760405163393e175160e01b81526001600160a01b0383166004820152602401610707565b610b4a6001600160a01b038216333088611522565b6000610b5882878587611589565b9050610b668684838861177c565b505050505050565b6000466000198101610b835761a4b191505090565b61a4b18103610b9457600191505090565b62aa36a78103610ba85762066eee91505090565b62066eee8103610bbc5762aa36a791505090565b5090565b60007f00000000000000000000000000000000000000000000000000000000000000006001811115610bf457610bf46143ca565b14610c125760405163218a9a2d60e11b815260040160405180910390fd5b6001600160a01b038116600090815260026020526040902054610c369082906118f5565b50565b610c4233611ca7565b610c5f57604051630439dbd360e51b815260040160405180910390fd5b60208101803590600290600090610c7690856142de565b6001600160a01b03166001600160a01b031681526020019081526020016000206000828254610ca59190614480565b90915550600190506000610cbc60208401846142de565b6001600160a01b0316815260208101919091526040908101600020546001600160401b031690610cf290606084019084016144a8565b6001600160401b03161115610c36576040810160016000610d1660208501856142de565b6001600160a01b031681526020810191909152604001600020610d3982826144c5565b50610d49905060208201826142de565b6001600160a01b03167f551b6b99b4c48e3265d2885ab0d93779be2402293261e074f7bf74b2c8f45b6f610d8360608401604085016144a8565b604080516001600160401b039092168252606085013560208301520160405180910390a250565b6000602081815291815260409081902080546001820154835161044081018086526001600160401b0390931695919490926002850192849283019184919082845b815481526020019060010190808311610deb575050509183525050602091820154910152905083565b610e4c6060820135610e2960208401846142de565b6080840135610e3e60608601604087016142de565b602086013560a08701611ed4565b60017f00000000000000000000000000000000000000000000000000000000000000006001811115610e8057610e806143ca565b03610e9f57610e9f610e9560208301836142de565b60808301356118f5565b604051632eec7b5560e11b81527f000000000000000000000000000000000000000000000000000000000000000060048201527f00000000000000000000000000000000000000000000000000000000000000006001600160a01b031690635dd8f6aa90602401602060405180830381865afa158015610f23573d6000803e3d6000fd5b505050506040513d601f19601f82011682018060405250810190610f47919061444d565b6001600160a01b031663c7fb92de7f000000000000000000000000000000000000000000000000000000000000000060608401803590610f8a90604087016142de565b6040516001600160e01b031960e086901b168152600481019390935260248301919091526001600160a01b0316604482015260a06064820152600060a48201819052608482015260c4016020604051808303816000875af1158015610ff3573d6000803e3d6000fd5b505050506040513d601f19601f8201168201806040525081019061101791906144f8565b507f487194902d206a126abe9f23a4e2b78d1600ed8034b1423290a13edd6ebc7d1461104960608301604084016142de565b61105660208401846142de565b60608401356080850135602086013560017f00000000000000000000000000000000000000000000000000000000000000006001811115611099576110996143ca565b146110a55760006110a8565b60015b604080516001600160a01b0397881681529690951660208701529385019290925260608401526080830152151560a082015260c00160405180910390a150565b6001600160a01b0380821660008181526003602090815260408083208151606081018352815463ffffffff811682526401000000009004909616868401526001908101548683018190529484529183905290912001541015611187576040808201516001600160a01b03841660009081526020819052829020600101549151632cec92e160e21b81526107079290600401918252602082015260400190565b6111923483836112b3565b5050565b60005b81811015610651576111c28383838181106111b6576111b6614411565b90506104a00201610e14565b600101611199565b336001600160a01b038416811480159061128f5750604051631a45b42760e11b81526001600160a01b0382811660048301528581166024830152604482018590526064820184905260016084830181905260a48301527f0000000000000000000000000000000000000000000000000000000000000000169063348b684e9060c401602060405180830381865afa158015611269573d6000803e3d6000fd5b505050506040513d601f19601f8201168201806040525081019061128d9190614511565b155b156112ad5760405163075fd2b160e01b815260040160405180910390fd5b50505050565b6001600160a01b03821660009081526020819052604081206001810180549083905581549092919082906112ef906001600160401b0316614533565b91906101000a8154816001600160401b0302191690836001600160401b031602179055905060006001600160a01b031683602001516001600160a01b0316036113565760405163393e175160e01b81526001600160a01b0385166004820152602401610707565b6000604051806060016040528085602001516001600160a01b031681526020018481526020016040518060400160405280856001600160401b031681526020016113c56000808b6001600160a01b03166001600160a01b03168152602001908152602001600020600201612004565b905290526040805182516001600160a01b031660248201526020808401516044830152929091015180516001600160401b0316606483015290910151608482015260a40160408051601f198184030181529190526020810180516001600160e01b03166369d31fdd60e01b179052905060007f00000000000000000000000000000000000000000000000000000000000000006001811115611469576114696143ca565b036114805761147b85878584886133ba565b61148c565b61148c85848387613726565b6001600160a01b03851660008181526020819052604090206114b090600201612004565b6001600160a01b0387166000908152602081905260409020602201547f3e069c1f498cba23d7d2b74b84311469e8da6e527cade62061d642c61b64e0de906114fa90600190614559565b604080519182526001600160401b0387166020830152015b60405180910390a3505050505050565b6040516001600160a01b0384811660248301528381166044830152606482018390526112ad9186918216906323b872dd906084015b604051602081830303815290604052915060e01b6020820180516001600160e01b03838183161783525050505061394c565b604051630862026560e41b81527f000000000000000000000000000000000000000000000000000000000000000060048201526001600160a01b03838116602483015260009182917f00000000000000000000000000000000000000000000000000000000000000001690638620265090604401602060405180830381865afa15801561161a573d6000803e3d6000fd5b505050506040513d601f19601f8201168201806040525081019061163e919061444d565b90506001600160a01b03811661169857604051630c9ae01360e01b81527f000000000000000000000000000000000000000000000000000000000000000060048201526001600160a01b0385166024820152604401610707565b60006116a485306139af565b60408051602081018252600081529051635db90a7f60e11b81529192506001600160a01b0384169163bb7214fe9161170a9130917f0000000000000000000000000000000000000000000000000000000000000000918b918d918c9186916004016145bc565b6020604051808303816000875af1158015611729573d6000803e3d6000fd5b505050506040513d601f19601f8201168201806040525081019061174d91906144f8565b92508061175a86306139af565b6117649190614559565b83146117725761177261460e565b5050949350505050565b6000611789858484613a48565b6001600160a01b0385166000908152602081815260408083208151610440810180845295965093946117f49487949093600290930192849290830191849182845b8154815260200190600101908083116117ca57505050918352505060209182015491015290613a8d565b6001600160a01b03861660009081526020818152604090912082519293508392600290910191611825918391614149565b50602091820151908201556001600160a01b03861660009081529081905260408120600101805486929061185a908490614480565b92505081905550846001600160a01b0316836001600160a01b03167f7b58dbb78e7edc690b0688a53dea0c443d630c4a5db66c3c47d4ff2044c9772884600185602001516118a89190614559565b6001600160a01b038a1660009081526020819052604090206118cc90600201612004565b60408051938452602084019290925290820152606081018a90526080810188905260a001611512565b6001600160a01b0382166000908152600260205260409020548082111561192f57604051632858f9ab60e11b815260040160405180910390fd5b6001600160a01b03838116600081815260026020526040808220868603905551630862026560e41b81527f000000000000000000000000000000000000000000000000000000000000000060048201526024810192909252917f00000000000000000000000000000000000000000000000000000000000000001690638620265090604401602060405180830381865afa1580156119d1573d6000803e3d6000fd5b505050506040513d601f19601f820116820180604052508101906119f5919061444d565b90506001600160a01b038116611a4f57604051630c9ae01360e01b81527f000000000000000000000000000000000000000000000000000000000000000060048201526001600160a01b0385166024820152604401610707565b6001600160a01b03841661eeee14611bff576040516370a0823160e01b81523060048201526000906001600160a01b038616906370a0823190602401602060405180830381865afa158015611aa8573d6000803e3d6000fd5b505050506040513d601f19601f82011682018060405250810190611acc91906144f8565b9050611ad9858386613b93565b60408051602080820183526000808352835191820184528082529251639e6eec0560e01b81526001600160a01b03861693639e6eec0593611b46937f0000000000000000000000000000000000000000000000000000000000000000938c938c9390929091600401614624565b600060405180830381600087803b158015611b6057600080fd5b505af1158015611b74573d6000803e3d6000fd5b505050508381611b849190614559565b6040516370a0823160e01b81523060048201526001600160a01b038716906370a0823190602401602060405180830381865afa158015611bc8573d6000803e3d6000fd5b505050506040513d601f19601f82011682018060405250810190611bec91906144f8565b14611bf957611bf961460e565b506112ad565b60408051602080820183526000808352835191820184528082529251639e6eec0560e01b81526001600160a01b03851693639e6eec05938893611c6f937f0000000000000000000000000000000000000000000000000000000000000000938c9387939192909190600401614624565b6000604051808303818588803b158015611c8857600080fd5b505af1158015611c9c573d6000803e3d6000fd5b505050505050505050565b6000807f00000000000000000000000000000000000000000000000000000000000000006001811115611cdc57611cdc6143ca565b03611e825760007f00000000000000000000000000000000000000000000000000000000000000006001600160a01b031663e78cea926040518163ffffffff1660e01b8152600401602060405180830381865afa158015611d41573d6000803e3d6000fd5b505050506040513d601f19601f82011682018060405250810190611d65919061444d565b9050806001600160a01b0316836001600160a01b0316148015611e7b5750806001600160a01b031663ab5d89436040518163ffffffff1660e01b8152600401602060405180830381865afa158015611dc1573d6000803e3d6000fd5b505050506040513d601f19601f82011682018060405250810190611de5919061444d565b6001600160a01b03166380648b026040518163ffffffff1660e01b8152600401602060405180830381865afa158015611e22573d6000803e3d6000fd5b505050506040513d601f19601f82011682018060405250810190611e46919061444d565b6001600160a01b03167f00000000000000000000000000000000000000000000000000000000000000006001600160a01b0316145b9392505050565b7311110000000000000000000000000000000011117f0000000000000000000000000000000000000000000000000000000000000000016001600160a01b0316826001600160a01b0316149050919050565b6001600160a01b0385166000908152600460209081526040808320600886901c8452909152902054600160ff84161b1615611f255760405163ed9bdd0760e01b815260048101839052602401610707565b6001600160a01b0385166000908152600460209081526040808320600886901c845290915281208054600160ff86161b179055611f94611f66888787613a48565b604080516104008181019092529085906020908390839080828437600092019190915250879150613c239050565b6001600160a01b038716600090815260016020819052604090912001549091508114611ffb576001600160a01b0386166000908152600160208190526040918290200154905163286f87c960e21b8152600481019190915260248101829052604401610707565b50505050505050565b602081015460009080820361203b57507f27ae5ba08d7291c96c8cbddcc148bf48a6d68c7974b94356f53754ef6171d75792915050565b600083600183161561205d578054600052600060205260406000209350612910565b60028316156120a25760018101546000527fad3228b676f7d3cd4284a5443f17f1962b36e491b30a40b2405849e597ba5fb56020526040600020935060019150612910565b60048316156120e75760028101546000527fb4c11951957c6f8f642c4af61cd6b24640fec6dc7fc607ee8206a99e92410d306020526040600020935060029150612910565b600883161561212c5760038101546000527f21ddb9a356815c3fac1026b6dec5df3124afbadb485c9ba5a3e3398a04b7ba856020526040600020935060039150612910565b60108316156121715760048101546000527fe58769b32a1beaf1ea27375a44095a0d1fb664ce2dd358e7fcbfb78c26a193446020526040600020935060049150612910565b60208316156121b65760058101546000527f0eb01ebfc9ed27500cd4dfc979272d1f0913cc9f66540d7e8005811109e1cf2d6020526040600020935060059150612910565b60408316156121fb5760068101546000527f887c22bd8750d34016ac3c66b5ff102dacdd73f6b014e710b51e8022af9a19686020526040600020935060069150612910565b60808316156122405760078101546000527fffd70157e48063fc33c97a050f7f640233bf646cc98d9524c6b92bcf3ab56f836020526040600020935060079150612910565b6101008316156122865760088101546000527f9867cc5f7f196b93bae1e27e6320742445d290f2263827498b54fec539f756af6020526040600020935060089150612910565b6102008316156122cc5760098101546000527fcefad4e508c098b9a7e1d8feb19955fb02ba9675585078710969d3440f5054e06020526040600020935060099150612910565b61040083161561231257600a8101546000527ff9dc3e7fe016e050eff260334f18a5d4fe391d82092319f5964f2e2eb7c1c3a560205260406000209350600a9150612910565b61080083161561235857600b8101546000527ff8b13a49e282f609c317a833fb8d976d11517c571d1221a265d25af778ecf89260205260406000209350600b9150612910565b61100083161561239e57600c8101546000527f3490c6ceeb450aecdc82e28293031d10c7d73bf85e57bf041a97360aa2c5d99c60205260406000209350600c9150612910565b6120008316156123e457600d8101546000527fc1df82d9c4b87413eae2ef048f94b4d3554cea73d92b0f7af96e0271c691e2bb60205260406000209350600d9150612910565b61400083161561242a57600e8101546000527f5c67add7c6caf302256adedf7ab114da0acfe870d449a3a489f781d659e8becc60205260406000209350600e9150612910565b61800083161561247057600f8101546000527fda7bce9f4e8618b6bd2f4132ce798cdc7a60e7e1460a7299e3c6342a579626d260205260406000209350600f9150612910565b620100008316156124b75760108101546000527f2733e50f526ec2fa19a22b31e8ed50f23cd1fdf94c9154ed3a7609a2f1ff981f6020526040600020935060109150612910565b620200008316156124fe5760118101546000527fe1d3b5c807b281e4683cc6d6315cf95b9ade8641defcb32372f1c126e398ef7a6020526040600020935060119150612910565b620400008316156125455760128101546000527f5a2dce0a8a7f68bb74560f8f71837c2c2ebbcbf7fffb42ae1896f13f7c7479a06020526040600020935060129150612910565b6208000083161561258c5760138101546000527fb46a28b6f55540f89444f63de0378e3d121be09e06cc9ded1c20e65876d36aa06020526040600020935060139150612910565b621000008316156125d35760148101546000527fc65e9645644786b620e2dd2ad648ddfcbf4a7e5b1a3a4ecfe7f64667a3f0b7e26020526040600020935060149150612910565b6220000083161561261a5760158101546000527ff4418588ed35a2458cffeb39b93d26f18d2ab13bdce6aee58e7b99359ec2dfd96020526040600020935060159150612910565b624000008316156126615760168101546000527f5a9c16dc00d6ef18b7933a6f8dc65ccb55667138776f7dea101070dc8796e3776020526040600020935060169150612910565b628000008316156126a85760178101546000527f4df84f40ae0c8229d0d6069e5c8f39a7c299677a09d367fc7b05e3bc380ee6526020526040600020935060179150612910565b63010000008316156126f05760188101546000527fcdc72595f74c7b1043d0e1ffbab734648c838dfb0527d971b602bc216c9619ef6020526040600020935060189150612910565b63020000008316156127385760198101546000527f0abf5ac974a1ed57f4050aa510dd9c74f508277b39d7973bb2dfccc5eeb0618d6020526040600020935060199150612910565b630400000083161561278057601a8101546000527fb8cd74046ff337f0a7bf2c8e03e10f642c1886798d71806ab1e888d9e5ee87d060205260406000209350601a9150612910565b63080000008316156127c857601b8101546000527f838c5655cb21c6cb83313b5a631175dff4963772cce9108188b34ac87c81c41e60205260406000209350601b9150612910565b631000000083161561281057601c8101546000527f662ee4dd2dd7b2bc707961b1e646c4047669dcb6584f0d8d770daf5d7e7deb2e60205260406000209350601c9150612910565b632000000083161561285857601d8101546000527f388ab20e2573d171a88108e79d820e98f26c0b84aa8b2f4aa4968dbb818ea32260205260406000209350601d9150612910565b63400000008316156128a057601e8101546000527f93237c50ba75ee485f4c22adf2f741400bdf8d6a9cc7df7ecae576221665d73560205260406000209350601e9150612910565b63800000008316156128e857601f8101546000527f8448818bb4ae4562849e949e17ac16e0be16688e156b5cf15e098c627c0056a960205260406000209350601f9150612910565b7f27ae5ba08d7291c96c8cbddcc148bf48a6d68c7974b94356f53754ef6171d7579350602091505b601e82116133b257600182101561296e5760028316801561293c57600182015460005284602052612965565b846000527fad3228b676f7d3cd4284a5443f17f1962b36e491b30a40b2405849e597ba5fb56020525b50604060002093505b60028210156129c457600483168015612992576002820154600052846020526129bb565b846000527fb4c11951957c6f8f642c4af61cd6b24640fec6dc7fc607ee8206a99e92410d306020525b50604060002093505b6003821015612a1a576008831680156129e857600382015460005284602052612a11565b846000527f21ddb9a356815c3fac1026b6dec5df3124afbadb485c9ba5a3e3398a04b7ba856020525b50604060002093505b6004821015612a7057601083168015612a3e57600482015460005284602052612a67565b846000527fe58769b32a1beaf1ea27375a44095a0d1fb664ce2dd358e7fcbfb78c26a193446020525b50604060002093505b6005821015612ac657602083168015612a9457600582015460005284602052612abd565b846000527f0eb01ebfc9ed27500cd4dfc979272d1f0913cc9f66540d7e8005811109e1cf2d6020525b50604060002093505b6006821015612b1c57604083168015612aea57600682015460005284602052612b13565b846000527f887c22bd8750d34016ac3c66b5ff102dacdd73f6b014e710b51e8022af9a19686020525b50604060002093505b6007821015612b7257608083168015612b4057600782015460005284602052612b69565b846000527fffd70157e48063fc33c97a050f7f640233bf646cc98d9524c6b92bcf3ab56f836020525b50604060002093505b6008821015612bc95761010083168015612b9757600882015460005284602052612bc0565b846000527f9867cc5f7f196b93bae1e27e6320742445d290f2263827498b54fec539f756af6020525b50604060002093505b6009821015612c205761020083168015612bee57600982015460005284602052612c17565b846000527fcefad4e508c098b9a7e1d8feb19955fb02ba9675585078710969d3440f5054e06020525b50604060002093505b600a821015612c775761040083168015612c4557600a82015460005284602052612c6e565b846000527ff9dc3e7fe016e050eff260334f18a5d4fe391d82092319f5964f2e2eb7c1c3a56020525b50604060002093505b600b821015612cce5761080083168015612c9c57600b82015460005284602052612cc5565b846000527ff8b13a49e282f609c317a833fb8d976d11517c571d1221a265d25af778ecf8926020525b50604060002093505b600c821015612d255761100083168015612cf357600c82015460005284602052612d1c565b846000527f3490c6ceeb450aecdc82e28293031d10c7d73bf85e57bf041a97360aa2c5d99c6020525b50604060002093505b600d821015612d7c5761200083168015612d4a57600d82015460005284602052612d73565b846000527fc1df82d9c4b87413eae2ef048f94b4d3554cea73d92b0f7af96e0271c691e2bb6020525b50604060002093505b600e821015612dd35761400083168015612da157600e82015460005284602052612dca565b846000527f5c67add7c6caf302256adedf7ab114da0acfe870d449a3a489f781d659e8becc6020525b50604060002093505b600f821015612e2a5761800083168015612df857600f82015460005284602052612e21565b846000527fda7bce9f4e8618b6bd2f4132ce798cdc7a60e7e1460a7299e3c6342a579626d26020525b50604060002093505b6010821015612e82576201000083168015612e5057601082015460005284602052612e79565b846000527f2733e50f526ec2fa19a22b31e8ed50f23cd1fdf94c9154ed3a7609a2f1ff981f6020525b50604060002093505b6011821015612eda576202000083168015612ea857601182015460005284602052612ed1565b846000527fe1d3b5c807b281e4683cc6d6315cf95b9ade8641defcb32372f1c126e398ef7a6020525b50604060002093505b6012821015612f32576204000083168015612f0057601282015460005284602052612f29565b846000527f5a2dce0a8a7f68bb74560f8f71837c2c2ebbcbf7fffb42ae1896f13f7c7479a06020525b50604060002093505b6013821015612f8a576208000083168015612f5857601382015460005284602052612f81565b846000527fb46a28b6f55540f89444f63de0378e3d121be09e06cc9ded1c20e65876d36aa06020525b50604060002093505b6014821015612fe2576210000083168015612fb057601482015460005284602052612fd9565b846000527fc65e9645644786b620e2dd2ad648ddfcbf4a7e5b1a3a4ecfe7f64667a3f0b7e26020525b50604060002093505b601582101561303a57622000008316801561300857601582015460005284602052613031565b846000527ff4418588ed35a2458cffeb39b93d26f18d2ab13bdce6aee58e7b99359ec2dfd96020525b50604060002093505b601682101561309257624000008316801561306057601682015460005284602052613089565b846000527f5a9c16dc00d6ef18b7933a6f8dc65ccb55667138776f7dea101070dc8796e3776020525b50604060002093505b60178210156130ea5762800000831680156130b8576017820154600052846020526130e1565b846000527f4df84f40ae0c8229d0d6069e5c8f39a7c299677a09d367fc7b05e3bc380ee6526020525b50604060002093505b6018821015613143576301000000831680156131115760188201546000528460205261313a565b846000527fcdc72595f74c7b1043d0e1ffbab734648c838dfb0527d971b602bc216c9619ef6020525b50604060002093505b601982101561319c5763020000008316801561316a57601982015460005284602052613193565b846000527f0abf5ac974a1ed57f4050aa510dd9c74f508277b39d7973bb2dfccc5eeb0618d6020525b50604060002093505b601a8210156131f5576304000000831680156131c357601a820154600052846020526131ec565b846000527fb8cd74046ff337f0a7bf2c8e03e10f642c1886798d71806ab1e888d9e5ee87d06020525b50604060002093505b601b82101561324e5763080000008316801561321c57601b82015460005284602052613245565b846000527f838c5655cb21c6cb83313b5a631175dff4963772cce9108188b34ac87c81c41e6020525b50604060002093505b601c8210156132a75763100000008316801561327557601c8201546000528460205261329e565b846000527f662ee4dd2dd7b2bc707961b1e646c4047669dcb6584f0d8d770daf5d7e7deb2e6020525b50604060002093505b601d821015613300576320000000831680156132ce57601d820154600052846020526132f7565b846000527f388ab20e2573d171a88108e79d820e98f26c0b84aa8b2f4aa4968dbb818ea3226020525b50604060002093505b601e8210156133595763400000008316801561332757601e82015460005284602052613350565b846000527f93237c50ba75ee485f4c22adf2f741400bdf8d6a9cc7df7ecae576221665d7356020525b50604060002093505b601f8210156133b25763800000008316801561338057601f820154600052846020526133a9565b846000527f8448818bb4ae4562849e949e17ac16e0be16688e156b5cf15e098c627c0056a96020525b50604060002093505b505050919050565b815160405163a66b327d60e01b81526004810191909152630bebc200602482015260009081906001600160a01b037f0000000000000000000000000000000000000000000000000000000000000000169063a66b327d90604401602060405180830381865afa158015613431573d6000803e3d6000fd5b505050506040513d601f19601f8201168201806040525081019061345591906144f8565b9050600061346a620493e0630bebc20061466b565b61347a9063ffffffff1683614480565b90508087101561349d57604051636eb14fc360e11b815260040160405180910390fd5b6001600160a01b03881661eeee1461363357604051635ed004ff60e11b81526001600160a01b03808a166004830152613545918a917f0000000000000000000000000000000000000000000000000000000000000000169063bda009fe90602401602060405180830381865afa15801561351b573d6000803e3d6000fd5b505050506040513d601f19601f8201168201806040525081019061353f919061444d565b88613b93565b7f00000000000000000000000000000000000000000000000000000000000000006001600160a01b0316634fb1a07b888a337f00000000000000000000000000000000000000000000000000000000000000008b620493e0630bebc2008a8e6040516020016135b5929190614693565b6040516020818303038152906040526040518963ffffffff1660e01b81526004016135e697969594939291906146b4565b60006040518083038185885af1158015613604573d6000803e3d6000fd5b50505050506040513d6000823e601f3d908101601f1916820160405261362d9190810190614718565b50613637565b8592505b866136428285614480565b111561366157604051636eb14fc360e11b815260040160405180910390fd5b7f00000000000000000000000000000000000000000000000000000000000000006001600160a01b031663679b6ded887f000000000000000000000000000000000000000000000000000000000000000086863333620493e0630bebc2008e6040518a63ffffffff1660e01b81526004016136e39897969594939291906147c4565b60206040518083038185885af1158015613701573d6000803e3d6000fd5b50505050506040513d601f19601f82011682018060405250810190611c9c91906144f8565b60003415613747576040516352864b0160e11b815260040160405180910390fd5b6001600160a01b03851661eeee146138be57604051635ed004ff60e11b81526001600160a01b0380871660048301526137ef9187917f0000000000000000000000000000000000000000000000000000000000000000169063bda009fe90602401602060405180830381865afa1580156137c5573d6000803e3d6000fd5b505050506040513d601f19601f820116820180604052508101906137e9919061444d565b86613b93565b6020808301516040805192830181526000835251637b3a3c8b60e01b81526001600160a01b037f00000000000000000000000000000000000000000000000000000000000000001692637b3a3c8b926138719290917f0000000000000000000000000000000000000000000000000000000000000000918a9190600401614829565b6000604051808303816000875af1158015613890573d6000803e3d6000fd5b505050506040513d6000823e601f3d908101601f191682016040526138b89190810190614718565b506138c1565b50825b6040516349460b4d60e11b815260649063928c169a908390613909907f000000000000000000000000000000000000000000000000000000000000000090889060040161485c565b60206040518083038185885af1158015613927573d6000803e3d6000fd5b50505050506040513d601f19601f82011682018060405250810190610b6691906144f8565b60006139616001600160a01b03841683613f71565b905080516000141580156139865750808060200190518101906139849190614511565b155b1561065157604051635274afe760e01b81526001600160a01b0384166004820152602401610707565b600061eeed196001600160a01b038416016139d557506001600160a01b03811631613a42565b6040516370a0823160e01b81526001600160a01b0383811660048301528416906370a0823190602401602060405180830381865afa158015613a1b573d6000803e3d6000fd5b505050506040513d601f19601f82011682018060405250810190613a3f91906144f8565b90505b92915050565b60408051602081018590529081018390526001600160a01b03821660608201526000906080016040516020818303038152906040528051906020012090509392505050565b613a95614183565b6000836020018051613aa690614880565b9081905290506001613aba6020600261497d565b613ac49190614559565b811115613ae457604051638eab04bb60e01b815260040160405180910390fd5b60005b6020811015613b795781600116600103613b2057845184908260208110613b1057613b10614411565b602002015250839150613a429050565b84518160208110613b3357613b33614411565b602002015184604051602001613b53929190918252602082015260400190565b60408051601f1981840301815291905280516020909101209350600191821c9101613ae7565b50604051638eab04bb60e01b815260040160405180910390fd5b604080516001600160a01b038416602482015260448082018490528251808303909101815260649091019091526020810180516001600160e01b031663095ea7b360e01b179052613be48482613f7f565b6112ad576040516001600160a01b03848116602483015260006044830152613c1991869182169063095ea7b390606401611557565b6112ad848261394c565b6020600582811b8216948552835194820394909452604060008181206002851615871b808503919091528386015190528181206004851615871b808503919091528286015190528181206008851615871b80850391909152606086015190528181206010851615871b8085039190915260808087015190915282822084861615881b8086039190915260a0870151905282822083861615881b8086039190915260c0870151905282822090851615871b8085039190915260e0860151905281812061010080861615881b80860392909252860151905281812061020080861615881b80860392909252610120870151909152828220610400861615881b808603919091526101408701519052828220610800861615881b808603919091526101608701519052828220611000861615881b808603919091526101808701519052828220612000861615881b808603919091526101a08701519052828220614000861615881b808603919091526101c08701519052828220618000861615881b808603919091526101e0870151905282822062010000861615881b8086039190915290860151905281812062020000851615871b80850391909152610220860151905281812062040000851615871b80850391909152610240860151905281812062080000851615871b80850391909152610260860151905281812062100000851615871b80850391909152610280860151905281812062200000851615871b808503919091526102a0860151905281812062400000851615871b808503919091526102c0860151905281812062800000851615871b808503919091526102e086015190528181206301000000851615871b8085039190915261030086015190528181206302000000851615871b8085039190915261032086015190528181206304000000851615871b8085039190915261034086015190528181206308000000851615871b8085039190915261036086015190528181206310000000851615871b8085039190915261038086015190528181206320000000851615871b808503919091526103a086015190528181206340000000851615871b808503919091526103c0860151905281812063800000009094161590951b91829003929092526103e090920151909152902090565b6060613a3f83836000614027565b6000806000846001600160a01b031684604051613f9c9190614989565b6000604051808303816000865af19150503d8060008114613fd9576040519150601f19603f3d011682016040523d82523d6000602084013e613fde565b606091505b50915091508180156140085750805115806140085750808060200190518101906140089190614511565b801561401e57506000856001600160a01b03163b115b95945050505050565b60608147101561404c5760405163cd78605960e01b8152306004820152602401610707565b600080856001600160a01b031684866040516140689190614989565b60006040518083038185875af1925050503d80600081146140a5576040519150601f19603f3d011682016040523d82523d6000602084013e6140aa565b606091505b50915091506140ba8683836140c4565b9695505050505050565b6060826140d9576140d482614120565b611e7b565b81511580156140f057506001600160a01b0384163b155b1561411957604051639996b31560e01b81526001600160a01b0385166004820152602401610707565b5080611e7b565b8051156141305780518082602001fd5b604051630a12f52160e11b815260040160405180910390fd5b8260208101928215614177579160200282015b8281111561417757825182559160200191906001019061415c565b50610bbc9291506141a3565b60405180604001604052806141966141b8565b8152602001600081525090565b5b80821115610bbc57600081556001016141a4565b6040518061040001604052806020906020820280368337509192915050565b600080602083850312156141ea57600080fd5b82356001600160401b038082111561420157600080fd5b818501915085601f83011261421557600080fd5b81358181111561422457600080fd5b8660208260071b850101111561423957600080fd5b60209290920196919550909350505050565b60006080828403121561425d57600080fd5b50919050565b60006080828403121561427557600080fd5b613a3f838361424b565b6001600160a01b0381168114610c3657600080fd5b600080600080608085870312156142aa57600080fd5b8435935060208501356142bc8161427f565b92506040850135915060608501356142d38161427f565b939692955090935050565b6000602082840312156142f057600080fd5b8135611e7b8161427f565b6001600160401b038416815260208082018490528251610460830191906000604085015b8382101561433d57825181529183019160019190910190830161431f565b505050506020830151610440830152949350505050565b60006104a0828403121561425d57600080fd5b6000806020838503121561437a57600080fd5b82356001600160401b038082111561439157600080fd5b818501915085601f8301126143a557600080fd5b8135818111156143b457600080fd5b8660206104a08302850101111561423957600080fd5b634e487b7160e01b600052602160045260246000fd5b60028110610c3657634e487b7160e01b600052602160045260246000fd5b6020810161440b836143e0565b91905290565b634e487b7160e01b600052603260045260246000fd5b60006020828403121561443957600080fd5b813563ffffffff81168114611e7b57600080fd5b60006020828403121561445f57600080fd5b8151611e7b8161427f565b634e487b7160e01b600052601160045260246000fd5b80820180821115613a4257613a4261446a565b6001600160401b0381168114610c3657600080fd5b6000602082840312156144ba57600080fd5b8135611e7b81614493565b81356144d081614493565b6001600160401b0381166001600160401b031983541617825550602082013560018201555050565b60006020828403121561450a57600080fd5b5051919050565b60006020828403121561452357600080fd5b81518015158114611e7b57600080fd5b60006001600160401b0380831681810361454f5761454f61446a565b6001019392505050565b81810381811115613a4257613a4261446a565b60005b8381101561458757818101518382015260200161456f565b50506000910152565b600081518084526145a881602086016020860161456c565b601f01601f19169290920160200192915050565b600060018060a01b03808a168352886020840152808816604084015286606084015285608084015280851660a08401525060e060c083015261460160e0830184614590565b9998505050505050505050565b634e487b7160e01b600052600160045260246000fd5b86815260018060a01b0386166020820152846040820152831515606082015260c06080820152600061465960c0830185614590565b82810360a08401526146018185614590565b63ffffffff81811683821602808216919082811461468b5761468b61446a565b505092915050565b8281526040602082015260006146ac6040830184614590565b949350505050565b6001600160a01b0388811682528781166020830152861660408201526060810185905263ffffffff8416608082015260a0810183905260e060c0820181905260009061460190830184614590565b634e487b7160e01b600052604160045260246000fd5b60006020828403121561472a57600080fd5b81516001600160401b038082111561474157600080fd5b818401915084601f83011261475557600080fd5b81518181111561476757614767614702565b604051601f8201601f19908116603f0116810190838211818310171561478f5761478f614702565b816040528281528760208487010111156147a857600080fd5b6147b983602083016020880161456c565b979650505050505050565b6001600160a01b038981168252602082018990526040820188905286811660608301528516608082015263ffffffff841660a082015260c0810183905261010060e0820181905260009061481a83820185614590565b9b9a5050505050505050505050565b6001600160a01b03858116825284166020820152604081018390526080606082018190526000906140ba90830184614590565b6001600160a01b03831681526040602082018190526000906146ac90830184614590565b6000600182016148925761489261446a565b5060010190565b600181815b808511156148d45781600019048211156148ba576148ba61446a565b808516156148c757918102915b93841c939080029061489e565b509250929050565b6000826148eb57506001613a42565b816148f857506000613a42565b816001811461490e576002811461491857614934565b6001915050613a42565b60ff8411156149295761492961446a565b50506001821b613a42565b5060208310610133831016604e8410600b8410161715614957575081810a613a42565b6149618383614899565b80600019048211156149755761497561446a565b029392505050565b6000613a3f83836148dc565b6000825161499b81846020870161456c565b919091019291505056fea2646970667358221220f91f8c85f8eaf61b3d7ff8ff90fa8e08fc522b195dd315b47e304e1a67b423eb64736f6c63430008170033a2646970667358221220067e8ce0824b816d875023f0ed384b9dc614953d39bfb2b2625d5fb384e99cc864736f6c63430008170033",
	"devdoc": {
		"kind": "dev",
		"methods": {
			"createForSender(uint256,bytes32)": {
				"details": "Uses the sender address as the salt, which means the same sender must call this function on both chains.",
				"params": {
					"localProjectId": "The project's ID on the local chain.",
					"salt": "The salt to use for the `create2` address."
				},
				"returns": {
					"sucker": "The address of the new sucker."
				}
			},
			"gatewayRouter()": {
				"returns": {
					"gateway": "for the current chain."
				}
			}
		},
		"version": 1
	},
	"userdoc": {
		"kind": "user",
		"methods": {
			"LAYER()": {
				"notice": "The layer that this contract is on."
			},
			"PERMISSIONS()": {
				"notice": "A contract storing permissions."
			},
			"TEMP_ID_STORE()": {
				"notice": "A temporary storage slot used by suckers to maintain deterministic deploys."
			},
			"createForSender(uint256,bytes32)": {
				"notice": "Create a new `JBSucker` for a specific project."
			},
			"gatewayRouter()": {
				"notice": "Returns the gateway router address for the current chain"
			},
			"isSucker(address)": {
				"notice": "A mapping of suckers deployed by this contract."
			}
		},
		"version": 1
	},
	"gitCommit": "3beaba16d338363977ccfca224b518ea5b558dd8",
	"sourceName": "src/deployers/JBArbitrumSuckerDeployer.sol",
	"chainId": "11155111",
	"linkReferences": {},
	"deployedLinkReferences": {},
	"history": []
}