{
	"_format": "sphinx-sol-ct-artifact-1",
	"merkleRoot": "0x0410b26c523d95207befbf99f9f14f785c99371309b4eab483b4258b96c88b3e",
	"contractName": "JBBaseSucker",
	"address": "0x87A130C1f72Ba84526a15A27eE432B5658f4Fa99",
	"abi": [
		{
			"type": "constructor",
			"inputs": [
				{
					"name": "deployer",
					"type": "address",
					"internalType": "contract JBOptimismSuckerDeployer"
				},
				{
					"name": "directory",
					"type": "address",
					"internalType": "contract IJBDirectory"
				},
				{
					"name": "permissions",
					"type": "address",
					"internalType": "contract IJBPermissions"
				},
				{
					"name": "tokens",
					"type": "address",
					"internalType": "contract IJBTokens"
				},
				{
					"name": "addToBalanceMode",
					"type": "uint8",
					"internalType": "enum JBAddToBalanceMode"
				},
				{
					"name": "trusted_forwarder",
					"type": "address",
					"internalType": "address"
				}
			],
			"stateMutability": "nonpayable"
		},
		{
			"type": "receive",
			"stateMutability": "payable"
		},
		{
			"type": "function",
			"name": "ADD_TO_BALANCE_MODE",
			"inputs": [],
			"outputs": [
				{
					"name": "",
					"type": "uint8",
					"internalType": "enum JBAddToBalanceMode"
				}
			],
			"stateMutability": "view"
		},
		{
			"type": "function",
			"name": "DEPLOYER",
			"inputs": [],
			"outputs": [
				{
					"name": "",
					"type": "address",
					"internalType": "address"
				}
			],
			"stateMutability": "view"
		},
		{
			"type": "function",
			"name": "DIRECTORY",
			"inputs": [],
			"outputs": [
				{
					"name": "",
					"type": "address",
					"internalType": "contract IJBDirectory"
				}
			],
			"stateMutability": "view"
		},
		{
			"type": "function",
			"name": "MESSENGER_BASE_GAS_LIMIT",
			"inputs": [],
			"outputs": [
				{
					"name": "",
					"type": "uint32",
					"internalType": "uint32"
				}
			],
			"stateMutability": "view"
		},
		{
			"type": "function",
			"name": "MESSENGER_ERC20_MIN_GAS_LIMIT",
			"inputs": [],
			"outputs": [
				{
					"name": "",
					"type": "uint32",
					"internalType": "uint32"
				}
			],
			"stateMutability": "view"
		},
		{
			"type": "function",
			"name": "OPBRIDGE",
			"inputs": [],
			"outputs": [
				{
					"name": "",
					"type": "address",
					"internalType": "contract IOPStandardBridge"
				}
			],
			"stateMutability": "view"
		},
		{
			"type": "function",
			"name": "OPMESSENGER",
			"inputs": [],
			"outputs": [
				{
					"name": "",
					"type": "address",
					"internalType": "contract IOPMessenger"
				}
			],
			"stateMutability": "view"
		},
		{
			"type": "function",
			"name": "PERMISSIONS",
			"inputs": [],
			"outputs": [
				{
					"name": "",
					"type": "address",
					"internalType": "contract IJBPermissions"
				}
			],
			"stateMutability": "view"
		},
		{
			"type": "function",
			"name": "TOKENS",
			"inputs": [],
			"outputs": [
				{
					"name": "",
					"type": "address",
					"internalType": "contract IJBTokens"
				}
			],
			"stateMutability": "view"
		},
		{
			"type": "function",
			"name": "addOutstandingAmountToBalance",
			"inputs": [
				{
					"name": "token",
					"type": "address",
					"internalType": "address"
				}
			],
			"outputs": [],
			"stateMutability": "nonpayable"
		},
		{
			"type": "function",
			"name": "amountToAddToBalanceOf",
			"inputs": [
				{
					"name": "token",
					"type": "address",
					"internalType": "address"
				}
			],
			"outputs": [
				{
					"name": "",
					"type": "uint256",
					"internalType": "uint256"
				}
			],
			"stateMutability": "view"
		},
		{
			"type": "function",
			"name": "claim",
			"inputs": [
				{
					"name": "claimData",
					"type": "tuple",
					"internalType": "struct JBClaim",
					"components": [
						{
							"name": "token",
							"type": "address",
							"internalType": "address"
						},
						{
							"name": "leaf",
							"type": "tuple",
							"internalType": "struct JBLeaf",
							"components": [
								{
									"name": "index",
									"type": "uint256",
									"internalType": "uint256"
								},
								{
									"name": "beneficiary",
									"type": "address",
									"internalType": "address"
								},
								{
									"name": "projectTokenCount",
									"type": "uint256",
									"internalType": "uint256"
								},
								{
									"name": "terminalTokenAmount",
									"type": "uint256",
									"internalType": "uint256"
								}
							]
						},
						{
							"name": "proof",
							"type": "bytes32[32]",
							"internalType": "bytes32[32]"
						}
					]
				}
			],
			"outputs": [],
			"stateMutability": "nonpayable"
		},
		{
			"type": "function",
			"name": "claim",
			"inputs": [
				{
					"name": "claims",
					"type": "tuple[]",
					"internalType": "struct JBClaim[]",
					"components": [
						{
							"name": "token",
							"type": "address",
							"internalType": "address"
						},
						{
							"name": "leaf",
							"type": "tuple",
							"internalType": "struct JBLeaf",
							"components": [
								{
									"name": "index",
									"type": "uint256",
									"internalType": "uint256"
								},
								{
									"name": "beneficiary",
									"type": "address",
									"internalType": "address"
								},
								{
									"name": "projectTokenCount",
									"type": "uint256",
									"internalType": "uint256"
								},
								{
									"name": "terminalTokenAmount",
									"type": "uint256",
									"internalType": "uint256"
								}
							]
						},
						{
							"name": "proof",
							"type": "bytes32[32]",
							"internalType": "bytes32[32]"
						}
					]
				}
			],
			"outputs": [],
			"stateMutability": "nonpayable"
		},
		{
			"type": "function",
			"name": "enableEmergencyHatchFor",
			"inputs": [
				{
					"name": "tokens",
					"type": "address[]",
					"internalType": "address[]"
				}
			],
			"outputs": [],
			"stateMutability": "nonpayable"
		},
		{
			"type": "function",
			"name": "exitThroughEmergencyHatch",
			"inputs": [
				{
					"name": "claimData",
					"type": "tuple",
					"internalType": "struct JBClaim",
					"components": [
						{
							"name": "token",
							"type": "address",
							"internalType": "address"
						},
						{
							"name": "leaf",
							"type": "tuple",
							"internalType": "struct JBLeaf",
							"components": [
								{
									"name": "index",
									"type": "uint256",
									"internalType": "uint256"
								},
								{
									"name": "beneficiary",
									"type": "address",
									"internalType": "address"
								},
								{
									"name": "projectTokenCount",
									"type": "uint256",
									"internalType": "uint256"
								},
								{
									"name": "terminalTokenAmount",
									"type": "uint256",
									"internalType": "uint256"
								}
							]
						},
						{
							"name": "proof",
							"type": "bytes32[32]",
							"internalType": "bytes32[32]"
						}
					]
				}
			],
			"outputs": [],
			"stateMutability": "nonpayable"
		},
		{
			"type": "function",
			"name": "fromRemote",
			"inputs": [
				{
					"name": "root",
					"type": "tuple",
					"internalType": "struct JBMessageRoot",
					"components": [
						{
							"name": "token",
							"type": "address",
							"internalType": "address"
						},
						{
							"name": "amount",
							"type": "uint256",
							"internalType": "uint256"
						},
						{
							"name": "remoteRoot",
							"type": "tuple",
							"internalType": "struct JBInboxTreeRoot",
							"components": [
								{
									"name": "nonce",
									"type": "uint64",
									"internalType": "uint64"
								},
								{
									"name": "root",
									"type": "bytes32",
									"internalType": "bytes32"
								}
							]
						}
					]
				}
			],
			"outputs": [],
			"stateMutability": "payable"
		},
		{
			"type": "function",
			"name": "inboxOf",
			"inputs": [
				{
					"name": "token",
					"type": "address",
					"internalType": "address"
				}
			],
			"outputs": [
				{
					"name": "",
					"type": "tuple",
					"internalType": "struct JBInboxTreeRoot",
					"components": [
						{
							"name": "nonce",
							"type": "uint64",
							"internalType": "uint64"
						},
						{
							"name": "root",
							"type": "bytes32",
							"internalType": "bytes32"
						}
					]
				}
			],
			"stateMutability": "view"
		},
		{
			"type": "function",
			"name": "initialize",
			"inputs": [
				{
					"name": "__projectId",
					"type": "uint256",
					"internalType": "uint256"
				}
			],
			"outputs": [],
			"stateMutability": "nonpayable"
		},
		{
			"type": "function",
			"name": "isMapped",
			"inputs": [
				{
					"name": "token",
					"type": "address",
					"internalType": "address"
				}
			],
			"outputs": [
				{
					"name": "",
					"type": "bool",
					"internalType": "bool"
				}
			],
			"stateMutability": "view"
		},
		{
			"type": "function",
			"name": "isTrustedForwarder",
			"inputs": [
				{
					"name": "forwarder",
					"type": "address",
					"internalType": "address"
				}
			],
			"outputs": [
				{
					"name": "",
					"type": "bool",
					"internalType": "bool"
				}
			],
			"stateMutability": "view"
		},
		{
			"type": "function",
			"name": "mapToken",
			"inputs": [
				{
					"name": "map",
					"type": "tuple",
					"internalType": "struct JBTokenMapping",
					"components": [
						{
							"name": "localToken",
							"type": "address",
							"internalType": "address"
						},
						{
							"name": "minGas",
							"type": "uint32",
							"internalType": "uint32"
						},
						{
							"name": "remoteToken",
							"type": "address",
							"internalType": "address"
						},
						{
							"name": "minBridgeAmount",
							"type": "uint256",
							"internalType": "uint256"
						}
					]
				}
			],
			"outputs": [],
			"stateMutability": "payable"
		},
		{
			"type": "function",
			"name": "mapTokens",
			"inputs": [
				{
					"name": "maps",
					"type": "tuple[]",
					"internalType": "struct JBTokenMapping[]",
					"components": [
						{
							"name": "localToken",
							"type": "address",
							"internalType": "address"
						},
						{
							"name": "minGas",
							"type": "uint32",
							"internalType": "uint32"
						},
						{
							"name": "remoteToken",
							"type": "address",
							"internalType": "address"
						},
						{
							"name": "minBridgeAmount",
							"type": "uint256",
							"internalType": "uint256"
						}
					]
				}
			],
			"outputs": [],
			"stateMutability": "payable"
		},
		{
			"type": "function",
			"name": "outboxOf",
			"inputs": [
				{
					"name": "token",
					"type": "address",
					"internalType": "address"
				}
			],
			"outputs": [
				{
					"name": "",
					"type": "tuple",
					"internalType": "struct JBOutboxTree",
					"components": [
						{
							"name": "nonce",
							"type": "uint64",
							"internalType": "uint64"
						},
						{
							"name": "balance",
							"type": "uint256",
							"internalType": "uint256"
						},
						{
							"name": "tree",
							"type": "tuple",
							"internalType": "struct MerkleLib.Tree",
							"components": [
								{
									"name": "branch",
									"type": "bytes32[32]",
									"internalType": "bytes32[32]"
								},
								{
									"name": "count",
									"type": "uint256",
									"internalType": "uint256"
								}
							]
						},
						{
							"name": "numberOfClaimsSent",
							"type": "uint256",
							"internalType": "uint256"
						}
					]
				}
			],
			"stateMutability": "view"
		},
		{
			"type": "function",
			"name": "peer",
			"inputs": [],
			"outputs": [
				{
					"name": "",
					"type": "address",
					"internalType": "address"
				}
			],
			"stateMutability": "view"
		},
		{
			"type": "function",
			"name": "peerChainId",
			"inputs": [],
			"outputs": [
				{
					"name": "",
					"type": "uint256",
					"internalType": "uint256"
				}
			],
			"stateMutability": "view"
		},
		{
			"type": "function",
			"name": "prepare",
			"inputs": [
				{
					"name": "projectTokenCount",
					"type": "uint256",
					"internalType": "uint256"
				},
				{
					"name": "beneficiary",
					"type": "address",
					"internalType": "address"
				},
				{
					"name": "minTokensReclaimed",
					"type": "uint256",
					"internalType": "uint256"
				},
				{
					"name": "token",
					"type": "address",
					"internalType": "address"
				}
			],
			"outputs": [],
			"stateMutability": "nonpayable"
		},
		{
			"type": "function",
			"name": "projectId",
			"inputs": [],
			"outputs": [
				{
					"name": "",
					"type": "uint256",
					"internalType": "uint256"
				}
			],
			"stateMutability": "view"
		},
		{
			"type": "function",
			"name": "remoteTokenFor",
			"inputs": [
				{
					"name": "token",
					"type": "address",
					"internalType": "address"
				}
			],
			"outputs": [
				{
					"name": "",
					"type": "tuple",
					"internalType": "struct JBRemoteToken",
					"components": [
						{
							"name": "enabled",
							"type": "bool",
							"internalType": "bool"
						},
						{
							"name": "emergencyHatch",
							"type": "bool",
							"internalType": "bool"
						},
						{
							"name": "minGas",
							"type": "uint32",
							"internalType": "uint32"
						},
						{
							"name": "addr",
							"type": "address",
							"internalType": "address"
						},
						{
							"name": "minBridgeAmount",
							"type": "uint256",
							"internalType": "uint256"
						}
					]
				}
			],
			"stateMutability": "view"
		},
		{
			"type": "function",
			"name": "setDeprecation",
			"inputs": [
				{
					"name": "timestamp",
					"type": "uint40",
					"internalType": "uint40"
				}
			],
			"outputs": [],
			"stateMutability": "nonpayable"
		},
		{
			"type": "function",
			"name": "state",
			"inputs": [],
			"outputs": [
				{
					"name": "",
					"type": "uint8",
					"internalType": "enum JBSuckerState"
				}
			],
			"stateMutability": "view"
		},
		{
			"type": "function",
			"name": "supportsInterface",
			"inputs": [
				{
					"name": "interfaceId",
					"type": "bytes4",
					"internalType": "bytes4"
				}
			],
			"outputs": [
				{
					"name": "",
					"type": "bool",
					"internalType": "bool"
				}
			],
			"stateMutability": "view"
		},
		{
			"type": "function",
			"name": "toRemote",
			"inputs": [
				{
					"name": "token",
					"type": "address",
					"internalType": "address"
				}
			],
			"outputs": [],
			"stateMutability": "payable"
		},
		{
			"type": "function",
			"name": "trustedForwarder",
			"inputs": [],
			"outputs": [
				{
					"name": "",
					"type": "address",
					"internalType": "address"
				}
			],
			"stateMutability": "view"
		},
		{
			"type": "event",
			"name": "Claimed",
			"inputs": [
				{
					"name": "beneficiary",
					"type": "address",
					"indexed": false,
					"internalType": "address"
				},
				{
					"name": "token",
					"type": "address",
					"indexed": false,
					"internalType": "address"
				},
				{
					"name": "projectTokenCount",
					"type": "uint256",
					"indexed": false,
					"internalType": "uint256"
				},
				{
					"name": "terminalTokenAmount",
					"type": "uint256",
					"indexed": false,
					"internalType": "uint256"
				},
				{
					"name": "index",
					"type": "uint256",
					"indexed": false,
					"internalType": "uint256"
				},
				{
					"name": "autoAddedToBalance",
					"type": "bool",
					"indexed": false,
					"internalType": "bool"
				},
				{
					"name": "caller",
					"type": "address",
					"indexed": false,
					"internalType": "address"
				}
			],
			"anonymous": false
		},
		{
			"type": "event",
			"name": "DeprecationTimeUpdated",
			"inputs": [
				{
					"name": "timestamp",
					"type": "uint40",
					"indexed": false,
					"internalType": "uint40"
				},
				{
					"name": "caller",
					"type": "address",
					"indexed": false,
					"internalType": "address"
				}
			],
			"anonymous": false
		},
		{
			"type": "event",
			"name": "EmergencyHatchOpened",
			"inputs": [
				{
					"name": "tokens",
					"type": "address[]",
					"indexed": false,
					"internalType": "address[]"
				},
				{
					"name": "caller",
					"type": "address",
					"indexed": false,
					"internalType": "address"
				}
			],
			"anonymous": false
		},
		{
			"type": "event",
			"name": "Initialized",
			"inputs": [
				{
					"name": "version",
					"type": "uint64",
					"indexed": false,
					"internalType": "uint64"
				}
			],
			"anonymous": false
		},
		{
			"type": "event",
			"name": "InsertToOutboxTree",
			"inputs": [
				{
					"name": "beneficiary",
					"type": "address",
					"indexed": true,
					"internalType": "address"
				},
				{
					"name": "token",
					"type": "address",
					"indexed": true,
					"internalType": "address"
				},
				{
					"name": "hashed",
					"type": "bytes32",
					"indexed": false,
					"internalType": "bytes32"
				},
				{
					"name": "index",
					"type": "uint256",
					"indexed": false,
					"internalType": "uint256"
				},
				{
					"name": "root",
					"type": "bytes32",
					"indexed": false,
					"internalType": "bytes32"
				},
				{
					"name": "projectTokenCount",
					"type": "uint256",
					"indexed": false,
					"internalType": "uint256"
				},
				{
					"name": "terminalTokenAmount",
					"type": "uint256",
					"indexed": false,
					"internalType": "uint256"
				},
				{
					"name": "caller",
					"type": "address",
					"indexed": false,
					"internalType": "address"
				}
			],
			"anonymous": false
		},
		{
			"type": "event",
			"name": "NewInboxTreeRoot",
			"inputs": [
				{
					"name": "token",
					"type": "address",
					"indexed": true,
					"internalType": "address"
				},
				{
					"name": "nonce",
					"type": "uint64",
					"indexed": false,
					"internalType": "uint64"
				},
				{
					"name": "root",
					"type": "bytes32",
					"indexed": false,
					"internalType": "bytes32"
				},
				{
					"name": "caller",
					"type": "address",
					"indexed": false,
					"internalType": "address"
				}
			],
			"anonymous": false
		},
		{
			"type": "event",
			"name": "RootToRemote",
			"inputs": [
				{
					"name": "root",
					"type": "bytes32",
					"indexed": true,
					"internalType": "bytes32"
				},
				{
					"name": "token",
					"type": "address",
					"indexed": true,
					"internalType": "address"
				},
				{
					"name": "index",
					"type": "uint256",
					"indexed": false,
					"internalType": "uint256"
				},
				{
					"name": "nonce",
					"type": "uint64",
					"indexed": false,
					"internalType": "uint64"
				},
				{
					"name": "caller",
					"type": "address",
					"indexed": false,
					"internalType": "address"
				}
			],
			"anonymous": false
		},
		{
			"type": "error",
			"name": "InvalidInitialization",
			"inputs": []
		},
		{
			"type": "error",
			"name": "JBPermissioned_Unauthorized",
			"inputs": [
				{
					"name": "account",
					"type": "address",
					"internalType": "address"
				},
				{
					"name": "sender",
					"type": "address",
					"internalType": "address"
				},
				{
					"name": "projectId",
					"type": "uint256",
					"internalType": "uint256"
				},
				{
					"name": "permissionId",
					"type": "uint256",
					"internalType": "uint256"
				}
			]
		},
		{
			"type": "error",
			"name": "JBSucker_BelowMinGas",
			"inputs": [
				{
					"name": "minGas",
					"type": "uint256",
					"internalType": "uint256"
				},
				{
					"name": "minGasLimit",
					"type": "uint256",
					"internalType": "uint256"
				}
			]
		},
		{
			"type": "error",
			"name": "JBSucker_Deprecated",
			"inputs": []
		},
		{
			"type": "error",
			"name": "JBSucker_DeprecationTimestampTooSoon",
			"inputs": [
				{
					"name": "givenTime",
					"type": "uint256",
					"internalType": "uint256"
				},
				{
					"name": "minimumTime",
					"type": "uint256",
					"internalType": "uint256"
				}
			]
		},
		{
			"type": "error",
			"name": "JBSucker_ExpectedMsgValue",
			"inputs": []
		},
		{
			"type": "error",
			"name": "JBSucker_InsufficientBalance",
			"inputs": [
				{
					"name": "amount",
					"type": "uint256",
					"internalType": "uint256"
				},
				{
					"name": "balance",
					"type": "uint256",
					"internalType": "uint256"
				}
			]
		},
		{
			"type": "error",
			"name": "JBSucker_InsufficientMsgValue",
			"inputs": [
				{
					"name": "received",
					"type": "uint256",
					"internalType": "uint256"
				},
				{
					"name": "expected",
					"type": "uint256",
					"internalType": "uint256"
				}
			]
		},
		{
			"type": "error",
			"name": "JBSucker_InvalidNativeRemoteAddress",
			"inputs": [
				{
					"name": "remoteToken",
					"type": "address",
					"internalType": "address"
				}
			]
		},
		{
			"type": "error",
			"name": "JBSucker_InvalidProof",
			"inputs": [
				{
					"name": "root",
					"type": "bytes32",
					"internalType": "bytes32"
				},
				{
					"name": "inboxRoot",
					"type": "bytes32",
					"internalType": "bytes32"
				}
			]
		},
		{
			"type": "error",
			"name": "JBSucker_LeafAlreadyExecuted",
			"inputs": [
				{
					"name": "token",
					"type": "address",
					"internalType": "address"
				},
				{
					"name": "index",
					"type": "uint256",
					"internalType": "uint256"
				}
			]
		},
		{
			"type": "error",
			"name": "JBSucker_ManualNotAllowed",
			"inputs": [
				{
					"name": "mode",
					"type": "uint8",
					"internalType": "enum JBAddToBalanceMode"
				}
			]
		},
		{
			"type": "error",
			"name": "JBSucker_NoTerminalForToken",
			"inputs": [
				{
					"name": "projectId",
					"type": "uint256",
					"internalType": "uint256"
				},
				{
					"name": "token",
					"type": "address",
					"internalType": "address"
				}
			]
		},
		{
			"type": "error",
			"name": "JBSucker_NotPeer",
			"inputs": [
				{
					"name": "caller",
					"type": "address",
					"internalType": "address"
				}
			]
		},
		{
			"type": "error",
			"name": "JBSucker_QueueInsufficientSize",
			"inputs": [
				{
					"name": "amount",
					"type": "uint256",
					"internalType": "uint256"
				},
				{
					"name": "minimumAmount",
					"type": "uint256",
					"internalType": "uint256"
				}
			]
		},
		{
			"type": "error",
			"name": "JBSucker_TokenAlreadyMapped",
			"inputs": [
				{
					"name": "localToken",
					"type": "address",
					"internalType": "address"
				},
				{
					"name": "mappedTo",
					"type": "address",
					"internalType": "address"
				}
			]
		},
		{
			"type": "error",
			"name": "JBSucker_TokenHasInvalidEmergencyHatchState",
			"inputs": [
				{
					"name": "token",
					"type": "address",
					"internalType": "address"
				}
			]
		},
		{
			"type": "error",
			"name": "JBSucker_TokenNotMapped",
			"inputs": [
				{
					"name": "token",
					"type": "address",
					"internalType": "address"
				}
			]
		},
		{
			"type": "error",
			"name": "JBSucker_UnexpectedMsgValue",
			"inputs": [
				{
					"name": "value",
					"type": "uint256",
					"internalType": "uint256"
				}
			]
		},
		{
			"type": "error",
			"name": "JBSucker_ZeroBeneficiary",
			"inputs": []
		},
		{
			"type": "error",
			"name": "JBSucker_ZeroERC20Token",
			"inputs": []
		},
		{
			"type": "error",
			"name": "MerkleLib__insert_treeIsFull",
			"inputs": []
		},
		{
			"type": "error",
			"name": "NotInitializing",
			"inputs": []
		},
		{
			"type": "error",
			"name": "SafeERC20FailedOperation",
			"inputs": [
				{
					"name": "token",
					"type": "address",
					"internalType": "address"
				}
			]
		}
	],
	"solcInputHash": "a3dd08f3181929e59634f062e1db0527",
	"args": [
		"0xd67a99948342235cd2E502204fb77756013f323c",
		"0x5ADb234602D074064C216C1fDB23c6c2031F0C75",
		"0x4886C30C81a17a3A1084fd1812008fA0f71a20B9",
		"0x94Db7C71D9E4bcDE99686bE9570C68BF12708D3e",
		"0",
		"0xB2b5841DBeF766d4b521221732F9B618fCf34A87"
	],
	"bytecode": "0x6101806040523480156200001257600080fd5b5060405162005a5b38038062005a5b833981016040819052620000359162000271565b6001600160a01b0380821660805280851660a052808616610100528316610120523360e05285858585858584848484848160018111156200007a576200007a62000308565b60c081600181111562000091576200009162000308565b9052506200009e620001a7565b5050505050856001600160a01b03166328db992a6040518163ffffffff1660e01b8152600401602060405180830381865afa158015620000e2573d6000803e3d6000fd5b505050506040513d601f19601f820116820180604052508101906200010891906200031e565b6001600160a01b0316610140816001600160a01b031681525050856001600160a01b031663516bf2f36040518163ffffffff1660e01b8152600401602060405180830381865afa15801562000161573d6000803e3d6000fd5b505050506040513d601f19601f820116820180604052508101906200018791906200031e565b6001600160a01b03166101605250620003459a5050505050505050505050565b7ff0c57e16840df040f15088dc2f81fe391c3923bec73e23a9662efc9c229c6a00805468010000000000000000900460ff1615620001f85760405163f92ee8a960e01b815260040160405180910390fd5b80546001600160401b0390811614620002585780546001600160401b0319166001600160401b0390811782556040519081527fc7f505b2f371ae2175ee4913f4499e1f2633a7b5936321eed1cdaeb6115181d29060200160405180910390a15b50565b6001600160a01b03811681146200025857600080fd5b60008060008060008060c087890312156200028b57600080fd5b865162000298816200025b565b6020880151909650620002ab816200025b565b6040880151909550620002be816200025b565b6060880151909450620002d1816200025b565b608088015190935060028110620002e757600080fd5b60a0880151909250620002fa816200025b565b809150509295509295509295565b634e487b7160e01b600052602160045260246000fd5b6000602082840312156200033157600080fd5b81516200033e816200025b565b9392505050565b60805160a05160c05160e0516101005161012051610140516101605161562b620004306000396000818161081b01528181612a3201528181612a7801526148ae0152600081816102e5015281816147ba01526147e101526000818161029e0152610b4a01526000818161063801528181610d9d015281816111d001528181611b1b01528181611d17015281816121c401526126d60152600061075d01526000818161079101528181610f6e01528181610fa5015281816114c20152611a9f0152600081816107e701526125700152600081816103a2015281816104cd0152614480015261562b6000f3fe6080604052600436106102025760003560e01c80637da0a8771161011d578063bf557aee116100b0578063c6525f2c1161007f578063f434c91411610064578063f434c914146107d5578063fc8fa43d14610809578063fe4b84df1461083d57600080fd5b8063c6525f2c1461077f578063cdfceeba146107c057600080fd5b8063bf557aee146106c4578063c185412914610709578063c19d93fb14610729578063c1b8411a1461074b57600080fd5b806392ee1ea7116100ec57806392ee1ea71461065a5780639e6d7d4314610671578063b59ef50f14610691578063b71c1179146106b157600080fd5b80637da0a877146104be5780637de6fba2146104f1578063802c8fa0146105f957806388bc2ef31461062657600080fd5b80633fafa1271161019557806369ce22331161016457806369ce2233146103f257806369d31fdd146104125780636d9e384b14610425578063754515591461049e57600080fd5b80633fafa12714610346578063551ebbf014610365578063572b6c05146103855780636284386a146103d257600080fd5b80632241dc52116101d15780632241dc52146102c05780632847f1f3146102d357806338eb2044146103075780633a5de07d1461031a57600080fd5b806301ffc9a71461020e5780630f6482141461024357806311cda415146102655780631d831d5c1461028c57600080fd5b3661020957005b600080fd5b34801561021a57600080fd5b5061022e610229366004614e04565b61085d565b60405190151581526020015b60405180910390f35b34801561024f57600080fd5b5061026361025e366004614e46565b610942565b005b34801561027157600080fd5b50305b6040516001600160a01b03909116815260200161023a565b34801561029857600080fd5b506102747f000000000000000000000000000000000000000000000000000000000000000081565b6102636102ce366004614e5f565b6109f9565b3480156102df57600080fd5b506102747f000000000000000000000000000000000000000000000000000000000000000081565b610263610315366004614ee6565b610afc565b34801561032657600080fd5b5061033162030d4081565b60405163ffffffff909116815260200161023a565b34801561035257600080fd5b506001545b60405190815260200161023a565b34801561037157600080fd5b50610263610380366004614f17565b610b06565b34801561039157600080fd5b5061022e6103a0366004614f61565b7f00000000000000000000000000000000000000000000000000000000000000006001600160a01b0390811691161490565b3480156103de57600080fd5b506102636103ed366004614f7e565b610d39565b3480156103fe57600080fd5b5061026361040d366004614f61565b610f6a565b610263610420366004614ee6565b611009565b34801561043157600080fd5b50610491610440366004614f61565b6040805180820190915260008082526020820152506001600160a01b03166000908152600360209081526040918290208251808401909352805467ffffffffffffffff168352600101549082015290565b60405161023a9190614fa5565b3480156104aa57600080fd5b506102636104b9366004614fc6565b6111be565b3480156104ca57600080fd5b507f0000000000000000000000000000000000000000000000000000000000000000610274565b3480156104fd57600080fd5b506105a461050c366004614f61565b6040805160a0808201835260008083526020808401829052838501829052606080850183905260809485018390526001600160a01b039687168352600582529185902085519384018652805460ff8082161515865261010082041615159285019290925262010000820463ffffffff169584019590955266010000000000009004909416938101939093526001909101549082015290565b60405161023a9190600060a08201905082511515825260208301511515602083015263ffffffff60408401511660408301526001600160a01b0360608401511660608301526080830151608083015292915050565b34801561060557600080fd5b50610619610614366004614f61565b611369565b60405161023a9190615029565b34801561063257600080fd5b506102747f000000000000000000000000000000000000000000000000000000000000000081565b34801561066657600080fd5b50610331620493e081565b34801561067d57600080fd5b5061035761068c366004614f61565b611409565b34801561069d57600080fd5b506102636106ac366004614e46565b611439565b6102636106bf366004614f61565b61155f565b3480156106d057600080fd5b5061022e6106df366004614f61565b6001600160a01b039081166000908152600560205260409020546601000000000000900416151590565b34801561071557600080fd5b50610263610724366004615090565b611645565b34801561073557600080fd5b5061073e61167e565b60405161023a919061510a565b34801561075757600080fd5b506102747f000000000000000000000000000000000000000000000000000000000000000081565b34801561078b57600080fd5b506107b37f000000000000000000000000000000000000000000000000000000000000000081565b60405161023a9190615124565b3480156107cc57600080fd5b506103576116c5565b3480156107e157600080fd5b506102747f000000000000000000000000000000000000000000000000000000000000000081565b34801561081557600080fd5b506102747f000000000000000000000000000000000000000000000000000000000000000081565b34801561084957600080fd5b50610263610858366004615138565b61171b565b60007fffffffff0000000000000000000000000000000000000000000000000000000082167f18a5af270000000000000000000000000000000000000000000000000000000014806108f057507fffffffff0000000000000000000000000000000000000000000000000000000082167f4c74205e00000000000000000000000000000000000000000000000000000000145b8061093c57507f01ffc9a7000000000000000000000000000000000000000000000000000000007fffffffff000000000000000000000000000000000000000000000000000000008316145b92915050565b61097a60608201356109576020840184614f61565b608084013561096c6060860160408701614f61565b602086013560a08701611897565b6080810135600460006109906020850185614f61565b6001600160a01b03166001600160a01b0316815260200190815260200160002060010160008282546109c29190615167565b909155506109f690506109d86020830183614f61565b6080830135606084018035906109f19060408701614f61565b611a9b565b50565b6000805b82811015610aa9576000848483818110610a1957610a1961517a565b9050608002016040016020810190610a319190614f61565b6001600160a01b0316148015610a8e575060046000858584818110610a5857610a5861517a565b610a6e9260206080909202019081019150614f61565b6001600160a01b0316815260208101919091526040016000206001015415155b15610aa15781610a9d81615190565b9250505b6001016109fd565b5060005b82811015610af657610aee848483818110610aca57610aca61517a565b90506080020160008411610adf576000611c38565b610ae984346151aa565b611c38565b600101610aad565b50505050565b6109f68134611c38565b6001600160a01b038316610b46576040517f8d3329cd00000000000000000000000000000000000000000000000000000000815260040160405180910390fd5b60007f00000000000000000000000000000000000000000000000000000000000000006001600160a01b031663ea78803f610b8060015490565b6040518263ffffffff1660e01b8152600401610b9e91815260200190565b602060405180830381865afa158015610bbb573d6000803e3d6000fd5b505050506040513d601f19601f82011682018060405250810190610bdf91906151cc565b90506001600160a01b038116610c21576040517fcaa06d2000000000000000000000000000000000000000000000000000000000815260040160405180910390fd5b6001600160a01b03821660009081526005602052604090205460ff16610c83576040517f04fdbe060000000000000000000000000000000000000000000000000000000081526001600160a01b03831660048201526024015b60405180910390fd5b6000610c8d61167e565b90506003816003811115610ca357610ca36150f4565b1480610cc057506002816003811115610cbe57610cbe6150f4565b145b15610cf7576040517fb10f8cca00000000000000000000000000000000000000000000000000000000815260040160405180910390fd5b610d14610d026120e8565b6001600160a01b0384169030896120f7565b6000610d2283888688612173565b9050610d3087858389612361565b50505050505050565b6003610d4361167e565b6003811115610d5457610d546150f4565b03610d8b576040517fb10f8cca00000000000000000000000000000000000000000000000000000000815260040160405180910390fd5b6000610d9660015490565b9050610e937f00000000000000000000000000000000000000000000000000000000000000006001600160a01b031663293c49996040518163ffffffff1660e01b8152600401602060405180830381865afa158015610df9573d6000803e3d6000fd5b505050506040513d601f19601f82011682018060405250810190610e1d91906151cc565b6001600160a01b0316636352211e836040518263ffffffff1660e01b8152600401610e4a91815260200190565b602060405180830381865afa158015610e67573d6000803e3d6000fd5b505050506040513d601f19601f82011682018060405250810190610e8b91906151cc565b82601e6124eb565b6000610ea262127500426151e9565b905064ffffffffff831615801590610ec05750808364ffffffffff16105b15610f07576040517f044691ac00000000000000000000000000000000000000000000000000000000815264ffffffffff8416600482015260248101829052604401610c7a565b64ffffffffff83166000557f455efa76af2a8686dc0dd3041bda89ece5ba4691277d525e2161003bbca8b24583610f3c6120e8565b6040805164ffffffffff90931683526001600160a01b039091166020830152015b60405180910390a1505050565b60007f00000000000000000000000000000000000000000000000000000000000000006001811115610f9e57610f9e6150f4565b14610ff7577f00000000000000000000000000000000000000000000000000000000000000006040517fb039c395000000000000000000000000000000000000000000000000000000008152600401610c7a9190615124565b6109f68161100483611409565b612635565b6110196110146120e8565b612a2e565b611063576110256120e8565b6040517f36183c8f0000000000000000000000000000000000000000000000000000000081526001600160a01b039091166004820152602401610c7a565b60006003816110756020850185614f61565b6001600160a01b0316815260208101919091526040908101600020805490925067ffffffffffffffff16906110b090606085019085016151fc565b67ffffffffffffffff161180156110e0575060036110cc61167e565b60038111156110dd576110dd6150f4565b14155b156111ba576110f560608301604084016151fc565b81547fffffffffffffffffffffffffffffffffffffffffffffffff00000000000000001667ffffffffffffffff91909116178155606082013560018201556111406020830183614f61565b6001600160a01b03167fc69d3412489554fb7820c4c2784cb644b6c79bfc117444b93977d3d33a9b8eac61117a60608501604086016151fc565b60608501356111876120e8565b6040805167ffffffffffffffff909416845260208401929092526001600160a01b03169082015260600160405180910390a25b5050565b60006111c960015490565b905061122c7f00000000000000000000000000000000000000000000000000000000000000006001600160a01b031663293c49996040518163ffffffff1660e01b8152600401602060405180830381865afa158015610df9573d6000803e3d6000fd5b60005b8281101561132e5760006005600086868581811061124f5761124f61517a565b90506020020160208101906112649190614f61565b6001600160a01b031681526020810191909152604001600090812080547fffffffffffffffffffffffffffffffffffffffffffffffffffffffffffffff0016921515929092179091556001906005908686858181106112c5576112c561517a565b90506020020160208101906112da9190614f61565b6001600160a01b0316815260208101919091526040016000208054911515610100027fffffffffffffffffffffffffffffffffffffffffffffffffffffffffffff00ff90921691909117905560010161122f565b507f8021bce60b20a9afb57085869a3552e0ee5b272b868df894fb30c5e90e74c072838361135a6120e8565b604051610f5d93929190615226565b611371614d53565b6001600160a01b0382166000908152600460209081526040918290208251608081018452815467ffffffffffffffff1681526001820154818401528351610440810180865291949293858401939192600286019284929083019184919082845b8154815260200190600101908083116113d1575050509183525050602091820154908201529082526023929092015491015292915050565b6001600160a01b03811660009081526004602052604081206001015461142f8330612b0a565b61093c9190615167565b611471606082013561144e6020840184614f61565b60808401356114636060860160408701614f61565b602086013560a08701612bd7565b7faaca6f6829d340365b5e6599e0d513cbb4602b94f58ccf16ac77d8d3ae7139ef6114a26060830160408401614f61565b6114af6020840184614f61565b60608401356080850135602086013560017f000000000000000000000000000000000000000000000000000000000000000060018111156114f2576114f26150f4565b146114fe576000611501565b60015b6115096120e8565b604080516001600160a01b039889168152968816602088015286019490945260608501929092526080840152151560a083015290911660c082015260e00160405180910390a16109f66109d86020830183614f61565b6001600160a01b038082166000818152600560209081526040808320815160a081018352815460ff8082161515835261010082041615158286015263ffffffff62010000820416828501526601000000000000900490961660608701526001908101546080870181905294845260049092529091200154101561163a576001600160a01b03821660009081526004602081905260409182902060010154608084015192517fc3e11b79000000000000000000000000000000000000000000000000000000008152918201526024810191909152604401610c7a565b6111ba348383612cad565b60005b81811015611679576116718383838181106116655761166561517a565b90506104a00201611439565b600101611648565b505050565b6000805480820361169157600091505090565b61169e6212750082615167565b4210156116ad57600191505090565b804210156116bd57600291505090565b600391505090565b60004660018190036116da5761210591505090565b80612105036116eb57600191505090565b8062aa36a7036116ff5762014a3491505090565b8062014a34036117135762aa36a791505090565b600091505090565b7ff0c57e16840df040f15088dc2f81fe391c3923bec73e23a9662efc9c229c6a00805468010000000000000000810460ff16159067ffffffffffffffff166000811580156117665750825b905060008267ffffffffffffffff1660011480156117835750303b155b905081158015611791575080155b156117c8576040517ff92ee8a900000000000000000000000000000000000000000000000000000000815260040160405180910390fd5b84547fffffffffffffffffffffffffffffffffffffffffffffffff000000000000000016600117855583156118295784547fffffffffffffffffffffffffffffffffffffffffffffff00ffffffffffffffff16680100000000000000001785555b6001869055831561188f5784547fffffffffffffffffffffffffffffffffffffffffffffff00ffffffffffffffff168555604051600181527fc7f505b2f371ae2175ee4913f4499e1f2633a7b5936321eed1cdaeb6115181d29060200160405180910390a15b505050505050565b6001600160a01b038516600090815260056020526040902054610100900460ff161580156118de575060036118ca61167e565b60038111156118db576118db6150f4565b14155b15611920576040517f4bba81f00000000000000000000000000000000000000000000000000000000081526001600160a01b0386166004820152602401610c7a565b6001600160a01b038516600090815260046020526040902060238101541580159061195b575082600182602301546119589190615167565b10155b156119a4576040517fa4e6bcec0000000000000000000000000000000000000000000000000000000081526001600160a01b038716600482015260248101849052604401610c7a565b604080516001600160a01b03881660208201526000910160408051808303601f19018152918152815160209283012060601c600081815260028452828120600889901c8252909352912054909150600160ff86161b1615611a43576040517fa4e6bcec0000000000000000000000000000000000000000000000000000000081526001600160a01b038816600482015260248101859052604401610c7a565b6001600160a01b039081166000908152600260208181526040808420600889901c855282528084208054600160ff8b161b179055938a16835260049052919020610d3091611a919101612ecd565b8887878787614283565b60017f00000000000000000000000000000000000000000000000000000000000000006001811115611acf57611acf6150f4565b03611ade57611ade8484612635565b6000611ae960015490565b6040517f5dd8f6aa000000000000000000000000000000000000000000000000000000008152600481018290529091507f00000000000000000000000000000000000000000000000000000000000000006001600160a01b031690635dd8f6aa90602401602060405180830381865afa158015611b6a573d6000803e3d6000fd5b505050506040513d601f19601f82011682018060405250810190611b8e91906151cc565b6040517fc7fb92de00000000000000000000000000000000000000000000000000000000815260048101839052602481018590526001600160a01b03848116604483015260a06064830152600060a483018190526084830152919091169063c7fb92de9060c4016020604051808303816000875af1158015611c14573d6000803e3d6000fd5b505050506040513d601f19601f8201168201806040525081019061188f9190615286565b6000611c476020840184614f61565b6001600160a01b03808216600090815260056020908152604091829020825160a081018452815460ff808216151583526101008204161580159483019490945263ffffffff6201000082041694820194909452660100000000000090930490931660608301526001909201546080820152919250611cfc576040517f4bba81f00000000000000000000000000000000000000000000000000000000081526001600160a01b0383166004820152602401610c7a565b611d0584614335565b6000611d1060015490565b9050611e0d7f00000000000000000000000000000000000000000000000000000000000000006001600160a01b031663293c49996040518163ffffffff1660e01b8152600401602060405180830381865afa158015611d73573d6000803e3d6000fd5b505050506040513d601f19601f82011682018060405250810190611d9791906151cc565b6001600160a01b0316636352211e836040518263ffffffff1660e01b8152600401611dc491815260200190565b602060405180830381865afa158015611de1573d6000803e3d6000fd5b505050506040513d601f19601f82011682018060405250810190611e0591906151cc565b82601c6124eb565b60608201516001600160a01b031615801590611e4e5750611e346060860160408701614f61565b6001600160a01b031682606001516001600160a01b031614155b8015611e7357506000611e676060870160408801614f61565b6001600160a01b031614155b8015611e9957506001600160a01b03831660009081526004602052604090206022015415155b15611ee95760608201516040517f1460b5460000000000000000000000000000000000000000000000000000000081526001600160a01b0380861660048301529091166024820152604401610c7a565b6000611efb6060870160408801614f61565b6001600160a01b0316148015611f2b57506001600160a01b03831660009081526004602052604090206001015415155b15611f3b57611f3b848484612cad565b6040518060a0016040528060006001600160a01b0316876040016020810190611f649190614f61565b6001600160a01b0316141515158152602001600015158152602001866020016020810190611f92919061529f565b63ffffffff1681526020016000611faf6060890160408a01614f61565b6001600160a01b031614611fd257611fcd6060880160408901614f61565b611fd8565b83606001515b6001600160a01b039081168252606097880135602092830152948516600090815260058252604090819020835181549385015192850151998501517fffffffffffffffffffffffffffffffffffffffffffffffffffffffffffff00009094169015157fffffffffffffffffffffffffffffffffffffffffffffffffffffffffffff00ff161761010092151592909202919091177fffffffffffff000000000000000000000000000000000000000000000000ffff166201000063ffffffff909916989098027fffffffffffff0000000000000000000000000000000000000000ffffffffffff16979097176601000000000000919095160293909317855550506080015160019092019190915550565b60006120f2614470565b905090565b6040516001600160a01b038481166024830152838116604483015260648201839052610af69186918216906323b872dd906084015b604051602081830303815290604052915060e01b6020820180517bffffffffffffffffffffffffffffffffffffffffffffffffffffffff83818316178352505050506144e5565b60008061217f60015490565b6040517f86202650000000000000000000000000000000000000000000000000000000008152600481018290526001600160a01b0386811660248301529192506000917f00000000000000000000000000000000000000000000000000000000000000001690638620265090604401602060405180830381865afa15801561220b573d6000803e3d6000fd5b505050506040513d601f19601f8201168201806040525081019061222f91906151cc565b90506001600160a01b038116612283576040517fb61c181f000000000000000000000000000000000000000000000000000000008152600481018390526001600160a01b0386166024820152604401610c7a565b600061228f8630612b0a565b604080516020810182526000815290517f13da83170000000000000000000000000000000000000000000000000000000081529192506001600160a01b038416916313da8317916122ee91309188918d918d918d91869160040161530b565b6020604051808303816000875af115801561230d573d6000803e3d6000fd5b505050506040513d601f19601f820116820180604052508101906123319190615286565b93508061233e8730612b0a565b6123489190615167565b84146123565761235661535e565b505050949350505050565b6040805160208082018790528183018590526001600160a01b03841660608084019190915283518084039091018152608090920190925280519101206000906001600160a01b038516600090815260046020908152604080832081516104408101808452959650909461240a9387936002880192849291830191849182845b8154815260200190600101908083116123e05750505091835250506020918201549101529061456f565b8051909150819060028401906124239082906020614d7f565b50602082015181602001559050508482600101600082825461244591906151e9565b92505081905550856001600160a01b0316846001600160a01b03167f584a41ff082fad99bb6e50c5767c347c762057fe5726539f0a8de49d84549c2385600185602001516124939190615167565b61249f87600201612ecd565b8c8b6124a96120e8565b60408051968752602087019590955293850192909252606084015260808301526001600160a01b031660a082015260c00160405180910390a350505050505050565b60006124f56120e8565b9050836001600160a01b0316816001600160a01b0316141580156125dd57506040517f348b684e0000000000000000000000000000000000000000000000000000000081526001600160a01b0382811660048301528581166024830152604482018590526064820184905260016084830181905260a48301527f0000000000000000000000000000000000000000000000000000000000000000169063348b684e9060c401602060405180830381865afa1580156125b7573d6000803e3d6000fd5b505050506040513d601f19601f820116820180604052508101906125db9190615374565b155b15610af6576040517f264deeaa0000000000000000000000000000000000000000000000000000000081526001600160a01b038086166004830152821660248201526044810184905260648101839052608401610c7a565b600061264083611409565b905080821115612686576040517f60ec3e710000000000000000000000000000000000000000000000000000000081526004810183905260248101829052604401610c7a565b600061269160015490565b6040517f86202650000000000000000000000000000000000000000000000000000000008152600481018290526001600160a01b0386811660248301529192506000917f00000000000000000000000000000000000000000000000000000000000000001690638620265090604401602060405180830381865afa15801561271d573d6000803e3d6000fd5b505050506040513d601f19601f8201168201806040525081019061274191906151cc565b90506001600160a01b038116612795576040517fb61c181f000000000000000000000000000000000000000000000000000000008152600481018390526001600160a01b0386166024820152604401610c7a565b6001600160a01b03851661eeee1461297e576040517f70a082310000000000000000000000000000000000000000000000000000000081523060048201526000906001600160a01b038716906370a0823190602401602060405180830381865afa158015612807573d6000803e3d6000fd5b505050506040513d601f19601f8201168201806040525081019061282b9190615286565b90506128388683876146a7565b6040517f9e6eec05000000000000000000000000000000000000000000000000000000008152600481018490526001600160a01b0387811660248301526044820187905260006064830181905260c0608484015260c4830181905260e060a484015260e4830152831690639e6eec059061010401600060405180830381600087803b1580156128c657600080fd5b505af11580156128da573d6000803e3d6000fd5b5050505084816128ea9190615167565b6040517f70a082310000000000000000000000000000000000000000000000000000000081523060048201526001600160a01b038816906370a0823190602401602060405180830381865afa158015612947573d6000803e3d6000fd5b505050506040513d601f19601f8201168201806040525081019061296b9190615286565b146129785761297861535e565b50612a27565b6040517f9e6eec05000000000000000000000000000000000000000000000000000000008152600481018390526001600160a01b0386811660248301526044820186905260006064830181905260c0608484015260c4830181905260e060a484015260e4830152821690639e6eec05908690610104016000604051808303818588803b158015612a0d57600080fd5b505af1158015612a21573d6000803e3d6000fd5b50505050505b5050505050565b60007f00000000000000000000000000000000000000000000000000000000000000006001600160a01b0316826001600160a01b031614801561093c5750306001600160a01b03167f00000000000000000000000000000000000000000000000000000000000000006001600160a01b0316636e296e456040518163ffffffff1660e01b81526004016020604051808303816000875af1158015612ad6573d6000803e3d6000fd5b505050506040513d601f19601f82011682018060405250810190612afa91906151cc565b6001600160a01b03161492915050565b60007fffffffffffffffffffffffffffffffffffffffffffffffffffffffffffff11126001600160a01b03841601612b4d57506001600160a01b0381163161093c565b6040517f70a082310000000000000000000000000000000000000000000000000000000081526001600160a01b0383811660048301528416906370a0823190602401602060405180830381865afa158015612bac573d6000803e3d6000fd5b505050506040513d601f19601f82011682018060405250810190612bd09190615286565b9392505050565b6001600160a01b0385166000908152600260209081526040808320600886901c8452909152902054600160ff84161b1615612c50576040517fa4e6bcec0000000000000000000000000000000000000000000000000000000081526001600160a01b038616600482015260248101839052604401610c7a565b6001600160a01b0385166000908152600260209081526040808320600886901c845290915290208054600160ff85161b1790556001600160a01b03851660009081526003602052604090206001015461188f908786868686614283565b60608101516001600160a01b0316612cfc576040517f04fdbe060000000000000000000000000000000000000000000000000000000081526001600160a01b0383166004820152602401610c7a565b6000612d0661167e565b90506003816003811115612d1c57612d1c6150f4565b1480612d3957506002816003811115612d3757612d376150f4565b145b15612d70576040517fb10f8cca00000000000000000000000000000000000000000000000000000000815260040160405180910390fd5b6001600160a01b03831660009081526004602052604081206001810180549083905581549192909183908290612daf9067ffffffffffffffff16615396565b91906101000a81548167ffffffffffffffff021916908367ffffffffffffffff160217905590506000612de484600201612ecd565b6022850154602386018190559091506000612e00600183615167565b9050886001600160a01b0316837f47c5615513b0f669da2dd7e3362a34610ca2695d0a0e2da2160cee952eab203c8387612e386120e8565b6040805193845267ffffffffffffffff90921660208401526001600160a01b03169082015260600160405180910390a3600060405180606001604052808a606001516001600160a01b0316815260200187815260200160405180604001604052808867ffffffffffffffff168152602001878152508152509050612ec08b838c898d86614765565b5050505050505050505050565b6020810154600090808203612f0457507f27ae5ba08d7291c96c8cbddcc148bf48a6d68c7974b94356f53754ef6171d75792915050565b6000836001831615612f265780546000526000602052604060002093506137d9565b6002831615612f6b5760018101546000527fad3228b676f7d3cd4284a5443f17f1962b36e491b30a40b2405849e597ba5fb560205260406000209350600191506137d9565b6004831615612fb05760028101546000527fb4c11951957c6f8f642c4af61cd6b24640fec6dc7fc607ee8206a99e92410d3060205260406000209350600291506137d9565b6008831615612ff55760038101546000527f21ddb9a356815c3fac1026b6dec5df3124afbadb485c9ba5a3e3398a04b7ba8560205260406000209350600391506137d9565b601083161561303a5760048101546000527fe58769b32a1beaf1ea27375a44095a0d1fb664ce2dd358e7fcbfb78c26a1934460205260406000209350600491506137d9565b602083161561307f5760058101546000527f0eb01ebfc9ed27500cd4dfc979272d1f0913cc9f66540d7e8005811109e1cf2d60205260406000209350600591506137d9565b60408316156130c45760068101546000527f887c22bd8750d34016ac3c66b5ff102dacdd73f6b014e710b51e8022af9a196860205260406000209350600691506137d9565b60808316156131095760078101546000527fffd70157e48063fc33c97a050f7f640233bf646cc98d9524c6b92bcf3ab56f8360205260406000209350600791506137d9565b61010083161561314f5760088101546000527f9867cc5f7f196b93bae1e27e6320742445d290f2263827498b54fec539f756af60205260406000209350600891506137d9565b6102008316156131955760098101546000527fcefad4e508c098b9a7e1d8feb19955fb02ba9675585078710969d3440f5054e060205260406000209350600991506137d9565b6104008316156131db57600a8101546000527ff9dc3e7fe016e050eff260334f18a5d4fe391d82092319f5964f2e2eb7c1c3a560205260406000209350600a91506137d9565b61080083161561322157600b8101546000527ff8b13a49e282f609c317a833fb8d976d11517c571d1221a265d25af778ecf89260205260406000209350600b91506137d9565b61100083161561326757600c8101546000527f3490c6ceeb450aecdc82e28293031d10c7d73bf85e57bf041a97360aa2c5d99c60205260406000209350600c91506137d9565b6120008316156132ad57600d8101546000527fc1df82d9c4b87413eae2ef048f94b4d3554cea73d92b0f7af96e0271c691e2bb60205260406000209350600d91506137d9565b6140008316156132f357600e8101546000527f5c67add7c6caf302256adedf7ab114da0acfe870d449a3a489f781d659e8becc60205260406000209350600e91506137d9565b61800083161561333957600f8101546000527fda7bce9f4e8618b6bd2f4132ce798cdc7a60e7e1460a7299e3c6342a579626d260205260406000209350600f91506137d9565b620100008316156133805760108101546000527f2733e50f526ec2fa19a22b31e8ed50f23cd1fdf94c9154ed3a7609a2f1ff981f60205260406000209350601091506137d9565b620200008316156133c75760118101546000527fe1d3b5c807b281e4683cc6d6315cf95b9ade8641defcb32372f1c126e398ef7a60205260406000209350601191506137d9565b6204000083161561340e5760128101546000527f5a2dce0a8a7f68bb74560f8f71837c2c2ebbcbf7fffb42ae1896f13f7c7479a060205260406000209350601291506137d9565b620800008316156134555760138101546000527fb46a28b6f55540f89444f63de0378e3d121be09e06cc9ded1c20e65876d36aa060205260406000209350601391506137d9565b6210000083161561349c5760148101546000527fc65e9645644786b620e2dd2ad648ddfcbf4a7e5b1a3a4ecfe7f64667a3f0b7e260205260406000209350601491506137d9565b622000008316156134e35760158101546000527ff4418588ed35a2458cffeb39b93d26f18d2ab13bdce6aee58e7b99359ec2dfd960205260406000209350601591506137d9565b6240000083161561352a5760168101546000527f5a9c16dc00d6ef18b7933a6f8dc65ccb55667138776f7dea101070dc8796e37760205260406000209350601691506137d9565b628000008316156135715760178101546000527f4df84f40ae0c8229d0d6069e5c8f39a7c299677a09d367fc7b05e3bc380ee65260205260406000209350601791506137d9565b63010000008316156135b95760188101546000527fcdc72595f74c7b1043d0e1ffbab734648c838dfb0527d971b602bc216c9619ef60205260406000209350601891506137d9565b63020000008316156136015760198101546000527f0abf5ac974a1ed57f4050aa510dd9c74f508277b39d7973bb2dfccc5eeb0618d60205260406000209350601991506137d9565b630400000083161561364957601a8101546000527fb8cd74046ff337f0a7bf2c8e03e10f642c1886798d71806ab1e888d9e5ee87d060205260406000209350601a91506137d9565b630800000083161561369157601b8101546000527f838c5655cb21c6cb83313b5a631175dff4963772cce9108188b34ac87c81c41e60205260406000209350601b91506137d9565b63100000008316156136d957601c8101546000527f662ee4dd2dd7b2bc707961b1e646c4047669dcb6584f0d8d770daf5d7e7deb2e60205260406000209350601c91506137d9565b632000000083161561372157601d8101546000527f388ab20e2573d171a88108e79d820e98f26c0b84aa8b2f4aa4968dbb818ea32260205260406000209350601d91506137d9565b634000000083161561376957601e8101546000527f93237c50ba75ee485f4c22adf2f741400bdf8d6a9cc7df7ecae576221665d73560205260406000209350601e91506137d9565b63800000008316156137b157601f8101546000527f8448818bb4ae4562849e949e17ac16e0be16688e156b5cf15e098c627c0056a960205260406000209350601f91506137d9565b7f27ae5ba08d7291c96c8cbddcc148bf48a6d68c7974b94356f53754ef6171d7579350602091505b601e821161427b576001821015613837576002831680156138055760018201546000528460205261382e565b846000527fad3228b676f7d3cd4284a5443f17f1962b36e491b30a40b2405849e597ba5fb56020525b50604060002093505b600282101561388d5760048316801561385b57600282015460005284602052613884565b846000527fb4c11951957c6f8f642c4af61cd6b24640fec6dc7fc607ee8206a99e92410d306020525b50604060002093505b60038210156138e3576008831680156138b1576003820154600052846020526138da565b846000527f21ddb9a356815c3fac1026b6dec5df3124afbadb485c9ba5a3e3398a04b7ba856020525b50604060002093505b60048210156139395760108316801561390757600482015460005284602052613930565b846000527fe58769b32a1beaf1ea27375a44095a0d1fb664ce2dd358e7fcbfb78c26a193446020525b50604060002093505b600582101561398f5760208316801561395d57600582015460005284602052613986565b846000527f0eb01ebfc9ed27500cd4dfc979272d1f0913cc9f66540d7e8005811109e1cf2d6020525b50604060002093505b60068210156139e5576040831680156139b3576006820154600052846020526139dc565b846000527f887c22bd8750d34016ac3c66b5ff102dacdd73f6b014e710b51e8022af9a19686020525b50604060002093505b6007821015613a3b57608083168015613a0957600782015460005284602052613a32565b846000527fffd70157e48063fc33c97a050f7f640233bf646cc98d9524c6b92bcf3ab56f836020525b50604060002093505b6008821015613a925761010083168015613a6057600882015460005284602052613a89565b846000527f9867cc5f7f196b93bae1e27e6320742445d290f2263827498b54fec539f756af6020525b50604060002093505b6009821015613ae95761020083168015613ab757600982015460005284602052613ae0565b846000527fcefad4e508c098b9a7e1d8feb19955fb02ba9675585078710969d3440f5054e06020525b50604060002093505b600a821015613b405761040083168015613b0e57600a82015460005284602052613b37565b846000527ff9dc3e7fe016e050eff260334f18a5d4fe391d82092319f5964f2e2eb7c1c3a56020525b50604060002093505b600b821015613b975761080083168015613b6557600b82015460005284602052613b8e565b846000527ff8b13a49e282f609c317a833fb8d976d11517c571d1221a265d25af778ecf8926020525b50604060002093505b600c821015613bee5761100083168015613bbc57600c82015460005284602052613be5565b846000527f3490c6ceeb450aecdc82e28293031d10c7d73bf85e57bf041a97360aa2c5d99c6020525b50604060002093505b600d821015613c455761200083168015613c1357600d82015460005284602052613c3c565b846000527fc1df82d9c4b87413eae2ef048f94b4d3554cea73d92b0f7af96e0271c691e2bb6020525b50604060002093505b600e821015613c9c5761400083168015613c6a57600e82015460005284602052613c93565b846000527f5c67add7c6caf302256adedf7ab114da0acfe870d449a3a489f781d659e8becc6020525b50604060002093505b600f821015613cf35761800083168015613cc157600f82015460005284602052613cea565b846000527fda7bce9f4e8618b6bd2f4132ce798cdc7a60e7e1460a7299e3c6342a579626d26020525b50604060002093505b6010821015613d4b576201000083168015613d1957601082015460005284602052613d42565b846000527f2733e50f526ec2fa19a22b31e8ed50f23cd1fdf94c9154ed3a7609a2f1ff981f6020525b50604060002093505b6011821015613da3576202000083168015613d7157601182015460005284602052613d9a565b846000527fe1d3b5c807b281e4683cc6d6315cf95b9ade8641defcb32372f1c126e398ef7a6020525b50604060002093505b6012821015613dfb576204000083168015613dc957601282015460005284602052613df2565b846000527f5a2dce0a8a7f68bb74560f8f71837c2c2ebbcbf7fffb42ae1896f13f7c7479a06020525b50604060002093505b6013821015613e53576208000083168015613e2157601382015460005284602052613e4a565b846000527fb46a28b6f55540f89444f63de0378e3d121be09e06cc9ded1c20e65876d36aa06020525b50604060002093505b6014821015613eab576210000083168015613e7957601482015460005284602052613ea2565b846000527fc65e9645644786b620e2dd2ad648ddfcbf4a7e5b1a3a4ecfe7f64667a3f0b7e26020525b50604060002093505b6015821015613f03576220000083168015613ed157601582015460005284602052613efa565b846000527ff4418588ed35a2458cffeb39b93d26f18d2ab13bdce6aee58e7b99359ec2dfd96020525b50604060002093505b6016821015613f5b576240000083168015613f2957601682015460005284602052613f52565b846000527f5a9c16dc00d6ef18b7933a6f8dc65ccb55667138776f7dea101070dc8796e3776020525b50604060002093505b6017821015613fb3576280000083168015613f8157601782015460005284602052613faa565b846000527f4df84f40ae0c8229d0d6069e5c8f39a7c299677a09d367fc7b05e3bc380ee6526020525b50604060002093505b601882101561400c57630100000083168015613fda57601882015460005284602052614003565b846000527fcdc72595f74c7b1043d0e1ffbab734648c838dfb0527d971b602bc216c9619ef6020525b50604060002093505b6019821015614065576302000000831680156140335760198201546000528460205261405c565b846000527f0abf5ac974a1ed57f4050aa510dd9c74f508277b39d7973bb2dfccc5eeb0618d6020525b50604060002093505b601a8210156140be5763040000008316801561408c57601a820154600052846020526140b5565b846000527fb8cd74046ff337f0a7bf2c8e03e10f642c1886798d71806ab1e888d9e5ee87d06020525b50604060002093505b601b821015614117576308000000831680156140e557601b8201546000528460205261410e565b846000527f838c5655cb21c6cb83313b5a631175dff4963772cce9108188b34ac87c81c41e6020525b50604060002093505b601c8210156141705763100000008316801561413e57601c82015460005284602052614167565b846000527f662ee4dd2dd7b2bc707961b1e646c4047669dcb6584f0d8d770daf5d7e7deb2e6020525b50604060002093505b601d8210156141c95763200000008316801561419757601d820154600052846020526141c0565b846000527f388ab20e2573d171a88108e79d820e98f26c0b84aa8b2f4aa4968dbb818ea3226020525b50604060002093505b601e821015614222576340000000831680156141f057601e82015460005284602052614219565b846000527f93237c50ba75ee485f4c22adf2f741400bdf8d6a9cc7df7ecae576221665d7356020525b50604060002093505b601f82101561427b5763800000008316801561424957601f82015460005284602052614272565b846000527f8448818bb4ae4562849e949e17ac16e0be16688e156b5cf15e098c627c0056a96020525b50604060002093505b505050919050565b6040805160208082018890528183018790526001600160a01b03861660608084019190915283518084039091018152608083018085528151918301919091206104809093019093526000926142f1929185908282610400808284376000920191909152508791506149b69050565b9050868114610d30576040517ee587d20000000000000000000000000000000000000000000000000000000081526004810182905260248101889052604401610c7a565b600061eeee6143476020840184614f61565b6001600160a01b031614905080801561437a575061eeee61436e6060840160408501614f61565b6001600160a01b031614155b801561439f575060006143936060840160408501614f61565b6001600160a01b031614155b156143f2576143b46060830160408401614f61565b6040517ff41f6def0000000000000000000000000000000000000000000000000000000081526001600160a01b039091166004820152602401610c7a565b62030d40614406604084016020850161529f565b63ffffffff16108015614417575080155b156111ba5761442c604083016020840161529f565b6040517f555d0f1000000000000000000000000000000000000000000000000000000000815263ffffffff909116600482015262030d406024820152604401610c7a565b6000366014336001600160a01b037f0000000000000000000000000000000000000000000000000000000000000000161480156144ad5750808210155b156144dd576000366144bf8385615167565b6144ca9282906153bd565b6144d3916153e7565b60601c9250505090565b339250505090565b600080602060008451602086016000885af180614508576040513d6000823e3d81fd5b50506000513d9150811561452057806001141561452d565b6001600160a01b0384163b155b15610af6576040517f5274afe70000000000000000000000000000000000000000000000000000000081526001600160a01b0385166004820152602401610c7a565b614577614dbd565b600083602001805161458890615190565b908190529050600161459c60206002615513565b6145a69190615167565b8111156145df576040517f8eab04bb00000000000000000000000000000000000000000000000000000000815260040160405180910390fd5b60005b6020811015614674578160011660010361461b5784518490826020811061460b5761460b61517a565b60200201525083915061093c9050565b8451816020811061462e5761462e61517a565b60200201518460405160200161464e929190918252602082015260400190565b60408051601f1981840301815291905280516020909101209350600191821c91016145e2565b506040517f8eab04bb00000000000000000000000000000000000000000000000000000000815260040160405180910390fd5b604080516001600160a01b038416602482015260448082018490528251808303909101815260649091019091526020810180517bffffffffffffffffffffffffffffffffffffffffffffffffffffffff167f095ea7b3000000000000000000000000000000000000000000000000000000001790526147268482614d04565b610af6576040516001600160a01b0384811660248301526000604483015261475b91869182169063095ea7b39060640161212c565b610af684826144e5565b600086156147a2576040517fd7468c3200000000000000000000000000000000000000000000000000000000815260048101889052602401610c7a565b6001600160a01b03851661eeee146148a1576147df857f0000000000000000000000000000000000000000000000000000000000000000866146a7565b7f00000000000000000000000000000000000000000000000000000000000000006001600160a01b031663540abf7386856060015161481b3090565b60408089015181516020810183526000815291517fffffffff0000000000000000000000000000000000000000000000000000000060e088901b16815261486a959493928c929160040161551f565b600060405180830381600087803b15801561488457600080fd5b505af1158015614898573d6000803e3d6000fd5b505050506148a4565b50825b6001600160a01b037f000000000000000000000000000000000000000000000000000000000000000016633dbb202b8230856040516024016148e69190615571565b60408051601f198184030181529181526020820180517bffffffffffffffffffffffffffffffffffffffffffffffffffffffff167f69d31fdd00000000000000000000000000000000000000000000000000000000179052517fffffffff0000000000000000000000000000000000000000000000000000000060e086901b16815261497b929190620493e0906004016155bd565b6000604051808303818588803b15801561499457600080fd5b505af11580156149a8573d6000803e3d6000fd5b505050505050505050505050565b6020600582811b8216948552835194820394909452604060008181206002851615871b808503919091528386015190528181206004851615871b808503919091528286015190528181206008851615871b80850391909152606086015190528181206010851615871b8085039190915260808087015190915282822084861615881b8086039190915260a0870151905282822083861615881b8086039190915260c0870151905282822090851615871b8085039190915260e0860151905281812061010080861615881b80860392909252860151905281812061020080861615881b80860392909252610120870151909152828220610400861615881b808603919091526101408701519052828220610800861615881b808603919091526101608701519052828220611000861615881b808603919091526101808701519052828220612000861615881b808603919091526101a08701519052828220614000861615881b808603919091526101c08701519052828220618000861615881b808603919091526101e0870151905282822062010000861615881b8086039190915290860151905281812062020000851615871b80850391909152610220860151905281812062040000851615871b80850391909152610240860151905281812062080000851615871b80850391909152610260860151905281812062100000851615871b80850391909152610280860151905281812062200000851615871b808503919091526102a0860151905281812062400000851615871b808503919091526102c0860151905281812062800000851615871b808503919091526102e086015190528181206301000000851615871b8085039190915261030086015190528181206302000000851615871b8085039190915261032086015190528181206304000000851615871b8085039190915261034086015190528181206308000000851615871b8085039190915261036086015190528181206310000000851615871b8085039190915261038086015190528181206320000000851615871b808503919091526103a086015190528181206340000000851615871b808503919091526103c0860151905281812063800000009094161590951b91829003929092526103e090920151909152902090565b6000806000806020600086516020880160008a5af192503d91506000519050828015614d4957508115614d3a5780600114614d49565b6000866001600160a01b03163b115b9695505050505050565b6040805160808101825260008082526020820152908101614d72614dbd565b8152602001600081525090565b8260208101928215614dad579160200282015b82811115614dad578251825591602001919060010190614d92565b50614db9929150614dd0565b5090565b6040518060400160405280614d72614de5565b5b80821115614db95760008155600101614dd1565b6040518061040001604052806020906020820280368337509192915050565b600060208284031215614e1657600080fd5b81357fffffffff0000000000000000000000000000000000000000000000000000000081168114612bd057600080fd5b60006104a08284031215614e5957600080fd5b50919050565b60008060208385031215614e7257600080fd5b823567ffffffffffffffff80821115614e8a57600080fd5b818501915085601f830112614e9e57600080fd5b813581811115614ead57600080fd5b8660208260071b8501011115614ec257600080fd5b60209290920196919550909350505050565b600060808284031215614e5957600080fd5b600060808284031215614ef857600080fd5b612bd08383614ed4565b6001600160a01b03811681146109f657600080fd5b60008060008060808587031215614f2d57600080fd5b843593506020850135614f3f81614f02565b9250604085013591506060850135614f5681614f02565b939692955090935050565b600060208284031215614f7357600080fd5b8135612bd081614f02565b600060208284031215614f9057600080fd5b813564ffffffffff81168114612bd057600080fd5b815167ffffffffffffffff168152602080830151908201526040810161093c565b60008060208385031215614fd957600080fd5b823567ffffffffffffffff80821115614ff157600080fd5b818501915085601f83011261500557600080fd5b81358181111561501457600080fd5b8660208260051b8501011115614ec257600080fd5b815167ffffffffffffffff1681526020808301518183015260408084015180516104808501939260009086015b84821015615074578251815291840191600191909101908401615056565b5050500151610440830152606092909201516104609091015290565b600080602083850312156150a357600080fd5b823567ffffffffffffffff808211156150bb57600080fd5b818501915085601f8301126150cf57600080fd5b8135818111156150de57600080fd5b8660206104a083028501011115614ec257600080fd5b634e487b7160e01b600052602160045260246000fd5b602081016004831061511e5761511e6150f4565b91905290565b602081016002831061511e5761511e6150f4565b60006020828403121561514a57600080fd5b5035919050565b634e487b7160e01b600052601160045260246000fd5b8181038181111561093c5761093c615151565b634e487b7160e01b600052603260045260246000fd5b600060001982036151a3576151a3615151565b5060010190565b6000826151c757634e487b7160e01b600052601260045260246000fd5b500490565b6000602082840312156151de57600080fd5b8151612bd081614f02565b8082018082111561093c5761093c615151565b60006020828403121561520e57600080fd5b813567ffffffffffffffff81168114612bd057600080fd5b6040808252810183905260008460608301825b8681101561526957823561524c81614f02565b6001600160a01b0316825260209283019290910190600101615239565b5080925050506001600160a01b0383166020830152949350505050565b60006020828403121561529857600080fd5b5051919050565b6000602082840312156152b157600080fd5b813563ffffffff81168114612bd057600080fd5b6000815180845260005b818110156152eb576020818501810151868301820152016152cf565b506000602082860101526020601f19601f83011685010191505092915050565b60006001600160a01b03808a168352886020840152876040840152808716606084015285608084015280851660a08401525060e060c083015261535160e08301846152c5565b9998505050505050505050565b634e487b7160e01b600052600160045260246000fd5b60006020828403121561538657600080fd5b81518015158114612bd057600080fd5b600067ffffffffffffffff8083168181036153b3576153b3615151565b6001019392505050565b600080858511156153cd57600080fd5b838611156153da57600080fd5b5050820193919092039150565b7fffffffffffffffffffffffffffffffffffffffff00000000000000000000000081358181169160148510156154275780818660140360031b1b83161692505b505092915050565b600181815b8085111561546a57816000190482111561545057615450615151565b8085161561545d57918102915b93841c9390800290615434565b509250929050565b6000826154815750600161093c565b8161548e5750600061093c565b81600181146154a457600281146154ae576154ca565b600191505061093c565b60ff8411156154bf576154bf615151565b50506001821b61093c565b5060208310610133831016604e8410600b84101617156154ed575081810a61093c565b6154f7838361542f565b806000190482111561550b5761550b615151565b029392505050565b6000612bd08383615472565b60006001600160a01b038089168352808816602084015280871660408401525084606083015263ffffffff8416608083015260c060a083015261556560c08301846152c5565b98975050505050505050565b60006080820190506001600160a01b0383511682526020830151602083015260408301516155b66040840182805167ffffffffffffffff168252602090810151910152565b5092915050565b6001600160a01b03841681526060602082015260006155df60608301856152c5565b905063ffffffff8316604083015294935050505056fea2646970667358221220b4b1398ed7425afebcb3a0cbb3f84a3f58a6814bf4e86995d7266b1034da5e3e64736f6c63430008170033",
	"deployedBytecode": "0x6080604052600436106102025760003560e01c80637da0a8771161011d578063bf557aee116100b0578063c6525f2c1161007f578063f434c91411610064578063f434c914146107d5578063fc8fa43d14610809578063fe4b84df1461083d57600080fd5b8063c6525f2c1461077f578063cdfceeba146107c057600080fd5b8063bf557aee146106c4578063c185412914610709578063c19d93fb14610729578063c1b8411a1461074b57600080fd5b806392ee1ea7116100ec57806392ee1ea71461065a5780639e6d7d4314610671578063b59ef50f14610691578063b71c1179146106b157600080fd5b80637da0a877146104be5780637de6fba2146104f1578063802c8fa0146105f957806388bc2ef31461062657600080fd5b80633fafa1271161019557806369ce22331161016457806369ce2233146103f257806369d31fdd146104125780636d9e384b14610425578063754515591461049e57600080fd5b80633fafa12714610346578063551ebbf014610365578063572b6c05146103855780636284386a146103d257600080fd5b80632241dc52116101d15780632241dc52146102c05780632847f1f3146102d357806338eb2044146103075780633a5de07d1461031a57600080fd5b806301ffc9a71461020e5780630f6482141461024357806311cda415146102655780631d831d5c1461028c57600080fd5b3661020957005b600080fd5b34801561021a57600080fd5b5061022e610229366004614e04565b61085d565b60405190151581526020015b60405180910390f35b34801561024f57600080fd5b5061026361025e366004614e46565b610942565b005b34801561027157600080fd5b50305b6040516001600160a01b03909116815260200161023a565b34801561029857600080fd5b506102747f00000000000000000000000094db7c71d9e4bcde99686be9570c68bf12708d3e81565b6102636102ce366004614e5f565b6109f9565b3480156102df57600080fd5b506102747f000000000000000000000000fd0bf71f60660e2f608ed56e1659c450eb11312081565b610263610315366004614ee6565b610afc565b34801561032657600080fd5b5061033162030d4081565b60405163ffffffff909116815260200161023a565b34801561035257600080fd5b506001545b60405190815260200161023a565b34801561037157600080fd5b50610263610380366004614f17565b610b06565b34801561039157600080fd5b5061022e6103a0366004614f61565b7f000000000000000000000000b2b5841dbef766d4b521221732f9b618fcf34a876001600160a01b0390811691161490565b3480156103de57600080fd5b506102636103ed366004614f7e565b610d39565b3480156103fe57600080fd5b5061026361040d366004614f61565b610f6a565b610263610420366004614ee6565b611009565b34801561043157600080fd5b50610491610440366004614f61565b6040805180820190915260008082526020820152506001600160a01b03166000908152600360209081526040918290208251808401909352805467ffffffffffffffff168352600101549082015290565b60405161023a9190614fa5565b3480156104aa57600080fd5b506102636104b9366004614fc6565b6111be565b3480156104ca57600080fd5b507f000000000000000000000000b2b5841dbef766d4b521221732f9b618fcf34a87610274565b3480156104fd57600080fd5b506105a461050c366004614f61565b6040805160a0808201835260008083526020808401829052838501829052606080850183905260809485018390526001600160a01b039687168352600582529185902085519384018652805460ff8082161515865261010082041615159285019290925262010000820463ffffffff169584019590955266010000000000009004909416938101939093526001909101549082015290565b60405161023a9190600060a08201905082511515825260208301511515602083015263ffffffff60408401511660408301526001600160a01b0360608401511660608301526080830151608083015292915050565b34801561060557600080fd5b50610619610614366004614f61565b611369565b60405161023a9190615029565b34801561063257600080fd5b506102747f0000000000000000000000005adb234602d074064c216c1fdb23c6c2031f0c7581565b34801561066657600080fd5b50610331620493e081565b34801561067d57600080fd5b5061035761068c366004614f61565b611409565b34801561069d57600080fd5b506102636106ac366004614e46565b611439565b6102636106bf366004614f61565b61155f565b3480156106d057600080fd5b5061022e6106df366004614f61565b6001600160a01b039081166000908152600560205260409020546601000000000000900416151590565b34801561071557600080fd5b50610263610724366004615090565b611645565b34801561073557600080fd5b5061073e61167e565b60405161023a919061510a565b34801561075757600080fd5b506102747f0000000000000000000000004e59b44847b379578588920ca78fbf26c0b4956c81565b34801561078b57600080fd5b506107b37f000000000000000000000000000000000000000000000000000000000000000081565b60405161023a9190615124565b3480156107cc57600080fd5b506103576116c5565b3480156107e157600080fd5b506102747f0000000000000000000000004886c30c81a17a3a1084fd1812008fa0f71a20b981565b34801561081557600080fd5b506102747f000000000000000000000000c34855f4de64f1840e5686e64278da901e261f2081565b34801561084957600080fd5b50610263610858366004615138565b61171b565b60007fffffffff0000000000000000000000000000000000000000000000000000000082167f18a5af270000000000000000000000000000000000000000000000000000000014806108f057507fffffffff0000000000000000000000000000000000000000000000000000000082167f4c74205e00000000000000000000000000000000000000000000000000000000145b8061093c57507f01ffc9a7000000000000000000000000000000000000000000000000000000007fffffffff000000000000000000000000000000000000000000000000000000008316145b92915050565b61097a60608201356109576020840184614f61565b608084013561096c6060860160408701614f61565b602086013560a08701611897565b6080810135600460006109906020850185614f61565b6001600160a01b03166001600160a01b0316815260200190815260200160002060010160008282546109c29190615167565b909155506109f690506109d86020830183614f61565b6080830135606084018035906109f19060408701614f61565b611a9b565b50565b6000805b82811015610aa9576000848483818110610a1957610a1961517a565b9050608002016040016020810190610a319190614f61565b6001600160a01b0316148015610a8e575060046000858584818110610a5857610a5861517a565b610a6e9260206080909202019081019150614f61565b6001600160a01b0316815260208101919091526040016000206001015415155b15610aa15781610a9d81615190565b9250505b6001016109fd565b5060005b82811015610af657610aee848483818110610aca57610aca61517a565b90506080020160008411610adf576000611c38565b610ae984346151aa565b611c38565b600101610aad565b50505050565b6109f68134611c38565b6001600160a01b038316610b46576040517f8d3329cd00000000000000000000000000000000000000000000000000000000815260040160405180910390fd5b60007f00000000000000000000000094db7c71d9e4bcde99686be9570c68bf12708d3e6001600160a01b031663ea78803f610b8060015490565b6040518263ffffffff1660e01b8152600401610b9e91815260200190565b602060405180830381865afa158015610bbb573d6000803e3d6000fd5b505050506040513d601f19601f82011682018060405250810190610bdf91906151cc565b90506001600160a01b038116610c21576040517fcaa06d2000000000000000000000000000000000000000000000000000000000815260040160405180910390fd5b6001600160a01b03821660009081526005602052604090205460ff16610c83576040517f04fdbe060000000000000000000000000000000000000000000000000000000081526001600160a01b03831660048201526024015b60405180910390fd5b6000610c8d61167e565b90506003816003811115610ca357610ca36150f4565b1480610cc057506002816003811115610cbe57610cbe6150f4565b145b15610cf7576040517fb10f8cca00000000000000000000000000000000000000000000000000000000815260040160405180910390fd5b610d14610d026120e8565b6001600160a01b0384169030896120f7565b6000610d2283888688612173565b9050610d3087858389612361565b50505050505050565b6003610d4361167e565b6003811115610d5457610d546150f4565b03610d8b576040517fb10f8cca00000000000000000000000000000000000000000000000000000000815260040160405180910390fd5b6000610d9660015490565b9050610e937f0000000000000000000000005adb234602d074064c216c1fdb23c6c2031f0c756001600160a01b031663293c49996040518163ffffffff1660e01b8152600401602060405180830381865afa158015610df9573d6000803e3d6000fd5b505050506040513d601f19601f82011682018060405250810190610e1d91906151cc565b6001600160a01b0316636352211e836040518263ffffffff1660e01b8152600401610e4a91815260200190565b602060405180830381865afa158015610e67573d6000803e3d6000fd5b505050506040513d601f19601f82011682018060405250810190610e8b91906151cc565b82601e6124eb565b6000610ea262127500426151e9565b905064ffffffffff831615801590610ec05750808364ffffffffff16105b15610f07576040517f044691ac00000000000000000000000000000000000000000000000000000000815264ffffffffff8416600482015260248101829052604401610c7a565b64ffffffffff83166000557f455efa76af2a8686dc0dd3041bda89ece5ba4691277d525e2161003bbca8b24583610f3c6120e8565b6040805164ffffffffff90931683526001600160a01b039091166020830152015b60405180910390a1505050565b60007f00000000000000000000000000000000000000000000000000000000000000006001811115610f9e57610f9e6150f4565b14610ff7577f00000000000000000000000000000000000000000000000000000000000000006040517fb039c395000000000000000000000000000000000000000000000000000000008152600401610c7a9190615124565b6109f68161100483611409565b612635565b6110196110146120e8565b612a2e565b611063576110256120e8565b6040517f36183c8f0000000000000000000000000000000000000000000000000000000081526001600160a01b039091166004820152602401610c7a565b60006003816110756020850185614f61565b6001600160a01b0316815260208101919091526040908101600020805490925067ffffffffffffffff16906110b090606085019085016151fc565b67ffffffffffffffff161180156110e0575060036110cc61167e565b60038111156110dd576110dd6150f4565b14155b156111ba576110f560608301604084016151fc565b81547fffffffffffffffffffffffffffffffffffffffffffffffff00000000000000001667ffffffffffffffff91909116178155606082013560018201556111406020830183614f61565b6001600160a01b03167fc69d3412489554fb7820c4c2784cb644b6c79bfc117444b93977d3d33a9b8eac61117a60608501604086016151fc565b60608501356111876120e8565b6040805167ffffffffffffffff909416845260208401929092526001600160a01b03169082015260600160405180910390a25b5050565b60006111c960015490565b905061122c7f0000000000000000000000005adb234602d074064c216c1fdb23c6c2031f0c756001600160a01b031663293c49996040518163ffffffff1660e01b8152600401602060405180830381865afa158015610df9573d6000803e3d6000fd5b60005b8281101561132e5760006005600086868581811061124f5761124f61517a565b90506020020160208101906112649190614f61565b6001600160a01b031681526020810191909152604001600090812080547fffffffffffffffffffffffffffffffffffffffffffffffffffffffffffffff0016921515929092179091556001906005908686858181106112c5576112c561517a565b90506020020160208101906112da9190614f61565b6001600160a01b0316815260208101919091526040016000208054911515610100027fffffffffffffffffffffffffffffffffffffffffffffffffffffffffffff00ff90921691909117905560010161122f565b507f8021bce60b20a9afb57085869a3552e0ee5b272b868df894fb30c5e90e74c072838361135a6120e8565b604051610f5d93929190615226565b611371614d53565b6001600160a01b0382166000908152600460209081526040918290208251608081018452815467ffffffffffffffff1681526001820154818401528351610440810180865291949293858401939192600286019284929083019184919082845b8154815260200190600101908083116113d1575050509183525050602091820154908201529082526023929092015491015292915050565b6001600160a01b03811660009081526004602052604081206001015461142f8330612b0a565b61093c9190615167565b611471606082013561144e6020840184614f61565b60808401356114636060860160408701614f61565b602086013560a08701612bd7565b7faaca6f6829d340365b5e6599e0d513cbb4602b94f58ccf16ac77d8d3ae7139ef6114a26060830160408401614f61565b6114af6020840184614f61565b60608401356080850135602086013560017f000000000000000000000000000000000000000000000000000000000000000060018111156114f2576114f26150f4565b146114fe576000611501565b60015b6115096120e8565b604080516001600160a01b039889168152968816602088015286019490945260608501929092526080840152151560a083015290911660c082015260e00160405180910390a16109f66109d86020830183614f61565b6001600160a01b038082166000818152600560209081526040808320815160a081018352815460ff8082161515835261010082041615158286015263ffffffff62010000820416828501526601000000000000900490961660608701526001908101546080870181905294845260049092529091200154101561163a576001600160a01b03821660009081526004602081905260409182902060010154608084015192517fc3e11b79000000000000000000000000000000000000000000000000000000008152918201526024810191909152604401610c7a565b6111ba348383612cad565b60005b81811015611679576116718383838181106116655761166561517a565b90506104a00201611439565b600101611648565b505050565b6000805480820361169157600091505090565b61169e6212750082615167565b4210156116ad57600191505090565b804210156116bd57600291505090565b600391505090565b60004660018190036116da5761210591505090565b80612105036116eb57600191505090565b8062aa36a7036116ff5762014a3491505090565b8062014a34036117135762aa36a791505090565b600091505090565b7ff0c57e16840df040f15088dc2f81fe391c3923bec73e23a9662efc9c229c6a00805468010000000000000000810460ff16159067ffffffffffffffff166000811580156117665750825b905060008267ffffffffffffffff1660011480156117835750303b155b905081158015611791575080155b156117c8576040517ff92ee8a900000000000000000000000000000000000000000000000000000000815260040160405180910390fd5b84547fffffffffffffffffffffffffffffffffffffffffffffffff000000000000000016600117855583156118295784547fffffffffffffffffffffffffffffffffffffffffffffff00ffffffffffffffff16680100000000000000001785555b6001869055831561188f5784547fffffffffffffffffffffffffffffffffffffffffffffff00ffffffffffffffff168555604051600181527fc7f505b2f371ae2175ee4913f4499e1f2633a7b5936321eed1cdaeb6115181d29060200160405180910390a15b505050505050565b6001600160a01b038516600090815260056020526040902054610100900460ff161580156118de575060036118ca61167e565b60038111156118db576118db6150f4565b14155b15611920576040517f4bba81f00000000000000000000000000000000000000000000000000000000081526001600160a01b0386166004820152602401610c7a565b6001600160a01b038516600090815260046020526040902060238101541580159061195b575082600182602301546119589190615167565b10155b156119a4576040517fa4e6bcec0000000000000000000000000000000000000000000000000000000081526001600160a01b038716600482015260248101849052604401610c7a565b604080516001600160a01b03881660208201526000910160408051808303601f19018152918152815160209283012060601c600081815260028452828120600889901c8252909352912054909150600160ff86161b1615611a43576040517fa4e6bcec0000000000000000000000000000000000000000000000000000000081526001600160a01b038816600482015260248101859052604401610c7a565b6001600160a01b039081166000908152600260208181526040808420600889901c855282528084208054600160ff8b161b179055938a16835260049052919020610d3091611a919101612ecd565b8887878787614283565b60017f00000000000000000000000000000000000000000000000000000000000000006001811115611acf57611acf6150f4565b03611ade57611ade8484612635565b6000611ae960015490565b6040517f5dd8f6aa000000000000000000000000000000000000000000000000000000008152600481018290529091507f0000000000000000000000005adb234602d074064c216c1fdb23c6c2031f0c756001600160a01b031690635dd8f6aa90602401602060405180830381865afa158015611b6a573d6000803e3d6000fd5b505050506040513d601f19601f82011682018060405250810190611b8e91906151cc565b6040517fc7fb92de00000000000000000000000000000000000000000000000000000000815260048101839052602481018590526001600160a01b03848116604483015260a06064830152600060a483018190526084830152919091169063c7fb92de9060c4016020604051808303816000875af1158015611c14573d6000803e3d6000fd5b505050506040513d601f19601f8201168201806040525081019061188f9190615286565b6000611c476020840184614f61565b6001600160a01b03808216600090815260056020908152604091829020825160a081018452815460ff808216151583526101008204161580159483019490945263ffffffff6201000082041694820194909452660100000000000090930490931660608301526001909201546080820152919250611cfc576040517f4bba81f00000000000000000000000000000000000000000000000000000000081526001600160a01b0383166004820152602401610c7a565b611d0584614335565b6000611d1060015490565b9050611e0d7f0000000000000000000000005adb234602d074064c216c1fdb23c6c2031f0c756001600160a01b031663293c49996040518163ffffffff1660e01b8152600401602060405180830381865afa158015611d73573d6000803e3d6000fd5b505050506040513d601f19601f82011682018060405250810190611d9791906151cc565b6001600160a01b0316636352211e836040518263ffffffff1660e01b8152600401611dc491815260200190565b602060405180830381865afa158015611de1573d6000803e3d6000fd5b505050506040513d601f19601f82011682018060405250810190611e0591906151cc565b82601c6124eb565b60608201516001600160a01b031615801590611e4e5750611e346060860160408701614f61565b6001600160a01b031682606001516001600160a01b031614155b8015611e7357506000611e676060870160408801614f61565b6001600160a01b031614155b8015611e9957506001600160a01b03831660009081526004602052604090206022015415155b15611ee95760608201516040517f1460b5460000000000000000000000000000000000000000000000000000000081526001600160a01b0380861660048301529091166024820152604401610c7a565b6000611efb6060870160408801614f61565b6001600160a01b0316148015611f2b57506001600160a01b03831660009081526004602052604090206001015415155b15611f3b57611f3b848484612cad565b6040518060a0016040528060006001600160a01b0316876040016020810190611f649190614f61565b6001600160a01b0316141515158152602001600015158152602001866020016020810190611f92919061529f565b63ffffffff1681526020016000611faf6060890160408a01614f61565b6001600160a01b031614611fd257611fcd6060880160408901614f61565b611fd8565b83606001515b6001600160a01b039081168252606097880135602092830152948516600090815260058252604090819020835181549385015192850151998501517fffffffffffffffffffffffffffffffffffffffffffffffffffffffffffff00009094169015157fffffffffffffffffffffffffffffffffffffffffffffffffffffffffffff00ff161761010092151592909202919091177fffffffffffff000000000000000000000000000000000000000000000000ffff166201000063ffffffff909916989098027fffffffffffff0000000000000000000000000000000000000000ffffffffffff16979097176601000000000000919095160293909317855550506080015160019092019190915550565b60006120f2614470565b905090565b6040516001600160a01b038481166024830152838116604483015260648201839052610af69186918216906323b872dd906084015b604051602081830303815290604052915060e01b6020820180517bffffffffffffffffffffffffffffffffffffffffffffffffffffffff83818316178352505050506144e5565b60008061217f60015490565b6040517f86202650000000000000000000000000000000000000000000000000000000008152600481018290526001600160a01b0386811660248301529192506000917f0000000000000000000000005adb234602d074064c216c1fdb23c6c2031f0c751690638620265090604401602060405180830381865afa15801561220b573d6000803e3d6000fd5b505050506040513d601f19601f8201168201806040525081019061222f91906151cc565b90506001600160a01b038116612283576040517fb61c181f000000000000000000000000000000000000000000000000000000008152600481018390526001600160a01b0386166024820152604401610c7a565b600061228f8630612b0a565b604080516020810182526000815290517f13da83170000000000000000000000000000000000000000000000000000000081529192506001600160a01b038416916313da8317916122ee91309188918d918d918d91869160040161530b565b6020604051808303816000875af115801561230d573d6000803e3d6000fd5b505050506040513d601f19601f820116820180604052508101906123319190615286565b93508061233e8730612b0a565b6123489190615167565b84146123565761235661535e565b505050949350505050565b6040805160208082018790528183018590526001600160a01b03841660608084019190915283518084039091018152608090920190925280519101206000906001600160a01b038516600090815260046020908152604080832081516104408101808452959650909461240a9387936002880192849291830191849182845b8154815260200190600101908083116123e05750505091835250506020918201549101529061456f565b8051909150819060028401906124239082906020614d7f565b50602082015181602001559050508482600101600082825461244591906151e9565b92505081905550856001600160a01b0316846001600160a01b03167f584a41ff082fad99bb6e50c5767c347c762057fe5726539f0a8de49d84549c2385600185602001516124939190615167565b61249f87600201612ecd565b8c8b6124a96120e8565b60408051968752602087019590955293850192909252606084015260808301526001600160a01b031660a082015260c00160405180910390a350505050505050565b60006124f56120e8565b9050836001600160a01b0316816001600160a01b0316141580156125dd57506040517f348b684e0000000000000000000000000000000000000000000000000000000081526001600160a01b0382811660048301528581166024830152604482018590526064820184905260016084830181905260a48301527f0000000000000000000000004886c30c81a17a3a1084fd1812008fa0f71a20b9169063348b684e9060c401602060405180830381865afa1580156125b7573d6000803e3d6000fd5b505050506040513d601f19601f820116820180604052508101906125db9190615374565b155b15610af6576040517f264deeaa0000000000000000000000000000000000000000000000000000000081526001600160a01b038086166004830152821660248201526044810184905260648101839052608401610c7a565b600061264083611409565b905080821115612686576040517f60ec3e710000000000000000000000000000000000000000000000000000000081526004810183905260248101829052604401610c7a565b600061269160015490565b6040517f86202650000000000000000000000000000000000000000000000000000000008152600481018290526001600160a01b0386811660248301529192506000917f0000000000000000000000005adb234602d074064c216c1fdb23c6c2031f0c751690638620265090604401602060405180830381865afa15801561271d573d6000803e3d6000fd5b505050506040513d601f19601f8201168201806040525081019061274191906151cc565b90506001600160a01b038116612795576040517fb61c181f000000000000000000000000000000000000000000000000000000008152600481018390526001600160a01b0386166024820152604401610c7a565b6001600160a01b03851661eeee1461297e576040517f70a082310000000000000000000000000000000000000000000000000000000081523060048201526000906001600160a01b038716906370a0823190602401602060405180830381865afa158015612807573d6000803e3d6000fd5b505050506040513d601f19601f8201168201806040525081019061282b9190615286565b90506128388683876146a7565b6040517f9e6eec05000000000000000000000000000000000000000000000000000000008152600481018490526001600160a01b0387811660248301526044820187905260006064830181905260c0608484015260c4830181905260e060a484015260e4830152831690639e6eec059061010401600060405180830381600087803b1580156128c657600080fd5b505af11580156128da573d6000803e3d6000fd5b5050505084816128ea9190615167565b6040517f70a082310000000000000000000000000000000000000000000000000000000081523060048201526001600160a01b038816906370a0823190602401602060405180830381865afa158015612947573d6000803e3d6000fd5b505050506040513d601f19601f8201168201806040525081019061296b9190615286565b146129785761297861535e565b50612a27565b6040517f9e6eec05000000000000000000000000000000000000000000000000000000008152600481018390526001600160a01b0386811660248301526044820186905260006064830181905260c0608484015260c4830181905260e060a484015260e4830152821690639e6eec05908690610104016000604051808303818588803b158015612a0d57600080fd5b505af1158015612a21573d6000803e3d6000fd5b50505050505b5050505050565b60007f000000000000000000000000c34855f4de64f1840e5686e64278da901e261f206001600160a01b0316826001600160a01b031614801561093c5750306001600160a01b03167f000000000000000000000000c34855f4de64f1840e5686e64278da901e261f206001600160a01b0316636e296e456040518163ffffffff1660e01b81526004016020604051808303816000875af1158015612ad6573d6000803e3d6000fd5b505050506040513d601f19601f82011682018060405250810190612afa91906151cc565b6001600160a01b03161492915050565b60007fffffffffffffffffffffffffffffffffffffffffffffffffffffffffffff11126001600160a01b03841601612b4d57506001600160a01b0381163161093c565b6040517f70a082310000000000000000000000000000000000000000000000000000000081526001600160a01b0383811660048301528416906370a0823190602401602060405180830381865afa158015612bac573d6000803e3d6000fd5b505050506040513d601f19601f82011682018060405250810190612bd09190615286565b9392505050565b6001600160a01b0385166000908152600260209081526040808320600886901c8452909152902054600160ff84161b1615612c50576040517fa4e6bcec0000000000000000000000000000000000000000000000000000000081526001600160a01b038616600482015260248101839052604401610c7a565b6001600160a01b0385166000908152600260209081526040808320600886901c845290915290208054600160ff85161b1790556001600160a01b03851660009081526003602052604090206001015461188f908786868686614283565b60608101516001600160a01b0316612cfc576040517f04fdbe060000000000000000000000000000000000000000000000000000000081526001600160a01b0383166004820152602401610c7a565b6000612d0661167e565b90506003816003811115612d1c57612d1c6150f4565b1480612d3957506002816003811115612d3757612d376150f4565b145b15612d70576040517fb10f8cca00000000000000000000000000000000000000000000000000000000815260040160405180910390fd5b6001600160a01b03831660009081526004602052604081206001810180549083905581549192909183908290612daf9067ffffffffffffffff16615396565b91906101000a81548167ffffffffffffffff021916908367ffffffffffffffff160217905590506000612de484600201612ecd565b6022850154602386018190559091506000612e00600183615167565b9050886001600160a01b0316837f47c5615513b0f669da2dd7e3362a34610ca2695d0a0e2da2160cee952eab203c8387612e386120e8565b6040805193845267ffffffffffffffff90921660208401526001600160a01b03169082015260600160405180910390a3600060405180606001604052808a606001516001600160a01b0316815260200187815260200160405180604001604052808867ffffffffffffffff168152602001878152508152509050612ec08b838c898d86614765565b5050505050505050505050565b6020810154600090808203612f0457507f27ae5ba08d7291c96c8cbddcc148bf48a6d68c7974b94356f53754ef6171d75792915050565b6000836001831615612f265780546000526000602052604060002093506137d9565b6002831615612f6b5760018101546000527fad3228b676f7d3cd4284a5443f17f1962b36e491b30a40b2405849e597ba5fb560205260406000209350600191506137d9565b6004831615612fb05760028101546000527fb4c11951957c6f8f642c4af61cd6b24640fec6dc7fc607ee8206a99e92410d3060205260406000209350600291506137d9565b6008831615612ff55760038101546000527f21ddb9a356815c3fac1026b6dec5df3124afbadb485c9ba5a3e3398a04b7ba8560205260406000209350600391506137d9565b601083161561303a5760048101546000527fe58769b32a1beaf1ea27375a44095a0d1fb664ce2dd358e7fcbfb78c26a1934460205260406000209350600491506137d9565b602083161561307f5760058101546000527f0eb01ebfc9ed27500cd4dfc979272d1f0913cc9f66540d7e8005811109e1cf2d60205260406000209350600591506137d9565b60408316156130c45760068101546000527f887c22bd8750d34016ac3c66b5ff102dacdd73f6b014e710b51e8022af9a196860205260406000209350600691506137d9565b60808316156131095760078101546000527fffd70157e48063fc33c97a050f7f640233bf646cc98d9524c6b92bcf3ab56f8360205260406000209350600791506137d9565b61010083161561314f5760088101546000527f9867cc5f7f196b93bae1e27e6320742445d290f2263827498b54fec539f756af60205260406000209350600891506137d9565b6102008316156131955760098101546000527fcefad4e508c098b9a7e1d8feb19955fb02ba9675585078710969d3440f5054e060205260406000209350600991506137d9565b6104008316156131db57600a8101546000527ff9dc3e7fe016e050eff260334f18a5d4fe391d82092319f5964f2e2eb7c1c3a560205260406000209350600a91506137d9565b61080083161561322157600b8101546000527ff8b13a49e282f609c317a833fb8d976d11517c571d1221a265d25af778ecf89260205260406000209350600b91506137d9565b61100083161561326757600c8101546000527f3490c6ceeb450aecdc82e28293031d10c7d73bf85e57bf041a97360aa2c5d99c60205260406000209350600c91506137d9565b6120008316156132ad57600d8101546000527fc1df82d9c4b87413eae2ef048f94b4d3554cea73d92b0f7af96e0271c691e2bb60205260406000209350600d91506137d9565b6140008316156132f357600e8101546000527f5c67add7c6caf302256adedf7ab114da0acfe870d449a3a489f781d659e8becc60205260406000209350600e91506137d9565b61800083161561333957600f8101546000527fda7bce9f4e8618b6bd2f4132ce798cdc7a60e7e1460a7299e3c6342a579626d260205260406000209350600f91506137d9565b620100008316156133805760108101546000527f2733e50f526ec2fa19a22b31e8ed50f23cd1fdf94c9154ed3a7609a2f1ff981f60205260406000209350601091506137d9565b620200008316156133c75760118101546000527fe1d3b5c807b281e4683cc6d6315cf95b9ade8641defcb32372f1c126e398ef7a60205260406000209350601191506137d9565b6204000083161561340e5760128101546000527f5a2dce0a8a7f68bb74560f8f71837c2c2ebbcbf7fffb42ae1896f13f7c7479a060205260406000209350601291506137d9565b620800008316156134555760138101546000527fb46a28b6f55540f89444f63de0378e3d121be09e06cc9ded1c20e65876d36aa060205260406000209350601391506137d9565b6210000083161561349c5760148101546000527fc65e9645644786b620e2dd2ad648ddfcbf4a7e5b1a3a4ecfe7f64667a3f0b7e260205260406000209350601491506137d9565b622000008316156134e35760158101546000527ff4418588ed35a2458cffeb39b93d26f18d2ab13bdce6aee58e7b99359ec2dfd960205260406000209350601591506137d9565b6240000083161561352a5760168101546000527f5a9c16dc00d6ef18b7933a6f8dc65ccb55667138776f7dea101070dc8796e37760205260406000209350601691506137d9565b628000008316156135715760178101546000527f4df84f40ae0c8229d0d6069e5c8f39a7c299677a09d367fc7b05e3bc380ee65260205260406000209350601791506137d9565b63010000008316156135b95760188101546000527fcdc72595f74c7b1043d0e1ffbab734648c838dfb0527d971b602bc216c9619ef60205260406000209350601891506137d9565b63020000008316156136015760198101546000527f0abf5ac974a1ed57f4050aa510dd9c74f508277b39d7973bb2dfccc5eeb0618d60205260406000209350601991506137d9565b630400000083161561364957601a8101546000527fb8cd74046ff337f0a7bf2c8e03e10f642c1886798d71806ab1e888d9e5ee87d060205260406000209350601a91506137d9565b630800000083161561369157601b8101546000527f838c5655cb21c6cb83313b5a631175dff4963772cce9108188b34ac87c81c41e60205260406000209350601b91506137d9565b63100000008316156136d957601c8101546000527f662ee4dd2dd7b2bc707961b1e646c4047669dcb6584f0d8d770daf5d7e7deb2e60205260406000209350601c91506137d9565b632000000083161561372157601d8101546000527f388ab20e2573d171a88108e79d820e98f26c0b84aa8b2f4aa4968dbb818ea32260205260406000209350601d91506137d9565b634000000083161561376957601e8101546000527f93237c50ba75ee485f4c22adf2f741400bdf8d6a9cc7df7ecae576221665d73560205260406000209350601e91506137d9565b63800000008316156137b157601f8101546000527f8448818bb4ae4562849e949e17ac16e0be16688e156b5cf15e098c627c0056a960205260406000209350601f91506137d9565b7f27ae5ba08d7291c96c8cbddcc148bf48a6d68c7974b94356f53754ef6171d7579350602091505b601e821161427b576001821015613837576002831680156138055760018201546000528460205261382e565b846000527fad3228b676f7d3cd4284a5443f17f1962b36e491b30a40b2405849e597ba5fb56020525b50604060002093505b600282101561388d5760048316801561385b57600282015460005284602052613884565b846000527fb4c11951957c6f8f642c4af61cd6b24640fec6dc7fc607ee8206a99e92410d306020525b50604060002093505b60038210156138e3576008831680156138b1576003820154600052846020526138da565b846000527f21ddb9a356815c3fac1026b6dec5df3124afbadb485c9ba5a3e3398a04b7ba856020525b50604060002093505b60048210156139395760108316801561390757600482015460005284602052613930565b846000527fe58769b32a1beaf1ea27375a44095a0d1fb664ce2dd358e7fcbfb78c26a193446020525b50604060002093505b600582101561398f5760208316801561395d57600582015460005284602052613986565b846000527f0eb01ebfc9ed27500cd4dfc979272d1f0913cc9f66540d7e8005811109e1cf2d6020525b50604060002093505b60068210156139e5576040831680156139b3576006820154600052846020526139dc565b846000527f887c22bd8750d34016ac3c66b5ff102dacdd73f6b014e710b51e8022af9a19686020525b50604060002093505b6007821015613a3b57608083168015613a0957600782015460005284602052613a32565b846000527fffd70157e48063fc33c97a050f7f640233bf646cc98d9524c6b92bcf3ab56f836020525b50604060002093505b6008821015613a925761010083168015613a6057600882015460005284602052613a89565b846000527f9867cc5f7f196b93bae1e27e6320742445d290f2263827498b54fec539f756af6020525b50604060002093505b6009821015613ae95761020083168015613ab757600982015460005284602052613ae0565b846000527fcefad4e508c098b9a7e1d8feb19955fb02ba9675585078710969d3440f5054e06020525b50604060002093505b600a821015613b405761040083168015613b0e57600a82015460005284602052613b37565b846000527ff9dc3e7fe016e050eff260334f18a5d4fe391d82092319f5964f2e2eb7c1c3a56020525b50604060002093505b600b821015613b975761080083168015613b6557600b82015460005284602052613b8e565b846000527ff8b13a49e282f609c317a833fb8d976d11517c571d1221a265d25af778ecf8926020525b50604060002093505b600c821015613bee5761100083168015613bbc57600c82015460005284602052613be5565b846000527f3490c6ceeb450aecdc82e28293031d10c7d73bf85e57bf041a97360aa2c5d99c6020525b50604060002093505b600d821015613c455761200083168015613c1357600d82015460005284602052613c3c565b846000527fc1df82d9c4b87413eae2ef048f94b4d3554cea73d92b0f7af96e0271c691e2bb6020525b50604060002093505b600e821015613c9c5761400083168015613c6a57600e82015460005284602052613c93565b846000527f5c67add7c6caf302256adedf7ab114da0acfe870d449a3a489f781d659e8becc6020525b50604060002093505b600f821015613cf35761800083168015613cc157600f82015460005284602052613cea565b846000527fda7bce9f4e8618b6bd2f4132ce798cdc7a60e7e1460a7299e3c6342a579626d26020525b50604060002093505b6010821015613d4b576201000083168015613d1957601082015460005284602052613d42565b846000527f2733e50f526ec2fa19a22b31e8ed50f23cd1fdf94c9154ed3a7609a2f1ff981f6020525b50604060002093505b6011821015613da3576202000083168015613d7157601182015460005284602052613d9a565b846000527fe1d3b5c807b281e4683cc6d6315cf95b9ade8641defcb32372f1c126e398ef7a6020525b50604060002093505b6012821015613dfb576204000083168015613dc957601282015460005284602052613df2565b846000527f5a2dce0a8a7f68bb74560f8f71837c2c2ebbcbf7fffb42ae1896f13f7c7479a06020525b50604060002093505b6013821015613e53576208000083168015613e2157601382015460005284602052613e4a565b846000527fb46a28b6f55540f89444f63de0378e3d121be09e06cc9ded1c20e65876d36aa06020525b50604060002093505b6014821015613eab576210000083168015613e7957601482015460005284602052613ea2565b846000527fc65e9645644786b620e2dd2ad648ddfcbf4a7e5b1a3a4ecfe7f64667a3f0b7e26020525b50604060002093505b6015821015613f03576220000083168015613ed157601582015460005284602052613efa565b846000527ff4418588ed35a2458cffeb39b93d26f18d2ab13bdce6aee58e7b99359ec2dfd96020525b50604060002093505b6016821015613f5b576240000083168015613f2957601682015460005284602052613f52565b846000527f5a9c16dc00d6ef18b7933a6f8dc65ccb55667138776f7dea101070dc8796e3776020525b50604060002093505b6017821015613fb3576280000083168015613f8157601782015460005284602052613faa565b846000527f4df84f40ae0c8229d0d6069e5c8f39a7c299677a09d367fc7b05e3bc380ee6526020525b50604060002093505b601882101561400c57630100000083168015613fda57601882015460005284602052614003565b846000527fcdc72595f74c7b1043d0e1ffbab734648c838dfb0527d971b602bc216c9619ef6020525b50604060002093505b6019821015614065576302000000831680156140335760198201546000528460205261405c565b846000527f0abf5ac974a1ed57f4050aa510dd9c74f508277b39d7973bb2dfccc5eeb0618d6020525b50604060002093505b601a8210156140be5763040000008316801561408c57601a820154600052846020526140b5565b846000527fb8cd74046ff337f0a7bf2c8e03e10f642c1886798d71806ab1e888d9e5ee87d06020525b50604060002093505b601b821015614117576308000000831680156140e557601b8201546000528460205261410e565b846000527f838c5655cb21c6cb83313b5a631175dff4963772cce9108188b34ac87c81c41e6020525b50604060002093505b601c8210156141705763100000008316801561413e57601c82015460005284602052614167565b846000527f662ee4dd2dd7b2bc707961b1e646c4047669dcb6584f0d8d770daf5d7e7deb2e6020525b50604060002093505b601d8210156141c95763200000008316801561419757601d820154600052846020526141c0565b846000527f388ab20e2573d171a88108e79d820e98f26c0b84aa8b2f4aa4968dbb818ea3226020525b50604060002093505b601e821015614222576340000000831680156141f057601e82015460005284602052614219565b846000527f93237c50ba75ee485f4c22adf2f741400bdf8d6a9cc7df7ecae576221665d7356020525b50604060002093505b601f82101561427b5763800000008316801561424957601f82015460005284602052614272565b846000527f8448818bb4ae4562849e949e17ac16e0be16688e156b5cf15e098c627c0056a96020525b50604060002093505b505050919050565b6040805160208082018890528183018790526001600160a01b03861660608084019190915283518084039091018152608083018085528151918301919091206104809093019093526000926142f1929185908282610400808284376000920191909152508791506149b69050565b9050868114610d30576040517ee587d20000000000000000000000000000000000000000000000000000000081526004810182905260248101889052604401610c7a565b600061eeee6143476020840184614f61565b6001600160a01b031614905080801561437a575061eeee61436e6060840160408501614f61565b6001600160a01b031614155b801561439f575060006143936060840160408501614f61565b6001600160a01b031614155b156143f2576143b46060830160408401614f61565b6040517ff41f6def0000000000000000000000000000000000000000000000000000000081526001600160a01b039091166004820152602401610c7a565b62030d40614406604084016020850161529f565b63ffffffff16108015614417575080155b156111ba5761442c604083016020840161529f565b6040517f555d0f1000000000000000000000000000000000000000000000000000000000815263ffffffff909116600482015262030d406024820152604401610c7a565b6000366014336001600160a01b037f000000000000000000000000b2b5841dbef766d4b521221732f9b618fcf34a87161480156144ad5750808210155b156144dd576000366144bf8385615167565b6144ca9282906153bd565b6144d3916153e7565b60601c9250505090565b339250505090565b600080602060008451602086016000885af180614508576040513d6000823e3d81fd5b50506000513d9150811561452057806001141561452d565b6001600160a01b0384163b155b15610af6576040517f5274afe70000000000000000000000000000000000000000000000000000000081526001600160a01b0385166004820152602401610c7a565b614577614dbd565b600083602001805161458890615190565b908190529050600161459c60206002615513565b6145a69190615167565b8111156145df576040517f8eab04bb00000000000000000000000000000000000000000000000000000000815260040160405180910390fd5b60005b6020811015614674578160011660010361461b5784518490826020811061460b5761460b61517a565b60200201525083915061093c9050565b8451816020811061462e5761462e61517a565b60200201518460405160200161464e929190918252602082015260400190565b60408051601f1981840301815291905280516020909101209350600191821c91016145e2565b506040517f8eab04bb00000000000000000000000000000000000000000000000000000000815260040160405180910390fd5b604080516001600160a01b038416602482015260448082018490528251808303909101815260649091019091526020810180517bffffffffffffffffffffffffffffffffffffffffffffffffffffffff167f095ea7b3000000000000000000000000000000000000000000000000000000001790526147268482614d04565b610af6576040516001600160a01b0384811660248301526000604483015261475b91869182169063095ea7b39060640161212c565b610af684826144e5565b600086156147a2576040517fd7468c3200000000000000000000000000000000000000000000000000000000815260048101889052602401610c7a565b6001600160a01b03851661eeee146148a1576147df857f000000000000000000000000fd0bf71f60660e2f608ed56e1659c450eb113120866146a7565b7f000000000000000000000000fd0bf71f60660e2f608ed56e1659c450eb1131206001600160a01b031663540abf7386856060015161481b3090565b60408089015181516020810183526000815291517fffffffff0000000000000000000000000000000000000000000000000000000060e088901b16815261486a959493928c929160040161551f565b600060405180830381600087803b15801561488457600080fd5b505af1158015614898573d6000803e3d6000fd5b505050506148a4565b50825b6001600160a01b037f000000000000000000000000c34855f4de64f1840e5686e64278da901e261f2016633dbb202b8230856040516024016148e69190615571565b60408051601f198184030181529181526020820180517bffffffffffffffffffffffffffffffffffffffffffffffffffffffff167f69d31fdd00000000000000000000000000000000000000000000000000000000179052517fffffffff0000000000000000000000000000000000000000000000000000000060e086901b16815261497b929190620493e0906004016155bd565b6000604051808303818588803b15801561499457600080fd5b505af11580156149a8573d6000803e3d6000fd5b505050505050505050505050565b6020600582811b8216948552835194820394909452604060008181206002851615871b808503919091528386015190528181206004851615871b808503919091528286015190528181206008851615871b80850391909152606086015190528181206010851615871b8085039190915260808087015190915282822084861615881b8086039190915260a0870151905282822083861615881b8086039190915260c0870151905282822090851615871b8085039190915260e0860151905281812061010080861615881b80860392909252860151905281812061020080861615881b80860392909252610120870151909152828220610400861615881b808603919091526101408701519052828220610800861615881b808603919091526101608701519052828220611000861615881b808603919091526101808701519052828220612000861615881b808603919091526101a08701519052828220614000861615881b808603919091526101c08701519052828220618000861615881b808603919091526101e0870151905282822062010000861615881b8086039190915290860151905281812062020000851615871b80850391909152610220860151905281812062040000851615871b80850391909152610240860151905281812062080000851615871b80850391909152610260860151905281812062100000851615871b80850391909152610280860151905281812062200000851615871b808503919091526102a0860151905281812062400000851615871b808503919091526102c0860151905281812062800000851615871b808503919091526102e086015190528181206301000000851615871b8085039190915261030086015190528181206302000000851615871b8085039190915261032086015190528181206304000000851615871b8085039190915261034086015190528181206308000000851615871b8085039190915261036086015190528181206310000000851615871b8085039190915261038086015190528181206320000000851615871b808503919091526103a086015190528181206340000000851615871b808503919091526103c0860151905281812063800000009094161590951b91829003929092526103e090920151909152902090565b6000806000806020600086516020880160008a5af192503d91506000519050828015614d4957508115614d3a5780600114614d49565b6000866001600160a01b03163b115b9695505050505050565b6040805160808101825260008082526020820152908101614d72614dbd565b8152602001600081525090565b8260208101928215614dad579160200282015b82811115614dad578251825591602001919060010190614d92565b50614db9929150614dd0565b5090565b6040518060400160405280614d72614de5565b5b80821115614db95760008155600101614dd1565b6040518061040001604052806020906020820280368337509192915050565b600060208284031215614e1657600080fd5b81357fffffffff0000000000000000000000000000000000000000000000000000000081168114612bd057600080fd5b60006104a08284031215614e5957600080fd5b50919050565b60008060208385031215614e7257600080fd5b823567ffffffffffffffff80821115614e8a57600080fd5b818501915085601f830112614e9e57600080fd5b813581811115614ead57600080fd5b8660208260071b8501011115614ec257600080fd5b60209290920196919550909350505050565b600060808284031215614e5957600080fd5b600060808284031215614ef857600080fd5b612bd08383614ed4565b6001600160a01b03811681146109f657600080fd5b60008060008060808587031215614f2d57600080fd5b843593506020850135614f3f81614f02565b9250604085013591506060850135614f5681614f02565b939692955090935050565b600060208284031215614f7357600080fd5b8135612bd081614f02565b600060208284031215614f9057600080fd5b813564ffffffffff81168114612bd057600080fd5b815167ffffffffffffffff168152602080830151908201526040810161093c565b60008060208385031215614fd957600080fd5b823567ffffffffffffffff80821115614ff157600080fd5b818501915085601f83011261500557600080fd5b81358181111561501457600080fd5b8660208260051b8501011115614ec257600080fd5b815167ffffffffffffffff1681526020808301518183015260408084015180516104808501939260009086015b84821015615074578251815291840191600191909101908401615056565b5050500151610440830152606092909201516104609091015290565b600080602083850312156150a357600080fd5b823567ffffffffffffffff808211156150bb57600080fd5b818501915085601f8301126150cf57600080fd5b8135818111156150de57600080fd5b8660206104a083028501011115614ec257600080fd5b634e487b7160e01b600052602160045260246000fd5b602081016004831061511e5761511e6150f4565b91905290565b602081016002831061511e5761511e6150f4565b60006020828403121561514a57600080fd5b5035919050565b634e487b7160e01b600052601160045260246000fd5b8181038181111561093c5761093c615151565b634e487b7160e01b600052603260045260246000fd5b600060001982036151a3576151a3615151565b5060010190565b6000826151c757634e487b7160e01b600052601260045260246000fd5b500490565b6000602082840312156151de57600080fd5b8151612bd081614f02565b8082018082111561093c5761093c615151565b60006020828403121561520e57600080fd5b813567ffffffffffffffff81168114612bd057600080fd5b6040808252810183905260008460608301825b8681101561526957823561524c81614f02565b6001600160a01b0316825260209283019290910190600101615239565b5080925050506001600160a01b0383166020830152949350505050565b60006020828403121561529857600080fd5b5051919050565b6000602082840312156152b157600080fd5b813563ffffffff81168114612bd057600080fd5b6000815180845260005b818110156152eb576020818501810151868301820152016152cf565b506000602082860101526020601f19601f83011685010191505092915050565b60006001600160a01b03808a168352886020840152876040840152808716606084015285608084015280851660a08401525060e060c083015261535160e08301846152c5565b9998505050505050505050565b634e487b7160e01b600052600160045260246000fd5b60006020828403121561538657600080fd5b81518015158114612bd057600080fd5b600067ffffffffffffffff8083168181036153b3576153b3615151565b6001019392505050565b600080858511156153cd57600080fd5b838611156153da57600080fd5b5050820193919092039150565b7fffffffffffffffffffffffffffffffffffffffff00000000000000000000000081358181169160148510156154275780818660140360031b1b83161692505b505092915050565b600181815b8085111561546a57816000190482111561545057615450615151565b8085161561545d57918102915b93841c9390800290615434565b509250929050565b6000826154815750600161093c565b8161548e5750600061093c565b81600181146154a457600281146154ae576154ca565b600191505061093c565b60ff8411156154bf576154bf615151565b50506001821b61093c565b5060208310610133831016604e8410600b84101617156154ed575081810a61093c565b6154f7838361542f565b806000190482111561550b5761550b615151565b029392505050565b6000612bd08383615472565b60006001600160a01b038089168352808816602084015280871660408401525084606083015263ffffffff8416608083015260c060a083015261556560c08301846152c5565b98975050505050505050565b60006080820190506001600160a01b0383511682526020830151602083015260408301516155b66040840182805167ffffffffffffffff168252602090810151910152565b5092915050565b6001600160a01b03841681526060602082015260006155df60608301856152c5565b905063ffffffff8316604083015294935050505056fea2646970667358221220b4b1398ed7425afebcb3a0cbb3f84a3f58a6814bf4e86995d7266b1034da5e3e64736f6c63430008170033",
	"devdoc": {
		"kind": "dev",
		"methods": {
			"addOutstandingAmountToBalance(address)": {
				"params": {
					"token": "The address of the terminal token to add to the project's balance."
				}
			},
			"amountToAddToBalanceOf(address)": {
				"params": {
					"token": "The local terminal token to get the amount to add to balance for."
				}
			},
			"claim((address,(uint256,address,uint256,uint256),bytes32[32]))": {
				"params": {
					"claimData": "The terminal token, merkle tree leaf, and proof for the claim."
				}
			},
			"claim((address,(uint256,address,uint256,uint256),bytes32[32])[])": {
				"params": {
					"claims": "A list of claims to perform (including the terminal token, merkle tree leaf, and proof for each claim)."
				}
			},
			"constructor": {
				"params": {
					"addToBalanceMode": "The mode of adding tokens to balance.",
					"deployer": "A contract that deploys the clones for this contracts.",
					"directory": "A contract storing directories of terminals and controllers for each project.",
					"permissions": "A contract storing permissions.",
					"tokens": "A contract that manages token minting and burning."
				}
			},
			"enableEmergencyHatchFor(address[])": {
				"details": "For use when a token or a few tokens are no longer compatible with a bridge.",
				"params": {
					"tokens": "The terminal tokens to enable the emergency hatch for."
				}
			},
			"exitThroughEmergencyHatch((address,(uint256,address,uint256,uint256),bytes32[32]))": {
				"params": {
					"claimData": "The terminal token, merkle tree leaf, and proof for the claim"
				}
			},
			"fromRemote((address,uint256,(uint64,bytes32)))": {
				"details": "This can only be called by the messenger contract on the local chain, with a message from the remote peer.",
				"params": {
					"root": "The merkle root, token, and amount being received."
				}
			},
			"inboxOf(address)": {
				"params": {
					"token": "The local terminal token to get the inbox for."
				}
			},
			"initialize(uint256)": {
				"params": {
					"__projectId": "The ID of the project (on the local chain) that this sucker is associated with."
				}
			},
			"isMapped(address)": {
				"params": {
					"token": "The terminal token to check."
				},
				"returns": {
					"_0": "A boolean which is `true` if the token is mapped to a remote token and `false` if it is not."
				}
			},
			"isTrustedForwarder(address)": {
				"details": "Indicates whether any particular address is the trusted forwarder."
			},
			"mapToken((address,uint32,address,uint256))": {
				"params": {
					"map": "The local and remote terminal token addresses to map, and minimum amount/gas limits for bridging them."
				}
			},
			"mapTokens((address,uint32,address,uint256)[])": {
				"params": {
					"maps": "A list of local and remote terminal token addresses to map, and minimum amount/gas limits for bridging them."
				}
			},
			"outboxOf(address)": {
				"params": {
					"token": "The local terminal token to get the remote token for."
				}
			},
			"peerChainId()": {
				"returns": {
					"_0": "chainId of the peer."
				}
			},
			"prepare(uint256,address,uint256,address)": {
				"details": "This adds the tokens and funds to the outbox tree for the `token`. They will be bridged by the next call to `toRemote` for the same `token`.",
				"params": {
					"beneficiary": "The address of the recipient of the tokens on the remote chain.",
					"minTokensReclaimed": "The minimum amount of terminal tokens to cash out for. If the amount cashed out is less than this, the transaction will revert.",
					"projectTokenCount": "The number of project tokens to prepare for bridging.",
					"token": "The address of the terminal token to cash out for."
				}
			},
			"remoteTokenFor(address)": {
				"params": {
					"token": "The local terminal token to get the remote token for."
				}
			},
			"setDeprecation(uint40)": {
				"params": {
					"timestamp": "The time after which the sucker will be deprecated. Or `0` to remove the upcoming deprecation."
				}
			},
			"state()": {
				"returns": {
					"_0": "state The current deprecation state"
				}
			},
			"toRemote(address)": {
				"details": "This sends the outbox root for the specified `token` to the remote chain.",
				"params": {
					"token": "The terminal token being bridged."
				}
			},
			"trustedForwarder()": {
				"details": "Returns the address of the trusted forwarder."
			}
		},
		"version": 1
	},
	"userdoc": {
		"kind": "user",
		"methods": {
			"ADD_TO_BALANCE_MODE()": {
				"notice": "Whether the `amountToAddToBalance` gets added to the project's balance automatically when `claim` is called or manually by calling `addOutstandingAmountToBalance`."
			},
			"DEPLOYER()": {
				"notice": "The address of this contract's deployer."
			},
			"DIRECTORY()": {
				"notice": "The directory of terminals and controllers for projects."
			},
			"MESSENGER_BASE_GAS_LIMIT()": {
				"notice": "A reasonable minimum gas limit for a basic cross-chain call. The minimum amount of gas required to call the `fromRemote` (successfully/safely) on the remote chain."
			},
			"MESSENGER_ERC20_MIN_GAS_LIMIT()": {
				"notice": "A reasonable minimum gas limit used when bridging ERC-20s. The minimum amount of gas required to (successfully/safely) perform a transfer on the remote chain."
			},
			"OPBRIDGE()": {
				"notice": "The bridge used to bridge tokens between the local and remote chain."
			},
			"OPMESSENGER()": {
				"notice": "The messenger used to send messages between the local and remote sucker."
			},
			"PERMISSIONS()": {
				"notice": "A contract storing permissions."
			},
			"TOKENS()": {
				"notice": "The contract that manages token minting and burning."
			},
			"addOutstandingAmountToBalance(address)": {
				"notice": "Adds the reclaimed `token` balance to the projects terminal. Can only be used if `ADD_TO_BALANCE_MODE` is `MANUAL`."
			},
			"amountToAddToBalanceOf(address)": {
				"notice": "The outstanding amount of tokens to be added to the project's balance by `claim` or `addOutstandingAmountToBalance`."
			},
			"claim((address,(uint256,address,uint256,uint256),bytes32[32]))": {
				"notice": "`JBClaim` project tokens which have been bridged from the remote chain for their beneficiary."
			},
			"claim((address,(uint256,address,uint256,uint256),bytes32[32])[])": {
				"notice": "Performs multiple claims."
			},
			"enableEmergencyHatchFor(address[])": {
				"notice": "Enables the emergency hatch for a list of tokens, allowing users to exit on the chain they deposited on."
			},
			"exitThroughEmergencyHatch((address,(uint256,address,uint256,uint256),bytes32[32]))": {
				"notice": "Lets user exit on the chain they deposited in a scenario where the bridge is no longer functional."
			},
			"fromRemote((address,uint256,(uint64,bytes32)))": {
				"notice": "Receive a merkle root for a terminal token from the remote project."
			},
			"inboxOf(address)": {
				"notice": "The inbox merkle tree root for a given token."
			},
			"initialize(uint256)": {
				"notice": "Initializes the sucker with the project ID and peer address."
			},
			"isMapped(address)": {
				"notice": "Checks whether the specified token is mapped to a remote token."
			},
			"mapToken((address,uint32,address,uint256))": {
				"notice": "Map an ERC-20 token on the local chain to an ERC-20 token on the remote chain, allowing that token to be bridged."
			},
			"mapTokens((address,uint32,address,uint256)[])": {
				"notice": "Map multiple ERC-20 tokens on the local chain to ERC-20 tokens on the remote chain, allowing those tokens to be bridged."
			},
			"outboxOf(address)": {
				"notice": "Information about the token on the remote chain that the given token on the local chain is mapped to."
			},
			"peer()": {
				"notice": "The peer sucker on the remote chain."
			},
			"peerChainId()": {
				"notice": "Returns the chain on which the peer is located."
			},
			"prepare(uint256,address,uint256,address)": {
				"notice": "Prepare project tokens and the cash out amount backing them to be bridged to the remote chain."
			},
			"projectId()": {
				"notice": "The ID of the project (on the local chain) that this sucker is associated with."
			},
			"remoteTokenFor(address)": {
				"notice": "Information about the token on the remote chain that the given token on the local chain is mapped to."
			},
			"setDeprecation(uint40)": {
				"notice": "Set or remove the time after which this sucker will be deprecated, once deprecated the sucker will no longer be functional and it will let all users exit."
			},
			"state()": {
				"notice": "Reports the deprecation state of the sucker."
			},
			"toRemote(address)": {
				"notice": "Bridge the project tokens, cashed out funds, and beneficiary information for a given `token` to the remote chain."
			}
		},
		"version": 1
	},
	"gitCommit": "8b90383d486eaa66d681420f15f6aae176c34185",
	"sourceName": "src/JBBaseSucker.sol",
	"chainId": "11155111",
	"linkReferences": {},
	"deployedLinkReferences": {},
	"history": []
}