{
	"_format": "sphinx-sol-ct-artifact-1",
	"merkleRoot": "0xe3f243ef9d46aa52458ddfe8b1d10fa06b3f7f54942848a0e17305fb31490ca2",
	"contractName": "JBOptimismSuckerDeployer",
	"address": "0x6982dAA5f0FBCF9fa23C67d6B6E81C931FbE01Fe",
	"abi": [
		{
			"type": "constructor",
			"inputs": [
				{
					"name": "directory",
					"type": "address",
					"internalType": "contract IJBDirectory"
				},
				{
					"name": "permissions",
					"type": "address",
					"internalType": "contract IJBPermissions"
				},
				{
					"name": "tokens",
					"type": "address",
					"internalType": "contract IJBTokens"
				},
				{
					"name": "configurator",
					"type": "address",
					"internalType": "address"
				}
			],
			"stateMutability": "nonpayable"
		},
		{
			"type": "function",
			"name": "DIRECTORY",
			"inputs": [],
			"outputs": [
				{
					"name": "",
					"type": "address",
					"internalType": "contract IJBDirectory"
				}
			],
			"stateMutability": "view"
		},
		{
			"type": "function",
			"name": "LAYER_SPECIFIC_CONFIGURATOR",
			"inputs": [],
			"outputs": [
				{
					"name": "",
					"type": "address",
					"internalType": "address"
				}
			],
			"stateMutability": "view"
		},
		{
			"type": "function",
			"name": "PERMISSIONS",
			"inputs": [],
			"outputs": [
				{
					"name": "",
					"type": "address",
					"internalType": "contract IJBPermissions"
				}
			],
			"stateMutability": "view"
		},
		{
			"type": "function",
			"name": "TOKENS",
			"inputs": [],
			"outputs": [
				{
					"name": "",
					"type": "address",
					"internalType": "contract IJBTokens"
				}
			],
			"stateMutability": "view"
		},
		{
			"type": "function",
			"name": "configureLayerSpecific",
			"inputs": [
				{
					"name": "messenger",
					"type": "address",
					"internalType": "contract IOPMessenger"
				},
				{
					"name": "bridge",
					"type": "address",
					"internalType": "contract IOPStandardBridge"
				}
			],
			"outputs": [],
			"stateMutability": "nonpayable"
		},
		{
			"type": "function",
			"name": "createForSender",
			"inputs": [
				{
					"name": "localProjectId",
					"type": "uint256",
					"internalType": "uint256"
				},
				{
					"name": "salt",
					"type": "bytes32",
					"internalType": "bytes32"
				}
			],
			"outputs": [
				{
					"name": "sucker",
					"type": "address",
					"internalType": "contract IJBSucker"
				}
			],
			"stateMutability": "nonpayable"
		},
		{
			"type": "function",
			"name": "isSucker",
			"inputs": [
				{
					"name": "",
					"type": "address",
					"internalType": "address"
				}
			],
			"outputs": [
				{
					"name": "",
					"type": "bool",
					"internalType": "bool"
				}
			],
			"stateMutability": "view"
		},
		{
			"type": "function",
			"name": "opBridge",
			"inputs": [],
			"outputs": [
				{
					"name": "",
					"type": "address",
					"internalType": "contract IOPStandardBridge"
				}
			],
			"stateMutability": "view"
		},
		{
			"type": "function",
			"name": "opMessenger",
			"inputs": [],
			"outputs": [
				{
					"name": "",
					"type": "address",
					"internalType": "contract IOPMessenger"
				}
			],
			"stateMutability": "view"
		},
		{
			"type": "function",
			"name": "tempStoreId",
			"inputs": [],
			"outputs": [
				{
					"name": "",
					"type": "uint256",
					"internalType": "uint256"
				}
			],
			"stateMutability": "view"
		},
		{
			"type": "error",
			"name": "JBArbitrumSuckerDeployer_ZeroConfiguratorAddress",
			"inputs": []
		},
		{
			"type": "error",
			"name": "JBOptimismSuckerDeployer_AlreadyConfigured",
			"inputs": [
				{
					"name": "messenger",
					"type": "address",
					"internalType": "contract IOPMessenger"
				},
				{
					"name": "bridge",
					"type": "address",
					"internalType": "contract IOPStandardBridge"
				}
			]
		},
		{
			"type": "error",
			"name": "JBPermissioned_Unauthorized",
			"inputs": [
				{
					"name": "account",
					"type": "address",
					"internalType": "address"
				},
				{
					"name": "sender",
					"type": "address",
					"internalType": "address"
				},
				{
					"name": "projectId",
					"type": "uint256",
					"internalType": "uint256"
				},
				{
					"name": "permissionId",
					"type": "uint256",
					"internalType": "uint256"
				}
			]
		}
	],
	"solcInputHash": "71f5c033057b97af0e380280c08c36df",
	"args": [
		"0xE0B2860344bA476e12eD1d559656dA9D04F1AD22",
		"0x4CDb4200e4E65a277676Cd5E8d3c7C7C4dA7fBe5",
		"0xfF5Dd171BdA8bC78915B9a58D907Df7c10CE4E5c",
		"0x0FF306a08cf4E16570ab7a6bD95Ba52d2fe64D45"
	],
	"bytecode": "0x61010060405234801561001157600080fd5b5060405161591d38038061591d83398101604081905261003091610095565b6001600160a01b03808416608052811661005d5760405163f6c4570b60e01b815260040160405180910390fd5b6001600160a01b0390811660c05292831660a05290911660e052506100f4565b6001600160a01b038116811461009257600080fd5b50565b600080600080608085870312156100ab57600080fd5b84516100b68161007d565b60208601519094506100c78161007d565b60408601519093506100d88161007d565b60608601519092506100e98161007d565b939692955090935050565b60805160a05160c05160e0516157db6101426000396000818161010501526102da0152600061012c0152600081816101aa015261029801526000818161021901526102b901526157db6000f3fe608060405234801561001057600080fd5b50600436106100be5760003560e01c8063516bf2f311610076578063c39ec1241161005b578063c39ec124146101cc578063cc8b6f4f146101ff578063f434c9141461021457600080fd5b8063516bf2f31461018557806388bc2ef3146101a557600080fd5b80631e5d73df116100a75780631e5d73df1461012757806328db992a1461014e5780633691b4611461016e57600080fd5b806312130366146100c35780631d831d5c14610100575b600080fd5b6100d66100d136600461048a565b61023b565b60405173ffffffffffffffffffffffffffffffffffffffff90911681526020015b60405180910390f35b6100d67f000000000000000000000000000000000000000000000000000000000000000081565b6100d67f000000000000000000000000000000000000000000000000000000000000000081565b6001546100d69073ffffffffffffffffffffffffffffffffffffffff1681565b61017760035481565b6040519081526020016100f7565b6000546100d69073ffffffffffffffffffffffffffffffffffffffff1681565b6100d67f000000000000000000000000000000000000000000000000000000000000000081565b6101ef6101da3660046104d1565b60026020526000908152604090205460ff1681565b60405190151581526020016100f7565b61021261020d3660046104f5565b61038c565b005b6100d67f000000000000000000000000000000000000000000000000000000000000000081565b6040517fffffffffffffffffffffffffffffffffffffffff0000000000000000000000003360601b1660208201526034810182905260009060540160405160208183030381529060405280519060200120915082600381905550817f00000000000000000000000000000000000000000000000000000000000000007f00000000000000000000000000000000000000000000000000000000000000007f00000000000000000000000000000000000000000000000000000000000000006000806040516103089061047d565b61031695949392919061052e565b8190604051809103906000f5905080158015610336573d6000803e3d6000fd5b5073ffffffffffffffffffffffffffffffffffffffff8116600090815260026020526040902080547fffffffffffffffffffffffffffffffffffffffffffffffffffffffffffffff001660011790559392505050565b60005473ffffffffffffffffffffffffffffffffffffffff161515806103c9575060015473ffffffffffffffffffffffffffffffffffffffff1615155b1561042a576000546001546040517f27d2085500000000000000000000000000000000000000000000000000000000815273ffffffffffffffffffffffffffffffffffffffff92831660048201529116602482015260440160405180910390fd5b6000805473ffffffffffffffffffffffffffffffffffffffff9384167fffffffffffffffffffffffff00000000000000000000000000000000000000009182161790915560018054929093169116179055565b6151fb806105ab83390190565b6000806040838503121561049d57600080fd5b50508035926020909101359150565b73ffffffffffffffffffffffffffffffffffffffff811681146104ce57600080fd5b50565b6000602082840312156104e357600080fd5b81356104ee816104ac565b9392505050565b6000806040838503121561050857600080fd5b8235610513816104ac565b91506020830135610523816104ac565b809150509250929050565b73ffffffffffffffffffffffffffffffffffffffff8681168252858116602083015284811660408301528316606082015260a081016002831061059a577f4e487b7100000000000000000000000000000000000000000000000000000000600052602160045260246000fd5b826080830152969550505050505056fe6101a06040523480156200001257600080fd5b50604051620051fb380380620051fb833981016040819052620000359162000217565b8484848484336001600160a01b0316633691b4616040518163ffffffff1660e01b8152600401602060405180830381865afa15801562000079573d6000803e3d6000fd5b505050506040513d601f19601f820116820180604052508101906200009f91906200029a565b6001600160a01b0380861660805286811660e05284811661014052831615620000c95782620000cb565b305b6001600160a01b0316610100523360c052816001811115620000f157620000f1620002b4565b60a0816001811115620001085762000108620002b4565b9052506101205250506040805163146dcc9560e11b815290513394506328db992a9350600480830193506020928290030181865afa1580156200014f573d6000803e3d6000fd5b505050506040513d601f19601f82011682018060405250810190620001759190620002ca565b6001600160a01b0316610160526040805163516bf2f360e01b81529051339163516bf2f39160048083019260209291908290030181865afa158015620001bf573d6000803e3d6000fd5b505050506040513d601f19601f82011682018060405250810190620001e59190620002ca565b6001600160a01b03166101805250620002f19350505050565b6001600160a01b03811681146200021457600080fd5b50565b600080600080600060a086880312156200023057600080fd5b85516200023d81620001fe565b60208701519095506200025081620001fe565b60408701519094506200026381620001fe565b60608701519093506200027681620001fe565b6080870151909250600281106200028c57600080fd5b809150509295509295909350565b600060208284031215620002ad57600080fd5b5051919050565b634e487b7160e01b600052602160045260246000fd5b600060208284031215620002dd57600080fd5b8151620002ea81620001fe565b9392505050565b60805160a05160c05160e0516101005161012051610140516101605161018051614dc762000434600039600081816106e6015281816119c30152818161257801526126050152600081816102380152818161188c01526119010152600081816101b80152610c5c0152600081816102d80152818161098101528181610a0b01528181610c33015281816112c80152818161138b01528181611c8601528181611d7e01528181611e2e01528181612139015281816122180152818161234501526124c40152600081816105410152818161193201528181611a0001526125ce0152600081816104c9015281816108cc015281816112ee01528181611cce01526121680152600061062801526000818161065c01528181610df301528181610e2a015281816111be01526112510152600081816106b201526116630152614dc76000f3fe60806040526004361061019a5760003560e01c806388bc2ef3116100e1578063bf557aee1161008a578063c6525f2c11610064578063c6525f2c1461064a578063cdfceeba1461068b578063f434c914146106a0578063fc8fa43d146106d457600080fd5b8063bf557aee14610596578063c1854129146105f6578063c1b8411a1461061657600080fd5b8063ad42938b116100bb578063ad42938b1461052f578063b59ef50f14610563578063b71c11791461058357600080fd5b806388bc2ef3146104b757806392ee1ea7146104eb5780639e6d7d431461050257600080fd5b806356539f39116101435780636d9e384b1161011d5780636d9e384b1461033b5780637de6fba2146103c1578063802c8fa01461048a57600080fd5b806356539f39146102c657806369ce22331461030857806369d31fdd1461032857600080fd5b806338eb20441161017457806338eb20441461025a5780633a5de07d1461027a578063551ebbf0146102a657600080fd5b80631d831d5c146101a65780632241dc52146102045780632847f1f31461022657600080fd5b366101a157005b600080fd5b3480156101b257600080fd5b506101da7f000000000000000000000000000000000000000000000000000000000000000081565b60405173ffffffffffffffffffffffffffffffffffffffff90911681526020015b60405180910390f35b34801561021057600080fd5b5061022461021f36600461462a565b610708565b005b34801561023257600080fd5b506101da7f000000000000000000000000000000000000000000000000000000000000000081565b34801561026657600080fd5b506102246102753660046146b7565b610742565b34801561028657600080fd5b5061029162030d4081565b60405163ffffffff90911681526020016101fb565b3480156102b257600080fd5b506102246102c13660046146f5565b610bbe565b3480156102d257600080fd5b506102fa7f000000000000000000000000000000000000000000000000000000000000000081565b6040519081526020016101fb565b34801561031457600080fd5b5061022461032336600461473f565b610def565b6102246103363660046146b7565b610eb0565b34801561034757600080fd5b506103b461035636600461473f565b60408051808201909152600080825260208201525073ffffffffffffffffffffffffffffffffffffffff166000908152600260209081526040918290208251808401909352805467ffffffffffffffff168352600101549082015290565b6040516101fb919061475c565b3480156103cd57600080fd5b5061044c6103dc36600461473f565b60408051606080820183526000808352602080840182905292840181905273ffffffffffffffffffffffffffffffffffffffff94851681526004835283902083519182018452805463ffffffff811683526401000000009004909416918101919091526001909201549082015290565b60408051825163ffffffff16815260208084015173ffffffffffffffffffffffffffffffffffffffff169082015291810151908201526060016101fb565b34801561049657600080fd5b506104aa6104a536600461473f565b611093565b6040516101fb919061477d565b3480156104c357600080fd5b506101da7f000000000000000000000000000000000000000000000000000000000000000081565b3480156104f757600080fd5b50610291620493e081565b34801561050e57600080fd5b506102fa61051d36600461473f565b60006020819052908152604090205481565b34801561053b57600080fd5b506101da7f000000000000000000000000000000000000000000000000000000000000000081565b34801561056f57600080fd5b5061022461057e3660046147dd565b611135565b61022461059136600461473f565b611470565b3480156105a257600080fd5b506105e66105b136600461473f565b73ffffffffffffffffffffffffffffffffffffffff908116600090815260046020526040902054640100000000900416151590565b60405190151581526020016101fb565b34801561060257600080fd5b506102246106113660046147f0565b61154f565b34801561062257600080fd5b506101da7f000000000000000000000000000000000000000000000000000000000000000081565b34801561065657600080fd5b5061067e7f000000000000000000000000000000000000000000000000000000000000000081565b6040516101fb9190614883565b34801561069757600080fd5b506102fa611584565b3480156106ac57600080fd5b506101da7f000000000000000000000000000000000000000000000000000000000000000081565b3480156106e057600080fd5b506101da7f000000000000000000000000000000000000000000000000000000000000000081565b8060005b8181101561073c57610734848483818110610729576107296148c4565b905060800201610742565b60010161070c565b50505050565b6000610751602083018361473f565b9050600061eeee610765602085018561473f565b73ffffffffffffffffffffffffffffffffffffffff161490508080156107b2575061eeee610799606085016040860161473f565b73ffffffffffffffffffffffffffffffffffffffff1614155b80156107e4575060006107cb606085016040860161473f565b73ffffffffffffffffffffffffffffffffffffffff1614155b15610849576107f9606084016040850161473f565b6040517ff41f6def00000000000000000000000000000000000000000000000000000000815273ffffffffffffffffffffffffffffffffffffffff90911660048201526024015b60405180910390fd5b62030d4061085d60408501602086016148f3565b63ffffffff1610801561086e575080155b156108c75761088360408401602085016148f3565b6040517f555d0f1000000000000000000000000000000000000000000000000000000000815263ffffffff909116600482015262030d406024820152604401610840565b610a317f000000000000000000000000000000000000000000000000000000000000000073ffffffffffffffffffffffffffffffffffffffff1663293c49996040518163ffffffff1660e01b8152600401602060405180830381865afa158015610935573d6000803e3d6000fd5b505050506040513d601f19601f820116820180604052508101906109599190614919565b6040517f6352211e0000000000000000000000000000000000000000000000000000000081527f0000000000000000000000000000000000000000000000000000000000000000600482015273ffffffffffffffffffffffffffffffffffffffff9190911690636352211e90602401602060405180830381865afa1580156109e5573d6000803e3d6000fd5b505050506040513d601f19601f82011682018060405250810190610a099190614919565b7f0000000000000000000000000000000000000000000000000000000000000000601c6115d8565b6000610a43606085016040860161473f565b73ffffffffffffffffffffffffffffffffffffffff16148015610a8d575073ffffffffffffffffffffffffffffffffffffffff821660009081526003602052604090206001015415155b15610af55773ffffffffffffffffffffffffffffffffffffffff80831660009081526004602090815260408083208151606081018352815463ffffffff8116825264010000000090049095169285019290925260019091015490830152610af5918490611735565b6040518060600160405280846020016020810190610b1391906148f3565b63ffffffff168152602001610b2e606086016040870161473f565b73ffffffffffffffffffffffffffffffffffffffff90811682526060909501356020918201529284166000908152600484526040908190208251815495840151909616640100000000027fffffffffffffffff00000000000000000000000000000000000000000000000090951663ffffffff909616959095179390931784559091015160019092019190915550565b73ffffffffffffffffffffffffffffffffffffffff8316610c0b576040517f8d3329cd00000000000000000000000000000000000000000000000000000000815260040160405180910390fd5b6040517fea78803f0000000000000000000000000000000000000000000000000000000081527f000000000000000000000000000000000000000000000000000000000000000060048201526000907f000000000000000000000000000000000000000000000000000000000000000073ffffffffffffffffffffffffffffffffffffffff169063ea78803f90602401602060405180830381865afa158015610cb8573d6000803e3d6000fd5b505050506040513d601f19601f82011682018060405250810190610cdc9190614919565b905073ffffffffffffffffffffffffffffffffffffffff8116610d2b576040517fcaa06d2000000000000000000000000000000000000000000000000000000000815260040160405180910390fd5b73ffffffffffffffffffffffffffffffffffffffff828116600090815260046020526040902054640100000000900416610da9576040517f04fdbe0600000000000000000000000000000000000000000000000000000000815273ffffffffffffffffffffffffffffffffffffffff83166004820152602401610840565b610dcb73ffffffffffffffffffffffffffffffffffffffff8216333088611bd5565b6000610dd982878587611c5e565b9050610de786848388611ed0565b505050505050565b60007f00000000000000000000000000000000000000000000000000000000000000006001811115610e2357610e23614854565b14610e7c577f00000000000000000000000000000000000000000000000000000000000000006040517fb039c3950000000000000000000000000000000000000000000000000000000081526004016108409190614883565b73ffffffffffffffffffffffffffffffffffffffff8116600090815260208190526040902054610ead90829061207d565b50565b610eb933612574565b610ef1576040517f36183c8f000000000000000000000000000000000000000000000000000000008152336004820152602401610840565b602081018035906000908190610f07908561473f565b73ffffffffffffffffffffffffffffffffffffffff1673ffffffffffffffffffffffffffffffffffffffff1681526020019081526020016000206000828254610f509190614965565b9091555060009050600281610f68602085018561473f565b73ffffffffffffffffffffffffffffffffffffffff16815260208101919091526040908101600020805490925067ffffffffffffffff1690610fb09060608501908501614978565b67ffffffffffffffff16111561108f57610fd06060830160408401614978565b81547fffffffffffffffffffffffffffffffffffffffffffffffff00000000000000001667ffffffffffffffff919091161781556060820135600182015561101b602083018361473f565b73ffffffffffffffffffffffffffffffffffffffff167fc69d3412489554fb7820c4c2784cb644b6c79bfc117444b93977d3d33a9b8eac6110626060850160408601614978565b6040805167ffffffffffffffff929092168252606086810135602084015233838301529051918290030190a25b5050565b61109b614574565b73ffffffffffffffffffffffffffffffffffffffff82166000908152600360209081526040918290208251606081018452815467ffffffffffffffff1681526001820154818401528351610440810180865291949293858401939192600286019284929083019184919082845b81548152602001906001019080831161110857505050918352505060209182015491015290525092915050565b61116d606082013561114a602084018461473f565b608084013561115f606086016040870161473f565b602086013560a087016126b2565b7faaca6f6829d340365b5e6599e0d513cbb4602b94f58ccf16ac77d8d3ae7139ef61119e606083016040840161473f565b6111ab602084018461473f565b60608401356080850135602086013560017f000000000000000000000000000000000000000000000000000000000000000060018111156111ee576111ee614854565b146111fa5760006111fd565b60015b6040805173ffffffffffffffffffffffffffffffffffffffff97881681529690951660208701529385019290925260608401526080830152151560a08201523360c082015260e00160405180910390a160017f0000000000000000000000000000000000000000000000000000000000000000600181111561128157611281614854565b036112a0576112a0611296602083018361473f565b608083013561207d565b6040517f5dd8f6aa0000000000000000000000000000000000000000000000000000000081527f000000000000000000000000000000000000000000000000000000000000000060048201527f000000000000000000000000000000000000000000000000000000000000000073ffffffffffffffffffffffffffffffffffffffff1690635dd8f6aa90602401602060405180830381865afa15801561134a573d6000803e3d6000fd5b505050506040513d601f19601f8201168201806040525081019061136e9190614919565b73ffffffffffffffffffffffffffffffffffffffff1663c7fb92de7f0000000000000000000000000000000000000000000000000000000000000000606084018035906113be906040870161473f565b6040517fffffffff0000000000000000000000000000000000000000000000000000000060e086901b1681526004810193909352602483019190915273ffffffffffffffffffffffffffffffffffffffff16604482015260a06064820152600060a48201819052608482015260c4016020604051808303816000875af115801561144c573d6000803e3d6000fd5b505050506040513d601f19601f8201168201806040525081019061108f91906149a2565b73ffffffffffffffffffffffffffffffffffffffff80821660008181526004602090815260408083208151606081018352815463ffffffff811682526401000000009004909616868401526001908101548683018190529484526003909252909120015410156115445773ffffffffffffffffffffffffffffffffffffffff821660009081526003602052604090819020600101548282015191517fc3e11b790000000000000000000000000000000000000000000000000000000081526108409290600401918252602082015260400190565b61108f348383611735565b8060005b8181101561073c5761157c848483818110611570576115706148c4565b90506104a00201611135565b600101611553565b600046600181900361159857600a91505090565b80600a036115a857600191505090565b8062aa36a7036115bc5762aa37dc91505090565b8062aa37dc036115d05762aa36a791505090565b600091505090565b3373ffffffffffffffffffffffffffffffffffffffff841681148015906116d057506040517f348b684e00000000000000000000000000000000000000000000000000000000815273ffffffffffffffffffffffffffffffffffffffff82811660048301528581166024830152604482018590526064820184905260016084830181905260a48301527f0000000000000000000000000000000000000000000000000000000000000000169063348b684e9060c401602060405180830381865afa1580156116aa573d6000803e3d6000fd5b505050506040513d601f19601f820116820180604052508101906116ce91906149bb565b155b1561073c576040517f264deeaa00000000000000000000000000000000000000000000000000000000815273ffffffffffffffffffffffffffffffffffffffff8086166004830152821660248201526044810184905260648101839052608401610840565b60008315611772576040517fca778ecd00000000000000000000000000000000000000000000000000000000815260048101859052602401610840565b73ffffffffffffffffffffffffffffffffffffffff8316600090815260036020526040812060018101805490839055815491929091839082906117be9067ffffffffffffffff166149dd565b91906101000a81548167ffffffffffffffff021916908367ffffffffffffffff16021790559050600073ffffffffffffffffffffffffffffffffffffffff16856020015173ffffffffffffffffffffffffffffffffffffffff1603611867576040517f04fdbe0600000000000000000000000000000000000000000000000000000000815273ffffffffffffffffffffffffffffffffffffffff87166004820152602401610840565b73ffffffffffffffffffffffffffffffffffffffff861661eeee14611995576118b1867f000000000000000000000000000000000000000000000000000000000000000084612891565b602080860151865160408051938401815260008452517f540abf7300000000000000000000000000000000000000000000000000000000815273ffffffffffffffffffffffffffffffffffffffff7f0000000000000000000000000000000000000000000000000000000000000000169363540abf739361195e938c9391927f0000000000000000000000000000000000000000000000000000000000000000928a929190600401614a72565b600060405180830381600087803b15801561197857600080fd5b505af115801561198c573d6000803e3d6000fd5b50505050611999565b8193505b60006119a784600201612969565b90506000600185600201602001546119bf9190614ad1565b90507f000000000000000000000000000000000000000000000000000000000000000073ffffffffffffffffffffffffffffffffffffffff16633dbb202b877f000000000000000000000000000000000000000000000000000000000000000060405180606001604052808c6020015173ffffffffffffffffffffffffffffffffffffffff16815260200189815260200160405180604001604052808a67ffffffffffffffff16815260200189815250815250604051602401611a829190614ae4565b604080517fffffffffffffffffffffffffffffffffffffffffffffffffffffffffffffffe08184030181529181526020820180517bffffffffffffffffffffffffffffffffffffffffffffffffffffffff167f69d31fdd00000000000000000000000000000000000000000000000000000000179052517fffffffff0000000000000000000000000000000000000000000000000000000060e086901b168152611b35929190620493e090600401614b3d565b6000604051808303818588803b158015611b4e57600080fd5b505af1158015611b62573d6000803e3d6000fd5b50506040805185815267ffffffffffffffff881660208201523381830152905173ffffffffffffffffffffffffffffffffffffffff8d1694508693507f47c5615513b0f669da2dd7e3362a34610ca2695d0a0e2da2160cee952eab203c92509081900360600190a3505050505050505050565b60405173ffffffffffffffffffffffffffffffffffffffff848116602483015283811660448301526064820183905261073c9186918216906323b872dd906084015b604051602081830303815290604052915060e01b6020820180517bffffffffffffffffffffffffffffffffffffffffffffffffffffffff8381831617835250505050613d1f565b6040517f862026500000000000000000000000000000000000000000000000000000000081527f0000000000000000000000000000000000000000000000000000000000000000600482015273ffffffffffffffffffffffffffffffffffffffff838116602483015260009182917f00000000000000000000000000000000000000000000000000000000000000001690638620265090604401602060405180830381865afa158015611d15573d6000803e3d6000fd5b505050506040513d601f19601f82011682018060405250810190611d399190614919565b905073ffffffffffffffffffffffffffffffffffffffff8116611dc6576040517fb61c181f0000000000000000000000000000000000000000000000000000000081527f0000000000000000000000000000000000000000000000000000000000000000600482015273ffffffffffffffffffffffffffffffffffffffff85166024820152604401610840565b6000611dd28530613dba565b604080516020810182526000815290517fbb7214fe00000000000000000000000000000000000000000000000000000000815291925073ffffffffffffffffffffffffffffffffffffffff84169163bb7214fe91611e5e9130917f0000000000000000000000000000000000000000000000000000000000000000918b918d918c918691600401614b82565b6020604051808303816000875af1158015611e7d573d6000803e3d6000fd5b505050506040513d601f19601f82011682018060405250810190611ea191906149a2565b925080611eae8630613dba565b611eb89190614ad1565b8314611ec657611ec6614be2565b5050949350505050565b60408051602080820187905281830185905273ffffffffffffffffffffffffffffffffffffffff8416606080840191909152835180840390910181526080909201909252805191012060009073ffffffffffffffffffffffffffffffffffffffff85166000908152600360209081526040808320815161044081018084529596509094611f939387936002880192849291830191849182845b815481526020019060010190808311611f6957505050918352505060209182015491015290613eae565b805190915081906002840190611fac9082906020614598565b506020820151816020015590505084826001016000828254611fce9190614965565b925050819055508573ffffffffffffffffffffffffffffffffffffffff168473ffffffffffffffffffffffffffffffffffffffff167f584a41ff082fad99bb6e50c5767c347c762057fe5726539f0a8de49d84549c2385600185602001516120369190614ad1565b61204287600201612969565b60408051938452602084019290925290820152606081018b9052608081018990523360a082015260c00160405180910390a350505050505050565b73ffffffffffffffffffffffffffffffffffffffff8216600090815260208190526040902054808211156120e7576040517f60ec3e710000000000000000000000000000000000000000000000000000000081526004810183905260248101829052604401610840565b73ffffffffffffffffffffffffffffffffffffffff8381166000818152602081905260408082208686039055517f862026500000000000000000000000000000000000000000000000000000000081527f000000000000000000000000000000000000000000000000000000000000000060048201526024810192909252917f00000000000000000000000000000000000000000000000000000000000000001690638620265090604401602060405180830381865afa1580156121af573d6000803e3d6000fd5b505050506040513d601f19601f820116820180604052508101906121d39190614919565b905073ffffffffffffffffffffffffffffffffffffffff8116612260576040517fb61c181f0000000000000000000000000000000000000000000000000000000081527f0000000000000000000000000000000000000000000000000000000000000000600482015273ffffffffffffffffffffffffffffffffffffffff85166024820152604401610840565b73ffffffffffffffffffffffffffffffffffffffff841661eeee1461249c576040517f70a0823100000000000000000000000000000000000000000000000000000000815230600482015260009073ffffffffffffffffffffffffffffffffffffffff8616906370a0823190602401602060405180830381865afa1580156122ec573d6000803e3d6000fd5b505050506040513d601f19601f8201168201806040525081019061231091906149a2565b905061231d858386612891565b6040517f9e6eec050000000000000000000000000000000000000000000000000000000081527f0000000000000000000000000000000000000000000000000000000000000000600482015273ffffffffffffffffffffffffffffffffffffffff86811660248301526044820186905260006064830181905260c0608484015260c4830181905260e060a484015260e4830152831690639e6eec059061010401600060405180830381600087803b1580156123d757600080fd5b505af11580156123eb573d6000803e3d6000fd5b5050505083816123fb9190614ad1565b6040517f70a0823100000000000000000000000000000000000000000000000000000000815230600482015273ffffffffffffffffffffffffffffffffffffffff8716906370a0823190602401602060405180830381865afa158015612465573d6000803e3d6000fd5b505050506040513d601f19601f8201168201806040525081019061248991906149a2565b1461249657612496614be2565b5061073c565b6040517f9e6eec050000000000000000000000000000000000000000000000000000000081527f0000000000000000000000000000000000000000000000000000000000000000600482015273ffffffffffffffffffffffffffffffffffffffff85811660248301526044820185905260006064830181905260c0608484015260c4830181905260e060a484015260e4830152821690639e6eec059061010401600060405180830381600087803b15801561255657600080fd5b505af115801561256a573d6000803e3d6000fd5b5050505050505050565b60007f000000000000000000000000000000000000000000000000000000000000000073ffffffffffffffffffffffffffffffffffffffff168273ffffffffffffffffffffffffffffffffffffffff161480156126ac57507f000000000000000000000000000000000000000000000000000000000000000073ffffffffffffffffffffffffffffffffffffffff167f000000000000000000000000000000000000000000000000000000000000000073ffffffffffffffffffffffffffffffffffffffff16636e296e456040518163ffffffff1660e01b81526004016020604051808303816000875af1158015612670573d6000803e3d6000fd5b505050506040513d601f19601f820116820180604052508101906126949190614919565b73ffffffffffffffffffffffffffffffffffffffff16145b92915050565b73ffffffffffffffffffffffffffffffffffffffff85166000908152600160208181526040808420600887901c85529091529091205460ff84169190911b1615612747576040517fa4e6bcec00000000000000000000000000000000000000000000000000000000815273ffffffffffffffffffffffffffffffffffffffff8616600482015260248101839052604401610840565b73ffffffffffffffffffffffffffffffffffffffff8581166000908152600160208181526040808420600888901c85528252808420805460ff89169490941b90931790925581518082018b9052808301899052938716606080860191909152825180860390910181526080850180845281519183019190912061048090950190925291926127f09290919085908282610400808284376000920191909152508791506140049050565b73ffffffffffffffffffffffffffffffffffffffff871660009081526002602052604090206001015490915081146128885773ffffffffffffffffffffffffffffffffffffffff8616600090815260026020526040908190206001015490517ee587d2000000000000000000000000000000000000000000000000000000008152610840918391600401918252602082015260400190565b50505050505050565b6040805173ffffffffffffffffffffffffffffffffffffffff8416602482015260448082018490528251808303909101815260649091019091526020810180517bffffffffffffffffffffffffffffffffffffffffffffffffffffffff167f095ea7b30000000000000000000000000000000000000000000000000000000017905261291d8482614352565b61073c5760405173ffffffffffffffffffffffffffffffffffffffff84811660248301526000604483015261295f91869182169063095ea7b390606401611c17565b61073c8482613d1f565b60208101546000908082036129a057507f27ae5ba08d7291c96c8cbddcc148bf48a6d68c7974b94356f53754ef6171d75792915050565b60008360018316156129c2578054600052600060205260406000209350613275565b6002831615612a075760018101546000527fad3228b676f7d3cd4284a5443f17f1962b36e491b30a40b2405849e597ba5fb56020526040600020935060019150613275565b6004831615612a4c5760028101546000527fb4c11951957c6f8f642c4af61cd6b24640fec6dc7fc607ee8206a99e92410d306020526040600020935060029150613275565b6008831615612a915760038101546000527f21ddb9a356815c3fac1026b6dec5df3124afbadb485c9ba5a3e3398a04b7ba856020526040600020935060039150613275565b6010831615612ad65760048101546000527fe58769b32a1beaf1ea27375a44095a0d1fb664ce2dd358e7fcbfb78c26a193446020526040600020935060049150613275565b6020831615612b1b5760058101546000527f0eb01ebfc9ed27500cd4dfc979272d1f0913cc9f66540d7e8005811109e1cf2d6020526040600020935060059150613275565b6040831615612b605760068101546000527f887c22bd8750d34016ac3c66b5ff102dacdd73f6b014e710b51e8022af9a19686020526040600020935060069150613275565b6080831615612ba55760078101546000527fffd70157e48063fc33c97a050f7f640233bf646cc98d9524c6b92bcf3ab56f836020526040600020935060079150613275565b610100831615612beb5760088101546000527f9867cc5f7f196b93bae1e27e6320742445d290f2263827498b54fec539f756af6020526040600020935060089150613275565b610200831615612c315760098101546000527fcefad4e508c098b9a7e1d8feb19955fb02ba9675585078710969d3440f5054e06020526040600020935060099150613275565b610400831615612c7757600a8101546000527ff9dc3e7fe016e050eff260334f18a5d4fe391d82092319f5964f2e2eb7c1c3a560205260406000209350600a9150613275565b610800831615612cbd57600b8101546000527ff8b13a49e282f609c317a833fb8d976d11517c571d1221a265d25af778ecf89260205260406000209350600b9150613275565b611000831615612d0357600c8101546000527f3490c6ceeb450aecdc82e28293031d10c7d73bf85e57bf041a97360aa2c5d99c60205260406000209350600c9150613275565b612000831615612d4957600d8101546000527fc1df82d9c4b87413eae2ef048f94b4d3554cea73d92b0f7af96e0271c691e2bb60205260406000209350600d9150613275565b614000831615612d8f57600e8101546000527f5c67add7c6caf302256adedf7ab114da0acfe870d449a3a489f781d659e8becc60205260406000209350600e9150613275565b618000831615612dd557600f8101546000527fda7bce9f4e8618b6bd2f4132ce798cdc7a60e7e1460a7299e3c6342a579626d260205260406000209350600f9150613275565b62010000831615612e1c5760108101546000527f2733e50f526ec2fa19a22b31e8ed50f23cd1fdf94c9154ed3a7609a2f1ff981f6020526040600020935060109150613275565b62020000831615612e635760118101546000527fe1d3b5c807b281e4683cc6d6315cf95b9ade8641defcb32372f1c126e398ef7a6020526040600020935060119150613275565b62040000831615612eaa5760128101546000527f5a2dce0a8a7f68bb74560f8f71837c2c2ebbcbf7fffb42ae1896f13f7c7479a06020526040600020935060129150613275565b62080000831615612ef15760138101546000527fb46a28b6f55540f89444f63de0378e3d121be09e06cc9ded1c20e65876d36aa06020526040600020935060139150613275565b62100000831615612f385760148101546000527fc65e9645644786b620e2dd2ad648ddfcbf4a7e5b1a3a4ecfe7f64667a3f0b7e26020526040600020935060149150613275565b62200000831615612f7f5760158101546000527ff4418588ed35a2458cffeb39b93d26f18d2ab13bdce6aee58e7b99359ec2dfd96020526040600020935060159150613275565b62400000831615612fc65760168101546000527f5a9c16dc00d6ef18b7933a6f8dc65ccb55667138776f7dea101070dc8796e3776020526040600020935060169150613275565b6280000083161561300d5760178101546000527f4df84f40ae0c8229d0d6069e5c8f39a7c299677a09d367fc7b05e3bc380ee6526020526040600020935060179150613275565b63010000008316156130555760188101546000527fcdc72595f74c7b1043d0e1ffbab734648c838dfb0527d971b602bc216c9619ef6020526040600020935060189150613275565b630200000083161561309d5760198101546000527f0abf5ac974a1ed57f4050aa510dd9c74f508277b39d7973bb2dfccc5eeb0618d6020526040600020935060199150613275565b63040000008316156130e557601a8101546000527fb8cd74046ff337f0a7bf2c8e03e10f642c1886798d71806ab1e888d9e5ee87d060205260406000209350601a9150613275565b630800000083161561312d57601b8101546000527f838c5655cb21c6cb83313b5a631175dff4963772cce9108188b34ac87c81c41e60205260406000209350601b9150613275565b631000000083161561317557601c8101546000527f662ee4dd2dd7b2bc707961b1e646c4047669dcb6584f0d8d770daf5d7e7deb2e60205260406000209350601c9150613275565b63200000008316156131bd57601d8101546000527f388ab20e2573d171a88108e79d820e98f26c0b84aa8b2f4aa4968dbb818ea32260205260406000209350601d9150613275565b634000000083161561320557601e8101546000527f93237c50ba75ee485f4c22adf2f741400bdf8d6a9cc7df7ecae576221665d73560205260406000209350601e9150613275565b638000000083161561324d57601f8101546000527f8448818bb4ae4562849e949e17ac16e0be16688e156b5cf15e098c627c0056a960205260406000209350601f9150613275565b7f27ae5ba08d7291c96c8cbddcc148bf48a6d68c7974b94356f53754ef6171d7579350602091505b601e8211613d175760018210156132d3576002831680156132a1576001820154600052846020526132ca565b846000527fad3228b676f7d3cd4284a5443f17f1962b36e491b30a40b2405849e597ba5fb56020525b50604060002093505b6002821015613329576004831680156132f757600282015460005284602052613320565b846000527fb4c11951957c6f8f642c4af61cd6b24640fec6dc7fc607ee8206a99e92410d306020525b50604060002093505b600382101561337f5760088316801561334d57600382015460005284602052613376565b846000527f21ddb9a356815c3fac1026b6dec5df3124afbadb485c9ba5a3e3398a04b7ba856020525b50604060002093505b60048210156133d5576010831680156133a3576004820154600052846020526133cc565b846000527fe58769b32a1beaf1ea27375a44095a0d1fb664ce2dd358e7fcbfb78c26a193446020525b50604060002093505b600582101561342b576020831680156133f957600582015460005284602052613422565b846000527f0eb01ebfc9ed27500cd4dfc979272d1f0913cc9f66540d7e8005811109e1cf2d6020525b50604060002093505b60068210156134815760408316801561344f57600682015460005284602052613478565b846000527f887c22bd8750d34016ac3c66b5ff102dacdd73f6b014e710b51e8022af9a19686020525b50604060002093505b60078210156134d7576080831680156134a5576007820154600052846020526134ce565b846000527fffd70157e48063fc33c97a050f7f640233bf646cc98d9524c6b92bcf3ab56f836020525b50604060002093505b600882101561352e57610100831680156134fc57600882015460005284602052613525565b846000527f9867cc5f7f196b93bae1e27e6320742445d290f2263827498b54fec539f756af6020525b50604060002093505b600982101561358557610200831680156135535760098201546000528460205261357c565b846000527fcefad4e508c098b9a7e1d8feb19955fb02ba9675585078710969d3440f5054e06020525b50604060002093505b600a8210156135dc57610400831680156135aa57600a820154600052846020526135d3565b846000527ff9dc3e7fe016e050eff260334f18a5d4fe391d82092319f5964f2e2eb7c1c3a56020525b50604060002093505b600b821015613633576108008316801561360157600b8201546000528460205261362a565b846000527ff8b13a49e282f609c317a833fb8d976d11517c571d1221a265d25af778ecf8926020525b50604060002093505b600c82101561368a576110008316801561365857600c82015460005284602052613681565b846000527f3490c6ceeb450aecdc82e28293031d10c7d73bf85e57bf041a97360aa2c5d99c6020525b50604060002093505b600d8210156136e157612000831680156136af57600d820154600052846020526136d8565b846000527fc1df82d9c4b87413eae2ef048f94b4d3554cea73d92b0f7af96e0271c691e2bb6020525b50604060002093505b600e821015613738576140008316801561370657600e8201546000528460205261372f565b846000527f5c67add7c6caf302256adedf7ab114da0acfe870d449a3a489f781d659e8becc6020525b50604060002093505b600f82101561378f576180008316801561375d57600f82015460005284602052613786565b846000527fda7bce9f4e8618b6bd2f4132ce798cdc7a60e7e1460a7299e3c6342a579626d26020525b50604060002093505b60108210156137e75762010000831680156137b5576010820154600052846020526137de565b846000527f2733e50f526ec2fa19a22b31e8ed50f23cd1fdf94c9154ed3a7609a2f1ff981f6020525b50604060002093505b601182101561383f57620200008316801561380d57601182015460005284602052613836565b846000527fe1d3b5c807b281e4683cc6d6315cf95b9ade8641defcb32372f1c126e398ef7a6020525b50604060002093505b60128210156138975762040000831680156138655760128201546000528460205261388e565b846000527f5a2dce0a8a7f68bb74560f8f71837c2c2ebbcbf7fffb42ae1896f13f7c7479a06020525b50604060002093505b60138210156138ef5762080000831680156138bd576013820154600052846020526138e6565b846000527fb46a28b6f55540f89444f63de0378e3d121be09e06cc9ded1c20e65876d36aa06020525b50604060002093505b60148210156139475762100000831680156139155760148201546000528460205261393e565b846000527fc65e9645644786b620e2dd2ad648ddfcbf4a7e5b1a3a4ecfe7f64667a3f0b7e26020525b50604060002093505b601582101561399f57622000008316801561396d57601582015460005284602052613996565b846000527ff4418588ed35a2458cffeb39b93d26f18d2ab13bdce6aee58e7b99359ec2dfd96020525b50604060002093505b60168210156139f75762400000831680156139c5576016820154600052846020526139ee565b846000527f5a9c16dc00d6ef18b7933a6f8dc65ccb55667138776f7dea101070dc8796e3776020525b50604060002093505b6017821015613a4f576280000083168015613a1d57601782015460005284602052613a46565b846000527f4df84f40ae0c8229d0d6069e5c8f39a7c299677a09d367fc7b05e3bc380ee6526020525b50604060002093505b6018821015613aa857630100000083168015613a7657601882015460005284602052613a9f565b846000527fcdc72595f74c7b1043d0e1ffbab734648c838dfb0527d971b602bc216c9619ef6020525b50604060002093505b6019821015613b0157630200000083168015613acf57601982015460005284602052613af8565b846000527f0abf5ac974a1ed57f4050aa510dd9c74f508277b39d7973bb2dfccc5eeb0618d6020525b50604060002093505b601a821015613b5a57630400000083168015613b2857601a82015460005284602052613b51565b846000527fb8cd74046ff337f0a7bf2c8e03e10f642c1886798d71806ab1e888d9e5ee87d06020525b50604060002093505b601b821015613bb357630800000083168015613b8157601b82015460005284602052613baa565b846000527f838c5655cb21c6cb83313b5a631175dff4963772cce9108188b34ac87c81c41e6020525b50604060002093505b601c821015613c0c57631000000083168015613bda57601c82015460005284602052613c03565b846000527f662ee4dd2dd7b2bc707961b1e646c4047669dcb6584f0d8d770daf5d7e7deb2e6020525b50604060002093505b601d821015613c6557632000000083168015613c3357601d82015460005284602052613c5c565b846000527f388ab20e2573d171a88108e79d820e98f26c0b84aa8b2f4aa4968dbb818ea3226020525b50604060002093505b601e821015613cbe57634000000083168015613c8c57601e82015460005284602052613cb5565b846000527f93237c50ba75ee485f4c22adf2f741400bdf8d6a9cc7df7ecae576221665d7356020525b50604060002093505b601f821015613d1757638000000083168015613ce557601f82015460005284602052613d0e565b846000527f8448818bb4ae4562849e949e17ac16e0be16688e156b5cf15e098c627c0056a96020525b50604060002093505b505050919050565b6000613d4173ffffffffffffffffffffffffffffffffffffffff841683614414565b90508051600014158015613d66575080806020019051810190613d6491906149bb565b155b15613db5576040517f5274afe700000000000000000000000000000000000000000000000000000000815273ffffffffffffffffffffffffffffffffffffffff84166004820152602401610840565b505050565b60007fffffffffffffffffffffffffffffffffffffffffffffffffffffffffffff111273ffffffffffffffffffffffffffffffffffffffff841601613e17575073ffffffffffffffffffffffffffffffffffffffff8116316126ac565b6040517f70a0823100000000000000000000000000000000000000000000000000000000815273ffffffffffffffffffffffffffffffffffffffff83811660048301528416906370a0823190602401602060405180830381865afa158015613e83573d6000803e3d6000fd5b505050506040513d601f19601f82011682018060405250810190613ea791906149a2565b9392505050565b613eb66145d6565b6000836020018051613ec790614c11565b9081905290506001613edb60206002614d69565b613ee59190614ad1565b811115613f1e576040517f8eab04bb00000000000000000000000000000000000000000000000000000000815260040160405180910390fd5b60005b6020811015613fd15781600116600103613f5a57845184908260208110613f4a57613f4a6148c4565b6020020152508391506126ac9050565b84518160208110613f6d57613f6d6148c4565b602002015184604051602001613f8d929190918252602082015260400190565b604080517fffffffffffffffffffffffffffffffffffffffffffffffffffffffffffffffe081840301815291905280516020909101209350600191821c9101613f21565b506040517f8eab04bb00000000000000000000000000000000000000000000000000000000815260040160405180910390fd5b6020600582811b8216948552835194820394909452604060008181206002851615871b808503919091528386015190528181206004851615871b808503919091528286015190528181206008851615871b80850391909152606086015190528181206010851615871b8085039190915260808087015190915282822084861615881b8086039190915260a0870151905282822083861615881b8086039190915260c0870151905282822090851615871b8085039190915260e0860151905281812061010080861615881b80860392909252860151905281812061020080861615881b80860392909252610120870151909152828220610400861615881b808603919091526101408701519052828220610800861615881b808603919091526101608701519052828220611000861615881b808603919091526101808701519052828220612000861615881b808603919091526101a08701519052828220614000861615881b808603919091526101c08701519052828220618000861615881b808603919091526101e0870151905282822062010000861615881b8086039190915290860151905281812062020000851615871b80850391909152610220860151905281812062040000851615871b80850391909152610240860151905281812062080000851615871b80850391909152610260860151905281812062100000851615871b80850391909152610280860151905281812062200000851615871b808503919091526102a0860151905281812062400000851615871b808503919091526102c0860151905281812062800000851615871b808503919091526102e086015190528181206301000000851615871b8085039190915261030086015190528181206302000000851615871b8085039190915261032086015190528181206304000000851615871b8085039190915261034086015190528181206308000000851615871b8085039190915261036086015190528181206310000000851615871b8085039190915261038086015190528181206320000000851615871b808503919091526103a086015190528181206340000000851615871b808503919091526103c0860151905281812063800000009094161590951b91829003929092526103e090920151909152902090565b60008060008473ffffffffffffffffffffffffffffffffffffffff168460405161437c9190614d75565b6000604051808303816000865af19150503d80600081146143b9576040519150601f19603f3d011682016040523d82523d6000602084013e6143be565b606091505b50915091508180156143e85750805115806143e85750808060200190518101906143e891906149bb565b801561440b575060008573ffffffffffffffffffffffffffffffffffffffff163b115b95945050505050565b6060613ea783836000846000808573ffffffffffffffffffffffffffffffffffffffff1684866040516144479190614d75565b60006040518083038185875af1925050503d8060008114614484576040519150601f19603f3d011682016040523d82523d6000602084013e614489565b606091505b50915091506144998683836144a3565b9695505050505050565b6060826144b8576144b382614532565b613ea7565b81511580156144dc575073ffffffffffffffffffffffffffffffffffffffff84163b155b1561452b576040517f9996b31500000000000000000000000000000000000000000000000000000000815273ffffffffffffffffffffffffffffffffffffffff85166004820152602401610840565b5080613ea7565b8051156145425780518082602001fd5b6040517f1425ea4200000000000000000000000000000000000000000000000000000000815260040160405180910390fd5b60408051606081018252600080825260208201529081016145936145d6565b905290565b82602081019282156145c6579160200282015b828111156145c65782518255916020019190600101906145ab565b506145d29291506145f6565b5090565b60405180604001604052806145e961460b565b8152602001600081525090565b5b808211156145d257600081556001016145f7565b6040518061040001604052806020906020820280368337509192915050565b6000806020838503121561463d57600080fd5b823567ffffffffffffffff8082111561465557600080fd5b818501915085601f83011261466957600080fd5b81358181111561467857600080fd5b8660208260071b850101111561468d57600080fd5b60209290920196919550909350505050565b6000608082840312156146b157600080fd5b50919050565b6000608082840312156146c957600080fd5b613ea7838361469f565b73ffffffffffffffffffffffffffffffffffffffff81168114610ead57600080fd5b6000806000806080858703121561470b57600080fd5b84359350602085013561471d816146d3565b9250604085013591506060850135614734816146d3565b939692955090935050565b60006020828403121561475157600080fd5b8135613ea7816146d3565b815167ffffffffffffffff16815260208083015190820152604081016126ac565b815167ffffffffffffffff1681526020808301518183015260408084015180516104608501939260009086015b848210156147c85782518152918401916001919091019084016147aa565b50505081810151610440850152505092915050565b60006104a082840312156146b157600080fd5b6000806020838503121561480357600080fd5b823567ffffffffffffffff8082111561481b57600080fd5b818501915085601f83011261482f57600080fd5b81358181111561483e57600080fd5b8660206104a08302850101111561468d57600080fd5b7f4e487b7100000000000000000000000000000000000000000000000000000000600052602160045260246000fd5b60208101600283106148be577f4e487b7100000000000000000000000000000000000000000000000000000000600052602160045260246000fd5b91905290565b7f4e487b7100000000000000000000000000000000000000000000000000000000600052603260045260246000fd5b60006020828403121561490557600080fd5b813563ffffffff81168114613ea757600080fd5b60006020828403121561492b57600080fd5b8151613ea7816146d3565b7f4e487b7100000000000000000000000000000000000000000000000000000000600052601160045260246000fd5b808201808211156126ac576126ac614936565b60006020828403121561498a57600080fd5b813567ffffffffffffffff81168114613ea757600080fd5b6000602082840312156149b457600080fd5b5051919050565b6000602082840312156149cd57600080fd5b81518015158114613ea757600080fd5b600067ffffffffffffffff8083168181036149fa576149fa614936565b6001019392505050565b60005b83811015614a1f578181015183820152602001614a07565b50506000910152565b60008151808452614a40816020860160208601614a04565b601f017fffffffffffffffffffffffffffffffffffffffffffffffffffffffffffffffe0169290920160200192915050565b600073ffffffffffffffffffffffffffffffffffffffff8089168352808816602084015280871660408401525084606083015263ffffffff8416608083015260c060a0830152614ac560c0830184614a28565b98975050505050505050565b818103818111156126ac576126ac614936565b600060808201905073ffffffffffffffffffffffffffffffffffffffff8351168252602083015160208301526040830151614b366040840182805167ffffffffffffffff168252602090810151910152565b5092915050565b73ffffffffffffffffffffffffffffffffffffffff84168152606060208201526000614b6c6060830185614a28565b905063ffffffff83166040830152949350505050565b600073ffffffffffffffffffffffffffffffffffffffff808a168352886020840152808816604084015286606084015285608084015280851660a08401525060e060c0830152614bd560e0830184614a28565b9998505050505050505050565b7f4e487b7100000000000000000000000000000000000000000000000000000000600052600160045260246000fd5b60007fffffffffffffffffffffffffffffffffffffffffffffffffffffffffffffffff8203614c4257614c42614936565b5060010190565b600181815b80851115614ca257817fffffffffffffffffffffffffffffffffffffffffffffffffffffffffffffffff04821115614c8857614c88614936565b80851615614c9557918102915b93841c9390800290614c4e565b509250929050565b600082614cb9575060016126ac565b81614cc6575060006126ac565b8160018114614cdc5760028114614ce657614d02565b60019150506126ac565b60ff841115614cf757614cf7614936565b50506001821b6126ac565b5060208310610133831016604e8410600b8410161715614d25575081810a6126ac565b614d2f8383614c49565b807fffffffffffffffffffffffffffffffffffffffffffffffffffffffffffffffff04821115614d6157614d61614936565b029392505050565b6000613ea78383614caa565b60008251614d87818460208701614a04565b919091019291505056fea264697066735822122034f11f35c4be0e34252bf9eaf338c0ccd83a6ad25d078761c9ac8ff506c6122964736f6c63430008170033a2646970667358221220b75e3594f0331e768fab4d8d6ba2ffde0b1b2ab8f6b0a4325d4e05ddb2dcf4c164736f6c63430008170033",
	"deployedBytecode": "0x608060405234801561001057600080fd5b50600436106100be5760003560e01c8063516bf2f311610076578063c39ec1241161005b578063c39ec124146101cc578063cc8b6f4f146101ff578063f434c9141461021457600080fd5b8063516bf2f31461018557806388bc2ef3146101a557600080fd5b80631e5d73df116100a75780631e5d73df1461012757806328db992a1461014e5780633691b4611461016e57600080fd5b806312130366146100c35780631d831d5c14610100575b600080fd5b6100d66100d136600461048a565b61023b565b60405173ffffffffffffffffffffffffffffffffffffffff90911681526020015b60405180910390f35b6100d67f000000000000000000000000ff5dd171bda8bc78915b9a58d907df7c10ce4e5c81565b6100d67f0000000000000000000000000ff306a08cf4e16570ab7a6bd95ba52d2fe64d4581565b6001546100d69073ffffffffffffffffffffffffffffffffffffffff1681565b61017760035481565b6040519081526020016100f7565b6000546100d69073ffffffffffffffffffffffffffffffffffffffff1681565b6100d67f000000000000000000000000e0b2860344ba476e12ed1d559656da9d04f1ad2281565b6101ef6101da3660046104d1565b60026020526000908152604090205460ff1681565b60405190151581526020016100f7565b61021261020d3660046104f5565b61038c565b005b6100d67f0000000000000000000000004cdb4200e4e65a277676cd5e8d3c7c7c4da7fbe581565b6040517fffffffffffffffffffffffffffffffffffffffff0000000000000000000000003360601b1660208201526034810182905260009060540160405160208183030381529060405280519060200120915082600381905550817f000000000000000000000000e0b2860344ba476e12ed1d559656da9d04f1ad227f0000000000000000000000004cdb4200e4e65a277676cd5e8d3c7c7c4da7fbe57f000000000000000000000000ff5dd171bda8bc78915b9a58d907df7c10ce4e5c6000806040516103089061047d565b61031695949392919061052e565b8190604051809103906000f5905080158015610336573d6000803e3d6000fd5b5073ffffffffffffffffffffffffffffffffffffffff8116600090815260026020526040902080547fffffffffffffffffffffffffffffffffffffffffffffffffffffffffffffff001660011790559392505050565b60005473ffffffffffffffffffffffffffffffffffffffff161515806103c9575060015473ffffffffffffffffffffffffffffffffffffffff1615155b1561042a576000546001546040517f27d2085500000000000000000000000000000000000000000000000000000000815273ffffffffffffffffffffffffffffffffffffffff92831660048201529116602482015260440160405180910390fd5b6000805473ffffffffffffffffffffffffffffffffffffffff9384167fffffffffffffffffffffffff00000000000000000000000000000000000000009182161790915560018054929093169116179055565b6151fb806105ab83390190565b6000806040838503121561049d57600080fd5b50508035926020909101359150565b73ffffffffffffffffffffffffffffffffffffffff811681146104ce57600080fd5b50565b6000602082840312156104e357600080fd5b81356104ee816104ac565b9392505050565b6000806040838503121561050857600080fd5b8235610513816104ac565b91506020830135610523816104ac565b809150509250929050565b73ffffffffffffffffffffffffffffffffffffffff8681168252858116602083015284811660408301528316606082015260a081016002831061059a577f4e487b7100000000000000000000000000000000000000000000000000000000600052602160045260246000fd5b826080830152969550505050505056fe6101a06040523480156200001257600080fd5b50604051620051fb380380620051fb833981016040819052620000359162000217565b8484848484336001600160a01b0316633691b4616040518163ffffffff1660e01b8152600401602060405180830381865afa15801562000079573d6000803e3d6000fd5b505050506040513d601f19601f820116820180604052508101906200009f91906200029a565b6001600160a01b0380861660805286811660e05284811661014052831615620000c95782620000cb565b305b6001600160a01b0316610100523360c052816001811115620000f157620000f1620002b4565b60a0816001811115620001085762000108620002b4565b9052506101205250506040805163146dcc9560e11b815290513394506328db992a9350600480830193506020928290030181865afa1580156200014f573d6000803e3d6000fd5b505050506040513d601f19601f82011682018060405250810190620001759190620002ca565b6001600160a01b0316610160526040805163516bf2f360e01b81529051339163516bf2f39160048083019260209291908290030181865afa158015620001bf573d6000803e3d6000fd5b505050506040513d601f19601f82011682018060405250810190620001e59190620002ca565b6001600160a01b03166101805250620002f19350505050565b6001600160a01b03811681146200021457600080fd5b50565b600080600080600060a086880312156200023057600080fd5b85516200023d81620001fe565b60208701519095506200025081620001fe565b60408701519094506200026381620001fe565b60608701519093506200027681620001fe565b6080870151909250600281106200028c57600080fd5b809150509295509295909350565b600060208284031215620002ad57600080fd5b5051919050565b634e487b7160e01b600052602160045260246000fd5b600060208284031215620002dd57600080fd5b8151620002ea81620001fe565b9392505050565b60805160a05160c05160e0516101005161012051610140516101605161018051614dc762000434600039600081816106e6015281816119c30152818161257801526126050152600081816102380152818161188c01526119010152600081816101b80152610c5c0152600081816102d80152818161098101528181610a0b01528181610c33015281816112c80152818161138b01528181611c8601528181611d7e01528181611e2e01528181612139015281816122180152818161234501526124c40152600081816105410152818161193201528181611a0001526125ce0152600081816104c9015281816108cc015281816112ee01528181611cce01526121680152600061062801526000818161065c01528181610df301528181610e2a015281816111be01526112510152600081816106b201526116630152614dc76000f3fe60806040526004361061019a5760003560e01c806388bc2ef3116100e1578063bf557aee1161008a578063c6525f2c11610064578063c6525f2c1461064a578063cdfceeba1461068b578063f434c914146106a0578063fc8fa43d146106d457600080fd5b8063bf557aee14610596578063c1854129146105f6578063c1b8411a1461061657600080fd5b8063ad42938b116100bb578063ad42938b1461052f578063b59ef50f14610563578063b71c11791461058357600080fd5b806388bc2ef3146104b757806392ee1ea7146104eb5780639e6d7d431461050257600080fd5b806356539f39116101435780636d9e384b1161011d5780636d9e384b1461033b5780637de6fba2146103c1578063802c8fa01461048a57600080fd5b806356539f39146102c657806369ce22331461030857806369d31fdd1461032857600080fd5b806338eb20441161017457806338eb20441461025a5780633a5de07d1461027a578063551ebbf0146102a657600080fd5b80631d831d5c146101a65780632241dc52146102045780632847f1f31461022657600080fd5b366101a157005b600080fd5b3480156101b257600080fd5b506101da7f000000000000000000000000000000000000000000000000000000000000000081565b60405173ffffffffffffffffffffffffffffffffffffffff90911681526020015b60405180910390f35b34801561021057600080fd5b5061022461021f36600461462a565b610708565b005b34801561023257600080fd5b506101da7f000000000000000000000000000000000000000000000000000000000000000081565b34801561026657600080fd5b506102246102753660046146b7565b610742565b34801561028657600080fd5b5061029162030d4081565b60405163ffffffff90911681526020016101fb565b3480156102b257600080fd5b506102246102c13660046146f5565b610bbe565b3480156102d257600080fd5b506102fa7f000000000000000000000000000000000000000000000000000000000000000081565b6040519081526020016101fb565b34801561031457600080fd5b5061022461032336600461473f565b610def565b6102246103363660046146b7565b610eb0565b34801561034757600080fd5b506103b461035636600461473f565b60408051808201909152600080825260208201525073ffffffffffffffffffffffffffffffffffffffff166000908152600260209081526040918290208251808401909352805467ffffffffffffffff168352600101549082015290565b6040516101fb919061475c565b3480156103cd57600080fd5b5061044c6103dc36600461473f565b60408051606080820183526000808352602080840182905292840181905273ffffffffffffffffffffffffffffffffffffffff94851681526004835283902083519182018452805463ffffffff811683526401000000009004909416918101919091526001909201549082015290565b60408051825163ffffffff16815260208084015173ffffffffffffffffffffffffffffffffffffffff169082015291810151908201526060016101fb565b34801561049657600080fd5b506104aa6104a536600461473f565b611093565b6040516101fb919061477d565b3480156104c357600080fd5b506101da7f000000000000000000000000000000000000000000000000000000000000000081565b3480156104f757600080fd5b50610291620493e081565b34801561050e57600080fd5b506102fa61051d36600461473f565b60006020819052908152604090205481565b34801561053b57600080fd5b506101da7f000000000000000000000000000000000000000000000000000000000000000081565b34801561056f57600080fd5b5061022461057e3660046147dd565b611135565b61022461059136600461473f565b611470565b3480156105a257600080fd5b506105e66105b136600461473f565b73ffffffffffffffffffffffffffffffffffffffff908116600090815260046020526040902054640100000000900416151590565b60405190151581526020016101fb565b34801561060257600080fd5b506102246106113660046147f0565b61154f565b34801561062257600080fd5b506101da7f000000000000000000000000000000000000000000000000000000000000000081565b34801561065657600080fd5b5061067e7f000000000000000000000000000000000000000000000000000000000000000081565b6040516101fb9190614883565b34801561069757600080fd5b506102fa611584565b3480156106ac57600080fd5b506101da7f000000000000000000000000000000000000000000000000000000000000000081565b3480156106e057600080fd5b506101da7f000000000000000000000000000000000000000000000000000000000000000081565b8060005b8181101561073c57610734848483818110610729576107296148c4565b905060800201610742565b60010161070c565b50505050565b6000610751602083018361473f565b9050600061eeee610765602085018561473f565b73ffffffffffffffffffffffffffffffffffffffff161490508080156107b2575061eeee610799606085016040860161473f565b73ffffffffffffffffffffffffffffffffffffffff1614155b80156107e4575060006107cb606085016040860161473f565b73ffffffffffffffffffffffffffffffffffffffff1614155b15610849576107f9606084016040850161473f565b6040517ff41f6def00000000000000000000000000000000000000000000000000000000815273ffffffffffffffffffffffffffffffffffffffff90911660048201526024015b60405180910390fd5b62030d4061085d60408501602086016148f3565b63ffffffff1610801561086e575080155b156108c75761088360408401602085016148f3565b6040517f555d0f1000000000000000000000000000000000000000000000000000000000815263ffffffff909116600482015262030d406024820152604401610840565b610a317f000000000000000000000000000000000000000000000000000000000000000073ffffffffffffffffffffffffffffffffffffffff1663293c49996040518163ffffffff1660e01b8152600401602060405180830381865afa158015610935573d6000803e3d6000fd5b505050506040513d601f19601f820116820180604052508101906109599190614919565b6040517f6352211e0000000000000000000000000000000000000000000000000000000081527f0000000000000000000000000000000000000000000000000000000000000000600482015273ffffffffffffffffffffffffffffffffffffffff9190911690636352211e90602401602060405180830381865afa1580156109e5573d6000803e3d6000fd5b505050506040513d601f19601f82011682018060405250810190610a099190614919565b7f0000000000000000000000000000000000000000000000000000000000000000601c6115d8565b6000610a43606085016040860161473f565b73ffffffffffffffffffffffffffffffffffffffff16148015610a8d575073ffffffffffffffffffffffffffffffffffffffff821660009081526003602052604090206001015415155b15610af55773ffffffffffffffffffffffffffffffffffffffff80831660009081526004602090815260408083208151606081018352815463ffffffff8116825264010000000090049095169285019290925260019091015490830152610af5918490611735565b6040518060600160405280846020016020810190610b1391906148f3565b63ffffffff168152602001610b2e606086016040870161473f565b73ffffffffffffffffffffffffffffffffffffffff90811682526060909501356020918201529284166000908152600484526040908190208251815495840151909616640100000000027fffffffffffffffff00000000000000000000000000000000000000000000000090951663ffffffff909616959095179390931784559091015160019092019190915550565b73ffffffffffffffffffffffffffffffffffffffff8316610c0b576040517f8d3329cd00000000000000000000000000000000000000000000000000000000815260040160405180910390fd5b6040517fea78803f0000000000000000000000000000000000000000000000000000000081527f000000000000000000000000000000000000000000000000000000000000000060048201526000907f000000000000000000000000000000000000000000000000000000000000000073ffffffffffffffffffffffffffffffffffffffff169063ea78803f90602401602060405180830381865afa158015610cb8573d6000803e3d6000fd5b505050506040513d601f19601f82011682018060405250810190610cdc9190614919565b905073ffffffffffffffffffffffffffffffffffffffff8116610d2b576040517fcaa06d2000000000000000000000000000000000000000000000000000000000815260040160405180910390fd5b73ffffffffffffffffffffffffffffffffffffffff828116600090815260046020526040902054640100000000900416610da9576040517f04fdbe0600000000000000000000000000000000000000000000000000000000815273ffffffffffffffffffffffffffffffffffffffff83166004820152602401610840565b610dcb73ffffffffffffffffffffffffffffffffffffffff8216333088611bd5565b6000610dd982878587611c5e565b9050610de786848388611ed0565b505050505050565b60007f00000000000000000000000000000000000000000000000000000000000000006001811115610e2357610e23614854565b14610e7c577f00000000000000000000000000000000000000000000000000000000000000006040517fb039c3950000000000000000000000000000000000000000000000000000000081526004016108409190614883565b73ffffffffffffffffffffffffffffffffffffffff8116600090815260208190526040902054610ead90829061207d565b50565b610eb933612574565b610ef1576040517f36183c8f000000000000000000000000000000000000000000000000000000008152336004820152602401610840565b602081018035906000908190610f07908561473f565b73ffffffffffffffffffffffffffffffffffffffff1673ffffffffffffffffffffffffffffffffffffffff1681526020019081526020016000206000828254610f509190614965565b9091555060009050600281610f68602085018561473f565b73ffffffffffffffffffffffffffffffffffffffff16815260208101919091526040908101600020805490925067ffffffffffffffff1690610fb09060608501908501614978565b67ffffffffffffffff16111561108f57610fd06060830160408401614978565b81547fffffffffffffffffffffffffffffffffffffffffffffffff00000000000000001667ffffffffffffffff919091161781556060820135600182015561101b602083018361473f565b73ffffffffffffffffffffffffffffffffffffffff167fc69d3412489554fb7820c4c2784cb644b6c79bfc117444b93977d3d33a9b8eac6110626060850160408601614978565b6040805167ffffffffffffffff929092168252606086810135602084015233838301529051918290030190a25b5050565b61109b614574565b73ffffffffffffffffffffffffffffffffffffffff82166000908152600360209081526040918290208251606081018452815467ffffffffffffffff1681526001820154818401528351610440810180865291949293858401939192600286019284929083019184919082845b81548152602001906001019080831161110857505050918352505060209182015491015290525092915050565b61116d606082013561114a602084018461473f565b608084013561115f606086016040870161473f565b602086013560a087016126b2565b7faaca6f6829d340365b5e6599e0d513cbb4602b94f58ccf16ac77d8d3ae7139ef61119e606083016040840161473f565b6111ab602084018461473f565b60608401356080850135602086013560017f000000000000000000000000000000000000000000000000000000000000000060018111156111ee576111ee614854565b146111fa5760006111fd565b60015b6040805173ffffffffffffffffffffffffffffffffffffffff97881681529690951660208701529385019290925260608401526080830152151560a08201523360c082015260e00160405180910390a160017f0000000000000000000000000000000000000000000000000000000000000000600181111561128157611281614854565b036112a0576112a0611296602083018361473f565b608083013561207d565b6040517f5dd8f6aa0000000000000000000000000000000000000000000000000000000081527f000000000000000000000000000000000000000000000000000000000000000060048201527f000000000000000000000000000000000000000000000000000000000000000073ffffffffffffffffffffffffffffffffffffffff1690635dd8f6aa90602401602060405180830381865afa15801561134a573d6000803e3d6000fd5b505050506040513d601f19601f8201168201806040525081019061136e9190614919565b73ffffffffffffffffffffffffffffffffffffffff1663c7fb92de7f0000000000000000000000000000000000000000000000000000000000000000606084018035906113be906040870161473f565b6040517fffffffff0000000000000000000000000000000000000000000000000000000060e086901b1681526004810193909352602483019190915273ffffffffffffffffffffffffffffffffffffffff16604482015260a06064820152600060a48201819052608482015260c4016020604051808303816000875af115801561144c573d6000803e3d6000fd5b505050506040513d601f19601f8201168201806040525081019061108f91906149a2565b73ffffffffffffffffffffffffffffffffffffffff80821660008181526004602090815260408083208151606081018352815463ffffffff811682526401000000009004909616868401526001908101548683018190529484526003909252909120015410156115445773ffffffffffffffffffffffffffffffffffffffff821660009081526003602052604090819020600101548282015191517fc3e11b790000000000000000000000000000000000000000000000000000000081526108409290600401918252602082015260400190565b61108f348383611735565b8060005b8181101561073c5761157c848483818110611570576115706148c4565b90506104a00201611135565b600101611553565b600046600181900361159857600a91505090565b80600a036115a857600191505090565b8062aa36a7036115bc5762aa37dc91505090565b8062aa37dc036115d05762aa36a791505090565b600091505090565b3373ffffffffffffffffffffffffffffffffffffffff841681148015906116d057506040517f348b684e00000000000000000000000000000000000000000000000000000000815273ffffffffffffffffffffffffffffffffffffffff82811660048301528581166024830152604482018590526064820184905260016084830181905260a48301527f0000000000000000000000000000000000000000000000000000000000000000169063348b684e9060c401602060405180830381865afa1580156116aa573d6000803e3d6000fd5b505050506040513d601f19601f820116820180604052508101906116ce91906149bb565b155b1561073c576040517f264deeaa00000000000000000000000000000000000000000000000000000000815273ffffffffffffffffffffffffffffffffffffffff8086166004830152821660248201526044810184905260648101839052608401610840565b60008315611772576040517fca778ecd00000000000000000000000000000000000000000000000000000000815260048101859052602401610840565b73ffffffffffffffffffffffffffffffffffffffff8316600090815260036020526040812060018101805490839055815491929091839082906117be9067ffffffffffffffff166149dd565b91906101000a81548167ffffffffffffffff021916908367ffffffffffffffff16021790559050600073ffffffffffffffffffffffffffffffffffffffff16856020015173ffffffffffffffffffffffffffffffffffffffff1603611867576040517f04fdbe0600000000000000000000000000000000000000000000000000000000815273ffffffffffffffffffffffffffffffffffffffff87166004820152602401610840565b73ffffffffffffffffffffffffffffffffffffffff861661eeee14611995576118b1867f000000000000000000000000000000000000000000000000000000000000000084612891565b602080860151865160408051938401815260008452517f540abf7300000000000000000000000000000000000000000000000000000000815273ffffffffffffffffffffffffffffffffffffffff7f0000000000000000000000000000000000000000000000000000000000000000169363540abf739361195e938c9391927f0000000000000000000000000000000000000000000000000000000000000000928a929190600401614a72565b600060405180830381600087803b15801561197857600080fd5b505af115801561198c573d6000803e3d6000fd5b50505050611999565b8193505b60006119a784600201612969565b90506000600185600201602001546119bf9190614ad1565b90507f000000000000000000000000000000000000000000000000000000000000000073ffffffffffffffffffffffffffffffffffffffff16633dbb202b877f000000000000000000000000000000000000000000000000000000000000000060405180606001604052808c6020015173ffffffffffffffffffffffffffffffffffffffff16815260200189815260200160405180604001604052808a67ffffffffffffffff16815260200189815250815250604051602401611a829190614ae4565b604080517fffffffffffffffffffffffffffffffffffffffffffffffffffffffffffffffe08184030181529181526020820180517bffffffffffffffffffffffffffffffffffffffffffffffffffffffff167f69d31fdd00000000000000000000000000000000000000000000000000000000179052517fffffffff0000000000000000000000000000000000000000000000000000000060e086901b168152611b35929190620493e090600401614b3d565b6000604051808303818588803b158015611b4e57600080fd5b505af1158015611b62573d6000803e3d6000fd5b50506040805185815267ffffffffffffffff881660208201523381830152905173ffffffffffffffffffffffffffffffffffffffff8d1694508693507f47c5615513b0f669da2dd7e3362a34610ca2695d0a0e2da2160cee952eab203c92509081900360600190a3505050505050505050565b60405173ffffffffffffffffffffffffffffffffffffffff848116602483015283811660448301526064820183905261073c9186918216906323b872dd906084015b604051602081830303815290604052915060e01b6020820180517bffffffffffffffffffffffffffffffffffffffffffffffffffffffff8381831617835250505050613d1f565b6040517f862026500000000000000000000000000000000000000000000000000000000081527f0000000000000000000000000000000000000000000000000000000000000000600482015273ffffffffffffffffffffffffffffffffffffffff838116602483015260009182917f00000000000000000000000000000000000000000000000000000000000000001690638620265090604401602060405180830381865afa158015611d15573d6000803e3d6000fd5b505050506040513d601f19601f82011682018060405250810190611d399190614919565b905073ffffffffffffffffffffffffffffffffffffffff8116611dc6576040517fb61c181f0000000000000000000000000000000000000000000000000000000081527f0000000000000000000000000000000000000000000000000000000000000000600482015273ffffffffffffffffffffffffffffffffffffffff85166024820152604401610840565b6000611dd28530613dba565b604080516020810182526000815290517fbb7214fe00000000000000000000000000000000000000000000000000000000815291925073ffffffffffffffffffffffffffffffffffffffff84169163bb7214fe91611e5e9130917f0000000000000000000000000000000000000000000000000000000000000000918b918d918c918691600401614b82565b6020604051808303816000875af1158015611e7d573d6000803e3d6000fd5b505050506040513d601f19601f82011682018060405250810190611ea191906149a2565b925080611eae8630613dba565b611eb89190614ad1565b8314611ec657611ec6614be2565b5050949350505050565b60408051602080820187905281830185905273ffffffffffffffffffffffffffffffffffffffff8416606080840191909152835180840390910181526080909201909252805191012060009073ffffffffffffffffffffffffffffffffffffffff85166000908152600360209081526040808320815161044081018084529596509094611f939387936002880192849291830191849182845b815481526020019060010190808311611f6957505050918352505060209182015491015290613eae565b805190915081906002840190611fac9082906020614598565b506020820151816020015590505084826001016000828254611fce9190614965565b925050819055508573ffffffffffffffffffffffffffffffffffffffff168473ffffffffffffffffffffffffffffffffffffffff167f584a41ff082fad99bb6e50c5767c347c762057fe5726539f0a8de49d84549c2385600185602001516120369190614ad1565b61204287600201612969565b60408051938452602084019290925290820152606081018b9052608081018990523360a082015260c00160405180910390a350505050505050565b73ffffffffffffffffffffffffffffffffffffffff8216600090815260208190526040902054808211156120e7576040517f60ec3e710000000000000000000000000000000000000000000000000000000081526004810183905260248101829052604401610840565b73ffffffffffffffffffffffffffffffffffffffff8381166000818152602081905260408082208686039055517f862026500000000000000000000000000000000000000000000000000000000081527f000000000000000000000000000000000000000000000000000000000000000060048201526024810192909252917f00000000000000000000000000000000000000000000000000000000000000001690638620265090604401602060405180830381865afa1580156121af573d6000803e3d6000fd5b505050506040513d601f19601f820116820180604052508101906121d39190614919565b905073ffffffffffffffffffffffffffffffffffffffff8116612260576040517fb61c181f0000000000000000000000000000000000000000000000000000000081527f0000000000000000000000000000000000000000000000000000000000000000600482015273ffffffffffffffffffffffffffffffffffffffff85166024820152604401610840565b73ffffffffffffffffffffffffffffffffffffffff841661eeee1461249c576040517f70a0823100000000000000000000000000000000000000000000000000000000815230600482015260009073ffffffffffffffffffffffffffffffffffffffff8616906370a0823190602401602060405180830381865afa1580156122ec573d6000803e3d6000fd5b505050506040513d601f19601f8201168201806040525081019061231091906149a2565b905061231d858386612891565b6040517f9e6eec050000000000000000000000000000000000000000000000000000000081527f0000000000000000000000000000000000000000000000000000000000000000600482015273ffffffffffffffffffffffffffffffffffffffff86811660248301526044820186905260006064830181905260c0608484015260c4830181905260e060a484015260e4830152831690639e6eec059061010401600060405180830381600087803b1580156123d757600080fd5b505af11580156123eb573d6000803e3d6000fd5b5050505083816123fb9190614ad1565b6040517f70a0823100000000000000000000000000000000000000000000000000000000815230600482015273ffffffffffffffffffffffffffffffffffffffff8716906370a0823190602401602060405180830381865afa158015612465573d6000803e3d6000fd5b505050506040513d601f19601f8201168201806040525081019061248991906149a2565b1461249657612496614be2565b5061073c565b6040517f9e6eec050000000000000000000000000000000000000000000000000000000081527f0000000000000000000000000000000000000000000000000000000000000000600482015273ffffffffffffffffffffffffffffffffffffffff85811660248301526044820185905260006064830181905260c0608484015260c4830181905260e060a484015260e4830152821690639e6eec059061010401600060405180830381600087803b15801561255657600080fd5b505af115801561256a573d6000803e3d6000fd5b5050505050505050565b60007f000000000000000000000000000000000000000000000000000000000000000073ffffffffffffffffffffffffffffffffffffffff168273ffffffffffffffffffffffffffffffffffffffff161480156126ac57507f000000000000000000000000000000000000000000000000000000000000000073ffffffffffffffffffffffffffffffffffffffff167f000000000000000000000000000000000000000000000000000000000000000073ffffffffffffffffffffffffffffffffffffffff16636e296e456040518163ffffffff1660e01b81526004016020604051808303816000875af1158015612670573d6000803e3d6000fd5b505050506040513d601f19601f820116820180604052508101906126949190614919565b73ffffffffffffffffffffffffffffffffffffffff16145b92915050565b73ffffffffffffffffffffffffffffffffffffffff85166000908152600160208181526040808420600887901c85529091529091205460ff84169190911b1615612747576040517fa4e6bcec00000000000000000000000000000000000000000000000000000000815273ffffffffffffffffffffffffffffffffffffffff8616600482015260248101839052604401610840565b73ffffffffffffffffffffffffffffffffffffffff8581166000908152600160208181526040808420600888901c85528252808420805460ff89169490941b90931790925581518082018b9052808301899052938716606080860191909152825180860390910181526080850180845281519183019190912061048090950190925291926127f09290919085908282610400808284376000920191909152508791506140049050565b73ffffffffffffffffffffffffffffffffffffffff871660009081526002602052604090206001015490915081146128885773ffffffffffffffffffffffffffffffffffffffff8616600090815260026020526040908190206001015490517ee587d2000000000000000000000000000000000000000000000000000000008152610840918391600401918252602082015260400190565b50505050505050565b6040805173ffffffffffffffffffffffffffffffffffffffff8416602482015260448082018490528251808303909101815260649091019091526020810180517bffffffffffffffffffffffffffffffffffffffffffffffffffffffff167f095ea7b30000000000000000000000000000000000000000000000000000000017905261291d8482614352565b61073c5760405173ffffffffffffffffffffffffffffffffffffffff84811660248301526000604483015261295f91869182169063095ea7b390606401611c17565b61073c8482613d1f565b60208101546000908082036129a057507f27ae5ba08d7291c96c8cbddcc148bf48a6d68c7974b94356f53754ef6171d75792915050565b60008360018316156129c2578054600052600060205260406000209350613275565b6002831615612a075760018101546000527fad3228b676f7d3cd4284a5443f17f1962b36e491b30a40b2405849e597ba5fb56020526040600020935060019150613275565b6004831615612a4c5760028101546000527fb4c11951957c6f8f642c4af61cd6b24640fec6dc7fc607ee8206a99e92410d306020526040600020935060029150613275565b6008831615612a915760038101546000527f21ddb9a356815c3fac1026b6dec5df3124afbadb485c9ba5a3e3398a04b7ba856020526040600020935060039150613275565b6010831615612ad65760048101546000527fe58769b32a1beaf1ea27375a44095a0d1fb664ce2dd358e7fcbfb78c26a193446020526040600020935060049150613275565b6020831615612b1b5760058101546000527f0eb01ebfc9ed27500cd4dfc979272d1f0913cc9f66540d7e8005811109e1cf2d6020526040600020935060059150613275565b6040831615612b605760068101546000527f887c22bd8750d34016ac3c66b5ff102dacdd73f6b014e710b51e8022af9a19686020526040600020935060069150613275565b6080831615612ba55760078101546000527fffd70157e48063fc33c97a050f7f640233bf646cc98d9524c6b92bcf3ab56f836020526040600020935060079150613275565b610100831615612beb5760088101546000527f9867cc5f7f196b93bae1e27e6320742445d290f2263827498b54fec539f756af6020526040600020935060089150613275565b610200831615612c315760098101546000527fcefad4e508c098b9a7e1d8feb19955fb02ba9675585078710969d3440f5054e06020526040600020935060099150613275565b610400831615612c7757600a8101546000527ff9dc3e7fe016e050eff260334f18a5d4fe391d82092319f5964f2e2eb7c1c3a560205260406000209350600a9150613275565b610800831615612cbd57600b8101546000527ff8b13a49e282f609c317a833fb8d976d11517c571d1221a265d25af778ecf89260205260406000209350600b9150613275565b611000831615612d0357600c8101546000527f3490c6ceeb450aecdc82e28293031d10c7d73bf85e57bf041a97360aa2c5d99c60205260406000209350600c9150613275565b612000831615612d4957600d8101546000527fc1df82d9c4b87413eae2ef048f94b4d3554cea73d92b0f7af96e0271c691e2bb60205260406000209350600d9150613275565b614000831615612d8f57600e8101546000527f5c67add7c6caf302256adedf7ab114da0acfe870d449a3a489f781d659e8becc60205260406000209350600e9150613275565b618000831615612dd557600f8101546000527fda7bce9f4e8618b6bd2f4132ce798cdc7a60e7e1460a7299e3c6342a579626d260205260406000209350600f9150613275565b62010000831615612e1c5760108101546000527f2733e50f526ec2fa19a22b31e8ed50f23cd1fdf94c9154ed3a7609a2f1ff981f6020526040600020935060109150613275565b62020000831615612e635760118101546000527fe1d3b5c807b281e4683cc6d6315cf95b9ade8641defcb32372f1c126e398ef7a6020526040600020935060119150613275565b62040000831615612eaa5760128101546000527f5a2dce0a8a7f68bb74560f8f71837c2c2ebbcbf7fffb42ae1896f13f7c7479a06020526040600020935060129150613275565b62080000831615612ef15760138101546000527fb46a28b6f55540f89444f63de0378e3d121be09e06cc9ded1c20e65876d36aa06020526040600020935060139150613275565b62100000831615612f385760148101546000527fc65e9645644786b620e2dd2ad648ddfcbf4a7e5b1a3a4ecfe7f64667a3f0b7e26020526040600020935060149150613275565b62200000831615612f7f5760158101546000527ff4418588ed35a2458cffeb39b93d26f18d2ab13bdce6aee58e7b99359ec2dfd96020526040600020935060159150613275565b62400000831615612fc65760168101546000527f5a9c16dc00d6ef18b7933a6f8dc65ccb55667138776f7dea101070dc8796e3776020526040600020935060169150613275565b6280000083161561300d5760178101546000527f4df84f40ae0c8229d0d6069e5c8f39a7c299677a09d367fc7b05e3bc380ee6526020526040600020935060179150613275565b63010000008316156130555760188101546000527fcdc72595f74c7b1043d0e1ffbab734648c838dfb0527d971b602bc216c9619ef6020526040600020935060189150613275565b630200000083161561309d5760198101546000527f0abf5ac974a1ed57f4050aa510dd9c74f508277b39d7973bb2dfccc5eeb0618d6020526040600020935060199150613275565b63040000008316156130e557601a8101546000527fb8cd74046ff337f0a7bf2c8e03e10f642c1886798d71806ab1e888d9e5ee87d060205260406000209350601a9150613275565b630800000083161561312d57601b8101546000527f838c5655cb21c6cb83313b5a631175dff4963772cce9108188b34ac87c81c41e60205260406000209350601b9150613275565b631000000083161561317557601c8101546000527f662ee4dd2dd7b2bc707961b1e646c4047669dcb6584f0d8d770daf5d7e7deb2e60205260406000209350601c9150613275565b63200000008316156131bd57601d8101546000527f388ab20e2573d171a88108e79d820e98f26c0b84aa8b2f4aa4968dbb818ea32260205260406000209350601d9150613275565b634000000083161561320557601e8101546000527f93237c50ba75ee485f4c22adf2f741400bdf8d6a9cc7df7ecae576221665d73560205260406000209350601e9150613275565b638000000083161561324d57601f8101546000527f8448818bb4ae4562849e949e17ac16e0be16688e156b5cf15e098c627c0056a960205260406000209350601f9150613275565b7f27ae5ba08d7291c96c8cbddcc148bf48a6d68c7974b94356f53754ef6171d7579350602091505b601e8211613d175760018210156132d3576002831680156132a1576001820154600052846020526132ca565b846000527fad3228b676f7d3cd4284a5443f17f1962b36e491b30a40b2405849e597ba5fb56020525b50604060002093505b6002821015613329576004831680156132f757600282015460005284602052613320565b846000527fb4c11951957c6f8f642c4af61cd6b24640fec6dc7fc607ee8206a99e92410d306020525b50604060002093505b600382101561337f5760088316801561334d57600382015460005284602052613376565b846000527f21ddb9a356815c3fac1026b6dec5df3124afbadb485c9ba5a3e3398a04b7ba856020525b50604060002093505b60048210156133d5576010831680156133a3576004820154600052846020526133cc565b846000527fe58769b32a1beaf1ea27375a44095a0d1fb664ce2dd358e7fcbfb78c26a193446020525b50604060002093505b600582101561342b576020831680156133f957600582015460005284602052613422565b846000527f0eb01ebfc9ed27500cd4dfc979272d1f0913cc9f66540d7e8005811109e1cf2d6020525b50604060002093505b60068210156134815760408316801561344f57600682015460005284602052613478565b846000527f887c22bd8750d34016ac3c66b5ff102dacdd73f6b014e710b51e8022af9a19686020525b50604060002093505b60078210156134d7576080831680156134a5576007820154600052846020526134ce565b846000527fffd70157e48063fc33c97a050f7f640233bf646cc98d9524c6b92bcf3ab56f836020525b50604060002093505b600882101561352e57610100831680156134fc57600882015460005284602052613525565b846000527f9867cc5f7f196b93bae1e27e6320742445d290f2263827498b54fec539f756af6020525b50604060002093505b600982101561358557610200831680156135535760098201546000528460205261357c565b846000527fcefad4e508c098b9a7e1d8feb19955fb02ba9675585078710969d3440f5054e06020525b50604060002093505b600a8210156135dc57610400831680156135aa57600a820154600052846020526135d3565b846000527ff9dc3e7fe016e050eff260334f18a5d4fe391d82092319f5964f2e2eb7c1c3a56020525b50604060002093505b600b821015613633576108008316801561360157600b8201546000528460205261362a565b846000527ff8b13a49e282f609c317a833fb8d976d11517c571d1221a265d25af778ecf8926020525b50604060002093505b600c82101561368a576110008316801561365857600c82015460005284602052613681565b846000527f3490c6ceeb450aecdc82e28293031d10c7d73bf85e57bf041a97360aa2c5d99c6020525b50604060002093505b600d8210156136e157612000831680156136af57600d820154600052846020526136d8565b846000527fc1df82d9c4b87413eae2ef048f94b4d3554cea73d92b0f7af96e0271c691e2bb6020525b50604060002093505b600e821015613738576140008316801561370657600e8201546000528460205261372f565b846000527f5c67add7c6caf302256adedf7ab114da0acfe870d449a3a489f781d659e8becc6020525b50604060002093505b600f82101561378f576180008316801561375d57600f82015460005284602052613786565b846000527fda7bce9f4e8618b6bd2f4132ce798cdc7a60e7e1460a7299e3c6342a579626d26020525b50604060002093505b60108210156137e75762010000831680156137b5576010820154600052846020526137de565b846000527f2733e50f526ec2fa19a22b31e8ed50f23cd1fdf94c9154ed3a7609a2f1ff981f6020525b50604060002093505b601182101561383f57620200008316801561380d57601182015460005284602052613836565b846000527fe1d3b5c807b281e4683cc6d6315cf95b9ade8641defcb32372f1c126e398ef7a6020525b50604060002093505b60128210156138975762040000831680156138655760128201546000528460205261388e565b846000527f5a2dce0a8a7f68bb74560f8f71837c2c2ebbcbf7fffb42ae1896f13f7c7479a06020525b50604060002093505b60138210156138ef5762080000831680156138bd576013820154600052846020526138e6565b846000527fb46a28b6f55540f89444f63de0378e3d121be09e06cc9ded1c20e65876d36aa06020525b50604060002093505b60148210156139475762100000831680156139155760148201546000528460205261393e565b846000527fc65e9645644786b620e2dd2ad648ddfcbf4a7e5b1a3a4ecfe7f64667a3f0b7e26020525b50604060002093505b601582101561399f57622000008316801561396d57601582015460005284602052613996565b846000527ff4418588ed35a2458cffeb39b93d26f18d2ab13bdce6aee58e7b99359ec2dfd96020525b50604060002093505b60168210156139f75762400000831680156139c5576016820154600052846020526139ee565b846000527f5a9c16dc00d6ef18b7933a6f8dc65ccb55667138776f7dea101070dc8796e3776020525b50604060002093505b6017821015613a4f576280000083168015613a1d57601782015460005284602052613a46565b846000527f4df84f40ae0c8229d0d6069e5c8f39a7c299677a09d367fc7b05e3bc380ee6526020525b50604060002093505b6018821015613aa857630100000083168015613a7657601882015460005284602052613a9f565b846000527fcdc72595f74c7b1043d0e1ffbab734648c838dfb0527d971b602bc216c9619ef6020525b50604060002093505b6019821015613b0157630200000083168015613acf57601982015460005284602052613af8565b846000527f0abf5ac974a1ed57f4050aa510dd9c74f508277b39d7973bb2dfccc5eeb0618d6020525b50604060002093505b601a821015613b5a57630400000083168015613b2857601a82015460005284602052613b51565b846000527fb8cd74046ff337f0a7bf2c8e03e10f642c1886798d71806ab1e888d9e5ee87d06020525b50604060002093505b601b821015613bb357630800000083168015613b8157601b82015460005284602052613baa565b846000527f838c5655cb21c6cb83313b5a631175dff4963772cce9108188b34ac87c81c41e6020525b50604060002093505b601c821015613c0c57631000000083168015613bda57601c82015460005284602052613c03565b846000527f662ee4dd2dd7b2bc707961b1e646c4047669dcb6584f0d8d770daf5d7e7deb2e6020525b50604060002093505b601d821015613c6557632000000083168015613c3357601d82015460005284602052613c5c565b846000527f388ab20e2573d171a88108e79d820e98f26c0b84aa8b2f4aa4968dbb818ea3226020525b50604060002093505b601e821015613cbe57634000000083168015613c8c57601e82015460005284602052613cb5565b846000527f93237c50ba75ee485f4c22adf2f741400bdf8d6a9cc7df7ecae576221665d7356020525b50604060002093505b601f821015613d1757638000000083168015613ce557601f82015460005284602052613d0e565b846000527f8448818bb4ae4562849e949e17ac16e0be16688e156b5cf15e098c627c0056a96020525b50604060002093505b505050919050565b6000613d4173ffffffffffffffffffffffffffffffffffffffff841683614414565b90508051600014158015613d66575080806020019051810190613d6491906149bb565b155b15613db5576040517f5274afe700000000000000000000000000000000000000000000000000000000815273ffffffffffffffffffffffffffffffffffffffff84166004820152602401610840565b505050565b60007fffffffffffffffffffffffffffffffffffffffffffffffffffffffffffff111273ffffffffffffffffffffffffffffffffffffffff841601613e17575073ffffffffffffffffffffffffffffffffffffffff8116316126ac565b6040517f70a0823100000000000000000000000000000000000000000000000000000000815273ffffffffffffffffffffffffffffffffffffffff83811660048301528416906370a0823190602401602060405180830381865afa158015613e83573d6000803e3d6000fd5b505050506040513d601f19601f82011682018060405250810190613ea791906149a2565b9392505050565b613eb66145d6565b6000836020018051613ec790614c11565b9081905290506001613edb60206002614d69565b613ee59190614ad1565b811115613f1e576040517f8eab04bb00000000000000000000000000000000000000000000000000000000815260040160405180910390fd5b60005b6020811015613fd15781600116600103613f5a57845184908260208110613f4a57613f4a6148c4565b6020020152508391506126ac9050565b84518160208110613f6d57613f6d6148c4565b602002015184604051602001613f8d929190918252602082015260400190565b604080517fffffffffffffffffffffffffffffffffffffffffffffffffffffffffffffffe081840301815291905280516020909101209350600191821c9101613f21565b506040517f8eab04bb00000000000000000000000000000000000000000000000000000000815260040160405180910390fd5b6020600582811b8216948552835194820394909452604060008181206002851615871b808503919091528386015190528181206004851615871b808503919091528286015190528181206008851615871b80850391909152606086015190528181206010851615871b8085039190915260808087015190915282822084861615881b8086039190915260a0870151905282822083861615881b8086039190915260c0870151905282822090851615871b8085039190915260e0860151905281812061010080861615881b80860392909252860151905281812061020080861615881b80860392909252610120870151909152828220610400861615881b808603919091526101408701519052828220610800861615881b808603919091526101608701519052828220611000861615881b808603919091526101808701519052828220612000861615881b808603919091526101a08701519052828220614000861615881b808603919091526101c08701519052828220618000861615881b808603919091526101e0870151905282822062010000861615881b8086039190915290860151905281812062020000851615871b80850391909152610220860151905281812062040000851615871b80850391909152610240860151905281812062080000851615871b80850391909152610260860151905281812062100000851615871b80850391909152610280860151905281812062200000851615871b808503919091526102a0860151905281812062400000851615871b808503919091526102c0860151905281812062800000851615871b808503919091526102e086015190528181206301000000851615871b8085039190915261030086015190528181206302000000851615871b8085039190915261032086015190528181206304000000851615871b8085039190915261034086015190528181206308000000851615871b8085039190915261036086015190528181206310000000851615871b8085039190915261038086015190528181206320000000851615871b808503919091526103a086015190528181206340000000851615871b808503919091526103c0860151905281812063800000009094161590951b91829003929092526103e090920151909152902090565b60008060008473ffffffffffffffffffffffffffffffffffffffff168460405161437c9190614d75565b6000604051808303816000865af19150503d80600081146143b9576040519150601f19603f3d011682016040523d82523d6000602084013e6143be565b606091505b50915091508180156143e85750805115806143e85750808060200190518101906143e891906149bb565b801561440b575060008573ffffffffffffffffffffffffffffffffffffffff163b115b95945050505050565b6060613ea783836000846000808573ffffffffffffffffffffffffffffffffffffffff1684866040516144479190614d75565b60006040518083038185875af1925050503d8060008114614484576040519150601f19603f3d011682016040523d82523d6000602084013e614489565b606091505b50915091506144998683836144a3565b9695505050505050565b6060826144b8576144b382614532565b613ea7565b81511580156144dc575073ffffffffffffffffffffffffffffffffffffffff84163b155b1561452b576040517f9996b31500000000000000000000000000000000000000000000000000000000815273ffffffffffffffffffffffffffffffffffffffff85166004820152602401610840565b5080613ea7565b8051156145425780518082602001fd5b6040517f1425ea4200000000000000000000000000000000000000000000000000000000815260040160405180910390fd5b60408051606081018252600080825260208201529081016145936145d6565b905290565b82602081019282156145c6579160200282015b828111156145c65782518255916020019190600101906145ab565b506145d29291506145f6565b5090565b60405180604001604052806145e961460b565b8152602001600081525090565b5b808211156145d257600081556001016145f7565b6040518061040001604052806020906020820280368337509192915050565b6000806020838503121561463d57600080fd5b823567ffffffffffffffff8082111561465557600080fd5b818501915085601f83011261466957600080fd5b81358181111561467857600080fd5b8660208260071b850101111561468d57600080fd5b60209290920196919550909350505050565b6000608082840312156146b157600080fd5b50919050565b6000608082840312156146c957600080fd5b613ea7838361469f565b73ffffffffffffffffffffffffffffffffffffffff81168114610ead57600080fd5b6000806000806080858703121561470b57600080fd5b84359350602085013561471d816146d3565b9250604085013591506060850135614734816146d3565b939692955090935050565b60006020828403121561475157600080fd5b8135613ea7816146d3565b815167ffffffffffffffff16815260208083015190820152604081016126ac565b815167ffffffffffffffff1681526020808301518183015260408084015180516104608501939260009086015b848210156147c85782518152918401916001919091019084016147aa565b50505081810151610440850152505092915050565b60006104a082840312156146b157600080fd5b6000806020838503121561480357600080fd5b823567ffffffffffffffff8082111561481b57600080fd5b818501915085601f83011261482f57600080fd5b81358181111561483e57600080fd5b8660206104a08302850101111561468d57600080fd5b7f4e487b7100000000000000000000000000000000000000000000000000000000600052602160045260246000fd5b60208101600283106148be577f4e487b7100000000000000000000000000000000000000000000000000000000600052602160045260246000fd5b91905290565b7f4e487b7100000000000000000000000000000000000000000000000000000000600052603260045260246000fd5b60006020828403121561490557600080fd5b813563ffffffff81168114613ea757600080fd5b60006020828403121561492b57600080fd5b8151613ea7816146d3565b7f4e487b7100000000000000000000000000000000000000000000000000000000600052601160045260246000fd5b808201808211156126ac576126ac614936565b60006020828403121561498a57600080fd5b813567ffffffffffffffff81168114613ea757600080fd5b6000602082840312156149b457600080fd5b5051919050565b6000602082840312156149cd57600080fd5b81518015158114613ea757600080fd5b600067ffffffffffffffff8083168181036149fa576149fa614936565b6001019392505050565b60005b83811015614a1f578181015183820152602001614a07565b50506000910152565b60008151808452614a40816020860160208601614a04565b601f017fffffffffffffffffffffffffffffffffffffffffffffffffffffffffffffffe0169290920160200192915050565b600073ffffffffffffffffffffffffffffffffffffffff8089168352808816602084015280871660408401525084606083015263ffffffff8416608083015260c060a0830152614ac560c0830184614a28565b98975050505050505050565b818103818111156126ac576126ac614936565b600060808201905073ffffffffffffffffffffffffffffffffffffffff8351168252602083015160208301526040830151614b366040840182805167ffffffffffffffff168252602090810151910152565b5092915050565b73ffffffffffffffffffffffffffffffffffffffff84168152606060208201526000614b6c6060830185614a28565b905063ffffffff83166040830152949350505050565b600073ffffffffffffffffffffffffffffffffffffffff808a168352886020840152808816604084015286606084015285608084015280851660a08401525060e060c0830152614bd560e0830184614a28565b9998505050505050505050565b7f4e487b7100000000000000000000000000000000000000000000000000000000600052600160045260246000fd5b60007fffffffffffffffffffffffffffffffffffffffffffffffffffffffffffffffff8203614c4257614c42614936565b5060010190565b600181815b80851115614ca257817fffffffffffffffffffffffffffffffffffffffffffffffffffffffffffffffff04821115614c8857614c88614936565b80851615614c9557918102915b93841c9390800290614c4e565b509250929050565b600082614cb9575060016126ac565b81614cc6575060006126ac565b8160018114614cdc5760028114614ce657614d02565b60019150506126ac565b60ff841115614cf757614cf7614936565b50506001821b6126ac565b5060208310610133831016604e8410600b8410161715614d25575081810a6126ac565b614d2f8383614c49565b807fffffffffffffffffffffffffffffffffffffffffffffffffffffffffffffffff04821115614d6157614d61614936565b029392505050565b6000613ea78383614caa565b60008251614d87818460208701614a04565b919091019291505056fea264697066735822122034f11f35c4be0e34252bf9eaf338c0ccd83a6ad25d078761c9ac8ff506c6122964736f6c63430008170033a2646970667358221220b75e3594f0331e768fab4d8d6ba2ffde0b1b2ab8f6b0a4325d4e05ddb2dcf4c164736f6c63430008170033",
	"devdoc": {
		"kind": "dev",
		"methods": {
			"constructor": {
				"params": {
					"configurator": "The address of the configurator.",
					"directory": "The directory of terminals and controllers for projects.",
					"permissions": "The permissions contract for the deployer.",
					"tokens": "The contract that manages token minting and burning."
				}
			},
			"createForSender(uint256,bytes32)": {
				"details": "Uses the sender address as the salt, which means the same sender must call this function on both chains.",
				"params": {
					"localProjectId": "The project's ID on the local chain.",
					"salt": "The salt to use for the `create2` address."
				},
				"returns": {
					"sucker": "The address of the new sucker."
				}
			}
		},
		"version": 1
	},
	"userdoc": {
		"kind": "user",
		"methods": {
			"DIRECTORY()": {
				"notice": "The directory of terminals and controllers for projects."
			},
			"LAYER_SPECIFIC_CONFIGURATOR()": {
				"notice": "Only this address can configure this deployer, can only be used once."
			},
			"PERMISSIONS()": {
				"notice": "A contract storing permissions."
			},
			"TOKENS()": {
				"notice": "The contract that manages token minting and burning."
			},
			"configureLayerSpecific(address,address)": {
				"notice": "handles some layer specific configuration that can't be done in the constructor otherwise deployment addresses would change.messenger the OPMesssenger on this layer.bridge the OPStandardBridge on this layer."
			},
			"createForSender(uint256,bytes32)": {
				"notice": "Create a new `JBSucker` for a specific project."
			},
			"isSucker(address)": {
				"notice": "A mapping of suckers deployed by this contract."
			},
			"opBridge()": {
				"notice": "The bridge used to bridge tokens between the local and remote chain."
			},
			"opMessenger()": {
				"notice": "The messenger used to send messages between the local and remote sucker."
			},
			"tempStoreId()": {
				"notice": "A temporary storage slot used by suckers to maintain deterministic deploys."
			}
		},
		"version": 1
	},
	"gitCommit": "0a75b670db552415cccdae4d89ed0cf8dd47a6e2",
	"sourceName": "src/deployers/JBOptimismSuckerDeployer.sol",
	"chainId": "11155111",
	"linkReferences": {},
	"deployedLinkReferences": {},
	"history": []
}