{
	"_format": "sphinx-sol-ct-artifact-1",
	"merkleRoot": "0x0410b26c523d95207befbf99f9f14f785c99371309b4eab483b4258b96c88b3e",
	"contractName": "JBOptimismSuckerDeployer",
	"address": "0x9440c91C854343cCB3c49e547665216e86eDcaA7",
	"abi": [
		{
			"type": "constructor",
			"inputs": [
				{
					"name": "directory",
					"type": "address",
					"internalType": "contract IJBDirectory"
				},
				{
					"name": "permissions",
					"type": "address",
					"internalType": "contract IJBPermissions"
				},
				{
					"name": "tokens",
					"type": "address",
					"internalType": "contract IJBTokens"
				},
				{
					"name": "configurator",
					"type": "address",
					"internalType": "address"
				},
				{
					"name": "trusted_forwarder",
					"type": "address",
					"internalType": "address"
				}
			],
			"stateMutability": "nonpayable"
		},
		{
			"type": "function",
			"name": "DIRECTORY",
			"inputs": [],
			"outputs": [
				{
					"name": "",
					"type": "address",
					"internalType": "contract IJBDirectory"
				}
			],
			"stateMutability": "view"
		},
		{
			"type": "function",
			"name": "LAYER_SPECIFIC_CONFIGURATOR",
			"inputs": [],
			"outputs": [
				{
					"name": "",
					"type": "address",
					"internalType": "address"
				}
			],
			"stateMutability": "view"
		},
		{
			"type": "function",
			"name": "PERMISSIONS",
			"inputs": [],
			"outputs": [
				{
					"name": "",
					"type": "address",
					"internalType": "contract IJBPermissions"
				}
			],
			"stateMutability": "view"
		},
		{
			"type": "function",
			"name": "TOKENS",
			"inputs": [],
			"outputs": [
				{
					"name": "",
					"type": "address",
					"internalType": "contract IJBTokens"
				}
			],
			"stateMutability": "view"
		},
		{
			"type": "function",
			"name": "configureSingleton",
			"inputs": [
				{
					"name": "_singleton",
					"type": "address",
					"internalType": "contract JBSucker"
				}
			],
			"outputs": [],
			"stateMutability": "nonpayable"
		},
		{
			"type": "function",
			"name": "createForSender",
			"inputs": [
				{
					"name": "localProjectId",
					"type": "uint256",
					"internalType": "uint256"
				},
				{
					"name": "salt",
					"type": "bytes32",
					"internalType": "bytes32"
				}
			],
			"outputs": [
				{
					"name": "sucker",
					"type": "address",
					"internalType": "contract IJBSucker"
				}
			],
			"stateMutability": "nonpayable"
		},
		{
			"type": "function",
			"name": "isSucker",
			"inputs": [
				{
					"name": "",
					"type": "address",
					"internalType": "address"
				}
			],
			"outputs": [
				{
					"name": "",
					"type": "bool",
					"internalType": "bool"
				}
			],
			"stateMutability": "view"
		},
		{
			"type": "function",
			"name": "isTrustedForwarder",
			"inputs": [
				{
					"name": "forwarder",
					"type": "address",
					"internalType": "address"
				}
			],
			"outputs": [
				{
					"name": "",
					"type": "bool",
					"internalType": "bool"
				}
			],
			"stateMutability": "view"
		},
		{
			"type": "function",
			"name": "opBridge",
			"inputs": [],
			"outputs": [
				{
					"name": "",
					"type": "address",
					"internalType": "contract IOPStandardBridge"
				}
			],
			"stateMutability": "view"
		},
		{
			"type": "function",
			"name": "opMessenger",
			"inputs": [],
			"outputs": [
				{
					"name": "",
					"type": "address",
					"internalType": "contract IOPMessenger"
				}
			],
			"stateMutability": "view"
		},
		{
			"type": "function",
			"name": "setChainSpecificConstants",
			"inputs": [
				{
					"name": "messenger",
					"type": "address",
					"internalType": "contract IOPMessenger"
				},
				{
					"name": "bridge",
					"type": "address",
					"internalType": "contract IOPStandardBridge"
				}
			],
			"outputs": [],
			"stateMutability": "nonpayable"
		},
		{
			"type": "function",
			"name": "singleton",
			"inputs": [],
			"outputs": [
				{
					"name": "",
					"type": "address",
					"internalType": "contract JBSucker"
				}
			],
			"stateMutability": "view"
		},
		{
			"type": "function",
			"name": "trustedForwarder",
			"inputs": [],
			"outputs": [
				{
					"name": "",
					"type": "address",
					"internalType": "address"
				}
			],
			"stateMutability": "view"
		},
		{
			"type": "error",
			"name": "JBPermissioned_Unauthorized",
			"inputs": [
				{
					"name": "account",
					"type": "address",
					"internalType": "address"
				},
				{
					"name": "sender",
					"type": "address",
					"internalType": "address"
				},
				{
					"name": "projectId",
					"type": "uint256",
					"internalType": "uint256"
				},
				{
					"name": "permissionId",
					"type": "uint256",
					"internalType": "uint256"
				}
			]
		},
		{
			"type": "error",
			"name": "JBSuckerDeployer_AlreadyConfigured",
			"inputs": []
		},
		{
			"type": "error",
			"name": "JBSuckerDeployer_DeployerIsNotConfigured",
			"inputs": []
		},
		{
			"type": "error",
			"name": "JBSuckerDeployer_InvalidLayerSpecificConfiguration",
			"inputs": []
		},
		{
			"type": "error",
			"name": "JBSuckerDeployer_LayerSpecificNotConfigured",
			"inputs": []
		},
		{
			"type": "error",
			"name": "JBSuckerDeployer_Unauthorized",
			"inputs": [
				{
					"name": "caller",
					"type": "address",
					"internalType": "address"
				},
				{
					"name": "expected",
					"type": "address",
					"internalType": "address"
				}
			]
		},
		{
			"type": "error",
			"name": "JBSuckerDeployer_ZeroConfiguratorAddress",
			"inputs": []
		}
	],
	"solcInputHash": "a3dd08f3181929e59634f062e1db0527",
	"args": [
		"0x5ADb234602D074064C216C1fDB23c6c2031F0C75",
		"0x4886C30C81a17a3A1084fd1812008fA0f71a20B9",
		"0x94Db7C71D9E4bcDE99686bE9570C68BF12708D3e",
		"0x0FF306a08cf4E16570ab7a6bD95Ba52d2fe64D45",
		"0xB2b5841DBeF766d4b521221732F9B618fCf34A87"
	],
	"bytecode": "0x61012060405234801561001157600080fd5b50604051610b0b380380610b0b833981016040819052610030916100e4565b6001600160a01b0380821660805280851660a05280861660c05280841661010052821660e08190528590859085908590859015801561007457506100726100a1565b155b156100925760405163541b408960e11b815260040160405180910390fd5b50505050505050505050610159565b6002546000906001600160a01b03161515806100c757506003546001600160a01b031615155b905090565b6001600160a01b03811681146100e157600080fd5b50565b600080600080600060a086880312156100fc57600080fd5b8551610107816100cc565b6020870151909550610118816100cc565b6040870151909450610129816100cc565b606087015190935061013a816100cc565b608087015190925061014b816100cc565b809150509295509295909350565b60805160a05160c05160e0516101005161094b6101c060003960006101190152600081816101400152818161043d015281816104bb01526105ea01526000610218015260006102880152600081816101ad015281816101ef0152610717015261094b6000f3fe608060405234801561001057600080fd5b50600436106100df5760003560e01c8063572b6c051161008c578063b62654fb11610066578063b62654fb1461023a578063bac6b2ad1461024d578063c39ec12414610260578063f434c9141461028357600080fd5b8063572b6c051461019d5780637da0a877146101ed57806388bc2ef31461021357600080fd5b806328db992a116100bd57806328db992a146101625780633eeb32ee14610175578063516bf2f31461018a57600080fd5b806312130366146100e45780631d831d5c146101145780631e5d73df1461013b575b600080fd5b6100f76100f23660046107d3565b6102aa565b6040516001600160a01b0390911681526020015b60405180910390f35b6100f77f000000000000000000000000000000000000000000000000000000000000000081565b6100f77f000000000000000000000000000000000000000000000000000000000000000081565b6003546100f7906001600160a01b031681565b61018861018336600461080d565b61043b565b005b6002546100f7906001600160a01b031681565b6101dd6101ab36600461080d565b7f00000000000000000000000000000000000000000000000000000000000000006001600160a01b0390811691161490565b604051901515815260200161010b565b7f00000000000000000000000000000000000000000000000000000000000000006100f7565b6100f77f000000000000000000000000000000000000000000000000000000000000000081565b6001546100f7906001600160a01b031681565b61018861025b36600461082a565b6105a9565b6101dd61026e36600461080d565b60006020819052908152604090205460ff1681565b6100f77f000000000000000000000000000000000000000000000000000000000000000081565b6001546000906001600160a01b03166102ef576040517fbc700a3700000000000000000000000000000000000000000000000000000000815260040160405180910390fd5b6102f76106ba565b8260405160200161033992919060609290921b7fffffffffffffffffffffffffffffffffffffffff000000000000000000000000168252601482015260340190565b604080517fffffffffffffffffffffffffffffffffffffffffffffffffffffffffffffffe08184030181529190528051602090910120600154909250610388906001600160a01b0316836106c9565b6001600160a01b0381166000818152602081905260409081902080547fffffffffffffffffffffffffffffffffffffffffffffffffffffffffffffff00166001179055517ffe4b84df000000000000000000000000000000000000000000000000000000008152600481018690529192509063fe4b84df90602401600060405180830381600087803b15801561041d57600080fd5b505af1158015610431573d6000803e3d6000fd5b5050505092915050565b7f00000000000000000000000000000000000000000000000000000000000000006001600160a01b031661046d6106ba565b6001600160a01b0316146104ee576104836106ba565b6040517fdcd3b8230000000000000000000000000000000000000000000000000000000081526001600160a01b0391821660048201527f0000000000000000000000000000000000000000000000000000000000000000909116602482015260440160405180910390fd5b6104f66106de565b61052c576040517fe2e55a4b00000000000000000000000000000000000000000000000000000000815260040160405180910390fd5b6001546001600160a01b03161561056f576040517f52880bb100000000000000000000000000000000000000000000000000000000815260040160405180910390fd5b600180547fffffffffffffffffffffffff0000000000000000000000000000000000000000166001600160a01b0392909216919091179055565b6105b16106de565b156105e8576040517f52880bb100000000000000000000000000000000000000000000000000000000815260040160405180910390fd5b7f00000000000000000000000000000000000000000000000000000000000000006001600160a01b031661061a6106ba565b6001600160a01b031614610630576104836106ba565b600280546001600160a01b038085167fffffffffffffffffffffffff00000000000000000000000000000000000000009283161790925560038054928416929091169190911790556106806106de565b6106b6576040517fb140414800000000000000000000000000000000000000000000000000000000815260040160405180910390fd5b5050565b60006106c4610707565b905090565b60006106d76000848461077c565b9392505050565b6002546000906001600160a01b03161515806106c45750506003546001600160a01b0316151590565b6000366014336001600160a01b037f0000000000000000000000000000000000000000000000000000000000000000161480156107445750808210155b15610774576000366107568385610863565b6107619282906108a3565b61076a916108cd565b60601c9250505090565b339250505090565b60006c5af43d3d93803e602a57fd5bf36021528260145273602c3d8160093d39f33d3d3d3d363d3d37363d73600052816035600c86f59050806107c75763301164256000526004601cfd5b60006021529392505050565b600080604083850312156107e657600080fd5b50508035926020909101359150565b6001600160a01b038116811461080a57600080fd5b50565b60006020828403121561081f57600080fd5b81356106d7816107f5565b6000806040838503121561083d57600080fd5b8235610848816107f5565b91506020830135610858816107f5565b809150509250929050565b8181038181111561089d577f4e487b7100000000000000000000000000000000000000000000000000000000600052601160045260246000fd5b92915050565b600080858511156108b357600080fd5b838611156108c057600080fd5b5050820193919092039150565b7fffffffffffffffffffffffffffffffffffffffff000000000000000000000000813581811691601485101561090d5780818660140360031b1b83161692505b50509291505056fea2646970667358221220e5da779ea4a64a8b1eb00fb05a1cb0d8d16e20d95a6bbfd641645b1f5765bfdf64736f6c63430008170033",
	"deployedBytecode": "0x608060405234801561001057600080fd5b50600436106100df5760003560e01c8063572b6c051161008c578063b62654fb11610066578063b62654fb1461023a578063bac6b2ad1461024d578063c39ec12414610260578063f434c9141461028357600080fd5b8063572b6c051461019d5780637da0a877146101ed57806388bc2ef31461021357600080fd5b806328db992a116100bd57806328db992a146101625780633eeb32ee14610175578063516bf2f31461018a57600080fd5b806312130366146100e45780631d831d5c146101145780631e5d73df1461013b575b600080fd5b6100f76100f23660046107d3565b6102aa565b6040516001600160a01b0390911681526020015b60405180910390f35b6100f77f00000000000000000000000094db7c71d9e4bcde99686be9570c68bf12708d3e81565b6100f77f0000000000000000000000000ff306a08cf4e16570ab7a6bd95ba52d2fe64d4581565b6003546100f7906001600160a01b031681565b61018861018336600461080d565b61043b565b005b6002546100f7906001600160a01b031681565b6101dd6101ab36600461080d565b7f000000000000000000000000b2b5841dbef766d4b521221732f9b618fcf34a876001600160a01b0390811691161490565b604051901515815260200161010b565b7f000000000000000000000000b2b5841dbef766d4b521221732f9b618fcf34a876100f7565b6100f77f0000000000000000000000005adb234602d074064c216c1fdb23c6c2031f0c7581565b6001546100f7906001600160a01b031681565b61018861025b36600461082a565b6105a9565b6101dd61026e36600461080d565b60006020819052908152604090205460ff1681565b6100f77f0000000000000000000000004886c30c81a17a3a1084fd1812008fa0f71a20b981565b6001546000906001600160a01b03166102ef576040517fbc700a3700000000000000000000000000000000000000000000000000000000815260040160405180910390fd5b6102f76106ba565b8260405160200161033992919060609290921b7fffffffffffffffffffffffffffffffffffffffff000000000000000000000000168252601482015260340190565b604080517fffffffffffffffffffffffffffffffffffffffffffffffffffffffffffffffe08184030181529190528051602090910120600154909250610388906001600160a01b0316836106c9565b6001600160a01b0381166000818152602081905260409081902080547fffffffffffffffffffffffffffffffffffffffffffffffffffffffffffffff00166001179055517ffe4b84df000000000000000000000000000000000000000000000000000000008152600481018690529192509063fe4b84df90602401600060405180830381600087803b15801561041d57600080fd5b505af1158015610431573d6000803e3d6000fd5b5050505092915050565b7f0000000000000000000000000ff306a08cf4e16570ab7a6bd95ba52d2fe64d456001600160a01b031661046d6106ba565b6001600160a01b0316146104ee576104836106ba565b6040517fdcd3b8230000000000000000000000000000000000000000000000000000000081526001600160a01b0391821660048201527f0000000000000000000000000ff306a08cf4e16570ab7a6bd95ba52d2fe64d45909116602482015260440160405180910390fd5b6104f66106de565b61052c576040517fe2e55a4b00000000000000000000000000000000000000000000000000000000815260040160405180910390fd5b6001546001600160a01b03161561056f576040517f52880bb100000000000000000000000000000000000000000000000000000000815260040160405180910390fd5b600180547fffffffffffffffffffffffff0000000000000000000000000000000000000000166001600160a01b0392909216919091179055565b6105b16106de565b156105e8576040517f52880bb100000000000000000000000000000000000000000000000000000000815260040160405180910390fd5b7f0000000000000000000000000ff306a08cf4e16570ab7a6bd95ba52d2fe64d456001600160a01b031661061a6106ba565b6001600160a01b031614610630576104836106ba565b600280546001600160a01b038085167fffffffffffffffffffffffff00000000000000000000000000000000000000009283161790925560038054928416929091169190911790556106806106de565b6106b6576040517fb140414800000000000000000000000000000000000000000000000000000000815260040160405180910390fd5b5050565b60006106c4610707565b905090565b60006106d76000848461077c565b9392505050565b6002546000906001600160a01b03161515806106c45750506003546001600160a01b0316151590565b6000366014336001600160a01b037f000000000000000000000000b2b5841dbef766d4b521221732f9b618fcf34a87161480156107445750808210155b15610774576000366107568385610863565b6107619282906108a3565b61076a916108cd565b60601c9250505090565b339250505090565b60006c5af43d3d93803e602a57fd5bf36021528260145273602c3d8160093d39f33d3d3d3d363d3d37363d73600052816035600c86f59050806107c75763301164256000526004601cfd5b60006021529392505050565b600080604083850312156107e657600080fd5b50508035926020909101359150565b6001600160a01b038116811461080a57600080fd5b50565b60006020828403121561081f57600080fd5b81356106d7816107f5565b6000806040838503121561083d57600080fd5b8235610848816107f5565b91506020830135610858816107f5565b809150509250929050565b8181038181111561089d577f4e487b7100000000000000000000000000000000000000000000000000000000600052601160045260246000fd5b92915050565b600080858511156108b357600080fd5b838611156108c057600080fd5b5050820193919092039150565b7fffffffffffffffffffffffffffffffffffffffff000000000000000000000000813581811691601485101561090d5780818660140360031b1b83161692505b50509291505056fea2646970667358221220e5da779ea4a64a8b1eb00fb05a1cb0d8d16e20d95a6bbfd641645b1f5765bfdf64736f6c63430008170033",
	"devdoc": {
		"kind": "dev",
		"methods": {
			"configureSingleton(address)": {
				"details": "Can only be called *once* by the layer specific configurator.",
				"params": {
					"_singleton": "The address of the singleton."
				}
			},
			"constructor": {
				"params": {
					"configurator": "The address of the configurator.",
					"directory": "The directory of terminals and controllers for projects.",
					"permissions": "The permissions contract for the deployer.",
					"tokens": "The contract that manages token minting and burning."
				}
			},
			"createForSender(uint256,bytes32)": {
				"details": "Uses the sender address as the salt, which means the same sender must call this function on both chains.",
				"params": {
					"localProjectId": "The project's ID on the local chain.",
					"salt": "The salt to use for the `create2` address."
				},
				"returns": {
					"sucker": "The address of the new sucker."
				}
			},
			"isTrustedForwarder(address)": {
				"details": "Indicates whether any particular address is the trusted forwarder."
			},
			"trustedForwarder()": {
				"details": "Returns the address of the trusted forwarder."
			}
		},
		"version": 1
	},
	"userdoc": {
		"kind": "user",
		"methods": {
			"DIRECTORY()": {
				"notice": "The directory of terminals and controllers for projects."
			},
			"LAYER_SPECIFIC_CONFIGURATOR()": {
				"notice": "Only this address can configure this deployer, can only be used once."
			},
			"PERMISSIONS()": {
				"notice": "A contract storing permissions."
			},
			"TOKENS()": {
				"notice": "The contract that manages token minting and burning."
			},
			"configureSingleton(address)": {
				"notice": "Configure the singleton instance that is used to clone suckers."
			},
			"createForSender(uint256,bytes32)": {
				"notice": "Create a new `JBSucker` for a specific project."
			},
			"isSucker(address)": {
				"notice": "A mapping of suckers deployed by this contract."
			},
			"opBridge()": {
				"notice": "The bridge used to bridge tokens between the local and remote chain."
			},
			"opMessenger()": {
				"notice": "The messenger used to send messages between the local and remote sucker."
			},
			"setChainSpecificConstants(address,address)": {
				"notice": "handles some layer specific configuration that can't be done in the constructor otherwise deployment addresses would change.messenger the OPMesssenger on this layer.bridge the OPStandardBridge on this layer."
			},
			"singleton()": {
				"notice": "The singleton used to clone suckers."
			}
		},
		"version": 1
	},
	"gitCommit": "8b90383d486eaa66d681420f15f6aae176c34185",
	"sourceName": "src/deployers/JBOptimismSuckerDeployer.sol",
	"chainId": "11155111",
	"linkReferences": {},
	"deployedLinkReferences": {},
	"history": []
}