{
	"_format": "sphinx-sol-ct-artifact-1",
	"merkleRoot": "0x579d61bff63711f0dde200ffef5e74ff3301cc8a4b29a860b402486e71b80db6",
	"contractName": "JBSuckerRegistry",
	"address": "0xdba05C1525A7d6255dc637EdD58C849aCb635D25",
	"abi": [
		{
			"type": "constructor",
			"inputs": [
				{
					"name": "projects",
					"type": "address",
					"internalType": "contract IJBProjects"
				},
				{
					"name": "permissions",
					"type": "address",
					"internalType": "contract IJBPermissions"
				},
				{
					"name": "_initialOwner",
					"type": "address",
					"internalType": "address"
				}
			],
			"stateMutability": "nonpayable"
		},
		{
			"type": "function",
			"name": "PERMISSIONS",
			"inputs": [],
			"outputs": [
				{
					"name": "",
					"type": "address",
					"internalType": "contract IJBPermissions"
				}
			],
			"stateMutability": "view"
		},
		{
			"type": "function",
			"name": "PROJECTS",
			"inputs": [],
			"outputs": [
				{
					"name": "",
					"type": "address",
					"internalType": "contract IJBProjects"
				}
			],
			"stateMutability": "view"
		},
		{
			"type": "function",
			"name": "allowSuckerDeployer",
			"inputs": [
				{
					"name": "deployer",
					"type": "address",
					"internalType": "address"
				}
			],
			"outputs": [],
			"stateMutability": "nonpayable"
		},
		{
			"type": "function",
			"name": "allowSuckerDeployers",
			"inputs": [
				{
					"name": "deployers",
					"type": "address[]",
					"internalType": "address[]"
				}
			],
			"outputs": [],
			"stateMutability": "nonpayable"
		},
		{
			"type": "function",
			"name": "deploySuckersFor",
			"inputs": [
				{
					"name": "projectId",
					"type": "uint256",
					"internalType": "uint256"
				},
				{
					"name": "salt",
					"type": "bytes32",
					"internalType": "bytes32"
				},
				{
					"name": "configurations",
					"type": "tuple[]",
					"internalType": "struct JBSuckerDeployerConfig[]",
					"components": [
						{
							"name": "deployer",
							"type": "address",
							"internalType": "contract IJBSuckerDeployer"
						},
						{
							"name": "mappings",
							"type": "tuple[]",
							"internalType": "struct JBTokenMapping[]",
							"components": [
								{
									"name": "localToken",
									"type": "address",
									"internalType": "address"
								},
								{
									"name": "minGas",
									"type": "uint32",
									"internalType": "uint32"
								},
								{
									"name": "remoteToken",
									"type": "address",
									"internalType": "address"
								},
								{
									"name": "minBridgeAmount",
									"type": "uint256",
									"internalType": "uint256"
								}
							]
						}
					]
				}
			],
			"outputs": [
				{
					"name": "suckers",
					"type": "address[]",
					"internalType": "address[]"
				}
			],
			"stateMutability": "nonpayable"
		},
		{
			"type": "function",
			"name": "getSuckerPairs",
			"inputs": [
				{
					"name": "projectId",
					"type": "uint256",
					"internalType": "uint256"
				}
			],
			"outputs": [
				{
					"name": "_pairs",
					"type": "tuple[]",
					"internalType": "struct JBSuckersPair[]",
					"components": [
						{
							"name": "local",
							"type": "address",
							"internalType": "address"
						},
						{
							"name": "remote",
							"type": "address",
							"internalType": "address"
						},
						{
							"name": "remoteChainId",
							"type": "uint256",
							"internalType": "uint256"
						}
					]
				}
			],
			"stateMutability": "view"
		},
		{
			"type": "function",
			"name": "isSuckerOf",
			"inputs": [
				{
					"name": "projectId",
					"type": "uint256",
					"internalType": "uint256"
				},
				{
					"name": "suckerAddress",
					"type": "address",
					"internalType": "address"
				}
			],
			"outputs": [
				{
					"name": "",
					"type": "bool",
					"internalType": "bool"
				}
			],
			"stateMutability": "view"
		},
		{
			"type": "function",
			"name": "jbOwner",
			"inputs": [],
			"outputs": [
				{
					"name": "owner",
					"type": "address",
					"internalType": "address"
				},
				{
					"name": "projectId",
					"type": "uint88",
					"internalType": "uint88"
				},
				{
					"name": "permissionId",
					"type": "uint8",
					"internalType": "uint8"
				}
			],
			"stateMutability": "view"
		},
		{
			"type": "function",
			"name": "owner",
			"inputs": [],
			"outputs": [
				{
					"name": "",
					"type": "address",
					"internalType": "address"
				}
			],
			"stateMutability": "view"
		},
		{
			"type": "function",
			"name": "renounceOwnership",
			"inputs": [],
			"outputs": [],
			"stateMutability": "nonpayable"
		},
		{
			"type": "function",
			"name": "setPermissionId",
			"inputs": [
				{
					"name": "permissionId",
					"type": "uint8",
					"internalType": "uint8"
				}
			],
			"outputs": [],
			"stateMutability": "nonpayable"
		},
		{
			"type": "function",
			"name": "suckerDeployerIsAllowed",
			"inputs": [
				{
					"name": "deployer",
					"type": "address",
					"internalType": "address"
				}
			],
			"outputs": [
				{
					"name": "",
					"type": "bool",
					"internalType": "bool"
				}
			],
			"stateMutability": "view"
		},
		{
			"type": "function",
			"name": "suckersOf",
			"inputs": [
				{
					"name": "projectId",
					"type": "uint256",
					"internalType": "uint256"
				}
			],
			"outputs": [
				{
					"name": "",
					"type": "address[]",
					"internalType": "address[]"
				}
			],
			"stateMutability": "view"
		},
		{
			"type": "function",
			"name": "transferOwnership",
			"inputs": [
				{
					"name": "newOwner",
					"type": "address",
					"internalType": "address"
				}
			],
			"outputs": [],
			"stateMutability": "nonpayable"
		},
		{
			"type": "function",
			"name": "transferOwnershipToProject",
			"inputs": [
				{
					"name": "projectId",
					"type": "uint256",
					"internalType": "uint256"
				}
			],
			"outputs": [],
			"stateMutability": "nonpayable"
		},
		{
			"type": "event",
			"name": "OwnershipTransferred",
			"inputs": [
				{
					"name": "previousOwner",
					"type": "address",
					"indexed": true,
					"internalType": "address"
				},
				{
					"name": "newOwner",
					"type": "address",
					"indexed": true,
					"internalType": "address"
				}
			],
			"anonymous": false
		},
		{
			"type": "event",
			"name": "PermissionIdChanged",
			"inputs": [
				{
					"name": "newIndex",
					"type": "uint8",
					"indexed": false,
					"internalType": "uint8"
				}
			],
			"anonymous": false
		},
		{
			"type": "event",
			"name": "SuckerDeployerAllowed",
			"inputs": [
				{
					"name": "deployer",
					"type": "address",
					"indexed": false,
					"internalType": "address"
				},
				{
					"name": "caller",
					"type": "address",
					"indexed": false,
					"internalType": "address"
				}
			],
			"anonymous": false
		},
		{
			"type": "event",
			"name": "SuckersDeployedFor",
			"inputs": [
				{
					"name": "projectId",
					"type": "uint256",
					"indexed": false,
					"internalType": "uint256"
				},
				{
					"name": "suckers",
					"type": "address[]",
					"indexed": false,
					"internalType": "address[]"
				},
				{
					"name": "configurations",
					"type": "tuple[]",
					"indexed": false,
					"internalType": "struct JBSuckerDeployerConfig[]",
					"components": [
						{
							"name": "deployer",
							"type": "address",
							"internalType": "contract IJBSuckerDeployer"
						},
						{
							"name": "mappings",
							"type": "tuple[]",
							"internalType": "struct JBTokenMapping[]",
							"components": [
								{
									"name": "localToken",
									"type": "address",
									"internalType": "address"
								},
								{
									"name": "minGas",
									"type": "uint32",
									"internalType": "uint32"
								},
								{
									"name": "remoteToken",
									"type": "address",
									"internalType": "address"
								},
								{
									"name": "minBridgeAmount",
									"type": "uint256",
									"internalType": "uint256"
								}
							]
						}
					]
				},
				{
					"name": "caller",
					"type": "address",
					"indexed": false,
					"internalType": "address"
				}
			],
			"anonymous": false
		},
		{
			"type": "error",
			"name": "EnumerableMapNonexistentKey",
			"inputs": [
				{
					"name": "key",
					"type": "bytes32",
					"internalType": "bytes32"
				}
			]
		},
		{
			"type": "error",
			"name": "INVALID_DEPLOYER",
			"inputs": [
				{
					"name": "deployer",
					"type": "address",
					"internalType": "address"
				}
			]
		},
		{
			"type": "error",
			"name": "INVALID_NEW_OWNER",
			"inputs": []
		},
		{
			"type": "error",
			"name": "UNAUTHORIZED",
			"inputs": []
		}
	],
	"solcInputHash": "c9c97c6c7ba2ba351e006309fe03d7f9",
	"args": [
		"0xf8Ea7BA8d990646420123fEAa2447B534Ab2f53c",
		"0xcfBA13b8DCb2bb4f84C5d2704882009a539Bee9A",
		"0x0FF306a08cf4E16570ab7a6bD95Ba52d2fe64D45"
	],
	"bytecode": "0x60c06040523480156200001157600080fd5b5060405162001a9438038062001a9483398101604081905262000034916200031f565b6001600160a01b03808316608052831660a0528282826000838383836001600160a01b038216620000785760405163ecb9b1c760e01b815260040160405180910390fd5b62000084828262000095565b50505050505050505050506200039a565b6001600160581b03811615801590620000b657506001600160a01b03821615155b15620000d55760405163ecb9b1c760e01b815260040160405180910390fd5b60408051606081018252600080546001600160a01b0381168352600160a01b81046001600160581b031660208401819052600160f81b90910460ff1693830193909352909115620001a45760a05160208301516040516331a9108f60e11b81526001600160581b0390911660048201526001600160a01b0390911690636352211e90602401602060405180830381865afa15801562000178573d6000803e3d6000fd5b505050506040513d601f19601f820116820180604052508101906200019e919062000373565b620001a7565b81515b604080516060810182526001600160a01b0387168082526001600160581b0387166020830181905260009290930182905281547fff000000000000000000000000000000000000000000000000000000000000001617600160a01b909202919091176001600160f81b0316905590506200022381858562000229565b50505050565b303b1562000301576001600160581b03811615620002bf5760a0516040516331a9108f60e11b81526001600160581b03831660048201526001600160a01b0390911690636352211e90602401602060405180830381865afa15801562000293573d6000803e3d6000fd5b505050506040513d601f19601f82011682018060405250810190620002b9919062000373565b620002c1565b815b6001600160a01b0316836001600160a01b03167f8be0079c531659141344cd1fd0a4f28419497f9722a3daafe3b4186f6b6457e060405160405180910390a35b505050565b6001600160a01b03811681146200031c57600080fd5b50565b6000806000606084860312156200033557600080fd5b8351620003428162000306565b6020850151909350620003558162000306565b6040850151909250620003688162000306565b809150509250925092565b6000602082840312156200038657600080fd5b8151620003938162000306565b9392505050565b60805160a0516116ab620003e96000396000818160ff015281816102f40152818161081201528181610cdd01528181610e1f0152610fbd01526000818161029a0152610baa01526116ab6000f3fe608060405234801561001057600080fd5b50600436106100f55760003560e01c8063a1031a4f11610097578063c70fb6f611610066578063c70fb6f614610262578063f2fde38b14610282578063f434c91414610295578063f73ac20f146102bc57600080fd5b8063a1031a4f146101b9578063a220d696146101dc578063ba23c36e146101ef578063c0fb5e851461024f57600080fd5b8063669745a5116100d3578063669745a514610171578063715018a61461018657806383db9d011461018e5780638da5cb5b146101b157600080fd5b8063293c4999146100fa5780632f3f50e01461013e5780633d12cb871461015e575b600080fd5b6101217f000000000000000000000000000000000000000000000000000000000000000081565b6040516001600160a01b0390911681526020015b60405180910390f35b61015161014c3660046111f1565b6102cf565b6040516101359190611289565b61015161016c36600461129c565b61066a565b61018461017f3660046112b5565b61068a565b005b610184610767565b6101a161019c36600461130c565b61077c565b6040519015158152602001610135565b61012161079e565b6101a16101c736600461133c565b60026020526000908152604090205460ff1681565b6101846101ea36600461129c565b61088b565b60005461021f906001600160a01b03811690600160a01b81046001600160581b031690600160f81b900460ff1683565b604080516001600160a01b0390941684526001600160581b03909216602084015260ff1690820152606001610135565b61018461025d366004611359565b6108d2565b61027561027036600461129c565b6108e3565b604051610135919061137c565b61018461029036600461133c565b610ab0565b6101217f000000000000000000000000000000000000000000000000000000000000000081565b6101846102ca36600461133c565b610aea565b6040516331a9108f60e11b815260048101859052606090610367906001600160a01b037f00000000000000000000000000000000000000000000000000000000000000001690636352211e90602401602060405180830381865afa15801561033b573d6000803e3d6000fd5b505050506040513d601f19601f8201168201806040525081019061035f91906113e1565b86601c610b52565b8167ffffffffffffffff811115610380576103806113fe565b6040519080825280602002602001820160405280156103a9578160200160208202803683370190505b506040805133602082015290810186905290915060600160405160208183030381529060405280519060200120935060005b8281101561062257600260008585848181106103f9576103f9611414565b905060200281019061040b919061142a565b61041990602081019061133c565b6001600160a01b0316815260208101919091526040016000205460ff166104965783838281811061044c5761044c611414565b905060200281019061045e919061142a565b61046c90602081019061133c565b604051630f308fc760e31b81526001600160a01b0390911660048201526024015b60405180910390fd5b60008484838181106104aa576104aa611414565b90506020028101906104bc919061142a565b6104ca90602081019061133c565b60405163090981b360e11b815260048101899052602481018890526001600160a01b0391909116906312130366906044016020604051808303816000875af115801561051a573d6000803e3d6000fd5b505050506040513d601f19601f8201168201806040525081019061053e91906113e1565b90508083838151811061055357610553611414565b6001600160a01b03909216602092830291909101820152600088815260019182905260409020610584918390610c3b565b50806001600160a01b0316632241dc528686858181106105a6576105a6611414565b90506020028101906105b8919061142a565b6105c690602081019061144a565b6040518363ffffffff1660e01b81526004016105e392919061151e565b600060405180830381600087803b1580156105fd57600080fd5b505af1158015610611573d6000803e3d6000fd5b5050600190930192506103db915050565b507f634a16adce09bb7439f51180ceb32df84a531767dbcc60a3f7ff67baaace751e858285853360405161065a959493929190611532565b60405180910390a1949350505050565b600081815260016020526040902060609061068490610c59565b92915050565b610692610c6d565b60005b81811015610762576001600260008585858181106106b5576106b5611414565b90506020020160208101906106ca919061133c565b6001600160a01b031681526020810191909152604001600020805460ff19169115159190911790557f47459529aa21b5f8615a27cd523fad12250733748e422c3eada707a36d3c49bc83838381811061072557610725611414565b905060200201602081019061073a919061133c565b604080516001600160a01b0390921682523360208301520160405180910390a1600101610695565b505050565b61076f610c6d565b61077a600080610d73565b565b600082815260016020819052604082206107969084610efc565b149392505050565b60408051606081018252600080546001600160a01b0381168352600160a01b81046001600160581b031660208401819052600160f81b90910460ff16938301939093529182036107ee5751919050565b60208101516040516331a9108f60e11b81526001600160581b0390911660048201527f00000000000000000000000000000000000000000000000000000000000000006001600160a01b031690636352211e90602401602060405180830381865afa158015610861573d6000803e3d6000fd5b505050506040513d601f19601f8201168201806040525081019061088591906113e1565b91505090565b610893610c6d565b8015806108a657506001600160581b0381115b156108c45760405163ecb9b1c760e01b815260040160405180910390fd5b6108cf600082610d73565b50565b6108da610c6d565b6108cf81610f11565b6000818152600160205260408120606091906108fe90610c59565b80519091508067ffffffffffffffff81111561091c5761091c6113fe565b60405190808252806020026020018201604052801561096757816020015b604080516060810182526000808252602080830182905292820152825260001990920191018161093a5790505b50925060005b81811015610aa857600083828151811061098957610989611414565b602002602001015190506040518060600160405280826001600160a01b03168152602001826001600160a01b031663ad42938b6040518163ffffffff1660e01b8152600401602060405180830381865afa1580156109eb573d6000803e3d6000fd5b505050506040513d601f19601f82011682018060405250810190610a0f91906113e1565b6001600160a01b03168152602001826001600160a01b03166361c864176040518163ffffffff1660e01b8152600401602060405180830381865afa158015610a5b573d6000803e3d6000fd5b505050506040513d601f19601f82011682018060405250810190610a7f919061163a565b815250858381518110610a9457610a94611414565b60209081029190910101525060010161096d565b505050919050565b610ab8610c6d565b6001600160a01b038116610adf5760405163ecb9b1c760e01b815260040160405180910390fd5b6108cf816000610d73565b610af2610c6d565b6001600160a01b038116600081815260026020908152604091829020805460ff19166001179055815192835233908301527f47459529aa21b5f8615a27cd523fad12250733748e422c3eada707a36d3c49bc91015b60405180910390a150565b336001600160a01b0384168114801590610c175750604051631a45b42760e11b81526001600160a01b0382811660048301528581166024830152604482018590526064820184905260016084830181905260a48301527f0000000000000000000000000000000000000000000000000000000000000000169063348b684e9060c401602060405180830381865afa158015610bf1573d6000803e3d6000fd5b505050506040513d601f19601f82011682018060405250810190610c159190611653565b155b15610c355760405163075fd2b160e01b815260040160405180910390fd5b50505050565b6000610c51846001600160a01b03851684610f61565b949350505050565b60606000610c6683610f7e565b9392505050565b604080516060810182526000546001600160a01b0381168252600160a01b81046001600160581b031660208301819052600160f81b90910460ff1692820192909252906108cf9015610d555760208201516040516331a9108f60e11b81526001600160581b0390911660048201527f00000000000000000000000000000000000000000000000000000000000000006001600160a01b031690636352211e90602401602060405180830381865afa158015610d2c573d6000803e3d6000fd5b505050506040513d601f19601f82011682018060405250810190610d5091906113e1565b610d58565b81515b82602001516001600160581b0316836040015160ff16610b52565b6001600160581b03811615801590610d9357506001600160a01b03821615155b15610db15760405163ecb9b1c760e01b815260040160405180910390fd5b60408051606081018252600080546001600160a01b0381168352600160a01b81046001600160581b031660208401819052600160f81b90910460ff1693830193909352909115610e975760208201516040516331a9108f60e11b81526001600160581b0390911660048201527f00000000000000000000000000000000000000000000000000000000000000006001600160a01b031690636352211e90602401602060405180830381865afa158015610e6e573d6000803e3d6000fd5b505050506040513d601f19601f82011682018060405250810190610e9291906113e1565b610e9a565b81515b604080516060810182526001600160a01b0387168082526001600160581b0387166020830181905260009290930182905281546001600160f81b03191617600160a01b909202919091176001600160f81b031690559050610c35818585610f89565b6000610c66836001600160a01b03841661107b565b600080546001600160f81b0316600160f81b60ff8416908102919091179091556040519081527f6f4725627084d54c46c628b050805457a1cd38c5cd20c1f00132960f8b546fed90602001610b47565b60008281526002840160205260408120829055610c5184846110c2565b6060610684826110ce565b303b15610762576001600160581b03811615611035576040516331a9108f60e11b81526001600160581b03821660048201527f00000000000000000000000000000000000000000000000000000000000000006001600160a01b031690636352211e90602401602060405180830381865afa15801561100c573d6000803e3d6000fd5b505050506040513d601f19601f8201168201806040525081019061103091906113e1565b611037565b815b6001600160a01b0316836001600160a01b03167f8be0079c531659141344cd1fd0a4f28419497f9722a3daafe3b4186f6b6457e060405160405180910390a3505050565b6000818152600283016020526040812054801580156110a1575061109f84846110db565b155b15610c665760405163015ab34360e11b81526004810184905260240161048d565b6000610c6683836110fa565b60606000610c6683611149565b6000610c66838360008181526001830160205260408120541515610c66565b600081815260018301602052604081205461114157508154600181810184556000848152602080822090930184905584548482528286019093526040902091909155610684565b506000610684565b60608160000180548060200260200160405190810160405280929190818152602001828054801561119957602002820191906000526020600020905b815481526020019060010190808311611185575b50505050509050919050565b60008083601f8401126111b757600080fd5b50813567ffffffffffffffff8111156111cf57600080fd5b6020830191508360208260051b85010111156111ea57600080fd5b9250929050565b6000806000806060858703121561120757600080fd5b8435935060208501359250604085013567ffffffffffffffff81111561122c57600080fd5b611238878288016111a5565b95989497509550505050565b60008151808452602080850194506020840160005b8381101561127e5781516001600160a01b031687529582019590820190600101611259565b509495945050505050565b602081526000610c666020830184611244565b6000602082840312156112ae57600080fd5b5035919050565b600080602083850312156112c857600080fd5b823567ffffffffffffffff8111156112df57600080fd5b6112eb858286016111a5565b90969095509350505050565b6001600160a01b03811681146108cf57600080fd5b6000806040838503121561131f57600080fd5b823591506020830135611331816112f7565b809150509250929050565b60006020828403121561134e57600080fd5b8135610c66816112f7565b60006020828403121561136b57600080fd5b813560ff81168114610c6657600080fd5b602080825282518282018190526000919060409081850190868401855b828110156113d457815180516001600160a01b0390811686528782015116878601528501518585015260609093019290850190600101611399565b5091979650505050505050565b6000602082840312156113f357600080fd5b8151610c66816112f7565b634e487b7160e01b600052604160045260246000fd5b634e487b7160e01b600052603260045260246000fd5b60008235603e1983360301811261144057600080fd5b9190910192915050565b6000808335601e1984360301811261146157600080fd5b83018035915067ffffffffffffffff82111561147c57600080fd5b6020019150600781901b36038213156111ea57600080fd5b818352600060208085019450826000805b868110156115125782356114b8816112f7565b6001600160a01b039081168952838501359063ffffffff82168083146114dc578485fd5b8a87015260409150848201356114f1816112f7565b169089015260608381013590890152608097880197909201916001016114a5565b50959695505050505050565b602081526000610c51602083018486611494565b8581526000602060808184015261154c6080840188611244565b60408482036040860152818783528383019050838860051b8401018960005b8a81101561161357858303601f190184528135368d9003603e1901811261159157600080fd5b8c01803561159e816112f7565b6001600160a01b031684528088013536829003601e190181126115c057600080fd5b01878101903567ffffffffffffffff8111156115db57600080fd5b8060071b36038213156115ed57600080fd5b86898601526115ff8786018284611494565b95890195945050509086019060010161156b565b50506001600160a01b038816606088015294506116309350505050565b9695505050505050565b60006020828403121561164c57600080fd5b5051919050565b60006020828403121561166557600080fd5b81518015158114610c6657600080fdfea2646970667358221220dfa5587c2ec0c7915c8d3f6c0303dad2084e0d2b22a6d4fea6de9cb7c380f3dc64736f6c63430008170033",
	"deployedBytecode": "0x608060405234801561001057600080fd5b50600436106100f55760003560e01c8063a1031a4f11610097578063c70fb6f611610066578063c70fb6f614610262578063f2fde38b14610282578063f434c91414610295578063f73ac20f146102bc57600080fd5b8063a1031a4f146101b9578063a220d696146101dc578063ba23c36e146101ef578063c0fb5e851461024f57600080fd5b8063669745a5116100d3578063669745a514610171578063715018a61461018657806383db9d011461018e5780638da5cb5b146101b157600080fd5b8063293c4999146100fa5780632f3f50e01461013e5780633d12cb871461015e575b600080fd5b6101217f000000000000000000000000f8ea7ba8d990646420123feaa2447b534ab2f53c81565b6040516001600160a01b0390911681526020015b60405180910390f35b61015161014c3660046111f1565b6102cf565b6040516101359190611289565b61015161016c36600461129c565b61066a565b61018461017f3660046112b5565b61068a565b005b610184610767565b6101a161019c36600461130c565b61077c565b6040519015158152602001610135565b61012161079e565b6101a16101c736600461133c565b60026020526000908152604090205460ff1681565b6101846101ea36600461129c565b61088b565b60005461021f906001600160a01b03811690600160a01b81046001600160581b031690600160f81b900460ff1683565b604080516001600160a01b0390941684526001600160581b03909216602084015260ff1690820152606001610135565b61018461025d366004611359565b6108d2565b61027561027036600461129c565b6108e3565b604051610135919061137c565b61018461029036600461133c565b610ab0565b6101217f000000000000000000000000cfba13b8dcb2bb4f84c5d2704882009a539bee9a81565b6101846102ca36600461133c565b610aea565b6040516331a9108f60e11b815260048101859052606090610367906001600160a01b037f000000000000000000000000f8ea7ba8d990646420123feaa2447b534ab2f53c1690636352211e90602401602060405180830381865afa15801561033b573d6000803e3d6000fd5b505050506040513d601f19601f8201168201806040525081019061035f91906113e1565b86601c610b52565b8167ffffffffffffffff811115610380576103806113fe565b6040519080825280602002602001820160405280156103a9578160200160208202803683370190505b506040805133602082015290810186905290915060600160405160208183030381529060405280519060200120935060005b8281101561062257600260008585848181106103f9576103f9611414565b905060200281019061040b919061142a565b61041990602081019061133c565b6001600160a01b0316815260208101919091526040016000205460ff166104965783838281811061044c5761044c611414565b905060200281019061045e919061142a565b61046c90602081019061133c565b604051630f308fc760e31b81526001600160a01b0390911660048201526024015b60405180910390fd5b60008484838181106104aa576104aa611414565b90506020028101906104bc919061142a565b6104ca90602081019061133c565b60405163090981b360e11b815260048101899052602481018890526001600160a01b0391909116906312130366906044016020604051808303816000875af115801561051a573d6000803e3d6000fd5b505050506040513d601f19601f8201168201806040525081019061053e91906113e1565b90508083838151811061055357610553611414565b6001600160a01b03909216602092830291909101820152600088815260019182905260409020610584918390610c3b565b50806001600160a01b0316632241dc528686858181106105a6576105a6611414565b90506020028101906105b8919061142a565b6105c690602081019061144a565b6040518363ffffffff1660e01b81526004016105e392919061151e565b600060405180830381600087803b1580156105fd57600080fd5b505af1158015610611573d6000803e3d6000fd5b5050600190930192506103db915050565b507f634a16adce09bb7439f51180ceb32df84a531767dbcc60a3f7ff67baaace751e858285853360405161065a959493929190611532565b60405180910390a1949350505050565b600081815260016020526040902060609061068490610c59565b92915050565b610692610c6d565b60005b81811015610762576001600260008585858181106106b5576106b5611414565b90506020020160208101906106ca919061133c565b6001600160a01b031681526020810191909152604001600020805460ff19169115159190911790557f47459529aa21b5f8615a27cd523fad12250733748e422c3eada707a36d3c49bc83838381811061072557610725611414565b905060200201602081019061073a919061133c565b604080516001600160a01b0390921682523360208301520160405180910390a1600101610695565b505050565b61076f610c6d565b61077a600080610d73565b565b600082815260016020819052604082206107969084610efc565b149392505050565b60408051606081018252600080546001600160a01b0381168352600160a01b81046001600160581b031660208401819052600160f81b90910460ff16938301939093529182036107ee5751919050565b60208101516040516331a9108f60e11b81526001600160581b0390911660048201527f000000000000000000000000f8ea7ba8d990646420123feaa2447b534ab2f53c6001600160a01b031690636352211e90602401602060405180830381865afa158015610861573d6000803e3d6000fd5b505050506040513d601f19601f8201168201806040525081019061088591906113e1565b91505090565b610893610c6d565b8015806108a657506001600160581b0381115b156108c45760405163ecb9b1c760e01b815260040160405180910390fd5b6108cf600082610d73565b50565b6108da610c6d565b6108cf81610f11565b6000818152600160205260408120606091906108fe90610c59565b80519091508067ffffffffffffffff81111561091c5761091c6113fe565b60405190808252806020026020018201604052801561096757816020015b604080516060810182526000808252602080830182905292820152825260001990920191018161093a5790505b50925060005b81811015610aa857600083828151811061098957610989611414565b602002602001015190506040518060600160405280826001600160a01b03168152602001826001600160a01b031663ad42938b6040518163ffffffff1660e01b8152600401602060405180830381865afa1580156109eb573d6000803e3d6000fd5b505050506040513d601f19601f82011682018060405250810190610a0f91906113e1565b6001600160a01b03168152602001826001600160a01b03166361c864176040518163ffffffff1660e01b8152600401602060405180830381865afa158015610a5b573d6000803e3d6000fd5b505050506040513d601f19601f82011682018060405250810190610a7f919061163a565b815250858381518110610a9457610a94611414565b60209081029190910101525060010161096d565b505050919050565b610ab8610c6d565b6001600160a01b038116610adf5760405163ecb9b1c760e01b815260040160405180910390fd5b6108cf816000610d73565b610af2610c6d565b6001600160a01b038116600081815260026020908152604091829020805460ff19166001179055815192835233908301527f47459529aa21b5f8615a27cd523fad12250733748e422c3eada707a36d3c49bc91015b60405180910390a150565b336001600160a01b0384168114801590610c175750604051631a45b42760e11b81526001600160a01b0382811660048301528581166024830152604482018590526064820184905260016084830181905260a48301527f000000000000000000000000cfba13b8dcb2bb4f84c5d2704882009a539bee9a169063348b684e9060c401602060405180830381865afa158015610bf1573d6000803e3d6000fd5b505050506040513d601f19601f82011682018060405250810190610c159190611653565b155b15610c355760405163075fd2b160e01b815260040160405180910390fd5b50505050565b6000610c51846001600160a01b03851684610f61565b949350505050565b60606000610c6683610f7e565b9392505050565b604080516060810182526000546001600160a01b0381168252600160a01b81046001600160581b031660208301819052600160f81b90910460ff1692820192909252906108cf9015610d555760208201516040516331a9108f60e11b81526001600160581b0390911660048201527f000000000000000000000000f8ea7ba8d990646420123feaa2447b534ab2f53c6001600160a01b031690636352211e90602401602060405180830381865afa158015610d2c573d6000803e3d6000fd5b505050506040513d601f19601f82011682018060405250810190610d5091906113e1565b610d58565b81515b82602001516001600160581b0316836040015160ff16610b52565b6001600160581b03811615801590610d9357506001600160a01b03821615155b15610db15760405163ecb9b1c760e01b815260040160405180910390fd5b60408051606081018252600080546001600160a01b0381168352600160a01b81046001600160581b031660208401819052600160f81b90910460ff1693830193909352909115610e975760208201516040516331a9108f60e11b81526001600160581b0390911660048201527f000000000000000000000000f8ea7ba8d990646420123feaa2447b534ab2f53c6001600160a01b031690636352211e90602401602060405180830381865afa158015610e6e573d6000803e3d6000fd5b505050506040513d601f19601f82011682018060405250810190610e9291906113e1565b610e9a565b81515b604080516060810182526001600160a01b0387168082526001600160581b0387166020830181905260009290930182905281546001600160f81b03191617600160a01b909202919091176001600160f81b031690559050610c35818585610f89565b6000610c66836001600160a01b03841661107b565b600080546001600160f81b0316600160f81b60ff8416908102919091179091556040519081527f6f4725627084d54c46c628b050805457a1cd38c5cd20c1f00132960f8b546fed90602001610b47565b60008281526002840160205260408120829055610c5184846110c2565b6060610684826110ce565b303b15610762576001600160581b03811615611035576040516331a9108f60e11b81526001600160581b03821660048201527f000000000000000000000000f8ea7ba8d990646420123feaa2447b534ab2f53c6001600160a01b031690636352211e90602401602060405180830381865afa15801561100c573d6000803e3d6000fd5b505050506040513d601f19601f8201168201806040525081019061103091906113e1565b611037565b815b6001600160a01b0316836001600160a01b03167f8be0079c531659141344cd1fd0a4f28419497f9722a3daafe3b4186f6b6457e060405160405180910390a3505050565b6000818152600283016020526040812054801580156110a1575061109f84846110db565b155b15610c665760405163015ab34360e11b81526004810184905260240161048d565b6000610c6683836110fa565b60606000610c6683611149565b6000610c66838360008181526001830160205260408120541515610c66565b600081815260018301602052604081205461114157508154600181810184556000848152602080822090930184905584548482528286019093526040902091909155610684565b506000610684565b60608160000180548060200260200160405190810160405280929190818152602001828054801561119957602002820191906000526020600020905b815481526020019060010190808311611185575b50505050509050919050565b60008083601f8401126111b757600080fd5b50813567ffffffffffffffff8111156111cf57600080fd5b6020830191508360208260051b85010111156111ea57600080fd5b9250929050565b6000806000806060858703121561120757600080fd5b8435935060208501359250604085013567ffffffffffffffff81111561122c57600080fd5b611238878288016111a5565b95989497509550505050565b60008151808452602080850194506020840160005b8381101561127e5781516001600160a01b031687529582019590820190600101611259565b509495945050505050565b602081526000610c666020830184611244565b6000602082840312156112ae57600080fd5b5035919050565b600080602083850312156112c857600080fd5b823567ffffffffffffffff8111156112df57600080fd5b6112eb858286016111a5565b90969095509350505050565b6001600160a01b03811681146108cf57600080fd5b6000806040838503121561131f57600080fd5b823591506020830135611331816112f7565b809150509250929050565b60006020828403121561134e57600080fd5b8135610c66816112f7565b60006020828403121561136b57600080fd5b813560ff81168114610c6657600080fd5b602080825282518282018190526000919060409081850190868401855b828110156113d457815180516001600160a01b0390811686528782015116878601528501518585015260609093019290850190600101611399565b5091979650505050505050565b6000602082840312156113f357600080fd5b8151610c66816112f7565b634e487b7160e01b600052604160045260246000fd5b634e487b7160e01b600052603260045260246000fd5b60008235603e1983360301811261144057600080fd5b9190910192915050565b6000808335601e1984360301811261146157600080fd5b83018035915067ffffffffffffffff82111561147c57600080fd5b6020019150600781901b36038213156111ea57600080fd5b818352600060208085019450826000805b868110156115125782356114b8816112f7565b6001600160a01b039081168952838501359063ffffffff82168083146114dc578485fd5b8a87015260409150848201356114f1816112f7565b169089015260608381013590890152608097880197909201916001016114a5565b50959695505050505050565b602081526000610c51602083018486611494565b8581526000602060808184015261154c6080840188611244565b60408482036040860152818783528383019050838860051b8401018960005b8a81101561161357858303601f190184528135368d9003603e1901811261159157600080fd5b8c01803561159e816112f7565b6001600160a01b031684528088013536829003601e190181126115c057600080fd5b01878101903567ffffffffffffffff8111156115db57600080fd5b8060071b36038213156115ed57600080fd5b86898601526115ff8786018284611494565b95890195945050509086019060010161156b565b50506001600160a01b038816606088015294506116309350505050565b9695505050505050565b60006020828403121561164c57600080fd5b5051919050565b60006020828403121561166557600080fd5b81518015158114610c6657600080fdfea2646970667358221220dfa5587c2ec0c7915c8d3f6c0303dad2084e0d2b22a6d4fea6de9cb7c380f3dc64736f6c63430008170033",
	"devdoc": {
		"kind": "dev",
		"methods": {
			"allowSuckerDeployer(address)": {
				"details": "Can only be called by this contract's owner (initially project ID 1, or JuiceboxDAO).",
				"params": {
					"deployer": "The address of the deployer to add."
				}
			},
			"allowSuckerDeployers(address[])": {
				"details": "Can only be called by this contract's owner (initially project ID 1, or JuiceboxDAO).",
				"params": {
					"deployers": "The address of the deployer to add."
				}
			},
			"deploySuckersFor(uint256,bytes32,(address,(address,uint32,address,uint256)[])[])": {
				"details": "The caller must be the project's owner or have `JBPermissionIds.DEPLOY_SUCKERS` from the project's owner.",
				"params": {
					"configurations": "The sucker deployer configs to use to deploy the suckers.",
					"projectId": "The ID of the project to deploy suckers for.",
					"salt": "The salt used to deploy the contract. For the suckers to be peers, this must be the same value on each chain where suckers are deployed."
				},
				"returns": {
					"suckers": "The addresses of the deployed suckers."
				}
			},
			"getSuckerPairs(uint256)": {
				"params": {
					"projectId": "The ID of the project to get the suckers of."
				}
			},
			"isSuckerOf(uint256,address)": {
				"params": {
					"projectId": "The ID of the project to check for.",
					"suckerAddress": "The address of the sucker to check."
				}
			},
			"setPermissionId(uint8)": {
				"params": {
					"permissionId": "The ID of the permission to use for `onlyOwner`."
				}
			},
			"suckersOf(uint256)": {
				"params": {
					"projectId": "The ID of the project to get the suckers of."
				}
			},
			"transferOwnership(address)": {
				"params": {
					"newOwner": "The address that should receive ownership of this contract."
				}
			},
			"transferOwnershipToProject(uint256)": {
				"details": "The `projectId` must fit within a `uint88`.",
				"params": {
					"projectId": "The ID of the project that should receive ownership of this contract."
				}
			}
		},
		"version": 1
	},
	"userdoc": {
		"kind": "user",
		"methods": {
			"PERMISSIONS()": {
				"notice": "A contract storing permissions."
			},
			"PROJECTS()": {
				"notice": "Mints ERC-721s that represent project ownership and transfers."
			},
			"allowSuckerDeployer(address)": {
				"notice": "Adds a suckers deployer to the allowlist."
			},
			"allowSuckerDeployers(address[])": {
				"notice": "Adds multiple suckers deployer to the allowlist."
			},
			"deploySuckersFor(uint256,bytes32,(address,(address,uint32,address,uint256)[])[])": {
				"notice": "Deploy one or more suckers for the specified project."
			},
			"getSuckerPairs(uint256)": {
				"notice": "Helper function for retrieving the projects suckers and their metadata."
			},
			"isSuckerOf(uint256,address)": {
				"notice": "Returns true if the specified sucker belongs to the specified project, and was deployed through this registry."
			},
			"jbOwner()": {
				"notice": "This contract's owner information."
			},
			"owner()": {
				"notice": "Returns the owner's address based on this contract's `JBOwner` owner information."
			},
			"renounceOwnership()": {
				"notice": "Gives up ownership of this contract, making it impossible to call `onlyOwner`/`_checkOwner` functions. Can only be called by the current owner."
			},
			"setPermissionId(uint8)": {
				"notice": "Sets the permission ID which, when granted from the owner, allows other addresses to perform operations on their behalf."
			},
			"suckerDeployerIsAllowed(address)": {
				"notice": "Tracks whether the specified sucker deployer is approved by this registry."
			},
			"suckersOf(uint256)": {
				"notice": "Gets all of the specified project's suckers which were deployed through this registry."
			},
			"transferOwnership(address)": {
				"notice": "Transfers ownership of this contract to a new account (the `newOwner`). Can only be called by the current owner."
			},
			"transferOwnershipToProject(uint256)": {
				"notice": "Transfer ownership of this contract to a new Juicebox project."
			}
		},
		"version": 1
	},
	"gitCommit": "59f2be6fa6bd339aacf9098e29671220bae7ab13",
	"sourceName": "src/JBSuckerRegistry.sol",
	"chainId": "11155111",
	"linkReferences": {},
	"deployedLinkReferences": {},
	"history": []
}