{
	"_format": "sphinx-sol-ct-artifact-1",
	"merkleRoot": "0x22ddb8f140bae79c9c9fca15cd8e9878d16e11286543bd940f818f7a9507e443",
	"address": "0xbe8a93d91ef16ca8040dee812915c38d3c59d6ab",
	"sourceName": "src/JBSuckerRegistry.sol",
	"contractName": "JBSuckerRegistry",
	"chainId": "0xaa36a7",
	"abi": [
		{
			"inputs": [
				{
					"internalType": "contract IJBDirectory",
					"name": "directory",
					"type": "address"
				},
				{
					"internalType": "contract IJBPermissions",
					"name": "permissions",
					"type": "address"
				},
				{
					"internalType": "address",
					"name": "initialOwner",
					"type": "address"
				},
				{
					"internalType": "address",
					"name": "trusted_forwarder",
					"type": "address"
				}
			],
			"stateMutability": "nonpayable",
			"type": "constructor"
		},
		{
			"inputs": [],
			"name": "DIRECTORY",
			"outputs": [
				{
					"internalType": "contract IJBDirectory",
					"name": "",
					"type": "address"
				}
			],
			"stateMutability": "view",
			"type": "function"
		},
		{
			"inputs": [],
			"name": "PERMISSIONS",
			"outputs": [
				{
					"internalType": "contract IJBPermissions",
					"name": "",
					"type": "address"
				}
			],
			"stateMutability": "view",
			"type": "function"
		},
		{
			"inputs": [],
			"name": "PROJECTS",
			"outputs": [
				{
					"internalType": "contract IJBProjects",
					"name": "",
					"type": "address"
				}
			],
			"stateMutability": "view",
			"type": "function"
		},
		{
			"inputs": [
				{
					"internalType": "address",
					"name": "deployer",
					"type": "address"
				}
			],
			"name": "allowSuckerDeployer",
			"outputs": [],
			"stateMutability": "nonpayable",
			"type": "function"
		},
		{
			"inputs": [
				{
					"internalType": "address[]",
					"name": "deployers",
					"type": "address[]"
				}
			],
			"name": "allowSuckerDeployers",
			"outputs": [],
			"stateMutability": "nonpayable",
			"type": "function"
		},
		{
			"inputs": [
				{
					"internalType": "uint256",
					"name": "projectId",
					"type": "uint256"
				},
				{
					"internalType": "bytes32",
					"name": "salt",
					"type": "bytes32"
				},
				{
					"components": [
						{
							"internalType": "contract IJBSuckerDeployer",
							"name": "deployer",
							"type": "address"
						},
						{
							"components": [
								{
									"internalType": "address",
									"name": "localToken",
									"type": "address"
								},
								{
									"internalType": "uint32",
									"name": "minGas",
									"type": "uint32"
								},
								{
									"internalType": "address",
									"name": "remoteToken",
									"type": "address"
								},
								{
									"internalType": "uint256",
									"name": "minBridgeAmount",
									"type": "uint256"
								}
							],
							"internalType": "struct JBTokenMapping[]",
							"name": "mappings",
							"type": "tuple[]"
						}
					],
					"internalType": "struct JBSuckerDeployerConfig[]",
					"name": "configurations",
					"type": "tuple[]"
				}
			],
			"name": "deploySuckersFor",
			"outputs": [
				{
					"internalType": "address[]",
					"name": "suckers",
					"type": "address[]"
				}
			],
			"stateMutability": "nonpayable",
			"type": "function"
		},
		{
			"inputs": [
				{
					"internalType": "uint256",
					"name": "projectId",
					"type": "uint256"
				}
			],
			"name": "getSuckerPairsOf",
			"outputs": [
				{
					"components": [
						{
							"internalType": "address",
							"name": "local",
							"type": "address"
						},
						{
							"internalType": "address",
							"name": "remote",
							"type": "address"
						},
						{
							"internalType": "uint256",
							"name": "remoteChainId",
							"type": "uint256"
						}
					],
					"internalType": "struct JBSuckersPair[]",
					"name": "pairs",
					"type": "tuple[]"
				}
			],
			"stateMutability": "view",
			"type": "function"
		},
		{
			"inputs": [
				{
					"internalType": "uint256",
					"name": "projectId",
					"type": "uint256"
				},
				{
					"internalType": "address",
					"name": "addr",
					"type": "address"
				}
			],
			"name": "isSuckerOf",
			"outputs": [
				{
					"internalType": "bool",
					"name": "",
					"type": "bool"
				}
			],
			"stateMutability": "view",
			"type": "function"
		},
		{
			"inputs": [
				{
					"internalType": "address",
					"name": "forwarder",
					"type": "address"
				}
			],
			"name": "isTrustedForwarder",
			"outputs": [
				{
					"internalType": "bool",
					"name": "",
					"type": "bool"
				}
			],
			"stateMutability": "view",
			"type": "function"
		},
		{
			"inputs": [],
			"name": "owner",
			"outputs": [
				{
					"internalType": "address",
					"name": "",
					"type": "address"
				}
			],
			"stateMutability": "view",
			"type": "function"
		},
		{
			"inputs": [
				{
					"internalType": "uint256",
					"name": "projectId",
					"type": "uint256"
				},
				{
					"internalType": "address",
					"name": "sucker",
					"type": "address"
				}
			],
			"name": "removeDeprecatedSucker",
			"outputs": [],
			"stateMutability": "nonpayable",
			"type": "function"
		},
		{
			"inputs": [
				{
					"internalType": "address",
					"name": "deployer",
					"type": "address"
				}
			],
			"name": "removeSuckerDeployer",
			"outputs": [],
			"stateMutability": "nonpayable",
			"type": "function"
		},
		{
			"inputs": [],
			"name": "renounceOwnership",
			"outputs": [],
			"stateMutability": "nonpayable",
			"type": "function"
		},
		{
			"inputs": [
				{
					"internalType": "address",
					"name": "deployer",
					"type": "address"
				}
			],
			"name": "suckerDeployerIsAllowed",
			"outputs": [
				{
					"internalType": "bool",
					"name": "",
					"type": "bool"
				}
			],
			"stateMutability": "view",
			"type": "function"
		},
		{
			"inputs": [
				{
					"internalType": "uint256",
					"name": "projectId",
					"type": "uint256"
				}
			],
			"name": "suckersOf",
			"outputs": [
				{
					"internalType": "address[]",
					"name": "",
					"type": "address[]"
				}
			],
			"stateMutability": "view",
			"type": "function"
		},
		{
			"inputs": [
				{
					"internalType": "address",
					"name": "newOwner",
					"type": "address"
				}
			],
			"name": "transferOwnership",
			"outputs": [],
			"stateMutability": "nonpayable",
			"type": "function"
		},
		{
			"inputs": [],
			"name": "trustedForwarder",
			"outputs": [
				{
					"internalType": "address",
					"name": "",
					"type": "address"
				}
			],
			"stateMutability": "view",
			"type": "function"
		},
		{
			"anonymous": false,
			"inputs": [
				{
					"indexed": true,
					"internalType": "address",
					"name": "previousOwner",
					"type": "address"
				},
				{
					"indexed": true,
					"internalType": "address",
					"name": "newOwner",
					"type": "address"
				}
			],
			"name": "OwnershipTransferred",
			"type": "event"
		},
		{
			"anonymous": false,
			"inputs": [
				{
					"indexed": false,
					"internalType": "uint256",
					"name": "projectId",
					"type": "uint256"
				},
				{
					"indexed": false,
					"internalType": "address",
					"name": "sucker",
					"type": "address"
				},
				{
					"components": [
						{
							"internalType": "contract IJBSuckerDeployer",
							"name": "deployer",
							"type": "address"
						},
						{
							"components": [
								{
									"internalType": "address",
									"name": "localToken",
									"type": "address"
								},
								{
									"internalType": "uint32",
									"name": "minGas",
									"type": "uint32"
								},
								{
									"internalType": "address",
									"name": "remoteToken",
									"type": "address"
								},
								{
									"internalType": "uint256",
									"name": "minBridgeAmount",
									"type": "uint256"
								}
							],
							"internalType": "struct JBTokenMapping[]",
							"name": "mappings",
							"type": "tuple[]"
						}
					],
					"indexed": false,
					"internalType": "struct JBSuckerDeployerConfig",
					"name": "configuration",
					"type": "tuple"
				},
				{
					"indexed": false,
					"internalType": "address",
					"name": "caller",
					"type": "address"
				}
			],
			"name": "SuckerDeployedFor",
			"type": "event"
		},
		{
			"anonymous": false,
			"inputs": [
				{
					"indexed": false,
					"internalType": "address",
					"name": "deployer",
					"type": "address"
				},
				{
					"indexed": false,
					"internalType": "address",
					"name": "caller",
					"type": "address"
				}
			],
			"name": "SuckerDeployerAllowed",
			"type": "event"
		},
		{
			"anonymous": false,
			"inputs": [
				{
					"indexed": false,
					"internalType": "address",
					"name": "deployer",
					"type": "address"
				},
				{
					"indexed": false,
					"internalType": "address",
					"name": "caller",
					"type": "address"
				}
			],
			"name": "SuckerDeployerRemoved",
			"type": "event"
		},
		{
			"anonymous": false,
			"inputs": [
				{
					"indexed": false,
					"internalType": "uint256",
					"name": "projectId",
					"type": "uint256"
				},
				{
					"indexed": false,
					"internalType": "address",
					"name": "sucker",
					"type": "address"
				},
				{
					"indexed": false,
					"internalType": "address",
					"name": "caller",
					"type": "address"
				}
			],
			"name": "SuckerDeprecated",
			"type": "event"
		},
		{
			"inputs": [
				{
					"internalType": "address",
					"name": "account",
					"type": "address"
				},
				{
					"internalType": "address",
					"name": "sender",
					"type": "address"
				},
				{
					"internalType": "uint256",
					"name": "projectId",
					"type": "uint256"
				},
				{
					"internalType": "uint256",
					"name": "permissionId",
					"type": "uint256"
				}
			],
			"name": "JBPermissioned_Unauthorized",
			"type": "error"
		},
		{
			"inputs": [
				{
					"internalType": "contract IJBSuckerDeployer",
					"name": "deployer",
					"type": "address"
				}
			],
			"name": "JBSuckerRegistry_InvalidDeployer",
			"type": "error"
		},
		{
			"inputs": [
				{
					"internalType": "uint256",
					"name": "projectId",
					"type": "uint256"
				}
			],
			"name": "JBSuckerRegistry_RulesetDoesNotAllowAddingSucker",
			"type": "error"
		},
		{
			"inputs": [
				{
					"internalType": "uint256",
					"name": "projectId",
					"type": "uint256"
				},
				{
					"internalType": "address",
					"name": "sucker",
					"type": "address"
				}
			],
			"name": "JBSuckerRegistry_SuckerDoesNotBelongToProject",
			"type": "error"
		},
		{
			"inputs": [
				{
					"internalType": "address",
					"name": "sucker",
					"type": "address"
				},
				{
					"internalType": "enum JBSuckerState",
					"name": "suckerState",
					"type": "uint8"
				}
			],
			"name": "JBSuckerRegistry_SuckerIsNotDeprecated",
			"type": "error"
		},
		{
			"inputs": [
				{
					"internalType": "address",
					"name": "owner",
					"type": "address"
				}
			],
			"name": "OwnableInvalidOwner",
			"type": "error"
		},
		{
			"inputs": [
				{
					"internalType": "address",
					"name": "account",
					"type": "address"
				}
			],
			"name": "OwnableUnauthorizedAccount",
			"type": "error"
		}
	],
	"args": [],
	"solcInputHash": "d379805591afc14d9f45346e8058134c",
	"bytecode": "0x6101006040523480156200001257600080fd5b5060405162001b0938038062001b09833981016040819052620000359162000171565b6001600160a01b038082166080528390839081166200006e57604051631e4fbdf760e01b81526000600482015260240160405180910390fd5b620000798162000108565b506001600160a01b0390811660a052841660c08190526040805163293c499960e01b8152905163293c4999916004808201926020929091908290030181865afa158015620000cb573d6000803e3d6000fd5b505050506040513d601f19601f82011682018060405250810190620000f19190620001d9565b6001600160a01b031660e052506200020092505050565b600080546001600160a01b038381166001600160a01b0319831681178455604051919092169283917f8be0079c531659141344cd1fd0a4f28419497f9722a3daafe3b4186f6b6457e09190a35050565b6001600160a01b03811681146200016e57600080fd5b50565b600080600080608085870312156200018857600080fd5b8451620001958162000158565b6020860151909450620001a88162000158565b6040860151909350620001bb8162000158565b6060860151909250620001ce8162000158565b939692955090935050565b600060208284031215620001ec57600080fd5b8151620001f98162000158565b9392505050565b60805160a05160c05160e0516118b3620002566000396000818161013a01526103e1015260006102880152600081816102f60152610d890152600081816101cf0152818161024c0152610f3a01526118b36000f3fe608060405234801561001057600080fd5b506004361061011b5760003560e01c8063767c5e62116100b25780638da5cb5b11610081578063f2fde38b11610066578063f2fde38b146102de578063f434c914146102f1578063f73ac20f1461031857600080fd5b80638da5cb5b146102aa578063a1031a4f146102bb57600080fd5b8063767c5e621461022a5780637da0a8771461024a57806383db9d011461027057806388bc2ef31461028357600080fd5b80633d12cb87116100ee5780633d12cb87146101ac578063572b6c05146101bf578063669745a51461020f578063715018a61461022257600080fd5b8063153bb1bb14610120578063293c4999146101355780632f3f50e014610179578063314fcc3814610199575b600080fd5b61013361012e36600461121a565b61032b565b005b61015c7f000000000000000000000000000000000000000000000000000000000000000081565b6040516001600160a01b0390911681526020015b60405180910390f35b61018c61018736600461127c565b6103a3565b60405161017091906112cf565b6101336101a736600461131c565b610720565b61018c6101ba36600461134c565b6108bd565b6101ff6101cd36600461121a565b7f00000000000000000000000000000000000000000000000000000000000000006001600160a01b0390811691161490565b6040519015158152602001610170565b61013361021d366004611365565b6108dd565b61013361099c565b61023d61023836600461134c565b6109b0565b60405161017091906113a7565b7f000000000000000000000000000000000000000000000000000000000000000061015c565b6101ff61027e36600461131c565b610b99565b61015c7f000000000000000000000000000000000000000000000000000000000000000081565b6000546001600160a01b031661015c565b6101ff6102c936600461121a565b60016020526000908152604090205460ff1681565b6101336102ec36600461121a565b610bcf565b61015c7f000000000000000000000000000000000000000000000000000000000000000081565b61013361032636600461121a565b610c26565b610333610c7e565b6001600160a01b0381166000908152600160205260409020805460ff191690557f1b9942be0c71843c19753c9070512cdce46255a7bf38934a6175b1a684950b948161037d610cf5565b604080516001600160a01b0393841681529290911660208301520160405180910390a150565b6040517f6352211e00000000000000000000000000000000000000000000000000000000815260048101859052606090610454906001600160a01b037f00000000000000000000000000000000000000000000000000000000000000001690636352211e90602401602060405180830381865afa158015610428573d6000803e3d6000fd5b505050506040513d601f19601f8201168201806040525081019061044c919061140c565b86601d610d04565b8167ffffffffffffffff81111561046d5761046d611429565b604051908082528060200260200182016040528015610496578160200160208202803683370190505b5090506104a1610cf5565b604080516001600160a01b039092166020830152810185905260600160405160208183030381529060405280519060200120935060005b828110156107175760008484838181106104f4576104f461143f565b90506020028101906105069190611455565b61050f9061152e565b80516001600160a01b031660009081526001602052604090205490915060ff166105785780516040517f2223f1010000000000000000000000000000000000000000000000000000000081526001600160a01b0390911660048201526024015b60405180910390fd5b80516040517f1213036600000000000000000000000000000000000000000000000000000000815260048101899052602481018890526000916001600160a01b0316906312130366906044016020604051808303816000875af11580156105e3573d6000803e3d6000fd5b505050506040513d601f19601f82011682018060405250810190610607919061140c565b90508084848151811061061c5761061c61143f565b6001600160a01b03909216602092830291909101820152600089815260029091526040902061064d90826001610e54565b5060208201516040517f2241dc520000000000000000000000000000000000000000000000000000000081526001600160a01b03831691632241dc529161069791906004016116c1565b600060405180830381600087803b1580156106b157600080fd5b505af11580156106c5573d6000803e3d6000fd5b505050507fc251bde8ae398be4a0f10fc061bb0cf6e5decd8860b54b7607d06bb6c142d0188882846106f5610cf5565b60405161070594939291906116d4565b60405180910390a150506001016104d8565b50949350505050565b6000828152600260205260408120819061073a9084610e72565b9150915081158061074c575060018114155b15610795576040517f4b2fac56000000000000000000000000000000000000000000000000000000008152600481018590526001600160a01b038416602482015260440161056f565b6000836001600160a01b031663c19d93fb6040518163ffffffff1660e01b8152600401602060405180830381865afa1580156107d5573d6000803e3d6000fd5b505050506040513d601f19601f820116820180604052508101906107f99190611727565b9050600381600381111561080f5761080f611748565b1461084a5783816040517f7312850c00000000000000000000000000000000000000000000000000000000815260040161056f92919061175e565b60008581526002602052604090206108629085610e99565b507fa0598050070757d3cfb55dc6d3bd9f6ac70f5c9e58e5aa29392a9b9c9cf28ef0858561088e610cf5565b604080519384526001600160a01b03928316602085015291169082015260600160405180910390a15050505050565b60008181526002602052604090206060906108d790610eb5565b92915050565b6108e5610c7e565b60005b818110156109975760008383838181106109045761090461143f565b9050602002016020810190610919919061121a565b6001600160a01b0381166000908152600160208190526040909120805460ff1916909117905590507f47459529aa21b5f8615a27cd523fad12250733748e422c3eada707a36d3c49bc8161096b610cf5565b604080516001600160a01b0393841681529290911660208301520160405180910390a1506001016108e8565b505050565b6109a4610c7e565b6109ae6000610ec2565b565b6000818152600260205260408120606091906109cb90610eb5565b9050805167ffffffffffffffff8111156109e7576109e7611429565b604051908082528060200260200182016040528015610a5057816020015b60408051606081018252600080825260208083018290529282015282527fffffffffffffffffffffffffffffffffffffffffffffffffffffffffffffffff909201910181610a055790505b50915060005b8151811015610b92576000828281518110610a7357610a7361143f565b602002602001015190506040518060600160405280826001600160a01b03168152602001826001600160a01b03166311cda4156040518163ffffffff1660e01b8152600401602060405180830381865afa158015610ad5573d6000803e3d6000fd5b505050506040513d601f19601f82011682018060405250810190610af9919061140c565b6001600160a01b03168152602001826001600160a01b031663cdfceeba6040518163ffffffff1660e01b8152600401602060405180830381865afa158015610b45573d6000803e3d6000fd5b505050506040513d601f19601f82011682018060405250810190610b699190611799565b815250848381518110610b7e57610b7e61143f565b602090810291909101015250600101610a56565b5050919050565b600082815260026020526040812081908190610bb59085610e72565b91509150818015610bc65750600181145b95945050505050565b610bd7610c7e565b6001600160a01b038116610c1a576040517f1e4fbdf70000000000000000000000000000000000000000000000000000000081526000600482015260240161056f565b610c2381610ec2565b50565b610c2e610c7e565b6001600160a01b0381166000908152600160208190526040909120805460ff191690911790557f47459529aa21b5f8615a27cd523fad12250733748e422c3eada707a36d3c49bc8161037d610cf5565b610c86610cf5565b6001600160a01b0316610ca16000546001600160a01b031690565b6001600160a01b0316146109ae57610cb7610cf5565b6040517f118cdaa70000000000000000000000000000000000000000000000000000000081526001600160a01b03909116600482015260240161056f565b6000610cff610f2a565b905090565b6000610d0e610cf5565b9050836001600160a01b0316816001600160a01b031614158015610df657506040517f348b684e0000000000000000000000000000000000000000000000000000000081526001600160a01b0382811660048301528581166024830152604482018590526064820184905260016084830181905260a48301527f0000000000000000000000000000000000000000000000000000000000000000169063348b684e9060c401602060405180830381865afa158015610dd0573d6000803e3d6000fd5b505050506040513d601f19601f82011682018060405250810190610df491906117b2565b155b15610e4e576040517f264deeaa0000000000000000000000000000000000000000000000000000000081526001600160a01b03808616600483015282166024820152604481018490526064810183905260840161056f565b50505050565b6000610e6a846001600160a01b03851684610f9f565b949350505050565b6000808080610e8a866001600160a01b038716610fbc565b909450925050505b9250929050565b6000610eae836001600160a01b038416610ff6565b9392505050565b60606000610eae83611013565b600080546001600160a01b038381167fffffffffffffffffffffffff0000000000000000000000000000000000000000831681178455604051919092169283917f8be0079c531659141344cd1fd0a4f28419497f9722a3daafe3b4186f6b6457e09190a35050565b6000366014336001600160a01b037f000000000000000000000000000000000000000000000000000000000000000016148015610f675750808210155b15610f9757600036610f7983856117d4565b610f849282906117f5565b610f8d9161181f565b60601c9250505090565b339250505090565b60008281526002840160205260408120829055610e6a848461101e565b6000818152600283016020526040812054819080610feb57610fde858561102a565b925060009150610e929050565b600192509050610e92565b60008181526002830160205260408120819055610eae8383611036565b60606108d782611042565b6000610eae838361104f565b6000610eae838361109e565b6000610eae83836110b6565b60606000610eae836111a9565b6000818152600183016020526040812054611096575081546001818101845560008481526020808220909301849055845484825282860190935260409020919091556108d7565b5060006108d7565b60008181526001830160205260408120541515610eae565b6000818152600183016020526040812054801561119f5760006110da6001836117d4565b85549091506000906110ee906001906117d4565b905080821461115357600086600001828154811061110e5761110e61143f565b90600052602060002001549050808760000184815481106111315761113161143f565b6000918252602080832090910192909255918252600188019052604090208390555b855486908061116457611164611867565b6001900381819060005260206000200160009055905585600101600086815260200190815260200160002060009055600193505050506108d7565b60009150506108d7565b6060816000018054806020026020016040519081016040528092919081815260200182805480156111f957602002820191906000526020600020905b8154815260200190600101908083116111e5575b50505050509050919050565b6001600160a01b0381168114610c2357600080fd5b60006020828403121561122c57600080fd5b8135610eae81611205565b60008083601f84011261124957600080fd5b50813567ffffffffffffffff81111561126157600080fd5b6020830191508360208260051b8501011115610e9257600080fd5b6000806000806060858703121561129257600080fd5b8435935060208501359250604085013567ffffffffffffffff8111156112b757600080fd5b6112c387828801611237565b95989497509550505050565b6020808252825182820181905260009190848201906040850190845b818110156113105783516001600160a01b0316835292840192918401916001016112eb565b50909695505050505050565b6000806040838503121561132f57600080fd5b82359150602083013561134181611205565b809150509250929050565b60006020828403121561135e57600080fd5b5035919050565b6000806020838503121561137857600080fd5b823567ffffffffffffffff81111561138f57600080fd5b61139b85828601611237565b90969095509350505050565b602080825282518282018190526000919060409081850190868401855b828110156113ff57815180516001600160a01b03908116865287820151168786015285015185850152606090930192908501906001016113c4565b5091979650505050505050565b60006020828403121561141e57600080fd5b8151610eae81611205565b634e487b7160e01b600052604160045260246000fd5b634e487b7160e01b600052603260045260246000fd5b600082357fffffffffffffffffffffffffffffffffffffffffffffffffffffffffffffffc183360301811261148957600080fd5b9190910192915050565b6040805190810167ffffffffffffffff811182821017156114b6576114b6611429565b60405290565b6040516080810167ffffffffffffffff811182821017156114b6576114b6611429565b604051601f82017fffffffffffffffffffffffffffffffffffffffffffffffffffffffffffffffe016810167ffffffffffffffff8111828210171561152657611526611429565b604052919050565b6000604080833603121561154157600080fd5b611549611493565b833561155481611205565b815260208481013567ffffffffffffffff8082111561157257600080fd5b9086019036601f83011261158557600080fd5b81358181111561159757611597611429565b6115a5848260051b016114df565b818152848101925060079190911b8301840190368211156115c557600080fd5b928401925b8184101561163f57608084360312156115e35760008081fd5b6115eb6114bc565b84356115f681611205565b81528486013563ffffffff8116811461160f5760008081fd5b818701528488013561162081611205565b81890152606085810135908201528352608090930192918401916115ca565b93850193909352509195945050505050565b60008151808452602080850194506020840160005b838110156116b657815180516001600160a01b0390811689528482015163ffffffff16858a0152604080830151909116908901526060908101519088015260809096019590820190600101611666565b509495945050505050565b602081526000610eae6020830184611651565b84815260006001600160a01b038086166020840152608060408401528085511660808401526020850151604060a085015261171260c0850182611651565b92505080841660608401525095945050505050565b60006020828403121561173957600080fd5b815160048110610eae57600080fd5b634e487b7160e01b600052602160045260246000fd5b6001600160a01b0383168152604081016004831061178c57634e487b7160e01b600052602160045260246000fd5b8260208301529392505050565b6000602082840312156117ab57600080fd5b5051919050565b6000602082840312156117c457600080fd5b81518015158114610eae57600080fd5b818103818111156108d757634e487b7160e01b600052601160045260246000fd5b6000808585111561180557600080fd5b8386111561181257600080fd5b5050820193919092039150565b7fffffffffffffffffffffffffffffffffffffffff000000000000000000000000813581811691601485101561185f5780818660140360031b1b83161692505b505092915050565b634e487b7160e01b600052603160045260246000fdfea26469706673582212209f134e80de814620b2ff95f4d25caf9fee5e4eb07601cc12017fda260058ae8d64736f6c63430008170033",
	"deployedBytecode": "0x",
	"gitCommit": "7f22f61d7d84ef04b1546af541086a7c090289f0"
}